{
	"contracts/contracts/oracle/OracleRouter.sol": {
		"OracleRouterDev": {
			"abi": [
				{
					"inputs": [
						{
							"internalType": "address",
							"name": "",
							"type": "address"
						}
					],
					"name": "assetToFeed",
					"outputs": [
						{
							"internalType": "address",
							"name": "",
							"type": "address"
						}
					],
					"stateMutability": "view",
					"type": "function"
				},
				{
					"inputs": [
						{
							"internalType": "address",
							"name": "asset",
							"type": "address"
						}
					],
					"name": "price",
					"outputs": [
						{
							"internalType": "uint256",
							"name": "",
							"type": "uint256"
						}
					],
					"stateMutability": "view",
					"type": "function"
				},
				{
					"inputs": [
						{
							"internalType": "address",
							"name": "_asset",
							"type": "address"
						},
						{
							"internalType": "address",
							"name": "_feed",
							"type": "address"
						}
					],
					"name": "setFeed",
					"outputs": [],
					"stateMutability": "nonpayable",
					"type": "function"
				}
			],
			"devdoc": {
				"kind": "dev",
				"methods": {
					"price(address)": {
						"params": {
							"asset": "address of the asset"
						},
						"returns": {
							"_0": "uint256 USD price of 1 of the asset, in 8 decimal fixed"
						}
					}
				},
				"version": 1
			},
			"evm": {
				"assembly": "    /* \"contracts/contracts/oracle/OracleRouter.sol\":3669:4132  contract OracleRouterDev is OracleRouterBase {\r... */\n  mstore(0x40, 0x80)\n  callvalue\n  dup1\n  iszero\n  tag_1\n  jumpi\n  0x00\n  dup1\n  revert\ntag_1:\n  pop\n  dataSize(sub_0)\n  dup1\n  dataOffset(sub_0)\n  0x00\n  codecopy\n  0x00\n  return\nstop\n\nsub_0: assembly {\n        /* \"contracts/contracts/oracle/OracleRouter.sol\":3669:4132  contract OracleRouterDev is OracleRouterBase {\r... */\n      mstore(0x40, 0x80)\n      callvalue\n      dup1\n      iszero\n      tag_1\n      jumpi\n      0x00\n      dup1\n      revert\n    tag_1:\n      pop\n      jumpi(tag_2, lt(calldatasize, 0x04))\n      shr(0xe0, calldataload(0x00))\n      dup1\n      0x40b1eb10\n      eq\n      tag_3\n      jumpi\n      dup1\n      0xaea91078\n      eq\n      tag_4\n      jumpi\n      dup1\n      0xe6741de2\n      eq\n      tag_5\n      jumpi\n    tag_2:\n      0x00\n      dup1\n      revert\n        /* \"contracts/contracts/oracle/OracleRouter.sol\":3776:3879  function setFeed(address _asset, address _feed) external {\r... */\n    tag_3:\n      tag_6\n      0x04\n      dup1\n      calldatasize\n      sub\n      dup2\n      add\n      swap1\n      tag_7\n      swap2\n      swap1\n      tag_8\n      jump\t// in\n    tag_7:\n      tag_9\n      jump\t// in\n    tag_6:\n      stop\n        /* \"contracts/contracts/oracle/OracleRouter.sol\":870:1422  function price(address asset) external view override returns (uint256) {\r... */\n    tag_4:\n      tag_10\n      0x04\n      dup1\n      calldatasize\n      sub\n      dup2\n      add\n      swap1\n      tag_11\n      swap2\n      swap1\n      tag_12\n      jump\t// in\n    tag_11:\n      tag_13\n      jump\t// in\n    tag_10:\n      mload(0x40)\n      tag_14\n      swap2\n      swap1\n      tag_15\n      jump\t// in\n    tag_14:\n      mload(0x40)\n      dup1\n      swap2\n      sub\n      swap1\n      return\n        /* \"contracts/contracts/oracle/OracleRouter.sol\":3721:3767  mapping(address => address) public assetToFeed */\n    tag_5:\n      tag_16\n      0x04\n      dup1\n      calldatasize\n      sub\n      dup2\n      add\n      swap1\n      tag_17\n      swap2\n      swap1\n      tag_12\n      jump\t// in\n    tag_17:\n      tag_18\n      jump\t// in\n    tag_16:\n      mload(0x40)\n      tag_19\n      swap2\n      swap1\n      tag_20\n      jump\t// in\n    tag_19:\n      mload(0x40)\n      dup1\n      swap2\n      sub\n      swap1\n      return\n        /* \"contracts/contracts/oracle/OracleRouter.sol\":3776:3879  function setFeed(address _asset, address _feed) external {\r... */\n    tag_9:\n        /* \"contracts/contracts/oracle/OracleRouter.sol\":3866:3871  _feed */\n      dup1\n        /* \"contracts/contracts/oracle/OracleRouter.sol\":3844:3855  assetToFeed */\n      0x00\n        /* \"contracts/contracts/oracle/OracleRouter.sol\":3844:3863  assetToFeed[_asset] */\n      dup1\n        /* \"contracts/contracts/oracle/OracleRouter.sol\":3856:3862  _asset */\n      dup5\n        /* \"contracts/contracts/oracle/OracleRouter.sol\":3844:3863  assetToFeed[_asset] */\n      0xffffffffffffffffffffffffffffffffffffffff\n      and\n      0xffffffffffffffffffffffffffffffffffffffff\n      and\n      dup2\n      mstore\n      0x20\n      add\n      swap1\n      dup2\n      mstore\n      0x20\n      add\n      0x00\n      keccak256\n      0x00\n        /* \"contracts/contracts/oracle/OracleRouter.sol\":3844:3871  assetToFeed[_asset] = _feed */\n      0x0100\n      exp\n      dup2\n      sload\n      dup2\n      0xffffffffffffffffffffffffffffffffffffffff\n      mul\n      not\n      and\n      swap1\n      dup4\n      0xffffffffffffffffffffffffffffffffffffffff\n      and\n      mul\n      or\n      swap1\n      sstore\n      pop\n        /* \"contracts/contracts/oracle/OracleRouter.sol\":3776:3879  function setFeed(address _asset, address _feed) external {\r... */\n      pop\n      pop\n      jump\t// out\n        /* \"contracts/contracts/oracle/OracleRouter.sol\":870:1422  function price(address asset) external view override returns (uint256) {\r... */\n    tag_13:\n        /* \"contracts/contracts/oracle/OracleRouter.sol\":932:939  uint256 */\n      0x00\n        /* \"contracts/contracts/oracle/OracleRouter.sol\":952:965  address _feed */\n      dup1\n        /* \"contracts/contracts/oracle/OracleRouter.sol\":968:979  feed(asset) */\n      tag_23\n        /* \"contracts/contracts/oracle/OracleRouter.sol\":973:978  asset */\n      dup4\n        /* \"contracts/contracts/oracle/OracleRouter.sol\":968:972  feed */\n      tag_24\n        /* \"contracts/contracts/oracle/OracleRouter.sol\":968:979  feed(asset) */\n      jump\t// in\n    tag_23:\n        /* \"contracts/contracts/oracle/OracleRouter.sol\":952:979  address _feed = feed(asset) */\n      swap1\n      pop\n        /* \"contracts/contracts/oracle/OracleRouter.sol\":1064:1078  int256 _iprice */\n      0x00\n        /* \"contracts/contracts/oracle/OracleRouter.sol\":1110:1115  _feed */\n      dup2\n        /* \"contracts/contracts/oracle/OracleRouter.sol\":1088:1146  AggregatorV3Interface(_feed)\r... */\n      0xffffffffffffffffffffffffffffffffffffffff\n      and\n      0xfeaf968c\n        /* \"contracts/contracts/oracle/OracleRouter.sol\":1088:1148  AggregatorV3Interface(_feed)\r... */\n      mload(0x40)\n      dup2\n      0xffffffff\n      and\n      0xe0\n      shl\n      dup2\n      mstore\n      0x04\n      add\n      0xa0\n      mload(0x40)\n      dup1\n      dup4\n      sub\n      dup2\n      dup7\n      dup1\n      extcodesize\n      iszero\n      dup1\n      iszero\n      tag_25\n      jumpi\n      0x00\n      dup1\n      revert\n    tag_25:\n      pop\n      gas\n      staticcall\n      iszero\n      dup1\n      iszero\n      tag_27\n      jumpi\n      returndatasize\n      0x00\n      dup1\n      returndatacopy\n      revert(0x00, returndatasize)\n    tag_27:\n      pop\n      pop\n      pop\n      pop\n      mload(0x40)\n      returndatasize\n      not(0x1f)\n      0x1f\n      dup3\n      add\n      and\n      dup3\n      add\n      dup1\n      0x40\n      mstore\n      pop\n      dup2\n      add\n      swap1\n      tag_28\n      swap2\n      swap1\n      tag_29\n      jump\t// in\n    tag_28:\n        /* \"contracts/contracts/oracle/OracleRouter.sol\":1061:1148  (, int256 _iprice, , , ) = AggregatorV3Interface(_feed)\r... */\n      pop\n      pop\n      pop\n      swap2\n      pop\n      pop\n        /* \"contracts/contracts/oracle/OracleRouter.sol\":1159:1173  uint256 _price */\n      0x00\n        /* \"contracts/contracts/oracle/OracleRouter.sol\":1184:1191  _iprice */\n      dup2\n        /* \"contracts/contracts/oracle/OracleRouter.sol\":1159:1192  uint256 _price = uint256(_iprice) */\n      swap1\n      pop\n        /* \"contracts/contracts/oracle/OracleRouter.sol\":1207:1226  isStablecoin(asset) */\n      tag_30\n        /* \"contracts/contracts/oracle/OracleRouter.sol\":1220:1225  asset */\n      dup6\n        /* \"contracts/contracts/oracle/OracleRouter.sol\":1207:1219  isStablecoin */\n      tag_31\n        /* \"contracts/contracts/oracle/OracleRouter.sol\":1207:1226  isStablecoin(asset) */\n      jump\t// in\n    tag_30:\n        /* \"contracts/contracts/oracle/OracleRouter.sol\":1203:1382  if (isStablecoin(asset)) {\r... */\n      iszero\n      tag_32\n      jumpi\n        /* \"contracts/contracts/oracle/OracleRouter.sol\":376:385  130000000 */\n      0x07bfa480\n        /* \"contracts/contracts/oracle/OracleRouter.sol\":1251:1257  _price */\n      dup2\n        /* \"contracts/contracts/oracle/OracleRouter.sol\":1251:1270  _price <= MAX_DRIFT */\n      gt\n      iszero\n        /* \"contracts/contracts/oracle/OracleRouter.sol\":1243:1300  require(_price <= MAX_DRIFT, \"Oracle: Price exceeds max\") */\n      tag_33\n      jumpi\n      mload(0x40)\n      0x08c379a000000000000000000000000000000000000000000000000000000000\n      dup2\n      mstore\n      0x04\n      add\n      tag_34\n      swap1\n      tag_35\n      jump\t// in\n    tag_34:\n      mload(0x40)\n      dup1\n      swap2\n      sub\n      swap1\n      revert\n    tag_33:\n        /* \"contracts/contracts/oracle/OracleRouter.sol\":323:331  70000000 */\n      0x042c1d80\n        /* \"contracts/contracts/oracle/OracleRouter.sol\":1323:1329  _price */\n      dup2\n        /* \"contracts/contracts/oracle/OracleRouter.sol\":1323:1342  _price >= MIN_DRIFT */\n      lt\n      iszero\n        /* \"contracts/contracts/oracle/OracleRouter.sol\":1315:1370  require(_price >= MIN_DRIFT, \"Oracle: Price under min\") */\n      tag_36\n      jumpi\n      mload(0x40)\n      0x08c379a000000000000000000000000000000000000000000000000000000000\n      dup2\n      mstore\n      0x04\n      add\n      tag_37\n      swap1\n      tag_38\n      jump\t// in\n    tag_37:\n      mload(0x40)\n      dup1\n      swap2\n      sub\n      swap1\n      revert\n    tag_36:\n        /* \"contracts/contracts/oracle/OracleRouter.sol\":1203:1382  if (isStablecoin(asset)) {\r... */\n    tag_32:\n        /* \"contracts/contracts/oracle/OracleRouter.sol\":1407:1413  _price */\n      dup1\n        /* \"contracts/contracts/oracle/OracleRouter.sol\":1392:1414  return uint256(_price) */\n      swap4\n      pop\n      pop\n      pop\n      pop\n        /* \"contracts/contracts/oracle/OracleRouter.sol\":870:1422  function price(address asset) external view override returns (uint256) {\r... */\n      swap2\n      swap1\n      pop\n      jump\t// out\n        /* \"contracts/contracts/oracle/OracleRouter.sol\":3721:3767  mapping(address => address) public assetToFeed */\n    tag_18:\n      mstore(0x20, 0x00)\n      dup1\n      0x00\n      mstore\n      keccak256(0x00, 0x40)\n      0x00\n      swap2\n      pop\n      sload\n      swap1\n      0x0100\n      exp\n      swap1\n      div\n      0xffffffffffffffffffffffffffffffffffffffff\n      and\n      dup2\n      jump\t// out\n        /* \"contracts/contracts/oracle/OracleRouter.sol\":4015:4129  function feed(address asset) internal view override returns (address) {\r... */\n    tag_24:\n        /* \"contracts/contracts/oracle/OracleRouter.sol\":4076:4083  address */\n      0x00\n        /* \"contracts/contracts/oracle/OracleRouter.sol\":4103:4114  assetToFeed */\n      dup1\n        /* \"contracts/contracts/oracle/OracleRouter.sol\":4103:4121  assetToFeed[asset] */\n      0x00\n        /* \"contracts/contracts/oracle/OracleRouter.sol\":4115:4120  asset */\n      dup4\n        /* \"contracts/contracts/oracle/OracleRouter.sol\":4103:4121  assetToFeed[asset] */\n      0xffffffffffffffffffffffffffffffffffffffff\n      and\n      0xffffffffffffffffffffffffffffffffffffffff\n      and\n      dup2\n      mstore\n      0x20\n      add\n      swap1\n      dup2\n      mstore\n      0x20\n      add\n      0x00\n      keccak256\n      0x00\n      swap1\n      sload\n      swap1\n      0x0100\n      exp\n      swap1\n      div\n      0xffffffffffffffffffffffffffffffffffffffff\n      and\n        /* \"contracts/contracts/oracle/OracleRouter.sol\":4096:4121  return assetToFeed[asset] */\n      swap1\n      pop\n        /* \"contracts/contracts/oracle/OracleRouter.sol\":4015:4129  function feed(address asset) internal view override returns (address) {\r... */\n      swap2\n      swap1\n      pop\n      jump\t// out\n        /* \"contracts/contracts/oracle/OracleRouter.sol\":1430:1842  function isStablecoin(address _asset) internal view returns (bool) {\r... */\n    tag_31:\n        /* \"contracts/contracts/oracle/OracleRouter.sol\":1491:1495  bool */\n      0x00\n        /* \"contracts/contracts/oracle/OracleRouter.sol\":1508:1528  string memory symbol */\n      dup1\n        /* \"contracts/contracts/oracle/OracleRouter.sol\":1531:1556  Helpers.getSymbol(_asset) */\n      tag_41\n        /* \"contracts/contracts/oracle/OracleRouter.sol\":1549:1555  _asset */\n      dup4\n        /* \"contracts/contracts/oracle/OracleRouter.sol\":1531:1548  Helpers.getSymbol */\n      tag_42\n        /* \"contracts/contracts/oracle/OracleRouter.sol\":1531:1556  Helpers.getSymbol(_asset) */\n      jump\t// in\n    tag_41:\n        /* \"contracts/contracts/oracle/OracleRouter.sol\":1508:1556  string memory symbol = Helpers.getSymbol(_asset) */\n      swap1\n      pop\n        /* \"contracts/contracts/oracle/OracleRouter.sol\":1567:1585  bytes32 symbolHash */\n      0x00\n        /* \"contracts/contracts/oracle/OracleRouter.sol\":1615:1621  symbol */\n      dup2\n        /* \"contracts/contracts/oracle/OracleRouter.sol\":1598:1622  abi.encodePacked(symbol) */\n      add(0x20, mload(0x40))\n      tag_43\n      swap2\n      swap1\n      tag_44\n      jump\t// in\n    tag_43:\n      mload(0x40)\n      0x20\n      dup2\n      dup4\n      sub\n      sub\n      dup2\n      mstore\n      swap1\n      0x40\n      mstore\n        /* \"contracts/contracts/oracle/OracleRouter.sol\":1588:1623  keccak256(abi.encodePacked(symbol)) */\n      dup1\n      mload\n      swap1\n      0x20\n      add\n      keccak256\n        /* \"contracts/contracts/oracle/OracleRouter.sol\":1567:1623  bytes32 symbolHash = keccak256(abi.encodePacked(symbol)) */\n      swap1\n      pop\n        /* \"contracts/contracts/oracle/OracleRouter.sol\":1678:1701  abi.encodePacked(\"DAI\") */\n      add(0x20, mload(0x40))\n      tag_45\n      swap1\n      tag_46\n      jump\t// in\n    tag_45:\n      mload(0x40)\n      0x20\n      dup2\n      dup4\n      sub\n      sub\n      dup2\n      mstore\n      swap1\n      0x40\n      mstore\n        /* \"contracts/contracts/oracle/OracleRouter.sol\":1668:1702  keccak256(abi.encodePacked(\"DAI\")) */\n      dup1\n      mload\n      swap1\n      0x20\n      add\n      keccak256\n        /* \"contracts/contracts/oracle/OracleRouter.sol\":1654:1664  symbolHash */\n      dup2\n        /* \"contracts/contracts/oracle/OracleRouter.sol\":1654:1702  symbolHash == keccak256(abi.encodePacked(\"DAI\")) */\n      eq\n        /* \"contracts/contracts/oracle/OracleRouter.sol\":1654:1768  symbolHash == keccak256(abi.encodePacked(\"DAI\")) ||\r... */\n      dup1\n      tag_47\n      jumpi\n      pop\n        /* \"contracts/contracts/oracle/OracleRouter.sol\":1743:1767  abi.encodePacked(\"USDC\") */\n      add(0x20, mload(0x40))\n      tag_48\n      swap1\n      tag_49\n      jump\t// in\n    tag_48:\n      mload(0x40)\n      0x20\n      dup2\n      dup4\n      sub\n      sub\n      dup2\n      mstore\n      swap1\n      0x40\n      mstore\n        /* \"contracts/contracts/oracle/OracleRouter.sol\":1733:1768  keccak256(abi.encodePacked(\"USDC\")) */\n      dup1\n      mload\n      swap1\n      0x20\n      add\n      keccak256\n        /* \"contracts/contracts/oracle/OracleRouter.sol\":1719:1729  symbolHash */\n      dup2\n        /* \"contracts/contracts/oracle/OracleRouter.sol\":1719:1768  symbolHash == keccak256(abi.encodePacked(\"USDC\")) */\n      eq\n        /* \"contracts/contracts/oracle/OracleRouter.sol\":1654:1768  symbolHash == keccak256(abi.encodePacked(\"DAI\")) ||\r... */\n    tag_47:\n        /* \"contracts/contracts/oracle/OracleRouter.sol\":1654:1834  symbolHash == keccak256(abi.encodePacked(\"DAI\")) ||\r... */\n      dup1\n      tag_50\n      jumpi\n      pop\n        /* \"contracts/contracts/oracle/OracleRouter.sol\":1809:1833  abi.encodePacked(\"USDT\") */\n      add(0x20, mload(0x40))\n      tag_51\n      swap1\n      tag_52\n      jump\t// in\n    tag_51:\n      mload(0x40)\n      0x20\n      dup2\n      dup4\n      sub\n      sub\n      dup2\n      mstore\n      swap1\n      0x40\n      mstore\n        /* \"contracts/contracts/oracle/OracleRouter.sol\":1799:1834  keccak256(abi.encodePacked(\"USDT\")) */\n      dup1\n      mload\n      swap1\n      0x20\n      add\n      keccak256\n        /* \"contracts/contracts/oracle/OracleRouter.sol\":1785:1795  symbolHash */\n      dup2\n        /* \"contracts/contracts/oracle/OracleRouter.sol\":1785:1834  symbolHash == keccak256(abi.encodePacked(\"USDT\")) */\n      eq\n        /* \"contracts/contracts/oracle/OracleRouter.sol\":1654:1834  symbolHash == keccak256(abi.encodePacked(\"DAI\")) ||\r... */\n    tag_50:\n        /* \"contracts/contracts/oracle/OracleRouter.sol\":1634:1834  return\r... */\n      swap3\n      pop\n      pop\n      pop\n        /* \"contracts/contracts/oracle/OracleRouter.sol\":1430:1842  function isStablecoin(address _asset) internal view returns (bool) {\r... */\n      swap2\n      swap1\n      pop\n      jump\t// out\n        /* \"contracts/contracts/utils/Helpers.sol\":375:542  function getSymbol(address _token) internal view returns (string memory) {\r... */\n    tag_42:\n        /* \"contracts/contracts/utils/Helpers.sol\":433:446  string memory */\n      0x60\n        /* \"contracts/contracts/utils/Helpers.sol\":459:479  string memory symbol */\n      0x00\n        /* \"contracts/contracts/utils/Helpers.sol\":494:500  _token */\n      dup3\n        /* \"contracts/contracts/utils/Helpers.sol\":482:508  IBasicToken(_token).symbol */\n      0xffffffffffffffffffffffffffffffffffffffff\n      and\n      0x95d89b41\n        /* \"contracts/contracts/utils/Helpers.sol\":482:510  IBasicToken(_token).symbol() */\n      mload(0x40)\n      dup2\n      0xffffffff\n      and\n      0xe0\n      shl\n      dup2\n      mstore\n      0x04\n      add\n      0x00\n      mload(0x40)\n      dup1\n      dup4\n      sub\n      dup2\n      dup7\n      dup1\n      extcodesize\n      iszero\n      dup1\n      iszero\n      tag_54\n      jumpi\n      0x00\n      dup1\n      revert\n    tag_54:\n      pop\n      gas\n      staticcall\n      iszero\n      dup1\n      iszero\n      tag_56\n      jumpi\n      returndatasize\n      0x00\n      dup1\n      returndatacopy\n      revert(0x00, returndatasize)\n    tag_56:\n      pop\n      pop\n      pop\n      pop\n      mload(0x40)\n      returndatasize\n      0x00\n      dup3\n      returndatacopy\n      returndatasize\n      not(0x1f)\n      0x1f\n      dup3\n      add\n      and\n      dup3\n      add\n      dup1\n      0x40\n      mstore\n      pop\n      dup2\n      add\n      swap1\n      tag_57\n      swap2\n      swap1\n      tag_58\n      jump\t// in\n    tag_57:\n        /* \"contracts/contracts/utils/Helpers.sol\":459:510  string memory symbol = IBasicToken(_token).symbol() */\n      swap1\n      pop\n        /* \"contracts/contracts/utils/Helpers.sol\":528:534  symbol */\n      dup1\n        /* \"contracts/contracts/utils/Helpers.sol\":521:534  return symbol */\n      swap2\n      pop\n      pop\n        /* \"contracts/contracts/utils/Helpers.sol\":375:542  function getSymbol(address _token) internal view returns (string memory) {\r... */\n      swap2\n      swap1\n      pop\n      jump\t// out\n        /* \"#utility.yul\":7:428   */\n    tag_60:\n        /* \"#utility.yul\":96:101   */\n      0x00\n        /* \"#utility.yul\":121:187   */\n      tag_62\n        /* \"#utility.yul\":137:186   */\n      tag_63\n        /* \"#utility.yul\":179:185   */\n      dup5\n        /* \"#utility.yul\":137:186   */\n      tag_64\n      jump\t// in\n    tag_63:\n        /* \"#utility.yul\":121:187   */\n      tag_65\n      jump\t// in\n    tag_62:\n        /* \"#utility.yul\":112:187   */\n      swap1\n      pop\n        /* \"#utility.yul\":210:216   */\n      dup3\n        /* \"#utility.yul\":203:208   */\n      dup2\n        /* \"#utility.yul\":196:217   */\n      mstore\n        /* \"#utility.yul\":248:252   */\n      0x20\n        /* \"#utility.yul\":241:246   */\n      dup2\n        /* \"#utility.yul\":237:253   */\n      add\n        /* \"#utility.yul\":286:289   */\n      dup5\n        /* \"#utility.yul\":277:283   */\n      dup5\n        /* \"#utility.yul\":272:275   */\n      dup5\n        /* \"#utility.yul\":268:284   */\n      add\n        /* \"#utility.yul\":265:290   */\n      gt\n        /* \"#utility.yul\":262:374   */\n      iszero\n      tag_66\n      jumpi\n        /* \"#utility.yul\":293:372   */\n      tag_67\n      tag_68\n      jump\t// in\n    tag_67:\n        /* \"#utility.yul\":262:374   */\n    tag_66:\n        /* \"#utility.yul\":383:422   */\n      tag_69\n        /* \"#utility.yul\":415:421   */\n      dup5\n        /* \"#utility.yul\":410:413   */\n      dup3\n        /* \"#utility.yul\":405:408   */\n      dup6\n        /* \"#utility.yul\":383:422   */\n      tag_70\n      jump\t// in\n    tag_69:\n        /* \"#utility.yul\":102:428   */\n      pop\n        /* \"#utility.yul\":7:428   */\n      swap4\n      swap3\n      pop\n      pop\n      pop\n      jump\t// out\n        /* \"#utility.yul\":434:573   */\n    tag_71:\n        /* \"#utility.yul\":480:485   */\n      0x00\n        /* \"#utility.yul\":518:524   */\n      dup2\n        /* \"#utility.yul\":505:525   */\n      calldataload\n        /* \"#utility.yul\":496:525   */\n      swap1\n      pop\n        /* \"#utility.yul\":534:567   */\n      tag_73\n        /* \"#utility.yul\":561:566   */\n      dup2\n        /* \"#utility.yul\":534:567   */\n      tag_74\n      jump\t// in\n    tag_73:\n        /* \"#utility.yul\":434:573   */\n      swap3\n      swap2\n      pop\n      pop\n      jump\t// out\n        /* \"#utility.yul\":579:720   */\n    tag_75:\n        /* \"#utility.yul\":635:640   */\n      0x00\n        /* \"#utility.yul\":666:672   */\n      dup2\n        /* \"#utility.yul\":660:673   */\n      mload\n        /* \"#utility.yul\":651:673   */\n      swap1\n      pop\n        /* \"#utility.yul\":682:714   */\n      tag_77\n        /* \"#utility.yul\":708:713   */\n      dup2\n        /* \"#utility.yul\":682:714   */\n      tag_78\n      jump\t// in\n    tag_77:\n        /* \"#utility.yul\":579:720   */\n      swap3\n      swap2\n      pop\n      pop\n      jump\t// out\n        /* \"#utility.yul\":740:1095   */\n    tag_79:\n        /* \"#utility.yul\":807:812   */\n      0x00\n        /* \"#utility.yul\":856:859   */\n      dup3\n        /* \"#utility.yul\":849:853   */\n      0x1f\n        /* \"#utility.yul\":841:847   */\n      dup4\n        /* \"#utility.yul\":837:854   */\n      add\n        /* \"#utility.yul\":833:860   */\n      slt\n        /* \"#utility.yul\":823:945   */\n      tag_81\n      jumpi\n        /* \"#utility.yul\":864:943   */\n      tag_82\n      tag_83\n      jump\t// in\n    tag_82:\n        /* \"#utility.yul\":823:945   */\n    tag_81:\n        /* \"#utility.yul\":974:980   */\n      dup2\n        /* \"#utility.yul\":968:981   */\n      mload\n        /* \"#utility.yul\":999:1089   */\n      tag_84\n        /* \"#utility.yul\":1085:1088   */\n      dup5\n        /* \"#utility.yul\":1077:1083   */\n      dup3\n        /* \"#utility.yul\":1070:1074   */\n      0x20\n        /* \"#utility.yul\":1062:1068   */\n      dup7\n        /* \"#utility.yul\":1058:1075   */\n      add\n        /* \"#utility.yul\":999:1089   */\n      tag_60\n      jump\t// in\n    tag_84:\n        /* \"#utility.yul\":990:1089   */\n      swap2\n      pop\n        /* \"#utility.yul\":813:1095   */\n      pop\n        /* \"#utility.yul\":740:1095   */\n      swap3\n      swap2\n      pop\n      pop\n      jump\t// out\n        /* \"#utility.yul\":1101:1244   */\n    tag_85:\n        /* \"#utility.yul\":1158:1163   */\n      0x00\n        /* \"#utility.yul\":1189:1195   */\n      dup2\n        /* \"#utility.yul\":1183:1196   */\n      mload\n        /* \"#utility.yul\":1174:1196   */\n      swap1\n      pop\n        /* \"#utility.yul\":1205:1238   */\n      tag_87\n        /* \"#utility.yul\":1232:1237   */\n      dup2\n        /* \"#utility.yul\":1205:1238   */\n      tag_88\n      jump\t// in\n    tag_87:\n        /* \"#utility.yul\":1101:1244   */\n      swap3\n      swap2\n      pop\n      pop\n      jump\t// out\n        /* \"#utility.yul\":1250:1391   */\n    tag_89:\n        /* \"#utility.yul\":1306:1311   */\n      0x00\n        /* \"#utility.yul\":1337:1343   */\n      dup2\n        /* \"#utility.yul\":1331:1344   */\n      mload\n        /* \"#utility.yul\":1322:1344   */\n      swap1\n      pop\n        /* \"#utility.yul\":1353:1385   */\n      tag_91\n        /* \"#utility.yul\":1379:1384   */\n      dup2\n        /* \"#utility.yul\":1353:1385   */\n      tag_92\n      jump\t// in\n    tag_91:\n        /* \"#utility.yul\":1250:1391   */\n      swap3\n      swap2\n      pop\n      pop\n      jump\t// out\n        /* \"#utility.yul\":1397:1726   */\n    tag_12:\n        /* \"#utility.yul\":1456:1462   */\n      0x00\n        /* \"#utility.yul\":1505:1507   */\n      0x20\n        /* \"#utility.yul\":1493:1502   */\n      dup3\n        /* \"#utility.yul\":1484:1491   */\n      dup5\n        /* \"#utility.yul\":1480:1503   */\n      sub\n        /* \"#utility.yul\":1476:1508   */\n      slt\n        /* \"#utility.yul\":1473:1592   */\n      iszero\n      tag_94\n      jumpi\n        /* \"#utility.yul\":1511:1590   */\n      tag_95\n      tag_96\n      jump\t// in\n    tag_95:\n        /* \"#utility.yul\":1473:1592   */\n    tag_94:\n        /* \"#utility.yul\":1631:1632   */\n      0x00\n        /* \"#utility.yul\":1656:1709   */\n      tag_97\n        /* \"#utility.yul\":1701:1708   */\n      dup5\n        /* \"#utility.yul\":1692:1698   */\n      dup3\n        /* \"#utility.yul\":1681:1690   */\n      dup6\n        /* \"#utility.yul\":1677:1699   */\n      add\n        /* \"#utility.yul\":1656:1709   */\n      tag_71\n      jump\t// in\n    tag_97:\n        /* \"#utility.yul\":1646:1709   */\n      swap2\n      pop\n        /* \"#utility.yul\":1602:1719   */\n      pop\n        /* \"#utility.yul\":1397:1726   */\n      swap3\n      swap2\n      pop\n      pop\n      jump\t// out\n        /* \"#utility.yul\":1732:2206   */\n    tag_8:\n        /* \"#utility.yul\":1800:1806   */\n      0x00\n        /* \"#utility.yul\":1808:1814   */\n      dup1\n        /* \"#utility.yul\":1857:1859   */\n      0x40\n        /* \"#utility.yul\":1845:1854   */\n      dup4\n        /* \"#utility.yul\":1836:1843   */\n      dup6\n        /* \"#utility.yul\":1832:1855   */\n      sub\n        /* \"#utility.yul\":1828:1860   */\n      slt\n        /* \"#utility.yul\":1825:1944   */\n      iszero\n      tag_99\n      jumpi\n        /* \"#utility.yul\":1863:1942   */\n      tag_100\n      tag_96\n      jump\t// in\n    tag_100:\n        /* \"#utility.yul\":1825:1944   */\n    tag_99:\n        /* \"#utility.yul\":1983:1984   */\n      0x00\n        /* \"#utility.yul\":2008:2061   */\n      tag_101\n        /* \"#utility.yul\":2053:2060   */\n      dup6\n        /* \"#utility.yul\":2044:2050   */\n      dup3\n        /* \"#utility.yul\":2033:2042   */\n      dup7\n        /* \"#utility.yul\":2029:2051   */\n      add\n        /* \"#utility.yul\":2008:2061   */\n      tag_71\n      jump\t// in\n    tag_101:\n        /* \"#utility.yul\":1998:2061   */\n      swap3\n      pop\n        /* \"#utility.yul\":1954:2071   */\n      pop\n        /* \"#utility.yul\":2110:2112   */\n      0x20\n        /* \"#utility.yul\":2136:2189   */\n      tag_102\n        /* \"#utility.yul\":2181:2188   */\n      dup6\n        /* \"#utility.yul\":2172:2178   */\n      dup3\n        /* \"#utility.yul\":2161:2170   */\n      dup7\n        /* \"#utility.yul\":2157:2179   */\n      add\n        /* \"#utility.yul\":2136:2189   */\n      tag_71\n      jump\t// in\n    tag_102:\n        /* \"#utility.yul\":2126:2189   */\n      swap2\n      pop\n        /* \"#utility.yul\":2081:2199   */\n      pop\n        /* \"#utility.yul\":1732:2206   */\n      swap3\n      pop\n      swap3\n      swap1\n      pop\n      jump\t// out\n        /* \"#utility.yul\":2212:2736   */\n    tag_58:\n        /* \"#utility.yul\":2292:2298   */\n      0x00\n        /* \"#utility.yul\":2341:2343   */\n      0x20\n        /* \"#utility.yul\":2329:2338   */\n      dup3\n        /* \"#utility.yul\":2320:2327   */\n      dup5\n        /* \"#utility.yul\":2316:2339   */\n      sub\n        /* \"#utility.yul\":2312:2344   */\n      slt\n        /* \"#utility.yul\":2309:2428   */\n      iszero\n      tag_104\n      jumpi\n        /* \"#utility.yul\":2347:2426   */\n      tag_105\n      tag_96\n      jump\t// in\n    tag_105:\n        /* \"#utility.yul\":2309:2428   */\n    tag_104:\n        /* \"#utility.yul\":2488:2489   */\n      0x00\n        /* \"#utility.yul\":2477:2486   */\n      dup3\n        /* \"#utility.yul\":2473:2490   */\n      add\n        /* \"#utility.yul\":2467:2491   */\n      mload\n        /* \"#utility.yul\":2518:2536   */\n      0xffffffffffffffff\n        /* \"#utility.yul\":2510:2516   */\n      dup2\n        /* \"#utility.yul\":2507:2537   */\n      gt\n        /* \"#utility.yul\":2504:2621   */\n      iszero\n      tag_106\n      jumpi\n        /* \"#utility.yul\":2540:2619   */\n      tag_107\n      tag_108\n      jump\t// in\n    tag_107:\n        /* \"#utility.yul\":2504:2621   */\n    tag_106:\n        /* \"#utility.yul\":2645:2719   */\n      tag_109\n        /* \"#utility.yul\":2711:2718   */\n      dup5\n        /* \"#utility.yul\":2702:2708   */\n      dup3\n        /* \"#utility.yul\":2691:2700   */\n      dup6\n        /* \"#utility.yul\":2687:2709   */\n      add\n        /* \"#utility.yul\":2645:2719   */\n      tag_79\n      jump\t// in\n    tag_109:\n        /* \"#utility.yul\":2635:2719   */\n      swap2\n      pop\n        /* \"#utility.yul\":2438:2729   */\n      pop\n        /* \"#utility.yul\":2212:2736   */\n      swap3\n      swap2\n      pop\n      pop\n      jump\t// out\n        /* \"#utility.yul\":2742:3713   */\n    tag_29:\n        /* \"#utility.yul\":2845:2851   */\n      0x00\n        /* \"#utility.yul\":2853:2859   */\n      dup1\n        /* \"#utility.yul\":2861:2867   */\n      0x00\n        /* \"#utility.yul\":2869:2875   */\n      dup1\n        /* \"#utility.yul\":2877:2883   */\n      0x00\n        /* \"#utility.yul\":2926:2929   */\n      0xa0\n        /* \"#utility.yul\":2914:2923   */\n      dup7\n        /* \"#utility.yul\":2905:2912   */\n      dup9\n        /* \"#utility.yul\":2901:2924   */\n      sub\n        /* \"#utility.yul\":2897:2930   */\n      slt\n        /* \"#utility.yul\":2894:3014   */\n      iszero\n      tag_111\n      jumpi\n        /* \"#utility.yul\":2933:3012   */\n      tag_112\n      tag_96\n      jump\t// in\n    tag_112:\n        /* \"#utility.yul\":2894:3014   */\n    tag_111:\n        /* \"#utility.yul\":3053:3054   */\n      0x00\n        /* \"#utility.yul\":3078:3141   */\n      tag_113\n        /* \"#utility.yul\":3133:3140   */\n      dup9\n        /* \"#utility.yul\":3124:3130   */\n      dup3\n        /* \"#utility.yul\":3113:3122   */\n      dup10\n        /* \"#utility.yul\":3109:3131   */\n      add\n        /* \"#utility.yul\":3078:3141   */\n      tag_89\n      jump\t// in\n    tag_113:\n        /* \"#utility.yul\":3068:3141   */\n      swap6\n      pop\n        /* \"#utility.yul\":3024:3151   */\n      pop\n        /* \"#utility.yul\":3190:3192   */\n      0x20\n        /* \"#utility.yul\":3216:3279   */\n      tag_114\n        /* \"#utility.yul\":3271:3278   */\n      dup9\n        /* \"#utility.yul\":3262:3268   */\n      dup3\n        /* \"#utility.yul\":3251:3260   */\n      dup10\n        /* \"#utility.yul\":3247:3269   */\n      add\n        /* \"#utility.yul\":3216:3279   */\n      tag_75\n      jump\t// in\n    tag_114:\n        /* \"#utility.yul\":3206:3279   */\n      swap5\n      pop\n        /* \"#utility.yul\":3161:3289   */\n      pop\n        /* \"#utility.yul\":3328:3330   */\n      0x40\n        /* \"#utility.yul\":3354:3418   */\n      tag_115\n        /* \"#utility.yul\":3410:3417   */\n      dup9\n        /* \"#utility.yul\":3401:3407   */\n      dup3\n        /* \"#utility.yul\":3390:3399   */\n      dup10\n        /* \"#utility.yul\":3386:3408   */\n      add\n        /* \"#utility.yul\":3354:3418   */\n      tag_85\n      jump\t// in\n    tag_115:\n        /* \"#utility.yul\":3344:3418   */\n      swap4\n      pop\n        /* \"#utility.yul\":3299:3428   */\n      pop\n        /* \"#utility.yul\":3467:3469   */\n      0x60\n        /* \"#utility.yul\":3493:3557   */\n      tag_116\n        /* \"#utility.yul\":3549:3556   */\n      dup9\n        /* \"#utility.yul\":3540:3546   */\n      dup3\n        /* \"#utility.yul\":3529:3538   */\n      dup10\n        /* \"#utility.yul\":3525:3547   */\n      add\n        /* \"#utility.yul\":3493:3557   */\n      tag_85\n      jump\t// in\n    tag_116:\n        /* \"#utility.yul\":3483:3557   */\n      swap3\n      pop\n        /* \"#utility.yul\":3438:3567   */\n      pop\n        /* \"#utility.yul\":3606:3609   */\n      0x80\n        /* \"#utility.yul\":3633:3696   */\n      tag_117\n        /* \"#utility.yul\":3688:3695   */\n      dup9\n        /* \"#utility.yul\":3679:3685   */\n      dup3\n        /* \"#utility.yul\":3668:3677   */\n      dup10\n        /* \"#utility.yul\":3664:3686   */\n      add\n        /* \"#utility.yul\":3633:3696   */\n      tag_89\n      jump\t// in\n    tag_117:\n        /* \"#utility.yul\":3623:3696   */\n      swap2\n      pop\n        /* \"#utility.yul\":3577:3706   */\n      pop\n        /* \"#utility.yul\":2742:3713   */\n      swap3\n      swap6\n      pop\n      swap3\n      swap6\n      swap1\n      swap4\n      pop\n      jump\t// out\n        /* \"#utility.yul\":3719:3837   */\n    tag_118:\n        /* \"#utility.yul\":3806:3830   */\n      tag_120\n        /* \"#utility.yul\":3824:3829   */\n      dup2\n        /* \"#utility.yul\":3806:3830   */\n      tag_121\n      jump\t// in\n    tag_120:\n        /* \"#utility.yul\":3801:3804   */\n      dup3\n        /* \"#utility.yul\":3794:3831   */\n      mstore\n        /* \"#utility.yul\":3719:3837   */\n      pop\n      pop\n      jump\t// out\n        /* \"#utility.yul\":3843:4220   */\n    tag_122:\n        /* \"#utility.yul\":3949:3952   */\n      0x00\n        /* \"#utility.yul\":3977:4016   */\n      tag_124\n        /* \"#utility.yul\":4010:4015   */\n      dup3\n        /* \"#utility.yul\":3977:4016   */\n      tag_125\n      jump\t// in\n    tag_124:\n        /* \"#utility.yul\":4032:4121   */\n      tag_126\n        /* \"#utility.yul\":4114:4120   */\n      dup2\n        /* \"#utility.yul\":4109:4112   */\n      dup6\n        /* \"#utility.yul\":4032:4121   */\n      tag_127\n      jump\t// in\n    tag_126:\n        /* \"#utility.yul\":4025:4121   */\n      swap4\n      pop\n        /* \"#utility.yul\":4130:4182   */\n      tag_128\n        /* \"#utility.yul\":4175:4181   */\n      dup2\n        /* \"#utility.yul\":4170:4173   */\n      dup6\n        /* \"#utility.yul\":4163:4167   */\n      0x20\n        /* \"#utility.yul\":4156:4161   */\n      dup7\n        /* \"#utility.yul\":4152:4168   */\n      add\n        /* \"#utility.yul\":4130:4182   */\n      tag_70\n      jump\t// in\n    tag_128:\n        /* \"#utility.yul\":4207:4213   */\n      dup1\n        /* \"#utility.yul\":4202:4205   */\n      dup5\n        /* \"#utility.yul\":4198:4214   */\n      add\n        /* \"#utility.yul\":4191:4214   */\n      swap2\n      pop\n        /* \"#utility.yul\":3953:4220   */\n      pop\n        /* \"#utility.yul\":3843:4220   */\n      swap3\n      swap2\n      pop\n      pop\n      jump\t// out\n        /* \"#utility.yul\":4226:4592   */\n    tag_129:\n        /* \"#utility.yul\":4368:4371   */\n      0x00\n        /* \"#utility.yul\":4389:4456   */\n      tag_131\n        /* \"#utility.yul\":4453:4455   */\n      0x17\n        /* \"#utility.yul\":4448:4451   */\n      dup4\n        /* \"#utility.yul\":4389:4456   */\n      tag_132\n      jump\t// in\n    tag_131:\n        /* \"#utility.yul\":4382:4456   */\n      swap2\n      pop\n        /* \"#utility.yul\":4465:4558   */\n      tag_133\n        /* \"#utility.yul\":4554:4557   */\n      dup3\n        /* \"#utility.yul\":4465:4558   */\n      tag_134\n      jump\t// in\n    tag_133:\n        /* \"#utility.yul\":4583:4585   */\n      0x20\n        /* \"#utility.yul\":4578:4581   */\n      dup3\n        /* \"#utility.yul\":4574:4586   */\n      add\n        /* \"#utility.yul\":4567:4586   */\n      swap1\n      pop\n        /* \"#utility.yul\":4226:4592   */\n      swap2\n      swap1\n      pop\n      jump\t// out\n        /* \"#utility.yul\":4598:4998   */\n    tag_135:\n        /* \"#utility.yul\":4758:4761   */\n      0x00\n        /* \"#utility.yul\":4779:4863   */\n      tag_137\n        /* \"#utility.yul\":4861:4862   */\n      0x04\n        /* \"#utility.yul\":4856:4859   */\n      dup4\n        /* \"#utility.yul\":4779:4863   */\n      tag_127\n      jump\t// in\n    tag_137:\n        /* \"#utility.yul\":4772:4863   */\n      swap2\n      pop\n        /* \"#utility.yul\":4872:4965   */\n      tag_138\n        /* \"#utility.yul\":4961:4964   */\n      dup3\n        /* \"#utility.yul\":4872:4965   */\n      tag_139\n      jump\t// in\n    tag_138:\n        /* \"#utility.yul\":4990:4991   */\n      0x04\n        /* \"#utility.yul\":4985:4988   */\n      dup3\n        /* \"#utility.yul\":4981:4992   */\n      add\n        /* \"#utility.yul\":4974:4992   */\n      swap1\n      pop\n        /* \"#utility.yul\":4598:4998   */\n      swap2\n      swap1\n      pop\n      jump\t// out\n        /* \"#utility.yul\":5004:5404   */\n    tag_140:\n        /* \"#utility.yul\":5164:5167   */\n      0x00\n        /* \"#utility.yul\":5185:5269   */\n      tag_142\n        /* \"#utility.yul\":5267:5268   */\n      0x03\n        /* \"#utility.yul\":5262:5265   */\n      dup4\n        /* \"#utility.yul\":5185:5269   */\n      tag_127\n      jump\t// in\n    tag_142:\n        /* \"#utility.yul\":5178:5269   */\n      swap2\n      pop\n        /* \"#utility.yul\":5278:5371   */\n      tag_143\n        /* \"#utility.yul\":5367:5370   */\n      dup3\n        /* \"#utility.yul\":5278:5371   */\n      tag_144\n      jump\t// in\n    tag_143:\n        /* \"#utility.yul\":5396:5397   */\n      0x03\n        /* \"#utility.yul\":5391:5394   */\n      dup3\n        /* \"#utility.yul\":5387:5398   */\n      add\n        /* \"#utility.yul\":5380:5398   */\n      swap1\n      pop\n        /* \"#utility.yul\":5004:5404   */\n      swap2\n      swap1\n      pop\n      jump\t// out\n        /* \"#utility.yul\":5410:5810   */\n    tag_145:\n        /* \"#utility.yul\":5570:5573   */\n      0x00\n        /* \"#utility.yul\":5591:5675   */\n      tag_147\n        /* \"#utility.yul\":5673:5674   */\n      0x04\n        /* \"#utility.yul\":5668:5671   */\n      dup4\n        /* \"#utility.yul\":5591:5675   */\n      tag_127\n      jump\t// in\n    tag_147:\n        /* \"#utility.yul\":5584:5675   */\n      swap2\n      pop\n        /* \"#utility.yul\":5684:5777   */\n      tag_148\n        /* \"#utility.yul\":5773:5776   */\n      dup3\n        /* \"#utility.yul\":5684:5777   */\n      tag_149\n      jump\t// in\n    tag_148:\n        /* \"#utility.yul\":5802:5803   */\n      0x04\n        /* \"#utility.yul\":5797:5800   */\n      dup3\n        /* \"#utility.yul\":5793:5804   */\n      add\n        /* \"#utility.yul\":5786:5804   */\n      swap1\n      pop\n        /* \"#utility.yul\":5410:5810   */\n      swap2\n      swap1\n      pop\n      jump\t// out\n        /* \"#utility.yul\":5816:6182   */\n    tag_150:\n        /* \"#utility.yul\":5958:5961   */\n      0x00\n        /* \"#utility.yul\":5979:6046   */\n      tag_152\n        /* \"#utility.yul\":6043:6045   */\n      0x19\n        /* \"#utility.yul\":6038:6041   */\n      dup4\n        /* \"#utility.yul\":5979:6046   */\n      tag_132\n      jump\t// in\n    tag_152:\n        /* \"#utility.yul\":5972:6046   */\n      swap2\n      pop\n        /* \"#utility.yul\":6055:6148   */\n      tag_153\n        /* \"#utility.yul\":6144:6147   */\n      dup3\n        /* \"#utility.yul\":6055:6148   */\n      tag_154\n      jump\t// in\n    tag_153:\n        /* \"#utility.yul\":6173:6175   */\n      0x20\n        /* \"#utility.yul\":6168:6171   */\n      dup3\n        /* \"#utility.yul\":6164:6176   */\n      add\n        /* \"#utility.yul\":6157:6176   */\n      swap1\n      pop\n        /* \"#utility.yul\":5816:6182   */\n      swap2\n      swap1\n      pop\n      jump\t// out\n        /* \"#utility.yul\":6188:6306   */\n    tag_155:\n        /* \"#utility.yul\":6275:6299   */\n      tag_157\n        /* \"#utility.yul\":6293:6298   */\n      dup2\n        /* \"#utility.yul\":6275:6299   */\n      tag_158\n      jump\t// in\n    tag_157:\n        /* \"#utility.yul\":6270:6273   */\n      dup3\n        /* \"#utility.yul\":6263:6300   */\n      mstore\n        /* \"#utility.yul\":6188:6306   */\n      pop\n      pop\n      jump\t// out\n        /* \"#utility.yul\":6312:6587   */\n    tag_44:\n        /* \"#utility.yul\":6444:6447   */\n      0x00\n        /* \"#utility.yul\":6466:6561   */\n      tag_160\n        /* \"#utility.yul\":6557:6560   */\n      dup3\n        /* \"#utility.yul\":6548:6554   */\n      dup5\n        /* \"#utility.yul\":6466:6561   */\n      tag_122\n      jump\t// in\n    tag_160:\n        /* \"#utility.yul\":6459:6561   */\n      swap2\n      pop\n        /* \"#utility.yul\":6578:6581   */\n      dup2\n        /* \"#utility.yul\":6571:6581   */\n      swap1\n      pop\n        /* \"#utility.yul\":6312:6587   */\n      swap3\n      swap2\n      pop\n      pop\n      jump\t// out\n        /* \"#utility.yul\":6593:6974   */\n    tag_52:\n        /* \"#utility.yul\":6778:6781   */\n      0x00\n        /* \"#utility.yul\":6800:6948   */\n      tag_162\n        /* \"#utility.yul\":6944:6947   */\n      dup3\n        /* \"#utility.yul\":6800:6948   */\n      tag_135\n      jump\t// in\n    tag_162:\n        /* \"#utility.yul\":6793:6948   */\n      swap2\n      pop\n        /* \"#utility.yul\":6965:6968   */\n      dup2\n        /* \"#utility.yul\":6958:6968   */\n      swap1\n      pop\n        /* \"#utility.yul\":6593:6974   */\n      swap2\n      swap1\n      pop\n      jump\t// out\n        /* \"#utility.yul\":6980:7361   */\n    tag_46:\n        /* \"#utility.yul\":7165:7168   */\n      0x00\n        /* \"#utility.yul\":7187:7335   */\n      tag_164\n        /* \"#utility.yul\":7331:7334   */\n      dup3\n        /* \"#utility.yul\":7187:7335   */\n      tag_140\n      jump\t// in\n    tag_164:\n        /* \"#utility.yul\":7180:7335   */\n      swap2\n      pop\n        /* \"#utility.yul\":7352:7355   */\n      dup2\n        /* \"#utility.yul\":7345:7355   */\n      swap1\n      pop\n        /* \"#utility.yul\":6980:7361   */\n      swap2\n      swap1\n      pop\n      jump\t// out\n        /* \"#utility.yul\":7367:7748   */\n    tag_49:\n        /* \"#utility.yul\":7552:7555   */\n      0x00\n        /* \"#utility.yul\":7574:7722   */\n      tag_166\n        /* \"#utility.yul\":7718:7721   */\n      dup3\n        /* \"#utility.yul\":7574:7722   */\n      tag_145\n      jump\t// in\n    tag_166:\n        /* \"#utility.yul\":7567:7722   */\n      swap2\n      pop\n        /* \"#utility.yul\":7739:7742   */\n      dup2\n        /* \"#utility.yul\":7732:7742   */\n      swap1\n      pop\n        /* \"#utility.yul\":7367:7748   */\n      swap2\n      swap1\n      pop\n      jump\t// out\n        /* \"#utility.yul\":7754:7976   */\n    tag_20:\n        /* \"#utility.yul\":7847:7851   */\n      0x00\n        /* \"#utility.yul\":7885:7887   */\n      0x20\n        /* \"#utility.yul\":7874:7883   */\n      dup3\n        /* \"#utility.yul\":7870:7888   */\n      add\n        /* \"#utility.yul\":7862:7888   */\n      swap1\n      pop\n        /* \"#utility.yul\":7898:7969   */\n      tag_168\n        /* \"#utility.yul\":7966:7967   */\n      0x00\n        /* \"#utility.yul\":7955:7964   */\n      dup4\n        /* \"#utility.yul\":7951:7968   */\n      add\n        /* \"#utility.yul\":7942:7948   */\n      dup5\n        /* \"#utility.yul\":7898:7969   */\n      tag_118\n      jump\t// in\n    tag_168:\n        /* \"#utility.yul\":7754:7976   */\n      swap3\n      swap2\n      pop\n      pop\n      jump\t// out\n        /* \"#utility.yul\":7982:8401   */\n    tag_38:\n        /* \"#utility.yul\":8148:8152   */\n      0x00\n        /* \"#utility.yul\":8186:8188   */\n      0x20\n        /* \"#utility.yul\":8175:8184   */\n      dup3\n        /* \"#utility.yul\":8171:8189   */\n      add\n        /* \"#utility.yul\":8163:8189   */\n      swap1\n      pop\n        /* \"#utility.yul\":8235:8244   */\n      dup2\n        /* \"#utility.yul\":8229:8233   */\n      dup2\n        /* \"#utility.yul\":8225:8245   */\n      sub\n        /* \"#utility.yul\":8221:8222   */\n      0x00\n        /* \"#utility.yul\":8210:8219   */\n      dup4\n        /* \"#utility.yul\":8206:8223   */\n      add\n        /* \"#utility.yul\":8199:8246   */\n      mstore\n        /* \"#utility.yul\":8263:8394   */\n      tag_170\n        /* \"#utility.yul\":8389:8393   */\n      dup2\n        /* \"#utility.yul\":8263:8394   */\n      tag_129\n      jump\t// in\n    tag_170:\n        /* \"#utility.yul\":8255:8394   */\n      swap1\n      pop\n        /* \"#utility.yul\":7982:8401   */\n      swap2\n      swap1\n      pop\n      jump\t// out\n        /* \"#utility.yul\":8407:8826   */\n    tag_35:\n        /* \"#utility.yul\":8573:8577   */\n      0x00\n        /* \"#utility.yul\":8611:8613   */\n      0x20\n        /* \"#utility.yul\":8600:8609   */\n      dup3\n        /* \"#utility.yul\":8596:8614   */\n      add\n        /* \"#utility.yul\":8588:8614   */\n      swap1\n      pop\n        /* \"#utility.yul\":8660:8669   */\n      dup2\n        /* \"#utility.yul\":8654:8658   */\n      dup2\n        /* \"#utility.yul\":8650:8670   */\n      sub\n        /* \"#utility.yul\":8646:8647   */\n      0x00\n        /* \"#utility.yul\":8635:8644   */\n      dup4\n        /* \"#utility.yul\":8631:8648   */\n      add\n        /* \"#utility.yul\":8624:8671   */\n      mstore\n        /* \"#utility.yul\":8688:8819   */\n      tag_172\n        /* \"#utility.yul\":8814:8818   */\n      dup2\n        /* \"#utility.yul\":8688:8819   */\n      tag_150\n      jump\t// in\n    tag_172:\n        /* \"#utility.yul\":8680:8819   */\n      swap1\n      pop\n        /* \"#utility.yul\":8407:8826   */\n      swap2\n      swap1\n      pop\n      jump\t// out\n        /* \"#utility.yul\":8832:9054   */\n    tag_15:\n        /* \"#utility.yul\":8925:8929   */\n      0x00\n        /* \"#utility.yul\":8963:8965   */\n      0x20\n        /* \"#utility.yul\":8952:8961   */\n      dup3\n        /* \"#utility.yul\":8948:8966   */\n      add\n        /* \"#utility.yul\":8940:8966   */\n      swap1\n      pop\n        /* \"#utility.yul\":8976:9047   */\n      tag_174\n        /* \"#utility.yul\":9044:9045   */\n      0x00\n        /* \"#utility.yul\":9033:9042   */\n      dup4\n        /* \"#utility.yul\":9029:9046   */\n      add\n        /* \"#utility.yul\":9020:9026   */\n      dup5\n        /* \"#utility.yul\":8976:9047   */\n      tag_155\n      jump\t// in\n    tag_174:\n        /* \"#utility.yul\":8832:9054   */\n      swap3\n      swap2\n      pop\n      pop\n      jump\t// out\n        /* \"#utility.yul\":9060:9189   */\n    tag_65:\n        /* \"#utility.yul\":9094:9100   */\n      0x00\n        /* \"#utility.yul\":9121:9141   */\n      tag_176\n      tag_177\n      jump\t// in\n    tag_176:\n        /* \"#utility.yul\":9111:9141   */\n      swap1\n      pop\n        /* \"#utility.yul\":9150:9183   */\n      tag_178\n        /* \"#utility.yul\":9178:9182   */\n      dup3\n        /* \"#utility.yul\":9170:9176   */\n      dup3\n        /* \"#utility.yul\":9150:9183   */\n      tag_179\n      jump\t// in\n    tag_178:\n        /* \"#utility.yul\":9060:9189   */\n      swap2\n      swap1\n      pop\n      jump\t// out\n        /* \"#utility.yul\":9195:9270   */\n    tag_177:\n        /* \"#utility.yul\":9228:9234   */\n      0x00\n        /* \"#utility.yul\":9261:9263   */\n      0x40\n        /* \"#utility.yul\":9255:9264   */\n      mload\n        /* \"#utility.yul\":9245:9264   */\n      swap1\n      pop\n        /* \"#utility.yul\":9195:9270   */\n      swap1\n      jump\t// out\n        /* \"#utility.yul\":9276:9584   */\n    tag_64:\n        /* \"#utility.yul\":9338:9342   */\n      0x00\n        /* \"#utility.yul\":9428:9446   */\n      0xffffffffffffffff\n        /* \"#utility.yul\":9420:9426   */\n      dup3\n        /* \"#utility.yul\":9417:9447   */\n      gt\n        /* \"#utility.yul\":9414:9470   */\n      iszero\n      tag_182\n      jumpi\n        /* \"#utility.yul\":9450:9468   */\n      tag_183\n      tag_184\n      jump\t// in\n    tag_183:\n        /* \"#utility.yul\":9414:9470   */\n    tag_182:\n        /* \"#utility.yul\":9488:9517   */\n      tag_185\n        /* \"#utility.yul\":9510:9516   */\n      dup3\n        /* \"#utility.yul\":9488:9517   */\n      tag_186\n      jump\t// in\n    tag_185:\n        /* \"#utility.yul\":9480:9517   */\n      swap1\n      pop\n        /* \"#utility.yul\":9572:9576   */\n      0x20\n        /* \"#utility.yul\":9566:9570   */\n      dup2\n        /* \"#utility.yul\":9562:9577   */\n      add\n        /* \"#utility.yul\":9554:9577   */\n      swap1\n      pop\n        /* \"#utility.yul\":9276:9584   */\n      swap2\n      swap1\n      pop\n      jump\t// out\n        /* \"#utility.yul\":9590:9689   */\n    tag_125:\n        /* \"#utility.yul\":9642:9648   */\n      0x00\n        /* \"#utility.yul\":9676:9681   */\n      dup2\n        /* \"#utility.yul\":9670:9682   */\n      mload\n        /* \"#utility.yul\":9660:9682   */\n      swap1\n      pop\n        /* \"#utility.yul\":9590:9689   */\n      swap2\n      swap1\n      pop\n      jump\t// out\n        /* \"#utility.yul\":9695:9864   */\n    tag_132:\n        /* \"#utility.yul\":9779:9790   */\n      0x00\n        /* \"#utility.yul\":9813:9819   */\n      dup3\n        /* \"#utility.yul\":9808:9811   */\n      dup3\n        /* \"#utility.yul\":9801:9820   */\n      mstore\n        /* \"#utility.yul\":9853:9857   */\n      0x20\n        /* \"#utility.yul\":9848:9851   */\n      dup3\n        /* \"#utility.yul\":9844:9858   */\n      add\n        /* \"#utility.yul\":9829:9858   */\n      swap1\n      pop\n        /* \"#utility.yul\":9695:9864   */\n      swap3\n      swap2\n      pop\n      pop\n      jump\t// out\n        /* \"#utility.yul\":9870:10018   */\n    tag_127:\n        /* \"#utility.yul\":9972:9983   */\n      0x00\n        /* \"#utility.yul\":10009:10012   */\n      dup2\n        /* \"#utility.yul\":9994:10012   */\n      swap1\n      pop\n        /* \"#utility.yul\":9870:10018   */\n      swap3\n      swap2\n      pop\n      pop\n      jump\t// out\n        /* \"#utility.yul\":10024:10120   */\n    tag_121:\n        /* \"#utility.yul\":10061:10068   */\n      0x00\n        /* \"#utility.yul\":10090:10114   */\n      tag_191\n        /* \"#utility.yul\":10108:10113   */\n      dup3\n        /* \"#utility.yul\":10090:10114   */\n      tag_192\n      jump\t// in\n    tag_191:\n        /* \"#utility.yul\":10079:10114   */\n      swap1\n      pop\n        /* \"#utility.yul\":10024:10120   */\n      swap2\n      swap1\n      pop\n      jump\t// out\n        /* \"#utility.yul\":10126:10202   */\n    tag_193:\n        /* \"#utility.yul\":10162:10169   */\n      0x00\n        /* \"#utility.yul\":10191:10196   */\n      dup2\n        /* \"#utility.yul\":10180:10196   */\n      swap1\n      pop\n        /* \"#utility.yul\":10126:10202   */\n      swap2\n      swap1\n      pop\n      jump\t// out\n        /* \"#utility.yul\":10208:10334   */\n    tag_192:\n        /* \"#utility.yul\":10245:10252   */\n      0x00\n        /* \"#utility.yul\":10285:10327   */\n      0xffffffffffffffffffffffffffffffffffffffff\n        /* \"#utility.yul\":10278:10283   */\n      dup3\n        /* \"#utility.yul\":10274:10328   */\n      and\n        /* \"#utility.yul\":10263:10328   */\n      swap1\n      pop\n        /* \"#utility.yul\":10208:10334   */\n      swap2\n      swap1\n      pop\n      jump\t// out\n        /* \"#utility.yul\":10340:10417   */\n    tag_158:\n        /* \"#utility.yul\":10377:10384   */\n      0x00\n        /* \"#utility.yul\":10406:10411   */\n      dup2\n        /* \"#utility.yul\":10395:10411   */\n      swap1\n      pop\n        /* \"#utility.yul\":10340:10417   */\n      swap2\n      swap1\n      pop\n      jump\t// out\n        /* \"#utility.yul\":10423:10528   */\n    tag_197:\n        /* \"#utility.yul\":10459:10466   */\n      0x00\n        /* \"#utility.yul\":10499:10521   */\n      0xffffffffffffffffffff\n        /* \"#utility.yul\":10492:10497   */\n      dup3\n        /* \"#utility.yul\":10488:10522   */\n      and\n        /* \"#utility.yul\":10477:10522   */\n      swap1\n      pop\n        /* \"#utility.yul\":10423:10528   */\n      swap2\n      swap1\n      pop\n      jump\t// out\n        /* \"#utility.yul\":10534:10841   */\n    tag_70:\n        /* \"#utility.yul\":10602:10603   */\n      0x00\n        /* \"#utility.yul\":10612:10725   */\n    tag_200:\n        /* \"#utility.yul\":10626:10632   */\n      dup4\n        /* \"#utility.yul\":10623:10624   */\n      dup2\n        /* \"#utility.yul\":10620:10633   */\n      lt\n        /* \"#utility.yul\":10612:10725   */\n      iszero\n      tag_202\n      jumpi\n        /* \"#utility.yul\":10711:10712   */\n      dup1\n        /* \"#utility.yul\":10706:10709   */\n      dup3\n        /* \"#utility.yul\":10702:10713   */\n      add\n        /* \"#utility.yul\":10696:10714   */\n      mload\n        /* \"#utility.yul\":10692:10693   */\n      dup2\n        /* \"#utility.yul\":10687:10690   */\n      dup5\n        /* \"#utility.yul\":10683:10694   */\n      add\n        /* \"#utility.yul\":10676:10715   */\n      mstore\n        /* \"#utility.yul\":10648:10650   */\n      0x20\n        /* \"#utility.yul\":10645:10646   */\n      dup2\n        /* \"#utility.yul\":10641:10651   */\n      add\n        /* \"#utility.yul\":10636:10651   */\n      swap1\n      pop\n        /* \"#utility.yul\":10612:10725   */\n      jump(tag_200)\n    tag_202:\n        /* \"#utility.yul\":10743:10749   */\n      dup4\n        /* \"#utility.yul\":10740:10741   */\n      dup2\n        /* \"#utility.yul\":10737:10750   */\n      gt\n        /* \"#utility.yul\":10734:10835   */\n      iszero\n      tag_203\n      jumpi\n        /* \"#utility.yul\":10823:10824   */\n      0x00\n        /* \"#utility.yul\":10814:10820   */\n      dup5\n        /* \"#utility.yul\":10809:10812   */\n      dup5\n        /* \"#utility.yul\":10805:10821   */\n      add\n        /* \"#utility.yul\":10798:10825   */\n      mstore\n        /* \"#utility.yul\":10734:10835   */\n    tag_203:\n        /* \"#utility.yul\":10583:10841   */\n      pop\n        /* \"#utility.yul\":10534:10841   */\n      pop\n      pop\n      pop\n      jump\t// out\n        /* \"#utility.yul\":10847:11128   */\n    tag_179:\n        /* \"#utility.yul\":10930:10957   */\n      tag_205\n        /* \"#utility.yul\":10952:10956   */\n      dup3\n        /* \"#utility.yul\":10930:10957   */\n      tag_186\n      jump\t// in\n    tag_205:\n        /* \"#utility.yul\":10922:10928   */\n      dup2\n        /* \"#utility.yul\":10918:10958   */\n      add\n        /* \"#utility.yul\":11060:11066   */\n      dup2\n        /* \"#utility.yul\":11048:11058   */\n      dup2\n        /* \"#utility.yul\":11045:11067   */\n      lt\n        /* \"#utility.yul\":11024:11042   */\n      0xffffffffffffffff\n        /* \"#utility.yul\":11012:11022   */\n      dup3\n        /* \"#utility.yul\":11009:11043   */\n      gt\n        /* \"#utility.yul\":11006:11068   */\n      or\n        /* \"#utility.yul\":11003:11091   */\n      iszero\n      tag_206\n      jumpi\n        /* \"#utility.yul\":11071:11089   */\n      tag_207\n      tag_184\n      jump\t// in\n    tag_207:\n        /* \"#utility.yul\":11003:11091   */\n    tag_206:\n        /* \"#utility.yul\":11111:11121   */\n      dup1\n        /* \"#utility.yul\":11107:11109   */\n      0x40\n        /* \"#utility.yul\":11100:11122   */\n      mstore\n        /* \"#utility.yul\":10890:11128   */\n      pop\n        /* \"#utility.yul\":10847:11128   */\n      pop\n      pop\n      jump\t// out\n        /* \"#utility.yul\":11134:11314   */\n    tag_184:\n        /* \"#utility.yul\":11182:11259   */\n      0x4e487b7100000000000000000000000000000000000000000000000000000000\n        /* \"#utility.yul\":11179:11180   */\n      0x00\n        /* \"#utility.yul\":11172:11260   */\n      mstore\n        /* \"#utility.yul\":11279:11283   */\n      0x41\n        /* \"#utility.yul\":11276:11277   */\n      0x04\n        /* \"#utility.yul\":11269:11284   */\n      mstore\n        /* \"#utility.yul\":11303:11307   */\n      0x24\n        /* \"#utility.yul\":11300:11301   */\n      0x00\n        /* \"#utility.yul\":11293:11308   */\n      revert\n        /* \"#utility.yul\":11320:11437   */\n    tag_83:\n        /* \"#utility.yul\":11429:11430   */\n      0x00\n        /* \"#utility.yul\":11426:11427   */\n      dup1\n        /* \"#utility.yul\":11419:11431   */\n      revert\n        /* \"#utility.yul\":11443:11560   */\n    tag_68:\n        /* \"#utility.yul\":11552:11553   */\n      0x00\n        /* \"#utility.yul\":11549:11550   */\n      dup1\n        /* \"#utility.yul\":11542:11554   */\n      revert\n        /* \"#utility.yul\":11566:11683   */\n    tag_108:\n        /* \"#utility.yul\":11675:11676   */\n      0x00\n        /* \"#utility.yul\":11672:11673   */\n      dup1\n        /* \"#utility.yul\":11665:11677   */\n      revert\n        /* \"#utility.yul\":11689:11806   */\n    tag_96:\n        /* \"#utility.yul\":11798:11799   */\n      0x00\n        /* \"#utility.yul\":11795:11796   */\n      dup1\n        /* \"#utility.yul\":11788:11800   */\n      revert\n        /* \"#utility.yul\":11812:11914   */\n    tag_186:\n        /* \"#utility.yul\":11853:11859   */\n      0x00\n        /* \"#utility.yul\":11904:11906   */\n      0x1f\n        /* \"#utility.yul\":11900:11907   */\n      not\n        /* \"#utility.yul\":11895:11897   */\n      0x1f\n        /* \"#utility.yul\":11888:11893   */\n      dup4\n        /* \"#utility.yul\":11884:11898   */\n      add\n        /* \"#utility.yul\":11880:11908   */\n      and\n        /* \"#utility.yul\":11870:11908   */\n      swap1\n      pop\n        /* \"#utility.yul\":11812:11914   */\n      swap2\n      swap1\n      pop\n      jump\t// out\n        /* \"#utility.yul\":11920:12093   */\n    tag_134:\n        /* \"#utility.yul\":12060:12085   */\n      0x4f7261636c653a20507269636520756e646572206d696e000000000000000000\n        /* \"#utility.yul\":12056:12057   */\n      0x00\n        /* \"#utility.yul\":12048:12054   */\n      dup3\n        /* \"#utility.yul\":12044:12058   */\n      add\n        /* \"#utility.yul\":12037:12086   */\n      mstore\n        /* \"#utility.yul\":11920:12093   */\n      pop\n      jump\t// out\n        /* \"#utility.yul\":12099:12253   */\n    tag_139:\n        /* \"#utility.yul\":12239:12245   */\n      0x5553445400000000000000000000000000000000000000000000000000000000\n        /* \"#utility.yul\":12235:12236   */\n      0x00\n        /* \"#utility.yul\":12227:12233   */\n      dup3\n        /* \"#utility.yul\":12223:12237   */\n      add\n        /* \"#utility.yul\":12216:12246   */\n      mstore\n        /* \"#utility.yul\":12099:12253   */\n      pop\n      jump\t// out\n        /* \"#utility.yul\":12259:12412   */\n    tag_144:\n        /* \"#utility.yul\":12399:12404   */\n      0x4441490000000000000000000000000000000000000000000000000000000000\n        /* \"#utility.yul\":12395:12396   */\n      0x00\n        /* \"#utility.yul\":12387:12393   */\n      dup3\n        /* \"#utility.yul\":12383:12397   */\n      add\n        /* \"#utility.yul\":12376:12405   */\n      mstore\n        /* \"#utility.yul\":12259:12412   */\n      pop\n      jump\t// out\n        /* \"#utility.yul\":12418:12572   */\n    tag_149:\n        /* \"#utility.yul\":12558:12564   */\n      0x5553444300000000000000000000000000000000000000000000000000000000\n        /* \"#utility.yul\":12554:12555   */\n      0x00\n        /* \"#utility.yul\":12546:12552   */\n      dup3\n        /* \"#utility.yul\":12542:12556   */\n      add\n        /* \"#utility.yul\":12535:12565   */\n      mstore\n        /* \"#utility.yul\":12418:12572   */\n      pop\n      jump\t// out\n        /* \"#utility.yul\":12578:12753   */\n    tag_154:\n        /* \"#utility.yul\":12718:12745   */\n      0x4f7261636c653a2050726963652065786365656473206d617800000000000000\n        /* \"#utility.yul\":12714:12715   */\n      0x00\n        /* \"#utility.yul\":12706:12712   */\n      dup3\n        /* \"#utility.yul\":12702:12716   */\n      add\n        /* \"#utility.yul\":12695:12746   */\n      mstore\n        /* \"#utility.yul\":12578:12753   */\n      pop\n      jump\t// out\n        /* \"#utility.yul\":12759:12881   */\n    tag_74:\n        /* \"#utility.yul\":12832:12856   */\n      tag_220\n        /* \"#utility.yul\":12850:12855   */\n      dup2\n        /* \"#utility.yul\":12832:12856   */\n      tag_121\n      jump\t// in\n    tag_220:\n        /* \"#utility.yul\":12825:12830   */\n      dup2\n        /* \"#utility.yul\":12822:12857   */\n      eq\n        /* \"#utility.yul\":12812:12875   */\n      tag_221\n      jumpi\n        /* \"#utility.yul\":12871:12872   */\n      0x00\n        /* \"#utility.yul\":12868:12869   */\n      dup1\n        /* \"#utility.yul\":12861:12873   */\n      revert\n        /* \"#utility.yul\":12812:12875   */\n    tag_221:\n        /* \"#utility.yul\":12759:12881   */\n      pop\n      jump\t// out\n        /* \"#utility.yul\":12887:13007   */\n    tag_78:\n        /* \"#utility.yul\":12959:12982   */\n      tag_223\n        /* \"#utility.yul\":12976:12981   */\n      dup2\n        /* \"#utility.yul\":12959:12982   */\n      tag_193\n      jump\t// in\n    tag_223:\n        /* \"#utility.yul\":12952:12957   */\n      dup2\n        /* \"#utility.yul\":12949:12983   */\n      eq\n        /* \"#utility.yul\":12939:13001   */\n      tag_224\n      jumpi\n        /* \"#utility.yul\":12997:12998   */\n      0x00\n        /* \"#utility.yul\":12994:12995   */\n      dup1\n        /* \"#utility.yul\":12987:12999   */\n      revert\n        /* \"#utility.yul\":12939:13001   */\n    tag_224:\n        /* \"#utility.yul\":12887:13007   */\n      pop\n      jump\t// out\n        /* \"#utility.yul\":13013:13135   */\n    tag_88:\n        /* \"#utility.yul\":13086:13110   */\n      tag_226\n        /* \"#utility.yul\":13104:13109   */\n      dup2\n        /* \"#utility.yul\":13086:13110   */\n      tag_158\n      jump\t// in\n    tag_226:\n        /* \"#utility.yul\":13079:13084   */\n      dup2\n        /* \"#utility.yul\":13076:13111   */\n      eq\n        /* \"#utility.yul\":13066:13129   */\n      tag_227\n      jumpi\n        /* \"#utility.yul\":13125:13126   */\n      0x00\n        /* \"#utility.yul\":13122:13123   */\n      dup1\n        /* \"#utility.yul\":13115:13127   */\n      revert\n        /* \"#utility.yul\":13066:13129   */\n    tag_227:\n        /* \"#utility.yul\":13013:13135   */\n      pop\n      jump\t// out\n        /* \"#utility.yul\":13141:13261   */\n    tag_92:\n        /* \"#utility.yul\":13213:13236   */\n      tag_229\n        /* \"#utility.yul\":13230:13235   */\n      dup2\n        /* \"#utility.yul\":13213:13236   */\n      tag_197\n      jump\t// in\n    tag_229:\n        /* \"#utility.yul\":13206:13211   */\n      dup2\n        /* \"#utility.yul\":13203:13237   */\n      eq\n        /* \"#utility.yul\":13193:13255   */\n      tag_230\n      jumpi\n        /* \"#utility.yul\":13251:13252   */\n      0x00\n        /* \"#utility.yul\":13248:13249   */\n      dup1\n        /* \"#utility.yul\":13241:13253   */\n      revert\n        /* \"#utility.yul\":13193:13255   */\n    tag_230:\n        /* \"#utility.yul\":13141:13261   */\n      pop\n      jump\t// out\n\n    auxdata: 0xa2646970667358221220e19060e8f4719b058318fe072b7e12b56b3fe0348ea3f00bd0f2061a52b7fe4f64736f6c63430008070033\n}\n",
				"bytecode": {
					"linkReferences": {},
					"object": "608060405234801561001057600080fd5b50610b25806100206000396000f3fe608060405234801561001057600080fd5b50600436106100415760003560e01c806340b1eb1014610046578063aea9107814610062578063e6741de214610092575b600080fd5b610060600480360381019061005b9190610567565b6100c2565b005b61007c6004803603810190610077919061053a565b610143565b604051610089919061081a565b60405180910390f35b6100ac60048036038101906100a7919061053a565b610284565b6040516100b991906107bf565b60405180910390f35b806000808473ffffffffffffffffffffffffffffffffffffffff1673ffffffffffffffffffffffffffffffffffffffff16815260200190815260200160002060006101000a81548173ffffffffffffffffffffffffffffffffffffffff021916908373ffffffffffffffffffffffffffffffffffffffff1602179055505050565b60008061014f836102b7565b905060008173ffffffffffffffffffffffffffffffffffffffff1663feaf968c6040518163ffffffff1660e01b815260040160a06040518083038186803b15801561019957600080fd5b505afa1580156101ad573d6000803e3d6000fd5b505050506040513d601f19601f820116820180604052508101906101d191906105f0565b50505091505060008190506101e58561031f565b15610279576307bfa480811115610231576040517f08c379a0000000000000000000000000000000000000000000000000000000008152600401610228906107fa565b60405180910390fd5b63042c1d80811015610278576040517f08c379a000000000000000000000000000000000000000000000000000000000815260040161026f906107da565b60405180910390fd5b5b809350505050919050565b60006020528060005260406000206000915054906101000a900473ffffffffffffffffffffffffffffffffffffffff1681565b60008060008373ffffffffffffffffffffffffffffffffffffffff1673ffffffffffffffffffffffffffffffffffffffff16815260200190815260200160002060009054906101000a900473ffffffffffffffffffffffffffffffffffffffff169050919050565b60008061032b836103e4565b90506000816040516020016103409190610769565b60405160208183030381529060405280519060200120905060405160200161036790610795565b604051602081830303815290604052805190602001208114806103ad5750604051602001610394906107aa565b6040516020818303038152906040528051906020012081145b806103db57506040516020016103c290610780565b6040516020818303038152906040528051906020012081145b92505050919050565b606060008273ffffffffffffffffffffffffffffffffffffffff166395d89b416040518163ffffffff1660e01b815260040160006040518083038186803b15801561042e57600080fd5b505afa158015610442573d6000803e3d6000fd5b505050506040513d6000823e3d601f19601f8201168201806040525081019061046b91906105a7565b905080915050919050565b60006104896104848461085a565b610835565b9050828152602081018484840111156104a5576104a46109a6565b5b6104b084828561090e565b509392505050565b6000813590506104c781610a93565b92915050565b6000815190506104dc81610aaa565b92915050565b600082601f8301126104f7576104f66109a1565b5b8151610507848260208601610476565b91505092915050565b60008151905061051f81610ac1565b92915050565b60008151905061053481610ad8565b92915050565b6000602082840312156105505761054f6109b0565b5b600061055e848285016104b8565b91505092915050565b6000806040838503121561057e5761057d6109b0565b5b600061058c858286016104b8565b925050602061059d858286016104b8565b9150509250929050565b6000602082840312156105bd576105bc6109b0565b5b600082015167ffffffffffffffff8111156105db576105da6109ab565b5b6105e7848285016104e2565b91505092915050565b600080600080600060a0868803121561060c5761060b6109b0565b5b600061061a88828901610525565b955050602061062b888289016104cd565b945050604061063c88828901610510565b935050606061064d88828901610510565b925050608061065e88828901610525565b9150509295509295909350565b610674816108b2565b82525050565b60006106858261088b565b61068f81856108a7565b935061069f81856020860161090e565b80840191505092915050565b60006106b8601783610896565b91506106c3826109c6565b602082019050919050565b60006106db6004836108a7565b91506106e6826109ef565b600482019050919050565b60006106fe6003836108a7565b915061070982610a18565b600382019050919050565b60006107216004836108a7565b915061072c82610a41565b600482019050919050565b6000610744601983610896565b915061074f82610a6a565b602082019050919050565b610763816108ee565b82525050565b6000610775828461067a565b915081905092915050565b600061078b826106ce565b9150819050919050565b60006107a0826106f1565b9150819050919050565b60006107b582610714565b9150819050919050565b60006020820190506107d4600083018461066b565b92915050565b600060208201905081810360008301526107f3816106ab565b9050919050565b6000602082019050818103600083015261081381610737565b9050919050565b600060208201905061082f600083018461075a565b92915050565b600061083f610850565b905061084b8282610941565b919050565b6000604051905090565b600067ffffffffffffffff82111561087557610874610972565b5b61087e826109b5565b9050602081019050919050565b600081519050919050565b600082825260208201905092915050565b600081905092915050565b60006108bd826108ce565b9050919050565b6000819050919050565b600073ffffffffffffffffffffffffffffffffffffffff82169050919050565b6000819050919050565b600069ffffffffffffffffffff82169050919050565b60005b8381101561092c578082015181840152602081019050610911565b8381111561093b576000848401525b50505050565b61094a826109b5565b810181811067ffffffffffffffff8211171561096957610968610972565b5b80604052505050565b7f4e487b7100000000000000000000000000000000000000000000000000000000600052604160045260246000fd5b600080fd5b600080fd5b600080fd5b600080fd5b6000601f19601f8301169050919050565b7f4f7261636c653a20507269636520756e646572206d696e000000000000000000600082015250565b7f5553445400000000000000000000000000000000000000000000000000000000600082015250565b7f4441490000000000000000000000000000000000000000000000000000000000600082015250565b7f5553444300000000000000000000000000000000000000000000000000000000600082015250565b7f4f7261636c653a2050726963652065786365656473206d617800000000000000600082015250565b610a9c816108b2565b8114610aa757600080fd5b50565b610ab3816108c4565b8114610abe57600080fd5b50565b610aca816108ee565b8114610ad557600080fd5b50565b610ae1816108f8565b8114610aec57600080fd5b5056fea2646970667358221220e19060e8f4719b058318fe072b7e12b56b3fe0348ea3f00bd0f2061a52b7fe4f64736f6c63430008070033",
					"opcodes": "PUSH1 0x80 PUSH1 0x40 MSTORE CALLVALUE DUP1 ISZERO PUSH2 0x10 JUMPI PUSH1 0x0 DUP1 REVERT JUMPDEST POP PUSH2 0xB25 DUP1 PUSH2 0x20 PUSH1 0x0 CODECOPY PUSH1 0x0 RETURN INVALID PUSH1 0x80 PUSH1 0x40 MSTORE CALLVALUE DUP1 ISZERO PUSH2 0x10 JUMPI PUSH1 0x0 DUP1 REVERT JUMPDEST POP PUSH1 0x4 CALLDATASIZE LT PUSH2 0x41 JUMPI PUSH1 0x0 CALLDATALOAD PUSH1 0xE0 SHR DUP1 PUSH4 0x40B1EB10 EQ PUSH2 0x46 JUMPI DUP1 PUSH4 0xAEA91078 EQ PUSH2 0x62 JUMPI DUP1 PUSH4 0xE6741DE2 EQ PUSH2 0x92 JUMPI JUMPDEST PUSH1 0x0 DUP1 REVERT JUMPDEST PUSH2 0x60 PUSH1 0x4 DUP1 CALLDATASIZE SUB DUP2 ADD SWAP1 PUSH2 0x5B SWAP2 SWAP1 PUSH2 0x567 JUMP JUMPDEST PUSH2 0xC2 JUMP JUMPDEST STOP JUMPDEST PUSH2 0x7C PUSH1 0x4 DUP1 CALLDATASIZE SUB DUP2 ADD SWAP1 PUSH2 0x77 SWAP2 SWAP1 PUSH2 0x53A JUMP JUMPDEST PUSH2 0x143 JUMP JUMPDEST PUSH1 0x40 MLOAD PUSH2 0x89 SWAP2 SWAP1 PUSH2 0x81A JUMP JUMPDEST PUSH1 0x40 MLOAD DUP1 SWAP2 SUB SWAP1 RETURN JUMPDEST PUSH2 0xAC PUSH1 0x4 DUP1 CALLDATASIZE SUB DUP2 ADD SWAP1 PUSH2 0xA7 SWAP2 SWAP1 PUSH2 0x53A JUMP JUMPDEST PUSH2 0x284 JUMP JUMPDEST PUSH1 0x40 MLOAD PUSH2 0xB9 SWAP2 SWAP1 PUSH2 0x7BF JUMP JUMPDEST PUSH1 0x40 MLOAD DUP1 SWAP2 SUB SWAP1 RETURN JUMPDEST DUP1 PUSH1 0x0 DUP1 DUP5 PUSH20 0xFFFFFFFFFFFFFFFFFFFFFFFFFFFFFFFFFFFFFFFF AND PUSH20 0xFFFFFFFFFFFFFFFFFFFFFFFFFFFFFFFFFFFFFFFF AND DUP2 MSTORE PUSH1 0x20 ADD SWAP1 DUP2 MSTORE PUSH1 0x20 ADD PUSH1 0x0 KECCAK256 PUSH1 0x0 PUSH2 0x100 EXP DUP2 SLOAD DUP2 PUSH20 0xFFFFFFFFFFFFFFFFFFFFFFFFFFFFFFFFFFFFFFFF MUL NOT AND SWAP1 DUP4 PUSH20 0xFFFFFFFFFFFFFFFFFFFFFFFFFFFFFFFFFFFFFFFF AND MUL OR SWAP1 SSTORE POP POP POP JUMP JUMPDEST PUSH1 0x0 DUP1 PUSH2 0x14F DUP4 PUSH2 0x2B7 JUMP JUMPDEST SWAP1 POP PUSH1 0x0 DUP2 PUSH20 0xFFFFFFFFFFFFFFFFFFFFFFFFFFFFFFFFFFFFFFFF AND PUSH4 0xFEAF968C PUSH1 0x40 MLOAD DUP2 PUSH4 0xFFFFFFFF AND PUSH1 0xE0 SHL DUP2 MSTORE PUSH1 0x4 ADD PUSH1 0xA0 PUSH1 0x40 MLOAD DUP1 DUP4 SUB DUP2 DUP7 DUP1 EXTCODESIZE ISZERO DUP1 ISZERO PUSH2 0x199 JUMPI PUSH1 0x0 DUP1 REVERT JUMPDEST POP GAS STATICCALL ISZERO DUP1 ISZERO PUSH2 0x1AD JUMPI RETURNDATASIZE PUSH1 0x0 DUP1 RETURNDATACOPY RETURNDATASIZE PUSH1 0x0 REVERT JUMPDEST POP POP POP POP PUSH1 0x40 MLOAD RETURNDATASIZE PUSH1 0x1F NOT PUSH1 0x1F DUP3 ADD AND DUP3 ADD DUP1 PUSH1 0x40 MSTORE POP DUP2 ADD SWAP1 PUSH2 0x1D1 SWAP2 SWAP1 PUSH2 0x5F0 JUMP JUMPDEST POP POP POP SWAP2 POP POP PUSH1 0x0 DUP2 SWAP1 POP PUSH2 0x1E5 DUP6 PUSH2 0x31F JUMP JUMPDEST ISZERO PUSH2 0x279 JUMPI PUSH4 0x7BFA480 DUP2 GT ISZERO PUSH2 0x231 JUMPI PUSH1 0x40 MLOAD PUSH32 0x8C379A000000000000000000000000000000000000000000000000000000000 DUP2 MSTORE PUSH1 0x4 ADD PUSH2 0x228 SWAP1 PUSH2 0x7FA JUMP JUMPDEST PUSH1 0x40 MLOAD DUP1 SWAP2 SUB SWAP1 REVERT JUMPDEST PUSH4 0x42C1D80 DUP2 LT ISZERO PUSH2 0x278 JUMPI PUSH1 0x40 MLOAD PUSH32 0x8C379A000000000000000000000000000000000000000000000000000000000 DUP2 MSTORE PUSH1 0x4 ADD PUSH2 0x26F SWAP1 PUSH2 0x7DA JUMP JUMPDEST PUSH1 0x40 MLOAD DUP1 SWAP2 SUB SWAP1 REVERT JUMPDEST JUMPDEST DUP1 SWAP4 POP POP POP POP SWAP2 SWAP1 POP JUMP JUMPDEST PUSH1 0x0 PUSH1 0x20 MSTORE DUP1 PUSH1 0x0 MSTORE PUSH1 0x40 PUSH1 0x0 KECCAK256 PUSH1 0x0 SWAP2 POP SLOAD SWAP1 PUSH2 0x100 EXP SWAP1 DIV PUSH20 0xFFFFFFFFFFFFFFFFFFFFFFFFFFFFFFFFFFFFFFFF AND DUP2 JUMP JUMPDEST PUSH1 0x0 DUP1 PUSH1 0x0 DUP4 PUSH20 0xFFFFFFFFFFFFFFFFFFFFFFFFFFFFFFFFFFFFFFFF AND PUSH20 0xFFFFFFFFFFFFFFFFFFFFFFFFFFFFFFFFFFFFFFFF AND DUP2 MSTORE PUSH1 0x20 ADD SWAP1 DUP2 MSTORE PUSH1 0x20 ADD PUSH1 0x0 KECCAK256 PUSH1 0x0 SWAP1 SLOAD SWAP1 PUSH2 0x100 EXP SWAP1 DIV PUSH20 0xFFFFFFFFFFFFFFFFFFFFFFFFFFFFFFFFFFFFFFFF AND SWAP1 POP SWAP2 SWAP1 POP JUMP JUMPDEST PUSH1 0x0 DUP1 PUSH2 0x32B DUP4 PUSH2 0x3E4 JUMP JUMPDEST SWAP1 POP PUSH1 0x0 DUP2 PUSH1 0x40 MLOAD PUSH1 0x20 ADD PUSH2 0x340 SWAP2 SWAP1 PUSH2 0x769 JUMP JUMPDEST PUSH1 0x40 MLOAD PUSH1 0x20 DUP2 DUP4 SUB SUB DUP2 MSTORE SWAP1 PUSH1 0x40 MSTORE DUP1 MLOAD SWAP1 PUSH1 0x20 ADD KECCAK256 SWAP1 POP PUSH1 0x40 MLOAD PUSH1 0x20 ADD PUSH2 0x367 SWAP1 PUSH2 0x795 JUMP JUMPDEST PUSH1 0x40 MLOAD PUSH1 0x20 DUP2 DUP4 SUB SUB DUP2 MSTORE SWAP1 PUSH1 0x40 MSTORE DUP1 MLOAD SWAP1 PUSH1 0x20 ADD KECCAK256 DUP2 EQ DUP1 PUSH2 0x3AD JUMPI POP PUSH1 0x40 MLOAD PUSH1 0x20 ADD PUSH2 0x394 SWAP1 PUSH2 0x7AA JUMP JUMPDEST PUSH1 0x40 MLOAD PUSH1 0x20 DUP2 DUP4 SUB SUB DUP2 MSTORE SWAP1 PUSH1 0x40 MSTORE DUP1 MLOAD SWAP1 PUSH1 0x20 ADD KECCAK256 DUP2 EQ JUMPDEST DUP1 PUSH2 0x3DB JUMPI POP PUSH1 0x40 MLOAD PUSH1 0x20 ADD PUSH2 0x3C2 SWAP1 PUSH2 0x780 JUMP JUMPDEST PUSH1 0x40 MLOAD PUSH1 0x20 DUP2 DUP4 SUB SUB DUP2 MSTORE SWAP1 PUSH1 0x40 MSTORE DUP1 MLOAD SWAP1 PUSH1 0x20 ADD KECCAK256 DUP2 EQ JUMPDEST SWAP3 POP POP POP SWAP2 SWAP1 POP JUMP JUMPDEST PUSH1 0x60 PUSH1 0x0 DUP3 PUSH20 0xFFFFFFFFFFFFFFFFFFFFFFFFFFFFFFFFFFFFFFFF AND PUSH4 0x95D89B41 PUSH1 0x40 MLOAD DUP2 PUSH4 0xFFFFFFFF AND PUSH1 0xE0 SHL DUP2 MSTORE PUSH1 0x4 ADD PUSH1 0x0 PUSH1 0x40 MLOAD DUP1 DUP4 SUB DUP2 DUP7 DUP1 EXTCODESIZE ISZERO DUP1 ISZERO PUSH2 0x42E JUMPI PUSH1 0x0 DUP1 REVERT JUMPDEST POP GAS STATICCALL ISZERO DUP1 ISZERO PUSH2 0x442 JUMPI RETURNDATASIZE PUSH1 0x0 DUP1 RETURNDATACOPY RETURNDATASIZE PUSH1 0x0 REVERT JUMPDEST POP POP POP POP PUSH1 0x40 MLOAD RETURNDATASIZE PUSH1 0x0 DUP3 RETURNDATACOPY RETURNDATASIZE PUSH1 0x1F NOT PUSH1 0x1F DUP3 ADD AND DUP3 ADD DUP1 PUSH1 0x40 MSTORE POP DUP2 ADD SWAP1 PUSH2 0x46B SWAP2 SWAP1 PUSH2 0x5A7 JUMP JUMPDEST SWAP1 POP DUP1 SWAP2 POP POP SWAP2 SWAP1 POP JUMP JUMPDEST PUSH1 0x0 PUSH2 0x489 PUSH2 0x484 DUP5 PUSH2 0x85A JUMP JUMPDEST PUSH2 0x835 JUMP JUMPDEST SWAP1 POP DUP3 DUP2 MSTORE PUSH1 0x20 DUP2 ADD DUP5 DUP5 DUP5 ADD GT ISZERO PUSH2 0x4A5 JUMPI PUSH2 0x4A4 PUSH2 0x9A6 JUMP JUMPDEST JUMPDEST PUSH2 0x4B0 DUP5 DUP3 DUP6 PUSH2 0x90E JUMP JUMPDEST POP SWAP4 SWAP3 POP POP POP JUMP JUMPDEST PUSH1 0x0 DUP2 CALLDATALOAD SWAP1 POP PUSH2 0x4C7 DUP2 PUSH2 0xA93 JUMP JUMPDEST SWAP3 SWAP2 POP POP JUMP JUMPDEST PUSH1 0x0 DUP2 MLOAD SWAP1 POP PUSH2 0x4DC DUP2 PUSH2 0xAAA JUMP JUMPDEST SWAP3 SWAP2 POP POP JUMP JUMPDEST PUSH1 0x0 DUP3 PUSH1 0x1F DUP4 ADD SLT PUSH2 0x4F7 JUMPI PUSH2 0x4F6 PUSH2 0x9A1 JUMP JUMPDEST JUMPDEST DUP2 MLOAD PUSH2 0x507 DUP5 DUP3 PUSH1 0x20 DUP7 ADD PUSH2 0x476 JUMP JUMPDEST SWAP2 POP POP SWAP3 SWAP2 POP POP JUMP JUMPDEST PUSH1 0x0 DUP2 MLOAD SWAP1 POP PUSH2 0x51F DUP2 PUSH2 0xAC1 JUMP JUMPDEST SWAP3 SWAP2 POP POP JUMP JUMPDEST PUSH1 0x0 DUP2 MLOAD SWAP1 POP PUSH2 0x534 DUP2 PUSH2 0xAD8 JUMP JUMPDEST SWAP3 SWAP2 POP POP JUMP JUMPDEST PUSH1 0x0 PUSH1 0x20 DUP3 DUP5 SUB SLT ISZERO PUSH2 0x550 JUMPI PUSH2 0x54F PUSH2 0x9B0 JUMP JUMPDEST JUMPDEST PUSH1 0x0 PUSH2 0x55E DUP5 DUP3 DUP6 ADD PUSH2 0x4B8 JUMP JUMPDEST SWAP2 POP POP SWAP3 SWAP2 POP POP JUMP JUMPDEST PUSH1 0x0 DUP1 PUSH1 0x40 DUP4 DUP6 SUB SLT ISZERO PUSH2 0x57E JUMPI PUSH2 0x57D PUSH2 0x9B0 JUMP JUMPDEST JUMPDEST PUSH1 0x0 PUSH2 0x58C DUP6 DUP3 DUP7 ADD PUSH2 0x4B8 JUMP JUMPDEST SWAP3 POP POP PUSH1 0x20 PUSH2 0x59D DUP6 DUP3 DUP7 ADD PUSH2 0x4B8 JUMP JUMPDEST SWAP2 POP POP SWAP3 POP SWAP3 SWAP1 POP JUMP JUMPDEST PUSH1 0x0 PUSH1 0x20 DUP3 DUP5 SUB SLT ISZERO PUSH2 0x5BD JUMPI PUSH2 0x5BC PUSH2 0x9B0 JUMP JUMPDEST JUMPDEST PUSH1 0x0 DUP3 ADD MLOAD PUSH8 0xFFFFFFFFFFFFFFFF DUP2 GT ISZERO PUSH2 0x5DB JUMPI PUSH2 0x5DA PUSH2 0x9AB JUMP JUMPDEST JUMPDEST PUSH2 0x5E7 DUP5 DUP3 DUP6 ADD PUSH2 0x4E2 JUMP JUMPDEST SWAP2 POP POP SWAP3 SWAP2 POP POP JUMP JUMPDEST PUSH1 0x0 DUP1 PUSH1 0x0 DUP1 PUSH1 0x0 PUSH1 0xA0 DUP7 DUP9 SUB SLT ISZERO PUSH2 0x60C JUMPI PUSH2 0x60B PUSH2 0x9B0 JUMP JUMPDEST JUMPDEST PUSH1 0x0 PUSH2 0x61A DUP9 DUP3 DUP10 ADD PUSH2 0x525 JUMP JUMPDEST SWAP6 POP POP PUSH1 0x20 PUSH2 0x62B DUP9 DUP3 DUP10 ADD PUSH2 0x4CD JUMP JUMPDEST SWAP5 POP POP PUSH1 0x40 PUSH2 0x63C DUP9 DUP3 DUP10 ADD PUSH2 0x510 JUMP JUMPDEST SWAP4 POP POP PUSH1 0x60 PUSH2 0x64D DUP9 DUP3 DUP10 ADD PUSH2 0x510 JUMP JUMPDEST SWAP3 POP POP PUSH1 0x80 PUSH2 0x65E DUP9 DUP3 DUP10 ADD PUSH2 0x525 JUMP JUMPDEST SWAP2 POP POP SWAP3 SWAP6 POP SWAP3 SWAP6 SWAP1 SWAP4 POP JUMP JUMPDEST PUSH2 0x674 DUP2 PUSH2 0x8B2 JUMP JUMPDEST DUP3 MSTORE POP POP JUMP JUMPDEST PUSH1 0x0 PUSH2 0x685 DUP3 PUSH2 0x88B JUMP JUMPDEST PUSH2 0x68F DUP2 DUP6 PUSH2 0x8A7 JUMP JUMPDEST SWAP4 POP PUSH2 0x69F DUP2 DUP6 PUSH1 0x20 DUP7 ADD PUSH2 0x90E JUMP JUMPDEST DUP1 DUP5 ADD SWAP2 POP POP SWAP3 SWAP2 POP POP JUMP JUMPDEST PUSH1 0x0 PUSH2 0x6B8 PUSH1 0x17 DUP4 PUSH2 0x896 JUMP JUMPDEST SWAP2 POP PUSH2 0x6C3 DUP3 PUSH2 0x9C6 JUMP JUMPDEST PUSH1 0x20 DUP3 ADD SWAP1 POP SWAP2 SWAP1 POP JUMP JUMPDEST PUSH1 0x0 PUSH2 0x6DB PUSH1 0x4 DUP4 PUSH2 0x8A7 JUMP JUMPDEST SWAP2 POP PUSH2 0x6E6 DUP3 PUSH2 0x9EF JUMP JUMPDEST PUSH1 0x4 DUP3 ADD SWAP1 POP SWAP2 SWAP1 POP JUMP JUMPDEST PUSH1 0x0 PUSH2 0x6FE PUSH1 0x3 DUP4 PUSH2 0x8A7 JUMP JUMPDEST SWAP2 POP PUSH2 0x709 DUP3 PUSH2 0xA18 JUMP JUMPDEST PUSH1 0x3 DUP3 ADD SWAP1 POP SWAP2 SWAP1 POP JUMP JUMPDEST PUSH1 0x0 PUSH2 0x721 PUSH1 0x4 DUP4 PUSH2 0x8A7 JUMP JUMPDEST SWAP2 POP PUSH2 0x72C DUP3 PUSH2 0xA41 JUMP JUMPDEST PUSH1 0x4 DUP3 ADD SWAP1 POP SWAP2 SWAP1 POP JUMP JUMPDEST PUSH1 0x0 PUSH2 0x744 PUSH1 0x19 DUP4 PUSH2 0x896 JUMP JUMPDEST SWAP2 POP PUSH2 0x74F DUP3 PUSH2 0xA6A JUMP JUMPDEST PUSH1 0x20 DUP3 ADD SWAP1 POP SWAP2 SWAP1 POP JUMP JUMPDEST PUSH2 0x763 DUP2 PUSH2 0x8EE JUMP JUMPDEST DUP3 MSTORE POP POP JUMP JUMPDEST PUSH1 0x0 PUSH2 0x775 DUP3 DUP5 PUSH2 0x67A JUMP JUMPDEST SWAP2 POP DUP2 SWAP1 POP SWAP3 SWAP2 POP POP JUMP JUMPDEST PUSH1 0x0 PUSH2 0x78B DUP3 PUSH2 0x6CE JUMP JUMPDEST SWAP2 POP DUP2 SWAP1 POP SWAP2 SWAP1 POP JUMP JUMPDEST PUSH1 0x0 PUSH2 0x7A0 DUP3 PUSH2 0x6F1 JUMP JUMPDEST SWAP2 POP DUP2 SWAP1 POP SWAP2 SWAP1 POP JUMP JUMPDEST PUSH1 0x0 PUSH2 0x7B5 DUP3 PUSH2 0x714 JUMP JUMPDEST SWAP2 POP DUP2 SWAP1 POP SWAP2 SWAP1 POP JUMP JUMPDEST PUSH1 0x0 PUSH1 0x20 DUP3 ADD SWAP1 POP PUSH2 0x7D4 PUSH1 0x0 DUP4 ADD DUP5 PUSH2 0x66B JUMP JUMPDEST SWAP3 SWAP2 POP POP JUMP JUMPDEST PUSH1 0x0 PUSH1 0x20 DUP3 ADD SWAP1 POP DUP2 DUP2 SUB PUSH1 0x0 DUP4 ADD MSTORE PUSH2 0x7F3 DUP2 PUSH2 0x6AB JUMP JUMPDEST SWAP1 POP SWAP2 SWAP1 POP JUMP JUMPDEST PUSH1 0x0 PUSH1 0x20 DUP3 ADD SWAP1 POP DUP2 DUP2 SUB PUSH1 0x0 DUP4 ADD MSTORE PUSH2 0x813 DUP2 PUSH2 0x737 JUMP JUMPDEST SWAP1 POP SWAP2 SWAP1 POP JUMP JUMPDEST PUSH1 0x0 PUSH1 0x20 DUP3 ADD SWAP1 POP PUSH2 0x82F PUSH1 0x0 DUP4 ADD DUP5 PUSH2 0x75A JUMP JUMPDEST SWAP3 SWAP2 POP POP JUMP JUMPDEST PUSH1 0x0 PUSH2 0x83F PUSH2 0x850 JUMP JUMPDEST SWAP1 POP PUSH2 0x84B DUP3 DUP3 PUSH2 0x941 JUMP JUMPDEST SWAP2 SWAP1 POP JUMP JUMPDEST PUSH1 0x0 PUSH1 0x40 MLOAD SWAP1 POP SWAP1 JUMP JUMPDEST PUSH1 0x0 PUSH8 0xFFFFFFFFFFFFFFFF DUP3 GT ISZERO PUSH2 0x875 JUMPI PUSH2 0x874 PUSH2 0x972 JUMP JUMPDEST JUMPDEST PUSH2 0x87E DUP3 PUSH2 0x9B5 JUMP JUMPDEST SWAP1 POP PUSH1 0x20 DUP2 ADD SWAP1 POP SWAP2 SWAP1 POP JUMP JUMPDEST PUSH1 0x0 DUP2 MLOAD SWAP1 POP SWAP2 SWAP1 POP JUMP JUMPDEST PUSH1 0x0 DUP3 DUP3 MSTORE PUSH1 0x20 DUP3 ADD SWAP1 POP SWAP3 SWAP2 POP POP JUMP JUMPDEST PUSH1 0x0 DUP2 SWAP1 POP SWAP3 SWAP2 POP POP JUMP JUMPDEST PUSH1 0x0 PUSH2 0x8BD DUP3 PUSH2 0x8CE JUMP JUMPDEST SWAP1 POP SWAP2 SWAP1 POP JUMP JUMPDEST PUSH1 0x0 DUP2 SWAP1 POP SWAP2 SWAP1 POP JUMP JUMPDEST PUSH1 0x0 PUSH20 0xFFFFFFFFFFFFFFFFFFFFFFFFFFFFFFFFFFFFFFFF DUP3 AND SWAP1 POP SWAP2 SWAP1 POP JUMP JUMPDEST PUSH1 0x0 DUP2 SWAP1 POP SWAP2 SWAP1 POP JUMP JUMPDEST PUSH1 0x0 PUSH10 0xFFFFFFFFFFFFFFFFFFFF DUP3 AND SWAP1 POP SWAP2 SWAP1 POP JUMP JUMPDEST PUSH1 0x0 JUMPDEST DUP4 DUP2 LT ISZERO PUSH2 0x92C JUMPI DUP1 DUP3 ADD MLOAD DUP2 DUP5 ADD MSTORE PUSH1 0x20 DUP2 ADD SWAP1 POP PUSH2 0x911 JUMP JUMPDEST DUP4 DUP2 GT ISZERO PUSH2 0x93B JUMPI PUSH1 0x0 DUP5 DUP5 ADD MSTORE JUMPDEST POP POP POP POP JUMP JUMPDEST PUSH2 0x94A DUP3 PUSH2 0x9B5 JUMP JUMPDEST DUP2 ADD DUP2 DUP2 LT PUSH8 0xFFFFFFFFFFFFFFFF DUP3 GT OR ISZERO PUSH2 0x969 JUMPI PUSH2 0x968 PUSH2 0x972 JUMP JUMPDEST JUMPDEST DUP1 PUSH1 0x40 MSTORE POP POP POP JUMP JUMPDEST PUSH32 0x4E487B7100000000000000000000000000000000000000000000000000000000 PUSH1 0x0 MSTORE PUSH1 0x41 PUSH1 0x4 MSTORE PUSH1 0x24 PUSH1 0x0 REVERT JUMPDEST PUSH1 0x0 DUP1 REVERT JUMPDEST PUSH1 0x0 DUP1 REVERT JUMPDEST PUSH1 0x0 DUP1 REVERT JUMPDEST PUSH1 0x0 DUP1 REVERT JUMPDEST PUSH1 0x0 PUSH1 0x1F NOT PUSH1 0x1F DUP4 ADD AND SWAP1 POP SWAP2 SWAP1 POP JUMP JUMPDEST PUSH32 0x4F7261636C653A20507269636520756E646572206D696E000000000000000000 PUSH1 0x0 DUP3 ADD MSTORE POP JUMP JUMPDEST PUSH32 0x5553445400000000000000000000000000000000000000000000000000000000 PUSH1 0x0 DUP3 ADD MSTORE POP JUMP JUMPDEST PUSH32 0x4441490000000000000000000000000000000000000000000000000000000000 PUSH1 0x0 DUP3 ADD MSTORE POP JUMP JUMPDEST PUSH32 0x5553444300000000000000000000000000000000000000000000000000000000 PUSH1 0x0 DUP3 ADD MSTORE POP JUMP JUMPDEST PUSH32 0x4F7261636C653A2050726963652065786365656473206D617800000000000000 PUSH1 0x0 DUP3 ADD MSTORE POP JUMP JUMPDEST PUSH2 0xA9C DUP2 PUSH2 0x8B2 JUMP JUMPDEST DUP2 EQ PUSH2 0xAA7 JUMPI PUSH1 0x0 DUP1 REVERT JUMPDEST POP JUMP JUMPDEST PUSH2 0xAB3 DUP2 PUSH2 0x8C4 JUMP JUMPDEST DUP2 EQ PUSH2 0xABE JUMPI PUSH1 0x0 DUP1 REVERT JUMPDEST POP JUMP JUMPDEST PUSH2 0xACA DUP2 PUSH2 0x8EE JUMP JUMPDEST DUP2 EQ PUSH2 0xAD5 JUMPI PUSH1 0x0 DUP1 REVERT JUMPDEST POP JUMP JUMPDEST PUSH2 0xAE1 DUP2 PUSH2 0x8F8 JUMP JUMPDEST DUP2 EQ PUSH2 0xAEC JUMPI PUSH1 0x0 DUP1 REVERT JUMPDEST POP JUMP INVALID LOG2 PUSH5 0x6970667358 0x22 SLT KECCAK256 0xE1 SWAP1 PUSH1 0xE8 DELEGATECALL PUSH18 0x9B058318FE072B7E12B56B3FE0348EA3F00B 0xD0 CALLCODE MOD BYTE MSTORE 0xB7 INVALID 0x4F PUSH5 0x736F6C6343 STOP ADDMOD SMOD STOP CALLER "
				},
				"gasEstimates": {
					"creation": {
						"codeDepositCost": "570600",
						"executionCost": "606",
						"totalCost": "571206"
					},
					"external": {
						"assetToFeed(address)": "infinite",
						"price(address)": "infinite",
						"setFeed(address,address)": "infinite"
					},
					"internal": {
						"feed(address)": "2260"
					}
				},
				"methodIdentifiers": {
					"assetToFeed(address)": "e6741de2",
					"price(address)": "aea91078",
					"setFeed(address,address)": "40b1eb10"
				}
			},
			"storageLayout": {
				"storage": [
					{
						"astId": 320,
						"contract": "contracts/contracts/oracle/OracleRouter.sol:OracleRouterDev",
						"label": "assetToFeed",
						"offset": 0,
						"slot": "0",
						"type": "t_mapping(t_address,t_address)"
					}
				],
				"types": {
					"t_address": {
						"encoding": "inplace",
						"label": "address",
						"numberOfBytes": "20"
					},
					"t_mapping(t_address,t_address)": {
						"encoding": "mapping",
						"key": "t_address",
						"label": "mapping(address => address)",
						"numberOfBytes": "32",
						"value": "t_address"
					}
				}
			},
			"userdoc": {
				"kind": "user",
				"methods": {
					"price(address)": {
						"notice": "Returns the total price in 8 digit USD for a given asset."
					}
				},
				"version": 1
			}
		}
	}
}