{
	"contracts/governance/Governable.sol": {
		"Governable": {
			"abi": [
				{
					"inputs": [],
					"stateMutability": "nonpayable",
					"type": "constructor"
				},
				{
					"anonymous": false,
					"inputs": [
						{
							"indexed": true,
							"internalType": "address",
							"name": "previousGovernor",
							"type": "address"
						},
						{
							"indexed": true,
							"internalType": "address",
							"name": "newGovernor",
							"type": "address"
						}
					],
					"name": "GovernorshipTransferred",
					"type": "event"
				},
				{
					"anonymous": false,
					"inputs": [
						{
							"indexed": true,
							"internalType": "address",
							"name": "previousGovernor",
							"type": "address"
						},
						{
							"indexed": true,
							"internalType": "address",
							"name": "newGovernor",
							"type": "address"
						}
					],
					"name": "PendingGovernorshipTransfer",
					"type": "event"
				},
				{
					"inputs": [],
					"name": "claimGovernance",
					"outputs": [],
					"stateMutability": "nonpayable",
					"type": "function"
				},
				{
					"inputs": [],
					"name": "governor",
					"outputs": [
						{
							"internalType": "address",
							"name": "",
							"type": "address"
						}
					],
					"stateMutability": "view",
					"type": "function"
				},
				{
					"inputs": [],
					"name": "isGovernor",
					"outputs": [
						{
							"internalType": "bool",
							"name": "",
							"type": "bool"
						}
					],
					"stateMutability": "view",
					"type": "function"
				},
				{
					"inputs": [
						{
							"internalType": "address",
							"name": "_newGovernor",
							"type": "address"
						}
					],
					"name": "transferGovernance",
					"outputs": [],
					"stateMutability": "nonpayable",
					"type": "function"
				}
			],
			"devdoc": {
				"author": "Origin Protocol Inc",
				"details": "Copy of the openzeppelin Ownable.sol contract with nomenclature change      from owner to governor and renounce methods removed. Does not use      Context.sol like Ownable.sol does for simplification.",
				"kind": "dev",
				"methods": {
					"claimGovernance()": {
						"details": "Claim Governance of the contract to a new account (`newGovernor`). Can only be called by the new Governor."
					},
					"constructor": {
						"details": "Initializes the contract setting the deployer as the initial Governor."
					},
					"governor()": {
						"details": "Returns the address of the current Governor."
					},
					"isGovernor()": {
						"details": "Returns true if the caller is the current Governor."
					},
					"transferGovernance(address)": {
						"details": "Transfers Governance of the contract to a new account (`newGovernor`). Can only be called by the current Governor. Must be claimed for this to complete",
						"params": {
							"_newGovernor": "Address of the new Governor"
						}
					}
				},
				"title": "OUSD Governable Contract",
				"version": 1
			},
			"evm": {
				"assembly": "    /* \"contracts/governance/Governable.sol\":361:5471  contract Governable {\r... */\n  mstore(0x40, 0x80)\n    /* \"contracts/governance/Governable.sol\":1469:1590  constructor() {\r... */\n  callvalue\n  dup1\n  iszero\n  tag_1\n  jumpi\n  0x00\n  dup1\n  revert\ntag_1:\n  pop\n    /* \"contracts/governance/Governable.sol\":1494:1518  _setGovernor(msg.sender) */\n  tag_4\n    /* \"contracts/governance/Governable.sol\":1507:1517  msg.sender */\n  caller\n    /* \"contracts/governance/Governable.sol\":1494:1506  _setGovernor */\n  shl(0x20, tag_5)\n    /* \"contracts/governance/Governable.sol\":1494:1518  _setGovernor(msg.sender) */\n  0x20\n  shr\n  jump\t// in\ntag_4:\n    /* \"contracts/governance/Governable.sol\":1570:1581  _governor() */\n  tag_6\n    /* \"contracts/governance/Governable.sol\":1570:1579  _governor */\n  shl(0x20, tag_7)\n    /* \"contracts/governance/Governable.sol\":1570:1581  _governor() */\n  0x20\n  shr\n  jump\t// in\ntag_6:\n    /* \"contracts/governance/Governable.sol\":1534:1582  GovernorshipTransferred(address(0), _governor()) */\n  0xffffffffffffffffffffffffffffffffffffffff\n  and\n    /* \"contracts/governance/Governable.sol\":1566:1567  0 */\n  0x00\n    /* \"contracts/governance/Governable.sol\":1534:1582  GovernorshipTransferred(address(0), _governor()) */\n  0xffffffffffffffffffffffffffffffffffffffff\n  and\n  0xc7c0c772add429241571afb3805861fb3cfa2af374534088b76cdb4325a87e9a\n  mload(0x40)\n  mload(0x40)\n  dup1\n  swap2\n  sub\n  swap1\n  log3\n    /* \"contracts/governance/Governable.sol\":361:5471  contract Governable {\r... */\n  jump(tag_8)\n    /* \"contracts/governance/Governable.sol\":2772:2952  function _setGovernor(address newGovernor) internal {\r... */\ntag_5:\n    /* \"contracts/governance/Governable.sol\":2835:2851  bytes32 position */\n  0x00\n    /* \"contracts/governance/Governable.sol\":548:614  0x7bea13895fa79d2831e0a9e28edede30099005a50d652d8957cf8a607ee6ca4a */\n  0x7bea13895fa79d2831e0a9e28edede30099005a50d652d8957cf8a607ee6ca4a\n    /* \"contracts/governance/Governable.sol\":2854:2870  governorPosition */\n  0x00\n  shl\n    /* \"contracts/governance/Governable.sol\":2835:2870  bytes32 position = governorPosition */\n  swap1\n  pop\n    /* \"contracts/governance/Governable.sol\":2922:2933  newGovernor */\n  dup2\n    /* \"contracts/governance/Governable.sol\":2912:2920  position */\n  dup2\n    /* \"contracts/governance/Governable.sol\":2905:2934  sstore(position, newGovernor) */\n  sstore\n    /* \"contracts/governance/Governable.sol\":2890:2945  {\r... */\n  pop\n    /* \"contracts/governance/Governable.sol\":2772:2952  function _setGovernor(address newGovernor) internal {\r... */\n  pop\n  jump\t// out\n    /* \"contracts/governance/Governable.sol\":1845:2039  function _governor() internal view returns (address governorOut) {\r... */\ntag_7:\n    /* \"contracts/governance/Governable.sol\":1889:1908  address governorOut */\n  0x00\n    /* \"contracts/governance/Governable.sol\":1921:1937  bytes32 position */\n  dup1\n    /* \"contracts/governance/Governable.sol\":548:614  0x7bea13895fa79d2831e0a9e28edede30099005a50d652d8957cf8a607ee6ca4a */\n  0x7bea13895fa79d2831e0a9e28edede30099005a50d652d8957cf8a607ee6ca4a\n    /* \"contracts/governance/Governable.sol\":1940:1956  governorPosition */\n  0x00\n  shl\n    /* \"contracts/governance/Governable.sol\":1921:1956  bytes32 position = governorPosition */\n  swap1\n  pop\n    /* \"contracts/governance/Governable.sol\":2012:2020  position */\n  dup1\n    /* \"contracts/governance/Governable.sol\":2006:2021  sload(position) */\n  sload\n    /* \"contracts/governance/Governable.sol\":1991:2021  governorOut := sload(position) */\n  swap2\n  pop\n    /* \"contracts/governance/Governable.sol\":1976:2032  {\r... */\n  pop\n    /* \"contracts/governance/Governable.sol\":1845:2039  function _governor() internal view returns (address governorOut) {\r... */\n  swap1\n  jump\t// out\n    /* \"contracts/governance/Governable.sol\":361:5471  contract Governable {\r... */\ntag_8:\n  dataSize(sub_0)\n  dup1\n  dataOffset(sub_0)\n  0x00\n  codecopy\n  0x00\n  return\nstop\n\nsub_0: assembly {\n        /* \"contracts/governance/Governable.sol\":361:5471  contract Governable {\r... */\n      mstore(0x40, 0x80)\n      callvalue\n      dup1\n      iszero\n      tag_1\n      jumpi\n      0x00\n      dup1\n      revert\n    tag_1:\n      pop\n      jumpi(tag_2, lt(calldatasize, 0x04))\n      shr(0xe0, calldataload(0x00))\n      dup1\n      0x0c340a24\n      eq\n      tag_3\n      jumpi\n      dup1\n      0x5d36b190\n      eq\n      tag_4\n      jumpi\n      dup1\n      0xc7af3352\n      eq\n      tag_5\n      jumpi\n      dup1\n      0xd38bfff4\n      eq\n      tag_6\n      jumpi\n    tag_2:\n      0x00\n      dup1\n      revert\n        /* \"contracts/governance/Governable.sol\":1674:1761  function governor() public view returns (address) {\r... */\n    tag_3:\n      tag_7\n      tag_8\n      jump\t// in\n    tag_7:\n      mload(0x40)\n      tag_9\n      swap2\n      swap1\n      tag_10\n      jump\t// in\n    tag_9:\n      mload(0x40)\n      dup1\n      swap2\n      sub\n      swap1\n      return\n        /* \"contracts/governance/Governable.sol\":4839:5062  function claimGovernance() external {\r... */\n    tag_4:\n      tag_11\n      tag_12\n      jump\t// in\n    tag_11:\n      stop\n        /* \"contracts/governance/Governable.sol\":2664:2764  function isGovernor() public view returns (bool) {\r... */\n    tag_5:\n      tag_13\n      tag_14\n      jump\t// in\n    tag_13:\n      mload(0x40)\n      tag_15\n      swap2\n      swap1\n      tag_16\n      jump\t// in\n    tag_15:\n      mload(0x40)\n      dup1\n      swap2\n      sub\n      swap1\n      return\n        /* \"contracts/governance/Governable.sol\":4491:4685  function transferGovernance(address _newGovernor) external onlyGovernor {\r... */\n    tag_6:\n      tag_17\n      0x04\n      dup1\n      calldatasize\n      sub\n      dup2\n      add\n      swap1\n      tag_18\n      swap2\n      swap1\n      tag_19\n      jump\t// in\n    tag_18:\n      tag_20\n      jump\t// in\n    tag_17:\n      stop\n        /* \"contracts/governance/Governable.sol\":1674:1761  function governor() public view returns (address) {\r... */\n    tag_8:\n        /* \"contracts/governance/Governable.sol\":1715:1722  address */\n      0x00\n        /* \"contracts/governance/Governable.sol\":1742:1753  _governor() */\n      tag_22\n        /* \"contracts/governance/Governable.sol\":1742:1751  _governor */\n      tag_23\n        /* \"contracts/governance/Governable.sol\":1742:1753  _governor() */\n      jump\t// in\n    tag_22:\n        /* \"contracts/governance/Governable.sol\":1735:1753  return _governor() */\n      swap1\n      pop\n        /* \"contracts/governance/Governable.sol\":1674:1761  function governor() public view returns (address) {\r... */\n      swap1\n      jump\t// out\n        /* \"contracts/governance/Governable.sol\":4839:5062  function claimGovernance() external {\r... */\n    tag_12:\n        /* \"contracts/governance/Governable.sol\":4922:4940  _pendingGovernor() */\n      tag_25\n        /* \"contracts/governance/Governable.sol\":4922:4938  _pendingGovernor */\n      tag_26\n        /* \"contracts/governance/Governable.sol\":4922:4940  _pendingGovernor() */\n      jump\t// in\n    tag_25:\n        /* \"contracts/governance/Governable.sol\":4908:4940  msg.sender == _pendingGovernor() */\n      0xffffffffffffffffffffffffffffffffffffffff\n      and\n        /* \"contracts/governance/Governable.sol\":4908:4918  msg.sender */\n      caller\n        /* \"contracts/governance/Governable.sol\":4908:4940  msg.sender == _pendingGovernor() */\n      0xffffffffffffffffffffffffffffffffffffffff\n      and\n      eq\n        /* \"contracts/governance/Governable.sol\":4886:5016  require(\r... */\n      tag_27\n      jumpi\n      mload(0x40)\n      0x08c379a000000000000000000000000000000000000000000000000000000000\n      dup2\n      mstore\n      0x04\n      add\n      tag_28\n      swap1\n      tag_29\n      jump\t// in\n    tag_28:\n      mload(0x40)\n      dup1\n      swap2\n      sub\n      swap1\n      revert\n    tag_27:\n        /* \"contracts/governance/Governable.sol\":5027:5054  _changeGovernor(msg.sender) */\n      tag_30\n        /* \"contracts/governance/Governable.sol\":5043:5053  msg.sender */\n      caller\n        /* \"contracts/governance/Governable.sol\":5027:5042  _changeGovernor */\n      tag_31\n        /* \"contracts/governance/Governable.sol\":5027:5054  _changeGovernor(msg.sender) */\n      jump\t// in\n    tag_30:\n        /* \"contracts/governance/Governable.sol\":4839:5062  function claimGovernance() external {\r... */\n      jump\t// out\n        /* \"contracts/governance/Governable.sol\":2664:2764  function isGovernor() public view returns (bool) {\r... */\n    tag_14:\n        /* \"contracts/governance/Governable.sol\":2707:2711  bool */\n      0x00\n        /* \"contracts/governance/Governable.sol\":2745:2756  _governor() */\n      tag_33\n        /* \"contracts/governance/Governable.sol\":2745:2754  _governor */\n      tag_23\n        /* \"contracts/governance/Governable.sol\":2745:2756  _governor() */\n      jump\t// in\n    tag_33:\n        /* \"contracts/governance/Governable.sol\":2731:2756  msg.sender == _governor() */\n      0xffffffffffffffffffffffffffffffffffffffff\n      and\n        /* \"contracts/governance/Governable.sol\":2731:2741  msg.sender */\n      caller\n        /* \"contracts/governance/Governable.sol\":2731:2756  msg.sender == _governor() */\n      0xffffffffffffffffffffffffffffffffffffffff\n      and\n      eq\n        /* \"contracts/governance/Governable.sol\":2724:2756  return msg.sender == _governor() */\n      swap1\n      pop\n        /* \"contracts/governance/Governable.sol\":2664:2764  function isGovernor() public view returns (bool) {\r... */\n      swap1\n      jump\t// out\n        /* \"contracts/governance/Governable.sol\":4491:4685  function transferGovernance(address _newGovernor) external onlyGovernor {\r... */\n    tag_20:\n        /* \"contracts/governance/Governable.sol\":2510:2522  isGovernor() */\n      tag_35\n        /* \"contracts/governance/Governable.sol\":2510:2520  isGovernor */\n      tag_14\n        /* \"contracts/governance/Governable.sol\":2510:2522  isGovernor() */\n      jump\t// in\n    tag_35:\n        /* \"contracts/governance/Governable.sol\":2502:2553  require(isGovernor(), \"Caller is not the Governor\") */\n      tag_36\n      jumpi\n      mload(0x40)\n      0x08c379a000000000000000000000000000000000000000000000000000000000\n      dup2\n      mstore\n      0x04\n      add\n      tag_37\n      swap1\n      tag_38\n      jump\t// in\n    tag_37:\n      mload(0x40)\n      dup1\n      swap2\n      sub\n      swap1\n      revert\n    tag_36:\n        /* \"contracts/governance/Governable.sol\":4574:4607  _setPendingGovernor(_newGovernor) */\n      tag_40\n        /* \"contracts/governance/Governable.sol\":4594:4606  _newGovernor */\n      dup2\n        /* \"contracts/governance/Governable.sol\":4574:4593  _setPendingGovernor */\n      tag_41\n        /* \"contracts/governance/Governable.sol\":4574:4607  _setPendingGovernor(_newGovernor) */\n      jump\t// in\n    tag_40:\n        /* \"contracts/governance/Governable.sol\":4664:4676  _newGovernor */\n      dup1\n        /* \"contracts/governance/Governable.sol\":4623:4677  PendingGovernorshipTransfer(_governor(), _newGovernor) */\n      0xffffffffffffffffffffffffffffffffffffffff\n      and\n        /* \"contracts/governance/Governable.sol\":4651:4662  _governor() */\n      tag_42\n        /* \"contracts/governance/Governable.sol\":4651:4660  _governor */\n      tag_23\n        /* \"contracts/governance/Governable.sol\":4651:4662  _governor() */\n      jump\t// in\n    tag_42:\n        /* \"contracts/governance/Governable.sol\":4623:4677  PendingGovernorshipTransfer(_governor(), _newGovernor) */\n      0xffffffffffffffffffffffffffffffffffffffff\n      and\n      0xa39cc5eb22d0f34d8beaefee8a3f17cc229c1a1d1ef87a5ad47313487b1c4f0d\n      mload(0x40)\n      mload(0x40)\n      dup1\n      swap2\n      sub\n      swap1\n      log3\n        /* \"contracts/governance/Governable.sol\":4491:4685  function transferGovernance(address _newGovernor) external onlyGovernor {\r... */\n      pop\n      jump\t// out\n        /* \"contracts/governance/Governable.sol\":1845:2039  function _governor() internal view returns (address governorOut) {\r... */\n    tag_23:\n        /* \"contracts/governance/Governable.sol\":1889:1908  address governorOut */\n      0x00\n        /* \"contracts/governance/Governable.sol\":1921:1937  bytes32 position */\n      dup1\n        /* \"contracts/governance/Governable.sol\":548:614  0x7bea13895fa79d2831e0a9e28edede30099005a50d652d8957cf8a607ee6ca4a */\n      0x7bea13895fa79d2831e0a9e28edede30099005a50d652d8957cf8a607ee6ca4a\n        /* \"contracts/governance/Governable.sol\":1940:1956  governorPosition */\n      0x00\n      shl\n        /* \"contracts/governance/Governable.sol\":1921:1956  bytes32 position = governorPosition */\n      swap1\n      pop\n        /* \"contracts/governance/Governable.sol\":2012:2020  position */\n      dup1\n        /* \"contracts/governance/Governable.sol\":2006:2021  sload(position) */\n      sload\n        /* \"contracts/governance/Governable.sol\":1991:2021  governorOut := sload(position) */\n      swap2\n      pop\n        /* \"contracts/governance/Governable.sol\":1976:2032  {\r... */\n      pop\n        /* \"contracts/governance/Governable.sol\":1845:2039  function _governor() internal view returns (address governorOut) {\r... */\n      swap1\n      jump\t// out\n        /* \"contracts/governance/Governable.sol\":2123:2371  function _pendingGovernor()\r... */\n    tag_26:\n        /* \"contracts/governance/Governable.sol\":2201:2224  address pendingGovernor */\n      0x00\n        /* \"contracts/governance/Governable.sol\":2242:2258  bytes32 position */\n      dup1\n        /* \"contracts/governance/Governable.sol\":727:793  0x44c4d30b2eaad5130ad70c3ba6972730566f3e6359ab83e800d905c61b1c51db */\n      0x44c4d30b2eaad5130ad70c3ba6972730566f3e6359ab83e800d905c61b1c51db\n        /* \"contracts/governance/Governable.sol\":2261:2284  pendingGovernorPosition */\n      0x00\n      shl\n        /* \"contracts/governance/Governable.sol\":2242:2284  bytes32 position = pendingGovernorPosition */\n      swap1\n      pop\n        /* \"contracts/governance/Governable.sol\":2344:2352  position */\n      dup1\n        /* \"contracts/governance/Governable.sol\":2338:2353  sload(position) */\n      sload\n        /* \"contracts/governance/Governable.sol\":2319:2353  pendingGovernor := sload(position) */\n      swap2\n      pop\n        /* \"contracts/governance/Governable.sol\":2304:2364  {\r... */\n      pop\n        /* \"contracts/governance/Governable.sol\":2123:2371  function _pendingGovernor()\r... */\n      swap1\n      jump\t// out\n        /* \"contracts/governance/Governable.sol\":5225:5468  function _changeGovernor(address _newGovernor) internal {\r... */\n    tag_31:\n        /* \"contracts/governance/Governable.sol\":5324:5325  0 */\n      0x00\n        /* \"contracts/governance/Governable.sol\":5300:5326  _newGovernor != address(0) */\n      0xffffffffffffffffffffffffffffffffffffffff\n      and\n        /* \"contracts/governance/Governable.sol\":5300:5312  _newGovernor */\n      dup2\n        /* \"contracts/governance/Governable.sol\":5300:5326  _newGovernor != address(0) */\n      0xffffffffffffffffffffffffffffffffffffffff\n      and\n      eq\n      iszero\n        /* \"contracts/governance/Governable.sol\":5292:5357  require(_newGovernor != address(0), \"New Governor is address(0)\") */\n      tag_46\n      jumpi\n      mload(0x40)\n      0x08c379a000000000000000000000000000000000000000000000000000000000\n      dup2\n      mstore\n      0x04\n      add\n      tag_47\n      swap1\n      tag_48\n      jump\t// in\n    tag_47:\n      mload(0x40)\n      dup1\n      swap2\n      sub\n      swap1\n      revert\n    tag_46:\n        /* \"contracts/governance/Governable.sol\":5410:5422  _newGovernor */\n      dup1\n        /* \"contracts/governance/Governable.sol\":5373:5423  GovernorshipTransferred(_governor(), _newGovernor) */\n      0xffffffffffffffffffffffffffffffffffffffff\n      and\n        /* \"contracts/governance/Governable.sol\":5397:5408  _governor() */\n      tag_49\n        /* \"contracts/governance/Governable.sol\":5397:5406  _governor */\n      tag_23\n        /* \"contracts/governance/Governable.sol\":5397:5408  _governor() */\n      jump\t// in\n    tag_49:\n        /* \"contracts/governance/Governable.sol\":5373:5423  GovernorshipTransferred(_governor(), _newGovernor) */\n      0xffffffffffffffffffffffffffffffffffffffff\n      and\n      0xc7c0c772add429241571afb3805861fb3cfa2af374534088b76cdb4325a87e9a\n      mload(0x40)\n      mload(0x40)\n      dup1\n      swap2\n      sub\n      swap1\n      log3\n        /* \"contracts/governance/Governable.sol\":5434:5460  _setGovernor(_newGovernor) */\n      tag_50\n        /* \"contracts/governance/Governable.sol\":5447:5459  _newGovernor */\n      dup2\n        /* \"contracts/governance/Governable.sol\":5434:5446  _setGovernor */\n      tag_51\n        /* \"contracts/governance/Governable.sol\":5434:5460  _setGovernor(_newGovernor) */\n      jump\t// in\n    tag_50:\n        /* \"contracts/governance/Governable.sol\":5225:5468  function _changeGovernor(address _newGovernor) internal {\r... */\n      pop\n      jump\t// out\n        /* \"contracts/governance/Governable.sol\":4042:4236  function _setPendingGovernor(address newGovernor) internal {\r... */\n    tag_41:\n        /* \"contracts/governance/Governable.sol\":4112:4128  bytes32 position */\n      0x00\n        /* \"contracts/governance/Governable.sol\":727:793  0x44c4d30b2eaad5130ad70c3ba6972730566f3e6359ab83e800d905c61b1c51db */\n      0x44c4d30b2eaad5130ad70c3ba6972730566f3e6359ab83e800d905c61b1c51db\n        /* \"contracts/governance/Governable.sol\":4131:4154  pendingGovernorPosition */\n      0x00\n      shl\n        /* \"contracts/governance/Governable.sol\":4112:4154  bytes32 position = pendingGovernorPosition */\n      swap1\n      pop\n        /* \"contracts/governance/Governable.sol\":4206:4217  newGovernor */\n      dup2\n        /* \"contracts/governance/Governable.sol\":4196:4204  position */\n      dup2\n        /* \"contracts/governance/Governable.sol\":4189:4218  sstore(position, newGovernor) */\n      sstore\n        /* \"contracts/governance/Governable.sol\":4174:4229  {\r... */\n      pop\n        /* \"contracts/governance/Governable.sol\":4042:4236  function _setPendingGovernor(address newGovernor) internal {\r... */\n      pop\n      jump\t// out\n        /* \"contracts/governance/Governable.sol\":2772:2952  function _setGovernor(address newGovernor) internal {\r... */\n    tag_51:\n        /* \"contracts/governance/Governable.sol\":2835:2851  bytes32 position */\n      0x00\n        /* \"contracts/governance/Governable.sol\":548:614  0x7bea13895fa79d2831e0a9e28edede30099005a50d652d8957cf8a607ee6ca4a */\n      0x7bea13895fa79d2831e0a9e28edede30099005a50d652d8957cf8a607ee6ca4a\n        /* \"contracts/governance/Governable.sol\":2854:2870  governorPosition */\n      0x00\n      shl\n        /* \"contracts/governance/Governable.sol\":2835:2870  bytes32 position = governorPosition */\n      swap1\n      pop\n        /* \"contracts/governance/Governable.sol\":2922:2933  newGovernor */\n      dup2\n        /* \"contracts/governance/Governable.sol\":2912:2920  position */\n      dup2\n        /* \"contracts/governance/Governable.sol\":2905:2934  sstore(position, newGovernor) */\n      sstore\n        /* \"contracts/governance/Governable.sol\":2890:2945  {\r... */\n      pop\n        /* \"contracts/governance/Governable.sol\":2772:2952  function _setGovernor(address newGovernor) internal {\r... */\n      pop\n      jump\t// out\n        /* \"#utility.yul\":7:146   */\n    tag_55:\n        /* \"#utility.yul\":53:58   */\n      0x00\n        /* \"#utility.yul\":91:97   */\n      dup2\n        /* \"#utility.yul\":78:98   */\n      calldataload\n        /* \"#utility.yul\":69:98   */\n      swap1\n      pop\n        /* \"#utility.yul\":107:140   */\n      tag_57\n        /* \"#utility.yul\":134:139   */\n      dup2\n        /* \"#utility.yul\":107:140   */\n      tag_58\n      jump\t// in\n    tag_57:\n        /* \"#utility.yul\":7:146   */\n      swap3\n      swap2\n      pop\n      pop\n      jump\t// out\n        /* \"#utility.yul\":152:481   */\n    tag_19:\n        /* \"#utility.yul\":211:217   */\n      0x00\n        /* \"#utility.yul\":260:262   */\n      0x20\n        /* \"#utility.yul\":248:257   */\n      dup3\n        /* \"#utility.yul\":239:246   */\n      dup5\n        /* \"#utility.yul\":235:258   */\n      sub\n        /* \"#utility.yul\":231:263   */\n      slt\n        /* \"#utility.yul\":228:347   */\n      iszero\n      tag_60\n      jumpi\n        /* \"#utility.yul\":266:345   */\n      tag_61\n      tag_62\n      jump\t// in\n    tag_61:\n        /* \"#utility.yul\":228:347   */\n    tag_60:\n        /* \"#utility.yul\":386:387   */\n      0x00\n        /* \"#utility.yul\":411:464   */\n      tag_63\n        /* \"#utility.yul\":456:463   */\n      dup5\n        /* \"#utility.yul\":447:453   */\n      dup3\n        /* \"#utility.yul\":436:445   */\n      dup6\n        /* \"#utility.yul\":432:454   */\n      add\n        /* \"#utility.yul\":411:464   */\n      tag_55\n      jump\t// in\n    tag_63:\n        /* \"#utility.yul\":401:464   */\n      swap2\n      pop\n        /* \"#utility.yul\":357:474   */\n      pop\n        /* \"#utility.yul\":152:481   */\n      swap3\n      swap2\n      pop\n      pop\n      jump\t// out\n        /* \"#utility.yul\":487:605   */\n    tag_64:\n        /* \"#utility.yul\":574:598   */\n      tag_66\n        /* \"#utility.yul\":592:597   */\n      dup2\n        /* \"#utility.yul\":574:598   */\n      tag_67\n      jump\t// in\n    tag_66:\n        /* \"#utility.yul\":569:572   */\n      dup3\n        /* \"#utility.yul\":562:599   */\n      mstore\n        /* \"#utility.yul\":487:605   */\n      pop\n      pop\n      jump\t// out\n        /* \"#utility.yul\":611:720   */\n    tag_68:\n        /* \"#utility.yul\":692:713   */\n      tag_70\n        /* \"#utility.yul\":707:712   */\n      dup2\n        /* \"#utility.yul\":692:713   */\n      tag_71\n      jump\t// in\n    tag_70:\n        /* \"#utility.yul\":687:690   */\n      dup3\n        /* \"#utility.yul\":680:714   */\n      mstore\n        /* \"#utility.yul\":611:720   */\n      pop\n      pop\n      jump\t// out\n        /* \"#utility.yul\":726:1092   */\n    tag_72:\n        /* \"#utility.yul\":868:871   */\n      0x00\n        /* \"#utility.yul\":889:956   */\n      tag_74\n        /* \"#utility.yul\":953:955   */\n      0x1a\n        /* \"#utility.yul\":948:951   */\n      dup4\n        /* \"#utility.yul\":889:956   */\n      tag_75\n      jump\t// in\n    tag_74:\n        /* \"#utility.yul\":882:956   */\n      swap2\n      pop\n        /* \"#utility.yul\":965:1058   */\n      tag_76\n        /* \"#utility.yul\":1054:1057   */\n      dup3\n        /* \"#utility.yul\":965:1058   */\n      tag_77\n      jump\t// in\n    tag_76:\n        /* \"#utility.yul\":1083:1085   */\n      0x20\n        /* \"#utility.yul\":1078:1081   */\n      dup3\n        /* \"#utility.yul\":1074:1086   */\n      add\n        /* \"#utility.yul\":1067:1086   */\n      swap1\n      pop\n        /* \"#utility.yul\":726:1092   */\n      swap2\n      swap1\n      pop\n      jump\t// out\n        /* \"#utility.yul\":1098:1464   */\n    tag_78:\n        /* \"#utility.yul\":1240:1243   */\n      0x00\n        /* \"#utility.yul\":1261:1328   */\n      tag_80\n        /* \"#utility.yul\":1325:1327   */\n      0x1a\n        /* \"#utility.yul\":1320:1323   */\n      dup4\n        /* \"#utility.yul\":1261:1328   */\n      tag_75\n      jump\t// in\n    tag_80:\n        /* \"#utility.yul\":1254:1328   */\n      swap2\n      pop\n        /* \"#utility.yul\":1337:1430   */\n      tag_81\n        /* \"#utility.yul\":1426:1429   */\n      dup3\n        /* \"#utility.yul\":1337:1430   */\n      tag_82\n      jump\t// in\n    tag_81:\n        /* \"#utility.yul\":1455:1457   */\n      0x20\n        /* \"#utility.yul\":1450:1453   */\n      dup3\n        /* \"#utility.yul\":1446:1458   */\n      add\n        /* \"#utility.yul\":1439:1458   */\n      swap1\n      pop\n        /* \"#utility.yul\":1098:1464   */\n      swap2\n      swap1\n      pop\n      jump\t// out\n        /* \"#utility.yul\":1470:1836   */\n    tag_83:\n        /* \"#utility.yul\":1612:1615   */\n      0x00\n        /* \"#utility.yul\":1633:1700   */\n      tag_85\n        /* \"#utility.yul\":1697:1699   */\n      0x30\n        /* \"#utility.yul\":1692:1695   */\n      dup4\n        /* \"#utility.yul\":1633:1700   */\n      tag_75\n      jump\t// in\n    tag_85:\n        /* \"#utility.yul\":1626:1700   */\n      swap2\n      pop\n        /* \"#utility.yul\":1709:1802   */\n      tag_86\n        /* \"#utility.yul\":1798:1801   */\n      dup3\n        /* \"#utility.yul\":1709:1802   */\n      tag_87\n      jump\t// in\n    tag_86:\n        /* \"#utility.yul\":1827:1829   */\n      0x40\n        /* \"#utility.yul\":1822:1825   */\n      dup3\n        /* \"#utility.yul\":1818:1830   */\n      add\n        /* \"#utility.yul\":1811:1830   */\n      swap1\n      pop\n        /* \"#utility.yul\":1470:1836   */\n      swap2\n      swap1\n      pop\n      jump\t// out\n        /* \"#utility.yul\":1842:2064   */\n    tag_10:\n        /* \"#utility.yul\":1935:1939   */\n      0x00\n        /* \"#utility.yul\":1973:1975   */\n      0x20\n        /* \"#utility.yul\":1962:1971   */\n      dup3\n        /* \"#utility.yul\":1958:1976   */\n      add\n        /* \"#utility.yul\":1950:1976   */\n      swap1\n      pop\n        /* \"#utility.yul\":1986:2057   */\n      tag_89\n        /* \"#utility.yul\":2054:2055   */\n      0x00\n        /* \"#utility.yul\":2043:2052   */\n      dup4\n        /* \"#utility.yul\":2039:2056   */\n      add\n        /* \"#utility.yul\":2030:2036   */\n      dup5\n        /* \"#utility.yul\":1986:2057   */\n      tag_64\n      jump\t// in\n    tag_89:\n        /* \"#utility.yul\":1842:2064   */\n      swap3\n      swap2\n      pop\n      pop\n      jump\t// out\n        /* \"#utility.yul\":2070:2280   */\n    tag_16:\n        /* \"#utility.yul\":2157:2161   */\n      0x00\n        /* \"#utility.yul\":2195:2197   */\n      0x20\n        /* \"#utility.yul\":2184:2193   */\n      dup3\n        /* \"#utility.yul\":2180:2198   */\n      add\n        /* \"#utility.yul\":2172:2198   */\n      swap1\n      pop\n        /* \"#utility.yul\":2208:2273   */\n      tag_91\n        /* \"#utility.yul\":2270:2271   */\n      0x00\n        /* \"#utility.yul\":2259:2268   */\n      dup4\n        /* \"#utility.yul\":2255:2272   */\n      add\n        /* \"#utility.yul\":2246:2252   */\n      dup5\n        /* \"#utility.yul\":2208:2273   */\n      tag_68\n      jump\t// in\n    tag_91:\n        /* \"#utility.yul\":2070:2280   */\n      swap3\n      swap2\n      pop\n      pop\n      jump\t// out\n        /* \"#utility.yul\":2286:2705   */\n    tag_38:\n        /* \"#utility.yul\":2452:2456   */\n      0x00\n        /* \"#utility.yul\":2490:2492   */\n      0x20\n        /* \"#utility.yul\":2479:2488   */\n      dup3\n        /* \"#utility.yul\":2475:2493   */\n      add\n        /* \"#utility.yul\":2467:2493   */\n      swap1\n      pop\n        /* \"#utility.yul\":2539:2548   */\n      dup2\n        /* \"#utility.yul\":2533:2537   */\n      dup2\n        /* \"#utility.yul\":2529:2549   */\n      sub\n        /* \"#utility.yul\":2525:2526   */\n      0x00\n        /* \"#utility.yul\":2514:2523   */\n      dup4\n        /* \"#utility.yul\":2510:2527   */\n      add\n        /* \"#utility.yul\":2503:2550   */\n      mstore\n        /* \"#utility.yul\":2567:2698   */\n      tag_93\n        /* \"#utility.yul\":2693:2697   */\n      dup2\n        /* \"#utility.yul\":2567:2698   */\n      tag_72\n      jump\t// in\n    tag_93:\n        /* \"#utility.yul\":2559:2698   */\n      swap1\n      pop\n        /* \"#utility.yul\":2286:2705   */\n      swap2\n      swap1\n      pop\n      jump\t// out\n        /* \"#utility.yul\":2711:3130   */\n    tag_48:\n        /* \"#utility.yul\":2877:2881   */\n      0x00\n        /* \"#utility.yul\":2915:2917   */\n      0x20\n        /* \"#utility.yul\":2904:2913   */\n      dup3\n        /* \"#utility.yul\":2900:2918   */\n      add\n        /* \"#utility.yul\":2892:2918   */\n      swap1\n      pop\n        /* \"#utility.yul\":2964:2973   */\n      dup2\n        /* \"#utility.yul\":2958:2962   */\n      dup2\n        /* \"#utility.yul\":2954:2974   */\n      sub\n        /* \"#utility.yul\":2950:2951   */\n      0x00\n        /* \"#utility.yul\":2939:2948   */\n      dup4\n        /* \"#utility.yul\":2935:2952   */\n      add\n        /* \"#utility.yul\":2928:2975   */\n      mstore\n        /* \"#utility.yul\":2992:3123   */\n      tag_95\n        /* \"#utility.yul\":3118:3122   */\n      dup2\n        /* \"#utility.yul\":2992:3123   */\n      tag_78\n      jump\t// in\n    tag_95:\n        /* \"#utility.yul\":2984:3123   */\n      swap1\n      pop\n        /* \"#utility.yul\":2711:3130   */\n      swap2\n      swap1\n      pop\n      jump\t// out\n        /* \"#utility.yul\":3136:3555   */\n    tag_29:\n        /* \"#utility.yul\":3302:3306   */\n      0x00\n        /* \"#utility.yul\":3340:3342   */\n      0x20\n        /* \"#utility.yul\":3329:3338   */\n      dup3\n        /* \"#utility.yul\":3325:3343   */\n      add\n        /* \"#utility.yul\":3317:3343   */\n      swap1\n      pop\n        /* \"#utility.yul\":3389:3398   */\n      dup2\n        /* \"#utility.yul\":3383:3387   */\n      dup2\n        /* \"#utility.yul\":3379:3399   */\n      sub\n        /* \"#utility.yul\":3375:3376   */\n      0x00\n        /* \"#utility.yul\":3364:3373   */\n      dup4\n        /* \"#utility.yul\":3360:3377   */\n      add\n        /* \"#utility.yul\":3353:3400   */\n      mstore\n        /* \"#utility.yul\":3417:3548   */\n      tag_97\n        /* \"#utility.yul\":3543:3547   */\n      dup2\n        /* \"#utility.yul\":3417:3548   */\n      tag_83\n      jump\t// in\n    tag_97:\n        /* \"#utility.yul\":3409:3548   */\n      swap1\n      pop\n        /* \"#utility.yul\":3136:3555   */\n      swap2\n      swap1\n      pop\n      jump\t// out\n        /* \"#utility.yul\":3642:3811   */\n    tag_75:\n        /* \"#utility.yul\":3726:3737   */\n      0x00\n        /* \"#utility.yul\":3760:3766   */\n      dup3\n        /* \"#utility.yul\":3755:3758   */\n      dup3\n        /* \"#utility.yul\":3748:3767   */\n      mstore\n        /* \"#utility.yul\":3800:3804   */\n      0x20\n        /* \"#utility.yul\":3795:3798   */\n      dup3\n        /* \"#utility.yul\":3791:3805   */\n      add\n        /* \"#utility.yul\":3776:3805   */\n      swap1\n      pop\n        /* \"#utility.yul\":3642:3811   */\n      swap3\n      swap2\n      pop\n      pop\n      jump\t// out\n        /* \"#utility.yul\":3817:3913   */\n    tag_67:\n        /* \"#utility.yul\":3854:3861   */\n      0x00\n        /* \"#utility.yul\":3883:3907   */\n      tag_102\n        /* \"#utility.yul\":3901:3906   */\n      dup3\n        /* \"#utility.yul\":3883:3907   */\n      tag_103\n      jump\t// in\n    tag_102:\n        /* \"#utility.yul\":3872:3907   */\n      swap1\n      pop\n        /* \"#utility.yul\":3817:3913   */\n      swap2\n      swap1\n      pop\n      jump\t// out\n        /* \"#utility.yul\":3919:4009   */\n    tag_71:\n        /* \"#utility.yul\":3953:3960   */\n      0x00\n        /* \"#utility.yul\":3996:4001   */\n      dup2\n        /* \"#utility.yul\":3989:4002   */\n      iszero\n        /* \"#utility.yul\":3982:4003   */\n      iszero\n        /* \"#utility.yul\":3971:4003   */\n      swap1\n      pop\n        /* \"#utility.yul\":3919:4009   */\n      swap2\n      swap1\n      pop\n      jump\t// out\n        /* \"#utility.yul\":4015:4141   */\n    tag_103:\n        /* \"#utility.yul\":4052:4059   */\n      0x00\n        /* \"#utility.yul\":4092:4134   */\n      0xffffffffffffffffffffffffffffffffffffffff\n        /* \"#utility.yul\":4085:4090   */\n      dup3\n        /* \"#utility.yul\":4081:4135   */\n      and\n        /* \"#utility.yul\":4070:4135   */\n      swap1\n      pop\n        /* \"#utility.yul\":4015:4141   */\n      swap2\n      swap1\n      pop\n      jump\t// out\n        /* \"#utility.yul\":4270:4387   */\n    tag_62:\n        /* \"#utility.yul\":4379:4380   */\n      0x00\n        /* \"#utility.yul\":4376:4377   */\n      dup1\n        /* \"#utility.yul\":4369:4381   */\n      revert\n        /* \"#utility.yul\":4393:4569   */\n    tag_77:\n        /* \"#utility.yul\":4533:4561   */\n      0x43616c6c6572206973206e6f742074686520476f7665726e6f72000000000000\n        /* \"#utility.yul\":4529:4530   */\n      0x00\n        /* \"#utility.yul\":4521:4527   */\n      dup3\n        /* \"#utility.yul\":4517:4531   */\n      add\n        /* \"#utility.yul\":4510:4562   */\n      mstore\n        /* \"#utility.yul\":4393:4569   */\n      pop\n      jump\t// out\n        /* \"#utility.yul\":4575:4751   */\n    tag_82:\n        /* \"#utility.yul\":4715:4743   */\n      0x4e657720476f7665726e6f722069732061646472657373283029000000000000\n        /* \"#utility.yul\":4711:4712   */\n      0x00\n        /* \"#utility.yul\":4703:4709   */\n      dup3\n        /* \"#utility.yul\":4699:4713   */\n      add\n        /* \"#utility.yul\":4692:4744   */\n      mstore\n        /* \"#utility.yul\":4575:4751   */\n      pop\n      jump\t// out\n        /* \"#utility.yul\":4757:4992   */\n    tag_87:\n        /* \"#utility.yul\":4897:4931   */\n      0x4f6e6c79207468652070656e64696e6720476f7665726e6f722063616e20636f\n        /* \"#utility.yul\":4893:4894   */\n      0x00\n        /* \"#utility.yul\":4885:4891   */\n      dup3\n        /* \"#utility.yul\":4881:4895   */\n      add\n        /* \"#utility.yul\":4874:4932   */\n      mstore\n        /* \"#utility.yul\":4966:4984   */\n      0x6d706c6574652074686520636c61696d00000000000000000000000000000000\n        /* \"#utility.yul\":4961:4963   */\n      0x20\n        /* \"#utility.yul\":4953:4959   */\n      dup3\n        /* \"#utility.yul\":4949:4964   */\n      add\n        /* \"#utility.yul\":4942:4985   */\n      mstore\n        /* \"#utility.yul\":4757:4992   */\n      pop\n      jump\t// out\n        /* \"#utility.yul\":4998:5120   */\n    tag_58:\n        /* \"#utility.yul\":5071:5095   */\n      tag_113\n        /* \"#utility.yul\":5089:5094   */\n      dup2\n        /* \"#utility.yul\":5071:5095   */\n      tag_67\n      jump\t// in\n    tag_113:\n        /* \"#utility.yul\":5064:5069   */\n      dup2\n        /* \"#utility.yul\":5061:5096   */\n      eq\n        /* \"#utility.yul\":5051:5114   */\n      tag_114\n      jumpi\n        /* \"#utility.yul\":5110:5111   */\n      0x00\n        /* \"#utility.yul\":5107:5108   */\n      dup1\n        /* \"#utility.yul\":5100:5112   */\n      revert\n        /* \"#utility.yul\":5051:5114   */\n    tag_114:\n        /* \"#utility.yul\":4998:5120   */\n      pop\n      jump\t// out\n\n    auxdata: 0xa264697066735822122040f46194bfb9b163207f0175b7abf06b29508038126fcb29074182890161e73f64736f6c63430008070033\n}\n",
				"bytecode": {
					"linkReferences": {},
					"object": "608060405234801561001057600080fd5b506100203361008d60201b60201c565b61002e6100bc60201b60201c565b73ffffffffffffffffffffffffffffffffffffffff16600073ffffffffffffffffffffffffffffffffffffffff167fc7c0c772add429241571afb3805861fb3cfa2af374534088b76cdb4325a87e9a60405160405180910390a36100ed565b60007f7bea13895fa79d2831e0a9e28edede30099005a50d652d8957cf8a607ee6ca4a60001b90508181555050565b6000807f7bea13895fa79d2831e0a9e28edede30099005a50d652d8957cf8a607ee6ca4a60001b9050805491505090565b610671806100fc6000396000f3fe608060405234801561001057600080fd5b506004361061004c5760003560e01c80630c340a24146100515780635d36b1901461006f578063c7af335214610079578063d38bfff414610097575b600080fd5b6100596100b3565b6040516100669190610499565b60405180910390f35b6100776100c2565b005b610081610142565b60405161008e91906104b4565b60405180910390f35b6100b160048036038101906100ac91906103e5565b61017f565b005b60006100bd610233565b905090565b6100ca610264565b73ffffffffffffffffffffffffffffffffffffffff163373ffffffffffffffffffffffffffffffffffffffff1614610137576040517f08c379a000000000000000000000000000000000000000000000000000000000815260040161012e9061050f565b60405180910390fd5b61014033610295565b565b600061014c610233565b73ffffffffffffffffffffffffffffffffffffffff163373ffffffffffffffffffffffffffffffffffffffff1614905090565b610187610142565b6101c6576040517f08c379a00000000000000000000000000000000000000000000000000000000081526004016101bd906104cf565b60405180910390fd5b6101cf81610372565b8073ffffffffffffffffffffffffffffffffffffffff166101ee610233565b73ffffffffffffffffffffffffffffffffffffffff167fa39cc5eb22d0f34d8beaefee8a3f17cc229c1a1d1ef87a5ad47313487b1c4f0d60405160405180910390a350565b6000807f7bea13895fa79d2831e0a9e28edede30099005a50d652d8957cf8a607ee6ca4a60001b9050805491505090565b6000807f44c4d30b2eaad5130ad70c3ba6972730566f3e6359ab83e800d905c61b1c51db60001b9050805491505090565b600073ffffffffffffffffffffffffffffffffffffffff168173ffffffffffffffffffffffffffffffffffffffff161415610305576040517f08c379a00000000000000000000000000000000000000000000000000000000081526004016102fc906104ef565b60405180910390fd5b8073ffffffffffffffffffffffffffffffffffffffff16610324610233565b73ffffffffffffffffffffffffffffffffffffffff167fc7c0c772add429241571afb3805861fb3cfa2af374534088b76cdb4325a87e9a60405160405180910390a361036f816103a1565b50565b60007f44c4d30b2eaad5130ad70c3ba6972730566f3e6359ab83e800d905c61b1c51db60001b90508181555050565b60007f7bea13895fa79d2831e0a9e28edede30099005a50d652d8957cf8a607ee6ca4a60001b90508181555050565b6000813590506103df81610624565b92915050565b6000602082840312156103fb576103fa61057e565b5b6000610409848285016103d0565b91505092915050565b61041b81610540565b82525050565b61042a81610552565b82525050565b600061043d601a8361052f565b915061044882610583565b602082019050919050565b6000610460601a8361052f565b915061046b826105ac565b602082019050919050565b600061048360308361052f565b915061048e826105d5565b604082019050919050565b60006020820190506104ae6000830184610412565b92915050565b60006020820190506104c96000830184610421565b92915050565b600060208201905081810360008301526104e881610430565b9050919050565b6000602082019050818103600083015261050881610453565b9050919050565b6000602082019050818103600083015261052881610476565b9050919050565b600082825260208201905092915050565b600061054b8261055e565b9050919050565b60008115159050919050565b600073ffffffffffffffffffffffffffffffffffffffff82169050919050565b600080fd5b7f43616c6c6572206973206e6f742074686520476f7665726e6f72000000000000600082015250565b7f4e657720476f7665726e6f722069732061646472657373283029000000000000600082015250565b7f4f6e6c79207468652070656e64696e6720476f7665726e6f722063616e20636f60008201527f6d706c6574652074686520636c61696d00000000000000000000000000000000602082015250565b61062d81610540565b811461063857600080fd5b5056fea264697066735822122040f46194bfb9b163207f0175b7abf06b29508038126fcb29074182890161e73f64736f6c63430008070033",
					"opcodes": "PUSH1 0x80 PUSH1 0x40 MSTORE CALLVALUE DUP1 ISZERO PUSH2 0x10 JUMPI PUSH1 0x0 DUP1 REVERT JUMPDEST POP PUSH2 0x20 CALLER PUSH2 0x8D PUSH1 0x20 SHL PUSH1 0x20 SHR JUMP JUMPDEST PUSH2 0x2E PUSH2 0xBC PUSH1 0x20 SHL PUSH1 0x20 SHR JUMP JUMPDEST PUSH20 0xFFFFFFFFFFFFFFFFFFFFFFFFFFFFFFFFFFFFFFFF AND PUSH1 0x0 PUSH20 0xFFFFFFFFFFFFFFFFFFFFFFFFFFFFFFFFFFFFFFFF AND PUSH32 0xC7C0C772ADD429241571AFB3805861FB3CFA2AF374534088B76CDB4325A87E9A PUSH1 0x40 MLOAD PUSH1 0x40 MLOAD DUP1 SWAP2 SUB SWAP1 LOG3 PUSH2 0xED JUMP JUMPDEST PUSH1 0x0 PUSH32 0x7BEA13895FA79D2831E0A9E28EDEDE30099005A50D652D8957CF8A607EE6CA4A PUSH1 0x0 SHL SWAP1 POP DUP2 DUP2 SSTORE POP POP JUMP JUMPDEST PUSH1 0x0 DUP1 PUSH32 0x7BEA13895FA79D2831E0A9E28EDEDE30099005A50D652D8957CF8A607EE6CA4A PUSH1 0x0 SHL SWAP1 POP DUP1 SLOAD SWAP2 POP POP SWAP1 JUMP JUMPDEST PUSH2 0x671 DUP1 PUSH2 0xFC PUSH1 0x0 CODECOPY PUSH1 0x0 RETURN INVALID PUSH1 0x80 PUSH1 0x40 MSTORE CALLVALUE DUP1 ISZERO PUSH2 0x10 JUMPI PUSH1 0x0 DUP1 REVERT JUMPDEST POP PUSH1 0x4 CALLDATASIZE LT PUSH2 0x4C JUMPI PUSH1 0x0 CALLDATALOAD PUSH1 0xE0 SHR DUP1 PUSH4 0xC340A24 EQ PUSH2 0x51 JUMPI DUP1 PUSH4 0x5D36B190 EQ PUSH2 0x6F JUMPI DUP1 PUSH4 0xC7AF3352 EQ PUSH2 0x79 JUMPI DUP1 PUSH4 0xD38BFFF4 EQ PUSH2 0x97 JUMPI JUMPDEST PUSH1 0x0 DUP1 REVERT JUMPDEST PUSH2 0x59 PUSH2 0xB3 JUMP JUMPDEST PUSH1 0x40 MLOAD PUSH2 0x66 SWAP2 SWAP1 PUSH2 0x499 JUMP JUMPDEST PUSH1 0x40 MLOAD DUP1 SWAP2 SUB SWAP1 RETURN JUMPDEST PUSH2 0x77 PUSH2 0xC2 JUMP JUMPDEST STOP JUMPDEST PUSH2 0x81 PUSH2 0x142 JUMP JUMPDEST PUSH1 0x40 MLOAD PUSH2 0x8E SWAP2 SWAP1 PUSH2 0x4B4 JUMP JUMPDEST PUSH1 0x40 MLOAD DUP1 SWAP2 SUB SWAP1 RETURN JUMPDEST PUSH2 0xB1 PUSH1 0x4 DUP1 CALLDATASIZE SUB DUP2 ADD SWAP1 PUSH2 0xAC SWAP2 SWAP1 PUSH2 0x3E5 JUMP JUMPDEST PUSH2 0x17F JUMP JUMPDEST STOP JUMPDEST PUSH1 0x0 PUSH2 0xBD PUSH2 0x233 JUMP JUMPDEST SWAP1 POP SWAP1 JUMP JUMPDEST PUSH2 0xCA PUSH2 0x264 JUMP JUMPDEST PUSH20 0xFFFFFFFFFFFFFFFFFFFFFFFFFFFFFFFFFFFFFFFF AND CALLER PUSH20 0xFFFFFFFFFFFFFFFFFFFFFFFFFFFFFFFFFFFFFFFF AND EQ PUSH2 0x137 JUMPI PUSH1 0x40 MLOAD PUSH32 0x8C379A000000000000000000000000000000000000000000000000000000000 DUP2 MSTORE PUSH1 0x4 ADD PUSH2 0x12E SWAP1 PUSH2 0x50F JUMP JUMPDEST PUSH1 0x40 MLOAD DUP1 SWAP2 SUB SWAP1 REVERT JUMPDEST PUSH2 0x140 CALLER PUSH2 0x295 JUMP JUMPDEST JUMP JUMPDEST PUSH1 0x0 PUSH2 0x14C PUSH2 0x233 JUMP JUMPDEST PUSH20 0xFFFFFFFFFFFFFFFFFFFFFFFFFFFFFFFFFFFFFFFF AND CALLER PUSH20 0xFFFFFFFFFFFFFFFFFFFFFFFFFFFFFFFFFFFFFFFF AND EQ SWAP1 POP SWAP1 JUMP JUMPDEST PUSH2 0x187 PUSH2 0x142 JUMP JUMPDEST PUSH2 0x1C6 JUMPI PUSH1 0x40 MLOAD PUSH32 0x8C379A000000000000000000000000000000000000000000000000000000000 DUP2 MSTORE PUSH1 0x4 ADD PUSH2 0x1BD SWAP1 PUSH2 0x4CF JUMP JUMPDEST PUSH1 0x40 MLOAD DUP1 SWAP2 SUB SWAP1 REVERT JUMPDEST PUSH2 0x1CF DUP2 PUSH2 0x372 JUMP JUMPDEST DUP1 PUSH20 0xFFFFFFFFFFFFFFFFFFFFFFFFFFFFFFFFFFFFFFFF AND PUSH2 0x1EE PUSH2 0x233 JUMP JUMPDEST PUSH20 0xFFFFFFFFFFFFFFFFFFFFFFFFFFFFFFFFFFFFFFFF AND PUSH32 0xA39CC5EB22D0F34D8BEAEFEE8A3F17CC229C1A1D1EF87A5AD47313487B1C4F0D PUSH1 0x40 MLOAD PUSH1 0x40 MLOAD DUP1 SWAP2 SUB SWAP1 LOG3 POP JUMP JUMPDEST PUSH1 0x0 DUP1 PUSH32 0x7BEA13895FA79D2831E0A9E28EDEDE30099005A50D652D8957CF8A607EE6CA4A PUSH1 0x0 SHL SWAP1 POP DUP1 SLOAD SWAP2 POP POP SWAP1 JUMP JUMPDEST PUSH1 0x0 DUP1 PUSH32 0x44C4D30B2EAAD5130AD70C3BA6972730566F3E6359AB83E800D905C61B1C51DB PUSH1 0x0 SHL SWAP1 POP DUP1 SLOAD SWAP2 POP POP SWAP1 JUMP JUMPDEST PUSH1 0x0 PUSH20 0xFFFFFFFFFFFFFFFFFFFFFFFFFFFFFFFFFFFFFFFF AND DUP2 PUSH20 0xFFFFFFFFFFFFFFFFFFFFFFFFFFFFFFFFFFFFFFFF AND EQ ISZERO PUSH2 0x305 JUMPI PUSH1 0x40 MLOAD PUSH32 0x8C379A000000000000000000000000000000000000000000000000000000000 DUP2 MSTORE PUSH1 0x4 ADD PUSH2 0x2FC SWAP1 PUSH2 0x4EF JUMP JUMPDEST PUSH1 0x40 MLOAD DUP1 SWAP2 SUB SWAP1 REVERT JUMPDEST DUP1 PUSH20 0xFFFFFFFFFFFFFFFFFFFFFFFFFFFFFFFFFFFFFFFF AND PUSH2 0x324 PUSH2 0x233 JUMP JUMPDEST PUSH20 0xFFFFFFFFFFFFFFFFFFFFFFFFFFFFFFFFFFFFFFFF AND PUSH32 0xC7C0C772ADD429241571AFB3805861FB3CFA2AF374534088B76CDB4325A87E9A PUSH1 0x40 MLOAD PUSH1 0x40 MLOAD DUP1 SWAP2 SUB SWAP1 LOG3 PUSH2 0x36F DUP2 PUSH2 0x3A1 JUMP JUMPDEST POP JUMP JUMPDEST PUSH1 0x0 PUSH32 0x44C4D30B2EAAD5130AD70C3BA6972730566F3E6359AB83E800D905C61B1C51DB PUSH1 0x0 SHL SWAP1 POP DUP2 DUP2 SSTORE POP POP JUMP JUMPDEST PUSH1 0x0 PUSH32 0x7BEA13895FA79D2831E0A9E28EDEDE30099005A50D652D8957CF8A607EE6CA4A PUSH1 0x0 SHL SWAP1 POP DUP2 DUP2 SSTORE POP POP JUMP JUMPDEST PUSH1 0x0 DUP2 CALLDATALOAD SWAP1 POP PUSH2 0x3DF DUP2 PUSH2 0x624 JUMP JUMPDEST SWAP3 SWAP2 POP POP JUMP JUMPDEST PUSH1 0x0 PUSH1 0x20 DUP3 DUP5 SUB SLT ISZERO PUSH2 0x3FB JUMPI PUSH2 0x3FA PUSH2 0x57E JUMP JUMPDEST JUMPDEST PUSH1 0x0 PUSH2 0x409 DUP5 DUP3 DUP6 ADD PUSH2 0x3D0 JUMP JUMPDEST SWAP2 POP POP SWAP3 SWAP2 POP POP JUMP JUMPDEST PUSH2 0x41B DUP2 PUSH2 0x540 JUMP JUMPDEST DUP3 MSTORE POP POP JUMP JUMPDEST PUSH2 0x42A DUP2 PUSH2 0x552 JUMP JUMPDEST DUP3 MSTORE POP POP JUMP JUMPDEST PUSH1 0x0 PUSH2 0x43D PUSH1 0x1A DUP4 PUSH2 0x52F JUMP JUMPDEST SWAP2 POP PUSH2 0x448 DUP3 PUSH2 0x583 JUMP JUMPDEST PUSH1 0x20 DUP3 ADD SWAP1 POP SWAP2 SWAP1 POP JUMP JUMPDEST PUSH1 0x0 PUSH2 0x460 PUSH1 0x1A DUP4 PUSH2 0x52F JUMP JUMPDEST SWAP2 POP PUSH2 0x46B DUP3 PUSH2 0x5AC JUMP JUMPDEST PUSH1 0x20 DUP3 ADD SWAP1 POP SWAP2 SWAP1 POP JUMP JUMPDEST PUSH1 0x0 PUSH2 0x483 PUSH1 0x30 DUP4 PUSH2 0x52F JUMP JUMPDEST SWAP2 POP PUSH2 0x48E DUP3 PUSH2 0x5D5 JUMP JUMPDEST PUSH1 0x40 DUP3 ADD SWAP1 POP SWAP2 SWAP1 POP JUMP JUMPDEST PUSH1 0x0 PUSH1 0x20 DUP3 ADD SWAP1 POP PUSH2 0x4AE PUSH1 0x0 DUP4 ADD DUP5 PUSH2 0x412 JUMP JUMPDEST SWAP3 SWAP2 POP POP JUMP JUMPDEST PUSH1 0x0 PUSH1 0x20 DUP3 ADD SWAP1 POP PUSH2 0x4C9 PUSH1 0x0 DUP4 ADD DUP5 PUSH2 0x421 JUMP JUMPDEST SWAP3 SWAP2 POP POP JUMP JUMPDEST PUSH1 0x0 PUSH1 0x20 DUP3 ADD SWAP1 POP DUP2 DUP2 SUB PUSH1 0x0 DUP4 ADD MSTORE PUSH2 0x4E8 DUP2 PUSH2 0x430 JUMP JUMPDEST SWAP1 POP SWAP2 SWAP1 POP JUMP JUMPDEST PUSH1 0x0 PUSH1 0x20 DUP3 ADD SWAP1 POP DUP2 DUP2 SUB PUSH1 0x0 DUP4 ADD MSTORE PUSH2 0x508 DUP2 PUSH2 0x453 JUMP JUMPDEST SWAP1 POP SWAP2 SWAP1 POP JUMP JUMPDEST PUSH1 0x0 PUSH1 0x20 DUP3 ADD SWAP1 POP DUP2 DUP2 SUB PUSH1 0x0 DUP4 ADD MSTORE PUSH2 0x528 DUP2 PUSH2 0x476 JUMP JUMPDEST SWAP1 POP SWAP2 SWAP1 POP JUMP JUMPDEST PUSH1 0x0 DUP3 DUP3 MSTORE PUSH1 0x20 DUP3 ADD SWAP1 POP SWAP3 SWAP2 POP POP JUMP JUMPDEST PUSH1 0x0 PUSH2 0x54B DUP3 PUSH2 0x55E JUMP JUMPDEST SWAP1 POP SWAP2 SWAP1 POP JUMP JUMPDEST PUSH1 0x0 DUP2 ISZERO ISZERO SWAP1 POP SWAP2 SWAP1 POP JUMP JUMPDEST PUSH1 0x0 PUSH20 0xFFFFFFFFFFFFFFFFFFFFFFFFFFFFFFFFFFFFFFFF DUP3 AND SWAP1 POP SWAP2 SWAP1 POP JUMP JUMPDEST PUSH1 0x0 DUP1 REVERT JUMPDEST PUSH32 0x43616C6C6572206973206E6F742074686520476F7665726E6F72000000000000 PUSH1 0x0 DUP3 ADD MSTORE POP JUMP JUMPDEST PUSH32 0x4E657720476F7665726E6F722069732061646472657373283029000000000000 PUSH1 0x0 DUP3 ADD MSTORE POP JUMP JUMPDEST PUSH32 0x4F6E6C79207468652070656E64696E6720476F7665726E6F722063616E20636F PUSH1 0x0 DUP3 ADD MSTORE PUSH32 0x6D706C6574652074686520636C61696D00000000000000000000000000000000 PUSH1 0x20 DUP3 ADD MSTORE POP JUMP JUMPDEST PUSH2 0x62D DUP2 PUSH2 0x540 JUMP JUMPDEST DUP2 EQ PUSH2 0x638 JUMPI PUSH1 0x0 DUP1 REVERT JUMPDEST POP JUMP INVALID LOG2 PUSH5 0x6970667358 0x22 SLT KECCAK256 BLOCKHASH DELEGATECALL PUSH2 0x94BF 0xB9 0xB1 PUSH4 0x207F0175 0xB7 0xAB CREATE PUSH12 0x29508038126FCB2907418289 ADD PUSH2 0xE73F PUSH5 0x736F6C6343 STOP ADDMOD SMOD STOP CALLER "
				},
				"gasEstimates": {
					"creation": {
						"codeDepositCost": "329800",
						"executionCost": "infinite",
						"totalCost": "infinite"
					},
					"external": {
						"claimGovernance()": "28251",
						"governor()": "2518",
						"isGovernor()": "2536",
						"transferGovernance(address)": "infinite"
					},
					"internal": {
						"_changeGovernor(address)": "infinite",
						"_governor()": "2142",
						"_pendingGovernor()": "2142",
						"_setGovernor(address)": "22136",
						"_setPendingGovernor(address)": "22136"
					}
				},
				"methodIdentifiers": {
					"claimGovernance()": "5d36b190",
					"governor()": "0c340a24",
					"isGovernor()": "c7af3352",
					"transferGovernance(address)": "d38bfff4"
				}
			},
			"storageLayout": {
				"storage": [],
				"types": null
			},
			"userdoc": {
				"kind": "user",
				"methods": {},
				"version": 1
			}
		}
	}
}