{
	"contracts/token/OUSD.sol": {
		"OUSD": {
			"abi": [
				{
					"anonymous": false,
					"inputs": [
						{
							"indexed": true,
							"internalType": "address",
							"name": "owner",
							"type": "address"
						},
						{
							"indexed": true,
							"internalType": "address",
							"name": "spender",
							"type": "address"
						},
						{
							"indexed": false,
							"internalType": "uint256",
							"name": "value",
							"type": "uint256"
						}
					],
					"name": "Approval",
					"type": "event"
				},
				{
					"anonymous": false,
					"inputs": [
						{
							"indexed": true,
							"internalType": "address",
							"name": "previousGovernor",
							"type": "address"
						},
						{
							"indexed": true,
							"internalType": "address",
							"name": "newGovernor",
							"type": "address"
						}
					],
					"name": "GovernorshipTransferred",
					"type": "event"
				},
				{
					"anonymous": false,
					"inputs": [
						{
							"indexed": true,
							"internalType": "address",
							"name": "previousGovernor",
							"type": "address"
						},
						{
							"indexed": true,
							"internalType": "address",
							"name": "newGovernor",
							"type": "address"
						}
					],
					"name": "PendingGovernorshipTransfer",
					"type": "event"
				},
				{
					"anonymous": false,
					"inputs": [
						{
							"indexed": false,
							"internalType": "uint256",
							"name": "totalSupply",
							"type": "uint256"
						},
						{
							"indexed": false,
							"internalType": "uint256",
							"name": "rebasingCredits",
							"type": "uint256"
						},
						{
							"indexed": false,
							"internalType": "uint256",
							"name": "rebasingCreditsPerToken",
							"type": "uint256"
						}
					],
					"name": "TotalSupplyUpdatedHighres",
					"type": "event"
				},
				{
					"anonymous": false,
					"inputs": [
						{
							"indexed": true,
							"internalType": "address",
							"name": "from",
							"type": "address"
						},
						{
							"indexed": true,
							"internalType": "address",
							"name": "to",
							"type": "address"
						},
						{
							"indexed": false,
							"internalType": "uint256",
							"name": "value",
							"type": "uint256"
						}
					],
					"name": "Transfer",
					"type": "event"
				},
				{
					"inputs": [],
					"name": "_totalSupply",
					"outputs": [
						{
							"internalType": "uint256",
							"name": "",
							"type": "uint256"
						}
					],
					"stateMutability": "view",
					"type": "function"
				},
				{
					"inputs": [
						{
							"internalType": "address",
							"name": "_owner",
							"type": "address"
						},
						{
							"internalType": "address",
							"name": "_spender",
							"type": "address"
						}
					],
					"name": "allowance",
					"outputs": [
						{
							"internalType": "uint256",
							"name": "",
							"type": "uint256"
						}
					],
					"stateMutability": "view",
					"type": "function"
				},
				{
					"inputs": [
						{
							"internalType": "address",
							"name": "_spender",
							"type": "address"
						},
						{
							"internalType": "uint256",
							"name": "_value",
							"type": "uint256"
						}
					],
					"name": "approve",
					"outputs": [
						{
							"internalType": "bool",
							"name": "",
							"type": "bool"
						}
					],
					"stateMutability": "nonpayable",
					"type": "function"
				},
				{
					"inputs": [
						{
							"internalType": "address",
							"name": "_account",
							"type": "address"
						}
					],
					"name": "balanceOf",
					"outputs": [
						{
							"internalType": "uint256",
							"name": "",
							"type": "uint256"
						}
					],
					"stateMutability": "view",
					"type": "function"
				},
				{
					"inputs": [
						{
							"internalType": "address",
							"name": "account",
							"type": "address"
						},
						{
							"internalType": "uint256",
							"name": "amount",
							"type": "uint256"
						}
					],
					"name": "burn",
					"outputs": [],
					"stateMutability": "nonpayable",
					"type": "function"
				},
				{
					"inputs": [
						{
							"internalType": "uint256",
							"name": "_newTotalSupply",
							"type": "uint256"
						}
					],
					"name": "changeSupply",
					"outputs": [],
					"stateMutability": "nonpayable",
					"type": "function"
				},
				{
					"inputs": [],
					"name": "claimGovernance",
					"outputs": [],
					"stateMutability": "nonpayable",
					"type": "function"
				},
				{
					"inputs": [
						{
							"internalType": "address",
							"name": "_account",
							"type": "address"
						}
					],
					"name": "creditsBalanceOf",
					"outputs": [
						{
							"internalType": "uint256",
							"name": "",
							"type": "uint256"
						},
						{
							"internalType": "uint256",
							"name": "",
							"type": "uint256"
						}
					],
					"stateMutability": "view",
					"type": "function"
				},
				{
					"inputs": [
						{
							"internalType": "address",
							"name": "_account",
							"type": "address"
						}
					],
					"name": "creditsBalanceOfHighres",
					"outputs": [
						{
							"internalType": "uint256",
							"name": "",
							"type": "uint256"
						},
						{
							"internalType": "uint256",
							"name": "",
							"type": "uint256"
						},
						{
							"internalType": "bool",
							"name": "",
							"type": "bool"
						}
					],
					"stateMutability": "view",
					"type": "function"
				},
				{
					"inputs": [],
					"name": "decimals",
					"outputs": [
						{
							"internalType": "uint8",
							"name": "",
							"type": "uint8"
						}
					],
					"stateMutability": "view",
					"type": "function"
				},
				{
					"inputs": [
						{
							"internalType": "address",
							"name": "_spender",
							"type": "address"
						},
						{
							"internalType": "uint256",
							"name": "_subtractedValue",
							"type": "uint256"
						}
					],
					"name": "decreaseAllowance",
					"outputs": [
						{
							"internalType": "bool",
							"name": "",
							"type": "bool"
						}
					],
					"stateMutability": "nonpayable",
					"type": "function"
				},
				{
					"inputs": [],
					"name": "governor",
					"outputs": [
						{
							"internalType": "address",
							"name": "",
							"type": "address"
						}
					],
					"stateMutability": "view",
					"type": "function"
				},
				{
					"inputs": [
						{
							"internalType": "address",
							"name": "_spender",
							"type": "address"
						},
						{
							"internalType": "uint256",
							"name": "_addedValue",
							"type": "uint256"
						}
					],
					"name": "increaseAllowance",
					"outputs": [
						{
							"internalType": "bool",
							"name": "",
							"type": "bool"
						}
					],
					"stateMutability": "nonpayable",
					"type": "function"
				},
				{
					"inputs": [
						{
							"internalType": "string",
							"name": "_nameArg",
							"type": "string"
						},
						{
							"internalType": "string",
							"name": "_symbolArg",
							"type": "string"
						},
						{
							"internalType": "address",
							"name": "_vaultAddress",
							"type": "address"
						}
					],
					"name": "initialize",
					"outputs": [],
					"stateMutability": "nonpayable",
					"type": "function"
				},
				{
					"inputs": [],
					"name": "isGovernor",
					"outputs": [
						{
							"internalType": "bool",
							"name": "",
							"type": "bool"
						}
					],
					"stateMutability": "view",
					"type": "function"
				},
				{
					"inputs": [
						{
							"internalType": "address",
							"name": "",
							"type": "address"
						}
					],
					"name": "isUpgraded",
					"outputs": [
						{
							"internalType": "uint256",
							"name": "",
							"type": "uint256"
						}
					],
					"stateMutability": "view",
					"type": "function"
				},
				{
					"inputs": [
						{
							"internalType": "address",
							"name": "_account",
							"type": "address"
						},
						{
							"internalType": "uint256",
							"name": "_amount",
							"type": "uint256"
						}
					],
					"name": "mint",
					"outputs": [],
					"stateMutability": "nonpayable",
					"type": "function"
				},
				{
					"inputs": [],
					"name": "name",
					"outputs": [
						{
							"internalType": "string",
							"name": "",
							"type": "string"
						}
					],
					"stateMutability": "view",
					"type": "function"
				},
				{
					"inputs": [
						{
							"internalType": "address",
							"name": "",
							"type": "address"
						}
					],
					"name": "nonRebasingCreditsPerToken",
					"outputs": [
						{
							"internalType": "uint256",
							"name": "",
							"type": "uint256"
						}
					],
					"stateMutability": "view",
					"type": "function"
				},
				{
					"inputs": [],
					"name": "nonRebasingSupply",
					"outputs": [
						{
							"internalType": "uint256",
							"name": "",
							"type": "uint256"
						}
					],
					"stateMutability": "view",
					"type": "function"
				},
				{
					"inputs": [],
					"name": "rebaseOptIn",
					"outputs": [],
					"stateMutability": "nonpayable",
					"type": "function"
				},
				{
					"inputs": [],
					"name": "rebaseOptOut",
					"outputs": [],
					"stateMutability": "nonpayable",
					"type": "function"
				},
				{
					"inputs": [
						{
							"internalType": "address",
							"name": "",
							"type": "address"
						}
					],
					"name": "rebaseState",
					"outputs": [
						{
							"internalType": "enum OUSD.RebaseOptions",
							"name": "",
							"type": "uint8"
						}
					],
					"stateMutability": "view",
					"type": "function"
				},
				{
					"inputs": [],
					"name": "rebasingCredits",
					"outputs": [
						{
							"internalType": "uint256",
							"name": "",
							"type": "uint256"
						}
					],
					"stateMutability": "view",
					"type": "function"
				},
				{
					"inputs": [],
					"name": "rebasingCreditsHighres",
					"outputs": [
						{
							"internalType": "uint256",
							"name": "",
							"type": "uint256"
						}
					],
					"stateMutability": "view",
					"type": "function"
				},
				{
					"inputs": [],
					"name": "rebasingCreditsPerToken",
					"outputs": [
						{
							"internalType": "uint256",
							"name": "",
							"type": "uint256"
						}
					],
					"stateMutability": "view",
					"type": "function"
				},
				{
					"inputs": [],
					"name": "rebasingCreditsPerTokenHighres",
					"outputs": [
						{
							"internalType": "uint256",
							"name": "",
							"type": "uint256"
						}
					],
					"stateMutability": "view",
					"type": "function"
				},
				{
					"inputs": [],
					"name": "symbol",
					"outputs": [
						{
							"internalType": "string",
							"name": "",
							"type": "string"
						}
					],
					"stateMutability": "view",
					"type": "function"
				},
				{
					"inputs": [],
					"name": "totalSupply",
					"outputs": [
						{
							"internalType": "uint256",
							"name": "",
							"type": "uint256"
						}
					],
					"stateMutability": "view",
					"type": "function"
				},
				{
					"inputs": [
						{
							"internalType": "address",
							"name": "_to",
							"type": "address"
						},
						{
							"internalType": "uint256",
							"name": "_value",
							"type": "uint256"
						}
					],
					"name": "transfer",
					"outputs": [
						{
							"internalType": "bool",
							"name": "",
							"type": "bool"
						}
					],
					"stateMutability": "nonpayable",
					"type": "function"
				},
				{
					"inputs": [
						{
							"internalType": "address",
							"name": "_from",
							"type": "address"
						},
						{
							"internalType": "address",
							"name": "_to",
							"type": "address"
						},
						{
							"internalType": "uint256",
							"name": "_value",
							"type": "uint256"
						}
					],
					"name": "transferFrom",
					"outputs": [
						{
							"internalType": "bool",
							"name": "",
							"type": "bool"
						}
					],
					"stateMutability": "nonpayable",
					"type": "function"
				},
				{
					"inputs": [
						{
							"internalType": "address",
							"name": "_newGovernor",
							"type": "address"
						}
					],
					"name": "transferGovernance",
					"outputs": [],
					"stateMutability": "nonpayable",
					"type": "function"
				},
				{
					"inputs": [],
					"name": "vaultAddress",
					"outputs": [
						{
							"internalType": "address",
							"name": "",
							"type": "address"
						}
					],
					"stateMutability": "view",
					"type": "function"
				}
			],
			"devdoc": {
				"kind": "dev",
				"methods": {
					"allowance(address,address)": {
						"details": "Function to check the amount of tokens that _owner has allowed to      `_spender`.",
						"params": {
							"_owner": "The address which owns the funds.",
							"_spender": "The address which will spend the funds."
						},
						"returns": {
							"_0": "The number of tokens still available for the _spender."
						}
					},
					"approve(address,uint256)": {
						"details": "Approve the passed address to spend the specified amount of tokens      on behalf of msg.sender. This method is included for ERC20      compatibility. `increaseAllowance` and `decreaseAllowance` should be      used instead.      Changing an allowance with this method brings the risk that someone      may transfer both the old and the new allowance - if they are both      greater than zero - if a transfer transaction is mined before the      later approve() call is mined.",
						"params": {
							"_spender": "The address which will spend the funds.",
							"_value": "The amount of tokens to be spent."
						}
					},
					"balanceOf(address)": {
						"details": "Gets the balance of the specified address.",
						"params": {
							"_account": "Address to query the balance of."
						},
						"returns": {
							"_0": "A uint256 representing the amount of base units owned by the         specified address."
						}
					},
					"burn(address,uint256)": {
						"details": "Burns tokens, decreasing totalSupply."
					},
					"changeSupply(uint256)": {
						"details": "Modify the supply without minting new tokens. This uses a change in      the exchange rate between \"credits\" and OUSD tokens to change balances.",
						"params": {
							"_newTotalSupply": "New total supply of OUSD."
						}
					},
					"claimGovernance()": {
						"details": "Claim Governance of the contract to a new account (`newGovernor`). Can only be called by the new Governor."
					},
					"creditsBalanceOf(address)": {
						"details": "Gets the credits balance of the specified address.Backwards compatible with old low res credits per token.",
						"params": {
							"_account": "The address to query the balance of."
						},
						"returns": {
							"_0": "(uint256, uint256) Credit balance and credits per token of the         address"
						}
					},
					"creditsBalanceOfHighres(address)": {
						"details": "Gets the credits balance of the specified address.",
						"params": {
							"_account": "The address to query the balance of."
						},
						"returns": {
							"_0": "(uint256, uint256, bool) Credit balance, credits per token of the         address, and isUpgraded"
						}
					},
					"decimals()": {
						"details": "Returns the number of decimals used to get its user representation. For example, if `decimals` equals `2`, a balance of `505` tokens should be displayed to a user as `5,05` (`505 / 10 ** 2`). Tokens usually opt for a value of 18, imitating the relationship between Ether and Wei. NOTE: This information is only used for _display_ purposes: it in no way affects any of the arithmetic of the contract, including {IERC20-balanceOf} and {IERC20-transfer}."
					},
					"decreaseAllowance(address,uint256)": {
						"details": "Decrease the amount of tokens that an owner has allowed to `_spender`.",
						"params": {
							"_spender": "The address which will spend the funds.",
							"_subtractedValue": "The amount of tokens to decrease the allowance        by."
						}
					},
					"governor()": {
						"details": "Returns the address of the current Governor."
					},
					"increaseAllowance(address,uint256)": {
						"details": "Increase the amount of tokens that an owner has allowed to      `_spender`.      This method should be used instead of approve() to avoid the double      approval vulnerability described above.",
						"params": {
							"_addedValue": "The amount of tokens to increase the allowance by.",
							"_spender": "The address which will spend the funds."
						}
					},
					"isGovernor()": {
						"details": "Returns true if the caller is the current Governor."
					},
					"mint(address,uint256)": {
						"details": "Mints new tokens, increasing totalSupply."
					},
					"name()": {
						"details": "Returns the name of the token."
					},
					"rebaseOptIn()": {
						"details": "Add a contract address to the non-rebasing exception list. The address's balance will be part of rebases and the account will be exposed to upside and downside."
					},
					"rebaseOptOut()": {
						"details": "Explicitly mark that an address is non-rebasing."
					},
					"rebasingCredits()": {
						"returns": {
							"_0": "Low resolution total number of rebasing credits"
						}
					},
					"rebasingCreditsHighres()": {
						"returns": {
							"_0": "High resolution total number of rebasing credits"
						}
					},
					"rebasingCreditsPerToken()": {
						"returns": {
							"_0": "Low resolution rebasingCreditsPerToken"
						}
					},
					"rebasingCreditsPerTokenHighres()": {
						"returns": {
							"_0": "High resolution rebasingCreditsPerToken"
						}
					},
					"symbol()": {
						"details": "Returns the symbol of the token, usually a shorter version of the name."
					},
					"totalSupply()": {
						"returns": {
							"_0": "The total supply of OUSD."
						}
					},
					"transfer(address,uint256)": {
						"details": "Transfer tokens to a specified address.",
						"params": {
							"_to": "the address to transfer to.",
							"_value": "the amount to be transferred."
						},
						"returns": {
							"_0": "true on success."
						}
					},
					"transferFrom(address,address,uint256)": {
						"details": "Transfer tokens from one address to another.",
						"params": {
							"_from": "The address you want to send tokens from.",
							"_to": "The address you want to transfer to.",
							"_value": "The amount of tokens to be transferred."
						}
					},
					"transferGovernance(address)": {
						"details": "Transfers Governance of the contract to a new account (`newGovernor`). Can only be called by the current Governor. Must be claimed for this to complete",
						"params": {
							"_newGovernor": "Address of the new Governor"
						}
					}
				},
				"version": 1
			},
			"evm": {
				"assembly": "    /* \"contracts/token/OUSD.sol\":863:20530  contract OUSD is Initializable, InitializableERC20Detailed, Governable {\r... */\n  mstore(0x40, 0x80)\n    /* \"contracts/token/OUSD.sol\":1465:1466  0 */\n  0x00\n    /* \"contracts/token/OUSD.sol\":1427:1467  address public vaultAddress = address(0) */\n  0x9c\n  exp(0x0100, 0x00)\n  dup2\n  sload\n  dup2\n  0xffffffffffffffffffffffffffffffffffffffff\n  mul\n  not\n  and\n  swap1\n  dup4\n  0xffffffffffffffffffffffffffffffffffffffff\n  and\n  mul\n  or\n  swap1\n  sstore\n  pop\n    /* \"contracts/token/OUSD.sol\":863:20530  contract OUSD is Initializable, InitializableERC20Detailed, Governable {\r... */\n  callvalue\n  dup1\n  iszero\n  tag_1\n  jumpi\n  0x00\n  dup1\n  revert\ntag_1:\n  pop\n    /* \"contracts/governance/Governable.sol\":1494:1518  _setGovernor(msg.sender) */\n  tag_4\n    /* \"contracts/governance/Governable.sol\":1507:1517  msg.sender */\n  caller\n    /* \"contracts/governance/Governable.sol\":1494:1506  _setGovernor */\n  shl(0x20, tag_5)\n    /* \"contracts/governance/Governable.sol\":1494:1518  _setGovernor(msg.sender) */\n  0x20\n  shr\n  jump\t// in\ntag_4:\n    /* \"contracts/governance/Governable.sol\":1570:1581  _governor() */\n  tag_6\n    /* \"contracts/governance/Governable.sol\":1570:1579  _governor */\n  shl(0x20, tag_7)\n    /* \"contracts/governance/Governable.sol\":1570:1581  _governor() */\n  0x20\n  shr\n  jump\t// in\ntag_6:\n    /* \"contracts/governance/Governable.sol\":1534:1582  GovernorshipTransferred(address(0), _governor()) */\n  0xffffffffffffffffffffffffffffffffffffffff\n  and\n    /* \"contracts/governance/Governable.sol\":1566:1567  0 */\n  0x00\n    /* \"contracts/governance/Governable.sol\":1534:1582  GovernorshipTransferred(address(0), _governor()) */\n  0xffffffffffffffffffffffffffffffffffffffff\n  and\n  0xc7c0c772add429241571afb3805861fb3cfa2af374534088b76cdb4325a87e9a\n  mload(0x40)\n  mload(0x40)\n  dup1\n  swap2\n  sub\n  swap1\n  log3\n    /* \"contracts/token/OUSD.sol\":863:20530  contract OUSD is Initializable, InitializableERC20Detailed, Governable {\r... */\n  jump(tag_8)\n    /* \"contracts/governance/Governable.sol\":2772:2952  function _setGovernor(address newGovernor) internal {\r... */\ntag_5:\n    /* \"contracts/governance/Governable.sol\":2835:2851  bytes32 position */\n  0x00\n    /* \"contracts/governance/Governable.sol\":548:614  0x7bea13895fa79d2831e0a9e28edede30099005a50d652d8957cf8a607ee6ca4a */\n  0x7bea13895fa79d2831e0a9e28edede30099005a50d652d8957cf8a607ee6ca4a\n    /* \"contracts/governance/Governable.sol\":2854:2870  governorPosition */\n  0x00\n  shl\n    /* \"contracts/governance/Governable.sol\":2835:2870  bytes32 position = governorPosition */\n  swap1\n  pop\n    /* \"contracts/governance/Governable.sol\":2922:2933  newGovernor */\n  dup2\n    /* \"contracts/governance/Governable.sol\":2912:2920  position */\n  dup2\n    /* \"contracts/governance/Governable.sol\":2905:2934  sstore(position, newGovernor) */\n  sstore\n    /* \"contracts/governance/Governable.sol\":2890:2945  {\r... */\n  pop\n    /* \"contracts/governance/Governable.sol\":2772:2952  function _setGovernor(address newGovernor) internal {\r... */\n  pop\n  jump\t// out\n    /* \"contracts/governance/Governable.sol\":1845:2039  function _governor() internal view returns (address governorOut) {\r... */\ntag_7:\n    /* \"contracts/governance/Governable.sol\":1889:1908  address governorOut */\n  0x00\n    /* \"contracts/governance/Governable.sol\":1921:1937  bytes32 position */\n  dup1\n    /* \"contracts/governance/Governable.sol\":548:614  0x7bea13895fa79d2831e0a9e28edede30099005a50d652d8957cf8a607ee6ca4a */\n  0x7bea13895fa79d2831e0a9e28edede30099005a50d652d8957cf8a607ee6ca4a\n    /* \"contracts/governance/Governable.sol\":1940:1956  governorPosition */\n  0x00\n  shl\n    /* \"contracts/governance/Governable.sol\":1921:1956  bytes32 position = governorPosition */\n  swap1\n  pop\n    /* \"contracts/governance/Governable.sol\":2012:2020  position */\n  dup1\n    /* \"contracts/governance/Governable.sol\":2006:2021  sload(position) */\n  sload\n    /* \"contracts/governance/Governable.sol\":1991:2021  governorOut := sload(position) */\n  swap2\n  pop\n    /* \"contracts/governance/Governable.sol\":1976:2032  {\r... */\n  pop\n    /* \"contracts/governance/Governable.sol\":1845:2039  function _governor() internal view returns (address governorOut) {\r... */\n  swap1\n  jump\t// out\n    /* \"contracts/token/OUSD.sol\":863:20530  contract OUSD is Initializable, InitializableERC20Detailed, Governable {\r... */\ntag_8:\n  dataSize(sub_0)\n  dup1\n  dataOffset(sub_0)\n  0x00\n  codecopy\n  0x00\n  return\nstop\n\nsub_0: assembly {\n        /* \"contracts/token/OUSD.sol\":863:20530  contract OUSD is Initializable, InitializableERC20Detailed, Governable {\r... */\n      mstore(0x40, 0x80)\n      callvalue\n      dup1\n      iszero\n      tag_1\n      jumpi\n      0x00\n      dup1\n      revert\n    tag_1:\n      pop\n      jumpi(tag_2, lt(calldatasize, 0x04))\n      shr(0xe0, calldataload(0x00))\n      dup1\n      0x6691cb3d\n      gt\n      tag_36\n      jumpi\n      dup1\n      0xa9059cbb\n      gt\n      tag_37\n      jumpi\n      dup1\n      0xdd62ed3e\n      gt\n      tag_38\n      jumpi\n      dup1\n      0xdd62ed3e\n      eq\n      tag_31\n      jumpi\n      dup1\n      0xe5c4fffe\n      eq\n      tag_32\n      jumpi\n      dup1\n      0xe696393a\n      eq\n      tag_33\n      jumpi\n      dup1\n      0xf51b0fd4\n      eq\n      tag_34\n      jumpi\n      dup1\n      0xf9854bfc\n      eq\n      tag_35\n      jumpi\n      jump(tag_2)\n    tag_38:\n      dup1\n      0xa9059cbb\n      eq\n      tag_27\n      jumpi\n      dup1\n      0xc2376dff\n      eq\n      tag_28\n      jumpi\n      dup1\n      0xc7af3352\n      eq\n      tag_29\n      jumpi\n      dup1\n      0xd38bfff4\n      eq\n      tag_30\n      jumpi\n      jump(tag_2)\n    tag_37:\n      dup1\n      0x95d89b41\n      gt\n      tag_39\n      jumpi\n      dup1\n      0x95d89b41\n      eq\n      tag_23\n      jumpi\n      dup1\n      0x95ef84b9\n      eq\n      tag_24\n      jumpi\n      dup1\n      0x9dc29fac\n      eq\n      tag_25\n      jumpi\n      dup1\n      0xa457c2d7\n      eq\n      tag_26\n      jumpi\n      jump(tag_2)\n    tag_39:\n      dup1\n      0x6691cb3d\n      eq\n      tag_19\n      jumpi\n      dup1\n      0x70a08231\n      eq\n      tag_20\n      jumpi\n      dup1\n      0x7a46a9c5\n      eq\n      tag_21\n      jumpi\n      dup1\n      0x7d0d66ff\n      eq\n      tag_22\n      jumpi\n      jump(tag_2)\n    tag_36:\n      dup1\n      0x39509351\n      gt\n      tag_40\n      jumpi\n      dup1\n      0x430bf08a\n      gt\n      tag_41\n      jumpi\n      dup1\n      0x430bf08a\n      eq\n      tag_15\n      jumpi\n      dup1\n      0x456ee286\n      eq\n      tag_16\n      jumpi\n      dup1\n      0x5d36b190\n      eq\n      tag_17\n      jumpi\n      dup1\n      0x609350cd\n      eq\n      tag_18\n      jumpi\n      jump(tag_2)\n    tag_41:\n      dup1\n      0x39509351\n      eq\n      tag_11\n      jumpi\n      dup1\n      0x39a7919f\n      eq\n      tag_12\n      jumpi\n      dup1\n      0x3eaaf86b\n      eq\n      tag_13\n      jumpi\n      dup1\n      0x40c10f19\n      eq\n      tag_14\n      jumpi\n      jump(tag_2)\n    tag_40:\n      dup1\n      0x0c340a24\n      gt\n      tag_42\n      jumpi\n      dup1\n      0x0c340a24\n      eq\n      tag_7\n      jumpi\n      dup1\n      0x18160ddd\n      eq\n      tag_8\n      jumpi\n      dup1\n      0x23b872dd\n      eq\n      tag_9\n      jumpi\n      dup1\n      0x313ce567\n      eq\n      tag_10\n      jumpi\n      jump(tag_2)\n    tag_42:\n      dup1\n      0x06fdde03\n      eq\n      tag_3\n      jumpi\n      dup1\n      0x077f224a\n      eq\n      tag_4\n      jumpi\n      dup1\n      0x077f22b7\n      eq\n      tag_5\n      jumpi\n      dup1\n      0x095ea7b3\n      eq\n      tag_6\n      jumpi\n    tag_2:\n      0x00\n      dup1\n      revert\n        /* \"contracts/utils/InitializableERC20Detailed.sol\":1094:1177  function name() public view returns (string memory) {\r... */\n    tag_3:\n      tag_43\n      tag_44\n      jump\t// in\n    tag_43:\n      mload(0x40)\n      tag_45\n      swap2\n      swap1\n      tag_46\n      jump\t// in\n    tag_45:\n      mload(0x40)\n      dup1\n      swap2\n      sub\n      swap1\n      return\n        /* \"contracts/token/OUSD.sol\":2039:2368  function initialize(\r... */\n    tag_4:\n      tag_47\n      0x04\n      dup1\n      calldatasize\n      sub\n      dup2\n      add\n      swap1\n      tag_48\n      swap2\n      swap1\n      tag_49\n      jump\t// in\n    tag_48:\n      tag_50\n      jump\t// in\n    tag_47:\n      stop\n        /* \"contracts/token/OUSD.sol\":3044:3165  function rebasingCredits() public view returns (uint256) {\r... */\n    tag_5:\n      tag_51\n      tag_52\n      jump\t// in\n    tag_51:\n      mload(0x40)\n      tag_53\n      swap2\n      swap1\n      tag_54\n      jump\t// in\n    tag_53:\n      mload(0x40)\n      dup1\n      swap2\n      sub\n      swap1\n      return\n        /* \"contracts/token/OUSD.sol\":10191:10442  function approve(address _spender, uint256 _value)\r... */\n    tag_6:\n      tag_55\n      0x04\n      dup1\n      calldatasize\n      sub\n      dup2\n      add\n      swap1\n      tag_56\n      swap2\n      swap1\n      tag_57\n      jump\t// in\n    tag_56:\n      tag_58\n      jump\t// in\n    tag_55:\n      mload(0x40)\n      tag_59\n      swap2\n      swap1\n      tag_60\n      jump\t// in\n    tag_59:\n      mload(0x40)\n      dup1\n      swap2\n      sub\n      swap1\n      return\n        /* \"contracts/governance/Governable.sol\":1674:1761  function governor() public view returns (address) {\r... */\n    tag_7:\n      tag_61\n      tag_62\n      jump\t// in\n    tag_61:\n      mload(0x40)\n      tag_63\n      swap2\n      swap1\n      tag_64\n      jump\t// in\n    tag_63:\n      mload(0x40)\n      dup1\n      swap2\n      sub\n      swap1\n      return\n        /* \"contracts/token/OUSD.sol\":2636:2736  function totalSupply() public view override returns (uint256) {\r... */\n    tag_8:\n      tag_65\n      tag_66\n      jump\t// in\n    tag_65:\n      mload(0x40)\n      tag_67\n      swap2\n      swap1\n      tag_54\n      jump\t// in\n    tag_67:\n      mload(0x40)\n      dup1\n      swap2\n      sub\n      swap1\n      return\n        /* \"contracts/token/OUSD.sol\":6607:7121  function transferFrom(\r... */\n    tag_9:\n      tag_68\n      0x04\n      dup1\n      calldatasize\n      sub\n      dup2\n      add\n      swap1\n      tag_69\n      swap2\n      swap1\n      tag_70\n      jump\t// in\n    tag_69:\n      tag_71\n      jump\t// in\n    tag_68:\n      mload(0x40)\n      tag_72\n      swap2\n      swap1\n      tag_60\n      jump\t// in\n    tag_72:\n      mload(0x40)\n      dup1\n      swap2\n      sub\n      swap1\n      return\n        /* \"contracts/utils/InitializableERC20Detailed.sol\":1946:2029  function decimals() public view returns (uint8) {\r... */\n    tag_10:\n      tag_73\n      tag_74\n      jump\t// in\n    tag_73:\n      mload(0x40)\n      tag_75\n      swap2\n      swap1\n      tag_76\n      jump\t// in\n    tag_75:\n      mload(0x40)\n      dup1\n      swap2\n      sub\n      swap1\n      return\n        /* \"contracts/token/OUSD.sol\":10841:11174  function increaseAllowance(address _spender, uint256 _addedValue)\r... */\n    tag_11:\n      tag_77\n      0x04\n      dup1\n      calldatasize\n      sub\n      dup2\n      add\n      swap1\n      tag_78\n      swap2\n      swap1\n      tag_57\n      jump\t// in\n    tag_78:\n      tag_79\n      jump\t// in\n    tag_77:\n      mload(0x40)\n      tag_80\n      swap2\n      swap1\n      tag_60\n      jump\t// in\n    tag_80:\n      mload(0x40)\n      dup1\n      swap2\n      sub\n      swap1\n      return\n        /* \"contracts/token/OUSD.sol\":19487:20527  function changeSupply(uint256 _newTotalSupply)\r... */\n    tag_12:\n      tag_81\n      0x04\n      dup1\n      calldatasize\n      sub\n      dup2\n      add\n      swap1\n      tag_82\n      swap2\n      swap1\n      tag_83\n      jump\t// in\n    tag_82:\n      tag_84\n      jump\t// in\n    tag_81:\n      stop\n        /* \"contracts/token/OUSD.sol\":1319:1346  uint256 public _totalSupply */\n    tag_13:\n      tag_85\n      tag_86\n      jump\t// in\n    tag_85:\n      mload(0x40)\n      tag_87\n      swap2\n      swap1\n      tag_54\n      jump\t// in\n    tag_87:\n      mload(0x40)\n      dup1\n      swap2\n      sub\n      swap1\n      return\n        /* \"contracts/token/OUSD.sol\":12037:12148  function mint(address _account, uint256 _amount) external onlyVault {\r... */\n    tag_14:\n      tag_88\n      0x04\n      dup1\n      calldatasize\n      sub\n      dup2\n      add\n      swap1\n      tag_89\n      swap2\n      swap1\n      tag_57\n      jump\t// in\n    tag_89:\n      tag_90\n      jump\t// in\n    tag_88:\n      stop\n        /* \"contracts/token/OUSD.sol\":1427:1467  address public vaultAddress = address(0) */\n    tag_15:\n      tag_91\n      tag_92\n      jump\t// in\n    tag_91:\n      mload(0x40)\n      tag_93\n      swap2\n      swap1\n      tag_64\n      jump\t// in\n    tag_93:\n      mload(0x40)\n      dup1\n      swap2\n      sub\n      swap1\n      return\n        /* \"contracts/token/OUSD.sol\":1867:1919  mapping(address => RebaseOptions) public rebaseState */\n    tag_16:\n      tag_94\n      0x04\n      dup1\n      calldatasize\n      sub\n      dup2\n      add\n      swap1\n      tag_95\n      swap2\n      swap1\n      tag_96\n      jump\t// in\n    tag_95:\n      tag_97\n      jump\t// in\n    tag_94:\n      mload(0x40)\n      tag_98\n      swap2\n      swap1\n      tag_99\n      jump\t// in\n    tag_98:\n      mload(0x40)\n      dup1\n      swap2\n      sub\n      swap1\n      return\n        /* \"contracts/governance/Governable.sol\":4839:5062  function claimGovernance() external {\r... */\n    tag_17:\n      tag_100\n      tag_101\n      jump\t// in\n    tag_100:\n      stop\n        /* \"contracts/token/OUSD.sol\":1799:1860  mapping(address => uint256) public nonRebasingCreditsPerToken */\n    tag_18:\n      tag_102\n      0x04\n      dup1\n      calldatasize\n      sub\n      dup2\n      add\n      swap1\n      tag_103\n      swap2\n      swap1\n      tag_96\n      jump\t// in\n    tag_103:\n      tag_104\n      jump\t// in\n    tag_102:\n      mload(0x40)\n      tag_105\n      swap2\n      swap1\n      tag_54\n      jump\t// in\n    tag_105:\n      mload(0x40)\n      dup1\n      swap2\n      sub\n      swap1\n      return\n        /* \"contracts/token/OUSD.sol\":2817:2954  function rebasingCreditsPerToken() public view returns (uint256) {\r... */\n    tag_19:\n      tag_106\n      tag_107\n      jump\t// in\n    tag_106:\n      mload(0x40)\n      tag_108\n      swap2\n      swap1\n      tag_54\n      jump\t// in\n    tag_108:\n      mload(0x40)\n      dup1\n      swap2\n      sub\n      swap1\n      return\n        /* \"contracts/token/OUSD.sol\":3817:4094  function balanceOf(address _account)\r... */\n    tag_20:\n      tag_109\n      0x04\n      dup1\n      calldatasize\n      sub\n      dup2\n      add\n      swap1\n      tag_110\n      swap2\n      swap1\n      tag_96\n      jump\t// in\n    tag_110:\n      tag_111\n      jump\t// in\n    tag_109:\n      mload(0x40)\n      tag_112\n      swap2\n      swap1\n      tag_54\n      jump\t// in\n    tag_112:\n      mload(0x40)\n      dup1\n      swap2\n      sub\n      swap1\n      return\n        /* \"contracts/token/OUSD.sol\":3247:3369  function rebasingCreditsPerTokenHighres() public view returns (uint256) {\r... */\n    tag_21:\n      tag_113\n      tag_114\n      jump\t// in\n    tag_113:\n      mload(0x40)\n      tag_115\n      swap2\n      swap1\n      tag_54\n      jump\t// in\n    tag_115:\n      mload(0x40)\n      dup1\n      swap2\n      sub\n      swap1\n      return\n        /* \"contracts/token/OUSD.sol\":3460:3566  function rebasingCreditsHighres() public view returns (uint256) {\r... */\n    tag_22:\n      tag_116\n      tag_117\n      jump\t// in\n    tag_116:\n      mload(0x40)\n      tag_118\n      swap2\n      swap1\n      tag_54\n      jump\t// in\n    tag_118:\n      mload(0x40)\n      dup1\n      swap2\n      sub\n      swap1\n      return\n        /* \"contracts/utils/InitializableERC20Detailed.sol\":1296:1383  function symbol() public view returns (string memory) {\r... */\n    tag_23:\n      tag_119\n      tag_120\n      jump\t// in\n    tag_119:\n      mload(0x40)\n      tag_121\n      swap2\n      swap1\n      tag_46\n      jump\t// in\n    tag_121:\n      mload(0x40)\n      dup1\n      swap2\n      sub\n      swap1\n      return\n        /* \"contracts/token/OUSD.sol\":1926:1971  mapping(address => uint256) public isUpgraded */\n    tag_24:\n      tag_122\n      0x04\n      dup1\n      calldatasize\n      sub\n      dup2\n      add\n      swap1\n      tag_123\n      swap2\n      swap1\n      tag_96\n      jump\t// in\n    tag_123:\n      tag_124\n      jump\t// in\n    tag_122:\n      mload(0x40)\n      tag_125\n      swap2\n      swap1\n      tag_54\n      jump\t// in\n    tag_125:\n      mload(0x40)\n      dup1\n      swap2\n      sub\n      swap1\n      return\n        /* \"contracts/token/OUSD.sol\":13423:13530  function burn(address account, uint256 amount) external onlyVault {\r... */\n    tag_25:\n      tag_126\n      0x04\n      dup1\n      calldatasize\n      sub\n      dup2\n      add\n      swap1\n      tag_127\n      swap2\n      swap1\n      tag_57\n      jump\t// in\n    tag_127:\n      tag_128\n      jump\t// in\n    tag_126:\n      stop\n        /* \"contracts/token/OUSD.sol\":11459:11956  function decreaseAllowance(address _spender, uint256 _subtractedValue)\r... */\n    tag_26:\n      tag_129\n      0x04\n      dup1\n      calldatasize\n      sub\n      dup2\n      add\n      swap1\n      tag_130\n      swap2\n      swap1\n      tag_57\n      jump\t// in\n    tag_130:\n      tag_131\n      jump\t// in\n    tag_129:\n      mload(0x40)\n      tag_132\n      swap2\n      swap1\n      tag_60\n      jump\t// in\n    tag_132:\n      mload(0x40)\n      dup1\n      swap2\n      sub\n      swap1\n      return\n        /* \"contracts/token/OUSD.sol\":5909:6342  function transfer(address _to, uint256 _value)\r... */\n    tag_27:\n      tag_133\n      0x04\n      dup1\n      calldatasize\n      sub\n      dup2\n      add\n      swap1\n      tag_134\n      swap2\n      swap1\n      tag_57\n      jump\t// in\n    tag_134:\n      tag_135\n      jump\t// in\n    tag_133:\n      mload(0x40)\n      tag_136\n      swap2\n      swap1\n      tag_60\n      jump\t// in\n    tag_136:\n      mload(0x40)\n      dup1\n      swap2\n      sub\n      swap1\n      return\n        /* \"contracts/token/OUSD.sol\":18571:19238  function rebaseOptOut() public nonReentrant {\r... */\n    tag_28:\n      tag_137\n      tag_138\n      jump\t// in\n    tag_137:\n      stop\n        /* \"contracts/governance/Governable.sol\":2664:2764  function isGovernor() public view returns (bool) {\r... */\n    tag_29:\n      tag_139\n      tag_140\n      jump\t// in\n    tag_139:\n      mload(0x40)\n      tag_141\n      swap2\n      swap1\n      tag_60\n      jump\t// in\n    tag_141:\n      mload(0x40)\n      dup1\n      swap2\n      sub\n      swap1\n      return\n        /* \"contracts/governance/Governable.sol\":4491:4685  function transferGovernance(address _newGovernor) external onlyGovernor {\r... */\n    tag_30:\n      tag_142\n      0x04\n      dup1\n      calldatasize\n      sub\n      dup2\n      add\n      swap1\n      tag_143\n      swap2\n      swap1\n      tag_96\n      jump\t// in\n    tag_143:\n      tag_144\n      jump\t// in\n    tag_142:\n      stop\n        /* \"contracts/token/OUSD.sol\":9304:9492  function allowance(address _owner, address _spender)\r... */\n    tag_31:\n      tag_145\n      0x04\n      dup1\n      calldatasize\n      sub\n      dup2\n      add\n      swap1\n      tag_146\n      swap2\n      swap1\n      tag_147\n      jump\t// in\n    tag_146:\n      tag_148\n      jump\t// in\n    tag_145:\n      mload(0x40)\n      tag_149\n      swap2\n      swap1\n      tag_54\n      jump\t// in\n    tag_149:\n      mload(0x40)\n      dup1\n      swap2\n      sub\n      swap1\n      return\n        /* \"contracts/token/OUSD.sol\":5362:5698  function creditsBalanceOfHighres(address _account)\r... */\n    tag_32:\n      tag_150\n      0x04\n      dup1\n      calldatasize\n      sub\n      dup2\n      add\n      swap1\n      tag_151\n      swap2\n      swap1\n      tag_96\n      jump\t// in\n    tag_151:\n      tag_152\n      jump\t// in\n    tag_150:\n      mload(0x40)\n      tag_153\n      swap4\n      swap3\n      swap2\n      swap1\n      tag_154\n      jump\t// in\n    tag_153:\n      mload(0x40)\n      dup1\n      swap2\n      sub\n      swap1\n      return\n        /* \"contracts/token/OUSD.sol\":1760:1792  uint256 public nonRebasingSupply */\n    tag_33:\n      tag_155\n      tag_156\n      jump\t// in\n    tag_155:\n      mload(0x40)\n      tag_157\n      swap2\n      swap1\n      tag_54\n      jump\t// in\n    tag_157:\n      mload(0x40)\n      dup1\n      swap2\n      sub\n      swap1\n      return\n        /* \"contracts/token/OUSD.sol\":17582:18483  function rebaseOptIn() public nonReentrant {\r... */\n    tag_34:\n      tag_158\n      tag_159\n      jump\t// in\n    tag_158:\n      stop\n        /* \"contracts/token/OUSD.sol\":4418:5089  function creditsBalanceOf(address _account)\r... */\n    tag_35:\n      tag_160\n      0x04\n      dup1\n      calldatasize\n      sub\n      dup2\n      add\n      swap1\n      tag_161\n      swap2\n      swap1\n      tag_96\n      jump\t// in\n    tag_161:\n      tag_162\n      jump\t// in\n    tag_160:\n      mload(0x40)\n      tag_163\n      swap3\n      swap2\n      swap1\n      tag_164\n      jump\t// in\n    tag_163:\n      mload(0x40)\n      dup1\n      swap2\n      sub\n      swap1\n      return\n        /* \"contracts/utils/InitializableERC20Detailed.sol\":1094:1177  function name() public view returns (string memory) {\r... */\n    tag_44:\n        /* \"contracts/utils/InitializableERC20Detailed.sol\":1131:1144  string memory */\n      0x60\n        /* \"contracts/utils/InitializableERC20Detailed.sol\":1164:1169  _name */\n      0x97\n        /* \"contracts/utils/InitializableERC20Detailed.sol\":1157:1169  return _name */\n      dup1\n      sload\n      tag_166\n      swap1\n      tag_167\n      jump\t// in\n    tag_166:\n      dup1\n      0x1f\n      add\n      0x20\n      dup1\n      swap2\n      div\n      mul\n      0x20\n      add\n      mload(0x40)\n      swap1\n      dup2\n      add\n      0x40\n      mstore\n      dup1\n      swap3\n      swap2\n      swap1\n      dup2\n      dup2\n      mstore\n      0x20\n      add\n      dup3\n      dup1\n      sload\n      tag_168\n      swap1\n      tag_167\n      jump\t// in\n    tag_168:\n      dup1\n      iszero\n      tag_169\n      jumpi\n      dup1\n      0x1f\n      lt\n      tag_170\n      jumpi\n      0x0100\n      dup1\n      dup4\n      sload\n      div\n      mul\n      dup4\n      mstore\n      swap2\n      0x20\n      add\n      swap2\n      jump(tag_169)\n    tag_170:\n      dup3\n      add\n      swap2\n      swap1\n      0x00\n      mstore\n      keccak256(0x00, 0x20)\n      swap1\n    tag_171:\n      dup2\n      sload\n      dup2\n      mstore\n      swap1\n      0x01\n      add\n      swap1\n      0x20\n      add\n      dup1\n      dup4\n      gt\n      tag_171\n      jumpi\n      dup3\n      swap1\n      sub\n      0x1f\n      and\n      dup3\n      add\n      swap2\n    tag_169:\n      pop\n      pop\n      pop\n      pop\n      pop\n      swap1\n      pop\n        /* \"contracts/utils/InitializableERC20Detailed.sol\":1094:1177  function name() public view returns (string memory) {\r... */\n      swap1\n      jump\t// out\n        /* \"contracts/token/OUSD.sol\":2039:2368  function initialize(\r... */\n    tag_50:\n        /* \"contracts/governance/Governable.sol\":2510:2522  isGovernor() */\n      tag_173\n        /* \"contracts/governance/Governable.sol\":2510:2520  isGovernor */\n      tag_140\n        /* \"contracts/governance/Governable.sol\":2510:2522  isGovernor() */\n      jump\t// in\n    tag_173:\n        /* \"contracts/governance/Governable.sol\":2502:2553  require(isGovernor(), \"Caller is not the Governor\") */\n      tag_174\n      jumpi\n      mload(0x40)\n      0x08c379a000000000000000000000000000000000000000000000000000000000\n      dup2\n      mstore\n      0x04\n      add\n      tag_175\n      swap1\n      tag_176\n      jump\t// in\n    tag_175:\n      mload(0x40)\n      dup1\n      swap2\n      sub\n      swap1\n      revert\n    tag_174:\n        /* \"contracts/utils/Initializable.sol\":508:520  initializing */\n      0x00\n      0x01\n      swap1\n      sload\n      swap1\n      0x0100\n      exp\n      swap1\n      div\n      0xff\n      and\n        /* \"contracts/utils/Initializable.sol\":508:536  initializing || !initialized */\n      dup1\n      tag_178\n      jumpi\n      pop\n        /* \"contracts/utils/Initializable.sol\":525:536  initialized */\n      0x00\n      dup1\n      sload\n      swap1\n      0x0100\n      exp\n      swap1\n      div\n      0xff\n      and\n        /* \"contracts/utils/Initializable.sol\":524:536  !initialized */\n      iszero\n        /* \"contracts/utils/Initializable.sol\":508:536  initializing || !initialized */\n    tag_178:\n        /* \"contracts/utils/Initializable.sol\":486:610  require(\r... */\n      tag_179\n      jumpi\n      mload(0x40)\n      0x08c379a000000000000000000000000000000000000000000000000000000000\n      dup2\n      mstore\n      0x04\n      add\n      tag_180\n      swap1\n      tag_181\n      jump\t// in\n    tag_180:\n      mload(0x40)\n      dup1\n      swap2\n      sub\n      swap1\n      revert\n    tag_179:\n        /* \"contracts/utils/Initializable.sol\":623:642  bool isTopLevelCall */\n      0x00\n        /* \"contracts/utils/Initializable.sol\":646:658  initializing */\n      dup1\n      0x01\n      swap1\n      sload\n      swap1\n      0x0100\n      exp\n      swap1\n      div\n      0xff\n      and\n        /* \"contracts/utils/Initializable.sol\":645:658  !initializing */\n      iszero\n        /* \"contracts/utils/Initializable.sol\":623:658  bool isTopLevelCall = !initializing */\n      swap1\n      pop\n        /* \"contracts/utils/Initializable.sol\":673:687  isTopLevelCall */\n      dup1\n        /* \"contracts/utils/Initializable.sol\":669:768  if (isTopLevelCall) {\r... */\n      iszero\n      tag_182\n      jumpi\n        /* \"contracts/utils/Initializable.sol\":719:723  true */\n      0x01\n        /* \"contracts/utils/Initializable.sol\":704:716  initializing */\n      0x00\n      0x01\n        /* \"contracts/utils/Initializable.sol\":704:723  initializing = true */\n      0x0100\n      exp\n      dup2\n      sload\n      dup2\n      0xff\n      mul\n      not\n      and\n      swap1\n      dup4\n      iszero\n      iszero\n      mul\n      or\n      swap1\n      sstore\n      pop\n        /* \"contracts/utils/Initializable.sol\":752:756  true */\n      0x01\n        /* \"contracts/utils/Initializable.sol\":738:749  initialized */\n      0x00\n      dup1\n        /* \"contracts/utils/Initializable.sol\":738:756  initialized = true */\n      0x0100\n      exp\n      dup2\n      sload\n      dup2\n      0xff\n      mul\n      not\n      and\n      swap1\n      dup4\n      iszero\n      iszero\n      mul\n      or\n      swap1\n      sstore\n      pop\n        /* \"contracts/utils/Initializable.sol\":669:768  if (isTopLevelCall) {\r... */\n    tag_182:\n        /* \"contracts/token/OUSD.sol\":2215:2279  InitializableERC20Detailed._initialize(_nameArg, _symbolArg, 18) */\n      tag_184\n        /* \"contracts/token/OUSD.sol\":2254:2262  _nameArg */\n      dup7\n      dup7\n        /* \"contracts/token/OUSD.sol\":2215:2279  InitializableERC20Detailed._initialize(_nameArg, _symbolArg, 18) */\n      dup1\n      dup1\n      0x1f\n      add\n      0x20\n      dup1\n      swap2\n      div\n      mul\n      0x20\n      add\n      mload(0x40)\n      swap1\n      dup2\n      add\n      0x40\n      mstore\n      dup1\n      swap4\n      swap3\n      swap2\n      swap1\n      dup2\n      dup2\n      mstore\n      0x20\n      add\n      dup4\n      dup4\n      dup1\n      dup3\n      dup5\n      calldatacopy\n      0x00\n      dup2\n      dup5\n      add\n      mstore\n      not(0x1f)\n      0x1f\n      dup3\n      add\n      and\n      swap1\n      pop\n      dup1\n      dup4\n      add\n      swap3\n      pop\n      pop\n      pop\n      pop\n      pop\n      pop\n      pop\n        /* \"contracts/token/OUSD.sol\":2264:2274  _symbolArg */\n      dup6\n      dup6\n        /* \"contracts/token/OUSD.sol\":2215:2279  InitializableERC20Detailed._initialize(_nameArg, _symbolArg, 18) */\n      dup1\n      dup1\n      0x1f\n      add\n      0x20\n      dup1\n      swap2\n      div\n      mul\n      0x20\n      add\n      mload(0x40)\n      swap1\n      dup2\n      add\n      0x40\n      mstore\n      dup1\n      swap4\n      swap3\n      swap2\n      swap1\n      dup2\n      dup2\n      mstore\n      0x20\n      add\n      dup4\n      dup4\n      dup1\n      dup3\n      dup5\n      calldatacopy\n      0x00\n      dup2\n      dup5\n      add\n      mstore\n      not(0x1f)\n      0x1f\n      dup3\n      add\n      and\n      swap1\n      pop\n      dup1\n      dup4\n      add\n      swap3\n      pop\n      pop\n      pop\n      pop\n      pop\n      pop\n      pop\n        /* \"contracts/token/OUSD.sol\":2276:2278  18 */\n      0x12\n        /* \"contracts/token/OUSD.sol\":2215:2253  InitializableERC20Detailed._initialize */\n      tag_185\n        /* \"contracts/token/OUSD.sol\":2215:2279  InitializableERC20Detailed._initialize(_nameArg, _symbolArg, 18) */\n      jump\t// in\n    tag_184:\n        /* \"contracts/token/OUSD.sol\":2317:2321  1e18 */\n      0x0de0b6b3a7640000\n        /* \"contracts/token/OUSD.sol\":2290:2314  _rebasingCreditsPerToken */\n      0x9f\n        /* \"contracts/token/OUSD.sol\":2290:2321  _rebasingCreditsPerToken = 1e18 */\n      dup2\n      swap1\n      sstore\n      pop\n        /* \"contracts/token/OUSD.sol\":2347:2360  _vaultAddress */\n      dup2\n        /* \"contracts/token/OUSD.sol\":2332:2344  vaultAddress */\n      0x9c\n      0x00\n        /* \"contracts/token/OUSD.sol\":2332:2360  vaultAddress = _vaultAddress */\n      0x0100\n      exp\n      dup2\n      sload\n      dup2\n      0xffffffffffffffffffffffffffffffffffffffff\n      mul\n      not\n      and\n      swap1\n      dup4\n      0xffffffffffffffffffffffffffffffffffffffff\n      and\n      mul\n      or\n      swap1\n      sstore\n      pop\n        /* \"contracts/utils/Initializable.sol\":798:812  isTopLevelCall */\n      dup1\n        /* \"contracts/utils/Initializable.sol\":794:861  if (isTopLevelCall) {\r... */\n      iszero\n      tag_186\n      jumpi\n        /* \"contracts/utils/Initializable.sol\":844:849  false */\n      0x00\n        /* \"contracts/utils/Initializable.sol\":829:841  initializing */\n      dup1\n      0x01\n        /* \"contracts/utils/Initializable.sol\":829:849  initializing = false */\n      0x0100\n      exp\n      dup2\n      sload\n      dup2\n      0xff\n      mul\n      not\n      and\n      swap1\n      dup4\n      iszero\n      iszero\n      mul\n      or\n      swap1\n      sstore\n      pop\n        /* \"contracts/utils/Initializable.sol\":794:861  if (isTopLevelCall) {\r... */\n    tag_186:\n        /* \"contracts/utils/Initializable.sol\":475:868  {\r... */\n      pop\n        /* \"contracts/token/OUSD.sol\":2039:2368  function initialize(\r... */\n      pop\n      pop\n      pop\n      pop\n      pop\n      jump\t// out\n        /* \"contracts/token/OUSD.sol\":3044:3165  function rebasingCredits() public view returns (uint256) {\r... */\n    tag_52:\n        /* \"contracts/token/OUSD.sol\":3092:3099  uint256 */\n      0x00\n        /* \"contracts/token/OUSD.sol\":2027:2030  1e9 */\n      0x3b9aca00\n        /* \"contracts/token/OUSD.sol\":3119:3135  _rebasingCredits */\n      sload(0x9e)\n        /* \"contracts/token/OUSD.sol\":3119:3157  _rebasingCredits / RESOLUTION_INCREASE */\n      tag_188\n      swap2\n      swap1\n      tag_189\n      jump\t// in\n    tag_188:\n        /* \"contracts/token/OUSD.sol\":3112:3157  return _rebasingCredits / RESOLUTION_INCREASE */\n      swap1\n      pop\n        /* \"contracts/token/OUSD.sol\":3044:3165  function rebasingCredits() public view returns (uint256) {\r... */\n      swap1\n      jump\t// out\n        /* \"contracts/token/OUSD.sol\":10191:10442  function approve(address _spender, uint256 _value)\r... */\n    tag_58:\n        /* \"contracts/token/OUSD.sol\":10294:10298  bool */\n      0x00\n        /* \"contracts/token/OUSD.sol\":10352:10358  _value */\n      dup2\n        /* \"contracts/token/OUSD.sol\":10316:10327  _allowances */\n      0x9b\n        /* \"contracts/token/OUSD.sol\":10316:10339  _allowances[msg.sender] */\n      0x00\n        /* \"contracts/token/OUSD.sol\":10328:10338  msg.sender */\n      caller\n        /* \"contracts/token/OUSD.sol\":10316:10339  _allowances[msg.sender] */\n      0xffffffffffffffffffffffffffffffffffffffff\n      and\n      0xffffffffffffffffffffffffffffffffffffffff\n      and\n      dup2\n      mstore\n      0x20\n      add\n      swap1\n      dup2\n      mstore\n      0x20\n      add\n      0x00\n      keccak256\n        /* \"contracts/token/OUSD.sol\":10316:10349  _allowances[msg.sender][_spender] */\n      0x00\n        /* \"contracts/token/OUSD.sol\":10340:10348  _spender */\n      dup6\n        /* \"contracts/token/OUSD.sol\":10316:10349  _allowances[msg.sender][_spender] */\n      0xffffffffffffffffffffffffffffffffffffffff\n      and\n      0xffffffffffffffffffffffffffffffffffffffff\n      and\n      dup2\n      mstore\n      0x20\n      add\n      swap1\n      dup2\n      mstore\n      0x20\n      add\n      0x00\n      keccak256\n        /* \"contracts/token/OUSD.sol\":10316:10358  _allowances[msg.sender][_spender] = _value */\n      dup2\n      swap1\n      sstore\n      pop\n        /* \"contracts/token/OUSD.sol\":10395:10403  _spender */\n      dup3\n        /* \"contracts/token/OUSD.sol\":10374:10412  Approval(msg.sender, _spender, _value) */\n      0xffffffffffffffffffffffffffffffffffffffff\n      and\n        /* \"contracts/token/OUSD.sol\":10383:10393  msg.sender */\n      caller\n        /* \"contracts/token/OUSD.sol\":10374:10412  Approval(msg.sender, _spender, _value) */\n      0xffffffffffffffffffffffffffffffffffffffff\n      and\n      0x8c5be1e5ebec7d5bd14f71427d1e84f3dd0314c0f7b2291e5b200ac8c7c3b925\n        /* \"contracts/token/OUSD.sol\":10405:10411  _value */\n      dup5\n        /* \"contracts/token/OUSD.sol\":10374:10412  Approval(msg.sender, _spender, _value) */\n      mload(0x40)\n      tag_191\n      swap2\n      swap1\n      tag_54\n      jump\t// in\n    tag_191:\n      mload(0x40)\n      dup1\n      swap2\n      sub\n      swap1\n      log3\n        /* \"contracts/token/OUSD.sol\":10430:10434  true */\n      0x01\n        /* \"contracts/token/OUSD.sol\":10423:10434  return true */\n      swap1\n      pop\n        /* \"contracts/token/OUSD.sol\":10191:10442  function approve(address _spender, uint256 _value)\r... */\n      swap3\n      swap2\n      pop\n      pop\n      jump\t// out\n        /* \"contracts/governance/Governable.sol\":1674:1761  function governor() public view returns (address) {\r... */\n    tag_62:\n        /* \"contracts/governance/Governable.sol\":1715:1722  address */\n      0x00\n        /* \"contracts/governance/Governable.sol\":1742:1753  _governor() */\n      tag_193\n        /* \"contracts/governance/Governable.sol\":1742:1751  _governor */\n      tag_194\n        /* \"contracts/governance/Governable.sol\":1742:1753  _governor() */\n      jump\t// in\n    tag_193:\n        /* \"contracts/governance/Governable.sol\":1735:1753  return _governor() */\n      swap1\n      pop\n        /* \"contracts/governance/Governable.sol\":1674:1761  function governor() public view returns (address) {\r... */\n      swap1\n      jump\t// out\n        /* \"contracts/token/OUSD.sol\":2636:2736  function totalSupply() public view override returns (uint256) {\r... */\n    tag_66:\n        /* \"contracts/token/OUSD.sol\":2689:2696  uint256 */\n      0x00\n        /* \"contracts/token/OUSD.sol\":2716:2728  _totalSupply */\n      sload(0x9a)\n        /* \"contracts/token/OUSD.sol\":2709:2728  return _totalSupply */\n      swap1\n      pop\n        /* \"contracts/token/OUSD.sol\":2636:2736  function totalSupply() public view override returns (uint256) {\r... */\n      swap1\n      jump\t// out\n        /* \"contracts/token/OUSD.sol\":6607:7121  function transferFrom(\r... */\n    tag_71:\n        /* \"contracts/token/OUSD.sol\":6732:6736  bool */\n      0x00\n        /* \"contracts/token/OUSD.sol\":6772:6773  0 */\n      dup1\n        /* \"contracts/token/OUSD.sol\":6757:6774  _to != address(0) */\n      0xffffffffffffffffffffffffffffffffffffffff\n      and\n        /* \"contracts/token/OUSD.sol\":6757:6760  _to */\n      dup4\n        /* \"contracts/token/OUSD.sol\":6757:6774  _to != address(0) */\n      0xffffffffffffffffffffffffffffffffffffffff\n      and\n      eq\n      iszero\n        /* \"contracts/token/OUSD.sol\":6749:6803  require(_to != address(0), \"Transfer to zero address\") */\n      tag_197\n      jumpi\n      mload(0x40)\n      0x08c379a000000000000000000000000000000000000000000000000000000000\n      dup2\n      mstore\n      0x04\n      add\n      tag_198\n      swap1\n      tag_199\n      jump\t// in\n    tag_198:\n      mload(0x40)\n      dup1\n      swap2\n      sub\n      swap1\n      revert\n    tag_197:\n        /* \"contracts/token/OUSD.sol\":6832:6848  balanceOf(_from) */\n      tag_200\n        /* \"contracts/token/OUSD.sol\":6842:6847  _from */\n      dup5\n        /* \"contracts/token/OUSD.sol\":6832:6841  balanceOf */\n      tag_111\n        /* \"contracts/token/OUSD.sol\":6832:6848  balanceOf(_from) */\n      jump\t// in\n    tag_200:\n        /* \"contracts/token/OUSD.sol\":6822:6828  _value */\n      dup3\n        /* \"contracts/token/OUSD.sol\":6822:6848  _value <= balanceOf(_from) */\n      gt\n      iszero\n        /* \"contracts/token/OUSD.sol\":6814:6882  require(_value <= balanceOf(_from), \"Transfer greater than balance\") */\n      tag_201\n      jumpi\n      mload(0x40)\n      0x08c379a000000000000000000000000000000000000000000000000000000000\n      dup2\n      mstore\n      0x04\n      add\n      tag_202\n      swap1\n      tag_203\n      jump\t// in\n    tag_202:\n      mload(0x40)\n      dup1\n      swap2\n      sub\n      swap1\n      revert\n    tag_201:\n        /* \"contracts/token/OUSD.sol\":6928:6994  _allowances[_from][msg.sender].sub(\r... */\n      tag_204\n        /* \"contracts/token/OUSD.sol\":6977:6983  _value */\n      dup3\n        /* \"contracts/token/OUSD.sol\":6928:6939  _allowances */\n      0x9b\n        /* \"contracts/token/OUSD.sol\":6928:6946  _allowances[_from] */\n      0x00\n        /* \"contracts/token/OUSD.sol\":6940:6945  _from */\n      dup8\n        /* \"contracts/token/OUSD.sol\":6928:6946  _allowances[_from] */\n      0xffffffffffffffffffffffffffffffffffffffff\n      and\n      0xffffffffffffffffffffffffffffffffffffffff\n      and\n      dup2\n      mstore\n      0x20\n      add\n      swap1\n      dup2\n      mstore\n      0x20\n      add\n      0x00\n      keccak256\n        /* \"contracts/token/OUSD.sol\":6928:6958  _allowances[_from][msg.sender] */\n      0x00\n        /* \"contracts/token/OUSD.sol\":6947:6957  msg.sender */\n      caller\n        /* \"contracts/token/OUSD.sol\":6928:6958  _allowances[_from][msg.sender] */\n      0xffffffffffffffffffffffffffffffffffffffff\n      and\n      0xffffffffffffffffffffffffffffffffffffffff\n      and\n      dup2\n      mstore\n      0x20\n      add\n      swap1\n      dup2\n      mstore\n      0x20\n      add\n      0x00\n      keccak256\n      sload\n        /* \"contracts/token/OUSD.sol\":6928:6962  _allowances[_from][msg.sender].sub */\n      tag_205\n      swap1\n        /* \"contracts/token/OUSD.sol\":6928:6994  _allowances[_from][msg.sender].sub(\r... */\n      swap2\n      swap1\n      0xffffffff\n      and\n      jump\t// in\n    tag_204:\n        /* \"contracts/token/OUSD.sol\":6895:6906  _allowances */\n      0x9b\n        /* \"contracts/token/OUSD.sol\":6895:6913  _allowances[_from] */\n      0x00\n        /* \"contracts/token/OUSD.sol\":6907:6912  _from */\n      dup7\n        /* \"contracts/token/OUSD.sol\":6895:6913  _allowances[_from] */\n      0xffffffffffffffffffffffffffffffffffffffff\n      and\n      0xffffffffffffffffffffffffffffffffffffffff\n      and\n      dup2\n      mstore\n      0x20\n      add\n      swap1\n      dup2\n      mstore\n      0x20\n      add\n      0x00\n      keccak256\n        /* \"contracts/token/OUSD.sol\":6895:6925  _allowances[_from][msg.sender] */\n      0x00\n        /* \"contracts/token/OUSD.sol\":6914:6924  msg.sender */\n      caller\n        /* \"contracts/token/OUSD.sol\":6895:6925  _allowances[_from][msg.sender] */\n      0xffffffffffffffffffffffffffffffffffffffff\n      and\n      0xffffffffffffffffffffffffffffffffffffffff\n      and\n      dup2\n      mstore\n      0x20\n      add\n      swap1\n      dup2\n      mstore\n      0x20\n      add\n      0x00\n      keccak256\n        /* \"contracts/token/OUSD.sol\":6895:6994  _allowances[_from][msg.sender] = _allowances[_from][msg.sender].sub(\r... */\n      dup2\n      swap1\n      sstore\n      pop\n        /* \"contracts/token/OUSD.sol\":7007:7043  _executeTransfer(_from, _to, _value) */\n      tag_206\n        /* \"contracts/token/OUSD.sol\":7024:7029  _from */\n      dup5\n        /* \"contracts/token/OUSD.sol\":7031:7034  _to */\n      dup5\n        /* \"contracts/token/OUSD.sol\":7036:7042  _value */\n      dup5\n        /* \"contracts/token/OUSD.sol\":7007:7023  _executeTransfer */\n      tag_207\n        /* \"contracts/token/OUSD.sol\":7007:7043  _executeTransfer(_from, _to, _value) */\n      jump\t// in\n    tag_206:\n        /* \"contracts/token/OUSD.sol\":7077:7080  _to */\n      dup3\n        /* \"contracts/token/OUSD.sol\":7061:7089  Transfer(_from, _to, _value) */\n      0xffffffffffffffffffffffffffffffffffffffff\n      and\n        /* \"contracts/token/OUSD.sol\":7070:7075  _from */\n      dup5\n        /* \"contracts/token/OUSD.sol\":7061:7089  Transfer(_from, _to, _value) */\n      0xffffffffffffffffffffffffffffffffffffffff\n      and\n      0xddf252ad1be2c89b69c2b068fc378daa952ba7f163c4a11628f55a4df523b3ef\n        /* \"contracts/token/OUSD.sol\":7082:7088  _value */\n      dup5\n        /* \"contracts/token/OUSD.sol\":7061:7089  Transfer(_from, _to, _value) */\n      mload(0x40)\n      tag_208\n      swap2\n      swap1\n      tag_54\n      jump\t// in\n    tag_208:\n      mload(0x40)\n      dup1\n      swap2\n      sub\n      swap1\n      log3\n        /* \"contracts/token/OUSD.sol\":7109:7113  true */\n      0x01\n        /* \"contracts/token/OUSD.sol\":7102:7113  return true */\n      swap1\n      pop\n        /* \"contracts/token/OUSD.sol\":6607:7121  function transferFrom(\r... */\n      swap4\n      swap3\n      pop\n      pop\n      pop\n      jump\t// out\n        /* \"contracts/utils/InitializableERC20Detailed.sol\":1946:2029  function decimals() public view returns (uint8) {\r... */\n    tag_74:\n        /* \"contracts/utils/InitializableERC20Detailed.sol\":1987:1992  uint8 */\n      0x00\n        /* \"contracts/utils/InitializableERC20Detailed.sol\":2012:2021  _decimals */\n      0x99\n      0x00\n      swap1\n      sload\n      swap1\n      0x0100\n      exp\n      swap1\n      div\n      0xff\n      and\n        /* \"contracts/utils/InitializableERC20Detailed.sol\":2005:2021  return _decimals */\n      swap1\n      pop\n        /* \"contracts/utils/InitializableERC20Detailed.sol\":1946:2029  function decimals() public view returns (uint8) {\r... */\n      swap1\n      jump\t// out\n        /* \"contracts/token/OUSD.sol\":10841:11174  function increaseAllowance(address _spender, uint256 _addedValue)\r... */\n    tag_79:\n        /* \"contracts/token/OUSD.sol\":10941:10945  bool */\n      0x00\n        /* \"contracts/token/OUSD.sol\":10999:11063  _allowances[msg.sender][_spender]\r... */\n      tag_211\n        /* \"contracts/token/OUSD.sol\":11051:11062  _addedValue */\n      dup3\n        /* \"contracts/token/OUSD.sol\":10999:11010  _allowances */\n      0x9b\n        /* \"contracts/token/OUSD.sol\":10999:11022  _allowances[msg.sender] */\n      0x00\n        /* \"contracts/token/OUSD.sol\":11011:11021  msg.sender */\n      caller\n        /* \"contracts/token/OUSD.sol\":10999:11022  _allowances[msg.sender] */\n      0xffffffffffffffffffffffffffffffffffffffff\n      and\n      0xffffffffffffffffffffffffffffffffffffffff\n      and\n      dup2\n      mstore\n      0x20\n      add\n      swap1\n      dup2\n      mstore\n      0x20\n      add\n      0x00\n      keccak256\n        /* \"contracts/token/OUSD.sol\":10999:11032  _allowances[msg.sender][_spender] */\n      0x00\n        /* \"contracts/token/OUSD.sol\":11023:11031  _spender */\n      dup7\n        /* \"contracts/token/OUSD.sol\":10999:11032  _allowances[msg.sender][_spender] */\n      0xffffffffffffffffffffffffffffffffffffffff\n      and\n      0xffffffffffffffffffffffffffffffffffffffff\n      and\n      dup2\n      mstore\n      0x20\n      add\n      swap1\n      dup2\n      mstore\n      0x20\n      add\n      0x00\n      keccak256\n      sload\n        /* \"contracts/token/OUSD.sol\":10999:11050  _allowances[msg.sender][_spender]\r... */\n      tag_212\n      swap1\n        /* \"contracts/token/OUSD.sol\":10999:11063  _allowances[msg.sender][_spender]\r... */\n      swap2\n      swap1\n      0xffffffff\n      and\n      jump\t// in\n    tag_211:\n        /* \"contracts/token/OUSD.sol\":10963:10974  _allowances */\n      0x9b\n        /* \"contracts/token/OUSD.sol\":10963:10986  _allowances[msg.sender] */\n      0x00\n        /* \"contracts/token/OUSD.sol\":10975:10985  msg.sender */\n      caller\n        /* \"contracts/token/OUSD.sol\":10963:10986  _allowances[msg.sender] */\n      0xffffffffffffffffffffffffffffffffffffffff\n      and\n      0xffffffffffffffffffffffffffffffffffffffff\n      and\n      dup2\n      mstore\n      0x20\n      add\n      swap1\n      dup2\n      mstore\n      0x20\n      add\n      0x00\n      keccak256\n        /* \"contracts/token/OUSD.sol\":10963:10996  _allowances[msg.sender][_spender] */\n      0x00\n        /* \"contracts/token/OUSD.sol\":10987:10995  _spender */\n      dup6\n        /* \"contracts/token/OUSD.sol\":10963:10996  _allowances[msg.sender][_spender] */\n      0xffffffffffffffffffffffffffffffffffffffff\n      and\n      0xffffffffffffffffffffffffffffffffffffffff\n      and\n      dup2\n      mstore\n      0x20\n      add\n      swap1\n      dup2\n      mstore\n      0x20\n      add\n      0x00\n      keccak256\n        /* \"contracts/token/OUSD.sol\":10963:11063  _allowances[msg.sender][_spender] = _allowances[msg.sender][_spender]\r... */\n      dup2\n      swap1\n      sstore\n      pop\n        /* \"contracts/token/OUSD.sol\":11100:11108  _spender */\n      dup3\n        /* \"contracts/token/OUSD.sol\":11079:11144  Approval(msg.sender, _spender, _allowances[msg.sender][_spender]) */\n      0xffffffffffffffffffffffffffffffffffffffff\n      and\n        /* \"contracts/token/OUSD.sol\":11088:11098  msg.sender */\n      caller\n        /* \"contracts/token/OUSD.sol\":11079:11144  Approval(msg.sender, _spender, _allowances[msg.sender][_spender]) */\n      0xffffffffffffffffffffffffffffffffffffffff\n      and\n      0x8c5be1e5ebec7d5bd14f71427d1e84f3dd0314c0f7b2291e5b200ac8c7c3b925\n        /* \"contracts/token/OUSD.sol\":11110:11121  _allowances */\n      0x9b\n        /* \"contracts/token/OUSD.sol\":11110:11133  _allowances[msg.sender] */\n      0x00\n        /* \"contracts/token/OUSD.sol\":11122:11132  msg.sender */\n      caller\n        /* \"contracts/token/OUSD.sol\":11110:11133  _allowances[msg.sender] */\n      0xffffffffffffffffffffffffffffffffffffffff\n      and\n      0xffffffffffffffffffffffffffffffffffffffff\n      and\n      dup2\n      mstore\n      0x20\n      add\n      swap1\n      dup2\n      mstore\n      0x20\n      add\n      0x00\n      keccak256\n        /* \"contracts/token/OUSD.sol\":11110:11143  _allowances[msg.sender][_spender] */\n      0x00\n        /* \"contracts/token/OUSD.sol\":11134:11142  _spender */\n      dup8\n        /* \"contracts/token/OUSD.sol\":11110:11143  _allowances[msg.sender][_spender] */\n      0xffffffffffffffffffffffffffffffffffffffff\n      and\n      0xffffffffffffffffffffffffffffffffffffffff\n      and\n      dup2\n      mstore\n      0x20\n      add\n      swap1\n      dup2\n      mstore\n      0x20\n      add\n      0x00\n      keccak256\n      sload\n        /* \"contracts/token/OUSD.sol\":11079:11144  Approval(msg.sender, _spender, _allowances[msg.sender][_spender]) */\n      mload(0x40)\n      tag_213\n      swap2\n      swap1\n      tag_54\n      jump\t// in\n    tag_213:\n      mload(0x40)\n      dup1\n      swap2\n      sub\n      swap1\n      log3\n        /* \"contracts/token/OUSD.sol\":11162:11166  true */\n      0x01\n        /* \"contracts/token/OUSD.sol\":11155:11166  return true */\n      swap1\n      pop\n        /* \"contracts/token/OUSD.sol\":10841:11174  function increaseAllowance(address _spender, uint256 _addedValue)\r... */\n      swap3\n      swap2\n      pop\n      pop\n      jump\t// out\n        /* \"contracts/token/OUSD.sol\":19487:20527  function changeSupply(uint256 _newTotalSupply)\r... */\n    tag_84:\n        /* \"contracts/token/OUSD.sol\":2510:2520  msg.sender */\n      caller\n        /* \"contracts/token/OUSD.sol\":2494:2520  vaultAddress == msg.sender */\n      0xffffffffffffffffffffffffffffffffffffffff\n      and\n        /* \"contracts/token/OUSD.sol\":2494:2506  vaultAddress */\n      0x9c\n      0x00\n      swap1\n      sload\n      swap1\n      0x0100\n      exp\n      swap1\n      div\n      0xffffffffffffffffffffffffffffffffffffffff\n      and\n        /* \"contracts/token/OUSD.sol\":2494:2520  vaultAddress == msg.sender */\n      0xffffffffffffffffffffffffffffffffffffffff\n      and\n      eq\n        /* \"contracts/token/OUSD.sol\":2486:2548  require(vaultAddress == msg.sender, \"Caller is not the Vault\") */\n      tag_215\n      jumpi\n      mload(0x40)\n      0x08c379a000000000000000000000000000000000000000000000000000000000\n      dup2\n      mstore\n      0x04\n      add\n      tag_216\n      swap1\n      tag_217\n      jump\t// in\n    tag_216:\n      mload(0x40)\n      dup1\n      swap2\n      sub\n      swap1\n      revert\n    tag_215:\n        /* \"contracts/governance/Governable.sol\":3371:3387  bytes32 position */\n      0x00\n        /* \"contracts/governance/Governable.sol\":902:968  0x53bf423e48ed90e97d02ab0ebab13b2a235a6bfbe9c321847d5c175333ac4535 */\n      0x53bf423e48ed90e97d02ab0ebab13b2a235a6bfbe9c321847d5c175333ac4535\n        /* \"contracts/governance/Governable.sol\":3390:3411  reentryStatusPosition */\n      0x00\n      shl\n        /* \"contracts/governance/Governable.sol\":3371:3411  bytes32 position = reentryStatusPosition */\n      swap1\n      pop\n        /* \"contracts/governance/Governable.sol\":3422:3445  uint256 _reentry_status */\n      0x00\n        /* \"contracts/governance/Governable.sol\":3505:3513  position */\n      dup2\n        /* \"contracts/governance/Governable.sol\":3499:3514  sload(position) */\n      sload\n        /* \"contracts/governance/Governable.sol\":3480:3514  _reentry_status := sload(position) */\n      swap1\n      pop\n        /* \"contracts/governance/Governable.sol\":1101:1102  2 */\n      0x02\n        /* \"contracts/governance/Governable.sol\":3617:3632  _reentry_status */\n      dup2\n        /* \"contracts/governance/Governable.sol\":3617:3644  _reentry_status != _ENTERED */\n      eq\n      iszero\n        /* \"contracts/governance/Governable.sol\":3609:3663  require(_reentry_status != _ENTERED, \"Reentrant call\") */\n      tag_219\n      jumpi\n      mload(0x40)\n      0x08c379a000000000000000000000000000000000000000000000000000000000\n      dup2\n      mstore\n      0x04\n      add\n      tag_220\n      swap1\n      tag_221\n      jump\t// in\n    tag_220:\n      mload(0x40)\n      dup1\n      swap2\n      sub\n      swap1\n      revert\n    tag_219:\n        /* \"contracts/governance/Governable.sol\":3782:3790  _ENTERED */\n      0x02\n        /* \"contracts/governance/Governable.sol\":3772:3780  position */\n      dup3\n        /* \"contracts/governance/Governable.sol\":3765:3791  sstore(position, _ENTERED) */\n      sstore\n        /* \"contracts/token/OUSD.sol\":19632:19633  0 */\n      0x00\n        /* \"contracts/token/OUSD.sol\":19617:19629  _totalSupply */\n      sload(0x9a)\n        /* \"contracts/token/OUSD.sol\":19617:19633  _totalSupply > 0 */\n      gt\n        /* \"contracts/token/OUSD.sol\":19609:19662  require(_totalSupply > 0, \"Cannot increase 0 supply\") */\n      tag_223\n      jumpi\n      mload(0x40)\n      0x08c379a000000000000000000000000000000000000000000000000000000000\n      dup2\n      mstore\n      0x04\n      add\n      tag_224\n      swap1\n      tag_225\n      jump\t// in\n    tag_224:\n      mload(0x40)\n      dup1\n      swap2\n      sub\n      swap1\n      revert\n    tag_223:\n        /* \"contracts/token/OUSD.sol\":19695:19710  _newTotalSupply */\n      dup3\n        /* \"contracts/token/OUSD.sol\":19679:19691  _totalSupply */\n      sload(0x9a)\n        /* \"contracts/token/OUSD.sol\":19679:19710  _totalSupply == _newTotalSupply */\n      eq\n        /* \"contracts/token/OUSD.sol\":19675:19914  if (_totalSupply == _newTotalSupply) {\r... */\n      iszero\n      tag_226\n      jumpi\n        /* \"contracts/token/OUSD.sol\":19732:19881  TotalSupplyUpdatedHighres(\r... */\n      0x41645eb819d3011b13f97696a8109d14bfcddfaca7d063ec0564d62a3e257235\n        /* \"contracts/token/OUSD.sol\":19776:19788  _totalSupply */\n      sload(0x9a)\n        /* \"contracts/token/OUSD.sol\":19807:19823  _rebasingCredits */\n      sload(0x9e)\n        /* \"contracts/token/OUSD.sol\":19842:19866  _rebasingCreditsPerToken */\n      sload(0x9f)\n        /* \"contracts/token/OUSD.sol\":19732:19881  TotalSupplyUpdatedHighres(\r... */\n      mload(0x40)\n      tag_227\n      swap4\n      swap3\n      swap2\n      swap1\n      tag_228\n      jump\t// in\n    tag_227:\n      mload(0x40)\n      dup1\n      swap2\n      sub\n      swap1\n      log1\n        /* \"contracts/token/OUSD.sol\":19896:19903  return; */\n      jump(tag_222)\n        /* \"contracts/token/OUSD.sol\":19675:19914  if (_totalSupply == _newTotalSupply) {\r... */\n    tag_226:\n        /* \"contracts/token/OUSD.sol\":1295:1296  0 */\n      0x00\n        /* \"contracts/token/OUSD.sol\":1286:1297  ~uint128(0) */\n      not\n        /* \"contracts/token/OUSD.sol\":19959:19969  MAX_SUPPLY */\n      0xffffffffffffffffffffffffffffffff\n      and\n        /* \"contracts/token/OUSD.sol\":19941:19956  _newTotalSupply */\n      dup4\n        /* \"contracts/token/OUSD.sol\":19941:19969  _newTotalSupply > MAX_SUPPLY */\n      gt\n        /* \"contracts/token/OUSD.sol\":19941:20026  _newTotalSupply > MAX_SUPPLY\r... */\n      tag_229\n      jumpi\n        /* \"contracts/token/OUSD.sol\":20011:20026  _newTotalSupply */\n      dup3\n        /* \"contracts/token/OUSD.sol\":19941:20026  _newTotalSupply > MAX_SUPPLY\r... */\n      jump(tag_230)\n    tag_229:\n        /* \"contracts/token/OUSD.sol\":1295:1296  0 */\n      0x00\n        /* \"contracts/token/OUSD.sol\":1286:1297  ~uint128(0) */\n      not\n        /* \"contracts/token/OUSD.sol\":19985:19995  MAX_SUPPLY */\n      0xffffffffffffffffffffffffffffffff\n      and\n        /* \"contracts/token/OUSD.sol\":19941:20026  _newTotalSupply > MAX_SUPPLY\r... */\n    tag_230:\n        /* \"contracts/token/OUSD.sol\":19926:19938  _totalSupply */\n      0x9a\n        /* \"contracts/token/OUSD.sol\":19926:20026  _totalSupply = _newTotalSupply > MAX_SUPPLY\r... */\n      dup2\n      swap1\n      sstore\n      pop\n        /* \"contracts/token/OUSD.sol\":20066:20156  _rebasingCredits.divPrecisely(\r... */\n      tag_231\n        /* \"contracts/token/OUSD.sol\":20110:20145  _totalSupply.sub(nonRebasingSupply) */\n      tag_232\n        /* \"contracts/token/OUSD.sol\":20127:20144  nonRebasingSupply */\n      sload(0xa0)\n        /* \"contracts/token/OUSD.sol\":20110:20122  _totalSupply */\n      sload(0x9a)\n        /* \"contracts/token/OUSD.sol\":20110:20126  _totalSupply.sub */\n      tag_205\n      swap1\n        /* \"contracts/token/OUSD.sol\":20110:20145  _totalSupply.sub(nonRebasingSupply) */\n      swap2\n      swap1\n      0xffffffff\n      and\n      jump\t// in\n    tag_232:\n        /* \"contracts/token/OUSD.sol\":20066:20082  _rebasingCredits */\n      sload(0x9e)\n        /* \"contracts/token/OUSD.sol\":20066:20095  _rebasingCredits.divPrecisely */\n      tag_233\n      swap1\n        /* \"contracts/token/OUSD.sol\":20066:20156  _rebasingCredits.divPrecisely(\r... */\n      swap2\n      swap1\n      0xffffffff\n      and\n      jump\t// in\n    tag_231:\n        /* \"contracts/token/OUSD.sol\":20039:20063  _rebasingCreditsPerToken */\n      0x9f\n        /* \"contracts/token/OUSD.sol\":20039:20156  _rebasingCreditsPerToken = _rebasingCredits.divPrecisely(\r... */\n      dup2\n      swap1\n      sstore\n      pop\n        /* \"contracts/token/OUSD.sol\":20204:20205  0 */\n      0x00\n        /* \"contracts/token/OUSD.sol\":20177:20201  _rebasingCreditsPerToken */\n      sload(0x9f)\n        /* \"contracts/token/OUSD.sol\":20177:20205  _rebasingCreditsPerToken > 0 */\n      gt\n        /* \"contracts/token/OUSD.sol\":20169:20234  require(_rebasingCreditsPerToken > 0, \"Invalid change in supply\") */\n      tag_234\n      jumpi\n      mload(0x40)\n      0x08c379a000000000000000000000000000000000000000000000000000000000\n      dup2\n      mstore\n      0x04\n      add\n      tag_235\n      swap1\n      tag_236\n      jump\t// in\n    tag_235:\n      mload(0x40)\n      dup1\n      swap2\n      sub\n      swap1\n      revert\n    tag_234:\n        /* \"contracts/token/OUSD.sol\":20262:20368  _rebasingCredits\r... */\n      tag_237\n        /* \"contracts/token/OUSD.sol\":20350:20367  nonRebasingSupply */\n      sload(0xa0)\n        /* \"contracts/token/OUSD.sol\":20262:20331  _rebasingCredits\r... */\n      tag_238\n        /* \"contracts/token/OUSD.sol\":20306:20330  _rebasingCreditsPerToken */\n      sload(0x9f)\n        /* \"contracts/token/OUSD.sol\":20262:20278  _rebasingCredits */\n      sload(0x9e)\n        /* \"contracts/token/OUSD.sol\":20262:20305  _rebasingCredits\r... */\n      tag_233\n      swap1\n        /* \"contracts/token/OUSD.sol\":20262:20331  _rebasingCredits\r... */\n      swap2\n      swap1\n      0xffffffff\n      and\n      jump\t// in\n    tag_238:\n        /* \"contracts/token/OUSD.sol\":20262:20349  _rebasingCredits\r... */\n      tag_212\n      swap1\n        /* \"contracts/token/OUSD.sol\":20262:20368  _rebasingCredits\r... */\n      swap2\n      swap1\n      0xffffffff\n      and\n      jump\t// in\n    tag_237:\n        /* \"contracts/token/OUSD.sol\":20247:20259  _totalSupply */\n      0x9a\n        /* \"contracts/token/OUSD.sol\":20247:20368  _totalSupply = _rebasingCredits\r... */\n      dup2\n      swap1\n      sstore\n      pop\n        /* \"contracts/token/OUSD.sol\":20386:20519  TotalSupplyUpdatedHighres(\r... */\n      0x41645eb819d3011b13f97696a8109d14bfcddfaca7d063ec0564d62a3e257235\n        /* \"contracts/token/OUSD.sol\":20426:20438  _totalSupply */\n      sload(0x9a)\n        /* \"contracts/token/OUSD.sol\":20453:20469  _rebasingCredits */\n      sload(0x9e)\n        /* \"contracts/token/OUSD.sol\":20484:20508  _rebasingCreditsPerToken */\n      sload(0x9f)\n        /* \"contracts/token/OUSD.sol\":20386:20519  TotalSupplyUpdatedHighres(\r... */\n      mload(0x40)\n      tag_239\n      swap4\n      swap3\n      swap2\n      swap1\n      tag_228\n      jump\t// in\n    tag_239:\n      mload(0x40)\n      dup1\n      swap2\n      sub\n      swap1\n      log1\n        /* \"contracts/governance/Governable.sol\":3814:3815  _ */\n    tag_222:\n        /* \"contracts/governance/Governable.sol\":4003:4015  _NOT_ENTERED */\n      0x01\n        /* \"contracts/governance/Governable.sol\":3993:4001  position */\n      dup3\n        /* \"contracts/governance/Governable.sol\":3986:4016  sstore(position, _NOT_ENTERED) */\n      sstore\n        /* \"contracts/governance/Governable.sol\":3971:4027  {\r... */\n      pop\n      pop\n        /* \"contracts/token/OUSD.sol\":19487:20527  function changeSupply(uint256 _newTotalSupply)\r... */\n      pop\n      jump\t// out\n        /* \"contracts/token/OUSD.sol\":1319:1346  uint256 public _totalSupply */\n    tag_86:\n      sload(0x9a)\n      dup2\n      jump\t// out\n        /* \"contracts/token/OUSD.sol\":12037:12148  function mint(address _account, uint256 _amount) external onlyVault {\r... */\n    tag_90:\n        /* \"contracts/token/OUSD.sol\":2510:2520  msg.sender */\n      caller\n        /* \"contracts/token/OUSD.sol\":2494:2520  vaultAddress == msg.sender */\n      0xffffffffffffffffffffffffffffffffffffffff\n      and\n        /* \"contracts/token/OUSD.sol\":2494:2506  vaultAddress */\n      0x9c\n      0x00\n      swap1\n      sload\n      swap1\n      0x0100\n      exp\n      swap1\n      div\n      0xffffffffffffffffffffffffffffffffffffffff\n      and\n        /* \"contracts/token/OUSD.sol\":2494:2520  vaultAddress == msg.sender */\n      0xffffffffffffffffffffffffffffffffffffffff\n      and\n      eq\n        /* \"contracts/token/OUSD.sol\":2486:2548  require(vaultAddress == msg.sender, \"Caller is not the Vault\") */\n      tag_241\n      jumpi\n      mload(0x40)\n      0x08c379a000000000000000000000000000000000000000000000000000000000\n      dup2\n      mstore\n      0x04\n      add\n      tag_242\n      swap1\n      tag_217\n      jump\t// in\n    tag_242:\n      mload(0x40)\n      dup1\n      swap2\n      sub\n      swap1\n      revert\n    tag_241:\n        /* \"contracts/token/OUSD.sol\":12116:12140  _mint(_account, _amount) */\n      tag_244\n        /* \"contracts/token/OUSD.sol\":12122:12130  _account */\n      dup3\n        /* \"contracts/token/OUSD.sol\":12132:12139  _amount */\n      dup3\n        /* \"contracts/token/OUSD.sol\":12116:12121  _mint */\n      tag_245\n        /* \"contracts/token/OUSD.sol\":12116:12140  _mint(_account, _amount) */\n      jump\t// in\n    tag_244:\n        /* \"contracts/token/OUSD.sol\":12037:12148  function mint(address _account, uint256 _amount) external onlyVault {\r... */\n      pop\n      pop\n      jump\t// out\n        /* \"contracts/token/OUSD.sol\":1427:1467  address public vaultAddress = address(0) */\n    tag_92:\n      0x9c\n      0x00\n      swap1\n      sload\n      swap1\n      0x0100\n      exp\n      swap1\n      div\n      0xffffffffffffffffffffffffffffffffffffffff\n      and\n      dup2\n      jump\t// out\n        /* \"contracts/token/OUSD.sol\":1867:1919  mapping(address => RebaseOptions) public rebaseState */\n    tag_97:\n      mstore(0x20, 0xa2)\n      dup1\n      0x00\n      mstore\n      keccak256(0x00, 0x40)\n      0x00\n      swap2\n      pop\n      sload\n      swap1\n      0x0100\n      exp\n      swap1\n      div\n      0xff\n      and\n      dup2\n      jump\t// out\n        /* \"contracts/governance/Governable.sol\":4839:5062  function claimGovernance() external {\r... */\n    tag_101:\n        /* \"contracts/governance/Governable.sol\":4922:4940  _pendingGovernor() */\n      tag_247\n        /* \"contracts/governance/Governable.sol\":4922:4938  _pendingGovernor */\n      tag_248\n        /* \"contracts/governance/Governable.sol\":4922:4940  _pendingGovernor() */\n      jump\t// in\n    tag_247:\n        /* \"contracts/governance/Governable.sol\":4908:4940  msg.sender == _pendingGovernor() */\n      0xffffffffffffffffffffffffffffffffffffffff\n      and\n        /* \"contracts/governance/Governable.sol\":4908:4918  msg.sender */\n      caller\n        /* \"contracts/governance/Governable.sol\":4908:4940  msg.sender == _pendingGovernor() */\n      0xffffffffffffffffffffffffffffffffffffffff\n      and\n      eq\n        /* \"contracts/governance/Governable.sol\":4886:5016  require(\r... */\n      tag_249\n      jumpi\n      mload(0x40)\n      0x08c379a000000000000000000000000000000000000000000000000000000000\n      dup2\n      mstore\n      0x04\n      add\n      tag_250\n      swap1\n      tag_251\n      jump\t// in\n    tag_250:\n      mload(0x40)\n      dup1\n      swap2\n      sub\n      swap1\n      revert\n    tag_249:\n        /* \"contracts/governance/Governable.sol\":5027:5054  _changeGovernor(msg.sender) */\n      tag_252\n        /* \"contracts/governance/Governable.sol\":5043:5053  msg.sender */\n      caller\n        /* \"contracts/governance/Governable.sol\":5027:5042  _changeGovernor */\n      tag_253\n        /* \"contracts/governance/Governable.sol\":5027:5054  _changeGovernor(msg.sender) */\n      jump\t// in\n    tag_252:\n        /* \"contracts/governance/Governable.sol\":4839:5062  function claimGovernance() external {\r... */\n      jump\t// out\n        /* \"contracts/token/OUSD.sol\":1799:1860  mapping(address => uint256) public nonRebasingCreditsPerToken */\n    tag_104:\n      mstore(0x20, 0xa1)\n      dup1\n      0x00\n      mstore\n      keccak256(0x00, 0x40)\n      0x00\n      swap2\n      pop\n      swap1\n      pop\n      sload\n      dup2\n      jump\t// out\n        /* \"contracts/token/OUSD.sol\":2817:2954  function rebasingCreditsPerToken() public view returns (uint256) {\r... */\n    tag_107:\n        /* \"contracts/token/OUSD.sol\":2873:2880  uint256 */\n      0x00\n        /* \"contracts/token/OUSD.sol\":2027:2030  1e9 */\n      0x3b9aca00\n        /* \"contracts/token/OUSD.sol\":2900:2924  _rebasingCreditsPerToken */\n      sload(0x9f)\n        /* \"contracts/token/OUSD.sol\":2900:2946  _rebasingCreditsPerToken / RESOLUTION_INCREASE */\n      tag_255\n      swap2\n      swap1\n      tag_189\n      jump\t// in\n    tag_255:\n        /* \"contracts/token/OUSD.sol\":2893:2946  return _rebasingCreditsPerToken / RESOLUTION_INCREASE */\n      swap1\n      pop\n        /* \"contracts/token/OUSD.sol\":2817:2954  function rebasingCreditsPerToken() public view returns (uint256) {\r... */\n      swap1\n      jump\t// out\n        /* \"contracts/token/OUSD.sol\":3817:4094  function balanceOf(address _account)\r... */\n    tag_111:\n        /* \"contracts/token/OUSD.sol\":3920:3927  uint256 */\n      0x00\n        /* \"contracts/token/OUSD.sol\":3978:3979  0 */\n      dup1\n        /* \"contracts/token/OUSD.sol\":3949:3964  _creditBalances */\n      0x9d\n        /* \"contracts/token/OUSD.sol\":3949:3974  _creditBalances[_account] */\n      0x00\n        /* \"contracts/token/OUSD.sol\":3965:3973  _account */\n      dup5\n        /* \"contracts/token/OUSD.sol\":3949:3974  _creditBalances[_account] */\n      0xffffffffffffffffffffffffffffffffffffffff\n      and\n      0xffffffffffffffffffffffffffffffffffffffff\n      and\n      dup2\n      mstore\n      0x20\n      add\n      swap1\n      dup2\n      mstore\n      0x20\n      add\n      0x00\n      keccak256\n      sload\n        /* \"contracts/token/OUSD.sol\":3949:3979  _creditBalances[_account] == 0 */\n      eq\n        /* \"contracts/token/OUSD.sol\":3945:3989  if (_creditBalances[_account] == 0) return 0 */\n      iszero\n      tag_257\n      jumpi\n        /* \"contracts/token/OUSD.sol\":3988:3989  0 */\n      0x00\n        /* \"contracts/token/OUSD.sol\":3981:3989  return 0 */\n      swap1\n      pop\n      jump(tag_256)\n        /* \"contracts/token/OUSD.sol\":3945:3989  if (_creditBalances[_account] == 0) return 0 */\n    tag_257:\n        /* \"contracts/token/OUSD.sol\":4020:4086  _creditBalances[_account].divPrecisely(_creditsPerToken(_account)) */\n      tag_258\n        /* \"contracts/token/OUSD.sol\":4059:4085  _creditsPerToken(_account) */\n      tag_259\n        /* \"contracts/token/OUSD.sol\":4076:4084  _account */\n      dup4\n        /* \"contracts/token/OUSD.sol\":4059:4075  _creditsPerToken */\n      tag_260\n        /* \"contracts/token/OUSD.sol\":4059:4085  _creditsPerToken(_account) */\n      jump\t// in\n    tag_259:\n        /* \"contracts/token/OUSD.sol\":4020:4035  _creditBalances */\n      0x9d\n        /* \"contracts/token/OUSD.sol\":4020:4045  _creditBalances[_account] */\n      0x00\n        /* \"contracts/token/OUSD.sol\":4036:4044  _account */\n      dup6\n        /* \"contracts/token/OUSD.sol\":4020:4045  _creditBalances[_account] */\n      0xffffffffffffffffffffffffffffffffffffffff\n      and\n      0xffffffffffffffffffffffffffffffffffffffff\n      and\n      dup2\n      mstore\n      0x20\n      add\n      swap1\n      dup2\n      mstore\n      0x20\n      add\n      0x00\n      keccak256\n      sload\n        /* \"contracts/token/OUSD.sol\":4020:4058  _creditBalances[_account].divPrecisely */\n      tag_233\n      swap1\n        /* \"contracts/token/OUSD.sol\":4020:4086  _creditBalances[_account].divPrecisely(_creditsPerToken(_account)) */\n      swap2\n      swap1\n      0xffffffff\n      and\n      jump\t// in\n    tag_258:\n        /* \"contracts/token/OUSD.sol\":4000:4086  return\r... */\n      swap1\n      pop\n        /* \"contracts/token/OUSD.sol\":3817:4094  function balanceOf(address _account)\r... */\n    tag_256:\n      swap2\n      swap1\n      pop\n      jump\t// out\n        /* \"contracts/token/OUSD.sol\":3247:3369  function rebasingCreditsPerTokenHighres() public view returns (uint256) {\r... */\n    tag_114:\n        /* \"contracts/token/OUSD.sol\":3310:3317  uint256 */\n      0x00\n        /* \"contracts/token/OUSD.sol\":3337:3361  _rebasingCreditsPerToken */\n      sload(0x9f)\n        /* \"contracts/token/OUSD.sol\":3330:3361  return _rebasingCreditsPerToken */\n      swap1\n      pop\n        /* \"contracts/token/OUSD.sol\":3247:3369  function rebasingCreditsPerTokenHighres() public view returns (uint256) {\r... */\n      swap1\n      jump\t// out\n        /* \"contracts/token/OUSD.sol\":3460:3566  function rebasingCreditsHighres() public view returns (uint256) {\r... */\n    tag_117:\n        /* \"contracts/token/OUSD.sol\":3515:3522  uint256 */\n      0x00\n        /* \"contracts/token/OUSD.sol\":3542:3558  _rebasingCredits */\n      sload(0x9e)\n        /* \"contracts/token/OUSD.sol\":3535:3558  return _rebasingCredits */\n      swap1\n      pop\n        /* \"contracts/token/OUSD.sol\":3460:3566  function rebasingCreditsHighres() public view returns (uint256) {\r... */\n      swap1\n      jump\t// out\n        /* \"contracts/utils/InitializableERC20Detailed.sol\":1296:1383  function symbol() public view returns (string memory) {\r... */\n    tag_120:\n        /* \"contracts/utils/InitializableERC20Detailed.sol\":1335:1348  string memory */\n      0x60\n        /* \"contracts/utils/InitializableERC20Detailed.sol\":1368:1375  _symbol */\n      0x98\n        /* \"contracts/utils/InitializableERC20Detailed.sol\":1361:1375  return _symbol */\n      dup1\n      sload\n      tag_264\n      swap1\n      tag_167\n      jump\t// in\n    tag_264:\n      dup1\n      0x1f\n      add\n      0x20\n      dup1\n      swap2\n      div\n      mul\n      0x20\n      add\n      mload(0x40)\n      swap1\n      dup2\n      add\n      0x40\n      mstore\n      dup1\n      swap3\n      swap2\n      swap1\n      dup2\n      dup2\n      mstore\n      0x20\n      add\n      dup3\n      dup1\n      sload\n      tag_265\n      swap1\n      tag_167\n      jump\t// in\n    tag_265:\n      dup1\n      iszero\n      tag_266\n      jumpi\n      dup1\n      0x1f\n      lt\n      tag_267\n      jumpi\n      0x0100\n      dup1\n      dup4\n      sload\n      div\n      mul\n      dup4\n      mstore\n      swap2\n      0x20\n      add\n      swap2\n      jump(tag_266)\n    tag_267:\n      dup3\n      add\n      swap2\n      swap1\n      0x00\n      mstore\n      keccak256(0x00, 0x20)\n      swap1\n    tag_268:\n      dup2\n      sload\n      dup2\n      mstore\n      swap1\n      0x01\n      add\n      swap1\n      0x20\n      add\n      dup1\n      dup4\n      gt\n      tag_268\n      jumpi\n      dup3\n      swap1\n      sub\n      0x1f\n      and\n      dup3\n      add\n      swap2\n    tag_266:\n      pop\n      pop\n      pop\n      pop\n      pop\n      swap1\n      pop\n        /* \"contracts/utils/InitializableERC20Detailed.sol\":1296:1383  function symbol() public view returns (string memory) {\r... */\n      swap1\n      jump\t// out\n        /* \"contracts/token/OUSD.sol\":1926:1971  mapping(address => uint256) public isUpgraded */\n    tag_124:\n      mstore(0x20, 0xa3)\n      dup1\n      0x00\n      mstore\n      keccak256(0x00, 0x40)\n      0x00\n      swap2\n      pop\n      swap1\n      pop\n      sload\n      dup2\n      jump\t// out\n        /* \"contracts/token/OUSD.sol\":13423:13530  function burn(address account, uint256 amount) external onlyVault {\r... */\n    tag_128:\n        /* \"contracts/token/OUSD.sol\":2510:2520  msg.sender */\n      caller\n        /* \"contracts/token/OUSD.sol\":2494:2520  vaultAddress == msg.sender */\n      0xffffffffffffffffffffffffffffffffffffffff\n      and\n        /* \"contracts/token/OUSD.sol\":2494:2506  vaultAddress */\n      0x9c\n      0x00\n      swap1\n      sload\n      swap1\n      0x0100\n      exp\n      swap1\n      div\n      0xffffffffffffffffffffffffffffffffffffffff\n      and\n        /* \"contracts/token/OUSD.sol\":2494:2520  vaultAddress == msg.sender */\n      0xffffffffffffffffffffffffffffffffffffffff\n      and\n      eq\n        /* \"contracts/token/OUSD.sol\":2486:2548  require(vaultAddress == msg.sender, \"Caller is not the Vault\") */\n      tag_270\n      jumpi\n      mload(0x40)\n      0x08c379a000000000000000000000000000000000000000000000000000000000\n      dup2\n      mstore\n      0x04\n      add\n      tag_271\n      swap1\n      tag_217\n      jump\t// in\n    tag_271:\n      mload(0x40)\n      dup1\n      swap2\n      sub\n      swap1\n      revert\n    tag_270:\n        /* \"contracts/token/OUSD.sol\":13500:13522  _burn(account, amount) */\n      tag_273\n        /* \"contracts/token/OUSD.sol\":13506:13513  account */\n      dup3\n        /* \"contracts/token/OUSD.sol\":13515:13521  amount */\n      dup3\n        /* \"contracts/token/OUSD.sol\":13500:13505  _burn */\n      tag_274\n        /* \"contracts/token/OUSD.sol\":13500:13522  _burn(account, amount) */\n      jump\t// in\n    tag_273:\n        /* \"contracts/token/OUSD.sol\":13423:13530  function burn(address account, uint256 amount) external onlyVault {\r... */\n      pop\n      pop\n      jump\t// out\n        /* \"contracts/token/OUSD.sol\":11459:11956  function decreaseAllowance(address _spender, uint256 _subtractedValue)\r... */\n    tag_131:\n        /* \"contracts/token/OUSD.sol\":11564:11568  bool */\n      0x00\n        /* \"contracts/token/OUSD.sol\":11586:11602  uint256 oldValue */\n      dup1\n        /* \"contracts/token/OUSD.sol\":11605:11616  _allowances */\n      0x9b\n        /* \"contracts/token/OUSD.sol\":11605:11628  _allowances[msg.sender] */\n      0x00\n        /* \"contracts/token/OUSD.sol\":11617:11627  msg.sender */\n      caller\n        /* \"contracts/token/OUSD.sol\":11605:11628  _allowances[msg.sender] */\n      0xffffffffffffffffffffffffffffffffffffffff\n      and\n      0xffffffffffffffffffffffffffffffffffffffff\n      and\n      dup2\n      mstore\n      0x20\n      add\n      swap1\n      dup2\n      mstore\n      0x20\n      add\n      0x00\n      keccak256\n        /* \"contracts/token/OUSD.sol\":11605:11638  _allowances[msg.sender][_spender] */\n      0x00\n        /* \"contracts/token/OUSD.sol\":11629:11637  _spender */\n      dup6\n        /* \"contracts/token/OUSD.sol\":11605:11638  _allowances[msg.sender][_spender] */\n      0xffffffffffffffffffffffffffffffffffffffff\n      and\n      0xffffffffffffffffffffffffffffffffffffffff\n      and\n      dup2\n      mstore\n      0x20\n      add\n      swap1\n      dup2\n      mstore\n      0x20\n      add\n      0x00\n      keccak256\n      sload\n        /* \"contracts/token/OUSD.sol\":11586:11638  uint256 oldValue = _allowances[msg.sender][_spender] */\n      swap1\n      pop\n        /* \"contracts/token/OUSD.sol\":11673:11681  oldValue */\n      dup1\n        /* \"contracts/token/OUSD.sol\":11653:11669  _subtractedValue */\n      dup4\n        /* \"contracts/token/OUSD.sol\":11653:11681  _subtractedValue >= oldValue */\n      lt\n        /* \"contracts/token/OUSD.sol\":11649:11846  if (_subtractedValue >= oldValue) {\r... */\n      tag_276\n      jumpi\n        /* \"contracts/token/OUSD.sol\":11734:11735  0 */\n      0x00\n        /* \"contracts/token/OUSD.sol\":11698:11709  _allowances */\n      0x9b\n        /* \"contracts/token/OUSD.sol\":11698:11721  _allowances[msg.sender] */\n      0x00\n        /* \"contracts/token/OUSD.sol\":11710:11720  msg.sender */\n      caller\n        /* \"contracts/token/OUSD.sol\":11698:11721  _allowances[msg.sender] */\n      0xffffffffffffffffffffffffffffffffffffffff\n      and\n      0xffffffffffffffffffffffffffffffffffffffff\n      and\n      dup2\n      mstore\n      0x20\n      add\n      swap1\n      dup2\n      mstore\n      0x20\n      add\n      0x00\n      keccak256\n        /* \"contracts/token/OUSD.sol\":11698:11731  _allowances[msg.sender][_spender] */\n      0x00\n        /* \"contracts/token/OUSD.sol\":11722:11730  _spender */\n      dup7\n        /* \"contracts/token/OUSD.sol\":11698:11731  _allowances[msg.sender][_spender] */\n      0xffffffffffffffffffffffffffffffffffffffff\n      and\n      0xffffffffffffffffffffffffffffffffffffffff\n      and\n      dup2\n      mstore\n      0x20\n      add\n      swap1\n      dup2\n      mstore\n      0x20\n      add\n      0x00\n      keccak256\n        /* \"contracts/token/OUSD.sol\":11698:11735  _allowances[msg.sender][_spender] = 0 */\n      dup2\n      swap1\n      sstore\n      pop\n        /* \"contracts/token/OUSD.sol\":11649:11846  if (_subtractedValue >= oldValue) {\r... */\n      jump(tag_277)\n    tag_276:\n        /* \"contracts/token/OUSD.sol\":11804:11834  oldValue.sub(_subtractedValue) */\n      tag_278\n        /* \"contracts/token/OUSD.sol\":11817:11833  _subtractedValue */\n      dup4\n        /* \"contracts/token/OUSD.sol\":11804:11812  oldValue */\n      dup3\n        /* \"contracts/token/OUSD.sol\":11804:11816  oldValue.sub */\n      tag_205\n      swap1\n        /* \"contracts/token/OUSD.sol\":11804:11834  oldValue.sub(_subtractedValue) */\n      swap2\n      swap1\n      0xffffffff\n      and\n      jump\t// in\n    tag_278:\n        /* \"contracts/token/OUSD.sol\":11768:11779  _allowances */\n      0x9b\n        /* \"contracts/token/OUSD.sol\":11768:11791  _allowances[msg.sender] */\n      0x00\n        /* \"contracts/token/OUSD.sol\":11780:11790  msg.sender */\n      caller\n        /* \"contracts/token/OUSD.sol\":11768:11791  _allowances[msg.sender] */\n      0xffffffffffffffffffffffffffffffffffffffff\n      and\n      0xffffffffffffffffffffffffffffffffffffffff\n      and\n      dup2\n      mstore\n      0x20\n      add\n      swap1\n      dup2\n      mstore\n      0x20\n      add\n      0x00\n      keccak256\n        /* \"contracts/token/OUSD.sol\":11768:11801  _allowances[msg.sender][_spender] */\n      0x00\n        /* \"contracts/token/OUSD.sol\":11792:11800  _spender */\n      dup7\n        /* \"contracts/token/OUSD.sol\":11768:11801  _allowances[msg.sender][_spender] */\n      0xffffffffffffffffffffffffffffffffffffffff\n      and\n      0xffffffffffffffffffffffffffffffffffffffff\n      and\n      dup2\n      mstore\n      0x20\n      add\n      swap1\n      dup2\n      mstore\n      0x20\n      add\n      0x00\n      keccak256\n        /* \"contracts/token/OUSD.sol\":11768:11834  _allowances[msg.sender][_spender] = oldValue.sub(_subtractedValue) */\n      dup2\n      swap1\n      sstore\n      pop\n        /* \"contracts/token/OUSD.sol\":11649:11846  if (_subtractedValue >= oldValue) {\r... */\n    tag_277:\n        /* \"contracts/token/OUSD.sol\":11882:11890  _spender */\n      dup4\n        /* \"contracts/token/OUSD.sol\":11861:11926  Approval(msg.sender, _spender, _allowances[msg.sender][_spender]) */\n      0xffffffffffffffffffffffffffffffffffffffff\n      and\n        /* \"contracts/token/OUSD.sol\":11870:11880  msg.sender */\n      caller\n        /* \"contracts/token/OUSD.sol\":11861:11926  Approval(msg.sender, _spender, _allowances[msg.sender][_spender]) */\n      0xffffffffffffffffffffffffffffffffffffffff\n      and\n      0x8c5be1e5ebec7d5bd14f71427d1e84f3dd0314c0f7b2291e5b200ac8c7c3b925\n        /* \"contracts/token/OUSD.sol\":11892:11903  _allowances */\n      0x9b\n        /* \"contracts/token/OUSD.sol\":11892:11915  _allowances[msg.sender] */\n      0x00\n        /* \"contracts/token/OUSD.sol\":11904:11914  msg.sender */\n      caller\n        /* \"contracts/token/OUSD.sol\":11892:11915  _allowances[msg.sender] */\n      0xffffffffffffffffffffffffffffffffffffffff\n      and\n      0xffffffffffffffffffffffffffffffffffffffff\n      and\n      dup2\n      mstore\n      0x20\n      add\n      swap1\n      dup2\n      mstore\n      0x20\n      add\n      0x00\n      keccak256\n        /* \"contracts/token/OUSD.sol\":11892:11925  _allowances[msg.sender][_spender] */\n      0x00\n        /* \"contracts/token/OUSD.sol\":11916:11924  _spender */\n      dup9\n        /* \"contracts/token/OUSD.sol\":11892:11925  _allowances[msg.sender][_spender] */\n      0xffffffffffffffffffffffffffffffffffffffff\n      and\n      0xffffffffffffffffffffffffffffffffffffffff\n      and\n      dup2\n      mstore\n      0x20\n      add\n      swap1\n      dup2\n      mstore\n      0x20\n      add\n      0x00\n      keccak256\n      sload\n        /* \"contracts/token/OUSD.sol\":11861:11926  Approval(msg.sender, _spender, _allowances[msg.sender][_spender]) */\n      mload(0x40)\n      tag_279\n      swap2\n      swap1\n      tag_54\n      jump\t// in\n    tag_279:\n      mload(0x40)\n      dup1\n      swap2\n      sub\n      swap1\n      log3\n        /* \"contracts/token/OUSD.sol\":11944:11948  true */\n      0x01\n        /* \"contracts/token/OUSD.sol\":11937:11948  return true */\n      swap2\n      pop\n      pop\n        /* \"contracts/token/OUSD.sol\":11459:11956  function decreaseAllowance(address _spender, uint256 _subtractedValue)\r... */\n      swap3\n      swap2\n      pop\n      pop\n      jump\t// out\n        /* \"contracts/token/OUSD.sol\":5909:6342  function transfer(address _to, uint256 _value)\r... */\n    tag_135:\n        /* \"contracts/token/OUSD.sol\":6008:6012  bool */\n      0x00\n        /* \"contracts/token/OUSD.sol\":6053:6054  0 */\n      dup1\n        /* \"contracts/token/OUSD.sol\":6038:6055  _to != address(0) */\n      0xffffffffffffffffffffffffffffffffffffffff\n      and\n        /* \"contracts/token/OUSD.sol\":6038:6041  _to */\n      dup4\n        /* \"contracts/token/OUSD.sol\":6038:6055  _to != address(0) */\n      0xffffffffffffffffffffffffffffffffffffffff\n      and\n      eq\n      iszero\n        /* \"contracts/token/OUSD.sol\":6030:6084  require(_to != address(0), \"Transfer to zero address\") */\n      tag_281\n      jumpi\n      mload(0x40)\n      0x08c379a000000000000000000000000000000000000000000000000000000000\n      dup2\n      mstore\n      0x04\n      add\n      tag_282\n      swap1\n      tag_199\n      jump\t// in\n    tag_282:\n      mload(0x40)\n      dup1\n      swap2\n      sub\n      swap1\n      revert\n    tag_281:\n        /* \"contracts/token/OUSD.sol\":6127:6148  balanceOf(msg.sender) */\n      tag_283\n        /* \"contracts/token/OUSD.sol\":6137:6147  msg.sender */\n      caller\n        /* \"contracts/token/OUSD.sol\":6127:6136  balanceOf */\n      tag_111\n        /* \"contracts/token/OUSD.sol\":6127:6148  balanceOf(msg.sender) */\n      jump\t// in\n    tag_283:\n        /* \"contracts/token/OUSD.sol\":6117:6123  _value */\n      dup3\n        /* \"contracts/token/OUSD.sol\":6117:6148  _value <= balanceOf(msg.sender) */\n      gt\n      iszero\n        /* \"contracts/token/OUSD.sol\":6095:6205  require(\r... */\n      tag_284\n      jumpi\n      mload(0x40)\n      0x08c379a000000000000000000000000000000000000000000000000000000000\n      dup2\n      mstore\n      0x04\n      add\n      tag_285\n      swap1\n      tag_203\n      jump\t// in\n    tag_285:\n      mload(0x40)\n      dup1\n      swap2\n      sub\n      swap1\n      revert\n    tag_284:\n        /* \"contracts/token/OUSD.sol\":6218:6259  _executeTransfer(msg.sender, _to, _value) */\n      tag_286\n        /* \"contracts/token/OUSD.sol\":6235:6245  msg.sender */\n      caller\n        /* \"contracts/token/OUSD.sol\":6247:6250  _to */\n      dup5\n        /* \"contracts/token/OUSD.sol\":6252:6258  _value */\n      dup5\n        /* \"contracts/token/OUSD.sol\":6218:6234  _executeTransfer */\n      tag_207\n        /* \"contracts/token/OUSD.sol\":6218:6259  _executeTransfer(msg.sender, _to, _value) */\n      jump\t// in\n    tag_286:\n        /* \"contracts/token/OUSD.sol\":6298:6301  _to */\n      dup3\n        /* \"contracts/token/OUSD.sol\":6277:6310  Transfer(msg.sender, _to, _value) */\n      0xffffffffffffffffffffffffffffffffffffffff\n      and\n        /* \"contracts/token/OUSD.sol\":6286:6296  msg.sender */\n      caller\n        /* \"contracts/token/OUSD.sol\":6277:6310  Transfer(msg.sender, _to, _value) */\n      0xffffffffffffffffffffffffffffffffffffffff\n      and\n      0xddf252ad1be2c89b69c2b068fc378daa952ba7f163c4a11628f55a4df523b3ef\n        /* \"contracts/token/OUSD.sol\":6303:6309  _value */\n      dup5\n        /* \"contracts/token/OUSD.sol\":6277:6310  Transfer(msg.sender, _to, _value) */\n      mload(0x40)\n      tag_287\n      swap2\n      swap1\n      tag_54\n      jump\t// in\n    tag_287:\n      mload(0x40)\n      dup1\n      swap2\n      sub\n      swap1\n      log3\n        /* \"contracts/token/OUSD.sol\":6330:6334  true */\n      0x01\n        /* \"contracts/token/OUSD.sol\":6323:6334  return true */\n      swap1\n      pop\n        /* \"contracts/token/OUSD.sol\":5909:6342  function transfer(address _to, uint256 _value)\r... */\n      swap3\n      swap2\n      pop\n      pop\n      jump\t// out\n        /* \"contracts/token/OUSD.sol\":18571:19238  function rebaseOptOut() public nonReentrant {\r... */\n    tag_138:\n        /* \"contracts/governance/Governable.sol\":3371:3387  bytes32 position */\n      0x00\n        /* \"contracts/governance/Governable.sol\":902:968  0x53bf423e48ed90e97d02ab0ebab13b2a235a6bfbe9c321847d5c175333ac4535 */\n      0x53bf423e48ed90e97d02ab0ebab13b2a235a6bfbe9c321847d5c175333ac4535\n        /* \"contracts/governance/Governable.sol\":3390:3411  reentryStatusPosition */\n      0x00\n      shl\n        /* \"contracts/governance/Governable.sol\":3371:3411  bytes32 position = reentryStatusPosition */\n      swap1\n      pop\n        /* \"contracts/governance/Governable.sol\":3422:3445  uint256 _reentry_status */\n      0x00\n        /* \"contracts/governance/Governable.sol\":3505:3513  position */\n      dup2\n        /* \"contracts/governance/Governable.sol\":3499:3514  sload(position) */\n      sload\n        /* \"contracts/governance/Governable.sol\":3480:3514  _reentry_status := sload(position) */\n      swap1\n      pop\n        /* \"contracts/governance/Governable.sol\":1101:1102  2 */\n      0x02\n        /* \"contracts/governance/Governable.sol\":3617:3632  _reentry_status */\n      dup2\n        /* \"contracts/governance/Governable.sol\":3617:3644  _reentry_status != _ENTERED */\n      eq\n      iszero\n        /* \"contracts/governance/Governable.sol\":3609:3663  require(_reentry_status != _ENTERED, \"Reentrant call\") */\n      tag_289\n      jumpi\n      mload(0x40)\n      0x08c379a000000000000000000000000000000000000000000000000000000000\n      dup2\n      mstore\n      0x04\n      add\n      tag_290\n      swap1\n      tag_221\n      jump\t// in\n    tag_290:\n      mload(0x40)\n      dup1\n      swap2\n      sub\n      swap1\n      revert\n    tag_289:\n        /* \"contracts/governance/Governable.sol\":3782:3790  _ENTERED */\n      0x02\n        /* \"contracts/governance/Governable.sol\":3772:3780  position */\n      dup3\n        /* \"contracts/governance/Governable.sol\":3765:3791  sstore(position, _ENTERED) */\n      sstore\n        /* \"contracts/token/OUSD.sol\":18635:18668  _isNonRebasingAccount(msg.sender) */\n      tag_292\n        /* \"contracts/token/OUSD.sol\":18657:18667  msg.sender */\n      caller\n        /* \"contracts/token/OUSD.sol\":18635:18656  _isNonRebasingAccount */\n      tag_293\n        /* \"contracts/token/OUSD.sol\":18635:18668  _isNonRebasingAccount(msg.sender) */\n      jump\t// in\n    tag_292:\n        /* \"contracts/token/OUSD.sol\":18634:18668  !_isNonRebasingAccount(msg.sender) */\n      iszero\n        /* \"contracts/token/OUSD.sol\":18626:18697  require(!_isNonRebasingAccount(msg.sender), \"Account has not opted in\") */\n      tag_294\n      jumpi\n      mload(0x40)\n      0x08c379a000000000000000000000000000000000000000000000000000000000\n      dup2\n      mstore\n      0x04\n      add\n      tag_295\n      swap1\n      tag_296\n      jump\t// in\n    tag_295:\n      mload(0x40)\n      dup1\n      swap2\n      sub\n      swap1\n      revert\n    tag_294:\n        /* \"contracts/token/OUSD.sol\":18771:18815  nonRebasingSupply.add(balanceOf(msg.sender)) */\n      tag_297\n        /* \"contracts/token/OUSD.sol\":18793:18814  balanceOf(msg.sender) */\n      tag_298\n        /* \"contracts/token/OUSD.sol\":18803:18813  msg.sender */\n      caller\n        /* \"contracts/token/OUSD.sol\":18793:18802  balanceOf */\n      tag_111\n        /* \"contracts/token/OUSD.sol\":18793:18814  balanceOf(msg.sender) */\n      jump\t// in\n    tag_298:\n        /* \"contracts/token/OUSD.sol\":18771:18788  nonRebasingSupply */\n      sload(0xa0)\n        /* \"contracts/token/OUSD.sol\":18771:18792  nonRebasingSupply.add */\n      tag_212\n      swap1\n        /* \"contracts/token/OUSD.sol\":18771:18815  nonRebasingSupply.add(balanceOf(msg.sender)) */\n      swap2\n      swap1\n      0xffffffff\n      and\n      jump\t// in\n    tag_297:\n        /* \"contracts/token/OUSD.sol\":18751:18768  nonRebasingSupply */\n      0xa0\n        /* \"contracts/token/OUSD.sol\":18751:18815  nonRebasingSupply = nonRebasingSupply.add(balanceOf(msg.sender)) */\n      dup2\n      swap1\n      sstore\n      pop\n        /* \"contracts/token/OUSD.sol\":18907:18931  _rebasingCreditsPerToken */\n      sload(0x9f)\n        /* \"contracts/token/OUSD.sol\":18866:18892  nonRebasingCreditsPerToken */\n      0xa1\n        /* \"contracts/token/OUSD.sol\":18866:18904  nonRebasingCreditsPerToken[msg.sender] */\n      0x00\n        /* \"contracts/token/OUSD.sol\":18893:18903  msg.sender */\n      caller\n        /* \"contracts/token/OUSD.sol\":18866:18904  nonRebasingCreditsPerToken[msg.sender] */\n      0xffffffffffffffffffffffffffffffffffffffff\n      and\n      0xffffffffffffffffffffffffffffffffffffffff\n      and\n      dup2\n      mstore\n      0x20\n      add\n      swap1\n      dup2\n      mstore\n      0x20\n      add\n      0x00\n      keccak256\n        /* \"contracts/token/OUSD.sol\":18866:18931  nonRebasingCreditsPerToken[msg.sender] = _rebasingCreditsPerToken */\n      dup2\n      swap1\n      sstore\n      pop\n        /* \"contracts/token/OUSD.sol\":19072:19121  _rebasingCredits.sub(_creditBalances[msg.sender]) */\n      tag_299\n        /* \"contracts/token/OUSD.sol\":19093:19108  _creditBalances */\n      0x9d\n        /* \"contracts/token/OUSD.sol\":19093:19120  _creditBalances[msg.sender] */\n      0x00\n        /* \"contracts/token/OUSD.sol\":19109:19119  msg.sender */\n      caller\n        /* \"contracts/token/OUSD.sol\":19093:19120  _creditBalances[msg.sender] */\n      0xffffffffffffffffffffffffffffffffffffffff\n      and\n      0xffffffffffffffffffffffffffffffffffffffff\n      and\n      dup2\n      mstore\n      0x20\n      add\n      swap1\n      dup2\n      mstore\n      0x20\n      add\n      0x00\n      keccak256\n      sload\n        /* \"contracts/token/OUSD.sol\":19072:19088  _rebasingCredits */\n      sload(0x9e)\n        /* \"contracts/token/OUSD.sol\":19072:19092  _rebasingCredits.sub */\n      tag_205\n      swap1\n        /* \"contracts/token/OUSD.sol\":19072:19121  _rebasingCredits.sub(_creditBalances[msg.sender]) */\n      swap2\n      swap1\n      0xffffffff\n      and\n      jump\t// in\n    tag_299:\n        /* \"contracts/token/OUSD.sol\":19053:19069  _rebasingCredits */\n      0x9e\n        /* \"contracts/token/OUSD.sol\":19053:19121  _rebasingCredits = _rebasingCredits.sub(_creditBalances[msg.sender]) */\n      dup2\n      swap1\n      sstore\n      pop\n        /* \"contracts/token/OUSD.sol\":19210:19230  RebaseOptions.OptOut */\n      0x01\n        /* \"contracts/token/OUSD.sol\":19184:19195  rebaseState */\n      0xa2\n        /* \"contracts/token/OUSD.sol\":19184:19207  rebaseState[msg.sender] */\n      0x00\n        /* \"contracts/token/OUSD.sol\":19196:19206  msg.sender */\n      caller\n        /* \"contracts/token/OUSD.sol\":19184:19207  rebaseState[msg.sender] */\n      0xffffffffffffffffffffffffffffffffffffffff\n      and\n      0xffffffffffffffffffffffffffffffffffffffff\n      and\n      dup2\n      mstore\n      0x20\n      add\n      swap1\n      dup2\n      mstore\n      0x20\n      add\n      0x00\n      keccak256\n      0x00\n        /* \"contracts/token/OUSD.sol\":19184:19230  rebaseState[msg.sender] = RebaseOptions.OptOut */\n      0x0100\n      exp\n      dup2\n      sload\n      dup2\n      0xff\n      mul\n      not\n      and\n      swap1\n      dup4\n      0x02\n      dup2\n      gt\n      iszero\n      tag_300\n      jumpi\n      tag_301\n      tag_302\n      jump\t// in\n    tag_301:\n    tag_300:\n      mul\n      or\n      swap1\n      sstore\n      pop\n        /* \"contracts/governance/Governable.sol\":4003:4015  _NOT_ENTERED */\n      0x01\n        /* \"contracts/governance/Governable.sol\":3993:4001  position */\n      dup3\n        /* \"contracts/governance/Governable.sol\":3986:4016  sstore(position, _NOT_ENTERED) */\n      sstore\n        /* \"contracts/governance/Governable.sol\":3971:4027  {\r... */\n      pop\n      pop\n        /* \"contracts/token/OUSD.sol\":18571:19238  function rebaseOptOut() public nonReentrant {\r... */\n      jump\t// out\n        /* \"contracts/governance/Governable.sol\":2664:2764  function isGovernor() public view returns (bool) {\r... */\n    tag_140:\n        /* \"contracts/governance/Governable.sol\":2707:2711  bool */\n      0x00\n        /* \"contracts/governance/Governable.sol\":2745:2756  _governor() */\n      tag_304\n        /* \"contracts/governance/Governable.sol\":2745:2754  _governor */\n      tag_194\n        /* \"contracts/governance/Governable.sol\":2745:2756  _governor() */\n      jump\t// in\n    tag_304:\n        /* \"contracts/governance/Governable.sol\":2731:2756  msg.sender == _governor() */\n      0xffffffffffffffffffffffffffffffffffffffff\n      and\n        /* \"contracts/governance/Governable.sol\":2731:2741  msg.sender */\n      caller\n        /* \"contracts/governance/Governable.sol\":2731:2756  msg.sender == _governor() */\n      0xffffffffffffffffffffffffffffffffffffffff\n      and\n      eq\n        /* \"contracts/governance/Governable.sol\":2724:2756  return msg.sender == _governor() */\n      swap1\n      pop\n        /* \"contracts/governance/Governable.sol\":2664:2764  function isGovernor() public view returns (bool) {\r... */\n      swap1\n      jump\t// out\n        /* \"contracts/governance/Governable.sol\":4491:4685  function transferGovernance(address _newGovernor) external onlyGovernor {\r... */\n    tag_144:\n        /* \"contracts/governance/Governable.sol\":2510:2522  isGovernor() */\n      tag_306\n        /* \"contracts/governance/Governable.sol\":2510:2520  isGovernor */\n      tag_140\n        /* \"contracts/governance/Governable.sol\":2510:2522  isGovernor() */\n      jump\t// in\n    tag_306:\n        /* \"contracts/governance/Governable.sol\":2502:2553  require(isGovernor(), \"Caller is not the Governor\") */\n      tag_307\n      jumpi\n      mload(0x40)\n      0x08c379a000000000000000000000000000000000000000000000000000000000\n      dup2\n      mstore\n      0x04\n      add\n      tag_308\n      swap1\n      tag_176\n      jump\t// in\n    tag_308:\n      mload(0x40)\n      dup1\n      swap2\n      sub\n      swap1\n      revert\n    tag_307:\n        /* \"contracts/governance/Governable.sol\":4574:4607  _setPendingGovernor(_newGovernor) */\n      tag_310\n        /* \"contracts/governance/Governable.sol\":4594:4606  _newGovernor */\n      dup2\n        /* \"contracts/governance/Governable.sol\":4574:4593  _setPendingGovernor */\n      tag_311\n        /* \"contracts/governance/Governable.sol\":4574:4607  _setPendingGovernor(_newGovernor) */\n      jump\t// in\n    tag_310:\n        /* \"contracts/governance/Governable.sol\":4664:4676  _newGovernor */\n      dup1\n        /* \"contracts/governance/Governable.sol\":4623:4677  PendingGovernorshipTransfer(_governor(), _newGovernor) */\n      0xffffffffffffffffffffffffffffffffffffffff\n      and\n        /* \"contracts/governance/Governable.sol\":4651:4662  _governor() */\n      tag_312\n        /* \"contracts/governance/Governable.sol\":4651:4660  _governor */\n      tag_194\n        /* \"contracts/governance/Governable.sol\":4651:4662  _governor() */\n      jump\t// in\n    tag_312:\n        /* \"contracts/governance/Governable.sol\":4623:4677  PendingGovernorshipTransfer(_governor(), _newGovernor) */\n      0xffffffffffffffffffffffffffffffffffffffff\n      and\n      0xa39cc5eb22d0f34d8beaefee8a3f17cc229c1a1d1ef87a5ad47313487b1c4f0d\n      mload(0x40)\n      mload(0x40)\n      dup1\n      swap2\n      sub\n      swap1\n      log3\n        /* \"contracts/governance/Governable.sol\":4491:4685  function transferGovernance(address _newGovernor) external onlyGovernor {\r... */\n      pop\n      jump\t// out\n        /* \"contracts/token/OUSD.sol\":9304:9492  function allowance(address _owner, address _spender)\r... */\n    tag_148:\n        /* \"contracts/token/OUSD.sol\":9423:9430  uint256 */\n      0x00\n        /* \"contracts/token/OUSD.sol\":9455:9466  _allowances */\n      0x9b\n        /* \"contracts/token/OUSD.sol\":9455:9474  _allowances[_owner] */\n      0x00\n        /* \"contracts/token/OUSD.sol\":9467:9473  _owner */\n      dup5\n        /* \"contracts/token/OUSD.sol\":9455:9474  _allowances[_owner] */\n      0xffffffffffffffffffffffffffffffffffffffff\n      and\n      0xffffffffffffffffffffffffffffffffffffffff\n      and\n      dup2\n      mstore\n      0x20\n      add\n      swap1\n      dup2\n      mstore\n      0x20\n      add\n      0x00\n      keccak256\n        /* \"contracts/token/OUSD.sol\":9455:9484  _allowances[_owner][_spender] */\n      0x00\n        /* \"contracts/token/OUSD.sol\":9475:9483  _spender */\n      dup4\n        /* \"contracts/token/OUSD.sol\":9455:9484  _allowances[_owner][_spender] */\n      0xffffffffffffffffffffffffffffffffffffffff\n      and\n      0xffffffffffffffffffffffffffffffffffffffff\n      and\n      dup2\n      mstore\n      0x20\n      add\n      swap1\n      dup2\n      mstore\n      0x20\n      add\n      0x00\n      keccak256\n      sload\n        /* \"contracts/token/OUSD.sol\":9448:9484  return _allowances[_owner][_spender] */\n      swap1\n      pop\n        /* \"contracts/token/OUSD.sol\":9304:9492  function allowance(address _owner, address _spender)\r... */\n      swap3\n      swap2\n      pop\n      pop\n      jump\t// out\n        /* \"contracts/token/OUSD.sol\":5362:5698  function creditsBalanceOfHighres(address _account)\r... */\n    tag_152:\n        /* \"contracts/token/OUSD.sol\":5475:5482  uint256 */\n      0x00\n        /* \"contracts/token/OUSD.sol\":5497:5504  uint256 */\n      dup1\n        /* \"contracts/token/OUSD.sol\":5519:5523  bool */\n      0x00\n        /* \"contracts/token/OUSD.sol\":5573:5588  _creditBalances */\n      0x9d\n        /* \"contracts/token/OUSD.sol\":5573:5598  _creditBalances[_account] */\n      0x00\n        /* \"contracts/token/OUSD.sol\":5589:5597  _account */\n      dup6\n        /* \"contracts/token/OUSD.sol\":5573:5598  _creditBalances[_account] */\n      0xffffffffffffffffffffffffffffffffffffffff\n      and\n      0xffffffffffffffffffffffffffffffffffffffff\n      and\n      dup2\n      mstore\n      0x20\n      add\n      swap1\n      dup2\n      mstore\n      0x20\n      add\n      0x00\n      keccak256\n      sload\n        /* \"contracts/token/OUSD.sol\":5613:5639  _creditsPerToken(_account) */\n      tag_315\n        /* \"contracts/token/OUSD.sol\":5630:5638  _account */\n      dup6\n        /* \"contracts/token/OUSD.sol\":5613:5629  _creditsPerToken */\n      tag_260\n        /* \"contracts/token/OUSD.sol\":5613:5639  _creditsPerToken(_account) */\n      jump\t// in\n    tag_315:\n        /* \"contracts/token/OUSD.sol\":5678:5679  1 */\n      0x01\n        /* \"contracts/token/OUSD.sol\":5654:5664  isUpgraded */\n      0xa3\n        /* \"contracts/token/OUSD.sol\":5654:5674  isUpgraded[_account] */\n      0x00\n        /* \"contracts/token/OUSD.sol\":5665:5673  _account */\n      dup9\n        /* \"contracts/token/OUSD.sol\":5654:5674  isUpgraded[_account] */\n      0xffffffffffffffffffffffffffffffffffffffff\n      and\n      0xffffffffffffffffffffffffffffffffffffffff\n      and\n      dup2\n      mstore\n      0x20\n      add\n      swap1\n      dup2\n      mstore\n      0x20\n      add\n      0x00\n      keccak256\n      sload\n        /* \"contracts/token/OUSD.sol\":5654:5679  isUpgraded[_account] == 1 */\n      eq\n        /* \"contracts/token/OUSD.sol\":5551:5690  return (\r... */\n      swap3\n      pop\n      swap3\n      pop\n      swap3\n      pop\n        /* \"contracts/token/OUSD.sol\":5362:5698  function creditsBalanceOfHighres(address _account)\r... */\n      swap2\n      swap4\n      swap1\n      swap3\n      pop\n      jump\t// out\n        /* \"contracts/token/OUSD.sol\":1760:1792  uint256 public nonRebasingSupply */\n    tag_156:\n      sload(0xa0)\n      dup2\n      jump\t// out\n        /* \"contracts/token/OUSD.sol\":17582:18483  function rebaseOptIn() public nonReentrant {\r... */\n    tag_159:\n        /* \"contracts/governance/Governable.sol\":3371:3387  bytes32 position */\n      0x00\n        /* \"contracts/governance/Governable.sol\":902:968  0x53bf423e48ed90e97d02ab0ebab13b2a235a6bfbe9c321847d5c175333ac4535 */\n      0x53bf423e48ed90e97d02ab0ebab13b2a235a6bfbe9c321847d5c175333ac4535\n        /* \"contracts/governance/Governable.sol\":3390:3411  reentryStatusPosition */\n      0x00\n      shl\n        /* \"contracts/governance/Governable.sol\":3371:3411  bytes32 position = reentryStatusPosition */\n      swap1\n      pop\n        /* \"contracts/governance/Governable.sol\":3422:3445  uint256 _reentry_status */\n      0x00\n        /* \"contracts/governance/Governable.sol\":3505:3513  position */\n      dup2\n        /* \"contracts/governance/Governable.sol\":3499:3514  sload(position) */\n      sload\n        /* \"contracts/governance/Governable.sol\":3480:3514  _reentry_status := sload(position) */\n      swap1\n      pop\n        /* \"contracts/governance/Governable.sol\":1101:1102  2 */\n      0x02\n        /* \"contracts/governance/Governable.sol\":3617:3632  _reentry_status */\n      dup2\n        /* \"contracts/governance/Governable.sol\":3617:3644  _reentry_status != _ENTERED */\n      eq\n      iszero\n        /* \"contracts/governance/Governable.sol\":3609:3663  require(_reentry_status != _ENTERED, \"Reentrant call\") */\n      tag_317\n      jumpi\n      mload(0x40)\n      0x08c379a000000000000000000000000000000000000000000000000000000000\n      dup2\n      mstore\n      0x04\n      add\n      tag_318\n      swap1\n      tag_221\n      jump\t// in\n    tag_318:\n      mload(0x40)\n      dup1\n      swap2\n      sub\n      swap1\n      revert\n    tag_317:\n        /* \"contracts/governance/Governable.sol\":3782:3790  _ENTERED */\n      0x02\n        /* \"contracts/governance/Governable.sol\":3772:3780  position */\n      dup3\n        /* \"contracts/governance/Governable.sol\":3765:3791  sstore(position, _ENTERED) */\n      sstore\n        /* \"contracts/token/OUSD.sol\":17644:17677  _isNonRebasingAccount(msg.sender) */\n      tag_320\n        /* \"contracts/token/OUSD.sol\":17666:17676  msg.sender */\n      caller\n        /* \"contracts/token/OUSD.sol\":17644:17665  _isNonRebasingAccount */\n      tag_293\n        /* \"contracts/token/OUSD.sol\":17644:17677  _isNonRebasingAccount(msg.sender) */\n      jump\t// in\n    tag_320:\n        /* \"contracts/token/OUSD.sol\":17636:17707  require(_isNonRebasingAccount(msg.sender), \"Account has not opted out\") */\n      tag_321\n      jumpi\n      mload(0x40)\n      0x08c379a000000000000000000000000000000000000000000000000000000000\n      dup2\n      mstore\n      0x04\n      add\n      tag_322\n      swap1\n      tag_323\n      jump\t// in\n    tag_322:\n      mload(0x40)\n      dup1\n      swap2\n      sub\n      swap1\n      revert\n    tag_321:\n        /* \"contracts/token/OUSD.sol\":17798:17822  uint256 newCreditBalance */\n      0x00\n        /* \"contracts/token/OUSD.sol\":17825:17944  _creditBalances[msg.sender]\r... */\n      tag_324\n        /* \"contracts/token/OUSD.sol\":17915:17943  _creditsPerToken(msg.sender) */\n      tag_325\n        /* \"contracts/token/OUSD.sol\":17932:17942  msg.sender */\n      caller\n        /* \"contracts/token/OUSD.sol\":17915:17931  _creditsPerToken */\n      tag_260\n        /* \"contracts/token/OUSD.sol\":17915:17943  _creditsPerToken(msg.sender) */\n      jump\t// in\n    tag_325:\n        /* \"contracts/token/OUSD.sol\":17825:17896  _creditBalances[msg.sender]\r... */\n      tag_326\n        /* \"contracts/token/OUSD.sol\":17871:17895  _rebasingCreditsPerToken */\n      sload(0x9f)\n        /* \"contracts/token/OUSD.sol\":17825:17840  _creditBalances */\n      0x9d\n        /* \"contracts/token/OUSD.sol\":17825:17852  _creditBalances[msg.sender] */\n      0x00\n        /* \"contracts/token/OUSD.sol\":17841:17851  msg.sender */\n      caller\n        /* \"contracts/token/OUSD.sol\":17825:17852  _creditBalances[msg.sender] */\n      0xffffffffffffffffffffffffffffffffffffffff\n      and\n      0xffffffffffffffffffffffffffffffffffffffff\n      and\n      dup2\n      mstore\n      0x20\n      add\n      swap1\n      dup2\n      mstore\n      0x20\n      add\n      0x00\n      keccak256\n      sload\n        /* \"contracts/token/OUSD.sol\":17825:17870  _creditBalances[msg.sender]\r... */\n      tag_327\n      swap1\n        /* \"contracts/token/OUSD.sol\":17825:17896  _creditBalances[msg.sender]\r... */\n      swap2\n      swap1\n      0xffffffff\n      and\n      jump\t// in\n    tag_326:\n        /* \"contracts/token/OUSD.sol\":17825:17914  _creditBalances[msg.sender]\r... */\n      tag_328\n      swap1\n        /* \"contracts/token/OUSD.sol\":17825:17944  _creditBalances[msg.sender]\r... */\n      swap2\n      swap1\n      0xffffffff\n      and\n      jump\t// in\n    tag_324:\n        /* \"contracts/token/OUSD.sol\":17798:17944  uint256 newCreditBalance = _creditBalances[msg.sender]\r... */\n      swap1\n      pop\n        /* \"contracts/token/OUSD.sol\":18020:18064  nonRebasingSupply.sub(balanceOf(msg.sender)) */\n      tag_329\n        /* \"contracts/token/OUSD.sol\":18042:18063  balanceOf(msg.sender) */\n      tag_330\n        /* \"contracts/token/OUSD.sol\":18052:18062  msg.sender */\n      caller\n        /* \"contracts/token/OUSD.sol\":18042:18051  balanceOf */\n      tag_111\n        /* \"contracts/token/OUSD.sol\":18042:18063  balanceOf(msg.sender) */\n      jump\t// in\n    tag_330:\n        /* \"contracts/token/OUSD.sol\":18020:18037  nonRebasingSupply */\n      sload(0xa0)\n        /* \"contracts/token/OUSD.sol\":18020:18041  nonRebasingSupply.sub */\n      tag_205\n      swap1\n        /* \"contracts/token/OUSD.sol\":18020:18064  nonRebasingSupply.sub(balanceOf(msg.sender)) */\n      swap2\n      swap1\n      0xffffffff\n      and\n      jump\t// in\n    tag_329:\n        /* \"contracts/token/OUSD.sol\":18000:18017  nonRebasingSupply */\n      0xa0\n        /* \"contracts/token/OUSD.sol\":18000:18064  nonRebasingSupply = nonRebasingSupply.sub(balanceOf(msg.sender)) */\n      dup2\n      swap1\n      sstore\n      pop\n        /* \"contracts/token/OUSD.sol\":18107:18123  newCreditBalance */\n      dup1\n        /* \"contracts/token/OUSD.sol\":18077:18092  _creditBalances */\n      0x9d\n        /* \"contracts/token/OUSD.sol\":18077:18104  _creditBalances[msg.sender] */\n      0x00\n        /* \"contracts/token/OUSD.sol\":18093:18103  msg.sender */\n      caller\n        /* \"contracts/token/OUSD.sol\":18077:18104  _creditBalances[msg.sender] */\n      0xffffffffffffffffffffffffffffffffffffffff\n      and\n      0xffffffffffffffffffffffffffffffffffffffff\n      and\n      dup2\n      mstore\n      0x20\n      add\n      swap1\n      dup2\n      mstore\n      0x20\n      add\n      0x00\n      keccak256\n        /* \"contracts/token/OUSD.sol\":18077:18123  _creditBalances[msg.sender] = newCreditBalance */\n      dup2\n      swap1\n      sstore\n      pop\n        /* \"contracts/token/OUSD.sol\":18263:18312  _rebasingCredits.add(_creditBalances[msg.sender]) */\n      tag_331\n        /* \"contracts/token/OUSD.sol\":18284:18299  _creditBalances */\n      0x9d\n        /* \"contracts/token/OUSD.sol\":18284:18311  _creditBalances[msg.sender] */\n      0x00\n        /* \"contracts/token/OUSD.sol\":18300:18310  msg.sender */\n      caller\n        /* \"contracts/token/OUSD.sol\":18284:18311  _creditBalances[msg.sender] */\n      0xffffffffffffffffffffffffffffffffffffffff\n      and\n      0xffffffffffffffffffffffffffffffffffffffff\n      and\n      dup2\n      mstore\n      0x20\n      add\n      swap1\n      dup2\n      mstore\n      0x20\n      add\n      0x00\n      keccak256\n      sload\n        /* \"contracts/token/OUSD.sol\":18263:18279  _rebasingCredits */\n      sload(0x9e)\n        /* \"contracts/token/OUSD.sol\":18263:18283  _rebasingCredits.add */\n      tag_212\n      swap1\n        /* \"contracts/token/OUSD.sol\":18263:18312  _rebasingCredits.add(_creditBalances[msg.sender]) */\n      swap2\n      swap1\n      0xffffffff\n      and\n      jump\t// in\n    tag_331:\n        /* \"contracts/token/OUSD.sol\":18244:18260  _rebasingCredits */\n      0x9e\n        /* \"contracts/token/OUSD.sol\":18244:18312  _rebasingCredits = _rebasingCredits.add(_creditBalances[msg.sender]) */\n      dup2\n      swap1\n      sstore\n      pop\n        /* \"contracts/token/OUSD.sol\":18351:18370  RebaseOptions.OptIn */\n      0x02\n        /* \"contracts/token/OUSD.sol\":18325:18336  rebaseState */\n      0xa2\n        /* \"contracts/token/OUSD.sol\":18325:18348  rebaseState[msg.sender] */\n      0x00\n        /* \"contracts/token/OUSD.sol\":18337:18347  msg.sender */\n      caller\n        /* \"contracts/token/OUSD.sol\":18325:18348  rebaseState[msg.sender] */\n      0xffffffffffffffffffffffffffffffffffffffff\n      and\n      0xffffffffffffffffffffffffffffffffffffffff\n      and\n      dup2\n      mstore\n      0x20\n      add\n      swap1\n      dup2\n      mstore\n      0x20\n      add\n      0x00\n      keccak256\n      0x00\n        /* \"contracts/token/OUSD.sol\":18325:18370  rebaseState[msg.sender] = RebaseOptions.OptIn */\n      0x0100\n      exp\n      dup2\n      sload\n      dup2\n      0xff\n      mul\n      not\n      and\n      swap1\n      dup4\n      0x02\n      dup2\n      gt\n      iszero\n      tag_332\n      jumpi\n      tag_333\n      tag_302\n      jump\t// in\n    tag_333:\n    tag_332:\n      mul\n      or\n      swap1\n      sstore\n      pop\n        /* \"contracts/token/OUSD.sol\":18437:18463  nonRebasingCreditsPerToken */\n      0xa1\n        /* \"contracts/token/OUSD.sol\":18437:18475  nonRebasingCreditsPerToken[msg.sender] */\n      0x00\n        /* \"contracts/token/OUSD.sol\":18464:18474  msg.sender */\n      caller\n        /* \"contracts/token/OUSD.sol\":18437:18475  nonRebasingCreditsPerToken[msg.sender] */\n      0xffffffffffffffffffffffffffffffffffffffff\n      and\n      0xffffffffffffffffffffffffffffffffffffffff\n      and\n      dup2\n      mstore\n      0x20\n      add\n      swap1\n      dup2\n      mstore\n      0x20\n      add\n      0x00\n      keccak256\n        /* \"contracts/token/OUSD.sol\":18430:18475  delete nonRebasingCreditsPerToken[msg.sender] */\n      0x00\n      swap1\n      sstore\n        /* \"contracts/token/OUSD.sol\":17625:18483  {\r... */\n      pop\n        /* \"contracts/governance/Governable.sol\":4003:4015  _NOT_ENTERED */\n      0x01\n        /* \"contracts/governance/Governable.sol\":3993:4001  position */\n      dup3\n        /* \"contracts/governance/Governable.sol\":3986:4016  sstore(position, _NOT_ENTERED) */\n      sstore\n        /* \"contracts/governance/Governable.sol\":3971:4027  {\r... */\n      pop\n      pop\n        /* \"contracts/token/OUSD.sol\":17582:18483  function rebaseOptIn() public nonReentrant {\r... */\n      jump\t// out\n        /* \"contracts/token/OUSD.sol\":4418:5089  function creditsBalanceOf(address _account)\r... */\n    tag_162:\n        /* \"contracts/token/OUSD.sol\":4510:4517  uint256 */\n      0x00\n        /* \"contracts/token/OUSD.sol\":4519:4526  uint256 */\n      dup1\n        /* \"contracts/token/OUSD.sol\":4544:4555  uint256 cpt */\n      0x00\n        /* \"contracts/token/OUSD.sol\":4558:4584  _creditsPerToken(_account) */\n      tag_335\n        /* \"contracts/token/OUSD.sol\":4575:4583  _account */\n      dup5\n        /* \"contracts/token/OUSD.sol\":4558:4574  _creditsPerToken */\n      tag_260\n        /* \"contracts/token/OUSD.sol\":4558:4584  _creditsPerToken(_account) */\n      jump\t// in\n    tag_335:\n        /* \"contracts/token/OUSD.sol\":4544:4584  uint256 cpt = _creditsPerToken(_account) */\n      swap1\n      pop\n        /* \"contracts/token/OUSD.sol\":4606:4610  1e27 */\n      0x033b2e3c9fd0803ce8000000\n        /* \"contracts/token/OUSD.sol\":4599:4602  cpt */\n      dup2\n        /* \"contracts/token/OUSD.sol\":4599:4610  cpt == 1e27 */\n      eq\n        /* \"contracts/token/OUSD.sol\":4595:5082  if (cpt == 1e27) {\r... */\n      iszero\n      tag_336\n      jumpi\n        /* \"contracts/token/OUSD.sol\":4874:4889  _creditBalances */\n      0x9d\n        /* \"contracts/token/OUSD.sol\":4874:4899  _creditBalances[_account] */\n      0x00\n        /* \"contracts/token/OUSD.sol\":4890:4898  _account */\n      dup6\n        /* \"contracts/token/OUSD.sol\":4874:4899  _creditBalances[_account] */\n      0xffffffffffffffffffffffffffffffffffffffff\n      and\n      0xffffffffffffffffffffffffffffffffffffffff\n      and\n      dup2\n      mstore\n      0x20\n      add\n      swap1\n      dup2\n      mstore\n      0x20\n      add\n      0x00\n      keccak256\n      sload\n        /* \"contracts/token/OUSD.sol\":4901:4904  cpt */\n      dup2\n        /* \"contracts/token/OUSD.sol\":4866:4905  return (_creditBalances[_account], cpt) */\n      swap3\n      pop\n      swap3\n      pop\n      pop\n      jump(tag_334)\n        /* \"contracts/token/OUSD.sol\":4595:5082  if (cpt == 1e27) {\r... */\n    tag_336:\n        /* \"contracts/token/OUSD.sol\":2027:2030  1e9 */\n      0x3b9aca00\n        /* \"contracts/token/OUSD.sol\":4964:4979  _creditBalances */\n      0x9d\n        /* \"contracts/token/OUSD.sol\":4964:4989  _creditBalances[_account] */\n      0x00\n        /* \"contracts/token/OUSD.sol\":4980:4988  _account */\n      dup7\n        /* \"contracts/token/OUSD.sol\":4964:4989  _creditBalances[_account] */\n      0xffffffffffffffffffffffffffffffffffffffff\n      and\n      0xffffffffffffffffffffffffffffffffffffffff\n      and\n      dup2\n      mstore\n      0x20\n      add\n      swap1\n      dup2\n      mstore\n      0x20\n      add\n      0x00\n      keccak256\n      sload\n        /* \"contracts/token/OUSD.sol\":4964:5011  _creditBalances[_account] / RESOLUTION_INCREASE */\n      tag_338\n      swap2\n      swap1\n      tag_189\n      jump\t// in\n    tag_338:\n        /* \"contracts/token/OUSD.sol\":2027:2030  1e9 */\n      0x3b9aca00\n        /* \"contracts/token/OUSD.sol\":5030:5033  cpt */\n      dup3\n        /* \"contracts/token/OUSD.sol\":5030:5055  cpt / RESOLUTION_INCREASE */\n      tag_339\n      swap2\n      swap1\n      tag_189\n      jump\t// in\n    tag_339:\n        /* \"contracts/token/OUSD.sol\":4938:5070  return (\r... */\n      swap3\n      pop\n      swap3\n      pop\n      pop\n        /* \"contracts/token/OUSD.sol\":4418:5089  function creditsBalanceOf(address _account)\r... */\n    tag_334:\n      swap2\n      pop\n      swap2\n      jump\t// out\n        /* \"contracts/utils/InitializableERC20Detailed.sol\":795:1024  function _initialize(\r... */\n    tag_185:\n        /* \"contracts/utils/InitializableERC20Detailed.sol\":945:952  nameArg */\n      dup3\n        /* \"contracts/utils/InitializableERC20Detailed.sol\":937:942  _name */\n      0x97\n        /* \"contracts/utils/InitializableERC20Detailed.sol\":937:952  _name = nameArg */\n      swap1\n      dup1\n      mload\n      swap1\n      0x20\n      add\n      swap1\n      tag_341\n      swap3\n      swap2\n      swap1\n      tag_342\n      jump\t// in\n    tag_341:\n      pop\n        /* \"contracts/utils/InitializableERC20Detailed.sol\":973:982  symbolArg */\n      dup2\n        /* \"contracts/utils/InitializableERC20Detailed.sol\":963:970  _symbol */\n      0x98\n        /* \"contracts/utils/InitializableERC20Detailed.sol\":963:982  _symbol = symbolArg */\n      swap1\n      dup1\n      mload\n      swap1\n      0x20\n      add\n      swap1\n      tag_343\n      swap3\n      swap2\n      swap1\n      tag_342\n      jump\t// in\n    tag_343:\n      pop\n        /* \"contracts/utils/InitializableERC20Detailed.sol\":1005:1016  decimalsArg */\n      dup1\n        /* \"contracts/utils/InitializableERC20Detailed.sol\":993:1002  _decimals */\n      0x99\n      0x00\n        /* \"contracts/utils/InitializableERC20Detailed.sol\":993:1016  _decimals = decimalsArg */\n      0x0100\n      exp\n      dup2\n      sload\n      dup2\n      0xff\n      mul\n      not\n      and\n      swap1\n      dup4\n      0xff\n      and\n      mul\n      or\n      swap1\n      sstore\n      pop\n        /* \"contracts/utils/InitializableERC20Detailed.sol\":795:1024  function _initialize(\r... */\n      pop\n      pop\n      pop\n      jump\t// out\n        /* \"contracts/governance/Governable.sol\":1845:2039  function _governor() internal view returns (address governorOut) {\r... */\n    tag_194:\n        /* \"contracts/governance/Governable.sol\":1889:1908  address governorOut */\n      0x00\n        /* \"contracts/governance/Governable.sol\":1921:1937  bytes32 position */\n      dup1\n        /* \"contracts/governance/Governable.sol\":548:614  0x7bea13895fa79d2831e0a9e28edede30099005a50d652d8957cf8a607ee6ca4a */\n      0x7bea13895fa79d2831e0a9e28edede30099005a50d652d8957cf8a607ee6ca4a\n        /* \"contracts/governance/Governable.sol\":1940:1956  governorPosition */\n      0x00\n      shl\n        /* \"contracts/governance/Governable.sol\":1921:1956  bytes32 position = governorPosition */\n      swap1\n      pop\n        /* \"contracts/governance/Governable.sol\":2012:2020  position */\n      dup1\n        /* \"contracts/governance/Governable.sol\":2006:2021  sload(position) */\n      sload\n        /* \"contracts/governance/Governable.sol\":1991:2021  governorOut := sload(position) */\n      swap2\n      pop\n        /* \"contracts/governance/Governable.sol\":1976:2032  {\r... */\n      pop\n        /* \"contracts/governance/Governable.sol\":1845:2039  function _governor() internal view returns (address governorOut) {\r... */\n      swap1\n      jump\t// out\n        /* \"@openzeppelin/contracts/utils/math/SafeMath.sol\":3108:3204  function sub(uint256 a, uint256 b) internal pure returns (uint256) {... */\n    tag_205:\n        /* \"@openzeppelin/contracts/utils/math/SafeMath.sol\":3166:3173  uint256 */\n      0x00\n        /* \"@openzeppelin/contracts/utils/math/SafeMath.sol\":3196:3197  b */\n      dup2\n        /* \"@openzeppelin/contracts/utils/math/SafeMath.sol\":3192:3193  a */\n      dup4\n        /* \"@openzeppelin/contracts/utils/math/SafeMath.sol\":3192:3197  a - b */\n      tag_346\n      swap2\n      swap1\n      tag_347\n      jump\t// in\n    tag_346:\n        /* \"@openzeppelin/contracts/utils/math/SafeMath.sol\":3185:3197  return a - b */\n      swap1\n      pop\n        /* \"@openzeppelin/contracts/utils/math/SafeMath.sol\":3108:3204  function sub(uint256 a, uint256 b) internal pure returns (uint256) {... */\n      swap3\n      swap2\n      pop\n      pop\n      jump\t// out\n        /* \"contracts/token/OUSD.sol\":7395:8983  function _executeTransfer(\r... */\n    tag_207:\n        /* \"contracts/token/OUSD.sol\":7519:7539  bool isNonRebasingTo */\n      0x00\n        /* \"contracts/token/OUSD.sol\":7542:7568  _isNonRebasingAccount(_to) */\n      tag_349\n        /* \"contracts/token/OUSD.sol\":7564:7567  _to */\n      dup4\n        /* \"contracts/token/OUSD.sol\":7542:7563  _isNonRebasingAccount */\n      tag_293\n        /* \"contracts/token/OUSD.sol\":7542:7568  _isNonRebasingAccount(_to) */\n      jump\t// in\n    tag_349:\n        /* \"contracts/token/OUSD.sol\":7519:7568  bool isNonRebasingTo = _isNonRebasingAccount(_to) */\n      swap1\n      pop\n        /* \"contracts/token/OUSD.sol\":7579:7601  bool isNonRebasingFrom */\n      0x00\n        /* \"contracts/token/OUSD.sol\":7604:7632  _isNonRebasingAccount(_from) */\n      tag_350\n        /* \"contracts/token/OUSD.sol\":7626:7631  _from */\n      dup6\n        /* \"contracts/token/OUSD.sol\":7604:7625  _isNonRebasingAccount */\n      tag_293\n        /* \"contracts/token/OUSD.sol\":7604:7632  _isNonRebasingAccount(_from) */\n      jump\t// in\n    tag_350:\n        /* \"contracts/token/OUSD.sol\":7579:7632  bool isNonRebasingFrom = _isNonRebasingAccount(_from) */\n      swap1\n      pop\n        /* \"contracts/token/OUSD.sol\":7776:7799  uint256 creditsCredited */\n      0x00\n        /* \"contracts/token/OUSD.sol\":7802:7843  _value.mulTruncate(_creditsPerToken(_to)) */\n      tag_351\n        /* \"contracts/token/OUSD.sol\":7821:7842  _creditsPerToken(_to) */\n      tag_352\n        /* \"contracts/token/OUSD.sol\":7838:7841  _to */\n      dup7\n        /* \"contracts/token/OUSD.sol\":7821:7837  _creditsPerToken */\n      tag_260\n        /* \"contracts/token/OUSD.sol\":7821:7842  _creditsPerToken(_to) */\n      jump\t// in\n    tag_352:\n        /* \"contracts/token/OUSD.sol\":7802:7808  _value */\n      dup6\n        /* \"contracts/token/OUSD.sol\":7802:7820  _value.mulTruncate */\n      tag_353\n      swap1\n        /* \"contracts/token/OUSD.sol\":7802:7843  _value.mulTruncate(_creditsPerToken(_to)) */\n      swap2\n      swap1\n      0xffffffff\n      and\n      jump\t// in\n    tag_351:\n        /* \"contracts/token/OUSD.sol\":7776:7843  uint256 creditsCredited = _value.mulTruncate(_creditsPerToken(_to)) */\n      swap1\n      pop\n        /* \"contracts/token/OUSD.sol\":7854:7877  uint256 creditsDeducted */\n      0x00\n        /* \"contracts/token/OUSD.sol\":7880:7923  _value.mulTruncate(_creditsPerToken(_from)) */\n      tag_354\n        /* \"contracts/token/OUSD.sol\":7899:7922  _creditsPerToken(_from) */\n      tag_355\n        /* \"contracts/token/OUSD.sol\":7916:7921  _from */\n      dup9\n        /* \"contracts/token/OUSD.sol\":7899:7915  _creditsPerToken */\n      tag_260\n        /* \"contracts/token/OUSD.sol\":7899:7922  _creditsPerToken(_from) */\n      jump\t// in\n    tag_355:\n        /* \"contracts/token/OUSD.sol\":7880:7886  _value */\n      dup7\n        /* \"contracts/token/OUSD.sol\":7880:7898  _value.mulTruncate */\n      tag_353\n      swap1\n        /* \"contracts/token/OUSD.sol\":7880:7923  _value.mulTruncate(_creditsPerToken(_from)) */\n      swap2\n      swap1\n      0xffffffff\n      and\n      jump\t// in\n    tag_354:\n        /* \"contracts/token/OUSD.sol\":7854:7923  uint256 creditsDeducted = _value.mulTruncate(_creditsPerToken(_from)) */\n      swap1\n      pop\n        /* \"contracts/token/OUSD.sol\":7961:8076  _creditBalances[_from].sub(\r... */\n      tag_356\n        /* \"contracts/token/OUSD.sol\":8002:8017  creditsDeducted */\n      dup2\n        /* \"contracts/token/OUSD.sol\":7961:8076  _creditBalances[_from].sub(\r... */\n      mload(0x40)\n      dup1\n      0x40\n      add\n      0x40\n      mstore\n      dup1\n      0x1f\n      dup2\n      mstore\n      0x20\n      add\n      0x5472616e7366657220616d6f756e7420657863656564732062616c616e636500\n      dup2\n      mstore\n      pop\n        /* \"contracts/token/OUSD.sol\":7961:7976  _creditBalances */\n      0x9d\n        /* \"contracts/token/OUSD.sol\":7961:7983  _creditBalances[_from] */\n      0x00\n        /* \"contracts/token/OUSD.sol\":7977:7982  _from */\n      dup12\n        /* \"contracts/token/OUSD.sol\":7961:7983  _creditBalances[_from] */\n      0xffffffffffffffffffffffffffffffffffffffff\n      and\n      0xffffffffffffffffffffffffffffffffffffffff\n      and\n      dup2\n      mstore\n      0x20\n      add\n      swap1\n      dup2\n      mstore\n      0x20\n      add\n      0x00\n      keccak256\n      sload\n        /* \"contracts/token/OUSD.sol\":7961:7987  _creditBalances[_from].sub */\n      tag_357\n      swap1\n        /* \"contracts/token/OUSD.sol\":7961:8076  _creditBalances[_from].sub(\r... */\n      swap3\n      swap2\n      swap1\n      0xffffffff\n      and\n      jump\t// in\n    tag_356:\n        /* \"contracts/token/OUSD.sol\":7936:7951  _creditBalances */\n      0x9d\n        /* \"contracts/token/OUSD.sol\":7936:7958  _creditBalances[_from] */\n      0x00\n        /* \"contracts/token/OUSD.sol\":7952:7957  _from */\n      dup10\n        /* \"contracts/token/OUSD.sol\":7936:7958  _creditBalances[_from] */\n      0xffffffffffffffffffffffffffffffffffffffff\n      and\n      0xffffffffffffffffffffffffffffffffffffffff\n      and\n      dup2\n      mstore\n      0x20\n      add\n      swap1\n      dup2\n      mstore\n      0x20\n      add\n      0x00\n      keccak256\n        /* \"contracts/token/OUSD.sol\":7936:8076  _creditBalances[_from] = _creditBalances[_from].sub(\r... */\n      dup2\n      swap1\n      sstore\n      pop\n        /* \"contracts/token/OUSD.sol\":8110:8151  _creditBalances[_to].add(creditsCredited) */\n      tag_358\n        /* \"contracts/token/OUSD.sol\":8135:8150  creditsCredited */\n      dup3\n        /* \"contracts/token/OUSD.sol\":8110:8125  _creditBalances */\n      0x9d\n        /* \"contracts/token/OUSD.sol\":8110:8130  _creditBalances[_to] */\n      0x00\n        /* \"contracts/token/OUSD.sol\":8126:8129  _to */\n      dup10\n        /* \"contracts/token/OUSD.sol\":8110:8130  _creditBalances[_to] */\n      0xffffffffffffffffffffffffffffffffffffffff\n      and\n      0xffffffffffffffffffffffffffffffffffffffff\n      and\n      dup2\n      mstore\n      0x20\n      add\n      swap1\n      dup2\n      mstore\n      0x20\n      add\n      0x00\n      keccak256\n      sload\n        /* \"contracts/token/OUSD.sol\":8110:8134  _creditBalances[_to].add */\n      tag_212\n      swap1\n        /* \"contracts/token/OUSD.sol\":8110:8151  _creditBalances[_to].add(creditsCredited) */\n      swap2\n      swap1\n      0xffffffff\n      and\n      jump\t// in\n    tag_358:\n        /* \"contracts/token/OUSD.sol\":8087:8102  _creditBalances */\n      0x9d\n        /* \"contracts/token/OUSD.sol\":8087:8107  _creditBalances[_to] */\n      0x00\n        /* \"contracts/token/OUSD.sol\":8103:8106  _to */\n      dup9\n        /* \"contracts/token/OUSD.sol\":8087:8107  _creditBalances[_to] */\n      0xffffffffffffffffffffffffffffffffffffffff\n      and\n      0xffffffffffffffffffffffffffffffffffffffff\n      and\n      dup2\n      mstore\n      0x20\n      add\n      swap1\n      dup2\n      mstore\n      0x20\n      add\n      0x00\n      keccak256\n        /* \"contracts/token/OUSD.sol\":8087:8151  _creditBalances[_to] = _creditBalances[_to].add(creditsCredited) */\n      dup2\n      swap1\n      sstore\n      pop\n        /* \"contracts/token/OUSD.sol\":8168:8183  isNonRebasingTo */\n      dup4\n        /* \"contracts/token/OUSD.sol\":8168:8205  isNonRebasingTo && !isNonRebasingFrom */\n      dup1\n      iszero\n      tag_359\n      jumpi\n      pop\n        /* \"contracts/token/OUSD.sol\":8188:8205  isNonRebasingFrom */\n      dup3\n        /* \"contracts/token/OUSD.sol\":8187:8205  !isNonRebasingFrom */\n      iszero\n        /* \"contracts/token/OUSD.sol\":8168:8205  isNonRebasingTo && !isNonRebasingFrom */\n    tag_359:\n        /* \"contracts/token/OUSD.sol\":8164:8976  if (isNonRebasingTo && !isNonRebasingFrom) {\r... */\n      iszero\n      tag_360\n      jumpi\n        /* \"contracts/token/OUSD.sol\":8378:8407  nonRebasingSupply.add(_value) */\n      tag_361\n        /* \"contracts/token/OUSD.sol\":8400:8406  _value */\n      dup6\n        /* \"contracts/token/OUSD.sol\":8378:8395  nonRebasingSupply */\n      sload(0xa0)\n        /* \"contracts/token/OUSD.sol\":8378:8399  nonRebasingSupply.add */\n      tag_212\n      swap1\n        /* \"contracts/token/OUSD.sol\":8378:8407  nonRebasingSupply.add(_value) */\n      swap2\n      swap1\n      0xffffffff\n      and\n      jump\t// in\n    tag_361:\n        /* \"contracts/token/OUSD.sol\":8358:8375  nonRebasingSupply */\n      0xa0\n        /* \"contracts/token/OUSD.sol\":8358:8407  nonRebasingSupply = nonRebasingSupply.add(_value) */\n      dup2\n      swap1\n      sstore\n      pop\n        /* \"contracts/token/OUSD.sol\":8515:8552  _rebasingCredits.sub(creditsDeducted) */\n      tag_362\n        /* \"contracts/token/OUSD.sol\":8536:8551  creditsDeducted */\n      dup2\n        /* \"contracts/token/OUSD.sol\":8515:8531  _rebasingCredits */\n      sload(0x9e)\n        /* \"contracts/token/OUSD.sol\":8515:8535  _rebasingCredits.sub */\n      tag_205\n      swap1\n        /* \"contracts/token/OUSD.sol\":8515:8552  _rebasingCredits.sub(creditsDeducted) */\n      swap2\n      swap1\n      0xffffffff\n      and\n      jump\t// in\n    tag_362:\n        /* \"contracts/token/OUSD.sol\":8496:8512  _rebasingCredits */\n      0x9e\n        /* \"contracts/token/OUSD.sol\":8496:8552  _rebasingCredits = _rebasingCredits.sub(creditsDeducted) */\n      dup2\n      swap1\n      sstore\n      pop\n        /* \"contracts/token/OUSD.sol\":8164:8976  if (isNonRebasingTo && !isNonRebasingFrom) {\r... */\n      jump(tag_363)\n    tag_360:\n        /* \"contracts/token/OUSD.sol\":8575:8590  isNonRebasingTo */\n      dup4\n        /* \"contracts/token/OUSD.sol\":8574:8590  !isNonRebasingTo */\n      iszero\n        /* \"contracts/token/OUSD.sol\":8574:8611  !isNonRebasingTo && isNonRebasingFrom */\n      dup1\n      iszero\n      tag_364\n      jumpi\n      pop\n        /* \"contracts/token/OUSD.sol\":8594:8611  isNonRebasingFrom */\n      dup3\n        /* \"contracts/token/OUSD.sol\":8574:8611  !isNonRebasingTo && isNonRebasingFrom */\n    tag_364:\n        /* \"contracts/token/OUSD.sol\":8570:8976  if (!isNonRebasingTo && isNonRebasingFrom) {\r... */\n      iszero\n      tag_365\n      jumpi\n        /* \"contracts/token/OUSD.sol\":8795:8824  nonRebasingSupply.sub(_value) */\n      tag_366\n        /* \"contracts/token/OUSD.sol\":8817:8823  _value */\n      dup6\n        /* \"contracts/token/OUSD.sol\":8795:8812  nonRebasingSupply */\n      sload(0xa0)\n        /* \"contracts/token/OUSD.sol\":8795:8816  nonRebasingSupply.sub */\n      tag_205\n      swap1\n        /* \"contracts/token/OUSD.sol\":8795:8824  nonRebasingSupply.sub(_value) */\n      swap2\n      swap1\n      0xffffffff\n      and\n      jump\t// in\n    tag_366:\n        /* \"contracts/token/OUSD.sol\":8775:8792  nonRebasingSupply */\n      0xa0\n        /* \"contracts/token/OUSD.sol\":8775:8824  nonRebasingSupply = nonRebasingSupply.sub(_value) */\n      dup2\n      swap1\n      sstore\n      pop\n        /* \"contracts/token/OUSD.sol\":8927:8964  _rebasingCredits.add(creditsCredited) */\n      tag_367\n        /* \"contracts/token/OUSD.sol\":8948:8963  creditsCredited */\n      dup3\n        /* \"contracts/token/OUSD.sol\":8927:8943  _rebasingCredits */\n      sload(0x9e)\n        /* \"contracts/token/OUSD.sol\":8927:8947  _rebasingCredits.add */\n      tag_212\n      swap1\n        /* \"contracts/token/OUSD.sol\":8927:8964  _rebasingCredits.add(creditsCredited) */\n      swap2\n      swap1\n      0xffffffff\n      and\n      jump\t// in\n    tag_367:\n        /* \"contracts/token/OUSD.sol\":8908:8924  _rebasingCredits */\n      0x9e\n        /* \"contracts/token/OUSD.sol\":8908:8964  _rebasingCredits = _rebasingCredits.add(creditsCredited) */\n      dup2\n      swap1\n      sstore\n      pop\n        /* \"contracts/token/OUSD.sol\":8570:8976  if (!isNonRebasingTo && isNonRebasingFrom) {\r... */\n    tag_365:\n        /* \"contracts/token/OUSD.sol\":8164:8976  if (isNonRebasingTo && !isNonRebasingFrom) {\r... */\n    tag_363:\n        /* \"contracts/token/OUSD.sol\":7508:8983  {\r... */\n      pop\n      pop\n      pop\n      pop\n        /* \"contracts/token/OUSD.sol\":7395:8983  function _executeTransfer(\r... */\n      pop\n      pop\n      pop\n      jump\t// out\n        /* \"@openzeppelin/contracts/utils/math/SafeMath.sol\":2741:2837  function add(uint256 a, uint256 b) internal pure returns (uint256) {... */\n    tag_212:\n        /* \"@openzeppelin/contracts/utils/math/SafeMath.sol\":2799:2806  uint256 */\n      0x00\n        /* \"@openzeppelin/contracts/utils/math/SafeMath.sol\":2829:2830  b */\n      dup2\n        /* \"@openzeppelin/contracts/utils/math/SafeMath.sol\":2825:2826  a */\n      dup4\n        /* \"@openzeppelin/contracts/utils/math/SafeMath.sol\":2825:2830  a + b */\n      tag_369\n      swap2\n      swap1\n      tag_370\n      jump\t// in\n    tag_369:\n        /* \"@openzeppelin/contracts/utils/math/SafeMath.sol\":2818:2830  return a + b */\n      swap1\n      pop\n        /* \"@openzeppelin/contracts/utils/math/SafeMath.sol\":2741:2837  function add(uint256 a, uint256 b) internal pure returns (uint256) {... */\n      swap3\n      swap2\n      pop\n      pop\n      jump\t// out\n        /* \"contracts/utils/StableMath.sol\":3709:3964  function divPrecisely(uint256 x, uint256 y)\r... */\n    tag_233:\n        /* \"contracts/utils/StableMath.sol\":3803:3810  uint256 */\n      0x00\n        /* \"contracts/utils/StableMath.sol\":3864:3873  uint256 z */\n      dup1\n        /* \"contracts/utils/StableMath.sol\":3876:3893  x.mul(FULL_SCALE) */\n      tag_372\n        /* \"contracts/utils/StableMath.sol\":526:530  1e18 */\n      0x0de0b6b3a7640000\n        /* \"contracts/utils/StableMath.sol\":3876:3877  x */\n      dup6\n        /* \"contracts/utils/StableMath.sol\":3876:3881  x.mul */\n      tag_327\n      swap1\n        /* \"contracts/utils/StableMath.sol\":3876:3893  x.mul(FULL_SCALE) */\n      swap2\n      swap1\n      0xffffffff\n      and\n      jump\t// in\n    tag_372:\n        /* \"contracts/utils/StableMath.sol\":3864:3893  uint256 z = x.mul(FULL_SCALE) */\n      swap1\n      pop\n        /* \"contracts/utils/StableMath.sol\":3948:3956  z.div(y) */\n      tag_373\n        /* \"contracts/utils/StableMath.sol\":3954:3955  y */\n      dup4\n        /* \"contracts/utils/StableMath.sol\":3948:3949  z */\n      dup3\n        /* \"contracts/utils/StableMath.sol\":3948:3953  z.div */\n      tag_328\n      swap1\n        /* \"contracts/utils/StableMath.sol\":3948:3956  z.div(y) */\n      swap2\n      swap1\n      0xffffffff\n      and\n      jump\t// in\n    tag_373:\n        /* \"contracts/utils/StableMath.sol\":3941:3956  return z.div(y) */\n      swap2\n      pop\n      pop\n        /* \"contracts/utils/StableMath.sol\":3709:3964  function divPrecisely(uint256 x, uint256 y)\r... */\n      swap3\n      swap2\n      pop\n      pop\n      jump\t// out\n        /* \"contracts/token/OUSD.sol\":12439:13346  function _mint(address _account, uint256 _amount) internal nonReentrant {\r... */\n    tag_245:\n        /* \"contracts/governance/Governable.sol\":3371:3387  bytes32 position */\n      0x00\n        /* \"contracts/governance/Governable.sol\":902:968  0x53bf423e48ed90e97d02ab0ebab13b2a235a6bfbe9c321847d5c175333ac4535 */\n      0x53bf423e48ed90e97d02ab0ebab13b2a235a6bfbe9c321847d5c175333ac4535\n        /* \"contracts/governance/Governable.sol\":3390:3411  reentryStatusPosition */\n      0x00\n      shl\n        /* \"contracts/governance/Governable.sol\":3371:3411  bytes32 position = reentryStatusPosition */\n      swap1\n      pop\n        /* \"contracts/governance/Governable.sol\":3422:3445  uint256 _reentry_status */\n      0x00\n        /* \"contracts/governance/Governable.sol\":3505:3513  position */\n      dup2\n        /* \"contracts/governance/Governable.sol\":3499:3514  sload(position) */\n      sload\n        /* \"contracts/governance/Governable.sol\":3480:3514  _reentry_status := sload(position) */\n      swap1\n      pop\n        /* \"contracts/governance/Governable.sol\":1101:1102  2 */\n      0x02\n        /* \"contracts/governance/Governable.sol\":3617:3632  _reentry_status */\n      dup2\n        /* \"contracts/governance/Governable.sol\":3617:3644  _reentry_status != _ENTERED */\n      eq\n      iszero\n        /* \"contracts/governance/Governable.sol\":3609:3663  require(_reentry_status != _ENTERED, \"Reentrant call\") */\n      tag_375\n      jumpi\n      mload(0x40)\n      0x08c379a000000000000000000000000000000000000000000000000000000000\n      dup2\n      mstore\n      0x04\n      add\n      tag_376\n      swap1\n      tag_221\n      jump\t// in\n    tag_376:\n      mload(0x40)\n      dup1\n      swap2\n      sub\n      swap1\n      revert\n    tag_375:\n        /* \"contracts/governance/Governable.sol\":3782:3790  _ENTERED */\n      0x02\n        /* \"contracts/governance/Governable.sol\":3772:3780  position */\n      dup3\n        /* \"contracts/governance/Governable.sol\":3765:3791  sstore(position, _ENTERED) */\n      sstore\n        /* \"contracts/token/OUSD.sol\":12550:12551  0 */\n      0x00\n        /* \"contracts/token/OUSD.sol\":12530:12552  _account != address(0) */\n      0xffffffffffffffffffffffffffffffffffffffff\n      and\n        /* \"contracts/token/OUSD.sol\":12530:12538  _account */\n      dup5\n        /* \"contracts/token/OUSD.sol\":12530:12552  _account != address(0) */\n      0xffffffffffffffffffffffffffffffffffffffff\n      and\n      eq\n      iszero\n        /* \"contracts/token/OUSD.sol\":12522:12581  require(_account != address(0), \"Mint to the zero address\") */\n      tag_378\n      jumpi\n      mload(0x40)\n      0x08c379a000000000000000000000000000000000000000000000000000000000\n      dup2\n      mstore\n      0x04\n      add\n      tag_379\n      swap1\n      tag_380\n      jump\t// in\n    tag_379:\n      mload(0x40)\n      dup1\n      swap2\n      sub\n      swap1\n      revert\n    tag_378:\n        /* \"contracts/token/OUSD.sol\":12594:12619  bool isNonRebasingAccount */\n      0x00\n        /* \"contracts/token/OUSD.sol\":12622:12653  _isNonRebasingAccount(_account) */\n      tag_381\n        /* \"contracts/token/OUSD.sol\":12644:12652  _account */\n      dup6\n        /* \"contracts/token/OUSD.sol\":12622:12643  _isNonRebasingAccount */\n      tag_293\n        /* \"contracts/token/OUSD.sol\":12622:12653  _isNonRebasingAccount(_account) */\n      jump\t// in\n    tag_381:\n        /* \"contracts/token/OUSD.sol\":12594:12653  bool isNonRebasingAccount = _isNonRebasingAccount(_account) */\n      swap1\n      pop\n        /* \"contracts/token/OUSD.sol\":12666:12686  uint256 creditAmount */\n      0x00\n        /* \"contracts/token/OUSD.sol\":12689:12736  _amount.mulTruncate(_creditsPerToken(_account)) */\n      tag_382\n        /* \"contracts/token/OUSD.sol\":12709:12735  _creditsPerToken(_account) */\n      tag_383\n        /* \"contracts/token/OUSD.sol\":12726:12734  _account */\n      dup8\n        /* \"contracts/token/OUSD.sol\":12709:12725  _creditsPerToken */\n      tag_260\n        /* \"contracts/token/OUSD.sol\":12709:12735  _creditsPerToken(_account) */\n      jump\t// in\n    tag_383:\n        /* \"contracts/token/OUSD.sol\":12689:12696  _amount */\n      dup7\n        /* \"contracts/token/OUSD.sol\":12689:12708  _amount.mulTruncate */\n      tag_353\n      swap1\n        /* \"contracts/token/OUSD.sol\":12689:12736  _amount.mulTruncate(_creditsPerToken(_account)) */\n      swap2\n      swap1\n      0xffffffff\n      and\n      jump\t// in\n    tag_382:\n        /* \"contracts/token/OUSD.sol\":12666:12736  uint256 creditAmount = _amount.mulTruncate(_creditsPerToken(_account)) */\n      swap1\n      pop\n        /* \"contracts/token/OUSD.sol\":12775:12818  _creditBalances[_account].add(creditAmount) */\n      tag_384\n        /* \"contracts/token/OUSD.sol\":12805:12817  creditAmount */\n      dup2\n        /* \"contracts/token/OUSD.sol\":12775:12790  _creditBalances */\n      0x9d\n        /* \"contracts/token/OUSD.sol\":12775:12800  _creditBalances[_account] */\n      0x00\n        /* \"contracts/token/OUSD.sol\":12791:12799  _account */\n      dup10\n        /* \"contracts/token/OUSD.sol\":12775:12800  _creditBalances[_account] */\n      0xffffffffffffffffffffffffffffffffffffffff\n      and\n      0xffffffffffffffffffffffffffffffffffffffff\n      and\n      dup2\n      mstore\n      0x20\n      add\n      swap1\n      dup2\n      mstore\n      0x20\n      add\n      0x00\n      keccak256\n      sload\n        /* \"contracts/token/OUSD.sol\":12775:12804  _creditBalances[_account].add */\n      tag_212\n      swap1\n        /* \"contracts/token/OUSD.sol\":12775:12818  _creditBalances[_account].add(creditAmount) */\n      swap2\n      swap1\n      0xffffffff\n      and\n      jump\t// in\n    tag_384:\n        /* \"contracts/token/OUSD.sol\":12747:12762  _creditBalances */\n      0x9d\n        /* \"contracts/token/OUSD.sol\":12747:12772  _creditBalances[_account] */\n      0x00\n        /* \"contracts/token/OUSD.sol\":12763:12771  _account */\n      dup9\n        /* \"contracts/token/OUSD.sol\":12747:12772  _creditBalances[_account] */\n      0xffffffffffffffffffffffffffffffffffffffff\n      and\n      0xffffffffffffffffffffffffffffffffffffffff\n      and\n      dup2\n      mstore\n      0x20\n      add\n      swap1\n      dup2\n      mstore\n      0x20\n      add\n      0x00\n      keccak256\n        /* \"contracts/token/OUSD.sol\":12747:12818  _creditBalances[_account] = _creditBalances[_account].add(creditAmount) */\n      dup2\n      swap1\n      sstore\n      pop\n        /* \"contracts/token/OUSD.sol\":12983:13003  isNonRebasingAccount */\n      dup2\n        /* \"contracts/token/OUSD.sol\":12979:13168  if (isNonRebasingAccount) {\r... */\n      iszero\n      tag_385\n      jumpi\n        /* \"contracts/token/OUSD.sol\":13040:13070  nonRebasingSupply.add(_amount) */\n      tag_386\n        /* \"contracts/token/OUSD.sol\":13062:13069  _amount */\n      dup6\n        /* \"contracts/token/OUSD.sol\":13040:13057  nonRebasingSupply */\n      sload(0xa0)\n        /* \"contracts/token/OUSD.sol\":13040:13061  nonRebasingSupply.add */\n      tag_212\n      swap1\n        /* \"contracts/token/OUSD.sol\":13040:13070  nonRebasingSupply.add(_amount) */\n      swap2\n      swap1\n      0xffffffff\n      and\n      jump\t// in\n    tag_386:\n        /* \"contracts/token/OUSD.sol\":13020:13037  nonRebasingSupply */\n      0xa0\n        /* \"contracts/token/OUSD.sol\":13020:13070  nonRebasingSupply = nonRebasingSupply.add(_amount) */\n      dup2\n      swap1\n      sstore\n      pop\n        /* \"contracts/token/OUSD.sol\":12979:13168  if (isNonRebasingAccount) {\r... */\n      jump(tag_387)\n    tag_385:\n        /* \"contracts/token/OUSD.sol\":13122:13156  _rebasingCredits.add(creditAmount) */\n      tag_388\n        /* \"contracts/token/OUSD.sol\":13143:13155  creditAmount */\n      dup2\n        /* \"contracts/token/OUSD.sol\":13122:13138  _rebasingCredits */\n      sload(0x9e)\n        /* \"contracts/token/OUSD.sol\":13122:13142  _rebasingCredits.add */\n      tag_212\n      swap1\n        /* \"contracts/token/OUSD.sol\":13122:13156  _rebasingCredits.add(creditAmount) */\n      swap2\n      swap1\n      0xffffffff\n      and\n      jump\t// in\n    tag_388:\n        /* \"contracts/token/OUSD.sol\":13103:13119  _rebasingCredits */\n      0x9e\n        /* \"contracts/token/OUSD.sol\":13103:13156  _rebasingCredits = _rebasingCredits.add(creditAmount) */\n      dup2\n      swap1\n      sstore\n      pop\n        /* \"contracts/token/OUSD.sol\":12979:13168  if (isNonRebasingAccount) {\r... */\n    tag_387:\n        /* \"contracts/token/OUSD.sol\":13195:13220  _totalSupply.add(_amount) */\n      tag_389\n        /* \"contracts/token/OUSD.sol\":13212:13219  _amount */\n      dup6\n        /* \"contracts/token/OUSD.sol\":13195:13207  _totalSupply */\n      sload(0x9a)\n        /* \"contracts/token/OUSD.sol\":13195:13211  _totalSupply.add */\n      tag_212\n      swap1\n        /* \"contracts/token/OUSD.sol\":13195:13220  _totalSupply.add(_amount) */\n      swap2\n      swap1\n      0xffffffff\n      and\n      jump\t// in\n    tag_389:\n        /* \"contracts/token/OUSD.sol\":13180:13192  _totalSupply */\n      0x9a\n        /* \"contracts/token/OUSD.sol\":13180:13220  _totalSupply = _totalSupply.add(_amount) */\n      dup2\n      swap1\n      sstore\n      pop\n        /* \"contracts/token/OUSD.sol\":1295:1296  0 */\n      0x00\n        /* \"contracts/token/OUSD.sol\":1286:1297  ~uint128(0) */\n      not\n        /* \"contracts/token/OUSD.sol\":13256:13266  MAX_SUPPLY */\n      0xffffffffffffffffffffffffffffffff\n      and\n        /* \"contracts/token/OUSD.sol\":13241:13253  _totalSupply */\n      sload(0x9a)\n        /* \"contracts/token/OUSD.sol\":13241:13266  _totalSupply < MAX_SUPPLY */\n      lt\n        /* \"contracts/token/OUSD.sol\":13233:13281  require(_totalSupply < MAX_SUPPLY, \"Max supply\") */\n      tag_390\n      jumpi\n      mload(0x40)\n      0x08c379a000000000000000000000000000000000000000000000000000000000\n      dup2\n      mstore\n      0x04\n      add\n      tag_391\n      swap1\n      tag_392\n      jump\t// in\n    tag_391:\n      mload(0x40)\n      dup1\n      swap2\n      sub\n      swap1\n      revert\n    tag_390:\n        /* \"contracts/token/OUSD.sol\":13320:13328  _account */\n      dup6\n        /* \"contracts/token/OUSD.sol\":13299:13338  Transfer(address(0), _account, _amount) */\n      0xffffffffffffffffffffffffffffffffffffffff\n      and\n        /* \"contracts/token/OUSD.sol\":13316:13317  0 */\n      0x00\n        /* \"contracts/token/OUSD.sol\":13299:13338  Transfer(address(0), _account, _amount) */\n      0xffffffffffffffffffffffffffffffffffffffff\n      and\n      0xddf252ad1be2c89b69c2b068fc378daa952ba7f163c4a11628f55a4df523b3ef\n        /* \"contracts/token/OUSD.sol\":13330:13337  _amount */\n      dup8\n        /* \"contracts/token/OUSD.sol\":13299:13338  Transfer(address(0), _account, _amount) */\n      mload(0x40)\n      tag_393\n      swap2\n      swap1\n      tag_54\n      jump\t// in\n    tag_393:\n      mload(0x40)\n      dup1\n      swap2\n      sub\n      swap1\n      log3\n        /* \"contracts/token/OUSD.sol\":12511:13346  {\r... */\n      pop\n      pop\n        /* \"contracts/governance/Governable.sol\":4003:4015  _NOT_ENTERED */\n      0x01\n        /* \"contracts/governance/Governable.sol\":3993:4001  position */\n      dup3\n        /* \"contracts/governance/Governable.sol\":3986:4016  sstore(position, _NOT_ENTERED) */\n      sstore\n        /* \"contracts/governance/Governable.sol\":3971:4027  {\r... */\n      pop\n      pop\n        /* \"contracts/token/OUSD.sol\":12439:13346  function _mint(address _account, uint256 _amount) internal nonReentrant {\r... */\n      pop\n      pop\n      jump\t// out\n        /* \"contracts/governance/Governable.sol\":2123:2371  function _pendingGovernor()\r... */\n    tag_248:\n        /* \"contracts/governance/Governable.sol\":2201:2224  address pendingGovernor */\n      0x00\n        /* \"contracts/governance/Governable.sol\":2242:2258  bytes32 position */\n      dup1\n        /* \"contracts/governance/Governable.sol\":727:793  0x44c4d30b2eaad5130ad70c3ba6972730566f3e6359ab83e800d905c61b1c51db */\n      0x44c4d30b2eaad5130ad70c3ba6972730566f3e6359ab83e800d905c61b1c51db\n        /* \"contracts/governance/Governable.sol\":2261:2284  pendingGovernorPosition */\n      0x00\n      shl\n        /* \"contracts/governance/Governable.sol\":2242:2284  bytes32 position = pendingGovernorPosition */\n      swap1\n      pop\n        /* \"contracts/governance/Governable.sol\":2344:2352  position */\n      dup1\n        /* \"contracts/governance/Governable.sol\":2338:2353  sload(position) */\n      sload\n        /* \"contracts/governance/Governable.sol\":2319:2353  pendingGovernor := sload(position) */\n      swap2\n      pop\n        /* \"contracts/governance/Governable.sol\":2304:2364  {\r... */\n      pop\n        /* \"contracts/governance/Governable.sol\":2123:2371  function _pendingGovernor()\r... */\n      swap1\n      jump\t// out\n        /* \"contracts/governance/Governable.sol\":5225:5468  function _changeGovernor(address _newGovernor) internal {\r... */\n    tag_253:\n        /* \"contracts/governance/Governable.sol\":5324:5325  0 */\n      0x00\n        /* \"contracts/governance/Governable.sol\":5300:5326  _newGovernor != address(0) */\n      0xffffffffffffffffffffffffffffffffffffffff\n      and\n        /* \"contracts/governance/Governable.sol\":5300:5312  _newGovernor */\n      dup2\n        /* \"contracts/governance/Governable.sol\":5300:5326  _newGovernor != address(0) */\n      0xffffffffffffffffffffffffffffffffffffffff\n      and\n      eq\n      iszero\n        /* \"contracts/governance/Governable.sol\":5292:5357  require(_newGovernor != address(0), \"New Governor is address(0)\") */\n      tag_396\n      jumpi\n      mload(0x40)\n      0x08c379a000000000000000000000000000000000000000000000000000000000\n      dup2\n      mstore\n      0x04\n      add\n      tag_397\n      swap1\n      tag_398\n      jump\t// in\n    tag_397:\n      mload(0x40)\n      dup1\n      swap2\n      sub\n      swap1\n      revert\n    tag_396:\n        /* \"contracts/governance/Governable.sol\":5410:5422  _newGovernor */\n      dup1\n        /* \"contracts/governance/Governable.sol\":5373:5423  GovernorshipTransferred(_governor(), _newGovernor) */\n      0xffffffffffffffffffffffffffffffffffffffff\n      and\n        /* \"contracts/governance/Governable.sol\":5397:5408  _governor() */\n      tag_399\n        /* \"contracts/governance/Governable.sol\":5397:5406  _governor */\n      tag_194\n        /* \"contracts/governance/Governable.sol\":5397:5408  _governor() */\n      jump\t// in\n    tag_399:\n        /* \"contracts/governance/Governable.sol\":5373:5423  GovernorshipTransferred(_governor(), _newGovernor) */\n      0xffffffffffffffffffffffffffffffffffffffff\n      and\n      0xc7c0c772add429241571afb3805861fb3cfa2af374534088b76cdb4325a87e9a\n      mload(0x40)\n      mload(0x40)\n      dup1\n      swap2\n      sub\n      swap1\n      log3\n        /* \"contracts/governance/Governable.sol\":5434:5460  _setGovernor(_newGovernor) */\n      tag_400\n        /* \"contracts/governance/Governable.sol\":5447:5459  _newGovernor */\n      dup2\n        /* \"contracts/governance/Governable.sol\":5434:5446  _setGovernor */\n      tag_401\n        /* \"contracts/governance/Governable.sol\":5434:5460  _setGovernor(_newGovernor) */\n      jump\t// in\n    tag_400:\n        /* \"contracts/governance/Governable.sol\":5225:5468  function _changeGovernor(address _newGovernor) internal {\r... */\n      pop\n      jump\t// out\n        /* \"contracts/token/OUSD.sol\":15369:15676  function _creditsPerToken(address _account)\r... */\n    tag_260:\n        /* \"contracts/token/OUSD.sol\":15463:15470  uint256 */\n      0x00\n        /* \"contracts/token/OUSD.sol\":15532:15533  0 */\n      dup1\n        /* \"contracts/token/OUSD.sol\":15492:15518  nonRebasingCreditsPerToken */\n      0xa1\n        /* \"contracts/token/OUSD.sol\":15492:15528  nonRebasingCreditsPerToken[_account] */\n      0x00\n        /* \"contracts/token/OUSD.sol\":15519:15527  _account */\n      dup5\n        /* \"contracts/token/OUSD.sol\":15492:15528  nonRebasingCreditsPerToken[_account] */\n      0xffffffffffffffffffffffffffffffffffffffff\n      and\n      0xffffffffffffffffffffffffffffffffffffffff\n      and\n      dup2\n      mstore\n      0x20\n      add\n      swap1\n      dup2\n      mstore\n      0x20\n      add\n      0x00\n      keccak256\n      sload\n        /* \"contracts/token/OUSD.sol\":15492:15533  nonRebasingCreditsPerToken[_account] != 0 */\n      eq\n        /* \"contracts/token/OUSD.sol\":15488:15669  if (nonRebasingCreditsPerToken[_account] != 0) {\r... */\n      tag_403\n      jumpi\n        /* \"contracts/token/OUSD.sol\":15557:15583  nonRebasingCreditsPerToken */\n      0xa1\n        /* \"contracts/token/OUSD.sol\":15557:15593  nonRebasingCreditsPerToken[_account] */\n      0x00\n        /* \"contracts/token/OUSD.sol\":15584:15592  _account */\n      dup4\n        /* \"contracts/token/OUSD.sol\":15557:15593  nonRebasingCreditsPerToken[_account] */\n      0xffffffffffffffffffffffffffffffffffffffff\n      and\n      0xffffffffffffffffffffffffffffffffffffffff\n      and\n      dup2\n      mstore\n      0x20\n      add\n      swap1\n      dup2\n      mstore\n      0x20\n      add\n      0x00\n      keccak256\n      sload\n        /* \"contracts/token/OUSD.sol\":15550:15593  return nonRebasingCreditsPerToken[_account] */\n      swap1\n      pop\n      jump(tag_402)\n        /* \"contracts/token/OUSD.sol\":15488:15669  if (nonRebasingCreditsPerToken[_account] != 0) {\r... */\n    tag_403:\n        /* \"contracts/token/OUSD.sol\":15633:15657  _rebasingCreditsPerToken */\n      sload(0x9f)\n        /* \"contracts/token/OUSD.sol\":15626:15657  return _rebasingCreditsPerToken */\n      swap1\n      pop\n        /* \"contracts/token/OUSD.sol\":15369:15676  function _creditsPerToken(address _account)\r... */\n    tag_402:\n      swap2\n      swap1\n      pop\n      jump\t// out\n        /* \"contracts/token/OUSD.sol\":13867:15172  function _burn(address _account, uint256 _amount) internal nonReentrant {\r... */\n    tag_274:\n        /* \"contracts/governance/Governable.sol\":3371:3387  bytes32 position */\n      0x00\n        /* \"contracts/governance/Governable.sol\":902:968  0x53bf423e48ed90e97d02ab0ebab13b2a235a6bfbe9c321847d5c175333ac4535 */\n      0x53bf423e48ed90e97d02ab0ebab13b2a235a6bfbe9c321847d5c175333ac4535\n        /* \"contracts/governance/Governable.sol\":3390:3411  reentryStatusPosition */\n      0x00\n      shl\n        /* \"contracts/governance/Governable.sol\":3371:3411  bytes32 position = reentryStatusPosition */\n      swap1\n      pop\n        /* \"contracts/governance/Governable.sol\":3422:3445  uint256 _reentry_status */\n      0x00\n        /* \"contracts/governance/Governable.sol\":3505:3513  position */\n      dup2\n        /* \"contracts/governance/Governable.sol\":3499:3514  sload(position) */\n      sload\n        /* \"contracts/governance/Governable.sol\":3480:3514  _reentry_status := sload(position) */\n      swap1\n      pop\n        /* \"contracts/governance/Governable.sol\":1101:1102  2 */\n      0x02\n        /* \"contracts/governance/Governable.sol\":3617:3632  _reentry_status */\n      dup2\n        /* \"contracts/governance/Governable.sol\":3617:3644  _reentry_status != _ENTERED */\n      eq\n      iszero\n        /* \"contracts/governance/Governable.sol\":3609:3663  require(_reentry_status != _ENTERED, \"Reentrant call\") */\n      tag_406\n      jumpi\n      mload(0x40)\n      0x08c379a000000000000000000000000000000000000000000000000000000000\n      dup2\n      mstore\n      0x04\n      add\n      tag_407\n      swap1\n      tag_221\n      jump\t// in\n    tag_407:\n      mload(0x40)\n      dup1\n      swap2\n      sub\n      swap1\n      revert\n    tag_406:\n        /* \"contracts/governance/Governable.sol\":3782:3790  _ENTERED */\n      0x02\n        /* \"contracts/governance/Governable.sol\":3772:3780  position */\n      dup3\n        /* \"contracts/governance/Governable.sol\":3765:3791  sstore(position, _ENTERED) */\n      sstore\n        /* \"contracts/token/OUSD.sol\":13978:13979  0 */\n      0x00\n        /* \"contracts/token/OUSD.sol\":13958:13980  _account != address(0) */\n      0xffffffffffffffffffffffffffffffffffffffff\n      and\n        /* \"contracts/token/OUSD.sol\":13958:13966  _account */\n      dup5\n        /* \"contracts/token/OUSD.sol\":13958:13980  _account != address(0) */\n      0xffffffffffffffffffffffffffffffffffffffff\n      and\n      eq\n      iszero\n        /* \"contracts/token/OUSD.sol\":13950:14011  require(_account != address(0), \"Burn from the zero address\") */\n      tag_409\n      jumpi\n      mload(0x40)\n      0x08c379a000000000000000000000000000000000000000000000000000000000\n      dup2\n      mstore\n      0x04\n      add\n      tag_410\n      swap1\n      tag_411\n      jump\t// in\n    tag_410:\n      mload(0x40)\n      dup1\n      swap2\n      sub\n      swap1\n      revert\n    tag_409:\n        /* \"contracts/token/OUSD.sol\":14037:14038  0 */\n      0x00\n        /* \"contracts/token/OUSD.sol\":14026:14033  _amount */\n      dup4\n        /* \"contracts/token/OUSD.sol\":14026:14038  _amount == 0 */\n      eq\n        /* \"contracts/token/OUSD.sol\":14022:14073  if (_amount == 0) {\r... */\n      iszero\n      tag_412\n      jumpi\n        /* \"contracts/token/OUSD.sol\":14055:14062  return; */\n      jump(tag_408)\n        /* \"contracts/token/OUSD.sol\":14022:14073  if (_amount == 0) {\r... */\n    tag_412:\n        /* \"contracts/token/OUSD.sol\":14085:14110  bool isNonRebasingAccount */\n      0x00\n        /* \"contracts/token/OUSD.sol\":14113:14144  _isNonRebasingAccount(_account) */\n      tag_413\n        /* \"contracts/token/OUSD.sol\":14135:14143  _account */\n      dup6\n        /* \"contracts/token/OUSD.sol\":14113:14134  _isNonRebasingAccount */\n      tag_293\n        /* \"contracts/token/OUSD.sol\":14113:14144  _isNonRebasingAccount(_account) */\n      jump\t// in\n    tag_413:\n        /* \"contracts/token/OUSD.sol\":14085:14144  bool isNonRebasingAccount = _isNonRebasingAccount(_account) */\n      swap1\n      pop\n        /* \"contracts/token/OUSD.sol\":14155:14175  uint256 creditAmount */\n      0x00\n        /* \"contracts/token/OUSD.sol\":14178:14225  _amount.mulTruncate(_creditsPerToken(_account)) */\n      tag_414\n        /* \"contracts/token/OUSD.sol\":14198:14224  _creditsPerToken(_account) */\n      tag_415\n        /* \"contracts/token/OUSD.sol\":14215:14223  _account */\n      dup8\n        /* \"contracts/token/OUSD.sol\":14198:14214  _creditsPerToken */\n      tag_260\n        /* \"contracts/token/OUSD.sol\":14198:14224  _creditsPerToken(_account) */\n      jump\t// in\n    tag_415:\n        /* \"contracts/token/OUSD.sol\":14178:14185  _amount */\n      dup7\n        /* \"contracts/token/OUSD.sol\":14178:14197  _amount.mulTruncate */\n      tag_353\n      swap1\n        /* \"contracts/token/OUSD.sol\":14178:14225  _amount.mulTruncate(_creditsPerToken(_account)) */\n      swap2\n      swap1\n      0xffffffff\n      and\n      jump\t// in\n    tag_414:\n        /* \"contracts/token/OUSD.sol\":14155:14225  uint256 creditAmount = _amount.mulTruncate(_creditsPerToken(_account)) */\n      swap1\n      pop\n        /* \"contracts/token/OUSD.sol\":14236:14258  uint256 currentCredits */\n      0x00\n        /* \"contracts/token/OUSD.sol\":14261:14276  _creditBalances */\n      0x9d\n        /* \"contracts/token/OUSD.sol\":14261:14286  _creditBalances[_account] */\n      0x00\n        /* \"contracts/token/OUSD.sol\":14277:14285  _account */\n      dup9\n        /* \"contracts/token/OUSD.sol\":14261:14286  _creditBalances[_account] */\n      0xffffffffffffffffffffffffffffffffffffffff\n      and\n      0xffffffffffffffffffffffffffffffffffffffff\n      and\n      dup2\n      mstore\n      0x20\n      add\n      swap1\n      dup2\n      mstore\n      0x20\n      add\n      0x00\n      keccak256\n      sload\n        /* \"contracts/token/OUSD.sol\":14236:14286  uint256 currentCredits = _creditBalances[_account] */\n      swap1\n      pop\n        /* \"contracts/token/OUSD.sol\":14391:14403  creditAmount */\n      dup2\n        /* \"contracts/token/OUSD.sol\":14373:14387  currentCredits */\n      dup2\n        /* \"contracts/token/OUSD.sol\":14373:14403  currentCredits == creditAmount */\n      eq\n        /* \"contracts/token/OUSD.sol\":14373:14441  currentCredits == creditAmount || currentCredits - 1 == creditAmount */\n      dup1\n      tag_416\n      jumpi\n      pop\n        /* \"contracts/token/OUSD.sol\":14429:14441  creditAmount */\n      dup2\n        /* \"contracts/token/OUSD.sol\":14424:14425  1 */\n      0x01\n        /* \"contracts/token/OUSD.sol\":14407:14421  currentCredits */\n      dup3\n        /* \"contracts/token/OUSD.sol\":14407:14425  currentCredits - 1 */\n      tag_417\n      swap2\n      swap1\n      tag_347\n      jump\t// in\n    tag_417:\n        /* \"contracts/token/OUSD.sol\":14407:14441  currentCredits - 1 == creditAmount */\n      eq\n        /* \"contracts/token/OUSD.sol\":14373:14441  currentCredits == creditAmount || currentCredits - 1 == creditAmount */\n    tag_416:\n        /* \"contracts/token/OUSD.sol\":14355:14787  if (\r... */\n      iszero\n      tag_418\n      jumpi\n        /* \"contracts/token/OUSD.sol\":14538:14539  0 */\n      0x00\n        /* \"contracts/token/OUSD.sol\":14510:14525  _creditBalances */\n      0x9d\n        /* \"contracts/token/OUSD.sol\":14510:14535  _creditBalances[_account] */\n      0x00\n        /* \"contracts/token/OUSD.sol\":14526:14534  _account */\n      dup10\n        /* \"contracts/token/OUSD.sol\":14510:14535  _creditBalances[_account] */\n      0xffffffffffffffffffffffffffffffffffffffff\n      and\n      0xffffffffffffffffffffffffffffffffffffffff\n      and\n      dup2\n      mstore\n      0x20\n      add\n      swap1\n      dup2\n      mstore\n      0x20\n      add\n      0x00\n      keccak256\n        /* \"contracts/token/OUSD.sol\":14510:14539  _creditBalances[_account] = 0 */\n      dup2\n      swap1\n      sstore\n      pop\n        /* \"contracts/token/OUSD.sol\":14355:14787  if (\r... */\n      jump(tag_419)\n    tag_418:\n        /* \"contracts/token/OUSD.sol\":14578:14590  creditAmount */\n      dup2\n        /* \"contracts/token/OUSD.sol\":14561:14575  currentCredits */\n      dup2\n        /* \"contracts/token/OUSD.sol\":14561:14590  currentCredits > creditAmount */\n      gt\n        /* \"contracts/token/OUSD.sol\":14557:14787  if (currentCredits > creditAmount) {\r... */\n      iszero\n      tag_420\n      jumpi\n        /* \"contracts/token/OUSD.sol\":14635:14710  _creditBalances[_account].sub(\r... */\n      tag_421\n        /* \"contracts/token/OUSD.sol\":14683:14695  creditAmount */\n      dup3\n        /* \"contracts/token/OUSD.sol\":14635:14650  _creditBalances */\n      0x9d\n        /* \"contracts/token/OUSD.sol\":14635:14660  _creditBalances[_account] */\n      0x00\n        /* \"contracts/token/OUSD.sol\":14651:14659  _account */\n      dup11\n        /* \"contracts/token/OUSD.sol\":14635:14660  _creditBalances[_account] */\n      0xffffffffffffffffffffffffffffffffffffffff\n      and\n      0xffffffffffffffffffffffffffffffffffffffff\n      and\n      dup2\n      mstore\n      0x20\n      add\n      swap1\n      dup2\n      mstore\n      0x20\n      add\n      0x00\n      keccak256\n      sload\n        /* \"contracts/token/OUSD.sol\":14635:14664  _creditBalances[_account].sub */\n      tag_205\n      swap1\n        /* \"contracts/token/OUSD.sol\":14635:14710  _creditBalances[_account].sub(\r... */\n      swap2\n      swap1\n      0xffffffff\n      and\n      jump\t// in\n    tag_421:\n        /* \"contracts/token/OUSD.sol\":14607:14622  _creditBalances */\n      0x9d\n        /* \"contracts/token/OUSD.sol\":14607:14632  _creditBalances[_account] */\n      0x00\n        /* \"contracts/token/OUSD.sol\":14623:14631  _account */\n      dup10\n        /* \"contracts/token/OUSD.sol\":14607:14632  _creditBalances[_account] */\n      0xffffffffffffffffffffffffffffffffffffffff\n      and\n      0xffffffffffffffffffffffffffffffffffffffff\n      and\n      dup2\n      mstore\n      0x20\n      add\n      swap1\n      dup2\n      mstore\n      0x20\n      add\n      0x00\n      keccak256\n        /* \"contracts/token/OUSD.sol\":14607:14710  _creditBalances[_account] = _creditBalances[_account].sub(\r... */\n      dup2\n      swap1\n      sstore\n      pop\n        /* \"contracts/token/OUSD.sol\":14557:14787  if (currentCredits > creditAmount) {\r... */\n      jump(tag_422)\n    tag_420:\n        /* \"contracts/token/OUSD.sol\":14743:14775  revert(\"Remove exceeds balance\") */\n      mload(0x40)\n      0x08c379a000000000000000000000000000000000000000000000000000000000\n      dup2\n      mstore\n      0x04\n      add\n      tag_423\n      swap1\n      tag_424\n      jump\t// in\n    tag_423:\n      mload(0x40)\n      dup1\n      swap2\n      sub\n      swap1\n      revert\n        /* \"contracts/token/OUSD.sol\":14557:14787  if (currentCredits > creditAmount) {\r... */\n    tag_422:\n        /* \"contracts/token/OUSD.sol\":14355:14787  if (\r... */\n    tag_419:\n        /* \"contracts/token/OUSD.sol\":14870:14890  isNonRebasingAccount */\n      dup3\n        /* \"contracts/token/OUSD.sol\":14866:15055  if (isNonRebasingAccount) {\r... */\n      iszero\n      tag_425\n      jumpi\n        /* \"contracts/token/OUSD.sol\":14927:14957  nonRebasingSupply.sub(_amount) */\n      tag_426\n        /* \"contracts/token/OUSD.sol\":14949:14956  _amount */\n      dup7\n        /* \"contracts/token/OUSD.sol\":14927:14944  nonRebasingSupply */\n      sload(0xa0)\n        /* \"contracts/token/OUSD.sol\":14927:14948  nonRebasingSupply.sub */\n      tag_205\n      swap1\n        /* \"contracts/token/OUSD.sol\":14927:14957  nonRebasingSupply.sub(_amount) */\n      swap2\n      swap1\n      0xffffffff\n      and\n      jump\t// in\n    tag_426:\n        /* \"contracts/token/OUSD.sol\":14907:14924  nonRebasingSupply */\n      0xa0\n        /* \"contracts/token/OUSD.sol\":14907:14957  nonRebasingSupply = nonRebasingSupply.sub(_amount) */\n      dup2\n      swap1\n      sstore\n      pop\n        /* \"contracts/token/OUSD.sol\":14866:15055  if (isNonRebasingAccount) {\r... */\n      jump(tag_427)\n    tag_425:\n        /* \"contracts/token/OUSD.sol\":15009:15043  _rebasingCredits.sub(creditAmount) */\n      tag_428\n        /* \"contracts/token/OUSD.sol\":15030:15042  creditAmount */\n      dup3\n        /* \"contracts/token/OUSD.sol\":15009:15025  _rebasingCredits */\n      sload(0x9e)\n        /* \"contracts/token/OUSD.sol\":15009:15029  _rebasingCredits.sub */\n      tag_205\n      swap1\n        /* \"contracts/token/OUSD.sol\":15009:15043  _rebasingCredits.sub(creditAmount) */\n      swap2\n      swap1\n      0xffffffff\n      and\n      jump\t// in\n    tag_428:\n        /* \"contracts/token/OUSD.sol\":14990:15006  _rebasingCredits */\n      0x9e\n        /* \"contracts/token/OUSD.sol\":14990:15043  _rebasingCredits = _rebasingCredits.sub(creditAmount) */\n      dup2\n      swap1\n      sstore\n      pop\n        /* \"contracts/token/OUSD.sol\":14866:15055  if (isNonRebasingAccount) {\r... */\n    tag_427:\n        /* \"contracts/token/OUSD.sol\":15082:15107  _totalSupply.sub(_amount) */\n      tag_429\n        /* \"contracts/token/OUSD.sol\":15099:15106  _amount */\n      dup7\n        /* \"contracts/token/OUSD.sol\":15082:15094  _totalSupply */\n      sload(0x9a)\n        /* \"contracts/token/OUSD.sol\":15082:15098  _totalSupply.sub */\n      tag_205\n      swap1\n        /* \"contracts/token/OUSD.sol\":15082:15107  _totalSupply.sub(_amount) */\n      swap2\n      swap1\n      0xffffffff\n      and\n      jump\t// in\n    tag_429:\n        /* \"contracts/token/OUSD.sol\":15067:15079  _totalSupply */\n      0x9a\n        /* \"contracts/token/OUSD.sol\":15067:15107  _totalSupply = _totalSupply.sub(_amount) */\n      dup2\n      swap1\n      sstore\n      pop\n        /* \"contracts/token/OUSD.sol\":15152:15153  0 */\n      0x00\n        /* \"contracts/token/OUSD.sol\":15125:15164  Transfer(_account, address(0), _amount) */\n      0xffffffffffffffffffffffffffffffffffffffff\n      and\n        /* \"contracts/token/OUSD.sol\":15134:15142  _account */\n      dup8\n        /* \"contracts/token/OUSD.sol\":15125:15164  Transfer(_account, address(0), _amount) */\n      0xffffffffffffffffffffffffffffffffffffffff\n      and\n      0xddf252ad1be2c89b69c2b068fc378daa952ba7f163c4a11628f55a4df523b3ef\n        /* \"contracts/token/OUSD.sol\":15156:15163  _amount */\n      dup9\n        /* \"contracts/token/OUSD.sol\":15125:15164  Transfer(_account, address(0), _amount) */\n      mload(0x40)\n      tag_430\n      swap2\n      swap1\n      tag_54\n      jump\t// in\n    tag_430:\n      mload(0x40)\n      dup1\n      swap2\n      sub\n      swap1\n      log3\n        /* \"contracts/token/OUSD.sol\":13939:15172  {\r... */\n      pop\n      pop\n      pop\n        /* \"contracts/governance/Governable.sol\":3814:3815  _ */\n    tag_408:\n        /* \"contracts/governance/Governable.sol\":4003:4015  _NOT_ENTERED */\n      0x01\n        /* \"contracts/governance/Governable.sol\":3993:4001  position */\n      dup3\n        /* \"contracts/governance/Governable.sol\":3986:4016  sstore(position, _NOT_ENTERED) */\n      sstore\n        /* \"contracts/governance/Governable.sol\":3971:4027  {\r... */\n      pop\n      pop\n        /* \"contracts/token/OUSD.sol\":13867:15172  function _burn(address _account, uint256 _amount) internal nonReentrant {\r... */\n      pop\n      pop\n      jump\t// out\n        /* \"contracts/token/OUSD.sol\":15911:16243  function _isNonRebasingAccount(address _account) internal returns (bool) {\r... */\n    tag_293:\n        /* \"contracts/token/OUSD.sol\":15978:15982  bool */\n      0x00\n        /* \"contracts/token/OUSD.sol\":15995:16010  bool isContract */\n      dup1\n        /* \"contracts/token/OUSD.sol\":16013:16041  Address.isContract(_account) */\n      tag_432\n        /* \"contracts/token/OUSD.sol\":16032:16040  _account */\n      dup4\n        /* \"contracts/token/OUSD.sol\":16013:16031  Address.isContract */\n      tag_433\n        /* \"contracts/token/OUSD.sol\":16013:16041  Address.isContract(_account) */\n      jump\t// in\n    tag_432:\n        /* \"contracts/token/OUSD.sol\":15995:16041  bool isContract = Address.isContract(_account) */\n      swap1\n      pop\n        /* \"contracts/token/OUSD.sol\":16056:16066  isContract */\n      dup1\n        /* \"contracts/token/OUSD.sol\":16056:16115  isContract && rebaseState[_account] == RebaseOptions.NotSet */\n      dup1\n      iszero\n      tag_434\n      jumpi\n      pop\n        /* \"contracts/token/OUSD.sol\":16095:16115  RebaseOptions.NotSet */\n      0x00\n        /* \"contracts/token/OUSD.sol\":16070:16115  rebaseState[_account] == RebaseOptions.NotSet */\n      0x02\n      dup2\n      gt\n      iszero\n      tag_435\n      jumpi\n      tag_436\n      tag_302\n      jump\t// in\n    tag_436:\n    tag_435:\n        /* \"contracts/token/OUSD.sol\":16070:16081  rebaseState */\n      0xa2\n        /* \"contracts/token/OUSD.sol\":16070:16091  rebaseState[_account] */\n      0x00\n        /* \"contracts/token/OUSD.sol\":16082:16090  _account */\n      dup6\n        /* \"contracts/token/OUSD.sol\":16070:16091  rebaseState[_account] */\n      0xffffffffffffffffffffffffffffffffffffffff\n      and\n      0xffffffffffffffffffffffffffffffffffffffff\n      and\n      dup2\n      mstore\n      0x20\n      add\n      swap1\n      dup2\n      mstore\n      0x20\n      add\n      0x00\n      keccak256\n      0x00\n      swap1\n      sload\n      swap1\n      0x0100\n      exp\n      swap1\n      div\n      0xff\n      and\n        /* \"contracts/token/OUSD.sol\":16070:16115  rebaseState[_account] == RebaseOptions.NotSet */\n      0x02\n      dup2\n      gt\n      iszero\n      tag_437\n      jumpi\n      tag_438\n      tag_302\n      jump\t// in\n    tag_438:\n    tag_437:\n      eq\n        /* \"contracts/token/OUSD.sol\":16056:16115  isContract && rebaseState[_account] == RebaseOptions.NotSet */\n    tag_434:\n        /* \"contracts/token/OUSD.sol\":16052:16178  if (isContract && rebaseState[_account] == RebaseOptions.NotSet) {\r... */\n      iszero\n      tag_439\n      jumpi\n        /* \"contracts/token/OUSD.sol\":16132:16166  _ensureRebasingMigration(_account) */\n      tag_440\n        /* \"contracts/token/OUSD.sol\":16157:16165  _account */\n      dup4\n        /* \"contracts/token/OUSD.sol\":16132:16156  _ensureRebasingMigration */\n      tag_441\n        /* \"contracts/token/OUSD.sol\":16132:16166  _ensureRebasingMigration(_account) */\n      jump\t// in\n    tag_440:\n        /* \"contracts/token/OUSD.sol\":16052:16178  if (isContract && rebaseState[_account] == RebaseOptions.NotSet) {\r... */\n    tag_439:\n        /* \"contracts/token/OUSD.sol\":16234:16235  0 */\n      0x00\n        /* \"contracts/token/OUSD.sol\":16195:16221  nonRebasingCreditsPerToken */\n      0xa1\n        /* \"contracts/token/OUSD.sol\":16195:16231  nonRebasingCreditsPerToken[_account] */\n      0x00\n        /* \"contracts/token/OUSD.sol\":16222:16230  _account */\n      dup6\n        /* \"contracts/token/OUSD.sol\":16195:16231  nonRebasingCreditsPerToken[_account] */\n      0xffffffffffffffffffffffffffffffffffffffff\n      and\n      0xffffffffffffffffffffffffffffffffffffffff\n      and\n      dup2\n      mstore\n      0x20\n      add\n      swap1\n      dup2\n      mstore\n      0x20\n      add\n      0x00\n      keccak256\n      sload\n        /* \"contracts/token/OUSD.sol\":16195:16235  nonRebasingCreditsPerToken[_account] > 0 */\n      gt\n        /* \"contracts/token/OUSD.sol\":16188:16235  return nonRebasingCreditsPerToken[_account] > 0 */\n      swap2\n      pop\n      pop\n        /* \"contracts/token/OUSD.sol\":15911:16243  function _isNonRebasingAccount(address _account) internal returns (bool) {\r... */\n      swap2\n      swap1\n      pop\n      jump\t// out\n        /* \"contracts/governance/Governable.sol\":4042:4236  function _setPendingGovernor(address newGovernor) internal {\r... */\n    tag_311:\n        /* \"contracts/governance/Governable.sol\":4112:4128  bytes32 position */\n      0x00\n        /* \"contracts/governance/Governable.sol\":727:793  0x44c4d30b2eaad5130ad70c3ba6972730566f3e6359ab83e800d905c61b1c51db */\n      0x44c4d30b2eaad5130ad70c3ba6972730566f3e6359ab83e800d905c61b1c51db\n        /* \"contracts/governance/Governable.sol\":4131:4154  pendingGovernorPosition */\n      0x00\n      shl\n        /* \"contracts/governance/Governable.sol\":4112:4154  bytes32 position = pendingGovernorPosition */\n      swap1\n      pop\n        /* \"contracts/governance/Governable.sol\":4206:4217  newGovernor */\n      dup2\n        /* \"contracts/governance/Governable.sol\":4196:4204  position */\n      dup2\n        /* \"contracts/governance/Governable.sol\":4189:4218  sstore(position, newGovernor) */\n      sstore\n        /* \"contracts/governance/Governable.sol\":4174:4229  {\r... */\n      pop\n        /* \"contracts/governance/Governable.sol\":4042:4236  function _setPendingGovernor(address newGovernor) internal {\r... */\n      pop\n      jump\t// out\n        /* \"@openzeppelin/contracts/utils/math/SafeMath.sol\":3451:3547  function mul(uint256 a, uint256 b) internal pure returns (uint256) {... */\n    tag_327:\n        /* \"@openzeppelin/contracts/utils/math/SafeMath.sol\":3509:3516  uint256 */\n      0x00\n        /* \"@openzeppelin/contracts/utils/math/SafeMath.sol\":3539:3540  b */\n      dup2\n        /* \"@openzeppelin/contracts/utils/math/SafeMath.sol\":3535:3536  a */\n      dup4\n        /* \"@openzeppelin/contracts/utils/math/SafeMath.sol\":3535:3540  a * b */\n      tag_444\n      swap2\n      swap1\n      tag_445\n      jump\t// in\n    tag_444:\n        /* \"@openzeppelin/contracts/utils/math/SafeMath.sol\":3528:3540  return a * b */\n      swap1\n      pop\n        /* \"@openzeppelin/contracts/utils/math/SafeMath.sol\":3451:3547  function mul(uint256 a, uint256 b) internal pure returns (uint256) {... */\n      swap3\n      swap2\n      pop\n      pop\n      jump\t// out\n        /* \"@openzeppelin/contracts/utils/math/SafeMath.sol\":3836:3932  function div(uint256 a, uint256 b) internal pure returns (uint256) {... */\n    tag_328:\n        /* \"@openzeppelin/contracts/utils/math/SafeMath.sol\":3894:3901  uint256 */\n      0x00\n        /* \"@openzeppelin/contracts/utils/math/SafeMath.sol\":3924:3925  b */\n      dup2\n        /* \"@openzeppelin/contracts/utils/math/SafeMath.sol\":3920:3921  a */\n      dup4\n        /* \"@openzeppelin/contracts/utils/math/SafeMath.sol\":3920:3925  a / b */\n      tag_447\n      swap2\n      swap1\n      tag_189\n      jump\t// in\n    tag_447:\n        /* \"@openzeppelin/contracts/utils/math/SafeMath.sol\":3913:3925  return a / b */\n      swap1\n      pop\n        /* \"@openzeppelin/contracts/utils/math/SafeMath.sol\":3836:3932  function div(uint256 a, uint256 b) internal pure returns (uint256) {... */\n      swap3\n      swap2\n      pop\n      pop\n      jump\t// out\n        /* \"contracts/utils/StableMath.sol\":1560:1695  function mulTruncate(uint256 x, uint256 y) internal pure returns (uint256) {\r... */\n    tag_353:\n        /* \"contracts/utils/StableMath.sol\":1626:1633  uint256 */\n      0x00\n        /* \"contracts/utils/StableMath.sol\":1653:1687  mulTruncateScale(x, y, FULL_SCALE) */\n      tag_449\n        /* \"contracts/utils/StableMath.sol\":1670:1671  x */\n      dup4\n        /* \"contracts/utils/StableMath.sol\":1673:1674  y */\n      dup4\n        /* \"contracts/utils/StableMath.sol\":526:530  1e18 */\n      0x0de0b6b3a7640000\n        /* \"contracts/utils/StableMath.sol\":1653:1669  mulTruncateScale */\n      tag_450\n        /* \"contracts/utils/StableMath.sol\":1653:1687  mulTruncateScale(x, y, FULL_SCALE) */\n      jump\t// in\n    tag_449:\n        /* \"contracts/utils/StableMath.sol\":1646:1687  return mulTruncateScale(x, y, FULL_SCALE) */\n      swap1\n      pop\n        /* \"contracts/utils/StableMath.sol\":1560:1695  function mulTruncate(uint256 x, uint256 y) internal pure returns (uint256) {\r... */\n      swap3\n      swap2\n      pop\n      pop\n      jump\t// out\n        /* \"@openzeppelin/contracts/utils/math/SafeMath.sol\":4945:5176  function sub(... */\n    tag_357:\n        /* \"@openzeppelin/contracts/utils/math/SafeMath.sol\":5061:5068  uint256 */\n      0x00\n        /* \"@openzeppelin/contracts/utils/math/SafeMath.sol\":5117:5118  a */\n      dup4\n        /* \"@openzeppelin/contracts/utils/math/SafeMath.sol\":5112:5113  b */\n      dup4\n        /* \"@openzeppelin/contracts/utils/math/SafeMath.sol\":5112:5118  b <= a */\n      gt\n      iszero\n        /* \"@openzeppelin/contracts/utils/math/SafeMath.sol\":5120:5132  errorMessage */\n      dup3\n        /* \"@openzeppelin/contracts/utils/math/SafeMath.sol\":5104:5133  require(b <= a, errorMessage) */\n      swap1\n      tag_452\n      jumpi\n      mload(0x40)\n      0x08c379a000000000000000000000000000000000000000000000000000000000\n      dup2\n      mstore\n      0x04\n      add\n      tag_453\n      swap2\n      swap1\n      tag_46\n      jump\t// in\n    tag_453:\n      mload(0x40)\n      dup1\n      swap2\n      sub\n      swap1\n      revert\n    tag_452:\n      pop\n        /* \"@openzeppelin/contracts/utils/math/SafeMath.sol\":5158:5159  b */\n      dup3\n        /* \"@openzeppelin/contracts/utils/math/SafeMath.sol\":5154:5155  a */\n      dup5\n        /* \"@openzeppelin/contracts/utils/math/SafeMath.sol\":5154:5159  a - b */\n      sub\n        /* \"@openzeppelin/contracts/utils/math/SafeMath.sol\":5147:5159  return a - b */\n      swap1\n      pop\n        /* \"@openzeppelin/contracts/utils/math/SafeMath.sol\":4945:5176  function sub(... */\n      swap4\n      swap3\n      pop\n      pop\n      pop\n      jump\t// out\n        /* \"contracts/governance/Governable.sol\":2772:2952  function _setGovernor(address newGovernor) internal {\r... */\n    tag_401:\n        /* \"contracts/governance/Governable.sol\":2835:2851  bytes32 position */\n      0x00\n        /* \"contracts/governance/Governable.sol\":548:614  0x7bea13895fa79d2831e0a9e28edede30099005a50d652d8957cf8a607ee6ca4a */\n      0x7bea13895fa79d2831e0a9e28edede30099005a50d652d8957cf8a607ee6ca4a\n        /* \"contracts/governance/Governable.sol\":2854:2870  governorPosition */\n      0x00\n      shl\n        /* \"contracts/governance/Governable.sol\":2835:2870  bytes32 position = governorPosition */\n      swap1\n      pop\n        /* \"contracts/governance/Governable.sol\":2922:2933  newGovernor */\n      dup2\n        /* \"contracts/governance/Governable.sol\":2912:2920  position */\n      dup2\n        /* \"contracts/governance/Governable.sol\":2905:2934  sstore(position, newGovernor) */\n      sstore\n        /* \"contracts/governance/Governable.sol\":2890:2945  {\r... */\n      pop\n        /* \"contracts/governance/Governable.sol\":2772:2952  function _setGovernor(address newGovernor) internal {\r... */\n      pop\n      jump\t// out\n        /* \"@openzeppelin/contracts/utils/Address.sol\":771:1148  function isContract(address account) internal view returns (bool) {... */\n    tag_433:\n        /* \"@openzeppelin/contracts/utils/Address.sol\":831:835  bool */\n      0x00\n        /* \"@openzeppelin/contracts/utils/Address.sol\":1034:1046  uint256 size */\n      dup1\n        /* \"@openzeppelin/contracts/utils/Address.sol\":1099:1106  account */\n      dup3\n        /* \"@openzeppelin/contracts/utils/Address.sol\":1087:1107  extcodesize(account) */\n      extcodesize\n        /* \"@openzeppelin/contracts/utils/Address.sol\":1079:1107  size := extcodesize(account) */\n      swap1\n      pop\n        /* \"@openzeppelin/contracts/utils/Address.sol\":1140:1141  0 */\n      0x00\n        /* \"@openzeppelin/contracts/utils/Address.sol\":1133:1137  size */\n      dup2\n        /* \"@openzeppelin/contracts/utils/Address.sol\":1133:1141  size > 0 */\n      gt\n        /* \"@openzeppelin/contracts/utils/Address.sol\":1126:1141  return size > 0 */\n      swap2\n      pop\n      pop\n        /* \"@openzeppelin/contracts/utils/Address.sol\":771:1148  function isContract(address account) internal view returns (bool) {... */\n      swap2\n      swap1\n      pop\n      jump\t// out\n        /* \"contracts/token/OUSD.sol\":16425:17366  function _ensureRebasingMigration(address _account) internal {\r... */\n    tag_441:\n        /* \"contracts/token/OUSD.sol\":16541:16542  0 */\n      0x00\n        /* \"contracts/token/OUSD.sol\":16501:16527  nonRebasingCreditsPerToken */\n      0xa1\n        /* \"contracts/token/OUSD.sol\":16501:16537  nonRebasingCreditsPerToken[_account] */\n      0x00\n        /* \"contracts/token/OUSD.sol\":16528:16536  _account */\n      dup4\n        /* \"contracts/token/OUSD.sol\":16501:16537  nonRebasingCreditsPerToken[_account] */\n      0xffffffffffffffffffffffffffffffffffffffff\n      and\n      0xffffffffffffffffffffffffffffffffffffffff\n      and\n      dup2\n      mstore\n      0x20\n      add\n      swap1\n      dup2\n      mstore\n      0x20\n      add\n      0x00\n      keccak256\n      sload\n        /* \"contracts/token/OUSD.sol\":16501:16542  nonRebasingCreditsPerToken[_account] == 0 */\n      eq\n        /* \"contracts/token/OUSD.sol\":16497:17359  if (nonRebasingCreditsPerToken[_account] == 0) {\r... */\n      iszero\n      tag_457\n      jumpi\n        /* \"contracts/token/OUSD.sol\":16592:16593  0 */\n      0x00\n        /* \"contracts/token/OUSD.sol\":16563:16578  _creditBalances */\n      0x9d\n        /* \"contracts/token/OUSD.sol\":16563:16588  _creditBalances[_account] */\n      0x00\n        /* \"contracts/token/OUSD.sol\":16579:16587  _account */\n      dup4\n        /* \"contracts/token/OUSD.sol\":16563:16588  _creditBalances[_account] */\n      0xffffffffffffffffffffffffffffffffffffffff\n      and\n      0xffffffffffffffffffffffffffffffffffffffff\n      and\n      dup2\n      mstore\n      0x20\n      add\n      swap1\n      dup2\n      mstore\n      0x20\n      add\n      0x00\n      keccak256\n      sload\n        /* \"contracts/token/OUSD.sol\":16563:16593  _creditBalances[_account] == 0 */\n      eq\n        /* \"contracts/token/OUSD.sol\":16559:17348  if (_creditBalances[_account] == 0) {\r... */\n      iszero\n      tag_458\n      jumpi\n        /* \"contracts/token/OUSD.sol\":16813:16817  1e27 */\n      0x033b2e3c9fd0803ce8000000\n        /* \"contracts/token/OUSD.sol\":16774:16800  nonRebasingCreditsPerToken */\n      0xa1\n        /* \"contracts/token/OUSD.sol\":16774:16810  nonRebasingCreditsPerToken[_account] */\n      0x00\n        /* \"contracts/token/OUSD.sol\":16801:16809  _account */\n      dup4\n        /* \"contracts/token/OUSD.sol\":16774:16810  nonRebasingCreditsPerToken[_account] */\n      0xffffffffffffffffffffffffffffffffffffffff\n      and\n      0xffffffffffffffffffffffffffffffffffffffff\n      and\n      dup2\n      mstore\n      0x20\n      add\n      swap1\n      dup2\n      mstore\n      0x20\n      add\n      0x00\n      keccak256\n        /* \"contracts/token/OUSD.sol\":16774:16817  nonRebasingCreditsPerToken[_account] = 1e27 */\n      dup2\n      swap1\n      sstore\n      pop\n        /* \"contracts/token/OUSD.sol\":16559:17348  if (_creditBalances[_account] == 0) {\r... */\n      jump(tag_459)\n    tag_458:\n        /* \"contracts/token/OUSD.sol\":17013:17037  _rebasingCreditsPerToken */\n      sload(0x9f)\n        /* \"contracts/token/OUSD.sol\":16974:17000  nonRebasingCreditsPerToken */\n      0xa1\n        /* \"contracts/token/OUSD.sol\":16974:17010  nonRebasingCreditsPerToken[_account] */\n      0x00\n        /* \"contracts/token/OUSD.sol\":17001:17009  _account */\n      dup4\n        /* \"contracts/token/OUSD.sol\":16974:17010  nonRebasingCreditsPerToken[_account] */\n      0xffffffffffffffffffffffffffffffffffffffff\n      and\n      0xffffffffffffffffffffffffffffffffffffffff\n      and\n      dup2\n      mstore\n      0x20\n      add\n      swap1\n      dup2\n      mstore\n      0x20\n      add\n      0x00\n      keccak256\n        /* \"contracts/token/OUSD.sol\":16974:17037  nonRebasingCreditsPerToken[_account] = _rebasingCreditsPerToken */\n      dup2\n      swap1\n      sstore\n      pop\n        /* \"contracts/token/OUSD.sol\":17123:17165  nonRebasingSupply.add(balanceOf(_account)) */\n      tag_460\n        /* \"contracts/token/OUSD.sol\":17145:17164  balanceOf(_account) */\n      tag_461\n        /* \"contracts/token/OUSD.sol\":17155:17163  _account */\n      dup3\n        /* \"contracts/token/OUSD.sol\":17145:17154  balanceOf */\n      tag_111\n        /* \"contracts/token/OUSD.sol\":17145:17164  balanceOf(_account) */\n      jump\t// in\n    tag_461:\n        /* \"contracts/token/OUSD.sol\":17123:17140  nonRebasingSupply */\n      sload(0xa0)\n        /* \"contracts/token/OUSD.sol\":17123:17144  nonRebasingSupply.add */\n      tag_212\n      swap1\n        /* \"contracts/token/OUSD.sol\":17123:17165  nonRebasingSupply.add(balanceOf(_account)) */\n      swap2\n      swap1\n      0xffffffff\n      and\n      jump\t// in\n    tag_460:\n        /* \"contracts/token/OUSD.sol\":17103:17120  nonRebasingSupply */\n      0xa0\n        /* \"contracts/token/OUSD.sol\":17103:17165  nonRebasingSupply = nonRebasingSupply.add(balanceOf(_account)) */\n      dup2\n      swap1\n      sstore\n      pop\n        /* \"contracts/token/OUSD.sol\":17245:17332  _rebasingCredits.sub(\r... */\n      tag_462\n        /* \"contracts/token/OUSD.sol\":17288:17303  _creditBalances */\n      0x9d\n        /* \"contracts/token/OUSD.sol\":17288:17313  _creditBalances[_account] */\n      0x00\n        /* \"contracts/token/OUSD.sol\":17304:17312  _account */\n      dup4\n        /* \"contracts/token/OUSD.sol\":17288:17313  _creditBalances[_account] */\n      0xffffffffffffffffffffffffffffffffffffffff\n      and\n      0xffffffffffffffffffffffffffffffffffffffff\n      and\n      dup2\n      mstore\n      0x20\n      add\n      swap1\n      dup2\n      mstore\n      0x20\n      add\n      0x00\n      keccak256\n      sload\n        /* \"contracts/token/OUSD.sol\":17245:17261  _rebasingCredits */\n      sload(0x9e)\n        /* \"contracts/token/OUSD.sol\":17245:17265  _rebasingCredits.sub */\n      tag_205\n      swap1\n        /* \"contracts/token/OUSD.sol\":17245:17332  _rebasingCredits.sub(\r... */\n      swap2\n      swap1\n      0xffffffff\n      and\n      jump\t// in\n    tag_462:\n        /* \"contracts/token/OUSD.sol\":17226:17242  _rebasingCredits */\n      0x9e\n        /* \"contracts/token/OUSD.sol\":17226:17332  _rebasingCredits = _rebasingCredits.sub(\r... */\n      dup2\n      swap1\n      sstore\n      pop\n        /* \"contracts/token/OUSD.sol\":16559:17348  if (_creditBalances[_account] == 0) {\r... */\n    tag_459:\n        /* \"contracts/token/OUSD.sol\":16497:17359  if (nonRebasingCreditsPerToken[_account] == 0) {\r... */\n    tag_457:\n        /* \"contracts/token/OUSD.sol\":16425:17366  function _ensureRebasingMigration(address _account) internal {\r... */\n      pop\n      jump\t// out\n        /* \"contracts/utils/StableMath.sol\":2150:2464  function mulTruncateScale(\r... */\n    tag_450:\n        /* \"contracts/utils/StableMath.sol\":2270:2277  uint256 */\n      0x00\n        /* \"contracts/utils/StableMath.sol\":2368:2377  uint256 z */\n      dup1\n        /* \"contracts/utils/StableMath.sol\":2380:2388  x.mul(y) */\n      tag_464\n        /* \"contracts/utils/StableMath.sol\":2386:2387  y */\n      dup5\n        /* \"contracts/utils/StableMath.sol\":2380:2381  x */\n      dup7\n        /* \"contracts/utils/StableMath.sol\":2380:2385  x.mul */\n      tag_327\n      swap1\n        /* \"contracts/utils/StableMath.sol\":2380:2388  x.mul(y) */\n      swap2\n      swap1\n      0xffffffff\n      and\n      jump\t// in\n    tag_464:\n        /* \"contracts/utils/StableMath.sol\":2368:2388  uint256 z = x.mul(y) */\n      swap1\n      pop\n        /* \"contracts/utils/StableMath.sol\":2444:2456  z.div(scale) */\n      tag_465\n        /* \"contracts/utils/StableMath.sol\":2450:2455  scale */\n      dup4\n        /* \"contracts/utils/StableMath.sol\":2444:2445  z */\n      dup3\n        /* \"contracts/utils/StableMath.sol\":2444:2449  z.div */\n      tag_328\n      swap1\n        /* \"contracts/utils/StableMath.sol\":2444:2456  z.div(scale) */\n      swap2\n      swap1\n      0xffffffff\n      and\n      jump\t// in\n    tag_465:\n        /* \"contracts/utils/StableMath.sol\":2437:2456  return z.div(scale) */\n      swap2\n      pop\n      pop\n        /* \"contracts/utils/StableMath.sol\":2150:2464  function mulTruncateScale(\r... */\n      swap4\n      swap3\n      pop\n      pop\n      pop\n      jump\t// out\n    tag_342:\n      dup3\n      dup1\n      sload\n      tag_466\n      swap1\n      tag_167\n      jump\t// in\n    tag_466:\n      swap1\n      0x00\n      mstore\n      keccak256(0x00, 0x20)\n      swap1\n      0x1f\n      add\n      0x20\n      swap1\n      div\n      dup2\n      add\n      swap3\n      dup3\n      tag_468\n      jumpi\n      0x00\n      dup6\n      sstore\n      jump(tag_467)\n    tag_468:\n      dup3\n      0x1f\n      lt\n      tag_469\n      jumpi\n      dup1\n      mload\n      not(0xff)\n      and\n      dup4\n      dup1\n      add\n      or\n      dup6\n      sstore\n      jump(tag_467)\n    tag_469:\n      dup3\n      dup1\n      add\n      0x01\n      add\n      dup6\n      sstore\n      dup3\n      iszero\n      tag_467\n      jumpi\n      swap2\n      dup3\n      add\n    tag_470:\n      dup3\n      dup2\n      gt\n      iszero\n      tag_471\n      jumpi\n      dup3\n      mload\n      dup3\n      sstore\n      swap2\n      0x20\n      add\n      swap2\n      swap1\n      0x01\n      add\n      swap1\n      jump(tag_470)\n    tag_471:\n    tag_467:\n      pop\n      swap1\n      pop\n      tag_472\n      swap2\n      swap1\n      tag_473\n      jump\t// in\n    tag_472:\n      pop\n      swap1\n      jump\t// out\n    tag_473:\n    tag_474:\n      dup1\n      dup3\n      gt\n      iszero\n      tag_475\n      jumpi\n      0x00\n      dup2\n      0x00\n      swap1\n      sstore\n      pop\n      0x01\n      add\n      jump(tag_474)\n    tag_475:\n      pop\n      swap1\n      jump\t// out\n        /* \"#utility.yul\":7:146   */\n    tag_477:\n        /* \"#utility.yul\":53:58   */\n      0x00\n        /* \"#utility.yul\":91:97   */\n      dup2\n        /* \"#utility.yul\":78:98   */\n      calldataload\n        /* \"#utility.yul\":69:98   */\n      swap1\n      pop\n        /* \"#utility.yul\":107:140   */\n      tag_479\n        /* \"#utility.yul\":134:139   */\n      dup2\n        /* \"#utility.yul\":107:140   */\n      tag_480\n      jump\t// in\n    tag_479:\n        /* \"#utility.yul\":7:146   */\n      swap3\n      swap2\n      pop\n      pop\n      jump\t// out\n        /* \"#utility.yul\":166:719   */\n    tag_481:\n        /* \"#utility.yul\":224:232   */\n      0x00\n        /* \"#utility.yul\":234:240   */\n      dup1\n        /* \"#utility.yul\":284:287   */\n      dup4\n        /* \"#utility.yul\":277:281   */\n      0x1f\n        /* \"#utility.yul\":269:275   */\n      dup5\n        /* \"#utility.yul\":265:282   */\n      add\n        /* \"#utility.yul\":261:288   */\n      slt\n        /* \"#utility.yul\":251:373   */\n      tag_483\n      jumpi\n        /* \"#utility.yul\":292:371   */\n      tag_484\n      tag_485\n      jump\t// in\n    tag_484:\n        /* \"#utility.yul\":251:373   */\n    tag_483:\n        /* \"#utility.yul\":405:411   */\n      dup3\n        /* \"#utility.yul\":392:412   */\n      calldataload\n        /* \"#utility.yul\":382:412   */\n      swap1\n      pop\n        /* \"#utility.yul\":435:453   */\n      0xffffffffffffffff\n        /* \"#utility.yul\":427:433   */\n      dup2\n        /* \"#utility.yul\":424:454   */\n      gt\n        /* \"#utility.yul\":421:538   */\n      iszero\n      tag_486\n      jumpi\n        /* \"#utility.yul\":457:536   */\n      tag_487\n      tag_488\n      jump\t// in\n    tag_487:\n        /* \"#utility.yul\":421:538   */\n    tag_486:\n        /* \"#utility.yul\":571:575   */\n      0x20\n        /* \"#utility.yul\":563:569   */\n      dup4\n        /* \"#utility.yul\":559:576   */\n      add\n        /* \"#utility.yul\":547:576   */\n      swap2\n      pop\n        /* \"#utility.yul\":625:628   */\n      dup4\n        /* \"#utility.yul\":617:621   */\n      0x01\n        /* \"#utility.yul\":609:615   */\n      dup3\n        /* \"#utility.yul\":605:622   */\n      mul\n        /* \"#utility.yul\":595:603   */\n      dup4\n        /* \"#utility.yul\":591:623   */\n      add\n        /* \"#utility.yul\":588:629   */\n      gt\n        /* \"#utility.yul\":585:713   */\n      iszero\n      tag_489\n      jumpi\n        /* \"#utility.yul\":632:711   */\n      tag_490\n      tag_491\n      jump\t// in\n    tag_490:\n        /* \"#utility.yul\":585:713   */\n    tag_489:\n        /* \"#utility.yul\":166:719   */\n      swap3\n      pop\n      swap3\n      swap1\n      pop\n      jump\t// out\n        /* \"#utility.yul\":725:864   */\n    tag_492:\n        /* \"#utility.yul\":771:776   */\n      0x00\n        /* \"#utility.yul\":809:815   */\n      dup2\n        /* \"#utility.yul\":796:816   */\n      calldataload\n        /* \"#utility.yul\":787:816   */\n      swap1\n      pop\n        /* \"#utility.yul\":825:858   */\n      tag_494\n        /* \"#utility.yul\":852:857   */\n      dup2\n        /* \"#utility.yul\":825:858   */\n      tag_495\n      jump\t// in\n    tag_494:\n        /* \"#utility.yul\":725:864   */\n      swap3\n      swap2\n      pop\n      pop\n      jump\t// out\n        /* \"#utility.yul\":870:1199   */\n    tag_96:\n        /* \"#utility.yul\":929:935   */\n      0x00\n        /* \"#utility.yul\":978:980   */\n      0x20\n        /* \"#utility.yul\":966:975   */\n      dup3\n        /* \"#utility.yul\":957:964   */\n      dup5\n        /* \"#utility.yul\":953:976   */\n      sub\n        /* \"#utility.yul\":949:981   */\n      slt\n        /* \"#utility.yul\":946:1065   */\n      iszero\n      tag_497\n      jumpi\n        /* \"#utility.yul\":984:1063   */\n      tag_498\n      tag_499\n      jump\t// in\n    tag_498:\n        /* \"#utility.yul\":946:1065   */\n    tag_497:\n        /* \"#utility.yul\":1104:1105   */\n      0x00\n        /* \"#utility.yul\":1129:1182   */\n      tag_500\n        /* \"#utility.yul\":1174:1181   */\n      dup5\n        /* \"#utility.yul\":1165:1171   */\n      dup3\n        /* \"#utility.yul\":1154:1163   */\n      dup6\n        /* \"#utility.yul\":1150:1172   */\n      add\n        /* \"#utility.yul\":1129:1182   */\n      tag_477\n      jump\t// in\n    tag_500:\n        /* \"#utility.yul\":1119:1182   */\n      swap2\n      pop\n        /* \"#utility.yul\":1075:1192   */\n      pop\n        /* \"#utility.yul\":870:1199   */\n      swap3\n      swap2\n      pop\n      pop\n      jump\t// out\n        /* \"#utility.yul\":1205:1679   */\n    tag_147:\n        /* \"#utility.yul\":1273:1279   */\n      0x00\n        /* \"#utility.yul\":1281:1287   */\n      dup1\n        /* \"#utility.yul\":1330:1332   */\n      0x40\n        /* \"#utility.yul\":1318:1327   */\n      dup4\n        /* \"#utility.yul\":1309:1316   */\n      dup6\n        /* \"#utility.yul\":1305:1328   */\n      sub\n        /* \"#utility.yul\":1301:1333   */\n      slt\n        /* \"#utility.yul\":1298:1417   */\n      iszero\n      tag_502\n      jumpi\n        /* \"#utility.yul\":1336:1415   */\n      tag_503\n      tag_499\n      jump\t// in\n    tag_503:\n        /* \"#utility.yul\":1298:1417   */\n    tag_502:\n        /* \"#utility.yul\":1456:1457   */\n      0x00\n        /* \"#utility.yul\":1481:1534   */\n      tag_504\n        /* \"#utility.yul\":1526:1533   */\n      dup6\n        /* \"#utility.yul\":1517:1523   */\n      dup3\n        /* \"#utility.yul\":1506:1515   */\n      dup7\n        /* \"#utility.yul\":1502:1524   */\n      add\n        /* \"#utility.yul\":1481:1534   */\n      tag_477\n      jump\t// in\n    tag_504:\n        /* \"#utility.yul\":1471:1534   */\n      swap3\n      pop\n        /* \"#utility.yul\":1427:1544   */\n      pop\n        /* \"#utility.yul\":1583:1585   */\n      0x20\n        /* \"#utility.yul\":1609:1662   */\n      tag_505\n        /* \"#utility.yul\":1654:1661   */\n      dup6\n        /* \"#utility.yul\":1645:1651   */\n      dup3\n        /* \"#utility.yul\":1634:1643   */\n      dup7\n        /* \"#utility.yul\":1630:1652   */\n      add\n        /* \"#utility.yul\":1609:1662   */\n      tag_477\n      jump\t// in\n    tag_505:\n        /* \"#utility.yul\":1599:1662   */\n      swap2\n      pop\n        /* \"#utility.yul\":1554:1672   */\n      pop\n        /* \"#utility.yul\":1205:1679   */\n      swap3\n      pop\n      swap3\n      swap1\n      pop\n      jump\t// out\n        /* \"#utility.yul\":1685:2304   */\n    tag_70:\n        /* \"#utility.yul\":1762:1768   */\n      0x00\n        /* \"#utility.yul\":1770:1776   */\n      dup1\n        /* \"#utility.yul\":1778:1784   */\n      0x00\n        /* \"#utility.yul\":1827:1829   */\n      0x60\n        /* \"#utility.yul\":1815:1824   */\n      dup5\n        /* \"#utility.yul\":1806:1813   */\n      dup7\n        /* \"#utility.yul\":1802:1825   */\n      sub\n        /* \"#utility.yul\":1798:1830   */\n      slt\n        /* \"#utility.yul\":1795:1914   */\n      iszero\n      tag_507\n      jumpi\n        /* \"#utility.yul\":1833:1912   */\n      tag_508\n      tag_499\n      jump\t// in\n    tag_508:\n        /* \"#utility.yul\":1795:1914   */\n    tag_507:\n        /* \"#utility.yul\":1953:1954   */\n      0x00\n        /* \"#utility.yul\":1978:2031   */\n      tag_509\n        /* \"#utility.yul\":2023:2030   */\n      dup7\n        /* \"#utility.yul\":2014:2020   */\n      dup3\n        /* \"#utility.yul\":2003:2012   */\n      dup8\n        /* \"#utility.yul\":1999:2021   */\n      add\n        /* \"#utility.yul\":1978:2031   */\n      tag_477\n      jump\t// in\n    tag_509:\n        /* \"#utility.yul\":1968:2031   */\n      swap4\n      pop\n        /* \"#utility.yul\":1924:2041   */\n      pop\n        /* \"#utility.yul\":2080:2082   */\n      0x20\n        /* \"#utility.yul\":2106:2159   */\n      tag_510\n        /* \"#utility.yul\":2151:2158   */\n      dup7\n        /* \"#utility.yul\":2142:2148   */\n      dup3\n        /* \"#utility.yul\":2131:2140   */\n      dup8\n        /* \"#utility.yul\":2127:2149   */\n      add\n        /* \"#utility.yul\":2106:2159   */\n      tag_477\n      jump\t// in\n    tag_510:\n        /* \"#utility.yul\":2096:2159   */\n      swap3\n      pop\n        /* \"#utility.yul\":2051:2169   */\n      pop\n        /* \"#utility.yul\":2208:2210   */\n      0x40\n        /* \"#utility.yul\":2234:2287   */\n      tag_511\n        /* \"#utility.yul\":2279:2286   */\n      dup7\n        /* \"#utility.yul\":2270:2276   */\n      dup3\n        /* \"#utility.yul\":2259:2268   */\n      dup8\n        /* \"#utility.yul\":2255:2277   */\n      add\n        /* \"#utility.yul\":2234:2287   */\n      tag_492\n      jump\t// in\n    tag_511:\n        /* \"#utility.yul\":2224:2287   */\n      swap2\n      pop\n        /* \"#utility.yul\":2179:2297   */\n      pop\n        /* \"#utility.yul\":1685:2304   */\n      swap3\n      pop\n      swap3\n      pop\n      swap3\n      jump\t// out\n        /* \"#utility.yul\":2310:2784   */\n    tag_57:\n        /* \"#utility.yul\":2378:2384   */\n      0x00\n        /* \"#utility.yul\":2386:2392   */\n      dup1\n        /* \"#utility.yul\":2435:2437   */\n      0x40\n        /* \"#utility.yul\":2423:2432   */\n      dup4\n        /* \"#utility.yul\":2414:2421   */\n      dup6\n        /* \"#utility.yul\":2410:2433   */\n      sub\n        /* \"#utility.yul\":2406:2438   */\n      slt\n        /* \"#utility.yul\":2403:2522   */\n      iszero\n      tag_513\n      jumpi\n        /* \"#utility.yul\":2441:2520   */\n      tag_514\n      tag_499\n      jump\t// in\n    tag_514:\n        /* \"#utility.yul\":2403:2522   */\n    tag_513:\n        /* \"#utility.yul\":2561:2562   */\n      0x00\n        /* \"#utility.yul\":2586:2639   */\n      tag_515\n        /* \"#utility.yul\":2631:2638   */\n      dup6\n        /* \"#utility.yul\":2622:2628   */\n      dup3\n        /* \"#utility.yul\":2611:2620   */\n      dup7\n        /* \"#utility.yul\":2607:2629   */\n      add\n        /* \"#utility.yul\":2586:2639   */\n      tag_477\n      jump\t// in\n    tag_515:\n        /* \"#utility.yul\":2576:2639   */\n      swap3\n      pop\n        /* \"#utility.yul\":2532:2649   */\n      pop\n        /* \"#utility.yul\":2688:2690   */\n      0x20\n        /* \"#utility.yul\":2714:2767   */\n      tag_516\n        /* \"#utility.yul\":2759:2766   */\n      dup6\n        /* \"#utility.yul\":2750:2756   */\n      dup3\n        /* \"#utility.yul\":2739:2748   */\n      dup7\n        /* \"#utility.yul\":2735:2757   */\n      add\n        /* \"#utility.yul\":2714:2767   */\n      tag_492\n      jump\t// in\n    tag_516:\n        /* \"#utility.yul\":2704:2767   */\n      swap2\n      pop\n        /* \"#utility.yul\":2659:2777   */\n      pop\n        /* \"#utility.yul\":2310:2784   */\n      swap3\n      pop\n      swap3\n      swap1\n      pop\n      jump\t// out\n        /* \"#utility.yul\":2790:3809   */\n    tag_49:\n        /* \"#utility.yul\":2891:2897   */\n      0x00\n        /* \"#utility.yul\":2899:2905   */\n      dup1\n        /* \"#utility.yul\":2907:2913   */\n      0x00\n        /* \"#utility.yul\":2915:2921   */\n      dup1\n        /* \"#utility.yul\":2923:2929   */\n      0x00\n        /* \"#utility.yul\":2972:2974   */\n      0x60\n        /* \"#utility.yul\":2960:2969   */\n      dup7\n        /* \"#utility.yul\":2951:2958   */\n      dup9\n        /* \"#utility.yul\":2947:2970   */\n      sub\n        /* \"#utility.yul\":2943:2975   */\n      slt\n        /* \"#utility.yul\":2940:3059   */\n      iszero\n      tag_518\n      jumpi\n        /* \"#utility.yul\":2978:3057   */\n      tag_519\n      tag_499\n      jump\t// in\n    tag_519:\n        /* \"#utility.yul\":2940:3059   */\n    tag_518:\n        /* \"#utility.yul\":3126:3127   */\n      0x00\n        /* \"#utility.yul\":3115:3124   */\n      dup7\n        /* \"#utility.yul\":3111:3128   */\n      add\n        /* \"#utility.yul\":3098:3129   */\n      calldataload\n        /* \"#utility.yul\":3156:3174   */\n      0xffffffffffffffff\n        /* \"#utility.yul\":3148:3154   */\n      dup2\n        /* \"#utility.yul\":3145:3175   */\n      gt\n        /* \"#utility.yul\":3142:3259   */\n      iszero\n      tag_520\n      jumpi\n        /* \"#utility.yul\":3178:3257   */\n      tag_521\n      tag_522\n      jump\t// in\n    tag_521:\n        /* \"#utility.yul\":3142:3259   */\n    tag_520:\n        /* \"#utility.yul\":3291:3356   */\n      tag_523\n        /* \"#utility.yul\":3348:3355   */\n      dup9\n        /* \"#utility.yul\":3339:3345   */\n      dup3\n        /* \"#utility.yul\":3328:3337   */\n      dup10\n        /* \"#utility.yul\":3324:3346   */\n      add\n        /* \"#utility.yul\":3291:3356   */\n      tag_481\n      jump\t// in\n    tag_523:\n        /* \"#utility.yul\":3273:3356   */\n      swap6\n      pop\n      swap6\n      pop\n        /* \"#utility.yul\":3069:3366   */\n      pop\n        /* \"#utility.yul\":3433:3435   */\n      0x20\n        /* \"#utility.yul\":3422:3431   */\n      dup7\n        /* \"#utility.yul\":3418:3436   */\n      add\n        /* \"#utility.yul\":3405:3437   */\n      calldataload\n        /* \"#utility.yul\":3464:3482   */\n      0xffffffffffffffff\n        /* \"#utility.yul\":3456:3462   */\n      dup2\n        /* \"#utility.yul\":3453:3483   */\n      gt\n        /* \"#utility.yul\":3450:3567   */\n      iszero\n      tag_524\n      jumpi\n        /* \"#utility.yul\":3486:3565   */\n      tag_525\n      tag_522\n      jump\t// in\n    tag_525:\n        /* \"#utility.yul\":3450:3567   */\n    tag_524:\n        /* \"#utility.yul\":3599:3664   */\n      tag_526\n        /* \"#utility.yul\":3656:3663   */\n      dup9\n        /* \"#utility.yul\":3647:3653   */\n      dup3\n        /* \"#utility.yul\":3636:3645   */\n      dup10\n        /* \"#utility.yul\":3632:3654   */\n      add\n        /* \"#utility.yul\":3599:3664   */\n      tag_481\n      jump\t// in\n    tag_526:\n        /* \"#utility.yul\":3581:3664   */\n      swap4\n      pop\n      swap4\n      pop\n        /* \"#utility.yul\":3376:3674   */\n      pop\n        /* \"#utility.yul\":3713:3715   */\n      0x40\n        /* \"#utility.yul\":3739:3792   */\n      tag_527\n        /* \"#utility.yul\":3784:3791   */\n      dup9\n        /* \"#utility.yul\":3775:3781   */\n      dup3\n        /* \"#utility.yul\":3764:3773   */\n      dup10\n        /* \"#utility.yul\":3760:3782   */\n      add\n        /* \"#utility.yul\":3739:3792   */\n      tag_477\n      jump\t// in\n    tag_527:\n        /* \"#utility.yul\":3729:3792   */\n      swap2\n      pop\n        /* \"#utility.yul\":3684:3802   */\n      pop\n        /* \"#utility.yul\":2790:3809   */\n      swap3\n      swap6\n      pop\n      swap3\n      swap6\n      swap1\n      swap4\n      pop\n      jump\t// out\n        /* \"#utility.yul\":3815:4144   */\n    tag_83:\n        /* \"#utility.yul\":3874:3880   */\n      0x00\n        /* \"#utility.yul\":3923:3925   */\n      0x20\n        /* \"#utility.yul\":3911:3920   */\n      dup3\n        /* \"#utility.yul\":3902:3909   */\n      dup5\n        /* \"#utility.yul\":3898:3921   */\n      sub\n        /* \"#utility.yul\":3894:3926   */\n      slt\n        /* \"#utility.yul\":3891:4010   */\n      iszero\n      tag_529\n      jumpi\n        /* \"#utility.yul\":3929:4008   */\n      tag_530\n      tag_499\n      jump\t// in\n    tag_530:\n        /* \"#utility.yul\":3891:4010   */\n    tag_529:\n        /* \"#utility.yul\":4049:4050   */\n      0x00\n        /* \"#utility.yul\":4074:4127   */\n      tag_531\n        /* \"#utility.yul\":4119:4126   */\n      dup5\n        /* \"#utility.yul\":4110:4116   */\n      dup3\n        /* \"#utility.yul\":4099:4108   */\n      dup6\n        /* \"#utility.yul\":4095:4117   */\n      add\n        /* \"#utility.yul\":4074:4127   */\n      tag_492\n      jump\t// in\n    tag_531:\n        /* \"#utility.yul\":4064:4127   */\n      swap2\n      pop\n        /* \"#utility.yul\":4020:4137   */\n      pop\n        /* \"#utility.yul\":3815:4144   */\n      swap3\n      swap2\n      pop\n      pop\n      jump\t// out\n        /* \"#utility.yul\":4150:4268   */\n    tag_532:\n        /* \"#utility.yul\":4237:4261   */\n      tag_534\n        /* \"#utility.yul\":4255:4260   */\n      dup2\n        /* \"#utility.yul\":4237:4261   */\n      tag_535\n      jump\t// in\n    tag_534:\n        /* \"#utility.yul\":4232:4235   */\n      dup3\n        /* \"#utility.yul\":4225:4262   */\n      mstore\n        /* \"#utility.yul\":4150:4268   */\n      pop\n      pop\n      jump\t// out\n        /* \"#utility.yul\":4274:4383   */\n    tag_536:\n        /* \"#utility.yul\":4355:4376   */\n      tag_538\n        /* \"#utility.yul\":4370:4375   */\n      dup2\n        /* \"#utility.yul\":4355:4376   */\n      tag_539\n      jump\t// in\n    tag_538:\n        /* \"#utility.yul\":4350:4353   */\n      dup3\n        /* \"#utility.yul\":4343:4377   */\n      mstore\n        /* \"#utility.yul\":4274:4383   */\n      pop\n      pop\n      jump\t// out\n        /* \"#utility.yul\":4389:4550   */\n    tag_540:\n        /* \"#utility.yul\":4491:4543   */\n      tag_542\n        /* \"#utility.yul\":4537:4542   */\n      dup2\n        /* \"#utility.yul\":4491:4543   */\n      tag_543\n      jump\t// in\n    tag_542:\n        /* \"#utility.yul\":4486:4489   */\n      dup3\n        /* \"#utility.yul\":4479:4544   */\n      mstore\n        /* \"#utility.yul\":4389:4550   */\n      pop\n      pop\n      jump\t// out\n        /* \"#utility.yul\":4556:4920   */\n    tag_544:\n        /* \"#utility.yul\":4644:4647   */\n      0x00\n        /* \"#utility.yul\":4672:4711   */\n      tag_546\n        /* \"#utility.yul\":4705:4710   */\n      dup3\n        /* \"#utility.yul\":4672:4711   */\n      tag_547\n      jump\t// in\n    tag_546:\n        /* \"#utility.yul\":4727:4798   */\n      tag_548\n        /* \"#utility.yul\":4791:4797   */\n      dup2\n        /* \"#utility.yul\":4786:4789   */\n      dup6\n        /* \"#utility.yul\":4727:4798   */\n      tag_549\n      jump\t// in\n    tag_548:\n        /* \"#utility.yul\":4720:4798   */\n      swap4\n      pop\n        /* \"#utility.yul\":4807:4859   */\n      tag_550\n        /* \"#utility.yul\":4852:4858   */\n      dup2\n        /* \"#utility.yul\":4847:4850   */\n      dup6\n        /* \"#utility.yul\":4840:4844   */\n      0x20\n        /* \"#utility.yul\":4833:4838   */\n      dup7\n        /* \"#utility.yul\":4829:4845   */\n      add\n        /* \"#utility.yul\":4807:4859   */\n      tag_551\n      jump\t// in\n    tag_550:\n        /* \"#utility.yul\":4884:4913   */\n      tag_552\n        /* \"#utility.yul\":4906:4912   */\n      dup2\n        /* \"#utility.yul\":4884:4913   */\n      tag_553\n      jump\t// in\n    tag_552:\n        /* \"#utility.yul\":4879:4882   */\n      dup5\n        /* \"#utility.yul\":4875:4914   */\n      add\n        /* \"#utility.yul\":4868:4914   */\n      swap2\n      pop\n        /* \"#utility.yul\":4648:4920   */\n      pop\n        /* \"#utility.yul\":4556:4920   */\n      swap3\n      swap2\n      pop\n      pop\n      jump\t// out\n        /* \"#utility.yul\":4926:5292   */\n    tag_554:\n        /* \"#utility.yul\":5068:5071   */\n      0x00\n        /* \"#utility.yul\":5089:5156   */\n      tag_556\n        /* \"#utility.yul\":5153:5155   */\n      0x17\n        /* \"#utility.yul\":5148:5151   */\n      dup4\n        /* \"#utility.yul\":5089:5156   */\n      tag_549\n      jump\t// in\n    tag_556:\n        /* \"#utility.yul\":5082:5156   */\n      swap2\n      pop\n        /* \"#utility.yul\":5165:5258   */\n      tag_557\n        /* \"#utility.yul\":5254:5257   */\n      dup3\n        /* \"#utility.yul\":5165:5258   */\n      tag_558\n      jump\t// in\n    tag_557:\n        /* \"#utility.yul\":5283:5285   */\n      0x20\n        /* \"#utility.yul\":5278:5281   */\n      dup3\n        /* \"#utility.yul\":5274:5286   */\n      add\n        /* \"#utility.yul\":5267:5286   */\n      swap1\n      pop\n        /* \"#utility.yul\":4926:5292   */\n      swap2\n      swap1\n      pop\n      jump\t// out\n        /* \"#utility.yul\":5298:5664   */\n    tag_559:\n        /* \"#utility.yul\":5440:5443   */\n      0x00\n        /* \"#utility.yul\":5461:5528   */\n      tag_561\n        /* \"#utility.yul\":5525:5527   */\n      0x18\n        /* \"#utility.yul\":5520:5523   */\n      dup4\n        /* \"#utility.yul\":5461:5528   */\n      tag_549\n      jump\t// in\n    tag_561:\n        /* \"#utility.yul\":5454:5528   */\n      swap2\n      pop\n        /* \"#utility.yul\":5537:5630   */\n      tag_562\n        /* \"#utility.yul\":5626:5629   */\n      dup3\n        /* \"#utility.yul\":5537:5630   */\n      tag_563\n      jump\t// in\n    tag_562:\n        /* \"#utility.yul\":5655:5657   */\n      0x20\n        /* \"#utility.yul\":5650:5653   */\n      dup3\n        /* \"#utility.yul\":5646:5658   */\n      add\n        /* \"#utility.yul\":5639:5658   */\n      swap1\n      pop\n        /* \"#utility.yul\":5298:5664   */\n      swap2\n      swap1\n      pop\n      jump\t// out\n        /* \"#utility.yul\":5670:6036   */\n    tag_564:\n        /* \"#utility.yul\":5812:5815   */\n      0x00\n        /* \"#utility.yul\":5833:5900   */\n      tag_566\n        /* \"#utility.yul\":5897:5899   */\n      0x19\n        /* \"#utility.yul\":5892:5895   */\n      dup4\n        /* \"#utility.yul\":5833:5900   */\n      tag_549\n      jump\t// in\n    tag_566:\n        /* \"#utility.yul\":5826:5900   */\n      swap2\n      pop\n        /* \"#utility.yul\":5909:6002   */\n      tag_567\n        /* \"#utility.yul\":5998:6001   */\n      dup3\n        /* \"#utility.yul\":5909:6002   */\n      tag_568\n      jump\t// in\n    tag_567:\n        /* \"#utility.yul\":6027:6029   */\n      0x20\n        /* \"#utility.yul\":6022:6025   */\n      dup3\n        /* \"#utility.yul\":6018:6030   */\n      add\n        /* \"#utility.yul\":6011:6030   */\n      swap1\n      pop\n        /* \"#utility.yul\":5670:6036   */\n      swap2\n      swap1\n      pop\n      jump\t// out\n        /* \"#utility.yul\":6042:6408   */\n    tag_569:\n        /* \"#utility.yul\":6184:6187   */\n      0x00\n        /* \"#utility.yul\":6205:6272   */\n      tag_571\n        /* \"#utility.yul\":6269:6271   */\n      0x1d\n        /* \"#utility.yul\":6264:6267   */\n      dup4\n        /* \"#utility.yul\":6205:6272   */\n      tag_549\n      jump\t// in\n    tag_571:\n        /* \"#utility.yul\":6198:6272   */\n      swap2\n      pop\n        /* \"#utility.yul\":6281:6374   */\n      tag_572\n        /* \"#utility.yul\":6370:6373   */\n      dup3\n        /* \"#utility.yul\":6281:6374   */\n      tag_573\n      jump\t// in\n    tag_572:\n        /* \"#utility.yul\":6399:6401   */\n      0x20\n        /* \"#utility.yul\":6394:6397   */\n      dup3\n        /* \"#utility.yul\":6390:6402   */\n      add\n        /* \"#utility.yul\":6383:6402   */\n      swap1\n      pop\n        /* \"#utility.yul\":6042:6408   */\n      swap2\n      swap1\n      pop\n      jump\t// out\n        /* \"#utility.yul\":6414:6780   */\n    tag_574:\n        /* \"#utility.yul\":6556:6559   */\n      0x00\n        /* \"#utility.yul\":6577:6644   */\n      tag_576\n        /* \"#utility.yul\":6641:6643   */\n      0x1a\n        /* \"#utility.yul\":6636:6639   */\n      dup4\n        /* \"#utility.yul\":6577:6644   */\n      tag_549\n      jump\t// in\n    tag_576:\n        /* \"#utility.yul\":6570:6644   */\n      swap2\n      pop\n        /* \"#utility.yul\":6653:6746   */\n      tag_577\n        /* \"#utility.yul\":6742:6745   */\n      dup3\n        /* \"#utility.yul\":6653:6746   */\n      tag_578\n      jump\t// in\n    tag_577:\n        /* \"#utility.yul\":6771:6773   */\n      0x20\n        /* \"#utility.yul\":6766:6769   */\n      dup3\n        /* \"#utility.yul\":6762:6774   */\n      add\n        /* \"#utility.yul\":6755:6774   */\n      swap1\n      pop\n        /* \"#utility.yul\":6414:6780   */\n      swap2\n      swap1\n      pop\n      jump\t// out\n        /* \"#utility.yul\":6786:7152   */\n    tag_579:\n        /* \"#utility.yul\":6928:6931   */\n      0x00\n        /* \"#utility.yul\":6949:7016   */\n      tag_581\n        /* \"#utility.yul\":7013:7015   */\n      0x0a\n        /* \"#utility.yul\":7008:7011   */\n      dup4\n        /* \"#utility.yul\":6949:7016   */\n      tag_549\n      jump\t// in\n    tag_581:\n        /* \"#utility.yul\":6942:7016   */\n      swap2\n      pop\n        /* \"#utility.yul\":7025:7118   */\n      tag_582\n        /* \"#utility.yul\":7114:7117   */\n      dup3\n        /* \"#utility.yul\":7025:7118   */\n      tag_583\n      jump\t// in\n    tag_582:\n        /* \"#utility.yul\":7143:7145   */\n      0x20\n        /* \"#utility.yul\":7138:7141   */\n      dup3\n        /* \"#utility.yul\":7134:7146   */\n      add\n        /* \"#utility.yul\":7127:7146   */\n      swap1\n      pop\n        /* \"#utility.yul\":6786:7152   */\n      swap2\n      swap1\n      pop\n      jump\t// out\n        /* \"#utility.yul\":7158:7524   */\n    tag_584:\n        /* \"#utility.yul\":7300:7303   */\n      0x00\n        /* \"#utility.yul\":7321:7388   */\n      tag_586\n        /* \"#utility.yul\":7385:7387   */\n      0x1a\n        /* \"#utility.yul\":7380:7383   */\n      dup4\n        /* \"#utility.yul\":7321:7388   */\n      tag_549\n      jump\t// in\n    tag_586:\n        /* \"#utility.yul\":7314:7388   */\n      swap2\n      pop\n        /* \"#utility.yul\":7397:7490   */\n      tag_587\n        /* \"#utility.yul\":7486:7489   */\n      dup3\n        /* \"#utility.yul\":7397:7490   */\n      tag_588\n      jump\t// in\n    tag_587:\n        /* \"#utility.yul\":7515:7517   */\n      0x20\n        /* \"#utility.yul\":7510:7513   */\n      dup3\n        /* \"#utility.yul\":7506:7518   */\n      add\n        /* \"#utility.yul\":7499:7518   */\n      swap1\n      pop\n        /* \"#utility.yul\":7158:7524   */\n      swap2\n      swap1\n      pop\n      jump\t// out\n        /* \"#utility.yul\":7530:7896   */\n    tag_589:\n        /* \"#utility.yul\":7672:7675   */\n      0x00\n        /* \"#utility.yul\":7693:7760   */\n      tag_591\n        /* \"#utility.yul\":7757:7759   */\n      0x1a\n        /* \"#utility.yul\":7752:7755   */\n      dup4\n        /* \"#utility.yul\":7693:7760   */\n      tag_549\n      jump\t// in\n    tag_591:\n        /* \"#utility.yul\":7686:7760   */\n      swap2\n      pop\n        /* \"#utility.yul\":7769:7862   */\n      tag_592\n        /* \"#utility.yul\":7858:7861   */\n      dup3\n        /* \"#utility.yul\":7769:7862   */\n      tag_593\n      jump\t// in\n    tag_592:\n        /* \"#utility.yul\":7887:7889   */\n      0x20\n        /* \"#utility.yul\":7882:7885   */\n      dup3\n        /* \"#utility.yul\":7878:7890   */\n      add\n        /* \"#utility.yul\":7871:7890   */\n      swap1\n      pop\n        /* \"#utility.yul\":7530:7896   */\n      swap2\n      swap1\n      pop\n      jump\t// out\n        /* \"#utility.yul\":7902:8268   */\n    tag_594:\n        /* \"#utility.yul\":8044:8047   */\n      0x00\n        /* \"#utility.yul\":8065:8132   */\n      tag_596\n        /* \"#utility.yul\":8129:8131   */\n      0x2e\n        /* \"#utility.yul\":8124:8127   */\n      dup4\n        /* \"#utility.yul\":8065:8132   */\n      tag_549\n      jump\t// in\n    tag_596:\n        /* \"#utility.yul\":8058:8132   */\n      swap2\n      pop\n        /* \"#utility.yul\":8141:8234   */\n      tag_597\n        /* \"#utility.yul\":8230:8233   */\n      dup3\n        /* \"#utility.yul\":8141:8234   */\n      tag_598\n      jump\t// in\n    tag_597:\n        /* \"#utility.yul\":8259:8261   */\n      0x40\n        /* \"#utility.yul\":8254:8257   */\n      dup3\n        /* \"#utility.yul\":8250:8262   */\n      add\n        /* \"#utility.yul\":8243:8262   */\n      swap1\n      pop\n        /* \"#utility.yul\":7902:8268   */\n      swap2\n      swap1\n      pop\n      jump\t// out\n        /* \"#utility.yul\":8274:8640   */\n    tag_599:\n        /* \"#utility.yul\":8416:8419   */\n      0x00\n        /* \"#utility.yul\":8437:8504   */\n      tag_601\n        /* \"#utility.yul\":8501:8503   */\n      0x18\n        /* \"#utility.yul\":8496:8499   */\n      dup4\n        /* \"#utility.yul\":8437:8504   */\n      tag_549\n      jump\t// in\n    tag_601:\n        /* \"#utility.yul\":8430:8504   */\n      swap2\n      pop\n        /* \"#utility.yul\":8513:8606   */\n      tag_602\n        /* \"#utility.yul\":8602:8605   */\n      dup3\n        /* \"#utility.yul\":8513:8606   */\n      tag_603\n      jump\t// in\n    tag_602:\n        /* \"#utility.yul\":8631:8633   */\n      0x20\n        /* \"#utility.yul\":8626:8629   */\n      dup3\n        /* \"#utility.yul\":8622:8634   */\n      add\n        /* \"#utility.yul\":8615:8634   */\n      swap1\n      pop\n        /* \"#utility.yul\":8274:8640   */\n      swap2\n      swap1\n      pop\n      jump\t// out\n        /* \"#utility.yul\":8646:9012   */\n    tag_604:\n        /* \"#utility.yul\":8788:8791   */\n      0x00\n        /* \"#utility.yul\":8809:8876   */\n      tag_606\n        /* \"#utility.yul\":8873:8875   */\n      0x0e\n        /* \"#utility.yul\":8868:8871   */\n      dup4\n        /* \"#utility.yul\":8809:8876   */\n      tag_549\n      jump\t// in\n    tag_606:\n        /* \"#utility.yul\":8802:8876   */\n      swap2\n      pop\n        /* \"#utility.yul\":8885:8978   */\n      tag_607\n        /* \"#utility.yul\":8974:8977   */\n      dup3\n        /* \"#utility.yul\":8885:8978   */\n      tag_608\n      jump\t// in\n    tag_607:\n        /* \"#utility.yul\":9003:9005   */\n      0x20\n        /* \"#utility.yul\":8998:9001   */\n      dup3\n        /* \"#utility.yul\":8994:9006   */\n      add\n        /* \"#utility.yul\":8987:9006   */\n      swap1\n      pop\n        /* \"#utility.yul\":8646:9012   */\n      swap2\n      swap1\n      pop\n      jump\t// out\n        /* \"#utility.yul\":9018:9384   */\n    tag_609:\n        /* \"#utility.yul\":9160:9163   */\n      0x00\n        /* \"#utility.yul\":9181:9248   */\n      tag_611\n        /* \"#utility.yul\":9245:9247   */\n      0x16\n        /* \"#utility.yul\":9240:9243   */\n      dup4\n        /* \"#utility.yul\":9181:9248   */\n      tag_549\n      jump\t// in\n    tag_611:\n        /* \"#utility.yul\":9174:9248   */\n      swap2\n      pop\n        /* \"#utility.yul\":9257:9350   */\n      tag_612\n        /* \"#utility.yul\":9346:9349   */\n      dup3\n        /* \"#utility.yul\":9257:9350   */\n      tag_613\n      jump\t// in\n    tag_612:\n        /* \"#utility.yul\":9375:9377   */\n      0x20\n        /* \"#utility.yul\":9370:9373   */\n      dup3\n        /* \"#utility.yul\":9366:9378   */\n      add\n        /* \"#utility.yul\":9359:9378   */\n      swap1\n      pop\n        /* \"#utility.yul\":9018:9384   */\n      swap2\n      swap1\n      pop\n      jump\t// out\n        /* \"#utility.yul\":9390:9756   */\n    tag_614:\n        /* \"#utility.yul\":9532:9535   */\n      0x00\n        /* \"#utility.yul\":9553:9620   */\n      tag_616\n        /* \"#utility.yul\":9617:9619   */\n      0x18\n        /* \"#utility.yul\":9612:9615   */\n      dup4\n        /* \"#utility.yul\":9553:9620   */\n      tag_549\n      jump\t// in\n    tag_616:\n        /* \"#utility.yul\":9546:9620   */\n      swap2\n      pop\n        /* \"#utility.yul\":9629:9722   */\n      tag_617\n        /* \"#utility.yul\":9718:9721   */\n      dup3\n        /* \"#utility.yul\":9629:9722   */\n      tag_618\n      jump\t// in\n    tag_617:\n        /* \"#utility.yul\":9747:9749   */\n      0x20\n        /* \"#utility.yul\":9742:9745   */\n      dup3\n        /* \"#utility.yul\":9738:9750   */\n      add\n        /* \"#utility.yul\":9731:9750   */\n      swap1\n      pop\n        /* \"#utility.yul\":9390:9756   */\n      swap2\n      swap1\n      pop\n      jump\t// out\n        /* \"#utility.yul\":9762:10128   */\n    tag_619:\n        /* \"#utility.yul\":9904:9907   */\n      0x00\n        /* \"#utility.yul\":9925:9992   */\n      tag_621\n        /* \"#utility.yul\":9989:9991   */\n      0x18\n        /* \"#utility.yul\":9984:9987   */\n      dup4\n        /* \"#utility.yul\":9925:9992   */\n      tag_549\n      jump\t// in\n    tag_621:\n        /* \"#utility.yul\":9918:9992   */\n      swap2\n      pop\n        /* \"#utility.yul\":10001:10094   */\n      tag_622\n        /* \"#utility.yul\":10090:10093   */\n      dup3\n        /* \"#utility.yul\":10001:10094   */\n      tag_623\n      jump\t// in\n    tag_622:\n        /* \"#utility.yul\":10119:10121   */\n      0x20\n        /* \"#utility.yul\":10114:10117   */\n      dup3\n        /* \"#utility.yul\":10110:10122   */\n      add\n        /* \"#utility.yul\":10103:10122   */\n      swap1\n      pop\n        /* \"#utility.yul\":9762:10128   */\n      swap2\n      swap1\n      pop\n      jump\t// out\n        /* \"#utility.yul\":10134:10500   */\n    tag_624:\n        /* \"#utility.yul\":10276:10279   */\n      0x00\n        /* \"#utility.yul\":10297:10364   */\n      tag_626\n        /* \"#utility.yul\":10361:10363   */\n      0x30\n        /* \"#utility.yul\":10356:10359   */\n      dup4\n        /* \"#utility.yul\":10297:10364   */\n      tag_549\n      jump\t// in\n    tag_626:\n        /* \"#utility.yul\":10290:10364   */\n      swap2\n      pop\n        /* \"#utility.yul\":10373:10466   */\n      tag_627\n        /* \"#utility.yul\":10462:10465   */\n      dup3\n        /* \"#utility.yul\":10373:10466   */\n      tag_628\n      jump\t// in\n    tag_627:\n        /* \"#utility.yul\":10491:10493   */\n      0x40\n        /* \"#utility.yul\":10486:10489   */\n      dup3\n        /* \"#utility.yul\":10482:10494   */\n      add\n        /* \"#utility.yul\":10475:10494   */\n      swap1\n      pop\n        /* \"#utility.yul\":10134:10500   */\n      swap2\n      swap1\n      pop\n      jump\t// out\n        /* \"#utility.yul\":10506:10872   */\n    tag_629:\n        /* \"#utility.yul\":10648:10651   */\n      0x00\n        /* \"#utility.yul\":10669:10736   */\n      tag_631\n        /* \"#utility.yul\":10733:10735   */\n      0x18\n        /* \"#utility.yul\":10728:10731   */\n      dup4\n        /* \"#utility.yul\":10669:10736   */\n      tag_549\n      jump\t// in\n    tag_631:\n        /* \"#utility.yul\":10662:10736   */\n      swap2\n      pop\n        /* \"#utility.yul\":10745:10838   */\n      tag_632\n        /* \"#utility.yul\":10834:10837   */\n      dup3\n        /* \"#utility.yul\":10745:10838   */\n      tag_633\n      jump\t// in\n    tag_632:\n        /* \"#utility.yul\":10863:10865   */\n      0x20\n        /* \"#utility.yul\":10858:10861   */\n      dup3\n        /* \"#utility.yul\":10854:10866   */\n      add\n        /* \"#utility.yul\":10847:10866   */\n      swap1\n      pop\n        /* \"#utility.yul\":10506:10872   */\n      swap2\n      swap1\n      pop\n      jump\t// out\n        /* \"#utility.yul\":10878:10996   */\n    tag_634:\n        /* \"#utility.yul\":10965:10989   */\n      tag_636\n        /* \"#utility.yul\":10983:10988   */\n      dup2\n        /* \"#utility.yul\":10965:10989   */\n      tag_637\n      jump\t// in\n    tag_636:\n        /* \"#utility.yul\":10960:10963   */\n      dup3\n        /* \"#utility.yul\":10953:10990   */\n      mstore\n        /* \"#utility.yul\":10878:10996   */\n      pop\n      pop\n      jump\t// out\n        /* \"#utility.yul\":11002:11114   */\n    tag_638:\n        /* \"#utility.yul\":11085:11107   */\n      tag_640\n        /* \"#utility.yul\":11101:11106   */\n      dup2\n        /* \"#utility.yul\":11085:11107   */\n      tag_641\n      jump\t// in\n    tag_640:\n        /* \"#utility.yul\":11080:11083   */\n      dup3\n        /* \"#utility.yul\":11073:11108   */\n      mstore\n        /* \"#utility.yul\":11002:11114   */\n      pop\n      pop\n      jump\t// out\n        /* \"#utility.yul\":11120:11342   */\n    tag_64:\n        /* \"#utility.yul\":11213:11217   */\n      0x00\n        /* \"#utility.yul\":11251:11253   */\n      0x20\n        /* \"#utility.yul\":11240:11249   */\n      dup3\n        /* \"#utility.yul\":11236:11254   */\n      add\n        /* \"#utility.yul\":11228:11254   */\n      swap1\n      pop\n        /* \"#utility.yul\":11264:11335   */\n      tag_643\n        /* \"#utility.yul\":11332:11333   */\n      0x00\n        /* \"#utility.yul\":11321:11330   */\n      dup4\n        /* \"#utility.yul\":11317:11334   */\n      add\n        /* \"#utility.yul\":11308:11314   */\n      dup5\n        /* \"#utility.yul\":11264:11335   */\n      tag_532\n      jump\t// in\n    tag_643:\n        /* \"#utility.yul\":11120:11342   */\n      swap3\n      swap2\n      pop\n      pop\n      jump\t// out\n        /* \"#utility.yul\":11348:11558   */\n    tag_60:\n        /* \"#utility.yul\":11435:11439   */\n      0x00\n        /* \"#utility.yul\":11473:11475   */\n      0x20\n        /* \"#utility.yul\":11462:11471   */\n      dup3\n        /* \"#utility.yul\":11458:11476   */\n      add\n        /* \"#utility.yul\":11450:11476   */\n      swap1\n      pop\n        /* \"#utility.yul\":11486:11551   */\n      tag_645\n        /* \"#utility.yul\":11548:11549   */\n      0x00\n        /* \"#utility.yul\":11537:11546   */\n      dup4\n        /* \"#utility.yul\":11533:11550   */\n      add\n        /* \"#utility.yul\":11524:11530   */\n      dup5\n        /* \"#utility.yul\":11486:11551   */\n      tag_536\n      jump\t// in\n    tag_645:\n        /* \"#utility.yul\":11348:11558   */\n      swap3\n      swap2\n      pop\n      pop\n      jump\t// out\n        /* \"#utility.yul\":11564:11816   */\n    tag_99:\n        /* \"#utility.yul\":11672:11676   */\n      0x00\n        /* \"#utility.yul\":11710:11712   */\n      0x20\n        /* \"#utility.yul\":11699:11708   */\n      dup3\n        /* \"#utility.yul\":11695:11713   */\n      add\n        /* \"#utility.yul\":11687:11713   */\n      swap1\n      pop\n        /* \"#utility.yul\":11723:11809   */\n      tag_647\n        /* \"#utility.yul\":11806:11807   */\n      0x00\n        /* \"#utility.yul\":11795:11804   */\n      dup4\n        /* \"#utility.yul\":11791:11808   */\n      add\n        /* \"#utility.yul\":11782:11788   */\n      dup5\n        /* \"#utility.yul\":11723:11809   */\n      tag_540\n      jump\t// in\n    tag_647:\n        /* \"#utility.yul\":11564:11816   */\n      swap3\n      swap2\n      pop\n      pop\n      jump\t// out\n        /* \"#utility.yul\":11822:12135   */\n    tag_46:\n        /* \"#utility.yul\":11935:11939   */\n      0x00\n        /* \"#utility.yul\":11973:11975   */\n      0x20\n        /* \"#utility.yul\":11962:11971   */\n      dup3\n        /* \"#utility.yul\":11958:11976   */\n      add\n        /* \"#utility.yul\":11950:11976   */\n      swap1\n      pop\n        /* \"#utility.yul\":12022:12031   */\n      dup2\n        /* \"#utility.yul\":12016:12020   */\n      dup2\n        /* \"#utility.yul\":12012:12032   */\n      sub\n        /* \"#utility.yul\":12008:12009   */\n      0x00\n        /* \"#utility.yul\":11997:12006   */\n      dup4\n        /* \"#utility.yul\":11993:12010   */\n      add\n        /* \"#utility.yul\":11986:12033   */\n      mstore\n        /* \"#utility.yul\":12050:12128   */\n      tag_649\n        /* \"#utility.yul\":12123:12127   */\n      dup2\n        /* \"#utility.yul\":12114:12120   */\n      dup5\n        /* \"#utility.yul\":12050:12128   */\n      tag_544\n      jump\t// in\n    tag_649:\n        /* \"#utility.yul\":12042:12128   */\n      swap1\n      pop\n        /* \"#utility.yul\":11822:12135   */\n      swap3\n      swap2\n      pop\n      pop\n      jump\t// out\n        /* \"#utility.yul\":12141:12560   */\n    tag_217:\n        /* \"#utility.yul\":12307:12311   */\n      0x00\n        /* \"#utility.yul\":12345:12347   */\n      0x20\n        /* \"#utility.yul\":12334:12343   */\n      dup3\n        /* \"#utility.yul\":12330:12348   */\n      add\n        /* \"#utility.yul\":12322:12348   */\n      swap1\n      pop\n        /* \"#utility.yul\":12394:12403   */\n      dup2\n        /* \"#utility.yul\":12388:12392   */\n      dup2\n        /* \"#utility.yul\":12384:12404   */\n      sub\n        /* \"#utility.yul\":12380:12381   */\n      0x00\n        /* \"#utility.yul\":12369:12378   */\n      dup4\n        /* \"#utility.yul\":12365:12382   */\n      add\n        /* \"#utility.yul\":12358:12405   */\n      mstore\n        /* \"#utility.yul\":12422:12553   */\n      tag_651\n        /* \"#utility.yul\":12548:12552   */\n      dup2\n        /* \"#utility.yul\":12422:12553   */\n      tag_554\n      jump\t// in\n    tag_651:\n        /* \"#utility.yul\":12414:12553   */\n      swap1\n      pop\n        /* \"#utility.yul\":12141:12560   */\n      swap2\n      swap1\n      pop\n      jump\t// out\n        /* \"#utility.yul\":12566:12985   */\n    tag_236:\n        /* \"#utility.yul\":12732:12736   */\n      0x00\n        /* \"#utility.yul\":12770:12772   */\n      0x20\n        /* \"#utility.yul\":12759:12768   */\n      dup3\n        /* \"#utility.yul\":12755:12773   */\n      add\n        /* \"#utility.yul\":12747:12773   */\n      swap1\n      pop\n        /* \"#utility.yul\":12819:12828   */\n      dup2\n        /* \"#utility.yul\":12813:12817   */\n      dup2\n        /* \"#utility.yul\":12809:12829   */\n      sub\n        /* \"#utility.yul\":12805:12806   */\n      0x00\n        /* \"#utility.yul\":12794:12803   */\n      dup4\n        /* \"#utility.yul\":12790:12807   */\n      add\n        /* \"#utility.yul\":12783:12830   */\n      mstore\n        /* \"#utility.yul\":12847:12978   */\n      tag_653\n        /* \"#utility.yul\":12973:12977   */\n      dup2\n        /* \"#utility.yul\":12847:12978   */\n      tag_559\n      jump\t// in\n    tag_653:\n        /* \"#utility.yul\":12839:12978   */\n      swap1\n      pop\n        /* \"#utility.yul\":12566:12985   */\n      swap2\n      swap1\n      pop\n      jump\t// out\n        /* \"#utility.yul\":12991:13410   */\n    tag_323:\n        /* \"#utility.yul\":13157:13161   */\n      0x00\n        /* \"#utility.yul\":13195:13197   */\n      0x20\n        /* \"#utility.yul\":13184:13193   */\n      dup3\n        /* \"#utility.yul\":13180:13198   */\n      add\n        /* \"#utility.yul\":13172:13198   */\n      swap1\n      pop\n        /* \"#utility.yul\":13244:13253   */\n      dup2\n        /* \"#utility.yul\":13238:13242   */\n      dup2\n        /* \"#utility.yul\":13234:13254   */\n      sub\n        /* \"#utility.yul\":13230:13231   */\n      0x00\n        /* \"#utility.yul\":13219:13228   */\n      dup4\n        /* \"#utility.yul\":13215:13232   */\n      add\n        /* \"#utility.yul\":13208:13255   */\n      mstore\n        /* \"#utility.yul\":13272:13403   */\n      tag_655\n        /* \"#utility.yul\":13398:13402   */\n      dup2\n        /* \"#utility.yul\":13272:13403   */\n      tag_564\n      jump\t// in\n    tag_655:\n        /* \"#utility.yul\":13264:13403   */\n      swap1\n      pop\n        /* \"#utility.yul\":12991:13410   */\n      swap2\n      swap1\n      pop\n      jump\t// out\n        /* \"#utility.yul\":13416:13835   */\n    tag_203:\n        /* \"#utility.yul\":13582:13586   */\n      0x00\n        /* \"#utility.yul\":13620:13622   */\n      0x20\n        /* \"#utility.yul\":13609:13618   */\n      dup3\n        /* \"#utility.yul\":13605:13623   */\n      add\n        /* \"#utility.yul\":13597:13623   */\n      swap1\n      pop\n        /* \"#utility.yul\":13669:13678   */\n      dup2\n        /* \"#utility.yul\":13663:13667   */\n      dup2\n        /* \"#utility.yul\":13659:13679   */\n      sub\n        /* \"#utility.yul\":13655:13656   */\n      0x00\n        /* \"#utility.yul\":13644:13653   */\n      dup4\n        /* \"#utility.yul\":13640:13657   */\n      add\n        /* \"#utility.yul\":13633:13680   */\n      mstore\n        /* \"#utility.yul\":13697:13828   */\n      tag_657\n        /* \"#utility.yul\":13823:13827   */\n      dup2\n        /* \"#utility.yul\":13697:13828   */\n      tag_569\n      jump\t// in\n    tag_657:\n        /* \"#utility.yul\":13689:13828   */\n      swap1\n      pop\n        /* \"#utility.yul\":13416:13835   */\n      swap2\n      swap1\n      pop\n      jump\t// out\n        /* \"#utility.yul\":13841:14260   */\n    tag_176:\n        /* \"#utility.yul\":14007:14011   */\n      0x00\n        /* \"#utility.yul\":14045:14047   */\n      0x20\n        /* \"#utility.yul\":14034:14043   */\n      dup3\n        /* \"#utility.yul\":14030:14048   */\n      add\n        /* \"#utility.yul\":14022:14048   */\n      swap1\n      pop\n        /* \"#utility.yul\":14094:14103   */\n      dup2\n        /* \"#utility.yul\":14088:14092   */\n      dup2\n        /* \"#utility.yul\":14084:14104   */\n      sub\n        /* \"#utility.yul\":14080:14081   */\n      0x00\n        /* \"#utility.yul\":14069:14078   */\n      dup4\n        /* \"#utility.yul\":14065:14082   */\n      add\n        /* \"#utility.yul\":14058:14105   */\n      mstore\n        /* \"#utility.yul\":14122:14253   */\n      tag_659\n        /* \"#utility.yul\":14248:14252   */\n      dup2\n        /* \"#utility.yul\":14122:14253   */\n      tag_574\n      jump\t// in\n    tag_659:\n        /* \"#utility.yul\":14114:14253   */\n      swap1\n      pop\n        /* \"#utility.yul\":13841:14260   */\n      swap2\n      swap1\n      pop\n      jump\t// out\n        /* \"#utility.yul\":14266:14685   */\n    tag_392:\n        /* \"#utility.yul\":14432:14436   */\n      0x00\n        /* \"#utility.yul\":14470:14472   */\n      0x20\n        /* \"#utility.yul\":14459:14468   */\n      dup3\n        /* \"#utility.yul\":14455:14473   */\n      add\n        /* \"#utility.yul\":14447:14473   */\n      swap1\n      pop\n        /* \"#utility.yul\":14519:14528   */\n      dup2\n        /* \"#utility.yul\":14513:14517   */\n      dup2\n        /* \"#utility.yul\":14509:14529   */\n      sub\n        /* \"#utility.yul\":14505:14506   */\n      0x00\n        /* \"#utility.yul\":14494:14503   */\n      dup4\n        /* \"#utility.yul\":14490:14507   */\n      add\n        /* \"#utility.yul\":14483:14530   */\n      mstore\n        /* \"#utility.yul\":14547:14678   */\n      tag_661\n        /* \"#utility.yul\":14673:14677   */\n      dup2\n        /* \"#utility.yul\":14547:14678   */\n      tag_579\n      jump\t// in\n    tag_661:\n        /* \"#utility.yul\":14539:14678   */\n      swap1\n      pop\n        /* \"#utility.yul\":14266:14685   */\n      swap2\n      swap1\n      pop\n      jump\t// out\n        /* \"#utility.yul\":14691:15110   */\n    tag_411:\n        /* \"#utility.yul\":14857:14861   */\n      0x00\n        /* \"#utility.yul\":14895:14897   */\n      0x20\n        /* \"#utility.yul\":14884:14893   */\n      dup3\n        /* \"#utility.yul\":14880:14898   */\n      add\n        /* \"#utility.yul\":14872:14898   */\n      swap1\n      pop\n        /* \"#utility.yul\":14944:14953   */\n      dup2\n        /* \"#utility.yul\":14938:14942   */\n      dup2\n        /* \"#utility.yul\":14934:14954   */\n      sub\n        /* \"#utility.yul\":14930:14931   */\n      0x00\n        /* \"#utility.yul\":14919:14928   */\n      dup4\n        /* \"#utility.yul\":14915:14932   */\n      add\n        /* \"#utility.yul\":14908:14955   */\n      mstore\n        /* \"#utility.yul\":14972:15103   */\n      tag_663\n        /* \"#utility.yul\":15098:15102   */\n      dup2\n        /* \"#utility.yul\":14972:15103   */\n      tag_584\n      jump\t// in\n    tag_663:\n        /* \"#utility.yul\":14964:15103   */\n      swap1\n      pop\n        /* \"#utility.yul\":14691:15110   */\n      swap2\n      swap1\n      pop\n      jump\t// out\n        /* \"#utility.yul\":15116:15535   */\n    tag_398:\n        /* \"#utility.yul\":15282:15286   */\n      0x00\n        /* \"#utility.yul\":15320:15322   */\n      0x20\n        /* \"#utility.yul\":15309:15318   */\n      dup3\n        /* \"#utility.yul\":15305:15323   */\n      add\n        /* \"#utility.yul\":15297:15323   */\n      swap1\n      pop\n        /* \"#utility.yul\":15369:15378   */\n      dup2\n        /* \"#utility.yul\":15363:15367   */\n      dup2\n        /* \"#utility.yul\":15359:15379   */\n      sub\n        /* \"#utility.yul\":15355:15356   */\n      0x00\n        /* \"#utility.yul\":15344:15353   */\n      dup4\n        /* \"#utility.yul\":15340:15357   */\n      add\n        /* \"#utility.yul\":15333:15380   */\n      mstore\n        /* \"#utility.yul\":15397:15528   */\n      tag_665\n        /* \"#utility.yul\":15523:15527   */\n      dup2\n        /* \"#utility.yul\":15397:15528   */\n      tag_589\n      jump\t// in\n    tag_665:\n        /* \"#utility.yul\":15389:15528   */\n      swap1\n      pop\n        /* \"#utility.yul\":15116:15535   */\n      swap2\n      swap1\n      pop\n      jump\t// out\n        /* \"#utility.yul\":15541:15960   */\n    tag_181:\n        /* \"#utility.yul\":15707:15711   */\n      0x00\n        /* \"#utility.yul\":15745:15747   */\n      0x20\n        /* \"#utility.yul\":15734:15743   */\n      dup3\n        /* \"#utility.yul\":15730:15748   */\n      add\n        /* \"#utility.yul\":15722:15748   */\n      swap1\n      pop\n        /* \"#utility.yul\":15794:15803   */\n      dup2\n        /* \"#utility.yul\":15788:15792   */\n      dup2\n        /* \"#utility.yul\":15784:15804   */\n      sub\n        /* \"#utility.yul\":15780:15781   */\n      0x00\n        /* \"#utility.yul\":15769:15778   */\n      dup4\n        /* \"#utility.yul\":15765:15782   */\n      add\n        /* \"#utility.yul\":15758:15805   */\n      mstore\n        /* \"#utility.yul\":15822:15953   */\n      tag_667\n        /* \"#utility.yul\":15948:15952   */\n      dup2\n        /* \"#utility.yul\":15822:15953   */\n      tag_594\n      jump\t// in\n    tag_667:\n        /* \"#utility.yul\":15814:15953   */\n      swap1\n      pop\n        /* \"#utility.yul\":15541:15960   */\n      swap2\n      swap1\n      pop\n      jump\t// out\n        /* \"#utility.yul\":15966:16385   */\n    tag_296:\n        /* \"#utility.yul\":16132:16136   */\n      0x00\n        /* \"#utility.yul\":16170:16172   */\n      0x20\n        /* \"#utility.yul\":16159:16168   */\n      dup3\n        /* \"#utility.yul\":16155:16173   */\n      add\n        /* \"#utility.yul\":16147:16173   */\n      swap1\n      pop\n        /* \"#utility.yul\":16219:16228   */\n      dup2\n        /* \"#utility.yul\":16213:16217   */\n      dup2\n        /* \"#utility.yul\":16209:16229   */\n      sub\n        /* \"#utility.yul\":16205:16206   */\n      0x00\n        /* \"#utility.yul\":16194:16203   */\n      dup4\n        /* \"#utility.yul\":16190:16207   */\n      add\n        /* \"#utility.yul\":16183:16230   */\n      mstore\n        /* \"#utility.yul\":16247:16378   */\n      tag_669\n        /* \"#utility.yul\":16373:16377   */\n      dup2\n        /* \"#utility.yul\":16247:16378   */\n      tag_599\n      jump\t// in\n    tag_669:\n        /* \"#utility.yul\":16239:16378   */\n      swap1\n      pop\n        /* \"#utility.yul\":15966:16385   */\n      swap2\n      swap1\n      pop\n      jump\t// out\n        /* \"#utility.yul\":16391:16810   */\n    tag_221:\n        /* \"#utility.yul\":16557:16561   */\n      0x00\n        /* \"#utility.yul\":16595:16597   */\n      0x20\n        /* \"#utility.yul\":16584:16593   */\n      dup3\n        /* \"#utility.yul\":16580:16598   */\n      add\n        /* \"#utility.yul\":16572:16598   */\n      swap1\n      pop\n        /* \"#utility.yul\":16644:16653   */\n      dup2\n        /* \"#utility.yul\":16638:16642   */\n      dup2\n        /* \"#utility.yul\":16634:16654   */\n      sub\n        /* \"#utility.yul\":16630:16631   */\n      0x00\n        /* \"#utility.yul\":16619:16628   */\n      dup4\n        /* \"#utility.yul\":16615:16632   */\n      add\n        /* \"#utility.yul\":16608:16655   */\n      mstore\n        /* \"#utility.yul\":16672:16803   */\n      tag_671\n        /* \"#utility.yul\":16798:16802   */\n      dup2\n        /* \"#utility.yul\":16672:16803   */\n      tag_604\n      jump\t// in\n    tag_671:\n        /* \"#utility.yul\":16664:16803   */\n      swap1\n      pop\n        /* \"#utility.yul\":16391:16810   */\n      swap2\n      swap1\n      pop\n      jump\t// out\n        /* \"#utility.yul\":16816:17235   */\n    tag_424:\n        /* \"#utility.yul\":16982:16986   */\n      0x00\n        /* \"#utility.yul\":17020:17022   */\n      0x20\n        /* \"#utility.yul\":17009:17018   */\n      dup3\n        /* \"#utility.yul\":17005:17023   */\n      add\n        /* \"#utility.yul\":16997:17023   */\n      swap1\n      pop\n        /* \"#utility.yul\":17069:17078   */\n      dup2\n        /* \"#utility.yul\":17063:17067   */\n      dup2\n        /* \"#utility.yul\":17059:17079   */\n      sub\n        /* \"#utility.yul\":17055:17056   */\n      0x00\n        /* \"#utility.yul\":17044:17053   */\n      dup4\n        /* \"#utility.yul\":17040:17057   */\n      add\n        /* \"#utility.yul\":17033:17080   */\n      mstore\n        /* \"#utility.yul\":17097:17228   */\n      tag_673\n        /* \"#utility.yul\":17223:17227   */\n      dup2\n        /* \"#utility.yul\":17097:17228   */\n      tag_609\n      jump\t// in\n    tag_673:\n        /* \"#utility.yul\":17089:17228   */\n      swap1\n      pop\n        /* \"#utility.yul\":16816:17235   */\n      swap2\n      swap1\n      pop\n      jump\t// out\n        /* \"#utility.yul\":17241:17660   */\n    tag_380:\n        /* \"#utility.yul\":17407:17411   */\n      0x00\n        /* \"#utility.yul\":17445:17447   */\n      0x20\n        /* \"#utility.yul\":17434:17443   */\n      dup3\n        /* \"#utility.yul\":17430:17448   */\n      add\n        /* \"#utility.yul\":17422:17448   */\n      swap1\n      pop\n        /* \"#utility.yul\":17494:17503   */\n      dup2\n        /* \"#utility.yul\":17488:17492   */\n      dup2\n        /* \"#utility.yul\":17484:17504   */\n      sub\n        /* \"#utility.yul\":17480:17481   */\n      0x00\n        /* \"#utility.yul\":17469:17478   */\n      dup4\n        /* \"#utility.yul\":17465:17482   */\n      add\n        /* \"#utility.yul\":17458:17505   */\n      mstore\n        /* \"#utility.yul\":17522:17653   */\n      tag_675\n        /* \"#utility.yul\":17648:17652   */\n      dup2\n        /* \"#utility.yul\":17522:17653   */\n      tag_614\n      jump\t// in\n    tag_675:\n        /* \"#utility.yul\":17514:17653   */\n      swap1\n      pop\n        /* \"#utility.yul\":17241:17660   */\n      swap2\n      swap1\n      pop\n      jump\t// out\n        /* \"#utility.yul\":17666:18085   */\n    tag_199:\n        /* \"#utility.yul\":17832:17836   */\n      0x00\n        /* \"#utility.yul\":17870:17872   */\n      0x20\n        /* \"#utility.yul\":17859:17868   */\n      dup3\n        /* \"#utility.yul\":17855:17873   */\n      add\n        /* \"#utility.yul\":17847:17873   */\n      swap1\n      pop\n        /* \"#utility.yul\":17919:17928   */\n      dup2\n        /* \"#utility.yul\":17913:17917   */\n      dup2\n        /* \"#utility.yul\":17909:17929   */\n      sub\n        /* \"#utility.yul\":17905:17906   */\n      0x00\n        /* \"#utility.yul\":17894:17903   */\n      dup4\n        /* \"#utility.yul\":17890:17907   */\n      add\n        /* \"#utility.yul\":17883:17930   */\n      mstore\n        /* \"#utility.yul\":17947:18078   */\n      tag_677\n        /* \"#utility.yul\":18073:18077   */\n      dup2\n        /* \"#utility.yul\":17947:18078   */\n      tag_619\n      jump\t// in\n    tag_677:\n        /* \"#utility.yul\":17939:18078   */\n      swap1\n      pop\n        /* \"#utility.yul\":17666:18085   */\n      swap2\n      swap1\n      pop\n      jump\t// out\n        /* \"#utility.yul\":18091:18510   */\n    tag_251:\n        /* \"#utility.yul\":18257:18261   */\n      0x00\n        /* \"#utility.yul\":18295:18297   */\n      0x20\n        /* \"#utility.yul\":18284:18293   */\n      dup3\n        /* \"#utility.yul\":18280:18298   */\n      add\n        /* \"#utility.yul\":18272:18298   */\n      swap1\n      pop\n        /* \"#utility.yul\":18344:18353   */\n      dup2\n        /* \"#utility.yul\":18338:18342   */\n      dup2\n        /* \"#utility.yul\":18334:18354   */\n      sub\n        /* \"#utility.yul\":18330:18331   */\n      0x00\n        /* \"#utility.yul\":18319:18328   */\n      dup4\n        /* \"#utility.yul\":18315:18332   */\n      add\n        /* \"#utility.yul\":18308:18355   */\n      mstore\n        /* \"#utility.yul\":18372:18503   */\n      tag_679\n        /* \"#utility.yul\":18498:18502   */\n      dup2\n        /* \"#utility.yul\":18372:18503   */\n      tag_624\n      jump\t// in\n    tag_679:\n        /* \"#utility.yul\":18364:18503   */\n      swap1\n      pop\n        /* \"#utility.yul\":18091:18510   */\n      swap2\n      swap1\n      pop\n      jump\t// out\n        /* \"#utility.yul\":18516:18935   */\n    tag_225:\n        /* \"#utility.yul\":18682:18686   */\n      0x00\n        /* \"#utility.yul\":18720:18722   */\n      0x20\n        /* \"#utility.yul\":18709:18718   */\n      dup3\n        /* \"#utility.yul\":18705:18723   */\n      add\n        /* \"#utility.yul\":18697:18723   */\n      swap1\n      pop\n        /* \"#utility.yul\":18769:18778   */\n      dup2\n        /* \"#utility.yul\":18763:18767   */\n      dup2\n        /* \"#utility.yul\":18759:18779   */\n      sub\n        /* \"#utility.yul\":18755:18756   */\n      0x00\n        /* \"#utility.yul\":18744:18753   */\n      dup4\n        /* \"#utility.yul\":18740:18757   */\n      add\n        /* \"#utility.yul\":18733:18780   */\n      mstore\n        /* \"#utility.yul\":18797:18928   */\n      tag_681\n        /* \"#utility.yul\":18923:18927   */\n      dup2\n        /* \"#utility.yul\":18797:18928   */\n      tag_629\n      jump\t// in\n    tag_681:\n        /* \"#utility.yul\":18789:18928   */\n      swap1\n      pop\n        /* \"#utility.yul\":18516:18935   */\n      swap2\n      swap1\n      pop\n      jump\t// out\n        /* \"#utility.yul\":18941:19163   */\n    tag_54:\n        /* \"#utility.yul\":19034:19038   */\n      0x00\n        /* \"#utility.yul\":19072:19074   */\n      0x20\n        /* \"#utility.yul\":19061:19070   */\n      dup3\n        /* \"#utility.yul\":19057:19075   */\n      add\n        /* \"#utility.yul\":19049:19075   */\n      swap1\n      pop\n        /* \"#utility.yul\":19085:19156   */\n      tag_683\n        /* \"#utility.yul\":19153:19154   */\n      0x00\n        /* \"#utility.yul\":19142:19151   */\n      dup4\n        /* \"#utility.yul\":19138:19155   */\n      add\n        /* \"#utility.yul\":19129:19135   */\n      dup5\n        /* \"#utility.yul\":19085:19156   */\n      tag_634\n      jump\t// in\n    tag_683:\n        /* \"#utility.yul\":18941:19163   */\n      swap3\n      swap2\n      pop\n      pop\n      jump\t// out\n        /* \"#utility.yul\":19169:19501   */\n    tag_164:\n        /* \"#utility.yul\":19290:19294   */\n      0x00\n        /* \"#utility.yul\":19328:19330   */\n      0x40\n        /* \"#utility.yul\":19317:19326   */\n      dup3\n        /* \"#utility.yul\":19313:19331   */\n      add\n        /* \"#utility.yul\":19305:19331   */\n      swap1\n      pop\n        /* \"#utility.yul\":19341:19412   */\n      tag_685\n        /* \"#utility.yul\":19409:19410   */\n      0x00\n        /* \"#utility.yul\":19398:19407   */\n      dup4\n        /* \"#utility.yul\":19394:19411   */\n      add\n        /* \"#utility.yul\":19385:19391   */\n      dup6\n        /* \"#utility.yul\":19341:19412   */\n      tag_634\n      jump\t// in\n    tag_685:\n        /* \"#utility.yul\":19422:19494   */\n      tag_686\n        /* \"#utility.yul\":19490:19492   */\n      0x20\n        /* \"#utility.yul\":19479:19488   */\n      dup4\n        /* \"#utility.yul\":19475:19493   */\n      add\n        /* \"#utility.yul\":19466:19472   */\n      dup5\n        /* \"#utility.yul\":19422:19494   */\n      tag_634\n      jump\t// in\n    tag_686:\n        /* \"#utility.yul\":19169:19501   */\n      swap4\n      swap3\n      pop\n      pop\n      pop\n      jump\t// out\n        /* \"#utility.yul\":19507:19937   */\n    tag_154:\n        /* \"#utility.yul\":19650:19654   */\n      0x00\n        /* \"#utility.yul\":19688:19690   */\n      0x60\n        /* \"#utility.yul\":19677:19686   */\n      dup3\n        /* \"#utility.yul\":19673:19691   */\n      add\n        /* \"#utility.yul\":19665:19691   */\n      swap1\n      pop\n        /* \"#utility.yul\":19701:19772   */\n      tag_688\n        /* \"#utility.yul\":19769:19770   */\n      0x00\n        /* \"#utility.yul\":19758:19767   */\n      dup4\n        /* \"#utility.yul\":19754:19771   */\n      add\n        /* \"#utility.yul\":19745:19751   */\n      dup7\n        /* \"#utility.yul\":19701:19772   */\n      tag_634\n      jump\t// in\n    tag_688:\n        /* \"#utility.yul\":19782:19854   */\n      tag_689\n        /* \"#utility.yul\":19850:19852   */\n      0x20\n        /* \"#utility.yul\":19839:19848   */\n      dup4\n        /* \"#utility.yul\":19835:19853   */\n      add\n        /* \"#utility.yul\":19826:19832   */\n      dup6\n        /* \"#utility.yul\":19782:19854   */\n      tag_634\n      jump\t// in\n    tag_689:\n        /* \"#utility.yul\":19864:19930   */\n      tag_690\n        /* \"#utility.yul\":19926:19928   */\n      0x40\n        /* \"#utility.yul\":19915:19924   */\n      dup4\n        /* \"#utility.yul\":19911:19929   */\n      add\n        /* \"#utility.yul\":19902:19908   */\n      dup5\n        /* \"#utility.yul\":19864:19930   */\n      tag_536\n      jump\t// in\n    tag_690:\n        /* \"#utility.yul\":19507:19937   */\n      swap5\n      swap4\n      pop\n      pop\n      pop\n      pop\n      jump\t// out\n        /* \"#utility.yul\":19943:20385   */\n    tag_228:\n        /* \"#utility.yul\":20092:20096   */\n      0x00\n        /* \"#utility.yul\":20130:20132   */\n      0x60\n        /* \"#utility.yul\":20119:20128   */\n      dup3\n        /* \"#utility.yul\":20115:20133   */\n      add\n        /* \"#utility.yul\":20107:20133   */\n      swap1\n      pop\n        /* \"#utility.yul\":20143:20214   */\n      tag_692\n        /* \"#utility.yul\":20211:20212   */\n      0x00\n        /* \"#utility.yul\":20200:20209   */\n      dup4\n        /* \"#utility.yul\":20196:20213   */\n      add\n        /* \"#utility.yul\":20187:20193   */\n      dup7\n        /* \"#utility.yul\":20143:20214   */\n      tag_634\n      jump\t// in\n    tag_692:\n        /* \"#utility.yul\":20224:20296   */\n      tag_693\n        /* \"#utility.yul\":20292:20294   */\n      0x20\n        /* \"#utility.yul\":20281:20290   */\n      dup4\n        /* \"#utility.yul\":20277:20295   */\n      add\n        /* \"#utility.yul\":20268:20274   */\n      dup6\n        /* \"#utility.yul\":20224:20296   */\n      tag_634\n      jump\t// in\n    tag_693:\n        /* \"#utility.yul\":20306:20378   */\n      tag_694\n        /* \"#utility.yul\":20374:20376   */\n      0x40\n        /* \"#utility.yul\":20363:20372   */\n      dup4\n        /* \"#utility.yul\":20359:20377   */\n      add\n        /* \"#utility.yul\":20350:20356   */\n      dup5\n        /* \"#utility.yul\":20306:20378   */\n      tag_634\n      jump\t// in\n    tag_694:\n        /* \"#utility.yul\":19943:20385   */\n      swap5\n      swap4\n      pop\n      pop\n      pop\n      pop\n      jump\t// out\n        /* \"#utility.yul\":20391:20605   */\n    tag_76:\n        /* \"#utility.yul\":20480:20484   */\n      0x00\n        /* \"#utility.yul\":20518:20520   */\n      0x20\n        /* \"#utility.yul\":20507:20516   */\n      dup3\n        /* \"#utility.yul\":20503:20521   */\n      add\n        /* \"#utility.yul\":20495:20521   */\n      swap1\n      pop\n        /* \"#utility.yul\":20531:20598   */\n      tag_696\n        /* \"#utility.yul\":20595:20596   */\n      0x00\n        /* \"#utility.yul\":20584:20593   */\n      dup4\n        /* \"#utility.yul\":20580:20597   */\n      add\n        /* \"#utility.yul\":20571:20577   */\n      dup5\n        /* \"#utility.yul\":20531:20598   */\n      tag_638\n      jump\t// in\n    tag_696:\n        /* \"#utility.yul\":20391:20605   */\n      swap3\n      swap2\n      pop\n      pop\n      jump\t// out\n        /* \"#utility.yul\":20692:20791   */\n    tag_547:\n        /* \"#utility.yul\":20744:20750   */\n      0x00\n        /* \"#utility.yul\":20778:20783   */\n      dup2\n        /* \"#utility.yul\":20772:20784   */\n      mload\n        /* \"#utility.yul\":20762:20784   */\n      swap1\n      pop\n        /* \"#utility.yul\":20692:20791   */\n      swap2\n      swap1\n      pop\n      jump\t// out\n        /* \"#utility.yul\":20797:20966   */\n    tag_549:\n        /* \"#utility.yul\":20881:20892   */\n      0x00\n        /* \"#utility.yul\":20915:20921   */\n      dup3\n        /* \"#utility.yul\":20910:20913   */\n      dup3\n        /* \"#utility.yul\":20903:20922   */\n      mstore\n        /* \"#utility.yul\":20955:20959   */\n      0x20\n        /* \"#utility.yul\":20950:20953   */\n      dup3\n        /* \"#utility.yul\":20946:20960   */\n      add\n        /* \"#utility.yul\":20931:20960   */\n      swap1\n      pop\n        /* \"#utility.yul\":20797:20966   */\n      swap3\n      swap2\n      pop\n      pop\n      jump\t// out\n        /* \"#utility.yul\":20972:21277   */\n    tag_370:\n        /* \"#utility.yul\":21012:21015   */\n      0x00\n        /* \"#utility.yul\":21031:21051   */\n      tag_702\n        /* \"#utility.yul\":21049:21050   */\n      dup3\n        /* \"#utility.yul\":21031:21051   */\n      tag_637\n      jump\t// in\n    tag_702:\n        /* \"#utility.yul\":21026:21051   */\n      swap2\n      pop\n        /* \"#utility.yul\":21065:21085   */\n      tag_703\n        /* \"#utility.yul\":21083:21084   */\n      dup4\n        /* \"#utility.yul\":21065:21085   */\n      tag_637\n      jump\t// in\n    tag_703:\n        /* \"#utility.yul\":21060:21085   */\n      swap3\n      pop\n        /* \"#utility.yul\":21219:21220   */\n      dup3\n        /* \"#utility.yul\":21151:21217   */\n      0xffffffffffffffffffffffffffffffffffffffffffffffffffffffffffffffff\n        /* \"#utility.yul\":21147:21221   */\n      sub\n        /* \"#utility.yul\":21144:21145   */\n      dup3\n        /* \"#utility.yul\":21141:21222   */\n      gt\n        /* \"#utility.yul\":21138:21245   */\n      iszero\n      tag_704\n      jumpi\n        /* \"#utility.yul\":21225:21243   */\n      tag_705\n      tag_706\n      jump\t// in\n    tag_705:\n        /* \"#utility.yul\":21138:21245   */\n    tag_704:\n        /* \"#utility.yul\":21269:21270   */\n      dup3\n        /* \"#utility.yul\":21266:21267   */\n      dup3\n        /* \"#utility.yul\":21262:21271   */\n      add\n        /* \"#utility.yul\":21255:21271   */\n      swap1\n      pop\n        /* \"#utility.yul\":20972:21277   */\n      swap3\n      swap2\n      pop\n      pop\n      jump\t// out\n        /* \"#utility.yul\":21283:21468   */\n    tag_189:\n        /* \"#utility.yul\":21323:21324   */\n      0x00\n        /* \"#utility.yul\":21340:21360   */\n      tag_708\n        /* \"#utility.yul\":21358:21359   */\n      dup3\n        /* \"#utility.yul\":21340:21360   */\n      tag_637\n      jump\t// in\n    tag_708:\n        /* \"#utility.yul\":21335:21360   */\n      swap2\n      pop\n        /* \"#utility.yul\":21374:21394   */\n      tag_709\n        /* \"#utility.yul\":21392:21393   */\n      dup4\n        /* \"#utility.yul\":21374:21394   */\n      tag_637\n      jump\t// in\n    tag_709:\n        /* \"#utility.yul\":21369:21394   */\n      swap3\n      pop\n        /* \"#utility.yul\":21413:21414   */\n      dup3\n        /* \"#utility.yul\":21403:21438   */\n      tag_710\n      jumpi\n        /* \"#utility.yul\":21418:21436   */\n      tag_711\n      tag_712\n      jump\t// in\n    tag_711:\n        /* \"#utility.yul\":21403:21438   */\n    tag_710:\n        /* \"#utility.yul\":21460:21461   */\n      dup3\n        /* \"#utility.yul\":21457:21458   */\n      dup3\n        /* \"#utility.yul\":21453:21462   */\n      div\n        /* \"#utility.yul\":21448:21462   */\n      swap1\n      pop\n        /* \"#utility.yul\":21283:21468   */\n      swap3\n      swap2\n      pop\n      pop\n      jump\t// out\n        /* \"#utility.yul\":21474:21822   */\n    tag_445:\n        /* \"#utility.yul\":21514:21521   */\n      0x00\n        /* \"#utility.yul\":21537:21557   */\n      tag_714\n        /* \"#utility.yul\":21555:21556   */\n      dup3\n        /* \"#utility.yul\":21537:21557   */\n      tag_637\n      jump\t// in\n    tag_714:\n        /* \"#utility.yul\":21532:21557   */\n      swap2\n      pop\n        /* \"#utility.yul\":21571:21591   */\n      tag_715\n        /* \"#utility.yul\":21589:21590   */\n      dup4\n        /* \"#utility.yul\":21571:21591   */\n      tag_637\n      jump\t// in\n    tag_715:\n        /* \"#utility.yul\":21566:21591   */\n      swap3\n      pop\n        /* \"#utility.yul\":21759:21760   */\n      dup2\n        /* \"#utility.yul\":21691:21757   */\n      0xffffffffffffffffffffffffffffffffffffffffffffffffffffffffffffffff\n        /* \"#utility.yul\":21687:21761   */\n      div\n        /* \"#utility.yul\":21684:21685   */\n      dup4\n        /* \"#utility.yul\":21681:21762   */\n      gt\n        /* \"#utility.yul\":21676:21677   */\n      dup3\n        /* \"#utility.yul\":21669:21678   */\n      iszero\n        /* \"#utility.yul\":21662:21679   */\n      iszero\n        /* \"#utility.yul\":21658:21763   */\n      and\n        /* \"#utility.yul\":21655:21786   */\n      iszero\n      tag_716\n      jumpi\n        /* \"#utility.yul\":21766:21784   */\n      tag_717\n      tag_706\n      jump\t// in\n    tag_717:\n        /* \"#utility.yul\":21655:21786   */\n    tag_716:\n        /* \"#utility.yul\":21814:21815   */\n      dup3\n        /* \"#utility.yul\":21811:21812   */\n      dup3\n        /* \"#utility.yul\":21807:21816   */\n      mul\n        /* \"#utility.yul\":21796:21816   */\n      swap1\n      pop\n        /* \"#utility.yul\":21474:21822   */\n      swap3\n      swap2\n      pop\n      pop\n      jump\t// out\n        /* \"#utility.yul\":21828:22019   */\n    tag_347:\n        /* \"#utility.yul\":21868:21872   */\n      0x00\n        /* \"#utility.yul\":21888:21908   */\n      tag_719\n        /* \"#utility.yul\":21906:21907   */\n      dup3\n        /* \"#utility.yul\":21888:21908   */\n      tag_637\n      jump\t// in\n    tag_719:\n        /* \"#utility.yul\":21883:21908   */\n      swap2\n      pop\n        /* \"#utility.yul\":21922:21942   */\n      tag_720\n        /* \"#utility.yul\":21940:21941   */\n      dup4\n        /* \"#utility.yul\":21922:21942   */\n      tag_637\n      jump\t// in\n    tag_720:\n        /* \"#utility.yul\":21917:21942   */\n      swap3\n      pop\n        /* \"#utility.yul\":21961:21962   */\n      dup3\n        /* \"#utility.yul\":21958:21959   */\n      dup3\n        /* \"#utility.yul\":21955:21963   */\n      lt\n        /* \"#utility.yul\":21952:21986   */\n      iszero\n      tag_721\n      jumpi\n        /* \"#utility.yul\":21966:21984   */\n      tag_722\n      tag_706\n      jump\t// in\n    tag_722:\n        /* \"#utility.yul\":21952:21986   */\n    tag_721:\n        /* \"#utility.yul\":22011:22012   */\n      dup3\n        /* \"#utility.yul\":22008:22009   */\n      dup3\n        /* \"#utility.yul\":22004:22013   */\n      sub\n        /* \"#utility.yul\":21996:22013   */\n      swap1\n      pop\n        /* \"#utility.yul\":21828:22019   */\n      swap3\n      swap2\n      pop\n      pop\n      jump\t// out\n        /* \"#utility.yul\":22025:22121   */\n    tag_535:\n        /* \"#utility.yul\":22062:22069   */\n      0x00\n        /* \"#utility.yul\":22091:22115   */\n      tag_724\n        /* \"#utility.yul\":22109:22114   */\n      dup3\n        /* \"#utility.yul\":22091:22115   */\n      tag_725\n      jump\t// in\n    tag_724:\n        /* \"#utility.yul\":22080:22115   */\n      swap1\n      pop\n        /* \"#utility.yul\":22025:22121   */\n      swap2\n      swap1\n      pop\n      jump\t// out\n        /* \"#utility.yul\":22127:22217   */\n    tag_539:\n        /* \"#utility.yul\":22161:22168   */\n      0x00\n        /* \"#utility.yul\":22204:22209   */\n      dup2\n        /* \"#utility.yul\":22197:22210   */\n      iszero\n        /* \"#utility.yul\":22190:22211   */\n      iszero\n        /* \"#utility.yul\":22179:22211   */\n      swap1\n      pop\n        /* \"#utility.yul\":22127:22217   */\n      swap2\n      swap1\n      pop\n      jump\t// out\n        /* \"#utility.yul\":22223:22368   */\n    tag_727:\n        /* \"#utility.yul\":22277:22284   */\n      0x00\n        /* \"#utility.yul\":22306:22311   */\n      dup2\n        /* \"#utility.yul\":22295:22311   */\n      swap1\n      pop\n        /* \"#utility.yul\":22312:22362   */\n      tag_729\n        /* \"#utility.yul\":22356:22361   */\n      dup3\n        /* \"#utility.yul\":22312:22362   */\n      tag_730\n      jump\t// in\n    tag_729:\n        /* \"#utility.yul\":22223:22368   */\n      swap2\n      swap1\n      pop\n      jump\t// out\n        /* \"#utility.yul\":22374:22500   */\n    tag_725:\n        /* \"#utility.yul\":22411:22418   */\n      0x00\n        /* \"#utility.yul\":22451:22493   */\n      0xffffffffffffffffffffffffffffffffffffffff\n        /* \"#utility.yul\":22444:22449   */\n      dup3\n        /* \"#utility.yul\":22440:22494   */\n      and\n        /* \"#utility.yul\":22429:22494   */\n      swap1\n      pop\n        /* \"#utility.yul\":22374:22500   */\n      swap2\n      swap1\n      pop\n      jump\t// out\n        /* \"#utility.yul\":22506:22583   */\n    tag_637:\n        /* \"#utility.yul\":22543:22550   */\n      0x00\n        /* \"#utility.yul\":22572:22577   */\n      dup2\n        /* \"#utility.yul\":22561:22577   */\n      swap1\n      pop\n        /* \"#utility.yul\":22506:22583   */\n      swap2\n      swap1\n      pop\n      jump\t// out\n        /* \"#utility.yul\":22589:22675   */\n    tag_641:\n        /* \"#utility.yul\":22624:22631   */\n      0x00\n        /* \"#utility.yul\":22664:22668   */\n      0xff\n        /* \"#utility.yul\":22657:22662   */\n      dup3\n        /* \"#utility.yul\":22653:22669   */\n      and\n        /* \"#utility.yul\":22642:22669   */\n      swap1\n      pop\n        /* \"#utility.yul\":22589:22675   */\n      swap2\n      swap1\n      pop\n      jump\t// out\n        /* \"#utility.yul\":22681:22826   */\n    tag_543:\n        /* \"#utility.yul\":22746:22755   */\n      0x00\n        /* \"#utility.yul\":22779:22820   */\n      tag_735\n        /* \"#utility.yul\":22814:22819   */\n      dup3\n        /* \"#utility.yul\":22779:22820   */\n      tag_727\n      jump\t// in\n    tag_735:\n        /* \"#utility.yul\":22766:22820   */\n      swap1\n      pop\n        /* \"#utility.yul\":22681:22826   */\n      swap2\n      swap1\n      pop\n      jump\t// out\n        /* \"#utility.yul\":22832:23139   */\n    tag_551:\n        /* \"#utility.yul\":22900:22901   */\n      0x00\n        /* \"#utility.yul\":22910:23023   */\n    tag_737:\n        /* \"#utility.yul\":22924:22930   */\n      dup4\n        /* \"#utility.yul\":22921:22922   */\n      dup2\n        /* \"#utility.yul\":22918:22931   */\n      lt\n        /* \"#utility.yul\":22910:23023   */\n      iszero\n      tag_739\n      jumpi\n        /* \"#utility.yul\":23009:23010   */\n      dup1\n        /* \"#utility.yul\":23004:23007   */\n      dup3\n        /* \"#utility.yul\":23000:23011   */\n      add\n        /* \"#utility.yul\":22994:23012   */\n      mload\n        /* \"#utility.yul\":22990:22991   */\n      dup2\n        /* \"#utility.yul\":22985:22988   */\n      dup5\n        /* \"#utility.yul\":22981:22992   */\n      add\n        /* \"#utility.yul\":22974:23013   */\n      mstore\n        /* \"#utility.yul\":22946:22948   */\n      0x20\n        /* \"#utility.yul\":22943:22944   */\n      dup2\n        /* \"#utility.yul\":22939:22949   */\n      add\n        /* \"#utility.yul\":22934:22949   */\n      swap1\n      pop\n        /* \"#utility.yul\":22910:23023   */\n      jump(tag_737)\n    tag_739:\n        /* \"#utility.yul\":23041:23047   */\n      dup4\n        /* \"#utility.yul\":23038:23039   */\n      dup2\n        /* \"#utility.yul\":23035:23048   */\n      gt\n        /* \"#utility.yul\":23032:23133   */\n      iszero\n      tag_740\n      jumpi\n        /* \"#utility.yul\":23121:23122   */\n      0x00\n        /* \"#utility.yul\":23112:23118   */\n      dup5\n        /* \"#utility.yul\":23107:23110   */\n      dup5\n        /* \"#utility.yul\":23103:23119   */\n      add\n        /* \"#utility.yul\":23096:23123   */\n      mstore\n        /* \"#utility.yul\":23032:23133   */\n    tag_740:\n        /* \"#utility.yul\":22881:23139   */\n      pop\n        /* \"#utility.yul\":22832:23139   */\n      pop\n      pop\n      pop\n      jump\t// out\n        /* \"#utility.yul\":23145:23465   */\n    tag_167:\n        /* \"#utility.yul\":23189:23195   */\n      0x00\n        /* \"#utility.yul\":23226:23227   */\n      0x02\n        /* \"#utility.yul\":23220:23224   */\n      dup3\n        /* \"#utility.yul\":23216:23228   */\n      div\n        /* \"#utility.yul\":23206:23228   */\n      swap1\n      pop\n        /* \"#utility.yul\":23273:23274   */\n      0x01\n        /* \"#utility.yul\":23267:23271   */\n      dup3\n        /* \"#utility.yul\":23263:23275   */\n      and\n        /* \"#utility.yul\":23294:23312   */\n      dup1\n        /* \"#utility.yul\":23284:23365   */\n      tag_742\n      jumpi\n        /* \"#utility.yul\":23350:23354   */\n      0x7f\n        /* \"#utility.yul\":23342:23348   */\n      dup3\n        /* \"#utility.yul\":23338:23355   */\n      and\n        /* \"#utility.yul\":23328:23355   */\n      swap2\n      pop\n        /* \"#utility.yul\":23284:23365   */\n    tag_742:\n        /* \"#utility.yul\":23412:23414   */\n      0x20\n        /* \"#utility.yul\":23404:23410   */\n      dup3\n        /* \"#utility.yul\":23401:23415   */\n      lt\n        /* \"#utility.yul\":23381:23399   */\n      dup2\n        /* \"#utility.yul\":23378:23416   */\n      eq\n        /* \"#utility.yul\":23375:23459   */\n      iszero\n      tag_743\n      jumpi\n        /* \"#utility.yul\":23431:23449   */\n      tag_744\n      tag_745\n      jump\t// in\n    tag_744:\n        /* \"#utility.yul\":23375:23459   */\n    tag_743:\n        /* \"#utility.yul\":23196:23465   */\n      pop\n        /* \"#utility.yul\":23145:23465   */\n      swap2\n      swap1\n      pop\n      jump\t// out\n        /* \"#utility.yul\":23471:23651   */\n    tag_706:\n        /* \"#utility.yul\":23519:23596   */\n      0x4e487b7100000000000000000000000000000000000000000000000000000000\n        /* \"#utility.yul\":23516:23517   */\n      0x00\n        /* \"#utility.yul\":23509:23597   */\n      mstore\n        /* \"#utility.yul\":23616:23620   */\n      0x11\n        /* \"#utility.yul\":23613:23614   */\n      0x04\n        /* \"#utility.yul\":23606:23621   */\n      mstore\n        /* \"#utility.yul\":23640:23644   */\n      0x24\n        /* \"#utility.yul\":23637:23638   */\n      0x00\n        /* \"#utility.yul\":23630:23645   */\n      revert\n        /* \"#utility.yul\":23657:23837   */\n    tag_712:\n        /* \"#utility.yul\":23705:23782   */\n      0x4e487b7100000000000000000000000000000000000000000000000000000000\n        /* \"#utility.yul\":23702:23703   */\n      0x00\n        /* \"#utility.yul\":23695:23783   */\n      mstore\n        /* \"#utility.yul\":23802:23806   */\n      0x12\n        /* \"#utility.yul\":23799:23800   */\n      0x04\n        /* \"#utility.yul\":23792:23807   */\n      mstore\n        /* \"#utility.yul\":23826:23830   */\n      0x24\n        /* \"#utility.yul\":23823:23824   */\n      0x00\n        /* \"#utility.yul\":23816:23831   */\n      revert\n        /* \"#utility.yul\":23843:24023   */\n    tag_302:\n        /* \"#utility.yul\":23891:23968   */\n      0x4e487b7100000000000000000000000000000000000000000000000000000000\n        /* \"#utility.yul\":23888:23889   */\n      0x00\n        /* \"#utility.yul\":23881:23969   */\n      mstore\n        /* \"#utility.yul\":23988:23992   */\n      0x21\n        /* \"#utility.yul\":23985:23986   */\n      0x04\n        /* \"#utility.yul\":23978:23993   */\n      mstore\n        /* \"#utility.yul\":24012:24016   */\n      0x24\n        /* \"#utility.yul\":24009:24010   */\n      0x00\n        /* \"#utility.yul\":24002:24017   */\n      revert\n        /* \"#utility.yul\":24029:24209   */\n    tag_745:\n        /* \"#utility.yul\":24077:24154   */\n      0x4e487b7100000000000000000000000000000000000000000000000000000000\n        /* \"#utility.yul\":24074:24075   */\n      0x00\n        /* \"#utility.yul\":24067:24155   */\n      mstore\n        /* \"#utility.yul\":24174:24178   */\n      0x22\n        /* \"#utility.yul\":24171:24172   */\n      0x04\n        /* \"#utility.yul\":24164:24179   */\n      mstore\n        /* \"#utility.yul\":24198:24202   */\n      0x24\n        /* \"#utility.yul\":24195:24196   */\n      0x00\n        /* \"#utility.yul\":24188:24203   */\n      revert\n        /* \"#utility.yul\":24215:24332   */\n    tag_488:\n        /* \"#utility.yul\":24324:24325   */\n      0x00\n        /* \"#utility.yul\":24321:24322   */\n      dup1\n        /* \"#utility.yul\":24314:24326   */\n      revert\n        /* \"#utility.yul\":24338:24455   */\n    tag_485:\n        /* \"#utility.yul\":24447:24448   */\n      0x00\n        /* \"#utility.yul\":24444:24445   */\n      dup1\n        /* \"#utility.yul\":24437:24449   */\n      revert\n        /* \"#utility.yul\":24461:24578   */\n    tag_491:\n        /* \"#utility.yul\":24570:24571   */\n      0x00\n        /* \"#utility.yul\":24567:24568   */\n      dup1\n        /* \"#utility.yul\":24560:24572   */\n      revert\n        /* \"#utility.yul\":24584:24701   */\n    tag_522:\n        /* \"#utility.yul\":24693:24694   */\n      0x00\n        /* \"#utility.yul\":24690:24691   */\n      dup1\n        /* \"#utility.yul\":24683:24695   */\n      revert\n        /* \"#utility.yul\":24707:24824   */\n    tag_499:\n        /* \"#utility.yul\":24816:24817   */\n      0x00\n        /* \"#utility.yul\":24813:24814   */\n      dup1\n        /* \"#utility.yul\":24806:24818   */\n      revert\n        /* \"#utility.yul\":24830:24932   */\n    tag_553:\n        /* \"#utility.yul\":24871:24877   */\n      0x00\n        /* \"#utility.yul\":24922:24924   */\n      0x1f\n        /* \"#utility.yul\":24918:24925   */\n      not\n        /* \"#utility.yul\":24913:24915   */\n      0x1f\n        /* \"#utility.yul\":24906:24911   */\n      dup4\n        /* \"#utility.yul\":24902:24916   */\n      add\n        /* \"#utility.yul\":24898:24926   */\n      and\n        /* \"#utility.yul\":24888:24926   */\n      swap1\n      pop\n        /* \"#utility.yul\":24830:24932   */\n      swap2\n      swap1\n      pop\n      jump\t// out\n        /* \"#utility.yul\":24938:25111   */\n    tag_558:\n        /* \"#utility.yul\":25078:25103   */\n      0x43616c6c6572206973206e6f7420746865205661756c74000000000000000000\n        /* \"#utility.yul\":25074:25075   */\n      0x00\n        /* \"#utility.yul\":25066:25072   */\n      dup3\n        /* \"#utility.yul\":25062:25076   */\n      add\n        /* \"#utility.yul\":25055:25104   */\n      mstore\n        /* \"#utility.yul\":24938:25111   */\n      pop\n      jump\t// out\n        /* \"#utility.yul\":25117:25291   */\n    tag_563:\n        /* \"#utility.yul\":25257:25283   */\n      0x496e76616c6964206368616e676520696e20737570706c790000000000000000\n        /* \"#utility.yul\":25253:25254   */\n      0x00\n        /* \"#utility.yul\":25245:25251   */\n      dup3\n        /* \"#utility.yul\":25241:25255   */\n      add\n        /* \"#utility.yul\":25234:25284   */\n      mstore\n        /* \"#utility.yul\":25117:25291   */\n      pop\n      jump\t// out\n        /* \"#utility.yul\":25297:25472   */\n    tag_568:\n        /* \"#utility.yul\":25437:25464   */\n      0x4163636f756e7420686173206e6f74206f70746564206f757400000000000000\n        /* \"#utility.yul\":25433:25434   */\n      0x00\n        /* \"#utility.yul\":25425:25431   */\n      dup3\n        /* \"#utility.yul\":25421:25435   */\n      add\n        /* \"#utility.yul\":25414:25465   */\n      mstore\n        /* \"#utility.yul\":25297:25472   */\n      pop\n      jump\t// out\n        /* \"#utility.yul\":25478:25657   */\n    tag_573:\n        /* \"#utility.yul\":25618:25649   */\n      0x5472616e736665722067726561746572207468616e2062616c616e6365000000\n        /* \"#utility.yul\":25614:25615   */\n      0x00\n        /* \"#utility.yul\":25606:25612   */\n      dup3\n        /* \"#utility.yul\":25602:25616   */\n      add\n        /* \"#utility.yul\":25595:25650   */\n      mstore\n        /* \"#utility.yul\":25478:25657   */\n      pop\n      jump\t// out\n        /* \"#utility.yul\":25663:25839   */\n    tag_578:\n        /* \"#utility.yul\":25803:25831   */\n      0x43616c6c6572206973206e6f742074686520476f7665726e6f72000000000000\n        /* \"#utility.yul\":25799:25800   */\n      0x00\n        /* \"#utility.yul\":25791:25797   */\n      dup3\n        /* \"#utility.yul\":25787:25801   */\n      add\n        /* \"#utility.yul\":25780:25832   */\n      mstore\n        /* \"#utility.yul\":25663:25839   */\n      pop\n      jump\t// out\n        /* \"#utility.yul\":25845:26005   */\n    tag_583:\n        /* \"#utility.yul\":25985:25997   */\n      0x4d617820737570706c7900000000000000000000000000000000000000000000\n        /* \"#utility.yul\":25981:25982   */\n      0x00\n        /* \"#utility.yul\":25973:25979   */\n      dup3\n        /* \"#utility.yul\":25969:25983   */\n      add\n        /* \"#utility.yul\":25962:25998   */\n      mstore\n        /* \"#utility.yul\":25845:26005   */\n      pop\n      jump\t// out\n        /* \"#utility.yul\":26011:26187   */\n    tag_588:\n        /* \"#utility.yul\":26151:26179   */\n      0x4275726e2066726f6d20746865207a65726f2061646472657373000000000000\n        /* \"#utility.yul\":26147:26148   */\n      0x00\n        /* \"#utility.yul\":26139:26145   */\n      dup3\n        /* \"#utility.yul\":26135:26149   */\n      add\n        /* \"#utility.yul\":26128:26180   */\n      mstore\n        /* \"#utility.yul\":26011:26187   */\n      pop\n      jump\t// out\n        /* \"#utility.yul\":26193:26369   */\n    tag_593:\n        /* \"#utility.yul\":26333:26361   */\n      0x4e657720476f7665726e6f722069732061646472657373283029000000000000\n        /* \"#utility.yul\":26329:26330   */\n      0x00\n        /* \"#utility.yul\":26321:26327   */\n      dup3\n        /* \"#utility.yul\":26317:26331   */\n      add\n        /* \"#utility.yul\":26310:26362   */\n      mstore\n        /* \"#utility.yul\":26193:26369   */\n      pop\n      jump\t// out\n        /* \"#utility.yul\":26375:26608   */\n    tag_598:\n        /* \"#utility.yul\":26515:26549   */\n      0x496e697469616c697a61626c653a20636f6e747261637420697320616c726561\n        /* \"#utility.yul\":26511:26512   */\n      0x00\n        /* \"#utility.yul\":26503:26509   */\n      dup3\n        /* \"#utility.yul\":26499:26513   */\n      add\n        /* \"#utility.yul\":26492:26550   */\n      mstore\n        /* \"#utility.yul\":26584:26600   */\n      0x647920696e697469616c697a6564000000000000000000000000000000000000\n        /* \"#utility.yul\":26579:26581   */\n      0x20\n        /* \"#utility.yul\":26571:26577   */\n      dup3\n        /* \"#utility.yul\":26567:26582   */\n      add\n        /* \"#utility.yul\":26560:26601   */\n      mstore\n        /* \"#utility.yul\":26375:26608   */\n      pop\n      jump\t// out\n        /* \"#utility.yul\":26614:26788   */\n    tag_603:\n        /* \"#utility.yul\":26754:26780   */\n      0x4163636f756e7420686173206e6f74206f7074656420696e0000000000000000\n        /* \"#utility.yul\":26750:26751   */\n      0x00\n        /* \"#utility.yul\":26742:26748   */\n      dup3\n        /* \"#utility.yul\":26738:26752   */\n      add\n        /* \"#utility.yul\":26731:26781   */\n      mstore\n        /* \"#utility.yul\":26614:26788   */\n      pop\n      jump\t// out\n        /* \"#utility.yul\":26794:26958   */\n    tag_608:\n        /* \"#utility.yul\":26934:26950   */\n      0x5265656e7472616e742063616c6c000000000000000000000000000000000000\n        /* \"#utility.yul\":26930:26931   */\n      0x00\n        /* \"#utility.yul\":26922:26928   */\n      dup3\n        /* \"#utility.yul\":26918:26932   */\n      add\n        /* \"#utility.yul\":26911:26951   */\n      mstore\n        /* \"#utility.yul\":26794:26958   */\n      pop\n      jump\t// out\n        /* \"#utility.yul\":26964:27136   */\n    tag_613:\n        /* \"#utility.yul\":27104:27128   */\n      0x52656d6f766520657863656564732062616c616e636500000000000000000000\n        /* \"#utility.yul\":27100:27101   */\n      0x00\n        /* \"#utility.yul\":27092:27098   */\n      dup3\n        /* \"#utility.yul\":27088:27102   */\n      add\n        /* \"#utility.yul\":27081:27129   */\n      mstore\n        /* \"#utility.yul\":26964:27136   */\n      pop\n      jump\t// out\n        /* \"#utility.yul\":27142:27316   */\n    tag_618:\n        /* \"#utility.yul\":27282:27308   */\n      0x4d696e7420746f20746865207a65726f20616464726573730000000000000000\n        /* \"#utility.yul\":27278:27279   */\n      0x00\n        /* \"#utility.yul\":27270:27276   */\n      dup3\n        /* \"#utility.yul\":27266:27280   */\n      add\n        /* \"#utility.yul\":27259:27309   */\n      mstore\n        /* \"#utility.yul\":27142:27316   */\n      pop\n      jump\t// out\n        /* \"#utility.yul\":27322:27496   */\n    tag_623:\n        /* \"#utility.yul\":27462:27488   */\n      0x5472616e7366657220746f207a65726f20616464726573730000000000000000\n        /* \"#utility.yul\":27458:27459   */\n      0x00\n        /* \"#utility.yul\":27450:27456   */\n      dup3\n        /* \"#utility.yul\":27446:27460   */\n      add\n        /* \"#utility.yul\":27439:27489   */\n      mstore\n        /* \"#utility.yul\":27322:27496   */\n      pop\n      jump\t// out\n        /* \"#utility.yul\":27502:27737   */\n    tag_628:\n        /* \"#utility.yul\":27642:27676   */\n      0x4f6e6c79207468652070656e64696e6720476f7665726e6f722063616e20636f\n        /* \"#utility.yul\":27638:27639   */\n      0x00\n        /* \"#utility.yul\":27630:27636   */\n      dup3\n        /* \"#utility.yul\":27626:27640   */\n      add\n        /* \"#utility.yul\":27619:27677   */\n      mstore\n        /* \"#utility.yul\":27711:27729   */\n      0x6d706c6574652074686520636c61696d00000000000000000000000000000000\n        /* \"#utility.yul\":27706:27708   */\n      0x20\n        /* \"#utility.yul\":27698:27704   */\n      dup3\n        /* \"#utility.yul\":27694:27709   */\n      add\n        /* \"#utility.yul\":27687:27730   */\n      mstore\n        /* \"#utility.yul\":27502:27737   */\n      pop\n      jump\t// out\n        /* \"#utility.yul\":27743:27917   */\n    tag_633:\n        /* \"#utility.yul\":27883:27909   */\n      0x43616e6e6f7420696e637265617365203020737570706c790000000000000000\n        /* \"#utility.yul\":27879:27880   */\n      0x00\n        /* \"#utility.yul\":27871:27877   */\n      dup3\n        /* \"#utility.yul\":27867:27881   */\n      add\n        /* \"#utility.yul\":27860:27910   */\n      mstore\n        /* \"#utility.yul\":27743:27917   */\n      pop\n      jump\t// out\n        /* \"#utility.yul\":27923:28045   */\n    tag_730:\n        /* \"#utility.yul\":28013:28014   */\n      0x03\n        /* \"#utility.yul\":28006:28011   */\n      dup2\n        /* \"#utility.yul\":28003:28015   */\n      lt\n        /* \"#utility.yul\":27993:28039   */\n      tag_773\n      jumpi\n        /* \"#utility.yul\":28019:28037   */\n      tag_774\n      tag_302\n      jump\t// in\n    tag_774:\n        /* \"#utility.yul\":27993:28039   */\n    tag_773:\n        /* \"#utility.yul\":27923:28045   */\n      pop\n      jump\t// out\n        /* \"#utility.yul\":28051:28173   */\n    tag_480:\n        /* \"#utility.yul\":28124:28148   */\n      tag_776\n        /* \"#utility.yul\":28142:28147   */\n      dup2\n        /* \"#utility.yul\":28124:28148   */\n      tag_535\n      jump\t// in\n    tag_776:\n        /* \"#utility.yul\":28117:28122   */\n      dup2\n        /* \"#utility.yul\":28114:28149   */\n      eq\n        /* \"#utility.yul\":28104:28167   */\n      tag_777\n      jumpi\n        /* \"#utility.yul\":28163:28164   */\n      0x00\n        /* \"#utility.yul\":28160:28161   */\n      dup1\n        /* \"#utility.yul\":28153:28165   */\n      revert\n        /* \"#utility.yul\":28104:28167   */\n    tag_777:\n        /* \"#utility.yul\":28051:28173   */\n      pop\n      jump\t// out\n        /* \"#utility.yul\":28179:28301   */\n    tag_495:\n        /* \"#utility.yul\":28252:28276   */\n      tag_779\n        /* \"#utility.yul\":28270:28275   */\n      dup2\n        /* \"#utility.yul\":28252:28276   */\n      tag_637\n      jump\t// in\n    tag_779:\n        /* \"#utility.yul\":28245:28250   */\n      dup2\n        /* \"#utility.yul\":28242:28277   */\n      eq\n        /* \"#utility.yul\":28232:28295   */\n      tag_780\n      jumpi\n        /* \"#utility.yul\":28291:28292   */\n      0x00\n        /* \"#utility.yul\":28288:28289   */\n      dup1\n        /* \"#utility.yul\":28281:28293   */\n      revert\n        /* \"#utility.yul\":28232:28295   */\n    tag_780:\n        /* \"#utility.yul\":28179:28301   */\n      pop\n      jump\t// out\n\n    auxdata: 0xa2646970667358221220190c5d600213a7e5113128a125d58c5f2c4e6870a4a7ae02a0d251b0ea0cf58264736f6c63430008070033\n}\n",
				"bytecode": {
					"linkReferences": {},
					"object": "60806040526000609c60006101000a81548173ffffffffffffffffffffffffffffffffffffffff021916908373ffffffffffffffffffffffffffffffffffffffff1602179055503480156200005357600080fd5b506200006533620000d560201b60201c565b620000756200010460201b60201c565b73ffffffffffffffffffffffffffffffffffffffff16600073ffffffffffffffffffffffffffffffffffffffff167fc7c0c772add429241571afb3805861fb3cfa2af374534088b76cdb4325a87e9a60405160405180910390a362000135565b60007f7bea13895fa79d2831e0a9e28edede30099005a50d652d8957cf8a607ee6ca4a60001b90508181555050565b6000807f7bea13895fa79d2831e0a9e28edede30099005a50d652d8957cf8a607ee6ca4a60001b9050805491505090565b613e7880620001456000396000f3fe608060405234801561001057600080fd5b50600436106101fb5760003560e01c80636691cb3d1161011a578063a9059cbb116100ad578063dd62ed3e1161007c578063dd62ed3e146105b8578063e5c4fffe146105e8578063e696393a1461061a578063f51b0fd414610638578063f9854bfc14610642576101fb565b8063a9059cbb14610544578063c2376dff14610574578063c7af33521461057e578063d38bfff41461059c576101fb565b806395d89b41116100e957806395d89b41146104aa57806395ef84b9146104c85780639dc29fac146104f8578063a457c2d714610514576101fb565b80636691cb3d1461042057806370a082311461043e5780637a46a9c51461046e5780637d0d66ff1461048c576101fb565b80633950935111610192578063430bf08a11610161578063430bf08a14610398578063456ee286146103b65780635d36b190146103e6578063609350cd146103f0576101fb565b8063395093511461031257806339a7919f146103425780633eaaf86b1461035e57806340c10f191461037c576101fb565b80630c340a24116101ce5780630c340a241461028857806318160ddd146102a657806323b872dd146102c4578063313ce567146102f4576101fb565b806306fdde0314610200578063077f224a1461021e578063077f22b71461023a578063095ea7b314610258575b600080fd5b610208610673565b604051610215919061353f565b60405180910390f35b61023860048036038101906102339190613178565b610705565b005b61024261090e565b60405161024f9190613761565b60405180910390f35b610272600480360381019061026d9190613138565b610927565b60405161027f9190613509565b60405180910390f35b610290610a19565b60405161029d91906134ee565b60405180910390f35b6102ae610a28565b6040516102bb9190613761565b60405180910390f35b6102de60048036038101906102d991906130e5565b610a32565b6040516102eb9190613509565b60405180910390f35b6102fc610c78565b6040516103099190613813565b60405180910390f35b61032c60048036038101906103279190613138565b610c8f565b6040516103399190613509565b60405180910390f35b61035c6004803603810190610357919061320d565b610e8b565b005b610366611155565b6040516103739190613761565b60405180910390f35b61039660048036038101906103919190613138565b61115b565b005b6103a06111f9565b6040516103ad91906134ee565b60405180910390f35b6103d060048036038101906103cb9190613078565b61121f565b6040516103dd9190613524565b60405180910390f35b6103ee61123f565b005b61040a60048036038101906104059190613078565b6112bf565b6040516104179190613761565b60405180910390f35b6104286112d7565b6040516104359190613761565b60405180910390f35b61045860048036038101906104539190613078565b6112f0565b6040516104659190613761565b60405180910390f35b6104766113a4565b6040516104839190613761565b60405180910390f35b6104946113ae565b6040516104a19190613761565b60405180910390f35b6104b26113b8565b6040516104bf919061353f565b60405180910390f35b6104e260048036038101906104dd9190613078565b61144a565b6040516104ef9190613761565b60405180910390f35b610512600480360381019061050d9190613138565b611462565b005b61052e60048036038101906105299190613138565b611500565b60405161053b9190613509565b60405180910390f35b61055e60048036038101906105599190613138565b611790565b60405161056b9190613509565b60405180910390f35b61057c6118c6565b005b610586611ab8565b6040516105939190613509565b60405180910390f35b6105b660048036038101906105b19190613078565b611af5565b005b6105d260048036038101906105cd91906130a5565b611ba9565b6040516105df9190613761565b60405180910390f35b61060260048036038101906105fd9190613078565b611c30565b604051610611939291906137a5565b60405180910390f35b610622611cce565b60405161062f9190613761565b60405180910390f35b610640611cd4565b005b61065c60048036038101906106579190613078565b611f79565b60405161066a92919061377c565b60405180910390f35b60606097805461068290613a0c565b80601f01602080910402602001604051908101604052809291908181526020018280546106ae90613a0c565b80156106fb5780601f106106d0576101008083540402835291602001916106fb565b820191906000526020600020905b8154815290600101906020018083116106de57829003601f168201915b5050505050905090565b61070d611ab8565b61074c576040517f08c379a0000000000000000000000000000000000000000000000000000000008152600401610743906135e1565b60405180910390fd5b600060019054906101000a900460ff1680610772575060008054906101000a900460ff16155b6107b1576040517f08c379a00000000000000000000000000000000000000000000000000000000081526004016107a890613661565b60405180910390fd5b60008060019054906101000a900460ff161590508015610801576001600060016101000a81548160ff02191690831515021790555060016000806101000a81548160ff0219169083151502179055505b61089586868080601f016020809104026020016040519081016040528093929190818152602001838380828437600081840152601f19601f8201169050808301925050505050505085858080601f016020809104026020016040519081016040528093929190818152602001838380828437600081840152601f19601f820116905080830192505050505050506012612052565b670de0b6b3a7640000609f8190555081609c60006101000a81548173ffffffffffffffffffffffffffffffffffffffff021916908373ffffffffffffffffffffffffffffffffffffffff16021790555080156109065760008060016101000a81548160ff0219169083151502179055505b505050505050565b6000633b9aca00609e5461092291906138a0565b905090565b600081609b60003373ffffffffffffffffffffffffffffffffffffffff1673ffffffffffffffffffffffffffffffffffffffff16815260200190815260200160002060008573ffffffffffffffffffffffffffffffffffffffff1673ffffffffffffffffffffffffffffffffffffffff168152602001908152602001600020819055508273ffffffffffffffffffffffffffffffffffffffff163373ffffffffffffffffffffffffffffffffffffffff167f8c5be1e5ebec7d5bd14f71427d1e84f3dd0314c0f7b2291e5b200ac8c7c3b92584604051610a079190613761565b60405180910390a36001905092915050565b6000610a236120a0565b905090565b6000609a54905090565b60008073ffffffffffffffffffffffffffffffffffffffff168373ffffffffffffffffffffffffffffffffffffffff161415610aa3576040517f08c379a0000000000000000000000000000000000000000000000000000000008152600401610a9a90613701565b60405180910390fd5b610aac846112f0565b821115610aee576040517f08c379a0000000000000000000000000000000000000000000000000000000008152600401610ae5906135c1565b60405180910390fd5b610b7d82609b60008773ffffffffffffffffffffffffffffffffffffffff1673ffffffffffffffffffffffffffffffffffffffff16815260200190815260200160002060003373ffffffffffffffffffffffffffffffffffffffff1673ffffffffffffffffffffffffffffffffffffffff168152602001908152602001600020546120d190919063ffffffff16565b609b60008673ffffffffffffffffffffffffffffffffffffffff1673ffffffffffffffffffffffffffffffffffffffff16815260200190815260200160002060003373ffffffffffffffffffffffffffffffffffffffff1673ffffffffffffffffffffffffffffffffffffffff16815260200190815260200160002081905550610c088484846120e7565b8273ffffffffffffffffffffffffffffffffffffffff168473ffffffffffffffffffffffffffffffffffffffff167fddf252ad1be2c89b69c2b068fc378daa952ba7f163c4a11628f55a4df523b3ef84604051610c659190613761565b60405180910390a3600190509392505050565b6000609960009054906101000a900460ff16905090565b6000610d2082609b60003373ffffffffffffffffffffffffffffffffffffffff1673ffffffffffffffffffffffffffffffffffffffff16815260200190815260200160002060008673ffffffffffffffffffffffffffffffffffffffff1673ffffffffffffffffffffffffffffffffffffffff1681526020019081526020016000205461233c90919063ffffffff16565b609b60003373ffffffffffffffffffffffffffffffffffffffff1673ffffffffffffffffffffffffffffffffffffffff16815260200190815260200160002060008573ffffffffffffffffffffffffffffffffffffffff1673ffffffffffffffffffffffffffffffffffffffff168152602001908152602001600020819055508273ffffffffffffffffffffffffffffffffffffffff163373ffffffffffffffffffffffffffffffffffffffff167f8c5be1e5ebec7d5bd14f71427d1e84f3dd0314c0f7b2291e5b200ac8c7c3b925609b60003373ffffffffffffffffffffffffffffffffffffffff1673ffffffffffffffffffffffffffffffffffffffff16815260200190815260200160002060008773ffffffffffffffffffffffffffffffffffffffff1673ffffffffffffffffffffffffffffffffffffffff16815260200190815260200160002054604051610e799190613761565b60405180910390a36001905092915050565b3373ffffffffffffffffffffffffffffffffffffffff16609c60009054906101000a900473ffffffffffffffffffffffffffffffffffffffff1673ffffffffffffffffffffffffffffffffffffffff1614610f1b576040517f08c379a0000000000000000000000000000000000000000000000000000000008152600401610f1290613561565b60405180910390fd5b60007f53bf423e48ed90e97d02ab0ebab13b2a235a6bfbe9c321847d5c175333ac453560001b90506000815490506002811415610f8d576040517f08c379a0000000000000000000000000000000000000000000000000000000008152600401610f84906136a1565b60405180910390fd5b600282556000609a5411610fd6576040517f08c379a0000000000000000000000000000000000000000000000000000000008152600401610fcd90613741565b60405180910390fd5b82609a541415611026577f41645eb819d3011b13f97696a8109d14bfcddfaca7d063ec0564d62a3e257235609a54609e54609f54604051611019939291906137dc565b60405180910390a161114c565b6000196fffffffffffffffffffffffffffffffff168311611047578261105d565b6000196fffffffffffffffffffffffffffffffff165b609a8190555061108e61107d60a054609a546120d190919063ffffffff16565b609e5461235290919063ffffffff16565b609f819055506000609f54116110d9576040517f08c379a00000000000000000000000000000000000000000000000000000000081526004016110d090613581565b60405180910390fd5b61110460a0546110f6609f54609e5461235290919063ffffffff16565b61233c90919063ffffffff16565b609a819055507f41645eb819d3011b13f97696a8109d14bfcddfaca7d063ec0564d62a3e257235609a54609e54609f54604051611143939291906137dc565b60405180910390a15b60018255505050565b609a5481565b3373ffffffffffffffffffffffffffffffffffffffff16609c60009054906101000a900473ffffffffffffffffffffffffffffffffffffffff1673ffffffffffffffffffffffffffffffffffffffff16146111eb576040517f08c379a00000000000000000000000000000000000000000000000000000000081526004016111e290613561565b60405180910390fd5b6111f5828261238e565b5050565b609c60009054906101000a900473ffffffffffffffffffffffffffffffffffffffff1681565b60a26020528060005260406000206000915054906101000a900460ff1681565b61124761265c565b73ffffffffffffffffffffffffffffffffffffffff163373ffffffffffffffffffffffffffffffffffffffff16146112b4576040517f08c379a00000000000000000000000000000000000000000000000000000000081526004016112ab90613721565b60405180910390fd5b6112bd3361268d565b565b60a16020528060005260406000206000915090505481565b6000633b9aca00609f546112eb91906138a0565b905090565b600080609d60008473ffffffffffffffffffffffffffffffffffffffff1673ffffffffffffffffffffffffffffffffffffffff168152602001908152602001600020541415611342576000905061139f565b61139c61134e8361276a565b609d60008573ffffffffffffffffffffffffffffffffffffffff1673ffffffffffffffffffffffffffffffffffffffff1681526020019081526020016000205461235290919063ffffffff16565b90505b919050565b6000609f54905090565b6000609e54905090565b6060609880546113c790613a0c565b80601f01602080910402602001604051908101604052809291908181526020018280546113f390613a0c565b80156114405780601f1061141557610100808354040283529160200191611440565b820191906000526020600020905b81548152906001019060200180831161142357829003601f168201915b5050505050905090565b60a36020528060005260406000206000915090505481565b3373ffffffffffffffffffffffffffffffffffffffff16609c60009054906101000a900473ffffffffffffffffffffffffffffffffffffffff1673ffffffffffffffffffffffffffffffffffffffff16146114f2576040517f08c379a00000000000000000000000000000000000000000000000000000000081526004016114e990613561565b60405180910390fd5b6114fc8282612804565b5050565b600080609b60003373ffffffffffffffffffffffffffffffffffffffff1673ffffffffffffffffffffffffffffffffffffffff16815260200190815260200160002060008573ffffffffffffffffffffffffffffffffffffffff1673ffffffffffffffffffffffffffffffffffffffff168152602001908152602001600020549050808310611610576000609b60003373ffffffffffffffffffffffffffffffffffffffff1673ffffffffffffffffffffffffffffffffffffffff16815260200190815260200160002060008673ffffffffffffffffffffffffffffffffffffffff1673ffffffffffffffffffffffffffffffffffffffff168152602001908152602001600020819055506116a4565b61162383826120d190919063ffffffff16565b609b60003373ffffffffffffffffffffffffffffffffffffffff1673ffffffffffffffffffffffffffffffffffffffff16815260200190815260200160002060008673ffffffffffffffffffffffffffffffffffffffff1673ffffffffffffffffffffffffffffffffffffffff168152602001908152602001600020819055505b8373ffffffffffffffffffffffffffffffffffffffff163373ffffffffffffffffffffffffffffffffffffffff167f8c5be1e5ebec7d5bd14f71427d1e84f3dd0314c0f7b2291e5b200ac8c7c3b925609b60003373ffffffffffffffffffffffffffffffffffffffff1673ffffffffffffffffffffffffffffffffffffffff16815260200190815260200160002060008873ffffffffffffffffffffffffffffffffffffffff1673ffffffffffffffffffffffffffffffffffffffff1681526020019081526020016000205460405161177d9190613761565b60405180910390a3600191505092915050565b60008073ffffffffffffffffffffffffffffffffffffffff168373ffffffffffffffffffffffffffffffffffffffff161415611801576040517f08c379a00000000000000000000000000000000000000000000000000000000081526004016117f890613701565b60405180910390fd5b61180a336112f0565b82111561184c576040517f08c379a0000000000000000000000000000000000000000000000000000000008152600401611843906135c1565b60405180910390fd5b6118573384846120e7565b8273ffffffffffffffffffffffffffffffffffffffff163373ffffffffffffffffffffffffffffffffffffffff167fddf252ad1be2c89b69c2b068fc378daa952ba7f163c4a11628f55a4df523b3ef846040516118b49190613761565b60405180910390a36001905092915050565b60007f53bf423e48ed90e97d02ab0ebab13b2a235a6bfbe9c321847d5c175333ac453560001b90506000815490506002811415611938576040517f08c379a000000000000000000000000000000000000000000000000000000000815260040161192f906136a1565b60405180910390fd5b6002825561194533612b7f565b15611985576040517f08c379a000000000000000000000000000000000000000000000000000000000815260040161197c90613681565b60405180910390fd5b6119a2611991336112f0565b60a05461233c90919063ffffffff16565b60a081905550609f5460a160003373ffffffffffffffffffffffffffffffffffffffff1673ffffffffffffffffffffffffffffffffffffffff16815260200190815260200160002081905550611a42609d60003373ffffffffffffffffffffffffffffffffffffffff1673ffffffffffffffffffffffffffffffffffffffff16815260200190815260200160002054609e546120d190919063ffffffff16565b609e81905550600160a260003373ffffffffffffffffffffffffffffffffffffffff1673ffffffffffffffffffffffffffffffffffffffff16815260200190815260200160002060006101000a81548160ff02191690836002811115611aab57611aaa613a9c565b5b0217905550600182555050565b6000611ac26120a0565b73ffffffffffffffffffffffffffffffffffffffff163373ffffffffffffffffffffffffffffffffffffffff1614905090565b611afd611ab8565b611b3c576040517f08c379a0000000000000000000000000000000000000000000000000000000008152600401611b33906135e1565b60405180910390fd5b611b4581612c64565b8073ffffffffffffffffffffffffffffffffffffffff16611b646120a0565b73ffffffffffffffffffffffffffffffffffffffff167fa39cc5eb22d0f34d8beaefee8a3f17cc229c1a1d1ef87a5ad47313487b1c4f0d60405160405180910390a350565b6000609b60008473ffffffffffffffffffffffffffffffffffffffff1673ffffffffffffffffffffffffffffffffffffffff16815260200190815260200160002060008373ffffffffffffffffffffffffffffffffffffffff1673ffffffffffffffffffffffffffffffffffffffff16815260200190815260200160002054905092915050565b6000806000609d60008573ffffffffffffffffffffffffffffffffffffffff1673ffffffffffffffffffffffffffffffffffffffff16815260200190815260200160002054611c7e8561276a565b600160a360008873ffffffffffffffffffffffffffffffffffffffff1673ffffffffffffffffffffffffffffffffffffffff16815260200190815260200160002054149250925092509193909250565b60a05481565b60007f53bf423e48ed90e97d02ab0ebab13b2a235a6bfbe9c321847d5c175333ac453560001b90506000815490506002811415611d46576040517f08c379a0000000000000000000000000000000000000000000000000000000008152600401611d3d906136a1565b60405180910390fd5b60028255611d5333612b7f565b611d92576040517f08c379a0000000000000000000000000000000000000000000000000000000008152600401611d89906135a1565b60405180910390fd5b6000611e02611da03361276a565b611df4609f54609d60003373ffffffffffffffffffffffffffffffffffffffff1673ffffffffffffffffffffffffffffffffffffffff16815260200190815260200160002054612c9390919063ffffffff16565b612ca990919063ffffffff16565b9050611e21611e10336112f0565b60a0546120d190919063ffffffff16565b60a08190555080609d60003373ffffffffffffffffffffffffffffffffffffffff1673ffffffffffffffffffffffffffffffffffffffff16815260200190815260200160002081905550611ebf609d60003373ffffffffffffffffffffffffffffffffffffffff1673ffffffffffffffffffffffffffffffffffffffff16815260200190815260200160002054609e5461233c90919063ffffffff16565b609e81905550600260a260003373ffffffffffffffffffffffffffffffffffffffff1673ffffffffffffffffffffffffffffffffffffffff16815260200190815260200160002060006101000a81548160ff02191690836002811115611f2857611f27613a9c565b5b021790555060a160003373ffffffffffffffffffffffffffffffffffffffff1673ffffffffffffffffffffffffffffffffffffffff1681526020019081526020016000206000905550600182555050565b6000806000611f878461276a565b90506b033b2e3c9fd0803ce8000000811415611fe857609d60008573ffffffffffffffffffffffffffffffffffffffff1673ffffffffffffffffffffffffffffffffffffffff1681526020019081526020016000205481925092505061204d565b633b9aca00609d60008673ffffffffffffffffffffffffffffffffffffffff1673ffffffffffffffffffffffffffffffffffffffff1681526020019081526020016000205461203791906138a0565b633b9aca008261204791906138a0565b92509250505b915091565b8260979080519060200190612068929190612f55565b50816098908051906020019061207f929190612f55565b5080609960006101000a81548160ff021916908360ff160217905550505050565b6000807f7bea13895fa79d2831e0a9e28edede30099005a50d652d8957cf8a607ee6ca4a60001b9050805491505090565b600081836120df919061392b565b905092915050565b60006120f283612b7f565b905060006120ff85612b7f565b9050600061211e61210f8661276a565b85612cbf90919063ffffffff16565b9050600061213d61212e8861276a565b86612cbf90919063ffffffff16565b90506121c8816040518060400160405280601f81526020017f5472616e7366657220616d6f756e7420657863656564732062616c616e636500815250609d60008b73ffffffffffffffffffffffffffffffffffffffff1673ffffffffffffffffffffffffffffffffffffffff16815260200190815260200160002054612cdc9092919063ffffffff16565b609d60008973ffffffffffffffffffffffffffffffffffffffff1673ffffffffffffffffffffffffffffffffffffffff1681526020019081526020016000208190555061225d82609d60008973ffffffffffffffffffffffffffffffffffffffff1673ffffffffffffffffffffffffffffffffffffffff1681526020019081526020016000205461233c90919063ffffffff16565b609d60008873ffffffffffffffffffffffffffffffffffffffff1673ffffffffffffffffffffffffffffffffffffffff168152602001908152602001600020819055508380156122ab575082155b156122eb576122c58560a05461233c90919063ffffffff16565b60a0819055506122e081609e546120d190919063ffffffff16565b609e81905550612333565b831580156122f65750825b15612332576123108560a0546120d190919063ffffffff16565b60a08190555061232b82609e5461233c90919063ffffffff16565b609e819055505b5b50505050505050565b6000818361234a919061384a565b905092915050565b600080612370670de0b6b3a764000085612c9390919063ffffffff16565b90506123858382612ca990919063ffffffff16565b91505092915050565b60007f53bf423e48ed90e97d02ab0ebab13b2a235a6bfbe9c321847d5c175333ac453560001b90506000815490506002811415612400576040517f08c379a00000000000000000000000000000000000000000000000000000000081526004016123f7906136a1565b60405180910390fd5b60028255600073ffffffffffffffffffffffffffffffffffffffff168473ffffffffffffffffffffffffffffffffffffffff161415612474576040517f08c379a000000000000000000000000000000000000000000000000000000000815260040161246b906136e1565b60405180910390fd5b600061247f85612b7f565b9050600061249e61248f8761276a565b86612cbf90919063ffffffff16565b90506124f281609d60008973ffffffffffffffffffffffffffffffffffffffff1673ffffffffffffffffffffffffffffffffffffffff1681526020019081526020016000205461233c90919063ffffffff16565b609d60008873ffffffffffffffffffffffffffffffffffffffff1673ffffffffffffffffffffffffffffffffffffffff16815260200190815260200160002081905550811561255b576125508560a05461233c90919063ffffffff16565b60a081905550612577565b61257081609e5461233c90919063ffffffff16565b609e819055505b61258c85609a5461233c90919063ffffffff16565b609a819055506000196fffffffffffffffffffffffffffffffff16609a54106125ea576040517f08c379a00000000000000000000000000000000000000000000000000000000081526004016125e190613601565b60405180910390fd5b8573ffffffffffffffffffffffffffffffffffffffff16600073ffffffffffffffffffffffffffffffffffffffff167fddf252ad1be2c89b69c2b068fc378daa952ba7f163c4a11628f55a4df523b3ef876040516126489190613761565b60405180910390a350506001825550505050565b6000807f44c4d30b2eaad5130ad70c3ba6972730566f3e6359ab83e800d905c61b1c51db60001b9050805491505090565b600073ffffffffffffffffffffffffffffffffffffffff168173ffffffffffffffffffffffffffffffffffffffff1614156126fd576040517f08c379a00000000000000000000000000000000000000000000000000000000081526004016126f490613641565b60405180910390fd5b8073ffffffffffffffffffffffffffffffffffffffff1661271c6120a0565b73ffffffffffffffffffffffffffffffffffffffff167fc7c0c772add429241571afb3805861fb3cfa2af374534088b76cdb4325a87e9a60405160405180910390a361276781612d31565b50565b60008060a160008473ffffffffffffffffffffffffffffffffffffffff1673ffffffffffffffffffffffffffffffffffffffff16815260200190815260200160002054146127f95760a160008373ffffffffffffffffffffffffffffffffffffffff1673ffffffffffffffffffffffffffffffffffffffff1681526020019081526020016000205490506127ff565b609f5490505b919050565b60007f53bf423e48ed90e97d02ab0ebab13b2a235a6bfbe9c321847d5c175333ac453560001b90506000815490506002811415612876576040517f08c379a000000000000000000000000000000000000000000000000000000000815260040161286d906136a1565b60405180910390fd5b60028255600073ffffffffffffffffffffffffffffffffffffffff168473ffffffffffffffffffffffffffffffffffffffff1614156128ea576040517f08c379a00000000000000000000000000000000000000000000000000000000081526004016128e190613621565b60405180910390fd5b60008314156128f857612b75565b600061290385612b7f565b905060006129226129138761276a565b86612cbf90919063ffffffff16565b90506000609d60008873ffffffffffffffffffffffffffffffffffffffff1673ffffffffffffffffffffffffffffffffffffffff1681526020019081526020016000205490508181148061298157508160018261297f919061392b565b145b156129d0576000609d60008973ffffffffffffffffffffffffffffffffffffffff1673ffffffffffffffffffffffffffffffffffffffff16815260200190815260200160002081905550612aae565b81811115612a7257612a2a82609d60008a73ffffffffffffffffffffffffffffffffffffffff1673ffffffffffffffffffffffffffffffffffffffff168152602001908152602001600020546120d190919063ffffffff16565b609d60008973ffffffffffffffffffffffffffffffffffffffff1673ffffffffffffffffffffffffffffffffffffffff16815260200190815260200160002081905550612aad565b6040517f08c379a0000000000000000000000000000000000000000000000000000000008152600401612aa4906136c1565b60405180910390fd5b5b8215612ad457612ac98660a0546120d190919063ffffffff16565b60a081905550612af0565b612ae982609e546120d190919063ffffffff16565b609e819055505b612b0586609a546120d190919063ffffffff16565b609a81905550600073ffffffffffffffffffffffffffffffffffffffff168773ffffffffffffffffffffffffffffffffffffffff167fddf252ad1be2c89b69c2b068fc378daa952ba7f163c4a11628f55a4df523b3ef88604051612b699190613761565b60405180910390a35050505b6001825550505050565b600080612b8b83612d60565b9050808015612c0a575060006002811115612ba957612ba8613a9c565b5b60a260008573ffffffffffffffffffffffffffffffffffffffff1673ffffffffffffffffffffffffffffffffffffffff16815260200190815260200160002060009054906101000a900460ff166002811115612c0857612c07613a9c565b5b145b15612c1957612c1883612d73565b5b600060a160008573ffffffffffffffffffffffffffffffffffffffff1673ffffffffffffffffffffffffffffffffffffffff1681526020019081526020016000205411915050919050565b60007f44c4d30b2eaad5130ad70c3ba6972730566f3e6359ab83e800d905c61b1c51db60001b90508181555050565b60008183612ca191906138d1565b905092915050565b60008183612cb791906138a0565b905092915050565b6000612cd48383670de0b6b3a7640000612f20565b905092915050565b6000838311158290612d24576040517f08c379a0000000000000000000000000000000000000000000000000000000008152600401612d1b919061353f565b60405180910390fd5b5082840390509392505050565b60007f7bea13895fa79d2831e0a9e28edede30099005a50d652d8957cf8a607ee6ca4a60001b90508181555050565b600080823b905060008111915050919050565b600060a160008373ffffffffffffffffffffffffffffffffffffffff1673ffffffffffffffffffffffffffffffffffffffff168152602001908152602001600020541415612f1d576000609d60008373ffffffffffffffffffffffffffffffffffffffff1673ffffffffffffffffffffffffffffffffffffffff168152602001908152602001600020541415612e58576b033b2e3c9fd0803ce800000060a160008373ffffffffffffffffffffffffffffffffffffffff1673ffffffffffffffffffffffffffffffffffffffff16815260200190815260200160002081905550612f1c565b609f5460a160008373ffffffffffffffffffffffffffffffffffffffff1673ffffffffffffffffffffffffffffffffffffffff16815260200190815260200160002081905550612ebb612eaa826112f0565b60a05461233c90919063ffffffff16565b60a081905550612f15609d60008373ffffffffffffffffffffffffffffffffffffffff1673ffffffffffffffffffffffffffffffffffffffff16815260200190815260200160002054609e546120d190919063ffffffff16565b609e819055505b5b50565b600080612f368486612c9390919063ffffffff16565b9050612f4b8382612ca990919063ffffffff16565b9150509392505050565b828054612f6190613a0c565b90600052602060002090601f016020900481019282612f835760008555612fca565b82601f10612f9c57805160ff1916838001178555612fca565b82800160010185558215612fca579182015b82811115612fc9578251825591602001919060010190612fae565b5b509050612fd79190612fdb565b5090565b5b80821115612ff4576000816000905550600101612fdc565b5090565b60008135905061300781613e14565b92915050565b60008083601f84011261302357613022613aff565b5b8235905067ffffffffffffffff8111156130405761303f613afa565b5b60208301915083600182028301111561305c5761305b613b04565b5b9250929050565b60008135905061307281613e2b565b92915050565b60006020828403121561308e5761308d613b0e565b5b600061309c84828501612ff8565b91505092915050565b600080604083850312156130bc576130bb613b0e565b5b60006130ca85828601612ff8565b92505060206130db85828601612ff8565b9150509250929050565b6000806000606084860312156130fe576130fd613b0e565b5b600061310c86828701612ff8565b935050602061311d86828701612ff8565b925050604061312e86828701613063565b9150509250925092565b6000806040838503121561314f5761314e613b0e565b5b600061315d85828601612ff8565b925050602061316e85828601613063565b9150509250929050565b60008060008060006060868803121561319457613193613b0e565b5b600086013567ffffffffffffffff8111156131b2576131b1613b09565b5b6131be8882890161300d565b9550955050602086013567ffffffffffffffff8111156131e1576131e0613b09565b5b6131ed8882890161300d565b9350935050604061320088828901612ff8565b9150509295509295909350565b60006020828403121561322357613222613b0e565b5b600061323184828501613063565b91505092915050565b6132438161395f565b82525050565b61325281613971565b82525050565b613261816139c7565b82525050565b60006132728261382e565b61327c8185613839565b935061328c8185602086016139d9565b61329581613b13565b840191505092915050565b60006132ad601783613839565b91506132b882613b24565b602082019050919050565b60006132d0601883613839565b91506132db82613b4d565b602082019050919050565b60006132f3601983613839565b91506132fe82613b76565b602082019050919050565b6000613316601d83613839565b915061332182613b9f565b602082019050919050565b6000613339601a83613839565b915061334482613bc8565b602082019050919050565b600061335c600a83613839565b915061336782613bf1565b602082019050919050565b600061337f601a83613839565b915061338a82613c1a565b602082019050919050565b60006133a2601a83613839565b91506133ad82613c43565b602082019050919050565b60006133c5602e83613839565b91506133d082613c6c565b604082019050919050565b60006133e8601883613839565b91506133f382613cbb565b602082019050919050565b600061340b600e83613839565b915061341682613ce4565b602082019050919050565b600061342e601683613839565b915061343982613d0d565b602082019050919050565b6000613451601883613839565b915061345c82613d36565b602082019050919050565b6000613474601883613839565b915061347f82613d5f565b602082019050919050565b6000613497603083613839565b91506134a282613d88565b604082019050919050565b60006134ba601883613839565b91506134c582613dd7565b602082019050919050565b6134d9816139b0565b82525050565b6134e8816139ba565b82525050565b6000602082019050613503600083018461323a565b92915050565b600060208201905061351e6000830184613249565b92915050565b60006020820190506135396000830184613258565b92915050565b600060208201905081810360008301526135598184613267565b905092915050565b6000602082019050818103600083015261357a816132a0565b9050919050565b6000602082019050818103600083015261359a816132c3565b9050919050565b600060208201905081810360008301526135ba816132e6565b9050919050565b600060208201905081810360008301526135da81613309565b9050919050565b600060208201905081810360008301526135fa8161332c565b9050919050565b6000602082019050818103600083015261361a8161334f565b9050919050565b6000602082019050818103600083015261363a81613372565b9050919050565b6000602082019050818103600083015261365a81613395565b9050919050565b6000602082019050818103600083015261367a816133b8565b9050919050565b6000602082019050818103600083015261369a816133db565b9050919050565b600060208201905081810360008301526136ba816133fe565b9050919050565b600060208201905081810360008301526136da81613421565b9050919050565b600060208201905081810360008301526136fa81613444565b9050919050565b6000602082019050818103600083015261371a81613467565b9050919050565b6000602082019050818103600083015261373a8161348a565b9050919050565b6000602082019050818103600083015261375a816134ad565b9050919050565b600060208201905061377660008301846134d0565b92915050565b600060408201905061379160008301856134d0565b61379e60208301846134d0565b9392505050565b60006060820190506137ba60008301866134d0565b6137c760208301856134d0565b6137d46040830184613249565b949350505050565b60006060820190506137f160008301866134d0565b6137fe60208301856134d0565b61380b60408301846134d0565b949350505050565b600060208201905061382860008301846134df565b92915050565b600081519050919050565b600082825260208201905092915050565b6000613855826139b0565b9150613860836139b0565b9250827fffffffffffffffffffffffffffffffffffffffffffffffffffffffffffffffff0382111561389557613894613a3e565b5b828201905092915050565b60006138ab826139b0565b91506138b6836139b0565b9250826138c6576138c5613a6d565b5b828204905092915050565b60006138dc826139b0565b91506138e7836139b0565b9250817fffffffffffffffffffffffffffffffffffffffffffffffffffffffffffffffff04831182151516156139205761391f613a3e565b5b828202905092915050565b6000613936826139b0565b9150613941836139b0565b92508282101561395457613953613a3e565b5b828203905092915050565b600061396a82613990565b9050919050565b60008115159050919050565b600081905061398b82613e00565b919050565b600073ffffffffffffffffffffffffffffffffffffffff82169050919050565b6000819050919050565b600060ff82169050919050565b60006139d28261397d565b9050919050565b60005b838110156139f75780820151818401526020810190506139dc565b83811115613a06576000848401525b50505050565b60006002820490506001821680613a2457607f821691505b60208210811415613a3857613a37613acb565b5b50919050565b7f4e487b7100000000000000000000000000000000000000000000000000000000600052601160045260246000fd5b7f4e487b7100000000000000000000000000000000000000000000000000000000600052601260045260246000fd5b7f4e487b7100000000000000000000000000000000000000000000000000000000600052602160045260246000fd5b7f4e487b7100000000000000000000000000000000000000000000000000000000600052602260045260246000fd5b600080fd5b600080fd5b600080fd5b600080fd5b600080fd5b6000601f19601f8301169050919050565b7f43616c6c6572206973206e6f7420746865205661756c74000000000000000000600082015250565b7f496e76616c6964206368616e676520696e20737570706c790000000000000000600082015250565b7f4163636f756e7420686173206e6f74206f70746564206f757400000000000000600082015250565b7f5472616e736665722067726561746572207468616e2062616c616e6365000000600082015250565b7f43616c6c6572206973206e6f742074686520476f7665726e6f72000000000000600082015250565b7f4d617820737570706c7900000000000000000000000000000000000000000000600082015250565b7f4275726e2066726f6d20746865207a65726f2061646472657373000000000000600082015250565b7f4e657720476f7665726e6f722069732061646472657373283029000000000000600082015250565b7f496e697469616c697a61626c653a20636f6e747261637420697320616c72656160008201527f647920696e697469616c697a6564000000000000000000000000000000000000602082015250565b7f4163636f756e7420686173206e6f74206f7074656420696e0000000000000000600082015250565b7f5265656e7472616e742063616c6c000000000000000000000000000000000000600082015250565b7f52656d6f766520657863656564732062616c616e636500000000000000000000600082015250565b7f4d696e7420746f20746865207a65726f20616464726573730000000000000000600082015250565b7f5472616e7366657220746f207a65726f20616464726573730000000000000000600082015250565b7f4f6e6c79207468652070656e64696e6720476f7665726e6f722063616e20636f60008201527f6d706c6574652074686520636c61696d00000000000000000000000000000000602082015250565b7f43616e6e6f7420696e637265617365203020737570706c790000000000000000600082015250565b60038110613e1157613e10613a9c565b5b50565b613e1d8161395f565b8114613e2857600080fd5b50565b613e34816139b0565b8114613e3f57600080fd5b5056fea2646970667358221220190c5d600213a7e5113128a125d58c5f2c4e6870a4a7ae02a0d251b0ea0cf58264736f6c63430008070033",
					"opcodes": "PUSH1 0x80 PUSH1 0x40 MSTORE PUSH1 0x0 PUSH1 0x9C PUSH1 0x0 PUSH2 0x100 EXP DUP2 SLOAD DUP2 PUSH20 0xFFFFFFFFFFFFFFFFFFFFFFFFFFFFFFFFFFFFFFFF MUL NOT AND SWAP1 DUP4 PUSH20 0xFFFFFFFFFFFFFFFFFFFFFFFFFFFFFFFFFFFFFFFF AND MUL OR SWAP1 SSTORE POP CALLVALUE DUP1 ISZERO PUSH3 0x53 JUMPI PUSH1 0x0 DUP1 REVERT JUMPDEST POP PUSH3 0x65 CALLER PUSH3 0xD5 PUSH1 0x20 SHL PUSH1 0x20 SHR JUMP JUMPDEST PUSH3 0x75 PUSH3 0x104 PUSH1 0x20 SHL PUSH1 0x20 SHR JUMP JUMPDEST PUSH20 0xFFFFFFFFFFFFFFFFFFFFFFFFFFFFFFFFFFFFFFFF AND PUSH1 0x0 PUSH20 0xFFFFFFFFFFFFFFFFFFFFFFFFFFFFFFFFFFFFFFFF AND PUSH32 0xC7C0C772ADD429241571AFB3805861FB3CFA2AF374534088B76CDB4325A87E9A PUSH1 0x40 MLOAD PUSH1 0x40 MLOAD DUP1 SWAP2 SUB SWAP1 LOG3 PUSH3 0x135 JUMP JUMPDEST PUSH1 0x0 PUSH32 0x7BEA13895FA79D2831E0A9E28EDEDE30099005A50D652D8957CF8A607EE6CA4A PUSH1 0x0 SHL SWAP1 POP DUP2 DUP2 SSTORE POP POP JUMP JUMPDEST PUSH1 0x0 DUP1 PUSH32 0x7BEA13895FA79D2831E0A9E28EDEDE30099005A50D652D8957CF8A607EE6CA4A PUSH1 0x0 SHL SWAP1 POP DUP1 SLOAD SWAP2 POP POP SWAP1 JUMP JUMPDEST PUSH2 0x3E78 DUP1 PUSH3 0x145 PUSH1 0x0 CODECOPY PUSH1 0x0 RETURN INVALID PUSH1 0x80 PUSH1 0x40 MSTORE CALLVALUE DUP1 ISZERO PUSH2 0x10 JUMPI PUSH1 0x0 DUP1 REVERT JUMPDEST POP PUSH1 0x4 CALLDATASIZE LT PUSH2 0x1FB JUMPI PUSH1 0x0 CALLDATALOAD PUSH1 0xE0 SHR DUP1 PUSH4 0x6691CB3D GT PUSH2 0x11A JUMPI DUP1 PUSH4 0xA9059CBB GT PUSH2 0xAD JUMPI DUP1 PUSH4 0xDD62ED3E GT PUSH2 0x7C JUMPI DUP1 PUSH4 0xDD62ED3E EQ PUSH2 0x5B8 JUMPI DUP1 PUSH4 0xE5C4FFFE EQ PUSH2 0x5E8 JUMPI DUP1 PUSH4 0xE696393A EQ PUSH2 0x61A JUMPI DUP1 PUSH4 0xF51B0FD4 EQ PUSH2 0x638 JUMPI DUP1 PUSH4 0xF9854BFC EQ PUSH2 0x642 JUMPI PUSH2 0x1FB JUMP JUMPDEST DUP1 PUSH4 0xA9059CBB EQ PUSH2 0x544 JUMPI DUP1 PUSH4 0xC2376DFF EQ PUSH2 0x574 JUMPI DUP1 PUSH4 0xC7AF3352 EQ PUSH2 0x57E JUMPI DUP1 PUSH4 0xD38BFFF4 EQ PUSH2 0x59C JUMPI PUSH2 0x1FB JUMP JUMPDEST DUP1 PUSH4 0x95D89B41 GT PUSH2 0xE9 JUMPI DUP1 PUSH4 0x95D89B41 EQ PUSH2 0x4AA JUMPI DUP1 PUSH4 0x95EF84B9 EQ PUSH2 0x4C8 JUMPI DUP1 PUSH4 0x9DC29FAC EQ PUSH2 0x4F8 JUMPI DUP1 PUSH4 0xA457C2D7 EQ PUSH2 0x514 JUMPI PUSH2 0x1FB JUMP JUMPDEST DUP1 PUSH4 0x6691CB3D EQ PUSH2 0x420 JUMPI DUP1 PUSH4 0x70A08231 EQ PUSH2 0x43E JUMPI DUP1 PUSH4 0x7A46A9C5 EQ PUSH2 0x46E JUMPI DUP1 PUSH4 0x7D0D66FF EQ PUSH2 0x48C JUMPI PUSH2 0x1FB JUMP JUMPDEST DUP1 PUSH4 0x39509351 GT PUSH2 0x192 JUMPI DUP1 PUSH4 0x430BF08A GT PUSH2 0x161 JUMPI DUP1 PUSH4 0x430BF08A EQ PUSH2 0x398 JUMPI DUP1 PUSH4 0x456EE286 EQ PUSH2 0x3B6 JUMPI DUP1 PUSH4 0x5D36B190 EQ PUSH2 0x3E6 JUMPI DUP1 PUSH4 0x609350CD EQ PUSH2 0x3F0 JUMPI PUSH2 0x1FB JUMP JUMPDEST DUP1 PUSH4 0x39509351 EQ PUSH2 0x312 JUMPI DUP1 PUSH4 0x39A7919F EQ PUSH2 0x342 JUMPI DUP1 PUSH4 0x3EAAF86B EQ PUSH2 0x35E JUMPI DUP1 PUSH4 0x40C10F19 EQ PUSH2 0x37C JUMPI PUSH2 0x1FB JUMP JUMPDEST DUP1 PUSH4 0xC340A24 GT PUSH2 0x1CE JUMPI DUP1 PUSH4 0xC340A24 EQ PUSH2 0x288 JUMPI DUP1 PUSH4 0x18160DDD EQ PUSH2 0x2A6 JUMPI DUP1 PUSH4 0x23B872DD EQ PUSH2 0x2C4 JUMPI DUP1 PUSH4 0x313CE567 EQ PUSH2 0x2F4 JUMPI PUSH2 0x1FB JUMP JUMPDEST DUP1 PUSH4 0x6FDDE03 EQ PUSH2 0x200 JUMPI DUP1 PUSH4 0x77F224A EQ PUSH2 0x21E JUMPI DUP1 PUSH4 0x77F22B7 EQ PUSH2 0x23A JUMPI DUP1 PUSH4 0x95EA7B3 EQ PUSH2 0x258 JUMPI JUMPDEST PUSH1 0x0 DUP1 REVERT JUMPDEST PUSH2 0x208 PUSH2 0x673 JUMP JUMPDEST PUSH1 0x40 MLOAD PUSH2 0x215 SWAP2 SWAP1 PUSH2 0x353F JUMP JUMPDEST PUSH1 0x40 MLOAD DUP1 SWAP2 SUB SWAP1 RETURN JUMPDEST PUSH2 0x238 PUSH1 0x4 DUP1 CALLDATASIZE SUB DUP2 ADD SWAP1 PUSH2 0x233 SWAP2 SWAP1 PUSH2 0x3178 JUMP JUMPDEST PUSH2 0x705 JUMP JUMPDEST STOP JUMPDEST PUSH2 0x242 PUSH2 0x90E JUMP JUMPDEST PUSH1 0x40 MLOAD PUSH2 0x24F SWAP2 SWAP1 PUSH2 0x3761 JUMP JUMPDEST PUSH1 0x40 MLOAD DUP1 SWAP2 SUB SWAP1 RETURN JUMPDEST PUSH2 0x272 PUSH1 0x4 DUP1 CALLDATASIZE SUB DUP2 ADD SWAP1 PUSH2 0x26D SWAP2 SWAP1 PUSH2 0x3138 JUMP JUMPDEST PUSH2 0x927 JUMP JUMPDEST PUSH1 0x40 MLOAD PUSH2 0x27F SWAP2 SWAP1 PUSH2 0x3509 JUMP JUMPDEST PUSH1 0x40 MLOAD DUP1 SWAP2 SUB SWAP1 RETURN JUMPDEST PUSH2 0x290 PUSH2 0xA19 JUMP JUMPDEST PUSH1 0x40 MLOAD PUSH2 0x29D SWAP2 SWAP1 PUSH2 0x34EE JUMP JUMPDEST PUSH1 0x40 MLOAD DUP1 SWAP2 SUB SWAP1 RETURN JUMPDEST PUSH2 0x2AE PUSH2 0xA28 JUMP JUMPDEST PUSH1 0x40 MLOAD PUSH2 0x2BB SWAP2 SWAP1 PUSH2 0x3761 JUMP JUMPDEST PUSH1 0x40 MLOAD DUP1 SWAP2 SUB SWAP1 RETURN JUMPDEST PUSH2 0x2DE PUSH1 0x4 DUP1 CALLDATASIZE SUB DUP2 ADD SWAP1 PUSH2 0x2D9 SWAP2 SWAP1 PUSH2 0x30E5 JUMP JUMPDEST PUSH2 0xA32 JUMP JUMPDEST PUSH1 0x40 MLOAD PUSH2 0x2EB SWAP2 SWAP1 PUSH2 0x3509 JUMP JUMPDEST PUSH1 0x40 MLOAD DUP1 SWAP2 SUB SWAP1 RETURN JUMPDEST PUSH2 0x2FC PUSH2 0xC78 JUMP JUMPDEST PUSH1 0x40 MLOAD PUSH2 0x309 SWAP2 SWAP1 PUSH2 0x3813 JUMP JUMPDEST PUSH1 0x40 MLOAD DUP1 SWAP2 SUB SWAP1 RETURN JUMPDEST PUSH2 0x32C PUSH1 0x4 DUP1 CALLDATASIZE SUB DUP2 ADD SWAP1 PUSH2 0x327 SWAP2 SWAP1 PUSH2 0x3138 JUMP JUMPDEST PUSH2 0xC8F JUMP JUMPDEST PUSH1 0x40 MLOAD PUSH2 0x339 SWAP2 SWAP1 PUSH2 0x3509 JUMP JUMPDEST PUSH1 0x40 MLOAD DUP1 SWAP2 SUB SWAP1 RETURN JUMPDEST PUSH2 0x35C PUSH1 0x4 DUP1 CALLDATASIZE SUB DUP2 ADD SWAP1 PUSH2 0x357 SWAP2 SWAP1 PUSH2 0x320D JUMP JUMPDEST PUSH2 0xE8B JUMP JUMPDEST STOP JUMPDEST PUSH2 0x366 PUSH2 0x1155 JUMP JUMPDEST PUSH1 0x40 MLOAD PUSH2 0x373 SWAP2 SWAP1 PUSH2 0x3761 JUMP JUMPDEST PUSH1 0x40 MLOAD DUP1 SWAP2 SUB SWAP1 RETURN JUMPDEST PUSH2 0x396 PUSH1 0x4 DUP1 CALLDATASIZE SUB DUP2 ADD SWAP1 PUSH2 0x391 SWAP2 SWAP1 PUSH2 0x3138 JUMP JUMPDEST PUSH2 0x115B JUMP JUMPDEST STOP JUMPDEST PUSH2 0x3A0 PUSH2 0x11F9 JUMP JUMPDEST PUSH1 0x40 MLOAD PUSH2 0x3AD SWAP2 SWAP1 PUSH2 0x34EE JUMP JUMPDEST PUSH1 0x40 MLOAD DUP1 SWAP2 SUB SWAP1 RETURN JUMPDEST PUSH2 0x3D0 PUSH1 0x4 DUP1 CALLDATASIZE SUB DUP2 ADD SWAP1 PUSH2 0x3CB SWAP2 SWAP1 PUSH2 0x3078 JUMP JUMPDEST PUSH2 0x121F JUMP JUMPDEST PUSH1 0x40 MLOAD PUSH2 0x3DD SWAP2 SWAP1 PUSH2 0x3524 JUMP JUMPDEST PUSH1 0x40 MLOAD DUP1 SWAP2 SUB SWAP1 RETURN JUMPDEST PUSH2 0x3EE PUSH2 0x123F JUMP JUMPDEST STOP JUMPDEST PUSH2 0x40A PUSH1 0x4 DUP1 CALLDATASIZE SUB DUP2 ADD SWAP1 PUSH2 0x405 SWAP2 SWAP1 PUSH2 0x3078 JUMP JUMPDEST PUSH2 0x12BF JUMP JUMPDEST PUSH1 0x40 MLOAD PUSH2 0x417 SWAP2 SWAP1 PUSH2 0x3761 JUMP JUMPDEST PUSH1 0x40 MLOAD DUP1 SWAP2 SUB SWAP1 RETURN JUMPDEST PUSH2 0x428 PUSH2 0x12D7 JUMP JUMPDEST PUSH1 0x40 MLOAD PUSH2 0x435 SWAP2 SWAP1 PUSH2 0x3761 JUMP JUMPDEST PUSH1 0x40 MLOAD DUP1 SWAP2 SUB SWAP1 RETURN JUMPDEST PUSH2 0x458 PUSH1 0x4 DUP1 CALLDATASIZE SUB DUP2 ADD SWAP1 PUSH2 0x453 SWAP2 SWAP1 PUSH2 0x3078 JUMP JUMPDEST PUSH2 0x12F0 JUMP JUMPDEST PUSH1 0x40 MLOAD PUSH2 0x465 SWAP2 SWAP1 PUSH2 0x3761 JUMP JUMPDEST PUSH1 0x40 MLOAD DUP1 SWAP2 SUB SWAP1 RETURN JUMPDEST PUSH2 0x476 PUSH2 0x13A4 JUMP JUMPDEST PUSH1 0x40 MLOAD PUSH2 0x483 SWAP2 SWAP1 PUSH2 0x3761 JUMP JUMPDEST PUSH1 0x40 MLOAD DUP1 SWAP2 SUB SWAP1 RETURN JUMPDEST PUSH2 0x494 PUSH2 0x13AE JUMP JUMPDEST PUSH1 0x40 MLOAD PUSH2 0x4A1 SWAP2 SWAP1 PUSH2 0x3761 JUMP JUMPDEST PUSH1 0x40 MLOAD DUP1 SWAP2 SUB SWAP1 RETURN JUMPDEST PUSH2 0x4B2 PUSH2 0x13B8 JUMP JUMPDEST PUSH1 0x40 MLOAD PUSH2 0x4BF SWAP2 SWAP1 PUSH2 0x353F JUMP JUMPDEST PUSH1 0x40 MLOAD DUP1 SWAP2 SUB SWAP1 RETURN JUMPDEST PUSH2 0x4E2 PUSH1 0x4 DUP1 CALLDATASIZE SUB DUP2 ADD SWAP1 PUSH2 0x4DD SWAP2 SWAP1 PUSH2 0x3078 JUMP JUMPDEST PUSH2 0x144A JUMP JUMPDEST PUSH1 0x40 MLOAD PUSH2 0x4EF SWAP2 SWAP1 PUSH2 0x3761 JUMP JUMPDEST PUSH1 0x40 MLOAD DUP1 SWAP2 SUB SWAP1 RETURN JUMPDEST PUSH2 0x512 PUSH1 0x4 DUP1 CALLDATASIZE SUB DUP2 ADD SWAP1 PUSH2 0x50D SWAP2 SWAP1 PUSH2 0x3138 JUMP JUMPDEST PUSH2 0x1462 JUMP JUMPDEST STOP JUMPDEST PUSH2 0x52E PUSH1 0x4 DUP1 CALLDATASIZE SUB DUP2 ADD SWAP1 PUSH2 0x529 SWAP2 SWAP1 PUSH2 0x3138 JUMP JUMPDEST PUSH2 0x1500 JUMP JUMPDEST PUSH1 0x40 MLOAD PUSH2 0x53B SWAP2 SWAP1 PUSH2 0x3509 JUMP JUMPDEST PUSH1 0x40 MLOAD DUP1 SWAP2 SUB SWAP1 RETURN JUMPDEST PUSH2 0x55E PUSH1 0x4 DUP1 CALLDATASIZE SUB DUP2 ADD SWAP1 PUSH2 0x559 SWAP2 SWAP1 PUSH2 0x3138 JUMP JUMPDEST PUSH2 0x1790 JUMP JUMPDEST PUSH1 0x40 MLOAD PUSH2 0x56B SWAP2 SWAP1 PUSH2 0x3509 JUMP JUMPDEST PUSH1 0x40 MLOAD DUP1 SWAP2 SUB SWAP1 RETURN JUMPDEST PUSH2 0x57C PUSH2 0x18C6 JUMP JUMPDEST STOP JUMPDEST PUSH2 0x586 PUSH2 0x1AB8 JUMP JUMPDEST PUSH1 0x40 MLOAD PUSH2 0x593 SWAP2 SWAP1 PUSH2 0x3509 JUMP JUMPDEST PUSH1 0x40 MLOAD DUP1 SWAP2 SUB SWAP1 RETURN JUMPDEST PUSH2 0x5B6 PUSH1 0x4 DUP1 CALLDATASIZE SUB DUP2 ADD SWAP1 PUSH2 0x5B1 SWAP2 SWAP1 PUSH2 0x3078 JUMP JUMPDEST PUSH2 0x1AF5 JUMP JUMPDEST STOP JUMPDEST PUSH2 0x5D2 PUSH1 0x4 DUP1 CALLDATASIZE SUB DUP2 ADD SWAP1 PUSH2 0x5CD SWAP2 SWAP1 PUSH2 0x30A5 JUMP JUMPDEST PUSH2 0x1BA9 JUMP JUMPDEST PUSH1 0x40 MLOAD PUSH2 0x5DF SWAP2 SWAP1 PUSH2 0x3761 JUMP JUMPDEST PUSH1 0x40 MLOAD DUP1 SWAP2 SUB SWAP1 RETURN JUMPDEST PUSH2 0x602 PUSH1 0x4 DUP1 CALLDATASIZE SUB DUP2 ADD SWAP1 PUSH2 0x5FD SWAP2 SWAP1 PUSH2 0x3078 JUMP JUMPDEST PUSH2 0x1C30 JUMP JUMPDEST PUSH1 0x40 MLOAD PUSH2 0x611 SWAP4 SWAP3 SWAP2 SWAP1 PUSH2 0x37A5 JUMP JUMPDEST PUSH1 0x40 MLOAD DUP1 SWAP2 SUB SWAP1 RETURN JUMPDEST PUSH2 0x622 PUSH2 0x1CCE JUMP JUMPDEST PUSH1 0x40 MLOAD PUSH2 0x62F SWAP2 SWAP1 PUSH2 0x3761 JUMP JUMPDEST PUSH1 0x40 MLOAD DUP1 SWAP2 SUB SWAP1 RETURN JUMPDEST PUSH2 0x640 PUSH2 0x1CD4 JUMP JUMPDEST STOP JUMPDEST PUSH2 0x65C PUSH1 0x4 DUP1 CALLDATASIZE SUB DUP2 ADD SWAP1 PUSH2 0x657 SWAP2 SWAP1 PUSH2 0x3078 JUMP JUMPDEST PUSH2 0x1F79 JUMP JUMPDEST PUSH1 0x40 MLOAD PUSH2 0x66A SWAP3 SWAP2 SWAP1 PUSH2 0x377C JUMP JUMPDEST PUSH1 0x40 MLOAD DUP1 SWAP2 SUB SWAP1 RETURN JUMPDEST PUSH1 0x60 PUSH1 0x97 DUP1 SLOAD PUSH2 0x682 SWAP1 PUSH2 0x3A0C JUMP JUMPDEST DUP1 PUSH1 0x1F ADD PUSH1 0x20 DUP1 SWAP2 DIV MUL PUSH1 0x20 ADD PUSH1 0x40 MLOAD SWAP1 DUP2 ADD PUSH1 0x40 MSTORE DUP1 SWAP3 SWAP2 SWAP1 DUP2 DUP2 MSTORE PUSH1 0x20 ADD DUP3 DUP1 SLOAD PUSH2 0x6AE SWAP1 PUSH2 0x3A0C JUMP JUMPDEST DUP1 ISZERO PUSH2 0x6FB JUMPI DUP1 PUSH1 0x1F LT PUSH2 0x6D0 JUMPI PUSH2 0x100 DUP1 DUP4 SLOAD DIV MUL DUP4 MSTORE SWAP2 PUSH1 0x20 ADD SWAP2 PUSH2 0x6FB JUMP JUMPDEST DUP3 ADD SWAP2 SWAP1 PUSH1 0x0 MSTORE PUSH1 0x20 PUSH1 0x0 KECCAK256 SWAP1 JUMPDEST DUP2 SLOAD DUP2 MSTORE SWAP1 PUSH1 0x1 ADD SWAP1 PUSH1 0x20 ADD DUP1 DUP4 GT PUSH2 0x6DE JUMPI DUP3 SWAP1 SUB PUSH1 0x1F AND DUP3 ADD SWAP2 JUMPDEST POP POP POP POP POP SWAP1 POP SWAP1 JUMP JUMPDEST PUSH2 0x70D PUSH2 0x1AB8 JUMP JUMPDEST PUSH2 0x74C JUMPI PUSH1 0x40 MLOAD PUSH32 0x8C379A000000000000000000000000000000000000000000000000000000000 DUP2 MSTORE PUSH1 0x4 ADD PUSH2 0x743 SWAP1 PUSH2 0x35E1 JUMP JUMPDEST PUSH1 0x40 MLOAD DUP1 SWAP2 SUB SWAP1 REVERT JUMPDEST PUSH1 0x0 PUSH1 0x1 SWAP1 SLOAD SWAP1 PUSH2 0x100 EXP SWAP1 DIV PUSH1 0xFF AND DUP1 PUSH2 0x772 JUMPI POP PUSH1 0x0 DUP1 SLOAD SWAP1 PUSH2 0x100 EXP SWAP1 DIV PUSH1 0xFF AND ISZERO JUMPDEST PUSH2 0x7B1 JUMPI PUSH1 0x40 MLOAD PUSH32 0x8C379A000000000000000000000000000000000000000000000000000000000 DUP2 MSTORE PUSH1 0x4 ADD PUSH2 0x7A8 SWAP1 PUSH2 0x3661 JUMP JUMPDEST PUSH1 0x40 MLOAD DUP1 SWAP2 SUB SWAP1 REVERT JUMPDEST PUSH1 0x0 DUP1 PUSH1 0x1 SWAP1 SLOAD SWAP1 PUSH2 0x100 EXP SWAP1 DIV PUSH1 0xFF AND ISZERO SWAP1 POP DUP1 ISZERO PUSH2 0x801 JUMPI PUSH1 0x1 PUSH1 0x0 PUSH1 0x1 PUSH2 0x100 EXP DUP2 SLOAD DUP2 PUSH1 0xFF MUL NOT AND SWAP1 DUP4 ISZERO ISZERO MUL OR SWAP1 SSTORE POP PUSH1 0x1 PUSH1 0x0 DUP1 PUSH2 0x100 EXP DUP2 SLOAD DUP2 PUSH1 0xFF MUL NOT AND SWAP1 DUP4 ISZERO ISZERO MUL OR SWAP1 SSTORE POP JUMPDEST PUSH2 0x895 DUP7 DUP7 DUP1 DUP1 PUSH1 0x1F ADD PUSH1 0x20 DUP1 SWAP2 DIV MUL PUSH1 0x20 ADD PUSH1 0x40 MLOAD SWAP1 DUP2 ADD PUSH1 0x40 MSTORE DUP1 SWAP4 SWAP3 SWAP2 SWAP1 DUP2 DUP2 MSTORE PUSH1 0x20 ADD DUP4 DUP4 DUP1 DUP3 DUP5 CALLDATACOPY PUSH1 0x0 DUP2 DUP5 ADD MSTORE PUSH1 0x1F NOT PUSH1 0x1F DUP3 ADD AND SWAP1 POP DUP1 DUP4 ADD SWAP3 POP POP POP POP POP POP POP DUP6 DUP6 DUP1 DUP1 PUSH1 0x1F ADD PUSH1 0x20 DUP1 SWAP2 DIV MUL PUSH1 0x20 ADD PUSH1 0x40 MLOAD SWAP1 DUP2 ADD PUSH1 0x40 MSTORE DUP1 SWAP4 SWAP3 SWAP2 SWAP1 DUP2 DUP2 MSTORE PUSH1 0x20 ADD DUP4 DUP4 DUP1 DUP3 DUP5 CALLDATACOPY PUSH1 0x0 DUP2 DUP5 ADD MSTORE PUSH1 0x1F NOT PUSH1 0x1F DUP3 ADD AND SWAP1 POP DUP1 DUP4 ADD SWAP3 POP POP POP POP POP POP POP PUSH1 0x12 PUSH2 0x2052 JUMP JUMPDEST PUSH8 0xDE0B6B3A7640000 PUSH1 0x9F DUP2 SWAP1 SSTORE POP DUP2 PUSH1 0x9C PUSH1 0x0 PUSH2 0x100 EXP DUP2 SLOAD DUP2 PUSH20 0xFFFFFFFFFFFFFFFFFFFFFFFFFFFFFFFFFFFFFFFF MUL NOT AND SWAP1 DUP4 PUSH20 0xFFFFFFFFFFFFFFFFFFFFFFFFFFFFFFFFFFFFFFFF AND MUL OR SWAP1 SSTORE POP DUP1 ISZERO PUSH2 0x906 JUMPI PUSH1 0x0 DUP1 PUSH1 0x1 PUSH2 0x100 EXP DUP2 SLOAD DUP2 PUSH1 0xFF MUL NOT AND SWAP1 DUP4 ISZERO ISZERO MUL OR SWAP1 SSTORE POP JUMPDEST POP POP POP POP POP POP JUMP JUMPDEST PUSH1 0x0 PUSH4 0x3B9ACA00 PUSH1 0x9E SLOAD PUSH2 0x922 SWAP2 SWAP1 PUSH2 0x38A0 JUMP JUMPDEST SWAP1 POP SWAP1 JUMP JUMPDEST PUSH1 0x0 DUP2 PUSH1 0x9B PUSH1 0x0 CALLER PUSH20 0xFFFFFFFFFFFFFFFFFFFFFFFFFFFFFFFFFFFFFFFF AND PUSH20 0xFFFFFFFFFFFFFFFFFFFFFFFFFFFFFFFFFFFFFFFF AND DUP2 MSTORE PUSH1 0x20 ADD SWAP1 DUP2 MSTORE PUSH1 0x20 ADD PUSH1 0x0 KECCAK256 PUSH1 0x0 DUP6 PUSH20 0xFFFFFFFFFFFFFFFFFFFFFFFFFFFFFFFFFFFFFFFF AND PUSH20 0xFFFFFFFFFFFFFFFFFFFFFFFFFFFFFFFFFFFFFFFF AND DUP2 MSTORE PUSH1 0x20 ADD SWAP1 DUP2 MSTORE PUSH1 0x20 ADD PUSH1 0x0 KECCAK256 DUP2 SWAP1 SSTORE POP DUP3 PUSH20 0xFFFFFFFFFFFFFFFFFFFFFFFFFFFFFFFFFFFFFFFF AND CALLER PUSH20 0xFFFFFFFFFFFFFFFFFFFFFFFFFFFFFFFFFFFFFFFF AND PUSH32 0x8C5BE1E5EBEC7D5BD14F71427D1E84F3DD0314C0F7B2291E5B200AC8C7C3B925 DUP5 PUSH1 0x40 MLOAD PUSH2 0xA07 SWAP2 SWAP1 PUSH2 0x3761 JUMP JUMPDEST PUSH1 0x40 MLOAD DUP1 SWAP2 SUB SWAP1 LOG3 PUSH1 0x1 SWAP1 POP SWAP3 SWAP2 POP POP JUMP JUMPDEST PUSH1 0x0 PUSH2 0xA23 PUSH2 0x20A0 JUMP JUMPDEST SWAP1 POP SWAP1 JUMP JUMPDEST PUSH1 0x0 PUSH1 0x9A SLOAD SWAP1 POP SWAP1 JUMP JUMPDEST PUSH1 0x0 DUP1 PUSH20 0xFFFFFFFFFFFFFFFFFFFFFFFFFFFFFFFFFFFFFFFF AND DUP4 PUSH20 0xFFFFFFFFFFFFFFFFFFFFFFFFFFFFFFFFFFFFFFFF AND EQ ISZERO PUSH2 0xAA3 JUMPI PUSH1 0x40 MLOAD PUSH32 0x8C379A000000000000000000000000000000000000000000000000000000000 DUP2 MSTORE PUSH1 0x4 ADD PUSH2 0xA9A SWAP1 PUSH2 0x3701 JUMP JUMPDEST PUSH1 0x40 MLOAD DUP1 SWAP2 SUB SWAP1 REVERT JUMPDEST PUSH2 0xAAC DUP5 PUSH2 0x12F0 JUMP JUMPDEST DUP3 GT ISZERO PUSH2 0xAEE JUMPI PUSH1 0x40 MLOAD PUSH32 0x8C379A000000000000000000000000000000000000000000000000000000000 DUP2 MSTORE PUSH1 0x4 ADD PUSH2 0xAE5 SWAP1 PUSH2 0x35C1 JUMP JUMPDEST PUSH1 0x40 MLOAD DUP1 SWAP2 SUB SWAP1 REVERT JUMPDEST PUSH2 0xB7D DUP3 PUSH1 0x9B PUSH1 0x0 DUP8 PUSH20 0xFFFFFFFFFFFFFFFFFFFFFFFFFFFFFFFFFFFFFFFF AND PUSH20 0xFFFFFFFFFFFFFFFFFFFFFFFFFFFFFFFFFFFFFFFF AND DUP2 MSTORE PUSH1 0x20 ADD SWAP1 DUP2 MSTORE PUSH1 0x20 ADD PUSH1 0x0 KECCAK256 PUSH1 0x0 CALLER PUSH20 0xFFFFFFFFFFFFFFFFFFFFFFFFFFFFFFFFFFFFFFFF AND PUSH20 0xFFFFFFFFFFFFFFFFFFFFFFFFFFFFFFFFFFFFFFFF AND DUP2 MSTORE PUSH1 0x20 ADD SWAP1 DUP2 MSTORE PUSH1 0x20 ADD PUSH1 0x0 KECCAK256 SLOAD PUSH2 0x20D1 SWAP1 SWAP2 SWAP1 PUSH4 0xFFFFFFFF AND JUMP JUMPDEST PUSH1 0x9B PUSH1 0x0 DUP7 PUSH20 0xFFFFFFFFFFFFFFFFFFFFFFFFFFFFFFFFFFFFFFFF AND PUSH20 0xFFFFFFFFFFFFFFFFFFFFFFFFFFFFFFFFFFFFFFFF AND DUP2 MSTORE PUSH1 0x20 ADD SWAP1 DUP2 MSTORE PUSH1 0x20 ADD PUSH1 0x0 KECCAK256 PUSH1 0x0 CALLER PUSH20 0xFFFFFFFFFFFFFFFFFFFFFFFFFFFFFFFFFFFFFFFF AND PUSH20 0xFFFFFFFFFFFFFFFFFFFFFFFFFFFFFFFFFFFFFFFF AND DUP2 MSTORE PUSH1 0x20 ADD SWAP1 DUP2 MSTORE PUSH1 0x20 ADD PUSH1 0x0 KECCAK256 DUP2 SWAP1 SSTORE POP PUSH2 0xC08 DUP5 DUP5 DUP5 PUSH2 0x20E7 JUMP JUMPDEST DUP3 PUSH20 0xFFFFFFFFFFFFFFFFFFFFFFFFFFFFFFFFFFFFFFFF AND DUP5 PUSH20 0xFFFFFFFFFFFFFFFFFFFFFFFFFFFFFFFFFFFFFFFF AND PUSH32 0xDDF252AD1BE2C89B69C2B068FC378DAA952BA7F163C4A11628F55A4DF523B3EF DUP5 PUSH1 0x40 MLOAD PUSH2 0xC65 SWAP2 SWAP1 PUSH2 0x3761 JUMP JUMPDEST PUSH1 0x40 MLOAD DUP1 SWAP2 SUB SWAP1 LOG3 PUSH1 0x1 SWAP1 POP SWAP4 SWAP3 POP POP POP JUMP JUMPDEST PUSH1 0x0 PUSH1 0x99 PUSH1 0x0 SWAP1 SLOAD SWAP1 PUSH2 0x100 EXP SWAP1 DIV PUSH1 0xFF AND SWAP1 POP SWAP1 JUMP JUMPDEST PUSH1 0x0 PUSH2 0xD20 DUP3 PUSH1 0x9B PUSH1 0x0 CALLER PUSH20 0xFFFFFFFFFFFFFFFFFFFFFFFFFFFFFFFFFFFFFFFF AND PUSH20 0xFFFFFFFFFFFFFFFFFFFFFFFFFFFFFFFFFFFFFFFF AND DUP2 MSTORE PUSH1 0x20 ADD SWAP1 DUP2 MSTORE PUSH1 0x20 ADD PUSH1 0x0 KECCAK256 PUSH1 0x0 DUP7 PUSH20 0xFFFFFFFFFFFFFFFFFFFFFFFFFFFFFFFFFFFFFFFF AND PUSH20 0xFFFFFFFFFFFFFFFFFFFFFFFFFFFFFFFFFFFFFFFF AND DUP2 MSTORE PUSH1 0x20 ADD SWAP1 DUP2 MSTORE PUSH1 0x20 ADD PUSH1 0x0 KECCAK256 SLOAD PUSH2 0x233C SWAP1 SWAP2 SWAP1 PUSH4 0xFFFFFFFF AND JUMP JUMPDEST PUSH1 0x9B PUSH1 0x0 CALLER PUSH20 0xFFFFFFFFFFFFFFFFFFFFFFFFFFFFFFFFFFFFFFFF AND PUSH20 0xFFFFFFFFFFFFFFFFFFFFFFFFFFFFFFFFFFFFFFFF AND DUP2 MSTORE PUSH1 0x20 ADD SWAP1 DUP2 MSTORE PUSH1 0x20 ADD PUSH1 0x0 KECCAK256 PUSH1 0x0 DUP6 PUSH20 0xFFFFFFFFFFFFFFFFFFFFFFFFFFFFFFFFFFFFFFFF AND PUSH20 0xFFFFFFFFFFFFFFFFFFFFFFFFFFFFFFFFFFFFFFFF AND DUP2 MSTORE PUSH1 0x20 ADD SWAP1 DUP2 MSTORE PUSH1 0x20 ADD PUSH1 0x0 KECCAK256 DUP2 SWAP1 SSTORE POP DUP3 PUSH20 0xFFFFFFFFFFFFFFFFFFFFFFFFFFFFFFFFFFFFFFFF AND CALLER PUSH20 0xFFFFFFFFFFFFFFFFFFFFFFFFFFFFFFFFFFFFFFFF AND PUSH32 0x8C5BE1E5EBEC7D5BD14F71427D1E84F3DD0314C0F7B2291E5B200AC8C7C3B925 PUSH1 0x9B PUSH1 0x0 CALLER PUSH20 0xFFFFFFFFFFFFFFFFFFFFFFFFFFFFFFFFFFFFFFFF AND PUSH20 0xFFFFFFFFFFFFFFFFFFFFFFFFFFFFFFFFFFFFFFFF AND DUP2 MSTORE PUSH1 0x20 ADD SWAP1 DUP2 MSTORE PUSH1 0x20 ADD PUSH1 0x0 KECCAK256 PUSH1 0x0 DUP8 PUSH20 0xFFFFFFFFFFFFFFFFFFFFFFFFFFFFFFFFFFFFFFFF AND PUSH20 0xFFFFFFFFFFFFFFFFFFFFFFFFFFFFFFFFFFFFFFFF AND DUP2 MSTORE PUSH1 0x20 ADD SWAP1 DUP2 MSTORE PUSH1 0x20 ADD PUSH1 0x0 KECCAK256 SLOAD PUSH1 0x40 MLOAD PUSH2 0xE79 SWAP2 SWAP1 PUSH2 0x3761 JUMP JUMPDEST PUSH1 0x40 MLOAD DUP1 SWAP2 SUB SWAP1 LOG3 PUSH1 0x1 SWAP1 POP SWAP3 SWAP2 POP POP JUMP JUMPDEST CALLER PUSH20 0xFFFFFFFFFFFFFFFFFFFFFFFFFFFFFFFFFFFFFFFF AND PUSH1 0x9C PUSH1 0x0 SWAP1 SLOAD SWAP1 PUSH2 0x100 EXP SWAP1 DIV PUSH20 0xFFFFFFFFFFFFFFFFFFFFFFFFFFFFFFFFFFFFFFFF AND PUSH20 0xFFFFFFFFFFFFFFFFFFFFFFFFFFFFFFFFFFFFFFFF AND EQ PUSH2 0xF1B JUMPI PUSH1 0x40 MLOAD PUSH32 0x8C379A000000000000000000000000000000000000000000000000000000000 DUP2 MSTORE PUSH1 0x4 ADD PUSH2 0xF12 SWAP1 PUSH2 0x3561 JUMP JUMPDEST PUSH1 0x40 MLOAD DUP1 SWAP2 SUB SWAP1 REVERT JUMPDEST PUSH1 0x0 PUSH32 0x53BF423E48ED90E97D02AB0EBAB13B2A235A6BFBE9C321847D5C175333AC4535 PUSH1 0x0 SHL SWAP1 POP PUSH1 0x0 DUP2 SLOAD SWAP1 POP PUSH1 0x2 DUP2 EQ ISZERO PUSH2 0xF8D JUMPI PUSH1 0x40 MLOAD PUSH32 0x8C379A000000000000000000000000000000000000000000000000000000000 DUP2 MSTORE PUSH1 0x4 ADD PUSH2 0xF84 SWAP1 PUSH2 0x36A1 JUMP JUMPDEST PUSH1 0x40 MLOAD DUP1 SWAP2 SUB SWAP1 REVERT JUMPDEST PUSH1 0x2 DUP3 SSTORE PUSH1 0x0 PUSH1 0x9A SLOAD GT PUSH2 0xFD6 JUMPI PUSH1 0x40 MLOAD PUSH32 0x8C379A000000000000000000000000000000000000000000000000000000000 DUP2 MSTORE PUSH1 0x4 ADD PUSH2 0xFCD SWAP1 PUSH2 0x3741 JUMP JUMPDEST PUSH1 0x40 MLOAD DUP1 SWAP2 SUB SWAP1 REVERT JUMPDEST DUP3 PUSH1 0x9A SLOAD EQ ISZERO PUSH2 0x1026 JUMPI PUSH32 0x41645EB819D3011B13F97696A8109D14BFCDDFACA7D063EC0564D62A3E257235 PUSH1 0x9A SLOAD PUSH1 0x9E SLOAD PUSH1 0x9F SLOAD PUSH1 0x40 MLOAD PUSH2 0x1019 SWAP4 SWAP3 SWAP2 SWAP1 PUSH2 0x37DC JUMP JUMPDEST PUSH1 0x40 MLOAD DUP1 SWAP2 SUB SWAP1 LOG1 PUSH2 0x114C JUMP JUMPDEST PUSH1 0x0 NOT PUSH16 0xFFFFFFFFFFFFFFFFFFFFFFFFFFFFFFFF AND DUP4 GT PUSH2 0x1047 JUMPI DUP3 PUSH2 0x105D JUMP JUMPDEST PUSH1 0x0 NOT PUSH16 0xFFFFFFFFFFFFFFFFFFFFFFFFFFFFFFFF AND JUMPDEST PUSH1 0x9A DUP2 SWAP1 SSTORE POP PUSH2 0x108E PUSH2 0x107D PUSH1 0xA0 SLOAD PUSH1 0x9A SLOAD PUSH2 0x20D1 SWAP1 SWAP2 SWAP1 PUSH4 0xFFFFFFFF AND JUMP JUMPDEST PUSH1 0x9E SLOAD PUSH2 0x2352 SWAP1 SWAP2 SWAP1 PUSH4 0xFFFFFFFF AND JUMP JUMPDEST PUSH1 0x9F DUP2 SWAP1 SSTORE POP PUSH1 0x0 PUSH1 0x9F SLOAD GT PUSH2 0x10D9 JUMPI PUSH1 0x40 MLOAD PUSH32 0x8C379A000000000000000000000000000000000000000000000000000000000 DUP2 MSTORE PUSH1 0x4 ADD PUSH2 0x10D0 SWAP1 PUSH2 0x3581 JUMP JUMPDEST PUSH1 0x40 MLOAD DUP1 SWAP2 SUB SWAP1 REVERT JUMPDEST PUSH2 0x1104 PUSH1 0xA0 SLOAD PUSH2 0x10F6 PUSH1 0x9F SLOAD PUSH1 0x9E SLOAD PUSH2 0x2352 SWAP1 SWAP2 SWAP1 PUSH4 0xFFFFFFFF AND JUMP JUMPDEST PUSH2 0x233C SWAP1 SWAP2 SWAP1 PUSH4 0xFFFFFFFF AND JUMP JUMPDEST PUSH1 0x9A DUP2 SWAP1 SSTORE POP PUSH32 0x41645EB819D3011B13F97696A8109D14BFCDDFACA7D063EC0564D62A3E257235 PUSH1 0x9A SLOAD PUSH1 0x9E SLOAD PUSH1 0x9F SLOAD PUSH1 0x40 MLOAD PUSH2 0x1143 SWAP4 SWAP3 SWAP2 SWAP1 PUSH2 0x37DC JUMP JUMPDEST PUSH1 0x40 MLOAD DUP1 SWAP2 SUB SWAP1 LOG1 JUMPDEST PUSH1 0x1 DUP3 SSTORE POP POP POP JUMP JUMPDEST PUSH1 0x9A SLOAD DUP2 JUMP JUMPDEST CALLER PUSH20 0xFFFFFFFFFFFFFFFFFFFFFFFFFFFFFFFFFFFFFFFF AND PUSH1 0x9C PUSH1 0x0 SWAP1 SLOAD SWAP1 PUSH2 0x100 EXP SWAP1 DIV PUSH20 0xFFFFFFFFFFFFFFFFFFFFFFFFFFFFFFFFFFFFFFFF AND PUSH20 0xFFFFFFFFFFFFFFFFFFFFFFFFFFFFFFFFFFFFFFFF AND EQ PUSH2 0x11EB JUMPI PUSH1 0x40 MLOAD PUSH32 0x8C379A000000000000000000000000000000000000000000000000000000000 DUP2 MSTORE PUSH1 0x4 ADD PUSH2 0x11E2 SWAP1 PUSH2 0x3561 JUMP JUMPDEST PUSH1 0x40 MLOAD DUP1 SWAP2 SUB SWAP1 REVERT JUMPDEST PUSH2 0x11F5 DUP3 DUP3 PUSH2 0x238E JUMP JUMPDEST POP POP JUMP JUMPDEST PUSH1 0x9C PUSH1 0x0 SWAP1 SLOAD SWAP1 PUSH2 0x100 EXP SWAP1 DIV PUSH20 0xFFFFFFFFFFFFFFFFFFFFFFFFFFFFFFFFFFFFFFFF AND DUP2 JUMP JUMPDEST PUSH1 0xA2 PUSH1 0x20 MSTORE DUP1 PUSH1 0x0 MSTORE PUSH1 0x40 PUSH1 0x0 KECCAK256 PUSH1 0x0 SWAP2 POP SLOAD SWAP1 PUSH2 0x100 EXP SWAP1 DIV PUSH1 0xFF AND DUP2 JUMP JUMPDEST PUSH2 0x1247 PUSH2 0x265C JUMP JUMPDEST PUSH20 0xFFFFFFFFFFFFFFFFFFFFFFFFFFFFFFFFFFFFFFFF AND CALLER PUSH20 0xFFFFFFFFFFFFFFFFFFFFFFFFFFFFFFFFFFFFFFFF AND EQ PUSH2 0x12B4 JUMPI PUSH1 0x40 MLOAD PUSH32 0x8C379A000000000000000000000000000000000000000000000000000000000 DUP2 MSTORE PUSH1 0x4 ADD PUSH2 0x12AB SWAP1 PUSH2 0x3721 JUMP JUMPDEST PUSH1 0x40 MLOAD DUP1 SWAP2 SUB SWAP1 REVERT JUMPDEST PUSH2 0x12BD CALLER PUSH2 0x268D JUMP JUMPDEST JUMP JUMPDEST PUSH1 0xA1 PUSH1 0x20 MSTORE DUP1 PUSH1 0x0 MSTORE PUSH1 0x40 PUSH1 0x0 KECCAK256 PUSH1 0x0 SWAP2 POP SWAP1 POP SLOAD DUP2 JUMP JUMPDEST PUSH1 0x0 PUSH4 0x3B9ACA00 PUSH1 0x9F SLOAD PUSH2 0x12EB SWAP2 SWAP1 PUSH2 0x38A0 JUMP JUMPDEST SWAP1 POP SWAP1 JUMP JUMPDEST PUSH1 0x0 DUP1 PUSH1 0x9D PUSH1 0x0 DUP5 PUSH20 0xFFFFFFFFFFFFFFFFFFFFFFFFFFFFFFFFFFFFFFFF AND PUSH20 0xFFFFFFFFFFFFFFFFFFFFFFFFFFFFFFFFFFFFFFFF AND DUP2 MSTORE PUSH1 0x20 ADD SWAP1 DUP2 MSTORE PUSH1 0x20 ADD PUSH1 0x0 KECCAK256 SLOAD EQ ISZERO PUSH2 0x1342 JUMPI PUSH1 0x0 SWAP1 POP PUSH2 0x139F JUMP JUMPDEST PUSH2 0x139C PUSH2 0x134E DUP4 PUSH2 0x276A JUMP JUMPDEST PUSH1 0x9D PUSH1 0x0 DUP6 PUSH20 0xFFFFFFFFFFFFFFFFFFFFFFFFFFFFFFFFFFFFFFFF AND PUSH20 0xFFFFFFFFFFFFFFFFFFFFFFFFFFFFFFFFFFFFFFFF AND DUP2 MSTORE PUSH1 0x20 ADD SWAP1 DUP2 MSTORE PUSH1 0x20 ADD PUSH1 0x0 KECCAK256 SLOAD PUSH2 0x2352 SWAP1 SWAP2 SWAP1 PUSH4 0xFFFFFFFF AND JUMP JUMPDEST SWAP1 POP JUMPDEST SWAP2 SWAP1 POP JUMP JUMPDEST PUSH1 0x0 PUSH1 0x9F SLOAD SWAP1 POP SWAP1 JUMP JUMPDEST PUSH1 0x0 PUSH1 0x9E SLOAD SWAP1 POP SWAP1 JUMP JUMPDEST PUSH1 0x60 PUSH1 0x98 DUP1 SLOAD PUSH2 0x13C7 SWAP1 PUSH2 0x3A0C JUMP JUMPDEST DUP1 PUSH1 0x1F ADD PUSH1 0x20 DUP1 SWAP2 DIV MUL PUSH1 0x20 ADD PUSH1 0x40 MLOAD SWAP1 DUP2 ADD PUSH1 0x40 MSTORE DUP1 SWAP3 SWAP2 SWAP1 DUP2 DUP2 MSTORE PUSH1 0x20 ADD DUP3 DUP1 SLOAD PUSH2 0x13F3 SWAP1 PUSH2 0x3A0C JUMP JUMPDEST DUP1 ISZERO PUSH2 0x1440 JUMPI DUP1 PUSH1 0x1F LT PUSH2 0x1415 JUMPI PUSH2 0x100 DUP1 DUP4 SLOAD DIV MUL DUP4 MSTORE SWAP2 PUSH1 0x20 ADD SWAP2 PUSH2 0x1440 JUMP JUMPDEST DUP3 ADD SWAP2 SWAP1 PUSH1 0x0 MSTORE PUSH1 0x20 PUSH1 0x0 KECCAK256 SWAP1 JUMPDEST DUP2 SLOAD DUP2 MSTORE SWAP1 PUSH1 0x1 ADD SWAP1 PUSH1 0x20 ADD DUP1 DUP4 GT PUSH2 0x1423 JUMPI DUP3 SWAP1 SUB PUSH1 0x1F AND DUP3 ADD SWAP2 JUMPDEST POP POP POP POP POP SWAP1 POP SWAP1 JUMP JUMPDEST PUSH1 0xA3 PUSH1 0x20 MSTORE DUP1 PUSH1 0x0 MSTORE PUSH1 0x40 PUSH1 0x0 KECCAK256 PUSH1 0x0 SWAP2 POP SWAP1 POP SLOAD DUP2 JUMP JUMPDEST CALLER PUSH20 0xFFFFFFFFFFFFFFFFFFFFFFFFFFFFFFFFFFFFFFFF AND PUSH1 0x9C PUSH1 0x0 SWAP1 SLOAD SWAP1 PUSH2 0x100 EXP SWAP1 DIV PUSH20 0xFFFFFFFFFFFFFFFFFFFFFFFFFFFFFFFFFFFFFFFF AND PUSH20 0xFFFFFFFFFFFFFFFFFFFFFFFFFFFFFFFFFFFFFFFF AND EQ PUSH2 0x14F2 JUMPI PUSH1 0x40 MLOAD PUSH32 0x8C379A000000000000000000000000000000000000000000000000000000000 DUP2 MSTORE PUSH1 0x4 ADD PUSH2 0x14E9 SWAP1 PUSH2 0x3561 JUMP JUMPDEST PUSH1 0x40 MLOAD DUP1 SWAP2 SUB SWAP1 REVERT JUMPDEST PUSH2 0x14FC DUP3 DUP3 PUSH2 0x2804 JUMP JUMPDEST POP POP JUMP JUMPDEST PUSH1 0x0 DUP1 PUSH1 0x9B PUSH1 0x0 CALLER PUSH20 0xFFFFFFFFFFFFFFFFFFFFFFFFFFFFFFFFFFFFFFFF AND PUSH20 0xFFFFFFFFFFFFFFFFFFFFFFFFFFFFFFFFFFFFFFFF AND DUP2 MSTORE PUSH1 0x20 ADD SWAP1 DUP2 MSTORE PUSH1 0x20 ADD PUSH1 0x0 KECCAK256 PUSH1 0x0 DUP6 PUSH20 0xFFFFFFFFFFFFFFFFFFFFFFFFFFFFFFFFFFFFFFFF AND PUSH20 0xFFFFFFFFFFFFFFFFFFFFFFFFFFFFFFFFFFFFFFFF AND DUP2 MSTORE PUSH1 0x20 ADD SWAP1 DUP2 MSTORE PUSH1 0x20 ADD PUSH1 0x0 KECCAK256 SLOAD SWAP1 POP DUP1 DUP4 LT PUSH2 0x1610 JUMPI PUSH1 0x0 PUSH1 0x9B PUSH1 0x0 CALLER PUSH20 0xFFFFFFFFFFFFFFFFFFFFFFFFFFFFFFFFFFFFFFFF AND PUSH20 0xFFFFFFFFFFFFFFFFFFFFFFFFFFFFFFFFFFFFFFFF AND DUP2 MSTORE PUSH1 0x20 ADD SWAP1 DUP2 MSTORE PUSH1 0x20 ADD PUSH1 0x0 KECCAK256 PUSH1 0x0 DUP7 PUSH20 0xFFFFFFFFFFFFFFFFFFFFFFFFFFFFFFFFFFFFFFFF AND PUSH20 0xFFFFFFFFFFFFFFFFFFFFFFFFFFFFFFFFFFFFFFFF AND DUP2 MSTORE PUSH1 0x20 ADD SWAP1 DUP2 MSTORE PUSH1 0x20 ADD PUSH1 0x0 KECCAK256 DUP2 SWAP1 SSTORE POP PUSH2 0x16A4 JUMP JUMPDEST PUSH2 0x1623 DUP4 DUP3 PUSH2 0x20D1 SWAP1 SWAP2 SWAP1 PUSH4 0xFFFFFFFF AND JUMP JUMPDEST PUSH1 0x9B PUSH1 0x0 CALLER PUSH20 0xFFFFFFFFFFFFFFFFFFFFFFFFFFFFFFFFFFFFFFFF AND PUSH20 0xFFFFFFFFFFFFFFFFFFFFFFFFFFFFFFFFFFFFFFFF AND DUP2 MSTORE PUSH1 0x20 ADD SWAP1 DUP2 MSTORE PUSH1 0x20 ADD PUSH1 0x0 KECCAK256 PUSH1 0x0 DUP7 PUSH20 0xFFFFFFFFFFFFFFFFFFFFFFFFFFFFFFFFFFFFFFFF AND PUSH20 0xFFFFFFFFFFFFFFFFFFFFFFFFFFFFFFFFFFFFFFFF AND DUP2 MSTORE PUSH1 0x20 ADD SWAP1 DUP2 MSTORE PUSH1 0x20 ADD PUSH1 0x0 KECCAK256 DUP2 SWAP1 SSTORE POP JUMPDEST DUP4 PUSH20 0xFFFFFFFFFFFFFFFFFFFFFFFFFFFFFFFFFFFFFFFF AND CALLER PUSH20 0xFFFFFFFFFFFFFFFFFFFFFFFFFFFFFFFFFFFFFFFF AND PUSH32 0x8C5BE1E5EBEC7D5BD14F71427D1E84F3DD0314C0F7B2291E5B200AC8C7C3B925 PUSH1 0x9B PUSH1 0x0 CALLER PUSH20 0xFFFFFFFFFFFFFFFFFFFFFFFFFFFFFFFFFFFFFFFF AND PUSH20 0xFFFFFFFFFFFFFFFFFFFFFFFFFFFFFFFFFFFFFFFF AND DUP2 MSTORE PUSH1 0x20 ADD SWAP1 DUP2 MSTORE PUSH1 0x20 ADD PUSH1 0x0 KECCAK256 PUSH1 0x0 DUP9 PUSH20 0xFFFFFFFFFFFFFFFFFFFFFFFFFFFFFFFFFFFFFFFF AND PUSH20 0xFFFFFFFFFFFFFFFFFFFFFFFFFFFFFFFFFFFFFFFF AND DUP2 MSTORE PUSH1 0x20 ADD SWAP1 DUP2 MSTORE PUSH1 0x20 ADD PUSH1 0x0 KECCAK256 SLOAD PUSH1 0x40 MLOAD PUSH2 0x177D SWAP2 SWAP1 PUSH2 0x3761 JUMP JUMPDEST PUSH1 0x40 MLOAD DUP1 SWAP2 SUB SWAP1 LOG3 PUSH1 0x1 SWAP2 POP POP SWAP3 SWAP2 POP POP JUMP JUMPDEST PUSH1 0x0 DUP1 PUSH20 0xFFFFFFFFFFFFFFFFFFFFFFFFFFFFFFFFFFFFFFFF AND DUP4 PUSH20 0xFFFFFFFFFFFFFFFFFFFFFFFFFFFFFFFFFFFFFFFF AND EQ ISZERO PUSH2 0x1801 JUMPI PUSH1 0x40 MLOAD PUSH32 0x8C379A000000000000000000000000000000000000000000000000000000000 DUP2 MSTORE PUSH1 0x4 ADD PUSH2 0x17F8 SWAP1 PUSH2 0x3701 JUMP JUMPDEST PUSH1 0x40 MLOAD DUP1 SWAP2 SUB SWAP1 REVERT JUMPDEST PUSH2 0x180A CALLER PUSH2 0x12F0 JUMP JUMPDEST DUP3 GT ISZERO PUSH2 0x184C JUMPI PUSH1 0x40 MLOAD PUSH32 0x8C379A000000000000000000000000000000000000000000000000000000000 DUP2 MSTORE PUSH1 0x4 ADD PUSH2 0x1843 SWAP1 PUSH2 0x35C1 JUMP JUMPDEST PUSH1 0x40 MLOAD DUP1 SWAP2 SUB SWAP1 REVERT JUMPDEST PUSH2 0x1857 CALLER DUP5 DUP5 PUSH2 0x20E7 JUMP JUMPDEST DUP3 PUSH20 0xFFFFFFFFFFFFFFFFFFFFFFFFFFFFFFFFFFFFFFFF AND CALLER PUSH20 0xFFFFFFFFFFFFFFFFFFFFFFFFFFFFFFFFFFFFFFFF AND PUSH32 0xDDF252AD1BE2C89B69C2B068FC378DAA952BA7F163C4A11628F55A4DF523B3EF DUP5 PUSH1 0x40 MLOAD PUSH2 0x18B4 SWAP2 SWAP1 PUSH2 0x3761 JUMP JUMPDEST PUSH1 0x40 MLOAD DUP1 SWAP2 SUB SWAP1 LOG3 PUSH1 0x1 SWAP1 POP SWAP3 SWAP2 POP POP JUMP JUMPDEST PUSH1 0x0 PUSH32 0x53BF423E48ED90E97D02AB0EBAB13B2A235A6BFBE9C321847D5C175333AC4535 PUSH1 0x0 SHL SWAP1 POP PUSH1 0x0 DUP2 SLOAD SWAP1 POP PUSH1 0x2 DUP2 EQ ISZERO PUSH2 0x1938 JUMPI PUSH1 0x40 MLOAD PUSH32 0x8C379A000000000000000000000000000000000000000000000000000000000 DUP2 MSTORE PUSH1 0x4 ADD PUSH2 0x192F SWAP1 PUSH2 0x36A1 JUMP JUMPDEST PUSH1 0x40 MLOAD DUP1 SWAP2 SUB SWAP1 REVERT JUMPDEST PUSH1 0x2 DUP3 SSTORE PUSH2 0x1945 CALLER PUSH2 0x2B7F JUMP JUMPDEST ISZERO PUSH2 0x1985 JUMPI PUSH1 0x40 MLOAD PUSH32 0x8C379A000000000000000000000000000000000000000000000000000000000 DUP2 MSTORE PUSH1 0x4 ADD PUSH2 0x197C SWAP1 PUSH2 0x3681 JUMP JUMPDEST PUSH1 0x40 MLOAD DUP1 SWAP2 SUB SWAP1 REVERT JUMPDEST PUSH2 0x19A2 PUSH2 0x1991 CALLER PUSH2 0x12F0 JUMP JUMPDEST PUSH1 0xA0 SLOAD PUSH2 0x233C SWAP1 SWAP2 SWAP1 PUSH4 0xFFFFFFFF AND JUMP JUMPDEST PUSH1 0xA0 DUP2 SWAP1 SSTORE POP PUSH1 0x9F SLOAD PUSH1 0xA1 PUSH1 0x0 CALLER PUSH20 0xFFFFFFFFFFFFFFFFFFFFFFFFFFFFFFFFFFFFFFFF AND PUSH20 0xFFFFFFFFFFFFFFFFFFFFFFFFFFFFFFFFFFFFFFFF AND DUP2 MSTORE PUSH1 0x20 ADD SWAP1 DUP2 MSTORE PUSH1 0x20 ADD PUSH1 0x0 KECCAK256 DUP2 SWAP1 SSTORE POP PUSH2 0x1A42 PUSH1 0x9D PUSH1 0x0 CALLER PUSH20 0xFFFFFFFFFFFFFFFFFFFFFFFFFFFFFFFFFFFFFFFF AND PUSH20 0xFFFFFFFFFFFFFFFFFFFFFFFFFFFFFFFFFFFFFFFF AND DUP2 MSTORE PUSH1 0x20 ADD SWAP1 DUP2 MSTORE PUSH1 0x20 ADD PUSH1 0x0 KECCAK256 SLOAD PUSH1 0x9E SLOAD PUSH2 0x20D1 SWAP1 SWAP2 SWAP1 PUSH4 0xFFFFFFFF AND JUMP JUMPDEST PUSH1 0x9E DUP2 SWAP1 SSTORE POP PUSH1 0x1 PUSH1 0xA2 PUSH1 0x0 CALLER PUSH20 0xFFFFFFFFFFFFFFFFFFFFFFFFFFFFFFFFFFFFFFFF AND PUSH20 0xFFFFFFFFFFFFFFFFFFFFFFFFFFFFFFFFFFFFFFFF AND DUP2 MSTORE PUSH1 0x20 ADD SWAP1 DUP2 MSTORE PUSH1 0x20 ADD PUSH1 0x0 KECCAK256 PUSH1 0x0 PUSH2 0x100 EXP DUP2 SLOAD DUP2 PUSH1 0xFF MUL NOT AND SWAP1 DUP4 PUSH1 0x2 DUP2 GT ISZERO PUSH2 0x1AAB JUMPI PUSH2 0x1AAA PUSH2 0x3A9C JUMP JUMPDEST JUMPDEST MUL OR SWAP1 SSTORE POP PUSH1 0x1 DUP3 SSTORE POP POP JUMP JUMPDEST PUSH1 0x0 PUSH2 0x1AC2 PUSH2 0x20A0 JUMP JUMPDEST PUSH20 0xFFFFFFFFFFFFFFFFFFFFFFFFFFFFFFFFFFFFFFFF AND CALLER PUSH20 0xFFFFFFFFFFFFFFFFFFFFFFFFFFFFFFFFFFFFFFFF AND EQ SWAP1 POP SWAP1 JUMP JUMPDEST PUSH2 0x1AFD PUSH2 0x1AB8 JUMP JUMPDEST PUSH2 0x1B3C JUMPI PUSH1 0x40 MLOAD PUSH32 0x8C379A000000000000000000000000000000000000000000000000000000000 DUP2 MSTORE PUSH1 0x4 ADD PUSH2 0x1B33 SWAP1 PUSH2 0x35E1 JUMP JUMPDEST PUSH1 0x40 MLOAD DUP1 SWAP2 SUB SWAP1 REVERT JUMPDEST PUSH2 0x1B45 DUP2 PUSH2 0x2C64 JUMP JUMPDEST DUP1 PUSH20 0xFFFFFFFFFFFFFFFFFFFFFFFFFFFFFFFFFFFFFFFF AND PUSH2 0x1B64 PUSH2 0x20A0 JUMP JUMPDEST PUSH20 0xFFFFFFFFFFFFFFFFFFFFFFFFFFFFFFFFFFFFFFFF AND PUSH32 0xA39CC5EB22D0F34D8BEAEFEE8A3F17CC229C1A1D1EF87A5AD47313487B1C4F0D PUSH1 0x40 MLOAD PUSH1 0x40 MLOAD DUP1 SWAP2 SUB SWAP1 LOG3 POP JUMP JUMPDEST PUSH1 0x0 PUSH1 0x9B PUSH1 0x0 DUP5 PUSH20 0xFFFFFFFFFFFFFFFFFFFFFFFFFFFFFFFFFFFFFFFF AND PUSH20 0xFFFFFFFFFFFFFFFFFFFFFFFFFFFFFFFFFFFFFFFF AND DUP2 MSTORE PUSH1 0x20 ADD SWAP1 DUP2 MSTORE PUSH1 0x20 ADD PUSH1 0x0 KECCAK256 PUSH1 0x0 DUP4 PUSH20 0xFFFFFFFFFFFFFFFFFFFFFFFFFFFFFFFFFFFFFFFF AND PUSH20 0xFFFFFFFFFFFFFFFFFFFFFFFFFFFFFFFFFFFFFFFF AND DUP2 MSTORE PUSH1 0x20 ADD SWAP1 DUP2 MSTORE PUSH1 0x20 ADD PUSH1 0x0 KECCAK256 SLOAD SWAP1 POP SWAP3 SWAP2 POP POP JUMP JUMPDEST PUSH1 0x0 DUP1 PUSH1 0x0 PUSH1 0x9D PUSH1 0x0 DUP6 PUSH20 0xFFFFFFFFFFFFFFFFFFFFFFFFFFFFFFFFFFFFFFFF AND PUSH20 0xFFFFFFFFFFFFFFFFFFFFFFFFFFFFFFFFFFFFFFFF AND DUP2 MSTORE PUSH1 0x20 ADD SWAP1 DUP2 MSTORE PUSH1 0x20 ADD PUSH1 0x0 KECCAK256 SLOAD PUSH2 0x1C7E DUP6 PUSH2 0x276A JUMP JUMPDEST PUSH1 0x1 PUSH1 0xA3 PUSH1 0x0 DUP9 PUSH20 0xFFFFFFFFFFFFFFFFFFFFFFFFFFFFFFFFFFFFFFFF AND PUSH20 0xFFFFFFFFFFFFFFFFFFFFFFFFFFFFFFFFFFFFFFFF AND DUP2 MSTORE PUSH1 0x20 ADD SWAP1 DUP2 MSTORE PUSH1 0x20 ADD PUSH1 0x0 KECCAK256 SLOAD EQ SWAP3 POP SWAP3 POP SWAP3 POP SWAP2 SWAP4 SWAP1 SWAP3 POP JUMP JUMPDEST PUSH1 0xA0 SLOAD DUP2 JUMP JUMPDEST PUSH1 0x0 PUSH32 0x53BF423E48ED90E97D02AB0EBAB13B2A235A6BFBE9C321847D5C175333AC4535 PUSH1 0x0 SHL SWAP1 POP PUSH1 0x0 DUP2 SLOAD SWAP1 POP PUSH1 0x2 DUP2 EQ ISZERO PUSH2 0x1D46 JUMPI PUSH1 0x40 MLOAD PUSH32 0x8C379A000000000000000000000000000000000000000000000000000000000 DUP2 MSTORE PUSH1 0x4 ADD PUSH2 0x1D3D SWAP1 PUSH2 0x36A1 JUMP JUMPDEST PUSH1 0x40 MLOAD DUP1 SWAP2 SUB SWAP1 REVERT JUMPDEST PUSH1 0x2 DUP3 SSTORE PUSH2 0x1D53 CALLER PUSH2 0x2B7F JUMP JUMPDEST PUSH2 0x1D92 JUMPI PUSH1 0x40 MLOAD PUSH32 0x8C379A000000000000000000000000000000000000000000000000000000000 DUP2 MSTORE PUSH1 0x4 ADD PUSH2 0x1D89 SWAP1 PUSH2 0x35A1 JUMP JUMPDEST PUSH1 0x40 MLOAD DUP1 SWAP2 SUB SWAP1 REVERT JUMPDEST PUSH1 0x0 PUSH2 0x1E02 PUSH2 0x1DA0 CALLER PUSH2 0x276A JUMP JUMPDEST PUSH2 0x1DF4 PUSH1 0x9F SLOAD PUSH1 0x9D PUSH1 0x0 CALLER PUSH20 0xFFFFFFFFFFFFFFFFFFFFFFFFFFFFFFFFFFFFFFFF AND PUSH20 0xFFFFFFFFFFFFFFFFFFFFFFFFFFFFFFFFFFFFFFFF AND DUP2 MSTORE PUSH1 0x20 ADD SWAP1 DUP2 MSTORE PUSH1 0x20 ADD PUSH1 0x0 KECCAK256 SLOAD PUSH2 0x2C93 SWAP1 SWAP2 SWAP1 PUSH4 0xFFFFFFFF AND JUMP JUMPDEST PUSH2 0x2CA9 SWAP1 SWAP2 SWAP1 PUSH4 0xFFFFFFFF AND JUMP JUMPDEST SWAP1 POP PUSH2 0x1E21 PUSH2 0x1E10 CALLER PUSH2 0x12F0 JUMP JUMPDEST PUSH1 0xA0 SLOAD PUSH2 0x20D1 SWAP1 SWAP2 SWAP1 PUSH4 0xFFFFFFFF AND JUMP JUMPDEST PUSH1 0xA0 DUP2 SWAP1 SSTORE POP DUP1 PUSH1 0x9D PUSH1 0x0 CALLER PUSH20 0xFFFFFFFFFFFFFFFFFFFFFFFFFFFFFFFFFFFFFFFF AND PUSH20 0xFFFFFFFFFFFFFFFFFFFFFFFFFFFFFFFFFFFFFFFF AND DUP2 MSTORE PUSH1 0x20 ADD SWAP1 DUP2 MSTORE PUSH1 0x20 ADD PUSH1 0x0 KECCAK256 DUP2 SWAP1 SSTORE POP PUSH2 0x1EBF PUSH1 0x9D PUSH1 0x0 CALLER PUSH20 0xFFFFFFFFFFFFFFFFFFFFFFFFFFFFFFFFFFFFFFFF AND PUSH20 0xFFFFFFFFFFFFFFFFFFFFFFFFFFFFFFFFFFFFFFFF AND DUP2 MSTORE PUSH1 0x20 ADD SWAP1 DUP2 MSTORE PUSH1 0x20 ADD PUSH1 0x0 KECCAK256 SLOAD PUSH1 0x9E SLOAD PUSH2 0x233C SWAP1 SWAP2 SWAP1 PUSH4 0xFFFFFFFF AND JUMP JUMPDEST PUSH1 0x9E DUP2 SWAP1 SSTORE POP PUSH1 0x2 PUSH1 0xA2 PUSH1 0x0 CALLER PUSH20 0xFFFFFFFFFFFFFFFFFFFFFFFFFFFFFFFFFFFFFFFF AND PUSH20 0xFFFFFFFFFFFFFFFFFFFFFFFFFFFFFFFFFFFFFFFF AND DUP2 MSTORE PUSH1 0x20 ADD SWAP1 DUP2 MSTORE PUSH1 0x20 ADD PUSH1 0x0 KECCAK256 PUSH1 0x0 PUSH2 0x100 EXP DUP2 SLOAD DUP2 PUSH1 0xFF MUL NOT AND SWAP1 DUP4 PUSH1 0x2 DUP2 GT ISZERO PUSH2 0x1F28 JUMPI PUSH2 0x1F27 PUSH2 0x3A9C JUMP JUMPDEST JUMPDEST MUL OR SWAP1 SSTORE POP PUSH1 0xA1 PUSH1 0x0 CALLER PUSH20 0xFFFFFFFFFFFFFFFFFFFFFFFFFFFFFFFFFFFFFFFF AND PUSH20 0xFFFFFFFFFFFFFFFFFFFFFFFFFFFFFFFFFFFFFFFF AND DUP2 MSTORE PUSH1 0x20 ADD SWAP1 DUP2 MSTORE PUSH1 0x20 ADD PUSH1 0x0 KECCAK256 PUSH1 0x0 SWAP1 SSTORE POP PUSH1 0x1 DUP3 SSTORE POP POP JUMP JUMPDEST PUSH1 0x0 DUP1 PUSH1 0x0 PUSH2 0x1F87 DUP5 PUSH2 0x276A JUMP JUMPDEST SWAP1 POP PUSH12 0x33B2E3C9FD0803CE8000000 DUP2 EQ ISZERO PUSH2 0x1FE8 JUMPI PUSH1 0x9D PUSH1 0x0 DUP6 PUSH20 0xFFFFFFFFFFFFFFFFFFFFFFFFFFFFFFFFFFFFFFFF AND PUSH20 0xFFFFFFFFFFFFFFFFFFFFFFFFFFFFFFFFFFFFFFFF AND DUP2 MSTORE PUSH1 0x20 ADD SWAP1 DUP2 MSTORE PUSH1 0x20 ADD PUSH1 0x0 KECCAK256 SLOAD DUP2 SWAP3 POP SWAP3 POP POP PUSH2 0x204D JUMP JUMPDEST PUSH4 0x3B9ACA00 PUSH1 0x9D PUSH1 0x0 DUP7 PUSH20 0xFFFFFFFFFFFFFFFFFFFFFFFFFFFFFFFFFFFFFFFF AND PUSH20 0xFFFFFFFFFFFFFFFFFFFFFFFFFFFFFFFFFFFFFFFF AND DUP2 MSTORE PUSH1 0x20 ADD SWAP1 DUP2 MSTORE PUSH1 0x20 ADD PUSH1 0x0 KECCAK256 SLOAD PUSH2 0x2037 SWAP2 SWAP1 PUSH2 0x38A0 JUMP JUMPDEST PUSH4 0x3B9ACA00 DUP3 PUSH2 0x2047 SWAP2 SWAP1 PUSH2 0x38A0 JUMP JUMPDEST SWAP3 POP SWAP3 POP POP JUMPDEST SWAP2 POP SWAP2 JUMP JUMPDEST DUP3 PUSH1 0x97 SWAP1 DUP1 MLOAD SWAP1 PUSH1 0x20 ADD SWAP1 PUSH2 0x2068 SWAP3 SWAP2 SWAP1 PUSH2 0x2F55 JUMP JUMPDEST POP DUP2 PUSH1 0x98 SWAP1 DUP1 MLOAD SWAP1 PUSH1 0x20 ADD SWAP1 PUSH2 0x207F SWAP3 SWAP2 SWAP1 PUSH2 0x2F55 JUMP JUMPDEST POP DUP1 PUSH1 0x99 PUSH1 0x0 PUSH2 0x100 EXP DUP2 SLOAD DUP2 PUSH1 0xFF MUL NOT AND SWAP1 DUP4 PUSH1 0xFF AND MUL OR SWAP1 SSTORE POP POP POP POP JUMP JUMPDEST PUSH1 0x0 DUP1 PUSH32 0x7BEA13895FA79D2831E0A9E28EDEDE30099005A50D652D8957CF8A607EE6CA4A PUSH1 0x0 SHL SWAP1 POP DUP1 SLOAD SWAP2 POP POP SWAP1 JUMP JUMPDEST PUSH1 0x0 DUP2 DUP4 PUSH2 0x20DF SWAP2 SWAP1 PUSH2 0x392B JUMP JUMPDEST SWAP1 POP SWAP3 SWAP2 POP POP JUMP JUMPDEST PUSH1 0x0 PUSH2 0x20F2 DUP4 PUSH2 0x2B7F JUMP JUMPDEST SWAP1 POP PUSH1 0x0 PUSH2 0x20FF DUP6 PUSH2 0x2B7F JUMP JUMPDEST SWAP1 POP PUSH1 0x0 PUSH2 0x211E PUSH2 0x210F DUP7 PUSH2 0x276A JUMP JUMPDEST DUP6 PUSH2 0x2CBF SWAP1 SWAP2 SWAP1 PUSH4 0xFFFFFFFF AND JUMP JUMPDEST SWAP1 POP PUSH1 0x0 PUSH2 0x213D PUSH2 0x212E DUP9 PUSH2 0x276A JUMP JUMPDEST DUP7 PUSH2 0x2CBF SWAP1 SWAP2 SWAP1 PUSH4 0xFFFFFFFF AND JUMP JUMPDEST SWAP1 POP PUSH2 0x21C8 DUP2 PUSH1 0x40 MLOAD DUP1 PUSH1 0x40 ADD PUSH1 0x40 MSTORE DUP1 PUSH1 0x1F DUP2 MSTORE PUSH1 0x20 ADD PUSH32 0x5472616E7366657220616D6F756E7420657863656564732062616C616E636500 DUP2 MSTORE POP PUSH1 0x9D PUSH1 0x0 DUP12 PUSH20 0xFFFFFFFFFFFFFFFFFFFFFFFFFFFFFFFFFFFFFFFF AND PUSH20 0xFFFFFFFFFFFFFFFFFFFFFFFFFFFFFFFFFFFFFFFF AND DUP2 MSTORE PUSH1 0x20 ADD SWAP1 DUP2 MSTORE PUSH1 0x20 ADD PUSH1 0x0 KECCAK256 SLOAD PUSH2 0x2CDC SWAP1 SWAP3 SWAP2 SWAP1 PUSH4 0xFFFFFFFF AND JUMP JUMPDEST PUSH1 0x9D PUSH1 0x0 DUP10 PUSH20 0xFFFFFFFFFFFFFFFFFFFFFFFFFFFFFFFFFFFFFFFF AND PUSH20 0xFFFFFFFFFFFFFFFFFFFFFFFFFFFFFFFFFFFFFFFF AND DUP2 MSTORE PUSH1 0x20 ADD SWAP1 DUP2 MSTORE PUSH1 0x20 ADD PUSH1 0x0 KECCAK256 DUP2 SWAP1 SSTORE POP PUSH2 0x225D DUP3 PUSH1 0x9D PUSH1 0x0 DUP10 PUSH20 0xFFFFFFFFFFFFFFFFFFFFFFFFFFFFFFFFFFFFFFFF AND PUSH20 0xFFFFFFFFFFFFFFFFFFFFFFFFFFFFFFFFFFFFFFFF AND DUP2 MSTORE PUSH1 0x20 ADD SWAP1 DUP2 MSTORE PUSH1 0x20 ADD PUSH1 0x0 KECCAK256 SLOAD PUSH2 0x233C SWAP1 SWAP2 SWAP1 PUSH4 0xFFFFFFFF AND JUMP JUMPDEST PUSH1 0x9D PUSH1 0x0 DUP9 PUSH20 0xFFFFFFFFFFFFFFFFFFFFFFFFFFFFFFFFFFFFFFFF AND PUSH20 0xFFFFFFFFFFFFFFFFFFFFFFFFFFFFFFFFFFFFFFFF AND DUP2 MSTORE PUSH1 0x20 ADD SWAP1 DUP2 MSTORE PUSH1 0x20 ADD PUSH1 0x0 KECCAK256 DUP2 SWAP1 SSTORE POP DUP4 DUP1 ISZERO PUSH2 0x22AB JUMPI POP DUP3 ISZERO JUMPDEST ISZERO PUSH2 0x22EB JUMPI PUSH2 0x22C5 DUP6 PUSH1 0xA0 SLOAD PUSH2 0x233C SWAP1 SWAP2 SWAP1 PUSH4 0xFFFFFFFF AND JUMP JUMPDEST PUSH1 0xA0 DUP2 SWAP1 SSTORE POP PUSH2 0x22E0 DUP2 PUSH1 0x9E SLOAD PUSH2 0x20D1 SWAP1 SWAP2 SWAP1 PUSH4 0xFFFFFFFF AND JUMP JUMPDEST PUSH1 0x9E DUP2 SWAP1 SSTORE POP PUSH2 0x2333 JUMP JUMPDEST DUP4 ISZERO DUP1 ISZERO PUSH2 0x22F6 JUMPI POP DUP3 JUMPDEST ISZERO PUSH2 0x2332 JUMPI PUSH2 0x2310 DUP6 PUSH1 0xA0 SLOAD PUSH2 0x20D1 SWAP1 SWAP2 SWAP1 PUSH4 0xFFFFFFFF AND JUMP JUMPDEST PUSH1 0xA0 DUP2 SWAP1 SSTORE POP PUSH2 0x232B DUP3 PUSH1 0x9E SLOAD PUSH2 0x233C SWAP1 SWAP2 SWAP1 PUSH4 0xFFFFFFFF AND JUMP JUMPDEST PUSH1 0x9E DUP2 SWAP1 SSTORE POP JUMPDEST JUMPDEST POP POP POP POP POP POP POP JUMP JUMPDEST PUSH1 0x0 DUP2 DUP4 PUSH2 0x234A SWAP2 SWAP1 PUSH2 0x384A JUMP JUMPDEST SWAP1 POP SWAP3 SWAP2 POP POP JUMP JUMPDEST PUSH1 0x0 DUP1 PUSH2 0x2370 PUSH8 0xDE0B6B3A7640000 DUP6 PUSH2 0x2C93 SWAP1 SWAP2 SWAP1 PUSH4 0xFFFFFFFF AND JUMP JUMPDEST SWAP1 POP PUSH2 0x2385 DUP4 DUP3 PUSH2 0x2CA9 SWAP1 SWAP2 SWAP1 PUSH4 0xFFFFFFFF AND JUMP JUMPDEST SWAP2 POP POP SWAP3 SWAP2 POP POP JUMP JUMPDEST PUSH1 0x0 PUSH32 0x53BF423E48ED90E97D02AB0EBAB13B2A235A6BFBE9C321847D5C175333AC4535 PUSH1 0x0 SHL SWAP1 POP PUSH1 0x0 DUP2 SLOAD SWAP1 POP PUSH1 0x2 DUP2 EQ ISZERO PUSH2 0x2400 JUMPI PUSH1 0x40 MLOAD PUSH32 0x8C379A000000000000000000000000000000000000000000000000000000000 DUP2 MSTORE PUSH1 0x4 ADD PUSH2 0x23F7 SWAP1 PUSH2 0x36A1 JUMP JUMPDEST PUSH1 0x40 MLOAD DUP1 SWAP2 SUB SWAP1 REVERT JUMPDEST PUSH1 0x2 DUP3 SSTORE PUSH1 0x0 PUSH20 0xFFFFFFFFFFFFFFFFFFFFFFFFFFFFFFFFFFFFFFFF AND DUP5 PUSH20 0xFFFFFFFFFFFFFFFFFFFFFFFFFFFFFFFFFFFFFFFF AND EQ ISZERO PUSH2 0x2474 JUMPI PUSH1 0x40 MLOAD PUSH32 0x8C379A000000000000000000000000000000000000000000000000000000000 DUP2 MSTORE PUSH1 0x4 ADD PUSH2 0x246B SWAP1 PUSH2 0x36E1 JUMP JUMPDEST PUSH1 0x40 MLOAD DUP1 SWAP2 SUB SWAP1 REVERT JUMPDEST PUSH1 0x0 PUSH2 0x247F DUP6 PUSH2 0x2B7F JUMP JUMPDEST SWAP1 POP PUSH1 0x0 PUSH2 0x249E PUSH2 0x248F DUP8 PUSH2 0x276A JUMP JUMPDEST DUP7 PUSH2 0x2CBF SWAP1 SWAP2 SWAP1 PUSH4 0xFFFFFFFF AND JUMP JUMPDEST SWAP1 POP PUSH2 0x24F2 DUP2 PUSH1 0x9D PUSH1 0x0 DUP10 PUSH20 0xFFFFFFFFFFFFFFFFFFFFFFFFFFFFFFFFFFFFFFFF AND PUSH20 0xFFFFFFFFFFFFFFFFFFFFFFFFFFFFFFFFFFFFFFFF AND DUP2 MSTORE PUSH1 0x20 ADD SWAP1 DUP2 MSTORE PUSH1 0x20 ADD PUSH1 0x0 KECCAK256 SLOAD PUSH2 0x233C SWAP1 SWAP2 SWAP1 PUSH4 0xFFFFFFFF AND JUMP JUMPDEST PUSH1 0x9D PUSH1 0x0 DUP9 PUSH20 0xFFFFFFFFFFFFFFFFFFFFFFFFFFFFFFFFFFFFFFFF AND PUSH20 0xFFFFFFFFFFFFFFFFFFFFFFFFFFFFFFFFFFFFFFFF AND DUP2 MSTORE PUSH1 0x20 ADD SWAP1 DUP2 MSTORE PUSH1 0x20 ADD PUSH1 0x0 KECCAK256 DUP2 SWAP1 SSTORE POP DUP2 ISZERO PUSH2 0x255B JUMPI PUSH2 0x2550 DUP6 PUSH1 0xA0 SLOAD PUSH2 0x233C SWAP1 SWAP2 SWAP1 PUSH4 0xFFFFFFFF AND JUMP JUMPDEST PUSH1 0xA0 DUP2 SWAP1 SSTORE POP PUSH2 0x2577 JUMP JUMPDEST PUSH2 0x2570 DUP2 PUSH1 0x9E SLOAD PUSH2 0x233C SWAP1 SWAP2 SWAP1 PUSH4 0xFFFFFFFF AND JUMP JUMPDEST PUSH1 0x9E DUP2 SWAP1 SSTORE POP JUMPDEST PUSH2 0x258C DUP6 PUSH1 0x9A SLOAD PUSH2 0x233C SWAP1 SWAP2 SWAP1 PUSH4 0xFFFFFFFF AND JUMP JUMPDEST PUSH1 0x9A DUP2 SWAP1 SSTORE POP PUSH1 0x0 NOT PUSH16 0xFFFFFFFFFFFFFFFFFFFFFFFFFFFFFFFF AND PUSH1 0x9A SLOAD LT PUSH2 0x25EA JUMPI PUSH1 0x40 MLOAD PUSH32 0x8C379A000000000000000000000000000000000000000000000000000000000 DUP2 MSTORE PUSH1 0x4 ADD PUSH2 0x25E1 SWAP1 PUSH2 0x3601 JUMP JUMPDEST PUSH1 0x40 MLOAD DUP1 SWAP2 SUB SWAP1 REVERT JUMPDEST DUP6 PUSH20 0xFFFFFFFFFFFFFFFFFFFFFFFFFFFFFFFFFFFFFFFF AND PUSH1 0x0 PUSH20 0xFFFFFFFFFFFFFFFFFFFFFFFFFFFFFFFFFFFFFFFF AND PUSH32 0xDDF252AD1BE2C89B69C2B068FC378DAA952BA7F163C4A11628F55A4DF523B3EF DUP8 PUSH1 0x40 MLOAD PUSH2 0x2648 SWAP2 SWAP1 PUSH2 0x3761 JUMP JUMPDEST PUSH1 0x40 MLOAD DUP1 SWAP2 SUB SWAP1 LOG3 POP POP PUSH1 0x1 DUP3 SSTORE POP POP POP POP JUMP JUMPDEST PUSH1 0x0 DUP1 PUSH32 0x44C4D30B2EAAD5130AD70C3BA6972730566F3E6359AB83E800D905C61B1C51DB PUSH1 0x0 SHL SWAP1 POP DUP1 SLOAD SWAP2 POP POP SWAP1 JUMP JUMPDEST PUSH1 0x0 PUSH20 0xFFFFFFFFFFFFFFFFFFFFFFFFFFFFFFFFFFFFFFFF AND DUP2 PUSH20 0xFFFFFFFFFFFFFFFFFFFFFFFFFFFFFFFFFFFFFFFF AND EQ ISZERO PUSH2 0x26FD JUMPI PUSH1 0x40 MLOAD PUSH32 0x8C379A000000000000000000000000000000000000000000000000000000000 DUP2 MSTORE PUSH1 0x4 ADD PUSH2 0x26F4 SWAP1 PUSH2 0x3641 JUMP JUMPDEST PUSH1 0x40 MLOAD DUP1 SWAP2 SUB SWAP1 REVERT JUMPDEST DUP1 PUSH20 0xFFFFFFFFFFFFFFFFFFFFFFFFFFFFFFFFFFFFFFFF AND PUSH2 0x271C PUSH2 0x20A0 JUMP JUMPDEST PUSH20 0xFFFFFFFFFFFFFFFFFFFFFFFFFFFFFFFFFFFFFFFF AND PUSH32 0xC7C0C772ADD429241571AFB3805861FB3CFA2AF374534088B76CDB4325A87E9A PUSH1 0x40 MLOAD PUSH1 0x40 MLOAD DUP1 SWAP2 SUB SWAP1 LOG3 PUSH2 0x2767 DUP2 PUSH2 0x2D31 JUMP JUMPDEST POP JUMP JUMPDEST PUSH1 0x0 DUP1 PUSH1 0xA1 PUSH1 0x0 DUP5 PUSH20 0xFFFFFFFFFFFFFFFFFFFFFFFFFFFFFFFFFFFFFFFF AND PUSH20 0xFFFFFFFFFFFFFFFFFFFFFFFFFFFFFFFFFFFFFFFF AND DUP2 MSTORE PUSH1 0x20 ADD SWAP1 DUP2 MSTORE PUSH1 0x20 ADD PUSH1 0x0 KECCAK256 SLOAD EQ PUSH2 0x27F9 JUMPI PUSH1 0xA1 PUSH1 0x0 DUP4 PUSH20 0xFFFFFFFFFFFFFFFFFFFFFFFFFFFFFFFFFFFFFFFF AND PUSH20 0xFFFFFFFFFFFFFFFFFFFFFFFFFFFFFFFFFFFFFFFF AND DUP2 MSTORE PUSH1 0x20 ADD SWAP1 DUP2 MSTORE PUSH1 0x20 ADD PUSH1 0x0 KECCAK256 SLOAD SWAP1 POP PUSH2 0x27FF JUMP JUMPDEST PUSH1 0x9F SLOAD SWAP1 POP JUMPDEST SWAP2 SWAP1 POP JUMP JUMPDEST PUSH1 0x0 PUSH32 0x53BF423E48ED90E97D02AB0EBAB13B2A235A6BFBE9C321847D5C175333AC4535 PUSH1 0x0 SHL SWAP1 POP PUSH1 0x0 DUP2 SLOAD SWAP1 POP PUSH1 0x2 DUP2 EQ ISZERO PUSH2 0x2876 JUMPI PUSH1 0x40 MLOAD PUSH32 0x8C379A000000000000000000000000000000000000000000000000000000000 DUP2 MSTORE PUSH1 0x4 ADD PUSH2 0x286D SWAP1 PUSH2 0x36A1 JUMP JUMPDEST PUSH1 0x40 MLOAD DUP1 SWAP2 SUB SWAP1 REVERT JUMPDEST PUSH1 0x2 DUP3 SSTORE PUSH1 0x0 PUSH20 0xFFFFFFFFFFFFFFFFFFFFFFFFFFFFFFFFFFFFFFFF AND DUP5 PUSH20 0xFFFFFFFFFFFFFFFFFFFFFFFFFFFFFFFFFFFFFFFF AND EQ ISZERO PUSH2 0x28EA JUMPI PUSH1 0x40 MLOAD PUSH32 0x8C379A000000000000000000000000000000000000000000000000000000000 DUP2 MSTORE PUSH1 0x4 ADD PUSH2 0x28E1 SWAP1 PUSH2 0x3621 JUMP JUMPDEST PUSH1 0x40 MLOAD DUP1 SWAP2 SUB SWAP1 REVERT JUMPDEST PUSH1 0x0 DUP4 EQ ISZERO PUSH2 0x28F8 JUMPI PUSH2 0x2B75 JUMP JUMPDEST PUSH1 0x0 PUSH2 0x2903 DUP6 PUSH2 0x2B7F JUMP JUMPDEST SWAP1 POP PUSH1 0x0 PUSH2 0x2922 PUSH2 0x2913 DUP8 PUSH2 0x276A JUMP JUMPDEST DUP7 PUSH2 0x2CBF SWAP1 SWAP2 SWAP1 PUSH4 0xFFFFFFFF AND JUMP JUMPDEST SWAP1 POP PUSH1 0x0 PUSH1 0x9D PUSH1 0x0 DUP9 PUSH20 0xFFFFFFFFFFFFFFFFFFFFFFFFFFFFFFFFFFFFFFFF AND PUSH20 0xFFFFFFFFFFFFFFFFFFFFFFFFFFFFFFFFFFFFFFFF AND DUP2 MSTORE PUSH1 0x20 ADD SWAP1 DUP2 MSTORE PUSH1 0x20 ADD PUSH1 0x0 KECCAK256 SLOAD SWAP1 POP DUP2 DUP2 EQ DUP1 PUSH2 0x2981 JUMPI POP DUP2 PUSH1 0x1 DUP3 PUSH2 0x297F SWAP2 SWAP1 PUSH2 0x392B JUMP JUMPDEST EQ JUMPDEST ISZERO PUSH2 0x29D0 JUMPI PUSH1 0x0 PUSH1 0x9D PUSH1 0x0 DUP10 PUSH20 0xFFFFFFFFFFFFFFFFFFFFFFFFFFFFFFFFFFFFFFFF AND PUSH20 0xFFFFFFFFFFFFFFFFFFFFFFFFFFFFFFFFFFFFFFFF AND DUP2 MSTORE PUSH1 0x20 ADD SWAP1 DUP2 MSTORE PUSH1 0x20 ADD PUSH1 0x0 KECCAK256 DUP2 SWAP1 SSTORE POP PUSH2 0x2AAE JUMP JUMPDEST DUP2 DUP2 GT ISZERO PUSH2 0x2A72 JUMPI PUSH2 0x2A2A DUP3 PUSH1 0x9D PUSH1 0x0 DUP11 PUSH20 0xFFFFFFFFFFFFFFFFFFFFFFFFFFFFFFFFFFFFFFFF AND PUSH20 0xFFFFFFFFFFFFFFFFFFFFFFFFFFFFFFFFFFFFFFFF AND DUP2 MSTORE PUSH1 0x20 ADD SWAP1 DUP2 MSTORE PUSH1 0x20 ADD PUSH1 0x0 KECCAK256 SLOAD PUSH2 0x20D1 SWAP1 SWAP2 SWAP1 PUSH4 0xFFFFFFFF AND JUMP JUMPDEST PUSH1 0x9D PUSH1 0x0 DUP10 PUSH20 0xFFFFFFFFFFFFFFFFFFFFFFFFFFFFFFFFFFFFFFFF AND PUSH20 0xFFFFFFFFFFFFFFFFFFFFFFFFFFFFFFFFFFFFFFFF AND DUP2 MSTORE PUSH1 0x20 ADD SWAP1 DUP2 MSTORE PUSH1 0x20 ADD PUSH1 0x0 KECCAK256 DUP2 SWAP1 SSTORE POP PUSH2 0x2AAD JUMP JUMPDEST PUSH1 0x40 MLOAD PUSH32 0x8C379A000000000000000000000000000000000000000000000000000000000 DUP2 MSTORE PUSH1 0x4 ADD PUSH2 0x2AA4 SWAP1 PUSH2 0x36C1 JUMP JUMPDEST PUSH1 0x40 MLOAD DUP1 SWAP2 SUB SWAP1 REVERT JUMPDEST JUMPDEST DUP3 ISZERO PUSH2 0x2AD4 JUMPI PUSH2 0x2AC9 DUP7 PUSH1 0xA0 SLOAD PUSH2 0x20D1 SWAP1 SWAP2 SWAP1 PUSH4 0xFFFFFFFF AND JUMP JUMPDEST PUSH1 0xA0 DUP2 SWAP1 SSTORE POP PUSH2 0x2AF0 JUMP JUMPDEST PUSH2 0x2AE9 DUP3 PUSH1 0x9E SLOAD PUSH2 0x20D1 SWAP1 SWAP2 SWAP1 PUSH4 0xFFFFFFFF AND JUMP JUMPDEST PUSH1 0x9E DUP2 SWAP1 SSTORE POP JUMPDEST PUSH2 0x2B05 DUP7 PUSH1 0x9A SLOAD PUSH2 0x20D1 SWAP1 SWAP2 SWAP1 PUSH4 0xFFFFFFFF AND JUMP JUMPDEST PUSH1 0x9A DUP2 SWAP1 SSTORE POP PUSH1 0x0 PUSH20 0xFFFFFFFFFFFFFFFFFFFFFFFFFFFFFFFFFFFFFFFF AND DUP8 PUSH20 0xFFFFFFFFFFFFFFFFFFFFFFFFFFFFFFFFFFFFFFFF AND PUSH32 0xDDF252AD1BE2C89B69C2B068FC378DAA952BA7F163C4A11628F55A4DF523B3EF DUP9 PUSH1 0x40 MLOAD PUSH2 0x2B69 SWAP2 SWAP1 PUSH2 0x3761 JUMP JUMPDEST PUSH1 0x40 MLOAD DUP1 SWAP2 SUB SWAP1 LOG3 POP POP POP JUMPDEST PUSH1 0x1 DUP3 SSTORE POP POP POP POP JUMP JUMPDEST PUSH1 0x0 DUP1 PUSH2 0x2B8B DUP4 PUSH2 0x2D60 JUMP JUMPDEST SWAP1 POP DUP1 DUP1 ISZERO PUSH2 0x2C0A JUMPI POP PUSH1 0x0 PUSH1 0x2 DUP2 GT ISZERO PUSH2 0x2BA9 JUMPI PUSH2 0x2BA8 PUSH2 0x3A9C JUMP JUMPDEST JUMPDEST PUSH1 0xA2 PUSH1 0x0 DUP6 PUSH20 0xFFFFFFFFFFFFFFFFFFFFFFFFFFFFFFFFFFFFFFFF AND PUSH20 0xFFFFFFFFFFFFFFFFFFFFFFFFFFFFFFFFFFFFFFFF AND DUP2 MSTORE PUSH1 0x20 ADD SWAP1 DUP2 MSTORE PUSH1 0x20 ADD PUSH1 0x0 KECCAK256 PUSH1 0x0 SWAP1 SLOAD SWAP1 PUSH2 0x100 EXP SWAP1 DIV PUSH1 0xFF AND PUSH1 0x2 DUP2 GT ISZERO PUSH2 0x2C08 JUMPI PUSH2 0x2C07 PUSH2 0x3A9C JUMP JUMPDEST JUMPDEST EQ JUMPDEST ISZERO PUSH2 0x2C19 JUMPI PUSH2 0x2C18 DUP4 PUSH2 0x2D73 JUMP JUMPDEST JUMPDEST PUSH1 0x0 PUSH1 0xA1 PUSH1 0x0 DUP6 PUSH20 0xFFFFFFFFFFFFFFFFFFFFFFFFFFFFFFFFFFFFFFFF AND PUSH20 0xFFFFFFFFFFFFFFFFFFFFFFFFFFFFFFFFFFFFFFFF AND DUP2 MSTORE PUSH1 0x20 ADD SWAP1 DUP2 MSTORE PUSH1 0x20 ADD PUSH1 0x0 KECCAK256 SLOAD GT SWAP2 POP POP SWAP2 SWAP1 POP JUMP JUMPDEST PUSH1 0x0 PUSH32 0x44C4D30B2EAAD5130AD70C3BA6972730566F3E6359AB83E800D905C61B1C51DB PUSH1 0x0 SHL SWAP1 POP DUP2 DUP2 SSTORE POP POP JUMP JUMPDEST PUSH1 0x0 DUP2 DUP4 PUSH2 0x2CA1 SWAP2 SWAP1 PUSH2 0x38D1 JUMP JUMPDEST SWAP1 POP SWAP3 SWAP2 POP POP JUMP JUMPDEST PUSH1 0x0 DUP2 DUP4 PUSH2 0x2CB7 SWAP2 SWAP1 PUSH2 0x38A0 JUMP JUMPDEST SWAP1 POP SWAP3 SWAP2 POP POP JUMP JUMPDEST PUSH1 0x0 PUSH2 0x2CD4 DUP4 DUP4 PUSH8 0xDE0B6B3A7640000 PUSH2 0x2F20 JUMP JUMPDEST SWAP1 POP SWAP3 SWAP2 POP POP JUMP JUMPDEST PUSH1 0x0 DUP4 DUP4 GT ISZERO DUP3 SWAP1 PUSH2 0x2D24 JUMPI PUSH1 0x40 MLOAD PUSH32 0x8C379A000000000000000000000000000000000000000000000000000000000 DUP2 MSTORE PUSH1 0x4 ADD PUSH2 0x2D1B SWAP2 SWAP1 PUSH2 0x353F JUMP JUMPDEST PUSH1 0x40 MLOAD DUP1 SWAP2 SUB SWAP1 REVERT JUMPDEST POP DUP3 DUP5 SUB SWAP1 POP SWAP4 SWAP3 POP POP POP JUMP JUMPDEST PUSH1 0x0 PUSH32 0x7BEA13895FA79D2831E0A9E28EDEDE30099005A50D652D8957CF8A607EE6CA4A PUSH1 0x0 SHL SWAP1 POP DUP2 DUP2 SSTORE POP POP JUMP JUMPDEST PUSH1 0x0 DUP1 DUP3 EXTCODESIZE SWAP1 POP PUSH1 0x0 DUP2 GT SWAP2 POP POP SWAP2 SWAP1 POP JUMP JUMPDEST PUSH1 0x0 PUSH1 0xA1 PUSH1 0x0 DUP4 PUSH20 0xFFFFFFFFFFFFFFFFFFFFFFFFFFFFFFFFFFFFFFFF AND PUSH20 0xFFFFFFFFFFFFFFFFFFFFFFFFFFFFFFFFFFFFFFFF AND DUP2 MSTORE PUSH1 0x20 ADD SWAP1 DUP2 MSTORE PUSH1 0x20 ADD PUSH1 0x0 KECCAK256 SLOAD EQ ISZERO PUSH2 0x2F1D JUMPI PUSH1 0x0 PUSH1 0x9D PUSH1 0x0 DUP4 PUSH20 0xFFFFFFFFFFFFFFFFFFFFFFFFFFFFFFFFFFFFFFFF AND PUSH20 0xFFFFFFFFFFFFFFFFFFFFFFFFFFFFFFFFFFFFFFFF AND DUP2 MSTORE PUSH1 0x20 ADD SWAP1 DUP2 MSTORE PUSH1 0x20 ADD PUSH1 0x0 KECCAK256 SLOAD EQ ISZERO PUSH2 0x2E58 JUMPI PUSH12 0x33B2E3C9FD0803CE8000000 PUSH1 0xA1 PUSH1 0x0 DUP4 PUSH20 0xFFFFFFFFFFFFFFFFFFFFFFFFFFFFFFFFFFFFFFFF AND PUSH20 0xFFFFFFFFFFFFFFFFFFFFFFFFFFFFFFFFFFFFFFFF AND DUP2 MSTORE PUSH1 0x20 ADD SWAP1 DUP2 MSTORE PUSH1 0x20 ADD PUSH1 0x0 KECCAK256 DUP2 SWAP1 SSTORE POP PUSH2 0x2F1C JUMP JUMPDEST PUSH1 0x9F SLOAD PUSH1 0xA1 PUSH1 0x0 DUP4 PUSH20 0xFFFFFFFFFFFFFFFFFFFFFFFFFFFFFFFFFFFFFFFF AND PUSH20 0xFFFFFFFFFFFFFFFFFFFFFFFFFFFFFFFFFFFFFFFF AND DUP2 MSTORE PUSH1 0x20 ADD SWAP1 DUP2 MSTORE PUSH1 0x20 ADD PUSH1 0x0 KECCAK256 DUP2 SWAP1 SSTORE POP PUSH2 0x2EBB PUSH2 0x2EAA DUP3 PUSH2 0x12F0 JUMP JUMPDEST PUSH1 0xA0 SLOAD PUSH2 0x233C SWAP1 SWAP2 SWAP1 PUSH4 0xFFFFFFFF AND JUMP JUMPDEST PUSH1 0xA0 DUP2 SWAP1 SSTORE POP PUSH2 0x2F15 PUSH1 0x9D PUSH1 0x0 DUP4 PUSH20 0xFFFFFFFFFFFFFFFFFFFFFFFFFFFFFFFFFFFFFFFF AND PUSH20 0xFFFFFFFFFFFFFFFFFFFFFFFFFFFFFFFFFFFFFFFF AND DUP2 MSTORE PUSH1 0x20 ADD SWAP1 DUP2 MSTORE PUSH1 0x20 ADD PUSH1 0x0 KECCAK256 SLOAD PUSH1 0x9E SLOAD PUSH2 0x20D1 SWAP1 SWAP2 SWAP1 PUSH4 0xFFFFFFFF AND JUMP JUMPDEST PUSH1 0x9E DUP2 SWAP1 SSTORE POP JUMPDEST JUMPDEST POP JUMP JUMPDEST PUSH1 0x0 DUP1 PUSH2 0x2F36 DUP5 DUP7 PUSH2 0x2C93 SWAP1 SWAP2 SWAP1 PUSH4 0xFFFFFFFF AND JUMP JUMPDEST SWAP1 POP PUSH2 0x2F4B DUP4 DUP3 PUSH2 0x2CA9 SWAP1 SWAP2 SWAP1 PUSH4 0xFFFFFFFF AND JUMP JUMPDEST SWAP2 POP POP SWAP4 SWAP3 POP POP POP JUMP JUMPDEST DUP3 DUP1 SLOAD PUSH2 0x2F61 SWAP1 PUSH2 0x3A0C JUMP JUMPDEST SWAP1 PUSH1 0x0 MSTORE PUSH1 0x20 PUSH1 0x0 KECCAK256 SWAP1 PUSH1 0x1F ADD PUSH1 0x20 SWAP1 DIV DUP2 ADD SWAP3 DUP3 PUSH2 0x2F83 JUMPI PUSH1 0x0 DUP6 SSTORE PUSH2 0x2FCA JUMP JUMPDEST DUP3 PUSH1 0x1F LT PUSH2 0x2F9C JUMPI DUP1 MLOAD PUSH1 0xFF NOT AND DUP4 DUP1 ADD OR DUP6 SSTORE PUSH2 0x2FCA JUMP JUMPDEST DUP3 DUP1 ADD PUSH1 0x1 ADD DUP6 SSTORE DUP3 ISZERO PUSH2 0x2FCA JUMPI SWAP2 DUP3 ADD JUMPDEST DUP3 DUP2 GT ISZERO PUSH2 0x2FC9 JUMPI DUP3 MLOAD DUP3 SSTORE SWAP2 PUSH1 0x20 ADD SWAP2 SWAP1 PUSH1 0x1 ADD SWAP1 PUSH2 0x2FAE JUMP JUMPDEST JUMPDEST POP SWAP1 POP PUSH2 0x2FD7 SWAP2 SWAP1 PUSH2 0x2FDB JUMP JUMPDEST POP SWAP1 JUMP JUMPDEST JUMPDEST DUP1 DUP3 GT ISZERO PUSH2 0x2FF4 JUMPI PUSH1 0x0 DUP2 PUSH1 0x0 SWAP1 SSTORE POP PUSH1 0x1 ADD PUSH2 0x2FDC JUMP JUMPDEST POP SWAP1 JUMP JUMPDEST PUSH1 0x0 DUP2 CALLDATALOAD SWAP1 POP PUSH2 0x3007 DUP2 PUSH2 0x3E14 JUMP JUMPDEST SWAP3 SWAP2 POP POP JUMP JUMPDEST PUSH1 0x0 DUP1 DUP4 PUSH1 0x1F DUP5 ADD SLT PUSH2 0x3023 JUMPI PUSH2 0x3022 PUSH2 0x3AFF JUMP JUMPDEST JUMPDEST DUP3 CALLDATALOAD SWAP1 POP PUSH8 0xFFFFFFFFFFFFFFFF DUP2 GT ISZERO PUSH2 0x3040 JUMPI PUSH2 0x303F PUSH2 0x3AFA JUMP JUMPDEST JUMPDEST PUSH1 0x20 DUP4 ADD SWAP2 POP DUP4 PUSH1 0x1 DUP3 MUL DUP4 ADD GT ISZERO PUSH2 0x305C JUMPI PUSH2 0x305B PUSH2 0x3B04 JUMP JUMPDEST JUMPDEST SWAP3 POP SWAP3 SWAP1 POP JUMP JUMPDEST PUSH1 0x0 DUP2 CALLDATALOAD SWAP1 POP PUSH2 0x3072 DUP2 PUSH2 0x3E2B JUMP JUMPDEST SWAP3 SWAP2 POP POP JUMP JUMPDEST PUSH1 0x0 PUSH1 0x20 DUP3 DUP5 SUB SLT ISZERO PUSH2 0x308E JUMPI PUSH2 0x308D PUSH2 0x3B0E JUMP JUMPDEST JUMPDEST PUSH1 0x0 PUSH2 0x309C DUP5 DUP3 DUP6 ADD PUSH2 0x2FF8 JUMP JUMPDEST SWAP2 POP POP SWAP3 SWAP2 POP POP JUMP JUMPDEST PUSH1 0x0 DUP1 PUSH1 0x40 DUP4 DUP6 SUB SLT ISZERO PUSH2 0x30BC JUMPI PUSH2 0x30BB PUSH2 0x3B0E JUMP JUMPDEST JUMPDEST PUSH1 0x0 PUSH2 0x30CA DUP6 DUP3 DUP7 ADD PUSH2 0x2FF8 JUMP JUMPDEST SWAP3 POP POP PUSH1 0x20 PUSH2 0x30DB DUP6 DUP3 DUP7 ADD PUSH2 0x2FF8 JUMP JUMPDEST SWAP2 POP POP SWAP3 POP SWAP3 SWAP1 POP JUMP JUMPDEST PUSH1 0x0 DUP1 PUSH1 0x0 PUSH1 0x60 DUP5 DUP7 SUB SLT ISZERO PUSH2 0x30FE JUMPI PUSH2 0x30FD PUSH2 0x3B0E JUMP JUMPDEST JUMPDEST PUSH1 0x0 PUSH2 0x310C DUP7 DUP3 DUP8 ADD PUSH2 0x2FF8 JUMP JUMPDEST SWAP4 POP POP PUSH1 0x20 PUSH2 0x311D DUP7 DUP3 DUP8 ADD PUSH2 0x2FF8 JUMP JUMPDEST SWAP3 POP POP PUSH1 0x40 PUSH2 0x312E DUP7 DUP3 DUP8 ADD PUSH2 0x3063 JUMP JUMPDEST SWAP2 POP POP SWAP3 POP SWAP3 POP SWAP3 JUMP JUMPDEST PUSH1 0x0 DUP1 PUSH1 0x40 DUP4 DUP6 SUB SLT ISZERO PUSH2 0x314F JUMPI PUSH2 0x314E PUSH2 0x3B0E JUMP JUMPDEST JUMPDEST PUSH1 0x0 PUSH2 0x315D DUP6 DUP3 DUP7 ADD PUSH2 0x2FF8 JUMP JUMPDEST SWAP3 POP POP PUSH1 0x20 PUSH2 0x316E DUP6 DUP3 DUP7 ADD PUSH2 0x3063 JUMP JUMPDEST SWAP2 POP POP SWAP3 POP SWAP3 SWAP1 POP JUMP JUMPDEST PUSH1 0x0 DUP1 PUSH1 0x0 DUP1 PUSH1 0x0 PUSH1 0x60 DUP7 DUP9 SUB SLT ISZERO PUSH2 0x3194 JUMPI PUSH2 0x3193 PUSH2 0x3B0E JUMP JUMPDEST JUMPDEST PUSH1 0x0 DUP7 ADD CALLDATALOAD PUSH8 0xFFFFFFFFFFFFFFFF DUP2 GT ISZERO PUSH2 0x31B2 JUMPI PUSH2 0x31B1 PUSH2 0x3B09 JUMP JUMPDEST JUMPDEST PUSH2 0x31BE DUP9 DUP3 DUP10 ADD PUSH2 0x300D JUMP JUMPDEST SWAP6 POP SWAP6 POP POP PUSH1 0x20 DUP7 ADD CALLDATALOAD PUSH8 0xFFFFFFFFFFFFFFFF DUP2 GT ISZERO PUSH2 0x31E1 JUMPI PUSH2 0x31E0 PUSH2 0x3B09 JUMP JUMPDEST JUMPDEST PUSH2 0x31ED DUP9 DUP3 DUP10 ADD PUSH2 0x300D JUMP JUMPDEST SWAP4 POP SWAP4 POP POP PUSH1 0x40 PUSH2 0x3200 DUP9 DUP3 DUP10 ADD PUSH2 0x2FF8 JUMP JUMPDEST SWAP2 POP POP SWAP3 SWAP6 POP SWAP3 SWAP6 SWAP1 SWAP4 POP JUMP JUMPDEST PUSH1 0x0 PUSH1 0x20 DUP3 DUP5 SUB SLT ISZERO PUSH2 0x3223 JUMPI PUSH2 0x3222 PUSH2 0x3B0E JUMP JUMPDEST JUMPDEST PUSH1 0x0 PUSH2 0x3231 DUP5 DUP3 DUP6 ADD PUSH2 0x3063 JUMP JUMPDEST SWAP2 POP POP SWAP3 SWAP2 POP POP JUMP JUMPDEST PUSH2 0x3243 DUP2 PUSH2 0x395F JUMP JUMPDEST DUP3 MSTORE POP POP JUMP JUMPDEST PUSH2 0x3252 DUP2 PUSH2 0x3971 JUMP JUMPDEST DUP3 MSTORE POP POP JUMP JUMPDEST PUSH2 0x3261 DUP2 PUSH2 0x39C7 JUMP JUMPDEST DUP3 MSTORE POP POP JUMP JUMPDEST PUSH1 0x0 PUSH2 0x3272 DUP3 PUSH2 0x382E JUMP JUMPDEST PUSH2 0x327C DUP2 DUP6 PUSH2 0x3839 JUMP JUMPDEST SWAP4 POP PUSH2 0x328C DUP2 DUP6 PUSH1 0x20 DUP7 ADD PUSH2 0x39D9 JUMP JUMPDEST PUSH2 0x3295 DUP2 PUSH2 0x3B13 JUMP JUMPDEST DUP5 ADD SWAP2 POP POP SWAP3 SWAP2 POP POP JUMP JUMPDEST PUSH1 0x0 PUSH2 0x32AD PUSH1 0x17 DUP4 PUSH2 0x3839 JUMP JUMPDEST SWAP2 POP PUSH2 0x32B8 DUP3 PUSH2 0x3B24 JUMP JUMPDEST PUSH1 0x20 DUP3 ADD SWAP1 POP SWAP2 SWAP1 POP JUMP JUMPDEST PUSH1 0x0 PUSH2 0x32D0 PUSH1 0x18 DUP4 PUSH2 0x3839 JUMP JUMPDEST SWAP2 POP PUSH2 0x32DB DUP3 PUSH2 0x3B4D JUMP JUMPDEST PUSH1 0x20 DUP3 ADD SWAP1 POP SWAP2 SWAP1 POP JUMP JUMPDEST PUSH1 0x0 PUSH2 0x32F3 PUSH1 0x19 DUP4 PUSH2 0x3839 JUMP JUMPDEST SWAP2 POP PUSH2 0x32FE DUP3 PUSH2 0x3B76 JUMP JUMPDEST PUSH1 0x20 DUP3 ADD SWAP1 POP SWAP2 SWAP1 POP JUMP JUMPDEST PUSH1 0x0 PUSH2 0x3316 PUSH1 0x1D DUP4 PUSH2 0x3839 JUMP JUMPDEST SWAP2 POP PUSH2 0x3321 DUP3 PUSH2 0x3B9F JUMP JUMPDEST PUSH1 0x20 DUP3 ADD SWAP1 POP SWAP2 SWAP1 POP JUMP JUMPDEST PUSH1 0x0 PUSH2 0x3339 PUSH1 0x1A DUP4 PUSH2 0x3839 JUMP JUMPDEST SWAP2 POP PUSH2 0x3344 DUP3 PUSH2 0x3BC8 JUMP JUMPDEST PUSH1 0x20 DUP3 ADD SWAP1 POP SWAP2 SWAP1 POP JUMP JUMPDEST PUSH1 0x0 PUSH2 0x335C PUSH1 0xA DUP4 PUSH2 0x3839 JUMP JUMPDEST SWAP2 POP PUSH2 0x3367 DUP3 PUSH2 0x3BF1 JUMP JUMPDEST PUSH1 0x20 DUP3 ADD SWAP1 POP SWAP2 SWAP1 POP JUMP JUMPDEST PUSH1 0x0 PUSH2 0x337F PUSH1 0x1A DUP4 PUSH2 0x3839 JUMP JUMPDEST SWAP2 POP PUSH2 0x338A DUP3 PUSH2 0x3C1A JUMP JUMPDEST PUSH1 0x20 DUP3 ADD SWAP1 POP SWAP2 SWAP1 POP JUMP JUMPDEST PUSH1 0x0 PUSH2 0x33A2 PUSH1 0x1A DUP4 PUSH2 0x3839 JUMP JUMPDEST SWAP2 POP PUSH2 0x33AD DUP3 PUSH2 0x3C43 JUMP JUMPDEST PUSH1 0x20 DUP3 ADD SWAP1 POP SWAP2 SWAP1 POP JUMP JUMPDEST PUSH1 0x0 PUSH2 0x33C5 PUSH1 0x2E DUP4 PUSH2 0x3839 JUMP JUMPDEST SWAP2 POP PUSH2 0x33D0 DUP3 PUSH2 0x3C6C JUMP JUMPDEST PUSH1 0x40 DUP3 ADD SWAP1 POP SWAP2 SWAP1 POP JUMP JUMPDEST PUSH1 0x0 PUSH2 0x33E8 PUSH1 0x18 DUP4 PUSH2 0x3839 JUMP JUMPDEST SWAP2 POP PUSH2 0x33F3 DUP3 PUSH2 0x3CBB JUMP JUMPDEST PUSH1 0x20 DUP3 ADD SWAP1 POP SWAP2 SWAP1 POP JUMP JUMPDEST PUSH1 0x0 PUSH2 0x340B PUSH1 0xE DUP4 PUSH2 0x3839 JUMP JUMPDEST SWAP2 POP PUSH2 0x3416 DUP3 PUSH2 0x3CE4 JUMP JUMPDEST PUSH1 0x20 DUP3 ADD SWAP1 POP SWAP2 SWAP1 POP JUMP JUMPDEST PUSH1 0x0 PUSH2 0x342E PUSH1 0x16 DUP4 PUSH2 0x3839 JUMP JUMPDEST SWAP2 POP PUSH2 0x3439 DUP3 PUSH2 0x3D0D JUMP JUMPDEST PUSH1 0x20 DUP3 ADD SWAP1 POP SWAP2 SWAP1 POP JUMP JUMPDEST PUSH1 0x0 PUSH2 0x3451 PUSH1 0x18 DUP4 PUSH2 0x3839 JUMP JUMPDEST SWAP2 POP PUSH2 0x345C DUP3 PUSH2 0x3D36 JUMP JUMPDEST PUSH1 0x20 DUP3 ADD SWAP1 POP SWAP2 SWAP1 POP JUMP JUMPDEST PUSH1 0x0 PUSH2 0x3474 PUSH1 0x18 DUP4 PUSH2 0x3839 JUMP JUMPDEST SWAP2 POP PUSH2 0x347F DUP3 PUSH2 0x3D5F JUMP JUMPDEST PUSH1 0x20 DUP3 ADD SWAP1 POP SWAP2 SWAP1 POP JUMP JUMPDEST PUSH1 0x0 PUSH2 0x3497 PUSH1 0x30 DUP4 PUSH2 0x3839 JUMP JUMPDEST SWAP2 POP PUSH2 0x34A2 DUP3 PUSH2 0x3D88 JUMP JUMPDEST PUSH1 0x40 DUP3 ADD SWAP1 POP SWAP2 SWAP1 POP JUMP JUMPDEST PUSH1 0x0 PUSH2 0x34BA PUSH1 0x18 DUP4 PUSH2 0x3839 JUMP JUMPDEST SWAP2 POP PUSH2 0x34C5 DUP3 PUSH2 0x3DD7 JUMP JUMPDEST PUSH1 0x20 DUP3 ADD SWAP1 POP SWAP2 SWAP1 POP JUMP JUMPDEST PUSH2 0x34D9 DUP2 PUSH2 0x39B0 JUMP JUMPDEST DUP3 MSTORE POP POP JUMP JUMPDEST PUSH2 0x34E8 DUP2 PUSH2 0x39BA JUMP JUMPDEST DUP3 MSTORE POP POP JUMP JUMPDEST PUSH1 0x0 PUSH1 0x20 DUP3 ADD SWAP1 POP PUSH2 0x3503 PUSH1 0x0 DUP4 ADD DUP5 PUSH2 0x323A JUMP JUMPDEST SWAP3 SWAP2 POP POP JUMP JUMPDEST PUSH1 0x0 PUSH1 0x20 DUP3 ADD SWAP1 POP PUSH2 0x351E PUSH1 0x0 DUP4 ADD DUP5 PUSH2 0x3249 JUMP JUMPDEST SWAP3 SWAP2 POP POP JUMP JUMPDEST PUSH1 0x0 PUSH1 0x20 DUP3 ADD SWAP1 POP PUSH2 0x3539 PUSH1 0x0 DUP4 ADD DUP5 PUSH2 0x3258 JUMP JUMPDEST SWAP3 SWAP2 POP POP JUMP JUMPDEST PUSH1 0x0 PUSH1 0x20 DUP3 ADD SWAP1 POP DUP2 DUP2 SUB PUSH1 0x0 DUP4 ADD MSTORE PUSH2 0x3559 DUP2 DUP5 PUSH2 0x3267 JUMP JUMPDEST SWAP1 POP SWAP3 SWAP2 POP POP JUMP JUMPDEST PUSH1 0x0 PUSH1 0x20 DUP3 ADD SWAP1 POP DUP2 DUP2 SUB PUSH1 0x0 DUP4 ADD MSTORE PUSH2 0x357A DUP2 PUSH2 0x32A0 JUMP JUMPDEST SWAP1 POP SWAP2 SWAP1 POP JUMP JUMPDEST PUSH1 0x0 PUSH1 0x20 DUP3 ADD SWAP1 POP DUP2 DUP2 SUB PUSH1 0x0 DUP4 ADD MSTORE PUSH2 0x359A DUP2 PUSH2 0x32C3 JUMP JUMPDEST SWAP1 POP SWAP2 SWAP1 POP JUMP JUMPDEST PUSH1 0x0 PUSH1 0x20 DUP3 ADD SWAP1 POP DUP2 DUP2 SUB PUSH1 0x0 DUP4 ADD MSTORE PUSH2 0x35BA DUP2 PUSH2 0x32E6 JUMP JUMPDEST SWAP1 POP SWAP2 SWAP1 POP JUMP JUMPDEST PUSH1 0x0 PUSH1 0x20 DUP3 ADD SWAP1 POP DUP2 DUP2 SUB PUSH1 0x0 DUP4 ADD MSTORE PUSH2 0x35DA DUP2 PUSH2 0x3309 JUMP JUMPDEST SWAP1 POP SWAP2 SWAP1 POP JUMP JUMPDEST PUSH1 0x0 PUSH1 0x20 DUP3 ADD SWAP1 POP DUP2 DUP2 SUB PUSH1 0x0 DUP4 ADD MSTORE PUSH2 0x35FA DUP2 PUSH2 0x332C JUMP JUMPDEST SWAP1 POP SWAP2 SWAP1 POP JUMP JUMPDEST PUSH1 0x0 PUSH1 0x20 DUP3 ADD SWAP1 POP DUP2 DUP2 SUB PUSH1 0x0 DUP4 ADD MSTORE PUSH2 0x361A DUP2 PUSH2 0x334F JUMP JUMPDEST SWAP1 POP SWAP2 SWAP1 POP JUMP JUMPDEST PUSH1 0x0 PUSH1 0x20 DUP3 ADD SWAP1 POP DUP2 DUP2 SUB PUSH1 0x0 DUP4 ADD MSTORE PUSH2 0x363A DUP2 PUSH2 0x3372 JUMP JUMPDEST SWAP1 POP SWAP2 SWAP1 POP JUMP JUMPDEST PUSH1 0x0 PUSH1 0x20 DUP3 ADD SWAP1 POP DUP2 DUP2 SUB PUSH1 0x0 DUP4 ADD MSTORE PUSH2 0x365A DUP2 PUSH2 0x3395 JUMP JUMPDEST SWAP1 POP SWAP2 SWAP1 POP JUMP JUMPDEST PUSH1 0x0 PUSH1 0x20 DUP3 ADD SWAP1 POP DUP2 DUP2 SUB PUSH1 0x0 DUP4 ADD MSTORE PUSH2 0x367A DUP2 PUSH2 0x33B8 JUMP JUMPDEST SWAP1 POP SWAP2 SWAP1 POP JUMP JUMPDEST PUSH1 0x0 PUSH1 0x20 DUP3 ADD SWAP1 POP DUP2 DUP2 SUB PUSH1 0x0 DUP4 ADD MSTORE PUSH2 0x369A DUP2 PUSH2 0x33DB JUMP JUMPDEST SWAP1 POP SWAP2 SWAP1 POP JUMP JUMPDEST PUSH1 0x0 PUSH1 0x20 DUP3 ADD SWAP1 POP DUP2 DUP2 SUB PUSH1 0x0 DUP4 ADD MSTORE PUSH2 0x36BA DUP2 PUSH2 0x33FE JUMP JUMPDEST SWAP1 POP SWAP2 SWAP1 POP JUMP JUMPDEST PUSH1 0x0 PUSH1 0x20 DUP3 ADD SWAP1 POP DUP2 DUP2 SUB PUSH1 0x0 DUP4 ADD MSTORE PUSH2 0x36DA DUP2 PUSH2 0x3421 JUMP JUMPDEST SWAP1 POP SWAP2 SWAP1 POP JUMP JUMPDEST PUSH1 0x0 PUSH1 0x20 DUP3 ADD SWAP1 POP DUP2 DUP2 SUB PUSH1 0x0 DUP4 ADD MSTORE PUSH2 0x36FA DUP2 PUSH2 0x3444 JUMP JUMPDEST SWAP1 POP SWAP2 SWAP1 POP JUMP JUMPDEST PUSH1 0x0 PUSH1 0x20 DUP3 ADD SWAP1 POP DUP2 DUP2 SUB PUSH1 0x0 DUP4 ADD MSTORE PUSH2 0x371A DUP2 PUSH2 0x3467 JUMP JUMPDEST SWAP1 POP SWAP2 SWAP1 POP JUMP JUMPDEST PUSH1 0x0 PUSH1 0x20 DUP3 ADD SWAP1 POP DUP2 DUP2 SUB PUSH1 0x0 DUP4 ADD MSTORE PUSH2 0x373A DUP2 PUSH2 0x348A JUMP JUMPDEST SWAP1 POP SWAP2 SWAP1 POP JUMP JUMPDEST PUSH1 0x0 PUSH1 0x20 DUP3 ADD SWAP1 POP DUP2 DUP2 SUB PUSH1 0x0 DUP4 ADD MSTORE PUSH2 0x375A DUP2 PUSH2 0x34AD JUMP JUMPDEST SWAP1 POP SWAP2 SWAP1 POP JUMP JUMPDEST PUSH1 0x0 PUSH1 0x20 DUP3 ADD SWAP1 POP PUSH2 0x3776 PUSH1 0x0 DUP4 ADD DUP5 PUSH2 0x34D0 JUMP JUMPDEST SWAP3 SWAP2 POP POP JUMP JUMPDEST PUSH1 0x0 PUSH1 0x40 DUP3 ADD SWAP1 POP PUSH2 0x3791 PUSH1 0x0 DUP4 ADD DUP6 PUSH2 0x34D0 JUMP JUMPDEST PUSH2 0x379E PUSH1 0x20 DUP4 ADD DUP5 PUSH2 0x34D0 JUMP JUMPDEST SWAP4 SWAP3 POP POP POP JUMP JUMPDEST PUSH1 0x0 PUSH1 0x60 DUP3 ADD SWAP1 POP PUSH2 0x37BA PUSH1 0x0 DUP4 ADD DUP7 PUSH2 0x34D0 JUMP JUMPDEST PUSH2 0x37C7 PUSH1 0x20 DUP4 ADD DUP6 PUSH2 0x34D0 JUMP JUMPDEST PUSH2 0x37D4 PUSH1 0x40 DUP4 ADD DUP5 PUSH2 0x3249 JUMP JUMPDEST SWAP5 SWAP4 POP POP POP POP JUMP JUMPDEST PUSH1 0x0 PUSH1 0x60 DUP3 ADD SWAP1 POP PUSH2 0x37F1 PUSH1 0x0 DUP4 ADD DUP7 PUSH2 0x34D0 JUMP JUMPDEST PUSH2 0x37FE PUSH1 0x20 DUP4 ADD DUP6 PUSH2 0x34D0 JUMP JUMPDEST PUSH2 0x380B PUSH1 0x40 DUP4 ADD DUP5 PUSH2 0x34D0 JUMP JUMPDEST SWAP5 SWAP4 POP POP POP POP JUMP JUMPDEST PUSH1 0x0 PUSH1 0x20 DUP3 ADD SWAP1 POP PUSH2 0x3828 PUSH1 0x0 DUP4 ADD DUP5 PUSH2 0x34DF JUMP JUMPDEST SWAP3 SWAP2 POP POP JUMP JUMPDEST PUSH1 0x0 DUP2 MLOAD SWAP1 POP SWAP2 SWAP1 POP JUMP JUMPDEST PUSH1 0x0 DUP3 DUP3 MSTORE PUSH1 0x20 DUP3 ADD SWAP1 POP SWAP3 SWAP2 POP POP JUMP JUMPDEST PUSH1 0x0 PUSH2 0x3855 DUP3 PUSH2 0x39B0 JUMP JUMPDEST SWAP2 POP PUSH2 0x3860 DUP4 PUSH2 0x39B0 JUMP JUMPDEST SWAP3 POP DUP3 PUSH32 0xFFFFFFFFFFFFFFFFFFFFFFFFFFFFFFFFFFFFFFFFFFFFFFFFFFFFFFFFFFFFFFFF SUB DUP3 GT ISZERO PUSH2 0x3895 JUMPI PUSH2 0x3894 PUSH2 0x3A3E JUMP JUMPDEST JUMPDEST DUP3 DUP3 ADD SWAP1 POP SWAP3 SWAP2 POP POP JUMP JUMPDEST PUSH1 0x0 PUSH2 0x38AB DUP3 PUSH2 0x39B0 JUMP JUMPDEST SWAP2 POP PUSH2 0x38B6 DUP4 PUSH2 0x39B0 JUMP JUMPDEST SWAP3 POP DUP3 PUSH2 0x38C6 JUMPI PUSH2 0x38C5 PUSH2 0x3A6D JUMP JUMPDEST JUMPDEST DUP3 DUP3 DIV SWAP1 POP SWAP3 SWAP2 POP POP JUMP JUMPDEST PUSH1 0x0 PUSH2 0x38DC DUP3 PUSH2 0x39B0 JUMP JUMPDEST SWAP2 POP PUSH2 0x38E7 DUP4 PUSH2 0x39B0 JUMP JUMPDEST SWAP3 POP DUP2 PUSH32 0xFFFFFFFFFFFFFFFFFFFFFFFFFFFFFFFFFFFFFFFFFFFFFFFFFFFFFFFFFFFFFFFF DIV DUP4 GT DUP3 ISZERO ISZERO AND ISZERO PUSH2 0x3920 JUMPI PUSH2 0x391F PUSH2 0x3A3E JUMP JUMPDEST JUMPDEST DUP3 DUP3 MUL SWAP1 POP SWAP3 SWAP2 POP POP JUMP JUMPDEST PUSH1 0x0 PUSH2 0x3936 DUP3 PUSH2 0x39B0 JUMP JUMPDEST SWAP2 POP PUSH2 0x3941 DUP4 PUSH2 0x39B0 JUMP JUMPDEST SWAP3 POP DUP3 DUP3 LT ISZERO PUSH2 0x3954 JUMPI PUSH2 0x3953 PUSH2 0x3A3E JUMP JUMPDEST JUMPDEST DUP3 DUP3 SUB SWAP1 POP SWAP3 SWAP2 POP POP JUMP JUMPDEST PUSH1 0x0 PUSH2 0x396A DUP3 PUSH2 0x3990 JUMP JUMPDEST SWAP1 POP SWAP2 SWAP1 POP JUMP JUMPDEST PUSH1 0x0 DUP2 ISZERO ISZERO SWAP1 POP SWAP2 SWAP1 POP JUMP JUMPDEST PUSH1 0x0 DUP2 SWAP1 POP PUSH2 0x398B DUP3 PUSH2 0x3E00 JUMP JUMPDEST SWAP2 SWAP1 POP JUMP JUMPDEST PUSH1 0x0 PUSH20 0xFFFFFFFFFFFFFFFFFFFFFFFFFFFFFFFFFFFFFFFF DUP3 AND SWAP1 POP SWAP2 SWAP1 POP JUMP JUMPDEST PUSH1 0x0 DUP2 SWAP1 POP SWAP2 SWAP1 POP JUMP JUMPDEST PUSH1 0x0 PUSH1 0xFF DUP3 AND SWAP1 POP SWAP2 SWAP1 POP JUMP JUMPDEST PUSH1 0x0 PUSH2 0x39D2 DUP3 PUSH2 0x397D JUMP JUMPDEST SWAP1 POP SWAP2 SWAP1 POP JUMP JUMPDEST PUSH1 0x0 JUMPDEST DUP4 DUP2 LT ISZERO PUSH2 0x39F7 JUMPI DUP1 DUP3 ADD MLOAD DUP2 DUP5 ADD MSTORE PUSH1 0x20 DUP2 ADD SWAP1 POP PUSH2 0x39DC JUMP JUMPDEST DUP4 DUP2 GT ISZERO PUSH2 0x3A06 JUMPI PUSH1 0x0 DUP5 DUP5 ADD MSTORE JUMPDEST POP POP POP POP JUMP JUMPDEST PUSH1 0x0 PUSH1 0x2 DUP3 DIV SWAP1 POP PUSH1 0x1 DUP3 AND DUP1 PUSH2 0x3A24 JUMPI PUSH1 0x7F DUP3 AND SWAP2 POP JUMPDEST PUSH1 0x20 DUP3 LT DUP2 EQ ISZERO PUSH2 0x3A38 JUMPI PUSH2 0x3A37 PUSH2 0x3ACB JUMP JUMPDEST JUMPDEST POP SWAP2 SWAP1 POP JUMP JUMPDEST PUSH32 0x4E487B7100000000000000000000000000000000000000000000000000000000 PUSH1 0x0 MSTORE PUSH1 0x11 PUSH1 0x4 MSTORE PUSH1 0x24 PUSH1 0x0 REVERT JUMPDEST PUSH32 0x4E487B7100000000000000000000000000000000000000000000000000000000 PUSH1 0x0 MSTORE PUSH1 0x12 PUSH1 0x4 MSTORE PUSH1 0x24 PUSH1 0x0 REVERT JUMPDEST PUSH32 0x4E487B7100000000000000000000000000000000000000000000000000000000 PUSH1 0x0 MSTORE PUSH1 0x21 PUSH1 0x4 MSTORE PUSH1 0x24 PUSH1 0x0 REVERT JUMPDEST PUSH32 0x4E487B7100000000000000000000000000000000000000000000000000000000 PUSH1 0x0 MSTORE PUSH1 0x22 PUSH1 0x4 MSTORE PUSH1 0x24 PUSH1 0x0 REVERT JUMPDEST PUSH1 0x0 DUP1 REVERT JUMPDEST PUSH1 0x0 DUP1 REVERT JUMPDEST PUSH1 0x0 DUP1 REVERT JUMPDEST PUSH1 0x0 DUP1 REVERT JUMPDEST PUSH1 0x0 DUP1 REVERT JUMPDEST PUSH1 0x0 PUSH1 0x1F NOT PUSH1 0x1F DUP4 ADD AND SWAP1 POP SWAP2 SWAP1 POP JUMP JUMPDEST PUSH32 0x43616C6C6572206973206E6F7420746865205661756C74000000000000000000 PUSH1 0x0 DUP3 ADD MSTORE POP JUMP JUMPDEST PUSH32 0x496E76616C6964206368616E676520696E20737570706C790000000000000000 PUSH1 0x0 DUP3 ADD MSTORE POP JUMP JUMPDEST PUSH32 0x4163636F756E7420686173206E6F74206F70746564206F757400000000000000 PUSH1 0x0 DUP3 ADD MSTORE POP JUMP JUMPDEST PUSH32 0x5472616E736665722067726561746572207468616E2062616C616E6365000000 PUSH1 0x0 DUP3 ADD MSTORE POP JUMP JUMPDEST PUSH32 0x43616C6C6572206973206E6F742074686520476F7665726E6F72000000000000 PUSH1 0x0 DUP3 ADD MSTORE POP JUMP JUMPDEST PUSH32 0x4D617820737570706C7900000000000000000000000000000000000000000000 PUSH1 0x0 DUP3 ADD MSTORE POP JUMP JUMPDEST PUSH32 0x4275726E2066726F6D20746865207A65726F2061646472657373000000000000 PUSH1 0x0 DUP3 ADD MSTORE POP JUMP JUMPDEST PUSH32 0x4E657720476F7665726E6F722069732061646472657373283029000000000000 PUSH1 0x0 DUP3 ADD MSTORE POP JUMP JUMPDEST PUSH32 0x496E697469616C697A61626C653A20636F6E747261637420697320616C726561 PUSH1 0x0 DUP3 ADD MSTORE PUSH32 0x647920696E697469616C697A6564000000000000000000000000000000000000 PUSH1 0x20 DUP3 ADD MSTORE POP JUMP JUMPDEST PUSH32 0x4163636F756E7420686173206E6F74206F7074656420696E0000000000000000 PUSH1 0x0 DUP3 ADD MSTORE POP JUMP JUMPDEST PUSH32 0x5265656E7472616E742063616C6C000000000000000000000000000000000000 PUSH1 0x0 DUP3 ADD MSTORE POP JUMP JUMPDEST PUSH32 0x52656D6F766520657863656564732062616C616E636500000000000000000000 PUSH1 0x0 DUP3 ADD MSTORE POP JUMP JUMPDEST PUSH32 0x4D696E7420746F20746865207A65726F20616464726573730000000000000000 PUSH1 0x0 DUP3 ADD MSTORE POP JUMP JUMPDEST PUSH32 0x5472616E7366657220746F207A65726F20616464726573730000000000000000 PUSH1 0x0 DUP3 ADD MSTORE POP JUMP JUMPDEST PUSH32 0x4F6E6C79207468652070656E64696E6720476F7665726E6F722063616E20636F PUSH1 0x0 DUP3 ADD MSTORE PUSH32 0x6D706C6574652074686520636C61696D00000000000000000000000000000000 PUSH1 0x20 DUP3 ADD MSTORE POP JUMP JUMPDEST PUSH32 0x43616E6E6F7420696E637265617365203020737570706C790000000000000000 PUSH1 0x0 DUP3 ADD MSTORE POP JUMP JUMPDEST PUSH1 0x3 DUP2 LT PUSH2 0x3E11 JUMPI PUSH2 0x3E10 PUSH2 0x3A9C JUMP JUMPDEST JUMPDEST POP JUMP JUMPDEST PUSH2 0x3E1D DUP2 PUSH2 0x395F JUMP JUMPDEST DUP2 EQ PUSH2 0x3E28 JUMPI PUSH1 0x0 DUP1 REVERT JUMPDEST POP JUMP JUMPDEST PUSH2 0x3E34 DUP2 PUSH2 0x39B0 JUMP JUMPDEST DUP2 EQ PUSH2 0x3E3F JUMPI PUSH1 0x0 DUP1 REVERT JUMPDEST POP JUMP INVALID LOG2 PUSH5 0x6970667358 0x22 SLT KECCAK256 NOT 0xC 0x5D PUSH1 0x2 SGT 0xA7 0xE5 GT BALANCE 0x28 LOG1 0x25 0xD5 DUP13 0x5F 0x2C 0x4E PUSH9 0x70A4A7AE02A0D251B0 0xEA 0xC CREATE2 DUP3 PUSH5 0x736F6C6343 STOP ADDMOD SMOD STOP CALLER "
				},
				"gasEstimates": {
					"creation": {
						"codeDepositCost": "3198400",
						"executionCost": "infinite",
						"totalCost": "infinite"
					},
					"external": {
						"_totalSupply()": "2519",
						"allowance(address,address)": "infinite",
						"approve(address,uint256)": "infinite",
						"balanceOf(address)": "infinite",
						"burn(address,uint256)": "infinite",
						"changeSupply(uint256)": "infinite",
						"claimGovernance()": "28340",
						"creditsBalanceOf(address)": "infinite",
						"creditsBalanceOfHighres(address)": "infinite",
						"decimals()": "2591",
						"decreaseAllowance(address,uint256)": "infinite",
						"governor()": "2586",
						"increaseAllowance(address,uint256)": "infinite",
						"initialize(string,string,address)": "infinite",
						"isGovernor()": "2603",
						"isUpgraded(address)": "2881",
						"mint(address,uint256)": "infinite",
						"name()": "infinite",
						"nonRebasingCreditsPerToken(address)": "2925",
						"nonRebasingSupply()": "2517",
						"rebaseOptIn()": "infinite",
						"rebaseOptOut()": "infinite",
						"rebaseState(address)": "3001",
						"rebasingCredits()": "infinite",
						"rebasingCreditsHighres()": "2549",
						"rebasingCreditsPerToken()": "infinite",
						"rebasingCreditsPerTokenHighres()": "2527",
						"symbol()": "infinite",
						"totalSupply()": "2505",
						"transfer(address,uint256)": "infinite",
						"transferFrom(address,address,uint256)": "infinite",
						"transferGovernance(address)": "infinite",
						"vaultAddress()": "2559"
					},
					"internal": {
						"_burn(address,uint256)": "infinite",
						"_creditsPerToken(address)": "4448",
						"_ensureRebasingMigration(address)": "infinite",
						"_executeTransfer(address,address,uint256)": "infinite",
						"_isNonRebasingAccount(address)": "infinite",
						"_mint(address,uint256)": "infinite"
					}
				},
				"methodIdentifiers": {
					"_totalSupply()": "3eaaf86b",
					"allowance(address,address)": "dd62ed3e",
					"approve(address,uint256)": "095ea7b3",
					"balanceOf(address)": "70a08231",
					"burn(address,uint256)": "9dc29fac",
					"changeSupply(uint256)": "39a7919f",
					"claimGovernance()": "5d36b190",
					"creditsBalanceOf(address)": "f9854bfc",
					"creditsBalanceOfHighres(address)": "e5c4fffe",
					"decimals()": "313ce567",
					"decreaseAllowance(address,uint256)": "a457c2d7",
					"governor()": "0c340a24",
					"increaseAllowance(address,uint256)": "39509351",
					"initialize(string,string,address)": "077f224a",
					"isGovernor()": "c7af3352",
					"isUpgraded(address)": "95ef84b9",
					"mint(address,uint256)": "40c10f19",
					"name()": "06fdde03",
					"nonRebasingCreditsPerToken(address)": "609350cd",
					"nonRebasingSupply()": "e696393a",
					"rebaseOptIn()": "f51b0fd4",
					"rebaseOptOut()": "c2376dff",
					"rebaseState(address)": "456ee286",
					"rebasingCredits()": "077f22b7",
					"rebasingCreditsHighres()": "7d0d66ff",
					"rebasingCreditsPerToken()": "6691cb3d",
					"rebasingCreditsPerTokenHighres()": "7a46a9c5",
					"symbol()": "95d89b41",
					"totalSupply()": "18160ddd",
					"transfer(address,uint256)": "a9059cbb",
					"transferFrom(address,address,uint256)": "23b872dd",
					"transferGovernance(address)": "d38bfff4",
					"vaultAddress()": "430bf08a"
				}
			},
			"storageLayout": {
				"storage": [
					{
						"astId": 2093,
						"contract": "contracts/token/OUSD.sol:OUSD",
						"label": "initialized",
						"offset": 0,
						"slot": "0",
						"type": "t_bool"
					},
					{
						"astId": 2096,
						"contract": "contracts/token/OUSD.sol:OUSD",
						"label": "initializing",
						"offset": 1,
						"slot": "0",
						"type": "t_bool"
					},
					{
						"astId": 2136,
						"contract": "contracts/token/OUSD.sol:OUSD",
						"label": "______gap",
						"offset": 0,
						"slot": "1",
						"type": "t_array(t_uint256)50_storage"
					},
					{
						"astId": 2148,
						"contract": "contracts/token/OUSD.sol:OUSD",
						"label": "_____gap",
						"offset": 0,
						"slot": "51",
						"type": "t_array(t_uint256)100_storage"
					},
					{
						"astId": 2150,
						"contract": "contracts/token/OUSD.sol:OUSD",
						"label": "_name",
						"offset": 0,
						"slot": "151",
						"type": "t_string_storage"
					},
					{
						"astId": 2152,
						"contract": "contracts/token/OUSD.sol:OUSD",
						"label": "_symbol",
						"offset": 0,
						"slot": "152",
						"type": "t_string_storage"
					},
					{
						"astId": 2154,
						"contract": "contracts/token/OUSD.sol:OUSD",
						"label": "_decimals",
						"offset": 0,
						"slot": "153",
						"type": "t_uint8"
					},
					{
						"astId": 951,
						"contract": "contracts/token/OUSD.sol:OUSD",
						"label": "_totalSupply",
						"offset": 0,
						"slot": "154",
						"type": "t_uint256"
					},
					{
						"astId": 957,
						"contract": "contracts/token/OUSD.sol:OUSD",
						"label": "_allowances",
						"offset": 0,
						"slot": "155",
						"type": "t_mapping(t_address,t_mapping(t_address,t_uint256))"
					},
					{
						"astId": 963,
						"contract": "contracts/token/OUSD.sol:OUSD",
						"label": "vaultAddress",
						"offset": 0,
						"slot": "156",
						"type": "t_address"
					},
					{
						"astId": 967,
						"contract": "contracts/token/OUSD.sol:OUSD",
						"label": "_creditBalances",
						"offset": 0,
						"slot": "157",
						"type": "t_mapping(t_address,t_uint256)"
					},
					{
						"astId": 969,
						"contract": "contracts/token/OUSD.sol:OUSD",
						"label": "_rebasingCredits",
						"offset": 0,
						"slot": "158",
						"type": "t_uint256"
					},
					{
						"astId": 971,
						"contract": "contracts/token/OUSD.sol:OUSD",
						"label": "_rebasingCreditsPerToken",
						"offset": 0,
						"slot": "159",
						"type": "t_uint256"
					},
					{
						"astId": 973,
						"contract": "contracts/token/OUSD.sol:OUSD",
						"label": "nonRebasingSupply",
						"offset": 0,
						"slot": "160",
						"type": "t_uint256"
					},
					{
						"astId": 977,
						"contract": "contracts/token/OUSD.sol:OUSD",
						"label": "nonRebasingCreditsPerToken",
						"offset": 0,
						"slot": "161",
						"type": "t_mapping(t_address,t_uint256)"
					},
					{
						"astId": 982,
						"contract": "contracts/token/OUSD.sol:OUSD",
						"label": "rebaseState",
						"offset": 0,
						"slot": "162",
						"type": "t_mapping(t_address,t_enum(RebaseOptions)942)"
					},
					{
						"astId": 986,
						"contract": "contracts/token/OUSD.sol:OUSD",
						"label": "isUpgraded",
						"offset": 0,
						"slot": "163",
						"type": "t_mapping(t_address,t_uint256)"
					}
				],
				"types": {
					"t_address": {
						"encoding": "inplace",
						"label": "address",
						"numberOfBytes": "20"
					},
					"t_array(t_uint256)100_storage": {
						"base": "t_uint256",
						"encoding": "inplace",
						"label": "uint256[100]",
						"numberOfBytes": "3200"
					},
					"t_array(t_uint256)50_storage": {
						"base": "t_uint256",
						"encoding": "inplace",
						"label": "uint256[50]",
						"numberOfBytes": "1600"
					},
					"t_bool": {
						"encoding": "inplace",
						"label": "bool",
						"numberOfBytes": "1"
					},
					"t_enum(RebaseOptions)942": {
						"encoding": "inplace",
						"label": "enum OUSD.RebaseOptions",
						"numberOfBytes": "1"
					},
					"t_mapping(t_address,t_enum(RebaseOptions)942)": {
						"encoding": "mapping",
						"key": "t_address",
						"label": "mapping(address => enum OUSD.RebaseOptions)",
						"numberOfBytes": "32",
						"value": "t_enum(RebaseOptions)942"
					},
					"t_mapping(t_address,t_mapping(t_address,t_uint256))": {
						"encoding": "mapping",
						"key": "t_address",
						"label": "mapping(address => mapping(address => uint256))",
						"numberOfBytes": "32",
						"value": "t_mapping(t_address,t_uint256)"
					},
					"t_mapping(t_address,t_uint256)": {
						"encoding": "mapping",
						"key": "t_address",
						"label": "mapping(address => uint256)",
						"numberOfBytes": "32",
						"value": "t_uint256"
					},
					"t_string_storage": {
						"encoding": "bytes",
						"label": "string",
						"numberOfBytes": "32"
					},
					"t_uint256": {
						"encoding": "inplace",
						"label": "uint256",
						"numberOfBytes": "32"
					},
					"t_uint8": {
						"encoding": "inplace",
						"label": "uint8",
						"numberOfBytes": "1"
					}
				}
			},
			"userdoc": {
				"kind": "user",
				"methods": {},
				"notice": "NOTE that this is an ERC20 token but the invariant that the sum of balanceOf(x) for all x is not >= totalSupply(). This is a consequence of the rebasing design. Any integrations with OUSD should be aware.",
				"version": 1
			}
		}
	}
}