{
	"contracts/contracts/proxies/InitializeGovernedUpgradeabilityProxy.sol": {
		"InitializeGovernedUpgradeabilityProxy": {
			"abi": [
				{
					"anonymous": false,
					"inputs": [
						{
							"indexed": true,
							"internalType": "address",
							"name": "previousGovernor",
							"type": "address"
						},
						{
							"indexed": true,
							"internalType": "address",
							"name": "newGovernor",
							"type": "address"
						}
					],
					"name": "GovernorshipTransferred",
					"type": "event"
				},
				{
					"anonymous": false,
					"inputs": [
						{
							"indexed": true,
							"internalType": "address",
							"name": "previousGovernor",
							"type": "address"
						},
						{
							"indexed": true,
							"internalType": "address",
							"name": "newGovernor",
							"type": "address"
						}
					],
					"name": "PendingGovernorshipTransfer",
					"type": "event"
				},
				{
					"anonymous": false,
					"inputs": [
						{
							"indexed": true,
							"internalType": "address",
							"name": "implementation",
							"type": "address"
						}
					],
					"name": "Upgraded",
					"type": "event"
				},
				{
					"stateMutability": "payable",
					"type": "fallback"
				},
				{
					"inputs": [],
					"name": "admin",
					"outputs": [
						{
							"internalType": "address",
							"name": "",
							"type": "address"
						}
					],
					"stateMutability": "view",
					"type": "function"
				},
				{
					"inputs": [],
					"name": "claimGovernance",
					"outputs": [],
					"stateMutability": "nonpayable",
					"type": "function"
				},
				{
					"inputs": [],
					"name": "governor",
					"outputs": [
						{
							"internalType": "address",
							"name": "",
							"type": "address"
						}
					],
					"stateMutability": "view",
					"type": "function"
				},
				{
					"inputs": [],
					"name": "implementation",
					"outputs": [
						{
							"internalType": "address",
							"name": "",
							"type": "address"
						}
					],
					"stateMutability": "view",
					"type": "function"
				},
				{
					"inputs": [
						{
							"internalType": "address",
							"name": "_logic",
							"type": "address"
						},
						{
							"internalType": "address",
							"name": "_initGovernor",
							"type": "address"
						},
						{
							"internalType": "bytes",
							"name": "_data",
							"type": "bytes"
						}
					],
					"name": "initialize",
					"outputs": [],
					"stateMutability": "payable",
					"type": "function"
				},
				{
					"inputs": [],
					"name": "isGovernor",
					"outputs": [
						{
							"internalType": "bool",
							"name": "",
							"type": "bool"
						}
					],
					"stateMutability": "view",
					"type": "function"
				},
				{
					"inputs": [
						{
							"internalType": "address",
							"name": "_newGovernor",
							"type": "address"
						}
					],
					"name": "transferGovernance",
					"outputs": [],
					"stateMutability": "nonpayable",
					"type": "function"
				},
				{
					"inputs": [
						{
							"internalType": "address",
							"name": "newImplementation",
							"type": "address"
						}
					],
					"name": "upgradeTo",
					"outputs": [],
					"stateMutability": "nonpayable",
					"type": "function"
				},
				{
					"inputs": [
						{
							"internalType": "address",
							"name": "newImplementation",
							"type": "address"
						},
						{
							"internalType": "bytes",
							"name": "data",
							"type": "bytes"
						}
					],
					"name": "upgradeToAndCall",
					"outputs": [],
					"stateMutability": "payable",
					"type": "function"
				}
			],
			"devdoc": {
				"author": "Origin Protocol Inc",
				"details": "This contract combines an upgradeability proxy with our governor system. It is based on an older version of OpenZeppelins BaseUpgradeabilityProxy with Solidity ^0.8.0.",
				"events": {
					"Upgraded(address)": {
						"details": "Emitted when the implementation is upgraded.",
						"params": {
							"implementation": "Address of the new implementation."
						}
					}
				},
				"kind": "dev",
				"methods": {
					"admin()": {
						"returns": {
							"_0": "The address of the proxy admin/it's also the governor."
						}
					},
					"claimGovernance()": {
						"details": "Claim Governance of the contract to a new account (`newGovernor`). Can only be called by the new Governor."
					},
					"governor()": {
						"details": "Returns the address of the current Governor."
					},
					"implementation()": {
						"returns": {
							"_0": "The address of the implementation."
						}
					},
					"initialize(address,address,bytes)": {
						"details": "Contract initializer with Governor enforcement",
						"params": {
							"_data": "Data to send as msg.data to the implementation to initialize the proxied contract. It should include the signature and the parameters of the function to be called, as described in https://solidity.readthedocs.io/en/v0.4.24/abi-spec.html#function-selector-and-argument-encoding. This parameter is optional, if no data is given the initialization call to proxied contract will be skipped.",
							"_initGovernor": "Address of the initial Governor.",
							"_logic": "Address of the initial implementation."
						}
					},
					"isGovernor()": {
						"details": "Returns true if the caller is the current Governor."
					},
					"transferGovernance(address)": {
						"details": "Transfers Governance of the contract to a new account (`newGovernor`). Can only be called by the current Governor. Must be claimed for this to complete",
						"params": {
							"_newGovernor": "Address of the new Governor"
						}
					},
					"upgradeTo(address)": {
						"details": "Upgrade the backing implementation of the proxy. Only the admin can call this function.",
						"params": {
							"newImplementation": "Address of the new implementation."
						}
					},
					"upgradeToAndCall(address,bytes)": {
						"details": "Upgrade the backing implementation of the proxy and call a function on the new implementation. This is useful to initialize the proxied contract.",
						"params": {
							"data": "Data to send as msg.data in the low level call. It should include the signature and the parameters of the function to be called, as described in https://solidity.readthedocs.io/en/v0.4.24/abi-spec.html#function-selector-and-argument-encoding.",
							"newImplementation": "Address of the new implementation."
						}
					}
				},
				"stateVariables": {
					"IMPLEMENTATION_SLOT": {
						"details": "Storage slot with the address of the current implementation. This is the keccak-256 hash of \"eip1967.proxy.implementation\" subtracted by 1, and is validated in the constructor."
					}
				},
				"title": "BaseGovernedUpgradeabilityProxy",
				"version": 1
			},
			"evm": {
				"assembly": "    /* \"contracts/contracts/proxies/InitializeGovernedUpgradeabilityProxy.sol\":469:6801  contract InitializeGovernedUpgradeabilityProxy is Governable {\r... */\n  mstore(0x40, 0x80)\n  callvalue\n  dup1\n  iszero\n  tag_1\n  jumpi\n  0x00\n  dup1\n  revert\ntag_1:\n  pop\n    /* \"contracts/contracts/governance/Governable.sol\":1494:1518  _setGovernor(msg.sender) */\n  tag_4\n    /* \"contracts/contracts/governance/Governable.sol\":1507:1517  msg.sender */\n  caller\n  0x00\n  dup1\n  mload\n  0x20\n  data_b21729280315b05b5209e280f80abc0024d9412a0bcfd98da242c4e2094faad4\n  dup4\n  codecopy\n  dup2\n  mload\n  swap2\n  mstore\n    /* \"contracts/contracts/governance/Governable.sol\":2905:2934  sstore(position, newGovernor) */\n  sstore\n    /* \"contracts/contracts/governance/Governable.sol\":2772:2952  function _setGovernor(address newGovernor) internal {\r... */\n  jump\n    /* \"contracts/contracts/governance/Governable.sol\":1494:1518  _setGovernor(msg.sender) */\ntag_4:\n  0x00\n  dup1\n  mload\n  0x20\n  data_b21729280315b05b5209e280f80abc0024d9412a0bcfd98da242c4e2094faad4\n  dup4\n  codecopy\n  dup2\n  mload\n  swap2\n  mstore\n    /* \"contracts/contracts/governance/Governable.sol\":2006:2021  sload(position) */\n  sload\n    /* \"contracts/contracts/governance/Governable.sol\":1534:1582  GovernorshipTransferred(address(0), _governor()) */\n  mload(0x40)\n  sub(shl(0xa0, 0x01), 0x01)\n  swap1\n  swap2\n  and\n  swap1\n    /* \"contracts/contracts/governance/Governable.sol\":1566:1567  0 */\n  0x00\n  swap1\n    /* \"contracts/contracts/governance/Governable.sol\":1534:1582  GovernorshipTransferred(address(0), _governor()) */\n  0xc7c0c772add429241571afb3805861fb3cfa2af374534088b76cdb4325a87e9a\n  swap1\n    /* \"contracts/contracts/governance/Governable.sol\":1566:1567  0 */\n  dup3\n  swap1\n    /* \"contracts/contracts/governance/Governable.sol\":1534:1582  GovernorshipTransferred(address(0), _governor()) */\n  log3\n    /* \"contracts/contracts/proxies/InitializeGovernedUpgradeabilityProxy.sol\":469:6801  contract InitializeGovernedUpgradeabilityProxy is Governable {\r... */\n  dataSize(sub_0)\n  dup1\n  dataOffset(sub_0)\n  0x00\n  codecopy\n  0x00\n  return\nstop\ndata_b21729280315b05b5209e280f80abc0024d9412a0bcfd98da242c4e2094faad4 7bea13895fa79d2831e0a9e28edede30099005a50d652d8957cf8a607ee6ca4a\n\nsub_0: assembly {\n        /* \"contracts/contracts/proxies/InitializeGovernedUpgradeabilityProxy.sol\":469:6801  contract InitializeGovernedUpgradeabilityProxy is Governable {\r... */\n      mstore(0x40, 0x80)\n      jumpi(tag_1, lt(calldatasize, 0x04))\n      shr(0xe0, calldataload(0x00))\n      dup1\n      0x5d36b190\n      gt\n      tag_12\n      jumpi\n      dup1\n      0x5d36b190\n      eq\n      tag_7\n      jumpi\n      dup1\n      0xc7af3352\n      eq\n      tag_8\n      jumpi\n      dup1\n      0xcf7a1d77\n      eq\n      tag_9\n      jumpi\n      dup1\n      0xd38bfff4\n      eq\n      tag_10\n      jumpi\n      dup1\n      0xf851a440\n      eq\n      tag_3\n      jumpi\n      jump(tag_1)\n    tag_12:\n      dup1\n      0x0c340a24\n      eq\n      tag_3\n      jumpi\n      dup1\n      0x3659cfe6\n      eq\n      tag_4\n      jumpi\n      dup1\n      0x4f1ef286\n      eq\n      tag_5\n      jumpi\n      dup1\n      0x5c60da1b\n      eq\n      tag_6\n      jumpi\n    tag_1:\n        /* \"contracts/contracts/proxies/InitializeGovernedUpgradeabilityProxy.sol\":3626:3637  _fallback() */\n      tag_15\n        /* \"contracts/contracts/proxies/InitializeGovernedUpgradeabilityProxy.sol\":3626:3635  _fallback */\n      tag_16\n        /* \"contracts/contracts/proxies/InitializeGovernedUpgradeabilityProxy.sol\":3626:3637  _fallback() */\n      jump\t// in\n    tag_15:\n        /* \"contracts/contracts/proxies/InitializeGovernedUpgradeabilityProxy.sol\":469:6801  contract InitializeGovernedUpgradeabilityProxy is Governable {\r... */\n      stop\n        /* \"contracts/contracts/governance/Governable.sol\":1674:1761  function governor() public view returns (address) {\r... */\n    tag_3:\n      callvalue\n      dup1\n      iszero\n      tag_17\n      jumpi\n      0x00\n      dup1\n      revert\n    tag_17:\n      pop\n      tag_18\n      tag_19\n      jump\t// in\n    tag_18:\n      mload(0x40)\n      sub(shl(0xa0, 0x01), 0x01)\n        /* \"#utility.yul\":2998:3030   */\n      swap1\n      swap2\n      and\n        /* \"#utility.yul\":2980:3031   */\n      dup2\n      mstore\n        /* \"#utility.yul\":2968:2970   */\n      0x20\n        /* \"#utility.yul\":2953:2971   */\n      add\n        /* \"contracts/contracts/governance/Governable.sol\":1674:1761  function governor() public view returns (address) {\r... */\n    tag_20:\n      mload(0x40)\n      dup1\n      swap2\n      sub\n      swap1\n      return\n        /* \"contracts/contracts/proxies/InitializeGovernedUpgradeabilityProxy.sol\":2543:2659  function upgradeTo(address newImplementation) external onlyGovernor {\r... */\n    tag_4:\n      callvalue\n      dup1\n      iszero\n      tag_22\n      jumpi\n      0x00\n      dup1\n      revert\n    tag_22:\n      pop\n      tag_15\n      tag_24\n      calldatasize\n      0x04\n      tag_25\n      jump\t// in\n    tag_24:\n      tag_26\n      jump\t// in\n        /* \"contracts/contracts/proxies/InitializeGovernedUpgradeabilityProxy.sol\":3207:3484  function upgradeToAndCall(address newImplementation, bytes calldata data)\r... */\n    tag_5:\n      tag_15\n      tag_28\n      calldatasize\n      0x04\n      tag_29\n      jump\t// in\n    tag_28:\n      tag_30\n      jump\t// in\n        /* \"contracts/contracts/proxies/InitializeGovernedUpgradeabilityProxy.sol\":2239:2340  function implementation() external view returns (address) {\r... */\n    tag_6:\n      callvalue\n      dup1\n      iszero\n      tag_31\n      jumpi\n      0x00\n      dup1\n      revert\n    tag_31:\n      pop\n      tag_18\n      tag_33\n      jump\t// in\n        /* \"contracts/contracts/governance/Governable.sol\":4839:5062  function claimGovernance() external {\r... */\n    tag_7:\n      callvalue\n      dup1\n      iszero\n      tag_35\n      jumpi\n      0x00\n      dup1\n      revert\n    tag_35:\n      pop\n      tag_15\n      tag_37\n      jump\t// in\n        /* \"contracts/contracts/governance/Governable.sol\":2664:2764  function isGovernor() public view returns (bool) {\r... */\n    tag_8:\n      callvalue\n      dup1\n      iszero\n      tag_38\n      jumpi\n      0x00\n      dup1\n      revert\n    tag_38:\n      pop\n      tag_39\n      tag_40\n      jump\t// in\n    tag_39:\n      mload(0x40)\n        /* \"#utility.yul\":3207:3221   */\n      swap1\n      iszero\n        /* \"#utility.yul\":3200:3222   */\n      iszero\n        /* \"#utility.yul\":3182:3223   */\n      dup2\n      mstore\n        /* \"#utility.yul\":3170:3172   */\n      0x20\n        /* \"#utility.yul\":3155:3173   */\n      add\n        /* \"contracts/contracts/governance/Governable.sol\":2664:2764  function isGovernor() public view returns (bool) {\r... */\n      tag_20\n        /* \"#utility.yul\":3042:3229   */\n      jump\n        /* \"contracts/contracts/proxies/InitializeGovernedUpgradeabilityProxy.sol\":1390:1979  function initialize(\r... */\n    tag_9:\n      tag_15\n      tag_44\n      calldatasize\n      0x04\n      tag_45\n      jump\t// in\n    tag_44:\n      tag_46\n      jump\t// in\n        /* \"contracts/contracts/governance/Governable.sol\":4491:4685  function transferGovernance(address _newGovernor) external onlyGovernor {\r... */\n    tag_10:\n      callvalue\n      dup1\n      iszero\n      tag_47\n      jumpi\n      0x00\n      dup1\n      revert\n    tag_47:\n      pop\n      tag_15\n      tag_49\n      calldatasize\n      0x04\n      tag_25\n      jump\t// in\n    tag_49:\n      tag_50\n      jump\t// in\n        /* \"contracts/contracts/proxies/InitializeGovernedUpgradeabilityProxy.sol\":5211:5314  function _fallback() internal {\r... */\n    tag_16:\n        /* \"contracts/contracts/proxies/InitializeGovernedUpgradeabilityProxy.sol\":5278:5306  _delegate(_implementation()) */\n      tag_58\n        /* \"contracts/contracts/proxies/InitializeGovernedUpgradeabilityProxy.sol\":5288:5305  _implementation() */\n      tag_59\n      0x00\n      dup1\n      mload\n      0x20\n      data_75b20eef8615de99c108b05f0dbda081c91897128caa336d75dffb97c4132b4d\n      dup4\n      codecopy\n      dup2\n      mload\n      swap2\n      mstore\n        /* \"contracts/contracts/proxies/InitializeGovernedUpgradeabilityProxy.sol\":5956:5967  sload(slot) */\n      sload\n      swap1\n        /* \"contracts/contracts/proxies/InitializeGovernedUpgradeabilityProxy.sol\":5804:5985  function _implementation() internal view returns (address impl) {\r... */\n      jump\n        /* \"contracts/contracts/proxies/InitializeGovernedUpgradeabilityProxy.sol\":5288:5305  _implementation() */\n    tag_59:\n        /* \"contracts/contracts/proxies/InitializeGovernedUpgradeabilityProxy.sol\":5278:5287  _delegate */\n      tag_61\n        /* \"contracts/contracts/proxies/InitializeGovernedUpgradeabilityProxy.sol\":5278:5306  _delegate(_implementation()) */\n      jump\t// in\n    tag_58:\n        /* \"contracts/contracts/proxies/InitializeGovernedUpgradeabilityProxy.sol\":5211:5314  function _fallback() internal {\r... */\n      jump\t// out\n        /* \"contracts/contracts/governance/Governable.sol\":1674:1761  function governor() public view returns (address) {\r... */\n    tag_19:\n        /* \"contracts/contracts/governance/Governable.sol\":1715:1722  address */\n      0x00\n        /* \"contracts/contracts/governance/Governable.sol\":1742:1753  _governor() */\n      tag_63\n      0x00\n      dup1\n      mload\n      0x20\n      data_b21729280315b05b5209e280f80abc0024d9412a0bcfd98da242c4e2094faad4\n      dup4\n      codecopy\n      dup2\n      mload\n      swap2\n      mstore\n        /* \"contracts/contracts/governance/Governable.sol\":2006:2021  sload(position) */\n      sload\n      swap1\n        /* \"contracts/contracts/governance/Governable.sol\":1845:2039  function _governor() internal view returns (address governorOut) {\r... */\n      jump\n        /* \"contracts/contracts/governance/Governable.sol\":1742:1753  _governor() */\n    tag_63:\n        /* \"contracts/contracts/governance/Governable.sol\":1735:1753  return _governor() */\n      swap1\n      pop\n        /* \"contracts/contracts/governance/Governable.sol\":1674:1761  function governor() public view returns (address) {\r... */\n      swap1\n      jump\t// out\n        /* \"contracts/contracts/proxies/InitializeGovernedUpgradeabilityProxy.sol\":2543:2659  function upgradeTo(address newImplementation) external onlyGovernor {\r... */\n    tag_26:\n        /* \"contracts/contracts/governance/Governable.sol\":2510:2522  isGovernor() */\n      tag_66\n        /* \"contracts/contracts/governance/Governable.sol\":2510:2520  isGovernor */\n      tag_40\n        /* \"contracts/contracts/governance/Governable.sol\":2510:2522  isGovernor() */\n      jump\t// in\n    tag_66:\n        /* \"contracts/contracts/governance/Governable.sol\":2502:2553  require(isGovernor(), \"Caller is not the Governor\") */\n      tag_67\n      jumpi\n      mload(0x40)\n      shl(0xe5, 0x461bcd)\n      dup2\n      mstore\n      0x04\n      add\n      tag_68\n      swap1\n      tag_69\n      jump\t// in\n    tag_68:\n      mload(0x40)\n      dup1\n      swap2\n      sub\n      swap1\n      revert\n    tag_67:\n        /* \"contracts/contracts/proxies/InitializeGovernedUpgradeabilityProxy.sol\":2622:2651  _upgradeTo(newImplementation) */\n      tag_71\n        /* \"contracts/contracts/proxies/InitializeGovernedUpgradeabilityProxy.sol\":2633:2650  newImplementation */\n      dup2\n        /* \"contracts/contracts/proxies/InitializeGovernedUpgradeabilityProxy.sol\":2622:2632  _upgradeTo */\n      tag_72\n        /* \"contracts/contracts/proxies/InitializeGovernedUpgradeabilityProxy.sol\":2622:2651  _upgradeTo(newImplementation) */\n      jump\t// in\n    tag_71:\n        /* \"contracts/contracts/proxies/InitializeGovernedUpgradeabilityProxy.sol\":2543:2659  function upgradeTo(address newImplementation) external onlyGovernor {\r... */\n      pop\n      jump\t// out\n        /* \"contracts/contracts/proxies/InitializeGovernedUpgradeabilityProxy.sol\":3207:3484  function upgradeToAndCall(address newImplementation, bytes calldata data)\r... */\n    tag_30:\n        /* \"contracts/contracts/governance/Governable.sol\":2510:2522  isGovernor() */\n      tag_74\n        /* \"contracts/contracts/governance/Governable.sol\":2510:2520  isGovernor */\n      tag_40\n        /* \"contracts/contracts/governance/Governable.sol\":2510:2522  isGovernor() */\n      jump\t// in\n    tag_74:\n        /* \"contracts/contracts/governance/Governable.sol\":2502:2553  require(isGovernor(), \"Caller is not the Governor\") */\n      tag_75\n      jumpi\n      mload(0x40)\n      shl(0xe5, 0x461bcd)\n      dup2\n      mstore\n      0x04\n      add\n      tag_68\n      swap1\n      tag_69\n      jump\t// in\n    tag_75:\n        /* \"contracts/contracts/proxies/InitializeGovernedUpgradeabilityProxy.sol\":3354:3383  _upgradeTo(newImplementation) */\n      tag_78\n        /* \"contracts/contracts/proxies/InitializeGovernedUpgradeabilityProxy.sol\":3365:3382  newImplementation */\n      dup4\n        /* \"contracts/contracts/proxies/InitializeGovernedUpgradeabilityProxy.sol\":3354:3364  _upgradeTo */\n      tag_72\n        /* \"contracts/contracts/proxies/InitializeGovernedUpgradeabilityProxy.sol\":3354:3383  _upgradeTo(newImplementation) */\n      jump\t// in\n    tag_78:\n        /* \"contracts/contracts/proxies/InitializeGovernedUpgradeabilityProxy.sol\":3395:3407  bool success */\n      0x00\n        /* \"contracts/contracts/proxies/InitializeGovernedUpgradeabilityProxy.sol\":3413:3430  newImplementation */\n      dup4\n      sub(shl(0xa0, 0x01), 0x01)\n        /* \"contracts/contracts/proxies/InitializeGovernedUpgradeabilityProxy.sol\":3413:3443  newImplementation.delegatecall */\n      and\n        /* \"contracts/contracts/proxies/InitializeGovernedUpgradeabilityProxy.sol\":3444:3448  data */\n      dup4\n      dup4\n        /* \"contracts/contracts/proxies/InitializeGovernedUpgradeabilityProxy.sol\":3413:3449  newImplementation.delegatecall(data) */\n      mload(0x40)\n      tag_79\n      swap3\n      swap2\n      swap1\n      tag_80\n      jump\t// in\n    tag_79:\n      0x00\n      mload(0x40)\n      dup1\n      dup4\n      sub\n      dup2\n      dup6\n      gas\n      delegatecall\n      swap2\n      pop\n      pop\n      returndatasize\n      dup1\n      0x00\n      dup2\n      eq\n      tag_83\n      jumpi\n      mload(0x40)\n      swap2\n      pop\n      and(add(returndatasize, 0x3f), not(0x1f))\n      dup3\n      add\n      0x40\n      mstore\n      returndatasize\n      dup3\n      mstore\n      returndatasize\n      0x00\n      0x20\n      dup5\n      add\n      returndatacopy\n      jump(tag_82)\n    tag_83:\n      0x60\n      swap2\n      pop\n    tag_82:\n      pop\n        /* \"contracts/contracts/proxies/InitializeGovernedUpgradeabilityProxy.sol\":3394:3449  (bool success, ) = newImplementation.delegatecall(data) */\n      pop\n      swap1\n      pop\n        /* \"contracts/contracts/proxies/InitializeGovernedUpgradeabilityProxy.sol\":3468:3475  success */\n      dup1\n        /* \"contracts/contracts/proxies/InitializeGovernedUpgradeabilityProxy.sol\":3460:3476  require(success) */\n      tag_84\n      jumpi\n      0x00\n      dup1\n      revert\n    tag_84:\n        /* \"contracts/contracts/proxies/InitializeGovernedUpgradeabilityProxy.sol\":3343:3484  {\r... */\n      pop\n        /* \"contracts/contracts/proxies/InitializeGovernedUpgradeabilityProxy.sol\":3207:3484  function upgradeToAndCall(address newImplementation, bytes calldata data)\r... */\n      pop\n      pop\n      pop\n      jump\t// out\n        /* \"contracts/contracts/proxies/InitializeGovernedUpgradeabilityProxy.sol\":2239:2340  function implementation() external view returns (address) {\r... */\n    tag_33:\n        /* \"contracts/contracts/proxies/InitializeGovernedUpgradeabilityProxy.sol\":2288:2295  address */\n      0x00\n        /* \"contracts/contracts/proxies/InitializeGovernedUpgradeabilityProxy.sol\":2315:2332  _implementation() */\n      tag_63\n      0x00\n      dup1\n      mload\n      0x20\n      data_75b20eef8615de99c108b05f0dbda081c91897128caa336d75dffb97c4132b4d\n      dup4\n      codecopy\n      dup2\n      mload\n      swap2\n      mstore\n        /* \"contracts/contracts/proxies/InitializeGovernedUpgradeabilityProxy.sol\":5956:5967  sload(slot) */\n      sload\n      swap1\n        /* \"contracts/contracts/proxies/InitializeGovernedUpgradeabilityProxy.sol\":5804:5985  function _implementation() internal view returns (address impl) {\r... */\n      jump\n        /* \"contracts/contracts/governance/Governable.sol\":4839:5062  function claimGovernance() external {\r... */\n    tag_37:\n        /* \"contracts/contracts/governance/Governable.sol\":727:793  0x44c4d30b2eaad5130ad70c3ba6972730566f3e6359ab83e800d905c61b1c51db */\n      0x44c4d30b2eaad5130ad70c3ba6972730566f3e6359ab83e800d905c61b1c51db\n        /* \"contracts/contracts/governance/Governable.sol\":2338:2353  sload(position) */\n      sload\n      sub(shl(0xa0, 0x01), 0x01)\n        /* \"contracts/contracts/governance/Governable.sol\":4908:4940  msg.sender == _pendingGovernor() */\n      and\n        /* \"contracts/contracts/governance/Governable.sol\":4908:4918  msg.sender */\n      caller\n      sub(shl(0xa0, 0x01), 0x01)\n        /* \"contracts/contracts/governance/Governable.sol\":4908:4940  msg.sender == _pendingGovernor() */\n      and\n      eq\n        /* \"contracts/contracts/governance/Governable.sol\":4886:5016  require(\r... */\n      tag_90\n      jumpi\n      mload(0x40)\n      shl(0xe5, 0x461bcd)\n      dup2\n      mstore\n        /* \"#utility.yul\":4929:4931   */\n      0x20\n        /* \"contracts/contracts/governance/Governable.sol\":4886:5016  require(\r... */\n      0x04\n      dup3\n      add\n        /* \"#utility.yul\":4911:4932   */\n      mstore\n        /* \"#utility.yul\":4968:4970   */\n      0x30\n        /* \"#utility.yul\":4948:4966   */\n      0x24\n      dup3\n      add\n        /* \"#utility.yul\":4941:4971   */\n      mstore\n        /* \"#utility.yul\":5007:5041   */\n      0x4f6e6c79207468652070656e64696e6720476f7665726e6f722063616e20636f\n        /* \"#utility.yul\":4987:5005   */\n      0x44\n      dup3\n      add\n        /* \"#utility.yul\":4980:5042   */\n      mstore\n      shl(0x80, 0x6d706c6574652074686520636c61696d)\n        /* \"#utility.yul\":5058:5076   */\n      0x64\n      dup3\n      add\n        /* \"#utility.yul\":5051:5097   */\n      mstore\n        /* \"#utility.yul\":5114:5133   */\n      0x84\n      add\n        /* \"contracts/contracts/governance/Governable.sol\":4886:5016  require(\r... */\n      tag_68\n        /* \"#utility.yul\":4727:5139   */\n      jump\n        /* \"contracts/contracts/governance/Governable.sol\":4886:5016  require(\r... */\n    tag_90:\n        /* \"contracts/contracts/governance/Governable.sol\":5027:5054  _changeGovernor(msg.sender) */\n      tag_58\n        /* \"contracts/contracts/governance/Governable.sol\":5043:5053  msg.sender */\n      caller\n        /* \"contracts/contracts/governance/Governable.sol\":5027:5042  _changeGovernor */\n      tag_94\n        /* \"contracts/contracts/governance/Governable.sol\":5027:5054  _changeGovernor(msg.sender) */\n      jump\t// in\n        /* \"contracts/contracts/governance/Governable.sol\":2664:2764  function isGovernor() public view returns (bool) {\r... */\n    tag_40:\n        /* \"contracts/contracts/governance/Governable.sol\":2707:2711  bool */\n      0x00\n        /* \"contracts/contracts/governance/Governable.sol\":2745:2756  _governor() */\n      tag_96\n      0x00\n      dup1\n      mload\n      0x20\n      data_b21729280315b05b5209e280f80abc0024d9412a0bcfd98da242c4e2094faad4\n      dup4\n      codecopy\n      dup2\n      mload\n      swap2\n      mstore\n        /* \"contracts/contracts/governance/Governable.sol\":2006:2021  sload(position) */\n      sload\n      swap1\n        /* \"contracts/contracts/governance/Governable.sol\":1845:2039  function _governor() internal view returns (address governorOut) {\r... */\n      jump\n        /* \"contracts/contracts/governance/Governable.sol\":2745:2756  _governor() */\n    tag_96:\n      sub(shl(0xa0, 0x01), 0x01)\n        /* \"contracts/contracts/governance/Governable.sol\":2731:2756  msg.sender == _governor() */\n      and\n        /* \"contracts/contracts/governance/Governable.sol\":2731:2741  msg.sender */\n      caller\n      sub(shl(0xa0, 0x01), 0x01)\n        /* \"contracts/contracts/governance/Governable.sol\":2731:2756  msg.sender == _governor() */\n      and\n      eq\n        /* \"contracts/contracts/governance/Governable.sol\":2724:2756  return msg.sender == _governor() */\n      swap1\n      pop\n        /* \"contracts/contracts/governance/Governable.sol\":2664:2764  function isGovernor() public view returns (bool) {\r... */\n      swap1\n      jump\t// out\n        /* \"contracts/contracts/proxies/InitializeGovernedUpgradeabilityProxy.sol\":1390:1979  function initialize(\r... */\n    tag_46:\n        /* \"contracts/contracts/governance/Governable.sol\":2510:2522  isGovernor() */\n      tag_98\n        /* \"contracts/contracts/governance/Governable.sol\":2510:2520  isGovernor */\n      tag_40\n        /* \"contracts/contracts/governance/Governable.sol\":2510:2522  isGovernor() */\n      jump\t// in\n    tag_98:\n        /* \"contracts/contracts/governance/Governable.sol\":2502:2553  require(isGovernor(), \"Caller is not the Governor\") */\n      tag_99\n      jumpi\n      mload(0x40)\n      shl(0xe5, 0x461bcd)\n      dup2\n      mstore\n      0x04\n      add\n      tag_68\n      swap1\n      tag_69\n      jump\t// in\n    tag_99:\n        /* \"contracts/contracts/proxies/InitializeGovernedUpgradeabilityProxy.sol\":1579:1580  0 */\n      0x00\n        /* \"contracts/contracts/proxies/InitializeGovernedUpgradeabilityProxy.sol\":1550:1567  _implementation() */\n      tag_102\n      0x00\n      dup1\n      mload\n      0x20\n      data_75b20eef8615de99c108b05f0dbda081c91897128caa336d75dffb97c4132b4d\n      dup4\n      codecopy\n      dup2\n      mload\n      swap2\n      mstore\n        /* \"contracts/contracts/proxies/InitializeGovernedUpgradeabilityProxy.sol\":5956:5967  sload(slot) */\n      sload\n      swap1\n        /* \"contracts/contracts/proxies/InitializeGovernedUpgradeabilityProxy.sol\":5804:5985  function _implementation() internal view returns (address impl) {\r... */\n      jump\n        /* \"contracts/contracts/proxies/InitializeGovernedUpgradeabilityProxy.sol\":1550:1567  _implementation() */\n    tag_102:\n      sub(shl(0xa0, 0x01), 0x01)\n        /* \"contracts/contracts/proxies/InitializeGovernedUpgradeabilityProxy.sol\":1550:1581  _implementation() == address(0) */\n      and\n      eq\n        /* \"contracts/contracts/proxies/InitializeGovernedUpgradeabilityProxy.sol\":1542:1612  require(_implementation() == address(0), \"implementation already set\") */\n      tag_103\n      jumpi\n      mload(0x40)\n      shl(0xe5, 0x461bcd)\n      dup2\n      mstore\n        /* \"#utility.yul\":3791:3793   */\n      0x20\n        /* \"contracts/contracts/proxies/InitializeGovernedUpgradeabilityProxy.sol\":1542:1612  require(_implementation() == address(0), \"implementation already set\") */\n      0x04\n      dup3\n      add\n        /* \"#utility.yul\":3773:3794   */\n      mstore\n        /* \"#utility.yul\":3830:3832   */\n      0x1a\n        /* \"#utility.yul\":3810:3828   */\n      0x24\n      dup3\n      add\n        /* \"#utility.yul\":3803:3833   */\n      mstore\n        /* \"#utility.yul\":3869:3897   */\n      0x696d706c656d656e746174696f6e20616c726561647920736574000000000000\n        /* \"#utility.yul\":3849:3867   */\n      0x44\n      dup3\n      add\n        /* \"#utility.yul\":3842:3898   */\n      mstore\n        /* \"#utility.yul\":3915:3933   */\n      0x64\n      add\n        /* \"contracts/contracts/proxies/InitializeGovernedUpgradeabilityProxy.sol\":1542:1612  require(_implementation() == address(0), \"implementation already set\") */\n      tag_68\n        /* \"#utility.yul\":3589:3939   */\n      jump\n        /* \"contracts/contracts/proxies/InitializeGovernedUpgradeabilityProxy.sol\":1542:1612  require(_implementation() == address(0), \"implementation already set\") */\n    tag_103:\n        /* \"contracts/contracts/proxies/InitializeGovernedUpgradeabilityProxy.sol\":1692:1746  uint256(keccak256(\"eip1967.proxy.implementation\")) - 1 */\n      tag_106\n        /* \"contracts/contracts/proxies/InitializeGovernedUpgradeabilityProxy.sol\":1745:1746  1 */\n      0x01\n        /* \"contracts/contracts/proxies/InitializeGovernedUpgradeabilityProxy.sol\":1700:1741  keccak256(\"eip1967.proxy.implementation\") */\n      0x360894a13ba1a3210667c828492db98dca3e2076cc3735a920a3ca505d382bbd\n        /* \"contracts/contracts/proxies/InitializeGovernedUpgradeabilityProxy.sol\":1692:1746  uint256(keccak256(\"eip1967.proxy.implementation\")) - 1 */\n      tag_107\n      jump\t// in\n    tag_106:\n      0x00\n      dup1\n      mload\n      0x20\n      data_75b20eef8615de99c108b05f0dbda081c91897128caa336d75dffb97c4132b4d\n      dup4\n      codecopy\n      dup2\n      mload\n      swap2\n      mstore\n        /* \"contracts/contracts/proxies/InitializeGovernedUpgradeabilityProxy.sol\":1644:1747  IMPLEMENTATION_SLOT ==\r... */\n      eq\n        /* \"contracts/contracts/proxies/InitializeGovernedUpgradeabilityProxy.sol\":1623:1758  assert(\r... */\n      tag_109\n      jumpi\n      tag_109\n      tag_110\n      jump\t// in\n    tag_109:\n        /* \"contracts/contracts/proxies/InitializeGovernedUpgradeabilityProxy.sol\":1769:1799  _changeGovernor(_initGovernor) */\n      tag_111\n        /* \"contracts/contracts/proxies/InitializeGovernedUpgradeabilityProxy.sol\":1785:1798  _initGovernor */\n      dup3\n        /* \"contracts/contracts/proxies/InitializeGovernedUpgradeabilityProxy.sol\":1769:1784  _changeGovernor */\n      tag_94\n        /* \"contracts/contracts/proxies/InitializeGovernedUpgradeabilityProxy.sol\":1769:1799  _changeGovernor(_initGovernor) */\n      jump\t// in\n    tag_111:\n        /* \"contracts/contracts/proxies/InitializeGovernedUpgradeabilityProxy.sol\":1810:1836  _setImplementation(_logic) */\n      tag_112\n        /* \"contracts/contracts/proxies/InitializeGovernedUpgradeabilityProxy.sol\":1829:1835  _logic */\n      dup4\n        /* \"contracts/contracts/proxies/InitializeGovernedUpgradeabilityProxy.sol\":1810:1828  _setImplementation */\n      tag_113\n        /* \"contracts/contracts/proxies/InitializeGovernedUpgradeabilityProxy.sol\":1810:1836  _setImplementation(_logic) */\n      jump\t// in\n    tag_112:\n        /* \"contracts/contracts/proxies/InitializeGovernedUpgradeabilityProxy.sol\":1851:1863  _data.length */\n      dup1\n      mload\n        /* \"contracts/contracts/proxies/InitializeGovernedUpgradeabilityProxy.sol\":1851:1867  _data.length > 0 */\n      iszero\n        /* \"contracts/contracts/proxies/InitializeGovernedUpgradeabilityProxy.sol\":1847:1972  if (_data.length > 0) {\r... */\n      tag_114\n      jumpi\n        /* \"contracts/contracts/proxies/InitializeGovernedUpgradeabilityProxy.sol\":1885:1897  bool success */\n      0x00\n        /* \"contracts/contracts/proxies/InitializeGovernedUpgradeabilityProxy.sol\":1903:1909  _logic */\n      dup4\n      sub(shl(0xa0, 0x01), 0x01)\n        /* \"contracts/contracts/proxies/InitializeGovernedUpgradeabilityProxy.sol\":1903:1922  _logic.delegatecall */\n      and\n        /* \"contracts/contracts/proxies/InitializeGovernedUpgradeabilityProxy.sol\":1923:1928  _data */\n      dup3\n        /* \"contracts/contracts/proxies/InitializeGovernedUpgradeabilityProxy.sol\":1903:1929  _logic.delegatecall(_data) */\n      mload(0x40)\n      tag_79\n      swap2\n      swap1\n      tag_116\n      jump\t// in\n        /* \"contracts/contracts/proxies/InitializeGovernedUpgradeabilityProxy.sol\":1847:1972  if (_data.length > 0) {\r... */\n    tag_114:\n        /* \"contracts/contracts/proxies/InitializeGovernedUpgradeabilityProxy.sol\":1390:1979  function initialize(\r... */\n      pop\n      pop\n      pop\n      jump\t// out\n        /* \"contracts/contracts/governance/Governable.sol\":4491:4685  function transferGovernance(address _newGovernor) external onlyGovernor {\r... */\n    tag_50:\n        /* \"contracts/contracts/governance/Governable.sol\":2510:2522  isGovernor() */\n      tag_122\n        /* \"contracts/contracts/governance/Governable.sol\":2510:2520  isGovernor */\n      tag_40\n        /* \"contracts/contracts/governance/Governable.sol\":2510:2522  isGovernor() */\n      jump\t// in\n    tag_122:\n        /* \"contracts/contracts/governance/Governable.sol\":2502:2553  require(isGovernor(), \"Caller is not the Governor\") */\n      tag_123\n      jumpi\n      mload(0x40)\n      shl(0xe5, 0x461bcd)\n      dup2\n      mstore\n      0x04\n      add\n      tag_68\n      swap1\n      tag_69\n      jump\t// in\n    tag_123:\n        /* \"contracts/contracts/governance/Governable.sol\":4574:4607  _setPendingGovernor(_newGovernor) */\n      tag_126\n        /* \"contracts/contracts/governance/Governable.sol\":4594:4606  _newGovernor */\n      dup2\n        /* \"contracts/contracts/governance/Governable.sol\":727:793  0x44c4d30b2eaad5130ad70c3ba6972730566f3e6359ab83e800d905c61b1c51db */\n      0x44c4d30b2eaad5130ad70c3ba6972730566f3e6359ab83e800d905c61b1c51db\n        /* \"contracts/contracts/governance/Governable.sol\":4189:4218  sstore(position, newGovernor) */\n      sstore\n        /* \"contracts/contracts/governance/Governable.sol\":4042:4236  function _setPendingGovernor(address newGovernor) internal {\r... */\n      jump\n        /* \"contracts/contracts/governance/Governable.sol\":4574:4607  _setPendingGovernor(_newGovernor) */\n    tag_126:\n        /* \"contracts/contracts/governance/Governable.sol\":4664:4676  _newGovernor */\n      dup1\n      sub(shl(0xa0, 0x01), 0x01)\n        /* \"contracts/contracts/governance/Governable.sol\":4623:4677  PendingGovernorshipTransfer(_governor(), _newGovernor) */\n      and\n        /* \"contracts/contracts/governance/Governable.sol\":4651:4662  _governor() */\n      tag_128\n      0x00\n      dup1\n      mload\n      0x20\n      data_b21729280315b05b5209e280f80abc0024d9412a0bcfd98da242c4e2094faad4\n      dup4\n      codecopy\n      dup2\n      mload\n      swap2\n      mstore\n        /* \"contracts/contracts/governance/Governable.sol\":2006:2021  sload(position) */\n      sload\n      swap1\n        /* \"contracts/contracts/governance/Governable.sol\":1845:2039  function _governor() internal view returns (address governorOut) {\r... */\n      jump\n        /* \"contracts/contracts/governance/Governable.sol\":4651:4662  _governor() */\n    tag_128:\n      sub(shl(0xa0, 0x01), 0x01)\n        /* \"contracts/contracts/governance/Governable.sol\":4623:4677  PendingGovernorshipTransfer(_governor(), _newGovernor) */\n      and\n      0xa39cc5eb22d0f34d8beaefee8a3f17cc229c1a1d1ef87a5ad47313487b1c4f0d\n      mload(0x40)\n      mload(0x40)\n      dup1\n      swap2\n      sub\n      swap1\n      log3\n        /* \"contracts/contracts/governance/Governable.sol\":4491:4685  function transferGovernance(address _newGovernor) external onlyGovernor {\r... */\n      pop\n      jump\t// out\n        /* \"contracts/contracts/proxies/InitializeGovernedUpgradeabilityProxy.sol\":3944:4836  function _delegate(address _impl) internal {\r... */\n    tag_61:\n        /* \"contracts/contracts/proxies/InitializeGovernedUpgradeabilityProxy.sol\":4270:4284  calldatasize() */\n      calldatasize\n        /* \"contracts/contracts/proxies/InitializeGovernedUpgradeabilityProxy.sol\":4267:4268  0 */\n      0x00\n        /* \"contracts/contracts/proxies/InitializeGovernedUpgradeabilityProxy.sol\":4264:4265  0 */\n      dup1\n        /* \"contracts/contracts/proxies/InitializeGovernedUpgradeabilityProxy.sol\":4251:4285  calldatacopy(0, 0, calldatasize()) */\n      calldatacopy\n        /* \"contracts/contracts/proxies/InitializeGovernedUpgradeabilityProxy.sol\":4479:4480  0 */\n      0x00\n        /* \"contracts/contracts/proxies/InitializeGovernedUpgradeabilityProxy.sol\":4476:4477  0 */\n      dup1\n        /* \"contracts/contracts/proxies/InitializeGovernedUpgradeabilityProxy.sol\":4460:4474  calldatasize() */\n      calldatasize\n        /* \"contracts/contracts/proxies/InitializeGovernedUpgradeabilityProxy.sol\":4457:4458  0 */\n      0x00\n        /* \"contracts/contracts/proxies/InitializeGovernedUpgradeabilityProxy.sol\":4450:4455  _impl */\n      dup5\n        /* \"contracts/contracts/proxies/InitializeGovernedUpgradeabilityProxy.sol\":4443:4448  gas() */\n      gas\n        /* \"contracts/contracts/proxies/InitializeGovernedUpgradeabilityProxy.sol\":4430:4481  delegatecall(gas(), _impl, 0, calldatasize(), 0, 0) */\n      delegatecall\n        /* \"contracts/contracts/proxies/InitializeGovernedUpgradeabilityProxy.sol\":4558:4574  returndatasize() */\n      returndatasize\n        /* \"contracts/contracts/proxies/InitializeGovernedUpgradeabilityProxy.sol\":4555:4556  0 */\n      0x00\n        /* \"contracts/contracts/proxies/InitializeGovernedUpgradeabilityProxy.sol\":4552:4553  0 */\n      dup1\n        /* \"contracts/contracts/proxies/InitializeGovernedUpgradeabilityProxy.sol\":4537:4575  returndatacopy(0, 0, returndatasize()) */\n      returndatacopy\n        /* \"contracts/contracts/proxies/InitializeGovernedUpgradeabilityProxy.sol\":4598:4604  result */\n      dup1\n        /* \"contracts/contracts/proxies/InitializeGovernedUpgradeabilityProxy.sol\":4667:4735  case 0 {\r... */\n      dup1\n      iszero\n      tag_135\n      jumpi\n        /* \"contracts/contracts/proxies/InitializeGovernedUpgradeabilityProxy.sol\":4786:4802  returndatasize() */\n      returndatasize\n        /* \"contracts/contracts/proxies/InitializeGovernedUpgradeabilityProxy.sol\":4783:4784  0 */\n      0x00\n        /* \"contracts/contracts/proxies/InitializeGovernedUpgradeabilityProxy.sol\":4776:4803  return(0, returndatasize()) */\n      return\n        /* \"contracts/contracts/proxies/InitializeGovernedUpgradeabilityProxy.sol\":4667:4735  case 0 {\r... */\n    tag_135:\n        /* \"contracts/contracts/proxies/InitializeGovernedUpgradeabilityProxy.sol\":4703:4719  returndatasize() */\n      returndatasize\n        /* \"contracts/contracts/proxies/InitializeGovernedUpgradeabilityProxy.sol\":4700:4701  0 */\n      0x00\n        /* \"contracts/contracts/proxies/InitializeGovernedUpgradeabilityProxy.sol\":4693:4720  revert(0, returndatasize()) */\n      revert\n        /* \"contracts/contracts/proxies/InitializeGovernedUpgradeabilityProxy.sol\":6136:6291  function _upgradeTo(address newImplementation) internal {\r... */\n    tag_72:\n        /* \"contracts/contracts/proxies/InitializeGovernedUpgradeabilityProxy.sol\":6203:6240  _setImplementation(newImplementation) */\n      tag_138\n        /* \"contracts/contracts/proxies/InitializeGovernedUpgradeabilityProxy.sol\":6222:6239  newImplementation */\n      dup2\n        /* \"contracts/contracts/proxies/InitializeGovernedUpgradeabilityProxy.sol\":6203:6221  _setImplementation */\n      tag_113\n        /* \"contracts/contracts/proxies/InitializeGovernedUpgradeabilityProxy.sol\":6203:6240  _setImplementation(newImplementation) */\n      jump\t// in\n    tag_138:\n        /* \"contracts/contracts/proxies/InitializeGovernedUpgradeabilityProxy.sol\":6256:6283  Upgraded(newImplementation) */\n      mload(0x40)\n      sub(shl(0xa0, 0x01), 0x01)\n      dup3\n      and\n      swap1\n      0xbc7cd75a20ee27fd9adebab32041f755214dbc6bffa90cc0225b39da2e5c2d3b\n      swap1\n      0x00\n      swap1\n      log2\n        /* \"contracts/contracts/proxies/InitializeGovernedUpgradeabilityProxy.sol\":6136:6291  function _upgradeTo(address newImplementation) internal {\r... */\n      pop\n      jump\t// out\n        /* \"contracts/contracts/governance/Governable.sol\":5225:5468  function _changeGovernor(address _newGovernor) internal {\r... */\n    tag_94:\n      sub(shl(0xa0, 0x01), 0x01)\n        /* \"contracts/contracts/governance/Governable.sol\":5300:5326  _newGovernor != address(0) */\n      dup2\n      and\n        /* \"contracts/contracts/governance/Governable.sol\":5292:5357  require(_newGovernor != address(0), \"New Governor is address(0)\") */\n      tag_141\n      jumpi\n      mload(0x40)\n      shl(0xe5, 0x461bcd)\n      dup2\n      mstore\n        /* \"#utility.yul\":4146:4148   */\n      0x20\n        /* \"contracts/contracts/governance/Governable.sol\":5292:5357  require(_newGovernor != address(0), \"New Governor is address(0)\") */\n      0x04\n      dup3\n      add\n        /* \"#utility.yul\":4128:4149   */\n      mstore\n        /* \"#utility.yul\":4185:4187   */\n      0x1a\n        /* \"#utility.yul\":4165:4183   */\n      0x24\n      dup3\n      add\n        /* \"#utility.yul\":4158:4188   */\n      mstore\n        /* \"#utility.yul\":4224:4252   */\n      0x4e657720476f7665726e6f722069732061646472657373283029000000000000\n        /* \"#utility.yul\":4204:4222   */\n      0x44\n      dup3\n      add\n        /* \"#utility.yul\":4197:4253   */\n      mstore\n        /* \"#utility.yul\":4270:4288   */\n      0x64\n      add\n        /* \"contracts/contracts/governance/Governable.sol\":5292:5357  require(_newGovernor != address(0), \"New Governor is address(0)\") */\n      tag_68\n        /* \"#utility.yul\":3944:4294   */\n      jump\n        /* \"contracts/contracts/governance/Governable.sol\":5292:5357  require(_newGovernor != address(0), \"New Governor is address(0)\") */\n    tag_141:\n        /* \"contracts/contracts/governance/Governable.sol\":5410:5422  _newGovernor */\n      dup1\n      sub(shl(0xa0, 0x01), 0x01)\n        /* \"contracts/contracts/governance/Governable.sol\":5373:5423  GovernorshipTransferred(_governor(), _newGovernor) */\n      and\n        /* \"contracts/contracts/governance/Governable.sol\":5397:5408  _governor() */\n      tag_144\n      0x00\n      dup1\n      mload\n      0x20\n      data_b21729280315b05b5209e280f80abc0024d9412a0bcfd98da242c4e2094faad4\n      dup4\n      codecopy\n      dup2\n      mload\n      swap2\n      mstore\n        /* \"contracts/contracts/governance/Governable.sol\":2006:2021  sload(position) */\n      sload\n      swap1\n        /* \"contracts/contracts/governance/Governable.sol\":1845:2039  function _governor() internal view returns (address governorOut) {\r... */\n      jump\n        /* \"contracts/contracts/governance/Governable.sol\":5397:5408  _governor() */\n    tag_144:\n      sub(shl(0xa0, 0x01), 0x01)\n        /* \"contracts/contracts/governance/Governable.sol\":5373:5423  GovernorshipTransferred(_governor(), _newGovernor) */\n      and\n      0xc7c0c772add429241571afb3805861fb3cfa2af374534088b76cdb4325a87e9a\n      mload(0x40)\n      mload(0x40)\n      dup1\n      swap2\n      sub\n      swap1\n      log3\n        /* \"contracts/contracts/governance/Governable.sol\":5434:5460  _setGovernor(_newGovernor) */\n      tag_71\n        /* \"contracts/contracts/governance/Governable.sol\":5447:5459  _newGovernor */\n      dup2\n      0x00\n      dup1\n      mload\n      0x20\n      data_b21729280315b05b5209e280f80abc0024d9412a0bcfd98da242c4e2094faad4\n      dup4\n      codecopy\n      dup2\n      mload\n      swap2\n      mstore\n        /* \"contracts/contracts/governance/Governable.sol\":2905:2934  sstore(position, newGovernor) */\n      sstore\n        /* \"contracts/contracts/governance/Governable.sol\":2772:2952  function _setGovernor(address newGovernor) internal {\r... */\n      jump\n        /* \"contracts/contracts/proxies/InitializeGovernedUpgradeabilityProxy.sol\":6444:6798  function _setImplementation(address newImplementation) internal {\r... */\n    tag_113:\n      sub(shl(0xa0, 0x01), 0x01)\n        /* \"@openzeppelin/contracts/utils/Address.sol\":1465:1484  account.code.length */\n      dup2\n      and\n      extcodesize\n        /* \"contracts/contracts/proxies/InitializeGovernedUpgradeabilityProxy.sol\":6519:6665  require(\r... */\n      tag_150\n      jumpi\n      mload(0x40)\n      shl(0xe5, 0x461bcd)\n      dup2\n      mstore\n        /* \"#utility.yul\":4501:4503   */\n      0x20\n        /* \"contracts/contracts/proxies/InitializeGovernedUpgradeabilityProxy.sol\":6519:6665  require(\r... */\n      0x04\n      dup3\n      add\n        /* \"#utility.yul\":4483:4504   */\n      mstore\n        /* \"#utility.yul\":4540:4542   */\n      0x3b\n        /* \"#utility.yul\":4520:4538   */\n      0x24\n      dup3\n      add\n        /* \"#utility.yul\":4513:4543   */\n      mstore\n        /* \"#utility.yul\":4579:4613   */\n      0x43616e6e6f742073657420612070726f787920696d706c656d656e746174696f\n        /* \"#utility.yul\":4559:4577   */\n      0x44\n      dup3\n      add\n        /* \"#utility.yul\":4552:4614   */\n      mstore\n        /* \"#utility.yul\":4650:4679   */\n      0x6e20746f2061206e6f6e2d636f6e747261637420616464726573730000000000\n        /* \"#utility.yul\":4630:4648   */\n      0x64\n      dup3\n      add\n        /* \"#utility.yul\":4623:4680   */\n      mstore\n        /* \"#utility.yul\":4697:4716   */\n      0x84\n      add\n        /* \"contracts/contracts/proxies/InitializeGovernedUpgradeabilityProxy.sol\":6519:6665  require(\r... */\n      tag_68\n        /* \"#utility.yul\":4299:4722   */\n      jump\n        /* \"contracts/contracts/proxies/InitializeGovernedUpgradeabilityProxy.sol\":6519:6665  require(\r... */\n    tag_150:\n      0x00\n      dup1\n      mload\n      0x20\n      data_75b20eef8615de99c108b05f0dbda081c91897128caa336d75dffb97c4132b4d\n      dup4\n      codecopy\n      dup2\n      mload\n      swap2\n      mstore\n        /* \"contracts/contracts/proxies/InitializeGovernedUpgradeabilityProxy.sol\":6749:6780  sstore(slot, newImplementation) */\n      sstore\n        /* \"contracts/contracts/proxies/InitializeGovernedUpgradeabilityProxy.sol\":6444:6798  function _setImplementation(address newImplementation) internal {\r... */\n      jump\t// out\n        /* \"#utility.yul\":14:187   */\n    tag_157:\n        /* \"#utility.yul\":82:102   */\n      dup1\n      calldataload\n      sub(shl(0xa0, 0x01), 0x01)\n        /* \"#utility.yul\":131:162   */\n      dup2\n      and\n        /* \"#utility.yul\":121:163   */\n      dup2\n      eq\n        /* \"#utility.yul\":111:181   */\n      tag_159\n      jumpi\n        /* \"#utility.yul\":177:178   */\n      0x00\n        /* \"#utility.yul\":174:175   */\n      dup1\n        /* \"#utility.yul\":167:179   */\n      revert\n        /* \"#utility.yul\":111:181   */\n    tag_159:\n        /* \"#utility.yul\":14:187   */\n      swap2\n      swap1\n      pop\n      jump\t// out\n        /* \"#utility.yul\":192:378   */\n    tag_25:\n        /* \"#utility.yul\":251:257   */\n      0x00\n        /* \"#utility.yul\":304:306   */\n      0x20\n        /* \"#utility.yul\":292:301   */\n      dup3\n        /* \"#utility.yul\":283:290   */\n      dup5\n        /* \"#utility.yul\":279:302   */\n      sub\n        /* \"#utility.yul\":275:307   */\n      slt\n        /* \"#utility.yul\":272:324   */\n      iszero\n      tag_161\n      jumpi\n        /* \"#utility.yul\":320:321   */\n      0x00\n        /* \"#utility.yul\":317:318   */\n      dup1\n        /* \"#utility.yul\":310:322   */\n      revert\n        /* \"#utility.yul\":272:324   */\n    tag_161:\n        /* \"#utility.yul\":343:372   */\n      tag_162\n        /* \"#utility.yul\":362:371   */\n      dup3\n        /* \"#utility.yul\":343:372   */\n      tag_157\n      jump\t// in\n    tag_162:\n        /* \"#utility.yul\":333:372   */\n      swap4\n        /* \"#utility.yul\":192:378   */\n      swap3\n      pop\n      pop\n      pop\n      jump\t// out\n        /* \"#utility.yul\":383:1452   */\n    tag_45:\n        /* \"#utility.yul\":469:475   */\n      0x00\n        /* \"#utility.yul\":477:483   */\n      dup1\n        /* \"#utility.yul\":485:491   */\n      0x00\n        /* \"#utility.yul\":538:540   */\n      0x60\n        /* \"#utility.yul\":526:535   */\n      dup5\n        /* \"#utility.yul\":517:524   */\n      dup7\n        /* \"#utility.yul\":513:536   */\n      sub\n        /* \"#utility.yul\":509:541   */\n      slt\n        /* \"#utility.yul\":506:558   */\n      iszero\n      tag_164\n      jumpi\n        /* \"#utility.yul\":554:555   */\n      0x00\n        /* \"#utility.yul\":551:552   */\n      dup1\n        /* \"#utility.yul\":544:556   */\n      revert\n        /* \"#utility.yul\":506:558   */\n    tag_164:\n        /* \"#utility.yul\":577:606   */\n      tag_165\n        /* \"#utility.yul\":596:605   */\n      dup5\n        /* \"#utility.yul\":577:606   */\n      tag_157\n      jump\t// in\n    tag_165:\n        /* \"#utility.yul\":567:606   */\n      swap3\n      pop\n        /* \"#utility.yul\":625:663   */\n      tag_166\n        /* \"#utility.yul\":659:661   */\n      0x20\n        /* \"#utility.yul\":648:657   */\n      dup6\n        /* \"#utility.yul\":644:662   */\n      add\n        /* \"#utility.yul\":625:663   */\n      tag_157\n      jump\t// in\n    tag_166:\n        /* \"#utility.yul\":615:663   */\n      swap2\n      pop\n        /* \"#utility.yul\":714:716   */\n      0x40\n        /* \"#utility.yul\":703:712   */\n      dup5\n        /* \"#utility.yul\":699:717   */\n      add\n        /* \"#utility.yul\":686:718   */\n      calldataload\n        /* \"#utility.yul\":737:755   */\n      0xffffffffffffffff\n        /* \"#utility.yul\":778:780   */\n      dup1\n        /* \"#utility.yul\":770:776   */\n      dup3\n        /* \"#utility.yul\":767:781   */\n      gt\n        /* \"#utility.yul\":764:798   */\n      iszero\n      tag_167\n      jumpi\n        /* \"#utility.yul\":794:795   */\n      0x00\n        /* \"#utility.yul\":791:792   */\n      dup1\n        /* \"#utility.yul\":784:796   */\n      revert\n        /* \"#utility.yul\":764:798   */\n    tag_167:\n        /* \"#utility.yul\":832:838   */\n      dup2\n        /* \"#utility.yul\":821:830   */\n      dup7\n        /* \"#utility.yul\":817:839   */\n      add\n        /* \"#utility.yul\":807:839   */\n      swap2\n      pop\n        /* \"#utility.yul\":877:884   */\n      dup7\n        /* \"#utility.yul\":870:874   */\n      0x1f\n        /* \"#utility.yul\":866:868   */\n      dup4\n        /* \"#utility.yul\":862:875   */\n      add\n        /* \"#utility.yul\":858:885   */\n      slt\n        /* \"#utility.yul\":848:903   */\n      tag_168\n      jumpi\n        /* \"#utility.yul\":899:900   */\n      0x00\n        /* \"#utility.yul\":896:897   */\n      dup1\n        /* \"#utility.yul\":889:901   */\n      revert\n        /* \"#utility.yul\":848:903   */\n    tag_168:\n        /* \"#utility.yul\":935:937   */\n      dup2\n        /* \"#utility.yul\":922:938   */\n      calldataload\n        /* \"#utility.yul\":957:959   */\n      dup2\n        /* \"#utility.yul\":953:955   */\n      dup2\n        /* \"#utility.yul\":950:960   */\n      gt\n        /* \"#utility.yul\":947:983   */\n      iszero\n      tag_170\n      jumpi\n        /* \"#utility.yul\":963:981   */\n      tag_170\n      tag_171\n      jump\t// in\n    tag_170:\n        /* \"#utility.yul\":1038:1040   */\n      0x40\n        /* \"#utility.yul\":1032:1041   */\n      mload\n        /* \"#utility.yul\":1006:1008   */\n      0x1f\n        /* \"#utility.yul\":1092:1105   */\n      dup3\n      add\n      not(0x1f)\n        /* \"#utility.yul\":1088:1110   */\n      swap1\n      dup2\n      and\n        /* \"#utility.yul\":1112:1114   */\n      0x3f\n        /* \"#utility.yul\":1084:1115   */\n      add\n        /* \"#utility.yul\":1080:1120   */\n      and\n        /* \"#utility.yul\":1068:1121   */\n      dup2\n      add\n      swap1\n        /* \"#utility.yul\":1136:1154   */\n      dup4\n      dup3\n      gt\n        /* \"#utility.yul\":1156:1178   */\n      dup2\n      dup4\n      lt\n        /* \"#utility.yul\":1133:1179   */\n      or\n        /* \"#utility.yul\":1130:1202   */\n      iszero\n      tag_173\n      jumpi\n        /* \"#utility.yul\":1182:1200   */\n      tag_173\n      tag_171\n      jump\t// in\n    tag_173:\n        /* \"#utility.yul\":1222:1232   */\n      dup2\n        /* \"#utility.yul\":1218:1220   */\n      0x40\n        /* \"#utility.yul\":1211:1233   */\n      mstore\n        /* \"#utility.yul\":1257:1259   */\n      dup3\n        /* \"#utility.yul\":1249:1255   */\n      dup2\n        /* \"#utility.yul\":1242:1260   */\n      mstore\n        /* \"#utility.yul\":1297:1304   */\n      dup10\n        /* \"#utility.yul\":1292:1294   */\n      0x20\n        /* \"#utility.yul\":1287:1289   */\n      dup5\n        /* \"#utility.yul\":1283:1285   */\n      dup8\n        /* \"#utility.yul\":1279:1290   */\n      add\n        /* \"#utility.yul\":1275:1295   */\n      add\n        /* \"#utility.yul\":1272:1305   */\n      gt\n        /* \"#utility.yul\":1269:1322   */\n      iszero\n      tag_174\n      jumpi\n        /* \"#utility.yul\":1318:1319   */\n      0x00\n        /* \"#utility.yul\":1315:1316   */\n      dup1\n        /* \"#utility.yul\":1308:1320   */\n      revert\n        /* \"#utility.yul\":1269:1322   */\n    tag_174:\n        /* \"#utility.yul\":1374:1376   */\n      dup3\n        /* \"#utility.yul\":1369:1371   */\n      0x20\n        /* \"#utility.yul\":1365:1367   */\n      dup7\n        /* \"#utility.yul\":1361:1372   */\n      add\n        /* \"#utility.yul\":1356:1358   */\n      0x20\n        /* \"#utility.yul\":1348:1354   */\n      dup4\n        /* \"#utility.yul\":1344:1359   */\n      add\n        /* \"#utility.yul\":1331:1377   */\n      calldatacopy\n        /* \"#utility.yul\":1419:1420   */\n      0x00\n        /* \"#utility.yul\":1414:1416   */\n      0x20\n        /* \"#utility.yul\":1409:1411   */\n      dup5\n        /* \"#utility.yul\":1401:1407   */\n      dup4\n        /* \"#utility.yul\":1397:1412   */\n      add\n        /* \"#utility.yul\":1393:1417   */\n      add\n        /* \"#utility.yul\":1386:1421   */\n      mstore\n        /* \"#utility.yul\":1440:1446   */\n      dup1\n        /* \"#utility.yul\":1430:1446   */\n      swap6\n      pop\n      pop\n      pop\n      pop\n      pop\n      pop\n        /* \"#utility.yul\":383:1452   */\n      swap3\n      pop\n      swap3\n      pop\n      swap3\n      jump\t// out\n        /* \"#utility.yul\":1457:2122   */\n    tag_29:\n        /* \"#utility.yul\":1536:1542   */\n      0x00\n        /* \"#utility.yul\":1544:1550   */\n      dup1\n        /* \"#utility.yul\":1552:1558   */\n      0x00\n        /* \"#utility.yul\":1605:1607   */\n      0x40\n        /* \"#utility.yul\":1593:1602   */\n      dup5\n        /* \"#utility.yul\":1584:1591   */\n      dup7\n        /* \"#utility.yul\":1580:1603   */\n      sub\n        /* \"#utility.yul\":1576:1608   */\n      slt\n        /* \"#utility.yul\":1573:1625   */\n      iszero\n      tag_176\n      jumpi\n        /* \"#utility.yul\":1621:1622   */\n      0x00\n        /* \"#utility.yul\":1618:1619   */\n      dup1\n        /* \"#utility.yul\":1611:1623   */\n      revert\n        /* \"#utility.yul\":1573:1625   */\n    tag_176:\n        /* \"#utility.yul\":1644:1673   */\n      tag_177\n        /* \"#utility.yul\":1663:1672   */\n      dup5\n        /* \"#utility.yul\":1644:1673   */\n      tag_157\n      jump\t// in\n    tag_177:\n        /* \"#utility.yul\":1634:1673   */\n      swap3\n      pop\n        /* \"#utility.yul\":1724:1726   */\n      0x20\n        /* \"#utility.yul\":1713:1722   */\n      dup5\n        /* \"#utility.yul\":1709:1727   */\n      add\n        /* \"#utility.yul\":1696:1728   */\n      calldataload\n        /* \"#utility.yul\":1747:1765   */\n      0xffffffffffffffff\n        /* \"#utility.yul\":1788:1790   */\n      dup1\n        /* \"#utility.yul\":1780:1786   */\n      dup3\n        /* \"#utility.yul\":1777:1791   */\n      gt\n        /* \"#utility.yul\":1774:1808   */\n      iszero\n      tag_178\n      jumpi\n        /* \"#utility.yul\":1804:1805   */\n      0x00\n        /* \"#utility.yul\":1801:1802   */\n      dup1\n        /* \"#utility.yul\":1794:1806   */\n      revert\n        /* \"#utility.yul\":1774:1808   */\n    tag_178:\n        /* \"#utility.yul\":1842:1848   */\n      dup2\n        /* \"#utility.yul\":1831:1840   */\n      dup7\n        /* \"#utility.yul\":1827:1849   */\n      add\n        /* \"#utility.yul\":1817:1849   */\n      swap2\n      pop\n        /* \"#utility.yul\":1887:1894   */\n      dup7\n        /* \"#utility.yul\":1880:1884   */\n      0x1f\n        /* \"#utility.yul\":1876:1878   */\n      dup4\n        /* \"#utility.yul\":1872:1885   */\n      add\n        /* \"#utility.yul\":1868:1895   */\n      slt\n        /* \"#utility.yul\":1858:1913   */\n      tag_179\n      jumpi\n        /* \"#utility.yul\":1909:1910   */\n      0x00\n        /* \"#utility.yul\":1906:1907   */\n      dup1\n        /* \"#utility.yul\":1899:1911   */\n      revert\n        /* \"#utility.yul\":1858:1913   */\n    tag_179:\n        /* \"#utility.yul\":1949:1951   */\n      dup2\n        /* \"#utility.yul\":1936:1952   */\n      calldataload\n        /* \"#utility.yul\":1975:1977   */\n      dup2\n        /* \"#utility.yul\":1967:1973   */\n      dup2\n        /* \"#utility.yul\":1964:1978   */\n      gt\n        /* \"#utility.yul\":1961:1995   */\n      iszero\n      tag_180\n      jumpi\n        /* \"#utility.yul\":1991:1992   */\n      0x00\n        /* \"#utility.yul\":1988:1989   */\n      dup1\n        /* \"#utility.yul\":1981:1993   */\n      revert\n        /* \"#utility.yul\":1961:1995   */\n    tag_180:\n        /* \"#utility.yul\":2036:2043   */\n      dup8\n        /* \"#utility.yul\":2031:2033   */\n      0x20\n        /* \"#utility.yul\":2022:2028   */\n      dup3\n        /* \"#utility.yul\":2018:2020   */\n      dup6\n        /* \"#utility.yul\":2014:2029   */\n      add\n        /* \"#utility.yul\":2010:2034   */\n      add\n        /* \"#utility.yul\":2007:2044   */\n      gt\n        /* \"#utility.yul\":2004:2061   */\n      iszero\n      tag_181\n      jumpi\n        /* \"#utility.yul\":2057:2058   */\n      0x00\n        /* \"#utility.yul\":2054:2055   */\n      dup1\n        /* \"#utility.yul\":2047:2059   */\n      revert\n        /* \"#utility.yul\":2004:2061   */\n    tag_181:\n        /* \"#utility.yul\":2088:2090   */\n      0x20\n        /* \"#utility.yul\":2084:2086   */\n      dup4\n        /* \"#utility.yul\":2080:2091   */\n      add\n        /* \"#utility.yul\":2070:2091   */\n      swap5\n      pop\n        /* \"#utility.yul\":2110:2116   */\n      dup1\n        /* \"#utility.yul\":2100:2116   */\n      swap4\n      pop\n      pop\n      pop\n      pop\n        /* \"#utility.yul\":1457:2122   */\n      swap3\n      pop\n      swap3\n      pop\n      swap3\n      jump\t// out\n        /* \"#utility.yul\":2127:2398   */\n    tag_80:\n        /* \"#utility.yul\":2310:2316   */\n      dup2\n        /* \"#utility.yul\":2302:2308   */\n      dup4\n        /* \"#utility.yul\":2297:2300   */\n      dup3\n        /* \"#utility.yul\":2284:2317   */\n      calldatacopy\n        /* \"#utility.yul\":2266:2269   */\n      0x00\n        /* \"#utility.yul\":2336:2352   */\n      swap2\n      add\n        /* \"#utility.yul\":2361:2374   */\n      swap1\n      dup2\n      mstore\n        /* \"#utility.yul\":2336:2352   */\n      swap2\n        /* \"#utility.yul\":2127:2398   */\n      swap1\n      pop\n      jump\t// out\n        /* \"#utility.yul\":2403:2829   */\n    tag_116:\n        /* \"#utility.yul\":2532:2535   */\n      0x00\n        /* \"#utility.yul\":2570:2576   */\n      dup3\n        /* \"#utility.yul\":2564:2577   */\n      mload\n        /* \"#utility.yul\":2595:2596   */\n      0x00\n        /* \"#utility.yul\":2605:2734   */\n    tag_184:\n        /* \"#utility.yul\":2619:2625   */\n      dup2\n        /* \"#utility.yul\":2616:2617   */\n      dup2\n        /* \"#utility.yul\":2613:2626   */\n      lt\n        /* \"#utility.yul\":2605:2734   */\n      iszero\n      tag_186\n      jumpi\n        /* \"#utility.yul\":2717:2721   */\n      0x20\n        /* \"#utility.yul\":2701:2715   */\n      dup2\n      dup7\n      add\n        /* \"#utility.yul\":2697:2722   */\n      dup2\n      add\n        /* \"#utility.yul\":2691:2723   */\n      mload\n        /* \"#utility.yul\":2678:2689   */\n      dup6\n      dup4\n      add\n        /* \"#utility.yul\":2671:2724   */\n      mstore\n        /* \"#utility.yul\":2634:2646   */\n      add\n        /* \"#utility.yul\":2605:2734   */\n      jump(tag_184)\n    tag_186:\n        /* \"#utility.yul\":2752:2758   */\n      dup2\n        /* \"#utility.yul\":2749:2750   */\n      dup2\n        /* \"#utility.yul\":2746:2759   */\n      gt\n        /* \"#utility.yul\":2743:2791   */\n      iszero\n      tag_187\n      jumpi\n        /* \"#utility.yul\":2787:2788   */\n      0x00\n        /* \"#utility.yul\":2778:2784   */\n      dup3\n        /* \"#utility.yul\":2773:2776   */\n      dup6\n        /* \"#utility.yul\":2769:2785   */\n      add\n        /* \"#utility.yul\":2762:2789   */\n      mstore\n        /* \"#utility.yul\":2743:2791   */\n    tag_187:\n      pop\n        /* \"#utility.yul\":2807:2823   */\n      swap2\n      swap1\n      swap2\n      add\n      swap3\n        /* \"#utility.yul\":2403:2829   */\n      swap2\n      pop\n      pop\n      jump\t// out\n        /* \"#utility.yul\":3234:3584   */\n    tag_69:\n        /* \"#utility.yul\":3436:3438   */\n      0x20\n        /* \"#utility.yul\":3418:3439   */\n      dup1\n      dup3\n      mstore\n        /* \"#utility.yul\":3475:3477   */\n      0x1a\n        /* \"#utility.yul\":3455:3473   */\n      swap1\n      dup3\n      add\n        /* \"#utility.yul\":3448:3478   */\n      mstore\n        /* \"#utility.yul\":3514:3542   */\n      0x43616c6c6572206973206e6f742074686520476f7665726e6f72000000000000\n        /* \"#utility.yul\":3509:3511   */\n      0x40\n        /* \"#utility.yul\":3494:3512   */\n      dup3\n      add\n        /* \"#utility.yul\":3487:3543   */\n      mstore\n        /* \"#utility.yul\":3575:3577   */\n      0x60\n        /* \"#utility.yul\":3560:3578   */\n      add\n      swap1\n        /* \"#utility.yul\":3234:3584   */\n      jump\t// out\n        /* \"#utility.yul\":5144:5366   */\n    tag_107:\n        /* \"#utility.yul\":5184:5188   */\n      0x00\n        /* \"#utility.yul\":5212:5213   */\n      dup3\n        /* \"#utility.yul\":5209:5210   */\n      dup3\n        /* \"#utility.yul\":5206:5214   */\n      lt\n        /* \"#utility.yul\":5203:5334   */\n      iszero\n      tag_196\n      jumpi\n        /* \"#utility.yul\":5256:5266   */\n      0x4e487b71\n        /* \"#utility.yul\":5251:5254   */\n      0xe0\n        /* \"#utility.yul\":5247:5267   */\n      shl\n        /* \"#utility.yul\":5244:5245   */\n      0x00\n        /* \"#utility.yul\":5237:5268   */\n      mstore\n        /* \"#utility.yul\":5291:5295   */\n      0x11\n        /* \"#utility.yul\":5288:5289   */\n      0x04\n        /* \"#utility.yul\":5281:5296   */\n      mstore\n        /* \"#utility.yul\":5319:5323   */\n      0x24\n        /* \"#utility.yul\":5316:5317   */\n      0x00\n        /* \"#utility.yul\":5309:5324   */\n      revert\n        /* \"#utility.yul\":5203:5334   */\n    tag_196:\n      pop\n        /* \"#utility.yul\":5351:5360   */\n      sub\n      swap1\n        /* \"#utility.yul\":5144:5366   */\n      jump\t// out\n        /* \"#utility.yul\":5371:5498   */\n    tag_110:\n        /* \"#utility.yul\":5432:5442   */\n      0x4e487b71\n        /* \"#utility.yul\":5427:5430   */\n      0xe0\n        /* \"#utility.yul\":5423:5443   */\n      shl\n        /* \"#utility.yul\":5420:5421   */\n      0x00\n        /* \"#utility.yul\":5413:5444   */\n      mstore\n        /* \"#utility.yul\":5463:5467   */\n      0x01\n        /* \"#utility.yul\":5460:5461   */\n      0x04\n        /* \"#utility.yul\":5453:5468   */\n      mstore\n        /* \"#utility.yul\":5487:5491   */\n      0x24\n        /* \"#utility.yul\":5484:5485   */\n      0x00\n        /* \"#utility.yul\":5477:5492   */\n      revert\n        /* \"#utility.yul\":5503:5630   */\n    tag_171:\n        /* \"#utility.yul\":5564:5574   */\n      0x4e487b71\n        /* \"#utility.yul\":5559:5562   */\n      0xe0\n        /* \"#utility.yul\":5555:5575   */\n      shl\n        /* \"#utility.yul\":5552:5553   */\n      0x00\n        /* \"#utility.yul\":5545:5576   */\n      mstore\n        /* \"#utility.yul\":5595:5599   */\n      0x41\n        /* \"#utility.yul\":5592:5593   */\n      0x04\n        /* \"#utility.yul\":5585:5600   */\n      mstore\n        /* \"#utility.yul\":5619:5623   */\n      0x24\n        /* \"#utility.yul\":5616:5617   */\n      0x00\n        /* \"#utility.yul\":5609:5624   */\n      revert\n    stop\n    data_75b20eef8615de99c108b05f0dbda081c91897128caa336d75dffb97c4132b4d 360894a13ba1a3210667c828492db98dca3e2076cc3735a920a3ca505d382bbc\n    data_b21729280315b05b5209e280f80abc0024d9412a0bcfd98da242c4e2094faad4 7bea13895fa79d2831e0a9e28edede30099005a50d652d8957cf8a607ee6ca4a\n\n    auxdata: 0xa26469706673582212200955d8d5d169546bd126b39b667e9518eb12a47803b48a36f91fb7dda8dcd9ae64736f6c63430008070033\n}\n",
				"bytecode": {
					"linkReferences": {},
					"object": "608060405234801561001057600080fd5b5061002733600080516020610a3983398151915255565b600080516020610a39833981519152546040516001600160a01b03909116906000907fc7c0c772add429241571afb3805861fb3cfa2af374534088b76cdb4325a87e9a908290a36109bc8061007d6000396000f3fe6080604052600436106100865760003560e01c80635d36b190116100595780635d36b1901461010a578063c7af33521461011f578063cf7a1d7714610144578063d38bfff414610157578063f851a4401461009057610086565b80630c340a24146100905780633659cfe6146100c25780634f1ef286146100e25780635c60da1b146100f5575b61008e610177565b005b34801561009c57600080fd5b506100a5610197565b6040516001600160a01b0390911681526020015b60405180910390f35b3480156100ce57600080fd5b5061008e6100dd3660046106fc565b6101b4565b61008e6100f03660046107f0565b6101ed565b34801561010157600080fd5b506100a561028a565b34801561011657600080fd5b5061008e6102a2565b34801561012b57600080fd5b50610134610346565b60405190151581526020016100b9565b61008e61015236600461071e565b610377565b34801561016357600080fd5b5061008e6101723660046106fc565b610488565b6101956101906000805160206109478339815191525490565b61052c565b565b60006101af6000805160206109678339815191525490565b905090565b6101bc610346565b6101e15760405162461bcd60e51b81526004016101d8906108be565b60405180910390fd5b6101ea81610550565b50565b6101f5610346565b6102115760405162461bcd60e51b81526004016101d8906108be565b61021a83610550565b6000836001600160a01b03168383604051610236929190610873565b600060405180830381855af49150503d8060008114610271576040519150601f19603f3d011682016040523d82523d6000602084013e610276565b606091505b505090508061028457600080fd5b50505050565b60006101af6000805160206109478339815191525490565b7f44c4d30b2eaad5130ad70c3ba6972730566f3e6359ab83e800d905c61b1c51db546001600160a01b0316336001600160a01b03161461033d5760405162461bcd60e51b815260206004820152603060248201527f4f6e6c79207468652070656e64696e6720476f7665726e6f722063616e20636f60448201526f6d706c6574652074686520636c61696d60801b60648201526084016101d8565b61019533610590565b600061035e6000805160206109678339815191525490565b6001600160a01b0316336001600160a01b031614905090565b61037f610346565b61039b5760405162461bcd60e51b81526004016101d8906108be565b60006103b36000805160206109478339815191525490565b6001600160a01b0316146104095760405162461bcd60e51b815260206004820152601a60248201527f696d706c656d656e746174696f6e20616c72656164792073657400000000000060448201526064016101d8565b61043460017f360894a13ba1a3210667c828492db98dca3e2076cc3735a920a3ca505d382bbd6108f5565b600080516020610947833981519152146104505761045061091a565b61045982610590565b61046283610651565b805115610483576000836001600160a01b0316826040516102369190610883565b505050565b610490610346565b6104ac5760405162461bcd60e51b81526004016101d8906108be565b6104d4817f44c4d30b2eaad5130ad70c3ba6972730566f3e6359ab83e800d905c61b1c51db55565b806001600160a01b03166104f46000805160206109678339815191525490565b6001600160a01b03167fa39cc5eb22d0f34d8beaefee8a3f17cc229c1a1d1ef87a5ad47313487b1c4f0d60405160405180910390a350565b3660008037600080366000845af43d6000803e80801561054b573d6000f35b3d6000fd5b61055981610651565b6040516001600160a01b038216907fbc7cd75a20ee27fd9adebab32041f755214dbc6bffa90cc0225b39da2e5c2d3b90600090a250565b6001600160a01b0381166105e65760405162461bcd60e51b815260206004820152601a60248201527f4e657720476f7665726e6f72206973206164647265737328302900000000000060448201526064016101d8565b806001600160a01b03166106066000805160206109678339815191525490565b6001600160a01b03167fc7c0c772add429241571afb3805861fb3cfa2af374534088b76cdb4325a87e9a60405160405180910390a36101ea8160008051602061096783398151915255565b6001600160a01b0381163b6106ce5760405162461bcd60e51b815260206004820152603b60248201527f43616e6e6f742073657420612070726f787920696d706c656d656e746174696f60448201527f6e20746f2061206e6f6e2d636f6e74726163742061646472657373000000000060648201526084016101d8565b60008051602061094783398151915255565b80356001600160a01b03811681146106f757600080fd5b919050565b60006020828403121561070e57600080fd5b610717826106e0565b9392505050565b60008060006060848603121561073357600080fd5b61073c846106e0565b925061074a602085016106e0565b9150604084013567ffffffffffffffff8082111561076757600080fd5b818601915086601f83011261077b57600080fd5b81358181111561078d5761078d610930565b604051601f8201601f19908116603f011681019083821181831017156107b5576107b5610930565b816040528281528960208487010111156107ce57600080fd5b8260208601602083013760006020848301015280955050505050509250925092565b60008060006040848603121561080557600080fd5b61080e846106e0565b9250602084013567ffffffffffffffff8082111561082b57600080fd5b818601915086601f83011261083f57600080fd5b81358181111561084e57600080fd5b87602082850101111561086057600080fd5b6020830194508093505050509250925092565b8183823760009101908152919050565b6000825160005b818110156108a4576020818601810151858301520161088a565b818111156108b3576000828501525b509190910192915050565b6020808252601a908201527f43616c6c6572206973206e6f742074686520476f7665726e6f72000000000000604082015260600190565b60008282101561091557634e487b7160e01b600052601160045260246000fd5b500390565b634e487b7160e01b600052600160045260246000fd5b634e487b7160e01b600052604160045260246000fdfe360894a13ba1a3210667c828492db98dca3e2076cc3735a920a3ca505d382bbc7bea13895fa79d2831e0a9e28edede30099005a50d652d8957cf8a607ee6ca4aa26469706673582212200955d8d5d169546bd126b39b667e9518eb12a47803b48a36f91fb7dda8dcd9ae64736f6c634300080700337bea13895fa79d2831e0a9e28edede30099005a50d652d8957cf8a607ee6ca4a",
					"opcodes": "PUSH1 0x80 PUSH1 0x40 MSTORE CALLVALUE DUP1 ISZERO PUSH2 0x10 JUMPI PUSH1 0x0 DUP1 REVERT JUMPDEST POP PUSH2 0x27 CALLER PUSH1 0x0 DUP1 MLOAD PUSH1 0x20 PUSH2 0xA39 DUP4 CODECOPY DUP2 MLOAD SWAP2 MSTORE SSTORE JUMP JUMPDEST PUSH1 0x0 DUP1 MLOAD PUSH1 0x20 PUSH2 0xA39 DUP4 CODECOPY DUP2 MLOAD SWAP2 MSTORE SLOAD PUSH1 0x40 MLOAD PUSH1 0x1 PUSH1 0x1 PUSH1 0xA0 SHL SUB SWAP1 SWAP2 AND SWAP1 PUSH1 0x0 SWAP1 PUSH32 0xC7C0C772ADD429241571AFB3805861FB3CFA2AF374534088B76CDB4325A87E9A SWAP1 DUP3 SWAP1 LOG3 PUSH2 0x9BC DUP1 PUSH2 0x7D PUSH1 0x0 CODECOPY PUSH1 0x0 RETURN INVALID PUSH1 0x80 PUSH1 0x40 MSTORE PUSH1 0x4 CALLDATASIZE LT PUSH2 0x86 JUMPI PUSH1 0x0 CALLDATALOAD PUSH1 0xE0 SHR DUP1 PUSH4 0x5D36B190 GT PUSH2 0x59 JUMPI DUP1 PUSH4 0x5D36B190 EQ PUSH2 0x10A JUMPI DUP1 PUSH4 0xC7AF3352 EQ PUSH2 0x11F JUMPI DUP1 PUSH4 0xCF7A1D77 EQ PUSH2 0x144 JUMPI DUP1 PUSH4 0xD38BFFF4 EQ PUSH2 0x157 JUMPI DUP1 PUSH4 0xF851A440 EQ PUSH2 0x90 JUMPI PUSH2 0x86 JUMP JUMPDEST DUP1 PUSH4 0xC340A24 EQ PUSH2 0x90 JUMPI DUP1 PUSH4 0x3659CFE6 EQ PUSH2 0xC2 JUMPI DUP1 PUSH4 0x4F1EF286 EQ PUSH2 0xE2 JUMPI DUP1 PUSH4 0x5C60DA1B EQ PUSH2 0xF5 JUMPI JUMPDEST PUSH2 0x8E PUSH2 0x177 JUMP JUMPDEST STOP JUMPDEST CALLVALUE DUP1 ISZERO PUSH2 0x9C JUMPI PUSH1 0x0 DUP1 REVERT JUMPDEST POP PUSH2 0xA5 PUSH2 0x197 JUMP JUMPDEST PUSH1 0x40 MLOAD PUSH1 0x1 PUSH1 0x1 PUSH1 0xA0 SHL SUB SWAP1 SWAP2 AND DUP2 MSTORE PUSH1 0x20 ADD JUMPDEST PUSH1 0x40 MLOAD DUP1 SWAP2 SUB SWAP1 RETURN JUMPDEST CALLVALUE DUP1 ISZERO PUSH2 0xCE JUMPI PUSH1 0x0 DUP1 REVERT JUMPDEST POP PUSH2 0x8E PUSH2 0xDD CALLDATASIZE PUSH1 0x4 PUSH2 0x6FC JUMP JUMPDEST PUSH2 0x1B4 JUMP JUMPDEST PUSH2 0x8E PUSH2 0xF0 CALLDATASIZE PUSH1 0x4 PUSH2 0x7F0 JUMP JUMPDEST PUSH2 0x1ED JUMP JUMPDEST CALLVALUE DUP1 ISZERO PUSH2 0x101 JUMPI PUSH1 0x0 DUP1 REVERT JUMPDEST POP PUSH2 0xA5 PUSH2 0x28A JUMP JUMPDEST CALLVALUE DUP1 ISZERO PUSH2 0x116 JUMPI PUSH1 0x0 DUP1 REVERT JUMPDEST POP PUSH2 0x8E PUSH2 0x2A2 JUMP JUMPDEST CALLVALUE DUP1 ISZERO PUSH2 0x12B JUMPI PUSH1 0x0 DUP1 REVERT JUMPDEST POP PUSH2 0x134 PUSH2 0x346 JUMP JUMPDEST PUSH1 0x40 MLOAD SWAP1 ISZERO ISZERO DUP2 MSTORE PUSH1 0x20 ADD PUSH2 0xB9 JUMP JUMPDEST PUSH2 0x8E PUSH2 0x152 CALLDATASIZE PUSH1 0x4 PUSH2 0x71E JUMP JUMPDEST PUSH2 0x377 JUMP JUMPDEST CALLVALUE DUP1 ISZERO PUSH2 0x163 JUMPI PUSH1 0x0 DUP1 REVERT JUMPDEST POP PUSH2 0x8E PUSH2 0x172 CALLDATASIZE PUSH1 0x4 PUSH2 0x6FC JUMP JUMPDEST PUSH2 0x488 JUMP JUMPDEST PUSH2 0x195 PUSH2 0x190 PUSH1 0x0 DUP1 MLOAD PUSH1 0x20 PUSH2 0x947 DUP4 CODECOPY DUP2 MLOAD SWAP2 MSTORE SLOAD SWAP1 JUMP JUMPDEST PUSH2 0x52C JUMP JUMPDEST JUMP JUMPDEST PUSH1 0x0 PUSH2 0x1AF PUSH1 0x0 DUP1 MLOAD PUSH1 0x20 PUSH2 0x967 DUP4 CODECOPY DUP2 MLOAD SWAP2 MSTORE SLOAD SWAP1 JUMP JUMPDEST SWAP1 POP SWAP1 JUMP JUMPDEST PUSH2 0x1BC PUSH2 0x346 JUMP JUMPDEST PUSH2 0x1E1 JUMPI PUSH1 0x40 MLOAD PUSH3 0x461BCD PUSH1 0xE5 SHL DUP2 MSTORE PUSH1 0x4 ADD PUSH2 0x1D8 SWAP1 PUSH2 0x8BE JUMP JUMPDEST PUSH1 0x40 MLOAD DUP1 SWAP2 SUB SWAP1 REVERT JUMPDEST PUSH2 0x1EA DUP2 PUSH2 0x550 JUMP JUMPDEST POP JUMP JUMPDEST PUSH2 0x1F5 PUSH2 0x346 JUMP JUMPDEST PUSH2 0x211 JUMPI PUSH1 0x40 MLOAD PUSH3 0x461BCD PUSH1 0xE5 SHL DUP2 MSTORE PUSH1 0x4 ADD PUSH2 0x1D8 SWAP1 PUSH2 0x8BE JUMP JUMPDEST PUSH2 0x21A DUP4 PUSH2 0x550 JUMP JUMPDEST PUSH1 0x0 DUP4 PUSH1 0x1 PUSH1 0x1 PUSH1 0xA0 SHL SUB AND DUP4 DUP4 PUSH1 0x40 MLOAD PUSH2 0x236 SWAP3 SWAP2 SWAP1 PUSH2 0x873 JUMP JUMPDEST PUSH1 0x0 PUSH1 0x40 MLOAD DUP1 DUP4 SUB DUP2 DUP6 GAS DELEGATECALL SWAP2 POP POP RETURNDATASIZE DUP1 PUSH1 0x0 DUP2 EQ PUSH2 0x271 JUMPI PUSH1 0x40 MLOAD SWAP2 POP PUSH1 0x1F NOT PUSH1 0x3F RETURNDATASIZE ADD AND DUP3 ADD PUSH1 0x40 MSTORE RETURNDATASIZE DUP3 MSTORE RETURNDATASIZE PUSH1 0x0 PUSH1 0x20 DUP5 ADD RETURNDATACOPY PUSH2 0x276 JUMP JUMPDEST PUSH1 0x60 SWAP2 POP JUMPDEST POP POP SWAP1 POP DUP1 PUSH2 0x284 JUMPI PUSH1 0x0 DUP1 REVERT JUMPDEST POP POP POP POP JUMP JUMPDEST PUSH1 0x0 PUSH2 0x1AF PUSH1 0x0 DUP1 MLOAD PUSH1 0x20 PUSH2 0x947 DUP4 CODECOPY DUP2 MLOAD SWAP2 MSTORE SLOAD SWAP1 JUMP JUMPDEST PUSH32 0x44C4D30B2EAAD5130AD70C3BA6972730566F3E6359AB83E800D905C61B1C51DB SLOAD PUSH1 0x1 PUSH1 0x1 PUSH1 0xA0 SHL SUB AND CALLER PUSH1 0x1 PUSH1 0x1 PUSH1 0xA0 SHL SUB AND EQ PUSH2 0x33D JUMPI PUSH1 0x40 MLOAD PUSH3 0x461BCD PUSH1 0xE5 SHL DUP2 MSTORE PUSH1 0x20 PUSH1 0x4 DUP3 ADD MSTORE PUSH1 0x30 PUSH1 0x24 DUP3 ADD MSTORE PUSH32 0x4F6E6C79207468652070656E64696E6720476F7665726E6F722063616E20636F PUSH1 0x44 DUP3 ADD MSTORE PUSH16 0x6D706C6574652074686520636C61696D PUSH1 0x80 SHL PUSH1 0x64 DUP3 ADD MSTORE PUSH1 0x84 ADD PUSH2 0x1D8 JUMP JUMPDEST PUSH2 0x195 CALLER PUSH2 0x590 JUMP JUMPDEST PUSH1 0x0 PUSH2 0x35E PUSH1 0x0 DUP1 MLOAD PUSH1 0x20 PUSH2 0x967 DUP4 CODECOPY DUP2 MLOAD SWAP2 MSTORE SLOAD SWAP1 JUMP JUMPDEST PUSH1 0x1 PUSH1 0x1 PUSH1 0xA0 SHL SUB AND CALLER PUSH1 0x1 PUSH1 0x1 PUSH1 0xA0 SHL SUB AND EQ SWAP1 POP SWAP1 JUMP JUMPDEST PUSH2 0x37F PUSH2 0x346 JUMP JUMPDEST PUSH2 0x39B JUMPI PUSH1 0x40 MLOAD PUSH3 0x461BCD PUSH1 0xE5 SHL DUP2 MSTORE PUSH1 0x4 ADD PUSH2 0x1D8 SWAP1 PUSH2 0x8BE JUMP JUMPDEST PUSH1 0x0 PUSH2 0x3B3 PUSH1 0x0 DUP1 MLOAD PUSH1 0x20 PUSH2 0x947 DUP4 CODECOPY DUP2 MLOAD SWAP2 MSTORE SLOAD SWAP1 JUMP JUMPDEST PUSH1 0x1 PUSH1 0x1 PUSH1 0xA0 SHL SUB AND EQ PUSH2 0x409 JUMPI PUSH1 0x40 MLOAD PUSH3 0x461BCD PUSH1 0xE5 SHL DUP2 MSTORE PUSH1 0x20 PUSH1 0x4 DUP3 ADD MSTORE PUSH1 0x1A PUSH1 0x24 DUP3 ADD MSTORE PUSH32 0x696D706C656D656E746174696F6E20616C726561647920736574000000000000 PUSH1 0x44 DUP3 ADD MSTORE PUSH1 0x64 ADD PUSH2 0x1D8 JUMP JUMPDEST PUSH2 0x434 PUSH1 0x1 PUSH32 0x360894A13BA1A3210667C828492DB98DCA3E2076CC3735A920A3CA505D382BBD PUSH2 0x8F5 JUMP JUMPDEST PUSH1 0x0 DUP1 MLOAD PUSH1 0x20 PUSH2 0x947 DUP4 CODECOPY DUP2 MLOAD SWAP2 MSTORE EQ PUSH2 0x450 JUMPI PUSH2 0x450 PUSH2 0x91A JUMP JUMPDEST PUSH2 0x459 DUP3 PUSH2 0x590 JUMP JUMPDEST PUSH2 0x462 DUP4 PUSH2 0x651 JUMP JUMPDEST DUP1 MLOAD ISZERO PUSH2 0x483 JUMPI PUSH1 0x0 DUP4 PUSH1 0x1 PUSH1 0x1 PUSH1 0xA0 SHL SUB AND DUP3 PUSH1 0x40 MLOAD PUSH2 0x236 SWAP2 SWAP1 PUSH2 0x883 JUMP JUMPDEST POP POP POP JUMP JUMPDEST PUSH2 0x490 PUSH2 0x346 JUMP JUMPDEST PUSH2 0x4AC JUMPI PUSH1 0x40 MLOAD PUSH3 0x461BCD PUSH1 0xE5 SHL DUP2 MSTORE PUSH1 0x4 ADD PUSH2 0x1D8 SWAP1 PUSH2 0x8BE JUMP JUMPDEST PUSH2 0x4D4 DUP2 PUSH32 0x44C4D30B2EAAD5130AD70C3BA6972730566F3E6359AB83E800D905C61B1C51DB SSTORE JUMP JUMPDEST DUP1 PUSH1 0x1 PUSH1 0x1 PUSH1 0xA0 SHL SUB AND PUSH2 0x4F4 PUSH1 0x0 DUP1 MLOAD PUSH1 0x20 PUSH2 0x967 DUP4 CODECOPY DUP2 MLOAD SWAP2 MSTORE SLOAD SWAP1 JUMP JUMPDEST PUSH1 0x1 PUSH1 0x1 PUSH1 0xA0 SHL SUB AND PUSH32 0xA39CC5EB22D0F34D8BEAEFEE8A3F17CC229C1A1D1EF87A5AD47313487B1C4F0D PUSH1 0x40 MLOAD PUSH1 0x40 MLOAD DUP1 SWAP2 SUB SWAP1 LOG3 POP JUMP JUMPDEST CALLDATASIZE PUSH1 0x0 DUP1 CALLDATACOPY PUSH1 0x0 DUP1 CALLDATASIZE PUSH1 0x0 DUP5 GAS DELEGATECALL RETURNDATASIZE PUSH1 0x0 DUP1 RETURNDATACOPY DUP1 DUP1 ISZERO PUSH2 0x54B JUMPI RETURNDATASIZE PUSH1 0x0 RETURN JUMPDEST RETURNDATASIZE PUSH1 0x0 REVERT JUMPDEST PUSH2 0x559 DUP2 PUSH2 0x651 JUMP JUMPDEST PUSH1 0x40 MLOAD PUSH1 0x1 PUSH1 0x1 PUSH1 0xA0 SHL SUB DUP3 AND SWAP1 PUSH32 0xBC7CD75A20EE27FD9ADEBAB32041F755214DBC6BFFA90CC0225B39DA2E5C2D3B SWAP1 PUSH1 0x0 SWAP1 LOG2 POP JUMP JUMPDEST PUSH1 0x1 PUSH1 0x1 PUSH1 0xA0 SHL SUB DUP2 AND PUSH2 0x5E6 JUMPI PUSH1 0x40 MLOAD PUSH3 0x461BCD PUSH1 0xE5 SHL DUP2 MSTORE PUSH1 0x20 PUSH1 0x4 DUP3 ADD MSTORE PUSH1 0x1A PUSH1 0x24 DUP3 ADD MSTORE PUSH32 0x4E657720476F7665726E6F722069732061646472657373283029000000000000 PUSH1 0x44 DUP3 ADD MSTORE PUSH1 0x64 ADD PUSH2 0x1D8 JUMP JUMPDEST DUP1 PUSH1 0x1 PUSH1 0x1 PUSH1 0xA0 SHL SUB AND PUSH2 0x606 PUSH1 0x0 DUP1 MLOAD PUSH1 0x20 PUSH2 0x967 DUP4 CODECOPY DUP2 MLOAD SWAP2 MSTORE SLOAD SWAP1 JUMP JUMPDEST PUSH1 0x1 PUSH1 0x1 PUSH1 0xA0 SHL SUB AND PUSH32 0xC7C0C772ADD429241571AFB3805861FB3CFA2AF374534088B76CDB4325A87E9A PUSH1 0x40 MLOAD PUSH1 0x40 MLOAD DUP1 SWAP2 SUB SWAP1 LOG3 PUSH2 0x1EA DUP2 PUSH1 0x0 DUP1 MLOAD PUSH1 0x20 PUSH2 0x967 DUP4 CODECOPY DUP2 MLOAD SWAP2 MSTORE SSTORE JUMP JUMPDEST PUSH1 0x1 PUSH1 0x1 PUSH1 0xA0 SHL SUB DUP2 AND EXTCODESIZE PUSH2 0x6CE JUMPI PUSH1 0x40 MLOAD PUSH3 0x461BCD PUSH1 0xE5 SHL DUP2 MSTORE PUSH1 0x20 PUSH1 0x4 DUP3 ADD MSTORE PUSH1 0x3B PUSH1 0x24 DUP3 ADD MSTORE PUSH32 0x43616E6E6F742073657420612070726F787920696D706C656D656E746174696F PUSH1 0x44 DUP3 ADD MSTORE PUSH32 0x6E20746F2061206E6F6E2D636F6E747261637420616464726573730000000000 PUSH1 0x64 DUP3 ADD MSTORE PUSH1 0x84 ADD PUSH2 0x1D8 JUMP JUMPDEST PUSH1 0x0 DUP1 MLOAD PUSH1 0x20 PUSH2 0x947 DUP4 CODECOPY DUP2 MLOAD SWAP2 MSTORE SSTORE JUMP JUMPDEST DUP1 CALLDATALOAD PUSH1 0x1 PUSH1 0x1 PUSH1 0xA0 SHL SUB DUP2 AND DUP2 EQ PUSH2 0x6F7 JUMPI PUSH1 0x0 DUP1 REVERT JUMPDEST SWAP2 SWAP1 POP JUMP JUMPDEST PUSH1 0x0 PUSH1 0x20 DUP3 DUP5 SUB SLT ISZERO PUSH2 0x70E JUMPI PUSH1 0x0 DUP1 REVERT JUMPDEST PUSH2 0x717 DUP3 PUSH2 0x6E0 JUMP JUMPDEST SWAP4 SWAP3 POP POP POP JUMP JUMPDEST PUSH1 0x0 DUP1 PUSH1 0x0 PUSH1 0x60 DUP5 DUP7 SUB SLT ISZERO PUSH2 0x733 JUMPI PUSH1 0x0 DUP1 REVERT JUMPDEST PUSH2 0x73C DUP5 PUSH2 0x6E0 JUMP JUMPDEST SWAP3 POP PUSH2 0x74A PUSH1 0x20 DUP6 ADD PUSH2 0x6E0 JUMP JUMPDEST SWAP2 POP PUSH1 0x40 DUP5 ADD CALLDATALOAD PUSH8 0xFFFFFFFFFFFFFFFF DUP1 DUP3 GT ISZERO PUSH2 0x767 JUMPI PUSH1 0x0 DUP1 REVERT JUMPDEST DUP2 DUP7 ADD SWAP2 POP DUP7 PUSH1 0x1F DUP4 ADD SLT PUSH2 0x77B JUMPI PUSH1 0x0 DUP1 REVERT JUMPDEST DUP2 CALLDATALOAD DUP2 DUP2 GT ISZERO PUSH2 0x78D JUMPI PUSH2 0x78D PUSH2 0x930 JUMP JUMPDEST PUSH1 0x40 MLOAD PUSH1 0x1F DUP3 ADD PUSH1 0x1F NOT SWAP1 DUP2 AND PUSH1 0x3F ADD AND DUP2 ADD SWAP1 DUP4 DUP3 GT DUP2 DUP4 LT OR ISZERO PUSH2 0x7B5 JUMPI PUSH2 0x7B5 PUSH2 0x930 JUMP JUMPDEST DUP2 PUSH1 0x40 MSTORE DUP3 DUP2 MSTORE DUP10 PUSH1 0x20 DUP5 DUP8 ADD ADD GT ISZERO PUSH2 0x7CE JUMPI PUSH1 0x0 DUP1 REVERT JUMPDEST DUP3 PUSH1 0x20 DUP7 ADD PUSH1 0x20 DUP4 ADD CALLDATACOPY PUSH1 0x0 PUSH1 0x20 DUP5 DUP4 ADD ADD MSTORE DUP1 SWAP6 POP POP POP POP POP POP SWAP3 POP SWAP3 POP SWAP3 JUMP JUMPDEST PUSH1 0x0 DUP1 PUSH1 0x0 PUSH1 0x40 DUP5 DUP7 SUB SLT ISZERO PUSH2 0x805 JUMPI PUSH1 0x0 DUP1 REVERT JUMPDEST PUSH2 0x80E DUP5 PUSH2 0x6E0 JUMP JUMPDEST SWAP3 POP PUSH1 0x20 DUP5 ADD CALLDATALOAD PUSH8 0xFFFFFFFFFFFFFFFF DUP1 DUP3 GT ISZERO PUSH2 0x82B JUMPI PUSH1 0x0 DUP1 REVERT JUMPDEST DUP2 DUP7 ADD SWAP2 POP DUP7 PUSH1 0x1F DUP4 ADD SLT PUSH2 0x83F JUMPI PUSH1 0x0 DUP1 REVERT JUMPDEST DUP2 CALLDATALOAD DUP2 DUP2 GT ISZERO PUSH2 0x84E JUMPI PUSH1 0x0 DUP1 REVERT JUMPDEST DUP8 PUSH1 0x20 DUP3 DUP6 ADD ADD GT ISZERO PUSH2 0x860 JUMPI PUSH1 0x0 DUP1 REVERT JUMPDEST PUSH1 0x20 DUP4 ADD SWAP5 POP DUP1 SWAP4 POP POP POP POP SWAP3 POP SWAP3 POP SWAP3 JUMP JUMPDEST DUP2 DUP4 DUP3 CALLDATACOPY PUSH1 0x0 SWAP2 ADD SWAP1 DUP2 MSTORE SWAP2 SWAP1 POP JUMP JUMPDEST PUSH1 0x0 DUP3 MLOAD PUSH1 0x0 JUMPDEST DUP2 DUP2 LT ISZERO PUSH2 0x8A4 JUMPI PUSH1 0x20 DUP2 DUP7 ADD DUP2 ADD MLOAD DUP6 DUP4 ADD MSTORE ADD PUSH2 0x88A JUMP JUMPDEST DUP2 DUP2 GT ISZERO PUSH2 0x8B3 JUMPI PUSH1 0x0 DUP3 DUP6 ADD MSTORE JUMPDEST POP SWAP2 SWAP1 SWAP2 ADD SWAP3 SWAP2 POP POP JUMP JUMPDEST PUSH1 0x20 DUP1 DUP3 MSTORE PUSH1 0x1A SWAP1 DUP3 ADD MSTORE PUSH32 0x43616C6C6572206973206E6F742074686520476F7665726E6F72000000000000 PUSH1 0x40 DUP3 ADD MSTORE PUSH1 0x60 ADD SWAP1 JUMP JUMPDEST PUSH1 0x0 DUP3 DUP3 LT ISZERO PUSH2 0x915 JUMPI PUSH4 0x4E487B71 PUSH1 0xE0 SHL PUSH1 0x0 MSTORE PUSH1 0x11 PUSH1 0x4 MSTORE PUSH1 0x24 PUSH1 0x0 REVERT JUMPDEST POP SUB SWAP1 JUMP JUMPDEST PUSH4 0x4E487B71 PUSH1 0xE0 SHL PUSH1 0x0 MSTORE PUSH1 0x1 PUSH1 0x4 MSTORE PUSH1 0x24 PUSH1 0x0 REVERT JUMPDEST PUSH4 0x4E487B71 PUSH1 0xE0 SHL PUSH1 0x0 MSTORE PUSH1 0x41 PUSH1 0x4 MSTORE PUSH1 0x24 PUSH1 0x0 REVERT INVALID CALLDATASIZE ADDMOD SWAP5 LOG1 EXTCODESIZE LOG1 LOG3 0x21 MOD PUSH8 0xC828492DB98DCA3E KECCAK256 PUSH23 0xCC3735A920A3CA505D382BBC7BEA13895FA79D2831E0A9 0xE2 DUP15 0xDE 0xDE ADDRESS MULMOD SWAP1 SDIV 0xA5 0xD PUSH6 0x2D8957CF8A60 PUSH31 0xE6CA4AA26469706673582212200955D8D5D169546BD126B39B667E9518EB12 LOG4 PUSH25 0x3B48A36F91FB7DDA8DCD9AE64736F6C634300080700337BEA SGT DUP10 0x5F 0xA7 SWAP14 0x28 BALANCE 0xE0 0xA9 0xE2 DUP15 0xDE 0xDE ADDRESS MULMOD SWAP1 SDIV 0xA5 0xD PUSH6 0x2D8957CF8A60 PUSH31 0xE6CA4A00000000000000000000000000000000000000000000000000000000 "
				},
				"gasEstimates": {
					"creation": {
						"codeDepositCost": "498400",
						"executionCost": "26367",
						"totalCost": "524767"
					},
					"external": {
						"": "infinite",
						"admin()": "infinite",
						"claimGovernance()": "28233",
						"governor()": "infinite",
						"implementation()": "infinite",
						"initialize(address,address,bytes)": "infinite",
						"isGovernor()": "infinite",
						"transferGovernance(address)": "infinite",
						"upgradeTo(address)": "infinite",
						"upgradeToAndCall(address,bytes)": "infinite"
					},
					"internal": {
						"_delegate(address)": "infinite",
						"_fallback()": "infinite",
						"_implementation()": "infinite",
						"_setImplementation(address)": "infinite",
						"_upgradeTo(address)": "infinite",
						"_willFallback()": "infinite"
					}
				},
				"methodIdentifiers": {
					"admin()": "f851a440",
					"claimGovernance()": "5d36b190",
					"governor()": "0c340a24",
					"implementation()": "5c60da1b",
					"initialize(address,address,bytes)": "cf7a1d77",
					"isGovernor()": "c7af3352",
					"transferGovernance(address)": "d38bfff4",
					"upgradeTo(address)": "3659cfe6",
					"upgradeToAndCall(address,bytes)": "4f1ef286"
				}
			},
			"storageLayout": {
				"storage": [],
				"types": null
			},
			"userdoc": {
				"kind": "user",
				"methods": {},
				"version": 1
			}
		}
	}
}