{
	"contracts/contracts/governance/Governable.sol": {
		"Governable": {
			"abi": [
				{
					"inputs": [],
					"stateMutability": "nonpayable",
					"type": "constructor"
				},
				{
					"anonymous": false,
					"inputs": [
						{
							"indexed": true,
							"internalType": "address",
							"name": "previousGovernor",
							"type": "address"
						},
						{
							"indexed": true,
							"internalType": "address",
							"name": "newGovernor",
							"type": "address"
						}
					],
					"name": "GovernorshipTransferred",
					"type": "event"
				},
				{
					"anonymous": false,
					"inputs": [
						{
							"indexed": true,
							"internalType": "address",
							"name": "previousGovernor",
							"type": "address"
						},
						{
							"indexed": true,
							"internalType": "address",
							"name": "newGovernor",
							"type": "address"
						}
					],
					"name": "PendingGovernorshipTransfer",
					"type": "event"
				},
				{
					"inputs": [],
					"name": "claimGovernance",
					"outputs": [],
					"stateMutability": "nonpayable",
					"type": "function"
				},
				{
					"inputs": [],
					"name": "governor",
					"outputs": [
						{
							"internalType": "address",
							"name": "",
							"type": "address"
						}
					],
					"stateMutability": "view",
					"type": "function"
				},
				{
					"inputs": [],
					"name": "isGovernor",
					"outputs": [
						{
							"internalType": "bool",
							"name": "",
							"type": "bool"
						}
					],
					"stateMutability": "view",
					"type": "function"
				},
				{
					"inputs": [
						{
							"internalType": "address",
							"name": "_newGovernor",
							"type": "address"
						}
					],
					"name": "transferGovernance",
					"outputs": [],
					"stateMutability": "nonpayable",
					"type": "function"
				}
			],
			"devdoc": {
				"author": "Origin Protocol Inc",
				"details": "Copy of the openzeppelin Ownable.sol contract with nomenclature change      from owner to governor and renounce methods removed. Does not use      Context.sol like Ownable.sol does for simplification.",
				"kind": "dev",
				"methods": {
					"claimGovernance()": {
						"details": "Claim Governance of the contract to a new account (`newGovernor`). Can only be called by the new Governor."
					},
					"constructor": {
						"details": "Initializes the contract setting the deployer as the initial Governor."
					},
					"governor()": {
						"details": "Returns the address of the current Governor."
					},
					"isGovernor()": {
						"details": "Returns true if the caller is the current Governor."
					},
					"transferGovernance(address)": {
						"details": "Transfers Governance of the contract to a new account (`newGovernor`). Can only be called by the current Governor. Must be claimed for this to complete",
						"params": {
							"_newGovernor": "Address of the new Governor"
						}
					}
				},
				"title": "OUSD Governable Contract",
				"version": 1
			},
			"evm": {
				"assembly": "    /* \"contracts/contracts/governance/Governable.sol\":361:5471  contract Governable {\r... */\n  mstore(0x40, 0x80)\n    /* \"contracts/contracts/governance/Governable.sol\":1469:1590  constructor() {\r... */\n  callvalue\n  dup1\n  iszero\n  tag_1\n  jumpi\n  0x00\n  dup1\n  revert\ntag_1:\n  pop\n    /* \"contracts/contracts/governance/Governable.sol\":1494:1518  _setGovernor(msg.sender) */\n  tag_4\n    /* \"contracts/contracts/governance/Governable.sol\":1507:1517  msg.sender */\n  caller\n  0x00\n  dup1\n  mload\n  0x20\n  data_b21729280315b05b5209e280f80abc0024d9412a0bcfd98da242c4e2094faad4\n  dup4\n  codecopy\n  dup2\n  mload\n  swap2\n  mstore\n    /* \"contracts/contracts/governance/Governable.sol\":2905:2934  sstore(position, newGovernor) */\n  sstore\n    /* \"contracts/contracts/governance/Governable.sol\":2772:2952  function _setGovernor(address newGovernor) internal {\r... */\n  jump\n    /* \"contracts/contracts/governance/Governable.sol\":1494:1518  _setGovernor(msg.sender) */\ntag_4:\n  0x00\n  dup1\n  mload\n  0x20\n  data_b21729280315b05b5209e280f80abc0024d9412a0bcfd98da242c4e2094faad4\n  dup4\n  codecopy\n  dup2\n  mload\n  swap2\n  mstore\n    /* \"contracts/contracts/governance/Governable.sol\":2006:2021  sload(position) */\n  sload\n    /* \"contracts/contracts/governance/Governable.sol\":1534:1582  GovernorshipTransferred(address(0), _governor()) */\n  mload(0x40)\n  sub(shl(0xa0, 0x01), 0x01)\n  swap1\n  swap2\n  and\n  swap1\n    /* \"contracts/contracts/governance/Governable.sol\":1566:1567  0 */\n  0x00\n  swap1\n    /* \"contracts/contracts/governance/Governable.sol\":1534:1582  GovernorshipTransferred(address(0), _governor()) */\n  0xc7c0c772add429241571afb3805861fb3cfa2af374534088b76cdb4325a87e9a\n  swap1\n    /* \"contracts/contracts/governance/Governable.sol\":1566:1567  0 */\n  dup3\n  swap1\n    /* \"contracts/contracts/governance/Governable.sol\":1534:1582  GovernorshipTransferred(address(0), _governor()) */\n  log3\n    /* \"contracts/contracts/governance/Governable.sol\":361:5471  contract Governable {\r... */\n  dataSize(sub_0)\n  dup1\n  dataOffset(sub_0)\n  0x00\n  codecopy\n  0x00\n  return\nstop\ndata_b21729280315b05b5209e280f80abc0024d9412a0bcfd98da242c4e2094faad4 7bea13895fa79d2831e0a9e28edede30099005a50d652d8957cf8a607ee6ca4a\n\nsub_0: assembly {\n        /* \"contracts/contracts/governance/Governable.sol\":361:5471  contract Governable {\r... */\n      mstore(0x40, 0x80)\n      callvalue\n      dup1\n      iszero\n      tag_1\n      jumpi\n      0x00\n      dup1\n      revert\n    tag_1:\n      pop\n      jumpi(tag_2, lt(calldatasize, 0x04))\n      shr(0xe0, calldataload(0x00))\n      dup1\n      0x0c340a24\n      eq\n      tag_3\n      jumpi\n      dup1\n      0x5d36b190\n      eq\n      tag_4\n      jumpi\n      dup1\n      0xc7af3352\n      eq\n      tag_5\n      jumpi\n      dup1\n      0xd38bfff4\n      eq\n      tag_6\n      jumpi\n    tag_2:\n      0x00\n      dup1\n      revert\n        /* \"contracts/contracts/governance/Governable.sol\":1674:1761  function governor() public view returns (address) {\r... */\n    tag_3:\n      tag_7\n      tag_8\n      jump\t// in\n    tag_7:\n      mload(0x40)\n      sub(shl(0xa0, 0x01), 0x01)\n        /* \"#utility.yul\":469:501   */\n      swap1\n      swap2\n      and\n        /* \"#utility.yul\":451:502   */\n      dup2\n      mstore\n        /* \"#utility.yul\":439:441   */\n      0x20\n        /* \"#utility.yul\":424:442   */\n      add\n        /* \"contracts/contracts/governance/Governable.sol\":1674:1761  function governor() public view returns (address) {\r... */\n    tag_9:\n      mload(0x40)\n      dup1\n      swap2\n      sub\n      swap1\n      return\n        /* \"contracts/contracts/governance/Governable.sol\":4839:5062  function claimGovernance() external {\r... */\n    tag_4:\n      tag_11\n      tag_12\n      jump\t// in\n    tag_11:\n      stop\n        /* \"contracts/contracts/governance/Governable.sol\":2664:2764  function isGovernor() public view returns (bool) {\r... */\n    tag_5:\n      tag_13\n      tag_14\n      jump\t// in\n    tag_13:\n      mload(0x40)\n        /* \"#utility.yul\":678:692   */\n      swap1\n      iszero\n        /* \"#utility.yul\":671:693   */\n      iszero\n        /* \"#utility.yul\":653:694   */\n      dup2\n      mstore\n        /* \"#utility.yul\":641:643   */\n      0x20\n        /* \"#utility.yul\":626:644   */\n      add\n        /* \"contracts/contracts/governance/Governable.sol\":2664:2764  function isGovernor() public view returns (bool) {\r... */\n      tag_9\n        /* \"#utility.yul\":513:700   */\n      jump\n        /* \"contracts/contracts/governance/Governable.sol\":4491:4685  function transferGovernance(address _newGovernor) external onlyGovernor {\r... */\n    tag_6:\n      tag_11\n      tag_18\n      calldatasize\n      0x04\n      tag_19\n      jump\t// in\n    tag_18:\n      tag_20\n      jump\t// in\n        /* \"contracts/contracts/governance/Governable.sol\":1674:1761  function governor() public view returns (address) {\r... */\n    tag_8:\n        /* \"contracts/contracts/governance/Governable.sol\":1715:1722  address */\n      0x00\n        /* \"contracts/contracts/governance/Governable.sol\":1742:1753  _governor() */\n      tag_22\n      0x00\n      dup1\n      mload\n      0x20\n      data_b21729280315b05b5209e280f80abc0024d9412a0bcfd98da242c4e2094faad4\n      dup4\n      codecopy\n      dup2\n      mload\n      swap2\n      mstore\n        /* \"contracts/contracts/governance/Governable.sol\":2006:2021  sload(position) */\n      sload\n      swap1\n        /* \"contracts/contracts/governance/Governable.sol\":1845:2039  function _governor() internal view returns (address governorOut) {\r... */\n      jump\n        /* \"contracts/contracts/governance/Governable.sol\":1742:1753  _governor() */\n    tag_22:\n        /* \"contracts/contracts/governance/Governable.sol\":1735:1753  return _governor() */\n      swap1\n      pop\n        /* \"contracts/contracts/governance/Governable.sol\":1674:1761  function governor() public view returns (address) {\r... */\n      swap1\n      jump\t// out\n        /* \"contracts/contracts/governance/Governable.sol\":4839:5062  function claimGovernance() external {\r... */\n    tag_12:\n        /* \"contracts/contracts/governance/Governable.sol\":727:793  0x44c4d30b2eaad5130ad70c3ba6972730566f3e6359ab83e800d905c61b1c51db */\n      0x44c4d30b2eaad5130ad70c3ba6972730566f3e6359ab83e800d905c61b1c51db\n        /* \"contracts/contracts/governance/Governable.sol\":2338:2353  sload(position) */\n      sload\n      sub(shl(0xa0, 0x01), 0x01)\n        /* \"contracts/contracts/governance/Governable.sol\":4908:4940  msg.sender == _pendingGovernor() */\n      and\n        /* \"contracts/contracts/governance/Governable.sol\":4908:4918  msg.sender */\n      caller\n      sub(shl(0xa0, 0x01), 0x01)\n        /* \"contracts/contracts/governance/Governable.sol\":4908:4940  msg.sender == _pendingGovernor() */\n      and\n      eq\n        /* \"contracts/contracts/governance/Governable.sol\":4886:5016  require(\r... */\n      tag_27\n      jumpi\n      mload(0x40)\n      shl(0xe5, 0x461bcd)\n      dup2\n      mstore\n        /* \"#utility.yul\":1617:1619   */\n      0x20\n        /* \"contracts/contracts/governance/Governable.sol\":4886:5016  require(\r... */\n      0x04\n      dup3\n      add\n        /* \"#utility.yul\":1599:1620   */\n      mstore\n        /* \"#utility.yul\":1656:1658   */\n      0x30\n        /* \"#utility.yul\":1636:1654   */\n      0x24\n      dup3\n      add\n        /* \"#utility.yul\":1629:1659   */\n      mstore\n        /* \"#utility.yul\":1695:1729   */\n      0x4f6e6c79207468652070656e64696e6720476f7665726e6f722063616e20636f\n        /* \"#utility.yul\":1675:1693   */\n      0x44\n      dup3\n      add\n        /* \"#utility.yul\":1668:1730   */\n      mstore\n      shl(0x80, 0x6d706c6574652074686520636c61696d)\n        /* \"#utility.yul\":1746:1764   */\n      0x64\n      dup3\n      add\n        /* \"#utility.yul\":1739:1785   */\n      mstore\n        /* \"#utility.yul\":1802:1821   */\n      0x84\n      add\n        /* \"contracts/contracts/governance/Governable.sol\":4886:5016  require(\r... */\n    tag_28:\n      mload(0x40)\n      dup1\n      swap2\n      sub\n      swap1\n      revert\n    tag_27:\n        /* \"contracts/contracts/governance/Governable.sol\":5027:5054  _changeGovernor(msg.sender) */\n      tag_30\n        /* \"contracts/contracts/governance/Governable.sol\":5043:5053  msg.sender */\n      caller\n        /* \"contracts/contracts/governance/Governable.sol\":5027:5042  _changeGovernor */\n      tag_31\n        /* \"contracts/contracts/governance/Governable.sol\":5027:5054  _changeGovernor(msg.sender) */\n      jump\t// in\n    tag_30:\n        /* \"contracts/contracts/governance/Governable.sol\":4839:5062  function claimGovernance() external {\r... */\n      jump\t// out\n        /* \"contracts/contracts/governance/Governable.sol\":2664:2764  function isGovernor() public view returns (bool) {\r... */\n    tag_14:\n        /* \"contracts/contracts/governance/Governable.sol\":2707:2711  bool */\n      0x00\n        /* \"contracts/contracts/governance/Governable.sol\":2745:2756  _governor() */\n      tag_33\n      0x00\n      dup1\n      mload\n      0x20\n      data_b21729280315b05b5209e280f80abc0024d9412a0bcfd98da242c4e2094faad4\n      dup4\n      codecopy\n      dup2\n      mload\n      swap2\n      mstore\n        /* \"contracts/contracts/governance/Governable.sol\":2006:2021  sload(position) */\n      sload\n      swap1\n        /* \"contracts/contracts/governance/Governable.sol\":1845:2039  function _governor() internal view returns (address governorOut) {\r... */\n      jump\n        /* \"contracts/contracts/governance/Governable.sol\":2745:2756  _governor() */\n    tag_33:\n      sub(shl(0xa0, 0x01), 0x01)\n        /* \"contracts/contracts/governance/Governable.sol\":2731:2756  msg.sender == _governor() */\n      and\n        /* \"contracts/contracts/governance/Governable.sol\":2731:2741  msg.sender */\n      caller\n      sub(shl(0xa0, 0x01), 0x01)\n        /* \"contracts/contracts/governance/Governable.sol\":2731:2756  msg.sender == _governor() */\n      and\n      eq\n        /* \"contracts/contracts/governance/Governable.sol\":2724:2756  return msg.sender == _governor() */\n      swap1\n      pop\n        /* \"contracts/contracts/governance/Governable.sol\":2664:2764  function isGovernor() public view returns (bool) {\r... */\n      swap1\n      jump\t// out\n        /* \"contracts/contracts/governance/Governable.sol\":4491:4685  function transferGovernance(address _newGovernor) external onlyGovernor {\r... */\n    tag_20:\n        /* \"contracts/contracts/governance/Governable.sol\":2510:2522  isGovernor() */\n      tag_35\n        /* \"contracts/contracts/governance/Governable.sol\":2510:2520  isGovernor */\n      tag_14\n        /* \"contracts/contracts/governance/Governable.sol\":2510:2522  isGovernor() */\n      jump\t// in\n    tag_35:\n        /* \"contracts/contracts/governance/Governable.sol\":2502:2553  require(isGovernor(), \"Caller is not the Governor\") */\n      tag_36\n      jumpi\n      mload(0x40)\n      shl(0xe5, 0x461bcd)\n      dup2\n      mstore\n        /* \"#utility.yul\":907:909   */\n      0x20\n        /* \"contracts/contracts/governance/Governable.sol\":2502:2553  require(isGovernor(), \"Caller is not the Governor\") */\n      0x04\n      dup3\n      add\n        /* \"#utility.yul\":889:910   */\n      mstore\n        /* \"#utility.yul\":946:948   */\n      0x1a\n        /* \"#utility.yul\":926:944   */\n      0x24\n      dup3\n      add\n        /* \"#utility.yul\":919:949   */\n      mstore\n        /* \"#utility.yul\":985:1013   */\n      0x43616c6c6572206973206e6f742074686520476f7665726e6f72000000000000\n        /* \"#utility.yul\":965:983   */\n      0x44\n      dup3\n      add\n        /* \"#utility.yul\":958:1014   */\n      mstore\n        /* \"#utility.yul\":1031:1049   */\n      0x64\n      add\n        /* \"contracts/contracts/governance/Governable.sol\":2502:2553  require(isGovernor(), \"Caller is not the Governor\") */\n      tag_28\n        /* \"#utility.yul\":705:1055   */\n      jump\n        /* \"contracts/contracts/governance/Governable.sol\":2502:2553  require(isGovernor(), \"Caller is not the Governor\") */\n    tag_36:\n        /* \"contracts/contracts/governance/Governable.sol\":4574:4607  _setPendingGovernor(_newGovernor) */\n      tag_40\n        /* \"contracts/contracts/governance/Governable.sol\":4594:4606  _newGovernor */\n      dup2\n        /* \"contracts/contracts/governance/Governable.sol\":727:793  0x44c4d30b2eaad5130ad70c3ba6972730566f3e6359ab83e800d905c61b1c51db */\n      0x44c4d30b2eaad5130ad70c3ba6972730566f3e6359ab83e800d905c61b1c51db\n        /* \"contracts/contracts/governance/Governable.sol\":4189:4218  sstore(position, newGovernor) */\n      sstore\n        /* \"contracts/contracts/governance/Governable.sol\":4042:4236  function _setPendingGovernor(address newGovernor) internal {\r... */\n      jump\n        /* \"contracts/contracts/governance/Governable.sol\":4574:4607  _setPendingGovernor(_newGovernor) */\n    tag_40:\n        /* \"contracts/contracts/governance/Governable.sol\":4664:4676  _newGovernor */\n      dup1\n      sub(shl(0xa0, 0x01), 0x01)\n        /* \"contracts/contracts/governance/Governable.sol\":4623:4677  PendingGovernorshipTransfer(_governor(), _newGovernor) */\n      and\n        /* \"contracts/contracts/governance/Governable.sol\":4651:4662  _governor() */\n      tag_42\n      0x00\n      dup1\n      mload\n      0x20\n      data_b21729280315b05b5209e280f80abc0024d9412a0bcfd98da242c4e2094faad4\n      dup4\n      codecopy\n      dup2\n      mload\n      swap2\n      mstore\n        /* \"contracts/contracts/governance/Governable.sol\":2006:2021  sload(position) */\n      sload\n      swap1\n        /* \"contracts/contracts/governance/Governable.sol\":1845:2039  function _governor() internal view returns (address governorOut) {\r... */\n      jump\n        /* \"contracts/contracts/governance/Governable.sol\":4651:4662  _governor() */\n    tag_42:\n      sub(shl(0xa0, 0x01), 0x01)\n        /* \"contracts/contracts/governance/Governable.sol\":4623:4677  PendingGovernorshipTransfer(_governor(), _newGovernor) */\n      and\n      0xa39cc5eb22d0f34d8beaefee8a3f17cc229c1a1d1ef87a5ad47313487b1c4f0d\n      mload(0x40)\n      mload(0x40)\n      dup1\n      swap2\n      sub\n      swap1\n      log3\n        /* \"contracts/contracts/governance/Governable.sol\":4491:4685  function transferGovernance(address _newGovernor) external onlyGovernor {\r... */\n      pop\n      jump\t// out\n        /* \"contracts/contracts/governance/Governable.sol\":5225:5468  function _changeGovernor(address _newGovernor) internal {\r... */\n    tag_31:\n      sub(shl(0xa0, 0x01), 0x01)\n        /* \"contracts/contracts/governance/Governable.sol\":5300:5326  _newGovernor != address(0) */\n      dup2\n      and\n        /* \"contracts/contracts/governance/Governable.sol\":5292:5357  require(_newGovernor != address(0), \"New Governor is address(0)\") */\n      tag_46\n      jumpi\n      mload(0x40)\n      shl(0xe5, 0x461bcd)\n      dup2\n      mstore\n        /* \"#utility.yul\":1262:1264   */\n      0x20\n        /* \"contracts/contracts/governance/Governable.sol\":5292:5357  require(_newGovernor != address(0), \"New Governor is address(0)\") */\n      0x04\n      dup3\n      add\n        /* \"#utility.yul\":1244:1265   */\n      mstore\n        /* \"#utility.yul\":1301:1303   */\n      0x1a\n        /* \"#utility.yul\":1281:1299   */\n      0x24\n      dup3\n      add\n        /* \"#utility.yul\":1274:1304   */\n      mstore\n        /* \"#utility.yul\":1340:1368   */\n      0x4e657720476f7665726e6f722069732061646472657373283029000000000000\n        /* \"#utility.yul\":1320:1338   */\n      0x44\n      dup3\n      add\n        /* \"#utility.yul\":1313:1369   */\n      mstore\n        /* \"#utility.yul\":1386:1404   */\n      0x64\n      add\n        /* \"contracts/contracts/governance/Governable.sol\":5292:5357  require(_newGovernor != address(0), \"New Governor is address(0)\") */\n      tag_28\n        /* \"#utility.yul\":1060:1410   */\n      jump\n        /* \"contracts/contracts/governance/Governable.sol\":5292:5357  require(_newGovernor != address(0), \"New Governor is address(0)\") */\n    tag_46:\n        /* \"contracts/contracts/governance/Governable.sol\":5410:5422  _newGovernor */\n      dup1\n      sub(shl(0xa0, 0x01), 0x01)\n        /* \"contracts/contracts/governance/Governable.sol\":5373:5423  GovernorshipTransferred(_governor(), _newGovernor) */\n      and\n        /* \"contracts/contracts/governance/Governable.sol\":5397:5408  _governor() */\n      tag_49\n      0x00\n      dup1\n      mload\n      0x20\n      data_b21729280315b05b5209e280f80abc0024d9412a0bcfd98da242c4e2094faad4\n      dup4\n      codecopy\n      dup2\n      mload\n      swap2\n      mstore\n        /* \"contracts/contracts/governance/Governable.sol\":2006:2021  sload(position) */\n      sload\n      swap1\n        /* \"contracts/contracts/governance/Governable.sol\":1845:2039  function _governor() internal view returns (address governorOut) {\r... */\n      jump\n        /* \"contracts/contracts/governance/Governable.sol\":5397:5408  _governor() */\n    tag_49:\n      sub(shl(0xa0, 0x01), 0x01)\n        /* \"contracts/contracts/governance/Governable.sol\":5373:5423  GovernorshipTransferred(_governor(), _newGovernor) */\n      and\n      0xc7c0c772add429241571afb3805861fb3cfa2af374534088b76cdb4325a87e9a\n      mload(0x40)\n      mload(0x40)\n      dup1\n      swap2\n      sub\n      swap1\n      log3\n        /* \"contracts/contracts/governance/Governable.sol\":5434:5460  _setGovernor(_newGovernor) */\n      tag_50\n        /* \"contracts/contracts/governance/Governable.sol\":5447:5459  _newGovernor */\n      dup2\n      0x00\n      dup1\n      mload\n      0x20\n      data_b21729280315b05b5209e280f80abc0024d9412a0bcfd98da242c4e2094faad4\n      dup4\n      codecopy\n      dup2\n      mload\n      swap2\n      mstore\n        /* \"contracts/contracts/governance/Governable.sol\":2905:2934  sstore(position, newGovernor) */\n      sstore\n        /* \"contracts/contracts/governance/Governable.sol\":2772:2952  function _setGovernor(address newGovernor) internal {\r... */\n      jump\n        /* \"contracts/contracts/governance/Governable.sol\":5434:5460  _setGovernor(_newGovernor) */\n    tag_50:\n        /* \"contracts/contracts/governance/Governable.sol\":5225:5468  function _changeGovernor(address _newGovernor) internal {\r... */\n      pop\n      jump\t// out\n        /* \"#utility.yul\":14:300   */\n    tag_19:\n        /* \"#utility.yul\":73:79   */\n      0x00\n        /* \"#utility.yul\":126:128   */\n      0x20\n        /* \"#utility.yul\":114:123   */\n      dup3\n        /* \"#utility.yul\":105:112   */\n      dup5\n        /* \"#utility.yul\":101:124   */\n      sub\n        /* \"#utility.yul\":97:129   */\n      slt\n        /* \"#utility.yul\":94:146   */\n      iszero\n      tag_56\n      jumpi\n        /* \"#utility.yul\":142:143   */\n      0x00\n        /* \"#utility.yul\":139:140   */\n      dup1\n        /* \"#utility.yul\":132:144   */\n      revert\n        /* \"#utility.yul\":94:146   */\n    tag_56:\n        /* \"#utility.yul\":168:191   */\n      dup2\n      calldataload\n      sub(shl(0xa0, 0x01), 0x01)\n        /* \"#utility.yul\":220:251   */\n      dup2\n      and\n        /* \"#utility.yul\":210:252   */\n      dup2\n      eq\n        /* \"#utility.yul\":200:270   */\n      tag_57\n      jumpi\n        /* \"#utility.yul\":266:267   */\n      0x00\n        /* \"#utility.yul\":263:264   */\n      dup1\n        /* \"#utility.yul\":256:268   */\n      revert\n        /* \"#utility.yul\":200:270   */\n    tag_57:\n        /* \"#utility.yul\":289:294   */\n      swap4\n        /* \"#utility.yul\":14:300   */\n      swap3\n      pop\n      pop\n      pop\n      jump\t// out\n    stop\n    data_b21729280315b05b5209e280f80abc0024d9412a0bcfd98da242c4e2094faad4 7bea13895fa79d2831e0a9e28edede30099005a50d652d8957cf8a607ee6ca4a\n\n    auxdata: 0xa2646970667358221220b91113d979fedade869db399bb142bbadab96ce22ea1649c528b3e74f467367e64736f6c63430008070033\n}\n",
				"bytecode": {
					"linkReferences": {},
					"object": "608060405234801561001057600080fd5b506100273360008051602061043f83398151915255565b60008051602061043f833981519152546040516001600160a01b03909116906000907fc7c0c772add429241571afb3805861fb3cfa2af374534088b76cdb4325a87e9a908290a36103c28061007d6000396000f3fe608060405234801561001057600080fd5b506004361061004c5760003560e01c80630c340a24146100515780635d36b19014610076578063c7af335214610080578063d38bfff414610098575b600080fd5b6100596100ab565b6040516001600160a01b0390911681526020015b60405180910390f35b61007e6100c8565b005b610088610173565b604051901515815260200161006d565b61007e6100a636600461033c565b6101a4565b60006100c360008051602061036d8339815191525490565b905090565b7f44c4d30b2eaad5130ad70c3ba6972730566f3e6359ab83e800d905c61b1c51db546001600160a01b0316336001600160a01b0316146101685760405162461bcd60e51b815260206004820152603060248201527f4f6e6c79207468652070656e64696e6720476f7665726e6f722063616e20636f60448201526f6d706c6574652074686520636c61696d60801b60648201526084015b60405180910390fd5b61017133610278565b565b600061018b60008051602061036d8339815191525490565b6001600160a01b0316336001600160a01b031614905090565b6101ac610173565b6101f85760405162461bcd60e51b815260206004820152601a60248201527f43616c6c6572206973206e6f742074686520476f7665726e6f72000000000000604482015260640161015f565b610220817f44c4d30b2eaad5130ad70c3ba6972730566f3e6359ab83e800d905c61b1c51db55565b806001600160a01b031661024060008051602061036d8339815191525490565b6001600160a01b03167fa39cc5eb22d0f34d8beaefee8a3f17cc229c1a1d1ef87a5ad47313487b1c4f0d60405160405180910390a350565b6001600160a01b0381166102ce5760405162461bcd60e51b815260206004820152601a60248201527f4e657720476f7665726e6f722069732061646472657373283029000000000000604482015260640161015f565b806001600160a01b03166102ee60008051602061036d8339815191525490565b6001600160a01b03167fc7c0c772add429241571afb3805861fb3cfa2af374534088b76cdb4325a87e9a60405160405180910390a36103398160008051602061036d83398151915255565b50565b60006020828403121561034e57600080fd5b81356001600160a01b038116811461036557600080fd5b939250505056fe7bea13895fa79d2831e0a9e28edede30099005a50d652d8957cf8a607ee6ca4aa2646970667358221220b91113d979fedade869db399bb142bbadab96ce22ea1649c528b3e74f467367e64736f6c634300080700337bea13895fa79d2831e0a9e28edede30099005a50d652d8957cf8a607ee6ca4a",
					"opcodes": "PUSH1 0x80 PUSH1 0x40 MSTORE CALLVALUE DUP1 ISZERO PUSH2 0x10 JUMPI PUSH1 0x0 DUP1 REVERT JUMPDEST POP PUSH2 0x27 CALLER PUSH1 0x0 DUP1 MLOAD PUSH1 0x20 PUSH2 0x43F DUP4 CODECOPY DUP2 MLOAD SWAP2 MSTORE SSTORE JUMP JUMPDEST PUSH1 0x0 DUP1 MLOAD PUSH1 0x20 PUSH2 0x43F DUP4 CODECOPY DUP2 MLOAD SWAP2 MSTORE SLOAD PUSH1 0x40 MLOAD PUSH1 0x1 PUSH1 0x1 PUSH1 0xA0 SHL SUB SWAP1 SWAP2 AND SWAP1 PUSH1 0x0 SWAP1 PUSH32 0xC7C0C772ADD429241571AFB3805861FB3CFA2AF374534088B76CDB4325A87E9A SWAP1 DUP3 SWAP1 LOG3 PUSH2 0x3C2 DUP1 PUSH2 0x7D PUSH1 0x0 CODECOPY PUSH1 0x0 RETURN INVALID PUSH1 0x80 PUSH1 0x40 MSTORE CALLVALUE DUP1 ISZERO PUSH2 0x10 JUMPI PUSH1 0x0 DUP1 REVERT JUMPDEST POP PUSH1 0x4 CALLDATASIZE LT PUSH2 0x4C JUMPI PUSH1 0x0 CALLDATALOAD PUSH1 0xE0 SHR DUP1 PUSH4 0xC340A24 EQ PUSH2 0x51 JUMPI DUP1 PUSH4 0x5D36B190 EQ PUSH2 0x76 JUMPI DUP1 PUSH4 0xC7AF3352 EQ PUSH2 0x80 JUMPI DUP1 PUSH4 0xD38BFFF4 EQ PUSH2 0x98 JUMPI JUMPDEST PUSH1 0x0 DUP1 REVERT JUMPDEST PUSH2 0x59 PUSH2 0xAB JUMP JUMPDEST PUSH1 0x40 MLOAD PUSH1 0x1 PUSH1 0x1 PUSH1 0xA0 SHL SUB SWAP1 SWAP2 AND DUP2 MSTORE PUSH1 0x20 ADD JUMPDEST PUSH1 0x40 MLOAD DUP1 SWAP2 SUB SWAP1 RETURN JUMPDEST PUSH2 0x7E PUSH2 0xC8 JUMP JUMPDEST STOP JUMPDEST PUSH2 0x88 PUSH2 0x173 JUMP JUMPDEST PUSH1 0x40 MLOAD SWAP1 ISZERO ISZERO DUP2 MSTORE PUSH1 0x20 ADD PUSH2 0x6D JUMP JUMPDEST PUSH2 0x7E PUSH2 0xA6 CALLDATASIZE PUSH1 0x4 PUSH2 0x33C JUMP JUMPDEST PUSH2 0x1A4 JUMP JUMPDEST PUSH1 0x0 PUSH2 0xC3 PUSH1 0x0 DUP1 MLOAD PUSH1 0x20 PUSH2 0x36D DUP4 CODECOPY DUP2 MLOAD SWAP2 MSTORE SLOAD SWAP1 JUMP JUMPDEST SWAP1 POP SWAP1 JUMP JUMPDEST PUSH32 0x44C4D30B2EAAD5130AD70C3BA6972730566F3E6359AB83E800D905C61B1C51DB SLOAD PUSH1 0x1 PUSH1 0x1 PUSH1 0xA0 SHL SUB AND CALLER PUSH1 0x1 PUSH1 0x1 PUSH1 0xA0 SHL SUB AND EQ PUSH2 0x168 JUMPI PUSH1 0x40 MLOAD PUSH3 0x461BCD PUSH1 0xE5 SHL DUP2 MSTORE PUSH1 0x20 PUSH1 0x4 DUP3 ADD MSTORE PUSH1 0x30 PUSH1 0x24 DUP3 ADD MSTORE PUSH32 0x4F6E6C79207468652070656E64696E6720476F7665726E6F722063616E20636F PUSH1 0x44 DUP3 ADD MSTORE PUSH16 0x6D706C6574652074686520636C61696D PUSH1 0x80 SHL PUSH1 0x64 DUP3 ADD MSTORE PUSH1 0x84 ADD JUMPDEST PUSH1 0x40 MLOAD DUP1 SWAP2 SUB SWAP1 REVERT JUMPDEST PUSH2 0x171 CALLER PUSH2 0x278 JUMP JUMPDEST JUMP JUMPDEST PUSH1 0x0 PUSH2 0x18B PUSH1 0x0 DUP1 MLOAD PUSH1 0x20 PUSH2 0x36D DUP4 CODECOPY DUP2 MLOAD SWAP2 MSTORE SLOAD SWAP1 JUMP JUMPDEST PUSH1 0x1 PUSH1 0x1 PUSH1 0xA0 SHL SUB AND CALLER PUSH1 0x1 PUSH1 0x1 PUSH1 0xA0 SHL SUB AND EQ SWAP1 POP SWAP1 JUMP JUMPDEST PUSH2 0x1AC PUSH2 0x173 JUMP JUMPDEST PUSH2 0x1F8 JUMPI PUSH1 0x40 MLOAD PUSH3 0x461BCD PUSH1 0xE5 SHL DUP2 MSTORE PUSH1 0x20 PUSH1 0x4 DUP3 ADD MSTORE PUSH1 0x1A PUSH1 0x24 DUP3 ADD MSTORE PUSH32 0x43616C6C6572206973206E6F742074686520476F7665726E6F72000000000000 PUSH1 0x44 DUP3 ADD MSTORE PUSH1 0x64 ADD PUSH2 0x15F JUMP JUMPDEST PUSH2 0x220 DUP2 PUSH32 0x44C4D30B2EAAD5130AD70C3BA6972730566F3E6359AB83E800D905C61B1C51DB SSTORE JUMP JUMPDEST DUP1 PUSH1 0x1 PUSH1 0x1 PUSH1 0xA0 SHL SUB AND PUSH2 0x240 PUSH1 0x0 DUP1 MLOAD PUSH1 0x20 PUSH2 0x36D DUP4 CODECOPY DUP2 MLOAD SWAP2 MSTORE SLOAD SWAP1 JUMP JUMPDEST PUSH1 0x1 PUSH1 0x1 PUSH1 0xA0 SHL SUB AND PUSH32 0xA39CC5EB22D0F34D8BEAEFEE8A3F17CC229C1A1D1EF87A5AD47313487B1C4F0D PUSH1 0x40 MLOAD PUSH1 0x40 MLOAD DUP1 SWAP2 SUB SWAP1 LOG3 POP JUMP JUMPDEST PUSH1 0x1 PUSH1 0x1 PUSH1 0xA0 SHL SUB DUP2 AND PUSH2 0x2CE JUMPI PUSH1 0x40 MLOAD PUSH3 0x461BCD PUSH1 0xE5 SHL DUP2 MSTORE PUSH1 0x20 PUSH1 0x4 DUP3 ADD MSTORE PUSH1 0x1A PUSH1 0x24 DUP3 ADD MSTORE PUSH32 0x4E657720476F7665726E6F722069732061646472657373283029000000000000 PUSH1 0x44 DUP3 ADD MSTORE PUSH1 0x64 ADD PUSH2 0x15F JUMP JUMPDEST DUP1 PUSH1 0x1 PUSH1 0x1 PUSH1 0xA0 SHL SUB AND PUSH2 0x2EE PUSH1 0x0 DUP1 MLOAD PUSH1 0x20 PUSH2 0x36D DUP4 CODECOPY DUP2 MLOAD SWAP2 MSTORE SLOAD SWAP1 JUMP JUMPDEST PUSH1 0x1 PUSH1 0x1 PUSH1 0xA0 SHL SUB AND PUSH32 0xC7C0C772ADD429241571AFB3805861FB3CFA2AF374534088B76CDB4325A87E9A PUSH1 0x40 MLOAD PUSH1 0x40 MLOAD DUP1 SWAP2 SUB SWAP1 LOG3 PUSH2 0x339 DUP2 PUSH1 0x0 DUP1 MLOAD PUSH1 0x20 PUSH2 0x36D DUP4 CODECOPY DUP2 MLOAD SWAP2 MSTORE SSTORE JUMP JUMPDEST POP JUMP JUMPDEST PUSH1 0x0 PUSH1 0x20 DUP3 DUP5 SUB SLT ISZERO PUSH2 0x34E JUMPI PUSH1 0x0 DUP1 REVERT JUMPDEST DUP2 CALLDATALOAD PUSH1 0x1 PUSH1 0x1 PUSH1 0xA0 SHL SUB DUP2 AND DUP2 EQ PUSH2 0x365 JUMPI PUSH1 0x0 DUP1 REVERT JUMPDEST SWAP4 SWAP3 POP POP POP JUMP INVALID PUSH28 0xEA13895FA79D2831E0A9E28EDEDE30099005A50D652D8957CF8A607E 0xE6 0xCA 0x4A LOG2 PUSH5 0x6970667358 0x22 SLT KECCAK256 0xB9 GT SGT 0xD9 PUSH26 0xFEDADE869DB399BB142BBADAB96CE22EA1649C528B3E74F46736 PUSH31 0x64736F6C634300080700337BEA13895FA79D2831E0A9E28EDEDE30099005A5 0xD PUSH6 0x2D8957CF8A60 PUSH31 0xE6CA4A00000000000000000000000000000000000000000000000000000000 "
				},
				"gasEstimates": {
					"creation": {
						"codeDepositCost": "192400",
						"executionCost": "26075",
						"totalCost": "218475"
					},
					"external": {
						"claimGovernance()": "28233",
						"governor()": "infinite",
						"isGovernor()": "infinite",
						"transferGovernance(address)": "infinite"
					},
					"internal": {
						"_changeGovernor(address)": "infinite",
						"_governor()": "infinite",
						"_pendingGovernor()": "infinite",
						"_setGovernor(address)": "infinite",
						"_setPendingGovernor(address)": "infinite"
					}
				},
				"methodIdentifiers": {
					"claimGovernance()": "5d36b190",
					"governor()": "0c340a24",
					"isGovernor()": "c7af3352",
					"transferGovernance(address)": "d38bfff4"
				}
			},
			"storageLayout": {
				"storage": [],
				"types": null
			},
			"userdoc": {
				"kind": "user",
				"methods": {},
				"version": 1
			}
		}
	}
}