{
	"contracts/contracts/proxies/InitializeGovernedUpgradeabilityProxy.sol": {
		"InitializeGovernedUpgradeabilityProxy": {
			"abi": [
				{
					"anonymous": false,
					"inputs": [
						{
							"indexed": true,
							"internalType": "address",
							"name": "previousGovernor",
							"type": "address"
						},
						{
							"indexed": true,
							"internalType": "address",
							"name": "newGovernor",
							"type": "address"
						}
					],
					"name": "GovernorshipTransferred",
					"type": "event"
				},
				{
					"anonymous": false,
					"inputs": [
						{
							"indexed": true,
							"internalType": "address",
							"name": "previousGovernor",
							"type": "address"
						},
						{
							"indexed": true,
							"internalType": "address",
							"name": "newGovernor",
							"type": "address"
						}
					],
					"name": "PendingGovernorshipTransfer",
					"type": "event"
				},
				{
					"anonymous": false,
					"inputs": [
						{
							"indexed": true,
							"internalType": "address",
							"name": "implementation",
							"type": "address"
						}
					],
					"name": "Upgraded",
					"type": "event"
				},
				{
					"stateMutability": "payable",
					"type": "fallback"
				},
				{
					"inputs": [],
					"name": "admin",
					"outputs": [
						{
							"internalType": "address",
							"name": "",
							"type": "address"
						}
					],
					"stateMutability": "view",
					"type": "function"
				},
				{
					"inputs": [],
					"name": "claimGovernance",
					"outputs": [],
					"stateMutability": "nonpayable",
					"type": "function"
				},
				{
					"inputs": [],
					"name": "governor",
					"outputs": [
						{
							"internalType": "address",
							"name": "",
							"type": "address"
						}
					],
					"stateMutability": "view",
					"type": "function"
				},
				{
					"inputs": [],
					"name": "implementation",
					"outputs": [
						{
							"internalType": "address",
							"name": "",
							"type": "address"
						}
					],
					"stateMutability": "view",
					"type": "function"
				},
				{
					"inputs": [
						{
							"internalType": "address",
							"name": "_logic",
							"type": "address"
						},
						{
							"internalType": "address",
							"name": "_initGovernor",
							"type": "address"
						},
						{
							"internalType": "bytes",
							"name": "_data",
							"type": "bytes"
						}
					],
					"name": "initialize",
					"outputs": [],
					"stateMutability": "payable",
					"type": "function"
				},
				{
					"inputs": [],
					"name": "isGovernor",
					"outputs": [
						{
							"internalType": "bool",
							"name": "",
							"type": "bool"
						}
					],
					"stateMutability": "view",
					"type": "function"
				},
				{
					"inputs": [
						{
							"internalType": "address",
							"name": "_newGovernor",
							"type": "address"
						}
					],
					"name": "transferGovernance",
					"outputs": [],
					"stateMutability": "nonpayable",
					"type": "function"
				},
				{
					"inputs": [
						{
							"internalType": "address",
							"name": "newImplementation",
							"type": "address"
						}
					],
					"name": "upgradeTo",
					"outputs": [],
					"stateMutability": "nonpayable",
					"type": "function"
				},
				{
					"inputs": [
						{
							"internalType": "address",
							"name": "newImplementation",
							"type": "address"
						},
						{
							"internalType": "bytes",
							"name": "data",
							"type": "bytes"
						}
					],
					"name": "upgradeToAndCall",
					"outputs": [],
					"stateMutability": "payable",
					"type": "function"
				}
			],
			"devdoc": {
				"author": "Origin Protocol Inc",
				"details": "This contract combines an upgradeability proxy with our governor system. It is based on an older version of OpenZeppelins BaseUpgradeabilityProxy with Solidity ^0.8.0.",
				"events": {
					"Upgraded(address)": {
						"details": "Emitted when the implementation is upgraded.",
						"params": {
							"implementation": "Address of the new implementation."
						}
					}
				},
				"kind": "dev",
				"methods": {
					"admin()": {
						"returns": {
							"_0": "The address of the proxy admin/it's also the governor."
						}
					},
					"claimGovernance()": {
						"details": "Claim Governance of the contract to a new account (`newGovernor`). Can only be called by the new Governor."
					},
					"governor()": {
						"details": "Returns the address of the current Governor."
					},
					"implementation()": {
						"returns": {
							"_0": "The address of the implementation."
						}
					},
					"initialize(address,address,bytes)": {
						"details": "Contract initializer with Governor enforcement",
						"params": {
							"_data": "Data to send as msg.data to the implementation to initialize the proxied contract. It should include the signature and the parameters of the function to be called, as described in https://solidity.readthedocs.io/en/v0.4.24/abi-spec.html#function-selector-and-argument-encoding. This parameter is optional, if no data is given the initialization call to proxied contract will be skipped.",
							"_initGovernor": "Address of the initial Governor.",
							"_logic": "Address of the initial implementation."
						}
					},
					"isGovernor()": {
						"details": "Returns true if the caller is the current Governor."
					},
					"transferGovernance(address)": {
						"details": "Transfers Governance of the contract to a new account (`newGovernor`). Can only be called by the current Governor. Must be claimed for this to complete",
						"params": {
							"_newGovernor": "Address of the new Governor"
						}
					},
					"upgradeTo(address)": {
						"details": "Upgrade the backing implementation of the proxy. Only the admin can call this function.",
						"params": {
							"newImplementation": "Address of the new implementation."
						}
					},
					"upgradeToAndCall(address,bytes)": {
						"details": "Upgrade the backing implementation of the proxy and call a function on the new implementation. This is useful to initialize the proxied contract.",
						"params": {
							"data": "Data to send as msg.data in the low level call. It should include the signature and the parameters of the function to be called, as described in https://solidity.readthedocs.io/en/v0.4.24/abi-spec.html#function-selector-and-argument-encoding.",
							"newImplementation": "Address of the new implementation."
						}
					}
				},
				"stateVariables": {
					"IMPLEMENTATION_SLOT": {
						"details": "Storage slot with the address of the current implementation. This is the keccak-256 hash of \"eip1967.proxy.implementation\" subtracted by 1, and is validated in the constructor."
					}
				},
				"title": "BaseGovernedUpgradeabilityProxy",
				"version": 1
			},
			"evm": {
				"assembly": "    /* \"contracts/contracts/proxies/InitializeGovernedUpgradeabilityProxy.sol\":469:6771  contract InitializeGovernedUpgradeabilityProxy is Governable {\r... */\n  mstore(0x40, 0x80)\n  callvalue\n  dup1\n  iszero\n  tag_1\n  jumpi\n  0x00\n  dup1\n  revert\ntag_1:\n  pop\n    /* \"contracts/contracts/governance/Governable.sol\":1494:1518  _setGovernor(msg.sender) */\n  tag_4\n    /* \"contracts/contracts/governance/Governable.sol\":1507:1517  msg.sender */\n  caller\n    /* \"contracts/contracts/governance/Governable.sol\":1494:1506  _setGovernor */\n  shl(0x20, tag_5)\n    /* \"contracts/contracts/governance/Governable.sol\":1494:1518  _setGovernor(msg.sender) */\n  0x20\n  shr\n  jump\t// in\ntag_4:\n    /* \"contracts/contracts/governance/Governable.sol\":1570:1581  _governor() */\n  tag_6\n    /* \"contracts/contracts/governance/Governable.sol\":1570:1579  _governor */\n  shl(0x20, tag_7)\n    /* \"contracts/contracts/governance/Governable.sol\":1570:1581  _governor() */\n  0x20\n  shr\n  jump\t// in\ntag_6:\n    /* \"contracts/contracts/governance/Governable.sol\":1534:1582  GovernorshipTransferred(address(0), _governor()) */\n  0xffffffffffffffffffffffffffffffffffffffff\n  and\n    /* \"contracts/contracts/governance/Governable.sol\":1566:1567  0 */\n  0x00\n    /* \"contracts/contracts/governance/Governable.sol\":1534:1582  GovernorshipTransferred(address(0), _governor()) */\n  0xffffffffffffffffffffffffffffffffffffffff\n  and\n  0xc7c0c772add429241571afb3805861fb3cfa2af374534088b76cdb4325a87e9a\n  mload(0x40)\n  mload(0x40)\n  dup1\n  swap2\n  sub\n  swap1\n  log3\n    /* \"contracts/contracts/proxies/InitializeGovernedUpgradeabilityProxy.sol\":469:6771  contract InitializeGovernedUpgradeabilityProxy is Governable {\r... */\n  jump(tag_8)\n    /* \"contracts/contracts/governance/Governable.sol\":2772:2952  function _setGovernor(address newGovernor) internal {\r... */\ntag_5:\n    /* \"contracts/contracts/governance/Governable.sol\":2835:2851  bytes32 position */\n  0x00\n    /* \"contracts/contracts/governance/Governable.sol\":548:614  0x7bea13895fa79d2831e0a9e28edede30099005a50d652d8957cf8a607ee6ca4a */\n  0x7bea13895fa79d2831e0a9e28edede30099005a50d652d8957cf8a607ee6ca4a\n    /* \"contracts/contracts/governance/Governable.sol\":2854:2870  governorPosition */\n  0x00\n  shl\n    /* \"contracts/contracts/governance/Governable.sol\":2835:2870  bytes32 position = governorPosition */\n  swap1\n  pop\n    /* \"contracts/contracts/governance/Governable.sol\":2922:2933  newGovernor */\n  dup2\n    /* \"contracts/contracts/governance/Governable.sol\":2912:2920  position */\n  dup2\n    /* \"contracts/contracts/governance/Governable.sol\":2905:2934  sstore(position, newGovernor) */\n  sstore\n    /* \"contracts/contracts/governance/Governable.sol\":2890:2945  {\r... */\n  pop\n    /* \"contracts/contracts/governance/Governable.sol\":2772:2952  function _setGovernor(address newGovernor) internal {\r... */\n  pop\n  jump\t// out\n    /* \"contracts/contracts/governance/Governable.sol\":1845:2039  function _governor() internal view returns (address governorOut) {\r... */\ntag_7:\n    /* \"contracts/contracts/governance/Governable.sol\":1889:1908  address governorOut */\n  0x00\n    /* \"contracts/contracts/governance/Governable.sol\":1921:1937  bytes32 position */\n  dup1\n    /* \"contracts/contracts/governance/Governable.sol\":548:614  0x7bea13895fa79d2831e0a9e28edede30099005a50d652d8957cf8a607ee6ca4a */\n  0x7bea13895fa79d2831e0a9e28edede30099005a50d652d8957cf8a607ee6ca4a\n    /* \"contracts/contracts/governance/Governable.sol\":1940:1956  governorPosition */\n  0x00\n  shl\n    /* \"contracts/contracts/governance/Governable.sol\":1921:1956  bytes32 position = governorPosition */\n  swap1\n  pop\n    /* \"contracts/contracts/governance/Governable.sol\":2012:2020  position */\n  dup1\n    /* \"contracts/contracts/governance/Governable.sol\":2006:2021  sload(position) */\n  sload\n    /* \"contracts/contracts/governance/Governable.sol\":1991:2021  governorOut := sload(position) */\n  swap2\n  pop\n    /* \"contracts/contracts/governance/Governable.sol\":1976:2032  {\r... */\n  pop\n    /* \"contracts/contracts/governance/Governable.sol\":1845:2039  function _governor() internal view returns (address governorOut) {\r... */\n  swap1\n  jump\t// out\n    /* \"contracts/contracts/proxies/InitializeGovernedUpgradeabilityProxy.sol\":469:6771  contract InitializeGovernedUpgradeabilityProxy is Governable {\r... */\ntag_8:\n  dataSize(sub_0)\n  dup1\n  dataOffset(sub_0)\n  0x00\n  codecopy\n  0x00\n  return\nstop\n\nsub_0: assembly {\n        /* \"contracts/contracts/proxies/InitializeGovernedUpgradeabilityProxy.sol\":469:6771  contract InitializeGovernedUpgradeabilityProxy is Governable {\r... */\n      mstore(0x40, 0x80)\n      jumpi(tag_1, lt(calldatasize, 0x04))\n      shr(0xe0, calldataload(0x00))\n      dup1\n      0x5d36b190\n      gt\n      tag_12\n      jumpi\n      dup1\n      0x5d36b190\n      eq\n      tag_7\n      jumpi\n      dup1\n      0xc7af3352\n      eq\n      tag_8\n      jumpi\n      dup1\n      0xcf7a1d77\n      eq\n      tag_9\n      jumpi\n      dup1\n      0xd38bfff4\n      eq\n      tag_10\n      jumpi\n      dup1\n      0xf851a440\n      eq\n      tag_11\n      jumpi\n      jump(tag_2)\n    tag_12:\n      dup1\n      0x0c340a24\n      eq\n      tag_3\n      jumpi\n      dup1\n      0x3659cfe6\n      eq\n      tag_4\n      jumpi\n      dup1\n      0x4f1ef286\n      eq\n      tag_5\n      jumpi\n      dup1\n      0x5c60da1b\n      eq\n      tag_6\n      jumpi\n      jump(tag_2)\n    tag_1:\n    tag_2:\n        /* \"contracts/contracts/proxies/InitializeGovernedUpgradeabilityProxy.sol\":3596:3607  _fallback() */\n      tag_15\n        /* \"contracts/contracts/proxies/InitializeGovernedUpgradeabilityProxy.sol\":3596:3605  _fallback */\n      tag_16\n        /* \"contracts/contracts/proxies/InitializeGovernedUpgradeabilityProxy.sol\":3596:3607  _fallback() */\n      jump\t// in\n    tag_15:\n        /* \"contracts/contracts/proxies/InitializeGovernedUpgradeabilityProxy.sol\":469:6771  contract InitializeGovernedUpgradeabilityProxy is Governable {\r... */\n      stop\n        /* \"contracts/contracts/governance/Governable.sol\":1674:1761  function governor() public view returns (address) {\r... */\n    tag_3:\n      callvalue\n      dup1\n      iszero\n      tag_17\n      jumpi\n      0x00\n      dup1\n      revert\n    tag_17:\n      pop\n      tag_18\n      tag_19\n      jump\t// in\n    tag_18:\n      mload(0x40)\n      tag_20\n      swap2\n      swap1\n      tag_21\n      jump\t// in\n    tag_20:\n      mload(0x40)\n      dup1\n      swap2\n      sub\n      swap1\n      return\n        /* \"contracts/contracts/proxies/InitializeGovernedUpgradeabilityProxy.sol\":2513:2629  function upgradeTo(address newImplementation) external onlyGovernor {\r... */\n    tag_4:\n      callvalue\n      dup1\n      iszero\n      tag_22\n      jumpi\n      0x00\n      dup1\n      revert\n    tag_22:\n      pop\n      tag_23\n      0x04\n      dup1\n      calldatasize\n      sub\n      dup2\n      add\n      swap1\n      tag_24\n      swap2\n      swap1\n      tag_25\n      jump\t// in\n    tag_24:\n      tag_26\n      jump\t// in\n    tag_23:\n      stop\n        /* \"contracts/contracts/proxies/InitializeGovernedUpgradeabilityProxy.sol\":3177:3454  function upgradeToAndCall(address newImplementation, bytes calldata data)\r... */\n    tag_5:\n      tag_27\n      0x04\n      dup1\n      calldatasize\n      sub\n      dup2\n      add\n      swap1\n      tag_28\n      swap2\n      swap1\n      tag_29\n      jump\t// in\n    tag_28:\n      tag_30\n      jump\t// in\n    tag_27:\n      stop\n        /* \"contracts/contracts/proxies/InitializeGovernedUpgradeabilityProxy.sol\":2209:2310  function implementation() external view returns (address) {\r... */\n    tag_6:\n      callvalue\n      dup1\n      iszero\n      tag_31\n      jumpi\n      0x00\n      dup1\n      revert\n    tag_31:\n      pop\n      tag_32\n      tag_33\n      jump\t// in\n    tag_32:\n      mload(0x40)\n      tag_34\n      swap2\n      swap1\n      tag_21\n      jump\t// in\n    tag_34:\n      mload(0x40)\n      dup1\n      swap2\n      sub\n      swap1\n      return\n        /* \"contracts/contracts/governance/Governable.sol\":4839:5062  function claimGovernance() external {\r... */\n    tag_7:\n      callvalue\n      dup1\n      iszero\n      tag_35\n      jumpi\n      0x00\n      dup1\n      revert\n    tag_35:\n      pop\n      tag_36\n      tag_37\n      jump\t// in\n    tag_36:\n      stop\n        /* \"contracts/contracts/governance/Governable.sol\":2664:2764  function isGovernor() public view returns (bool) {\r... */\n    tag_8:\n      callvalue\n      dup1\n      iszero\n      tag_38\n      jumpi\n      0x00\n      dup1\n      revert\n    tag_38:\n      pop\n      tag_39\n      tag_40\n      jump\t// in\n    tag_39:\n      mload(0x40)\n      tag_41\n      swap2\n      swap1\n      tag_42\n      jump\t// in\n    tag_41:\n      mload(0x40)\n      dup1\n      swap2\n      sub\n      swap1\n      return\n        /* \"contracts/contracts/proxies/InitializeGovernedUpgradeabilityProxy.sol\":1390:1949  function initialize(\r... */\n    tag_9:\n      tag_43\n      0x04\n      dup1\n      calldatasize\n      sub\n      dup2\n      add\n      swap1\n      tag_44\n      swap2\n      swap1\n      tag_45\n      jump\t// in\n    tag_44:\n      tag_46\n      jump\t// in\n    tag_43:\n      stop\n        /* \"contracts/contracts/governance/Governable.sol\":4491:4685  function transferGovernance(address _newGovernor) external onlyGovernor {\r... */\n    tag_10:\n      callvalue\n      dup1\n      iszero\n      tag_47\n      jumpi\n      0x00\n      dup1\n      revert\n    tag_47:\n      pop\n      tag_48\n      0x04\n      dup1\n      calldatasize\n      sub\n      dup2\n      add\n      swap1\n      tag_49\n      swap2\n      swap1\n      tag_25\n      jump\t// in\n    tag_49:\n      tag_50\n      jump\t// in\n    tag_48:\n      stop\n        /* \"contracts/contracts/proxies/InitializeGovernedUpgradeabilityProxy.sol\":2046:2132  function admin() external view returns (address) {\r... */\n    tag_11:\n      callvalue\n      dup1\n      iszero\n      tag_51\n      jumpi\n      0x00\n      dup1\n      revert\n    tag_51:\n      pop\n      tag_52\n      tag_53\n      jump\t// in\n    tag_52:\n      mload(0x40)\n      tag_54\n      swap2\n      swap1\n      tag_21\n      jump\t// in\n    tag_54:\n      mload(0x40)\n      dup1\n      swap2\n      sub\n      swap1\n      return\n        /* \"contracts/contracts/proxies/InitializeGovernedUpgradeabilityProxy.sol\":5181:5284  function _fallback() internal {\r... */\n    tag_16:\n        /* \"contracts/contracts/proxies/InitializeGovernedUpgradeabilityProxy.sol\":5222:5237  _willFallback() */\n      tag_56\n        /* \"contracts/contracts/proxies/InitializeGovernedUpgradeabilityProxy.sol\":5222:5235  _willFallback */\n      tag_57\n        /* \"contracts/contracts/proxies/InitializeGovernedUpgradeabilityProxy.sol\":5222:5237  _willFallback() */\n      jump\t// in\n    tag_56:\n        /* \"contracts/contracts/proxies/InitializeGovernedUpgradeabilityProxy.sol\":5248:5276  _delegate(_implementation()) */\n      tag_58\n        /* \"contracts/contracts/proxies/InitializeGovernedUpgradeabilityProxy.sol\":5258:5275  _implementation() */\n      tag_59\n        /* \"contracts/contracts/proxies/InitializeGovernedUpgradeabilityProxy.sol\":5258:5273  _implementation */\n      tag_60\n        /* \"contracts/contracts/proxies/InitializeGovernedUpgradeabilityProxy.sol\":5258:5275  _implementation() */\n      jump\t// in\n    tag_59:\n        /* \"contracts/contracts/proxies/InitializeGovernedUpgradeabilityProxy.sol\":5248:5257  _delegate */\n      tag_61\n        /* \"contracts/contracts/proxies/InitializeGovernedUpgradeabilityProxy.sol\":5248:5276  _delegate(_implementation()) */\n      jump\t// in\n    tag_58:\n        /* \"contracts/contracts/proxies/InitializeGovernedUpgradeabilityProxy.sol\":5181:5284  function _fallback() internal {\r... */\n      jump\t// out\n        /* \"contracts/contracts/governance/Governable.sol\":1674:1761  function governor() public view returns (address) {\r... */\n    tag_19:\n        /* \"contracts/contracts/governance/Governable.sol\":1715:1722  address */\n      0x00\n        /* \"contracts/contracts/governance/Governable.sol\":1742:1753  _governor() */\n      tag_63\n        /* \"contracts/contracts/governance/Governable.sol\":1742:1751  _governor */\n      tag_64\n        /* \"contracts/contracts/governance/Governable.sol\":1742:1753  _governor() */\n      jump\t// in\n    tag_63:\n        /* \"contracts/contracts/governance/Governable.sol\":1735:1753  return _governor() */\n      swap1\n      pop\n        /* \"contracts/contracts/governance/Governable.sol\":1674:1761  function governor() public view returns (address) {\r... */\n      swap1\n      jump\t// out\n        /* \"contracts/contracts/proxies/InitializeGovernedUpgradeabilityProxy.sol\":2513:2629  function upgradeTo(address newImplementation) external onlyGovernor {\r... */\n    tag_26:\n        /* \"contracts/contracts/governance/Governable.sol\":2510:2522  isGovernor() */\n      tag_66\n        /* \"contracts/contracts/governance/Governable.sol\":2510:2520  isGovernor */\n      tag_40\n        /* \"contracts/contracts/governance/Governable.sol\":2510:2522  isGovernor() */\n      jump\t// in\n    tag_66:\n        /* \"contracts/contracts/governance/Governable.sol\":2502:2553  require(isGovernor(), \"Caller is not the Governor\") */\n      tag_67\n      jumpi\n      mload(0x40)\n      0x08c379a000000000000000000000000000000000000000000000000000000000\n      dup2\n      mstore\n      0x04\n      add\n      tag_68\n      swap1\n      tag_69\n      jump\t// in\n    tag_68:\n      mload(0x40)\n      dup1\n      swap2\n      sub\n      swap1\n      revert\n    tag_67:\n        /* \"contracts/contracts/proxies/InitializeGovernedUpgradeabilityProxy.sol\":2592:2621  _upgradeTo(newImplementation) */\n      tag_71\n        /* \"contracts/contracts/proxies/InitializeGovernedUpgradeabilityProxy.sol\":2603:2620  newImplementation */\n      dup2\n        /* \"contracts/contracts/proxies/InitializeGovernedUpgradeabilityProxy.sol\":2592:2602  _upgradeTo */\n      tag_72\n        /* \"contracts/contracts/proxies/InitializeGovernedUpgradeabilityProxy.sol\":2592:2621  _upgradeTo(newImplementation) */\n      jump\t// in\n    tag_71:\n        /* \"contracts/contracts/proxies/InitializeGovernedUpgradeabilityProxy.sol\":2513:2629  function upgradeTo(address newImplementation) external onlyGovernor {\r... */\n      pop\n      jump\t// out\n        /* \"contracts/contracts/proxies/InitializeGovernedUpgradeabilityProxy.sol\":3177:3454  function upgradeToAndCall(address newImplementation, bytes calldata data)\r... */\n    tag_30:\n        /* \"contracts/contracts/governance/Governable.sol\":2510:2522  isGovernor() */\n      tag_74\n        /* \"contracts/contracts/governance/Governable.sol\":2510:2520  isGovernor */\n      tag_40\n        /* \"contracts/contracts/governance/Governable.sol\":2510:2522  isGovernor() */\n      jump\t// in\n    tag_74:\n        /* \"contracts/contracts/governance/Governable.sol\":2502:2553  require(isGovernor(), \"Caller is not the Governor\") */\n      tag_75\n      jumpi\n      mload(0x40)\n      0x08c379a000000000000000000000000000000000000000000000000000000000\n      dup2\n      mstore\n      0x04\n      add\n      tag_76\n      swap1\n      tag_69\n      jump\t// in\n    tag_76:\n      mload(0x40)\n      dup1\n      swap2\n      sub\n      swap1\n      revert\n    tag_75:\n        /* \"contracts/contracts/proxies/InitializeGovernedUpgradeabilityProxy.sol\":3324:3353  _upgradeTo(newImplementation) */\n      tag_78\n        /* \"contracts/contracts/proxies/InitializeGovernedUpgradeabilityProxy.sol\":3335:3352  newImplementation */\n      dup4\n        /* \"contracts/contracts/proxies/InitializeGovernedUpgradeabilityProxy.sol\":3324:3334  _upgradeTo */\n      tag_72\n        /* \"contracts/contracts/proxies/InitializeGovernedUpgradeabilityProxy.sol\":3324:3353  _upgradeTo(newImplementation) */\n      jump\t// in\n    tag_78:\n        /* \"contracts/contracts/proxies/InitializeGovernedUpgradeabilityProxy.sol\":3365:3377  bool success */\n      0x00\n        /* \"contracts/contracts/proxies/InitializeGovernedUpgradeabilityProxy.sol\":3383:3400  newImplementation */\n      dup4\n        /* \"contracts/contracts/proxies/InitializeGovernedUpgradeabilityProxy.sol\":3383:3413  newImplementation.delegatecall */\n      0xffffffffffffffffffffffffffffffffffffffff\n      and\n        /* \"contracts/contracts/proxies/InitializeGovernedUpgradeabilityProxy.sol\":3414:3418  data */\n      dup4\n      dup4\n        /* \"contracts/contracts/proxies/InitializeGovernedUpgradeabilityProxy.sol\":3383:3419  newImplementation.delegatecall(data) */\n      mload(0x40)\n      tag_79\n      swap3\n      swap2\n      swap1\n      tag_80\n      jump\t// in\n    tag_79:\n      0x00\n      mload(0x40)\n      dup1\n      dup4\n      sub\n      dup2\n      dup6\n      gas\n      delegatecall\n      swap2\n      pop\n      pop\n      returndatasize\n      dup1\n      0x00\n      dup2\n      eq\n      tag_83\n      jumpi\n      mload(0x40)\n      swap2\n      pop\n      and(add(returndatasize, 0x3f), not(0x1f))\n      dup3\n      add\n      0x40\n      mstore\n      returndatasize\n      dup3\n      mstore\n      returndatasize\n      0x00\n      0x20\n      dup5\n      add\n      returndatacopy\n      jump(tag_82)\n    tag_83:\n      0x60\n      swap2\n      pop\n    tag_82:\n      pop\n        /* \"contracts/contracts/proxies/InitializeGovernedUpgradeabilityProxy.sol\":3364:3419  (bool success, ) = newImplementation.delegatecall(data) */\n      pop\n      swap1\n      pop\n        /* \"contracts/contracts/proxies/InitializeGovernedUpgradeabilityProxy.sol\":3438:3445  success */\n      dup1\n        /* \"contracts/contracts/proxies/InitializeGovernedUpgradeabilityProxy.sol\":3430:3446  require(success) */\n      tag_84\n      jumpi\n      0x00\n      dup1\n      revert\n    tag_84:\n        /* \"contracts/contracts/proxies/InitializeGovernedUpgradeabilityProxy.sol\":3313:3454  {\r... */\n      pop\n        /* \"contracts/contracts/proxies/InitializeGovernedUpgradeabilityProxy.sol\":3177:3454  function upgradeToAndCall(address newImplementation, bytes calldata data)\r... */\n      pop\n      pop\n      pop\n      jump\t// out\n        /* \"contracts/contracts/proxies/InitializeGovernedUpgradeabilityProxy.sol\":2209:2310  function implementation() external view returns (address) {\r... */\n    tag_33:\n        /* \"contracts/contracts/proxies/InitializeGovernedUpgradeabilityProxy.sol\":2258:2265  address */\n      0x00\n        /* \"contracts/contracts/proxies/InitializeGovernedUpgradeabilityProxy.sol\":2285:2302  _implementation() */\n      tag_86\n        /* \"contracts/contracts/proxies/InitializeGovernedUpgradeabilityProxy.sol\":2285:2300  _implementation */\n      tag_60\n        /* \"contracts/contracts/proxies/InitializeGovernedUpgradeabilityProxy.sol\":2285:2302  _implementation() */\n      jump\t// in\n    tag_86:\n        /* \"contracts/contracts/proxies/InitializeGovernedUpgradeabilityProxy.sol\":2278:2302  return _implementation() */\n      swap1\n      pop\n        /* \"contracts/contracts/proxies/InitializeGovernedUpgradeabilityProxy.sol\":2209:2310  function implementation() external view returns (address) {\r... */\n      swap1\n      jump\t// out\n        /* \"contracts/contracts/governance/Governable.sol\":4839:5062  function claimGovernance() external {\r... */\n    tag_37:\n        /* \"contracts/contracts/governance/Governable.sol\":4922:4940  _pendingGovernor() */\n      tag_88\n        /* \"contracts/contracts/governance/Governable.sol\":4922:4938  _pendingGovernor */\n      tag_89\n        /* \"contracts/contracts/governance/Governable.sol\":4922:4940  _pendingGovernor() */\n      jump\t// in\n    tag_88:\n        /* \"contracts/contracts/governance/Governable.sol\":4908:4940  msg.sender == _pendingGovernor() */\n      0xffffffffffffffffffffffffffffffffffffffff\n      and\n        /* \"contracts/contracts/governance/Governable.sol\":4908:4918  msg.sender */\n      caller\n        /* \"contracts/contracts/governance/Governable.sol\":4908:4940  msg.sender == _pendingGovernor() */\n      0xffffffffffffffffffffffffffffffffffffffff\n      and\n      eq\n        /* \"contracts/contracts/governance/Governable.sol\":4886:5016  require(\r... */\n      tag_90\n      jumpi\n      mload(0x40)\n      0x08c379a000000000000000000000000000000000000000000000000000000000\n      dup2\n      mstore\n      0x04\n      add\n      tag_91\n      swap1\n      tag_92\n      jump\t// in\n    tag_91:\n      mload(0x40)\n      dup1\n      swap2\n      sub\n      swap1\n      revert\n    tag_90:\n        /* \"contracts/contracts/governance/Governable.sol\":5027:5054  _changeGovernor(msg.sender) */\n      tag_93\n        /* \"contracts/contracts/governance/Governable.sol\":5043:5053  msg.sender */\n      caller\n        /* \"contracts/contracts/governance/Governable.sol\":5027:5042  _changeGovernor */\n      tag_94\n        /* \"contracts/contracts/governance/Governable.sol\":5027:5054  _changeGovernor(msg.sender) */\n      jump\t// in\n    tag_93:\n        /* \"contracts/contracts/governance/Governable.sol\":4839:5062  function claimGovernance() external {\r... */\n      jump\t// out\n        /* \"contracts/contracts/governance/Governable.sol\":2664:2764  function isGovernor() public view returns (bool) {\r... */\n    tag_40:\n        /* \"contracts/contracts/governance/Governable.sol\":2707:2711  bool */\n      0x00\n        /* \"contracts/contracts/governance/Governable.sol\":2745:2756  _governor() */\n      tag_96\n        /* \"contracts/contracts/governance/Governable.sol\":2745:2754  _governor */\n      tag_64\n        /* \"contracts/contracts/governance/Governable.sol\":2745:2756  _governor() */\n      jump\t// in\n    tag_96:\n        /* \"contracts/contracts/governance/Governable.sol\":2731:2756  msg.sender == _governor() */\n      0xffffffffffffffffffffffffffffffffffffffff\n      and\n        /* \"contracts/contracts/governance/Governable.sol\":2731:2741  msg.sender */\n      caller\n        /* \"contracts/contracts/governance/Governable.sol\":2731:2756  msg.sender == _governor() */\n      0xffffffffffffffffffffffffffffffffffffffff\n      and\n      eq\n        /* \"contracts/contracts/governance/Governable.sol\":2724:2756  return msg.sender == _governor() */\n      swap1\n      pop\n        /* \"contracts/contracts/governance/Governable.sol\":2664:2764  function isGovernor() public view returns (bool) {\r... */\n      swap1\n      jump\t// out\n        /* \"contracts/contracts/proxies/InitializeGovernedUpgradeabilityProxy.sol\":1390:1949  function initialize(\r... */\n    tag_46:\n        /* \"contracts/contracts/governance/Governable.sol\":2510:2522  isGovernor() */\n      tag_98\n        /* \"contracts/contracts/governance/Governable.sol\":2510:2520  isGovernor */\n      tag_40\n        /* \"contracts/contracts/governance/Governable.sol\":2510:2522  isGovernor() */\n      jump\t// in\n    tag_98:\n        /* \"contracts/contracts/governance/Governable.sol\":2502:2553  require(isGovernor(), \"Caller is not the Governor\") */\n      tag_99\n      jumpi\n      mload(0x40)\n      0x08c379a000000000000000000000000000000000000000000000000000000000\n      dup2\n      mstore\n      0x04\n      add\n      tag_100\n      swap1\n      tag_69\n      jump\t// in\n    tag_100:\n      mload(0x40)\n      dup1\n      swap2\n      sub\n      swap1\n      revert\n    tag_99:\n        /* \"contracts/contracts/proxies/InitializeGovernedUpgradeabilityProxy.sol\":1579:1580  0 */\n      0x00\n        /* \"contracts/contracts/proxies/InitializeGovernedUpgradeabilityProxy.sol\":1550:1581  _implementation() == address(0) */\n      0xffffffffffffffffffffffffffffffffffffffff\n      and\n        /* \"contracts/contracts/proxies/InitializeGovernedUpgradeabilityProxy.sol\":1550:1567  _implementation() */\n      tag_102\n        /* \"contracts/contracts/proxies/InitializeGovernedUpgradeabilityProxy.sol\":1550:1565  _implementation */\n      tag_60\n        /* \"contracts/contracts/proxies/InitializeGovernedUpgradeabilityProxy.sol\":1550:1567  _implementation() */\n      jump\t// in\n    tag_102:\n        /* \"contracts/contracts/proxies/InitializeGovernedUpgradeabilityProxy.sol\":1550:1581  _implementation() == address(0) */\n      0xffffffffffffffffffffffffffffffffffffffff\n      and\n      eq\n        /* \"contracts/contracts/proxies/InitializeGovernedUpgradeabilityProxy.sol\":1542:1582  require(_implementation() == address(0)) */\n      tag_103\n      jumpi\n      0x00\n      dup1\n      revert\n    tag_103:\n        /* \"contracts/contracts/proxies/InitializeGovernedUpgradeabilityProxy.sol\":1715:1716  1 */\n      0x01\n        /* \"contracts/contracts/proxies/InitializeGovernedUpgradeabilityProxy.sol\":1670:1711  keccak256(\"eip1967.proxy.implementation\") */\n      0x360894a13ba1a3210667c828492db98dca3e2076cc3735a920a3ca505d382bbd\n        /* \"contracts/contracts/proxies/InitializeGovernedUpgradeabilityProxy.sol\":1662:1712  uint256(keccak256(\"eip1967.proxy.implementation\")) */\n      0x00\n      shr\n        /* \"contracts/contracts/proxies/InitializeGovernedUpgradeabilityProxy.sol\":1662:1716  uint256(keccak256(\"eip1967.proxy.implementation\")) - 1 */\n      tag_104\n      swap2\n      swap1\n      tag_105\n      jump\t// in\n    tag_104:\n        /* \"contracts/contracts/proxies/InitializeGovernedUpgradeabilityProxy.sol\":1654:1717  bytes32(uint256(keccak256(\"eip1967.proxy.implementation\")) - 1) */\n      0x00\n      shl\n        /* \"contracts/contracts/proxies/InitializeGovernedUpgradeabilityProxy.sol\":5573:5639  0x360894a13ba1a3210667c828492db98dca3e2076cc3735a920a3ca505d382bbc */\n      0x360894a13ba1a3210667c828492db98dca3e2076cc3735a920a3ca505d382bbc\n        /* \"contracts/contracts/proxies/InitializeGovernedUpgradeabilityProxy.sol\":1614:1633  IMPLEMENTATION_SLOT */\n      0x00\n      shl\n        /* \"contracts/contracts/proxies/InitializeGovernedUpgradeabilityProxy.sol\":1614:1717  IMPLEMENTATION_SLOT ==\r... */\n      eq\n        /* \"contracts/contracts/proxies/InitializeGovernedUpgradeabilityProxy.sol\":1593:1728  assert(\r... */\n      tag_106\n      jumpi\n      tag_107\n      tag_108\n      jump\t// in\n    tag_107:\n    tag_106:\n        /* \"contracts/contracts/proxies/InitializeGovernedUpgradeabilityProxy.sol\":1739:1769  _changeGovernor(_initGovernor) */\n      tag_109\n        /* \"contracts/contracts/proxies/InitializeGovernedUpgradeabilityProxy.sol\":1755:1768  _initGovernor */\n      dup3\n        /* \"contracts/contracts/proxies/InitializeGovernedUpgradeabilityProxy.sol\":1739:1754  _changeGovernor */\n      tag_94\n        /* \"contracts/contracts/proxies/InitializeGovernedUpgradeabilityProxy.sol\":1739:1769  _changeGovernor(_initGovernor) */\n      jump\t// in\n    tag_109:\n        /* \"contracts/contracts/proxies/InitializeGovernedUpgradeabilityProxy.sol\":1780:1806  _setImplementation(_logic) */\n      tag_110\n        /* \"contracts/contracts/proxies/InitializeGovernedUpgradeabilityProxy.sol\":1799:1805  _logic */\n      dup4\n        /* \"contracts/contracts/proxies/InitializeGovernedUpgradeabilityProxy.sol\":1780:1798  _setImplementation */\n      tag_111\n        /* \"contracts/contracts/proxies/InitializeGovernedUpgradeabilityProxy.sol\":1780:1806  _setImplementation(_logic) */\n      jump\t// in\n    tag_110:\n        /* \"contracts/contracts/proxies/InitializeGovernedUpgradeabilityProxy.sol\":1836:1837  0 */\n      0x00\n        /* \"contracts/contracts/proxies/InitializeGovernedUpgradeabilityProxy.sol\":1821:1826  _data */\n      dup2\n        /* \"contracts/contracts/proxies/InitializeGovernedUpgradeabilityProxy.sol\":1821:1833  _data.length */\n      mload\n        /* \"contracts/contracts/proxies/InitializeGovernedUpgradeabilityProxy.sol\":1821:1837  _data.length > 0 */\n      gt\n        /* \"contracts/contracts/proxies/InitializeGovernedUpgradeabilityProxy.sol\":1817:1942  if (_data.length > 0) {\r... */\n      iszero\n      tag_112\n      jumpi\n        /* \"contracts/contracts/proxies/InitializeGovernedUpgradeabilityProxy.sol\":1855:1867  bool success */\n      0x00\n        /* \"contracts/contracts/proxies/InitializeGovernedUpgradeabilityProxy.sol\":1873:1879  _logic */\n      dup4\n        /* \"contracts/contracts/proxies/InitializeGovernedUpgradeabilityProxy.sol\":1873:1892  _logic.delegatecall */\n      0xffffffffffffffffffffffffffffffffffffffff\n      and\n        /* \"contracts/contracts/proxies/InitializeGovernedUpgradeabilityProxy.sol\":1893:1898  _data */\n      dup3\n        /* \"contracts/contracts/proxies/InitializeGovernedUpgradeabilityProxy.sol\":1873:1899  _logic.delegatecall(_data) */\n      mload(0x40)\n      tag_113\n      swap2\n      swap1\n      tag_114\n      jump\t// in\n    tag_113:\n      0x00\n      mload(0x40)\n      dup1\n      dup4\n      sub\n      dup2\n      dup6\n      gas\n      delegatecall\n      swap2\n      pop\n      pop\n      returndatasize\n      dup1\n      0x00\n      dup2\n      eq\n      tag_117\n      jumpi\n      mload(0x40)\n      swap2\n      pop\n      and(add(returndatasize, 0x3f), not(0x1f))\n      dup3\n      add\n      0x40\n      mstore\n      returndatasize\n      dup3\n      mstore\n      returndatasize\n      0x00\n      0x20\n      dup5\n      add\n      returndatacopy\n      jump(tag_116)\n    tag_117:\n      0x60\n      swap2\n      pop\n    tag_116:\n      pop\n        /* \"contracts/contracts/proxies/InitializeGovernedUpgradeabilityProxy.sol\":1854:1899  (bool success, ) = _logic.delegatecall(_data) */\n      pop\n      swap1\n      pop\n        /* \"contracts/contracts/proxies/InitializeGovernedUpgradeabilityProxy.sol\":1922:1929  success */\n      dup1\n        /* \"contracts/contracts/proxies/InitializeGovernedUpgradeabilityProxy.sol\":1914:1930  require(success) */\n      tag_118\n      jumpi\n      0x00\n      dup1\n      revert\n    tag_118:\n        /* \"contracts/contracts/proxies/InitializeGovernedUpgradeabilityProxy.sol\":1839:1942  {\r... */\n      pop\n        /* \"contracts/contracts/proxies/InitializeGovernedUpgradeabilityProxy.sol\":1817:1942  if (_data.length > 0) {\r... */\n    tag_112:\n        /* \"contracts/contracts/proxies/InitializeGovernedUpgradeabilityProxy.sol\":1390:1949  function initialize(\r... */\n      pop\n      pop\n      pop\n      jump\t// out\n        /* \"contracts/contracts/governance/Governable.sol\":4491:4685  function transferGovernance(address _newGovernor) external onlyGovernor {\r... */\n    tag_50:\n        /* \"contracts/contracts/governance/Governable.sol\":2510:2522  isGovernor() */\n      tag_120\n        /* \"contracts/contracts/governance/Governable.sol\":2510:2520  isGovernor */\n      tag_40\n        /* \"contracts/contracts/governance/Governable.sol\":2510:2522  isGovernor() */\n      jump\t// in\n    tag_120:\n        /* \"contracts/contracts/governance/Governable.sol\":2502:2553  require(isGovernor(), \"Caller is not the Governor\") */\n      tag_121\n      jumpi\n      mload(0x40)\n      0x08c379a000000000000000000000000000000000000000000000000000000000\n      dup2\n      mstore\n      0x04\n      add\n      tag_122\n      swap1\n      tag_69\n      jump\t// in\n    tag_122:\n      mload(0x40)\n      dup1\n      swap2\n      sub\n      swap1\n      revert\n    tag_121:\n        /* \"contracts/contracts/governance/Governable.sol\":4574:4607  _setPendingGovernor(_newGovernor) */\n      tag_124\n        /* \"contracts/contracts/governance/Governable.sol\":4594:4606  _newGovernor */\n      dup2\n        /* \"contracts/contracts/governance/Governable.sol\":4574:4593  _setPendingGovernor */\n      tag_125\n        /* \"contracts/contracts/governance/Governable.sol\":4574:4607  _setPendingGovernor(_newGovernor) */\n      jump\t// in\n    tag_124:\n        /* \"contracts/contracts/governance/Governable.sol\":4664:4676  _newGovernor */\n      dup1\n        /* \"contracts/contracts/governance/Governable.sol\":4623:4677  PendingGovernorshipTransfer(_governor(), _newGovernor) */\n      0xffffffffffffffffffffffffffffffffffffffff\n      and\n        /* \"contracts/contracts/governance/Governable.sol\":4651:4662  _governor() */\n      tag_126\n        /* \"contracts/contracts/governance/Governable.sol\":4651:4660  _governor */\n      tag_64\n        /* \"contracts/contracts/governance/Governable.sol\":4651:4662  _governor() */\n      jump\t// in\n    tag_126:\n        /* \"contracts/contracts/governance/Governable.sol\":4623:4677  PendingGovernorshipTransfer(_governor(), _newGovernor) */\n      0xffffffffffffffffffffffffffffffffffffffff\n      and\n      0xa39cc5eb22d0f34d8beaefee8a3f17cc229c1a1d1ef87a5ad47313487b1c4f0d\n      mload(0x40)\n      mload(0x40)\n      dup1\n      swap2\n      sub\n      swap1\n      log3\n        /* \"contracts/contracts/governance/Governable.sol\":4491:4685  function transferGovernance(address _newGovernor) external onlyGovernor {\r... */\n      pop\n      jump\t// out\n        /* \"contracts/contracts/proxies/InitializeGovernedUpgradeabilityProxy.sol\":2046:2132  function admin() external view returns (address) {\r... */\n    tag_53:\n        /* \"contracts/contracts/proxies/InitializeGovernedUpgradeabilityProxy.sol\":2086:2093  address */\n      0x00\n        /* \"contracts/contracts/proxies/InitializeGovernedUpgradeabilityProxy.sol\":2113:2124  _governor() */\n      tag_128\n        /* \"contracts/contracts/proxies/InitializeGovernedUpgradeabilityProxy.sol\":2113:2122  _governor */\n      tag_64\n        /* \"contracts/contracts/proxies/InitializeGovernedUpgradeabilityProxy.sol\":2113:2124  _governor() */\n      jump\t// in\n    tag_128:\n        /* \"contracts/contracts/proxies/InitializeGovernedUpgradeabilityProxy.sol\":2106:2124  return _governor() */\n      swap1\n      pop\n        /* \"contracts/contracts/proxies/InitializeGovernedUpgradeabilityProxy.sol\":2046:2132  function admin() external view returns (address) {\r... */\n      swap1\n      jump\t// out\n        /* \"contracts/contracts/proxies/InitializeGovernedUpgradeabilityProxy.sol\":5034:5070  function _willFallback() internal {} */\n    tag_57:\n      jump\t// out\n        /* \"contracts/contracts/proxies/InitializeGovernedUpgradeabilityProxy.sol\":5774:5955  function _implementation() internal view returns (address impl) {\r... */\n    tag_60:\n        /* \"contracts/contracts/proxies/InitializeGovernedUpgradeabilityProxy.sol\":5824:5836  address impl */\n      0x00\n        /* \"contracts/contracts/proxies/InitializeGovernedUpgradeabilityProxy.sol\":5849:5861  bytes32 slot */\n      dup1\n        /* \"contracts/contracts/proxies/InitializeGovernedUpgradeabilityProxy.sol\":5573:5639  0x360894a13ba1a3210667c828492db98dca3e2076cc3735a920a3ca505d382bbc */\n      0x360894a13ba1a3210667c828492db98dca3e2076cc3735a920a3ca505d382bbc\n        /* \"contracts/contracts/proxies/InitializeGovernedUpgradeabilityProxy.sol\":5864:5883  IMPLEMENTATION_SLOT */\n      0x00\n      shl\n        /* \"contracts/contracts/proxies/InitializeGovernedUpgradeabilityProxy.sol\":5849:5883  bytes32 slot = IMPLEMENTATION_SLOT */\n      swap1\n      pop\n        /* \"contracts/contracts/proxies/InitializeGovernedUpgradeabilityProxy.sol\":5932:5936  slot */\n      dup1\n        /* \"contracts/contracts/proxies/InitializeGovernedUpgradeabilityProxy.sol\":5926:5937  sload(slot) */\n      sload\n        /* \"contracts/contracts/proxies/InitializeGovernedUpgradeabilityProxy.sol\":5918:5937  impl := sload(slot) */\n      swap2\n      pop\n        /* \"contracts/contracts/proxies/InitializeGovernedUpgradeabilityProxy.sol\":5903:5948  {\r... */\n      pop\n        /* \"contracts/contracts/proxies/InitializeGovernedUpgradeabilityProxy.sol\":5774:5955  function _implementation() internal view returns (address impl) {\r... */\n      swap1\n      jump\t// out\n        /* \"contracts/contracts/proxies/InitializeGovernedUpgradeabilityProxy.sol\":3914:4806  function _delegate(address _impl) internal {\r... */\n    tag_61:\n        /* \"contracts/contracts/proxies/InitializeGovernedUpgradeabilityProxy.sol\":4240:4254  calldatasize() */\n      calldatasize\n        /* \"contracts/contracts/proxies/InitializeGovernedUpgradeabilityProxy.sol\":4237:4238  0 */\n      0x00\n        /* \"contracts/contracts/proxies/InitializeGovernedUpgradeabilityProxy.sol\":4234:4235  0 */\n      dup1\n        /* \"contracts/contracts/proxies/InitializeGovernedUpgradeabilityProxy.sol\":4221:4255  calldatacopy(0, 0, calldatasize()) */\n      calldatacopy\n        /* \"contracts/contracts/proxies/InitializeGovernedUpgradeabilityProxy.sol\":4449:4450  0 */\n      0x00\n        /* \"contracts/contracts/proxies/InitializeGovernedUpgradeabilityProxy.sol\":4446:4447  0 */\n      dup1\n        /* \"contracts/contracts/proxies/InitializeGovernedUpgradeabilityProxy.sol\":4430:4444  calldatasize() */\n      calldatasize\n        /* \"contracts/contracts/proxies/InitializeGovernedUpgradeabilityProxy.sol\":4427:4428  0 */\n      0x00\n        /* \"contracts/contracts/proxies/InitializeGovernedUpgradeabilityProxy.sol\":4420:4425  _impl */\n      dup5\n        /* \"contracts/contracts/proxies/InitializeGovernedUpgradeabilityProxy.sol\":4413:4418  gas() */\n      gas\n        /* \"contracts/contracts/proxies/InitializeGovernedUpgradeabilityProxy.sol\":4400:4451  delegatecall(gas(), _impl, 0, calldatasize(), 0, 0) */\n      delegatecall\n        /* \"contracts/contracts/proxies/InitializeGovernedUpgradeabilityProxy.sol\":4528:4544  returndatasize() */\n      returndatasize\n        /* \"contracts/contracts/proxies/InitializeGovernedUpgradeabilityProxy.sol\":4525:4526  0 */\n      0x00\n        /* \"contracts/contracts/proxies/InitializeGovernedUpgradeabilityProxy.sol\":4522:4523  0 */\n      dup1\n        /* \"contracts/contracts/proxies/InitializeGovernedUpgradeabilityProxy.sol\":4507:4545  returndatacopy(0, 0, returndatasize()) */\n      returndatacopy\n        /* \"contracts/contracts/proxies/InitializeGovernedUpgradeabilityProxy.sol\":4568:4574  result */\n      dup1\n        /* \"contracts/contracts/proxies/InitializeGovernedUpgradeabilityProxy.sol\":4642:4643  0 */\n      0x00\n        /* \"contracts/contracts/proxies/InitializeGovernedUpgradeabilityProxy.sol\":4637:4705  case 0 {\r... */\n      dup2\n      eq\n      tag_133\n      jumpi\n        /* \"contracts/contracts/proxies/InitializeGovernedUpgradeabilityProxy.sol\":4756:4772  returndatasize() */\n      returndatasize\n        /* \"contracts/contracts/proxies/InitializeGovernedUpgradeabilityProxy.sol\":4753:4754  0 */\n      0x00\n        /* \"contracts/contracts/proxies/InitializeGovernedUpgradeabilityProxy.sol\":4746:4773  return(0, returndatasize()) */\n      return\n        /* \"contracts/contracts/proxies/InitializeGovernedUpgradeabilityProxy.sol\":4637:4705  case 0 {\r... */\n    tag_133:\n        /* \"contracts/contracts/proxies/InitializeGovernedUpgradeabilityProxy.sol\":4673:4689  returndatasize() */\n      returndatasize\n        /* \"contracts/contracts/proxies/InitializeGovernedUpgradeabilityProxy.sol\":4670:4671  0 */\n      0x00\n        /* \"contracts/contracts/proxies/InitializeGovernedUpgradeabilityProxy.sol\":4663:4690  revert(0, returndatasize()) */\n      revert\n        /* \"contracts/contracts/governance/Governable.sol\":1845:2039  function _governor() internal view returns (address governorOut) {\r... */\n    tag_64:\n        /* \"contracts/contracts/governance/Governable.sol\":1889:1908  address governorOut */\n      0x00\n        /* \"contracts/contracts/governance/Governable.sol\":1921:1937  bytes32 position */\n      dup1\n        /* \"contracts/contracts/governance/Governable.sol\":548:614  0x7bea13895fa79d2831e0a9e28edede30099005a50d652d8957cf8a607ee6ca4a */\n      0x7bea13895fa79d2831e0a9e28edede30099005a50d652d8957cf8a607ee6ca4a\n        /* \"contracts/contracts/governance/Governable.sol\":1940:1956  governorPosition */\n      0x00\n      shl\n        /* \"contracts/contracts/governance/Governable.sol\":1921:1956  bytes32 position = governorPosition */\n      swap1\n      pop\n        /* \"contracts/contracts/governance/Governable.sol\":2012:2020  position */\n      dup1\n        /* \"contracts/contracts/governance/Governable.sol\":2006:2021  sload(position) */\n      sload\n        /* \"contracts/contracts/governance/Governable.sol\":1991:2021  governorOut := sload(position) */\n      swap2\n      pop\n        /* \"contracts/contracts/governance/Governable.sol\":1976:2032  {\r... */\n      pop\n        /* \"contracts/contracts/governance/Governable.sol\":1845:2039  function _governor() internal view returns (address governorOut) {\r... */\n      swap1\n      jump\t// out\n        /* \"contracts/contracts/proxies/InitializeGovernedUpgradeabilityProxy.sol\":6106:6261  function _upgradeTo(address newImplementation) internal {\r... */\n    tag_72:\n        /* \"contracts/contracts/proxies/InitializeGovernedUpgradeabilityProxy.sol\":6173:6210  _setImplementation(newImplementation) */\n      tag_136\n        /* \"contracts/contracts/proxies/InitializeGovernedUpgradeabilityProxy.sol\":6192:6209  newImplementation */\n      dup2\n        /* \"contracts/contracts/proxies/InitializeGovernedUpgradeabilityProxy.sol\":6173:6191  _setImplementation */\n      tag_111\n        /* \"contracts/contracts/proxies/InitializeGovernedUpgradeabilityProxy.sol\":6173:6210  _setImplementation(newImplementation) */\n      jump\t// in\n    tag_136:\n        /* \"contracts/contracts/proxies/InitializeGovernedUpgradeabilityProxy.sol\":6235:6252  newImplementation */\n      dup1\n        /* \"contracts/contracts/proxies/InitializeGovernedUpgradeabilityProxy.sol\":6226:6253  Upgraded(newImplementation) */\n      0xffffffffffffffffffffffffffffffffffffffff\n      and\n      0xbc7cd75a20ee27fd9adebab32041f755214dbc6bffa90cc0225b39da2e5c2d3b\n      mload(0x40)\n      mload(0x40)\n      dup1\n      swap2\n      sub\n      swap1\n      log2\n        /* \"contracts/contracts/proxies/InitializeGovernedUpgradeabilityProxy.sol\":6106:6261  function _upgradeTo(address newImplementation) internal {\r... */\n      pop\n      jump\t// out\n        /* \"contracts/contracts/governance/Governable.sol\":2123:2371  function _pendingGovernor()\r... */\n    tag_89:\n        /* \"contracts/contracts/governance/Governable.sol\":2201:2224  address pendingGovernor */\n      0x00\n        /* \"contracts/contracts/governance/Governable.sol\":2242:2258  bytes32 position */\n      dup1\n        /* \"contracts/contracts/governance/Governable.sol\":727:793  0x44c4d30b2eaad5130ad70c3ba6972730566f3e6359ab83e800d905c61b1c51db */\n      0x44c4d30b2eaad5130ad70c3ba6972730566f3e6359ab83e800d905c61b1c51db\n        /* \"contracts/contracts/governance/Governable.sol\":2261:2284  pendingGovernorPosition */\n      0x00\n      shl\n        /* \"contracts/contracts/governance/Governable.sol\":2242:2284  bytes32 position = pendingGovernorPosition */\n      swap1\n      pop\n        /* \"contracts/contracts/governance/Governable.sol\":2344:2352  position */\n      dup1\n        /* \"contracts/contracts/governance/Governable.sol\":2338:2353  sload(position) */\n      sload\n        /* \"contracts/contracts/governance/Governable.sol\":2319:2353  pendingGovernor := sload(position) */\n      swap2\n      pop\n        /* \"contracts/contracts/governance/Governable.sol\":2304:2364  {\r... */\n      pop\n        /* \"contracts/contracts/governance/Governable.sol\":2123:2371  function _pendingGovernor()\r... */\n      swap1\n      jump\t// out\n        /* \"contracts/contracts/governance/Governable.sol\":5225:5468  function _changeGovernor(address _newGovernor) internal {\r... */\n    tag_94:\n        /* \"contracts/contracts/governance/Governable.sol\":5324:5325  0 */\n      0x00\n        /* \"contracts/contracts/governance/Governable.sol\":5300:5326  _newGovernor != address(0) */\n      0xffffffffffffffffffffffffffffffffffffffff\n      and\n        /* \"contracts/contracts/governance/Governable.sol\":5300:5312  _newGovernor */\n      dup2\n        /* \"contracts/contracts/governance/Governable.sol\":5300:5326  _newGovernor != address(0) */\n      0xffffffffffffffffffffffffffffffffffffffff\n      and\n      eq\n      iszero\n        /* \"contracts/contracts/governance/Governable.sol\":5292:5357  require(_newGovernor != address(0), \"New Governor is address(0)\") */\n      tag_139\n      jumpi\n      mload(0x40)\n      0x08c379a000000000000000000000000000000000000000000000000000000000\n      dup2\n      mstore\n      0x04\n      add\n      tag_140\n      swap1\n      tag_141\n      jump\t// in\n    tag_140:\n      mload(0x40)\n      dup1\n      swap2\n      sub\n      swap1\n      revert\n    tag_139:\n        /* \"contracts/contracts/governance/Governable.sol\":5410:5422  _newGovernor */\n      dup1\n        /* \"contracts/contracts/governance/Governable.sol\":5373:5423  GovernorshipTransferred(_governor(), _newGovernor) */\n      0xffffffffffffffffffffffffffffffffffffffff\n      and\n        /* \"contracts/contracts/governance/Governable.sol\":5397:5408  _governor() */\n      tag_142\n        /* \"contracts/contracts/governance/Governable.sol\":5397:5406  _governor */\n      tag_64\n        /* \"contracts/contracts/governance/Governable.sol\":5397:5408  _governor() */\n      jump\t// in\n    tag_142:\n        /* \"contracts/contracts/governance/Governable.sol\":5373:5423  GovernorshipTransferred(_governor(), _newGovernor) */\n      0xffffffffffffffffffffffffffffffffffffffff\n      and\n      0xc7c0c772add429241571afb3805861fb3cfa2af374534088b76cdb4325a87e9a\n      mload(0x40)\n      mload(0x40)\n      dup1\n      swap2\n      sub\n      swap1\n      log3\n        /* \"contracts/contracts/governance/Governable.sol\":5434:5460  _setGovernor(_newGovernor) */\n      tag_143\n        /* \"contracts/contracts/governance/Governable.sol\":5447:5459  _newGovernor */\n      dup2\n        /* \"contracts/contracts/governance/Governable.sol\":5434:5446  _setGovernor */\n      tag_144\n        /* \"contracts/contracts/governance/Governable.sol\":5434:5460  _setGovernor(_newGovernor) */\n      jump\t// in\n    tag_143:\n        /* \"contracts/contracts/governance/Governable.sol\":5225:5468  function _changeGovernor(address _newGovernor) internal {\r... */\n      pop\n      jump\t// out\n        /* \"contracts/contracts/proxies/InitializeGovernedUpgradeabilityProxy.sol\":6414:6768  function _setImplementation(address newImplementation) internal {\r... */\n    tag_111:\n        /* \"contracts/contracts/proxies/InitializeGovernedUpgradeabilityProxy.sol\":6511:6548  Address.isContract(newImplementation) */\n      tag_146\n        /* \"contracts/contracts/proxies/InitializeGovernedUpgradeabilityProxy.sol\":6530:6547  newImplementation */\n      dup2\n        /* \"contracts/contracts/proxies/InitializeGovernedUpgradeabilityProxy.sol\":6511:6529  Address.isContract */\n      tag_147\n        /* \"contracts/contracts/proxies/InitializeGovernedUpgradeabilityProxy.sol\":6511:6548  Address.isContract(newImplementation) */\n      jump\t// in\n    tag_146:\n        /* \"contracts/contracts/proxies/InitializeGovernedUpgradeabilityProxy.sol\":6489:6635  require(\r... */\n      tag_148\n      jumpi\n      mload(0x40)\n      0x08c379a000000000000000000000000000000000000000000000000000000000\n      dup2\n      mstore\n      0x04\n      add\n      tag_149\n      swap1\n      tag_150\n      jump\t// in\n    tag_149:\n      mload(0x40)\n      dup1\n      swap2\n      sub\n      swap1\n      revert\n    tag_148:\n        /* \"contracts/contracts/proxies/InitializeGovernedUpgradeabilityProxy.sol\":6648:6660  bytes32 slot */\n      0x00\n        /* \"contracts/contracts/proxies/InitializeGovernedUpgradeabilityProxy.sol\":5573:5639  0x360894a13ba1a3210667c828492db98dca3e2076cc3735a920a3ca505d382bbc */\n      0x360894a13ba1a3210667c828492db98dca3e2076cc3735a920a3ca505d382bbc\n        /* \"contracts/contracts/proxies/InitializeGovernedUpgradeabilityProxy.sol\":6663:6682  IMPLEMENTATION_SLOT */\n      0x00\n      shl\n        /* \"contracts/contracts/proxies/InitializeGovernedUpgradeabilityProxy.sol\":6648:6682  bytes32 slot = IMPLEMENTATION_SLOT */\n      swap1\n      pop\n        /* \"contracts/contracts/proxies/InitializeGovernedUpgradeabilityProxy.sol\":6732:6749  newImplementation */\n      dup2\n        /* \"contracts/contracts/proxies/InitializeGovernedUpgradeabilityProxy.sol\":6726:6730  slot */\n      dup2\n        /* \"contracts/contracts/proxies/InitializeGovernedUpgradeabilityProxy.sol\":6719:6750  sstore(slot, newImplementation) */\n      sstore\n        /* \"contracts/contracts/proxies/InitializeGovernedUpgradeabilityProxy.sol\":6704:6761  {\r... */\n      pop\n        /* \"contracts/contracts/proxies/InitializeGovernedUpgradeabilityProxy.sol\":6414:6768  function _setImplementation(address newImplementation) internal {\r... */\n      pop\n      jump\t// out\n        /* \"contracts/contracts/governance/Governable.sol\":4042:4236  function _setPendingGovernor(address newGovernor) internal {\r... */\n    tag_125:\n        /* \"contracts/contracts/governance/Governable.sol\":4112:4128  bytes32 position */\n      0x00\n        /* \"contracts/contracts/governance/Governable.sol\":727:793  0x44c4d30b2eaad5130ad70c3ba6972730566f3e6359ab83e800d905c61b1c51db */\n      0x44c4d30b2eaad5130ad70c3ba6972730566f3e6359ab83e800d905c61b1c51db\n        /* \"contracts/contracts/governance/Governable.sol\":4131:4154  pendingGovernorPosition */\n      0x00\n      shl\n        /* \"contracts/contracts/governance/Governable.sol\":4112:4154  bytes32 position = pendingGovernorPosition */\n      swap1\n      pop\n        /* \"contracts/contracts/governance/Governable.sol\":4206:4217  newGovernor */\n      dup2\n        /* \"contracts/contracts/governance/Governable.sol\":4196:4204  position */\n      dup2\n        /* \"contracts/contracts/governance/Governable.sol\":4189:4218  sstore(position, newGovernor) */\n      sstore\n        /* \"contracts/contracts/governance/Governable.sol\":4174:4229  {\r... */\n      pop\n        /* \"contracts/contracts/governance/Governable.sol\":4042:4236  function _setPendingGovernor(address newGovernor) internal {\r... */\n      pop\n      jump\t// out\n        /* \"contracts/contracts/governance/Governable.sol\":2772:2952  function _setGovernor(address newGovernor) internal {\r... */\n    tag_144:\n        /* \"contracts/contracts/governance/Governable.sol\":2835:2851  bytes32 position */\n      0x00\n        /* \"contracts/contracts/governance/Governable.sol\":548:614  0x7bea13895fa79d2831e0a9e28edede30099005a50d652d8957cf8a607ee6ca4a */\n      0x7bea13895fa79d2831e0a9e28edede30099005a50d652d8957cf8a607ee6ca4a\n        /* \"contracts/contracts/governance/Governable.sol\":2854:2870  governorPosition */\n      0x00\n      shl\n        /* \"contracts/contracts/governance/Governable.sol\":2835:2870  bytes32 position = governorPosition */\n      swap1\n      pop\n        /* \"contracts/contracts/governance/Governable.sol\":2922:2933  newGovernor */\n      dup2\n        /* \"contracts/contracts/governance/Governable.sol\":2912:2920  position */\n      dup2\n        /* \"contracts/contracts/governance/Governable.sol\":2905:2934  sstore(position, newGovernor) */\n      sstore\n        /* \"contracts/contracts/governance/Governable.sol\":2890:2945  {\r... */\n      pop\n        /* \"contracts/contracts/governance/Governable.sol\":2772:2952  function _setGovernor(address newGovernor) internal {\r... */\n      pop\n      jump\t// out\n        /* \"@openzeppelin/contracts/utils/Address.sol\":1175:1495  function isContract(address account) internal view returns (bool) {... */\n    tag_147:\n        /* \"@openzeppelin/contracts/utils/Address.sol\":1235:1239  bool */\n      0x00\n        /* \"@openzeppelin/contracts/utils/Address.sol\":1487:1488  0 */\n      dup1\n        /* \"@openzeppelin/contracts/utils/Address.sol\":1465:1472  account */\n      dup3\n        /* \"@openzeppelin/contracts/utils/Address.sol\":1465:1484  account.code.length */\n      0xffffffffffffffffffffffffffffffffffffffff\n      and\n      extcodesize\n        /* \"@openzeppelin/contracts/utils/Address.sol\":1465:1488  account.code.length > 0 */\n      gt\n        /* \"@openzeppelin/contracts/utils/Address.sol\":1458:1488  return account.code.length > 0 */\n      swap1\n      pop\n        /* \"@openzeppelin/contracts/utils/Address.sol\":1175:1495  function isContract(address account) internal view returns (bool) {... */\n      swap2\n      swap1\n      pop\n      jump\t// out\n        /* \"#utility.yul\":7:417   */\n    tag_155:\n        /* \"#utility.yul\":84:89   */\n      0x00\n        /* \"#utility.yul\":109:174   */\n      tag_157\n        /* \"#utility.yul\":125:173   */\n      tag_158\n        /* \"#utility.yul\":166:172   */\n      dup5\n        /* \"#utility.yul\":125:173   */\n      tag_159\n      jump\t// in\n    tag_158:\n        /* \"#utility.yul\":109:174   */\n      tag_160\n      jump\t// in\n    tag_157:\n        /* \"#utility.yul\":100:174   */\n      swap1\n      pop\n        /* \"#utility.yul\":197:203   */\n      dup3\n        /* \"#utility.yul\":190:195   */\n      dup2\n        /* \"#utility.yul\":183:204   */\n      mstore\n        /* \"#utility.yul\":235:239   */\n      0x20\n        /* \"#utility.yul\":228:233   */\n      dup2\n        /* \"#utility.yul\":224:240   */\n      add\n        /* \"#utility.yul\":273:276   */\n      dup5\n        /* \"#utility.yul\":264:270   */\n      dup5\n        /* \"#utility.yul\":259:262   */\n      dup5\n        /* \"#utility.yul\":255:271   */\n      add\n        /* \"#utility.yul\":252:277   */\n      gt\n        /* \"#utility.yul\":249:361   */\n      iszero\n      tag_161\n      jumpi\n        /* \"#utility.yul\":280:359   */\n      tag_162\n      tag_163\n      jump\t// in\n    tag_162:\n        /* \"#utility.yul\":249:361   */\n    tag_161:\n        /* \"#utility.yul\":370:411   */\n      tag_164\n        /* \"#utility.yul\":404:410   */\n      dup5\n        /* \"#utility.yul\":399:402   */\n      dup3\n        /* \"#utility.yul\":394:397   */\n      dup6\n        /* \"#utility.yul\":370:411   */\n      tag_165\n      jump\t// in\n    tag_164:\n        /* \"#utility.yul\":90:417   */\n      pop\n        /* \"#utility.yul\":7:417   */\n      swap4\n      swap3\n      pop\n      pop\n      pop\n      jump\t// out\n        /* \"#utility.yul\":423:562   */\n    tag_166:\n        /* \"#utility.yul\":469:474   */\n      0x00\n        /* \"#utility.yul\":507:513   */\n      dup2\n        /* \"#utility.yul\":494:514   */\n      calldataload\n        /* \"#utility.yul\":485:514   */\n      swap1\n      pop\n        /* \"#utility.yul\":523:556   */\n      tag_168\n        /* \"#utility.yul\":550:555   */\n      dup2\n        /* \"#utility.yul\":523:556   */\n      tag_169\n      jump\t// in\n    tag_168:\n        /* \"#utility.yul\":423:562   */\n      swap3\n      swap2\n      pop\n      pop\n      jump\t// out\n        /* \"#utility.yul\":581:1133   */\n    tag_170:\n        /* \"#utility.yul\":638:646   */\n      0x00\n        /* \"#utility.yul\":648:654   */\n      dup1\n        /* \"#utility.yul\":698:701   */\n      dup4\n        /* \"#utility.yul\":691:695   */\n      0x1f\n        /* \"#utility.yul\":683:689   */\n      dup5\n        /* \"#utility.yul\":679:696   */\n      add\n        /* \"#utility.yul\":675:702   */\n      slt\n        /* \"#utility.yul\":665:787   */\n      tag_172\n      jumpi\n        /* \"#utility.yul\":706:785   */\n      tag_173\n      tag_174\n      jump\t// in\n    tag_173:\n        /* \"#utility.yul\":665:787   */\n    tag_172:\n        /* \"#utility.yul\":819:825   */\n      dup3\n        /* \"#utility.yul\":806:826   */\n      calldataload\n        /* \"#utility.yul\":796:826   */\n      swap1\n      pop\n        /* \"#utility.yul\":849:867   */\n      0xffffffffffffffff\n        /* \"#utility.yul\":841:847   */\n      dup2\n        /* \"#utility.yul\":838:868   */\n      gt\n        /* \"#utility.yul\":835:952   */\n      iszero\n      tag_175\n      jumpi\n        /* \"#utility.yul\":871:950   */\n      tag_176\n      tag_177\n      jump\t// in\n    tag_176:\n        /* \"#utility.yul\":835:952   */\n    tag_175:\n        /* \"#utility.yul\":985:989   */\n      0x20\n        /* \"#utility.yul\":977:983   */\n      dup4\n        /* \"#utility.yul\":973:990   */\n      add\n        /* \"#utility.yul\":961:990   */\n      swap2\n      pop\n        /* \"#utility.yul\":1039:1042   */\n      dup4\n        /* \"#utility.yul\":1031:1035   */\n      0x01\n        /* \"#utility.yul\":1023:1029   */\n      dup3\n        /* \"#utility.yul\":1019:1036   */\n      mul\n        /* \"#utility.yul\":1009:1017   */\n      dup4\n        /* \"#utility.yul\":1005:1037   */\n      add\n        /* \"#utility.yul\":1002:1043   */\n      gt\n        /* \"#utility.yul\":999:1127   */\n      iszero\n      tag_178\n      jumpi\n        /* \"#utility.yul\":1046:1125   */\n      tag_179\n      tag_180\n      jump\t// in\n    tag_179:\n        /* \"#utility.yul\":999:1127   */\n    tag_178:\n        /* \"#utility.yul\":581:1133   */\n      swap3\n      pop\n      swap3\n      swap1\n      pop\n      jump\t// out\n        /* \"#utility.yul\":1152:1490   */\n    tag_181:\n        /* \"#utility.yul\":1207:1212   */\n      0x00\n        /* \"#utility.yul\":1256:1259   */\n      dup3\n        /* \"#utility.yul\":1249:1253   */\n      0x1f\n        /* \"#utility.yul\":1241:1247   */\n      dup4\n        /* \"#utility.yul\":1237:1254   */\n      add\n        /* \"#utility.yul\":1233:1260   */\n      slt\n        /* \"#utility.yul\":1223:1345   */\n      tag_183\n      jumpi\n        /* \"#utility.yul\":1264:1343   */\n      tag_184\n      tag_174\n      jump\t// in\n    tag_184:\n        /* \"#utility.yul\":1223:1345   */\n    tag_183:\n        /* \"#utility.yul\":1381:1387   */\n      dup2\n        /* \"#utility.yul\":1368:1388   */\n      calldataload\n        /* \"#utility.yul\":1406:1484   */\n      tag_185\n        /* \"#utility.yul\":1480:1483   */\n      dup5\n        /* \"#utility.yul\":1472:1478   */\n      dup3\n        /* \"#utility.yul\":1465:1469   */\n      0x20\n        /* \"#utility.yul\":1457:1463   */\n      dup7\n        /* \"#utility.yul\":1453:1470   */\n      add\n        /* \"#utility.yul\":1406:1484   */\n      tag_155\n      jump\t// in\n    tag_185:\n        /* \"#utility.yul\":1397:1484   */\n      swap2\n      pop\n        /* \"#utility.yul\":1213:1490   */\n      pop\n        /* \"#utility.yul\":1152:1490   */\n      swap3\n      swap2\n      pop\n      pop\n      jump\t// out\n        /* \"#utility.yul\":1496:1825   */\n    tag_25:\n        /* \"#utility.yul\":1555:1561   */\n      0x00\n        /* \"#utility.yul\":1604:1606   */\n      0x20\n        /* \"#utility.yul\":1592:1601   */\n      dup3\n        /* \"#utility.yul\":1583:1590   */\n      dup5\n        /* \"#utility.yul\":1579:1602   */\n      sub\n        /* \"#utility.yul\":1575:1607   */\n      slt\n        /* \"#utility.yul\":1572:1691   */\n      iszero\n      tag_187\n      jumpi\n        /* \"#utility.yul\":1610:1689   */\n      tag_188\n      tag_189\n      jump\t// in\n    tag_188:\n        /* \"#utility.yul\":1572:1691   */\n    tag_187:\n        /* \"#utility.yul\":1730:1731   */\n      0x00\n        /* \"#utility.yul\":1755:1808   */\n      tag_190\n        /* \"#utility.yul\":1800:1807   */\n      dup5\n        /* \"#utility.yul\":1791:1797   */\n      dup3\n        /* \"#utility.yul\":1780:1789   */\n      dup6\n        /* \"#utility.yul\":1776:1798   */\n      add\n        /* \"#utility.yul\":1755:1808   */\n      tag_166\n      jump\t// in\n    tag_190:\n        /* \"#utility.yul\":1745:1808   */\n      swap2\n      pop\n        /* \"#utility.yul\":1701:1818   */\n      pop\n        /* \"#utility.yul\":1496:1825   */\n      swap3\n      swap2\n      pop\n      pop\n      jump\t// out\n        /* \"#utility.yul\":1831:2628   */\n    tag_45:\n        /* \"#utility.yul\":1917:1923   */\n      0x00\n        /* \"#utility.yul\":1925:1931   */\n      dup1\n        /* \"#utility.yul\":1933:1939   */\n      0x00\n        /* \"#utility.yul\":1982:1984   */\n      0x60\n        /* \"#utility.yul\":1970:1979   */\n      dup5\n        /* \"#utility.yul\":1961:1968   */\n      dup7\n        /* \"#utility.yul\":1957:1980   */\n      sub\n        /* \"#utility.yul\":1953:1985   */\n      slt\n        /* \"#utility.yul\":1950:2069   */\n      iszero\n      tag_192\n      jumpi\n        /* \"#utility.yul\":1988:2067   */\n      tag_193\n      tag_189\n      jump\t// in\n    tag_193:\n        /* \"#utility.yul\":1950:2069   */\n    tag_192:\n        /* \"#utility.yul\":2108:2109   */\n      0x00\n        /* \"#utility.yul\":2133:2186   */\n      tag_194\n        /* \"#utility.yul\":2178:2185   */\n      dup7\n        /* \"#utility.yul\":2169:2175   */\n      dup3\n        /* \"#utility.yul\":2158:2167   */\n      dup8\n        /* \"#utility.yul\":2154:2176   */\n      add\n        /* \"#utility.yul\":2133:2186   */\n      tag_166\n      jump\t// in\n    tag_194:\n        /* \"#utility.yul\":2123:2186   */\n      swap4\n      pop\n        /* \"#utility.yul\":2079:2196   */\n      pop\n        /* \"#utility.yul\":2235:2237   */\n      0x20\n        /* \"#utility.yul\":2261:2314   */\n      tag_195\n        /* \"#utility.yul\":2306:2313   */\n      dup7\n        /* \"#utility.yul\":2297:2303   */\n      dup3\n        /* \"#utility.yul\":2286:2295   */\n      dup8\n        /* \"#utility.yul\":2282:2304   */\n      add\n        /* \"#utility.yul\":2261:2314   */\n      tag_166\n      jump\t// in\n    tag_195:\n        /* \"#utility.yul\":2251:2314   */\n      swap3\n      pop\n        /* \"#utility.yul\":2206:2324   */\n      pop\n        /* \"#utility.yul\":2391:2393   */\n      0x40\n        /* \"#utility.yul\":2380:2389   */\n      dup5\n        /* \"#utility.yul\":2376:2394   */\n      add\n        /* \"#utility.yul\":2363:2395   */\n      calldataload\n        /* \"#utility.yul\":2422:2440   */\n      0xffffffffffffffff\n        /* \"#utility.yul\":2414:2420   */\n      dup2\n        /* \"#utility.yul\":2411:2441   */\n      gt\n        /* \"#utility.yul\":2408:2525   */\n      iszero\n      tag_196\n      jumpi\n        /* \"#utility.yul\":2444:2523   */\n      tag_197\n      tag_198\n      jump\t// in\n    tag_197:\n        /* \"#utility.yul\":2408:2525   */\n    tag_196:\n        /* \"#utility.yul\":2549:2611   */\n      tag_199\n        /* \"#utility.yul\":2603:2610   */\n      dup7\n        /* \"#utility.yul\":2594:2600   */\n      dup3\n        /* \"#utility.yul\":2583:2592   */\n      dup8\n        /* \"#utility.yul\":2579:2601   */\n      add\n        /* \"#utility.yul\":2549:2611   */\n      tag_181\n      jump\t// in\n    tag_199:\n        /* \"#utility.yul\":2539:2611   */\n      swap2\n      pop\n        /* \"#utility.yul\":2334:2621   */\n      pop\n        /* \"#utility.yul\":1831:2628   */\n      swap3\n      pop\n      swap3\n      pop\n      swap3\n      jump\t// out\n        /* \"#utility.yul\":2634:3306   */\n    tag_29:\n        /* \"#utility.yul\":2713:2719   */\n      0x00\n        /* \"#utility.yul\":2721:2727   */\n      dup1\n        /* \"#utility.yul\":2729:2735   */\n      0x00\n        /* \"#utility.yul\":2778:2780   */\n      0x40\n        /* \"#utility.yul\":2766:2775   */\n      dup5\n        /* \"#utility.yul\":2757:2764   */\n      dup7\n        /* \"#utility.yul\":2753:2776   */\n      sub\n        /* \"#utility.yul\":2749:2781   */\n      slt\n        /* \"#utility.yul\":2746:2865   */\n      iszero\n      tag_201\n      jumpi\n        /* \"#utility.yul\":2784:2863   */\n      tag_202\n      tag_189\n      jump\t// in\n    tag_202:\n        /* \"#utility.yul\":2746:2865   */\n    tag_201:\n        /* \"#utility.yul\":2904:2905   */\n      0x00\n        /* \"#utility.yul\":2929:2982   */\n      tag_203\n        /* \"#utility.yul\":2974:2981   */\n      dup7\n        /* \"#utility.yul\":2965:2971   */\n      dup3\n        /* \"#utility.yul\":2954:2963   */\n      dup8\n        /* \"#utility.yul\":2950:2972   */\n      add\n        /* \"#utility.yul\":2929:2982   */\n      tag_166\n      jump\t// in\n    tag_203:\n        /* \"#utility.yul\":2919:2982   */\n      swap4\n      pop\n        /* \"#utility.yul\":2875:2992   */\n      pop\n        /* \"#utility.yul\":3059:3061   */\n      0x20\n        /* \"#utility.yul\":3048:3057   */\n      dup5\n        /* \"#utility.yul\":3044:3062   */\n      add\n        /* \"#utility.yul\":3031:3063   */\n      calldataload\n        /* \"#utility.yul\":3090:3108   */\n      0xffffffffffffffff\n        /* \"#utility.yul\":3082:3088   */\n      dup2\n        /* \"#utility.yul\":3079:3109   */\n      gt\n        /* \"#utility.yul\":3076:3193   */\n      iszero\n      tag_204\n      jumpi\n        /* \"#utility.yul\":3112:3191   */\n      tag_205\n      tag_198\n      jump\t// in\n    tag_205:\n        /* \"#utility.yul\":3076:3193   */\n    tag_204:\n        /* \"#utility.yul\":3225:3289   */\n      tag_206\n        /* \"#utility.yul\":3281:3288   */\n      dup7\n        /* \"#utility.yul\":3272:3278   */\n      dup3\n        /* \"#utility.yul\":3261:3270   */\n      dup8\n        /* \"#utility.yul\":3257:3279   */\n      add\n        /* \"#utility.yul\":3225:3289   */\n      tag_170\n      jump\t// in\n    tag_206:\n        /* \"#utility.yul\":3207:3289   */\n      swap3\n      pop\n      swap3\n      pop\n        /* \"#utility.yul\":3002:3299   */\n      pop\n        /* \"#utility.yul\":2634:3306   */\n      swap3\n      pop\n      swap3\n      pop\n      swap3\n      jump\t// out\n        /* \"#utility.yul\":3312:3430   */\n    tag_207:\n        /* \"#utility.yul\":3399:3423   */\n      tag_209\n        /* \"#utility.yul\":3417:3422   */\n      dup2\n        /* \"#utility.yul\":3399:3423   */\n      tag_210\n      jump\t// in\n    tag_209:\n        /* \"#utility.yul\":3394:3397   */\n      dup3\n        /* \"#utility.yul\":3387:3424   */\n      mstore\n        /* \"#utility.yul\":3312:3430   */\n      pop\n      pop\n      jump\t// out\n        /* \"#utility.yul\":3436:3545   */\n    tag_211:\n        /* \"#utility.yul\":3517:3538   */\n      tag_213\n        /* \"#utility.yul\":3532:3537   */\n      dup2\n        /* \"#utility.yul\":3517:3538   */\n      tag_214\n      jump\t// in\n    tag_213:\n        /* \"#utility.yul\":3512:3515   */\n      dup3\n        /* \"#utility.yul\":3505:3539   */\n      mstore\n        /* \"#utility.yul\":3436:3545   */\n      pop\n      pop\n      jump\t// out\n        /* \"#utility.yul\":3573:3887   */\n    tag_215:\n        /* \"#utility.yul\":3687:3690   */\n      0x00\n        /* \"#utility.yul\":3708:3796   */\n      tag_217\n        /* \"#utility.yul\":3789:3795   */\n      dup4\n        /* \"#utility.yul\":3784:3787   */\n      dup6\n        /* \"#utility.yul\":3708:3796   */\n      tag_218\n      jump\t// in\n    tag_217:\n        /* \"#utility.yul\":3701:3796   */\n      swap4\n      pop\n        /* \"#utility.yul\":3806:3849   */\n      tag_219\n        /* \"#utility.yul\":3842:3848   */\n      dup4\n        /* \"#utility.yul\":3837:3840   */\n      dup6\n        /* \"#utility.yul\":3830:3835   */\n      dup5\n        /* \"#utility.yul\":3806:3849   */\n      tag_165\n      jump\t// in\n    tag_219:\n        /* \"#utility.yul\":3874:3880   */\n      dup3\n        /* \"#utility.yul\":3869:3872   */\n      dup5\n        /* \"#utility.yul\":3865:3881   */\n      add\n        /* \"#utility.yul\":3858:3881   */\n      swap1\n      pop\n        /* \"#utility.yul\":3573:3887   */\n      swap4\n      swap3\n      pop\n      pop\n      pop\n      jump\t// out\n        /* \"#utility.yul\":3893:4266   */\n    tag_220:\n        /* \"#utility.yul\":3997:4000   */\n      0x00\n        /* \"#utility.yul\":4025:4063   */\n      tag_222\n        /* \"#utility.yul\":4057:4062   */\n      dup3\n        /* \"#utility.yul\":4025:4063   */\n      tag_223\n      jump\t// in\n    tag_222:\n        /* \"#utility.yul\":4079:4167   */\n      tag_224\n        /* \"#utility.yul\":4160:4166   */\n      dup2\n        /* \"#utility.yul\":4155:4158   */\n      dup6\n        /* \"#utility.yul\":4079:4167   */\n      tag_218\n      jump\t// in\n    tag_224:\n        /* \"#utility.yul\":4072:4167   */\n      swap4\n      pop\n        /* \"#utility.yul\":4176:4228   */\n      tag_225\n        /* \"#utility.yul\":4221:4227   */\n      dup2\n        /* \"#utility.yul\":4216:4219   */\n      dup6\n        /* \"#utility.yul\":4209:4213   */\n      0x20\n        /* \"#utility.yul\":4202:4207   */\n      dup7\n        /* \"#utility.yul\":4198:4214   */\n      add\n        /* \"#utility.yul\":4176:4228   */\n      tag_226\n      jump\t// in\n    tag_225:\n        /* \"#utility.yul\":4253:4259   */\n      dup1\n        /* \"#utility.yul\":4248:4251   */\n      dup5\n        /* \"#utility.yul\":4244:4260   */\n      add\n        /* \"#utility.yul\":4237:4260   */\n      swap2\n      pop\n        /* \"#utility.yul\":4001:4266   */\n      pop\n        /* \"#utility.yul\":3893:4266   */\n      swap3\n      swap2\n      pop\n      pop\n      jump\t// out\n        /* \"#utility.yul\":4272:4638   */\n    tag_227:\n        /* \"#utility.yul\":4414:4417   */\n      0x00\n        /* \"#utility.yul\":4435:4502   */\n      tag_229\n        /* \"#utility.yul\":4499:4501   */\n      0x1a\n        /* \"#utility.yul\":4494:4497   */\n      dup4\n        /* \"#utility.yul\":4435:4502   */\n      tag_230\n      jump\t// in\n    tag_229:\n        /* \"#utility.yul\":4428:4502   */\n      swap2\n      pop\n        /* \"#utility.yul\":4511:4604   */\n      tag_231\n        /* \"#utility.yul\":4600:4603   */\n      dup3\n        /* \"#utility.yul\":4511:4604   */\n      tag_232\n      jump\t// in\n    tag_231:\n        /* \"#utility.yul\":4629:4631   */\n      0x20\n        /* \"#utility.yul\":4624:4627   */\n      dup3\n        /* \"#utility.yul\":4620:4632   */\n      add\n        /* \"#utility.yul\":4613:4632   */\n      swap1\n      pop\n        /* \"#utility.yul\":4272:4638   */\n      swap2\n      swap1\n      pop\n      jump\t// out\n        /* \"#utility.yul\":4644:5010   */\n    tag_233:\n        /* \"#utility.yul\":4786:4789   */\n      0x00\n        /* \"#utility.yul\":4807:4874   */\n      tag_235\n        /* \"#utility.yul\":4871:4873   */\n      0x1a\n        /* \"#utility.yul\":4866:4869   */\n      dup4\n        /* \"#utility.yul\":4807:4874   */\n      tag_230\n      jump\t// in\n    tag_235:\n        /* \"#utility.yul\":4800:4874   */\n      swap2\n      pop\n        /* \"#utility.yul\":4883:4976   */\n      tag_236\n        /* \"#utility.yul\":4972:4975   */\n      dup3\n        /* \"#utility.yul\":4883:4976   */\n      tag_237\n      jump\t// in\n    tag_236:\n        /* \"#utility.yul\":5001:5003   */\n      0x20\n        /* \"#utility.yul\":4996:4999   */\n      dup3\n        /* \"#utility.yul\":4992:5004   */\n      add\n        /* \"#utility.yul\":4985:5004   */\n      swap1\n      pop\n        /* \"#utility.yul\":4644:5010   */\n      swap2\n      swap1\n      pop\n      jump\t// out\n        /* \"#utility.yul\":5016:5382   */\n    tag_238:\n        /* \"#utility.yul\":5158:5161   */\n      0x00\n        /* \"#utility.yul\":5179:5246   */\n      tag_240\n        /* \"#utility.yul\":5243:5245   */\n      0x3b\n        /* \"#utility.yul\":5238:5241   */\n      dup4\n        /* \"#utility.yul\":5179:5246   */\n      tag_230\n      jump\t// in\n    tag_240:\n        /* \"#utility.yul\":5172:5246   */\n      swap2\n      pop\n        /* \"#utility.yul\":5255:5348   */\n      tag_241\n        /* \"#utility.yul\":5344:5347   */\n      dup3\n        /* \"#utility.yul\":5255:5348   */\n      tag_242\n      jump\t// in\n    tag_241:\n        /* \"#utility.yul\":5373:5375   */\n      0x40\n        /* \"#utility.yul\":5368:5371   */\n      dup3\n        /* \"#utility.yul\":5364:5376   */\n      add\n        /* \"#utility.yul\":5357:5376   */\n      swap1\n      pop\n        /* \"#utility.yul\":5016:5382   */\n      swap2\n      swap1\n      pop\n      jump\t// out\n        /* \"#utility.yul\":5388:5754   */\n    tag_243:\n        /* \"#utility.yul\":5530:5533   */\n      0x00\n        /* \"#utility.yul\":5551:5618   */\n      tag_245\n        /* \"#utility.yul\":5615:5617   */\n      0x30\n        /* \"#utility.yul\":5610:5613   */\n      dup4\n        /* \"#utility.yul\":5551:5618   */\n      tag_230\n      jump\t// in\n    tag_245:\n        /* \"#utility.yul\":5544:5618   */\n      swap2\n      pop\n        /* \"#utility.yul\":5627:5720   */\n      tag_246\n        /* \"#utility.yul\":5716:5719   */\n      dup3\n        /* \"#utility.yul\":5627:5720   */\n      tag_247\n      jump\t// in\n    tag_246:\n        /* \"#utility.yul\":5745:5747   */\n      0x40\n        /* \"#utility.yul\":5740:5743   */\n      dup3\n        /* \"#utility.yul\":5736:5748   */\n      add\n        /* \"#utility.yul\":5729:5748   */\n      swap1\n      pop\n        /* \"#utility.yul\":5388:5754   */\n      swap2\n      swap1\n      pop\n      jump\t// out\n        /* \"#utility.yul\":5760:6051   */\n    tag_80:\n        /* \"#utility.yul\":5900:5903   */\n      0x00\n        /* \"#utility.yul\":5922:6025   */\n      tag_249\n        /* \"#utility.yul\":6021:6024   */\n      dup3\n        /* \"#utility.yul\":6012:6018   */\n      dup5\n        /* \"#utility.yul\":6004:6010   */\n      dup7\n        /* \"#utility.yul\":5922:6025   */\n      tag_215\n      jump\t// in\n    tag_249:\n        /* \"#utility.yul\":5915:6025   */\n      swap2\n      pop\n        /* \"#utility.yul\":6042:6045   */\n      dup2\n        /* \"#utility.yul\":6035:6045   */\n      swap1\n      pop\n        /* \"#utility.yul\":5760:6051   */\n      swap4\n      swap3\n      pop\n      pop\n      pop\n      jump\t// out\n        /* \"#utility.yul\":6057:6328   */\n    tag_114:\n        /* \"#utility.yul\":6187:6190   */\n      0x00\n        /* \"#utility.yul\":6209:6302   */\n      tag_251\n        /* \"#utility.yul\":6298:6301   */\n      dup3\n        /* \"#utility.yul\":6289:6295   */\n      dup5\n        /* \"#utility.yul\":6209:6302   */\n      tag_220\n      jump\t// in\n    tag_251:\n        /* \"#utility.yul\":6202:6302   */\n      swap2\n      pop\n        /* \"#utility.yul\":6319:6322   */\n      dup2\n        /* \"#utility.yul\":6312:6322   */\n      swap1\n      pop\n        /* \"#utility.yul\":6057:6328   */\n      swap3\n      swap2\n      pop\n      pop\n      jump\t// out\n        /* \"#utility.yul\":6334:6556   */\n    tag_21:\n        /* \"#utility.yul\":6427:6431   */\n      0x00\n        /* \"#utility.yul\":6465:6467   */\n      0x20\n        /* \"#utility.yul\":6454:6463   */\n      dup3\n        /* \"#utility.yul\":6450:6468   */\n      add\n        /* \"#utility.yul\":6442:6468   */\n      swap1\n      pop\n        /* \"#utility.yul\":6478:6549   */\n      tag_253\n        /* \"#utility.yul\":6546:6547   */\n      0x00\n        /* \"#utility.yul\":6535:6544   */\n      dup4\n        /* \"#utility.yul\":6531:6548   */\n      add\n        /* \"#utility.yul\":6522:6528   */\n      dup5\n        /* \"#utility.yul\":6478:6549   */\n      tag_207\n      jump\t// in\n    tag_253:\n        /* \"#utility.yul\":6334:6556   */\n      swap3\n      swap2\n      pop\n      pop\n      jump\t// out\n        /* \"#utility.yul\":6562:6772   */\n    tag_42:\n        /* \"#utility.yul\":6649:6653   */\n      0x00\n        /* \"#utility.yul\":6687:6689   */\n      0x20\n        /* \"#utility.yul\":6676:6685   */\n      dup3\n        /* \"#utility.yul\":6672:6690   */\n      add\n        /* \"#utility.yul\":6664:6690   */\n      swap1\n      pop\n        /* \"#utility.yul\":6700:6765   */\n      tag_255\n        /* \"#utility.yul\":6762:6763   */\n      0x00\n        /* \"#utility.yul\":6751:6760   */\n      dup4\n        /* \"#utility.yul\":6747:6764   */\n      add\n        /* \"#utility.yul\":6738:6744   */\n      dup5\n        /* \"#utility.yul\":6700:6765   */\n      tag_211\n      jump\t// in\n    tag_255:\n        /* \"#utility.yul\":6562:6772   */\n      swap3\n      swap2\n      pop\n      pop\n      jump\t// out\n        /* \"#utility.yul\":6778:7197   */\n    tag_69:\n        /* \"#utility.yul\":6944:6948   */\n      0x00\n        /* \"#utility.yul\":6982:6984   */\n      0x20\n        /* \"#utility.yul\":6971:6980   */\n      dup3\n        /* \"#utility.yul\":6967:6985   */\n      add\n        /* \"#utility.yul\":6959:6985   */\n      swap1\n      pop\n        /* \"#utility.yul\":7031:7040   */\n      dup2\n        /* \"#utility.yul\":7025:7029   */\n      dup2\n        /* \"#utility.yul\":7021:7041   */\n      sub\n        /* \"#utility.yul\":7017:7018   */\n      0x00\n        /* \"#utility.yul\":7006:7015   */\n      dup4\n        /* \"#utility.yul\":7002:7019   */\n      add\n        /* \"#utility.yul\":6995:7042   */\n      mstore\n        /* \"#utility.yul\":7059:7190   */\n      tag_257\n        /* \"#utility.yul\":7185:7189   */\n      dup2\n        /* \"#utility.yul\":7059:7190   */\n      tag_227\n      jump\t// in\n    tag_257:\n        /* \"#utility.yul\":7051:7190   */\n      swap1\n      pop\n        /* \"#utility.yul\":6778:7197   */\n      swap2\n      swap1\n      pop\n      jump\t// out\n        /* \"#utility.yul\":7203:7622   */\n    tag_141:\n        /* \"#utility.yul\":7369:7373   */\n      0x00\n        /* \"#utility.yul\":7407:7409   */\n      0x20\n        /* \"#utility.yul\":7396:7405   */\n      dup3\n        /* \"#utility.yul\":7392:7410   */\n      add\n        /* \"#utility.yul\":7384:7410   */\n      swap1\n      pop\n        /* \"#utility.yul\":7456:7465   */\n      dup2\n        /* \"#utility.yul\":7450:7454   */\n      dup2\n        /* \"#utility.yul\":7446:7466   */\n      sub\n        /* \"#utility.yul\":7442:7443   */\n      0x00\n        /* \"#utility.yul\":7431:7440   */\n      dup4\n        /* \"#utility.yul\":7427:7444   */\n      add\n        /* \"#utility.yul\":7420:7467   */\n      mstore\n        /* \"#utility.yul\":7484:7615   */\n      tag_259\n        /* \"#utility.yul\":7610:7614   */\n      dup2\n        /* \"#utility.yul\":7484:7615   */\n      tag_233\n      jump\t// in\n    tag_259:\n        /* \"#utility.yul\":7476:7615   */\n      swap1\n      pop\n        /* \"#utility.yul\":7203:7622   */\n      swap2\n      swap1\n      pop\n      jump\t// out\n        /* \"#utility.yul\":7628:8047   */\n    tag_150:\n        /* \"#utility.yul\":7794:7798   */\n      0x00\n        /* \"#utility.yul\":7832:7834   */\n      0x20\n        /* \"#utility.yul\":7821:7830   */\n      dup3\n        /* \"#utility.yul\":7817:7835   */\n      add\n        /* \"#utility.yul\":7809:7835   */\n      swap1\n      pop\n        /* \"#utility.yul\":7881:7890   */\n      dup2\n        /* \"#utility.yul\":7875:7879   */\n      dup2\n        /* \"#utility.yul\":7871:7891   */\n      sub\n        /* \"#utility.yul\":7867:7868   */\n      0x00\n        /* \"#utility.yul\":7856:7865   */\n      dup4\n        /* \"#utility.yul\":7852:7869   */\n      add\n        /* \"#utility.yul\":7845:7892   */\n      mstore\n        /* \"#utility.yul\":7909:8040   */\n      tag_261\n        /* \"#utility.yul\":8035:8039   */\n      dup2\n        /* \"#utility.yul\":7909:8040   */\n      tag_238\n      jump\t// in\n    tag_261:\n        /* \"#utility.yul\":7901:8040   */\n      swap1\n      pop\n        /* \"#utility.yul\":7628:8047   */\n      swap2\n      swap1\n      pop\n      jump\t// out\n        /* \"#utility.yul\":8053:8472   */\n    tag_92:\n        /* \"#utility.yul\":8219:8223   */\n      0x00\n        /* \"#utility.yul\":8257:8259   */\n      0x20\n        /* \"#utility.yul\":8246:8255   */\n      dup3\n        /* \"#utility.yul\":8242:8260   */\n      add\n        /* \"#utility.yul\":8234:8260   */\n      swap1\n      pop\n        /* \"#utility.yul\":8306:8315   */\n      dup2\n        /* \"#utility.yul\":8300:8304   */\n      dup2\n        /* \"#utility.yul\":8296:8316   */\n      sub\n        /* \"#utility.yul\":8292:8293   */\n      0x00\n        /* \"#utility.yul\":8281:8290   */\n      dup4\n        /* \"#utility.yul\":8277:8294   */\n      add\n        /* \"#utility.yul\":8270:8317   */\n      mstore\n        /* \"#utility.yul\":8334:8465   */\n      tag_263\n        /* \"#utility.yul\":8460:8464   */\n      dup2\n        /* \"#utility.yul\":8334:8465   */\n      tag_243\n      jump\t// in\n    tag_263:\n        /* \"#utility.yul\":8326:8465   */\n      swap1\n      pop\n        /* \"#utility.yul\":8053:8472   */\n      swap2\n      swap1\n      pop\n      jump\t// out\n        /* \"#utility.yul\":8478:8607   */\n    tag_160:\n        /* \"#utility.yul\":8512:8518   */\n      0x00\n        /* \"#utility.yul\":8539:8559   */\n      tag_265\n      tag_266\n      jump\t// in\n    tag_265:\n        /* \"#utility.yul\":8529:8559   */\n      swap1\n      pop\n        /* \"#utility.yul\":8568:8601   */\n      tag_267\n        /* \"#utility.yul\":8596:8600   */\n      dup3\n        /* \"#utility.yul\":8588:8594   */\n      dup3\n        /* \"#utility.yul\":8568:8601   */\n      tag_268\n      jump\t// in\n    tag_267:\n        /* \"#utility.yul\":8478:8607   */\n      swap2\n      swap1\n      pop\n      jump\t// out\n        /* \"#utility.yul\":8613:8688   */\n    tag_266:\n        /* \"#utility.yul\":8646:8652   */\n      0x00\n        /* \"#utility.yul\":8679:8681   */\n      0x40\n        /* \"#utility.yul\":8673:8682   */\n      mload\n        /* \"#utility.yul\":8663:8682   */\n      swap1\n      pop\n        /* \"#utility.yul\":8613:8688   */\n      swap1\n      jump\t// out\n        /* \"#utility.yul\":8694:9001   */\n    tag_159:\n        /* \"#utility.yul\":8755:8759   */\n      0x00\n        /* \"#utility.yul\":8845:8863   */\n      0xffffffffffffffff\n        /* \"#utility.yul\":8837:8843   */\n      dup3\n        /* \"#utility.yul\":8834:8864   */\n      gt\n        /* \"#utility.yul\":8831:8887   */\n      iszero\n      tag_271\n      jumpi\n        /* \"#utility.yul\":8867:8885   */\n      tag_272\n      tag_273\n      jump\t// in\n    tag_272:\n        /* \"#utility.yul\":8831:8887   */\n    tag_271:\n        /* \"#utility.yul\":8905:8934   */\n      tag_274\n        /* \"#utility.yul\":8927:8933   */\n      dup3\n        /* \"#utility.yul\":8905:8934   */\n      tag_275\n      jump\t// in\n    tag_274:\n        /* \"#utility.yul\":8897:8934   */\n      swap1\n      pop\n        /* \"#utility.yul\":8989:8993   */\n      0x20\n        /* \"#utility.yul\":8983:8987   */\n      dup2\n        /* \"#utility.yul\":8979:8994   */\n      add\n        /* \"#utility.yul\":8971:8994   */\n      swap1\n      pop\n        /* \"#utility.yul\":8694:9001   */\n      swap2\n      swap1\n      pop\n      jump\t// out\n        /* \"#utility.yul\":9007:9105   */\n    tag_223:\n        /* \"#utility.yul\":9058:9064   */\n      0x00\n        /* \"#utility.yul\":9092:9097   */\n      dup2\n        /* \"#utility.yul\":9086:9098   */\n      mload\n        /* \"#utility.yul\":9076:9098   */\n      swap1\n      pop\n        /* \"#utility.yul\":9007:9105   */\n      swap2\n      swap1\n      pop\n      jump\t// out\n        /* \"#utility.yul\":9111:9258   */\n    tag_218:\n        /* \"#utility.yul\":9212:9223   */\n      0x00\n        /* \"#utility.yul\":9249:9252   */\n      dup2\n        /* \"#utility.yul\":9234:9252   */\n      swap1\n      pop\n        /* \"#utility.yul\":9111:9258   */\n      swap3\n      swap2\n      pop\n      pop\n      jump\t// out\n        /* \"#utility.yul\":9264:9433   */\n    tag_230:\n        /* \"#utility.yul\":9348:9359   */\n      0x00\n        /* \"#utility.yul\":9382:9388   */\n      dup3\n        /* \"#utility.yul\":9377:9380   */\n      dup3\n        /* \"#utility.yul\":9370:9389   */\n      mstore\n        /* \"#utility.yul\":9422:9426   */\n      0x20\n        /* \"#utility.yul\":9417:9420   */\n      dup3\n        /* \"#utility.yul\":9413:9427   */\n      add\n        /* \"#utility.yul\":9398:9427   */\n      swap1\n      pop\n        /* \"#utility.yul\":9264:9433   */\n      swap3\n      swap2\n      pop\n      pop\n      jump\t// out\n        /* \"#utility.yul\":9439:9630   */\n    tag_105:\n        /* \"#utility.yul\":9479:9483   */\n      0x00\n        /* \"#utility.yul\":9499:9519   */\n      tag_280\n        /* \"#utility.yul\":9517:9518   */\n      dup3\n        /* \"#utility.yul\":9499:9519   */\n      tag_281\n      jump\t// in\n    tag_280:\n        /* \"#utility.yul\":9494:9519   */\n      swap2\n      pop\n        /* \"#utility.yul\":9533:9553   */\n      tag_282\n        /* \"#utility.yul\":9551:9552   */\n      dup4\n        /* \"#utility.yul\":9533:9553   */\n      tag_281\n      jump\t// in\n    tag_282:\n        /* \"#utility.yul\":9528:9553   */\n      swap3\n      pop\n        /* \"#utility.yul\":9572:9573   */\n      dup3\n        /* \"#utility.yul\":9569:9570   */\n      dup3\n        /* \"#utility.yul\":9566:9574   */\n      lt\n        /* \"#utility.yul\":9563:9597   */\n      iszero\n      tag_283\n      jumpi\n        /* \"#utility.yul\":9577:9595   */\n      tag_284\n      tag_285\n      jump\t// in\n    tag_284:\n        /* \"#utility.yul\":9563:9597   */\n    tag_283:\n        /* \"#utility.yul\":9622:9623   */\n      dup3\n        /* \"#utility.yul\":9619:9620   */\n      dup3\n        /* \"#utility.yul\":9615:9624   */\n      sub\n        /* \"#utility.yul\":9607:9624   */\n      swap1\n      pop\n        /* \"#utility.yul\":9439:9630   */\n      swap3\n      swap2\n      pop\n      pop\n      jump\t// out\n        /* \"#utility.yul\":9636:9732   */\n    tag_210:\n        /* \"#utility.yul\":9673:9680   */\n      0x00\n        /* \"#utility.yul\":9702:9726   */\n      tag_287\n        /* \"#utility.yul\":9720:9725   */\n      dup3\n        /* \"#utility.yul\":9702:9726   */\n      tag_288\n      jump\t// in\n    tag_287:\n        /* \"#utility.yul\":9691:9726   */\n      swap1\n      pop\n        /* \"#utility.yul\":9636:9732   */\n      swap2\n      swap1\n      pop\n      jump\t// out\n        /* \"#utility.yul\":9738:9828   */\n    tag_214:\n        /* \"#utility.yul\":9772:9779   */\n      0x00\n        /* \"#utility.yul\":9815:9820   */\n      dup2\n        /* \"#utility.yul\":9808:9821   */\n      iszero\n        /* \"#utility.yul\":9801:9822   */\n      iszero\n        /* \"#utility.yul\":9790:9822   */\n      swap1\n      pop\n        /* \"#utility.yul\":9738:9828   */\n      swap2\n      swap1\n      pop\n      jump\t// out\n        /* \"#utility.yul\":9834:9960   */\n    tag_288:\n        /* \"#utility.yul\":9871:9878   */\n      0x00\n        /* \"#utility.yul\":9911:9953   */\n      0xffffffffffffffffffffffffffffffffffffffff\n        /* \"#utility.yul\":9904:9909   */\n      dup3\n        /* \"#utility.yul\":9900:9954   */\n      and\n        /* \"#utility.yul\":9889:9954   */\n      swap1\n      pop\n        /* \"#utility.yul\":9834:9960   */\n      swap2\n      swap1\n      pop\n      jump\t// out\n        /* \"#utility.yul\":9966:10043   */\n    tag_281:\n        /* \"#utility.yul\":10003:10010   */\n      0x00\n        /* \"#utility.yul\":10032:10037   */\n      dup2\n        /* \"#utility.yul\":10021:10037   */\n      swap1\n      pop\n        /* \"#utility.yul\":9966:10043   */\n      swap2\n      swap1\n      pop\n      jump\t// out\n        /* \"#utility.yul\":10049:10203   */\n    tag_165:\n        /* \"#utility.yul\":10133:10139   */\n      dup3\n        /* \"#utility.yul\":10128:10131   */\n      dup2\n        /* \"#utility.yul\":10123:10126   */\n      dup4\n        /* \"#utility.yul\":10110:10140   */\n      calldatacopy\n        /* \"#utility.yul\":10195:10196   */\n      0x00\n        /* \"#utility.yul\":10186:10192   */\n      dup4\n        /* \"#utility.yul\":10181:10184   */\n      dup4\n        /* \"#utility.yul\":10177:10193   */\n      add\n        /* \"#utility.yul\":10170:10197   */\n      mstore\n        /* \"#utility.yul\":10049:10203   */\n      pop\n      pop\n      pop\n      jump\t// out\n        /* \"#utility.yul\":10209:10516   */\n    tag_226:\n        /* \"#utility.yul\":10277:10278   */\n      0x00\n        /* \"#utility.yul\":10287:10400   */\n    tag_294:\n        /* \"#utility.yul\":10301:10307   */\n      dup4\n        /* \"#utility.yul\":10298:10299   */\n      dup2\n        /* \"#utility.yul\":10295:10308   */\n      lt\n        /* \"#utility.yul\":10287:10400   */\n      iszero\n      tag_296\n      jumpi\n        /* \"#utility.yul\":10386:10387   */\n      dup1\n        /* \"#utility.yul\":10381:10384   */\n      dup3\n        /* \"#utility.yul\":10377:10388   */\n      add\n        /* \"#utility.yul\":10371:10389   */\n      mload\n        /* \"#utility.yul\":10367:10368   */\n      dup2\n        /* \"#utility.yul\":10362:10365   */\n      dup5\n        /* \"#utility.yul\":10358:10369   */\n      add\n        /* \"#utility.yul\":10351:10390   */\n      mstore\n        /* \"#utility.yul\":10323:10325   */\n      0x20\n        /* \"#utility.yul\":10320:10321   */\n      dup2\n        /* \"#utility.yul\":10316:10326   */\n      add\n        /* \"#utility.yul\":10311:10326   */\n      swap1\n      pop\n        /* \"#utility.yul\":10287:10400   */\n      jump(tag_294)\n    tag_296:\n        /* \"#utility.yul\":10418:10424   */\n      dup4\n        /* \"#utility.yul\":10415:10416   */\n      dup2\n        /* \"#utility.yul\":10412:10425   */\n      gt\n        /* \"#utility.yul\":10409:10510   */\n      iszero\n      tag_297\n      jumpi\n        /* \"#utility.yul\":10498:10499   */\n      0x00\n        /* \"#utility.yul\":10489:10495   */\n      dup5\n        /* \"#utility.yul\":10484:10487   */\n      dup5\n        /* \"#utility.yul\":10480:10496   */\n      add\n        /* \"#utility.yul\":10473:10500   */\n      mstore\n        /* \"#utility.yul\":10409:10510   */\n    tag_297:\n        /* \"#utility.yul\":10258:10516   */\n      pop\n        /* \"#utility.yul\":10209:10516   */\n      pop\n      pop\n      pop\n      jump\t// out\n        /* \"#utility.yul\":10522:10803   */\n    tag_268:\n        /* \"#utility.yul\":10605:10632   */\n      tag_299\n        /* \"#utility.yul\":10627:10631   */\n      dup3\n        /* \"#utility.yul\":10605:10632   */\n      tag_275\n      jump\t// in\n    tag_299:\n        /* \"#utility.yul\":10597:10603   */\n      dup2\n        /* \"#utility.yul\":10593:10633   */\n      add\n        /* \"#utility.yul\":10735:10741   */\n      dup2\n        /* \"#utility.yul\":10723:10733   */\n      dup2\n        /* \"#utility.yul\":10720:10742   */\n      lt\n        /* \"#utility.yul\":10699:10717   */\n      0xffffffffffffffff\n        /* \"#utility.yul\":10687:10697   */\n      dup3\n        /* \"#utility.yul\":10684:10718   */\n      gt\n        /* \"#utility.yul\":10681:10743   */\n      or\n        /* \"#utility.yul\":10678:10766   */\n      iszero\n      tag_300\n      jumpi\n        /* \"#utility.yul\":10746:10764   */\n      tag_301\n      tag_273\n      jump\t// in\n    tag_301:\n        /* \"#utility.yul\":10678:10766   */\n    tag_300:\n        /* \"#utility.yul\":10786:10796   */\n      dup1\n        /* \"#utility.yul\":10782:10784   */\n      0x40\n        /* \"#utility.yul\":10775:10797   */\n      mstore\n        /* \"#utility.yul\":10565:10803   */\n      pop\n        /* \"#utility.yul\":10522:10803   */\n      pop\n      pop\n      jump\t// out\n        /* \"#utility.yul\":10809:10989   */\n    tag_108:\n        /* \"#utility.yul\":10857:10934   */\n      0x4e487b7100000000000000000000000000000000000000000000000000000000\n        /* \"#utility.yul\":10854:10855   */\n      0x00\n        /* \"#utility.yul\":10847:10935   */\n      mstore\n        /* \"#utility.yul\":10954:10958   */\n      0x01\n        /* \"#utility.yul\":10951:10952   */\n      0x04\n        /* \"#utility.yul\":10944:10959   */\n      mstore\n        /* \"#utility.yul\":10978:10982   */\n      0x24\n        /* \"#utility.yul\":10975:10976   */\n      0x00\n        /* \"#utility.yul\":10968:10983   */\n      revert\n        /* \"#utility.yul\":10995:11175   */\n    tag_285:\n        /* \"#utility.yul\":11043:11120   */\n      0x4e487b7100000000000000000000000000000000000000000000000000000000\n        /* \"#utility.yul\":11040:11041   */\n      0x00\n        /* \"#utility.yul\":11033:11121   */\n      mstore\n        /* \"#utility.yul\":11140:11144   */\n      0x11\n        /* \"#utility.yul\":11137:11138   */\n      0x04\n        /* \"#utility.yul\":11130:11145   */\n      mstore\n        /* \"#utility.yul\":11164:11168   */\n      0x24\n        /* \"#utility.yul\":11161:11162   */\n      0x00\n        /* \"#utility.yul\":11154:11169   */\n      revert\n        /* \"#utility.yul\":11181:11361   */\n    tag_273:\n        /* \"#utility.yul\":11229:11306   */\n      0x4e487b7100000000000000000000000000000000000000000000000000000000\n        /* \"#utility.yul\":11226:11227   */\n      0x00\n        /* \"#utility.yul\":11219:11307   */\n      mstore\n        /* \"#utility.yul\":11326:11330   */\n      0x41\n        /* \"#utility.yul\":11323:11324   */\n      0x04\n        /* \"#utility.yul\":11316:11331   */\n      mstore\n        /* \"#utility.yul\":11350:11354   */\n      0x24\n        /* \"#utility.yul\":11347:11348   */\n      0x00\n        /* \"#utility.yul\":11340:11355   */\n      revert\n        /* \"#utility.yul\":11367:11484   */\n    tag_177:\n        /* \"#utility.yul\":11476:11477   */\n      0x00\n        /* \"#utility.yul\":11473:11474   */\n      dup1\n        /* \"#utility.yul\":11466:11478   */\n      revert\n        /* \"#utility.yul\":11490:11607   */\n    tag_174:\n        /* \"#utility.yul\":11599:11600   */\n      0x00\n        /* \"#utility.yul\":11596:11597   */\n      dup1\n        /* \"#utility.yul\":11589:11601   */\n      revert\n        /* \"#utility.yul\":11613:11730   */\n    tag_180:\n        /* \"#utility.yul\":11722:11723   */\n      0x00\n        /* \"#utility.yul\":11719:11720   */\n      dup1\n        /* \"#utility.yul\":11712:11724   */\n      revert\n        /* \"#utility.yul\":11736:11853   */\n    tag_163:\n        /* \"#utility.yul\":11845:11846   */\n      0x00\n        /* \"#utility.yul\":11842:11843   */\n      dup1\n        /* \"#utility.yul\":11835:11847   */\n      revert\n        /* \"#utility.yul\":11859:11976   */\n    tag_198:\n        /* \"#utility.yul\":11968:11969   */\n      0x00\n        /* \"#utility.yul\":11965:11966   */\n      dup1\n        /* \"#utility.yul\":11958:11970   */\n      revert\n        /* \"#utility.yul\":11982:12099   */\n    tag_189:\n        /* \"#utility.yul\":12091:12092   */\n      0x00\n        /* \"#utility.yul\":12088:12089   */\n      dup1\n        /* \"#utility.yul\":12081:12093   */\n      revert\n        /* \"#utility.yul\":12105:12207   */\n    tag_275:\n        /* \"#utility.yul\":12146:12152   */\n      0x00\n        /* \"#utility.yul\":12197:12199   */\n      0x1f\n        /* \"#utility.yul\":12193:12200   */\n      not\n        /* \"#utility.yul\":12188:12190   */\n      0x1f\n        /* \"#utility.yul\":12181:12186   */\n      dup4\n        /* \"#utility.yul\":12177:12191   */\n      add\n        /* \"#utility.yul\":12173:12201   */\n      and\n        /* \"#utility.yul\":12163:12201   */\n      swap1\n      pop\n        /* \"#utility.yul\":12105:12207   */\n      swap2\n      swap1\n      pop\n      jump\t// out\n        /* \"#utility.yul\":12213:12389   */\n    tag_232:\n        /* \"#utility.yul\":12353:12381   */\n      0x43616c6c6572206973206e6f742074686520476f7665726e6f72000000000000\n        /* \"#utility.yul\":12349:12350   */\n      0x00\n        /* \"#utility.yul\":12341:12347   */\n      dup3\n        /* \"#utility.yul\":12337:12351   */\n      add\n        /* \"#utility.yul\":12330:12382   */\n      mstore\n        /* \"#utility.yul\":12213:12389   */\n      pop\n      jump\t// out\n        /* \"#utility.yul\":12395:12571   */\n    tag_237:\n        /* \"#utility.yul\":12535:12563   */\n      0x4e657720476f7665726e6f722069732061646472657373283029000000000000\n        /* \"#utility.yul\":12531:12532   */\n      0x00\n        /* \"#utility.yul\":12523:12529   */\n      dup3\n        /* \"#utility.yul\":12519:12533   */\n      add\n        /* \"#utility.yul\":12512:12564   */\n      mstore\n        /* \"#utility.yul\":12395:12571   */\n      pop\n      jump\t// out\n        /* \"#utility.yul\":12577:12823   */\n    tag_242:\n        /* \"#utility.yul\":12717:12751   */\n      0x43616e6e6f742073657420612070726f787920696d706c656d656e746174696f\n        /* \"#utility.yul\":12713:12714   */\n      0x00\n        /* \"#utility.yul\":12705:12711   */\n      dup3\n        /* \"#utility.yul\":12701:12715   */\n      add\n        /* \"#utility.yul\":12694:12752   */\n      mstore\n        /* \"#utility.yul\":12786:12815   */\n      0x6e20746f2061206e6f6e2d636f6e747261637420616464726573730000000000\n        /* \"#utility.yul\":12781:12783   */\n      0x20\n        /* \"#utility.yul\":12773:12779   */\n      dup3\n        /* \"#utility.yul\":12769:12784   */\n      add\n        /* \"#utility.yul\":12762:12816   */\n      mstore\n        /* \"#utility.yul\":12577:12823   */\n      pop\n      jump\t// out\n        /* \"#utility.yul\":12829:13064   */\n    tag_247:\n        /* \"#utility.yul\":12969:13003   */\n      0x4f6e6c79207468652070656e64696e6720476f7665726e6f722063616e20636f\n        /* \"#utility.yul\":12965:12966   */\n      0x00\n        /* \"#utility.yul\":12957:12963   */\n      dup3\n        /* \"#utility.yul\":12953:12967   */\n      add\n        /* \"#utility.yul\":12946:13004   */\n      mstore\n        /* \"#utility.yul\":13038:13056   */\n      0x6d706c6574652074686520636c61696d00000000000000000000000000000000\n        /* \"#utility.yul\":13033:13035   */\n      0x20\n        /* \"#utility.yul\":13025:13031   */\n      dup3\n        /* \"#utility.yul\":13021:13036   */\n      add\n        /* \"#utility.yul\":13014:13057   */\n      mstore\n        /* \"#utility.yul\":12829:13064   */\n      pop\n      jump\t// out\n        /* \"#utility.yul\":13070:13192   */\n    tag_169:\n        /* \"#utility.yul\":13143:13167   */\n      tag_317\n        /* \"#utility.yul\":13161:13166   */\n      dup2\n        /* \"#utility.yul\":13143:13167   */\n      tag_210\n      jump\t// in\n    tag_317:\n        /* \"#utility.yul\":13136:13141   */\n      dup2\n        /* \"#utility.yul\":13133:13168   */\n      eq\n        /* \"#utility.yul\":13123:13186   */\n      tag_318\n      jumpi\n        /* \"#utility.yul\":13182:13183   */\n      0x00\n        /* \"#utility.yul\":13179:13180   */\n      dup1\n        /* \"#utility.yul\":13172:13184   */\n      revert\n        /* \"#utility.yul\":13123:13186   */\n    tag_318:\n        /* \"#utility.yul\":13070:13192   */\n      pop\n      jump\t// out\n\n    auxdata: 0xa264697066735822122034fef14881f8b1acd9b6e67ef30d49ffba4c6fd71286aca1ebb1e7ee33712fa064736f6c63430008070033\n}\n",
				"bytecode": {
					"linkReferences": {},
					"object": "608060405234801561001057600080fd5b506100203361008d60201b60201c565b61002e6100bc60201b60201c565b73ffffffffffffffffffffffffffffffffffffffff16600073ffffffffffffffffffffffffffffffffffffffff167fc7c0c772add429241571afb3805861fb3cfa2af374534088b76cdb4325a87e9a60405160405180910390a36100ed565b60007f7bea13895fa79d2831e0a9e28edede30099005a50d652d8957cf8a607ee6ca4a60001b90508181555050565b6000807f7bea13895fa79d2831e0a9e28edede30099005a50d652d8957cf8a607ee6ca4a60001b9050805491505090565b61103f806100fc6000396000f3fe60806040526004361061008a5760003560e01c80635d36b190116100595780635d36b19014610130578063c7af335214610147578063cf7a1d7714610172578063d38bfff41461018e578063f851a440146101b75761008b565b80630c340a24146100955780633659cfe6146100c05780634f1ef286146100e95780635c60da1b146101055761008b565b5b6100936101e2565b005b3480156100a157600080fd5b506100aa6101fc565b6040516100b79190610c24565b60405180910390f35b3480156100cc57600080fd5b506100e760048036038101906100e291906109f8565b61020b565b005b61010360048036038101906100fe9190610a94565b61025e565b005b34801561011157600080fd5b5061011a61032b565b6040516101279190610c24565b60405180910390f35b34801561013c57600080fd5b5061014561033a565b005b34801561015357600080fd5b5061015c6103ba565b6040516101699190610c3f565b60405180910390f35b61018c60048036038101906101879190610a25565b6103f7565b005b34801561019a57600080fd5b506101b560048036038101906101b091906109f8565b61057b565b005b3480156101c357600080fd5b506101cc61062f565b6040516101d99190610c24565b60405180910390f35b6101ea61063e565b6101fa6101f5610640565b610671565b565b6000610206610697565b905090565b6102136103ba565b610252576040517f08c379a000000000000000000000000000000000000000000000000000000000815260040161024990610c5a565b60405180910390fd5b61025b816106c8565b50565b6102666103ba565b6102a5576040517f08c379a000000000000000000000000000000000000000000000000000000000815260040161029c90610c5a565b60405180910390fd5b6102ae836106c8565b60008373ffffffffffffffffffffffffffffffffffffffff1683836040516102d7929190610bf4565b600060405180830381855af49150503d8060008114610312576040519150601f19603f3d011682016040523d82523d6000602084013e610317565b606091505b505090508061032557600080fd5b50505050565b6000610335610640565b905090565b610342610717565b73ffffffffffffffffffffffffffffffffffffffff163373ffffffffffffffffffffffffffffffffffffffff16146103af576040517f08c379a00000000000000000000000000000000000000000000000000000000081526004016103a690610cba565b60405180910390fd5b6103b833610748565b565b60006103c4610697565b73ffffffffffffffffffffffffffffffffffffffff163373ffffffffffffffffffffffffffffffffffffffff1614905090565b6103ff6103ba565b61043e576040517f08c379a000000000000000000000000000000000000000000000000000000000815260040161043590610c5a565b60405180910390fd5b600073ffffffffffffffffffffffffffffffffffffffff1661045e610640565b73ffffffffffffffffffffffffffffffffffffffff161461047e57600080fd5b60017f360894a13ba1a3210667c828492db98dca3e2076cc3735a920a3ca505d382bbd60001c6104ae9190610d57565b60001b7f360894a13ba1a3210667c828492db98dca3e2076cc3735a920a3ca505d382bbc60001b146104e3576104e2610e46565b5b6104ec82610748565b6104f583610825565b6000815111156105765760008373ffffffffffffffffffffffffffffffffffffffff16826040516105269190610c0d565b600060405180830381855af49150503d8060008114610561576040519150601f19603f3d011682016040523d82523d6000602084013e610566565b606091505b505090508061057457600080fd5b505b505050565b6105836103ba565b6105c2576040517f08c379a00000000000000000000000000000000000000000000000000000000081526004016105b990610c5a565b60405180910390fd5b6105cb8161089c565b8073ffffffffffffffffffffffffffffffffffffffff166105ea610697565b73ffffffffffffffffffffffffffffffffffffffff167fa39cc5eb22d0f34d8beaefee8a3f17cc229c1a1d1ef87a5ad47313487b1c4f0d60405160405180910390a350565b6000610639610697565b905090565b565b6000807f360894a13ba1a3210667c828492db98dca3e2076cc3735a920a3ca505d382bbc60001b9050805491505090565b3660008037600080366000845af43d6000803e8060008114610692573d6000f35b3d6000fd5b6000807f7bea13895fa79d2831e0a9e28edede30099005a50d652d8957cf8a607ee6ca4a60001b9050805491505090565b6106d181610825565b8073ffffffffffffffffffffffffffffffffffffffff167fbc7cd75a20ee27fd9adebab32041f755214dbc6bffa90cc0225b39da2e5c2d3b60405160405180910390a250565b6000807f44c4d30b2eaad5130ad70c3ba6972730566f3e6359ab83e800d905c61b1c51db60001b9050805491505090565b600073ffffffffffffffffffffffffffffffffffffffff168173ffffffffffffffffffffffffffffffffffffffff1614156107b8576040517f08c379a00000000000000000000000000000000000000000000000000000000081526004016107af90610c7a565b60405180910390fd5b8073ffffffffffffffffffffffffffffffffffffffff166107d7610697565b73ffffffffffffffffffffffffffffffffffffffff167fc7c0c772add429241571afb3805861fb3cfa2af374534088b76cdb4325a87e9a60405160405180910390a3610822816108cb565b50565b61082e816108fa565b61086d576040517f08c379a000000000000000000000000000000000000000000000000000000000815260040161086490610c9a565b60405180910390fd5b60007f360894a13ba1a3210667c828492db98dca3e2076cc3735a920a3ca505d382bbc60001b90508181555050565b60007f44c4d30b2eaad5130ad70c3ba6972730566f3e6359ab83e800d905c61b1c51db60001b90508181555050565b60007f7bea13895fa79d2831e0a9e28edede30099005a50d652d8957cf8a607ee6ca4a60001b90508181555050565b6000808273ffffffffffffffffffffffffffffffffffffffff163b119050919050565b600061093061092b84610cff565b610cda565b90508281526020810184848401111561094c5761094b610ee2565b5b610957848285610dd3565b509392505050565b60008135905061096e81610ff2565b92915050565b60008083601f84011261098a57610989610ed8565b5b8235905067ffffffffffffffff8111156109a7576109a6610ed3565b5b6020830191508360018202830111156109c3576109c2610edd565b5b9250929050565b600082601f8301126109df576109de610ed8565b5b81356109ef84826020860161091d565b91505092915050565b600060208284031215610a0e57610a0d610eec565b5b6000610a1c8482850161095f565b91505092915050565b600080600060608486031215610a3e57610a3d610eec565b5b6000610a4c8682870161095f565b9350506020610a5d8682870161095f565b925050604084013567ffffffffffffffff811115610a7e57610a7d610ee7565b5b610a8a868287016109ca565b9150509250925092565b600080600060408486031215610aad57610aac610eec565b5b6000610abb8682870161095f565b935050602084013567ffffffffffffffff811115610adc57610adb610ee7565b5b610ae886828701610974565b92509250509250925092565b610afd81610d8b565b82525050565b610b0c81610d9d565b82525050565b6000610b1e8385610d3b565b9350610b2b838584610dd3565b82840190509392505050565b6000610b4282610d30565b610b4c8185610d3b565b9350610b5c818560208601610de2565b80840191505092915050565b6000610b75601a83610d46565b9150610b8082610f02565b602082019050919050565b6000610b98601a83610d46565b9150610ba382610f2b565b602082019050919050565b6000610bbb603b83610d46565b9150610bc682610f54565b604082019050919050565b6000610bde603083610d46565b9150610be982610fa3565b604082019050919050565b6000610c01828486610b12565b91508190509392505050565b6000610c198284610b37565b915081905092915050565b6000602082019050610c396000830184610af4565b92915050565b6000602082019050610c546000830184610b03565b92915050565b60006020820190508181036000830152610c7381610b68565b9050919050565b60006020820190508181036000830152610c9381610b8b565b9050919050565b60006020820190508181036000830152610cb381610bae565b9050919050565b60006020820190508181036000830152610cd381610bd1565b9050919050565b6000610ce4610cf5565b9050610cf08282610e15565b919050565b6000604051905090565b600067ffffffffffffffff821115610d1a57610d19610ea4565b5b610d2382610ef1565b9050602081019050919050565b600081519050919050565b600081905092915050565b600082825260208201905092915050565b6000610d6282610dc9565b9150610d6d83610dc9565b925082821015610d8057610d7f610e75565b5b828203905092915050565b6000610d9682610da9565b9050919050565b60008115159050919050565b600073ffffffffffffffffffffffffffffffffffffffff82169050919050565b6000819050919050565b82818337600083830152505050565b60005b83811015610e00578082015181840152602081019050610de5565b83811115610e0f576000848401525b50505050565b610e1e82610ef1565b810181811067ffffffffffffffff82111715610e3d57610e3c610ea4565b5b80604052505050565b7f4e487b7100000000000000000000000000000000000000000000000000000000600052600160045260246000fd5b7f4e487b7100000000000000000000000000000000000000000000000000000000600052601160045260246000fd5b7f4e487b7100000000000000000000000000000000000000000000000000000000600052604160045260246000fd5b600080fd5b600080fd5b600080fd5b600080fd5b600080fd5b600080fd5b6000601f19601f8301169050919050565b7f43616c6c6572206973206e6f742074686520476f7665726e6f72000000000000600082015250565b7f4e657720476f7665726e6f722069732061646472657373283029000000000000600082015250565b7f43616e6e6f742073657420612070726f787920696d706c656d656e746174696f60008201527f6e20746f2061206e6f6e2d636f6e747261637420616464726573730000000000602082015250565b7f4f6e6c79207468652070656e64696e6720476f7665726e6f722063616e20636f60008201527f6d706c6574652074686520636c61696d00000000000000000000000000000000602082015250565b610ffb81610d8b565b811461100657600080fd5b5056fea264697066735822122034fef14881f8b1acd9b6e67ef30d49ffba4c6fd71286aca1ebb1e7ee33712fa064736f6c63430008070033",
					"opcodes": "PUSH1 0x80 PUSH1 0x40 MSTORE CALLVALUE DUP1 ISZERO PUSH2 0x10 JUMPI PUSH1 0x0 DUP1 REVERT JUMPDEST POP PUSH2 0x20 CALLER PUSH2 0x8D PUSH1 0x20 SHL PUSH1 0x20 SHR JUMP JUMPDEST PUSH2 0x2E PUSH2 0xBC PUSH1 0x20 SHL PUSH1 0x20 SHR JUMP JUMPDEST PUSH20 0xFFFFFFFFFFFFFFFFFFFFFFFFFFFFFFFFFFFFFFFF AND PUSH1 0x0 PUSH20 0xFFFFFFFFFFFFFFFFFFFFFFFFFFFFFFFFFFFFFFFF AND PUSH32 0xC7C0C772ADD429241571AFB3805861FB3CFA2AF374534088B76CDB4325A87E9A PUSH1 0x40 MLOAD PUSH1 0x40 MLOAD DUP1 SWAP2 SUB SWAP1 LOG3 PUSH2 0xED JUMP JUMPDEST PUSH1 0x0 PUSH32 0x7BEA13895FA79D2831E0A9E28EDEDE30099005A50D652D8957CF8A607EE6CA4A PUSH1 0x0 SHL SWAP1 POP DUP2 DUP2 SSTORE POP POP JUMP JUMPDEST PUSH1 0x0 DUP1 PUSH32 0x7BEA13895FA79D2831E0A9E28EDEDE30099005A50D652D8957CF8A607EE6CA4A PUSH1 0x0 SHL SWAP1 POP DUP1 SLOAD SWAP2 POP POP SWAP1 JUMP JUMPDEST PUSH2 0x103F DUP1 PUSH2 0xFC PUSH1 0x0 CODECOPY PUSH1 0x0 RETURN INVALID PUSH1 0x80 PUSH1 0x40 MSTORE PUSH1 0x4 CALLDATASIZE LT PUSH2 0x8A JUMPI PUSH1 0x0 CALLDATALOAD PUSH1 0xE0 SHR DUP1 PUSH4 0x5D36B190 GT PUSH2 0x59 JUMPI DUP1 PUSH4 0x5D36B190 EQ PUSH2 0x130 JUMPI DUP1 PUSH4 0xC7AF3352 EQ PUSH2 0x147 JUMPI DUP1 PUSH4 0xCF7A1D77 EQ PUSH2 0x172 JUMPI DUP1 PUSH4 0xD38BFFF4 EQ PUSH2 0x18E JUMPI DUP1 PUSH4 0xF851A440 EQ PUSH2 0x1B7 JUMPI PUSH2 0x8B JUMP JUMPDEST DUP1 PUSH4 0xC340A24 EQ PUSH2 0x95 JUMPI DUP1 PUSH4 0x3659CFE6 EQ PUSH2 0xC0 JUMPI DUP1 PUSH4 0x4F1EF286 EQ PUSH2 0xE9 JUMPI DUP1 PUSH4 0x5C60DA1B EQ PUSH2 0x105 JUMPI PUSH2 0x8B JUMP JUMPDEST JUMPDEST PUSH2 0x93 PUSH2 0x1E2 JUMP JUMPDEST STOP JUMPDEST CALLVALUE DUP1 ISZERO PUSH2 0xA1 JUMPI PUSH1 0x0 DUP1 REVERT JUMPDEST POP PUSH2 0xAA PUSH2 0x1FC JUMP JUMPDEST PUSH1 0x40 MLOAD PUSH2 0xB7 SWAP2 SWAP1 PUSH2 0xC24 JUMP JUMPDEST PUSH1 0x40 MLOAD DUP1 SWAP2 SUB SWAP1 RETURN JUMPDEST CALLVALUE DUP1 ISZERO PUSH2 0xCC JUMPI PUSH1 0x0 DUP1 REVERT JUMPDEST POP PUSH2 0xE7 PUSH1 0x4 DUP1 CALLDATASIZE SUB DUP2 ADD SWAP1 PUSH2 0xE2 SWAP2 SWAP1 PUSH2 0x9F8 JUMP JUMPDEST PUSH2 0x20B JUMP JUMPDEST STOP JUMPDEST PUSH2 0x103 PUSH1 0x4 DUP1 CALLDATASIZE SUB DUP2 ADD SWAP1 PUSH2 0xFE SWAP2 SWAP1 PUSH2 0xA94 JUMP JUMPDEST PUSH2 0x25E JUMP JUMPDEST STOP JUMPDEST CALLVALUE DUP1 ISZERO PUSH2 0x111 JUMPI PUSH1 0x0 DUP1 REVERT JUMPDEST POP PUSH2 0x11A PUSH2 0x32B JUMP JUMPDEST PUSH1 0x40 MLOAD PUSH2 0x127 SWAP2 SWAP1 PUSH2 0xC24 JUMP JUMPDEST PUSH1 0x40 MLOAD DUP1 SWAP2 SUB SWAP1 RETURN JUMPDEST CALLVALUE DUP1 ISZERO PUSH2 0x13C JUMPI PUSH1 0x0 DUP1 REVERT JUMPDEST POP PUSH2 0x145 PUSH2 0x33A JUMP JUMPDEST STOP JUMPDEST CALLVALUE DUP1 ISZERO PUSH2 0x153 JUMPI PUSH1 0x0 DUP1 REVERT JUMPDEST POP PUSH2 0x15C PUSH2 0x3BA JUMP JUMPDEST PUSH1 0x40 MLOAD PUSH2 0x169 SWAP2 SWAP1 PUSH2 0xC3F JUMP JUMPDEST PUSH1 0x40 MLOAD DUP1 SWAP2 SUB SWAP1 RETURN JUMPDEST PUSH2 0x18C PUSH1 0x4 DUP1 CALLDATASIZE SUB DUP2 ADD SWAP1 PUSH2 0x187 SWAP2 SWAP1 PUSH2 0xA25 JUMP JUMPDEST PUSH2 0x3F7 JUMP JUMPDEST STOP JUMPDEST CALLVALUE DUP1 ISZERO PUSH2 0x19A JUMPI PUSH1 0x0 DUP1 REVERT JUMPDEST POP PUSH2 0x1B5 PUSH1 0x4 DUP1 CALLDATASIZE SUB DUP2 ADD SWAP1 PUSH2 0x1B0 SWAP2 SWAP1 PUSH2 0x9F8 JUMP JUMPDEST PUSH2 0x57B JUMP JUMPDEST STOP JUMPDEST CALLVALUE DUP1 ISZERO PUSH2 0x1C3 JUMPI PUSH1 0x0 DUP1 REVERT JUMPDEST POP PUSH2 0x1CC PUSH2 0x62F JUMP JUMPDEST PUSH1 0x40 MLOAD PUSH2 0x1D9 SWAP2 SWAP1 PUSH2 0xC24 JUMP JUMPDEST PUSH1 0x40 MLOAD DUP1 SWAP2 SUB SWAP1 RETURN JUMPDEST PUSH2 0x1EA PUSH2 0x63E JUMP JUMPDEST PUSH2 0x1FA PUSH2 0x1F5 PUSH2 0x640 JUMP JUMPDEST PUSH2 0x671 JUMP JUMPDEST JUMP JUMPDEST PUSH1 0x0 PUSH2 0x206 PUSH2 0x697 JUMP JUMPDEST SWAP1 POP SWAP1 JUMP JUMPDEST PUSH2 0x213 PUSH2 0x3BA JUMP JUMPDEST PUSH2 0x252 JUMPI PUSH1 0x40 MLOAD PUSH32 0x8C379A000000000000000000000000000000000000000000000000000000000 DUP2 MSTORE PUSH1 0x4 ADD PUSH2 0x249 SWAP1 PUSH2 0xC5A JUMP JUMPDEST PUSH1 0x40 MLOAD DUP1 SWAP2 SUB SWAP1 REVERT JUMPDEST PUSH2 0x25B DUP2 PUSH2 0x6C8 JUMP JUMPDEST POP JUMP JUMPDEST PUSH2 0x266 PUSH2 0x3BA JUMP JUMPDEST PUSH2 0x2A5 JUMPI PUSH1 0x40 MLOAD PUSH32 0x8C379A000000000000000000000000000000000000000000000000000000000 DUP2 MSTORE PUSH1 0x4 ADD PUSH2 0x29C SWAP1 PUSH2 0xC5A JUMP JUMPDEST PUSH1 0x40 MLOAD DUP1 SWAP2 SUB SWAP1 REVERT JUMPDEST PUSH2 0x2AE DUP4 PUSH2 0x6C8 JUMP JUMPDEST PUSH1 0x0 DUP4 PUSH20 0xFFFFFFFFFFFFFFFFFFFFFFFFFFFFFFFFFFFFFFFF AND DUP4 DUP4 PUSH1 0x40 MLOAD PUSH2 0x2D7 SWAP3 SWAP2 SWAP1 PUSH2 0xBF4 JUMP JUMPDEST PUSH1 0x0 PUSH1 0x40 MLOAD DUP1 DUP4 SUB DUP2 DUP6 GAS DELEGATECALL SWAP2 POP POP RETURNDATASIZE DUP1 PUSH1 0x0 DUP2 EQ PUSH2 0x312 JUMPI PUSH1 0x40 MLOAD SWAP2 POP PUSH1 0x1F NOT PUSH1 0x3F RETURNDATASIZE ADD AND DUP3 ADD PUSH1 0x40 MSTORE RETURNDATASIZE DUP3 MSTORE RETURNDATASIZE PUSH1 0x0 PUSH1 0x20 DUP5 ADD RETURNDATACOPY PUSH2 0x317 JUMP JUMPDEST PUSH1 0x60 SWAP2 POP JUMPDEST POP POP SWAP1 POP DUP1 PUSH2 0x325 JUMPI PUSH1 0x0 DUP1 REVERT JUMPDEST POP POP POP POP JUMP JUMPDEST PUSH1 0x0 PUSH2 0x335 PUSH2 0x640 JUMP JUMPDEST SWAP1 POP SWAP1 JUMP JUMPDEST PUSH2 0x342 PUSH2 0x717 JUMP JUMPDEST PUSH20 0xFFFFFFFFFFFFFFFFFFFFFFFFFFFFFFFFFFFFFFFF AND CALLER PUSH20 0xFFFFFFFFFFFFFFFFFFFFFFFFFFFFFFFFFFFFFFFF AND EQ PUSH2 0x3AF JUMPI PUSH1 0x40 MLOAD PUSH32 0x8C379A000000000000000000000000000000000000000000000000000000000 DUP2 MSTORE PUSH1 0x4 ADD PUSH2 0x3A6 SWAP1 PUSH2 0xCBA JUMP JUMPDEST PUSH1 0x40 MLOAD DUP1 SWAP2 SUB SWAP1 REVERT JUMPDEST PUSH2 0x3B8 CALLER PUSH2 0x748 JUMP JUMPDEST JUMP JUMPDEST PUSH1 0x0 PUSH2 0x3C4 PUSH2 0x697 JUMP JUMPDEST PUSH20 0xFFFFFFFFFFFFFFFFFFFFFFFFFFFFFFFFFFFFFFFF AND CALLER PUSH20 0xFFFFFFFFFFFFFFFFFFFFFFFFFFFFFFFFFFFFFFFF AND EQ SWAP1 POP SWAP1 JUMP JUMPDEST PUSH2 0x3FF PUSH2 0x3BA JUMP JUMPDEST PUSH2 0x43E JUMPI PUSH1 0x40 MLOAD PUSH32 0x8C379A000000000000000000000000000000000000000000000000000000000 DUP2 MSTORE PUSH1 0x4 ADD PUSH2 0x435 SWAP1 PUSH2 0xC5A JUMP JUMPDEST PUSH1 0x40 MLOAD DUP1 SWAP2 SUB SWAP1 REVERT JUMPDEST PUSH1 0x0 PUSH20 0xFFFFFFFFFFFFFFFFFFFFFFFFFFFFFFFFFFFFFFFF AND PUSH2 0x45E PUSH2 0x640 JUMP JUMPDEST PUSH20 0xFFFFFFFFFFFFFFFFFFFFFFFFFFFFFFFFFFFFFFFF AND EQ PUSH2 0x47E JUMPI PUSH1 0x0 DUP1 REVERT JUMPDEST PUSH1 0x1 PUSH32 0x360894A13BA1A3210667C828492DB98DCA3E2076CC3735A920A3CA505D382BBD PUSH1 0x0 SHR PUSH2 0x4AE SWAP2 SWAP1 PUSH2 0xD57 JUMP JUMPDEST PUSH1 0x0 SHL PUSH32 0x360894A13BA1A3210667C828492DB98DCA3E2076CC3735A920A3CA505D382BBC PUSH1 0x0 SHL EQ PUSH2 0x4E3 JUMPI PUSH2 0x4E2 PUSH2 0xE46 JUMP JUMPDEST JUMPDEST PUSH2 0x4EC DUP3 PUSH2 0x748 JUMP JUMPDEST PUSH2 0x4F5 DUP4 PUSH2 0x825 JUMP JUMPDEST PUSH1 0x0 DUP2 MLOAD GT ISZERO PUSH2 0x576 JUMPI PUSH1 0x0 DUP4 PUSH20 0xFFFFFFFFFFFFFFFFFFFFFFFFFFFFFFFFFFFFFFFF AND DUP3 PUSH1 0x40 MLOAD PUSH2 0x526 SWAP2 SWAP1 PUSH2 0xC0D JUMP JUMPDEST PUSH1 0x0 PUSH1 0x40 MLOAD DUP1 DUP4 SUB DUP2 DUP6 GAS DELEGATECALL SWAP2 POP POP RETURNDATASIZE DUP1 PUSH1 0x0 DUP2 EQ PUSH2 0x561 JUMPI PUSH1 0x40 MLOAD SWAP2 POP PUSH1 0x1F NOT PUSH1 0x3F RETURNDATASIZE ADD AND DUP3 ADD PUSH1 0x40 MSTORE RETURNDATASIZE DUP3 MSTORE RETURNDATASIZE PUSH1 0x0 PUSH1 0x20 DUP5 ADD RETURNDATACOPY PUSH2 0x566 JUMP JUMPDEST PUSH1 0x60 SWAP2 POP JUMPDEST POP POP SWAP1 POP DUP1 PUSH2 0x574 JUMPI PUSH1 0x0 DUP1 REVERT JUMPDEST POP JUMPDEST POP POP POP JUMP JUMPDEST PUSH2 0x583 PUSH2 0x3BA JUMP JUMPDEST PUSH2 0x5C2 JUMPI PUSH1 0x40 MLOAD PUSH32 0x8C379A000000000000000000000000000000000000000000000000000000000 DUP2 MSTORE PUSH1 0x4 ADD PUSH2 0x5B9 SWAP1 PUSH2 0xC5A JUMP JUMPDEST PUSH1 0x40 MLOAD DUP1 SWAP2 SUB SWAP1 REVERT JUMPDEST PUSH2 0x5CB DUP2 PUSH2 0x89C JUMP JUMPDEST DUP1 PUSH20 0xFFFFFFFFFFFFFFFFFFFFFFFFFFFFFFFFFFFFFFFF AND PUSH2 0x5EA PUSH2 0x697 JUMP JUMPDEST PUSH20 0xFFFFFFFFFFFFFFFFFFFFFFFFFFFFFFFFFFFFFFFF AND PUSH32 0xA39CC5EB22D0F34D8BEAEFEE8A3F17CC229C1A1D1EF87A5AD47313487B1C4F0D PUSH1 0x40 MLOAD PUSH1 0x40 MLOAD DUP1 SWAP2 SUB SWAP1 LOG3 POP JUMP JUMPDEST PUSH1 0x0 PUSH2 0x639 PUSH2 0x697 JUMP JUMPDEST SWAP1 POP SWAP1 JUMP JUMPDEST JUMP JUMPDEST PUSH1 0x0 DUP1 PUSH32 0x360894A13BA1A3210667C828492DB98DCA3E2076CC3735A920A3CA505D382BBC PUSH1 0x0 SHL SWAP1 POP DUP1 SLOAD SWAP2 POP POP SWAP1 JUMP JUMPDEST CALLDATASIZE PUSH1 0x0 DUP1 CALLDATACOPY PUSH1 0x0 DUP1 CALLDATASIZE PUSH1 0x0 DUP5 GAS DELEGATECALL RETURNDATASIZE PUSH1 0x0 DUP1 RETURNDATACOPY DUP1 PUSH1 0x0 DUP2 EQ PUSH2 0x692 JUMPI RETURNDATASIZE PUSH1 0x0 RETURN JUMPDEST RETURNDATASIZE PUSH1 0x0 REVERT JUMPDEST PUSH1 0x0 DUP1 PUSH32 0x7BEA13895FA79D2831E0A9E28EDEDE30099005A50D652D8957CF8A607EE6CA4A PUSH1 0x0 SHL SWAP1 POP DUP1 SLOAD SWAP2 POP POP SWAP1 JUMP JUMPDEST PUSH2 0x6D1 DUP2 PUSH2 0x825 JUMP JUMPDEST DUP1 PUSH20 0xFFFFFFFFFFFFFFFFFFFFFFFFFFFFFFFFFFFFFFFF AND PUSH32 0xBC7CD75A20EE27FD9ADEBAB32041F755214DBC6BFFA90CC0225B39DA2E5C2D3B PUSH1 0x40 MLOAD PUSH1 0x40 MLOAD DUP1 SWAP2 SUB SWAP1 LOG2 POP JUMP JUMPDEST PUSH1 0x0 DUP1 PUSH32 0x44C4D30B2EAAD5130AD70C3BA6972730566F3E6359AB83E800D905C61B1C51DB PUSH1 0x0 SHL SWAP1 POP DUP1 SLOAD SWAP2 POP POP SWAP1 JUMP JUMPDEST PUSH1 0x0 PUSH20 0xFFFFFFFFFFFFFFFFFFFFFFFFFFFFFFFFFFFFFFFF AND DUP2 PUSH20 0xFFFFFFFFFFFFFFFFFFFFFFFFFFFFFFFFFFFFFFFF AND EQ ISZERO PUSH2 0x7B8 JUMPI PUSH1 0x40 MLOAD PUSH32 0x8C379A000000000000000000000000000000000000000000000000000000000 DUP2 MSTORE PUSH1 0x4 ADD PUSH2 0x7AF SWAP1 PUSH2 0xC7A JUMP JUMPDEST PUSH1 0x40 MLOAD DUP1 SWAP2 SUB SWAP1 REVERT JUMPDEST DUP1 PUSH20 0xFFFFFFFFFFFFFFFFFFFFFFFFFFFFFFFFFFFFFFFF AND PUSH2 0x7D7 PUSH2 0x697 JUMP JUMPDEST PUSH20 0xFFFFFFFFFFFFFFFFFFFFFFFFFFFFFFFFFFFFFFFF AND PUSH32 0xC7C0C772ADD429241571AFB3805861FB3CFA2AF374534088B76CDB4325A87E9A PUSH1 0x40 MLOAD PUSH1 0x40 MLOAD DUP1 SWAP2 SUB SWAP1 LOG3 PUSH2 0x822 DUP2 PUSH2 0x8CB JUMP JUMPDEST POP JUMP JUMPDEST PUSH2 0x82E DUP2 PUSH2 0x8FA JUMP JUMPDEST PUSH2 0x86D JUMPI PUSH1 0x40 MLOAD PUSH32 0x8C379A000000000000000000000000000000000000000000000000000000000 DUP2 MSTORE PUSH1 0x4 ADD PUSH2 0x864 SWAP1 PUSH2 0xC9A JUMP JUMPDEST PUSH1 0x40 MLOAD DUP1 SWAP2 SUB SWAP1 REVERT JUMPDEST PUSH1 0x0 PUSH32 0x360894A13BA1A3210667C828492DB98DCA3E2076CC3735A920A3CA505D382BBC PUSH1 0x0 SHL SWAP1 POP DUP2 DUP2 SSTORE POP POP JUMP JUMPDEST PUSH1 0x0 PUSH32 0x44C4D30B2EAAD5130AD70C3BA6972730566F3E6359AB83E800D905C61B1C51DB PUSH1 0x0 SHL SWAP1 POP DUP2 DUP2 SSTORE POP POP JUMP JUMPDEST PUSH1 0x0 PUSH32 0x7BEA13895FA79D2831E0A9E28EDEDE30099005A50D652D8957CF8A607EE6CA4A PUSH1 0x0 SHL SWAP1 POP DUP2 DUP2 SSTORE POP POP JUMP JUMPDEST PUSH1 0x0 DUP1 DUP3 PUSH20 0xFFFFFFFFFFFFFFFFFFFFFFFFFFFFFFFFFFFFFFFF AND EXTCODESIZE GT SWAP1 POP SWAP2 SWAP1 POP JUMP JUMPDEST PUSH1 0x0 PUSH2 0x930 PUSH2 0x92B DUP5 PUSH2 0xCFF JUMP JUMPDEST PUSH2 0xCDA JUMP JUMPDEST SWAP1 POP DUP3 DUP2 MSTORE PUSH1 0x20 DUP2 ADD DUP5 DUP5 DUP5 ADD GT ISZERO PUSH2 0x94C JUMPI PUSH2 0x94B PUSH2 0xEE2 JUMP JUMPDEST JUMPDEST PUSH2 0x957 DUP5 DUP3 DUP6 PUSH2 0xDD3 JUMP JUMPDEST POP SWAP4 SWAP3 POP POP POP JUMP JUMPDEST PUSH1 0x0 DUP2 CALLDATALOAD SWAP1 POP PUSH2 0x96E DUP2 PUSH2 0xFF2 JUMP JUMPDEST SWAP3 SWAP2 POP POP JUMP JUMPDEST PUSH1 0x0 DUP1 DUP4 PUSH1 0x1F DUP5 ADD SLT PUSH2 0x98A JUMPI PUSH2 0x989 PUSH2 0xED8 JUMP JUMPDEST JUMPDEST DUP3 CALLDATALOAD SWAP1 POP PUSH8 0xFFFFFFFFFFFFFFFF DUP2 GT ISZERO PUSH2 0x9A7 JUMPI PUSH2 0x9A6 PUSH2 0xED3 JUMP JUMPDEST JUMPDEST PUSH1 0x20 DUP4 ADD SWAP2 POP DUP4 PUSH1 0x1 DUP3 MUL DUP4 ADD GT ISZERO PUSH2 0x9C3 JUMPI PUSH2 0x9C2 PUSH2 0xEDD JUMP JUMPDEST JUMPDEST SWAP3 POP SWAP3 SWAP1 POP JUMP JUMPDEST PUSH1 0x0 DUP3 PUSH1 0x1F DUP4 ADD SLT PUSH2 0x9DF JUMPI PUSH2 0x9DE PUSH2 0xED8 JUMP JUMPDEST JUMPDEST DUP2 CALLDATALOAD PUSH2 0x9EF DUP5 DUP3 PUSH1 0x20 DUP7 ADD PUSH2 0x91D JUMP JUMPDEST SWAP2 POP POP SWAP3 SWAP2 POP POP JUMP JUMPDEST PUSH1 0x0 PUSH1 0x20 DUP3 DUP5 SUB SLT ISZERO PUSH2 0xA0E JUMPI PUSH2 0xA0D PUSH2 0xEEC JUMP JUMPDEST JUMPDEST PUSH1 0x0 PUSH2 0xA1C DUP5 DUP3 DUP6 ADD PUSH2 0x95F JUMP JUMPDEST SWAP2 POP POP SWAP3 SWAP2 POP POP JUMP JUMPDEST PUSH1 0x0 DUP1 PUSH1 0x0 PUSH1 0x60 DUP5 DUP7 SUB SLT ISZERO PUSH2 0xA3E JUMPI PUSH2 0xA3D PUSH2 0xEEC JUMP JUMPDEST JUMPDEST PUSH1 0x0 PUSH2 0xA4C DUP7 DUP3 DUP8 ADD PUSH2 0x95F JUMP JUMPDEST SWAP4 POP POP PUSH1 0x20 PUSH2 0xA5D DUP7 DUP3 DUP8 ADD PUSH2 0x95F JUMP JUMPDEST SWAP3 POP POP PUSH1 0x40 DUP5 ADD CALLDATALOAD PUSH8 0xFFFFFFFFFFFFFFFF DUP2 GT ISZERO PUSH2 0xA7E JUMPI PUSH2 0xA7D PUSH2 0xEE7 JUMP JUMPDEST JUMPDEST PUSH2 0xA8A DUP7 DUP3 DUP8 ADD PUSH2 0x9CA JUMP JUMPDEST SWAP2 POP POP SWAP3 POP SWAP3 POP SWAP3 JUMP JUMPDEST PUSH1 0x0 DUP1 PUSH1 0x0 PUSH1 0x40 DUP5 DUP7 SUB SLT ISZERO PUSH2 0xAAD JUMPI PUSH2 0xAAC PUSH2 0xEEC JUMP JUMPDEST JUMPDEST PUSH1 0x0 PUSH2 0xABB DUP7 DUP3 DUP8 ADD PUSH2 0x95F JUMP JUMPDEST SWAP4 POP POP PUSH1 0x20 DUP5 ADD CALLDATALOAD PUSH8 0xFFFFFFFFFFFFFFFF DUP2 GT ISZERO PUSH2 0xADC JUMPI PUSH2 0xADB PUSH2 0xEE7 JUMP JUMPDEST JUMPDEST PUSH2 0xAE8 DUP7 DUP3 DUP8 ADD PUSH2 0x974 JUMP JUMPDEST SWAP3 POP SWAP3 POP POP SWAP3 POP SWAP3 POP SWAP3 JUMP JUMPDEST PUSH2 0xAFD DUP2 PUSH2 0xD8B JUMP JUMPDEST DUP3 MSTORE POP POP JUMP JUMPDEST PUSH2 0xB0C DUP2 PUSH2 0xD9D JUMP JUMPDEST DUP3 MSTORE POP POP JUMP JUMPDEST PUSH1 0x0 PUSH2 0xB1E DUP4 DUP6 PUSH2 0xD3B JUMP JUMPDEST SWAP4 POP PUSH2 0xB2B DUP4 DUP6 DUP5 PUSH2 0xDD3 JUMP JUMPDEST DUP3 DUP5 ADD SWAP1 POP SWAP4 SWAP3 POP POP POP JUMP JUMPDEST PUSH1 0x0 PUSH2 0xB42 DUP3 PUSH2 0xD30 JUMP JUMPDEST PUSH2 0xB4C DUP2 DUP6 PUSH2 0xD3B JUMP JUMPDEST SWAP4 POP PUSH2 0xB5C DUP2 DUP6 PUSH1 0x20 DUP7 ADD PUSH2 0xDE2 JUMP JUMPDEST DUP1 DUP5 ADD SWAP2 POP POP SWAP3 SWAP2 POP POP JUMP JUMPDEST PUSH1 0x0 PUSH2 0xB75 PUSH1 0x1A DUP4 PUSH2 0xD46 JUMP JUMPDEST SWAP2 POP PUSH2 0xB80 DUP3 PUSH2 0xF02 JUMP JUMPDEST PUSH1 0x20 DUP3 ADD SWAP1 POP SWAP2 SWAP1 POP JUMP JUMPDEST PUSH1 0x0 PUSH2 0xB98 PUSH1 0x1A DUP4 PUSH2 0xD46 JUMP JUMPDEST SWAP2 POP PUSH2 0xBA3 DUP3 PUSH2 0xF2B JUMP JUMPDEST PUSH1 0x20 DUP3 ADD SWAP1 POP SWAP2 SWAP1 POP JUMP JUMPDEST PUSH1 0x0 PUSH2 0xBBB PUSH1 0x3B DUP4 PUSH2 0xD46 JUMP JUMPDEST SWAP2 POP PUSH2 0xBC6 DUP3 PUSH2 0xF54 JUMP JUMPDEST PUSH1 0x40 DUP3 ADD SWAP1 POP SWAP2 SWAP1 POP JUMP JUMPDEST PUSH1 0x0 PUSH2 0xBDE PUSH1 0x30 DUP4 PUSH2 0xD46 JUMP JUMPDEST SWAP2 POP PUSH2 0xBE9 DUP3 PUSH2 0xFA3 JUMP JUMPDEST PUSH1 0x40 DUP3 ADD SWAP1 POP SWAP2 SWAP1 POP JUMP JUMPDEST PUSH1 0x0 PUSH2 0xC01 DUP3 DUP5 DUP7 PUSH2 0xB12 JUMP JUMPDEST SWAP2 POP DUP2 SWAP1 POP SWAP4 SWAP3 POP POP POP JUMP JUMPDEST PUSH1 0x0 PUSH2 0xC19 DUP3 DUP5 PUSH2 0xB37 JUMP JUMPDEST SWAP2 POP DUP2 SWAP1 POP SWAP3 SWAP2 POP POP JUMP JUMPDEST PUSH1 0x0 PUSH1 0x20 DUP3 ADD SWAP1 POP PUSH2 0xC39 PUSH1 0x0 DUP4 ADD DUP5 PUSH2 0xAF4 JUMP JUMPDEST SWAP3 SWAP2 POP POP JUMP JUMPDEST PUSH1 0x0 PUSH1 0x20 DUP3 ADD SWAP1 POP PUSH2 0xC54 PUSH1 0x0 DUP4 ADD DUP5 PUSH2 0xB03 JUMP JUMPDEST SWAP3 SWAP2 POP POP JUMP JUMPDEST PUSH1 0x0 PUSH1 0x20 DUP3 ADD SWAP1 POP DUP2 DUP2 SUB PUSH1 0x0 DUP4 ADD MSTORE PUSH2 0xC73 DUP2 PUSH2 0xB68 JUMP JUMPDEST SWAP1 POP SWAP2 SWAP1 POP JUMP JUMPDEST PUSH1 0x0 PUSH1 0x20 DUP3 ADD SWAP1 POP DUP2 DUP2 SUB PUSH1 0x0 DUP4 ADD MSTORE PUSH2 0xC93 DUP2 PUSH2 0xB8B JUMP JUMPDEST SWAP1 POP SWAP2 SWAP1 POP JUMP JUMPDEST PUSH1 0x0 PUSH1 0x20 DUP3 ADD SWAP1 POP DUP2 DUP2 SUB PUSH1 0x0 DUP4 ADD MSTORE PUSH2 0xCB3 DUP2 PUSH2 0xBAE JUMP JUMPDEST SWAP1 POP SWAP2 SWAP1 POP JUMP JUMPDEST PUSH1 0x0 PUSH1 0x20 DUP3 ADD SWAP1 POP DUP2 DUP2 SUB PUSH1 0x0 DUP4 ADD MSTORE PUSH2 0xCD3 DUP2 PUSH2 0xBD1 JUMP JUMPDEST SWAP1 POP SWAP2 SWAP1 POP JUMP JUMPDEST PUSH1 0x0 PUSH2 0xCE4 PUSH2 0xCF5 JUMP JUMPDEST SWAP1 POP PUSH2 0xCF0 DUP3 DUP3 PUSH2 0xE15 JUMP JUMPDEST SWAP2 SWAP1 POP JUMP JUMPDEST PUSH1 0x0 PUSH1 0x40 MLOAD SWAP1 POP SWAP1 JUMP JUMPDEST PUSH1 0x0 PUSH8 0xFFFFFFFFFFFFFFFF DUP3 GT ISZERO PUSH2 0xD1A JUMPI PUSH2 0xD19 PUSH2 0xEA4 JUMP JUMPDEST JUMPDEST PUSH2 0xD23 DUP3 PUSH2 0xEF1 JUMP JUMPDEST SWAP1 POP PUSH1 0x20 DUP2 ADD SWAP1 POP SWAP2 SWAP1 POP JUMP JUMPDEST PUSH1 0x0 DUP2 MLOAD SWAP1 POP SWAP2 SWAP1 POP JUMP JUMPDEST PUSH1 0x0 DUP2 SWAP1 POP SWAP3 SWAP2 POP POP JUMP JUMPDEST PUSH1 0x0 DUP3 DUP3 MSTORE PUSH1 0x20 DUP3 ADD SWAP1 POP SWAP3 SWAP2 POP POP JUMP JUMPDEST PUSH1 0x0 PUSH2 0xD62 DUP3 PUSH2 0xDC9 JUMP JUMPDEST SWAP2 POP PUSH2 0xD6D DUP4 PUSH2 0xDC9 JUMP JUMPDEST SWAP3 POP DUP3 DUP3 LT ISZERO PUSH2 0xD80 JUMPI PUSH2 0xD7F PUSH2 0xE75 JUMP JUMPDEST JUMPDEST DUP3 DUP3 SUB SWAP1 POP SWAP3 SWAP2 POP POP JUMP JUMPDEST PUSH1 0x0 PUSH2 0xD96 DUP3 PUSH2 0xDA9 JUMP JUMPDEST SWAP1 POP SWAP2 SWAP1 POP JUMP JUMPDEST PUSH1 0x0 DUP2 ISZERO ISZERO SWAP1 POP SWAP2 SWAP1 POP JUMP JUMPDEST PUSH1 0x0 PUSH20 0xFFFFFFFFFFFFFFFFFFFFFFFFFFFFFFFFFFFFFFFF DUP3 AND SWAP1 POP SWAP2 SWAP1 POP JUMP JUMPDEST PUSH1 0x0 DUP2 SWAP1 POP SWAP2 SWAP1 POP JUMP JUMPDEST DUP3 DUP2 DUP4 CALLDATACOPY PUSH1 0x0 DUP4 DUP4 ADD MSTORE POP POP POP JUMP JUMPDEST PUSH1 0x0 JUMPDEST DUP4 DUP2 LT ISZERO PUSH2 0xE00 JUMPI DUP1 DUP3 ADD MLOAD DUP2 DUP5 ADD MSTORE PUSH1 0x20 DUP2 ADD SWAP1 POP PUSH2 0xDE5 JUMP JUMPDEST DUP4 DUP2 GT ISZERO PUSH2 0xE0F JUMPI PUSH1 0x0 DUP5 DUP5 ADD MSTORE JUMPDEST POP POP POP POP JUMP JUMPDEST PUSH2 0xE1E DUP3 PUSH2 0xEF1 JUMP JUMPDEST DUP2 ADD DUP2 DUP2 LT PUSH8 0xFFFFFFFFFFFFFFFF DUP3 GT OR ISZERO PUSH2 0xE3D JUMPI PUSH2 0xE3C PUSH2 0xEA4 JUMP JUMPDEST JUMPDEST DUP1 PUSH1 0x40 MSTORE POP POP POP JUMP JUMPDEST PUSH32 0x4E487B7100000000000000000000000000000000000000000000000000000000 PUSH1 0x0 MSTORE PUSH1 0x1 PUSH1 0x4 MSTORE PUSH1 0x24 PUSH1 0x0 REVERT JUMPDEST PUSH32 0x4E487B7100000000000000000000000000000000000000000000000000000000 PUSH1 0x0 MSTORE PUSH1 0x11 PUSH1 0x4 MSTORE PUSH1 0x24 PUSH1 0x0 REVERT JUMPDEST PUSH32 0x4E487B7100000000000000000000000000000000000000000000000000000000 PUSH1 0x0 MSTORE PUSH1 0x41 PUSH1 0x4 MSTORE PUSH1 0x24 PUSH1 0x0 REVERT JUMPDEST PUSH1 0x0 DUP1 REVERT JUMPDEST PUSH1 0x0 DUP1 REVERT JUMPDEST PUSH1 0x0 DUP1 REVERT JUMPDEST PUSH1 0x0 DUP1 REVERT JUMPDEST PUSH1 0x0 DUP1 REVERT JUMPDEST PUSH1 0x0 DUP1 REVERT JUMPDEST PUSH1 0x0 PUSH1 0x1F NOT PUSH1 0x1F DUP4 ADD AND SWAP1 POP SWAP2 SWAP1 POP JUMP JUMPDEST PUSH32 0x43616C6C6572206973206E6F742074686520476F7665726E6F72000000000000 PUSH1 0x0 DUP3 ADD MSTORE POP JUMP JUMPDEST PUSH32 0x4E657720476F7665726E6F722069732061646472657373283029000000000000 PUSH1 0x0 DUP3 ADD MSTORE POP JUMP JUMPDEST PUSH32 0x43616E6E6F742073657420612070726F787920696D706C656D656E746174696F PUSH1 0x0 DUP3 ADD MSTORE PUSH32 0x6E20746F2061206E6F6E2D636F6E747261637420616464726573730000000000 PUSH1 0x20 DUP3 ADD MSTORE POP JUMP JUMPDEST PUSH32 0x4F6E6C79207468652070656E64696E6720476F7665726E6F722063616E20636F PUSH1 0x0 DUP3 ADD MSTORE PUSH32 0x6D706C6574652074686520636C61696D00000000000000000000000000000000 PUSH1 0x20 DUP3 ADD MSTORE POP JUMP JUMPDEST PUSH2 0xFFB DUP2 PUSH2 0xD8B JUMP JUMPDEST DUP2 EQ PUSH2 0x1006 JUMPI PUSH1 0x0 DUP1 REVERT JUMPDEST POP JUMP INVALID LOG2 PUSH5 0x6970667358 0x22 SLT KECCAK256 CALLVALUE INVALID CALL BASEFEE DUP2 0xF8 0xB1 0xAC 0xD9 0xB6 0xE6 PUSH31 0xF30D49FFBA4C6FD71286ACA1EBB1E7EE33712FA064736F6C63430008070033 "
				},
				"gasEstimates": {
					"creation": {
						"codeDepositCost": "831800",
						"executionCost": "infinite",
						"totalCost": "infinite"
					},
					"external": {
						"": "infinite",
						"admin()": "2628",
						"claimGovernance()": "28251",
						"governor()": "2541",
						"implementation()": "2607",
						"initialize(address,address,bytes)": "infinite",
						"isGovernor()": "2536",
						"transferGovernance(address)": "infinite",
						"upgradeTo(address)": "28717",
						"upgradeToAndCall(address,bytes)": "infinite"
					},
					"internal": {
						"_delegate(address)": "infinite",
						"_fallback()": "infinite",
						"_implementation()": "2142",
						"_setImplementation(address)": "infinite",
						"_upgradeTo(address)": "infinite",
						"_willFallback()": "9"
					}
				},
				"methodIdentifiers": {
					"admin()": "f851a440",
					"claimGovernance()": "5d36b190",
					"governor()": "0c340a24",
					"implementation()": "5c60da1b",
					"initialize(address,address,bytes)": "cf7a1d77",
					"isGovernor()": "c7af3352",
					"transferGovernance(address)": "d38bfff4",
					"upgradeTo(address)": "3659cfe6",
					"upgradeToAndCall(address,bytes)": "4f1ef286"
				}
			},
			"storageLayout": {
				"storage": [],
				"types": null
			},
			"userdoc": {
				"kind": "user",
				"methods": {},
				"version": 1
			}
		}
	}
}