{
	"data": {
		"bytecode": {
			"linkReferences": {},
			"object": "60a06040523480156200001157600080fd5b5060405162003fb138038062003fb18339818101604052810190620000379190620002cf565b8282828160039080519060200190620000529291906200018a565b5080600490805190602001906200006b9291906200018a565b5050508073ffffffffffffffffffffffffffffffffffffffff1660808173ffffffffffffffffffffffffffffffffffffffff1660601b8152505050620000b7336200012a60201b60201c565b620000c76200015960201b60201c565b73ffffffffffffffffffffffffffffffffffffffff16600073ffffffffffffffffffffffffffffffffffffffff167fc7c0c772add429241571afb3805861fb3cfa2af374534088b76cdb4325a87e9a60405160405180910390a35050506200054f565b60007f7bea13895fa79d2831e0a9e28edede30099005a50d652d8957cf8a607ee6ca4a60001b90508181555050565b6000807f7bea13895fa79d2831e0a9e28edede30099005a50d652d8957cf8a607ee6ca4a60001b9050805491505090565b828054620001989062000446565b90600052602060002090601f016020900481019282620001bc576000855562000208565b82601f10620001d757805160ff191683800117855562000208565b8280016001018555821562000208579182015b8281111562000207578251825591602001919060010190620001ea565b5b5090506200021791906200021b565b5090565b5b80821115620002365760008160009055506001016200021c565b5090565b6000620002516200024b8462000392565b62000369565b90508281526020810184848401111562000270576200026f62000515565b5b6200027d84828562000410565b509392505050565b600081519050620002968162000535565b92915050565b600082601f830112620002b457620002b362000510565b5b8151620002c68482602086016200023a565b91505092915050565b600080600060608486031215620002eb57620002ea6200051f565b5b6000620002fb8682870162000285565b935050602084015167ffffffffffffffff8111156200031f576200031e6200051a565b5b6200032d868287016200029c565b925050604084015167ffffffffffffffff8111156200035157620003506200051a565b5b6200035f868287016200029c565b9150509250925092565b60006200037562000388565b90506200038382826200047c565b919050565b6000604051905090565b600067ffffffffffffffff821115620003b057620003af620004e1565b5b620003bb8262000524565b9050602081019050919050565b6000620003d582620003f0565b9050919050565b6000620003e982620003c8565b9050919050565b600073ffffffffffffffffffffffffffffffffffffffff82169050919050565b60005b838110156200043057808201518184015260208101905062000413565b8381111562000440576000848401525b50505050565b600060028204905060018216806200045f57607f821691505b60208210811415620004765762000475620004b2565b5b50919050565b620004878262000524565b810181811067ffffffffffffffff82111715620004a957620004a8620004e1565b5b80604052505050565b7f4e487b7100000000000000000000000000000000000000000000000000000000600052602260045260246000fd5b7f4e487b7100000000000000000000000000000000000000000000000000000000600052604160045260246000fd5b600080fd5b600080fd5b600080fd5b600080fd5b6000601f19601f8301169050919050565b6200054081620003dc565b81146200054c57600080fd5b50565b60805160601c613a126200059f600039600081816107300152818161086701528181610b9901528181610d90015281816110720152818161134c015281816114b001526115cf0152613a126000f3fe608060405234801561001057600080fd5b50600436106101fb5760003560e01c806370a082311161011a578063ba087652116100ad578063ce96cb771161007c578063ce96cb7714610650578063d38bfff414610680578063d905777e1461069c578063dd62ed3e146106cc578063ef8b30f7146106fc576101fb565b8063ba087652146105a2578063c63d75b6146105d2578063c6e6f59214610602578063c7af335214610632576101fb565b8063a457c2d7116100e9578063a457c2d7146104e2578063a9059cbb14610512578063b3d7f6b914610542578063b460af9414610572576101fb565b806370a082311461045a5780638129fc1c1461048a57806394bf804d1461049457806395d89b41146104c4576101fb565b806323b872dd11610192578063402d267d11610161578063402d267d146103c05780634cdad506146103f05780635d36b190146104205780636e553f651461042a576101fb565b806323b872dd14610324578063313ce5671461035457806338d52e0f146103725780633950935114610390576101fb565b80630a28a477116101ce5780630a28a4771461029c5780630c340a24146102cc5780631072cbea146102ea57806318160ddd14610306576101fb565b806301e1d1141461020057806306fdde031461021e57806307a2d13a1461023c578063095ea7b31461026c575b600080fd5b61020861072c565b6040516102159190612fc3565b60405180910390f35b6102266107dc565b6040516102339190612cc1565b60405180910390f35b6102566004803603810190610251919061272f565b610819565b6040516102639190612fc3565b60405180910390f35b610286600480360381019061028191906126c2565b61092d565b6040516102939190612ca6565b60405180910390f35b6102b660048036038101906102b1919061272f565b61094b565b6040516102c39190612fc3565b60405180910390f35b6102d4610988565b6040516102e19190612c2b565b60405180910390f35b61030460048036038101906102ff91906126c2565b610997565b005b61030e610a8a565b60405161031b9190612fc3565b60405180910390f35b61033e6004803603810190610339919061266f565b610a94565b60405161034b9190612ca6565b60405180910390f35b61035c610b8c565b6040516103699190613007565b60405180910390f35b61037a610b95565b6040516103879190612c2b565b60405180910390f35b6103aa60048036038101906103a591906126c2565b610bbd565b6040516103b79190612ca6565b60405180910390f35b6103da60048036038101906103d59190612602565b610c69565b6040516103e79190612fc3565b60405180910390f35b61040a6004803603810190610405919061272f565b610c93565b6040516104179190612fc3565b60405180910390f35b610428610ca5565b005b610444600480360381019061043f9190612789565b610d25565b6040516104519190612fc3565b60405180910390f35b610474600480360381019061046f9190612602565b610e33565b6040516104819190612fc3565b60405180910390f35b610492610e7b565b005b6104ae60048036038101906104a99190612789565b611007565b6040516104bb9190612fc3565b60405180910390f35b6104cc611115565b6040516104d99190612cc1565b60405180910390f35b6104fc60048036038101906104f791906126c2565b611152565b6040516105099190612ca6565b60405180910390f35b61052c600480360381019061052791906126c2565b61123d565b6040516105399190612ca6565b60405180910390f35b61055c6004803603810190610557919061272f565b61125b565b6040516105699190612fc3565b60405180910390f35b61058c600480360381019061058791906127c9565b611298565b6040516105999190612fc3565b60405180910390f35b6105bc60048036038101906105b791906127c9565b6113fc565b6040516105c99190612fc3565b60405180910390f35b6105ec60048036038101906105e79190612602565b611560565b6040516105f99190612fc3565b60405180910390f35b61061c6004803603810190610617919061272f565b61158a565b6040516106299190612fc3565b60405180910390f35b61063a6116a9565b6040516106479190612ca6565b60405180910390f35b61066a60048036038101906106659190612602565b6116e6565b6040516106779190612fc3565b60405180910390f35b61069a60048036038101906106959190612602565b611700565b005b6106b660048036038101906106b19190612602565b6117b4565b6040516106c39190612fc3565b60405180910390f35b6106e660048036038101906106e1919061262f565b6117c6565b6040516106f39190612fc3565b60405180910390f35b6107166004803603810190610711919061272f565b61184d565b6040516107239190612fc3565b60405180910390f35b60007f000000000000000000000000000000000000000000000000000000000000000073ffffffffffffffffffffffffffffffffffffffff166370a08231306040518263ffffffff1660e01b81526004016107879190612c2b565b60206040518083038186803b15801561079f57600080fd5b505afa1580156107b3573d6000803e3d6000fd5b505050506040513d601f19601f820116820180604052508101906107d7919061275c565b905090565b60606040518060400160405280600c81526020017f57726170706564204f5553440000000000000000000000000000000000000000815250905090565b600080610824610a8a565b905060008114610851578061083761072c565b84610842919061324c565b61084c91906130aa565b610925565b610859610b8c565b600a610865919061312e565b7f000000000000000000000000000000000000000000000000000000000000000073ffffffffffffffffffffffffffffffffffffffff1663313ce5676040518163ffffffff1660e01b815260040160206040518083038186803b1580156108cb57600080fd5b505afa1580156108df573d6000803e3d6000fd5b505050506040513d601f19601f82011682018060405250810190610903919061281c565b600a61090f919061312e565b8461091a919061324c565b61092491906130aa565b5b915050919050565b600061094161093a61185f565b8484611867565b6001905092915050565b6000806109578361158a565b90508261096382610819565b1061096f576000610972565b60015b60ff16816109809190613054565b915050919050565b6000610992611a32565b905090565b61099f6116a9565b6109de576040517f08c379a00000000000000000000000000000000000000000000000000000000081526004016109d590612d43565b60405180910390fd5b6109e6610b95565b73ffffffffffffffffffffffffffffffffffffffff168273ffffffffffffffffffffffffffffffffffffffff161415610a54576040517f08c379a0000000000000000000000000000000000000000000000000000000008152600401610a4b90612ea3565b60405180910390fd5b610a86610a5f610988565b828473ffffffffffffffffffffffffffffffffffffffff16611a639092919063ffffffff16565b5050565b6000600254905090565b6000610aa1848484611ae9565b6000600160008673ffffffffffffffffffffffffffffffffffffffff1673ffffffffffffffffffffffffffffffffffffffff1681526020019081526020016000206000610aec61185f565b73ffffffffffffffffffffffffffffffffffffffff1673ffffffffffffffffffffffffffffffffffffffff16815260200190815260200160002054905082811015610b6c576040517f08c379a0000000000000000000000000000000000000000000000000000000008152600401610b6390612e23565b60405180910390fd5b610b8085610b7861185f565b858403611867565b60019150509392505050565b60006012905090565b60007f0000000000000000000000000000000000000000000000000000000000000000905090565b6000610c5f610bca61185f565b848460016000610bd861185f565b73ffffffffffffffffffffffffffffffffffffffff1673ffffffffffffffffffffffffffffffffffffffff16815260200190815260200160002060008873ffffffffffffffffffffffffffffffffffffffff1673ffffffffffffffffffffffffffffffffffffffff16815260200190815260200160002054610c5a9190613054565b611867565b6001905092915050565b60007fffffffffffffffffffffffffffffffffffffffffffffffffffffffffffffffff9050919050565b6000610c9e82610819565b9050919050565b610cad611d6a565b73ffffffffffffffffffffffffffffffffffffffff163373ffffffffffffffffffffffffffffffffffffffff1614610d1a576040517f08c379a0000000000000000000000000000000000000000000000000000000008152600401610d1190612f63565b60405180910390fd5b610d2333611d9b565b565b6000610d3082610c69565b831115610d72576040517f08c379a0000000000000000000000000000000000000000000000000000000008152600401610d6990612da3565b60405180910390fd5b6000610d7c61185f565b90506000610d898561184d565b9050610db77f0000000000000000000000000000000000000000000000000000000000000000833088611e78565b610dc18482611f01565b8373ffffffffffffffffffffffffffffffffffffffff168273ffffffffffffffffffffffffffffffffffffffff167fdcbc1c05240f31ff3ad067ef1ee35ce4997762752e3a095284754544f4c709d78784604051610e20929190612fde565b60405180910390a3809250505092915050565b60008060008373ffffffffffffffffffffffffffffffffffffffff1673ffffffffffffffffffffffffffffffffffffffff168152602001908152602001600020549050919050565b610e836116a9565b610ec2576040517f08c379a0000000000000000000000000000000000000000000000000000000008152600401610eb990612d43565b60405180910390fd5b600560019054906101000a900460ff1680610eea5750600560009054906101000a900460ff16155b610f29576040517f08c379a0000000000000000000000000000000000000000000000000000000008152600401610f2090612e03565b60405180910390fd5b6000600560019054906101000a900460ff161590508015610f7b576001600560016101000a81548160ff0219169083151502179055506001600560006101000a81548160ff0219169083151502179055505b610f83610b95565b73ffffffffffffffffffffffffffffffffffffffff1663f51b0fd46040518163ffffffff1660e01b8152600401600060405180830381600087803b158015610fca57600080fd5b505af1158015610fde573d6000803e3d6000fd5b505050508015611004576000600560016101000a81548160ff0219169083151502179055505b50565b600061101282611560565b831115611054576040517f08c379a000000000000000000000000000000000000000000000000000000000815260040161104b90612f43565b60405180910390fd5b600061105e61185f565b9050600061106b8561125b565b90506110997f0000000000000000000000000000000000000000000000000000000000000000833084611e78565b6110a38486611f01565b8373ffffffffffffffffffffffffffffffffffffffff168273ffffffffffffffffffffffffffffffffffffffff167fdcbc1c05240f31ff3ad067ef1ee35ce4997762752e3a095284754544f4c709d78388604051611102929190612fde565b60405180910390a3809250505092915050565b60606040518060400160405280600581526020017f574f555344000000000000000000000000000000000000000000000000000000815250905090565b6000806001600061116161185f565b73ffffffffffffffffffffffffffffffffffffffff1673ffffffffffffffffffffffffffffffffffffffff16815260200190815260200160002060008573ffffffffffffffffffffffffffffffffffffffff1673ffffffffffffffffffffffffffffffffffffffff1681526020019081526020016000205490508281101561121e576040517f08c379a000000000000000000000000000000000000000000000000000000000815260040161121590612f83565b60405180910390fd5b61123261122961185f565b85858403611867565b600191505092915050565b600061125161124a61185f565b8484611ae9565b6001905092915050565b60008061126783610819565b9050826112738261158a565b1061127f576000611282565b60015b60ff16816112909190613054565b915050919050565b60006112a3826116e6565b8411156112e5576040517f08c379a00000000000000000000000000000000000000000000000000000000081526004016112dc90612f03565b60405180910390fd5b60006112ef61185f565b905060006112fc8661094b565b90508373ffffffffffffffffffffffffffffffffffffffff168273ffffffffffffffffffffffffffffffffffffffff161461133d5761133c848383612061565b5b61134784826120ed565b6113727f00000000000000000000000000000000000000000000000000000000000000008688611a63565b8373ffffffffffffffffffffffffffffffffffffffff168573ffffffffffffffffffffffffffffffffffffffff168373ffffffffffffffffffffffffffffffffffffffff167ffbde797d201c681b91056529119e0b02407c7bb96a4a2c75c01fc9667232c8db89856040516113e8929190612fde565b60405180910390a480925050509392505050565b6000611407826117b4565b841115611449576040517f08c379a000000000000000000000000000000000000000000000000000000000815260040161144090612e43565b60405180910390fd5b600061145361185f565b9050600061146086610c93565b90508373ffffffffffffffffffffffffffffffffffffffff168273ffffffffffffffffffffffffffffffffffffffff16146114a1576114a0848388612061565b5b6114ab84876120ed565b6114d67f00000000000000000000000000000000000000000000000000000000000000008683611a63565b8373ffffffffffffffffffffffffffffffffffffffff168573ffffffffffffffffffffffffffffffffffffffff168373ffffffffffffffffffffffffffffffffffffffff167ffbde797d201c681b91056529119e0b02407c7bb96a4a2c75c01fc9667232c8db848a60405161154c929190612fde565b60405180910390a480925050509392505050565b60007fffffffffffffffffffffffffffffffffffffffffffffffffffffffffffffffff9050919050565b600080611595610a8a565b905060008314806115a65750600081145b6115cd576115b261072c565b81846115be919061324c565b6115c891906130aa565b6116a1565b7f000000000000000000000000000000000000000000000000000000000000000073ffffffffffffffffffffffffffffffffffffffff1663313ce5676040518163ffffffff1660e01b815260040160206040518083038186803b15801561163357600080fd5b505afa158015611647573d6000803e3d6000fd5b505050506040513d601f19601f8201168201806040525081019061166b919061281c565b600a611677919061312e565b61167f610b8c565b600a61168b919061312e565b84611696919061324c565b6116a091906130aa565b5b915050919050565b60006116b3611a32565b73ffffffffffffffffffffffffffffffffffffffff163373ffffffffffffffffffffffffffffffffffffffff1614905090565b60006116f96116f483610e33565b610819565b9050919050565b6117086116a9565b611747576040517f08c379a000000000000000000000000000000000000000000000000000000000815260040161173e90612d43565b60405180910390fd5b611750816122c4565b8073ffffffffffffffffffffffffffffffffffffffff1661176f611a32565b73ffffffffffffffffffffffffffffffffffffffff167fa39cc5eb22d0f34d8beaefee8a3f17cc229c1a1d1ef87a5ad47313487b1c4f0d60405160405180910390a350565b60006117bf82610e33565b9050919050565b6000600160008473ffffffffffffffffffffffffffffffffffffffff1673ffffffffffffffffffffffffffffffffffffffff16815260200190815260200160002060008373ffffffffffffffffffffffffffffffffffffffff1673ffffffffffffffffffffffffffffffffffffffff16815260200190815260200160002054905092915050565b60006118588261158a565b9050919050565b600033905090565b600073ffffffffffffffffffffffffffffffffffffffff168373ffffffffffffffffffffffffffffffffffffffff1614156118d7576040517f08c379a00000000000000000000000000000000000000000000000000000000081526004016118ce90612ec3565b60405180910390fd5b600073ffffffffffffffffffffffffffffffffffffffff168273ffffffffffffffffffffffffffffffffffffffff161415611947576040517f08c379a000000000000000000000000000000000000000000000000000000000815260040161193e90612d23565b60405180910390fd5b80600160008573ffffffffffffffffffffffffffffffffffffffff1673ffffffffffffffffffffffffffffffffffffffff16815260200190815260200160002060008473ffffffffffffffffffffffffffffffffffffffff1673ffffffffffffffffffffffffffffffffffffffff168152602001908152602001600020819055508173ffffffffffffffffffffffffffffffffffffffff168373ffffffffffffffffffffffffffffffffffffffff167f8c5be1e5ebec7d5bd14f71427d1e84f3dd0314c0f7b2291e5b200ac8c7c3b92583604051611a259190612fc3565b60405180910390a3505050565b6000807f7bea13895fa79d2831e0a9e28edede30099005a50d652d8957cf8a607ee6ca4a60001b9050805491505090565b611ae48363a9059cbb60e01b8484604051602401611a82929190612c7d565b604051602081830303815290604052907bffffffffffffffffffffffffffffffffffffffffffffffffffffffff19166020820180517bffffffffffffffffffffffffffffffffffffffffffffffffffffffff83818316178352505050506122f3565b505050565b600073ffffffffffffffffffffffffffffffffffffffff168373ffffffffffffffffffffffffffffffffffffffff161415611b59576040517f08c379a0000000000000000000000000000000000000000000000000000000008152600401611b5090612e83565b60405180910390fd5b600073ffffffffffffffffffffffffffffffffffffffff168273ffffffffffffffffffffffffffffffffffffffff161415611bc9576040517f08c379a0000000000000000000000000000000000000000000000000000000008152600401611bc090612ce3565b60405180910390fd5b611bd48383836123ba565b60008060008573ffffffffffffffffffffffffffffffffffffffff1673ffffffffffffffffffffffffffffffffffffffff16815260200190815260200160002054905081811015611c5a576040517f08c379a0000000000000000000000000000000000000000000000000000000008152600401611c5190612d83565b60405180910390fd5b8181036000808673ffffffffffffffffffffffffffffffffffffffff1673ffffffffffffffffffffffffffffffffffffffff16815260200190815260200160002081905550816000808573ffffffffffffffffffffffffffffffffffffffff1673ffffffffffffffffffffffffffffffffffffffff1681526020019081526020016000206000828254611ced9190613054565b925050819055508273ffffffffffffffffffffffffffffffffffffffff168473ffffffffffffffffffffffffffffffffffffffff167fddf252ad1be2c89b69c2b068fc378daa952ba7f163c4a11628f55a4df523b3ef84604051611d519190612fc3565b60405180910390a3611d648484846123bf565b50505050565b6000807f44c4d30b2eaad5130ad70c3ba6972730566f3e6359ab83e800d905c61b1c51db60001b9050805491505090565b600073ffffffffffffffffffffffffffffffffffffffff168173ffffffffffffffffffffffffffffffffffffffff161415611e0b576040517f08c379a0000000000000000000000000000000000000000000000000000000008152600401611e0290612de3565b60405180910390fd5b8073ffffffffffffffffffffffffffffffffffffffff16611e2a611a32565b73ffffffffffffffffffffffffffffffffffffffff167fc7c0c772add429241571afb3805861fb3cfa2af374534088b76cdb4325a87e9a60405160405180910390a3611e75816123c4565b50565b611efb846323b872dd60e01b858585604051602401611e9993929190612c46565b604051602081830303815290604052907bffffffffffffffffffffffffffffffffffffffffffffffffffffffff19166020820180517bffffffffffffffffffffffffffffffffffffffffffffffffffffffff83818316178352505050506122f3565b50505050565b600073ffffffffffffffffffffffffffffffffffffffff168273ffffffffffffffffffffffffffffffffffffffff161415611f71576040517f08c379a0000000000000000000000000000000000000000000000000000000008152600401611f6890612fa3565b60405180910390fd5b611f7d600083836123ba565b8060026000828254611f8f9190613054565b92505081905550806000808473ffffffffffffffffffffffffffffffffffffffff1673ffffffffffffffffffffffffffffffffffffffff1681526020019081526020016000206000828254611fe49190613054565b925050819055508173ffffffffffffffffffffffffffffffffffffffff16600073ffffffffffffffffffffffffffffffffffffffff167fddf252ad1be2c89b69c2b068fc378daa952ba7f163c4a11628f55a4df523b3ef836040516120499190612fc3565b60405180910390a361205d600083836123bf565b5050565b600061206d84846117c6565b90507fffffffffffffffffffffffffffffffffffffffffffffffffffffffffffffffff81146120e757818110156120d9576040517f08c379a00000000000000000000000000000000000000000000000000000000081526004016120d090612d63565b60405180910390fd5b6120e68484848403611867565b5b50505050565b600073ffffffffffffffffffffffffffffffffffffffff168273ffffffffffffffffffffffffffffffffffffffff16141561215d576040517f08c379a000000000000000000000000000000000000000000000000000000000815260040161215490612e63565b60405180910390fd5b612169826000836123ba565b60008060008473ffffffffffffffffffffffffffffffffffffffff1673ffffffffffffffffffffffffffffffffffffffff168152602001908152602001600020549050818110156121ef576040517f08c379a00000000000000000000000000000000000000000000000000000000081526004016121e690612d03565b60405180910390fd5b8181036000808573ffffffffffffffffffffffffffffffffffffffff1673ffffffffffffffffffffffffffffffffffffffff16815260200190815260200160002081905550816002600082825461224691906132a6565b92505081905550600073ffffffffffffffffffffffffffffffffffffffff168373ffffffffffffffffffffffffffffffffffffffff167fddf252ad1be2c89b69c2b068fc378daa952ba7f163c4a11628f55a4df523b3ef846040516122ab9190612fc3565b60405180910390a36122bf836000846123bf565b505050565b60007f44c4d30b2eaad5130ad70c3ba6972730566f3e6359ab83e800d905c61b1c51db60001b90508181555050565b6000612355826040518060400160405280602081526020017f5361666545524332303a206c6f772d6c6576656c2063616c6c206661696c65648152508573ffffffffffffffffffffffffffffffffffffffff166123f39092919063ffffffff16565b90506000815111156123b557808060200190518101906123759190612702565b6123b4576040517f08c379a00000000000000000000000000000000000000000000000000000000081526004016123ab90612f23565b60405180910390fd5b5b505050565b505050565b505050565b60007f7bea13895fa79d2831e0a9e28edede30099005a50d652d8957cf8a607ee6ca4a60001b90508181555050565b6060612402848460008561240b565b90509392505050565b606082471015612450576040517f08c379a000000000000000000000000000000000000000000000000000000000815260040161244790612dc3565b60405180910390fd5b6124598561251f565b612498576040517f08c379a000000000000000000000000000000000000000000000000000000000815260040161248f90612ee3565b60405180910390fd5b6000808673ffffffffffffffffffffffffffffffffffffffff1685876040516124c19190612c14565b60006040518083038185875af1925050503d80600081146124fe576040519150601f19603f3d011682016040523d82523d6000602084013e612503565b606091505b5091509150612513828286612532565b92505050949350505050565b600080823b905060008111915050919050565b6060831561254257829050612592565b6000835111156125555782518084602001fd5b816040517f08c379a00000000000000000000000000000000000000000000000000000000081526004016125899190612cc1565b60405180910390fd5b9392505050565b6000813590506125a881613980565b92915050565b6000815190506125bd81613997565b92915050565b6000813590506125d2816139ae565b92915050565b6000815190506125e7816139ae565b92915050565b6000815190506125fc816139c5565b92915050565b600060208284031215612618576126176133c0565b5b600061262684828501612599565b91505092915050565b60008060408385031215612646576126456133c0565b5b600061265485828601612599565b925050602061266585828601612599565b9150509250929050565b600080600060608486031215612688576126876133c0565b5b600061269686828701612599565b93505060206126a786828701612599565b92505060406126b8868287016125c3565b9150509250925092565b600080604083850312156126d9576126d86133c0565b5b60006126e785828601612599565b92505060206126f8858286016125c3565b9150509250929050565b600060208284031215612718576127176133c0565b5b6000612726848285016125ae565b91505092915050565b600060208284031215612745576127446133c0565b5b6000612753848285016125c3565b91505092915050565b600060208284031215612772576127716133c0565b5b6000612780848285016125d8565b91505092915050565b600080604083850312156127a05761279f6133c0565b5b60006127ae858286016125c3565b92505060206127bf85828601612599565b9150509250929050565b6000806000606084860312156127e2576127e16133c0565b5b60006127f0868287016125c3565b935050602061280186828701612599565b925050604061281286828701612599565b9150509250925092565b600060208284031215612832576128316133c0565b5b6000612840848285016125ed565b91505092915050565b612852816132da565b82525050565b612861816132ec565b82525050565b600061287282613022565b61287c8185613038565b935061288c81856020860161332f565b80840191505092915050565b60006128a38261302d565b6128ad8185613043565b93506128bd81856020860161332f565b6128c6816133c5565b840191505092915050565b60006128de602383613043565b91506128e9826133e3565b604082019050919050565b6000612901602283613043565b915061290c82613432565b604082019050919050565b6000612924602283613043565b915061292f82613481565b604082019050919050565b6000612947601a83613043565b9150612952826134d0565b602082019050919050565b600061296a601d83613043565b9150612975826134f9565b602082019050919050565b600061298d602683613043565b915061299882613522565b604082019050919050565b60006129b0601e83613043565b91506129bb82613571565b602082019050919050565b60006129d3602683613043565b91506129de8261359a565b604082019050919050565b60006129f6601a83613043565b9150612a01826135e9565b602082019050919050565b6000612a19602e83613043565b9150612a2482613612565b604082019050919050565b6000612a3c602883613043565b9150612a4782613661565b604082019050919050565b6000612a5f601d83613043565b9150612a6a826136b0565b602082019050919050565b6000612a82602183613043565b9150612a8d826136d9565b604082019050919050565b6000612aa5602583613043565b9150612ab082613728565b604082019050919050565b6000612ac8601383613043565b9150612ad382613777565b602082019050919050565b6000612aeb602483613043565b9150612af6826137a0565b604082019050919050565b6000612b0e601d83613043565b9150612b19826137ef565b602082019050919050565b6000612b31601f83613043565b9150612b3c82613818565b602082019050919050565b6000612b54602a83613043565b9150612b5f82613841565b604082019050919050565b6000612b77601b83613043565b9150612b8282613890565b602082019050919050565b6000612b9a603083613043565b9150612ba5826138b9565b604082019050919050565b6000612bbd602583613043565b9150612bc882613908565b604082019050919050565b6000612be0601f83613043565b9150612beb82613957565b602082019050919050565b612bff81613318565b82525050565b612c0e81613322565b82525050565b6000612c208284612867565b915081905092915050565b6000602082019050612c406000830184612849565b92915050565b6000606082019050612c5b6000830186612849565b612c686020830185612849565b612c756040830184612bf6565b949350505050565b6000604082019050612c926000830185612849565b612c9f6020830184612bf6565b9392505050565b6000602082019050612cbb6000830184612858565b92915050565b60006020820190508181036000830152612cdb8184612898565b905092915050565b60006020820190508181036000830152612cfc816128d1565b9050919050565b60006020820190508181036000830152612d1c816128f4565b9050919050565b60006020820190508181036000830152612d3c81612917565b9050919050565b60006020820190508181036000830152612d5c8161293a565b9050919050565b60006020820190508181036000830152612d7c8161295d565b9050919050565b60006020820190508181036000830152612d9c81612980565b9050919050565b60006020820190508181036000830152612dbc816129a3565b9050919050565b60006020820190508181036000830152612ddc816129c6565b9050919050565b60006020820190508181036000830152612dfc816129e9565b9050919050565b60006020820190508181036000830152612e1c81612a0c565b9050919050565b60006020820190508181036000830152612e3c81612a2f565b9050919050565b60006020820190508181036000830152612e5c81612a52565b9050919050565b60006020820190508181036000830152612e7c81612a75565b9050919050565b60006020820190508181036000830152612e9c81612a98565b9050919050565b60006020820190508181036000830152612ebc81612abb565b9050919050565b60006020820190508181036000830152612edc81612ade565b9050919050565b60006020820190508181036000830152612efc81612b01565b9050919050565b60006020820190508181036000830152612f1c81612b24565b9050919050565b60006020820190508181036000830152612f3c81612b47565b9050919050565b60006020820190508181036000830152612f5c81612b6a565b9050919050565b60006020820190508181036000830152612f7c81612b8d565b9050919050565b60006020820190508181036000830152612f9c81612bb0565b9050919050565b60006020820190508181036000830152612fbc81612bd3565b9050919050565b6000602082019050612fd86000830184612bf6565b92915050565b6000604082019050612ff36000830185612bf6565b6130006020830184612bf6565b9392505050565b600060208201905061301c6000830184612c05565b92915050565b600081519050919050565b600081519050919050565b600081905092915050565b600082825260208201905092915050565b600061305f82613318565b915061306a83613318565b9250827fffffffffffffffffffffffffffffffffffffffffffffffffffffffffffffffff0382111561309f5761309e613362565b5b828201905092915050565b60006130b582613318565b91506130c083613318565b9250826130d0576130cf613391565b5b828204905092915050565b6000808291508390505b60018511156131255780860481111561310157613100613362565b5b60018516156131105780820291505b808102905061311e856133d6565b94506130e5565b94509492505050565b600061313982613318565b915061314483613322565b92506131717fffffffffffffffffffffffffffffffffffffffffffffffffffffffffffffffff8484613179565b905092915050565b6000826131895760019050613245565b816131975760009050613245565b81600181146131ad57600281146131b7576131e6565b6001915050613245565b60ff8411156131c9576131c8613362565b5b8360020a9150848211156131e0576131df613362565b5b50613245565b5060208310610133831016604e8410600b841016171561321b5782820a90508381111561321657613215613362565b5b613245565b61322884848460016130db565b9250905081840481111561323f5761323e613362565b5b81810290505b9392505050565b600061325782613318565b915061326283613318565b9250817fffffffffffffffffffffffffffffffffffffffffffffffffffffffffffffffff048311821515161561329b5761329a613362565b5b828202905092915050565b60006132b182613318565b91506132bc83613318565b9250828210156132cf576132ce613362565b5b828203905092915050565b60006132e5826132f8565b9050919050565b60008115159050919050565b600073ffffffffffffffffffffffffffffffffffffffff82169050919050565b6000819050919050565b600060ff82169050919050565b60005b8381101561334d578082015181840152602081019050613332565b8381111561335c576000848401525b50505050565b7f4e487b7100000000000000000000000000000000000000000000000000000000600052601160045260246000fd5b7f4e487b7100000000000000000000000000000000000000000000000000000000600052601260045260246000fd5b600080fd5b6000601f19601f8301169050919050565b60008160011c9050919050565b7f45524332303a207472616e7366657220746f20746865207a65726f206164647260008201527f6573730000000000000000000000000000000000000000000000000000000000602082015250565b7f45524332303a206275726e20616d6f756e7420657863656564732062616c616e60008201527f6365000000000000000000000000000000000000000000000000000000000000602082015250565b7f45524332303a20617070726f766520746f20746865207a65726f20616464726560008201527f7373000000000000000000000000000000000000000000000000000000000000602082015250565b7f43616c6c6572206973206e6f742074686520476f7665726e6f72000000000000600082015250565b7f45524332303a20696e73756666696369656e7420616c6c6f77616e6365000000600082015250565b7f45524332303a207472616e7366657220616d6f756e742065786365656473206260008201527f616c616e63650000000000000000000000000000000000000000000000000000602082015250565b7f455243343632363a206465706f736974206d6f7265207468656e206d61780000600082015250565b7f416464726573733a20696e73756666696369656e742062616c616e636520666f60008201527f722063616c6c0000000000000000000000000000000000000000000000000000602082015250565b7f4e657720476f7665726e6f722069732061646472657373283029000000000000600082015250565b7f496e697469616c697a61626c653a20636f6e747261637420697320616c72656160008201527f647920696e697469616c697a6564000000000000000000000000000000000000602082015250565b7f45524332303a207472616e7366657220616d6f756e742065786365656473206160008201527f6c6c6f77616e6365000000000000000000000000000000000000000000000000602082015250565b7f455243343632363a2072656465656d206d6f7265207468656e206d6178000000600082015250565b7f45524332303a206275726e2066726f6d20746865207a65726f2061646472657360008201527f7300000000000000000000000000000000000000000000000000000000000000602082015250565b7f45524332303a207472616e736665722066726f6d20746865207a65726f20616460008201527f6472657373000000000000000000000000000000000000000000000000000000602082015250565b7f43616e6e6f7420636f6c6c656374204f55534400000000000000000000000000600082015250565b7f45524332303a20617070726f76652066726f6d20746865207a65726f2061646460008201527f7265737300000000000000000000000000000000000000000000000000000000602082015250565b7f416464726573733a2063616c6c20746f206e6f6e2d636f6e7472616374000000600082015250565b7f455243343632363a207769746864726177206d6f7265207468656e206d617800600082015250565b7f5361666545524332303a204552433230206f7065726174696f6e20646964206e60008201527f6f74207375636365656400000000000000000000000000000000000000000000602082015250565b7f455243343632363a206d696e74206d6f7265207468656e206d61780000000000600082015250565b7f4f6e6c79207468652070656e64696e6720476f7665726e6f722063616e20636f60008201527f6d706c6574652074686520636c61696d00000000000000000000000000000000602082015250565b7f45524332303a2064656372656173656420616c6c6f77616e63652062656c6f7760008201527f207a65726f000000000000000000000000000000000000000000000000000000602082015250565b7f45524332303a206d696e7420746f20746865207a65726f206164647265737300600082015250565b613989816132da565b811461399457600080fd5b50565b6139a0816132ec565b81146139ab57600080fd5b50565b6139b781613318565b81146139c257600080fd5b50565b6139ce81613322565b81146139d957600080fd5b5056fea2646970667358221220de300d227dfd601513caecc9d92ace5af9bddce005384f5a498699dd03bc9e0a64736f6c63430008070033",
			"opcodes": "PUSH1 0xA0 PUSH1 0x40 MSTORE CALLVALUE DUP1 ISZERO PUSH3 0x11 JUMPI PUSH1 0x0 DUP1 REVERT JUMPDEST POP PUSH1 0x40 MLOAD PUSH3 0x3FB1 CODESIZE SUB DUP1 PUSH3 0x3FB1 DUP4 CODECOPY DUP2 DUP2 ADD PUSH1 0x40 MSTORE DUP2 ADD SWAP1 PUSH3 0x37 SWAP2 SWAP1 PUSH3 0x2CF JUMP JUMPDEST DUP3 DUP3 DUP3 DUP2 PUSH1 0x3 SWAP1 DUP1 MLOAD SWAP1 PUSH1 0x20 ADD SWAP1 PUSH3 0x52 SWAP3 SWAP2 SWAP1 PUSH3 0x18A JUMP JUMPDEST POP DUP1 PUSH1 0x4 SWAP1 DUP1 MLOAD SWAP1 PUSH1 0x20 ADD SWAP1 PUSH3 0x6B SWAP3 SWAP2 SWAP1 PUSH3 0x18A JUMP JUMPDEST POP POP POP DUP1 PUSH20 0xFFFFFFFFFFFFFFFFFFFFFFFFFFFFFFFFFFFFFFFF AND PUSH1 0x80 DUP2 PUSH20 0xFFFFFFFFFFFFFFFFFFFFFFFFFFFFFFFFFFFFFFFF AND PUSH1 0x60 SHL DUP2 MSTORE POP POP POP PUSH3 0xB7 CALLER PUSH3 0x12A PUSH1 0x20 SHL PUSH1 0x20 SHR JUMP JUMPDEST PUSH3 0xC7 PUSH3 0x159 PUSH1 0x20 SHL PUSH1 0x20 SHR JUMP JUMPDEST PUSH20 0xFFFFFFFFFFFFFFFFFFFFFFFFFFFFFFFFFFFFFFFF AND PUSH1 0x0 PUSH20 0xFFFFFFFFFFFFFFFFFFFFFFFFFFFFFFFFFFFFFFFF AND PUSH32 0xC7C0C772ADD429241571AFB3805861FB3CFA2AF374534088B76CDB4325A87E9A PUSH1 0x40 MLOAD PUSH1 0x40 MLOAD DUP1 SWAP2 SUB SWAP1 LOG3 POP POP POP PUSH3 0x54F JUMP JUMPDEST PUSH1 0x0 PUSH32 0x7BEA13895FA79D2831E0A9E28EDEDE30099005A50D652D8957CF8A607EE6CA4A PUSH1 0x0 SHL SWAP1 POP DUP2 DUP2 SSTORE POP POP JUMP JUMPDEST PUSH1 0x0 DUP1 PUSH32 0x7BEA13895FA79D2831E0A9E28EDEDE30099005A50D652D8957CF8A607EE6CA4A PUSH1 0x0 SHL SWAP1 POP DUP1 SLOAD SWAP2 POP POP SWAP1 JUMP JUMPDEST DUP3 DUP1 SLOAD PUSH3 0x198 SWAP1 PUSH3 0x446 JUMP JUMPDEST SWAP1 PUSH1 0x0 MSTORE PUSH1 0x20 PUSH1 0x0 KECCAK256 SWAP1 PUSH1 0x1F ADD PUSH1 0x20 SWAP1 DIV DUP2 ADD SWAP3 DUP3 PUSH3 0x1BC JUMPI PUSH1 0x0 DUP6 SSTORE PUSH3 0x208 JUMP JUMPDEST DUP3 PUSH1 0x1F LT PUSH3 0x1D7 JUMPI DUP1 MLOAD PUSH1 0xFF NOT AND DUP4 DUP1 ADD OR DUP6 SSTORE PUSH3 0x208 JUMP JUMPDEST DUP3 DUP1 ADD PUSH1 0x1 ADD DUP6 SSTORE DUP3 ISZERO PUSH3 0x208 JUMPI SWAP2 DUP3 ADD JUMPDEST DUP3 DUP2 GT ISZERO PUSH3 0x207 JUMPI DUP3 MLOAD DUP3 SSTORE SWAP2 PUSH1 0x20 ADD SWAP2 SWAP1 PUSH1 0x1 ADD SWAP1 PUSH3 0x1EA JUMP JUMPDEST JUMPDEST POP SWAP1 POP PUSH3 0x217 SWAP2 SWAP1 PUSH3 0x21B JUMP JUMPDEST POP SWAP1 JUMP JUMPDEST JUMPDEST DUP1 DUP3 GT ISZERO PUSH3 0x236 JUMPI PUSH1 0x0 DUP2 PUSH1 0x0 SWAP1 SSTORE POP PUSH1 0x1 ADD PUSH3 0x21C JUMP JUMPDEST POP SWAP1 JUMP JUMPDEST PUSH1 0x0 PUSH3 0x251 PUSH3 0x24B DUP5 PUSH3 0x392 JUMP JUMPDEST PUSH3 0x369 JUMP JUMPDEST SWAP1 POP DUP3 DUP2 MSTORE PUSH1 0x20 DUP2 ADD DUP5 DUP5 DUP5 ADD GT ISZERO PUSH3 0x270 JUMPI PUSH3 0x26F PUSH3 0x515 JUMP JUMPDEST JUMPDEST PUSH3 0x27D DUP5 DUP3 DUP6 PUSH3 0x410 JUMP JUMPDEST POP SWAP4 SWAP3 POP POP POP JUMP JUMPDEST PUSH1 0x0 DUP2 MLOAD SWAP1 POP PUSH3 0x296 DUP2 PUSH3 0x535 JUMP JUMPDEST SWAP3 SWAP2 POP POP JUMP JUMPDEST PUSH1 0x0 DUP3 PUSH1 0x1F DUP4 ADD SLT PUSH3 0x2B4 JUMPI PUSH3 0x2B3 PUSH3 0x510 JUMP JUMPDEST JUMPDEST DUP2 MLOAD PUSH3 0x2C6 DUP5 DUP3 PUSH1 0x20 DUP7 ADD PUSH3 0x23A JUMP JUMPDEST SWAP2 POP POP SWAP3 SWAP2 POP POP JUMP JUMPDEST PUSH1 0x0 DUP1 PUSH1 0x0 PUSH1 0x60 DUP5 DUP7 SUB SLT ISZERO PUSH3 0x2EB JUMPI PUSH3 0x2EA PUSH3 0x51F JUMP JUMPDEST JUMPDEST PUSH1 0x0 PUSH3 0x2FB DUP7 DUP3 DUP8 ADD PUSH3 0x285 JUMP JUMPDEST SWAP4 POP POP PUSH1 0x20 DUP5 ADD MLOAD PUSH8 0xFFFFFFFFFFFFFFFF DUP2 GT ISZERO PUSH3 0x31F JUMPI PUSH3 0x31E PUSH3 0x51A JUMP JUMPDEST JUMPDEST PUSH3 0x32D DUP7 DUP3 DUP8 ADD PUSH3 0x29C JUMP JUMPDEST SWAP3 POP POP PUSH1 0x40 DUP5 ADD MLOAD PUSH8 0xFFFFFFFFFFFFFFFF DUP2 GT ISZERO PUSH3 0x351 JUMPI PUSH3 0x350 PUSH3 0x51A JUMP JUMPDEST JUMPDEST PUSH3 0x35F DUP7 DUP3 DUP8 ADD PUSH3 0x29C JUMP JUMPDEST SWAP2 POP POP SWAP3 POP SWAP3 POP SWAP3 JUMP JUMPDEST PUSH1 0x0 PUSH3 0x375 PUSH3 0x388 JUMP JUMPDEST SWAP1 POP PUSH3 0x383 DUP3 DUP3 PUSH3 0x47C JUMP JUMPDEST SWAP2 SWAP1 POP JUMP JUMPDEST PUSH1 0x0 PUSH1 0x40 MLOAD SWAP1 POP SWAP1 JUMP JUMPDEST PUSH1 0x0 PUSH8 0xFFFFFFFFFFFFFFFF DUP3 GT ISZERO PUSH3 0x3B0 JUMPI PUSH3 0x3AF PUSH3 0x4E1 JUMP JUMPDEST JUMPDEST PUSH3 0x3BB DUP3 PUSH3 0x524 JUMP JUMPDEST SWAP1 POP PUSH1 0x20 DUP2 ADD SWAP1 POP SWAP2 SWAP1 POP JUMP JUMPDEST PUSH1 0x0 PUSH3 0x3D5 DUP3 PUSH3 0x3F0 JUMP JUMPDEST SWAP1 POP SWAP2 SWAP1 POP JUMP JUMPDEST PUSH1 0x0 PUSH3 0x3E9 DUP3 PUSH3 0x3C8 JUMP JUMPDEST SWAP1 POP SWAP2 SWAP1 POP JUMP JUMPDEST PUSH1 0x0 PUSH20 0xFFFFFFFFFFFFFFFFFFFFFFFFFFFFFFFFFFFFFFFF DUP3 AND SWAP1 POP SWAP2 SWAP1 POP JUMP JUMPDEST PUSH1 0x0 JUMPDEST DUP4 DUP2 LT ISZERO PUSH3 0x430 JUMPI DUP1 DUP3 ADD MLOAD DUP2 DUP5 ADD MSTORE PUSH1 0x20 DUP2 ADD SWAP1 POP PUSH3 0x413 JUMP JUMPDEST DUP4 DUP2 GT ISZERO PUSH3 0x440 JUMPI PUSH1 0x0 DUP5 DUP5 ADD MSTORE JUMPDEST POP POP POP POP JUMP JUMPDEST PUSH1 0x0 PUSH1 0x2 DUP3 DIV SWAP1 POP PUSH1 0x1 DUP3 AND DUP1 PUSH3 0x45F JUMPI PUSH1 0x7F DUP3 AND SWAP2 POP JUMPDEST PUSH1 0x20 DUP3 LT DUP2 EQ ISZERO PUSH3 0x476 JUMPI PUSH3 0x475 PUSH3 0x4B2 JUMP JUMPDEST JUMPDEST POP SWAP2 SWAP1 POP JUMP JUMPDEST PUSH3 0x487 DUP3 PUSH3 0x524 JUMP JUMPDEST DUP2 ADD DUP2 DUP2 LT PUSH8 0xFFFFFFFFFFFFFFFF DUP3 GT OR ISZERO PUSH3 0x4A9 JUMPI PUSH3 0x4A8 PUSH3 0x4E1 JUMP JUMPDEST JUMPDEST DUP1 PUSH1 0x40 MSTORE POP POP POP JUMP JUMPDEST PUSH32 0x4E487B7100000000000000000000000000000000000000000000000000000000 PUSH1 0x0 MSTORE PUSH1 0x22 PUSH1 0x4 MSTORE PUSH1 0x24 PUSH1 0x0 REVERT JUMPDEST PUSH32 0x4E487B7100000000000000000000000000000000000000000000000000000000 PUSH1 0x0 MSTORE PUSH1 0x41 PUSH1 0x4 MSTORE PUSH1 0x24 PUSH1 0x0 REVERT JUMPDEST PUSH1 0x0 DUP1 REVERT JUMPDEST PUSH1 0x0 DUP1 REVERT JUMPDEST PUSH1 0x0 DUP1 REVERT JUMPDEST PUSH1 0x0 DUP1 REVERT JUMPDEST PUSH1 0x0 PUSH1 0x1F NOT PUSH1 0x1F DUP4 ADD AND SWAP1 POP SWAP2 SWAP1 POP JUMP JUMPDEST PUSH3 0x540 DUP2 PUSH3 0x3DC JUMP JUMPDEST DUP2 EQ PUSH3 0x54C JUMPI PUSH1 0x0 DUP1 REVERT JUMPDEST POP JUMP JUMPDEST PUSH1 0x80 MLOAD PUSH1 0x60 SHR PUSH2 0x3A12 PUSH3 0x59F PUSH1 0x0 CODECOPY PUSH1 0x0 DUP2 DUP2 PUSH2 0x730 ADD MSTORE DUP2 DUP2 PUSH2 0x867 ADD MSTORE DUP2 DUP2 PUSH2 0xB99 ADD MSTORE DUP2 DUP2 PUSH2 0xD90 ADD MSTORE DUP2 DUP2 PUSH2 0x1072 ADD MSTORE DUP2 DUP2 PUSH2 0x134C ADD MSTORE DUP2 DUP2 PUSH2 0x14B0 ADD MSTORE PUSH2 0x15CF ADD MSTORE PUSH2 0x3A12 PUSH1 0x0 RETURN INVALID PUSH1 0x80 PUSH1 0x40 MSTORE CALLVALUE DUP1 ISZERO PUSH2 0x10 JUMPI PUSH1 0x0 DUP1 REVERT JUMPDEST POP PUSH1 0x4 CALLDATASIZE LT PUSH2 0x1FB JUMPI PUSH1 0x0 CALLDATALOAD PUSH1 0xE0 SHR DUP1 PUSH4 0x70A08231 GT PUSH2 0x11A JUMPI DUP1 PUSH4 0xBA087652 GT PUSH2 0xAD JUMPI DUP1 PUSH4 0xCE96CB77 GT PUSH2 0x7C JUMPI DUP1 PUSH4 0xCE96CB77 EQ PUSH2 0x650 JUMPI DUP1 PUSH4 0xD38BFFF4 EQ PUSH2 0x680 JUMPI DUP1 PUSH4 0xD905777E EQ PUSH2 0x69C JUMPI DUP1 PUSH4 0xDD62ED3E EQ PUSH2 0x6CC JUMPI DUP1 PUSH4 0xEF8B30F7 EQ PUSH2 0x6FC JUMPI PUSH2 0x1FB JUMP JUMPDEST DUP1 PUSH4 0xBA087652 EQ PUSH2 0x5A2 JUMPI DUP1 PUSH4 0xC63D75B6 EQ PUSH2 0x5D2 JUMPI DUP1 PUSH4 0xC6E6F592 EQ PUSH2 0x602 JUMPI DUP1 PUSH4 0xC7AF3352 EQ PUSH2 0x632 JUMPI PUSH2 0x1FB JUMP JUMPDEST DUP1 PUSH4 0xA457C2D7 GT PUSH2 0xE9 JUMPI DUP1 PUSH4 0xA457C2D7 EQ PUSH2 0x4E2 JUMPI DUP1 PUSH4 0xA9059CBB EQ PUSH2 0x512 JUMPI DUP1 PUSH4 0xB3D7F6B9 EQ PUSH2 0x542 JUMPI DUP1 PUSH4 0xB460AF94 EQ PUSH2 0x572 JUMPI PUSH2 0x1FB JUMP JUMPDEST DUP1 PUSH4 0x70A08231 EQ PUSH2 0x45A JUMPI DUP1 PUSH4 0x8129FC1C EQ PUSH2 0x48A JUMPI DUP1 PUSH4 0x94BF804D EQ PUSH2 0x494 JUMPI DUP1 PUSH4 0x95D89B41 EQ PUSH2 0x4C4 JUMPI PUSH2 0x1FB JUMP JUMPDEST DUP1 PUSH4 0x23B872DD GT PUSH2 0x192 JUMPI DUP1 PUSH4 0x402D267D GT PUSH2 0x161 JUMPI DUP1 PUSH4 0x402D267D EQ PUSH2 0x3C0 JUMPI DUP1 PUSH4 0x4CDAD506 EQ PUSH2 0x3F0 JUMPI DUP1 PUSH4 0x5D36B190 EQ PUSH2 0x420 JUMPI DUP1 PUSH4 0x6E553F65 EQ PUSH2 0x42A JUMPI PUSH2 0x1FB JUMP JUMPDEST DUP1 PUSH4 0x23B872DD EQ PUSH2 0x324 JUMPI DUP1 PUSH4 0x313CE567 EQ PUSH2 0x354 JUMPI DUP1 PUSH4 0x38D52E0F EQ PUSH2 0x372 JUMPI DUP1 PUSH4 0x39509351 EQ PUSH2 0x390 JUMPI PUSH2 0x1FB JUMP JUMPDEST DUP1 PUSH4 0xA28A477 GT PUSH2 0x1CE JUMPI DUP1 PUSH4 0xA28A477 EQ PUSH2 0x29C JUMPI DUP1 PUSH4 0xC340A24 EQ PUSH2 0x2CC JUMPI DUP1 PUSH4 0x1072CBEA EQ PUSH2 0x2EA JUMPI DUP1 PUSH4 0x18160DDD EQ PUSH2 0x306 JUMPI PUSH2 0x1FB JUMP JUMPDEST DUP1 PUSH4 0x1E1D114 EQ PUSH2 0x200 JUMPI DUP1 PUSH4 0x6FDDE03 EQ PUSH2 0x21E JUMPI DUP1 PUSH4 0x7A2D13A EQ PUSH2 0x23C JUMPI DUP1 PUSH4 0x95EA7B3 EQ PUSH2 0x26C JUMPI JUMPDEST PUSH1 0x0 DUP1 REVERT JUMPDEST PUSH2 0x208 PUSH2 0x72C JUMP JUMPDEST PUSH1 0x40 MLOAD PUSH2 0x215 SWAP2 SWAP1 PUSH2 0x2FC3 JUMP JUMPDEST PUSH1 0x40 MLOAD DUP1 SWAP2 SUB SWAP1 RETURN JUMPDEST PUSH2 0x226 PUSH2 0x7DC JUMP JUMPDEST PUSH1 0x40 MLOAD PUSH2 0x233 SWAP2 SWAP1 PUSH2 0x2CC1 JUMP JUMPDEST PUSH1 0x40 MLOAD DUP1 SWAP2 SUB SWAP1 RETURN JUMPDEST PUSH2 0x256 PUSH1 0x4 DUP1 CALLDATASIZE SUB DUP2 ADD SWAP1 PUSH2 0x251 SWAP2 SWAP1 PUSH2 0x272F JUMP JUMPDEST PUSH2 0x819 JUMP JUMPDEST PUSH1 0x40 MLOAD PUSH2 0x263 SWAP2 SWAP1 PUSH2 0x2FC3 JUMP JUMPDEST PUSH1 0x40 MLOAD DUP1 SWAP2 SUB SWAP1 RETURN JUMPDEST PUSH2 0x286 PUSH1 0x4 DUP1 CALLDATASIZE SUB DUP2 ADD SWAP1 PUSH2 0x281 SWAP2 SWAP1 PUSH2 0x26C2 JUMP JUMPDEST PUSH2 0x92D JUMP JUMPDEST PUSH1 0x40 MLOAD PUSH2 0x293 SWAP2 SWAP1 PUSH2 0x2CA6 JUMP JUMPDEST PUSH1 0x40 MLOAD DUP1 SWAP2 SUB SWAP1 RETURN JUMPDEST PUSH2 0x2B6 PUSH1 0x4 DUP1 CALLDATASIZE SUB DUP2 ADD SWAP1 PUSH2 0x2B1 SWAP2 SWAP1 PUSH2 0x272F JUMP JUMPDEST PUSH2 0x94B JUMP JUMPDEST PUSH1 0x40 MLOAD PUSH2 0x2C3 SWAP2 SWAP1 PUSH2 0x2FC3 JUMP JUMPDEST PUSH1 0x40 MLOAD DUP1 SWAP2 SUB SWAP1 RETURN JUMPDEST PUSH2 0x2D4 PUSH2 0x988 JUMP JUMPDEST PUSH1 0x40 MLOAD PUSH2 0x2E1 SWAP2 SWAP1 PUSH2 0x2C2B JUMP JUMPDEST PUSH1 0x40 MLOAD DUP1 SWAP2 SUB SWAP1 RETURN JUMPDEST PUSH2 0x304 PUSH1 0x4 DUP1 CALLDATASIZE SUB DUP2 ADD SWAP1 PUSH2 0x2FF SWAP2 SWAP1 PUSH2 0x26C2 JUMP JUMPDEST PUSH2 0x997 JUMP JUMPDEST STOP JUMPDEST PUSH2 0x30E PUSH2 0xA8A JUMP JUMPDEST PUSH1 0x40 MLOAD PUSH2 0x31B SWAP2 SWAP1 PUSH2 0x2FC3 JUMP JUMPDEST PUSH1 0x40 MLOAD DUP1 SWAP2 SUB SWAP1 RETURN JUMPDEST PUSH2 0x33E PUSH1 0x4 DUP1 CALLDATASIZE SUB DUP2 ADD SWAP1 PUSH2 0x339 SWAP2 SWAP1 PUSH2 0x266F JUMP JUMPDEST PUSH2 0xA94 JUMP JUMPDEST PUSH1 0x40 MLOAD PUSH2 0x34B SWAP2 SWAP1 PUSH2 0x2CA6 JUMP JUMPDEST PUSH1 0x40 MLOAD DUP1 SWAP2 SUB SWAP1 RETURN JUMPDEST PUSH2 0x35C PUSH2 0xB8C JUMP JUMPDEST PUSH1 0x40 MLOAD PUSH2 0x369 SWAP2 SWAP1 PUSH2 0x3007 JUMP JUMPDEST PUSH1 0x40 MLOAD DUP1 SWAP2 SUB SWAP1 RETURN JUMPDEST PUSH2 0x37A PUSH2 0xB95 JUMP JUMPDEST PUSH1 0x40 MLOAD PUSH2 0x387 SWAP2 SWAP1 PUSH2 0x2C2B JUMP JUMPDEST PUSH1 0x40 MLOAD DUP1 SWAP2 SUB SWAP1 RETURN JUMPDEST PUSH2 0x3AA PUSH1 0x4 DUP1 CALLDATASIZE SUB DUP2 ADD SWAP1 PUSH2 0x3A5 SWAP2 SWAP1 PUSH2 0x26C2 JUMP JUMPDEST PUSH2 0xBBD JUMP JUMPDEST PUSH1 0x40 MLOAD PUSH2 0x3B7 SWAP2 SWAP1 PUSH2 0x2CA6 JUMP JUMPDEST PUSH1 0x40 MLOAD DUP1 SWAP2 SUB SWAP1 RETURN JUMPDEST PUSH2 0x3DA PUSH1 0x4 DUP1 CALLDATASIZE SUB DUP2 ADD SWAP1 PUSH2 0x3D5 SWAP2 SWAP1 PUSH2 0x2602 JUMP JUMPDEST PUSH2 0xC69 JUMP JUMPDEST PUSH1 0x40 MLOAD PUSH2 0x3E7 SWAP2 SWAP1 PUSH2 0x2FC3 JUMP JUMPDEST PUSH1 0x40 MLOAD DUP1 SWAP2 SUB SWAP1 RETURN JUMPDEST PUSH2 0x40A PUSH1 0x4 DUP1 CALLDATASIZE SUB DUP2 ADD SWAP1 PUSH2 0x405 SWAP2 SWAP1 PUSH2 0x272F JUMP JUMPDEST PUSH2 0xC93 JUMP JUMPDEST PUSH1 0x40 MLOAD PUSH2 0x417 SWAP2 SWAP1 PUSH2 0x2FC3 JUMP JUMPDEST PUSH1 0x40 MLOAD DUP1 SWAP2 SUB SWAP1 RETURN JUMPDEST PUSH2 0x428 PUSH2 0xCA5 JUMP JUMPDEST STOP JUMPDEST PUSH2 0x444 PUSH1 0x4 DUP1 CALLDATASIZE SUB DUP2 ADD SWAP1 PUSH2 0x43F SWAP2 SWAP1 PUSH2 0x2789 JUMP JUMPDEST PUSH2 0xD25 JUMP JUMPDEST PUSH1 0x40 MLOAD PUSH2 0x451 SWAP2 SWAP1 PUSH2 0x2FC3 JUMP JUMPDEST PUSH1 0x40 MLOAD DUP1 SWAP2 SUB SWAP1 RETURN JUMPDEST PUSH2 0x474 PUSH1 0x4 DUP1 CALLDATASIZE SUB DUP2 ADD SWAP1 PUSH2 0x46F SWAP2 SWAP1 PUSH2 0x2602 JUMP JUMPDEST PUSH2 0xE33 JUMP JUMPDEST PUSH1 0x40 MLOAD PUSH2 0x481 SWAP2 SWAP1 PUSH2 0x2FC3 JUMP JUMPDEST PUSH1 0x40 MLOAD DUP1 SWAP2 SUB SWAP1 RETURN JUMPDEST PUSH2 0x492 PUSH2 0xE7B JUMP JUMPDEST STOP JUMPDEST PUSH2 0x4AE PUSH1 0x4 DUP1 CALLDATASIZE SUB DUP2 ADD SWAP1 PUSH2 0x4A9 SWAP2 SWAP1 PUSH2 0x2789 JUMP JUMPDEST PUSH2 0x1007 JUMP JUMPDEST PUSH1 0x40 MLOAD PUSH2 0x4BB SWAP2 SWAP1 PUSH2 0x2FC3 JUMP JUMPDEST PUSH1 0x40 MLOAD DUP1 SWAP2 SUB SWAP1 RETURN JUMPDEST PUSH2 0x4CC PUSH2 0x1115 JUMP JUMPDEST PUSH1 0x40 MLOAD PUSH2 0x4D9 SWAP2 SWAP1 PUSH2 0x2CC1 JUMP JUMPDEST PUSH1 0x40 MLOAD DUP1 SWAP2 SUB SWAP1 RETURN JUMPDEST PUSH2 0x4FC PUSH1 0x4 DUP1 CALLDATASIZE SUB DUP2 ADD SWAP1 PUSH2 0x4F7 SWAP2 SWAP1 PUSH2 0x26C2 JUMP JUMPDEST PUSH2 0x1152 JUMP JUMPDEST PUSH1 0x40 MLOAD PUSH2 0x509 SWAP2 SWAP1 PUSH2 0x2CA6 JUMP JUMPDEST PUSH1 0x40 MLOAD DUP1 SWAP2 SUB SWAP1 RETURN JUMPDEST PUSH2 0x52C PUSH1 0x4 DUP1 CALLDATASIZE SUB DUP2 ADD SWAP1 PUSH2 0x527 SWAP2 SWAP1 PUSH2 0x26C2 JUMP JUMPDEST PUSH2 0x123D JUMP JUMPDEST PUSH1 0x40 MLOAD PUSH2 0x539 SWAP2 SWAP1 PUSH2 0x2CA6 JUMP JUMPDEST PUSH1 0x40 MLOAD DUP1 SWAP2 SUB SWAP1 RETURN JUMPDEST PUSH2 0x55C PUSH1 0x4 DUP1 CALLDATASIZE SUB DUP2 ADD SWAP1 PUSH2 0x557 SWAP2 SWAP1 PUSH2 0x272F JUMP JUMPDEST PUSH2 0x125B JUMP JUMPDEST PUSH1 0x40 MLOAD PUSH2 0x569 SWAP2 SWAP1 PUSH2 0x2FC3 JUMP JUMPDEST PUSH1 0x40 MLOAD DUP1 SWAP2 SUB SWAP1 RETURN JUMPDEST PUSH2 0x58C PUSH1 0x4 DUP1 CALLDATASIZE SUB DUP2 ADD SWAP1 PUSH2 0x587 SWAP2 SWAP1 PUSH2 0x27C9 JUMP JUMPDEST PUSH2 0x1298 JUMP JUMPDEST PUSH1 0x40 MLOAD PUSH2 0x599 SWAP2 SWAP1 PUSH2 0x2FC3 JUMP JUMPDEST PUSH1 0x40 MLOAD DUP1 SWAP2 SUB SWAP1 RETURN JUMPDEST PUSH2 0x5BC PUSH1 0x4 DUP1 CALLDATASIZE SUB DUP2 ADD SWAP1 PUSH2 0x5B7 SWAP2 SWAP1 PUSH2 0x27C9 JUMP JUMPDEST PUSH2 0x13FC JUMP JUMPDEST PUSH1 0x40 MLOAD PUSH2 0x5C9 SWAP2 SWAP1 PUSH2 0x2FC3 JUMP JUMPDEST PUSH1 0x40 MLOAD DUP1 SWAP2 SUB SWAP1 RETURN JUMPDEST PUSH2 0x5EC PUSH1 0x4 DUP1 CALLDATASIZE SUB DUP2 ADD SWAP1 PUSH2 0x5E7 SWAP2 SWAP1 PUSH2 0x2602 JUMP JUMPDEST PUSH2 0x1560 JUMP JUMPDEST PUSH1 0x40 MLOAD PUSH2 0x5F9 SWAP2 SWAP1 PUSH2 0x2FC3 JUMP JUMPDEST PUSH1 0x40 MLOAD DUP1 SWAP2 SUB SWAP1 RETURN JUMPDEST PUSH2 0x61C PUSH1 0x4 DUP1 CALLDATASIZE SUB DUP2 ADD SWAP1 PUSH2 0x617 SWAP2 SWAP1 PUSH2 0x272F JUMP JUMPDEST PUSH2 0x158A JUMP JUMPDEST PUSH1 0x40 MLOAD PUSH2 0x629 SWAP2 SWAP1 PUSH2 0x2FC3 JUMP JUMPDEST PUSH1 0x40 MLOAD DUP1 SWAP2 SUB SWAP1 RETURN JUMPDEST PUSH2 0x63A PUSH2 0x16A9 JUMP JUMPDEST PUSH1 0x40 MLOAD PUSH2 0x647 SWAP2 SWAP1 PUSH2 0x2CA6 JUMP JUMPDEST PUSH1 0x40 MLOAD DUP1 SWAP2 SUB SWAP1 RETURN JUMPDEST PUSH2 0x66A PUSH1 0x4 DUP1 CALLDATASIZE SUB DUP2 ADD SWAP1 PUSH2 0x665 SWAP2 SWAP1 PUSH2 0x2602 JUMP JUMPDEST PUSH2 0x16E6 JUMP JUMPDEST PUSH1 0x40 MLOAD PUSH2 0x677 SWAP2 SWAP1 PUSH2 0x2FC3 JUMP JUMPDEST PUSH1 0x40 MLOAD DUP1 SWAP2 SUB SWAP1 RETURN JUMPDEST PUSH2 0x69A PUSH1 0x4 DUP1 CALLDATASIZE SUB DUP2 ADD SWAP1 PUSH2 0x695 SWAP2 SWAP1 PUSH2 0x2602 JUMP JUMPDEST PUSH2 0x1700 JUMP JUMPDEST STOP JUMPDEST PUSH2 0x6B6 PUSH1 0x4 DUP1 CALLDATASIZE SUB DUP2 ADD SWAP1 PUSH2 0x6B1 SWAP2 SWAP1 PUSH2 0x2602 JUMP JUMPDEST PUSH2 0x17B4 JUMP JUMPDEST PUSH1 0x40 MLOAD PUSH2 0x6C3 SWAP2 SWAP1 PUSH2 0x2FC3 JUMP JUMPDEST PUSH1 0x40 MLOAD DUP1 SWAP2 SUB SWAP1 RETURN JUMPDEST PUSH2 0x6E6 PUSH1 0x4 DUP1 CALLDATASIZE SUB DUP2 ADD SWAP1 PUSH2 0x6E1 SWAP2 SWAP1 PUSH2 0x262F JUMP JUMPDEST PUSH2 0x17C6 JUMP JUMPDEST PUSH1 0x40 MLOAD PUSH2 0x6F3 SWAP2 SWAP1 PUSH2 0x2FC3 JUMP JUMPDEST PUSH1 0x40 MLOAD DUP1 SWAP2 SUB SWAP1 RETURN JUMPDEST PUSH2 0x716 PUSH1 0x4 DUP1 CALLDATASIZE SUB DUP2 ADD SWAP1 PUSH2 0x711 SWAP2 SWAP1 PUSH2 0x272F JUMP JUMPDEST PUSH2 0x184D JUMP JUMPDEST PUSH1 0x40 MLOAD PUSH2 0x723 SWAP2 SWAP1 PUSH2 0x2FC3 JUMP JUMPDEST PUSH1 0x40 MLOAD DUP1 SWAP2 SUB SWAP1 RETURN JUMPDEST PUSH1 0x0 PUSH32 0x0 PUSH20 0xFFFFFFFFFFFFFFFFFFFFFFFFFFFFFFFFFFFFFFFF AND PUSH4 0x70A08231 ADDRESS PUSH1 0x40 MLOAD DUP3 PUSH4 0xFFFFFFFF AND PUSH1 0xE0 SHL DUP2 MSTORE PUSH1 0x4 ADD PUSH2 0x787 SWAP2 SWAP1 PUSH2 0x2C2B JUMP JUMPDEST PUSH1 0x20 PUSH1 0x40 MLOAD DUP1 DUP4 SUB DUP2 DUP7 DUP1 EXTCODESIZE ISZERO DUP1 ISZERO PUSH2 0x79F JUMPI PUSH1 0x0 DUP1 REVERT JUMPDEST POP GAS STATICCALL ISZERO DUP1 ISZERO PUSH2 0x7B3 JUMPI RETURNDATASIZE PUSH1 0x0 DUP1 RETURNDATACOPY RETURNDATASIZE PUSH1 0x0 REVERT JUMPDEST POP POP POP POP PUSH1 0x40 MLOAD RETURNDATASIZE PUSH1 0x1F NOT PUSH1 0x1F DUP3 ADD AND DUP3 ADD DUP1 PUSH1 0x40 MSTORE POP DUP2 ADD SWAP1 PUSH2 0x7D7 SWAP2 SWAP1 PUSH2 0x275C JUMP JUMPDEST SWAP1 POP SWAP1 JUMP JUMPDEST PUSH1 0x60 PUSH1 0x40 MLOAD DUP1 PUSH1 0x40 ADD PUSH1 0x40 MSTORE DUP1 PUSH1 0xC DUP2 MSTORE PUSH1 0x20 ADD PUSH32 0x57726170706564204F5553440000000000000000000000000000000000000000 DUP2 MSTORE POP SWAP1 POP SWAP1 JUMP JUMPDEST PUSH1 0x0 DUP1 PUSH2 0x824 PUSH2 0xA8A JUMP JUMPDEST SWAP1 POP PUSH1 0x0 DUP2 EQ PUSH2 0x851 JUMPI DUP1 PUSH2 0x837 PUSH2 0x72C JUMP JUMPDEST DUP5 PUSH2 0x842 SWAP2 SWAP1 PUSH2 0x324C JUMP JUMPDEST PUSH2 0x84C SWAP2 SWAP1 PUSH2 0x30AA JUMP JUMPDEST PUSH2 0x925 JUMP JUMPDEST PUSH2 0x859 PUSH2 0xB8C JUMP JUMPDEST PUSH1 0xA PUSH2 0x865 SWAP2 SWAP1 PUSH2 0x312E JUMP JUMPDEST PUSH32 0x0 PUSH20 0xFFFFFFFFFFFFFFFFFFFFFFFFFFFFFFFFFFFFFFFF AND PUSH4 0x313CE567 PUSH1 0x40 MLOAD DUP2 PUSH4 0xFFFFFFFF AND PUSH1 0xE0 SHL DUP2 MSTORE PUSH1 0x4 ADD PUSH1 0x20 PUSH1 0x40 MLOAD DUP1 DUP4 SUB DUP2 DUP7 DUP1 EXTCODESIZE ISZERO DUP1 ISZERO PUSH2 0x8CB JUMPI PUSH1 0x0 DUP1 REVERT JUMPDEST POP GAS STATICCALL ISZERO DUP1 ISZERO PUSH2 0x8DF JUMPI RETURNDATASIZE PUSH1 0x0 DUP1 RETURNDATACOPY RETURNDATASIZE PUSH1 0x0 REVERT JUMPDEST POP POP POP POP PUSH1 0x40 MLOAD RETURNDATASIZE PUSH1 0x1F NOT PUSH1 0x1F DUP3 ADD AND DUP3 ADD DUP1 PUSH1 0x40 MSTORE POP DUP2 ADD SWAP1 PUSH2 0x903 SWAP2 SWAP1 PUSH2 0x281C JUMP JUMPDEST PUSH1 0xA PUSH2 0x90F SWAP2 SWAP1 PUSH2 0x312E JUMP JUMPDEST DUP5 PUSH2 0x91A SWAP2 SWAP1 PUSH2 0x324C JUMP JUMPDEST PUSH2 0x924 SWAP2 SWAP1 PUSH2 0x30AA JUMP JUMPDEST JUMPDEST SWAP2 POP POP SWAP2 SWAP1 POP JUMP JUMPDEST PUSH1 0x0 PUSH2 0x941 PUSH2 0x93A PUSH2 0x185F JUMP JUMPDEST DUP5 DUP5 PUSH2 0x1867 JUMP JUMPDEST PUSH1 0x1 SWAP1 POP SWAP3 SWAP2 POP POP JUMP JUMPDEST PUSH1 0x0 DUP1 PUSH2 0x957 DUP4 PUSH2 0x158A JUMP JUMPDEST SWAP1 POP DUP3 PUSH2 0x963 DUP3 PUSH2 0x819 JUMP JUMPDEST LT PUSH2 0x96F JUMPI PUSH1 0x0 PUSH2 0x972 JUMP JUMPDEST PUSH1 0x1 JUMPDEST PUSH1 0xFF AND DUP2 PUSH2 0x980 SWAP2 SWAP1 PUSH2 0x3054 JUMP JUMPDEST SWAP2 POP POP SWAP2 SWAP1 POP JUMP JUMPDEST PUSH1 0x0 PUSH2 0x992 PUSH2 0x1A32 JUMP JUMPDEST SWAP1 POP SWAP1 JUMP JUMPDEST PUSH2 0x99F PUSH2 0x16A9 JUMP JUMPDEST PUSH2 0x9DE JUMPI PUSH1 0x40 MLOAD PUSH32 0x8C379A000000000000000000000000000000000000000000000000000000000 DUP2 MSTORE PUSH1 0x4 ADD PUSH2 0x9D5 SWAP1 PUSH2 0x2D43 JUMP JUMPDEST PUSH1 0x40 MLOAD DUP1 SWAP2 SUB SWAP1 REVERT JUMPDEST PUSH2 0x9E6 PUSH2 0xB95 JUMP JUMPDEST PUSH20 0xFFFFFFFFFFFFFFFFFFFFFFFFFFFFFFFFFFFFFFFF AND DUP3 PUSH20 0xFFFFFFFFFFFFFFFFFFFFFFFFFFFFFFFFFFFFFFFF AND EQ ISZERO PUSH2 0xA54 JUMPI PUSH1 0x40 MLOAD PUSH32 0x8C379A000000000000000000000000000000000000000000000000000000000 DUP2 MSTORE PUSH1 0x4 ADD PUSH2 0xA4B SWAP1 PUSH2 0x2EA3 JUMP JUMPDEST PUSH1 0x40 MLOAD DUP1 SWAP2 SUB SWAP1 REVERT JUMPDEST PUSH2 0xA86 PUSH2 0xA5F PUSH2 0x988 JUMP JUMPDEST DUP3 DUP5 PUSH20 0xFFFFFFFFFFFFFFFFFFFFFFFFFFFFFFFFFFFFFFFF AND PUSH2 0x1A63 SWAP1 SWAP3 SWAP2 SWAP1 PUSH4 0xFFFFFFFF AND JUMP JUMPDEST POP POP JUMP JUMPDEST PUSH1 0x0 PUSH1 0x2 SLOAD SWAP1 POP SWAP1 JUMP JUMPDEST PUSH1 0x0 PUSH2 0xAA1 DUP5 DUP5 DUP5 PUSH2 0x1AE9 JUMP JUMPDEST PUSH1 0x0 PUSH1 0x1 PUSH1 0x0 DUP7 PUSH20 0xFFFFFFFFFFFFFFFFFFFFFFFFFFFFFFFFFFFFFFFF AND PUSH20 0xFFFFFFFFFFFFFFFFFFFFFFFFFFFFFFFFFFFFFFFF AND DUP2 MSTORE PUSH1 0x20 ADD SWAP1 DUP2 MSTORE PUSH1 0x20 ADD PUSH1 0x0 KECCAK256 PUSH1 0x0 PUSH2 0xAEC PUSH2 0x185F JUMP JUMPDEST PUSH20 0xFFFFFFFFFFFFFFFFFFFFFFFFFFFFFFFFFFFFFFFF AND PUSH20 0xFFFFFFFFFFFFFFFFFFFFFFFFFFFFFFFFFFFFFFFF AND DUP2 MSTORE PUSH1 0x20 ADD SWAP1 DUP2 MSTORE PUSH1 0x20 ADD PUSH1 0x0 KECCAK256 SLOAD SWAP1 POP DUP3 DUP2 LT ISZERO PUSH2 0xB6C JUMPI PUSH1 0x40 MLOAD PUSH32 0x8C379A000000000000000000000000000000000000000000000000000000000 DUP2 MSTORE PUSH1 0x4 ADD PUSH2 0xB63 SWAP1 PUSH2 0x2E23 JUMP JUMPDEST PUSH1 0x40 MLOAD DUP1 SWAP2 SUB SWAP1 REVERT JUMPDEST PUSH2 0xB80 DUP6 PUSH2 0xB78 PUSH2 0x185F JUMP JUMPDEST DUP6 DUP5 SUB PUSH2 0x1867 JUMP JUMPDEST PUSH1 0x1 SWAP2 POP POP SWAP4 SWAP3 POP POP POP JUMP JUMPDEST PUSH1 0x0 PUSH1 0x12 SWAP1 POP SWAP1 JUMP JUMPDEST PUSH1 0x0 PUSH32 0x0 SWAP1 POP SWAP1 JUMP JUMPDEST PUSH1 0x0 PUSH2 0xC5F PUSH2 0xBCA PUSH2 0x185F JUMP JUMPDEST DUP5 DUP5 PUSH1 0x1 PUSH1 0x0 PUSH2 0xBD8 PUSH2 0x185F JUMP JUMPDEST PUSH20 0xFFFFFFFFFFFFFFFFFFFFFFFFFFFFFFFFFFFFFFFF AND PUSH20 0xFFFFFFFFFFFFFFFFFFFFFFFFFFFFFFFFFFFFFFFF AND DUP2 MSTORE PUSH1 0x20 ADD SWAP1 DUP2 MSTORE PUSH1 0x20 ADD PUSH1 0x0 KECCAK256 PUSH1 0x0 DUP9 PUSH20 0xFFFFFFFFFFFFFFFFFFFFFFFFFFFFFFFFFFFFFFFF AND PUSH20 0xFFFFFFFFFFFFFFFFFFFFFFFFFFFFFFFFFFFFFFFF AND DUP2 MSTORE PUSH1 0x20 ADD SWAP1 DUP2 MSTORE PUSH1 0x20 ADD PUSH1 0x0 KECCAK256 SLOAD PUSH2 0xC5A SWAP2 SWAP1 PUSH2 0x3054 JUMP JUMPDEST PUSH2 0x1867 JUMP JUMPDEST PUSH1 0x1 SWAP1 POP SWAP3 SWAP2 POP POP JUMP JUMPDEST PUSH1 0x0 PUSH32 0xFFFFFFFFFFFFFFFFFFFFFFFFFFFFFFFFFFFFFFFFFFFFFFFFFFFFFFFFFFFFFFFF SWAP1 POP SWAP2 SWAP1 POP JUMP JUMPDEST PUSH1 0x0 PUSH2 0xC9E DUP3 PUSH2 0x819 JUMP JUMPDEST SWAP1 POP SWAP2 SWAP1 POP JUMP JUMPDEST PUSH2 0xCAD PUSH2 0x1D6A JUMP JUMPDEST PUSH20 0xFFFFFFFFFFFFFFFFFFFFFFFFFFFFFFFFFFFFFFFF AND CALLER PUSH20 0xFFFFFFFFFFFFFFFFFFFFFFFFFFFFFFFFFFFFFFFF AND EQ PUSH2 0xD1A JUMPI PUSH1 0x40 MLOAD PUSH32 0x8C379A000000000000000000000000000000000000000000000000000000000 DUP2 MSTORE PUSH1 0x4 ADD PUSH2 0xD11 SWAP1 PUSH2 0x2F63 JUMP JUMPDEST PUSH1 0x40 MLOAD DUP1 SWAP2 SUB SWAP1 REVERT JUMPDEST PUSH2 0xD23 CALLER PUSH2 0x1D9B JUMP JUMPDEST JUMP JUMPDEST PUSH1 0x0 PUSH2 0xD30 DUP3 PUSH2 0xC69 JUMP JUMPDEST DUP4 GT ISZERO PUSH2 0xD72 JUMPI PUSH1 0x40 MLOAD PUSH32 0x8C379A000000000000000000000000000000000000000000000000000000000 DUP2 MSTORE PUSH1 0x4 ADD PUSH2 0xD69 SWAP1 PUSH2 0x2DA3 JUMP JUMPDEST PUSH1 0x40 MLOAD DUP1 SWAP2 SUB SWAP1 REVERT JUMPDEST PUSH1 0x0 PUSH2 0xD7C PUSH2 0x185F JUMP JUMPDEST SWAP1 POP PUSH1 0x0 PUSH2 0xD89 DUP6 PUSH2 0x184D JUMP JUMPDEST SWAP1 POP PUSH2 0xDB7 PUSH32 0x0 DUP4 ADDRESS DUP9 PUSH2 0x1E78 JUMP JUMPDEST PUSH2 0xDC1 DUP5 DUP3 PUSH2 0x1F01 JUMP JUMPDEST DUP4 PUSH20 0xFFFFFFFFFFFFFFFFFFFFFFFFFFFFFFFFFFFFFFFF AND DUP3 PUSH20 0xFFFFFFFFFFFFFFFFFFFFFFFFFFFFFFFFFFFFFFFF AND PUSH32 0xDCBC1C05240F31FF3AD067EF1EE35CE4997762752E3A095284754544F4C709D7 DUP8 DUP5 PUSH1 0x40 MLOAD PUSH2 0xE20 SWAP3 SWAP2 SWAP1 PUSH2 0x2FDE JUMP JUMPDEST PUSH1 0x40 MLOAD DUP1 SWAP2 SUB SWAP1 LOG3 DUP1 SWAP3 POP POP POP SWAP3 SWAP2 POP POP JUMP JUMPDEST PUSH1 0x0 DUP1 PUSH1 0x0 DUP4 PUSH20 0xFFFFFFFFFFFFFFFFFFFFFFFFFFFFFFFFFFFFFFFF AND PUSH20 0xFFFFFFFFFFFFFFFFFFFFFFFFFFFFFFFFFFFFFFFF AND DUP2 MSTORE PUSH1 0x20 ADD SWAP1 DUP2 MSTORE PUSH1 0x20 ADD PUSH1 0x0 KECCAK256 SLOAD SWAP1 POP SWAP2 SWAP1 POP JUMP JUMPDEST PUSH2 0xE83 PUSH2 0x16A9 JUMP JUMPDEST PUSH2 0xEC2 JUMPI PUSH1 0x40 MLOAD PUSH32 0x8C379A000000000000000000000000000000000000000000000000000000000 DUP2 MSTORE PUSH1 0x4 ADD PUSH2 0xEB9 SWAP1 PUSH2 0x2D43 JUMP JUMPDEST PUSH1 0x40 MLOAD DUP1 SWAP2 SUB SWAP1 REVERT JUMPDEST PUSH1 0x5 PUSH1 0x1 SWAP1 SLOAD SWAP1 PUSH2 0x100 EXP SWAP1 DIV PUSH1 0xFF AND DUP1 PUSH2 0xEEA JUMPI POP PUSH1 0x5 PUSH1 0x0 SWAP1 SLOAD SWAP1 PUSH2 0x100 EXP SWAP1 DIV PUSH1 0xFF AND ISZERO JUMPDEST PUSH2 0xF29 JUMPI PUSH1 0x40 MLOAD PUSH32 0x8C379A000000000000000000000000000000000000000000000000000000000 DUP2 MSTORE PUSH1 0x4 ADD PUSH2 0xF20 SWAP1 PUSH2 0x2E03 JUMP JUMPDEST PUSH1 0x40 MLOAD DUP1 SWAP2 SUB SWAP1 REVERT JUMPDEST PUSH1 0x0 PUSH1 0x5 PUSH1 0x1 SWAP1 SLOAD SWAP1 PUSH2 0x100 EXP SWAP1 DIV PUSH1 0xFF AND ISZERO SWAP1 POP DUP1 ISZERO PUSH2 0xF7B JUMPI PUSH1 0x1 PUSH1 0x5 PUSH1 0x1 PUSH2 0x100 EXP DUP2 SLOAD DUP2 PUSH1 0xFF MUL NOT AND SWAP1 DUP4 ISZERO ISZERO MUL OR SWAP1 SSTORE POP PUSH1 0x1 PUSH1 0x5 PUSH1 0x0 PUSH2 0x100 EXP DUP2 SLOAD DUP2 PUSH1 0xFF MUL NOT AND SWAP1 DUP4 ISZERO ISZERO MUL OR SWAP1 SSTORE POP JUMPDEST PUSH2 0xF83 PUSH2 0xB95 JUMP JUMPDEST PUSH20 0xFFFFFFFFFFFFFFFFFFFFFFFFFFFFFFFFFFFFFFFF AND PUSH4 0xF51B0FD4 PUSH1 0x40 MLOAD DUP2 PUSH4 0xFFFFFFFF AND PUSH1 0xE0 SHL DUP2 MSTORE PUSH1 0x4 ADD PUSH1 0x0 PUSH1 0x40 MLOAD DUP1 DUP4 SUB DUP2 PUSH1 0x0 DUP8 DUP1 EXTCODESIZE ISZERO DUP1 ISZERO PUSH2 0xFCA JUMPI PUSH1 0x0 DUP1 REVERT JUMPDEST POP GAS CALL ISZERO DUP1 ISZERO PUSH2 0xFDE JUMPI RETURNDATASIZE PUSH1 0x0 DUP1 RETURNDATACOPY RETURNDATASIZE PUSH1 0x0 REVERT JUMPDEST POP POP POP POP DUP1 ISZERO PUSH2 0x1004 JUMPI PUSH1 0x0 PUSH1 0x5 PUSH1 0x1 PUSH2 0x100 EXP DUP2 SLOAD DUP2 PUSH1 0xFF MUL NOT AND SWAP1 DUP4 ISZERO ISZERO MUL OR SWAP1 SSTORE POP JUMPDEST POP JUMP JUMPDEST PUSH1 0x0 PUSH2 0x1012 DUP3 PUSH2 0x1560 JUMP JUMPDEST DUP4 GT ISZERO PUSH2 0x1054 JUMPI PUSH1 0x40 MLOAD PUSH32 0x8C379A000000000000000000000000000000000000000000000000000000000 DUP2 MSTORE PUSH1 0x4 ADD PUSH2 0x104B SWAP1 PUSH2 0x2F43 JUMP JUMPDEST PUSH1 0x40 MLOAD DUP1 SWAP2 SUB SWAP1 REVERT JUMPDEST PUSH1 0x0 PUSH2 0x105E PUSH2 0x185F JUMP JUMPDEST SWAP1 POP PUSH1 0x0 PUSH2 0x106B DUP6 PUSH2 0x125B JUMP JUMPDEST SWAP1 POP PUSH2 0x1099 PUSH32 0x0 DUP4 ADDRESS DUP5 PUSH2 0x1E78 JUMP JUMPDEST PUSH2 0x10A3 DUP5 DUP7 PUSH2 0x1F01 JUMP JUMPDEST DUP4 PUSH20 0xFFFFFFFFFFFFFFFFFFFFFFFFFFFFFFFFFFFFFFFF AND DUP3 PUSH20 0xFFFFFFFFFFFFFFFFFFFFFFFFFFFFFFFFFFFFFFFF AND PUSH32 0xDCBC1C05240F31FF3AD067EF1EE35CE4997762752E3A095284754544F4C709D7 DUP4 DUP9 PUSH1 0x40 MLOAD PUSH2 0x1102 SWAP3 SWAP2 SWAP1 PUSH2 0x2FDE JUMP JUMPDEST PUSH1 0x40 MLOAD DUP1 SWAP2 SUB SWAP1 LOG3 DUP1 SWAP3 POP POP POP SWAP3 SWAP2 POP POP JUMP JUMPDEST PUSH1 0x60 PUSH1 0x40 MLOAD DUP1 PUSH1 0x40 ADD PUSH1 0x40 MSTORE DUP1 PUSH1 0x5 DUP2 MSTORE PUSH1 0x20 ADD PUSH32 0x574F555344000000000000000000000000000000000000000000000000000000 DUP2 MSTORE POP SWAP1 POP SWAP1 JUMP JUMPDEST PUSH1 0x0 DUP1 PUSH1 0x1 PUSH1 0x0 PUSH2 0x1161 PUSH2 0x185F JUMP JUMPDEST PUSH20 0xFFFFFFFFFFFFFFFFFFFFFFFFFFFFFFFFFFFFFFFF AND PUSH20 0xFFFFFFFFFFFFFFFFFFFFFFFFFFFFFFFFFFFFFFFF AND DUP2 MSTORE PUSH1 0x20 ADD SWAP1 DUP2 MSTORE PUSH1 0x20 ADD PUSH1 0x0 KECCAK256 PUSH1 0x0 DUP6 PUSH20 0xFFFFFFFFFFFFFFFFFFFFFFFFFFFFFFFFFFFFFFFF AND PUSH20 0xFFFFFFFFFFFFFFFFFFFFFFFFFFFFFFFFFFFFFFFF AND DUP2 MSTORE PUSH1 0x20 ADD SWAP1 DUP2 MSTORE PUSH1 0x20 ADD PUSH1 0x0 KECCAK256 SLOAD SWAP1 POP DUP3 DUP2 LT ISZERO PUSH2 0x121E JUMPI PUSH1 0x40 MLOAD PUSH32 0x8C379A000000000000000000000000000000000000000000000000000000000 DUP2 MSTORE PUSH1 0x4 ADD PUSH2 0x1215 SWAP1 PUSH2 0x2F83 JUMP JUMPDEST PUSH1 0x40 MLOAD DUP1 SWAP2 SUB SWAP1 REVERT JUMPDEST PUSH2 0x1232 PUSH2 0x1229 PUSH2 0x185F JUMP JUMPDEST DUP6 DUP6 DUP5 SUB PUSH2 0x1867 JUMP JUMPDEST PUSH1 0x1 SWAP2 POP POP SWAP3 SWAP2 POP POP JUMP JUMPDEST PUSH1 0x0 PUSH2 0x1251 PUSH2 0x124A PUSH2 0x185F JUMP JUMPDEST DUP5 DUP5 PUSH2 0x1AE9 JUMP JUMPDEST PUSH1 0x1 SWAP1 POP SWAP3 SWAP2 POP POP JUMP JUMPDEST PUSH1 0x0 DUP1 PUSH2 0x1267 DUP4 PUSH2 0x819 JUMP JUMPDEST SWAP1 POP DUP3 PUSH2 0x1273 DUP3 PUSH2 0x158A JUMP JUMPDEST LT PUSH2 0x127F JUMPI PUSH1 0x0 PUSH2 0x1282 JUMP JUMPDEST PUSH1 0x1 JUMPDEST PUSH1 0xFF AND DUP2 PUSH2 0x1290 SWAP2 SWAP1 PUSH2 0x3054 JUMP JUMPDEST SWAP2 POP POP SWAP2 SWAP1 POP JUMP JUMPDEST PUSH1 0x0 PUSH2 0x12A3 DUP3 PUSH2 0x16E6 JUMP JUMPDEST DUP5 GT ISZERO PUSH2 0x12E5 JUMPI PUSH1 0x40 MLOAD PUSH32 0x8C379A000000000000000000000000000000000000000000000000000000000 DUP2 MSTORE PUSH1 0x4 ADD PUSH2 0x12DC SWAP1 PUSH2 0x2F03 JUMP JUMPDEST PUSH1 0x40 MLOAD DUP1 SWAP2 SUB SWAP1 REVERT JUMPDEST PUSH1 0x0 PUSH2 0x12EF PUSH2 0x185F JUMP JUMPDEST SWAP1 POP PUSH1 0x0 PUSH2 0x12FC DUP7 PUSH2 0x94B JUMP JUMPDEST SWAP1 POP DUP4 PUSH20 0xFFFFFFFFFFFFFFFFFFFFFFFFFFFFFFFFFFFFFFFF AND DUP3 PUSH20 0xFFFFFFFFFFFFFFFFFFFFFFFFFFFFFFFFFFFFFFFF AND EQ PUSH2 0x133D JUMPI PUSH2 0x133C DUP5 DUP4 DUP4 PUSH2 0x2061 JUMP JUMPDEST JUMPDEST PUSH2 0x1347 DUP5 DUP3 PUSH2 0x20ED JUMP JUMPDEST PUSH2 0x1372 PUSH32 0x0 DUP7 DUP9 PUSH2 0x1A63 JUMP JUMPDEST DUP4 PUSH20 0xFFFFFFFFFFFFFFFFFFFFFFFFFFFFFFFFFFFFFFFF AND DUP6 PUSH20 0xFFFFFFFFFFFFFFFFFFFFFFFFFFFFFFFFFFFFFFFF AND DUP4 PUSH20 0xFFFFFFFFFFFFFFFFFFFFFFFFFFFFFFFFFFFFFFFF AND PUSH32 0xFBDE797D201C681B91056529119E0B02407C7BB96A4A2C75C01FC9667232C8DB DUP10 DUP6 PUSH1 0x40 MLOAD PUSH2 0x13E8 SWAP3 SWAP2 SWAP1 PUSH2 0x2FDE JUMP JUMPDEST PUSH1 0x40 MLOAD DUP1 SWAP2 SUB SWAP1 LOG4 DUP1 SWAP3 POP POP POP SWAP4 SWAP3 POP POP POP JUMP JUMPDEST PUSH1 0x0 PUSH2 0x1407 DUP3 PUSH2 0x17B4 JUMP JUMPDEST DUP5 GT ISZERO PUSH2 0x1449 JUMPI PUSH1 0x40 MLOAD PUSH32 0x8C379A000000000000000000000000000000000000000000000000000000000 DUP2 MSTORE PUSH1 0x4 ADD PUSH2 0x1440 SWAP1 PUSH2 0x2E43 JUMP JUMPDEST PUSH1 0x40 MLOAD DUP1 SWAP2 SUB SWAP1 REVERT JUMPDEST PUSH1 0x0 PUSH2 0x1453 PUSH2 0x185F JUMP JUMPDEST SWAP1 POP PUSH1 0x0 PUSH2 0x1460 DUP7 PUSH2 0xC93 JUMP JUMPDEST SWAP1 POP DUP4 PUSH20 0xFFFFFFFFFFFFFFFFFFFFFFFFFFFFFFFFFFFFFFFF AND DUP3 PUSH20 0xFFFFFFFFFFFFFFFFFFFFFFFFFFFFFFFFFFFFFFFF AND EQ PUSH2 0x14A1 JUMPI PUSH2 0x14A0 DUP5 DUP4 DUP9 PUSH2 0x2061 JUMP JUMPDEST JUMPDEST PUSH2 0x14AB DUP5 DUP8 PUSH2 0x20ED JUMP JUMPDEST PUSH2 0x14D6 PUSH32 0x0 DUP7 DUP4 PUSH2 0x1A63 JUMP JUMPDEST DUP4 PUSH20 0xFFFFFFFFFFFFFFFFFFFFFFFFFFFFFFFFFFFFFFFF AND DUP6 PUSH20 0xFFFFFFFFFFFFFFFFFFFFFFFFFFFFFFFFFFFFFFFF AND DUP4 PUSH20 0xFFFFFFFFFFFFFFFFFFFFFFFFFFFFFFFFFFFFFFFF AND PUSH32 0xFBDE797D201C681B91056529119E0B02407C7BB96A4A2C75C01FC9667232C8DB DUP5 DUP11 PUSH1 0x40 MLOAD PUSH2 0x154C SWAP3 SWAP2 SWAP1 PUSH2 0x2FDE JUMP JUMPDEST PUSH1 0x40 MLOAD DUP1 SWAP2 SUB SWAP1 LOG4 DUP1 SWAP3 POP POP POP SWAP4 SWAP3 POP POP POP JUMP JUMPDEST PUSH1 0x0 PUSH32 0xFFFFFFFFFFFFFFFFFFFFFFFFFFFFFFFFFFFFFFFFFFFFFFFFFFFFFFFFFFFFFFFF SWAP1 POP SWAP2 SWAP1 POP JUMP JUMPDEST PUSH1 0x0 DUP1 PUSH2 0x1595 PUSH2 0xA8A JUMP JUMPDEST SWAP1 POP PUSH1 0x0 DUP4 EQ DUP1 PUSH2 0x15A6 JUMPI POP PUSH1 0x0 DUP2 EQ JUMPDEST PUSH2 0x15CD JUMPI PUSH2 0x15B2 PUSH2 0x72C JUMP JUMPDEST DUP2 DUP5 PUSH2 0x15BE SWAP2 SWAP1 PUSH2 0x324C JUMP JUMPDEST PUSH2 0x15C8 SWAP2 SWAP1 PUSH2 0x30AA JUMP JUMPDEST PUSH2 0x16A1 JUMP JUMPDEST PUSH32 0x0 PUSH20 0xFFFFFFFFFFFFFFFFFFFFFFFFFFFFFFFFFFFFFFFF AND PUSH4 0x313CE567 PUSH1 0x40 MLOAD DUP2 PUSH4 0xFFFFFFFF AND PUSH1 0xE0 SHL DUP2 MSTORE PUSH1 0x4 ADD PUSH1 0x20 PUSH1 0x40 MLOAD DUP1 DUP4 SUB DUP2 DUP7 DUP1 EXTCODESIZE ISZERO DUP1 ISZERO PUSH2 0x1633 JUMPI PUSH1 0x0 DUP1 REVERT JUMPDEST POP GAS STATICCALL ISZERO DUP1 ISZERO PUSH2 0x1647 JUMPI RETURNDATASIZE PUSH1 0x0 DUP1 RETURNDATACOPY RETURNDATASIZE PUSH1 0x0 REVERT JUMPDEST POP POP POP POP PUSH1 0x40 MLOAD RETURNDATASIZE PUSH1 0x1F NOT PUSH1 0x1F DUP3 ADD AND DUP3 ADD DUP1 PUSH1 0x40 MSTORE POP DUP2 ADD SWAP1 PUSH2 0x166B SWAP2 SWAP1 PUSH2 0x281C JUMP JUMPDEST PUSH1 0xA PUSH2 0x1677 SWAP2 SWAP1 PUSH2 0x312E JUMP JUMPDEST PUSH2 0x167F PUSH2 0xB8C JUMP JUMPDEST PUSH1 0xA PUSH2 0x168B SWAP2 SWAP1 PUSH2 0x312E JUMP JUMPDEST DUP5 PUSH2 0x1696 SWAP2 SWAP1 PUSH2 0x324C JUMP JUMPDEST PUSH2 0x16A0 SWAP2 SWAP1 PUSH2 0x30AA JUMP JUMPDEST JUMPDEST SWAP2 POP POP SWAP2 SWAP1 POP JUMP JUMPDEST PUSH1 0x0 PUSH2 0x16B3 PUSH2 0x1A32 JUMP JUMPDEST PUSH20 0xFFFFFFFFFFFFFFFFFFFFFFFFFFFFFFFFFFFFFFFF AND CALLER PUSH20 0xFFFFFFFFFFFFFFFFFFFFFFFFFFFFFFFFFFFFFFFF AND EQ SWAP1 POP SWAP1 JUMP JUMPDEST PUSH1 0x0 PUSH2 0x16F9 PUSH2 0x16F4 DUP4 PUSH2 0xE33 JUMP JUMPDEST PUSH2 0x819 JUMP JUMPDEST SWAP1 POP SWAP2 SWAP1 POP JUMP JUMPDEST PUSH2 0x1708 PUSH2 0x16A9 JUMP JUMPDEST PUSH2 0x1747 JUMPI PUSH1 0x40 MLOAD PUSH32 0x8C379A000000000000000000000000000000000000000000000000000000000 DUP2 MSTORE PUSH1 0x4 ADD PUSH2 0x173E SWAP1 PUSH2 0x2D43 JUMP JUMPDEST PUSH1 0x40 MLOAD DUP1 SWAP2 SUB SWAP1 REVERT JUMPDEST PUSH2 0x1750 DUP2 PUSH2 0x22C4 JUMP JUMPDEST DUP1 PUSH20 0xFFFFFFFFFFFFFFFFFFFFFFFFFFFFFFFFFFFFFFFF AND PUSH2 0x176F PUSH2 0x1A32 JUMP JUMPDEST PUSH20 0xFFFFFFFFFFFFFFFFFFFFFFFFFFFFFFFFFFFFFFFF AND PUSH32 0xA39CC5EB22D0F34D8BEAEFEE8A3F17CC229C1A1D1EF87A5AD47313487B1C4F0D PUSH1 0x40 MLOAD PUSH1 0x40 MLOAD DUP1 SWAP2 SUB SWAP1 LOG3 POP JUMP JUMPDEST PUSH1 0x0 PUSH2 0x17BF DUP3 PUSH2 0xE33 JUMP JUMPDEST SWAP1 POP SWAP2 SWAP1 POP JUMP JUMPDEST PUSH1 0x0 PUSH1 0x1 PUSH1 0x0 DUP5 PUSH20 0xFFFFFFFFFFFFFFFFFFFFFFFFFFFFFFFFFFFFFFFF AND PUSH20 0xFFFFFFFFFFFFFFFFFFFFFFFFFFFFFFFFFFFFFFFF AND DUP2 MSTORE PUSH1 0x20 ADD SWAP1 DUP2 MSTORE PUSH1 0x20 ADD PUSH1 0x0 KECCAK256 PUSH1 0x0 DUP4 PUSH20 0xFFFFFFFFFFFFFFFFFFFFFFFFFFFFFFFFFFFFFFFF AND PUSH20 0xFFFFFFFFFFFFFFFFFFFFFFFFFFFFFFFFFFFFFFFF AND DUP2 MSTORE PUSH1 0x20 ADD SWAP1 DUP2 MSTORE PUSH1 0x20 ADD PUSH1 0x0 KECCAK256 SLOAD SWAP1 POP SWAP3 SWAP2 POP POP JUMP JUMPDEST PUSH1 0x0 PUSH2 0x1858 DUP3 PUSH2 0x158A JUMP JUMPDEST SWAP1 POP SWAP2 SWAP1 POP JUMP JUMPDEST PUSH1 0x0 CALLER SWAP1 POP SWAP1 JUMP JUMPDEST PUSH1 0x0 PUSH20 0xFFFFFFFFFFFFFFFFFFFFFFFFFFFFFFFFFFFFFFFF AND DUP4 PUSH20 0xFFFFFFFFFFFFFFFFFFFFFFFFFFFFFFFFFFFFFFFF AND EQ ISZERO PUSH2 0x18D7 JUMPI PUSH1 0x40 MLOAD PUSH32 0x8C379A000000000000000000000000000000000000000000000000000000000 DUP2 MSTORE PUSH1 0x4 ADD PUSH2 0x18CE SWAP1 PUSH2 0x2EC3 JUMP JUMPDEST PUSH1 0x40 MLOAD DUP1 SWAP2 SUB SWAP1 REVERT JUMPDEST PUSH1 0x0 PUSH20 0xFFFFFFFFFFFFFFFFFFFFFFFFFFFFFFFFFFFFFFFF AND DUP3 PUSH20 0xFFFFFFFFFFFFFFFFFFFFFFFFFFFFFFFFFFFFFFFF AND EQ ISZERO PUSH2 0x1947 JUMPI PUSH1 0x40 MLOAD PUSH32 0x8C379A000000000000000000000000000000000000000000000000000000000 DUP2 MSTORE PUSH1 0x4 ADD PUSH2 0x193E SWAP1 PUSH2 0x2D23 JUMP JUMPDEST PUSH1 0x40 MLOAD DUP1 SWAP2 SUB SWAP1 REVERT JUMPDEST DUP1 PUSH1 0x1 PUSH1 0x0 DUP6 PUSH20 0xFFFFFFFFFFFFFFFFFFFFFFFFFFFFFFFFFFFFFFFF AND PUSH20 0xFFFFFFFFFFFFFFFFFFFFFFFFFFFFFFFFFFFFFFFF AND DUP2 MSTORE PUSH1 0x20 ADD SWAP1 DUP2 MSTORE PUSH1 0x20 ADD PUSH1 0x0 KECCAK256 PUSH1 0x0 DUP5 PUSH20 0xFFFFFFFFFFFFFFFFFFFFFFFFFFFFFFFFFFFFFFFF AND PUSH20 0xFFFFFFFFFFFFFFFFFFFFFFFFFFFFFFFFFFFFFFFF AND DUP2 MSTORE PUSH1 0x20 ADD SWAP1 DUP2 MSTORE PUSH1 0x20 ADD PUSH1 0x0 KECCAK256 DUP2 SWAP1 SSTORE POP DUP2 PUSH20 0xFFFFFFFFFFFFFFFFFFFFFFFFFFFFFFFFFFFFFFFF AND DUP4 PUSH20 0xFFFFFFFFFFFFFFFFFFFFFFFFFFFFFFFFFFFFFFFF AND PUSH32 0x8C5BE1E5EBEC7D5BD14F71427D1E84F3DD0314C0F7B2291E5B200AC8C7C3B925 DUP4 PUSH1 0x40 MLOAD PUSH2 0x1A25 SWAP2 SWAP1 PUSH2 0x2FC3 JUMP JUMPDEST PUSH1 0x40 MLOAD DUP1 SWAP2 SUB SWAP1 LOG3 POP POP POP JUMP JUMPDEST PUSH1 0x0 DUP1 PUSH32 0x7BEA13895FA79D2831E0A9E28EDEDE30099005A50D652D8957CF8A607EE6CA4A PUSH1 0x0 SHL SWAP1 POP DUP1 SLOAD SWAP2 POP POP SWAP1 JUMP JUMPDEST PUSH2 0x1AE4 DUP4 PUSH4 0xA9059CBB PUSH1 0xE0 SHL DUP5 DUP5 PUSH1 0x40 MLOAD PUSH1 0x24 ADD PUSH2 0x1A82 SWAP3 SWAP2 SWAP1 PUSH2 0x2C7D JUMP JUMPDEST PUSH1 0x40 MLOAD PUSH1 0x20 DUP2 DUP4 SUB SUB DUP2 MSTORE SWAP1 PUSH1 0x40 MSTORE SWAP1 PUSH28 0xFFFFFFFFFFFFFFFFFFFFFFFFFFFFFFFFFFFFFFFFFFFFFFFFFFFFFFFF NOT AND PUSH1 0x20 DUP3 ADD DUP1 MLOAD PUSH28 0xFFFFFFFFFFFFFFFFFFFFFFFFFFFFFFFFFFFFFFFFFFFFFFFFFFFFFFFF DUP4 DUP2 DUP4 AND OR DUP4 MSTORE POP POP POP POP PUSH2 0x22F3 JUMP JUMPDEST POP POP POP JUMP JUMPDEST PUSH1 0x0 PUSH20 0xFFFFFFFFFFFFFFFFFFFFFFFFFFFFFFFFFFFFFFFF AND DUP4 PUSH20 0xFFFFFFFFFFFFFFFFFFFFFFFFFFFFFFFFFFFFFFFF AND EQ ISZERO PUSH2 0x1B59 JUMPI PUSH1 0x40 MLOAD PUSH32 0x8C379A000000000000000000000000000000000000000000000000000000000 DUP2 MSTORE PUSH1 0x4 ADD PUSH2 0x1B50 SWAP1 PUSH2 0x2E83 JUMP JUMPDEST PUSH1 0x40 MLOAD DUP1 SWAP2 SUB SWAP1 REVERT JUMPDEST PUSH1 0x0 PUSH20 0xFFFFFFFFFFFFFFFFFFFFFFFFFFFFFFFFFFFFFFFF AND DUP3 PUSH20 0xFFFFFFFFFFFFFFFFFFFFFFFFFFFFFFFFFFFFFFFF AND EQ ISZERO PUSH2 0x1BC9 JUMPI PUSH1 0x40 MLOAD PUSH32 0x8C379A000000000000000000000000000000000000000000000000000000000 DUP2 MSTORE PUSH1 0x4 ADD PUSH2 0x1BC0 SWAP1 PUSH2 0x2CE3 JUMP JUMPDEST PUSH1 0x40 MLOAD DUP1 SWAP2 SUB SWAP1 REVERT JUMPDEST PUSH2 0x1BD4 DUP4 DUP4 DUP4 PUSH2 0x23BA JUMP JUMPDEST PUSH1 0x0 DUP1 PUSH1 0x0 DUP6 PUSH20 0xFFFFFFFFFFFFFFFFFFFFFFFFFFFFFFFFFFFFFFFF AND PUSH20 0xFFFFFFFFFFFFFFFFFFFFFFFFFFFFFFFFFFFFFFFF AND DUP2 MSTORE PUSH1 0x20 ADD SWAP1 DUP2 MSTORE PUSH1 0x20 ADD PUSH1 0x0 KECCAK256 SLOAD SWAP1 POP DUP2 DUP2 LT ISZERO PUSH2 0x1C5A JUMPI PUSH1 0x40 MLOAD PUSH32 0x8C379A000000000000000000000000000000000000000000000000000000000 DUP2 MSTORE PUSH1 0x4 ADD PUSH2 0x1C51 SWAP1 PUSH2 0x2D83 JUMP JUMPDEST PUSH1 0x40 MLOAD DUP1 SWAP2 SUB SWAP1 REVERT JUMPDEST DUP2 DUP2 SUB PUSH1 0x0 DUP1 DUP7 PUSH20 0xFFFFFFFFFFFFFFFFFFFFFFFFFFFFFFFFFFFFFFFF AND PUSH20 0xFFFFFFFFFFFFFFFFFFFFFFFFFFFFFFFFFFFFFFFF AND DUP2 MSTORE PUSH1 0x20 ADD SWAP1 DUP2 MSTORE PUSH1 0x20 ADD PUSH1 0x0 KECCAK256 DUP2 SWAP1 SSTORE POP DUP2 PUSH1 0x0 DUP1 DUP6 PUSH20 0xFFFFFFFFFFFFFFFFFFFFFFFFFFFFFFFFFFFFFFFF AND PUSH20 0xFFFFFFFFFFFFFFFFFFFFFFFFFFFFFFFFFFFFFFFF AND DUP2 MSTORE PUSH1 0x20 ADD SWAP1 DUP2 MSTORE PUSH1 0x20 ADD PUSH1 0x0 KECCAK256 PUSH1 0x0 DUP3 DUP3 SLOAD PUSH2 0x1CED SWAP2 SWAP1 PUSH2 0x3054 JUMP JUMPDEST SWAP3 POP POP DUP2 SWAP1 SSTORE POP DUP3 PUSH20 0xFFFFFFFFFFFFFFFFFFFFFFFFFFFFFFFFFFFFFFFF AND DUP5 PUSH20 0xFFFFFFFFFFFFFFFFFFFFFFFFFFFFFFFFFFFFFFFF AND PUSH32 0xDDF252AD1BE2C89B69C2B068FC378DAA952BA7F163C4A11628F55A4DF523B3EF DUP5 PUSH1 0x40 MLOAD PUSH2 0x1D51 SWAP2 SWAP1 PUSH2 0x2FC3 JUMP JUMPDEST PUSH1 0x40 MLOAD DUP1 SWAP2 SUB SWAP1 LOG3 PUSH2 0x1D64 DUP5 DUP5 DUP5 PUSH2 0x23BF JUMP JUMPDEST POP POP POP POP JUMP JUMPDEST PUSH1 0x0 DUP1 PUSH32 0x44C4D30B2EAAD5130AD70C3BA6972730566F3E6359AB83E800D905C61B1C51DB PUSH1 0x0 SHL SWAP1 POP DUP1 SLOAD SWAP2 POP POP SWAP1 JUMP JUMPDEST PUSH1 0x0 PUSH20 0xFFFFFFFFFFFFFFFFFFFFFFFFFFFFFFFFFFFFFFFF AND DUP2 PUSH20 0xFFFFFFFFFFFFFFFFFFFFFFFFFFFFFFFFFFFFFFFF AND EQ ISZERO PUSH2 0x1E0B JUMPI PUSH1 0x40 MLOAD PUSH32 0x8C379A000000000000000000000000000000000000000000000000000000000 DUP2 MSTORE PUSH1 0x4 ADD PUSH2 0x1E02 SWAP1 PUSH2 0x2DE3 JUMP JUMPDEST PUSH1 0x40 MLOAD DUP1 SWAP2 SUB SWAP1 REVERT JUMPDEST DUP1 PUSH20 0xFFFFFFFFFFFFFFFFFFFFFFFFFFFFFFFFFFFFFFFF AND PUSH2 0x1E2A PUSH2 0x1A32 JUMP JUMPDEST PUSH20 0xFFFFFFFFFFFFFFFFFFFFFFFFFFFFFFFFFFFFFFFF AND PUSH32 0xC7C0C772ADD429241571AFB3805861FB3CFA2AF374534088B76CDB4325A87E9A PUSH1 0x40 MLOAD PUSH1 0x40 MLOAD DUP1 SWAP2 SUB SWAP1 LOG3 PUSH2 0x1E75 DUP2 PUSH2 0x23C4 JUMP JUMPDEST POP JUMP JUMPDEST PUSH2 0x1EFB DUP5 PUSH4 0x23B872DD PUSH1 0xE0 SHL DUP6 DUP6 DUP6 PUSH1 0x40 MLOAD PUSH1 0x24 ADD PUSH2 0x1E99 SWAP4 SWAP3 SWAP2 SWAP1 PUSH2 0x2C46 JUMP JUMPDEST PUSH1 0x40 MLOAD PUSH1 0x20 DUP2 DUP4 SUB SUB DUP2 MSTORE SWAP1 PUSH1 0x40 MSTORE SWAP1 PUSH28 0xFFFFFFFFFFFFFFFFFFFFFFFFFFFFFFFFFFFFFFFFFFFFFFFFFFFFFFFF NOT AND PUSH1 0x20 DUP3 ADD DUP1 MLOAD PUSH28 0xFFFFFFFFFFFFFFFFFFFFFFFFFFFFFFFFFFFFFFFFFFFFFFFFFFFFFFFF DUP4 DUP2 DUP4 AND OR DUP4 MSTORE POP POP POP POP PUSH2 0x22F3 JUMP JUMPDEST POP POP POP POP JUMP JUMPDEST PUSH1 0x0 PUSH20 0xFFFFFFFFFFFFFFFFFFFFFFFFFFFFFFFFFFFFFFFF AND DUP3 PUSH20 0xFFFFFFFFFFFFFFFFFFFFFFFFFFFFFFFFFFFFFFFF AND EQ ISZERO PUSH2 0x1F71 JUMPI PUSH1 0x40 MLOAD PUSH32 0x8C379A000000000000000000000000000000000000000000000000000000000 DUP2 MSTORE PUSH1 0x4 ADD PUSH2 0x1F68 SWAP1 PUSH2 0x2FA3 JUMP JUMPDEST PUSH1 0x40 MLOAD DUP1 SWAP2 SUB SWAP1 REVERT JUMPDEST PUSH2 0x1F7D PUSH1 0x0 DUP4 DUP4 PUSH2 0x23BA JUMP JUMPDEST DUP1 PUSH1 0x2 PUSH1 0x0 DUP3 DUP3 SLOAD PUSH2 0x1F8F SWAP2 SWAP1 PUSH2 0x3054 JUMP JUMPDEST SWAP3 POP POP DUP2 SWAP1 SSTORE POP DUP1 PUSH1 0x0 DUP1 DUP5 PUSH20 0xFFFFFFFFFFFFFFFFFFFFFFFFFFFFFFFFFFFFFFFF AND PUSH20 0xFFFFFFFFFFFFFFFFFFFFFFFFFFFFFFFFFFFFFFFF AND DUP2 MSTORE PUSH1 0x20 ADD SWAP1 DUP2 MSTORE PUSH1 0x20 ADD PUSH1 0x0 KECCAK256 PUSH1 0x0 DUP3 DUP3 SLOAD PUSH2 0x1FE4 SWAP2 SWAP1 PUSH2 0x3054 JUMP JUMPDEST SWAP3 POP POP DUP2 SWAP1 SSTORE POP DUP2 PUSH20 0xFFFFFFFFFFFFFFFFFFFFFFFFFFFFFFFFFFFFFFFF AND PUSH1 0x0 PUSH20 0xFFFFFFFFFFFFFFFFFFFFFFFFFFFFFFFFFFFFFFFF AND PUSH32 0xDDF252AD1BE2C89B69C2B068FC378DAA952BA7F163C4A11628F55A4DF523B3EF DUP4 PUSH1 0x40 MLOAD PUSH2 0x2049 SWAP2 SWAP1 PUSH2 0x2FC3 JUMP JUMPDEST PUSH1 0x40 MLOAD DUP1 SWAP2 SUB SWAP1 LOG3 PUSH2 0x205D PUSH1 0x0 DUP4 DUP4 PUSH2 0x23BF JUMP JUMPDEST POP POP JUMP JUMPDEST PUSH1 0x0 PUSH2 0x206D DUP5 DUP5 PUSH2 0x17C6 JUMP JUMPDEST SWAP1 POP PUSH32 0xFFFFFFFFFFFFFFFFFFFFFFFFFFFFFFFFFFFFFFFFFFFFFFFFFFFFFFFFFFFFFFFF DUP2 EQ PUSH2 0x20E7 JUMPI DUP2 DUP2 LT ISZERO PUSH2 0x20D9 JUMPI PUSH1 0x40 MLOAD PUSH32 0x8C379A000000000000000000000000000000000000000000000000000000000 DUP2 MSTORE PUSH1 0x4 ADD PUSH2 0x20D0 SWAP1 PUSH2 0x2D63 JUMP JUMPDEST PUSH1 0x40 MLOAD DUP1 SWAP2 SUB SWAP1 REVERT JUMPDEST PUSH2 0x20E6 DUP5 DUP5 DUP5 DUP5 SUB PUSH2 0x1867 JUMP JUMPDEST JUMPDEST POP POP POP POP JUMP JUMPDEST PUSH1 0x0 PUSH20 0xFFFFFFFFFFFFFFFFFFFFFFFFFFFFFFFFFFFFFFFF AND DUP3 PUSH20 0xFFFFFFFFFFFFFFFFFFFFFFFFFFFFFFFFFFFFFFFF AND EQ ISZERO PUSH2 0x215D JUMPI PUSH1 0x40 MLOAD PUSH32 0x8C379A000000000000000000000000000000000000000000000000000000000 DUP2 MSTORE PUSH1 0x4 ADD PUSH2 0x2154 SWAP1 PUSH2 0x2E63 JUMP JUMPDEST PUSH1 0x40 MLOAD DUP1 SWAP2 SUB SWAP1 REVERT JUMPDEST PUSH2 0x2169 DUP3 PUSH1 0x0 DUP4 PUSH2 0x23BA JUMP JUMPDEST PUSH1 0x0 DUP1 PUSH1 0x0 DUP5 PUSH20 0xFFFFFFFFFFFFFFFFFFFFFFFFFFFFFFFFFFFFFFFF AND PUSH20 0xFFFFFFFFFFFFFFFFFFFFFFFFFFFFFFFFFFFFFFFF AND DUP2 MSTORE PUSH1 0x20 ADD SWAP1 DUP2 MSTORE PUSH1 0x20 ADD PUSH1 0x0 KECCAK256 SLOAD SWAP1 POP DUP2 DUP2 LT ISZERO PUSH2 0x21EF JUMPI PUSH1 0x40 MLOAD PUSH32 0x8C379A000000000000000000000000000000000000000000000000000000000 DUP2 MSTORE PUSH1 0x4 ADD PUSH2 0x21E6 SWAP1 PUSH2 0x2D03 JUMP JUMPDEST PUSH1 0x40 MLOAD DUP1 SWAP2 SUB SWAP1 REVERT JUMPDEST DUP2 DUP2 SUB PUSH1 0x0 DUP1 DUP6 PUSH20 0xFFFFFFFFFFFFFFFFFFFFFFFFFFFFFFFFFFFFFFFF AND PUSH20 0xFFFFFFFFFFFFFFFFFFFFFFFFFFFFFFFFFFFFFFFF AND DUP2 MSTORE PUSH1 0x20 ADD SWAP1 DUP2 MSTORE PUSH1 0x20 ADD PUSH1 0x0 KECCAK256 DUP2 SWAP1 SSTORE POP DUP2 PUSH1 0x2 PUSH1 0x0 DUP3 DUP3 SLOAD PUSH2 0x2246 SWAP2 SWAP1 PUSH2 0x32A6 JUMP JUMPDEST SWAP3 POP POP DUP2 SWAP1 SSTORE POP PUSH1 0x0 PUSH20 0xFFFFFFFFFFFFFFFFFFFFFFFFFFFFFFFFFFFFFFFF AND DUP4 PUSH20 0xFFFFFFFFFFFFFFFFFFFFFFFFFFFFFFFFFFFFFFFF AND PUSH32 0xDDF252AD1BE2C89B69C2B068FC378DAA952BA7F163C4A11628F55A4DF523B3EF DUP5 PUSH1 0x40 MLOAD PUSH2 0x22AB SWAP2 SWAP1 PUSH2 0x2FC3 JUMP JUMPDEST PUSH1 0x40 MLOAD DUP1 SWAP2 SUB SWAP1 LOG3 PUSH2 0x22BF DUP4 PUSH1 0x0 DUP5 PUSH2 0x23BF JUMP JUMPDEST POP POP POP JUMP JUMPDEST PUSH1 0x0 PUSH32 0x44C4D30B2EAAD5130AD70C3BA6972730566F3E6359AB83E800D905C61B1C51DB PUSH1 0x0 SHL SWAP1 POP DUP2 DUP2 SSTORE POP POP JUMP JUMPDEST PUSH1 0x0 PUSH2 0x2355 DUP3 PUSH1 0x40 MLOAD DUP1 PUSH1 0x40 ADD PUSH1 0x40 MSTORE DUP1 PUSH1 0x20 DUP2 MSTORE PUSH1 0x20 ADD PUSH32 0x5361666545524332303A206C6F772D6C6576656C2063616C6C206661696C6564 DUP2 MSTORE POP DUP6 PUSH20 0xFFFFFFFFFFFFFFFFFFFFFFFFFFFFFFFFFFFFFFFF AND PUSH2 0x23F3 SWAP1 SWAP3 SWAP2 SWAP1 PUSH4 0xFFFFFFFF AND JUMP JUMPDEST SWAP1 POP PUSH1 0x0 DUP2 MLOAD GT ISZERO PUSH2 0x23B5 JUMPI DUP1 DUP1 PUSH1 0x20 ADD SWAP1 MLOAD DUP2 ADD SWAP1 PUSH2 0x2375 SWAP2 SWAP1 PUSH2 0x2702 JUMP JUMPDEST PUSH2 0x23B4 JUMPI PUSH1 0x40 MLOAD PUSH32 0x8C379A000000000000000000000000000000000000000000000000000000000 DUP2 MSTORE PUSH1 0x4 ADD PUSH2 0x23AB SWAP1 PUSH2 0x2F23 JUMP JUMPDEST PUSH1 0x40 MLOAD DUP1 SWAP2 SUB SWAP1 REVERT JUMPDEST JUMPDEST POP POP POP JUMP JUMPDEST POP POP POP JUMP JUMPDEST POP POP POP JUMP JUMPDEST PUSH1 0x0 PUSH32 0x7BEA13895FA79D2831E0A9E28EDEDE30099005A50D652D8957CF8A607EE6CA4A PUSH1 0x0 SHL SWAP1 POP DUP2 DUP2 SSTORE POP POP JUMP JUMPDEST PUSH1 0x60 PUSH2 0x2402 DUP5 DUP5 PUSH1 0x0 DUP6 PUSH2 0x240B JUMP JUMPDEST SWAP1 POP SWAP4 SWAP3 POP POP POP JUMP JUMPDEST PUSH1 0x60 DUP3 SELFBALANCE LT ISZERO PUSH2 0x2450 JUMPI PUSH1 0x40 MLOAD PUSH32 0x8C379A000000000000000000000000000000000000000000000000000000000 DUP2 MSTORE PUSH1 0x4 ADD PUSH2 0x2447 SWAP1 PUSH2 0x2DC3 JUMP JUMPDEST PUSH1 0x40 MLOAD DUP1 SWAP2 SUB SWAP1 REVERT JUMPDEST PUSH2 0x2459 DUP6 PUSH2 0x251F JUMP JUMPDEST PUSH2 0x2498 JUMPI PUSH1 0x40 MLOAD PUSH32 0x8C379A000000000000000000000000000000000000000000000000000000000 DUP2 MSTORE PUSH1 0x4 ADD PUSH2 0x248F SWAP1 PUSH2 0x2EE3 JUMP JUMPDEST PUSH1 0x40 MLOAD DUP1 SWAP2 SUB SWAP1 REVERT JUMPDEST PUSH1 0x0 DUP1 DUP7 PUSH20 0xFFFFFFFFFFFFFFFFFFFFFFFFFFFFFFFFFFFFFFFF AND DUP6 DUP8 PUSH1 0x40 MLOAD PUSH2 0x24C1 SWAP2 SWAP1 PUSH2 0x2C14 JUMP JUMPDEST PUSH1 0x0 PUSH1 0x40 MLOAD DUP1 DUP4 SUB DUP2 DUP6 DUP8 GAS CALL SWAP3 POP POP POP RETURNDATASIZE DUP1 PUSH1 0x0 DUP2 EQ PUSH2 0x24FE JUMPI PUSH1 0x40 MLOAD SWAP2 POP PUSH1 0x1F NOT PUSH1 0x3F RETURNDATASIZE ADD AND DUP3 ADD PUSH1 0x40 MSTORE RETURNDATASIZE DUP3 MSTORE RETURNDATASIZE PUSH1 0x0 PUSH1 0x20 DUP5 ADD RETURNDATACOPY PUSH2 0x2503 JUMP JUMPDEST PUSH1 0x60 SWAP2 POP JUMPDEST POP SWAP2 POP SWAP2 POP PUSH2 0x2513 DUP3 DUP3 DUP7 PUSH2 0x2532 JUMP JUMPDEST SWAP3 POP POP POP SWAP5 SWAP4 POP POP POP POP JUMP JUMPDEST PUSH1 0x0 DUP1 DUP3 EXTCODESIZE SWAP1 POP PUSH1 0x0 DUP2 GT SWAP2 POP POP SWAP2 SWAP1 POP JUMP JUMPDEST PUSH1 0x60 DUP4 ISZERO PUSH2 0x2542 JUMPI DUP3 SWAP1 POP PUSH2 0x2592 JUMP JUMPDEST PUSH1 0x0 DUP4 MLOAD GT ISZERO PUSH2 0x2555 JUMPI DUP3 MLOAD DUP1 DUP5 PUSH1 0x20 ADD REVERT JUMPDEST DUP2 PUSH1 0x40 MLOAD PUSH32 0x8C379A000000000000000000000000000000000000000000000000000000000 DUP2 MSTORE PUSH1 0x4 ADD PUSH2 0x2589 SWAP2 SWAP1 PUSH2 0x2CC1 JUMP JUMPDEST PUSH1 0x40 MLOAD DUP1 SWAP2 SUB SWAP1 REVERT JUMPDEST SWAP4 SWAP3 POP POP POP JUMP JUMPDEST PUSH1 0x0 DUP2 CALLDATALOAD SWAP1 POP PUSH2 0x25A8 DUP2 PUSH2 0x3980 JUMP JUMPDEST SWAP3 SWAP2 POP POP JUMP JUMPDEST PUSH1 0x0 DUP2 MLOAD SWAP1 POP PUSH2 0x25BD DUP2 PUSH2 0x3997 JUMP JUMPDEST SWAP3 SWAP2 POP POP JUMP JUMPDEST PUSH1 0x0 DUP2 CALLDATALOAD SWAP1 POP PUSH2 0x25D2 DUP2 PUSH2 0x39AE JUMP JUMPDEST SWAP3 SWAP2 POP POP JUMP JUMPDEST PUSH1 0x0 DUP2 MLOAD SWAP1 POP PUSH2 0x25E7 DUP2 PUSH2 0x39AE JUMP JUMPDEST SWAP3 SWAP2 POP POP JUMP JUMPDEST PUSH1 0x0 DUP2 MLOAD SWAP1 POP PUSH2 0x25FC DUP2 PUSH2 0x39C5 JUMP JUMPDEST SWAP3 SWAP2 POP POP JUMP JUMPDEST PUSH1 0x0 PUSH1 0x20 DUP3 DUP5 SUB SLT ISZERO PUSH2 0x2618 JUMPI PUSH2 0x2617 PUSH2 0x33C0 JUMP JUMPDEST JUMPDEST PUSH1 0x0 PUSH2 0x2626 DUP5 DUP3 DUP6 ADD PUSH2 0x2599 JUMP JUMPDEST SWAP2 POP POP SWAP3 SWAP2 POP POP JUMP JUMPDEST PUSH1 0x0 DUP1 PUSH1 0x40 DUP4 DUP6 SUB SLT ISZERO PUSH2 0x2646 JUMPI PUSH2 0x2645 PUSH2 0x33C0 JUMP JUMPDEST JUMPDEST PUSH1 0x0 PUSH2 0x2654 DUP6 DUP3 DUP7 ADD PUSH2 0x2599 JUMP JUMPDEST SWAP3 POP POP PUSH1 0x20 PUSH2 0x2665 DUP6 DUP3 DUP7 ADD PUSH2 0x2599 JUMP JUMPDEST SWAP2 POP POP SWAP3 POP SWAP3 SWAP1 POP JUMP JUMPDEST PUSH1 0x0 DUP1 PUSH1 0x0 PUSH1 0x60 DUP5 DUP7 SUB SLT ISZERO PUSH2 0x2688 JUMPI PUSH2 0x2687 PUSH2 0x33C0 JUMP JUMPDEST JUMPDEST PUSH1 0x0 PUSH2 0x2696 DUP7 DUP3 DUP8 ADD PUSH2 0x2599 JUMP JUMPDEST SWAP4 POP POP PUSH1 0x20 PUSH2 0x26A7 DUP7 DUP3 DUP8 ADD PUSH2 0x2599 JUMP JUMPDEST SWAP3 POP POP PUSH1 0x40 PUSH2 0x26B8 DUP7 DUP3 DUP8 ADD PUSH2 0x25C3 JUMP JUMPDEST SWAP2 POP POP SWAP3 POP SWAP3 POP SWAP3 JUMP JUMPDEST PUSH1 0x0 DUP1 PUSH1 0x40 DUP4 DUP6 SUB SLT ISZERO PUSH2 0x26D9 JUMPI PUSH2 0x26D8 PUSH2 0x33C0 JUMP JUMPDEST JUMPDEST PUSH1 0x0 PUSH2 0x26E7 DUP6 DUP3 DUP7 ADD PUSH2 0x2599 JUMP JUMPDEST SWAP3 POP POP PUSH1 0x20 PUSH2 0x26F8 DUP6 DUP3 DUP7 ADD PUSH2 0x25C3 JUMP JUMPDEST SWAP2 POP POP SWAP3 POP SWAP3 SWAP1 POP JUMP JUMPDEST PUSH1 0x0 PUSH1 0x20 DUP3 DUP5 SUB SLT ISZERO PUSH2 0x2718 JUMPI PUSH2 0x2717 PUSH2 0x33C0 JUMP JUMPDEST JUMPDEST PUSH1 0x0 PUSH2 0x2726 DUP5 DUP3 DUP6 ADD PUSH2 0x25AE JUMP JUMPDEST SWAP2 POP POP SWAP3 SWAP2 POP POP JUMP JUMPDEST PUSH1 0x0 PUSH1 0x20 DUP3 DUP5 SUB SLT ISZERO PUSH2 0x2745 JUMPI PUSH2 0x2744 PUSH2 0x33C0 JUMP JUMPDEST JUMPDEST PUSH1 0x0 PUSH2 0x2753 DUP5 DUP3 DUP6 ADD PUSH2 0x25C3 JUMP JUMPDEST SWAP2 POP POP SWAP3 SWAP2 POP POP JUMP JUMPDEST PUSH1 0x0 PUSH1 0x20 DUP3 DUP5 SUB SLT ISZERO PUSH2 0x2772 JUMPI PUSH2 0x2771 PUSH2 0x33C0 JUMP JUMPDEST JUMPDEST PUSH1 0x0 PUSH2 0x2780 DUP5 DUP3 DUP6 ADD PUSH2 0x25D8 JUMP JUMPDEST SWAP2 POP POP SWAP3 SWAP2 POP POP JUMP JUMPDEST PUSH1 0x0 DUP1 PUSH1 0x40 DUP4 DUP6 SUB SLT ISZERO PUSH2 0x27A0 JUMPI PUSH2 0x279F PUSH2 0x33C0 JUMP JUMPDEST JUMPDEST PUSH1 0x0 PUSH2 0x27AE DUP6 DUP3 DUP7 ADD PUSH2 0x25C3 JUMP JUMPDEST SWAP3 POP POP PUSH1 0x20 PUSH2 0x27BF DUP6 DUP3 DUP7 ADD PUSH2 0x2599 JUMP JUMPDEST SWAP2 POP POP SWAP3 POP SWAP3 SWAP1 POP JUMP JUMPDEST PUSH1 0x0 DUP1 PUSH1 0x0 PUSH1 0x60 DUP5 DUP7 SUB SLT ISZERO PUSH2 0x27E2 JUMPI PUSH2 0x27E1 PUSH2 0x33C0 JUMP JUMPDEST JUMPDEST PUSH1 0x0 PUSH2 0x27F0 DUP7 DUP3 DUP8 ADD PUSH2 0x25C3 JUMP JUMPDEST SWAP4 POP POP PUSH1 0x20 PUSH2 0x2801 DUP7 DUP3 DUP8 ADD PUSH2 0x2599 JUMP JUMPDEST SWAP3 POP POP PUSH1 0x40 PUSH2 0x2812 DUP7 DUP3 DUP8 ADD PUSH2 0x2599 JUMP JUMPDEST SWAP2 POP POP SWAP3 POP SWAP3 POP SWAP3 JUMP JUMPDEST PUSH1 0x0 PUSH1 0x20 DUP3 DUP5 SUB SLT ISZERO PUSH2 0x2832 JUMPI PUSH2 0x2831 PUSH2 0x33C0 JUMP JUMPDEST JUMPDEST PUSH1 0x0 PUSH2 0x2840 DUP5 DUP3 DUP6 ADD PUSH2 0x25ED JUMP JUMPDEST SWAP2 POP POP SWAP3 SWAP2 POP POP JUMP JUMPDEST PUSH2 0x2852 DUP2 PUSH2 0x32DA JUMP JUMPDEST DUP3 MSTORE POP POP JUMP JUMPDEST PUSH2 0x2861 DUP2 PUSH2 0x32EC JUMP JUMPDEST DUP3 MSTORE POP POP JUMP JUMPDEST PUSH1 0x0 PUSH2 0x2872 DUP3 PUSH2 0x3022 JUMP JUMPDEST PUSH2 0x287C DUP2 DUP6 PUSH2 0x3038 JUMP JUMPDEST SWAP4 POP PUSH2 0x288C DUP2 DUP6 PUSH1 0x20 DUP7 ADD PUSH2 0x332F JUMP JUMPDEST DUP1 DUP5 ADD SWAP2 POP POP SWAP3 SWAP2 POP POP JUMP JUMPDEST PUSH1 0x0 PUSH2 0x28A3 DUP3 PUSH2 0x302D JUMP JUMPDEST PUSH2 0x28AD DUP2 DUP6 PUSH2 0x3043 JUMP JUMPDEST SWAP4 POP PUSH2 0x28BD DUP2 DUP6 PUSH1 0x20 DUP7 ADD PUSH2 0x332F JUMP JUMPDEST PUSH2 0x28C6 DUP2 PUSH2 0x33C5 JUMP JUMPDEST DUP5 ADD SWAP2 POP POP SWAP3 SWAP2 POP POP JUMP JUMPDEST PUSH1 0x0 PUSH2 0x28DE PUSH1 0x23 DUP4 PUSH2 0x3043 JUMP JUMPDEST SWAP2 POP PUSH2 0x28E9 DUP3 PUSH2 0x33E3 JUMP JUMPDEST PUSH1 0x40 DUP3 ADD SWAP1 POP SWAP2 SWAP1 POP JUMP JUMPDEST PUSH1 0x0 PUSH2 0x2901 PUSH1 0x22 DUP4 PUSH2 0x3043 JUMP JUMPDEST SWAP2 POP PUSH2 0x290C DUP3 PUSH2 0x3432 JUMP JUMPDEST PUSH1 0x40 DUP3 ADD SWAP1 POP SWAP2 SWAP1 POP JUMP JUMPDEST PUSH1 0x0 PUSH2 0x2924 PUSH1 0x22 DUP4 PUSH2 0x3043 JUMP JUMPDEST SWAP2 POP PUSH2 0x292F DUP3 PUSH2 0x3481 JUMP JUMPDEST PUSH1 0x40 DUP3 ADD SWAP1 POP SWAP2 SWAP1 POP JUMP JUMPDEST PUSH1 0x0 PUSH2 0x2947 PUSH1 0x1A DUP4 PUSH2 0x3043 JUMP JUMPDEST SWAP2 POP PUSH2 0x2952 DUP3 PUSH2 0x34D0 JUMP JUMPDEST PUSH1 0x20 DUP3 ADD SWAP1 POP SWAP2 SWAP1 POP JUMP JUMPDEST PUSH1 0x0 PUSH2 0x296A PUSH1 0x1D DUP4 PUSH2 0x3043 JUMP JUMPDEST SWAP2 POP PUSH2 0x2975 DUP3 PUSH2 0x34F9 JUMP JUMPDEST PUSH1 0x20 DUP3 ADD SWAP1 POP SWAP2 SWAP1 POP JUMP JUMPDEST PUSH1 0x0 PUSH2 0x298D PUSH1 0x26 DUP4 PUSH2 0x3043 JUMP JUMPDEST SWAP2 POP PUSH2 0x2998 DUP3 PUSH2 0x3522 JUMP JUMPDEST PUSH1 0x40 DUP3 ADD SWAP1 POP SWAP2 SWAP1 POP JUMP JUMPDEST PUSH1 0x0 PUSH2 0x29B0 PUSH1 0x1E DUP4 PUSH2 0x3043 JUMP JUMPDEST SWAP2 POP PUSH2 0x29BB DUP3 PUSH2 0x3571 JUMP JUMPDEST PUSH1 0x20 DUP3 ADD SWAP1 POP SWAP2 SWAP1 POP JUMP JUMPDEST PUSH1 0x0 PUSH2 0x29D3 PUSH1 0x26 DUP4 PUSH2 0x3043 JUMP JUMPDEST SWAP2 POP PUSH2 0x29DE DUP3 PUSH2 0x359A JUMP JUMPDEST PUSH1 0x40 DUP3 ADD SWAP1 POP SWAP2 SWAP1 POP JUMP JUMPDEST PUSH1 0x0 PUSH2 0x29F6 PUSH1 0x1A DUP4 PUSH2 0x3043 JUMP JUMPDEST SWAP2 POP PUSH2 0x2A01 DUP3 PUSH2 0x35E9 JUMP JUMPDEST PUSH1 0x20 DUP3 ADD SWAP1 POP SWAP2 SWAP1 POP JUMP JUMPDEST PUSH1 0x0 PUSH2 0x2A19 PUSH1 0x2E DUP4 PUSH2 0x3043 JUMP JUMPDEST SWAP2 POP PUSH2 0x2A24 DUP3 PUSH2 0x3612 JUMP JUMPDEST PUSH1 0x40 DUP3 ADD SWAP1 POP SWAP2 SWAP1 POP JUMP JUMPDEST PUSH1 0x0 PUSH2 0x2A3C PUSH1 0x28 DUP4 PUSH2 0x3043 JUMP JUMPDEST SWAP2 POP PUSH2 0x2A47 DUP3 PUSH2 0x3661 JUMP JUMPDEST PUSH1 0x40 DUP3 ADD SWAP1 POP SWAP2 SWAP1 POP JUMP JUMPDEST PUSH1 0x0 PUSH2 0x2A5F PUSH1 0x1D DUP4 PUSH2 0x3043 JUMP JUMPDEST SWAP2 POP PUSH2 0x2A6A DUP3 PUSH2 0x36B0 JUMP JUMPDEST PUSH1 0x20 DUP3 ADD SWAP1 POP SWAP2 SWAP1 POP JUMP JUMPDEST PUSH1 0x0 PUSH2 0x2A82 PUSH1 0x21 DUP4 PUSH2 0x3043 JUMP JUMPDEST SWAP2 POP PUSH2 0x2A8D DUP3 PUSH2 0x36D9 JUMP JUMPDEST PUSH1 0x40 DUP3 ADD SWAP1 POP SWAP2 SWAP1 POP JUMP JUMPDEST PUSH1 0x0 PUSH2 0x2AA5 PUSH1 0x25 DUP4 PUSH2 0x3043 JUMP JUMPDEST SWAP2 POP PUSH2 0x2AB0 DUP3 PUSH2 0x3728 JUMP JUMPDEST PUSH1 0x40 DUP3 ADD SWAP1 POP SWAP2 SWAP1 POP JUMP JUMPDEST PUSH1 0x0 PUSH2 0x2AC8 PUSH1 0x13 DUP4 PUSH2 0x3043 JUMP JUMPDEST SWAP2 POP PUSH2 0x2AD3 DUP3 PUSH2 0x3777 JUMP JUMPDEST PUSH1 0x20 DUP3 ADD SWAP1 POP SWAP2 SWAP1 POP JUMP JUMPDEST PUSH1 0x0 PUSH2 0x2AEB PUSH1 0x24 DUP4 PUSH2 0x3043 JUMP JUMPDEST SWAP2 POP PUSH2 0x2AF6 DUP3 PUSH2 0x37A0 JUMP JUMPDEST PUSH1 0x40 DUP3 ADD SWAP1 POP SWAP2 SWAP1 POP JUMP JUMPDEST PUSH1 0x0 PUSH2 0x2B0E PUSH1 0x1D DUP4 PUSH2 0x3043 JUMP JUMPDEST SWAP2 POP PUSH2 0x2B19 DUP3 PUSH2 0x37EF JUMP JUMPDEST PUSH1 0x20 DUP3 ADD SWAP1 POP SWAP2 SWAP1 POP JUMP JUMPDEST PUSH1 0x0 PUSH2 0x2B31 PUSH1 0x1F DUP4 PUSH2 0x3043 JUMP JUMPDEST SWAP2 POP PUSH2 0x2B3C DUP3 PUSH2 0x3818 JUMP JUMPDEST PUSH1 0x20 DUP3 ADD SWAP1 POP SWAP2 SWAP1 POP JUMP JUMPDEST PUSH1 0x0 PUSH2 0x2B54 PUSH1 0x2A DUP4 PUSH2 0x3043 JUMP JUMPDEST SWAP2 POP PUSH2 0x2B5F DUP3 PUSH2 0x3841 JUMP JUMPDEST PUSH1 0x40 DUP3 ADD SWAP1 POP SWAP2 SWAP1 POP JUMP JUMPDEST PUSH1 0x0 PUSH2 0x2B77 PUSH1 0x1B DUP4 PUSH2 0x3043 JUMP JUMPDEST SWAP2 POP PUSH2 0x2B82 DUP3 PUSH2 0x3890 JUMP JUMPDEST PUSH1 0x20 DUP3 ADD SWAP1 POP SWAP2 SWAP1 POP JUMP JUMPDEST PUSH1 0x0 PUSH2 0x2B9A PUSH1 0x30 DUP4 PUSH2 0x3043 JUMP JUMPDEST SWAP2 POP PUSH2 0x2BA5 DUP3 PUSH2 0x38B9 JUMP JUMPDEST PUSH1 0x40 DUP3 ADD SWAP1 POP SWAP2 SWAP1 POP JUMP JUMPDEST PUSH1 0x0 PUSH2 0x2BBD PUSH1 0x25 DUP4 PUSH2 0x3043 JUMP JUMPDEST SWAP2 POP PUSH2 0x2BC8 DUP3 PUSH2 0x3908 JUMP JUMPDEST PUSH1 0x40 DUP3 ADD SWAP1 POP SWAP2 SWAP1 POP JUMP JUMPDEST PUSH1 0x0 PUSH2 0x2BE0 PUSH1 0x1F DUP4 PUSH2 0x3043 JUMP JUMPDEST SWAP2 POP PUSH2 0x2BEB DUP3 PUSH2 0x3957 JUMP JUMPDEST PUSH1 0x20 DUP3 ADD SWAP1 POP SWAP2 SWAP1 POP JUMP JUMPDEST PUSH2 0x2BFF DUP2 PUSH2 0x3318 JUMP JUMPDEST DUP3 MSTORE POP POP JUMP JUMPDEST PUSH2 0x2C0E DUP2 PUSH2 0x3322 JUMP JUMPDEST DUP3 MSTORE POP POP JUMP JUMPDEST PUSH1 0x0 PUSH2 0x2C20 DUP3 DUP5 PUSH2 0x2867 JUMP JUMPDEST SWAP2 POP DUP2 SWAP1 POP SWAP3 SWAP2 POP POP JUMP JUMPDEST PUSH1 0x0 PUSH1 0x20 DUP3 ADD SWAP1 POP PUSH2 0x2C40 PUSH1 0x0 DUP4 ADD DUP5 PUSH2 0x2849 JUMP JUMPDEST SWAP3 SWAP2 POP POP JUMP JUMPDEST PUSH1 0x0 PUSH1 0x60 DUP3 ADD SWAP1 POP PUSH2 0x2C5B PUSH1 0x0 DUP4 ADD DUP7 PUSH2 0x2849 JUMP JUMPDEST PUSH2 0x2C68 PUSH1 0x20 DUP4 ADD DUP6 PUSH2 0x2849 JUMP JUMPDEST PUSH2 0x2C75 PUSH1 0x40 DUP4 ADD DUP5 PUSH2 0x2BF6 JUMP JUMPDEST SWAP5 SWAP4 POP POP POP POP JUMP JUMPDEST PUSH1 0x0 PUSH1 0x40 DUP3 ADD SWAP1 POP PUSH2 0x2C92 PUSH1 0x0 DUP4 ADD DUP6 PUSH2 0x2849 JUMP JUMPDEST PUSH2 0x2C9F PUSH1 0x20 DUP4 ADD DUP5 PUSH2 0x2BF6 JUMP JUMPDEST SWAP4 SWAP3 POP POP POP JUMP JUMPDEST PUSH1 0x0 PUSH1 0x20 DUP3 ADD SWAP1 POP PUSH2 0x2CBB PUSH1 0x0 DUP4 ADD DUP5 PUSH2 0x2858 JUMP JUMPDEST SWAP3 SWAP2 POP POP JUMP JUMPDEST PUSH1 0x0 PUSH1 0x20 DUP3 ADD SWAP1 POP DUP2 DUP2 SUB PUSH1 0x0 DUP4 ADD MSTORE PUSH2 0x2CDB DUP2 DUP5 PUSH2 0x2898 JUMP JUMPDEST SWAP1 POP SWAP3 SWAP2 POP POP JUMP JUMPDEST PUSH1 0x0 PUSH1 0x20 DUP3 ADD SWAP1 POP DUP2 DUP2 SUB PUSH1 0x0 DUP4 ADD MSTORE PUSH2 0x2CFC DUP2 PUSH2 0x28D1 JUMP JUMPDEST SWAP1 POP SWAP2 SWAP1 POP JUMP JUMPDEST PUSH1 0x0 PUSH1 0x20 DUP3 ADD SWAP1 POP DUP2 DUP2 SUB PUSH1 0x0 DUP4 ADD MSTORE PUSH2 0x2D1C DUP2 PUSH2 0x28F4 JUMP JUMPDEST SWAP1 POP SWAP2 SWAP1 POP JUMP JUMPDEST PUSH1 0x0 PUSH1 0x20 DUP3 ADD SWAP1 POP DUP2 DUP2 SUB PUSH1 0x0 DUP4 ADD MSTORE PUSH2 0x2D3C DUP2 PUSH2 0x2917 JUMP JUMPDEST SWAP1 POP SWAP2 SWAP1 POP JUMP JUMPDEST PUSH1 0x0 PUSH1 0x20 DUP3 ADD SWAP1 POP DUP2 DUP2 SUB PUSH1 0x0 DUP4 ADD MSTORE PUSH2 0x2D5C DUP2 PUSH2 0x293A JUMP JUMPDEST SWAP1 POP SWAP2 SWAP1 POP JUMP JUMPDEST PUSH1 0x0 PUSH1 0x20 DUP3 ADD SWAP1 POP DUP2 DUP2 SUB PUSH1 0x0 DUP4 ADD MSTORE PUSH2 0x2D7C DUP2 PUSH2 0x295D JUMP JUMPDEST SWAP1 POP SWAP2 SWAP1 POP JUMP JUMPDEST PUSH1 0x0 PUSH1 0x20 DUP3 ADD SWAP1 POP DUP2 DUP2 SUB PUSH1 0x0 DUP4 ADD MSTORE PUSH2 0x2D9C DUP2 PUSH2 0x2980 JUMP JUMPDEST SWAP1 POP SWAP2 SWAP1 POP JUMP JUMPDEST PUSH1 0x0 PUSH1 0x20 DUP3 ADD SWAP1 POP DUP2 DUP2 SUB PUSH1 0x0 DUP4 ADD MSTORE PUSH2 0x2DBC DUP2 PUSH2 0x29A3 JUMP JUMPDEST SWAP1 POP SWAP2 SWAP1 POP JUMP JUMPDEST PUSH1 0x0 PUSH1 0x20 DUP3 ADD SWAP1 POP DUP2 DUP2 SUB PUSH1 0x0 DUP4 ADD MSTORE PUSH2 0x2DDC DUP2 PUSH2 0x29C6 JUMP JUMPDEST SWAP1 POP SWAP2 SWAP1 POP JUMP JUMPDEST PUSH1 0x0 PUSH1 0x20 DUP3 ADD SWAP1 POP DUP2 DUP2 SUB PUSH1 0x0 DUP4 ADD MSTORE PUSH2 0x2DFC DUP2 PUSH2 0x29E9 JUMP JUMPDEST SWAP1 POP SWAP2 SWAP1 POP JUMP JUMPDEST PUSH1 0x0 PUSH1 0x20 DUP3 ADD SWAP1 POP DUP2 DUP2 SUB PUSH1 0x0 DUP4 ADD MSTORE PUSH2 0x2E1C DUP2 PUSH2 0x2A0C JUMP JUMPDEST SWAP1 POP SWAP2 SWAP1 POP JUMP JUMPDEST PUSH1 0x0 PUSH1 0x20 DUP3 ADD SWAP1 POP DUP2 DUP2 SUB PUSH1 0x0 DUP4 ADD MSTORE PUSH2 0x2E3C DUP2 PUSH2 0x2A2F JUMP JUMPDEST SWAP1 POP SWAP2 SWAP1 POP JUMP JUMPDEST PUSH1 0x0 PUSH1 0x20 DUP3 ADD SWAP1 POP DUP2 DUP2 SUB PUSH1 0x0 DUP4 ADD MSTORE PUSH2 0x2E5C DUP2 PUSH2 0x2A52 JUMP JUMPDEST SWAP1 POP SWAP2 SWAP1 POP JUMP JUMPDEST PUSH1 0x0 PUSH1 0x20 DUP3 ADD SWAP1 POP DUP2 DUP2 SUB PUSH1 0x0 DUP4 ADD MSTORE PUSH2 0x2E7C DUP2 PUSH2 0x2A75 JUMP JUMPDEST SWAP1 POP SWAP2 SWAP1 POP JUMP JUMPDEST PUSH1 0x0 PUSH1 0x20 DUP3 ADD SWAP1 POP DUP2 DUP2 SUB PUSH1 0x0 DUP4 ADD MSTORE PUSH2 0x2E9C DUP2 PUSH2 0x2A98 JUMP JUMPDEST SWAP1 POP SWAP2 SWAP1 POP JUMP JUMPDEST PUSH1 0x0 PUSH1 0x20 DUP3 ADD SWAP1 POP DUP2 DUP2 SUB PUSH1 0x0 DUP4 ADD MSTORE PUSH2 0x2EBC DUP2 PUSH2 0x2ABB JUMP JUMPDEST SWAP1 POP SWAP2 SWAP1 POP JUMP JUMPDEST PUSH1 0x0 PUSH1 0x20 DUP3 ADD SWAP1 POP DUP2 DUP2 SUB PUSH1 0x0 DUP4 ADD MSTORE PUSH2 0x2EDC DUP2 PUSH2 0x2ADE JUMP JUMPDEST SWAP1 POP SWAP2 SWAP1 POP JUMP JUMPDEST PUSH1 0x0 PUSH1 0x20 DUP3 ADD SWAP1 POP DUP2 DUP2 SUB PUSH1 0x0 DUP4 ADD MSTORE PUSH2 0x2EFC DUP2 PUSH2 0x2B01 JUMP JUMPDEST SWAP1 POP SWAP2 SWAP1 POP JUMP JUMPDEST PUSH1 0x0 PUSH1 0x20 DUP3 ADD SWAP1 POP DUP2 DUP2 SUB PUSH1 0x0 DUP4 ADD MSTORE PUSH2 0x2F1C DUP2 PUSH2 0x2B24 JUMP JUMPDEST SWAP1 POP SWAP2 SWAP1 POP JUMP JUMPDEST PUSH1 0x0 PUSH1 0x20 DUP3 ADD SWAP1 POP DUP2 DUP2 SUB PUSH1 0x0 DUP4 ADD MSTORE PUSH2 0x2F3C DUP2 PUSH2 0x2B47 JUMP JUMPDEST SWAP1 POP SWAP2 SWAP1 POP JUMP JUMPDEST PUSH1 0x0 PUSH1 0x20 DUP3 ADD SWAP1 POP DUP2 DUP2 SUB PUSH1 0x0 DUP4 ADD MSTORE PUSH2 0x2F5C DUP2 PUSH2 0x2B6A JUMP JUMPDEST SWAP1 POP SWAP2 SWAP1 POP JUMP JUMPDEST PUSH1 0x0 PUSH1 0x20 DUP3 ADD SWAP1 POP DUP2 DUP2 SUB PUSH1 0x0 DUP4 ADD MSTORE PUSH2 0x2F7C DUP2 PUSH2 0x2B8D JUMP JUMPDEST SWAP1 POP SWAP2 SWAP1 POP JUMP JUMPDEST PUSH1 0x0 PUSH1 0x20 DUP3 ADD SWAP1 POP DUP2 DUP2 SUB PUSH1 0x0 DUP4 ADD MSTORE PUSH2 0x2F9C DUP2 PUSH2 0x2BB0 JUMP JUMPDEST SWAP1 POP SWAP2 SWAP1 POP JUMP JUMPDEST PUSH1 0x0 PUSH1 0x20 DUP3 ADD SWAP1 POP DUP2 DUP2 SUB PUSH1 0x0 DUP4 ADD MSTORE PUSH2 0x2FBC DUP2 PUSH2 0x2BD3 JUMP JUMPDEST SWAP1 POP SWAP2 SWAP1 POP JUMP JUMPDEST PUSH1 0x0 PUSH1 0x20 DUP3 ADD SWAP1 POP PUSH2 0x2FD8 PUSH1 0x0 DUP4 ADD DUP5 PUSH2 0x2BF6 JUMP JUMPDEST SWAP3 SWAP2 POP POP JUMP JUMPDEST PUSH1 0x0 PUSH1 0x40 DUP3 ADD SWAP1 POP PUSH2 0x2FF3 PUSH1 0x0 DUP4 ADD DUP6 PUSH2 0x2BF6 JUMP JUMPDEST PUSH2 0x3000 PUSH1 0x20 DUP4 ADD DUP5 PUSH2 0x2BF6 JUMP JUMPDEST SWAP4 SWAP3 POP POP POP JUMP JUMPDEST PUSH1 0x0 PUSH1 0x20 DUP3 ADD SWAP1 POP PUSH2 0x301C PUSH1 0x0 DUP4 ADD DUP5 PUSH2 0x2C05 JUMP JUMPDEST SWAP3 SWAP2 POP POP JUMP JUMPDEST PUSH1 0x0 DUP2 MLOAD SWAP1 POP SWAP2 SWAP1 POP JUMP JUMPDEST PUSH1 0x0 DUP2 MLOAD SWAP1 POP SWAP2 SWAP1 POP JUMP JUMPDEST PUSH1 0x0 DUP2 SWAP1 POP SWAP3 SWAP2 POP POP JUMP JUMPDEST PUSH1 0x0 DUP3 DUP3 MSTORE PUSH1 0x20 DUP3 ADD SWAP1 POP SWAP3 SWAP2 POP POP JUMP JUMPDEST PUSH1 0x0 PUSH2 0x305F DUP3 PUSH2 0x3318 JUMP JUMPDEST SWAP2 POP PUSH2 0x306A DUP4 PUSH2 0x3318 JUMP JUMPDEST SWAP3 POP DUP3 PUSH32 0xFFFFFFFFFFFFFFFFFFFFFFFFFFFFFFFFFFFFFFFFFFFFFFFFFFFFFFFFFFFFFFFF SUB DUP3 GT ISZERO PUSH2 0x309F JUMPI PUSH2 0x309E PUSH2 0x3362 JUMP JUMPDEST JUMPDEST DUP3 DUP3 ADD SWAP1 POP SWAP3 SWAP2 POP POP JUMP JUMPDEST PUSH1 0x0 PUSH2 0x30B5 DUP3 PUSH2 0x3318 JUMP JUMPDEST SWAP2 POP PUSH2 0x30C0 DUP4 PUSH2 0x3318 JUMP JUMPDEST SWAP3 POP DUP3 PUSH2 0x30D0 JUMPI PUSH2 0x30CF PUSH2 0x3391 JUMP JUMPDEST JUMPDEST DUP3 DUP3 DIV SWAP1 POP SWAP3 SWAP2 POP POP JUMP JUMPDEST PUSH1 0x0 DUP1 DUP3 SWAP2 POP DUP4 SWAP1 POP JUMPDEST PUSH1 0x1 DUP6 GT ISZERO PUSH2 0x3125 JUMPI DUP1 DUP7 DIV DUP2 GT ISZERO PUSH2 0x3101 JUMPI PUSH2 0x3100 PUSH2 0x3362 JUMP JUMPDEST JUMPDEST PUSH1 0x1 DUP6 AND ISZERO PUSH2 0x3110 JUMPI DUP1 DUP3 MUL SWAP2 POP JUMPDEST DUP1 DUP2 MUL SWAP1 POP PUSH2 0x311E DUP6 PUSH2 0x33D6 JUMP JUMPDEST SWAP5 POP PUSH2 0x30E5 JUMP JUMPDEST SWAP5 POP SWAP5 SWAP3 POP POP POP JUMP JUMPDEST PUSH1 0x0 PUSH2 0x3139 DUP3 PUSH2 0x3318 JUMP JUMPDEST SWAP2 POP PUSH2 0x3144 DUP4 PUSH2 0x3322 JUMP JUMPDEST SWAP3 POP PUSH2 0x3171 PUSH32 0xFFFFFFFFFFFFFFFFFFFFFFFFFFFFFFFFFFFFFFFFFFFFFFFFFFFFFFFFFFFFFFFF DUP5 DUP5 PUSH2 0x3179 JUMP JUMPDEST SWAP1 POP SWAP3 SWAP2 POP POP JUMP JUMPDEST PUSH1 0x0 DUP3 PUSH2 0x3189 JUMPI PUSH1 0x1 SWAP1 POP PUSH2 0x3245 JUMP JUMPDEST DUP2 PUSH2 0x3197 JUMPI PUSH1 0x0 SWAP1 POP PUSH2 0x3245 JUMP JUMPDEST DUP2 PUSH1 0x1 DUP2 EQ PUSH2 0x31AD JUMPI PUSH1 0x2 DUP2 EQ PUSH2 0x31B7 JUMPI PUSH2 0x31E6 JUMP JUMPDEST PUSH1 0x1 SWAP2 POP POP PUSH2 0x3245 JUMP JUMPDEST PUSH1 0xFF DUP5 GT ISZERO PUSH2 0x31C9 JUMPI PUSH2 0x31C8 PUSH2 0x3362 JUMP JUMPDEST JUMPDEST DUP4 PUSH1 0x2 EXP SWAP2 POP DUP5 DUP3 GT ISZERO PUSH2 0x31E0 JUMPI PUSH2 0x31DF PUSH2 0x3362 JUMP JUMPDEST JUMPDEST POP PUSH2 0x3245 JUMP JUMPDEST POP PUSH1 0x20 DUP4 LT PUSH2 0x133 DUP4 LT AND PUSH1 0x4E DUP5 LT PUSH1 0xB DUP5 LT AND OR ISZERO PUSH2 0x321B JUMPI DUP3 DUP3 EXP SWAP1 POP DUP4 DUP2 GT ISZERO PUSH2 0x3216 JUMPI PUSH2 0x3215 PUSH2 0x3362 JUMP JUMPDEST JUMPDEST PUSH2 0x3245 JUMP JUMPDEST PUSH2 0x3228 DUP5 DUP5 DUP5 PUSH1 0x1 PUSH2 0x30DB JUMP JUMPDEST SWAP3 POP SWAP1 POP DUP2 DUP5 DIV DUP2 GT ISZERO PUSH2 0x323F JUMPI PUSH2 0x323E PUSH2 0x3362 JUMP JUMPDEST JUMPDEST DUP2 DUP2 MUL SWAP1 POP JUMPDEST SWAP4 SWAP3 POP POP POP JUMP JUMPDEST PUSH1 0x0 PUSH2 0x3257 DUP3 PUSH2 0x3318 JUMP JUMPDEST SWAP2 POP PUSH2 0x3262 DUP4 PUSH2 0x3318 JUMP JUMPDEST SWAP3 POP DUP2 PUSH32 0xFFFFFFFFFFFFFFFFFFFFFFFFFFFFFFFFFFFFFFFFFFFFFFFFFFFFFFFFFFFFFFFF DIV DUP4 GT DUP3 ISZERO ISZERO AND ISZERO PUSH2 0x329B JUMPI PUSH2 0x329A PUSH2 0x3362 JUMP JUMPDEST JUMPDEST DUP3 DUP3 MUL SWAP1 POP SWAP3 SWAP2 POP POP JUMP JUMPDEST PUSH1 0x0 PUSH2 0x32B1 DUP3 PUSH2 0x3318 JUMP JUMPDEST SWAP2 POP PUSH2 0x32BC DUP4 PUSH2 0x3318 JUMP JUMPDEST SWAP3 POP DUP3 DUP3 LT ISZERO PUSH2 0x32CF JUMPI PUSH2 0x32CE PUSH2 0x3362 JUMP JUMPDEST JUMPDEST DUP3 DUP3 SUB SWAP1 POP SWAP3 SWAP2 POP POP JUMP JUMPDEST PUSH1 0x0 PUSH2 0x32E5 DUP3 PUSH2 0x32F8 JUMP JUMPDEST SWAP1 POP SWAP2 SWAP1 POP JUMP JUMPDEST PUSH1 0x0 DUP2 ISZERO ISZERO SWAP1 POP SWAP2 SWAP1 POP JUMP JUMPDEST PUSH1 0x0 PUSH20 0xFFFFFFFFFFFFFFFFFFFFFFFFFFFFFFFFFFFFFFFF DUP3 AND SWAP1 POP SWAP2 SWAP1 POP JUMP JUMPDEST PUSH1 0x0 DUP2 SWAP1 POP SWAP2 SWAP1 POP JUMP JUMPDEST PUSH1 0x0 PUSH1 0xFF DUP3 AND SWAP1 POP SWAP2 SWAP1 POP JUMP JUMPDEST PUSH1 0x0 JUMPDEST DUP4 DUP2 LT ISZERO PUSH2 0x334D JUMPI DUP1 DUP3 ADD MLOAD DUP2 DUP5 ADD MSTORE PUSH1 0x20 DUP2 ADD SWAP1 POP PUSH2 0x3332 JUMP JUMPDEST DUP4 DUP2 GT ISZERO PUSH2 0x335C JUMPI PUSH1 0x0 DUP5 DUP5 ADD MSTORE JUMPDEST POP POP POP POP JUMP JUMPDEST PUSH32 0x4E487B7100000000000000000000000000000000000000000000000000000000 PUSH1 0x0 MSTORE PUSH1 0x11 PUSH1 0x4 MSTORE PUSH1 0x24 PUSH1 0x0 REVERT JUMPDEST PUSH32 0x4E487B7100000000000000000000000000000000000000000000000000000000 PUSH1 0x0 MSTORE PUSH1 0x12 PUSH1 0x4 MSTORE PUSH1 0x24 PUSH1 0x0 REVERT JUMPDEST PUSH1 0x0 DUP1 REVERT JUMPDEST PUSH1 0x0 PUSH1 0x1F NOT PUSH1 0x1F DUP4 ADD AND SWAP1 POP SWAP2 SWAP1 POP JUMP JUMPDEST PUSH1 0x0 DUP2 PUSH1 0x1 SHR SWAP1 POP SWAP2 SWAP1 POP JUMP JUMPDEST PUSH32 0x45524332303A207472616E7366657220746F20746865207A65726F2061646472 PUSH1 0x0 DUP3 ADD MSTORE PUSH32 0x6573730000000000000000000000000000000000000000000000000000000000 PUSH1 0x20 DUP3 ADD MSTORE POP JUMP JUMPDEST PUSH32 0x45524332303A206275726E20616D6F756E7420657863656564732062616C616E PUSH1 0x0 DUP3 ADD MSTORE PUSH32 0x6365000000000000000000000000000000000000000000000000000000000000 PUSH1 0x20 DUP3 ADD MSTORE POP JUMP JUMPDEST PUSH32 0x45524332303A20617070726F766520746F20746865207A65726F206164647265 PUSH1 0x0 DUP3 ADD MSTORE PUSH32 0x7373000000000000000000000000000000000000000000000000000000000000 PUSH1 0x20 DUP3 ADD MSTORE POP JUMP JUMPDEST PUSH32 0x43616C6C6572206973206E6F742074686520476F7665726E6F72000000000000 PUSH1 0x0 DUP3 ADD MSTORE POP JUMP JUMPDEST PUSH32 0x45524332303A20696E73756666696369656E7420616C6C6F77616E6365000000 PUSH1 0x0 DUP3 ADD MSTORE POP JUMP JUMPDEST PUSH32 0x45524332303A207472616E7366657220616D6F756E7420657863656564732062 PUSH1 0x0 DUP3 ADD MSTORE PUSH32 0x616C616E63650000000000000000000000000000000000000000000000000000 PUSH1 0x20 DUP3 ADD MSTORE POP JUMP JUMPDEST PUSH32 0x455243343632363A206465706F736974206D6F7265207468656E206D61780000 PUSH1 0x0 DUP3 ADD MSTORE POP JUMP JUMPDEST PUSH32 0x416464726573733A20696E73756666696369656E742062616C616E636520666F PUSH1 0x0 DUP3 ADD MSTORE PUSH32 0x722063616C6C0000000000000000000000000000000000000000000000000000 PUSH1 0x20 DUP3 ADD MSTORE POP JUMP JUMPDEST PUSH32 0x4E657720476F7665726E6F722069732061646472657373283029000000000000 PUSH1 0x0 DUP3 ADD MSTORE POP JUMP JUMPDEST PUSH32 0x496E697469616C697A61626C653A20636F6E747261637420697320616C726561 PUSH1 0x0 DUP3 ADD MSTORE PUSH32 0x647920696E697469616C697A6564000000000000000000000000000000000000 PUSH1 0x20 DUP3 ADD MSTORE POP JUMP JUMPDEST PUSH32 0x45524332303A207472616E7366657220616D6F756E7420657863656564732061 PUSH1 0x0 DUP3 ADD MSTORE PUSH32 0x6C6C6F77616E6365000000000000000000000000000000000000000000000000 PUSH1 0x20 DUP3 ADD MSTORE POP JUMP JUMPDEST PUSH32 0x455243343632363A2072656465656D206D6F7265207468656E206D6178000000 PUSH1 0x0 DUP3 ADD MSTORE POP JUMP JUMPDEST PUSH32 0x45524332303A206275726E2066726F6D20746865207A65726F20616464726573 PUSH1 0x0 DUP3 ADD MSTORE PUSH32 0x7300000000000000000000000000000000000000000000000000000000000000 PUSH1 0x20 DUP3 ADD MSTORE POP JUMP JUMPDEST PUSH32 0x45524332303A207472616E736665722066726F6D20746865207A65726F206164 PUSH1 0x0 DUP3 ADD MSTORE PUSH32 0x6472657373000000000000000000000000000000000000000000000000000000 PUSH1 0x20 DUP3 ADD MSTORE POP JUMP JUMPDEST PUSH32 0x43616E6E6F7420636F6C6C656374204F55534400000000000000000000000000 PUSH1 0x0 DUP3 ADD MSTORE POP JUMP JUMPDEST PUSH32 0x45524332303A20617070726F76652066726F6D20746865207A65726F20616464 PUSH1 0x0 DUP3 ADD MSTORE PUSH32 0x7265737300000000000000000000000000000000000000000000000000000000 PUSH1 0x20 DUP3 ADD MSTORE POP JUMP JUMPDEST PUSH32 0x416464726573733A2063616C6C20746F206E6F6E2D636F6E7472616374000000 PUSH1 0x0 DUP3 ADD MSTORE POP JUMP JUMPDEST PUSH32 0x455243343632363A207769746864726177206D6F7265207468656E206D617800 PUSH1 0x0 DUP3 ADD MSTORE POP JUMP JUMPDEST PUSH32 0x5361666545524332303A204552433230206F7065726174696F6E20646964206E PUSH1 0x0 DUP3 ADD MSTORE PUSH32 0x6F74207375636365656400000000000000000000000000000000000000000000 PUSH1 0x20 DUP3 ADD MSTORE POP JUMP JUMPDEST PUSH32 0x455243343632363A206D696E74206D6F7265207468656E206D61780000000000 PUSH1 0x0 DUP3 ADD MSTORE POP JUMP JUMPDEST PUSH32 0x4F6E6C79207468652070656E64696E6720476F7665726E6F722063616E20636F PUSH1 0x0 DUP3 ADD MSTORE PUSH32 0x6D706C6574652074686520636C61696D00000000000000000000000000000000 PUSH1 0x20 DUP3 ADD MSTORE POP JUMP JUMPDEST PUSH32 0x45524332303A2064656372656173656420616C6C6F77616E63652062656C6F77 PUSH1 0x0 DUP3 ADD MSTORE PUSH32 0x207A65726F000000000000000000000000000000000000000000000000000000 PUSH1 0x20 DUP3 ADD MSTORE POP JUMP JUMPDEST PUSH32 0x45524332303A206D696E7420746F20746865207A65726F206164647265737300 PUSH1 0x0 DUP3 ADD MSTORE POP JUMP JUMPDEST PUSH2 0x3989 DUP2 PUSH2 0x32DA JUMP JUMPDEST DUP2 EQ PUSH2 0x3994 JUMPI PUSH1 0x0 DUP1 REVERT JUMPDEST POP JUMP JUMPDEST PUSH2 0x39A0 DUP2 PUSH2 0x32EC JUMP JUMPDEST DUP2 EQ PUSH2 0x39AB JUMPI PUSH1 0x0 DUP1 REVERT JUMPDEST POP JUMP JUMPDEST PUSH2 0x39B7 DUP2 PUSH2 0x3318 JUMP JUMPDEST DUP2 EQ PUSH2 0x39C2 JUMPI PUSH1 0x0 DUP1 REVERT JUMPDEST POP JUMP JUMPDEST PUSH2 0x39CE DUP2 PUSH2 0x3322 JUMP JUMPDEST DUP2 EQ PUSH2 0x39D9 JUMPI PUSH1 0x0 DUP1 REVERT JUMPDEST POP JUMP INVALID LOG2 PUSH5 0x6970667358 0x22 SLT KECCAK256 0xDE ADDRESS 0xD 0x22 PUSH30 0xFD601513CAECC9D92ACE5AF9BDDCE005384F5A498699DD03BC9E0A64736F PUSH13 0x63430008070033000000000000 "
		},
		"gasEstimates": {
			"creation": {
				"codeDepositCost": "2973200",
				"executionCost": "infinite",
				"totalCost": "infinite"
			},
			"external": {
				"allowance(address,address)": "infinite",
				"approve(address,uint256)": "infinite",
				"asset()": "infinite",
				"balanceOf(address)": "2887",
				"claimGovernance()": "28340",
				"convertToAssets(uint256)": "infinite",
				"convertToShares(uint256)": "infinite",
				"decimals()": "411",
				"decreaseAllowance(address,uint256)": "infinite",
				"deposit(uint256,address)": "infinite",
				"governor()": "2608",
				"increaseAllowance(address,uint256)": "infinite",
				"initialize()": "infinite",
				"isGovernor()": "2625",
				"maxDeposit(address)": "696",
				"maxMint(address)": "718",
				"maxRedeem(address)": "2972",
				"maxWithdraw(address)": "infinite",
				"mint(uint256,address)": "infinite",
				"name()": "infinite",
				"previewDeposit(uint256)": "infinite",
				"previewMint(uint256)": "infinite",
				"previewRedeem(uint256)": "infinite",
				"previewWithdraw(uint256)": "infinite",
				"redeem(uint256,address,address)": "infinite",
				"symbol()": "infinite",
				"totalAssets()": "infinite",
				"totalSupply()": "2549",
				"transfer(address,uint256)": "infinite",
				"transferFrom(address,address,uint256)": "infinite",
				"transferGovernance(address)": "infinite",
				"transferToken(address,uint256)": "infinite",
				"withdraw(uint256,address,address)": "infinite"
			}
		},
		"methodIdentifiers": {
			"allowance(address,address)": "dd62ed3e",
			"approve(address,uint256)": "095ea7b3",
			"asset()": "38d52e0f",
			"balanceOf(address)": "70a08231",
			"claimGovernance()": "5d36b190",
			"convertToAssets(uint256)": "07a2d13a",
			"convertToShares(uint256)": "c6e6f592",
			"decimals()": "313ce567",
			"decreaseAllowance(address,uint256)": "a457c2d7",
			"deposit(uint256,address)": "6e553f65",
			"governor()": "0c340a24",
			"increaseAllowance(address,uint256)": "39509351",
			"initialize()": "8129fc1c",
			"isGovernor()": "c7af3352",
			"maxDeposit(address)": "402d267d",
			"maxMint(address)": "c63d75b6",
			"maxRedeem(address)": "d905777e",
			"maxWithdraw(address)": "ce96cb77",
			"mint(uint256,address)": "94bf804d",
			"name()": "06fdde03",
			"previewDeposit(uint256)": "ef8b30f7",
			"previewMint(uint256)": "b3d7f6b9",
			"previewRedeem(uint256)": "4cdad506",
			"previewWithdraw(uint256)": "0a28a477",
			"redeem(uint256,address,address)": "ba087652",
			"symbol()": "95d89b41",
			"totalAssets()": "01e1d114",
			"totalSupply()": "18160ddd",
			"transfer(address,uint256)": "a9059cbb",
			"transferFrom(address,address,uint256)": "23b872dd",
			"transferGovernance(address)": "d38bfff4",
			"transferToken(address,uint256)": "1072cbea",
			"withdraw(uint256,address,address)": "b460af94"
		}
	},
	"abi": [
		{
			"inputs": [
				{
					"internalType": "contract ERC20",
					"name": "underlying_",
					"type": "address"
				},
				{
					"internalType": "string",
					"name": "name_",
					"type": "string"
				},
				{
					"internalType": "string",
					"name": "symbol_",
					"type": "string"
				}
			],
			"stateMutability": "nonpayable",
			"type": "constructor"
		},
		{
			"anonymous": false,
			"inputs": [
				{
					"indexed": true,
					"internalType": "address",
					"name": "owner",
					"type": "address"
				},
				{
					"indexed": true,
					"internalType": "address",
					"name": "spender",
					"type": "address"
				},
				{
					"indexed": false,
					"internalType": "uint256",
					"name": "value",
					"type": "uint256"
				}
			],
			"name": "Approval",
			"type": "event"
		},
		{
			"anonymous": false,
			"inputs": [
				{
					"indexed": true,
					"internalType": "address",
					"name": "caller",
					"type": "address"
				},
				{
					"indexed": true,
					"internalType": "address",
					"name": "owner",
					"type": "address"
				},
				{
					"indexed": false,
					"internalType": "uint256",
					"name": "assets",
					"type": "uint256"
				},
				{
					"indexed": false,
					"internalType": "uint256",
					"name": "shares",
					"type": "uint256"
				}
			],
			"name": "Deposit",
			"type": "event"
		},
		{
			"anonymous": false,
			"inputs": [
				{
					"indexed": true,
					"internalType": "address",
					"name": "previousGovernor",
					"type": "address"
				},
				{
					"indexed": true,
					"internalType": "address",
					"name": "newGovernor",
					"type": "address"
				}
			],
			"name": "GovernorshipTransferred",
			"type": "event"
		},
		{
			"anonymous": false,
			"inputs": [
				{
					"indexed": true,
					"internalType": "address",
					"name": "previousGovernor",
					"type": "address"
				},
				{
					"indexed": true,
					"internalType": "address",
					"name": "newGovernor",
					"type": "address"
				}
			],
			"name": "PendingGovernorshipTransfer",
			"type": "event"
		},
		{
			"anonymous": false,
			"inputs": [
				{
					"indexed": true,
					"internalType": "address",
					"name": "from",
					"type": "address"
				},
				{
					"indexed": true,
					"internalType": "address",
					"name": "to",
					"type": "address"
				},
				{
					"indexed": false,
					"internalType": "uint256",
					"name": "value",
					"type": "uint256"
				}
			],
			"name": "Transfer",
			"type": "event"
		},
		{
			"anonymous": false,
			"inputs": [
				{
					"indexed": true,
					"internalType": "address",
					"name": "caller",
					"type": "address"
				},
				{
					"indexed": true,
					"internalType": "address",
					"name": "receiver",
					"type": "address"
				},
				{
					"indexed": true,
					"internalType": "address",
					"name": "owner",
					"type": "address"
				},
				{
					"indexed": false,
					"internalType": "uint256",
					"name": "assets",
					"type": "uint256"
				},
				{
					"indexed": false,
					"internalType": "uint256",
					"name": "shares",
					"type": "uint256"
				}
			],
			"name": "Withdraw",
			"type": "event"
		},
		{
			"inputs": [
				{
					"internalType": "address",
					"name": "owner",
					"type": "address"
				},
				{
					"internalType": "address",
					"name": "spender",
					"type": "address"
				}
			],
			"name": "allowance",
			"outputs": [
				{
					"internalType": "uint256",
					"name": "",
					"type": "uint256"
				}
			],
			"stateMutability": "view",
			"type": "function"
		},
		{
			"inputs": [
				{
					"internalType": "address",
					"name": "spender",
					"type": "address"
				},
				{
					"internalType": "uint256",
					"name": "amount",
					"type": "uint256"
				}
			],
			"name": "approve",
			"outputs": [
				{
					"internalType": "bool",
					"name": "",
					"type": "bool"
				}
			],
			"stateMutability": "nonpayable",
			"type": "function"
		},
		{
			"inputs": [],
			"name": "asset",
			"outputs": [
				{
					"internalType": "address",
					"name": "",
					"type": "address"
				}
			],
			"stateMutability": "view",
			"type": "function"
		},
		{
			"inputs": [
				{
					"internalType": "address",
					"name": "account",
					"type": "address"
				}
			],
			"name": "balanceOf",
			"outputs": [
				{
					"internalType": "uint256",
					"name": "",
					"type": "uint256"
				}
			],
			"stateMutability": "view",
			"type": "function"
		},
		{
			"inputs": [],
			"name": "claimGovernance",
			"outputs": [],
			"stateMutability": "nonpayable",
			"type": "function"
		},
		{
			"inputs": [
				{
					"internalType": "uint256",
					"name": "shares",
					"type": "uint256"
				}
			],
			"name": "convertToAssets",
			"outputs": [
				{
					"internalType": "uint256",
					"name": "assets",
					"type": "uint256"
				}
			],
			"stateMutability": "view",
			"type": "function"
		},
		{
			"inputs": [
				{
					"internalType": "uint256",
					"name": "assets",
					"type": "uint256"
				}
			],
			"name": "convertToShares",
			"outputs": [
				{
					"internalType": "uint256",
					"name": "shares",
					"type": "uint256"
				}
			],
			"stateMutability": "view",
			"type": "function"
		},
		{
			"inputs": [],
			"name": "decimals",
			"outputs": [
				{
					"internalType": "uint8",
					"name": "",
					"type": "uint8"
				}
			],
			"stateMutability": "view",
			"type": "function"
		},
		{
			"inputs": [
				{
					"internalType": "address",
					"name": "spender",
					"type": "address"
				},
				{
					"internalType": "uint256",
					"name": "subtractedValue",
					"type": "uint256"
				}
			],
			"name": "decreaseAllowance",
			"outputs": [
				{
					"internalType": "bool",
					"name": "",
					"type": "bool"
				}
			],
			"stateMutability": "nonpayable",
			"type": "function"
		},
		{
			"inputs": [
				{
					"internalType": "uint256",
					"name": "assets",
					"type": "uint256"
				},
				{
					"internalType": "address",
					"name": "receiver",
					"type": "address"
				}
			],
			"name": "deposit",
			"outputs": [
				{
					"internalType": "uint256",
					"name": "",
					"type": "uint256"
				}
			],
			"stateMutability": "nonpayable",
			"type": "function"
		},
		{
			"inputs": [],
			"name": "governor",
			"outputs": [
				{
					"internalType": "address",
					"name": "",
					"type": "address"
				}
			],
			"stateMutability": "view",
			"type": "function"
		},
		{
			"inputs": [
				{
					"internalType": "address",
					"name": "spender",
					"type": "address"
				},
				{
					"internalType": "uint256",
					"name": "addedValue",
					"type": "uint256"
				}
			],
			"name": "increaseAllowance",
			"outputs": [
				{
					"internalType": "bool",
					"name": "",
					"type": "bool"
				}
			],
			"stateMutability": "nonpayable",
			"type": "function"
		},
		{
			"inputs": [],
			"name": "initialize",
			"outputs": [],
			"stateMutability": "nonpayable",
			"type": "function"
		},
		{
			"inputs": [],
			"name": "isGovernor",
			"outputs": [
				{
					"internalType": "bool",
					"name": "",
					"type": "bool"
				}
			],
			"stateMutability": "view",
			"type": "function"
		},
		{
			"inputs": [
				{
					"internalType": "address",
					"name": "",
					"type": "address"
				}
			],
			"name": "maxDeposit",
			"outputs": [
				{
					"internalType": "uint256",
					"name": "",
					"type": "uint256"
				}
			],
			"stateMutability": "view",
			"type": "function"
		},
		{
			"inputs": [
				{
					"internalType": "address",
					"name": "",
					"type": "address"
				}
			],
			"name": "maxMint",
			"outputs": [
				{
					"internalType": "uint256",
					"name": "",
					"type": "uint256"
				}
			],
			"stateMutability": "view",
			"type": "function"
		},
		{
			"inputs": [
				{
					"internalType": "address",
					"name": "owner",
					"type": "address"
				}
			],
			"name": "maxRedeem",
			"outputs": [
				{
					"internalType": "uint256",
					"name": "",
					"type": "uint256"
				}
			],
			"stateMutability": "view",
			"type": "function"
		},
		{
			"inputs": [
				{
					"internalType": "address",
					"name": "owner",
					"type": "address"
				}
			],
			"name": "maxWithdraw",
			"outputs": [
				{
					"internalType": "uint256",
					"name": "",
					"type": "uint256"
				}
			],
			"stateMutability": "view",
			"type": "function"
		},
		{
			"inputs": [
				{
					"internalType": "uint256",
					"name": "shares",
					"type": "uint256"
				},
				{
					"internalType": "address",
					"name": "receiver",
					"type": "address"
				}
			],
			"name": "mint",
			"outputs": [
				{
					"internalType": "uint256",
					"name": "",
					"type": "uint256"
				}
			],
			"stateMutability": "nonpayable",
			"type": "function"
		},
		{
			"inputs": [],
			"name": "name",
			"outputs": [
				{
					"internalType": "string",
					"name": "",
					"type": "string"
				}
			],
			"stateMutability": "view",
			"type": "function"
		},
		{
			"inputs": [
				{
					"internalType": "uint256",
					"name": "assets",
					"type": "uint256"
				}
			],
			"name": "previewDeposit",
			"outputs": [
				{
					"internalType": "uint256",
					"name": "",
					"type": "uint256"
				}
			],
			"stateMutability": "view",
			"type": "function"
		},
		{
			"inputs": [
				{
					"internalType": "uint256",
					"name": "shares",
					"type": "uint256"
				}
			],
			"name": "previewMint",
			"outputs": [
				{
					"internalType": "uint256",
					"name": "",
					"type": "uint256"
				}
			],
			"stateMutability": "view",
			"type": "function"
		},
		{
			"inputs": [
				{
					"internalType": "uint256",
					"name": "shares",
					"type": "uint256"
				}
			],
			"name": "previewRedeem",
			"outputs": [
				{
					"internalType": "uint256",
					"name": "",
					"type": "uint256"
				}
			],
			"stateMutability": "view",
			"type": "function"
		},
		{
			"inputs": [
				{
					"internalType": "uint256",
					"name": "assets",
					"type": "uint256"
				}
			],
			"name": "previewWithdraw",
			"outputs": [
				{
					"internalType": "uint256",
					"name": "",
					"type": "uint256"
				}
			],
			"stateMutability": "view",
			"type": "function"
		},
		{
			"inputs": [
				{
					"internalType": "uint256",
					"name": "shares",
					"type": "uint256"
				},
				{
					"internalType": "address",
					"name": "receiver",
					"type": "address"
				},
				{
					"internalType": "address",
					"name": "owner",
					"type": "address"
				}
			],
			"name": "redeem",
			"outputs": [
				{
					"internalType": "uint256",
					"name": "",
					"type": "uint256"
				}
			],
			"stateMutability": "nonpayable",
			"type": "function"
		},
		{
			"inputs": [],
			"name": "symbol",
			"outputs": [
				{
					"internalType": "string",
					"name": "",
					"type": "string"
				}
			],
			"stateMutability": "view",
			"type": "function"
		},
		{
			"inputs": [],
			"name": "totalAssets",
			"outputs": [
				{
					"internalType": "uint256",
					"name": "",
					"type": "uint256"
				}
			],
			"stateMutability": "view",
			"type": "function"
		},
		{
			"inputs": [],
			"name": "totalSupply",
			"outputs": [
				{
					"internalType": "uint256",
					"name": "",
					"type": "uint256"
				}
			],
			"stateMutability": "view",
			"type": "function"
		},
		{
			"inputs": [
				{
					"internalType": "address",
					"name": "recipient",
					"type": "address"
				},
				{
					"internalType": "uint256",
					"name": "amount",
					"type": "uint256"
				}
			],
			"name": "transfer",
			"outputs": [
				{
					"internalType": "bool",
					"name": "",
					"type": "bool"
				}
			],
			"stateMutability": "nonpayable",
			"type": "function"
		},
		{
			"inputs": [
				{
					"internalType": "address",
					"name": "sender",
					"type": "address"
				},
				{
					"internalType": "address",
					"name": "recipient",
					"type": "address"
				},
				{
					"internalType": "uint256",
					"name": "amount",
					"type": "uint256"
				}
			],
			"name": "transferFrom",
			"outputs": [
				{
					"internalType": "bool",
					"name": "",
					"type": "bool"
				}
			],
			"stateMutability": "nonpayable",
			"type": "function"
		},
		{
			"inputs": [
				{
					"internalType": "address",
					"name": "_newGovernor",
					"type": "address"
				}
			],
			"name": "transferGovernance",
			"outputs": [],
			"stateMutability": "nonpayable",
			"type": "function"
		},
		{
			"inputs": [
				{
					"internalType": "address",
					"name": "asset_",
					"type": "address"
				},
				{
					"internalType": "uint256",
					"name": "amount_",
					"type": "uint256"
				}
			],
			"name": "transferToken",
			"outputs": [],
			"stateMutability": "nonpayable",
			"type": "function"
		},
		{
			"inputs": [
				{
					"internalType": "uint256",
					"name": "assets",
					"type": "uint256"
				},
				{
					"internalType": "address",
					"name": "receiver",
					"type": "address"
				},
				{
					"internalType": "address",
					"name": "owner",
					"type": "address"
				}
			],
			"name": "withdraw",
			"outputs": [
				{
					"internalType": "uint256",
					"name": "",
					"type": "uint256"
				}
			],
			"stateMutability": "nonpayable",
			"type": "function"
		}
	]
}