{
  "address": "0x12Ad34421B1C1A360947f2eC587208b4a58531E8",
  "abi": [
    {
      "anonymous": false,
      "inputs": [
        {
          "indexed": true,
          "internalType": "address",
          "name": "_asset",
          "type": "address"
        },
        {
          "indexed": false,
          "internalType": "address",
          "name": "_pToken",
          "type": "address"
        },
        {
          "indexed": false,
          "internalType": "uint256",
          "name": "_amount",
          "type": "uint256"
        }
      ],
      "name": "Deposit",
      "type": "event"
    },
    {
      "anonymous": false,
      "inputs": [
        {
          "indexed": true,
          "internalType": "address",
          "name": "previousGovernor",
          "type": "address"
        },
        {
          "indexed": true,
          "internalType": "address",
          "name": "newGovernor",
          "type": "address"
        }
      ],
      "name": "GovernorshipTransferred",
      "type": "event"
    },
    {
      "anonymous": false,
      "inputs": [
        {
          "indexed": false,
          "internalType": "address",
          "name": "_oldHarvesterAddress",
          "type": "address"
        },
        {
          "indexed": false,
          "internalType": "address",
          "name": "_newHarvesterAddress",
          "type": "address"
        }
      ],
      "name": "HarvesterAddressesUpdated",
      "type": "event"
    },
    {
      "anonymous": false,
      "inputs": [
        {
          "indexed": true,
          "internalType": "address",
          "name": "_asset",
          "type": "address"
        },
        {
          "indexed": false,
          "internalType": "address",
          "name": "_pToken",
          "type": "address"
        }
      ],
      "name": "PTokenAdded",
      "type": "event"
    },
    {
      "anonymous": false,
      "inputs": [
        {
          "indexed": true,
          "internalType": "address",
          "name": "_asset",
          "type": "address"
        },
        {
          "indexed": false,
          "internalType": "address",
          "name": "_pToken",
          "type": "address"
        }
      ],
      "name": "PTokenRemoved",
      "type": "event"
    },
    {
      "anonymous": false,
      "inputs": [
        {
          "indexed": true,
          "internalType": "address",
          "name": "previousGovernor",
          "type": "address"
        },
        {
          "indexed": true,
          "internalType": "address",
          "name": "newGovernor",
          "type": "address"
        }
      ],
      "name": "PendingGovernorshipTransfer",
      "type": "event"
    },
    {
      "anonymous": false,
      "inputs": [
        {
          "indexed": false,
          "internalType": "address[]",
          "name": "_oldAddresses",
          "type": "address[]"
        },
        {
          "indexed": false,
          "internalType": "address[]",
          "name": "_newAddresses",
          "type": "address[]"
        }
      ],
      "name": "RewardTokenAddressesUpdated",
      "type": "event"
    },
    {
      "anonymous": false,
      "inputs": [
        {
          "indexed": false,
          "internalType": "address",
          "name": "recipient",
          "type": "address"
        },
        {
          "indexed": false,
          "internalType": "address",
          "name": "rewardToken",
          "type": "address"
        },
        {
          "indexed": false,
          "internalType": "uint256",
          "name": "amount",
          "type": "uint256"
        }
      ],
      "name": "RewardTokenCollected",
      "type": "event"
    },
    {
      "anonymous": false,
      "inputs": [
        {
          "indexed": false,
          "internalType": "string",
          "name": "_message",
          "type": "string"
        },
        {
          "indexed": false,
          "internalType": "address",
          "name": "_asset",
          "type": "address"
        },
        {
          "indexed": false,
          "internalType": "uint256",
          "name": "_number",
          "type": "uint256"
        }
      ],
      "name": "TransferLog",
      "type": "event"
    },
    {
      "anonymous": false,
      "inputs": [
        {
          "indexed": true,
          "internalType": "address",
          "name": "_asset",
          "type": "address"
        },
        {
          "indexed": false,
          "internalType": "address",
          "name": "_pToken",
          "type": "address"
        },
        {
          "indexed": false,
          "internalType": "uint256",
          "name": "_amount",
          "type": "uint256"
        }
      ],
      "name": "Withdrawal",
      "type": "event"
    },
    {
      "inputs": [],
      "name": "BASIS_POINTS_FOR_SLIPPAGE",
      "outputs": [
        {
          "internalType": "uint256",
          "name": "",
          "type": "uint256"
        }
      ],
      "stateMutability": "view",
      "type": "function"
    },
    {
      "inputs": [],
      "name": "_deprecated_rewardLiquidationThreshold",
      "outputs": [
        {
          "internalType": "uint256",
          "name": "",
          "type": "uint256"
        }
      ],
      "stateMutability": "view",
      "type": "function"
    },
    {
      "inputs": [],
      "name": "_deprecated_rewardTokenAddress",
      "outputs": [
        {
          "internalType": "address",
          "name": "",
          "type": "address"
        }
      ],
      "stateMutability": "view",
      "type": "function"
    },
    {
      "inputs": [
        {
          "internalType": "address[]",
          "name": "_amAssets",
          "type": "address[]"
        }
      ],
      "name": "_setAmAssets",
      "outputs": [],
      "stateMutability": "nonpayable",
      "type": "function"
    },
    {
      "inputs": [
        {
          "internalType": "address",
          "name": "_router",
          "type": "address"
        }
      ],
      "name": "_setRouter",
      "outputs": [],
      "stateMutability": "nonpayable",
      "type": "function"
    },
    {
      "inputs": [
        {
          "internalType": "address",
          "name": "",
          "type": "address"
        }
      ],
      "name": "amStableToAmDebt",
      "outputs": [
        {
          "internalType": "address",
          "name": "",
          "type": "address"
        }
      ],
      "stateMutability": "view",
      "type": "function"
    },
    {
      "inputs": [
        {
          "internalType": "address",
          "name": "",
          "type": "address"
        }
      ],
      "name": "assetToPToken",
      "outputs": [
        {
          "internalType": "address",
          "name": "",
          "type": "address"
        }
      ],
      "stateMutability": "view",
      "type": "function"
    },
    {
      "inputs": [],
      "name": "checkBalance",
      "outputs": [
        {
          "internalType": "uint256",
          "name": "",
          "type": "uint256"
        }
      ],
      "stateMutability": "view",
      "type": "function"
    },
    {
      "inputs": [],
      "name": "claimGovernance",
      "outputs": [],
      "stateMutability": "nonpayable",
      "type": "function"
    },
    {
      "inputs": [],
      "name": "collectRewardTokens",
      "outputs": [],
      "stateMutability": "nonpayable",
      "type": "function"
    },
    {
      "inputs": [],
      "name": "crvToken",
      "outputs": [
        {
          "internalType": "contract IERC20",
          "name": "",
          "type": "address"
        }
      ],
      "stateMutability": "view",
      "type": "function"
    },
    {
      "inputs": [
        {
          "internalType": "address",
          "name": "_asset",
          "type": "address"
        },
        {
          "internalType": "uint256",
          "name": "_amount",
          "type": "uint256"
        }
      ],
      "name": "deposit",
      "outputs": [],
      "stateMutability": "nonpayable",
      "type": "function"
    },
    {
      "inputs": [],
      "name": "depositAll",
      "outputs": [],
      "stateMutability": "nonpayable",
      "type": "function"
    },
    {
      "inputs": [],
      "name": "getRewardTokenAddresses",
      "outputs": [
        {
          "internalType": "address[]",
          "name": "",
          "type": "address[]"
        }
      ],
      "stateMutability": "view",
      "type": "function"
    },
    {
      "inputs": [],
      "name": "governor",
      "outputs": [
        {
          "internalType": "address",
          "name": "",
          "type": "address"
        }
      ],
      "stateMutability": "view",
      "type": "function"
    },
    {
      "inputs": [],
      "name": "harvesterAddress",
      "outputs": [
        {
          "internalType": "address",
          "name": "",
          "type": "address"
        }
      ],
      "stateMutability": "view",
      "type": "function"
    },
    {
      "inputs": [
        {
          "internalType": "address",
          "name": "_platformAddress",
          "type": "address"
        },
        {
          "internalType": "address",
          "name": "_vaultAddress",
          "type": "address"
        },
        {
          "internalType": "address[]",
          "name": "_rewardTokenAddresses",
          "type": "address[]"
        },
        {
          "internalType": "address[]",
          "name": "_assets",
          "type": "address[]"
        },
        {
          "internalType": "address[]",
          "name": "_pTokens",
          "type": "address[]"
        },
        {
          "internalType": "address",
          "name": "_primaryStable",
          "type": "address"
        },
        {
          "internalType": "address",
          "name": "_crvToken",
          "type": "address"
        },
        {
          "internalType": "address",
          "name": "_crvGauge",
          "type": "address"
        },
        {
          "internalType": "address",
          "name": "_crvMinter",
          "type": "address"
        }
      ],
      "name": "initialize",
      "outputs": [],
      "stateMutability": "nonpayable",
      "type": "function"
    },
    {
      "inputs": [
        {
          "internalType": "address",
          "name": "_platformAddress",
          "type": "address"
        },
        {
          "internalType": "address",
          "name": "_vaultAddress",
          "type": "address"
        },
        {
          "internalType": "address[]",
          "name": "_rewardTokenAddresses",
          "type": "address[]"
        },
        {
          "internalType": "address[]",
          "name": "_assets",
          "type": "address[]"
        },
        {
          "internalType": "address[]",
          "name": "_pTokens",
          "type": "address[]"
        }
      ],
      "name": "initialize",
      "outputs": [],
      "stateMutability": "nonpayable",
      "type": "function"
    },
    {
      "inputs": [],
      "name": "isGovernor",
      "outputs": [
        {
          "internalType": "bool",
          "name": "",
          "type": "bool"
        }
      ],
      "stateMutability": "view",
      "type": "function"
    },
    {
      "inputs": [],
      "name": "platformAddress",
      "outputs": [
        {
          "internalType": "address",
          "name": "",
          "type": "address"
        }
      ],
      "stateMutability": "view",
      "type": "function"
    },
    {
      "inputs": [],
      "name": "primaryStable",
      "outputs": [
        {
          "internalType": "contract IERC20",
          "name": "",
          "type": "address"
        }
      ],
      "stateMutability": "view",
      "type": "function"
    },
    {
      "inputs": [
        {
          "internalType": "uint256",
          "name": "_assetIndex",
          "type": "uint256"
        }
      ],
      "name": "removePToken",
      "outputs": [],
      "stateMutability": "nonpayable",
      "type": "function"
    },
    {
      "inputs": [
        {
          "internalType": "uint256",
          "name": "",
          "type": "uint256"
        }
      ],
      "name": "rewardTokenAddresses",
      "outputs": [
        {
          "internalType": "address",
          "name": "",
          "type": "address"
        }
      ],
      "stateMutability": "view",
      "type": "function"
    },
    {
      "inputs": [],
      "name": "safeApproveAllTokens",
      "outputs": [],
      "stateMutability": "nonpayable",
      "type": "function"
    },
    {
      "inputs": [
        {
          "internalType": "address",
          "name": "_harvesterAddress",
          "type": "address"
        }
      ],
      "name": "setHarvesterAddress",
      "outputs": [],
      "stateMutability": "nonpayable",
      "type": "function"
    },
    {
      "inputs": [
        {
          "internalType": "address",
          "name": "_asset",
          "type": "address"
        },
        {
          "internalType": "address",
          "name": "_pToken",
          "type": "address"
        }
      ],
      "name": "setPTokenAddress",
      "outputs": [],
      "stateMutability": "nonpayable",
      "type": "function"
    },
    {
      "inputs": [
        {
          "internalType": "address[]",
          "name": "_rewardTokenAddresses",
          "type": "address[]"
        }
      ],
      "name": "setRewardTokenAddresses",
      "outputs": [],
      "stateMutability": "nonpayable",
      "type": "function"
    },
    {
      "inputs": [
        {
          "internalType": "address",
          "name": "",
          "type": "address"
        }
      ],
      "name": "stableToAmStable",
      "outputs": [
        {
          "internalType": "address",
          "name": "",
          "type": "address"
        }
      ],
      "stateMutability": "view",
      "type": "function"
    },
    {
      "inputs": [
        {
          "internalType": "address",
          "name": "_asset",
          "type": "address"
        }
      ],
      "name": "supportsAsset",
      "outputs": [
        {
          "internalType": "bool",
          "name": "",
          "type": "bool"
        }
      ],
      "stateMutability": "view",
      "type": "function"
    },
    {
      "inputs": [
        {
          "internalType": "address",
          "name": "_newGovernor",
          "type": "address"
        }
      ],
      "name": "transferGovernance",
      "outputs": [],
      "stateMutability": "nonpayable",
      "type": "function"
    },
    {
      "inputs": [
        {
          "internalType": "address",
          "name": "_asset",
          "type": "address"
        },
        {
          "internalType": "uint256",
          "name": "_amount",
          "type": "uint256"
        }
      ],
      "name": "transferToken",
      "outputs": [],
      "stateMutability": "nonpayable",
      "type": "function"
    },
    {
      "inputs": [],
      "name": "vaultAddress",
      "outputs": [
        {
          "internalType": "address",
          "name": "",
          "type": "address"
        }
      ],
      "stateMutability": "view",
      "type": "function"
    },
    {
      "inputs": [
        {
          "internalType": "address",
          "name": "_recipient",
          "type": "address"
        },
        {
          "internalType": "address",
          "name": "_asset",
          "type": "address"
        },
        {
          "internalType": "uint256",
          "name": "_amount",
          "type": "uint256"
        }
      ],
      "name": "withdraw",
      "outputs": [],
      "stateMutability": "nonpayable",
      "type": "function"
    },
    {
      "inputs": [],
      "name": "withdrawAll",
      "outputs": [],
      "stateMutability": "nonpayable",
      "type": "function"
    }
  ],
  "transactionHash": "0xf0d94f8d2800bd4f5d7b223efd66ec27f300da7be82117ce8d687d8707f61e8b",
  "args": [],
  "solcInputHash": "4f99ffea6c3ba8cd3ef8d713c842ef03",
  "bytecode": "0x60806040523480156200001157600080fd5b506200002a3360008051602062003d5683398151915255565b60008051602062003d56833981519152546040516001600160a01b03909116906000907fc7c0c772add429241571afb3805861fb3cfa2af374534088b76cdb4325a87e9a908290a3613cd480620000826000396000f3fe608060405234801561001057600080fd5b50600436106102065760003560e01c80639688d2fc1161011a578063d1431ffd116100ad578063dbe55e561161007c578063dbe55e561461047f578063de5f626814610492578063f664b3d91461049a578063f6ca71b0146104a2578063f817bc63146104b757600080fd5b8063d1431ffd14610433578063d2f2489314610446578063d38bfff414610459578063d9caed121461046c57600080fd5b8063b59c3e79116100e9578063b59c3e79146103d9578063c2e1e3f414610402578063c71daccb14610415578063c7af33521461042b57600080fd5b80639688d2fc1461036d57806396d538bb14610380578063aa388af614610393578063ad1728cb146103d157600080fd5b8063430bf08a1161019d57806367c7066c1161016c57806367c7066c146103195780637b2d9b2c1461032c578063853828b61461033f5780638eac2223146103475780639136616a1461035a57600080fd5b8063430bf08a146102e357806347e7ef24146102f65780635a063f63146103095780635d36b1901461031157600080fd5b806315d4573a116101d957806315d4573a146102815780632e655201146102aa5780632f0fbd59146102bd57806332d7d66d146102d057600080fd5b80630c340a241461020b5780630ed57b3a146102305780630fc3b4c4146102455780631072cbea1461026e575b600080fd5b6102136104c0565b6040516001600160a01b0390911681526020015b60405180910390f35b61024361023e36600461337c565b6104dd565b005b610213610253366004613361565b6035602052600090815260409020546001600160a01b031681565b61024361027c3660046135b5565b610518565b61021361028f366004613361565b60d3602052600090815260409020546001600160a01b031681565b603754610213906001600160a01b031681565b6102436102cb3660046135df565b610558565b60d154610213906001600160a01b031681565b603454610213906001600160a01b031681565b6102436103043660046135b5565b610620565b610243610a2c565b610243610acb565b603954610213906001600160a01b031681565b61021361033a366004613708565b610b71565b610243610b9b565b61024361035536600461346a565b610ef9565b610243610368366004613708565b611101565b61024361037b3660046133af565b6112cc565b61024361038e3660046135df565b6113d5565b6103c16103a1366004613361565b6001600160a01b0390811660009081526035602052604090205416151590565b6040519015158152602001610227565b6102436114fb565b6102136103e7366004613361565b60d2602052600090815260409020546001600160a01b031681565b610243610410366004613361565b6115ac565b61041d61162b565b604051908152602001610227565b6103c161177e565b610243610441366004613361565b6117af565b60d054610213906001600160a01b031681565b610243610467366004613361565b61184a565b61024361047a366004613579565b6118ee565b603354610213906001600160a01b031681565b610243611cab565b61041d600481565b6104aa612023565b604051610227919061380c565b61041d60385481565b60006104d8600080516020613c7f8339815191525490565b905090565b6104e561177e565b61050a5760405162461bcd60e51b815260040161050190613962565b60405180910390fd5b6105148282612085565b5050565b61052061177e565b61053c5760405162461bcd60e51b815260040161050190613962565b6105146105476104c0565b6001600160a01b03841690836121ea565b61056061177e565b61057c5760405162461bcd60e51b815260040161050190613962565b60365460005b8181101561061a5783838281811061059c5761059c613c32565b90506020020160208101906105b19190613361565b60d26000603684815481106105c8576105c8613c32565b6000918252602080832091909101546001600160a01b039081168452908301939093526040909101902080546001600160a01b031916929091169190911790558061061281613beb565b915050610582565b50505050565b6034546001600160a01b0316331461064a5760405162461bcd60e51b81526004016105019061392b565b600080516020613c5f8339815191528054600281141561067c5760405162461bcd60e51b8152600401610501906139e7565b6002825560d0546001600160a01b038581169116146106d45760405162461bcd60e51b81526020600482015260146024820152732a37b5b2b7103737ba1039bab83837b93a32b21760611b6044820152606401610501565b60d0546040516370a0823160e01b81523060048201526001600160a01b03909116906370a082319060240160206040518083038186803b15801561071757600080fd5b505afa15801561072b573d6000803e3d6000fd5b505050506040513d601f19601f8201168201806040525081019061074f9190613721565b8310156107925760405162461bcd60e51b81526020600482015260116024820152704e6f7420656e6f7567682061737365747360781b6044820152606401610501565b600083116107db5760405162461bcd60e51b81526020600482015260166024820152754d757374206465706f73697420736f6d657468696e6760501b6044820152606401610501565b603354604080516001600160a01b03928316815260208101869052918616917f5548c837ab068cf56a2c2479df0882a4922fd203edb7517321831d95078c5f62910160405180910390a261082d613263565b60006108388661224d565b90508482826003811061084d5761084d613c32565b602090810291909101919091526033546001600160a01b03888116600090815260d29093526040832054918116929161088691166122e9565b90506000610910836001600160a01b031663bb7b8b806040518163ffffffff1660e01b815260040160206040518083038186803b1580156108c657600080fd5b505afa1580156108da573d6000803e3d6000fd5b505050506040513d601f19601f820116820180604052508101906108fe9190613721565b61090a8a6012866123d8565b9061243c565b90506000610937610930662386f26fc10000670de0b6b3a7640000613ba8565b8390612465565b6040516315b74c9d60e11b81529091506001600160a01b03851690632b6e993a9061096b90899085906001906004016138d2565b600060405180830381600087803b15801561098557600080fd5b505af1158015610999573d6000803e3d6000fd5b505050506109a561247a565b6040805160608082526018908201527f4465706f736974696e6720746f20416d3343757276653a20000000000000000060808201526001600160a01b038c1660208201529081018a90527ff0f0cce21a2c16fc3714f3a884bca7193a057e8544baa837916e9420d890bf8a9060a00160405180910390a15050505050506001825550505050565b6039546001600160a01b03163314610a865760405162461bcd60e51b815260206004820152601b60248201527f43616c6c6572206973206e6f74207468652048617276657374657200000000006044820152606401610501565b600080516020613c5f83398151915280546002811415610ab85760405162461bcd60e51b8152600401610501906139e7565b60028255610ac461258a565b5060019055565b7f7eaf9a7750884803435dfabc67aa617a7d8fefb23d8d84b3c9722bd69e48c4bc546001600160a01b0316336001600160a01b031614610b665760405162461bcd60e51b815260206004820152603060248201527f4f6e6c79207468652070656e64696e6720476f7665726e6f722063616e20636f60448201526f6d706c6574652074686520636c61696d60801b6064820152608401610501565b610b6f336127ea565b565b603a8181548110610b8157600080fd5b6000918252602090912001546001600160a01b0316905081565b6034546001600160a01b0316331480610bcc5750610bb76104c0565b6001600160a01b0316336001600160a01b0316145b610c245760405162461bcd60e51b815260206004820152602360248201527f43616c6c6572206973206e6f7420746865205661756c74206f7220476f7665726044820152623737b960e91b6064820152608401610501565b600080516020613c5f83398151915280546002811415610c565760405162461bcd60e51b8152600401610501906139e7565b60028255600080610c656128ab565b9250925050610c73826129ba565b603354609d546040516370a0823160e01b81523060048201526001600160a01b039283169260009216906370a082319060240160206040518083038186803b158015610cbe57600080fd5b505afa158015610cd2573d6000803e3d6000fd5b505050506040513d601f19601f82011682018060405250810190610cf69190613721565b60d0549091506000906001600160a01b038085169163cc2b27d7918591610d1d911661224d565b6040516001600160e01b031960e085901b1681526004810192909252600f0b602482015260440160206040518083038186803b158015610d5c57600080fd5b505afa158015610d70573d6000803e3d6000fd5b505050506040513d601f19601f82011682018060405250810190610d949190613721565b90506000610db4610930662386f26fc10000670de0b6b3a7640000613ba8565b60d0549091506001600160a01b038086169163517a55a3918891610dd8911661224d565b6040516001600160e01b031960e085901b1681526004810192909252600f0b60248201526044810184905260016064820152608401600060405180830381600087803b158015610e2757600080fd5b505af1158015610e3b573d6000803e3d6000fd5b505060d0546040516370a0823160e01b8152306004820152600093506001600160a01b0390911691506370a082319060240160206040518083038186803b158015610e8557600080fd5b505afa158015610e99573d6000803e3d6000fd5b505050506040513d601f19601f82011682018060405250810190610ebd9190613721565b90508015610ee25760345460d054610ee2916001600160a01b039182169116836121ea565b610eea61258a565b50505050505050600182555050565b610f0161177e565b610f1d5760405162461bcd60e51b815260040161050190613962565b600054610100900460ff1680610f36575060005460ff16155b610f525760405162461bcd60e51b815260040161050190613999565b600054610100900460ff16158015610f74576000805461ffff19166101011790555b86866000818110610f8757610f87613c32565b9050602002016020810190610f9c9190613361565b609d60006101000a8154816001600160a01b0302191690836001600160a01b031602179055508460d060006101000a8154816001600160a01b0302191690836001600160a01b031602179055508360d160006101000a8154816001600160a01b0302191690836001600160a01b031602179055508260d460006101000a8154816001600160a01b0302191690836001600160a01b031602179055508160d560006101000a8154816001600160a01b0302191690836001600160a01b031602179055506110e08d8d8d8d8d8d80806020026020016040519081016040528093929190818152602001838360200280828437600081840152601f19601f820116905080830192505050505050508c8c808060200260200160405190810160405280939291908181526020018383602002808284376000920191909152506129f692505050565b80156110f2576000805461ff00191690555b50505050505050505050505050565b61110961177e565b6111255760405162461bcd60e51b815260040161050190613962565b60365481106111665760405162461bcd60e51b815260206004820152600d60248201526c092dcecc2d8d2c840d2dcc8caf609b1b6044820152606401610501565b60006036828154811061117b5761117b613c32565b60009182526020808320909101546001600160a01b039081168084526035909252604090922054603654919350909116906111b890600190613ba8565b83101561123a57603680546111cf90600190613ba8565b815481106111df576111df613c32565b600091825260209091200154603680546001600160a01b03909216918590811061120b5761120b613c32565b9060005260206000200160006101000a8154816001600160a01b0302191690836001600160a01b031602179055505b603680548061124b5761124b613c1c565b60008281526020808220600019908401810180546001600160a01b031990811690915593019093556001600160a01b038581168083526035855260409283902080549094169093559051908416815290917f16b7600acff27e39a8a96056b3d533045298de927507f5c1d97e4accde60488c910160405180910390a2505050565b6112d461177e565b6112f05760405162461bcd60e51b815260040161050190613962565b600054610100900460ff1680611309575060005460ff16155b6113255760405162461bcd60e51b815260040161050190613999565b600054610100900460ff16158015611347576000805461ffff19166101011790555b6113b88989898989898080602002602001604051908101604052809392919081815260200183836020028082843760009201919091525050604080516020808d0282810182019093528c82529093508c92508b9182918501908490808284376000920191909152506129f692505050565b80156113ca576000805461ff00191690555b505050505050505050565b6113dd61177e565b6113f95760405162461bcd60e51b815260040161050190613962565b60005b818110156114ad57600083838381811061141857611418613c32565b905060200201602081019061142d9190613361565b6001600160a01b0316141561149b5760405162461bcd60e51b815260206004820152602e60248201527f43616e206e6f742073657420616e20656d70747920616464726573732061732060448201526d30903932bbb0b932103a37b5b2b760911b6064820152608401610501565b806114a581613beb565b9150506113fc565b507f04c0b9649497d316554306e53678d5f5f5dbc3a06f97dec13ff4cfe98b986bbc603a83836040516114e29392919061381f565b60405180910390a16114f6603a8383613281565b505050565b61150361177e565b61151f5760405162461bcd60e51b815260040161050190613962565b600080516020613c5f833981519152805460028114156115515760405162461bcd60e51b8152600401610501906139e7565b6002825560005b6036548110156115a4576115926036828154811061157857611578613c32565b6000918252602090912001546001600160a01b0316612adf565b8061159c81613beb565b915050611558565b505060019055565b6115b461177e565b6115d05760405162461bcd60e51b815260040161050190613962565b603980546001600160a01b0319166001600160a01b0383169081179091556040805182815260208101929092527fe48386b84419f4d36e0f96c10cc3510b6fb1a33795620c5098b22472bbe90796910160405180910390a150565b60d0546040516370a0823160e01b815230600482015260009182916001600160a01b03909116906370a082319060240160206040518083038186803b15801561167357600080fd5b505afa158015611687573d6000803e3d6000fd5b505050506040513d601f19601f820116820180604052508101906116ab9190613721565b90506000806116b86128ab565b6033549093506001600160a01b0316915050811561176b5760d0546001600160a01b038083169163cc2b27d79185916116f1911661224d565b6040516001600160e01b031960e085901b1681526004810192909252600f0b602482015260440160206040518083038186803b15801561173057600080fd5b505afa158015611744573d6000803e3d6000fd5b505050506040513d601f19601f820116820180604052508101906117689190613721565b92505b6117758385613a64565b94505050505090565b6000611796600080516020613c7f8339815191525490565b6001600160a01b0316336001600160a01b031614905090565b6117b761177e565b6117d35760405162461bcd60e51b815260040161050190613962565b6001600160a01b0381166118295760405162461bcd60e51b815260206004820152601860248201527f5a65726f2061646472657373206e6f7420616c6c6f77656400000000000000006044820152606401610501565b609e80546001600160a01b0319166001600160a01b03831617905550565b50565b61185261177e565b61186e5760405162461bcd60e51b815260040161050190613962565b611896817f7eaf9a7750884803435dfabc67aa617a7d8fefb23d8d84b3c9722bd69e48c4bc55565b806001600160a01b03166118b6600080516020613c7f8339815191525490565b6001600160a01b03167fa39cc5eb22d0f34d8beaefee8a3f17cc229c1a1d1ef87a5ad47313487b1c4f0d60405160405180910390a350565b6034546001600160a01b031633146119185760405162461bcd60e51b81526004016105019061392b565b600080516020613c5f8339815191528054600281141561194a5760405162461bcd60e51b8152600401610501906139e7565b6002825560d0546001600160a01b038581169116146119a25760405162461bcd60e51b81526020600482015260146024820152732a37b5b2b7103737ba1039bab83837b93a32b21760611b6044820152606401610501565b60006119ac6128ab565b509150506119b9816129ba565b6033546001600160a01b03166119cd613263565b60006119d88861224d565b9050868282600381106119ed576119ed613c32565b6020020152604051633883e11960e01b81526000906001600160a01b03851690633883e11990611a2390869085906004016138b5565b602060405180830381600087803b158015611a3d57600080fd5b505af1158015611a51573d6000803e3d6000fd5b505050506040513d601f19601f82011682018060405250810190611a759190613721565b9050611ab66040518060400160405280601981526020017f616d33437276546f6b656e546f576974686472617746726f6d0000000000000081525082612b18565b60d0546000906001600160a01b038087169163cc2b27d7918591611ada911661224d565b6040516001600160e01b031960e085901b1681526004810192909252600f0b602482015260440160206040518083038186803b158015611b1957600080fd5b505afa158015611b2d573d6000803e3d6000fd5b505050506040513d601f19601f82011682018060405250810190611b519190613721565b90506000611b71610930662386f26fc10000670de0b6b3a7640000613ba8565b9050856001600160a01b031663517a55a384611b8c8e61224d565b6040516001600160e01b031960e085901b1681526004810192909252600f0b60248201526044810184905260016064820152608401600060405180830381600087803b158015611bdb57600080fd5b505af1158015611bef573d6000803e3d6000fd5b505060d0546040516370a0823160e01b8152306004820152600093506001600160a01b0390911691506370a082319060240160206040518083038186803b158015611c3957600080fd5b505afa158015611c4d573d6000803e3d6000fd5b505050506040513d601f19601f82011682018060405250810190611c719190613721565b90508015611c905760d054611c90906001600160a01b03168e836121ea565b611c9861247a565b5050505050505050600182555050505050565b6034546001600160a01b03163314611cd55760405162461bcd60e51b81526004016105019061392b565b600080516020613c5f83398151915280546002811415611d075760405162461bcd60e51b8152600401610501906139e7565b6002825560408051606081018252600080825260208083018290528284018290526033548451630176f71760e71b81529451939492936001600160a01b03909116928492849263bb7b8b80926004808201939291829003018186803b158015611d6f57600080fd5b505afa158015611d83573d6000803e3d6000fd5b505050506040513d601f19601f82011682018060405250810190611da79190613721565b905060005b603654811015611f8257600060368281548110611dcb57611dcb613c32565b60009182526020822001546040516370a0823160e01b81523060048201526001600160a01b03909116925082906370a082319060240160206040518083038186803b158015611e1957600080fd5b505afa158015611e2d573d6000803e3d6000fd5b505050506040513d601f19601f82011682018060405250810190611e519190613721565b604080516060808252601c908201527f4465706f736974696e6720416c6c20746f20416d3343757276653a200000000060808201526001600160a01b03851660208201529081018290529091507ff0f0cce21a2c16fc3714f3a884bca7193a057e8544baa837916e9420d890bf8a9060a00160405180910390a18015611f6d576000611edc8361224d565b905081888260038110611ef157611ef1613c32565b60200201526000611f01846122e9565b9050611f138661090a856012856123d8565b611f1d9089613a64565b603354604080516001600160a01b03928316815260208101879052929a50908616917f5548c837ab068cf56a2c2479df0882a4922fd203edb7517321831d95078c5f62910160405180910390a250505b50508080611f7a90613beb565b915050611dac565b506000611fa8611fa1662386f26fc10000670de0b6b3a7640000613ba8565b8590612465565b6040516315b74c9d60e11b81529091506001600160a01b03841690632b6e993a90611fdc90889085906001906004016138d2565b600060405180830381600087803b158015611ff657600080fd5b505af115801561200a573d6000803e3d6000fd5b5050505061201661247a565b5050505050600182555050565b6060603a80548060200260200160405190810160405280929190818152602001828054801561207b57602002820191906000526020600020905b81546001600160a01b0316815260019091019060200180831161205d575b5050505050905090565b6001600160a01b0382811660009081526035602052604090205416156120e25760405162461bcd60e51b81526020600482015260126024820152711c151bdad95b88185b1c9958591e481cd95d60721b6044820152606401610501565b6001600160a01b0382161580159061210257506001600160a01b03811615155b6121425760405162461bcd60e51b8152602060048201526011602482015270496e76616c69642061646472657373657360781b6044820152606401610501565b6001600160a01b03828116600081815260356020908152604080832080549587166001600160a01b031996871681179091556036805460018101825594527f4a11f94e20a93c79f6ec743a1954ec4fc2c08429ae2122118bf234b2185c81b890930180549095168417909455925190815290917fef6485b84315f9b1483beffa32aae9a0596890395e3d7521f1c5fbb51790e765910160405180910390a26105148282612b5d565b6040516001600160a01b0383166024820152604481018290526114f690849063a9059cbb60e01b906064015b60408051601f198184030181529190526020810180516001600160e01b03166001600160e01b031990931692909217909152612b66565b6000805b60038110156122aa57826001600160a01b03166036828154811061227757612277613c32565b6000918252602090912001546001600160a01b031614156122985792915050565b806122a281613beb565b915050612251565b5060405162461bcd60e51b8152602060048201526013602482015272125b9d985b1a59080cdc1bdbdb08185cdcd95d606a1b6044820152606401610501565b600080826001600160a01b031663313ce5676040518163ffffffff1660e01b815260040160206040518083038186803b15801561232557600080fd5b505afa158015612339573d6000803e3d6000fd5b505050506040513d601f19601f8201168201806040525081019061235d919061373a565b60ff16905060048110158015612374575060128111155b6123d25760405162461bcd60e51b815260206004820152602960248201527f546f6b656e206d75737420686176652073756666696369656e7420646563696d604482015268616c20706c6163657360b81b6064820152608401610501565b92915050565b600081831115612408576124016123ef8385613ba8565b6123fa90600a613ae1565b8590612c38565b9350612432565b818310156124325761242f61241d8484613ba8565b61242890600a613ae1565b8590612c44565b93505b50825b9392505050565b60008061245184670de0b6b3a7640000612c38565b905061245d8184612c44565b949350505050565b60006124358383670de0b6b3a7640000612c50565b609d546040516370a0823160e01b81523060048201526000916001600160a01b0316906370a082319060240160206040518083038186803b1580156124be57600080fd5b505afa1580156124d2573d6000803e3d6000fd5b505050506040513d601f19601f820116820180604052508101906124f69190613721565b905080156118475760d454609d5461251b916001600160a01b03918216911683612c72565b60d4546040516383df674760e01b815260048101839052306024820152600060448201526001600160a01b03909116906383df6747906064015b600060405180830381600087803b15801561256f57600080fd5b505af1158015612583573d6000803e3d6000fd5b5050505050565b60d55460d4546040516335313c2160e11b81526001600160a01b039182166004820152911690636a62784290602401600060405180830381600087803b1580156125d357600080fd5b505af11580156125e7573d6000803e3d6000fd5b505060d1546040516370a0823160e01b8152306004820152600093506001600160a01b0390911691506370a082319060240160206040518083038186803b15801561263157600080fd5b505afa158015612645573d6000803e3d6000fd5b505050506040513d601f19601f820116820180604052508101906126699190613721565b905080156126915760d15460d05461268f916001600160a01b0390811691168330612d96565b505b60d0546040516370a0823160e01b81523060048201526000916001600160a01b0316906370a082319060240160206040518083038186803b1580156126d557600080fd5b505afa1580156126e9573d6000803e3d6000fd5b505050506040513d601f19601f8201168201806040525081019061270d9190613721565b60395460d054604080516001600160a01b03938416815292909116602083015281018290529091507ff6c07a063ed4e63808eb8da7112d46dbcd38de2b40a73dbcc9353c5a94c723539060600160405180910390a160d05460395460405163a9059cbb60e01b81526001600160a01b0391821660048201526024810184905291169063a9059cbb90604401602060405180830381600087803b1580156127b257600080fd5b505af11580156127c6573d6000803e3d6000fd5b505050506040513d601f19601f820116820180604052508101906114f691906136e6565b6001600160a01b0381166128405760405162461bcd60e51b815260206004820152601a60248201527f4e657720476f7665726e6f7220697320616464726573732830290000000000006044820152606401610501565b806001600160a01b0316612860600080516020613c7f8339815191525490565b6001600160a01b03167fc7c0c772add429241571afb3805861fb3cfa2af374534088b76cdb4325a87e9a60405160405180910390a361184781600080516020613c7f83398151915255565b609d546040516370a0823160e01b8152306004820152600091829182916001600160a01b0316906370a082319060240160206040518083038186803b1580156128f357600080fd5b505afa158015612907573d6000803e3d6000fd5b505050506040513d601f19601f8201168201806040525081019061292b9190613721565b60d4546040516370a0823160e01b81523060048201529194506001600160a01b0316906370a082319060240160206040518083038186803b15801561296f57600080fd5b505afa158015612983573d6000803e3d6000fd5b505050506040513d601f19601f820116820180604052508101906129a79190613721565b91506129b38284613a64565b9050909192565b60d45460405162ebf5dd60e01b815260048101839052306024820152600160448201526001600160a01b039091169062ebf5dd90606401612555565b603380546001600160a01b038089166001600160a01b0319928316179092556034805492881692909116919091179055612a32603a8585613281565b50815181518114612a7c5760405162461bcd60e51b8152602060048201526014602482015273496e76616c696420696e7075742061727261797360601b6044820152606401610501565b60005b81811015612ad557612ac3848281518110612a9c57612a9c613c32565b6020026020010151848381518110612ab657612ab6613c32565b6020026020010151612085565b80612acd81613beb565b915050612a7f565b5050505050505050565b6033548190612afc906001600160a01b0380841691166000612c72565b603354610514906001600160a01b038381169116600019612c72565b6105148282604051602401612b2e929190613909565b60408051601f198184030181529190526020810180516001600160e01b03166309710a9d60e41b179052612f82565b61051482612adf565b6000612bbb826040518060400160405280602081526020017f5361666545524332303a206c6f772d6c6576656c2063616c6c206661696c6564815250856001600160a01b0316612fa39092919063ffffffff16565b8051909150156114f65780806020019051810190612bd991906136e6565b6114f65760405162461bcd60e51b815260206004820152602a60248201527f5361666545524332303a204552433230206f7065726174696f6e20646964206e6044820152691bdd081cdd58d8d9595960b21b6064820152608401610501565b60006124358284613b89565b60006124358284613a7c565b600080612c5d8585612c38565b9050612c698184612c44565b95945050505050565b801580612cfb5750604051636eb1769f60e11b81523060048201526001600160a01b03838116602483015284169063dd62ed3e9060440160206040518083038186803b158015612cc157600080fd5b505afa158015612cd5573d6000803e3d6000fd5b505050506040513d601f19601f82011682018060405250810190612cf99190613721565b155b612d665760405162461bcd60e51b815260206004820152603660248201527f5361666545524332303a20617070726f76652066726f6d206e6f6e2d7a65726f60448201527520746f206e6f6e2d7a65726f20616c6c6f77616e636560501b6064820152608401610501565b6040516001600160a01b0383166024820152604481018290526114f690849063095ea7b360e01b90606401612216565b609e5460405163095ea7b360e01b81526001600160a01b0391821660048201526024810184905260009186169063095ea7b390604401602060405180830381600087803b158015612de657600080fd5b505af1158015612dfa573d6000803e3d6000fd5b505050506040513d601f19601f82011682018060405250810190612e1e91906136e6565b506000612e2c868686612fb2565b905080612e3d57600091505061245d565b6040805160028082526060820183526000926020830190803683370190505090508681600081518110612e7257612e72613c32565b60200260200101906001600160a01b031690816001600160a01b0316815250508581600181518110612ea657612ea6613c32565b6001600160a01b039283166020918202929092010152609e54600091166338ed173987612ed48660046130df565b8589612ee242610258613a64565b6040518663ffffffff1660e01b8152600401612f02959493929190613a28565b600060405180830381600087803b158015612f1c57600080fd5b505af1158015612f30573d6000803e3d6000fd5b505050506040513d6000823e601f3d908101601f19168201604052612f589190810190613621565b905080600181518110612f6d57612f6d613c32565b60200260200101519350505050949350505050565b80516a636f6e736f6c652e6c6f67602083016000808483855afa5050505050565b606061245d8484600085613102565b604080516002808252606082018352600092839291906020830190803683370190505090508481600081518110612feb57612feb613c32565b60200260200101906001600160a01b031690816001600160a01b031681525050838160018151811061301f5761301f613c32565b6001600160a01b039283166020918202929092010152609e5460405163d06ca61f60e01b8152600092919091169063d06ca61f906130639087908690600401613a0f565b60006040518083038186803b15801561307b57600080fd5b505afa15801561308f573d6000803e3d6000fd5b505050506040513d6000823e601f3d908101601f191682016040526130b79190810190613621565b9050806001815181106130cc576130cc613c32565b6020026020010151925050509392505050565b60006127106130ee8382613ba8565b6130f89085613b89565b6124359190613a7c565b6060824710156131635760405162461bcd60e51b815260206004820152602660248201527f416464726573733a20696e73756666696369656e742062616c616e636520666f6044820152651c8818d85b1b60d21b6064820152608401610501565b843b6131b15760405162461bcd60e51b815260206004820152601d60248201527f416464726573733a2063616c6c20746f206e6f6e2d636f6e74726163740000006044820152606401610501565b600080866001600160a01b031685876040516131cd91906137f0565b60006040518083038185875af1925050503d806000811461320a576040519150601f19603f3d011682016040523d82523d6000602084013e61320f565b606091505b509150915061321f82828661322a565b979650505050505050565b60608315613239575081612435565b8251156132495782518084602001fd5b8160405162461bcd60e51b815260040161050191906138f6565b60405180606001604052806003906020820280368337509192915050565b8280548282559060005260206000209081019282156132d4579160200282015b828111156132d45781546001600160a01b0319166001600160a01b038435161782556020909201916001909101906132a1565b506132e09291506132e4565b5090565b5b808211156132e057600081556001016132e5565b80356001600160a01b038116811461331057600080fd5b919050565b60008083601f84011261332757600080fd5b50813567ffffffffffffffff81111561333f57600080fd5b6020830191508360208260051b850101111561335a57600080fd5b9250929050565b60006020828403121561337357600080fd5b612435826132f9565b6000806040838503121561338f57600080fd5b613398836132f9565b91506133a6602084016132f9565b90509250929050565b60008060008060008060008060a0898b0312156133cb57600080fd5b6133d4896132f9565b97506133e260208a016132f9565b9650604089013567ffffffffffffffff808211156133ff57600080fd5b61340b8c838d01613315565b909850965060608b013591508082111561342457600080fd5b6134308c838d01613315565b909650945060808b013591508082111561344957600080fd5b506134568b828c01613315565b999c989b5096995094979396929594505050565b6000806000806000806000806000806000806101208d8f03121561348d57600080fd5b6134968d6132f9565b9b506134a460208e016132f9565b9a5067ffffffffffffffff60408e013511156134bf57600080fd5b6134cf8e60408f01358f01613315565b909a50985067ffffffffffffffff60608e013511156134ed57600080fd5b6134fd8e60608f01358f01613315565b909850965067ffffffffffffffff60808e0135111561351b57600080fd5b61352b8e60808f01358f01613315565b909650945061353c60a08e016132f9565b935061354a60c08e016132f9565b925061355860e08e016132f9565b91506135676101008e016132f9565b90509295989b509295989b509295989b565b60008060006060848603121561358e57600080fd5b613597846132f9565b92506135a5602085016132f9565b9150604084013590509250925092565b600080604083850312156135c857600080fd5b6135d1836132f9565b946020939093013593505050565b600080602083850312156135f257600080fd5b823567ffffffffffffffff81111561360957600080fd5b61361585828601613315565b90969095509350505050565b6000602080838503121561363457600080fd5b825167ffffffffffffffff8082111561364c57600080fd5b818501915085601f83011261366057600080fd5b81518181111561367257613672613c48565b8060051b604051601f19603f8301168101818110858211171561369757613697613c48565b604052828152858101935084860182860187018a10156136b657600080fd5b600095505b838610156136d95780518552600195909501949386019386016136bb565b5098975050505050505050565b6000602082840312156136f857600080fd5b8151801515811461243557600080fd5b60006020828403121561371a57600080fd5b5035919050565b60006020828403121561373357600080fd5b5051919050565b60006020828403121561374c57600080fd5b815160ff8116811461243557600080fd5b600081518084526020808501945080840160005b838110156137965781516001600160a01b031687529582019590820190600101613771565b509495945050505050565b8060005b600381101561061a5781518452602093840193909101906001016137a5565b600081518084526137dc816020860160208601613bbf565b601f01601f19169290920160200192915050565b60008251613802818460208701613bbf565b9190910192915050565b602081526000612435602083018461375d565b6000604082016040835280865480835260608501915087600052602092508260002060005b828110156138695781546001600160a01b031684529284019260019182019101613844565b505050838103828501528481528590820160005b868110156138a9576001600160a01b03613896846132f9565b168252918301919083019060010161387d565b50979650505050505050565b608081016138c382856137a1565b82151560608301529392505050565b60a081016138e082866137a1565b8360608301528215156080830152949350505050565b60208152600061243560208301846137c4565b60408152600061391c60408301856137c4565b90508260208301529392505050565b60208082526017908201527f43616c6c6572206973206e6f7420746865205661756c74000000000000000000604082015260600190565b6020808252601a908201527f43616c6c6572206973206e6f742074686520476f7665726e6f72000000000000604082015260600190565b6020808252602e908201527f496e697469616c697a61626c653a20636f6e747261637420697320616c72656160408201526d191e481a5b9a5d1a585b1a5e995960921b606082015260800190565b6020808252600e908201526d1499595b9d1c985b9d0818d85b1b60921b604082015260600190565b82815260406020820152600061245d604083018461375d565b85815284602082015260a060408201526000613a4760a083018661375d565b6001600160a01b0394909416606083015250608001529392505050565b60008219821115613a7757613a77613c06565b500190565b600082613a9957634e487b7160e01b600052601260045260246000fd5b500490565b600181815b80851115613ad9578160001904821115613abf57613abf613c06565b80851615613acc57918102915b93841c9390800290613aa3565b509250929050565b60006124358383600082613af7575060016123d2565b81613b04575060006123d2565b8160018114613b1a5760028114613b2457613b40565b60019150506123d2565b60ff841115613b3557613b35613c06565b50506001821b6123d2565b5060208310610133831016604e8410600b8410161715613b63575081810a6123d2565b613b6d8383613a9e565b8060001904821115613b8157613b81613c06565b029392505050565b6000816000190483118215151615613ba357613ba3613c06565b500290565b600082821015613bba57613bba613c06565b500390565b60005b83811015613bda578181015183820152602001613bc2565b8381111561061a5750506000910152565b6000600019821415613bff57613bff613c06565b5060010190565b634e487b7160e01b600052601160045260246000fd5b634e487b7160e01b600052603160045260246000fd5b634e487b7160e01b600052603260045260246000fd5b634e487b7160e01b600052604160045260246000fdfe48a06827bfe8bfc0a59fe65d0fa78f553938265ed1f971326fc09947d19a593c83f34c88ec39d54d1e423bd8a181ebc59ede5dcc9996c2df334668b4f89fdd73a2646970667358221220ad0c8bc7d807ee365fb2b8fd5bd01a15b86483329c6927bb8526e79206cc258664736f6c6343000806003383f34c88ec39d54d1e423bd8a181ebc59ede5dcc9996c2df334668b4f89fdd73",
  "devdoc": {
    "kind": "dev",
    "methods": {
      "checkBalance()": {
        "details": "Get the total asset value held in the platform",
        "returns": {
          "_0": "   Total value of the asset in the platform"
        }
      },
      "claimGovernance()": {
        "details": "Claim Governance of the contract to a new account (`newGovernor`). Can only be called by the new Governor."
      },
      "collectRewardTokens()": {
        "details": "Collect accumulated reward token and send to Vault."
      },
      "deposit(address,uint256)": {
        "details": "Deposit asset into the Curve 3Pool",
        "params": {
          "_amount": "Amount of asset to deposit",
          "_asset": "Address of asset to deposit"
        }
      },
      "depositAll()": {
        "details": "Deposit the entire balance of any supported asset into the Curve 3pool"
      },
      "getRewardTokenAddresses()": {
        "details": "Get the reward token addresses.",
        "returns": {
          "_0": "address[] the reward token addresses."
        }
      },
      "governor()": {
        "details": "Returns the address of the current Governor."
      },
      "initialize(address,address,address[],address[],address[])": {
        "details": "Internal initialize function, to set up initial internal state",
        "params": {
          "_assets": "Addresses of initial supported assets",
          "_pTokens": "Platform Token corresponding addresses",
          "_platformAddress": "Generic platform address",
          "_rewardTokenAddresses": "Address of reward token for platform",
          "_vaultAddress": "Address of the Vault"
        }
      },
      "initialize(address,address,address[],address[],address[],address,address,address,address)": {
        "params": {
          "_assets": "Addresses of supported assets. MUST be passed in the same                order as returned by coins on the pool contract, i.e.                USDC",
          "_pTokens": "Platform Token corresponding addresses",
          "_platformAddress": "Address of the am3Crv",
          "_rewardTokenAddresses": "Address of CRV",
          "_vaultAddress": "Address of the vault"
        }
      },
      "isGovernor()": {
        "details": "Returns true if the caller is the current Governor."
      },
      "removePToken(uint256)": {
        "details": "Remove a supported asset by passing its index.      This method can only be called by the system Governor",
        "params": {
          "_assetIndex": "Index of the asset to be removed"
        }
      },
      "safeApproveAllTokens()": {
        "details": "Approve the spending of all assets by their corresponding pool tokens,      if for some reason is it necessary."
      },
      "setHarvesterAddress(address)": {
        "details": "Set the reward token addresses.",
        "params": {
          "_harvesterAddress": "Address of the harvester"
        }
      },
      "setPTokenAddress(address,address)": {
        "details": "Provide support for asset by passing its pToken address.      This method can only be called by the system Governor",
        "params": {
          "_asset": "Address for the asset",
          "_pToken": "Address for the corresponding platform token"
        }
      },
      "setRewardTokenAddresses(address[])": {
        "details": "Set the reward token addresses.",
        "params": {
          "_rewardTokenAddresses": "Address array of the reward token"
        }
      },
      "supportsAsset(address)": {
        "details": "Retuns bool indicating whether asset is supported by strategy",
        "params": {
          "_asset": "Address of the asset"
        }
      },
      "transferGovernance(address)": {
        "details": "Transfers Governance of the contract to a new account (`newGovernor`). Can only be called by the current Governor. Must be claimed for this to complete",
        "params": {
          "_newGovernor": "Address of the new Governor"
        }
      },
      "transferToken(address,uint256)": {
        "details": "Transfer token to governor. Intended for recovering tokens stuck in      strategy contracts, i.e. mistaken sends.",
        "params": {
          "_amount": "Amount of the asset to transfer",
          "_asset": "Address for the asset"
        }
      },
      "withdraw(address,address,uint256)": {
        "details": "Withdraw asset from Curve 3Pool",
        "params": {
          "_amount": "Amount of asset to withdraw",
          "_asset": "Address of asset to withdraw",
          "_recipient": "Address to receive withdrawn asset"
        }
      },
      "withdrawAll()": {
        "details": "Remove all assets from platform and send them to Vault contract."
      }
    },
    "version": 1
  },
  "userdoc": {
    "kind": "user",
    "methods": {
      "initialize(address,address,address[],address[],address[],address,address,address,address)": {
        "notice": "Initializer for setting up strategy internal state. This overrides the InitializableAbstractStrategy initializer as Curve strategies don't fit well within that abstraction."
      }
    },
    "version": 1
  },
  "storageLayout": {
    "storage": [
      {
        "astId": 30647,
        "contract": "contracts/strategies/Am3CurveStrategy.sol:Am3CurveStrategy",
        "label": "initialized",
        "offset": 0,
        "slot": "0",
        "type": "t_bool"
      },
      {
        "astId": 30650,
        "contract": "contracts/strategies/Am3CurveStrategy.sol:Am3CurveStrategy",
        "label": "initializing",
        "offset": 1,
        "slot": "0",
        "type": "t_bool"
      },
      {
        "astId": 30690,
        "contract": "contracts/strategies/Am3CurveStrategy.sol:Am3CurveStrategy",
        "label": "______gap",
        "offset": 0,
        "slot": "1",
        "type": "t_array(t_uint256)50_storage"
      },
      {
        "astId": 30774,
        "contract": "contracts/strategies/Am3CurveStrategy.sol:Am3CurveStrategy",
        "label": "platformAddress",
        "offset": 0,
        "slot": "51",
        "type": "t_address"
      },
      {
        "astId": 30776,
        "contract": "contracts/strategies/Am3CurveStrategy.sol:Am3CurveStrategy",
        "label": "vaultAddress",
        "offset": 0,
        "slot": "52",
        "type": "t_address"
      },
      {
        "astId": 30780,
        "contract": "contracts/strategies/Am3CurveStrategy.sol:Am3CurveStrategy",
        "label": "assetToPToken",
        "offset": 0,
        "slot": "53",
        "type": "t_mapping(t_address,t_address)"
      },
      {
        "astId": 30783,
        "contract": "contracts/strategies/Am3CurveStrategy.sol:Am3CurveStrategy",
        "label": "assetsMapped",
        "offset": 0,
        "slot": "54",
        "type": "t_array(t_address)dyn_storage"
      },
      {
        "astId": 30785,
        "contract": "contracts/strategies/Am3CurveStrategy.sol:Am3CurveStrategy",
        "label": "_deprecated_rewardTokenAddress",
        "offset": 0,
        "slot": "55",
        "type": "t_address"
      },
      {
        "astId": 30787,
        "contract": "contracts/strategies/Am3CurveStrategy.sol:Am3CurveStrategy",
        "label": "_deprecated_rewardLiquidationThreshold",
        "offset": 0,
        "slot": "56",
        "type": "t_uint256"
      },
      {
        "astId": 30789,
        "contract": "contracts/strategies/Am3CurveStrategy.sol:Am3CurveStrategy",
        "label": "harvesterAddress",
        "offset": 0,
        "slot": "57",
        "type": "t_address"
      },
      {
        "astId": 30792,
        "contract": "contracts/strategies/Am3CurveStrategy.sol:Am3CurveStrategy",
        "label": "rewardTokenAddresses",
        "offset": 0,
        "slot": "58",
        "type": "t_array(t_address)dyn_storage"
      },
      {
        "astId": 30796,
        "contract": "contracts/strategies/Am3CurveStrategy.sol:Am3CurveStrategy",
        "label": "_reserved",
        "offset": 0,
        "slot": "59",
        "type": "t_array(t_int256)98_storage"
      },
      {
        "astId": 19814,
        "contract": "contracts/strategies/Am3CurveStrategy.sol:Am3CurveStrategy",
        "label": "pTokenAddress",
        "offset": 0,
        "slot": "157",
        "type": "t_address"
      },
      {
        "astId": 7982,
        "contract": "contracts/strategies/Am3CurveStrategy.sol:Am3CurveStrategy",
        "label": "uniswapRouter",
        "offset": 0,
        "slot": "158",
        "type": "t_contract(IUniswapV2Router02)5584"
      },
      {
        "astId": 8244,
        "contract": "contracts/strategies/Am3CurveStrategy.sol:Am3CurveStrategy",
        "label": "__gap",
        "offset": 0,
        "slot": "159",
        "type": "t_array(t_uint256)49_storage"
      },
      {
        "astId": 18846,
        "contract": "contracts/strategies/Am3CurveStrategy.sol:Am3CurveStrategy",
        "label": "primaryStable",
        "offset": 0,
        "slot": "208",
        "type": "t_contract(IERC20)623"
      },
      {
        "astId": 18849,
        "contract": "contracts/strategies/Am3CurveStrategy.sol:Am3CurveStrategy",
        "label": "crvToken",
        "offset": 0,
        "slot": "209",
        "type": "t_contract(IERC20)623"
      },
      {
        "astId": 18853,
        "contract": "contracts/strategies/Am3CurveStrategy.sol:Am3CurveStrategy",
        "label": "stableToAmStable",
        "offset": 0,
        "slot": "210",
        "type": "t_mapping(t_address,t_address)"
      },
      {
        "astId": 18857,
        "contract": "contracts/strategies/Am3CurveStrategy.sol:Am3CurveStrategy",
        "label": "amStableToAmDebt",
        "offset": 0,
        "slot": "211",
        "type": "t_mapping(t_address,t_address)"
      },
      {
        "astId": 18860,
        "contract": "contracts/strategies/Am3CurveStrategy.sol:Am3CurveStrategy",
        "label": "crvGauge",
        "offset": 0,
        "slot": "212",
        "type": "t_contract(ICurveGauge)23393"
      },
      {
        "astId": 18863,
        "contract": "contracts/strategies/Am3CurveStrategy.sol:Am3CurveStrategy",
        "label": "crvMinter",
        "offset": 0,
        "slot": "213",
        "type": "t_contract(ICRVMinter)23310"
      }
    ],
    "types": {
      "t_address": {
        "encoding": "inplace",
        "label": "address",
        "numberOfBytes": "20"
      },
      "t_array(t_address)dyn_storage": {
        "base": "t_address",
        "encoding": "dynamic_array",
        "label": "address[]",
        "numberOfBytes": "32"
      },
      "t_array(t_int256)98_storage": {
        "base": "t_int256",
        "encoding": "inplace",
        "label": "int256[98]",
        "numberOfBytes": "3136"
      },
      "t_array(t_uint256)49_storage": {
        "base": "t_uint256",
        "encoding": "inplace",
        "label": "uint256[49]",
        "numberOfBytes": "1568"
      },
      "t_array(t_uint256)50_storage": {
        "base": "t_uint256",
        "encoding": "inplace",
        "label": "uint256[50]",
        "numberOfBytes": "1600"
      },
      "t_bool": {
        "encoding": "inplace",
        "label": "bool",
        "numberOfBytes": "1"
      },
      "t_contract(ICRVMinter)23310": {
        "encoding": "inplace",
        "label": "contract ICRVMinter",
        "numberOfBytes": "20"
      },
      "t_contract(ICurveGauge)23393": {
        "encoding": "inplace",
        "label": "contract ICurveGauge",
        "numberOfBytes": "20"
      },
      "t_contract(IERC20)623": {
        "encoding": "inplace",
        "label": "contract IERC20",
        "numberOfBytes": "20"
      },
      "t_contract(IUniswapV2Router02)5584": {
        "encoding": "inplace",
        "label": "contract IUniswapV2Router02",
        "numberOfBytes": "20"
      },
      "t_int256": {
        "encoding": "inplace",
        "label": "int256",
        "numberOfBytes": "32"
      },
      "t_mapping(t_address,t_address)": {
        "encoding": "mapping",
        "key": "t_address",
        "label": "mapping(address => address)",
        "numberOfBytes": "32",
        "value": "t_address"
      },
      "t_uint256": {
        "encoding": "inplace",
        "label": "uint256",
        "numberOfBytes": "32"
      }
    }
  }
}