{
  "address": "0x6023e0D21dC20e0707Fb34121126b65F718345c1",
  "abi": [
    {
      "inputs": [
        {
          "internalType": "address",
          "name": "asset",
          "type": "address"
        }
      ],
      "name": "price",
      "outputs": [
        {
          "internalType": "uint256",
          "name": "",
          "type": "uint256"
        }
      ],
      "stateMutability": "view",
      "type": "function"
    }
  ],
  "transactionHash": "0xa22880adfc918965825b333d2880635ae2bf655549ef47e472d80408127ead05",
  "args": [],
  "solcInputHash": "4f99ffea6c3ba8cd3ef8d713c842ef03",
  "bytecode": "0x608060405234801561001057600080fd5b50610716806100206000396000f3fe608060405234801561001057600080fd5b506004361061002b5760003560e01c8063aea9107814610030575b600080fd5b61004361003e366004610558565b610055565b60405190815260200160405180910390f35b600080610061836101a4565b90506000816001600160a01b031663feaf968c6040518163ffffffff1660e01b815260040160a06040518083038186803b15801561009e57600080fd5b505afa1580156100b2573d6000803e3d6000fd5b505050506040513d601f19601f820116820180604052508101906100d6919061062e565b50505091505060008190506100ea856103e9565b1561019c576307bfa4808111156101485760405162461bcd60e51b815260206004820152601960248201527f4f7261636c653a2050726963652065786365656473206d61780000000000000060448201526064015b60405180910390fd5b63042c1d8081101561019c5760405162461bcd60e51b815260206004820152601760248201527f4f7261636c653a20507269636520756e646572206d696e000000000000000000604482015260640161013f565b949350505050565b60006001600160a01b038216738f3cf7ad23cd3cadbd9735aff958023239c6a06314156101e65750734746dec9e833a82ec7c2c1356372ccf2cfcd2f3d919050565b6001600160a01b038216732791bca1f2de4661ed88a30c99a7a9449aa841741415610226575073fe4a8cc5b5b2366c1b58bea3858e81843581b2f7919050565b6001600160a01b03821673c2132d05d31c914a87c6611c10748aeb04b58e8f14156102665750730a6513e40db6eb1b165753ad52e80663aea50545919050565b6001600160a01b03821673c00e94cb662c3520282e6f5717214004a7f2688814156102a65750732a8758b7257102461bc958279054e372c2b1bde6919050565b6001600160a01b03821673d6df932a45c0f255f85145f286ea0b292b21c90b14156102e657507372484b12719e23115761d5da1646945632979bb6919050565b6001600160a01b03821673172370d5cd63279efa6d502dab29171933a610af1415610326575073336584c8e6dc19637a5b36206b1c79923111b405919050565b6001600160a01b038216734257ea7637c355f81616050cbb6a9b709fd7268314156103665750735ec151834040b4d453a1ea46aa634c1773b36084919050565b6001600160a01b038216732e1ad108ff1d8c782fcbbb89aad783ac4958675614156103a65750737c5d415b64312d38c56b54358449d0a4058339d2919050565b60405162461bcd60e51b81526020600482015260136024820152724173736574206e6f7420617661696c61626c6560681b604482015260640161013f565b919050565b6000806103f5836104be565b905060008160405160200161040a919061067e565b60405160208183030381529060405280519060200120905060405160200161043b906244414960e81b815260030190565b604051602081830303815290604052805190602001208114806104855750604051635553444360e01b60208201526024016040516020818303038152906040528051906020012081145b8061019c5750604051631554d11560e21b6020820152602401604051602081830303815290604052805190602001208114949350505050565b60606000826001600160a01b03166395d89b416040518163ffffffff1660e01b815260040160006040518083038186803b1580156104fb57600080fd5b505afa15801561050f573d6000803e3d6000fd5b505050506040513d6000823e601f3d908101601f191682016040526105379190810190610581565b9392505050565b805169ffffffffffffffffffff811681146103e457600080fd5b60006020828403121561056a57600080fd5b81356001600160a01b038116811461053757600080fd5b60006020828403121561059357600080fd5b815167ffffffffffffffff808211156105ab57600080fd5b818401915084601f8301126105bf57600080fd5b8151818111156105d1576105d16106ca565b604051601f8201601f19908116603f011681019083821181831017156105f9576105f96106ca565b8160405282815287602084870101111561061257600080fd5b61062383602083016020880161069a565b979650505050505050565b600080600080600060a0868803121561064657600080fd5b61064f8661053e565b94506020860151935060408601519250606086015191506106726080870161053e565b90509295509295909350565b6000825161069081846020870161069a565b9190910192915050565b60005b838110156106b557818101518382015260200161069d565b838111156106c4576000848401525b50505050565b634e487b7160e01b600052604160045260246000fdfea2646970667358221220aa74205c163b4e8e46d54929aa76bd00a0927a4c53e89f247653adf9e192016a64736f6c63430008060033",
  "devdoc": {
    "kind": "dev",
    "methods": {
      "price(address)": {
        "params": {
          "asset": "address of the asset"
        },
        "returns": {
          "_0": "uint256 USD price of 1 of the asset, in 8 decimal fixed"
        }
      }
    },
    "version": 1
  },
  "userdoc": {
    "kind": "user",
    "methods": {
      "price(address)": {
        "notice": "Returns the total price in 8 digit USD for a given asset."
      }
    },
    "version": 1
  },
  "storageLayout": {
    "storage": [],
    "types": null
  }
}