{
  "address": "0xC51B66677681d5523e1a227fAaC09a4A32d70b21",
  "abi": [
    {
      "anonymous": false,
      "inputs": [
        {
          "indexed": true,
          "internalType": "address",
          "name": "_asset",
          "type": "address"
        },
        {
          "indexed": false,
          "internalType": "address",
          "name": "_pToken",
          "type": "address"
        },
        {
          "indexed": false,
          "internalType": "uint256",
          "name": "_amount",
          "type": "uint256"
        }
      ],
      "name": "Deposit",
      "type": "event"
    },
    {
      "anonymous": false,
      "inputs": [
        {
          "indexed": true,
          "internalType": "address",
          "name": "previousGovernor",
          "type": "address"
        },
        {
          "indexed": true,
          "internalType": "address",
          "name": "newGovernor",
          "type": "address"
        }
      ],
      "name": "GovernorshipTransferred",
      "type": "event"
    },
    {
      "anonymous": false,
      "inputs": [
        {
          "indexed": false,
          "internalType": "address",
          "name": "_oldHarvesterAddress",
          "type": "address"
        },
        {
          "indexed": false,
          "internalType": "address",
          "name": "_newHarvesterAddress",
          "type": "address"
        }
      ],
      "name": "HarvesterAddressesUpdated",
      "type": "event"
    },
    {
      "anonymous": false,
      "inputs": [
        {
          "indexed": true,
          "internalType": "address",
          "name": "_asset",
          "type": "address"
        },
        {
          "indexed": false,
          "internalType": "address",
          "name": "_pToken",
          "type": "address"
        }
      ],
      "name": "PTokenAdded",
      "type": "event"
    },
    {
      "anonymous": false,
      "inputs": [
        {
          "indexed": true,
          "internalType": "address",
          "name": "_asset",
          "type": "address"
        },
        {
          "indexed": false,
          "internalType": "address",
          "name": "_pToken",
          "type": "address"
        }
      ],
      "name": "PTokenRemoved",
      "type": "event"
    },
    {
      "anonymous": false,
      "inputs": [
        {
          "indexed": true,
          "internalType": "address",
          "name": "previousGovernor",
          "type": "address"
        },
        {
          "indexed": true,
          "internalType": "address",
          "name": "newGovernor",
          "type": "address"
        }
      ],
      "name": "PendingGovernorshipTransfer",
      "type": "event"
    },
    {
      "anonymous": false,
      "inputs": [
        {
          "indexed": false,
          "internalType": "address[]",
          "name": "_oldAddresses",
          "type": "address[]"
        },
        {
          "indexed": false,
          "internalType": "address[]",
          "name": "_newAddresses",
          "type": "address[]"
        }
      ],
      "name": "RewardTokenAddressesUpdated",
      "type": "event"
    },
    {
      "anonymous": false,
      "inputs": [
        {
          "indexed": false,
          "internalType": "address",
          "name": "recipient",
          "type": "address"
        },
        {
          "indexed": false,
          "internalType": "address",
          "name": "rewardToken",
          "type": "address"
        },
        {
          "indexed": false,
          "internalType": "uint256",
          "name": "amount",
          "type": "uint256"
        }
      ],
      "name": "RewardTokenCollected",
      "type": "event"
    },
    {
      "anonymous": false,
      "inputs": [
        {
          "indexed": false,
          "internalType": "string",
          "name": "_message",
          "type": "string"
        },
        {
          "indexed": false,
          "internalType": "address",
          "name": "_asset",
          "type": "address"
        },
        {
          "indexed": false,
          "internalType": "uint256",
          "name": "_number",
          "type": "uint256"
        }
      ],
      "name": "TransferLog",
      "type": "event"
    },
    {
      "anonymous": false,
      "inputs": [
        {
          "indexed": true,
          "internalType": "address",
          "name": "_asset",
          "type": "address"
        },
        {
          "indexed": false,
          "internalType": "address",
          "name": "_pToken",
          "type": "address"
        },
        {
          "indexed": false,
          "internalType": "uint256",
          "name": "_amount",
          "type": "uint256"
        }
      ],
      "name": "Withdrawal",
      "type": "event"
    },
    {
      "inputs": [],
      "name": "BASIS_POINTS_FOR_SLIPPAGE",
      "outputs": [
        {
          "internalType": "uint256",
          "name": "",
          "type": "uint256"
        }
      ],
      "stateMutability": "view",
      "type": "function"
    },
    {
      "inputs": [],
      "name": "_deprecated_rewardLiquidationThreshold",
      "outputs": [
        {
          "internalType": "uint256",
          "name": "",
          "type": "uint256"
        }
      ],
      "stateMutability": "view",
      "type": "function"
    },
    {
      "inputs": [],
      "name": "_deprecated_rewardTokenAddress",
      "outputs": [
        {
          "internalType": "address",
          "name": "",
          "type": "address"
        }
      ],
      "stateMutability": "view",
      "type": "function"
    },
    {
      "inputs": [
        {
          "internalType": "address",
          "name": "_dystRouter",
          "type": "address"
        },
        {
          "internalType": "address",
          "name": "_intermediateToken",
          "type": "address"
        },
        {
          "internalType": "address",
          "name": "_primaryStable",
          "type": "address"
        }
      ],
      "name": "_setRouterAndPrimaryStable",
      "outputs": [],
      "stateMutability": "nonpayable",
      "type": "function"
    },
    {
      "inputs": [
        {
          "internalType": "address",
          "name": "",
          "type": "address"
        }
      ],
      "name": "assetToPToken",
      "outputs": [
        {
          "internalType": "address",
          "name": "",
          "type": "address"
        }
      ],
      "stateMutability": "view",
      "type": "function"
    },
    {
      "inputs": [],
      "name": "checkBalance",
      "outputs": [
        {
          "internalType": "uint256",
          "name": "",
          "type": "uint256"
        }
      ],
      "stateMutability": "view",
      "type": "function"
    },
    {
      "inputs": [],
      "name": "claimGovernance",
      "outputs": [],
      "stateMutability": "nonpayable",
      "type": "function"
    },
    {
      "inputs": [],
      "name": "collectRewardTokens",
      "outputs": [],
      "stateMutability": "nonpayable",
      "type": "function"
    },
    {
      "inputs": [
        {
          "internalType": "address",
          "name": "_asset",
          "type": "address"
        },
        {
          "internalType": "uint256",
          "name": "_amount",
          "type": "uint256"
        }
      ],
      "name": "deposit",
      "outputs": [],
      "stateMutability": "nonpayable",
      "type": "function"
    },
    {
      "inputs": [],
      "name": "depositAll",
      "outputs": [],
      "stateMutability": "nonpayable",
      "type": "function"
    },
    {
      "inputs": [],
      "name": "getRewardTokenAddresses",
      "outputs": [
        {
          "internalType": "address[]",
          "name": "",
          "type": "address[]"
        }
      ],
      "stateMutability": "view",
      "type": "function"
    },
    {
      "inputs": [],
      "name": "governor",
      "outputs": [
        {
          "internalType": "address",
          "name": "",
          "type": "address"
        }
      ],
      "stateMutability": "view",
      "type": "function"
    },
    {
      "inputs": [],
      "name": "harvesterAddress",
      "outputs": [
        {
          "internalType": "address",
          "name": "",
          "type": "address"
        }
      ],
      "stateMutability": "view",
      "type": "function"
    },
    {
      "inputs": [
        {
          "internalType": "address",
          "name": "_platformAddress",
          "type": "address"
        },
        {
          "internalType": "address",
          "name": "_vaultAddress",
          "type": "address"
        },
        {
          "internalType": "address[]",
          "name": "_rewardTokenAddresses",
          "type": "address[]"
        },
        {
          "internalType": "address[]",
          "name": "_assets",
          "type": "address[]"
        },
        {
          "internalType": "address[]",
          "name": "_pTokens",
          "type": "address[]"
        },
        {
          "internalType": "address",
          "name": "_synToken",
          "type": "address"
        },
        {
          "internalType": "address",
          "name": "_synapsePool",
          "type": "address"
        },
        {
          "internalType": "address",
          "name": "_synapseStakerPool",
          "type": "address"
        },
        {
          "internalType": "uint256",
          "name": "_synapseStakerPoolId",
          "type": "uint256"
        }
      ],
      "name": "initialize",
      "outputs": [],
      "stateMutability": "nonpayable",
      "type": "function"
    },
    {
      "inputs": [
        {
          "internalType": "address",
          "name": "_platformAddress",
          "type": "address"
        },
        {
          "internalType": "address",
          "name": "_vaultAddress",
          "type": "address"
        },
        {
          "internalType": "address[]",
          "name": "_rewardTokenAddresses",
          "type": "address[]"
        },
        {
          "internalType": "address[]",
          "name": "_assets",
          "type": "address[]"
        },
        {
          "internalType": "address[]",
          "name": "_pTokens",
          "type": "address[]"
        }
      ],
      "name": "initialize",
      "outputs": [],
      "stateMutability": "nonpayable",
      "type": "function"
    },
    {
      "inputs": [],
      "name": "intermediateToken",
      "outputs": [
        {
          "internalType": "contract IERC20",
          "name": "",
          "type": "address"
        }
      ],
      "stateMutability": "view",
      "type": "function"
    },
    {
      "inputs": [],
      "name": "isGovernor",
      "outputs": [
        {
          "internalType": "bool",
          "name": "",
          "type": "bool"
        }
      ],
      "stateMutability": "view",
      "type": "function"
    },
    {
      "inputs": [],
      "name": "platformAddress",
      "outputs": [
        {
          "internalType": "address",
          "name": "",
          "type": "address"
        }
      ],
      "stateMutability": "view",
      "type": "function"
    },
    {
      "inputs": [],
      "name": "primaryStable",
      "outputs": [
        {
          "internalType": "contract IERC20",
          "name": "",
          "type": "address"
        }
      ],
      "stateMutability": "view",
      "type": "function"
    },
    {
      "inputs": [
        {
          "internalType": "uint256",
          "name": "_assetIndex",
          "type": "uint256"
        }
      ],
      "name": "removePToken",
      "outputs": [],
      "stateMutability": "nonpayable",
      "type": "function"
    },
    {
      "inputs": [
        {
          "internalType": "uint256",
          "name": "",
          "type": "uint256"
        }
      ],
      "name": "rewardTokenAddresses",
      "outputs": [
        {
          "internalType": "address",
          "name": "",
          "type": "address"
        }
      ],
      "stateMutability": "view",
      "type": "function"
    },
    {
      "inputs": [],
      "name": "safeApproveAllTokens",
      "outputs": [],
      "stateMutability": "nonpayable",
      "type": "function"
    },
    {
      "inputs": [
        {
          "internalType": "address",
          "name": "_harvesterAddress",
          "type": "address"
        }
      ],
      "name": "setHarvesterAddress",
      "outputs": [],
      "stateMutability": "nonpayable",
      "type": "function"
    },
    {
      "inputs": [
        {
          "internalType": "address",
          "name": "_asset",
          "type": "address"
        },
        {
          "internalType": "address",
          "name": "_pToken",
          "type": "address"
        }
      ],
      "name": "setPTokenAddress",
      "outputs": [],
      "stateMutability": "nonpayable",
      "type": "function"
    },
    {
      "inputs": [
        {
          "internalType": "address[]",
          "name": "_rewardTokenAddresses",
          "type": "address[]"
        }
      ],
      "name": "setRewardTokenAddresses",
      "outputs": [],
      "stateMutability": "nonpayable",
      "type": "function"
    },
    {
      "inputs": [
        {
          "internalType": "address",
          "name": "_asset",
          "type": "address"
        }
      ],
      "name": "supportsAsset",
      "outputs": [
        {
          "internalType": "bool",
          "name": "",
          "type": "bool"
        }
      ],
      "stateMutability": "view",
      "type": "function"
    },
    {
      "inputs": [],
      "name": "synToken",
      "outputs": [
        {
          "internalType": "contract IERC20",
          "name": "",
          "type": "address"
        }
      ],
      "stateMutability": "view",
      "type": "function"
    },
    {
      "inputs": [],
      "name": "synapsePool",
      "outputs": [
        {
          "internalType": "contract IPool",
          "name": "",
          "type": "address"
        }
      ],
      "stateMutability": "view",
      "type": "function"
    },
    {
      "inputs": [],
      "name": "synapseStakerPool",
      "outputs": [
        {
          "internalType": "contract IStakerPool",
          "name": "",
          "type": "address"
        }
      ],
      "stateMutability": "view",
      "type": "function"
    },
    {
      "inputs": [],
      "name": "synapseStakerPoolId",
      "outputs": [
        {
          "internalType": "uint256",
          "name": "",
          "type": "uint256"
        }
      ],
      "stateMutability": "view",
      "type": "function"
    },
    {
      "inputs": [
        {
          "internalType": "address",
          "name": "_newGovernor",
          "type": "address"
        }
      ],
      "name": "transferGovernance",
      "outputs": [],
      "stateMutability": "nonpayable",
      "type": "function"
    },
    {
      "inputs": [
        {
          "internalType": "address",
          "name": "_asset",
          "type": "address"
        },
        {
          "internalType": "uint256",
          "name": "_amount",
          "type": "uint256"
        }
      ],
      "name": "transferToken",
      "outputs": [],
      "stateMutability": "nonpayable",
      "type": "function"
    },
    {
      "inputs": [],
      "name": "vaultAddress",
      "outputs": [
        {
          "internalType": "address",
          "name": "",
          "type": "address"
        }
      ],
      "stateMutability": "view",
      "type": "function"
    },
    {
      "inputs": [
        {
          "internalType": "address",
          "name": "_beneficiary",
          "type": "address"
        },
        {
          "internalType": "address",
          "name": "_asset",
          "type": "address"
        },
        {
          "internalType": "uint256",
          "name": "_amount",
          "type": "uint256"
        }
      ],
      "name": "withdraw",
      "outputs": [],
      "stateMutability": "nonpayable",
      "type": "function"
    },
    {
      "inputs": [],
      "name": "withdrawAll",
      "outputs": [],
      "stateMutability": "nonpayable",
      "type": "function"
    }
  ],
  "transactionHash": "0xddb4b5b0b78dc0430726db0d683e3de0576e255702b0cc4466a99d0f5f7eda4c",
  "args": [],
  "solcInputHash": "4f99ffea6c3ba8cd3ef8d713c842ef03",
  "bytecode": "0x60806040523480156200001157600080fd5b506200002a3360008051602062003f4283398151915255565b60008051602062003f42833981519152546040516001600160a01b03909116906000907fc7c0c772add429241571afb3805861fb3cfa2af374534088b76cdb4325a87e9a908290a3613ec080620000826000396000f3fe608060405234801561001057600080fd5b50600436106102115760003560e01c80637b2d9b2c11610125578063c7af3352116100ad578063dbe55e561161007c578063dbe55e5614610453578063de5f626814610466578063f664b3d91461046e578063f6ca71b014610476578063f817bc631461048b57600080fd5b8063c7af335214610412578063d2f248931461041a578063d38bfff41461042d578063d9caed121461044057600080fd5b806396d538bb116100f457806396d538bb146103b2578063aa388af6146103c5578063ad1728cb1461024e578063c2e1e3f4146103f7578063c71daccb1461040a57600080fd5b80637b2d9b2c14610371578063853828b6146103845780639136616a1461038c5780639688d2fc1461039f57600080fd5b806336156323116101a85780635d36b190116101775780635d36b1901461031957806367c7066c146103215780636c03000e146103345780636d52ecb01461034757806372d682731461035a57600080fd5b806336156323146102d8578063430bf08a146102eb57806347e7ef24146102fe5780635a063f631461031157600080fd5b80631072cbea116101e45780631072cbea1461028c5780632c3f50d71461029f5780632e655201146102b25780633164ffd8146102c557600080fd5b80630c340a24146102165780630ed57b3a1461023b5780630f24df5d146102505780630fc3b4c414610263575b600080fd5b61021e610494565b6040516001600160a01b0390911681526020015b60405180910390f35b61024e6102493660046135b7565b6104b1565b005b60d25461021e906001600160a01b031681565b61021e61027136600461359c565b6035602052600090815260409020546001600160a01b031681565b61024e61029a36600461382c565b6104ec565b61024e6102ad3660046135ea565b61052c565b60375461021e906001600160a01b031681565b60d35461021e906001600160a01b031681565b61024e6102e63660046136e8565b61065a565b60345461021e906001600160a01b031681565b61024e61030c36600461382c565b610842565b61024e610d53565b61024e61110e565b60395461021e906001600160a01b031681565b60d45461021e906001600160a01b031681565b60d15461021e906001600160a01b031681565b61036360d55481565b604051908152602001610232565b61021e61037f36600461397f565b6111b4565b61024e6111de565b61024e61039a36600461397f565b611673565b61024e6103ad36600461362d565b61183e565b61024e6103c0366004613856565b611947565b6103e76103d336600461359c565b60d0546001600160a01b0391821691161490565b6040519015158152602001610232565b61024e61040536600461359c565b611a6d565b610363611aec565b6103e7611d22565b60d05461021e906001600160a01b031681565b61024e61043b36600461359c565b611d53565b61024e61044e3660046137f0565b611df7565b60335461021e906001600160a01b031681565b61024e612276565b610363600481565b61047e612710565b6040516102329190613aa3565b61036360385481565b60006104ac600080516020613e6b8339815191525490565b905090565b6104b9611d22565b6104de5760405162461bcd60e51b81526004016104d590613c39565b60405180910390fd5b6104e88282612772565b5050565b6104f4611d22565b6105105760405162461bcd60e51b81526004016104d590613c39565b6104e861051b610494565b6001600160a01b03841690836128d1565b610534611d22565b6105505760405162461bcd60e51b81526004016104d590613c39565b6001600160a01b0383166105a15760405162461bcd60e51b815260206004820152601860248201527716995c9bc81859191c995cdcc81b9bdd08185b1b1bddd95960421b60448201526064016104d5565b6001600160a01b0382166105f25760405162461bcd60e51b815260206004820152601860248201527716995c9bc81859191c995cdcc81b9bdd08185b1b1bddd95960421b60448201526064016104d5565b60d280546001600160a01b0384166001600160a01b031990911617905561063683609d80546001600160a01b039092166001600160a01b0319909216919091179055565b60d080546001600160a01b0319166001600160a01b03929092169190911790555050565b610662611d22565b61067e5760405162461bcd60e51b81526004016104d590613c39565b600054610100900460ff1680610697575060005460ff16155b6106b35760405162461bcd60e51b81526004016104d590613c70565b600054610100900460ff161580156106d5576000805461ffff19166101011790555b868660008181106106e8576106e8613e1e565b90506020020160208101906106fd919061359c565b60cf60006101000a8154816001600160a01b0302191690836001600160a01b031602179055508460d160006101000a8154816001600160a01b0302191690836001600160a01b031602179055508360d360006101000a8154816001600160a01b0302191690836001600160a01b031602179055508260d460006101000a8154816001600160a01b0302191690836001600160a01b031602179055508160d5819055506108218d8d8d8d8d8d80806020026020016040519081016040528093929190818152602001838360200280828437600081840152601f19601f820116905080830192505050505050508c8c8080602002602001604051908101604052809392919081815260200183836020028082843760009201919091525061292392505050565b8015610833576000805461ff00191690555b50505050505050505050505050565b6034546001600160a01b0316331461086c5760405162461bcd60e51b81526004016104d590613c02565b600080516020613e4b8339815191528054600281141561089e5760405162461bcd60e51b81526004016104d590613cbe565b6002825560d0546001600160a01b038581169116146108f65760405162461bcd60e51b81526020600482015260146024820152732a37b5b2b7103737ba1039bab83837b93a32b21760611b60448201526064016104d5565b6040516370a0823160e01b81523060048201526001600160a01b038516906370a082319060240160206040518083038186803b15801561093557600080fd5b505afa158015610949573d6000803e3d6000fd5b505050506040513d601f19601f8201168201806040525081019061096d9190613998565b8310156109b05760405162461bcd60e51b81526020600482015260116024820152704e6f7420656e6f7567682061737365747360781b60448201526064016104d5565b600083116109f95760405162461bcd60e51b81526020600482015260166024820152754d757374206465706f73697420736f6d657468696e6760501b60448201526064016104d5565b6040805160608082526017908201527f4465706f736974696e6720746f2053796e617073653a2000000000000000000060808201526001600160a01b03861660208201529081018490527ff0f0cce21a2c16fc3714f3a884bca7193a057e8544baa837916e9420d890bf8a9060a00160405180910390a1603354604080516001600160a01b03928316815260208101869052918616917f5548c837ab068cf56a2c2479df0882a4922fd203edb7517321831d95078c5f62910160405180910390a260d3546040516319b02f4960e21b81526001600160a01b03868116600483015260009216906366c0bd249060240160206040518083038186803b158015610b0057600080fd5b505afa158015610b14573d6000803e3d6000fd5b505050506040513d601f19601f82011682018060405250810190610b3891906139d5565b60408051600480825260a0820190925260ff9290921692506000919060208201608080368337019050509050610b6f856004612a0c565b818381518110610b8157610b81613e1e565b602090810291909101015260d354604051637355940360e11b81526000916001600160a01b03169063e6ab280690610bc0908590600190600401613b86565b60206040518083038186803b158015610bd857600080fd5b505afa158015610bec573d6000803e3d6000fd5b505050506040513d601f19601f82011682018060405250810190610c109190613998565b905085828481518110610c2557610c25613e1e565b602090810291909101015260d35460405163095ea7b360e01b81526001600160a01b039182166004820152602481018890529088169063095ea7b390604401602060405180830381600087803b158015610c7e57600080fd5b505af1158015610c92573d6000803e3d6000fd5b505050506040513d601f19601f82011682018060405250810190610cb6919061395d565b5060d354604051634d49e87d60e01b81526001600160a01b0390911690634d49e87d90610ceb90859085904290600401613baa565b602060405180830381600087803b158015610d0557600080fd5b505af1158015610d19573d6000803e3d6000fd5b505050506040513d601f19601f82011682018060405250810190610d3d9190613998565b50610d46612a36565b5050506001825550505050565b6039546001600160a01b03163314610dad5760405162461bcd60e51b815260206004820152601b60248201527f43616c6c6572206973206e6f742074686520486172766573746572000000000060448201526064016104d5565b600080516020613e4b83398151915280546002811415610ddf5760405162461bcd60e51b81526004016104d590613cbe565b6002825560d45460d5546040516393f1a40b60e01b815260048101919091523060248201526000916001600160a01b0316906393f1a40b90604401604080518083038186803b158015610e3157600080fd5b505afa158015610e45573d6000803e3d6000fd5b505050506040513d601f19601f82011682018060405250810190610e6991906139b1565b50905080610e775750611107565b60d45460d554604051630c7e663b60e11b815260048101919091523060248201526001600160a01b03909116906318fccc7690604401600060405180830381600087803b158015610ec757600080fd5b505af1158015610edb573d6000803e3d6000fd5b505060d1546040516370a0823160e01b8152306004820152600093508392506001600160a01b03909116906370a082319060240160206040518083038186803b158015610f2757600080fd5b505afa158015610f3b573d6000803e3d6000fd5b505050506040513d601f19601f82011682018060405250810190610f5f9190613998565b90508015610fa25760d15460d25460d054600092610f92926001600160a01b039182169290821691168460018730612c25565b9050610f9e8184613d3b565b9250505b60d0546040516370a0823160e01b81523060048201526000916001600160a01b0316906370a082319060240160206040518083038186803b158015610fe657600080fd5b505afa158015610ffa573d6000803e3d6000fd5b505050506040513d601f19601f8201168201806040525081019061101e9190613998565b905080156111025760395460d054604080516001600160a01b03938416815292909116602083015281018290527ff6c07a063ed4e63808eb8da7112d46dbcd38de2b40a73dbcc9353c5a94c723539060600160405180910390a160d05460395460405163a9059cbb60e01b81526001600160a01b0391821660048201526024810184905291169063a9059cbb90604401602060405180830381600087803b1580156110c857600080fd5b505af11580156110dc573d6000803e3d6000fd5b505050506040513d601f19601f82011682018060405250810190611100919061395d565b505b505050505b5060019055565b7f7eaf9a7750884803435dfabc67aa617a7d8fefb23d8d84b3c9722bd69e48c4bc546001600160a01b0316336001600160a01b0316146111a95760405162461bcd60e51b815260206004820152603060248201527f4f6e6c79207468652070656e64696e6720476f7665726e6f722063616e20636f60448201526f6d706c6574652074686520636c61696d60801b60648201526084016104d5565b6111b233612f10565b565b603a81815481106111c457600080fd5b6000918252602090912001546001600160a01b0316905081565b6034546001600160a01b031633148061120f57506111fa610494565b6001600160a01b0316336001600160a01b0316145b6112675760405162461bcd60e51b815260206004820152602360248201527f43616c6c6572206973206e6f7420746865205661756c74206f7220476f7665726044820152623737b960e91b60648201526084016104d5565b600080516020613e4b833981519152805460028114156112995760405162461bcd60e51b81526004016104d590613cbe565b6002825560d45460d5546040516393f1a40b60e01b815260048101919091523060248201526000916001600160a01b0316906393f1a40b90604401604080518083038186803b1580156112eb57600080fd5b505afa1580156112ff573d6000803e3d6000fd5b505050506040513d601f19601f8201168201806040525081019061132391906139b1565b509050806113315750611107565b60d35460d0546040516319b02f4960e21b81526001600160a01b03918216600482015260009291909116906366c0bd249060240160206040518083038186803b15801561137d57600080fd5b505afa158015611391573d6000803e3d6000fd5b505050506040513d601f19601f820116820180604052508101906113b591906139d5565b60d45460d554604051630ad58d2f60e01b815260048101919091526024810185905230604482015260ff9290921692506001600160a01b031690630ad58d2f90606401600060405180830381600087803b15801561141257600080fd5b505af1158015611426573d6000803e3d6000fd5b505060d35460405163342a87a160e01b81526004810186905260ff85166024820152600093506001600160a01b03909116915063342a87a19060440160206040518083038186803b15801561147a57600080fd5b505afa15801561148e573d6000803e3d6000fd5b505050506040513d601f19601f820116820180604052508101906114b29190613998565b60335460d35460405163095ea7b360e01b81526001600160a01b03918216600482015260248101879052929350169063095ea7b390604401602060405180830381600087803b15801561150457600080fd5b505af1158015611518573d6000803e3d6000fd5b505050506040513d601f19601f8201168201806040525081019061153c919061395d565b5060d3546040516301f1d0ab60e51b81526004810185905260ff84166024820152604481018390524260648201526001600160a01b0390911690633e3a156090608401602060405180830381600087803b15801561159957600080fd5b505af11580156115ad573d6000803e3d6000fd5b505050506040513d601f19601f820116820180604052508101906115d19190613998565b5060d0546040516370a0823160e01b81523060048201526000916001600160a01b0316906370a082319060240160206040518083038186803b15801561161657600080fd5b505afa15801561162a573d6000803e3d6000fd5b505050506040513d601f19601f8201168201806040525081019061164e9190613998565b905080156111025760345460d054611102916001600160a01b039182169116836128d1565b61167b611d22565b6116975760405162461bcd60e51b81526004016104d590613c39565b60365481106116d85760405162461bcd60e51b815260206004820152600d60248201526c092dcecc2d8d2c840d2dcc8caf609b1b60448201526064016104d5565b6000603682815481106116ed576116ed613e1e565b60009182526020808320909101546001600160a01b0390811680845260359092526040909220546036549193509091169061172a90600190613d94565b8310156117ac576036805461174190600190613d94565b8154811061175157611751613e1e565b600091825260209091200154603680546001600160a01b03909216918590811061177d5761177d613e1e565b9060005260206000200160006101000a8154816001600160a01b0302191690836001600160a01b031602179055505b60368054806117bd576117bd613e08565b60008281526020808220600019908401810180546001600160a01b031990811690915593019093556001600160a01b038581168083526035855260409283902080549094169093559051908416815290917f16b7600acff27e39a8a96056b3d533045298de927507f5c1d97e4accde60488c910160405180910390a2505050565b611846611d22565b6118625760405162461bcd60e51b81526004016104d590613c39565b600054610100900460ff168061187b575060005460ff16155b6118975760405162461bcd60e51b81526004016104d590613c70565b600054610100900460ff161580156118b9576000805461ffff19166101011790555b61192a8989898989898080602002602001604051908101604052809392919081815260200183836020028082843760009201919091525050604080516020808d0282810182019093528c82529093508c92508b91829185019084908082843760009201919091525061292392505050565b801561193c576000805461ff00191690555b505050505050505050565b61194f611d22565b61196b5760405162461bcd60e51b81526004016104d590613c39565b60005b81811015611a1f57600083838381811061198a5761198a613e1e565b905060200201602081019061199f919061359c565b6001600160a01b03161415611a0d5760405162461bcd60e51b815260206004820152602e60248201527f43616e206e6f742073657420616e20656d70747920616464726573732061732060448201526d30903932bbb0b932103a37b5b2b760911b60648201526084016104d5565b80611a1781613dd7565b91505061196e565b507f04c0b9649497d316554306e53678d5f5f5dbc3a06f97dec13ff4cfe98b986bbc603a8383604051611a5493929190613af0565b60405180910390a1611a68603a83836134bc565b505050565b611a75611d22565b611a915760405162461bcd60e51b81526004016104d590613c39565b603980546001600160a01b0319166001600160a01b0383169081179091556040805182815260208101929092527fe48386b84419f4d36e0f96c10cc3510b6fb1a33795620c5098b22472bbe90796910160405180910390a150565b60d35460d0546040516319b02f4960e21b81526001600160a01b039182166004820152600092839216906366c0bd249060240160206040518083038186803b158015611b3757600080fd5b505afa158015611b4b573d6000803e3d6000fd5b505050506040513d601f19601f82011682018060405250810190611b6f91906139d5565b60d0546040516370a0823160e01b815230600482015260ff9290921692506000916001600160a01b03909116906370a082319060240160206040518083038186803b158015611bbd57600080fd5b505afa158015611bd1573d6000803e3d6000fd5b505050506040513d601f19601f82011682018060405250810190611bf59190613998565b60d45460d5546040516393f1a40b60e01b815260048101919091523060248201529192506000916001600160a01b03909116906393f1a40b90604401604080518083038186803b158015611c4857600080fd5b505afa158015611c5c573d6000803e3d6000fd5b505050506040513d601f19601f82011682018060405250810190611c8091906139b1565b5090508015611d1b5760d35460405163342a87a160e01b81526004810183905260ff851660248201526001600160a01b039091169063342a87a19060440160206040518083038186803b158015611cd657600080fd5b505afa158015611cea573d6000803e3d6000fd5b505050506040513d601f19601f82011682018060405250810190611d0e9190613998565b611d189083613d3b565b91505b5092915050565b6000611d3a600080516020613e6b8339815191525490565b6001600160a01b0316336001600160a01b031614905090565b611d5b611d22565b611d775760405162461bcd60e51b81526004016104d590613c39565b611d9f817f7eaf9a7750884803435dfabc67aa617a7d8fefb23d8d84b3c9722bd69e48c4bc55565b806001600160a01b0316611dbf600080516020613e6b8339815191525490565b6001600160a01b03167fa39cc5eb22d0f34d8beaefee8a3f17cc229c1a1d1ef87a5ad47313487b1c4f0d60405160405180910390a350565b6034546001600160a01b03163314611e215760405162461bcd60e51b81526004016104d590613c02565b600080516020613e4b83398151915280546002811415611e535760405162461bcd60e51b81526004016104d590613cbe565b6002825560d0546001600160a01b03858116911614611eab5760405162461bcd60e51b81526020600482015260146024820152732a37b5b2b7103737ba1039bab83837b93a32b21760611b60448201526064016104d5565b60408051600480825260a08201909252600091602082016080803683370190505060d3546040516319b02f4960e21b81526001600160a01b038881166004830152929350600092909116906366c0bd249060240160206040518083038186803b158015611f1757600080fd5b505afa158015611f2b573d6000803e3d6000fd5b505050506040513d601f19601f82011682018060405250810190611f4f91906139d5565b60ff169050611f5f856004612fd4565b611f6a906001613d3b565b828281518110611f7c57611f7c613e1e565b602090810291909101015260d354604051637355940360e11b81526000916001600160a01b03169063e6ab280690611fba9086908590600401613b86565b60206040518083038186803b158015611fd257600080fd5b505afa158015611fe6573d6000803e3d6000fd5b505050506040513d601f19601f8201168201806040525081019061200a9190613998565b60d45460d5546040516393f1a40b60e01b815260048101919091523060248201529192506000916001600160a01b03909116906393f1a40b90604401604080518083038186803b15801561205d57600080fd5b505afa158015612071573d6000803e3d6000fd5b505050506040513d601f19601f8201168201806040525081019061209591906139b1565b509050808211156120a4578091505b6120ad82612fe3565b60cf5460d35460405163095ea7b360e01b81526001600160a01b0391821660048201526024810185905291169063095ea7b390604401602060405180830381600087803b1580156120fd57600080fd5b505af1158015612111573d6000803e3d6000fd5b505050506040513d601f19601f82011682018060405250810190612135919061395d565b5060d3546040516301f1d0ab60e51b81526004810184905260ff85166024820152604481018990524260648201526001600160a01b0390911690633e3a156090608401602060405180830381600087803b15801561219257600080fd5b505af11580156121a6573d6000803e3d6000fd5b505050506040513d601f19601f820116820180604052508101906121ca9190613998565b5060d0546040516370a0823160e01b81523060048201526000916001600160a01b0316906370a082319060240160206040518083038186803b15801561220f57600080fd5b505afa158015612223573d6000803e3d6000fd5b505050506040513d601f19601f820116820180604052508101906122479190613998565b905080156122665760d054612266906001600160a01b03168b836128d1565b5050505050600182555050505050565b6034546001600160a01b031633146122a05760405162461bcd60e51b81526004016104d590613c02565b600080516020613e4b833981519152805460028114156122d25760405162461bcd60e51b81526004016104d590613cbe565b6002825560408051600480825260a0820190925260009160208201608080368337505060408051600480825260a082019092529293506000929150602082016080803683370190505090506000805b6036548110156125fb5760d354603680546001600160a01b03909216916366c0bd2491908490811061235557612355613e1e565b60009182526020909120015460405160e083901b6001600160e01b03191681526001600160a01b03909116600482015260240160206040518083038186803b1580156123a057600080fd5b505afa1580156123b4573d6000803e3d6000fd5b505050506040513d601f19601f820116820180604052508101906123d891906139d5565b60ff1691506000603682815481106123f2576123f2613e1e565b60009182526020822001546040516370a0823160e01b81523060048201526001600160a01b03909116925082906370a082319060240160206040518083038186803b15801561244057600080fd5b505afa158015612454573d6000803e3d6000fd5b505050506040513d601f19601f820116820180604052508101906124789190613998565b604080516060808252601b908201527f4465706f736974696e6720616c6c20746f2053796e617073653a20000000000060808201526001600160a01b03851660208201529081018290529091507ff0f0cce21a2c16fc3714f3a884bca7193a057e8544baa837916e9420d890bf8a9060a00160405180910390a180156125e657612503816004612a0c565b86858151811061251557612515613e1e565b6020026020010181815250508085858151811061253457612534613e1e565b6020026020010181815250506036838154811061255357612553613e1e565b60009182526020909120015460d35460405163095ea7b360e01b81526001600160a01b0391821660048201526024810184905291169063095ea7b390604401602060405180830381600087803b1580156125ac57600080fd5b505af11580156125c0573d6000803e3d6000fd5b505050506040513d601f19601f820116820180604052508101906125e4919061395d565b505b505080806125f390613dd7565b915050612321565b5060d354604051637355940360e11b81526000916001600160a01b03169063e6ab280690612630908790600190600401613b86565b60206040518083038186803b15801561264857600080fd5b505afa15801561265c573d6000803e3d6000fd5b505050506040513d601f19601f820116820180604052508101906126809190613998565b60d354604051634d49e87d60e01b81529192506001600160a01b031690634d49e87d906126b590869085904290600401613baa565b602060405180830381600087803b1580156126cf57600080fd5b505af11580156126e3573d6000803e3d6000fd5b505050506040513d601f19601f820116820180604052508101906127079190613998565b50611102612a36565b6060603a80548060200260200160405190810160405280929190818152602001828054801561276857602002820191906000526020600020905b81546001600160a01b0316815260019091019060200180831161274a575b5050505050905090565b6001600160a01b0382811660009081526035602052604090205416156127cf5760405162461bcd60e51b81526020600482015260126024820152711c151bdad95b88185b1c9958591e481cd95d60721b60448201526064016104d5565b6001600160a01b038216158015906127ef57506001600160a01b03811615155b61282f5760405162461bcd60e51b8152602060048201526011602482015270496e76616c69642061646472657373657360781b60448201526064016104d5565b6001600160a01b03828116600081815260356020908152604080832080549587166001600160a01b031996871681179091556036805460018101825594527f4a11f94e20a93c79f6ec743a1954ec4fc2c08429ae2122118bf234b2185c81b890930180549095168417909455925190815290917fef6485b84315f9b1483beffa32aae9a0596890395e3d7521f1c5fbb51790e765910160405180910390a25050565b604080516001600160a01b038416602482015260448082018490528251808303909101815260649091019091526020810180516001600160e01b031663a9059cbb60e01b179052611a68908490613055565b603380546001600160a01b038089166001600160a01b031992831617909255603480549288169290911691909117905561295f603a85856134bc565b508151815181146129a95760405162461bcd60e51b8152602060048201526014602482015273496e76616c696420696e7075742061727261797360601b60448201526064016104d5565b60005b81811015612a02576129f08482815181106129c9576129c9613e1e565b60200260200101518483815181106129e3576129e3613e1e565b6020026020010151612772565b806129fa81613dd7565b9150506129ac565b5050505050505050565b6000612710612a1b8382613d94565b612a259085613d75565b612a2f9190613d53565b9392505050565b60cf5460d4546040516370a0823160e01b81523060048201526001600160a01b039283169263095ea7b392169083906370a082319060240160206040518083038186803b158015612a8657600080fd5b505afa158015612a9a573d6000803e3d6000fd5b505050506040513d601f19601f82011682018060405250810190612abe9190613998565b6040516001600160e01b031960e085901b1681526001600160a01b0390921660048301526024820152604401602060405180830381600087803b158015612b0457600080fd5b505af1158015612b18573d6000803e3d6000fd5b505050506040513d601f19601f82011682018060405250810190612b3c919061395d565b5060d45460d55460cf546040516370a0823160e01b81523060048201526001600160a01b0393841693638dbdbe6d939216906370a082319060240160206040518083038186803b158015612b8f57600080fd5b505afa158015612ba3573d6000803e3d6000fd5b505050506040513d601f19601f82011682018060405250810190612bc79190613998565b6040516001600160e01b031960e085901b16815260048101929092526024820152306044820152606401600060405180830381600087803b158015612c0b57600080fd5b505af1158015612c1f573d6000803e3d6000fd5b50505050565b609d5460405163095ea7b360e01b81526001600160a01b0391821660048201526024810184905260009189169063095ea7b390604401602060405180830381600087803b158015612c7557600080fd5b505af1158015612c89573d6000803e3d6000fd5b505050506040513d601f19601f82011682018060405250810190612cad919061395d565b506000612cbe898989898989613127565b905080612ccf576000915050612f05565b60408051600280825260608201909252600091816020015b6040805160608101825260008082526020808301829052928201528252600019909201910181612ce75790505090508981600081518110612d2a57612d2a613e1e565b6020026020010151600001906001600160a01b031690816001600160a01b0316815250508881600081518110612d6257612d62613e1e565b6020026020010151602001906001600160a01b031690816001600160a01b0316815250508681600081518110612d9a57612d9a613e1e565b602002602001015160400190151590811515815250508881600181518110612dc457612dc4613e1e565b6020026020010151600001906001600160a01b031690816001600160a01b0316815250508781600181518110612dfc57612dfc613e1e565b6020026020010151602001906001600160a01b031690816001600160a01b0316815250508581600181518110612e3457612e34613e1e565b6020908102919091010151901515604090910152609d546000906001600160a01b031663f41766d887838589612e6c42610258613d3b565b6040518663ffffffff1660e01b8152600401612e8c959493929190613cff565b600060405180830381600087803b158015612ea657600080fd5b505af1158015612eba573d6000803e3d6000fd5b505050506040513d6000823e601f3d908101601f19168201604052612ee29190810190613898565b905080600281518110612ef757612ef7613e1e565b602002602001015193505050505b979650505050505050565b6001600160a01b038116612f665760405162461bcd60e51b815260206004820152601a60248201527f4e657720476f7665726e6f72206973206164647265737328302900000000000060448201526064016104d5565b806001600160a01b0316612f86600080516020613e6b8339815191525490565b6001600160a01b03167fc7c0c772add429241571afb3805861fb3cfa2af374534088b76cdb4325a87e9a60405160405180910390a3612fd181600080516020613e6b83398151915255565b50565b6000612710612a1b8382613d3b565b60d45460d554604051630ad58d2f60e01b81526004810191909152602481018390523060448201526001600160a01b0390911690630ad58d2f90606401600060405180830381600087803b15801561303a57600080fd5b505af115801561304e573d6000803e3d6000fd5b5050505050565b60006130aa826040518060400160405280602081526020017f5361666545524332303a206c6f772d6c6576656c2063616c6c206661696c6564815250856001600160a01b03166133549092919063ffffffff16565b805190915015611a6857808060200190518101906130c8919061395d565b611a685760405162461bcd60e51b815260206004820152602a60248201527f5361666545524332303a204552433230206f7065726174696f6e20646964206e6044820152691bdd081cdd58d8d9595960b21b60648201526084016104d5565b60408051600280825260608201909252600091829190816020015b6040805160608101825260008082526020808301829052928201528252600019909201910181613142579050509050878160008151811061318557613185613e1e565b6020026020010151600001906001600160a01b031690816001600160a01b03168152505086816000815181106131bd576131bd613e1e565b6020026020010151602001906001600160a01b031690816001600160a01b03168152505084816000815181106131f5576131f5613e1e565b60200260200101516040019015159081151581525050868160018151811061321f5761321f613e1e565b6020026020010151600001906001600160a01b031690816001600160a01b031681525050858160018151811061325757613257613e1e565b6020026020010151602001906001600160a01b031690816001600160a01b031681525050838160018151811061328f5761328f613e1e565b6020908102919091010151901515604091820152609d5490516326207f2d60e21b81526000916001600160a01b031690639881fcb4906132d59087908690600401613ce6565b60006040518083038186803b1580156132ed57600080fd5b505afa158015613301573d6000803e3d6000fd5b505050506040513d6000823e601f3d908101601f191682016040526133299190810190613898565b90508060028151811061333e5761333e613e1e565b6020026020010151925050509695505050505050565b6060613363848460008561336b565b949350505050565b6060824710156133cc5760405162461bcd60e51b815260206004820152602660248201527f416464726573733a20696e73756666696369656e742062616c616e636520666f6044820152651c8818d85b1b60d21b60648201526084016104d5565b843b61341a5760405162461bcd60e51b815260206004820152601d60248201527f416464726573733a2063616c6c20746f206e6f6e2d636f6e747261637400000060448201526064016104d5565b600080866001600160a01b031685876040516134369190613a87565b60006040518083038185875af1925050503d8060008114613473576040519150601f19603f3d011682016040523d82523d6000602084013e613478565b606091505b5091509150612f0582828660608315613492575081612a2f565b8251156134a25782518084602001fd5b8160405162461bcd60e51b81526004016104d59190613bcf565b82805482825590600052602060002090810192821561350f579160200282015b8281111561350f5781546001600160a01b0319166001600160a01b038435161782556020909201916001909101906134dc565b5061351b92915061351f565b5090565b5b8082111561351b5760008155600101613520565b80356001600160a01b038116811461354b57600080fd5b919050565b60008083601f84011261356257600080fd5b50813567ffffffffffffffff81111561357a57600080fd5b6020830191508360208260051b850101111561359557600080fd5b9250929050565b6000602082840312156135ae57600080fd5b612a2f82613534565b600080604083850312156135ca57600080fd5b6135d383613534565b91506135e160208401613534565b90509250929050565b6000806000606084860312156135ff57600080fd5b61360884613534565b925061361660208501613534565b915061362460408501613534565b90509250925092565b60008060008060008060008060a0898b03121561364957600080fd5b61365289613534565b975061366060208a01613534565b9650604089013567ffffffffffffffff8082111561367d57600080fd5b6136898c838d01613550565b909850965060608b01359150808211156136a257600080fd5b6136ae8c838d01613550565b909650945060808b01359150808211156136c757600080fd5b506136d48b828c01613550565b999c989b5096995094979396929594505050565b6000806000806000806000806000806000806101208d8f03121561370b57600080fd5b6137148d613534565b9b5061372260208e01613534565b9a5067ffffffffffffffff60408e0135111561373d57600080fd5b61374d8e60408f01358f01613550565b909a50985067ffffffffffffffff60608e0135111561376b57600080fd5b61377b8e60608f01358f01613550565b909850965067ffffffffffffffff60808e0135111561379957600080fd5b6137a98e60808f01358f01613550565b90965094506137ba60a08e01613534565b93506137c860c08e01613534565b92506137d660e08e01613534565b91506101008d013590509295989b509295989b509295989b565b60008060006060848603121561380557600080fd5b61380e84613534565b925061381c60208501613534565b9150604084013590509250925092565b6000806040838503121561383f57600080fd5b61384883613534565b946020939093013593505050565b6000806020838503121561386957600080fd5b823567ffffffffffffffff81111561388057600080fd5b61388c85828601613550565b90969095509350505050565b600060208083850312156138ab57600080fd5b825167ffffffffffffffff808211156138c357600080fd5b818501915085601f8301126138d757600080fd5b8151818111156138e9576138e9613e34565b8060051b604051601f19603f8301168101818110858211171561390e5761390e613e34565b604052828152858101935084860182860187018a101561392d57600080fd5b600095505b83861015613950578051855260019590950194938601938601613932565b5098975050505050505050565b60006020828403121561396f57600080fd5b81518015158114612a2f57600080fd5b60006020828403121561399157600080fd5b5035919050565b6000602082840312156139aa57600080fd5b5051919050565b600080604083850312156139c457600080fd5b505080516020909101519092909150565b6000602082840312156139e757600080fd5b815160ff81168114612a2f57600080fd5b600081518084526020808501945080840160005b83811015613a4c57815180516001600160a01b03908116895284820151168489015260409081015115159088015260609096019590820190600101613a0c565b509495945050505050565b600081518084526020808501945080840160005b83811015613a4c57815187529582019590820190600101613a6b565b60008251613a99818460208701613dab565b9190910192915050565b6020808252825182820181905260009190848201906040850190845b81811015613ae45783516001600160a01b031683529284019291840191600101613abf565b50909695505050505050565b6000604082016040835280865480835260608501915087600052602092508260002060005b82811015613b3a5781546001600160a01b031684529284019260019182019101613b15565b505050838103828501528481528590820160005b86811015613b7a576001600160a01b03613b6784613534565b1682529183019190830190600101613b4e565b50979650505050505050565b604081526000613b996040830185613a57565b905082151560208301529392505050565b606081526000613bbd6060830186613a57565b60208301949094525060400152919050565b6020815260008251806020840152613bee816040850160208701613dab565b601f01601f19169190910160400192915050565b60208082526017908201527f43616c6c6572206973206e6f7420746865205661756c74000000000000000000604082015260600190565b6020808252601a908201527f43616c6c6572206973206e6f742074686520476f7665726e6f72000000000000604082015260600190565b6020808252602e908201527f496e697469616c697a61626c653a20636f6e747261637420697320616c72656160408201526d191e481a5b9a5d1a585b1a5e995960921b606082015260800190565b6020808252600e908201526d1499595b9d1c985b9d0818d85b1b60921b604082015260600190565b82815260406020820152600061336360408301846139f8565b85815284602082015260a060408201526000613d1e60a08301866139f8565b6001600160a01b0394909416606083015250608001529392505050565b60008219821115613d4e57613d4e613df2565b500190565b600082613d7057634e487b7160e01b600052601260045260246000fd5b500490565b6000816000190483118215151615613d8f57613d8f613df2565b500290565b600082821015613da657613da6613df2565b500390565b60005b83811015613dc6578181015183820152602001613dae565b83811115612c1f5750506000910152565b6000600019821415613deb57613deb613df2565b5060010190565b634e487b7160e01b600052601160045260246000fd5b634e487b7160e01b600052603160045260246000fd5b634e487b7160e01b600052603260045260246000fd5b634e487b7160e01b600052604160045260246000fdfe48a06827bfe8bfc0a59fe65d0fa78f553938265ed1f971326fc09947d19a593c83f34c88ec39d54d1e423bd8a181ebc59ede5dcc9996c2df334668b4f89fdd73a2646970667358221220796ec944d4f9574f65431da3e4ed2dd01983d424237aa5cf5f2a83d04cdb230764736f6c6343000806003383f34c88ec39d54d1e423bd8a181ebc59ede5dcc9996c2df334668b4f89fdd73",
  "devdoc": {
    "kind": "dev",
    "methods": {
      "checkBalance()": {
        "details": "Get the total primary stable value held in the platform.      This includes any interest that was generated since depositing.",
        "returns": {
          "_0": "   Total value of the asset in the platform"
        }
      },
      "claimGovernance()": {
        "details": "Claim Governance of the contract to a new account (`newGovernor`). Can only be called by the new Governor."
      },
      "collectRewardTokens()": {
        "details": "Collect accumulated reward token and send to Vault."
      },
      "deposit(address,uint256)": {
        "details": "Deposit an amount of asset into the platform",
        "params": {
          "_amount": "Units of asset to deposit",
          "_asset": "Address for the asset"
        }
      },
      "depositAll()": {
        "details": "Deposit balance of all supported assets into the platform"
      },
      "getRewardTokenAddresses()": {
        "details": "Get the reward token addresses.",
        "returns": {
          "_0": "address[] the reward token addresses."
        }
      },
      "governor()": {
        "details": "Returns the address of the current Governor."
      },
      "initialize(address,address,address[],address[],address[])": {
        "details": "Internal initialize function, to set up initial internal state",
        "params": {
          "_assets": "Addresses of initial supported assets",
          "_pTokens": "Platform Token corresponding addresses",
          "_platformAddress": "Generic platform address",
          "_rewardTokenAddresses": "Address of reward token for platform",
          "_vaultAddress": "Address of the Vault"
        }
      },
      "initialize(address,address,address[],address[],address[],address,address,address,uint256)": {
        "params": {
          "_assets": "Addresses of supported assets. MUST be passed in the same                order as returned by coins on the pool contract, i.e.                USDC",
          "_pTokens": "Platform Token corresponding addresses",
          "_platformAddress": "Address of the nUSD",
          "_rewardTokenAddresses": "Address of USDC",
          "_vaultAddress": "Address of the vault"
        }
      },
      "isGovernor()": {
        "details": "Returns true if the caller is the current Governor."
      },
      "removePToken(uint256)": {
        "details": "Remove a supported asset by passing its index.      This method can only be called by the system Governor",
        "params": {
          "_assetIndex": "Index of the asset to be removed"
        }
      },
      "setHarvesterAddress(address)": {
        "details": "Set the reward token addresses.",
        "params": {
          "_harvesterAddress": "Address of the harvester"
        }
      },
      "setPTokenAddress(address,address)": {
        "details": "Provide support for asset by passing its pToken address.      This method can only be called by the system Governor",
        "params": {
          "_asset": "Address for the asset",
          "_pToken": "Address for the corresponding platform token"
        }
      },
      "setRewardTokenAddresses(address[])": {
        "details": "Set the reward token addresses.",
        "params": {
          "_rewardTokenAddresses": "Address array of the reward token"
        }
      },
      "supportsAsset(address)": {
        "details": "Check if an asset is supported.",
        "params": {
          "_asset": "Address of the asset"
        },
        "returns": {
          "_0": "bool     Whether asset is supported"
        }
      },
      "transferGovernance(address)": {
        "details": "Transfers Governance of the contract to a new account (`newGovernor`). Can only be called by the current Governor. Must be claimed for this to complete",
        "params": {
          "_newGovernor": "Address of the new Governor"
        }
      },
      "transferToken(address,uint256)": {
        "details": "Transfer token to governor. Intended for recovering tokens stuck in      strategy contracts, i.e. mistaken sends.",
        "params": {
          "_amount": "Amount of the asset to transfer",
          "_asset": "Address for the asset"
        }
      },
      "withdrawAll()": {
        "details": "Remove all assets from platform and send them to Vault contract."
      }
    },
    "version": 1
  },
  "userdoc": {
    "kind": "user",
    "methods": {
      "initialize(address,address,address[],address[],address[],address,address,address,uint256)": {
        "notice": "Initializer for setting up strategy internal state. This overrides the InitializableAbstractStrategy initializer as Synapse strategies don't fit well within that abstraction."
      }
    },
    "version": 1
  },
  "storageLayout": {
    "storage": [
      {
        "astId": 30647,
        "contract": "contracts/strategies/SynapseStrategy.sol:SynapseStrategy",
        "label": "initialized",
        "offset": 0,
        "slot": "0",
        "type": "t_bool"
      },
      {
        "astId": 30650,
        "contract": "contracts/strategies/SynapseStrategy.sol:SynapseStrategy",
        "label": "initializing",
        "offset": 1,
        "slot": "0",
        "type": "t_bool"
      },
      {
        "astId": 30690,
        "contract": "contracts/strategies/SynapseStrategy.sol:SynapseStrategy",
        "label": "______gap",
        "offset": 0,
        "slot": "1",
        "type": "t_array(t_uint256)50_storage"
      },
      {
        "astId": 30774,
        "contract": "contracts/strategies/SynapseStrategy.sol:SynapseStrategy",
        "label": "platformAddress",
        "offset": 0,
        "slot": "51",
        "type": "t_address"
      },
      {
        "astId": 30776,
        "contract": "contracts/strategies/SynapseStrategy.sol:SynapseStrategy",
        "label": "vaultAddress",
        "offset": 0,
        "slot": "52",
        "type": "t_address"
      },
      {
        "astId": 30780,
        "contract": "contracts/strategies/SynapseStrategy.sol:SynapseStrategy",
        "label": "assetToPToken",
        "offset": 0,
        "slot": "53",
        "type": "t_mapping(t_address,t_address)"
      },
      {
        "astId": 30783,
        "contract": "contracts/strategies/SynapseStrategy.sol:SynapseStrategy",
        "label": "assetsMapped",
        "offset": 0,
        "slot": "54",
        "type": "t_array(t_address)dyn_storage"
      },
      {
        "astId": 30785,
        "contract": "contracts/strategies/SynapseStrategy.sol:SynapseStrategy",
        "label": "_deprecated_rewardTokenAddress",
        "offset": 0,
        "slot": "55",
        "type": "t_address"
      },
      {
        "astId": 30787,
        "contract": "contracts/strategies/SynapseStrategy.sol:SynapseStrategy",
        "label": "_deprecated_rewardLiquidationThreshold",
        "offset": 0,
        "slot": "56",
        "type": "t_uint256"
      },
      {
        "astId": 30789,
        "contract": "contracts/strategies/SynapseStrategy.sol:SynapseStrategy",
        "label": "harvesterAddress",
        "offset": 0,
        "slot": "57",
        "type": "t_address"
      },
      {
        "astId": 30792,
        "contract": "contracts/strategies/SynapseStrategy.sol:SynapseStrategy",
        "label": "rewardTokenAddresses",
        "offset": 0,
        "slot": "58",
        "type": "t_array(t_address)dyn_storage"
      },
      {
        "astId": 30796,
        "contract": "contracts/strategies/SynapseStrategy.sol:SynapseStrategy",
        "label": "_reserved",
        "offset": 0,
        "slot": "59",
        "type": "t_array(t_int256)98_storage"
      },
      {
        "astId": 21319,
        "contract": "contracts/strategies/SynapseStrategy.sol:SynapseStrategy",
        "label": "dystRouter",
        "offset": 0,
        "slot": "157",
        "type": "t_contract(IDystopiaRouter)10082"
      },
      {
        "astId": 21667,
        "contract": "contracts/strategies/SynapseStrategy.sol:SynapseStrategy",
        "label": "__gap",
        "offset": 0,
        "slot": "158",
        "type": "t_array(t_uint256)49_storage"
      },
      {
        "astId": 27278,
        "contract": "contracts/strategies/SynapseStrategy.sol:SynapseStrategy",
        "label": "pTokenAddress",
        "offset": 0,
        "slot": "207",
        "type": "t_address"
      },
      {
        "astId": 27281,
        "contract": "contracts/strategies/SynapseStrategy.sol:SynapseStrategy",
        "label": "primaryStable",
        "offset": 0,
        "slot": "208",
        "type": "t_contract(IERC20)623"
      },
      {
        "astId": 27284,
        "contract": "contracts/strategies/SynapseStrategy.sol:SynapseStrategy",
        "label": "synToken",
        "offset": 0,
        "slot": "209",
        "type": "t_contract(IERC20)623"
      },
      {
        "astId": 27287,
        "contract": "contracts/strategies/SynapseStrategy.sol:SynapseStrategy",
        "label": "intermediateToken",
        "offset": 0,
        "slot": "210",
        "type": "t_contract(IERC20)623"
      },
      {
        "astId": 27290,
        "contract": "contracts/strategies/SynapseStrategy.sol:SynapseStrategy",
        "label": "synapsePool",
        "offset": 0,
        "slot": "211",
        "type": "t_contract(IPool)4852"
      },
      {
        "astId": 27293,
        "contract": "contracts/strategies/SynapseStrategy.sol:SynapseStrategy",
        "label": "synapseStakerPool",
        "offset": 0,
        "slot": "212",
        "type": "t_contract(IStakerPool)4933"
      },
      {
        "astId": 27295,
        "contract": "contracts/strategies/SynapseStrategy.sol:SynapseStrategy",
        "label": "synapseStakerPoolId",
        "offset": 0,
        "slot": "213",
        "type": "t_uint256"
      }
    ],
    "types": {
      "t_address": {
        "encoding": "inplace",
        "label": "address",
        "numberOfBytes": "20"
      },
      "t_array(t_address)dyn_storage": {
        "base": "t_address",
        "encoding": "dynamic_array",
        "label": "address[]",
        "numberOfBytes": "32"
      },
      "t_array(t_int256)98_storage": {
        "base": "t_int256",
        "encoding": "inplace",
        "label": "int256[98]",
        "numberOfBytes": "3136"
      },
      "t_array(t_uint256)49_storage": {
        "base": "t_uint256",
        "encoding": "inplace",
        "label": "uint256[49]",
        "numberOfBytes": "1568"
      },
      "t_array(t_uint256)50_storage": {
        "base": "t_uint256",
        "encoding": "inplace",
        "label": "uint256[50]",
        "numberOfBytes": "1600"
      },
      "t_bool": {
        "encoding": "inplace",
        "label": "bool",
        "numberOfBytes": "1"
      },
      "t_contract(IDystopiaRouter)10082": {
        "encoding": "inplace",
        "label": "contract IDystopiaRouter",
        "numberOfBytes": "20"
      },
      "t_contract(IERC20)623": {
        "encoding": "inplace",
        "label": "contract IERC20",
        "numberOfBytes": "20"
      },
      "t_contract(IPool)4852": {
        "encoding": "inplace",
        "label": "contract IPool",
        "numberOfBytes": "20"
      },
      "t_contract(IStakerPool)4933": {
        "encoding": "inplace",
        "label": "contract IStakerPool",
        "numberOfBytes": "20"
      },
      "t_int256": {
        "encoding": "inplace",
        "label": "int256",
        "numberOfBytes": "32"
      },
      "t_mapping(t_address,t_address)": {
        "encoding": "mapping",
        "key": "t_address",
        "label": "mapping(address => address)",
        "numberOfBytes": "32",
        "value": "t_address"
      },
      "t_uint256": {
        "encoding": "inplace",
        "label": "uint256",
        "numberOfBytes": "32"
      }
    }
  }
}