{
  "address": "0x24E43AA88663efB968441E6E0f99E64C32490875",
  "abi": [
    {
      "anonymous": false,
      "inputs": [
        {
          "indexed": false,
          "internalType": "uint256",
          "name": "_threshold",
          "type": "uint256"
        }
      ],
      "name": "AllocateThresholdUpdated",
      "type": "event"
    },
    {
      "anonymous": false,
      "inputs": [
        {
          "indexed": false,
          "internalType": "address",
          "name": "_asset",
          "type": "address"
        },
        {
          "indexed": false,
          "internalType": "address",
          "name": "_strategy",
          "type": "address"
        },
        {
          "indexed": false,
          "internalType": "uint256",
          "name": "_amount",
          "type": "uint256"
        }
      ],
      "name": "AssetAllocated",
      "type": "event"
    },
    {
      "anonymous": false,
      "inputs": [
        {
          "indexed": false,
          "internalType": "address",
          "name": "_asset",
          "type": "address"
        },
        {
          "indexed": false,
          "internalType": "address",
          "name": "_strategy",
          "type": "address"
        }
      ],
      "name": "AssetDefaultStrategyUpdated",
      "type": "event"
    },
    {
      "anonymous": false,
      "inputs": [
        {
          "indexed": false,
          "internalType": "address",
          "name": "_asset",
          "type": "address"
        }
      ],
      "name": "AssetSupported",
      "type": "event"
    },
    {
      "anonymous": false,
      "inputs": [],
      "name": "CapitalPaused",
      "type": "event"
    },
    {
      "anonymous": false,
      "inputs": [],
      "name": "CapitalUnpaused",
      "type": "event"
    },
    {
      "anonymous": false,
      "inputs": [
        {
          "indexed": true,
          "internalType": "address",
          "name": "previousGovernor",
          "type": "address"
        },
        {
          "indexed": true,
          "internalType": "address",
          "name": "newGovernor",
          "type": "address"
        }
      ],
      "name": "GovernorshipTransferred",
      "type": "event"
    },
    {
      "anonymous": false,
      "inputs": [
        {
          "indexed": false,
          "internalType": "uint256",
          "name": "maxSupplyDiff",
          "type": "uint256"
        }
      ],
      "name": "MaxSupplyDiffChanged",
      "type": "event"
    },
    {
      "anonymous": false,
      "inputs": [
        {
          "indexed": false,
          "internalType": "address",
          "name": "_addr",
          "type": "address"
        },
        {
          "indexed": false,
          "internalType": "uint256",
          "name": "_value",
          "type": "uint256"
        }
      ],
      "name": "Mint",
      "type": "event"
    },
    {
      "anonymous": false,
      "inputs": [
        {
          "indexed": true,
          "internalType": "address",
          "name": "previousGovernor",
          "type": "address"
        },
        {
          "indexed": true,
          "internalType": "address",
          "name": "newGovernor",
          "type": "address"
        }
      ],
      "name": "PendingGovernorshipTransfer",
      "type": "event"
    },
    {
      "anonymous": false,
      "inputs": [
        {
          "indexed": false,
          "internalType": "address",
          "name": "_priceProvider",
          "type": "address"
        }
      ],
      "name": "PriceProviderUpdated",
      "type": "event"
    },
    {
      "anonymous": false,
      "inputs": [],
      "name": "RebasePaused",
      "type": "event"
    },
    {
      "anonymous": false,
      "inputs": [
        {
          "indexed": false,
          "internalType": "uint256",
          "name": "_threshold",
          "type": "uint256"
        }
      ],
      "name": "RebaseThresholdUpdated",
      "type": "event"
    },
    {
      "anonymous": false,
      "inputs": [],
      "name": "RebaseUnpaused",
      "type": "event"
    },
    {
      "anonymous": false,
      "inputs": [
        {
          "indexed": false,
          "internalType": "address",
          "name": "_addr",
          "type": "address"
        },
        {
          "indexed": false,
          "internalType": "uint256",
          "name": "_value",
          "type": "uint256"
        }
      ],
      "name": "Redeem",
      "type": "event"
    },
    {
      "anonymous": false,
      "inputs": [
        {
          "indexed": false,
          "internalType": "uint256",
          "name": "_redeemFeeBps",
          "type": "uint256"
        }
      ],
      "name": "RedeemFeeUpdated",
      "type": "event"
    },
    {
      "anonymous": false,
      "inputs": [
        {
          "indexed": false,
          "internalType": "address",
          "name": "_address",
          "type": "address"
        }
      ],
      "name": "StrategistUpdated",
      "type": "event"
    },
    {
      "anonymous": false,
      "inputs": [
        {
          "indexed": false,
          "internalType": "address",
          "name": "_addr",
          "type": "address"
        }
      ],
      "name": "StrategyApproved",
      "type": "event"
    },
    {
      "anonymous": false,
      "inputs": [
        {
          "indexed": false,
          "internalType": "address",
          "name": "_addr",
          "type": "address"
        }
      ],
      "name": "StrategyRemoved",
      "type": "event"
    },
    {
      "anonymous": false,
      "inputs": [
        {
          "indexed": false,
          "internalType": "address",
          "name": "_address",
          "type": "address"
        }
      ],
      "name": "TrusteeAddressChanged",
      "type": "event"
    },
    {
      "anonymous": false,
      "inputs": [
        {
          "indexed": false,
          "internalType": "uint256",
          "name": "_basis",
          "type": "uint256"
        }
      ],
      "name": "TrusteeFeeBpsChanged",
      "type": "event"
    },
    {
      "anonymous": false,
      "inputs": [
        {
          "indexed": false,
          "internalType": "uint256",
          "name": "_vaultBuffer",
          "type": "uint256"
        }
      ],
      "name": "VaultBufferUpdated",
      "type": "event"
    },
    {
      "anonymous": false,
      "inputs": [
        {
          "indexed": false,
          "internalType": "address",
          "name": "_to",
          "type": "address"
        },
        {
          "indexed": false,
          "internalType": "uint256",
          "name": "_yield",
          "type": "uint256"
        },
        {
          "indexed": false,
          "internalType": "uint256",
          "name": "_fee",
          "type": "uint256"
        }
      ],
      "name": "YieldDistribution",
      "type": "event"
    },
    {
      "inputs": [],
      "name": "TOTAL_WEIGHT",
      "outputs": [
        {
          "internalType": "uint256",
          "name": "",
          "type": "uint256"
        }
      ],
      "stateMutability": "view",
      "type": "function"
    },
    {
      "inputs": [
        {
          "internalType": "address",
          "name": "_rebaseManager",
          "type": "address"
        }
      ],
      "name": "addRebaseManager",
      "outputs": [],
      "stateMutability": "nonpayable",
      "type": "function"
    },
    {
      "inputs": [
        {
          "internalType": "address",
          "name": "_addr",
          "type": "address"
        }
      ],
      "name": "approveStrategy",
      "outputs": [],
      "stateMutability": "nonpayable",
      "type": "function"
    },
    {
      "inputs": [
        {
          "internalType": "address",
          "name": "",
          "type": "address"
        }
      ],
      "name": "assetDefaultStrategies",
      "outputs": [
        {
          "internalType": "address",
          "name": "",
          "type": "address"
        }
      ],
      "stateMutability": "view",
      "type": "function"
    },
    {
      "inputs": [],
      "name": "autoAllocateThreshold",
      "outputs": [
        {
          "internalType": "uint256",
          "name": "",
          "type": "uint256"
        }
      ],
      "stateMutability": "view",
      "type": "function"
    },
    {
      "inputs": [],
      "name": "balance",
      "outputs": [],
      "stateMutability": "nonpayable",
      "type": "function"
    },
    {
      "inputs": [],
      "name": "balancerPoolId",
      "outputs": [
        {
          "internalType": "bytes32",
          "name": "",
          "type": "bytes32"
        }
      ],
      "stateMutability": "view",
      "type": "function"
    },
    {
      "inputs": [],
      "name": "balancerVault",
      "outputs": [
        {
          "internalType": "address",
          "name": "",
          "type": "address"
        }
      ],
      "stateMutability": "view",
      "type": "function"
    },
    {
      "inputs": [],
      "name": "capitalPaused",
      "outputs": [
        {
          "internalType": "bool",
          "name": "",
          "type": "bool"
        }
      ],
      "stateMutability": "view",
      "type": "function"
    },
    {
      "inputs": [],
      "name": "claimGovernance",
      "outputs": [],
      "stateMutability": "nonpayable",
      "type": "function"
    },
    {
      "inputs": [],
      "name": "dripperAddress",
      "outputs": [
        {
          "internalType": "address",
          "name": "",
          "type": "address"
        }
      ],
      "stateMutability": "view",
      "type": "function"
    },
    {
      "inputs": [],
      "name": "getAllStrategyWithWeights",
      "outputs": [
        {
          "components": [
            {
              "internalType": "address",
              "name": "strategy",
              "type": "address"
            },
            {
              "internalType": "uint256",
              "name": "minWeight",
              "type": "uint256"
            },
            {
              "internalType": "uint256",
              "name": "targetWeight",
              "type": "uint256"
            },
            {
              "internalType": "uint256",
              "name": "maxWeight",
              "type": "uint256"
            },
            {
              "internalType": "bool",
              "name": "enabled",
              "type": "bool"
            },
            {
              "internalType": "bool",
              "name": "enabledReward",
              "type": "bool"
            }
          ],
          "internalType": "struct VaultStorage.StrategyWithWeight[]",
          "name": "",
          "type": "tuple[]"
        }
      ],
      "stateMutability": "view",
      "type": "function"
    },
    {
      "inputs": [],
      "name": "getFeeParams",
      "outputs": [
        {
          "internalType": "address",
          "name": "",
          "type": "address"
        },
        {
          "internalType": "uint256",
          "name": "",
          "type": "uint256"
        },
        {
          "internalType": "address",
          "name": "",
          "type": "address"
        },
        {
          "internalType": "uint256",
          "name": "",
          "type": "uint256"
        }
      ],
      "stateMutability": "view",
      "type": "function"
    },
    {
      "inputs": [],
      "name": "getQuickDepositStrategies",
      "outputs": [
        {
          "internalType": "address[]",
          "name": "",
          "type": "address[]"
        }
      ],
      "stateMutability": "view",
      "type": "function"
    },
    {
      "inputs": [
        {
          "internalType": "address",
          "name": "strategy",
          "type": "address"
        }
      ],
      "name": "getStrategyWithWeight",
      "outputs": [
        {
          "components": [
            {
              "internalType": "address",
              "name": "strategy",
              "type": "address"
            },
            {
              "internalType": "uint256",
              "name": "minWeight",
              "type": "uint256"
            },
            {
              "internalType": "uint256",
              "name": "targetWeight",
              "type": "uint256"
            },
            {
              "internalType": "uint256",
              "name": "maxWeight",
              "type": "uint256"
            },
            {
              "internalType": "bool",
              "name": "enabled",
              "type": "bool"
            },
            {
              "internalType": "bool",
              "name": "enabledReward",
              "type": "bool"
            }
          ],
          "internalType": "struct VaultStorage.StrategyWithWeight",
          "name": "",
          "type": "tuple"
        }
      ],
      "stateMutability": "view",
      "type": "function"
    },
    {
      "inputs": [],
      "name": "governor",
      "outputs": [
        {
          "internalType": "address",
          "name": "",
          "type": "address"
        }
      ],
      "stateMutability": "view",
      "type": "function"
    },
    {
      "inputs": [],
      "name": "harvesterAddress",
      "outputs": [
        {
          "internalType": "address",
          "name": "",
          "type": "address"
        }
      ],
      "stateMutability": "view",
      "type": "function"
    },
    {
      "inputs": [
        {
          "internalType": "address",
          "name": "_priceProvider",
          "type": "address"
        },
        {
          "internalType": "address",
          "name": "_cash",
          "type": "address"
        }
      ],
      "name": "initialize",
      "outputs": [],
      "stateMutability": "nonpayable",
      "type": "function"
    },
    {
      "inputs": [],
      "name": "isGovernor",
      "outputs": [
        {
          "internalType": "bool",
          "name": "",
          "type": "bool"
        }
      ],
      "stateMutability": "view",
      "type": "function"
    },
    {
      "inputs": [
        {
          "internalType": "address",
          "name": "_sender",
          "type": "address"
        }
      ],
      "name": "isRebaseManager",
      "outputs": [
        {
          "internalType": "bool",
          "name": "",
          "type": "bool"
        }
      ],
      "stateMutability": "nonpayable",
      "type": "function"
    },
    {
      "inputs": [],
      "name": "labsAddress",
      "outputs": [
        {
          "internalType": "address",
          "name": "",
          "type": "address"
        }
      ],
      "stateMutability": "view",
      "type": "function"
    },
    {
      "inputs": [],
      "name": "labsFeeBps",
      "outputs": [
        {
          "internalType": "uint256",
          "name": "",
          "type": "uint256"
        }
      ],
      "stateMutability": "view",
      "type": "function"
    },
    {
      "inputs": [],
      "name": "maxSupplyDiff",
      "outputs": [
        {
          "internalType": "uint256",
          "name": "",
          "type": "uint256"
        }
      ],
      "stateMutability": "view",
      "type": "function"
    },
    {
      "inputs": [],
      "name": "nextPayoutTime",
      "outputs": [
        {
          "internalType": "uint256",
          "name": "",
          "type": "uint256"
        }
      ],
      "stateMutability": "view",
      "type": "function"
    },
    {
      "inputs": [],
      "name": "pauseCapital",
      "outputs": [],
      "stateMutability": "nonpayable",
      "type": "function"
    },
    {
      "inputs": [],
      "name": "pauseRebase",
      "outputs": [],
      "stateMutability": "nonpayable",
      "type": "function"
    },
    {
      "inputs": [],
      "name": "payout",
      "outputs": [],
      "stateMutability": "nonpayable",
      "type": "function"
    },
    {
      "inputs": [],
      "name": "payoutPeriod",
      "outputs": [
        {
          "internalType": "uint256",
          "name": "",
          "type": "uint256"
        }
      ],
      "stateMutability": "view",
      "type": "function"
    },
    {
      "inputs": [],
      "name": "payoutTimeRange",
      "outputs": [
        {
          "internalType": "uint256",
          "name": "",
          "type": "uint256"
        }
      ],
      "stateMutability": "view",
      "type": "function"
    },
    {
      "inputs": [],
      "name": "priceProvider",
      "outputs": [
        {
          "internalType": "address",
          "name": "",
          "type": "address"
        }
      ],
      "stateMutability": "view",
      "type": "function"
    },
    {
      "inputs": [
        {
          "internalType": "address",
          "name": "asset",
          "type": "address"
        }
      ],
      "name": "priceUSDMint",
      "outputs": [
        {
          "internalType": "uint256",
          "name": "",
          "type": "uint256"
        }
      ],
      "stateMutability": "view",
      "type": "function"
    },
    {
      "inputs": [
        {
          "internalType": "address",
          "name": "asset",
          "type": "address"
        }
      ],
      "name": "priceUSDRedeem",
      "outputs": [
        {
          "internalType": "uint256",
          "name": "",
          "type": "uint256"
        }
      ],
      "stateMutability": "view",
      "type": "function"
    },
    {
      "inputs": [],
      "name": "primaryStableAddress",
      "outputs": [
        {
          "internalType": "address",
          "name": "",
          "type": "address"
        }
      ],
      "stateMutability": "view",
      "type": "function"
    },
    {
      "inputs": [
        {
          "internalType": "uint256",
          "name": "",
          "type": "uint256"
        }
      ],
      "name": "quickDepositStrategies",
      "outputs": [
        {
          "internalType": "address",
          "name": "",
          "type": "address"
        }
      ],
      "stateMutability": "view",
      "type": "function"
    },
    {
      "inputs": [
        {
          "internalType": "address",
          "name": "_strategyFromAddress",
          "type": "address"
        },
        {
          "internalType": "address",
          "name": "_strategyToAddress",
          "type": "address"
        },
        {
          "internalType": "address[]",
          "name": "_assets",
          "type": "address[]"
        },
        {
          "internalType": "uint256[]",
          "name": "_amounts",
          "type": "uint256[]"
        }
      ],
      "name": "reallocate",
      "outputs": [],
      "stateMutability": "nonpayable",
      "type": "function"
    },
    {
      "inputs": [
        {
          "internalType": "address",
          "name": "",
          "type": "address"
        }
      ],
      "name": "rebaseManagers",
      "outputs": [
        {
          "internalType": "bool",
          "name": "",
          "type": "bool"
        }
      ],
      "stateMutability": "view",
      "type": "function"
    },
    {
      "inputs": [],
      "name": "rebasePaused",
      "outputs": [
        {
          "internalType": "bool",
          "name": "",
          "type": "bool"
        }
      ],
      "stateMutability": "view",
      "type": "function"
    },
    {
      "inputs": [],
      "name": "rebaseThreshold",
      "outputs": [
        {
          "internalType": "uint256",
          "name": "",
          "type": "uint256"
        }
      ],
      "stateMutability": "view",
      "type": "function"
    },
    {
      "inputs": [],
      "name": "redeemFeeBps",
      "outputs": [
        {
          "internalType": "uint256",
          "name": "",
          "type": "uint256"
        }
      ],
      "stateMutability": "view",
      "type": "function"
    },
    {
      "inputs": [
        {
          "internalType": "address",
          "name": "_addr",
          "type": "address"
        }
      ],
      "name": "removeStrategy",
      "outputs": [],
      "stateMutability": "nonpayable",
      "type": "function"
    },
    {
      "inputs": [
        {
          "internalType": "address",
          "name": "newImpl",
          "type": "address"
        }
      ],
      "name": "setAdminImpl",
      "outputs": [],
      "stateMutability": "nonpayable",
      "type": "function"
    },
    {
      "inputs": [
        {
          "internalType": "address",
          "name": "_asset",
          "type": "address"
        },
        {
          "internalType": "address",
          "name": "_strategy",
          "type": "address"
        }
      ],
      "name": "setAssetDefaultStrategy",
      "outputs": [],
      "stateMutability": "nonpayable",
      "type": "function"
    },
    {
      "inputs": [
        {
          "internalType": "uint256",
          "name": "_threshold",
          "type": "uint256"
        }
      ],
      "name": "setAutoAllocateThreshold",
      "outputs": [],
      "stateMutability": "nonpayable",
      "type": "function"
    },
    {
      "inputs": [
        {
          "internalType": "address",
          "name": "_dripper",
          "type": "address"
        }
      ],
      "name": "setDripper",
      "outputs": [],
      "stateMutability": "nonpayable",
      "type": "function"
    },
    {
      "inputs": [
        {
          "internalType": "address",
          "name": "_labsAddress",
          "type": "address"
        },
        {
          "internalType": "uint256",
          "name": "_labsFeeBps",
          "type": "uint256"
        },
        {
          "internalType": "address",
          "name": "_teamAddress",
          "type": "address"
        },
        {
          "internalType": "uint256",
          "name": "_teamFeeBps",
          "type": "uint256"
        }
      ],
      "name": "setFeeParams",
      "outputs": [],
      "stateMutability": "nonpayable",
      "type": "function"
    },
    {
      "inputs": [
        {
          "internalType": "address",
          "name": "_harvester",
          "type": "address"
        }
      ],
      "name": "setHarvester",
      "outputs": [],
      "stateMutability": "nonpayable",
      "type": "function"
    },
    {
      "inputs": [
        {
          "internalType": "uint256",
          "name": "_maxSupplyDiff",
          "type": "uint256"
        }
      ],
      "name": "setMaxSupplyDiff",
      "outputs": [],
      "stateMutability": "nonpayable",
      "type": "function"
    },
    {
      "inputs": [
        {
          "internalType": "uint256",
          "name": "_nextPayoutTime",
          "type": "uint256"
        }
      ],
      "name": "setNextPayoutTime",
      "outputs": [],
      "stateMutability": "nonpayable",
      "type": "function"
    },
    {
      "inputs": [
        {
          "internalType": "uint256",
          "name": "_payoutPeriod",
          "type": "uint256"
        },
        {
          "internalType": "uint256",
          "name": "_payoutTimeRange",
          "type": "uint256"
        }
      ],
      "name": "setPayoutIntervals",
      "outputs": [],
      "stateMutability": "nonpayable",
      "type": "function"
    },
    {
      "inputs": [
        {
          "internalType": "address",
          "name": "_priceProvider",
          "type": "address"
        }
      ],
      "name": "setPriceProvider",
      "outputs": [],
      "stateMutability": "nonpayable",
      "type": "function"
    },
    {
      "inputs": [
        {
          "internalType": "address",
          "name": "_primaryStable",
          "type": "address"
        }
      ],
      "name": "setPrimaryStable",
      "outputs": [],
      "stateMutability": "nonpayable",
      "type": "function"
    },
    {
      "inputs": [
        {
          "internalType": "address[]",
          "name": "_quickDepositStrategies",
          "type": "address[]"
        }
      ],
      "name": "setQuickDepositStrategies",
      "outputs": [],
      "stateMutability": "nonpayable",
      "type": "function"
    },
    {
      "inputs": [
        {
          "internalType": "uint256",
          "name": "_threshold",
          "type": "uint256"
        }
      ],
      "name": "setRebaseThreshold",
      "outputs": [],
      "stateMutability": "nonpayable",
      "type": "function"
    },
    {
      "inputs": [
        {
          "internalType": "uint256",
          "name": "_redeemFeeBps",
          "type": "uint256"
        }
      ],
      "name": "setRedeemFeeBps",
      "outputs": [],
      "stateMutability": "nonpayable",
      "type": "function"
    },
    {
      "inputs": [
        {
          "internalType": "address",
          "name": "_address",
          "type": "address"
        }
      ],
      "name": "setStrategistAddr",
      "outputs": [],
      "stateMutability": "nonpayable",
      "type": "function"
    },
    {
      "inputs": [
        {
          "components": [
            {
              "internalType": "address",
              "name": "strategy",
              "type": "address"
            },
            {
              "internalType": "uint256",
              "name": "minWeight",
              "type": "uint256"
            },
            {
              "internalType": "uint256",
              "name": "targetWeight",
              "type": "uint256"
            },
            {
              "internalType": "uint256",
              "name": "maxWeight",
              "type": "uint256"
            },
            {
              "internalType": "bool",
              "name": "enabled",
              "type": "bool"
            },
            {
              "internalType": "bool",
              "name": "enabledReward",
              "type": "bool"
            }
          ],
          "internalType": "struct VaultStorage.StrategyWithWeight[]",
          "name": "_strategyWithWeights",
          "type": "tuple[]"
        }
      ],
      "name": "setStrategyWithWeights",
      "outputs": [],
      "stateMutability": "nonpayable",
      "type": "function"
    },
    {
      "inputs": [
        {
          "internalType": "address",
          "name": "_balancerVault",
          "type": "address"
        },
        {
          "internalType": "bytes32",
          "name": "_balancerPoolId",
          "type": "bytes32"
        }
      ],
      "name": "setSwapper",
      "outputs": [],
      "stateMutability": "nonpayable",
      "type": "function"
    },
    {
      "inputs": [
        {
          "internalType": "uint256",
          "name": "_vaultBuffer",
          "type": "uint256"
        }
      ],
      "name": "setVaultBuffer",
      "outputs": [],
      "stateMutability": "nonpayable",
      "type": "function"
    },
    {
      "inputs": [],
      "name": "strategistAddr",
      "outputs": [
        {
          "internalType": "address",
          "name": "",
          "type": "address"
        }
      ],
      "stateMutability": "view",
      "type": "function"
    },
    {
      "inputs": [
        {
          "internalType": "address",
          "name": "",
          "type": "address"
        }
      ],
      "name": "strategyWithWeightPositions",
      "outputs": [
        {
          "internalType": "uint256",
          "name": "",
          "type": "uint256"
        }
      ],
      "stateMutability": "view",
      "type": "function"
    },
    {
      "inputs": [
        {
          "internalType": "uint256",
          "name": "",
          "type": "uint256"
        }
      ],
      "name": "strategyWithWeights",
      "outputs": [
        {
          "internalType": "address",
          "name": "strategy",
          "type": "address"
        },
        {
          "internalType": "uint256",
          "name": "minWeight",
          "type": "uint256"
        },
        {
          "internalType": "uint256",
          "name": "targetWeight",
          "type": "uint256"
        },
        {
          "internalType": "uint256",
          "name": "maxWeight",
          "type": "uint256"
        },
        {
          "internalType": "bool",
          "name": "enabled",
          "type": "bool"
        },
        {
          "internalType": "bool",
          "name": "enabledReward",
          "type": "bool"
        }
      ],
      "stateMutability": "view",
      "type": "function"
    },
    {
      "inputs": [
        {
          "internalType": "address",
          "name": "_asset",
          "type": "address"
        }
      ],
      "name": "supportAsset",
      "outputs": [],
      "stateMutability": "nonpayable",
      "type": "function"
    },
    {
      "inputs": [],
      "name": "teamAddress",
      "outputs": [
        {
          "internalType": "address",
          "name": "",
          "type": "address"
        }
      ],
      "stateMutability": "view",
      "type": "function"
    },
    {
      "inputs": [],
      "name": "teamFeeBps",
      "outputs": [
        {
          "internalType": "uint256",
          "name": "",
          "type": "uint256"
        }
      ],
      "stateMutability": "view",
      "type": "function"
    },
    {
      "inputs": [
        {
          "internalType": "address",
          "name": "_newGovernor",
          "type": "address"
        }
      ],
      "name": "transferGovernance",
      "outputs": [],
      "stateMutability": "nonpayable",
      "type": "function"
    },
    {
      "inputs": [
        {
          "internalType": "address",
          "name": "_asset",
          "type": "address"
        },
        {
          "internalType": "uint256",
          "name": "_amount",
          "type": "uint256"
        }
      ],
      "name": "transferToken",
      "outputs": [],
      "stateMutability": "nonpayable",
      "type": "function"
    },
    {
      "inputs": [],
      "name": "trusteeAddress",
      "outputs": [
        {
          "internalType": "address",
          "name": "",
          "type": "address"
        }
      ],
      "stateMutability": "view",
      "type": "function"
    },
    {
      "inputs": [],
      "name": "trusteeFeeBps",
      "outputs": [
        {
          "internalType": "uint256",
          "name": "",
          "type": "uint256"
        }
      ],
      "stateMutability": "view",
      "type": "function"
    },
    {
      "inputs": [],
      "name": "unpauseCapital",
      "outputs": [],
      "stateMutability": "nonpayable",
      "type": "function"
    },
    {
      "inputs": [],
      "name": "unpauseRebase",
      "outputs": [],
      "stateMutability": "nonpayable",
      "type": "function"
    },
    {
      "inputs": [],
      "name": "vaultBuffer",
      "outputs": [
        {
          "internalType": "uint256",
          "name": "",
          "type": "uint256"
        }
      ],
      "stateMutability": "view",
      "type": "function"
    },
    {
      "inputs": [],
      "name": "withdrawAllFromStrategies",
      "outputs": [],
      "stateMutability": "nonpayable",
      "type": "function"
    },
    {
      "inputs": [
        {
          "internalType": "address",
          "name": "_strategyAddr",
          "type": "address"
        }
      ],
      "name": "withdrawAllFromStrategy",
      "outputs": [],
      "stateMutability": "nonpayable",
      "type": "function"
    }
  ],
  "transactionHash": "0x134d3e1ab44a077938193b44c9277aed2e36010116eab4146e340ef799edcf79",
  "args": [],
  "solcInputHash": "4f99ffea6c3ba8cd3ef8d713c842ef03",
  "bytecode": "0x60806040526037805461ffff60a01b1916600160a81b179055604180546001600160a01b031990811690915560428054821690556043805490911690553480156200004957600080fd5b5062000062336000805160206200577583398151915255565b60008051602062005775833981519152546040516001600160a01b03909116906000907fc7c0c772add429241571afb3805861fb3cfa2af374534088b76cdb4325a87e9a908290a36156bb80620000ba6000396000f3fe608060405234801561001057600080fd5b50600436106104335760003560e01c80636d8ebaa811610236578063b888879e1161013b578063cc51656b116100c3578063e6cc543211610087578063e6cc543214610961578063eb03654b14610975578063ed2a2f9d14610988578063fc0cfeee14610992578063fc5aeaa5146109a557600080fd5b8063cc51656b1461091e578063ce1aa76b14610933578063cecbbc071461093c578063d38bfff414610945578063dbbb64b91461095857600080fd5b8063c46b3dc41161010a578063c46b3dc414610898578063c5f00841146108b8578063c7af3352146108c0578063c9919112146108c8578063cc18f12d146108d057600080fd5b8063b888879e1461081f578063b890ebf614610832578063bc90106b14610845578063be6fc1811461085857600080fd5b80638ffa4618116101be578063a566e9d31161018d578063a566e9d3146107c9578063a5d52e5a146107de578063b2c9336d146107f1578063b542daf314610804578063b69ef8a81461081757600080fd5b80638ffa46181461078657806394828ffd1461078f5780639fa1826e14610797578063a403e4d5146107a057600080fd5b8063840189421161020557806384018942146107225780638b0057b11461072b5780638c5cbb89146107575780638e510b521461076a5780638ec489a21461077357600080fd5b80636d8ebaa8146106e0578063773540b3146106e95780637fe2d393146106fc578063837cb8ea1461070f57600080fd5b8063372aa2241161033c578063543fe442116102c45780635d36b190116102935780635d36b1901461068a578063607f226d1461069257806363bd1d4a146106b2578063663e64ce146106ba57806367c7066c146106cd57600080fd5b8063543fe4421461063e578063545ad78c14610651578063570d8e1d14610664578063597c89101461067757600080fd5b806349c1d54d1161030b57806349c1d54d146105e85780634cd55c2d146105fb5780634f2d7d6f1461060e57806352d38e5d1461062157806353ca9f241461062a57600080fd5b8063372aa224146105a75780633b8ae397146105ba5780633dbc911f146105cd578063485cc955146105d557600080fd5b8063175188e8116103bf578063207134b01161038e578063207134b0146105325780632585cd5c1461053b5780632a47852f1461056e5780632d1082c8146105815780632e9958ab1461059457600080fd5b8063175188e8146104f057806318802403146105035780631c75f085146105165780631edfe3da1461052957600080fd5b80631072cbea116104065780631072cbea1461049157806310d3fdac146104a4578063158274a5146104b757806315de1daa146104ca5780631648059b146104dd57600080fd5b806309f49bf51461043857806309f6442c146104425780630bf413611461045e5780630c340a2414610489575b600080fd5b6104406109b8565b005b61044b60385481565b6040519081526020015b60405180910390f35b61047161046c366004614fda565b610a1d565b6040516001600160a01b039091168152602001610455565b610471610a47565b61044061049f366004614e00565b610a64565b61044b6104b2366004614d21565b610b11565b604b54610471906001600160a01b031681565b6104406104d8366004614d21565b610c07565b6104406104eb366004614e00565b610ca3565b6104406104fe366004614d21565b610d88565b610440610511366004614e2a565b61146e565b603b54610471906001600160a01b031681565b61044b603d5481565b61044b60475481565b61055e610549366004614d21565b60546020526000908152604090205460ff1681565b6040519015158152602001610455565b61044061057c366004614eb0565b61159a565b61044061058f366004614e6e565b6115c8565b6104406105a2366004614d21565b611685565b6104406105b5366004614d21565b611719565b6104406105c8366004614d21565b611792565b6104406118cf565b6104406105e3366004614d3c565b611945565b604654610471906001600160a01b031681565b610440610609366004614d21565b611b68565b604954610471906001600160a01b031681565b61044b603f5481565b60375461055e90600160a01b900460ff1681565b603954610471906001600160a01b031681565b604e54610471906001600160a01b031681565b604354610471906001600160a01b031681565b610440610685366004614d21565b611d53565b610440611e4f565b6106a56106a0366004614d21565b611ef5565b60405161045591906152d1565b610440611f9a565b6104406106c8366004614fda565b612025565b604d54610471906001600160a01b031681565b61044b60515481565b6104406106f7366004614d21565b61207e565b61044061070a366004614d6f565b6120f0565b61044061071d366004614d21565b612458565b61044b603c5481565b61055e610739366004614d21565b6001600160a01b031660009081526054602052604090205460ff1690565b61044b610765366004614d21565b61256a565b61044b60455481565b610440610781366004614fda565b61260c565b61044b603a5481565b6104406126c1565b61044b603e5481565b6104716107ae366004614d21565b6044602052600090815260409020546001600160a01b031681565b6107d1612731565b60405161045591906150ba565b6104406107ec366004614d21565b6127b7565b6104406107ff366004614fda565b6128aa565b61044061081236600461500c565b612903565b610440612981565b603754610471906001600160a01b031681565b610440610840366004614fda565b6129c1565b610440610853366004614d3c565b612a1a565b603954603a54603b54603c54604080516001600160a01b039586168152602081019490945293909116928201929092526060810191909152608001610455565b61044b6108a6366004614d21565b604f6020526000908152604090205481565b610440612c5c565b61055e612cd2565b610440612d03565b6108e36108de366004614fda565b612dd4565b604080516001600160a01b039097168752602087019590955293850192909252606084015215156080830152151560a082015260c001610455565b610926612e2b565b6040516104559190615107565b61044b60525481565b61044b60535481565b610440610953366004614d21565b612ed4565b61044b604c5481565b60375461055e90600160a81b900460ff1681565b610440610983366004614fda565b612f78565b61044b620186a081565b6104406109a0366004614d21565b61302d565b6104406109b3366004614fda565b6130cf565b6109c0612cd2565b6109e55760405162461bcd60e51b81526004016109dc90615209565b60405180910390fd5b6037805460ff60a01b191690556040517fbc044409505c95b6b851433df96e1beae715c909d8e7c1d6d7ab783300d4e3b990600090a1565b604a8181548110610a2d57600080fd5b6000918252602090912001546001600160a01b0316905081565b6000610a5f6000805160206155f58339815191525490565b905090565b610a6c612cd2565b610a885760405162461bcd60e51b81526004016109dc90615209565b6001600160a01b03821660009081526033602052604090205460ff1615610af15760405162461bcd60e51b815260206004820152601760248201527f4f6e6c7920756e737570706f727465642061737365747300000000000000000060448201526064016109dc565b610b0d610afc610a47565b6001600160a01b038416908361313b565b5050565b6037546040516315d5220f60e31b81526001600160a01b038381166004830152600092839291169063aea910789060240160206040518083038186803b158015610b5a57600080fd5b505afa158015610b6e573d6000803e3d6000fd5b505050506040513d601f19601f82011682018060405250810190610b929190614ff3565b90506305f2d3c0811015610be05760405162461bcd60e51b815260206004820152601560248201527441737365742070726963652062656c6f772070656760581b60448201526064016109dc565b6305f5e100811115610bf357506305f5e1005b610c00816012600861318d565b9392505050565b610c0f612cd2565b610c2b5760405162461bcd60e51b81526004016109dc90615209565b6001600160a01b038116610c815760405162461bcd60e51b815260206004820152601760248201527f456d70747920486172766573746572204164647265737300000000000000000060448201526064016109dc565b604d80546001600160a01b0319166001600160a01b0392909216919091179055565b610cab612cd2565b610cc75760405162461bcd60e51b81526004016109dc90615209565b6001600160a01b038216610d155760405162461bcd60e51b8152602060048201526015602482015274456d7074792053776170706572204164647265737360581b60448201526064016109dc565b80610d625760405162461bcd60e51b815260206004820152601960248201527f456d70747920706f6f6c206964206e6f7420616c6c6f7765640000000000000060448201526064016109dc565b604b80546001600160a01b0319166001600160a01b039390931692909217909155604c55565b610d90612cd2565b610dac5760405162461bcd60e51b81526004016109dc90615209565b6001600160a01b03811660009081526035602052604090205460ff16610e0c5760405162461bcd60e51b815260206004820152601560248201527414dd1c985d1959de481b9bdd08185c1c1c9bdd9959605a1b60448201526064016109dc565b60005b603454811015610ec557816001600160a01b03166044600060348481548110610e3a57610e3a6155ba565b60009182526020808320909101546001600160a01b039081168452908301939093526040909101902054161415610eb35760405162461bcd60e51b815260206004820181905260248201527f53747261746567792069732064656661756c7420666f7220616e20617373657460448201526064016109dc565b80610ebd81615544565b915050610e0f565b5060365460005b603654811015610f2857826001600160a01b031660368281548110610ef357610ef36155ba565b6000918252602090912001546001600160a01b03161415610f1657809150610f28565b80610f2081615544565b915050610ecc565b5060365481101561108c5760368054610f43906001906154c3565b81548110610f5357610f536155ba565b600091825260209091200154603680546001600160a01b039092169183908110610f7f57610f7f6155ba565b9060005260206000200160006101000a8154816001600160a01b0302191690836001600160a01b031602179055506036805480610fbe57610fbe6155a4565b60008281526020808220830160001990810180546001600160a01b03191690559092019092556001600160a01b03841680835260359091526040808320805460ff19169055805163429c145b60e11b81529051859363853828b6926004808201939182900301818387803b15801561103557600080fd5b505af1158015611049573d6000803e3d6000fd5b50506040516001600160a01b03861681527f09a1db4b80c32706328728508c941a6b954f31eb5affd32f236c1fd405f8fea49250602001905060405180910390a1505b6110ad60405180606001604052806023815260200161563f602391396131ef565b50604a5460005b604a5481101561111057826001600160a01b0316604a82815481106110db576110db6155ba565b6000918252602090912001546001600160a01b031614156110fe57809150611110565b8061110881615544565b9150506110b4565b50604a5481101561120857604a805461112b906001906154c3565b8154811061113b5761113b6155ba565b600091825260209091200154604a80546001600160a01b039092169183908110611167576111676155ba565b9060005260206000200160006101000a8154816001600160a01b0302191690836001600160a01b03160217905550604a8054806111a6576111a66155a4565b6000828152602090819020600019908301810180546001600160a01b03191690559091019091556040516001600160a01b03841681527f09a1db4b80c32706328728508c941a6b954f31eb5affd32f236c1fd405f8fea4910160405180910390a15b6112466040518060400160405280601e81526020017f52656d6f76696e672073747261746567792066726f6d207765696768747300008152506131ef565b5060505460005b6050548110156112ae57826001600160a01b031660508281548110611274576112746155ba565b60009182526020909120600590910201546001600160a01b0316141561129c578091506112ae565b806112a681615544565b91505061124d565b50605054811015610b0d57605080546112c9906001906154c3565b815481106112d9576112d96155ba565b9060005260206000209060050201605082815481106112fa576112fa6155ba565b60009182526020909120825460059092020180546001600160a01b0319166001600160a01b039092169190911781556001808301549082015560028083015490820155600380830154908201556004918201805492909101805460ff938416151560ff19821681178355925461010090819004909416151590930261ff001990921661ffff1990931692909217179055605080548061139b5761139b6155a4565b6000828152602080822060056000199094019384020180546001600160a01b0319168155600181018390556002810183905560038101929092556004909101805461ffff19169055915560408051808201909152601681527544656c6574696e67204d617070696e6720656e74727960501b9181019190915261141d906131ef565b6001600160a01b0382166000908152604f60209081526040808320929092558151808301909252601582527413585c1c1a5b99c8195b9d1c9e4811195b195d1959605a1b90820152610b0d906131ef565b611476612cd2565b6114925760405162461bcd60e51b81526004016109dc90615209565b603980546001600160a01b038681166001600160a01b03199283168117909355603a869055603b8054868316931692909217909155603c839055604d546040516306ae77fd60e51b8152600481019390935260248301869052169063d5ceffa090604401600060405180830381600087803b15801561151057600080fd5b505af1158015611524573d6000803e3d6000fd5b5050604d54603b54603c5460405163bc14edcf60e01b81526001600160a01b03928316600482015260248101919091529116925063bc14edcf9150604401600060405180830381600087803b15801561157c57600080fd5b505af1158015611590573d6000803e3d6000fd5b5050505050505050565b6115a2612cd2565b6115be5760405162461bcd60e51b81526004016109dc90615209565b610b0d8282613232565b6115d0612cd2565b6115ec5760405162461bcd60e51b81526004016109dc90615209565b60005b60ff8116821115611673576035600084848460ff16818110611613576116136155ba565b90506020020160208101906116289190614d21565b6001600160a01b0316815260208101919091526040016000205460ff166116615760405162461bcd60e51b81526004016109dc90615240565b8061166b81615558565b9150506115ef565b50611680604a8383614b9e565b505050565b61168d612cd2565b6116a95760405162461bcd60e51b81526004016109dc90615209565b6001600160a01b0381166116f75760405162461bcd60e51b8152602060048201526015602482015274456d7074792044726970706572204164647265737360581b60448201526064016109dc565b604e80546001600160a01b0319166001600160a01b0392909216919091179055565b611721612cd2565b61173d5760405162461bcd60e51b81526004016109dc90615209565b603780546001600160a01b0319166001600160a01b0383169081179091556040519081527fb266add5f3044b17d27db796af992cecbe413921b4e8aaaee03c719e16b9806a906020015b60405180910390a150565b61179a612cd2565b6117b65760405162461bcd60e51b81526004016109dc90615209565b6001600160a01b03811660009081526035602052604090205460ff161561181f5760405162461bcd60e51b815260206004820152601960248201527f537472617465677920616c726561647920617070726f7665640000000000000060448201526064016109dc565b6040805180820182526001808252600060208084018281526001600160a01b038716808452603583528684209551865460ff19169015151786559051948401949094556036805493840181559091527f4a11f94e20a93c79f6ec743a1954ec4fc2c08429ae2122118bf234b2185c81b890910180546001600160a01b0319168317905591519081527f960dd94cbb79169f09a4e445d58b895df2d9bffa5b31055d0932d801724a20d19101611787565b6043546001600160a01b03163314806118eb57506118eb612cd2565b6119075760405162461bcd60e51b81526004016109dc90615289565b6037805460ff60a81b1916600160a81b1790556040517f71f0e5b62f846a22e0b4d159e516e62fa9c2b8eb570be15f83e67d98a2ee51e090600090a1565b61194d612cd2565b6119695760405162461bcd60e51b81526004016109dc90615209565b600054610100900460ff1680611982575060005460ff16155b6119e55760405162461bcd60e51b815260206004820152602e60248201527f496e697469616c697a61626c653a20636f6e747261637420697320616c72656160448201526d191e481a5b9a5d1a585b1a5e995960921b60648201526084016109dc565b600054610100900460ff16158015611a07576000805461ffff19166101011790555b6001600160a01b038316611a5d5760405162461bcd60e51b815260206004820152601d60248201527f507269636550726f76696465722061646472657373206973207a65726f00000060448201526064016109dc565b6001600160a01b038216611aaa5760405162461bcd60e51b8152602060048201526014602482015273636173682061646472657373206973207a65726f60601b60448201526064016109dc565b604080546001600160a01b038481166001600160a01b0319909216919091178255603780546001600160b01b03191691861691909117600160a81b17905560006038819055603c819055603a819055603d81905569054b40b1f852bda00000603e5568056bc75e2d63100000603f558151908152602081019182905251611b3391603691614c01565b506040805160008152602081019182905251611b5191604a91614c01565b508015611680576000805461ff0019169055505050565b611b70612cd2565b611b8c5760405162461bcd60e51b81526004016109dc90615209565b6001600160a01b03811660009081526033602052604090205460ff1615611bf55760405162461bcd60e51b815260206004820152601760248201527f417373657420616c726561647920737570706f7274656400000000000000000060448201526064016109dc565b604080516020808201835260018083526001600160a01b038581166000818152603385528681209551865460ff1916901515179095556034805493840181559094527f46bddb1178e94d7f2892ff5f366840eb658911794f2c3a44c450aa2c505186c190910180546001600160a01b0319169093179092558251808401909352600d83526c383934b1b2a83937bb34b232b960991b90830152603754611c9c9291166136cd565b6037546040516315d5220f60e31b81526001600160a01b0383811660048301529091169063aea910789060240160206040518083038186803b158015611ce157600080fd5b505afa158015611cf5573d6000803e3d6000fd5b505050506040513d601f19601f82011682018060405250810190611d199190614ff3565b506040516001600160a01b03821681527f4f1ac48525e50059cc1cc6e0e1940ece0dd653a4db4841538d6aef036be2fb7b90602001611787565b6043546001600160a01b0316331480611d6f5750611d6f612cd2565b611d8b5760405162461bcd60e51b81526004016109dc90615289565b6001600160a01b03811660009081526035602052604090205460ff16611df35760405162461bcd60e51b815260206004820152601960248201527f5374726174656779206973206e6f7420737570706f727465640000000000000060448201526064016109dc565b6000819050806001600160a01b031663853828b66040518163ffffffff1660e01b8152600401600060405180830381600087803b158015611e3357600080fd5b505af1158015611e47573d6000803e3d6000fd5b505050505050565b7f7eaf9a7750884803435dfabc67aa617a7d8fefb23d8d84b3c9722bd69e48c4bc546001600160a01b0316336001600160a01b031614611eea5760405162461bcd60e51b815260206004820152603060248201527f4f6e6c79207468652070656e64696e6720476f7665726e6f722063616e20636f60448201526f6d706c6574652074686520636c61696d60801b60648201526084016109dc565b611ef333613712565b565b611efd614c56565b6001600160a01b0382166000908152604f6020526040902054605080549091908110611f2b57611f2b6155ba565b60009182526020918290206040805160c081018252600590930290910180546001600160a01b031683526001810154938301939093526002830154908201526003820154606082015260049091015460ff8082161515608084015261010090910416151560a082015292915050565b611fa2612cd2565b80611fbc57503360009081526054602052604090205460ff165b61201d5760405162461bcd60e51b815260206004820152602c60248201527f43616c6c6572206973206e6f742074686520476f7665726e6f72206f7220526560448201526b3130b9b29026b0b730b3b2b960a11b60648201526084016109dc565b611ef36137d3565b61202d612cd2565b6120495760405162461bcd60e51b81526004016109dc90615209565b60458190556040518181527f95201f9c21f26877223b1ff4073936a6484c35495649e60e55730497aeb60d9390602001611787565b612086612cd2565b6120a25760405162461bcd60e51b81526004016109dc90615209565b604380546001600160a01b0319166001600160a01b0383169081179091556040519081527f869e0abd13cc3a975de7b93be3df1cb2255c802b1cead85963cc79d99f131bee90602001611787565b6043546001600160a01b031633148061210c575061210c612cd2565b6121285760405162461bcd60e51b81526004016109dc90615289565b6001600160a01b03861660009081526035602052604090205460ff166121885760405162461bcd60e51b8152602060048201526015602482015274496e76616c69642066726f6d20537472617465677960581b60448201526064016109dc565b6001600160a01b03851660009081526035602052604090205460ff166121e65760405162461bcd60e51b8152602060048201526013602482015272496e76616c696420746f20537472617465677960681b60448201526064016109dc565b8281146122355760405162461bcd60e51b815260206004820152601960248201527f506172616d65746572206c656e677468206d69736d617463680000000000000060448201526064016109dc565b858560005b858110156123fa57816001600160a01b031663aa388af6888884818110612263576122636155ba565b90506020020160208101906122789190614d21565b6040516001600160e01b031960e084901b1681526001600160a01b03909116600482015260240160206040518083038186803b1580156122b757600080fd5b505afa1580156122cb573d6000803e3d6000fd5b505050506040513d601f19601f820116820180604052508101906122ef9190614f25565b61232f5760405162461bcd60e51b8152602060048201526011602482015270105cdcd95d081d5b9cdd5c1c1bdc9d1959607a1b60448201526064016109dc565b826001600160a01b031663d9caed1283898985818110612351576123516155ba565b90506020020160208101906123669190614d21565b888886818110612378576123786155ba565b6040516001600160e01b031960e088901b1681526001600160a01b03958616600482015294909316602485015250602090910201356044820152606401600060405180830381600087803b1580156123cf57600080fd5b505af11580156123e3573d6000803e3d6000fd5b5050505080806123f290615544565b91505061223a565b50806001600160a01b031663de5f62686040518163ffffffff1660e01b8152600401600060405180830381600087803b15801561243657600080fd5b505af115801561244a573d6000803e3d6000fd5b505050505050505050505050565b612460612cd2565b61247c5760405162461bcd60e51b81526004016109dc90615209565b6001600160a01b0381166124d25760405162461bcd60e51b815260206004820152601a60248201527f4e6f20526562617365204d616e616765722050726f766964656400000000000060448201526064016109dc565b6001600160a01b03811660009081526054602052604090205460ff16156125465760405162461bcd60e51b815260206004820152602260248201527f526562617365204d616e6167657220616c72656164792077686974656c697374604482015261195960f21b60648201526084016109dc565b6001600160a01b03166000908152605460205260409020805460ff19166001179055565b6037546040516315d5220f60e31b81526001600160a01b038381166004830152600092839291169063aea910789060240160206040518083038186803b1580156125b357600080fd5b505afa1580156125c7573d6000803e3d6000fd5b505050506040513d601f19601f820116820180604052508101906125eb9190614ff3565b90506305f5e100811015610bf357506305f5e100610c00816012600861318d565b6043546001600160a01b03163314806126285750612628612cd2565b6126445760405162461bcd60e51b81526004016109dc90615289565b670de0b6b3a764000081111561268c5760405162461bcd60e51b815260206004820152600d60248201526c496e76616c69642076616c756560981b60448201526064016109dc565b603d8190556040518181527f41ecb23a0e7865b25f38c268b7c3012220d822929e9edff07326e89d5bb822b590602001611787565b6043546001600160a01b03163314806126dd57506126dd612cd2565b6126f95760405162461bcd60e51b81526004016109dc90615289565b6037805460ff60a81b191690556040517f891ebab18da80ebeeea06b1b1cede098329c4c008906a98370c2ac7a80b571cb90600090a1565b606061273b612cd2565b6127575760405162461bcd60e51b81526004016109dc90615209565b604a8054806020026020016040519081016040528092919081815260200182805480156127ad57602002820191906000526020600020905b81546001600160a01b0316815260019091019060200180831161278f575b5050505050905090565b6127bf612cd2565b6127db5760405162461bcd60e51b81526004016109dc90615209565b6001600160a01b03811661283c5760405162461bcd60e51b815260206004820152602260248201527f5072696d617279537461626c652073686f756c64206e6f7420626520656d70746044820152613c9760f11b60648201526084016109dc565b61285e60405180606001604052806024815260200161566260249139826136cd565b604980546001600160a01b0319166001600160a01b038316179055604080516060810190915260248082526128a7919061566260208301396049546001600160a01b03166136cd565b50565b6128b2612cd2565b6128ce5760405162461bcd60e51b81526004016109dc90615209565b603e8190556040518181527f2ec5fb5a3d2703edc461252d92ccd2799c3c74f01d97212b20388207fa17ae4590602001611787565b61290b612cd2565b6129275760405162461bcd60e51b81526004016109dc90615209565b6000821180156129375750600081115b6129765760405162461bcd60e51b815260206004820152601060248201526f054696d652063616e6e6f7420626520360841b60448201526064016109dc565b605291909155605355565b6043546001600160a01b031633148061299d575061299d612cd2565b6129b95760405162461bcd60e51b81526004016109dc90615289565b611ef36138f1565b6129c9612cd2565b6129e55760405162461bcd60e51b81526004016109dc90615209565b603f8190556040518181527f39367850377ac04920a9a670f2180e7a94d83b15ad302e59875ec58fd10bd37d90602001611787565b6043546001600160a01b0316331480612a365750612a36612cd2565b612a525760405162461bcd60e51b81526004016109dc90615289565b604080516001600160a01b038085168252831660208201527fba58ce12801c949fa65f41c46ed108671c219baf945fa48d21026cea99ff252a910160405180910390a16001600160a01b03811615612c2e576001600160a01b03811660009081526035602052604090205460ff16612b045760405162461bcd60e51b815260206004820152601560248201527414dd1c985d1959de481b9bdd08185c1c1c9bdd9959605a1b60448201526064016109dc565b6001600160a01b038216600090815260336020526040902054819060ff16612b675760405162461bcd60e51b8152602060048201526016602482015275105cdcd95d081a5cc81b9bdd081cdd5c1c1bdc9d195960521b60448201526064016109dc565b60405163551c457b60e11b81526001600160a01b03848116600483015282169063aa388af69060240160206040518083038186803b158015612ba857600080fd5b505afa158015612bbc573d6000803e3d6000fd5b505050506040513d601f19601f82011682018060405250810190612be09190614f25565b612c2c5760405162461bcd60e51b815260206004820152601f60248201527f4173736574206e6f7420737570706f727465642062792053747261746567790060448201526064016109dc565b505b6001600160a01b03918216600090815260446020526040902080546001600160a01b03191691909216179055565b6043546001600160a01b0316331480612c785750612c78612cd2565b612c945760405162461bcd60e51b81526004016109dc90615289565b6037805460ff60a01b1916600160a01b1790556040517f8cff26a5985614b3d30629cc4ab83824bf115aec971b718d8f2f99562032e97290600090a1565b6000612cea6000805160206155f58339815191525490565b6001600160a01b0316336001600160a01b031614905090565b6043546001600160a01b0316331480612d1f5750612d1f612cd2565b612d3b5760405162461bcd60e51b81526004016109dc90615289565b60005b6036548110156128a757600060368281548110612d5d57612d5d6155ba565b60009182526020822001546040805163429c145b60e11b815290516001600160a01b039092169350839263853828b69260048084019382900301818387803b158015612da857600080fd5b505af1158015612dbc573d6000803e3d6000fd5b50505050508080612dcc90615544565b915050612d3e565b60508181548110612de457600080fd5b6000918252602090912060059091020180546001820154600283015460038401546004909401546001600160a01b0390931694509092909160ff8082169161010090041686565b60606050805480602002602001604051908101604052809291908181526020016000905b82821015612ecb5760008481526020908190206040805160c0810182526005860290920180546001600160a01b0316835260018082015484860152600282015492840192909252600381015460608401526004015460ff8082161515608085015261010090910416151560a08301529083529092019101612e4f565b50505050905090565b612edc612cd2565b612ef85760405162461bcd60e51b81526004016109dc90615209565b612f20817f7eaf9a7750884803435dfabc67aa617a7d8fefb23d8d84b3c9722bd69e48c4bc55565b806001600160a01b0316612f406000805160206155f58339815191525490565b6001600160a01b03167fa39cc5eb22d0f34d8beaefee8a3f17cc229c1a1d1ef87a5ad47313487b1c4f0d60405160405180910390a350565b612f80612cd2565b612f9c5760405162461bcd60e51b81526004016109dc90615209565b6103e8811115612ff85760405162461bcd60e51b815260206004820152602160248201527f52656465656d206665652073686f756c64206e6f74206265206f7665722031306044820152602560f81b60648201526084016109dc565b60388190556040518181527fd6c7508d6658ccee36b7b7d7fd72e5cbaeefb40c64eff24e9ae7470e846304ee90602001611787565b613035612cd2565b6130515760405162461bcd60e51b81526004016109dc90615209565b803b6130ab5760405162461bcd60e51b8152602060048201526024808201527f6e657720696d706c656d656e746174696f6e206973206e6f74206120636f6e746044820152631c9858dd60e21b60648201526084016109dc565b7f10e4e34101c81b29558fe5b91534ae1af03c346313e21b0f6446695a8e18e24355565b6130d7612cd2565b6130f35760405162461bcd60e51b81526004016109dc90615209565b600081116131365760405162461bcd60e51b815260206004820152601060248201526f054696d652063616e6e6f7420626520360841b60448201526064016109dc565b605155565b604080516001600160a01b038416602482015260448082018490528251808303909101815260649091019091526020810180516001600160e01b031663a9059cbb60e01b1790526116809084906142e9565b6000818311156131bd576131b66131a483856154c3565b6131af90600a6153bd565b85906143bb565b93506131e7565b818310156131e7576131e46131d284846154c3565b6131dd90600a6153bd565b85906143d0565b93505b509192915050565b6128a7816040516024016132039190615149565b60408051601f198184030181529190526020810180516001600160e01b031663104c13eb60e21b1790526143dc565b61323a612cd2565b6132565760405162461bcd60e51b81526004016109dc90615209565b6000805b60ff811683111561342457600084848360ff1681811061327c5761327c6155ba565b905060c002018036038101906132929190614f42565b80516001600160a01b031660009081526035602052604090205490915060ff166132ce5760405162461bcd60e51b81526004016109dc90615240565b80516001600160a01b03166133255760405162461bcd60e51b815260206004820152601760248201527f57656967687420776974686f757420737472617465677900000000000000000060448201526064016109dc565b8060400151816020015111156133925760405162461bcd60e51b815260206004820152602c60248201527f6d696e5765696768742073686f756c646e277420686967686572207468616e2060448201526b1d185c99d95d15d95a59da1d60a21b60648201526084016109dc565b8060600151816040015111156133ff5760405162461bcd60e51b815260206004820152602c60248201527f7461726765745765696768742073686f756c646e27742068696768657220746860448201526b185b881b585e15d95a59da1d60a21b60648201526084016109dc565b604081015161340e9084615320565b925050808061341c90615558565b91505061325a565b50620186a081146134895760405162461bcd60e51b815260206004820152602960248201527f546f74616c207461726765742073686f756c6420657175616c20746f20544f54604482015268105317d5d15251d21560ba1b60648201526084016109dc565b60006134e68484808060200260200160405190810160405280939291908181526020016000905b828210156134dc576134cd60c08302860136819003810190614f42565b815260200190600101906134b0565b50505050506143fd565b905060005b81518160ff16101561357a57613520828260ff168151811061350f5761350f6155ba565b60200260200101518260ff16614610565b8060ff16604f600060508460ff168154811061353e5761353e6155ba565b600091825260208083206005909202909101546001600160a01b031683528201929092526040019020558061357281615558565b9150506134eb565b5080516050541115613614578051605054600091613597916154c3565b905060005b818160ff1610156136115760508054806135b8576135b86155a4565b60008281526020812060056000199093019283020180546001600160a01b031916815560018101829055600281018290556003810191909155600401805461ffff1916905590558061360981615558565b91505061359c565b50505b60005b60505460ff821610156136c657600060508260ff168154811061363c5761363c6155ba565b60009182526020918290206040805160c081018252600590930290910180546001600160a01b03168084526001820154948401949094526002810154918301829052600381015460608401526004015460ff8082161515608085015261010090910416151560a08301529092506136b3919061470f565b50806136be81615558565b915050613617565b5050505050565b610b0d82826040516024016136e392919061515c565b60408051601f198184030181529190526020810180516001600160e01b031663319af33360e01b1790526143dc565b6001600160a01b0381166137685760405162461bcd60e51b815260206004820152601a60248201527f4e657720476f7665726e6f72206973206164647265737328302900000000000060448201526064016109dc565b806001600160a01b03166137886000805160206155f58339815191525490565b6001600160a01b03167fc7c0c772add429241571afb3805861fb3cfa2af374534088b76cdb4325a87e9a60405160405180910390a36128a7816000805160206155f583398151915255565b6051546053546137e39042615320565b10156137eb57565b604d60009054906101000a90046001600160a01b03166001600160a01b031663e4d873206040518163ffffffff1660e01b8152600401600060405180830381600087803b15801561383b57600080fd5b505af115801561384f573d6000803e3d6000fd5b50505050604e60009054906101000a90046001600160a01b03166001600160a01b031663737962976040518163ffffffff1660e01b8152600401600060405180830381600087803b1580156138a357600080fd5b505af11580156138b7573d6000803e3d6000fd5b505050506138c36138f1565b6053546051546138d391906154c3565b4210611ef3576052546051546138e99190615320565b6051556138c3565b6049546001600160a01b03166000613907612e2b565b9050600081511161394c5760405162461bcd60e51b815260206004820152600f60248201526e15d95a59da1d1cc81b9bdd081cd95d608a1b60448201526064016109dc565b6049546001600160a01b03166139915760405162461bcd60e51b815260206004820152600a6024820152691414c81b9bdd081cd95d60b21b60448201526064016109dc565b60008060005b83518160ff161015613c1357838160ff16815181106139b8576139b86155ba565b6020026020010151608001516139cd57613c01565b838160ff16815181106139e2576139e26155ba565b60200260200101516040015160001415613a6e57838160ff1681518110613a0b57613a0b6155ba565b6020026020010151600001516001600160a01b031663853828b66040518163ffffffff1660e01b8152600401600060405180830381600087803b158015613a5157600080fd5b505af1158015613a65573d6000803e3d6000fd5b50505050613c01565b613b356040518060400160405280601581526020017402130b630b731b29034b71039ba30b93a32b3bc9d1605d1b815250858360ff1681518110613ab457613ab46155ba565b6020026020010151600001516001600160a01b031663c71daccb6040518163ffffffff1660e01b815260040160206040518083038186803b158015613af857600080fd5b505afa158015613b0c573d6000803e3d6000fd5b505050506040513d601f19601f82011682018060405250810190613b309190614ff3565b61475e565b838160ff1681518110613b4a57613b4a6155ba565b6020026020010151600001516001600160a01b031663c71daccb6040518163ffffffff1660e01b815260040160206040518083038186803b158015613b8e57600080fd5b505afa158015613ba2573d6000803e3d6000fd5b505050506040513d601f19601f82011682018060405250810190613bc69190614ff3565b613bd09084615320565b9250838160ff1681518110613be757613be76155ba565b60200260200101516040015182613bfe9190615320565b91505b80613c0b81615558565b915050613997565b506040516370a0823160e01b81523060048201526000906001600160a01b038616906370a082319060240160206040518083038186803b158015613c5657600080fd5b505afa158015613c6a573d6000803e3d6000fd5b505050506040513d601f19601f82011682018060405250810190613c8e9190614ff3565b613c989084615320565b9050613cc96040518060400160405280600d81526020016c02a37ba30b61030b9b9b2ba1d1609d1b8152508261475e565b6000845167ffffffffffffffff811115613ce557613ce56155d0565b604051908082528060200260200182016040528015613d3057816020015b6040805160608101825260008082526020808301829052928201528252600019909201910181613d035790505b5090506000805b86518160ff16101561406f57868160ff1681518110613d5857613d586155ba565b602002602001015160800151613d6d5761405d565b6000878260ff1681518110613d8457613d846155ba565b60200260200101516040015160001415613da057506000613dda565b85888360ff1681518110613db657613db66155ba565b60200260200101516040015186613dcd9190615465565b613dd79190615366565b90505b6000888360ff1681518110613df157613df16155ba565b6020026020010151600001516001600160a01b031663c71daccb6040518163ffffffff1660e01b815260040160206040518083038186803b158015613e3557600080fd5b505afa158015613e49573d6000803e3d6000fd5b505050506040513d601f19601f82011682018060405250810190613e6d9190614ff3565b905080821415613e7e57505061405d565b80821015613f975760408051808201909152601881527f5769746864726177206e6f7720616d6f756e742066726f6d00000000000000006020820152613eee90613ec884846154c3565b8b8660ff1681518110613edd57613edd6155ba565b6020026020010151600001516147a3565b888360ff1681518110613f0357613f036155ba565b6020026020010151600001516001600160a01b031663d9caed12308c8585613f2b91906154c3565b6040516001600160e01b031960e086901b1681526001600160a01b0393841660048201529290911660248301526044820152606401600060405180830381600087803b158015613f7a57600080fd5b505af1158015613f8e573d6000803e3d6000fd5b5050505061405a565b60408051808201909152601981527f4465706f736974206c6174657220616d6f756e742066726f6d000000000000006020820152613fd990613ec883856154c3565b60405180606001604052806001151581526020018a8560ff1681518110614002576140026155ba565b6020026020010151600001516001600160a01b03168152602001828461402891906154c3565b815250858560ff1681518110614040576140406155ba565b6020026020010181905250838061405690615558565b9450505b50505b8061406781615558565b915050613d37565b506140cb6040518060600160405280602a8152602001615615602a91396040516370a0823160e01b81523060048201526001600160a01b038a16906370a082319060240160206040518083038186803b158015613af857600080fd5b60005b8160ff168160ff161015611590576000838260ff16815181106140f3576140f36155ba565b60200260200101516020015190506000848360ff1681518110614118576141186155ba565b60200260200101516040015190506141666040518060400160405280601981526020017f50726f63657373696e67207374616b65206f72646572206f660000000000000081525083836147ea565b6040516370a0823160e01b81523060048201526000906001600160a01b038c16906370a082319060240160206040518083038186803b1580156141a857600080fd5b505afa1580156141bc573d6000803e3d6000fd5b505050506040513d601f19601f820116820180604052508101906141e09190614ff3565b9050818110156141ee578091505b60405163a9059cbb60e01b81526001600160a01b038481166004830152602482018490528c169063a9059cbb90604401602060405180830381600087803b15801561423857600080fd5b505af115801561424c573d6000803e3d6000fd5b505050506040513d601f19601f820116820180604052508101906142709190614f25565b506040516311f9fbc960e21b81526001600160a01b038c81166004830152602482018490528416906347e7ef2490604401600060405180830381600087803b1580156142bb57600080fd5b505af11580156142cf573d6000803e3d6000fd5b5050505050505080806142e190615558565b9150506140ce565b600061433e826040518060400160405280602081526020017f5361666545524332303a206c6f772d6c6576656c2063616c6c206661696c6564815250856001600160a01b03166148319092919063ffffffff16565b805190915015611680578080602001905181019061435c9190614f25565b6116805760405162461bcd60e51b815260206004820152602a60248201527f5361666545524332303a204552433230206f7065726174696f6e20646964206e6044820152691bdd081cdd58d8d9595960b21b60648201526084016109dc565b60006143c78284615465565b90505b92915050565b60006143c78284615366565b80516a636f6e736f6c652e6c6f67602083016000808483855afa5050505050565b60606000825167ffffffffffffffff81111561441b5761441b6155d0565b604051908082528060200260200182016040528015614444578160200160208202803683370190505b50905060005b83518110156144a057838181518110614465576144656155ba565b602002602001015160400151828281518110614483576144836155ba565b60209081029190910101528061449881615544565b91505061444a565b506000815167ffffffffffffffff8111156144bd576144bd6155d0565b6040519080825280602002602001820160405280156144e6578160200160208202803683370190505b50905060005b81518110156145255780828281518110614508576145086155ba565b60209081029190910101528061451d81615544565b9150506144ec565b506145408260006001855161453a91906154c3565b84614848565b6000825167ffffffffffffffff81111561455c5761455c6155d0565b60405190808252806020026020018201604052801561459557816020015b614582614c56565b81526020019060019003908161457a5790505b50905060005b825181101561460757858382815181106145b7576145b76155ba565b6020026020010151815181106145cf576145cf6155ba565b60200260200101518282815181106145e9576145e96155ba565b602002602001018190525080806145ff90615544565b91505061459b565b50949350505050565b6050548015806146295750816146276001836154c3565b105b1561467657600061463a82846154c3565b614645906001615320565b905060005b818160ff161015614673576050805460010181556000528061466b81615558565b91505061464a565b50505b826050838154811061468a5761468a6155ba565b6000918252602091829020835160059092020180546001600160a01b039092166001600160a01b0319909216919091178155908201516001820155604082015160028201556060820151600382015560808201516004909101805460a09093015115156101000261ff00199215159290921661ffff1990931692909217179055505050565b6040516001600160a01b038316602482015260448101829052610b0d9060640160408051601f198184030181529190526020810180516001600160e01b0316632243cfa360e01b1790526143dc565b610b0d82826040516024016147749291906151b4565b60408051601f198184030181529190526020810180516001600160e01b03166309710a9d60e41b1790526143dc565b6116808383836040516024016147bb939291906151d6565b60408051601f198184030181529190526020810180516001600160e01b031663e3849f7960e01b1790526143dc565b61168083838360405160240161480293929190615186565b60408051601f198184030181529190526020810180516001600160e01b03166307c8121760e01b1790526143dc565b60606148408484600085614a3d565b949350505050565b828280821415614859575050614a37565b60008660026148688888615484565b6148729190615338565b61487c90886152df565b8151811061488c5761488c6155ba565b602002602001015190505b818313614a0b575b808784815181106148b2576148b26155ba565b602002602001015111156148d257826148ca81615524565b93505061489f565b8682815181106148e4576148e46155ba565b602002602001015181111561490557816148fd81615506565b9250506148d2565b818313614a065786828151811061491e5761491e6155ba565b6020026020010151878481518110614938576149386155ba565b6020026020010151888581518110614952576149526155ba565b6020026020010189858151811061496b5761496b6155ba565b602002602001018281525082815250505083828151811061498e5761498e6155ba565b60200260200101518484815181106149a8576149a86155ba565b60200260200101518585815181106149c2576149c26155ba565b602002602001018685815181106149db576149db6155ba565b602090810291909101019190915252826149f481615524565b9350508180614a0290615506565b9250505b614897565b81861215614a1f57614a1f87878487614848565b84831215614a3357614a3387848787614848565b5050505b50505050565b606082471015614a9e5760405162461bcd60e51b815260206004820152602660248201527f416464726573733a20696e73756666696369656e742062616c616e636520666f6044820152651c8818d85b1b60d21b60648201526084016109dc565b843b614aec5760405162461bcd60e51b815260206004820152601d60248201527f416464726573733a2063616c6c20746f206e6f6e2d636f6e747261637400000060448201526064016109dc565b600080866001600160a01b03168587604051614b08919061509e565b60006040518083038185875af1925050503d8060008114614b45576040519150601f19603f3d011682016040523d82523d6000602084013e614b4a565b606091505b5091509150614b5a828286614b65565b979650505050505050565b60608315614b74575081610c00565b825115614b845782518084602001fd5b8160405162461bcd60e51b81526004016109dc9190615149565b828054828255906000526020600020908101928215614bf1579160200282015b82811115614bf15781546001600160a01b0319166001600160a01b03843516178255602090920191600190910190614bbe565b50614bfd929150614c99565b5090565b828054828255906000526020600020908101928215614bf1579160200282015b82811115614bf157825182546001600160a01b0319166001600160a01b03909116178255602090920191600190910190614c21565b6040518060c0016040528060006001600160a01b031681526020016000815260200160008152602001600081526020016000151581526020016000151581525090565b5b80821115614bfd5760008155600101614c9a565b80356001600160a01b0381168114614cc557600080fd5b919050565b60008083601f840112614cdc57600080fd5b50813567ffffffffffffffff811115614cf457600080fd5b6020830191508360208260051b8501011115614d0f57600080fd5b9250929050565b8035614cc5816155e6565b600060208284031215614d3357600080fd5b6143c782614cae565b60008060408385031215614d4f57600080fd5b614d5883614cae565b9150614d6660208401614cae565b90509250929050565b60008060008060008060808789031215614d8857600080fd5b614d9187614cae565b9550614d9f60208801614cae565b9450604087013567ffffffffffffffff80821115614dbc57600080fd5b614dc88a838b01614cca565b90965094506060890135915080821115614de157600080fd5b50614dee89828a01614cca565b979a9699509497509295939492505050565b60008060408385031215614e1357600080fd5b614e1c83614cae565b946020939093013593505050565b60008060008060808587031215614e4057600080fd5b614e4985614cae565b935060208501359250614e5e60408601614cae565b9396929550929360600135925050565b60008060208385031215614e8157600080fd5b823567ffffffffffffffff811115614e9857600080fd5b614ea485828601614cca565b90969095509350505050565b60008060208385031215614ec357600080fd5b823567ffffffffffffffff80821115614edb57600080fd5b818501915085601f830112614eef57600080fd5b813581811115614efe57600080fd5b86602060c083028501011115614f1357600080fd5b60209290920196919550909350505050565b600060208284031215614f3757600080fd5b8151610c00816155e6565b600060c08284031215614f5457600080fd5b60405160c0810181811067ffffffffffffffff82111715614f8557634e487b7160e01b600052604160045260246000fd5b604052614f9183614cae565b8152602083013560208201526040830135604082015260608301356060820152614fbd60808401614d16565b6080820152614fce60a08401614d16565b60a08201529392505050565b600060208284031215614fec57600080fd5b5035919050565b60006020828403121561500557600080fd5b5051919050565b6000806040838503121561501f57600080fd5b50508035926020909101359150565b600081518084526150468160208601602086016154da565b601f01601f19169290920160200192915050565b80516001600160a01b0316825260208082015190830152604080820151908301526060808201519083015260808082015115159083015260a0908101511515910152565b600082516150b08184602087016154da565b9190910192915050565b6020808252825182820181905260009190848201906040850190845b818110156150fb5783516001600160a01b0316835292840192918401916001016150d6565b50909695505050505050565b6020808252825182820181905260009190848201906040850190845b818110156150fb5761513683855161505a565b9284019260c09290920191600101615123565b6020815260006143c7602083018461502e565b60408152600061516f604083018561502e565b905060018060a01b03831660208301529392505050565b606081526000615199606083018661502e565b6001600160a01b039490941660208301525060400152919050565b6040815260006151c7604083018561502e565b90508260208301529392505050565b6060815260006151e9606083018661502e565b6020830194909452506001600160a01b0391909116604090910152919050565b6020808252601a908201527f43616c6c6572206973206e6f742074686520476f7665726e6f72000000000000604082015260600190565b60208082526029908201527f53747261746567792073686f756c6420626520737570706f72746564206279206040820152681d1a194815985d5b1d60ba1b606082015260800190565b60208082526028908201527f43616c6c6572206973206e6f74207468652053747261746567697374206f722060408201526723b7bb32b93737b960c11b606082015260800190565b60c081016143ca828461505a565b600080821280156001600160ff1b038490038513161561530157615301615578565b600160ff1b839003841281161561531a5761531a615578565b50500190565b6000821982111561533357615333615578565b500190565b6000826153475761534761558e565b600160ff1b82146000198414161561536157615361615578565b500590565b6000826153755761537561558e565b500490565b600181815b808511156153b557816000190482111561539b5761539b615578565b808516156153a857918102915b93841c939080029061537f565b509250929050565b60006143c783836000826153d3575060016143ca565b816153e0575060006143ca565b81600181146153f657600281146154005761541c565b60019150506143ca565b60ff84111561541157615411615578565b50506001821b6143ca565b5060208310610133831016604e8410600b841016171561543f575081810a6143ca565b615449838361537a565b806000190482111561545d5761545d615578565b029392505050565b600081600019048311821515161561547f5761547f615578565b500290565b60008083128015600160ff1b8501841216156154a2576154a2615578565b6001600160ff1b03840183138116156154bd576154bd615578565b50500390565b6000828210156154d5576154d5615578565b500390565b60005b838110156154f55781810151838201526020016154dd565b83811115614a375750506000910152565b6000600160ff1b82141561551c5761551c615578565b506000190190565b60006001600160ff1b0382141561553d5761553d615578565b5060010190565b600060001982141561553d5761553d615578565b600060ff821660ff81141561556f5761556f615578565b60010192915050565b634e487b7160e01b600052601160045260246000fd5b634e487b7160e01b600052601260045260246000fd5b634e487b7160e01b600052603160045260246000fd5b634e487b7160e01b600052603260045260246000fd5b634e487b7160e01b600052604160045260246000fd5b80151581146128a757600080fdfe83f34c88ec39d54d1e423bd8a181ebc59ede5dcc9996c2df334668b4f89fdd735f61737365742042616c616e636520617661696c61626c65206166746572207769746864726177696e6752656d6f76696e672073747261746567792066726f6d20717569636b4465706f7369745661756c7441646d696e3a2053657474696e67205072696d61727920537461626c653a20a26469706673582212203090217c6017a15fe7bf0aa8f8c76bab443ed827b458cc80b9c6f369901867a864736f6c6343000806003383f34c88ec39d54d1e423bd8a181ebc59ede5dcc9996c2df334668b4f89fdd73",
  "devdoc": {
    "kind": "dev",
    "methods": {
      "addRebaseManager(address)": {
        "details": "Set rebase managers to allow rebasing to specific external users",
        "params": {
          "_rebaseManager": "Candidate for Rebase Manager"
        }
      },
      "approveStrategy(address)": {
        "details": "Add a strategy to the Vault.",
        "params": {
          "_addr": "Address of the strategy to add"
        }
      },
      "balance()": {
        "details": "Balance the Vault with predefined weights"
      },
      "claimGovernance()": {
        "details": "Claim Governance of the contract to a new account (`newGovernor`). Can only be called by the new Governor."
      },
      "getAllStrategyWithWeights()": {
        "details": "Accessor function for strategyWithWeights",
        "returns": {
          "_0": "strategyWithWeights StrategyWithWeight[] object"
        }
      },
      "getFeeParams()": {
        "details": "Get Fee parameters for Labs and Team",
        "returns": {
          "_0": "Tuple containing the Lab address, Lab % in Bps, Team address, Team % in Bps"
        }
      },
      "getQuickDepositStrategies()": {
        "details": "Get the quick deposit strategies for quickAllocation of funds.",
        "returns": {
          "_0": "QuickDepositStrategies Array of pre-appproved startegy addresses"
        }
      },
      "getStrategyWithWeight(address)": {
        "details": "Utility function to return the StrategyWithWeight object by strategy address",
        "params": {
          "strategy": "address of the strategy"
        },
        "returns": {
          "_0": "StrategyWithWeight object against the address"
        }
      },
      "governor()": {
        "details": "Returns the address of the current Governor."
      },
      "isGovernor()": {
        "details": "Returns true if the caller is the current Governor."
      },
      "isRebaseManager(address)": {
        "details": "Check if the an address is actually a Rebase Manager",
        "params": {
          "_sender": "address to check if it is among Rebase Managers"
        }
      },
      "pauseCapital()": {
        "details": "Set the deposit paused flag to true to prevent capital movement."
      },
      "pauseRebase()": {
        "details": "Set the deposit paused flag to true to prevent rebasing."
      },
      "payout()": {
        "details": "Function to collect rewards from Strategies and Balance the Vault"
      },
      "priceUSDMint(address)": {
        "details": "Returns the total price in 18 digit USD for a given asset.      Never goes above 1, since that is how we price mints",
        "params": {
          "asset": "address of the asset"
        },
        "returns": {
          "_0": "uint256 USD price of 1 of the asset, in 18 decimal fixed"
        }
      },
      "priceUSDRedeem(address)": {
        "details": "Returns the total price in 18 digit USD for a given asset.      Never goes below 1, since that is how we price redeems",
        "params": {
          "asset": "Address of the asset"
        },
        "returns": {
          "_0": "uint256 USD price of 1 of the asset, in 18 decimal fixed"
        }
      },
      "reallocate(address,address,address[],uint256[])": {
        "params": {
          "_amounts": "Array of amounts of each corresponding asset to move.",
          "_assets": "Array of asset address that will be moved",
          "_strategyFromAddress": "Address of Strategy to move assets from.",
          "_strategyToAddress": "Address of Strategy to move assets to."
        }
      },
      "removeStrategy(address)": {
        "details": "Remove a strategy from the Vault.",
        "params": {
          "_addr": "Address of the strategy to remove"
        }
      },
      "setAdminImpl(address)": {
        "details": "set the implementation for the admin, this needs to be in a base class else we cannot set it",
        "params": {
          "newImpl": "address of the implementation"
        }
      },
      "setAssetDefaultStrategy(address,address)": {
        "details": "Set the default Strategy for an asset, i.e. the one which the asset will be automatically allocated to and withdrawn from",
        "params": {
          "_asset": "Address of the asset",
          "_strategy": "Address of the Strategy"
        }
      },
      "setAutoAllocateThreshold(uint256)": {
        "details": "Sets the minimum amount of CASH in a mint to trigger an automatic allocation of funds afterwords.",
        "params": {
          "_threshold": "CASH amount with 18 fixed decimals."
        }
      },
      "setDripper(address)": {
        "details": "Set the Dripper address in the Value",
        "params": {
          "_dripper": "Address of the Dripper"
        }
      },
      "setFeeParams(address,uint256,address,uint256)": {
        "details": "Set the Fee Distribution Parameters for Vault (currently not used, but may be infuture) and for Harvester",
        "params": {
          "_labsAddress": "address of the Labs account",
          "_labsFeeBps": "% in bps which Labs would recieve",
          "_teamAddress": "address of the Team account",
          "_teamFeeBps": "% in bps which Team would recieve"
        }
      },
      "setHarvester(address)": {
        "details": "Set the Harvester address in the Vault",
        "params": {
          "_harvester": "Address of Harvester"
        }
      },
      "setMaxSupplyDiff(uint256)": {
        "details": "Sets the maximum allowable difference between total supply and backing assets' value."
      },
      "setNextPayoutTime(uint256)": {
        "details": "Set nextPayoutTime timestamp. Should be called once at the time initialization Can be arbitary as it will auto set by payout()",
        "params": {
          "_nextPayoutTime": "timestamp of next Payout"
        }
      },
      "setPayoutIntervals(uint256,uint256)": {
        "details": "Set _payoutPeriod and _payoutPeriod duration.",
        "params": {
          "_payoutPeriod": "Period for the payout. Ex: 24 * 60 * 60;",
          "_payoutTimeRange": "duration to honor payout time. Ex: 15 * 60;"
        }
      },
      "setPriceProvider(address)": {
        "details": "Set address of price provider.",
        "params": {
          "_priceProvider": "Address of price provider"
        }
      },
      "setPrimaryStable(address)": {
        "details": "Set the Primary Stable address",
        "params": {
          "_primaryStable": "Address of the Primary Stable"
        }
      },
      "setQuickDepositStrategies(address[])": {
        "details": "Set the quick deposit strategies for quickAllocation of funds.",
        "params": {
          "_quickDepositStrategies": "Array of pre-appproved startegy addresses"
        }
      },
      "setRebaseThreshold(uint256)": {
        "details": "Set a minimum amount of CASH in a mint or redeem that triggers a rebase",
        "params": {
          "_threshold": "CASH amount with 18 fixed decimals."
        }
      },
      "setRedeemFeeBps(uint256)": {
        "details": "Set a fee in basis points to be charged for a redeem.",
        "params": {
          "_redeemFeeBps": "Basis point fee to be charged"
        }
      },
      "setStrategistAddr(address)": {
        "details": "Set address of Strategist",
        "params": {
          "_address": "Address of Strategist"
        }
      },
      "setStrategyWithWeights((address,uint256,uint256,uint256,bool,bool)[])": {
        "details": "Set the Weight against each strategy",
        "params": {
          "_strategyWithWeights": "Array of StrategyWithWeight structs to set"
        }
      },
      "setSwapper(address,bytes32)": {
        "details": "Set the Balancer Vault as primary swapper for the Vault",
        "params": {
          "_balancerPoolId": "Id of the Balancer Pool to use for swapping",
          "_balancerVault": "Address of Balancer Vault"
        }
      },
      "setVaultBuffer(uint256)": {
        "details": "Set a buffer of assets to keep in the Vault to handle most redemptions without needing to spend gas unwinding assets from a Strategy.",
        "params": {
          "_vaultBuffer": "Percentage using 18 decimals. 100% = 1e18."
        }
      },
      "supportAsset(address)": {
        "details": "Add a supported asset to the contract, i.e. one that can be         to mint CASH.",
        "params": {
          "_asset": "Address of asset"
        }
      },
      "transferGovernance(address)": {
        "details": "Transfers Governance of the contract to a new account (`newGovernor`). Can only be called by the current Governor. Must be claimed for this to complete",
        "params": {
          "_newGovernor": "Address of the new Governor"
        }
      },
      "transferToken(address,uint256)": {
        "details": "Transfer token to governor. Intended for recovering tokens stuck in      contract, i.e. mistaken sends.",
        "params": {
          "_amount": "Amount of the asset to transfer",
          "_asset": "Address for the asset"
        }
      },
      "unpauseCapital()": {
        "details": "Set the deposit paused flag to false to enable capital movement."
      },
      "unpauseRebase()": {
        "details": "Set the deposit paused flag to true to allow rebasing."
      },
      "withdrawAllFromStrategies()": {
        "details": "Withdraws all assets from all the strategies and sends assets to the Vault."
      },
      "withdrawAllFromStrategy(address)": {
        "details": "Withdraws all assets from the strategy and sends assets to the Vault.",
        "params": {
          "_strategyAddr": "Strategy address."
        }
      }
    },
    "version": 1
  },
  "userdoc": {
    "kind": "user",
    "methods": {
      "reallocate(address,address,address[],uint256[])": {
        "notice": "Move assets from one Strategy to another"
      }
    },
    "version": 1
  },
  "storageLayout": {
    "storage": [
      {
        "astId": 30647,
        "contract": "contracts/vault/Vault.sol:Vault",
        "label": "initialized",
        "offset": 0,
        "slot": "0",
        "type": "t_bool"
      },
      {
        "astId": 30650,
        "contract": "contracts/vault/Vault.sol:Vault",
        "label": "initializing",
        "offset": 1,
        "slot": "0",
        "type": "t_bool"
      },
      {
        "astId": 30690,
        "contract": "contracts/vault/Vault.sol:Vault",
        "label": "______gap",
        "offset": 0,
        "slot": "1",
        "type": "t_array(t_uint256)50_storage"
      },
      {
        "astId": 36205,
        "contract": "contracts/vault/Vault.sol:Vault",
        "label": "assets",
        "offset": 0,
        "slot": "51",
        "type": "t_mapping(t_address,t_struct(Asset)36200_storage)"
      },
      {
        "astId": 36208,
        "contract": "contracts/vault/Vault.sol:Vault",
        "label": "allAssets",
        "offset": 0,
        "slot": "52",
        "type": "t_array(t_address)dyn_storage"
      },
      {
        "astId": 36218,
        "contract": "contracts/vault/Vault.sol:Vault",
        "label": "strategies",
        "offset": 0,
        "slot": "53",
        "type": "t_mapping(t_address,t_struct(Strategy)36213_storage)"
      },
      {
        "astId": 36221,
        "contract": "contracts/vault/Vault.sol:Vault",
        "label": "allStrategies",
        "offset": 0,
        "slot": "54",
        "type": "t_array(t_address)dyn_storage"
      },
      {
        "astId": 36223,
        "contract": "contracts/vault/Vault.sol:Vault",
        "label": "priceProvider",
        "offset": 0,
        "slot": "55",
        "type": "t_address"
      },
      {
        "astId": 36226,
        "contract": "contracts/vault/Vault.sol:Vault",
        "label": "rebasePaused",
        "offset": 20,
        "slot": "55",
        "type": "t_bool"
      },
      {
        "astId": 36229,
        "contract": "contracts/vault/Vault.sol:Vault",
        "label": "capitalPaused",
        "offset": 21,
        "slot": "55",
        "type": "t_bool"
      },
      {
        "astId": 36231,
        "contract": "contracts/vault/Vault.sol:Vault",
        "label": "redeemFeeBps",
        "offset": 0,
        "slot": "56",
        "type": "t_uint256"
      },
      {
        "astId": 36233,
        "contract": "contracts/vault/Vault.sol:Vault",
        "label": "labsAddress",
        "offset": 0,
        "slot": "57",
        "type": "t_address"
      },
      {
        "astId": 36235,
        "contract": "contracts/vault/Vault.sol:Vault",
        "label": "labsFeeBps",
        "offset": 0,
        "slot": "58",
        "type": "t_uint256"
      },
      {
        "astId": 36237,
        "contract": "contracts/vault/Vault.sol:Vault",
        "label": "teamAddress",
        "offset": 0,
        "slot": "59",
        "type": "t_address"
      },
      {
        "astId": 36239,
        "contract": "contracts/vault/Vault.sol:Vault",
        "label": "teamFeeBps",
        "offset": 0,
        "slot": "60",
        "type": "t_uint256"
      },
      {
        "astId": 36241,
        "contract": "contracts/vault/Vault.sol:Vault",
        "label": "vaultBuffer",
        "offset": 0,
        "slot": "61",
        "type": "t_uint256"
      },
      {
        "astId": 36243,
        "contract": "contracts/vault/Vault.sol:Vault",
        "label": "autoAllocateThreshold",
        "offset": 0,
        "slot": "62",
        "type": "t_uint256"
      },
      {
        "astId": 36245,
        "contract": "contracts/vault/Vault.sol:Vault",
        "label": "rebaseThreshold",
        "offset": 0,
        "slot": "63",
        "type": "t_uint256"
      },
      {
        "astId": 36248,
        "contract": "contracts/vault/Vault.sol:Vault",
        "label": "cash",
        "offset": 0,
        "slot": "64",
        "type": "t_contract(CASH)29936"
      },
      {
        "astId": 36257,
        "contract": "contracts/vault/Vault.sol:Vault",
        "label": "_deprecated_rebaseHooksAddr",
        "offset": 0,
        "slot": "65",
        "type": "t_address"
      },
      {
        "astId": 36263,
        "contract": "contracts/vault/Vault.sol:Vault",
        "label": "_deprecated_uniswapAddr",
        "offset": 0,
        "slot": "66",
        "type": "t_address"
      },
      {
        "astId": 36269,
        "contract": "contracts/vault/Vault.sol:Vault",
        "label": "strategistAddr",
        "offset": 0,
        "slot": "67",
        "type": "t_address"
      },
      {
        "astId": 36273,
        "contract": "contracts/vault/Vault.sol:Vault",
        "label": "assetDefaultStrategies",
        "offset": 0,
        "slot": "68",
        "type": "t_mapping(t_address,t_address)"
      },
      {
        "astId": 36275,
        "contract": "contracts/vault/Vault.sol:Vault",
        "label": "maxSupplyDiff",
        "offset": 0,
        "slot": "69",
        "type": "t_uint256"
      },
      {
        "astId": 36277,
        "contract": "contracts/vault/Vault.sol:Vault",
        "label": "trusteeAddress",
        "offset": 0,
        "slot": "70",
        "type": "t_address"
      },
      {
        "astId": 36279,
        "contract": "contracts/vault/Vault.sol:Vault",
        "label": "trusteeFeeBps",
        "offset": 0,
        "slot": "71",
        "type": "t_uint256"
      },
      {
        "astId": 36282,
        "contract": "contracts/vault/Vault.sol:Vault",
        "label": "_deprecated_swapTokens",
        "offset": 0,
        "slot": "72",
        "type": "t_array(t_address)dyn_storage"
      },
      {
        "astId": 36287,
        "contract": "contracts/vault/Vault.sol:Vault",
        "label": "primaryStableAddress",
        "offset": 0,
        "slot": "73",
        "type": "t_address"
      },
      {
        "astId": 36290,
        "contract": "contracts/vault/Vault.sol:Vault",
        "label": "quickDepositStrategies",
        "offset": 0,
        "slot": "74",
        "type": "t_array(t_address)dyn_storage"
      },
      {
        "astId": 36292,
        "contract": "contracts/vault/Vault.sol:Vault",
        "label": "balancerVault",
        "offset": 0,
        "slot": "75",
        "type": "t_address"
      },
      {
        "astId": 36294,
        "contract": "contracts/vault/Vault.sol:Vault",
        "label": "balancerPoolId",
        "offset": 0,
        "slot": "76",
        "type": "t_bytes32"
      },
      {
        "astId": 36296,
        "contract": "contracts/vault/Vault.sol:Vault",
        "label": "harvesterAddress",
        "offset": 0,
        "slot": "77",
        "type": "t_address"
      },
      {
        "astId": 36298,
        "contract": "contracts/vault/Vault.sol:Vault",
        "label": "dripperAddress",
        "offset": 0,
        "slot": "78",
        "type": "t_address"
      },
      {
        "astId": 36315,
        "contract": "contracts/vault/Vault.sol:Vault",
        "label": "strategyWithWeightPositions",
        "offset": 0,
        "slot": "79",
        "type": "t_mapping(t_address,t_uint256)"
      },
      {
        "astId": 36319,
        "contract": "contracts/vault/Vault.sol:Vault",
        "label": "strategyWithWeights",
        "offset": 0,
        "slot": "80",
        "type": "t_array(t_struct(StrategyWithWeight)36311_storage)dyn_storage"
      },
      {
        "astId": 36324,
        "contract": "contracts/vault/Vault.sol:Vault",
        "label": "nextPayoutTime",
        "offset": 0,
        "slot": "81",
        "type": "t_uint256"
      },
      {
        "astId": 36326,
        "contract": "contracts/vault/Vault.sol:Vault",
        "label": "payoutPeriod",
        "offset": 0,
        "slot": "82",
        "type": "t_uint256"
      },
      {
        "astId": 36328,
        "contract": "contracts/vault/Vault.sol:Vault",
        "label": "payoutTimeRange",
        "offset": 0,
        "slot": "83",
        "type": "t_uint256"
      },
      {
        "astId": 36332,
        "contract": "contracts/vault/Vault.sol:Vault",
        "label": "rebaseManagers",
        "offset": 0,
        "slot": "84",
        "type": "t_mapping(t_address,t_bool)"
      }
    ],
    "types": {
      "t_address": {
        "encoding": "inplace",
        "label": "address",
        "numberOfBytes": "20"
      },
      "t_array(t_address)dyn_storage": {
        "base": "t_address",
        "encoding": "dynamic_array",
        "label": "address[]",
        "numberOfBytes": "32"
      },
      "t_array(t_struct(StrategyWithWeight)36311_storage)dyn_storage": {
        "base": "t_struct(StrategyWithWeight)36311_storage",
        "encoding": "dynamic_array",
        "label": "struct VaultStorage.StrategyWithWeight[]",
        "numberOfBytes": "32"
      },
      "t_array(t_uint256)50_storage": {
        "base": "t_uint256",
        "encoding": "inplace",
        "label": "uint256[50]",
        "numberOfBytes": "1600"
      },
      "t_bool": {
        "encoding": "inplace",
        "label": "bool",
        "numberOfBytes": "1"
      },
      "t_bytes32": {
        "encoding": "inplace",
        "label": "bytes32",
        "numberOfBytes": "32"
      },
      "t_contract(CASH)29936": {
        "encoding": "inplace",
        "label": "contract CASH",
        "numberOfBytes": "20"
      },
      "t_mapping(t_address,t_address)": {
        "encoding": "mapping",
        "key": "t_address",
        "label": "mapping(address => address)",
        "numberOfBytes": "32",
        "value": "t_address"
      },
      "t_mapping(t_address,t_bool)": {
        "encoding": "mapping",
        "key": "t_address",
        "label": "mapping(address => bool)",
        "numberOfBytes": "32",
        "value": "t_bool"
      },
      "t_mapping(t_address,t_struct(Asset)36200_storage)": {
        "encoding": "mapping",
        "key": "t_address",
        "label": "mapping(address => struct VaultStorage.Asset)",
        "numberOfBytes": "32",
        "value": "t_struct(Asset)36200_storage"
      },
      "t_mapping(t_address,t_struct(Strategy)36213_storage)": {
        "encoding": "mapping",
        "key": "t_address",
        "label": "mapping(address => struct VaultStorage.Strategy)",
        "numberOfBytes": "32",
        "value": "t_struct(Strategy)36213_storage"
      },
      "t_mapping(t_address,t_uint256)": {
        "encoding": "mapping",
        "key": "t_address",
        "label": "mapping(address => uint256)",
        "numberOfBytes": "32",
        "value": "t_uint256"
      },
      "t_struct(Asset)36200_storage": {
        "encoding": "inplace",
        "label": "struct VaultStorage.Asset",
        "members": [
          {
            "astId": 36199,
            "contract": "contracts/vault/Vault.sol:Vault",
            "label": "isSupported",
            "offset": 0,
            "slot": "0",
            "type": "t_bool"
          }
        ],
        "numberOfBytes": "32"
      },
      "t_struct(Strategy)36213_storage": {
        "encoding": "inplace",
        "label": "struct VaultStorage.Strategy",
        "members": [
          {
            "astId": 36210,
            "contract": "contracts/vault/Vault.sol:Vault",
            "label": "isSupported",
            "offset": 0,
            "slot": "0",
            "type": "t_bool"
          },
          {
            "astId": 36212,
            "contract": "contracts/vault/Vault.sol:Vault",
            "label": "_deprecated",
            "offset": 0,
            "slot": "1",
            "type": "t_uint256"
          }
        ],
        "numberOfBytes": "64"
      },
      "t_struct(StrategyWithWeight)36311_storage": {
        "encoding": "inplace",
        "label": "struct VaultStorage.StrategyWithWeight",
        "members": [
          {
            "astId": 36300,
            "contract": "contracts/vault/Vault.sol:Vault",
            "label": "strategy",
            "offset": 0,
            "slot": "0",
            "type": "t_address"
          },
          {
            "astId": 36302,
            "contract": "contracts/vault/Vault.sol:Vault",
            "label": "minWeight",
            "offset": 0,
            "slot": "1",
            "type": "t_uint256"
          },
          {
            "astId": 36304,
            "contract": "contracts/vault/Vault.sol:Vault",
            "label": "targetWeight",
            "offset": 0,
            "slot": "2",
            "type": "t_uint256"
          },
          {
            "astId": 36306,
            "contract": "contracts/vault/Vault.sol:Vault",
            "label": "maxWeight",
            "offset": 0,
            "slot": "3",
            "type": "t_uint256"
          },
          {
            "astId": 36308,
            "contract": "contracts/vault/Vault.sol:Vault",
            "label": "enabled",
            "offset": 0,
            "slot": "4",
            "type": "t_bool"
          },
          {
            "astId": 36310,
            "contract": "contracts/vault/Vault.sol:Vault",
            "label": "enabledReward",
            "offset": 1,
            "slot": "4",
            "type": "t_bool"
          }
        ],
        "numberOfBytes": "160"
      },
      "t_uint256": {
        "encoding": "inplace",
        "label": "uint256",
        "numberOfBytes": "32"
      }
    }
  }
}