{
  "address": "0xDc2ac455719b172293B282Ab2434972ff62209c5",
  "abi": [
    {
      "anonymous": false,
      "inputs": [
        {
          "indexed": false,
          "internalType": "uint256",
          "name": "_threshold",
          "type": "uint256"
        }
      ],
      "name": "AllocateThresholdUpdated",
      "type": "event"
    },
    {
      "anonymous": false,
      "inputs": [
        {
          "indexed": false,
          "internalType": "address",
          "name": "_asset",
          "type": "address"
        },
        {
          "indexed": false,
          "internalType": "address",
          "name": "_strategy",
          "type": "address"
        },
        {
          "indexed": false,
          "internalType": "uint256",
          "name": "_amount",
          "type": "uint256"
        }
      ],
      "name": "AssetAllocated",
      "type": "event"
    },
    {
      "anonymous": false,
      "inputs": [
        {
          "indexed": false,
          "internalType": "address",
          "name": "_asset",
          "type": "address"
        },
        {
          "indexed": false,
          "internalType": "address",
          "name": "_strategy",
          "type": "address"
        }
      ],
      "name": "AssetDefaultStrategyUpdated",
      "type": "event"
    },
    {
      "anonymous": false,
      "inputs": [
        {
          "indexed": false,
          "internalType": "address",
          "name": "_asset",
          "type": "address"
        }
      ],
      "name": "AssetSupported",
      "type": "event"
    },
    {
      "anonymous": false,
      "inputs": [],
      "name": "CapitalPaused",
      "type": "event"
    },
    {
      "anonymous": false,
      "inputs": [],
      "name": "CapitalUnpaused",
      "type": "event"
    },
    {
      "anonymous": false,
      "inputs": [
        {
          "indexed": true,
          "internalType": "address",
          "name": "previousGovernor",
          "type": "address"
        },
        {
          "indexed": true,
          "internalType": "address",
          "name": "newGovernor",
          "type": "address"
        }
      ],
      "name": "GovernorshipTransferred",
      "type": "event"
    },
    {
      "anonymous": false,
      "inputs": [
        {
          "indexed": false,
          "internalType": "uint256",
          "name": "maxSupplyDiff",
          "type": "uint256"
        }
      ],
      "name": "MaxSupplyDiffChanged",
      "type": "event"
    },
    {
      "anonymous": false,
      "inputs": [
        {
          "indexed": false,
          "internalType": "address",
          "name": "_addr",
          "type": "address"
        },
        {
          "indexed": false,
          "internalType": "uint256",
          "name": "_value",
          "type": "uint256"
        }
      ],
      "name": "Mint",
      "type": "event"
    },
    {
      "anonymous": false,
      "inputs": [
        {
          "indexed": true,
          "internalType": "address",
          "name": "previousGovernor",
          "type": "address"
        },
        {
          "indexed": true,
          "internalType": "address",
          "name": "newGovernor",
          "type": "address"
        }
      ],
      "name": "PendingGovernorshipTransfer",
      "type": "event"
    },
    {
      "anonymous": false,
      "inputs": [
        {
          "indexed": false,
          "internalType": "address",
          "name": "_priceProvider",
          "type": "address"
        }
      ],
      "name": "PriceProviderUpdated",
      "type": "event"
    },
    {
      "anonymous": false,
      "inputs": [],
      "name": "RebasePaused",
      "type": "event"
    },
    {
      "anonymous": false,
      "inputs": [
        {
          "indexed": false,
          "internalType": "uint256",
          "name": "_threshold",
          "type": "uint256"
        }
      ],
      "name": "RebaseThresholdUpdated",
      "type": "event"
    },
    {
      "anonymous": false,
      "inputs": [],
      "name": "RebaseUnpaused",
      "type": "event"
    },
    {
      "anonymous": false,
      "inputs": [
        {
          "indexed": false,
          "internalType": "address",
          "name": "_addr",
          "type": "address"
        },
        {
          "indexed": false,
          "internalType": "uint256",
          "name": "_value",
          "type": "uint256"
        }
      ],
      "name": "Redeem",
      "type": "event"
    },
    {
      "anonymous": false,
      "inputs": [
        {
          "indexed": false,
          "internalType": "uint256",
          "name": "_redeemFeeBps",
          "type": "uint256"
        }
      ],
      "name": "RedeemFeeUpdated",
      "type": "event"
    },
    {
      "anonymous": false,
      "inputs": [
        {
          "indexed": false,
          "internalType": "address",
          "name": "_address",
          "type": "address"
        }
      ],
      "name": "StrategistUpdated",
      "type": "event"
    },
    {
      "anonymous": false,
      "inputs": [
        {
          "indexed": false,
          "internalType": "address",
          "name": "_addr",
          "type": "address"
        }
      ],
      "name": "StrategyApproved",
      "type": "event"
    },
    {
      "anonymous": false,
      "inputs": [
        {
          "indexed": false,
          "internalType": "address",
          "name": "_addr",
          "type": "address"
        }
      ],
      "name": "StrategyRemoved",
      "type": "event"
    },
    {
      "anonymous": false,
      "inputs": [
        {
          "indexed": false,
          "internalType": "address",
          "name": "_address",
          "type": "address"
        }
      ],
      "name": "TrusteeAddressChanged",
      "type": "event"
    },
    {
      "anonymous": false,
      "inputs": [
        {
          "indexed": false,
          "internalType": "uint256",
          "name": "_basis",
          "type": "uint256"
        }
      ],
      "name": "TrusteeFeeBpsChanged",
      "type": "event"
    },
    {
      "anonymous": false,
      "inputs": [
        {
          "indexed": false,
          "internalType": "uint256",
          "name": "_vaultBuffer",
          "type": "uint256"
        }
      ],
      "name": "VaultBufferUpdated",
      "type": "event"
    },
    {
      "anonymous": false,
      "inputs": [
        {
          "indexed": false,
          "internalType": "address",
          "name": "_to",
          "type": "address"
        },
        {
          "indexed": false,
          "internalType": "uint256",
          "name": "_yield",
          "type": "uint256"
        },
        {
          "indexed": false,
          "internalType": "uint256",
          "name": "_fee",
          "type": "uint256"
        }
      ],
      "name": "YieldDistribution",
      "type": "event"
    },
    {
      "stateMutability": "payable",
      "type": "fallback"
    },
    {
      "inputs": [],
      "name": "MAX_SLIPPAGE",
      "outputs": [
        {
          "internalType": "uint256",
          "name": "",
          "type": "uint256"
        }
      ],
      "stateMutability": "view",
      "type": "function"
    },
    {
      "inputs": [],
      "name": "MAX_VALUE",
      "outputs": [
        {
          "internalType": "int256",
          "name": "",
          "type": "int256"
        }
      ],
      "stateMutability": "view",
      "type": "function"
    },
    {
      "inputs": [],
      "name": "TOTAL_WEIGHT",
      "outputs": [
        {
          "internalType": "uint256",
          "name": "",
          "type": "uint256"
        }
      ],
      "stateMutability": "view",
      "type": "function"
    },
    {
      "inputs": [
        {
          "internalType": "address",
          "name": "",
          "type": "address"
        }
      ],
      "name": "assetDefaultStrategies",
      "outputs": [
        {
          "internalType": "address",
          "name": "",
          "type": "address"
        }
      ],
      "stateMutability": "view",
      "type": "function"
    },
    {
      "inputs": [],
      "name": "autoAllocateThreshold",
      "outputs": [
        {
          "internalType": "uint256",
          "name": "",
          "type": "uint256"
        }
      ],
      "stateMutability": "view",
      "type": "function"
    },
    {
      "inputs": [],
      "name": "balancerPoolId",
      "outputs": [
        {
          "internalType": "bytes32",
          "name": "",
          "type": "bytes32"
        }
      ],
      "stateMutability": "view",
      "type": "function"
    },
    {
      "inputs": [],
      "name": "balancerVault",
      "outputs": [
        {
          "internalType": "address",
          "name": "",
          "type": "address"
        }
      ],
      "stateMutability": "view",
      "type": "function"
    },
    {
      "inputs": [
        {
          "internalType": "uint256",
          "name": "_amount",
          "type": "uint256"
        }
      ],
      "name": "calculateRedeemOutput",
      "outputs": [
        {
          "internalType": "uint256",
          "name": "",
          "type": "uint256"
        }
      ],
      "stateMutability": "view",
      "type": "function"
    },
    {
      "inputs": [],
      "name": "capitalPaused",
      "outputs": [
        {
          "internalType": "bool",
          "name": "",
          "type": "bool"
        }
      ],
      "stateMutability": "view",
      "type": "function"
    },
    {
      "inputs": [],
      "name": "checkBalance",
      "outputs": [
        {
          "internalType": "uint256",
          "name": "",
          "type": "uint256"
        }
      ],
      "stateMutability": "view",
      "type": "function"
    },
    {
      "inputs": [],
      "name": "claimGovernance",
      "outputs": [],
      "stateMutability": "nonpayable",
      "type": "function"
    },
    {
      "inputs": [],
      "name": "dripperAddress",
      "outputs": [
        {
          "internalType": "address",
          "name": "",
          "type": "address"
        }
      ],
      "stateMutability": "view",
      "type": "function"
    },
    {
      "inputs": [],
      "name": "getAllAssets",
      "outputs": [
        {
          "internalType": "address[]",
          "name": "",
          "type": "address[]"
        }
      ],
      "stateMutability": "view",
      "type": "function"
    },
    {
      "inputs": [],
      "name": "getAllStrategies",
      "outputs": [
        {
          "internalType": "address[]",
          "name": "",
          "type": "address[]"
        }
      ],
      "stateMutability": "view",
      "type": "function"
    },
    {
      "inputs": [],
      "name": "getAssetCount",
      "outputs": [
        {
          "internalType": "uint256",
          "name": "",
          "type": "uint256"
        }
      ],
      "stateMutability": "view",
      "type": "function"
    },
    {
      "inputs": [],
      "name": "getStrategyCount",
      "outputs": [
        {
          "internalType": "uint256",
          "name": "",
          "type": "uint256"
        }
      ],
      "stateMutability": "view",
      "type": "function"
    },
    {
      "inputs": [],
      "name": "governor",
      "outputs": [
        {
          "internalType": "address",
          "name": "",
          "type": "address"
        }
      ],
      "stateMutability": "view",
      "type": "function"
    },
    {
      "inputs": [],
      "name": "harvesterAddress",
      "outputs": [
        {
          "internalType": "address",
          "name": "",
          "type": "address"
        }
      ],
      "stateMutability": "view",
      "type": "function"
    },
    {
      "inputs": [],
      "name": "isGovernor",
      "outputs": [
        {
          "internalType": "bool",
          "name": "",
          "type": "bool"
        }
      ],
      "stateMutability": "view",
      "type": "function"
    },
    {
      "inputs": [
        {
          "internalType": "address",
          "name": "_asset",
          "type": "address"
        }
      ],
      "name": "isSupportedAsset",
      "outputs": [
        {
          "internalType": "bool",
          "name": "",
          "type": "bool"
        }
      ],
      "stateMutability": "view",
      "type": "function"
    },
    {
      "inputs": [],
      "name": "labsAddress",
      "outputs": [
        {
          "internalType": "address",
          "name": "",
          "type": "address"
        }
      ],
      "stateMutability": "view",
      "type": "function"
    },
    {
      "inputs": [],
      "name": "labsFeeBps",
      "outputs": [
        {
          "internalType": "uint256",
          "name": "",
          "type": "uint256"
        }
      ],
      "stateMutability": "view",
      "type": "function"
    },
    {
      "inputs": [],
      "name": "maxSupplyDiff",
      "outputs": [
        {
          "internalType": "uint256",
          "name": "",
          "type": "uint256"
        }
      ],
      "stateMutability": "view",
      "type": "function"
    },
    {
      "inputs": [
        {
          "internalType": "address",
          "name": "_asset",
          "type": "address"
        },
        {
          "internalType": "uint256",
          "name": "_amount",
          "type": "uint256"
        },
        {
          "internalType": "uint256",
          "name": "_minimumCASHAmount",
          "type": "uint256"
        }
      ],
      "name": "mint",
      "outputs": [],
      "stateMutability": "nonpayable",
      "type": "function"
    },
    {
      "inputs": [],
      "name": "nextPayoutTime",
      "outputs": [
        {
          "internalType": "uint256",
          "name": "",
          "type": "uint256"
        }
      ],
      "stateMutability": "view",
      "type": "function"
    },
    {
      "inputs": [],
      "name": "payoutPeriod",
      "outputs": [
        {
          "internalType": "uint256",
          "name": "",
          "type": "uint256"
        }
      ],
      "stateMutability": "view",
      "type": "function"
    },
    {
      "inputs": [],
      "name": "payoutTimeRange",
      "outputs": [
        {
          "internalType": "uint256",
          "name": "",
          "type": "uint256"
        }
      ],
      "stateMutability": "view",
      "type": "function"
    },
    {
      "inputs": [],
      "name": "priceProvider",
      "outputs": [
        {
          "internalType": "address",
          "name": "",
          "type": "address"
        }
      ],
      "stateMutability": "view",
      "type": "function"
    },
    {
      "inputs": [],
      "name": "primaryStableAddress",
      "outputs": [
        {
          "internalType": "address",
          "name": "",
          "type": "address"
        }
      ],
      "stateMutability": "view",
      "type": "function"
    },
    {
      "inputs": [],
      "name": "quickAllocate",
      "outputs": [],
      "stateMutability": "nonpayable",
      "type": "function"
    },
    {
      "inputs": [
        {
          "internalType": "uint256",
          "name": "",
          "type": "uint256"
        }
      ],
      "name": "quickDepositStrategies",
      "outputs": [
        {
          "internalType": "address",
          "name": "",
          "type": "address"
        }
      ],
      "stateMutability": "view",
      "type": "function"
    },
    {
      "inputs": [],
      "name": "rebase",
      "outputs": [],
      "stateMutability": "nonpayable",
      "type": "function"
    },
    {
      "inputs": [
        {
          "internalType": "address",
          "name": "",
          "type": "address"
        }
      ],
      "name": "rebaseManagers",
      "outputs": [
        {
          "internalType": "bool",
          "name": "",
          "type": "bool"
        }
      ],
      "stateMutability": "view",
      "type": "function"
    },
    {
      "inputs": [],
      "name": "rebasePaused",
      "outputs": [
        {
          "internalType": "bool",
          "name": "",
          "type": "bool"
        }
      ],
      "stateMutability": "view",
      "type": "function"
    },
    {
      "inputs": [],
      "name": "rebaseThreshold",
      "outputs": [
        {
          "internalType": "uint256",
          "name": "",
          "type": "uint256"
        }
      ],
      "stateMutability": "view",
      "type": "function"
    },
    {
      "inputs": [
        {
          "internalType": "uint256",
          "name": "_amount",
          "type": "uint256"
        },
        {
          "internalType": "uint256",
          "name": "_minimumUnitAmount",
          "type": "uint256"
        }
      ],
      "name": "redeem",
      "outputs": [],
      "stateMutability": "nonpayable",
      "type": "function"
    },
    {
      "inputs": [
        {
          "internalType": "uint256",
          "name": "_minimumUnitAmount",
          "type": "uint256"
        }
      ],
      "name": "redeemAll",
      "outputs": [],
      "stateMutability": "nonpayable",
      "type": "function"
    },
    {
      "inputs": [],
      "name": "redeemFeeBps",
      "outputs": [
        {
          "internalType": "uint256",
          "name": "",
          "type": "uint256"
        }
      ],
      "stateMutability": "view",
      "type": "function"
    },
    {
      "inputs": [
        {
          "internalType": "uint256",
          "name": "_amount",
          "type": "uint256"
        }
      ],
      "name": "redeemOutputs",
      "outputs": [
        {
          "internalType": "uint256",
          "name": "",
          "type": "uint256"
        },
        {
          "internalType": "uint256",
          "name": "",
          "type": "uint256"
        },
        {
          "internalType": "uint256",
          "name": "",
          "type": "uint256"
        }
      ],
      "stateMutability": "view",
      "type": "function"
    },
    {
      "inputs": [
        {
          "internalType": "address",
          "name": "newImpl",
          "type": "address"
        }
      ],
      "name": "setAdminImpl",
      "outputs": [],
      "stateMutability": "nonpayable",
      "type": "function"
    },
    {
      "inputs": [],
      "name": "strategistAddr",
      "outputs": [
        {
          "internalType": "address",
          "name": "",
          "type": "address"
        }
      ],
      "stateMutability": "view",
      "type": "function"
    },
    {
      "inputs": [
        {
          "internalType": "address",
          "name": "",
          "type": "address"
        }
      ],
      "name": "strategyWithWeightPositions",
      "outputs": [
        {
          "internalType": "uint256",
          "name": "",
          "type": "uint256"
        }
      ],
      "stateMutability": "view",
      "type": "function"
    },
    {
      "inputs": [
        {
          "internalType": "uint256",
          "name": "",
          "type": "uint256"
        }
      ],
      "name": "strategyWithWeights",
      "outputs": [
        {
          "internalType": "address",
          "name": "strategy",
          "type": "address"
        },
        {
          "internalType": "uint256",
          "name": "minWeight",
          "type": "uint256"
        },
        {
          "internalType": "uint256",
          "name": "targetWeight",
          "type": "uint256"
        },
        {
          "internalType": "uint256",
          "name": "maxWeight",
          "type": "uint256"
        },
        {
          "internalType": "bool",
          "name": "enabled",
          "type": "bool"
        },
        {
          "internalType": "bool",
          "name": "enabledReward",
          "type": "bool"
        }
      ],
      "stateMutability": "view",
      "type": "function"
    },
    {
      "inputs": [],
      "name": "teamAddress",
      "outputs": [
        {
          "internalType": "address",
          "name": "",
          "type": "address"
        }
      ],
      "stateMutability": "view",
      "type": "function"
    },
    {
      "inputs": [],
      "name": "teamFeeBps",
      "outputs": [
        {
          "internalType": "uint256",
          "name": "",
          "type": "uint256"
        }
      ],
      "stateMutability": "view",
      "type": "function"
    },
    {
      "inputs": [],
      "name": "totalValue",
      "outputs": [
        {
          "internalType": "uint256",
          "name": "value",
          "type": "uint256"
        }
      ],
      "stateMutability": "view",
      "type": "function"
    },
    {
      "inputs": [
        {
          "internalType": "address",
          "name": "_newGovernor",
          "type": "address"
        }
      ],
      "name": "transferGovernance",
      "outputs": [],
      "stateMutability": "nonpayable",
      "type": "function"
    },
    {
      "inputs": [],
      "name": "trusteeAddress",
      "outputs": [
        {
          "internalType": "address",
          "name": "",
          "type": "address"
        }
      ],
      "stateMutability": "view",
      "type": "function"
    },
    {
      "inputs": [],
      "name": "trusteeFeeBps",
      "outputs": [
        {
          "internalType": "uint256",
          "name": "",
          "type": "uint256"
        }
      ],
      "stateMutability": "view",
      "type": "function"
    },
    {
      "inputs": [],
      "name": "vaultBuffer",
      "outputs": [
        {
          "internalType": "uint256",
          "name": "",
          "type": "uint256"
        }
      ],
      "stateMutability": "view",
      "type": "function"
    }
  ],
  "transactionHash": "0x4bfe79d680aaebd94ad375cb03aa13c13f1e1b6114d0b9667f649e787324d663",
  "args": [],
  "solcInputHash": "cf369095f46c680a8c76dae612183514",
  "bytecode": "0x60806040526037805461ffff60a01b1916600160a81b179055604180546001600160a01b031990811690915560428054821690556043805490911690553480156200004957600080fd5b5062000062336000805160206200421583398151915255565b60008051602062004215833981519152546040516001600160a01b03909116906000907fc7c0c772add429241571afb3805861fb3cfa2af374534088b76cdb4325a87e9a908290a361415b80620000ba6000396000f3fe6080604052600436106102c95760003560e01c80638401894211610175578063c71daccb116100dc578063d4c3eea011610095578063e6cc54321161006f578063e6cc5432146108cb578063ed2a2f9d146108ec578063f975951814610903578063fc0cfeee1461091e576102c9565b8063d4c3eea014610880578063dbbb64b914610895578063e0de8939146108ab576102c9565b8063c71daccb146107af578063c7af3352146107c4578063cc18f12d146107d9578063ce1aa76b14610834578063cecbbc071461084a578063d38bfff414610860576102c9565b8063a0aead4d1161012e578063a0aead4d146106ed578063a403e4d514610702578063af14052c14610738578063b888879e1461074d578063c3b288641461076d578063c46b3dc414610782576102c9565b806384018942146106475780638e510b521461065d5780638ffa4618146106735780639be918e6146106895780639dc5a414146106c25780639fa1826e146106d7576102c9565b806349c1d54d11610234578063570d8e1d116101ed5780636d8ebaa8116101c75780636d8ebaa8146105b65780636e27730e146105cc5780637136a7a6146106075780637cbc237314610627576102c9565b8063570d8e1d146105615780635d36b1901461058157806367c7066c14610596576102c9565b806349c1d54d146104aa5780634f2d7d6f146104ca57806352d38e5d146104ea57806353ca9f2414610500578063543fe44214610521578063545ad78c14610541576102c9565b80631c75f085116102865780631c75f085146103e75780631edfe3da14610407578063207134b01461041d5780632585cd5c146104335780632acada4d1461047357806331e19cfa14610495576102c9565b8063063bde241461030f57806309f6442c146103425780630bf41361146103585780630c340a2414610390578063156e29f6146103a5578063158274a5146103c7575b7f10e4e34101c81b29558fe5b91534ae1af03c346313e21b0f6446695a8e18e243366000803760008036600084545af43d6000803e80801561030a573d6000f35b3d6000fd5b34801561031b57600080fd5b5061032f6b033b2e3c9fd0803ce800000081565b6040519081526020015b60405180910390f35b34801561034e57600080fd5b5061032f60385481565b34801561036457600080fd5b506103786103733660046139c6565b61093e565b6040516001600160a01b039091168152602001610339565b34801561039c57600080fd5b50610378610968565b3480156103b157600080fd5b506103c56103c036600461389a565b610985565b005b3480156103d357600080fd5b50604b54610378906001600160a01b031681565b3480156103f357600080fd5b50603b54610378906001600160a01b031681565b34801561041357600080fd5b5061032f603d5481565b34801561042957600080fd5b5061032f60475481565b34801561043f57600080fd5b5061046361044e36600461383f565b60546020526000908152604090205460ff1681565b6040519015158152602001610339565b34801561047f57600080fd5b50610488610a22565b6040516103399190613b52565b3480156104a157600080fd5b5060365461032f565b3480156104b657600080fd5b50604654610378906001600160a01b031681565b3480156104d657600080fd5b50604954610378906001600160a01b031681565b3480156104f657600080fd5b5061032f603f5481565b34801561050c57600080fd5b5060375461046390600160a01b900460ff1681565b34801561052d57600080fd5b50603954610378906001600160a01b031681565b34801561054d57600080fd5b50604e54610378906001600160a01b031681565b34801561056d57600080fd5b50604354610378906001600160a01b031681565b34801561058d57600080fd5b506103c5610a84565b3480156105a257600080fd5b50604d54610378906001600160a01b031681565b3480156105c257600080fd5b5061032f60515481565b3480156105d857600080fd5b506105ec6105e73660046139c6565b610b2a565b60408051938452602084019290925290820152606001610339565b34801561061357600080fd5b506103c56106223660046139c6565b610b45565b34801561063357600080fd5b506103c56106423660046139f8565b610c30565b34801561065357600080fd5b5061032f603c5481565b34801561066957600080fd5b5061032f60455481565b34801561067f57600080fd5b5061032f603a5481565b34801561069557600080fd5b506104636106a436600461383f565b6001600160a01b031660009081526033602052604090205460ff1690565b3480156106ce57600080fd5b506103c5610ca3565b3480156106e357600080fd5b5061032f603e5481565b3480156106f957600080fd5b5060345461032f565b34801561070e57600080fd5b5061037861071d36600461383f565b6044602052600090815260409020546001600160a01b031681565b34801561074457600080fd5b506103c5610d12565b34801561075957600080fd5b50603754610378906001600160a01b031681565b34801561077957600080fd5b50610488610df9565b34801561078e57600080fd5b5061032f61079d36600461383f565b604f6020526000908152604090205481565b3480156107bb57600080fd5b5061032f610e59565b3480156107d057600080fd5b50610463610e63565b3480156107e557600080fd5b506107f96107f43660046139c6565b610e94565b604080516001600160a01b039097168752602087019590955293850192909252606084015215156080830152151560a082015260c001610339565b34801561084057600080fd5b5061032f60525481565b34801561085657600080fd5b5061032f60535481565b34801561086c57600080fd5b506103c561087b36600461383f565b610eeb565b34801561088c57600080fd5b5061032f610fbf565b3480156108a157600080fd5b5061032f604c5481565b3480156108b757600080fd5b5061032f6108c63660046139c6565b610fc9565b3480156108d757600080fd5b5060375461046390600160a81b900460ff1681565b3480156108f857600080fd5b5061032f620186a081565b34801561090f57600080fd5b5061032f662386f26fc1000081565b34801561092a57600080fd5b506103c561093936600461383f565b610fdf565b604a818154811061094e57600080fd5b6000918252602090912001546001600160a01b0316905081565b60006109806000805160206140d58339815191525490565b905090565b603754600160a81b900460ff16156109b85760405162461bcd60e51b81526004016109af90613c2c565b60405180910390fd5b6000805160206140b5833981519152805460028114156109ea5760405162461bcd60e51b81526004016109af90613c54565b600282556109f98585856110b1565b604954610a109086906001600160a01b03166113c3565b610a1861154f565b5060019055505050565b60606034805480602002602001604051908101604052809291908181526020018280548015610a7a57602002820191906000526020600020905b81546001600160a01b03168152600190910190602001808311610a5c575b5050505050905090565b7f7eaf9a7750884803435dfabc67aa617a7d8fefb23d8d84b3c9722bd69e48c4bc546001600160a01b0316336001600160a01b031614610b1f5760405162461bcd60e51b815260206004820152603060248201527f4f6e6c79207468652070656e64696e6720476f7665726e6f722063616e20636f60448201526f6d706c6574652074686520636c61696d60801b60648201526084016109af565b610b283361174b565b565b6000806000610b388461180f565b9250925092509193909250565b603754600160a81b900460ff1615610b6f5760405162461bcd60e51b81526004016109af90613c2c565b6000805160206140b583398151915280546002811415610ba15760405162461bcd60e51b81526004016109af90613c54565b600282556040805490516370a0823160e01b8152336004820152610c28916001600160a01b0316906370a082319060240160206040518083038186803b158015610bea57600080fd5b505afa158015610bfe573d6000803e3d6000fd5b505050506040513d601f19601f82011682018060405250810190610c2291906139df565b8461198c565b506001905550565b603754600160a81b900460ff1615610c5a5760405162461bcd60e51b81526004016109af90613c2c565b6000805160206140b583398151915280546002811415610c8c5760405162461bcd60e51b81526004016109af90613c54565b60028255610c9a848461198c565b50600190555050565b603754600160a81b900460ff1615610ccd5760405162461bcd60e51b81526004016109af90613c2c565b6000805160206140b583398151915280546002811415610cff5760405162461bcd60e51b81526004016109af90613c54565b60028255610d0b61154f565b5060019055565b6000805160206140b583398151915280546002811415610d445760405162461bcd60e51b81526004016109af90613c54565b60028255610d50610e63565b80610d6a57503360009081526054602052604090205460ff165b80610d7f5750604e546001600160a01b031633145b610df15760405162461bcd60e51b815260206004820152603760248201527f43616c6c6572206973206e6f742074686520476f7665726e6f72206f7220526560448201527f62617365204d616e61676572206f72204472697070657200000000000000000060648201526084016109af565b610d0b612700565b60606036805480602002602001604051908101604052809291908181526020018280548015610a7a576020028201919060005260206000209081546001600160a01b03168152600190910190602001808311610a5c575050505050905090565b6000610980612954565b6000610e7b6000805160206140d58339815191525490565b6001600160a01b0316336001600160a01b031614905090565b60508181548110610ea457600080fd5b6000918252602090912060059091020180546001820154600283015460038401546004909401546001600160a01b0390931694509092909160ff8082169161010090041686565b610ef3610e63565b610f3f5760405162461bcd60e51b815260206004820152601a60248201527f43616c6c6572206973206e6f742074686520476f7665726e6f7200000000000060448201526064016109af565b610f67817f7eaf9a7750884803435dfabc67aa617a7d8fefb23d8d84b3c9722bd69e48c4bc55565b806001600160a01b0316610f876000805160206140d58339815191525490565b6001600160a01b03167fa39cc5eb22d0f34d8beaefee8a3f17cc229c1a1d1ef87a5ad47313487b1c4f0d60405160405180910390a350565b6000610980610e59565b600080610fd58361180f565b5090949350505050565b610fe7610e63565b6110335760405162461bcd60e51b815260206004820152601a60248201527f43616c6c6572206973206e6f742074686520476f7665726e6f7200000000000060448201526064016109af565b803b61108d5760405162461bcd60e51b8152602060048201526024808201527f6e657720696d706c656d656e746174696f6e206973206e6f74206120636f6e746044820152631c9858dd60e21b60648201526084016109af565b7f10e4e34101c81b29558fe5b91534ae1af03c346313e21b0f6446695a8e18e24355565b6001600160a01b03831660009081526033602052604090205460ff166111125760405162461bcd60e51b8152602060048201526016602482015275105cdcd95d081a5cc81b9bdd081cdd5c1c1bdc9d195960521b60448201526064016109af565b600082116111625760405162461bcd60e51b815260206004820152601d60248201527f416d6f756e74206d7573742062652067726561746572207468616e203000000060448201526064016109af565b6037546040516315d5220f60e31b81526001600160a01b038581166004830152600092169063aea910789060240160206040518083038186803b1580156111a857600080fd5b505afa1580156111bc573d6000803e3d6000fd5b505050506040513d601f19601f820116820180604052508101906111e091906139df565b90506305f5e1008111156111f557506305f5e1005b6305f2d3c08110156112415760405162461bcd60e51b815260206004820152601560248201527441737365742070726963652062656c6f772050656760581b60448201526064016109af565b600061124c85612b09565b9050600061125c85601284612bf8565b905060006112836112708560126008612bf8565b61127b85600a613e81565b889190612c4a565b905084156112db57848110156112db5760405162461bcd60e51b815260206004820152601e60248201527f4d696e7420616d6f756e74206c6f776572207468616e206d696e696d756d000060448201526064016109af565b60408051338152602081018390527f0f6798a560793a54c3bcfe86a93cde1e73087d944c0ea20544137d4121396885910160405180910390a1603f5482101580156113305750603754600160a01b900460ff16155b1561133d5761133d612700565b6040805490516340c10f1960e01b8152336004820152602481018390526001600160a01b03909116906340c10f1990604401600060405180830381600087803b15801561138957600080fd5b505af115801561139d573d6000803e3d6000fd5b508992506113b99150506001600160a01b03821633308a612c6c565b5050505050505050565b604b546001600160a01b03166114135760405162461bcd60e51b8152602060048201526015602482015274456d7074792053776170706572204164647265737360581b60448201526064016109af565b806001600160a01b0316826001600160a01b0316141580156114ac57506040516370a0823160e01b81523060048201526000906001600160a01b038416906370a082319060240160206040518083038186803b15801561147257600080fd5b505afa158015611486573d6000803e3d6000fd5b505050506040513d601f19601f820116820180604052508101906114aa91906139df565b115b1561154b57604b54604c546040516370a0823160e01b81523060048201819052611549936001600160a01b0390811693926000928892889282918516906370a082319060240160206040518083038186803b15801561150a57600080fd5b505afa15801561151e573d6000803e3d6000fd5b505050506040513d601f19601f8201168201806040525081019061154291906139df565b6000612cdd565b505b5050565b604a5461159e5760405162461bcd60e51b815260206004820152601e60248201527f517569636b204465706f736974205374726174656779206e6f7420736574000060448201526064016109af565b604a54600090156115b957604a546115b69043613fc6565b90505b6000604a82815481106115ce576115ce61401c565b60009182526020822001546049546040516370a0823160e01b81523060048201526001600160a01b0392831694509116906370a082319060240160206040518083038186803b15801561162057600080fd5b505afa158015611634573d6000803e3d6000fd5b505050506040513d601f19601f8201168201806040525081019061165891906139df565b90506001600160a01b038216158015906116725750600081115b15611549576049548290611690906001600160a01b03168284612f7f565b6049546040516311f9fbc960e21b81526001600160a01b03918216600482015260248101849052908216906347e7ef2490604401600060405180830381600087803b1580156116de57600080fd5b505af11580156116f2573d6000803e3d6000fd5b5050604954604080516001600160a01b039283168152918716602083015281018590527f41b99659f6ba0803f444aff29e5bf6e26dd86a3219aff92119d69710a956ba8d9250606001905060405180910390a150505050565b6001600160a01b0381166117a15760405162461bcd60e51b815260206004820152601a60248201527f4e657720476f7665726e6f72206973206164647265737328302900000000000060448201526064016109af565b806001600160a01b03166117c16000805160206140d58339815191525490565b6001600160a01b03167fc7c0c772add429241571afb3805861fb3cfa2af374534088b76cdb4325a87e9a60405160405180910390a361180c816000805160206140d583398151915255565b50565b6037546049546040516315d5220f60e31b81526001600160a01b0391821660048201526000928392839291169082906118aa90601290600890859063aea910789060240160206040518083038186803b15801561186b57600080fd5b505afa15801561187f573d6000803e3d6000fd5b505050506040513d601f19601f820116820180604052508101906118a391906139df565b9190612bf8565b905060006118b6612954565b6049549091506000906118d1906001600160a01b0316612b09565b905060006118e183601284612bf8565b9050600080603854111561191f5761191061271061190a6038548d612faf90919063ffffffff16565b90612fbb565b905061191c8a82612fc7565b99505b670de0b6b3a764000085101561193b57670de0b6b3a764000094505b60006119478b87612fd3565b90506119578361190a8784612faf565b83611978611966876012613f48565b61197190600a613e81565b8590612fbb565b995099509950505050505050509193909250565b600082116119dc5760405162461bcd60e51b815260206004820152601d60248201527f416d6f756e74206d7573742062652067726561746572207468616e203000000060448201526064016109af565b6040805490516370a0823160e01b815233600482015283916001600160a01b0316906370a082319060240160206040518083038186803b158015611a1f57600080fd5b505afa158015611a33573d6000803e3d6000fd5b505050506040513d601f19601f82011682018060405250810190611a5791906139df565b1015611a9c5760405162461bcd60e51b8152602060048201526014602482015273496e73756666696369656e7420416d6f756e742160601b60448201526064016109af565b6000806000611aaa8561180f565b6049549295509093509150600090611aca906001600160a01b0316612b09565b90506000604060009054906101000a90046001600160a01b03166001600160a01b03166318160ddd6040518163ffffffff1660e01b815260040160206040518083038186803b158015611b1c57600080fd5b505afa158015611b30573d6000803e3d6000fd5b505050506040513d601f19601f82011682018060405250810190611b5491906139df565b60455490915015611bf8576000611b6b8286612fd3565b9050604554670de0b6b3a76400008211611b9657611b91670de0b6b3a764000083612fc7565b611ba8565b611ba882670de0b6b3a7640000612fc7565b1115611bf65760405162461bcd60e51b815260206004820152601e60248201527f4261636b696e6720737570706c79206c6971756964697479206572726f72000060448201526064016109af565b505b8515611c60576000611c0c86601285612bf8565b905086811015611c5e5760405162461bcd60e51b815260206004820181905260248201527f52656465656d20616d6f756e74206c6f776572207468616e206d696e696d756d60448201526064016109af565b505b60408051338152602081018990527f222838db2794d11532d940e8dec38ae307ed0b63cd97c233322e221f998767a6910160405180910390a160008511611cdd5760405162461bcd60e51b81526020600482015260116024820152704e6f7468696e6720746f2072656465656d60781b60448201526064016109af565b60408051808201909152601281527102a37ba30b6103932b232b2b6b0b136329d160751b6020820152611d1990611d148786613e12565b612ffc565b6049546050546001600160a01b039091169060009067ffffffffffffffff811115611d4657611d46614032565b604051908082528060200260200182016040528015611d6f578160200160208202803683370190505b5060505490915060009067ffffffffffffffff811115611d9157611d91614032565b604051908082528060200260200182016040528015611dba578160200160208202803683370190505b506040516370a0823160e01b81523060048201529091506000906001600160a01b038516906370a082319060240160206040518083038186803b158015611e0057600080fd5b505afa158015611e14573d6000803e3d6000fd5b505050506040513d601f19601f82011682018060405250810190611e3891906139df565b9050611e44878a613e12565b81108015611e525750605054155b15611e975760405162461bcd60e51b815260206004820152601560248201527414dbdd5c98d9481cdd1c985d1cc81b9bdd081cd95d605a1b60448201526064016109af565b6000805b611ea5898c613e12565b83108015611eb7575060505460ff8316105b156121ed57600060508360ff1681548110611ed457611ed461401c565b6000918252602091829020600590910201546040805163c71daccb60e01b815290516001600160a01b039092169263c71daccb92600480840193829003018186803b158015611f2257600080fd5b505afa158015611f36573d6000803e3d6000fd5b505050506040513d601f19601f82011682018060405250810190611f5a91906139df565b9050611fcb6040518060400160405280601981526020017f43757272656e742073747261746567792062616c616e63653a0000000000000081525060508560ff1681548110611fab57611fab61401c565b60009182526020909120600590910201546001600160a01b031683613041565b801561217557611fdb8a8d613e12565b611fe58583613e12565b11156120ce5760508360ff16815481106120015761200161401c565b600091825260209091206005909102015486516001600160a01b0390911690879060ff85169081106120355761203561401c565b6001600160a01b03909216602092830291909101909101526120578a8d613e12565b6120618583613e12565b61206b9190613f48565b6120759082613f48565b858360ff168151811061208a5761208a61401c565b602090810291909101015261209f8a8d613e12565b6120a98583613e12565b6120b39190613f48565b6120bd9082613f48565b6120c79085613e12565b9350612167565b60508360ff16815481106120e4576120e461401c565b600091825260209091206005909102015486516001600160a01b0390911690879060ff85169081106121185761211861401c565b60200260200101906001600160a01b031690816001600160a01b0316815250506000858360ff168151811061214f5761214f61401c565b60209081029190910101526121648185613e12565b93505b8161217181613fa6565b9250505b6121da604051806040016040528060138152602001722a37ba30b61030b6b7bab73a1030b33a32b91d60691b81525060508560ff16815481106121ba576121ba61401c565b60009182526020909120600590910201546001600160a01b031686613041565b826121e481613fa6565b93505050611e9b565b61221c6040518060400160405280600d81526020016c2a37ba30b61030b6b7bab73a1d60991b81525084612ffc565b612226898c613e12565b8310156122815760405162461bcd60e51b8152602060048201526024808201527f4e6f7420656e6f7567682066756e647320616e79776865726520746f2072656460448201526332b2b69760e11b60648201526084016109af565b60005b60505460ff821610156125775760006001600160a01b0316868260ff16815181106122b1576122b161401c565b60200260200101516001600160a01b031614156122cd57612577565b6123766040518060600160405280602a815260200161408b602a9139878360ff16815181106122fe576122fe61401c565b60200260200101516001600160a01b031663c71daccb6040518163ffffffff1660e01b815260040160206040518083038186803b15801561233e57600080fd5b505afa158015612352573d6000803e3d6000fd5b505050506040513d601f19601f82011682018060405250810190611d1491906139df565b6000858260ff168151811061238d5761238d61401c565b602002602001015111156124c4576123f66040518060600160405280602d815260200161405e602d9139878360ff16815181106123cc576123cc61401c565b6020026020010151878460ff16815181106123e9576123e961401c565b6020026020010151613041565b858160ff168151811061240b5761240b61401c565b60200260200101516001600160a01b031663d9caed1230604960009054906101000a90046001600160a01b0316888560ff168151811061244d5761244d61401c565b60209081029190910101516040516001600160e01b031960e086901b1681526001600160a01b0393841660048201529290911660248301526044820152606401600060405180830381600087803b1580156124a757600080fd5b505af11580156124bb573d6000803e3d6000fd5b50505050612565565b6124f56040518060600160405280603181526020016140f560319139878360ff16815181106122fe576122fe61401c565b858160ff168151811061250a5761250a61401c565b60200260200101516001600160a01b031663853828b66040518163ffffffff1660e01b8152600401600060405180830381600087803b15801561254c57600080fd5b505af1158015612560573d6000803e3d6000fd5b505050505b8061256f81613fa6565b915050612284565b50612582898c613e12565b6040516370a0823160e01b81523060048201526001600160a01b038816906370a082319060240160206040518083038186803b1580156125c157600080fd5b505afa1580156125d5573d6000803e3d6000fd5b505050506040513d601f19601f820116820180604052508101906125f991906139df565b10156126515760405162461bcd60e51b815260206004820152602160248201527f4e6f7420656e6f7567682066756e64732061667465722077697468647261776c6044820152601760f91b60648201526084016109af565b6126656001600160a01b038716338d612f7f565b604080549051632770a7eb60e21b8152336004820152602481018f90526001600160a01b0390911690639dc29fac90604401600060405180830381600087803b1580156126b157600080fd5b505af11580156126c5573d6000803e3d6000fd5b50505050603f548d1180156126e45750603754600160a01b900460ff16155b156126f1576126f1612700565b50505050505050505050505050565b603754600160a01b900460ff161561274c5760405162461bcd60e51b815260206004820152600f60248201526e149958985cda5b99c81c185d5cd959608a1b60448201526064016109af565b6000604060009054906101000a90046001600160a01b03166001600160a01b03166318160ddd6040518163ffffffff1660e01b815260040160206040518083038186803b15801561279c57600080fd5b505afa1580156127b0573d6000803e3d6000fd5b505050506040513d601f19601f820116820180604052508101906127d491906139df565b905061280b6040518060400160405280601381526020017202a37ba30b61021a0a9a41029bab838363c9d1606d1b81525082612ffc565b806128135750565b60495460009061282b906001600160a01b0316612b09565b9050600061283d6012836118a3612954565b905061286c6040518060400160405280600b81526020016a03b30bab63a2b30b63ab2960ad1b81525082612ffc565b6040805481516318160ddd60e01b815291516001600160a01b03909116916318160ddd916004808301926020929190829003018186803b1580156128af57600080fd5b505afa1580156128c3573d6000803e3d6000fd5b505050506040513d601f19601f820116820180604052508101906128e791906139df565b925082811115611549576040805490516339a7919f60e01b8152600481018390526001600160a01b03909116906339a7919f90602401600060405180830381600087803b15801561293757600080fd5b505af115801561294b573d6000803e3d6000fd5b50505050505050565b6049546040516370a0823160e01b81523060048201526000916001600160a01b03169081906370a082319060240160206040518083038186803b15801561299a57600080fd5b505afa1580156129ae573d6000803e3d6000fd5b505050506040513d601f19601f820116820180604052508101906129d291906139df565b915060005b603654811015612b04576000603682815481106129f6576129f661401c565b9060005260206000200160009054906101000a90046001600160a01b03169050612a7360405180604001604052806014815260200173021b432b1b5b4b733902130b630b731b29037b3160651b81525060368481548110612a5957612a5961401c565b6000918252602090912001546001600160a01b0316613088565b612aee816001600160a01b031663c71daccb6040518163ffffffff1660e01b815260040160206040518083038186803b158015612aaf57600080fd5b505afa158015612ac3573d6000803e3d6000fd5b505050506040513d601f19601f82011682018060405250810190612ae791906139df565b85906130cd565b9350508080612afc90613f8b565b9150506129d7565b505090565b600080826001600160a01b031663313ce5676040518163ffffffff1660e01b815260040160206040518083038186803b158015612b4557600080fd5b505afa158015612b59573d6000803e3d6000fd5b505050506040513d601f19601f82011682018060405250810190612b7d9190613a1a565b60ff16905060048110158015612b94575060128111155b612bf25760405162461bcd60e51b815260206004820152602960248201527f546f6b656e206d75737420686176652073756666696369656e7420646563696d604482015268616c20706c6163657360b81b60648201526084016109af565b92915050565b600081831115612c2857612c21612c0f8385613f48565b612c1a90600a613e81565b8590612faf565b9350612c40565b81831015612c4057612c3d6119668484613f48565b93505b50825b9392505050565b600080612c578585612faf565b9050612c638184612fbb565b95945050505050565b6040516001600160a01b0380851660248301528316604482015260648101829052612cd79085906323b872dd60e01b906084015b60408051601f198184030181529190526020810180516001600160e01b03166001600160e01b0319909316929092179091526130d9565b50505050565b6040516370a0823160e01b81523060048201526000908a906001600160a01b0389169063095ea7b390839083906370a082319060240160206040518083038186803b158015612d2b57600080fd5b505afa158015612d3f573d6000803e3d6000fd5b505050506040513d601f19601f82011682018060405250810190612d6391906139df565b6040516001600160e01b031960e085901b1681526001600160a01b0390921660048301526024820152604401602060405180830381600087803b158015612da957600080fd5b505af1158015612dbd573d6000803e3d6000fd5b505050506040513d601f19601f82011682018060405250810190612de191906139a4565b5082612e1d57612df58b8b8b8b8b896131ab565b9250612e1a612e13662386f26fc10000670de0b6b3a7640000613f48565b849061368c565b92505b612e696040805160c0810190915260008082526020820190815260200160006001600160a01b0316815260200160006001600160a01b0316815260200160008152602001606081525090565b8a8152602081018a6001811115612e8257612e82614006565b90816001811115612e9557612e95614006565b9052506001600160a01b03898116604083810191909152898216606080850191909152608080850189905282519081018352600060208201819052918101919091528983168152888316918101919091529083166352bbbe29838388612efd42610258613e12565b6040518563ffffffff1660e01b8152600401612f1c9493929190613c7c565b602060405180830381600087803b158015612f3657600080fd5b505af1158015612f4a573d6000803e3d6000fd5b505050506040513d601f19601f82011682018060405250810190612f6e91906139df565b9d9c50505050505050505050505050565b6040516001600160a01b03831660248201526044810182905261154990849063a9059cbb60e01b90606401612ca0565b6000612c438284613f29565b6000612c438284613e2a565b6000612c438284613f48565b600080612fe884670de0b6b3a7640000612faf565b9050612ff48184612fbb565b949350505050565b61154b8282604051602401613012929190613c0a565b60408051601f198184030181529190526020810180516001600160e01b03166309710a9d60e41b1790526136a1565b61154983838360405160240161305993929190613bdc565b60408051601f198184030181529190526020810180516001600160e01b03166307c8121760e01b1790526136a1565b61154b828260405160240161309e929190613bb2565b60408051601f198184030181529190526020810180516001600160e01b031663319af33360e01b1790526136a1565b6000612c438284613e12565b600061312e826040518060400160405280602081526020017f5361666545524332303a206c6f772d6c6576656c2063616c6c206661696c6564815250856001600160a01b03166136c29092919063ffffffff16565b805190915015611549578080602001905181019061314c91906139a4565b6115495760405162461bcd60e51b815260206004820152602a60248201527f5361666545524332303a204552433230206f7065726174696f6e20646964206e6044820152691bdd081cdd58d8d9595960b21b60648201526084016109af565b604080516101208101825260008082526020820181905291810182905260608082018390526080820183905260a0820183905260c0820183905260e0820183905261010082015287908087600181111561320757613207614006565b9081600181111561321a5761321a614006565b9052506001600160a01b0386811660208301528581166040808401919091526060830186905251631f29a8cd60e31b8152600481018a905260009182919085169063f94d46689060240160006040518083038186803b15801561327c57600080fd5b505afa158015613290573d6000803e3d6000fd5b505050506040513d6000823e601f3d908101601f191682016040526132b891908101906138cf565b5091509150600080856001600160a01b031663f6c009278d6040518263ffffffff1660e01b81526004016132ee91815260200190565b604080518083038186803b15801561330557600080fd5b505afa158015613319573d6000803e3d6000fd5b505050506040513d601f19601f8201168201806040525081019061333d919061385c565b9092509050600081600281111561335657613356614006565b141561348f5760008060005b86518160ff1610156133fe578c6001600160a01b0316878260ff168151811061338d5761338d61401c565b60200260200101516001600160a01b031614156133af578060ff1692506133ec565b8b6001600160a01b0316878260ff16815181106133ce576133ce61401c565b60200260200101516001600160a01b031614156133ec578060ff1691505b806133f681613fa6565b915050613362565b5060405162f64aa560e11b81526001600160a01b038516906301ec954a90613430908a90899087908790600401613d37565b60206040518083038186803b15801561344857600080fd5b505afa15801561345c573d6000803e3d6000fd5b505050506040513d601f19601f8201168201806040525081019061348091906139df565b98505050505050505050613682565b60018160028111156134a3576134a3614006565b14156135ae5760008060005b86518160ff16101561357d578c6001600160a01b0316878260ff16815181106134da576134da61401c565b60200260200101516001600160a01b0316141561351557858160ff16815181106135065761350661401c565b6020026020010151925061356b565b8b6001600160a01b0316878260ff16815181106135345761353461401c565b60200260200101516001600160a01b0316141561356b57858160ff16815181106135605761356061401c565b602002602001015191505b8061357581613fa6565b9150506134af565b5060405163274b044360e21b81526001600160a01b03851690639d2c110c90613430908a9086908690600401613d98565b60008060005b86518160ff16101561357d578c6001600160a01b0316878260ff16815181106135df576135df61401c565b60200260200101516001600160a01b0316141561361a57858160ff168151811061360b5761360b61401c565b60200260200101519250613670565b8b6001600160a01b0316878260ff16815181106136395761363961401c565b60200260200101516001600160a01b0316141561367057858160ff16815181106136655761366561401c565b602002602001015191505b8061367a81613fa6565b9150506135b4565b9695505050505050565b6000612c438383670de0b6b3a7640000612c4a565b80516a636f6e736f6c652e6c6f67602083016000808483855afa5050505050565b6060612ff4848460008585843b61371b5760405162461bcd60e51b815260206004820152601d60248201527f416464726573733a2063616c6c20746f206e6f6e2d636f6e747261637400000060448201526064016109af565b600080866001600160a01b031685876040516137379190613b36565b60006040518083038185875af1925050503d8060008114613774576040519150601f19603f3d011682016040523d82523d6000602084013e613779565b606091505b5091509150613789828286613794565b979650505050505050565b606083156137a3575081612c43565b8251156137b35782518084602001fd5b8160405162461bcd60e51b81526004016109af9190613b9f565b600082601f8301126137de57600080fd5b815160206137f36137ee83613dee565b613dbd565b80838252828201915082860187848660051b890101111561381357600080fd5b60005b8581101561383257815184529284019290840190600101613816565b5090979650505050505050565b60006020828403121561385157600080fd5b8135612c4381614048565b6000806040838503121561386f57600080fd5b825161387a81614048565b60208401519092506003811061388f57600080fd5b809150509250929050565b6000806000606084860312156138af57600080fd5b83356138ba81614048565b95602085013595506040909401359392505050565b6000806000606084860312156138e457600080fd5b835167ffffffffffffffff808211156138fc57600080fd5b818601915086601f83011261391057600080fd5b815160206139206137ee83613dee565b8083825282820191508286018b848660051b890101111561394057600080fd5b600096505b8487101561396c57805161395881614048565b835260019690960195918301918301613945565b509189015191975090935050508082111561398657600080fd5b50613993868287016137cd565b925050604084015190509250925092565b6000602082840312156139b657600080fd5b81518015158114612c4357600080fd5b6000602082840312156139d857600080fd5b5035919050565b6000602082840312156139f157600080fd5b5051919050565b60008060408385031215613a0b57600080fd5b50508035926020909101359150565b600060208284031215613a2c57600080fd5b815160ff81168114612c4357600080fd5b60008151808452613a55816020860160208601613f5f565b601f01601f19169290920160200192915050565b60028110613a8757634e487b7160e01b600052602160045260246000fd5b9052565b6000610120613a9b848451613a69565b6020838101516001600160a01b03169085015260408084015190613ac9908601826001600160a01b03169052565b50606083015160608501526080830151608085015260a083015160a085015260c0830151613b0260c08601826001600160a01b03169052565b5060e0830151613b1d60e08601826001600160a01b03169052565b5061010080840151828287015261368283870182613a3d565b60008251613b48818460208701613f5f565b9190910192915050565b6020808252825182820181905260009190848201906040850190845b81811015613b935783516001600160a01b031683529284019291840191600101613b6e565b50909695505050505050565b602081526000612c436020830184613a3d565b604081526000613bc56040830185613a3d565b905060018060a01b03831660208301529392505050565b606081526000613bef6060830186613a3d565b6001600160a01b039490941660208301525060400152919050565b604081526000613c1d6040830185613a3d565b90508260208301529392505050565b6020808252600e908201526d10d85c1a5d185b081c185d5cd95960921b604082015260600190565b6020808252600e908201526d1499595b9d1c985b9d0818d85b1b60921b604082015260600190565b60e08152845160e082015260006020860151613c9c610100840182613a69565b5060408601516001600160a01b03908116610120840152606087015116610140830152608086015161016083015260a086015160c0610180840152613ce56101a0840182613a3d565b915050613d25602083018680516001600160a01b039081168352602080830151151590840152604080830151909116908301526060908101511515910152565b60a082019390935260c0015292915050565b608081526000613d4a6080830187613a8b565b82810360208481019190915286518083528782019282019060005b81811015613d8157845183529383019391830191600101613d65565b505060408501969096525050506060015292915050565b606081526000613dab6060830186613a8b565b60208301949094525060400152919050565b604051601f8201601f1916810167ffffffffffffffff81118282101715613de657613de6614032565b604052919050565b600067ffffffffffffffff821115613e0857613e08614032565b5060051b60200190565b60008219821115613e2557613e25613fda565b500190565b600082613e3957613e39613ff0565b500490565b600181815b80851115613e79578160001904821115613e5f57613e5f613fda565b80851615613e6c57918102915b93841c9390800290613e43565b509250929050565b6000612c438383600082613e9757506001612bf2565b81613ea457506000612bf2565b8160018114613eba5760028114613ec457613ee0565b6001915050612bf2565b60ff841115613ed557613ed5613fda565b50506001821b612bf2565b5060208310610133831016604e8410600b8410161715613f03575081810a612bf2565b613f0d8383613e3e565b8060001904821115613f2157613f21613fda565b029392505050565b6000816000190483118215151615613f4357613f43613fda565b500290565b600082821015613f5a57613f5a613fda565b500390565b60005b83811015613f7a578181015183820152602001613f62565b83811115612cd75750506000910152565b6000600019821415613f9f57613f9f613fda565b5060010190565b600060ff821660ff811415613fbd57613fbd613fda565b60010192915050565b600082613fd557613fd5613ff0565b500690565b634e487b7160e01b600052601160045260246000fd5b634e487b7160e01b600052601260045260246000fd5b634e487b7160e01b600052602160045260246000fd5b634e487b7160e01b600052603260045260246000fd5b634e487b7160e01b600052604160045260246000fd5b6001600160a01b038116811461180c57600080fdfe5661756c74436f7265202d2052656465656d202d2057697468647261772066726f6d2073747261746567793a205661756c74436f7265202d2052656465656d202d2042616c616e636520696e2073747261746567793a2048a06827bfe8bfc0a59fe65d0fa78f553938265ed1f971326fc09947d19a593c83f34c88ec39d54d1e423bd8a181ebc59ede5dcc9996c2df334668b4f89fdd735661756c74436f7265202d2052656465656d202d20576974686472617720616c6c2066726f6d2073747261746567793a20a2646970667358221220a68af0076c7f07650074f0dccd258cf421627e04d1df98f6ebb762b0c174328a64736f6c6343000806003383f34c88ec39d54d1e423bd8a181ebc59ede5dcc9996c2df334668b4f89fdd73",
  "devdoc": {
    "kind": "dev",
    "methods": {
      "checkBalance()": {
        "returns": {
          "_0": "uint256 Balance of asset in decimals of asset"
        }
      },
      "claimGovernance()": {
        "details": "Claim Governance of the contract to a new account (`newGovernor`). Can only be called by the new Governor."
      },
      "getAllAssets()": {
        "details": "Return all asset addresses in order"
      },
      "getAllStrategies()": {
        "details": "Return the array of all strategies"
      },
      "getAssetCount()": {
        "details": "Return the number of assets supported by the Vault."
      },
      "getStrategyCount()": {
        "details": "Return the number of strategies active on the Vault."
      },
      "governor()": {
        "details": "Returns the address of the current Governor."
      },
      "isGovernor()": {
        "details": "Returns true if the caller is the current Governor."
      },
      "mint(address,uint256,uint256)": {
        "details": "Deposit a supported asset to the Vault and mint CASH. Asset will be swapped to  the PS and allocated to Quick Deposit Strategies",
        "params": {
          "_amount": "Amount of the asset being deposited (decimals based on _asset)",
          "_asset": "Address of the asset being deposited",
          "_minimumCASHAmount": "Minimum CASH to mint (1e18)"
        }
      },
      "quickAllocate()": {
        "details": "Allocate unallocated PS in the Vault to quick deposit strategies.*"
      },
      "rebase()": {
        "details": "Calculate the total value of assets held by the Vault and all      strategies and update the supply of CASH."
      },
      "redeem(uint256,uint256)": {
        "details": "Withdraw a supported asset and burn CASH.",
        "params": {
          "_amount": "Amount of CASH to burn",
          "_minimumUnitAmount": "Minimum stablecoin units to receive in return"
        }
      },
      "redeemAll(uint256)": {
        "params": {
          "_minimumUnitAmount": "Minimum stablecoin units to receive in return"
        }
      },
      "setAdminImpl(address)": {
        "details": "set the implementation for the admin, this needs to be in a base class else we cannot set it",
        "params": {
          "newImpl": "address of the implementation"
        }
      },
      "totalValue()": {
        "details": "Determine the total value of assets held by the vault and its         strategies.",
        "returns": {
          "value": "Total value in USDC (1e6)"
        }
      },
      "transferGovernance(address)": {
        "details": "Transfers Governance of the contract to a new account (`newGovernor`). Can only be called by the current Governor. Must be claimed for this to complete",
        "params": {
          "_newGovernor": "Address of the new Governor"
        }
      }
    },
    "version": 1
  },
  "userdoc": {
    "kind": "user",
    "methods": {
      "calculateRedeemOutput(uint256)": {
        "notice": "Calculate the output for a redeem function"
      },
      "checkBalance()": {
        "notice": "Get the balance of an asset held in Vault and all strategies."
      },
      "redeemAll(uint256)": {
        "notice": "Withdraw PS against all the sender's CASH."
      },
      "redeemOutputs(uint256)": {
        "notice": "Calculate the output for a redeem function"
      }
    },
    "version": 1
  },
  "storageLayout": {
    "storage": [
      {
        "astId": 30652,
        "contract": "contracts/vault/VaultCore.sol:VaultCore",
        "label": "initialized",
        "offset": 0,
        "slot": "0",
        "type": "t_bool"
      },
      {
        "astId": 30655,
        "contract": "contracts/vault/VaultCore.sol:VaultCore",
        "label": "initializing",
        "offset": 1,
        "slot": "0",
        "type": "t_bool"
      },
      {
        "astId": 30695,
        "contract": "contracts/vault/VaultCore.sol:VaultCore",
        "label": "______gap",
        "offset": 0,
        "slot": "1",
        "type": "t_array(t_uint256)50_storage"
      },
      {
        "astId": 36297,
        "contract": "contracts/vault/VaultCore.sol:VaultCore",
        "label": "assets",
        "offset": 0,
        "slot": "51",
        "type": "t_mapping(t_address,t_struct(Asset)36292_storage)"
      },
      {
        "astId": 36300,
        "contract": "contracts/vault/VaultCore.sol:VaultCore",
        "label": "allAssets",
        "offset": 0,
        "slot": "52",
        "type": "t_array(t_address)dyn_storage"
      },
      {
        "astId": 36310,
        "contract": "contracts/vault/VaultCore.sol:VaultCore",
        "label": "strategies",
        "offset": 0,
        "slot": "53",
        "type": "t_mapping(t_address,t_struct(Strategy)36305_storage)"
      },
      {
        "astId": 36313,
        "contract": "contracts/vault/VaultCore.sol:VaultCore",
        "label": "allStrategies",
        "offset": 0,
        "slot": "54",
        "type": "t_array(t_address)dyn_storage"
      },
      {
        "astId": 36315,
        "contract": "contracts/vault/VaultCore.sol:VaultCore",
        "label": "priceProvider",
        "offset": 0,
        "slot": "55",
        "type": "t_address"
      },
      {
        "astId": 36318,
        "contract": "contracts/vault/VaultCore.sol:VaultCore",
        "label": "rebasePaused",
        "offset": 20,
        "slot": "55",
        "type": "t_bool"
      },
      {
        "astId": 36321,
        "contract": "contracts/vault/VaultCore.sol:VaultCore",
        "label": "capitalPaused",
        "offset": 21,
        "slot": "55",
        "type": "t_bool"
      },
      {
        "astId": 36323,
        "contract": "contracts/vault/VaultCore.sol:VaultCore",
        "label": "redeemFeeBps",
        "offset": 0,
        "slot": "56",
        "type": "t_uint256"
      },
      {
        "astId": 36325,
        "contract": "contracts/vault/VaultCore.sol:VaultCore",
        "label": "labsAddress",
        "offset": 0,
        "slot": "57",
        "type": "t_address"
      },
      {
        "astId": 36327,
        "contract": "contracts/vault/VaultCore.sol:VaultCore",
        "label": "labsFeeBps",
        "offset": 0,
        "slot": "58",
        "type": "t_uint256"
      },
      {
        "astId": 36329,
        "contract": "contracts/vault/VaultCore.sol:VaultCore",
        "label": "teamAddress",
        "offset": 0,
        "slot": "59",
        "type": "t_address"
      },
      {
        "astId": 36331,
        "contract": "contracts/vault/VaultCore.sol:VaultCore",
        "label": "teamFeeBps",
        "offset": 0,
        "slot": "60",
        "type": "t_uint256"
      },
      {
        "astId": 36333,
        "contract": "contracts/vault/VaultCore.sol:VaultCore",
        "label": "vaultBuffer",
        "offset": 0,
        "slot": "61",
        "type": "t_uint256"
      },
      {
        "astId": 36335,
        "contract": "contracts/vault/VaultCore.sol:VaultCore",
        "label": "autoAllocateThreshold",
        "offset": 0,
        "slot": "62",
        "type": "t_uint256"
      },
      {
        "astId": 36337,
        "contract": "contracts/vault/VaultCore.sol:VaultCore",
        "label": "rebaseThreshold",
        "offset": 0,
        "slot": "63",
        "type": "t_uint256"
      },
      {
        "astId": 36340,
        "contract": "contracts/vault/VaultCore.sol:VaultCore",
        "label": "cash",
        "offset": 0,
        "slot": "64",
        "type": "t_contract(CASH)29941"
      },
      {
        "astId": 36349,
        "contract": "contracts/vault/VaultCore.sol:VaultCore",
        "label": "_deprecated_rebaseHooksAddr",
        "offset": 0,
        "slot": "65",
        "type": "t_address"
      },
      {
        "astId": 36355,
        "contract": "contracts/vault/VaultCore.sol:VaultCore",
        "label": "_deprecated_uniswapAddr",
        "offset": 0,
        "slot": "66",
        "type": "t_address"
      },
      {
        "astId": 36361,
        "contract": "contracts/vault/VaultCore.sol:VaultCore",
        "label": "strategistAddr",
        "offset": 0,
        "slot": "67",
        "type": "t_address"
      },
      {
        "astId": 36365,
        "contract": "contracts/vault/VaultCore.sol:VaultCore",
        "label": "assetDefaultStrategies",
        "offset": 0,
        "slot": "68",
        "type": "t_mapping(t_address,t_address)"
      },
      {
        "astId": 36367,
        "contract": "contracts/vault/VaultCore.sol:VaultCore",
        "label": "maxSupplyDiff",
        "offset": 0,
        "slot": "69",
        "type": "t_uint256"
      },
      {
        "astId": 36369,
        "contract": "contracts/vault/VaultCore.sol:VaultCore",
        "label": "trusteeAddress",
        "offset": 0,
        "slot": "70",
        "type": "t_address"
      },
      {
        "astId": 36371,
        "contract": "contracts/vault/VaultCore.sol:VaultCore",
        "label": "trusteeFeeBps",
        "offset": 0,
        "slot": "71",
        "type": "t_uint256"
      },
      {
        "astId": 36374,
        "contract": "contracts/vault/VaultCore.sol:VaultCore",
        "label": "_deprecated_swapTokens",
        "offset": 0,
        "slot": "72",
        "type": "t_array(t_address)dyn_storage"
      },
      {
        "astId": 36379,
        "contract": "contracts/vault/VaultCore.sol:VaultCore",
        "label": "primaryStableAddress",
        "offset": 0,
        "slot": "73",
        "type": "t_address"
      },
      {
        "astId": 36382,
        "contract": "contracts/vault/VaultCore.sol:VaultCore",
        "label": "quickDepositStrategies",
        "offset": 0,
        "slot": "74",
        "type": "t_array(t_address)dyn_storage"
      },
      {
        "astId": 36384,
        "contract": "contracts/vault/VaultCore.sol:VaultCore",
        "label": "balancerVault",
        "offset": 0,
        "slot": "75",
        "type": "t_address"
      },
      {
        "astId": 36386,
        "contract": "contracts/vault/VaultCore.sol:VaultCore",
        "label": "balancerPoolId",
        "offset": 0,
        "slot": "76",
        "type": "t_bytes32"
      },
      {
        "astId": 36388,
        "contract": "contracts/vault/VaultCore.sol:VaultCore",
        "label": "harvesterAddress",
        "offset": 0,
        "slot": "77",
        "type": "t_address"
      },
      {
        "astId": 36390,
        "contract": "contracts/vault/VaultCore.sol:VaultCore",
        "label": "dripperAddress",
        "offset": 0,
        "slot": "78",
        "type": "t_address"
      },
      {
        "astId": 36407,
        "contract": "contracts/vault/VaultCore.sol:VaultCore",
        "label": "strategyWithWeightPositions",
        "offset": 0,
        "slot": "79",
        "type": "t_mapping(t_address,t_uint256)"
      },
      {
        "astId": 36411,
        "contract": "contracts/vault/VaultCore.sol:VaultCore",
        "label": "strategyWithWeights",
        "offset": 0,
        "slot": "80",
        "type": "t_array(t_struct(StrategyWithWeight)36403_storage)dyn_storage"
      },
      {
        "astId": 36416,
        "contract": "contracts/vault/VaultCore.sol:VaultCore",
        "label": "nextPayoutTime",
        "offset": 0,
        "slot": "81",
        "type": "t_uint256"
      },
      {
        "astId": 36418,
        "contract": "contracts/vault/VaultCore.sol:VaultCore",
        "label": "payoutPeriod",
        "offset": 0,
        "slot": "82",
        "type": "t_uint256"
      },
      {
        "astId": 36420,
        "contract": "contracts/vault/VaultCore.sol:VaultCore",
        "label": "payoutTimeRange",
        "offset": 0,
        "slot": "83",
        "type": "t_uint256"
      },
      {
        "astId": 36424,
        "contract": "contracts/vault/VaultCore.sol:VaultCore",
        "label": "rebaseManagers",
        "offset": 0,
        "slot": "84",
        "type": "t_mapping(t_address,t_bool)"
      }
    ],
    "types": {
      "t_address": {
        "encoding": "inplace",
        "label": "address",
        "numberOfBytes": "20"
      },
      "t_array(t_address)dyn_storage": {
        "base": "t_address",
        "encoding": "dynamic_array",
        "label": "address[]",
        "numberOfBytes": "32"
      },
      "t_array(t_struct(StrategyWithWeight)36403_storage)dyn_storage": {
        "base": "t_struct(StrategyWithWeight)36403_storage",
        "encoding": "dynamic_array",
        "label": "struct VaultStorage.StrategyWithWeight[]",
        "numberOfBytes": "32"
      },
      "t_array(t_uint256)50_storage": {
        "base": "t_uint256",
        "encoding": "inplace",
        "label": "uint256[50]",
        "numberOfBytes": "1600"
      },
      "t_bool": {
        "encoding": "inplace",
        "label": "bool",
        "numberOfBytes": "1"
      },
      "t_bytes32": {
        "encoding": "inplace",
        "label": "bytes32",
        "numberOfBytes": "32"
      },
      "t_contract(CASH)29941": {
        "encoding": "inplace",
        "label": "contract CASH",
        "numberOfBytes": "20"
      },
      "t_mapping(t_address,t_address)": {
        "encoding": "mapping",
        "key": "t_address",
        "label": "mapping(address => address)",
        "numberOfBytes": "32",
        "value": "t_address"
      },
      "t_mapping(t_address,t_bool)": {
        "encoding": "mapping",
        "key": "t_address",
        "label": "mapping(address => bool)",
        "numberOfBytes": "32",
        "value": "t_bool"
      },
      "t_mapping(t_address,t_struct(Asset)36292_storage)": {
        "encoding": "mapping",
        "key": "t_address",
        "label": "mapping(address => struct VaultStorage.Asset)",
        "numberOfBytes": "32",
        "value": "t_struct(Asset)36292_storage"
      },
      "t_mapping(t_address,t_struct(Strategy)36305_storage)": {
        "encoding": "mapping",
        "key": "t_address",
        "label": "mapping(address => struct VaultStorage.Strategy)",
        "numberOfBytes": "32",
        "value": "t_struct(Strategy)36305_storage"
      },
      "t_mapping(t_address,t_uint256)": {
        "encoding": "mapping",
        "key": "t_address",
        "label": "mapping(address => uint256)",
        "numberOfBytes": "32",
        "value": "t_uint256"
      },
      "t_struct(Asset)36292_storage": {
        "encoding": "inplace",
        "label": "struct VaultStorage.Asset",
        "members": [
          {
            "astId": 36291,
            "contract": "contracts/vault/VaultCore.sol:VaultCore",
            "label": "isSupported",
            "offset": 0,
            "slot": "0",
            "type": "t_bool"
          }
        ],
        "numberOfBytes": "32"
      },
      "t_struct(Strategy)36305_storage": {
        "encoding": "inplace",
        "label": "struct VaultStorage.Strategy",
        "members": [
          {
            "astId": 36302,
            "contract": "contracts/vault/VaultCore.sol:VaultCore",
            "label": "isSupported",
            "offset": 0,
            "slot": "0",
            "type": "t_bool"
          },
          {
            "astId": 36304,
            "contract": "contracts/vault/VaultCore.sol:VaultCore",
            "label": "_deprecated",
            "offset": 0,
            "slot": "1",
            "type": "t_uint256"
          }
        ],
        "numberOfBytes": "64"
      },
      "t_struct(StrategyWithWeight)36403_storage": {
        "encoding": "inplace",
        "label": "struct VaultStorage.StrategyWithWeight",
        "members": [
          {
            "astId": 36392,
            "contract": "contracts/vault/VaultCore.sol:VaultCore",
            "label": "strategy",
            "offset": 0,
            "slot": "0",
            "type": "t_address"
          },
          {
            "astId": 36394,
            "contract": "contracts/vault/VaultCore.sol:VaultCore",
            "label": "minWeight",
            "offset": 0,
            "slot": "1",
            "type": "t_uint256"
          },
          {
            "astId": 36396,
            "contract": "contracts/vault/VaultCore.sol:VaultCore",
            "label": "targetWeight",
            "offset": 0,
            "slot": "2",
            "type": "t_uint256"
          },
          {
            "astId": 36398,
            "contract": "contracts/vault/VaultCore.sol:VaultCore",
            "label": "maxWeight",
            "offset": 0,
            "slot": "3",
            "type": "t_uint256"
          },
          {
            "astId": 36400,
            "contract": "contracts/vault/VaultCore.sol:VaultCore",
            "label": "enabled",
            "offset": 0,
            "slot": "4",
            "type": "t_bool"
          },
          {
            "astId": 36402,
            "contract": "contracts/vault/VaultCore.sol:VaultCore",
            "label": "enabledReward",
            "offset": 1,
            "slot": "4",
            "type": "t_bool"
          }
        ],
        "numberOfBytes": "160"
      },
      "t_uint256": {
        "encoding": "inplace",
        "label": "uint256",
        "numberOfBytes": "32"
      }
    }
  }
}