{
  "address": "0x009043dBd1b638a9Ff5E04089Df742F24DAdEa59",
  "abi": [
    {
      "anonymous": false,
      "inputs": [
        {
          "indexed": true,
          "internalType": "address",
          "name": "_asset",
          "type": "address"
        },
        {
          "indexed": false,
          "internalType": "address",
          "name": "_pToken",
          "type": "address"
        },
        {
          "indexed": false,
          "internalType": "uint256",
          "name": "_amount",
          "type": "uint256"
        }
      ],
      "name": "Deposit",
      "type": "event"
    },
    {
      "anonymous": false,
      "inputs": [
        {
          "indexed": true,
          "internalType": "address",
          "name": "previousGovernor",
          "type": "address"
        },
        {
          "indexed": true,
          "internalType": "address",
          "name": "newGovernor",
          "type": "address"
        }
      ],
      "name": "GovernorshipTransferred",
      "type": "event"
    },
    {
      "anonymous": false,
      "inputs": [
        {
          "indexed": false,
          "internalType": "address",
          "name": "_oldHarvesterAddress",
          "type": "address"
        },
        {
          "indexed": false,
          "internalType": "address",
          "name": "_newHarvesterAddress",
          "type": "address"
        }
      ],
      "name": "HarvesterAddressesUpdated",
      "type": "event"
    },
    {
      "anonymous": false,
      "inputs": [
        {
          "indexed": true,
          "internalType": "address",
          "name": "_asset",
          "type": "address"
        },
        {
          "indexed": false,
          "internalType": "address",
          "name": "_pToken",
          "type": "address"
        }
      ],
      "name": "PTokenAdded",
      "type": "event"
    },
    {
      "anonymous": false,
      "inputs": [
        {
          "indexed": true,
          "internalType": "address",
          "name": "_asset",
          "type": "address"
        },
        {
          "indexed": false,
          "internalType": "address",
          "name": "_pToken",
          "type": "address"
        }
      ],
      "name": "PTokenRemoved",
      "type": "event"
    },
    {
      "anonymous": false,
      "inputs": [
        {
          "indexed": true,
          "internalType": "address",
          "name": "previousGovernor",
          "type": "address"
        },
        {
          "indexed": true,
          "internalType": "address",
          "name": "newGovernor",
          "type": "address"
        }
      ],
      "name": "PendingGovernorshipTransfer",
      "type": "event"
    },
    {
      "anonymous": false,
      "inputs": [
        {
          "indexed": false,
          "internalType": "address[]",
          "name": "_oldAddresses",
          "type": "address[]"
        },
        {
          "indexed": false,
          "internalType": "address[]",
          "name": "_newAddresses",
          "type": "address[]"
        }
      ],
      "name": "RewardTokenAddressesUpdated",
      "type": "event"
    },
    {
      "anonymous": false,
      "inputs": [
        {
          "indexed": false,
          "internalType": "address",
          "name": "recipient",
          "type": "address"
        },
        {
          "indexed": false,
          "internalType": "address",
          "name": "rewardToken",
          "type": "address"
        },
        {
          "indexed": false,
          "internalType": "uint256",
          "name": "amount",
          "type": "uint256"
        }
      ],
      "name": "RewardTokenCollected",
      "type": "event"
    },
    {
      "anonymous": false,
      "inputs": [
        {
          "indexed": false,
          "internalType": "string",
          "name": "_message",
          "type": "string"
        },
        {
          "indexed": false,
          "internalType": "address",
          "name": "_asset",
          "type": "address"
        },
        {
          "indexed": false,
          "internalType": "uint256",
          "name": "_number",
          "type": "uint256"
        }
      ],
      "name": "TransferLog",
      "type": "event"
    },
    {
      "anonymous": false,
      "inputs": [
        {
          "indexed": true,
          "internalType": "address",
          "name": "_asset",
          "type": "address"
        },
        {
          "indexed": false,
          "internalType": "address",
          "name": "_pToken",
          "type": "address"
        },
        {
          "indexed": false,
          "internalType": "uint256",
          "name": "_amount",
          "type": "uint256"
        }
      ],
      "name": "Withdrawal",
      "type": "event"
    },
    {
      "inputs": [],
      "name": "MAX_VALUE",
      "outputs": [
        {
          "internalType": "int256",
          "name": "",
          "type": "int256"
        }
      ],
      "stateMutability": "view",
      "type": "function"
    },
    {
      "inputs": [],
      "name": "_deprecated_rewardLiquidationThreshold",
      "outputs": [
        {
          "internalType": "uint256",
          "name": "",
          "type": "uint256"
        }
      ],
      "stateMutability": "view",
      "type": "function"
    },
    {
      "inputs": [],
      "name": "_deprecated_rewardTokenAddress",
      "outputs": [
        {
          "internalType": "address",
          "name": "",
          "type": "address"
        }
      ],
      "stateMutability": "view",
      "type": "function"
    },
    {
      "inputs": [
        {
          "internalType": "address",
          "name": "",
          "type": "address"
        }
      ],
      "name": "assetToPToken",
      "outputs": [
        {
          "internalType": "address",
          "name": "",
          "type": "address"
        }
      ],
      "stateMutability": "view",
      "type": "function"
    },
    {
      "inputs": [],
      "name": "balancerPoolIdUsdcTusdDaiUsdt",
      "outputs": [
        {
          "internalType": "bytes32",
          "name": "",
          "type": "bytes32"
        }
      ],
      "stateMutability": "view",
      "type": "function"
    },
    {
      "inputs": [],
      "name": "balancerPoolIdWmaticUsdcWethBal",
      "outputs": [
        {
          "internalType": "bytes32",
          "name": "",
          "type": "bytes32"
        }
      ],
      "stateMutability": "view",
      "type": "function"
    },
    {
      "inputs": [],
      "name": "checkBalance",
      "outputs": [
        {
          "internalType": "uint256",
          "name": "balance",
          "type": "uint256"
        }
      ],
      "stateMutability": "view",
      "type": "function"
    },
    {
      "inputs": [],
      "name": "claimGovernance",
      "outputs": [],
      "stateMutability": "nonpayable",
      "type": "function"
    },
    {
      "inputs": [],
      "name": "collectRewardTokens",
      "outputs": [],
      "stateMutability": "nonpayable",
      "type": "function"
    },
    {
      "inputs": [
        {
          "internalType": "address",
          "name": "_asset",
          "type": "address"
        },
        {
          "internalType": "uint256",
          "name": "_amount",
          "type": "uint256"
        }
      ],
      "name": "deposit",
      "outputs": [],
      "stateMutability": "nonpayable",
      "type": "function"
    },
    {
      "inputs": [],
      "name": "depositAll",
      "outputs": [],
      "stateMutability": "nonpayable",
      "type": "function"
    },
    {
      "inputs": [],
      "name": "dodoMine",
      "outputs": [
        {
          "internalType": "contract IDODOMine",
          "name": "",
          "type": "address"
        }
      ],
      "stateMutability": "view",
      "type": "function"
    },
    {
      "inputs": [],
      "name": "dodoToken",
      "outputs": [
        {
          "internalType": "contract IERC20",
          "name": "",
          "type": "address"
        }
      ],
      "stateMutability": "view",
      "type": "function"
    },
    {
      "inputs": [],
      "name": "dodoV1UsdcUsdtPool",
      "outputs": [
        {
          "internalType": "contract IDODOV1",
          "name": "",
          "type": "address"
        }
      ],
      "stateMutability": "view",
      "type": "function"
    },
    {
      "inputs": [],
      "name": "dodoV2DodoUsdtPool",
      "outputs": [
        {
          "internalType": "contract IDODOV2",
          "name": "",
          "type": "address"
        }
      ],
      "stateMutability": "view",
      "type": "function"
    },
    {
      "inputs": [],
      "name": "getRewardTokenAddresses",
      "outputs": [
        {
          "internalType": "address[]",
          "name": "",
          "type": "address[]"
        }
      ],
      "stateMutability": "view",
      "type": "function"
    },
    {
      "inputs": [],
      "name": "governor",
      "outputs": [
        {
          "internalType": "address",
          "name": "",
          "type": "address"
        }
      ],
      "stateMutability": "view",
      "type": "function"
    },
    {
      "inputs": [],
      "name": "harvesterAddress",
      "outputs": [
        {
          "internalType": "address",
          "name": "",
          "type": "address"
        }
      ],
      "stateMutability": "view",
      "type": "function"
    },
    {
      "inputs": [
        {
          "internalType": "address",
          "name": "_platformAddress",
          "type": "address"
        },
        {
          "internalType": "address",
          "name": "_vaultAddress",
          "type": "address"
        },
        {
          "internalType": "address[]",
          "name": "_rewardTokenAddresses",
          "type": "address[]"
        },
        {
          "internalType": "address[]",
          "name": "_assets",
          "type": "address[]"
        },
        {
          "internalType": "address[]",
          "name": "_pTokens",
          "type": "address[]"
        }
      ],
      "name": "initialize",
      "outputs": [],
      "stateMutability": "nonpayable",
      "type": "function"
    },
    {
      "inputs": [
        {
          "internalType": "address",
          "name": "_platformAddress",
          "type": "address"
        },
        {
          "internalType": "address",
          "name": "_vaultAddress",
          "type": "address"
        },
        {
          "internalType": "address[]",
          "name": "_rewardTokenAddresses",
          "type": "address[]"
        },
        {
          "internalType": "address[]",
          "name": "_assets",
          "type": "address[]"
        },
        {
          "internalType": "address[]",
          "name": "_pTokens",
          "type": "address[]"
        },
        {
          "internalType": "address",
          "name": "_usdtToken",
          "type": "address"
        },
        {
          "internalType": "address",
          "name": "_wMaticToken",
          "type": "address"
        },
        {
          "internalType": "address[]",
          "name": "dodoAddresses",
          "type": "address[]"
        }
      ],
      "name": "initialize",
      "outputs": [],
      "stateMutability": "nonpayable",
      "type": "function"
    },
    {
      "inputs": [],
      "name": "isGovernor",
      "outputs": [
        {
          "internalType": "bool",
          "name": "",
          "type": "bool"
        }
      ],
      "stateMutability": "view",
      "type": "function"
    },
    {
      "inputs": [],
      "name": "platformAddress",
      "outputs": [
        {
          "internalType": "address",
          "name": "",
          "type": "address"
        }
      ],
      "stateMutability": "view",
      "type": "function"
    },
    {
      "inputs": [],
      "name": "primaryStable",
      "outputs": [
        {
          "internalType": "contract IERC20",
          "name": "",
          "type": "address"
        }
      ],
      "stateMutability": "view",
      "type": "function"
    },
    {
      "inputs": [
        {
          "internalType": "uint256",
          "name": "_assetIndex",
          "type": "uint256"
        }
      ],
      "name": "removePToken",
      "outputs": [],
      "stateMutability": "nonpayable",
      "type": "function"
    },
    {
      "inputs": [
        {
          "internalType": "uint256",
          "name": "",
          "type": "uint256"
        }
      ],
      "name": "rewardTokenAddresses",
      "outputs": [
        {
          "internalType": "address",
          "name": "",
          "type": "address"
        }
      ],
      "stateMutability": "view",
      "type": "function"
    },
    {
      "inputs": [],
      "name": "safeApproveAllTokens",
      "outputs": [],
      "stateMutability": "nonpayable",
      "type": "function"
    },
    {
      "inputs": [
        {
          "internalType": "address",
          "name": "_primaryStable",
          "type": "address"
        },
        {
          "internalType": "address",
          "name": "_balancerVault",
          "type": "address"
        },
        {
          "internalType": "bytes32",
          "name": "_balancerPoolIdUsdcTusdDaiUsdt",
          "type": "bytes32"
        },
        {
          "internalType": "bytes32",
          "name": "_balancerPoolIdWmaticUsdcWethBal",
          "type": "bytes32"
        }
      ],
      "name": "setBalancerAndPrimaryStable",
      "outputs": [],
      "stateMutability": "nonpayable",
      "type": "function"
    },
    {
      "inputs": [
        {
          "internalType": "address",
          "name": "_harvesterAddress",
          "type": "address"
        }
      ],
      "name": "setHarvesterAddress",
      "outputs": [],
      "stateMutability": "nonpayable",
      "type": "function"
    },
    {
      "inputs": [
        {
          "internalType": "address",
          "name": "_asset",
          "type": "address"
        },
        {
          "internalType": "address",
          "name": "_pToken",
          "type": "address"
        }
      ],
      "name": "setPTokenAddress",
      "outputs": [],
      "stateMutability": "nonpayable",
      "type": "function"
    },
    {
      "inputs": [
        {
          "internalType": "address[]",
          "name": "_rewardTokenAddresses",
          "type": "address[]"
        }
      ],
      "name": "setRewardTokenAddresses",
      "outputs": [],
      "stateMutability": "nonpayable",
      "type": "function"
    },
    {
      "inputs": [
        {
          "internalType": "address",
          "name": "_asset",
          "type": "address"
        }
      ],
      "name": "supportsAsset",
      "outputs": [
        {
          "internalType": "bool",
          "name": "",
          "type": "bool"
        }
      ],
      "stateMutability": "view",
      "type": "function"
    },
    {
      "inputs": [
        {
          "internalType": "address",
          "name": "_newGovernor",
          "type": "address"
        }
      ],
      "name": "transferGovernance",
      "outputs": [],
      "stateMutability": "nonpayable",
      "type": "function"
    },
    {
      "inputs": [
        {
          "internalType": "address",
          "name": "_asset",
          "type": "address"
        },
        {
          "internalType": "uint256",
          "name": "_amount",
          "type": "uint256"
        }
      ],
      "name": "transferToken",
      "outputs": [],
      "stateMutability": "nonpayable",
      "type": "function"
    },
    {
      "inputs": [],
      "name": "usdcLPToken",
      "outputs": [
        {
          "internalType": "contract IERC20",
          "name": "",
          "type": "address"
        }
      ],
      "stateMutability": "view",
      "type": "function"
    },
    {
      "inputs": [],
      "name": "usdtToken",
      "outputs": [
        {
          "internalType": "contract IERC20",
          "name": "",
          "type": "address"
        }
      ],
      "stateMutability": "view",
      "type": "function"
    },
    {
      "inputs": [],
      "name": "vaultAddress",
      "outputs": [
        {
          "internalType": "address",
          "name": "",
          "type": "address"
        }
      ],
      "stateMutability": "view",
      "type": "function"
    },
    {
      "inputs": [
        {
          "internalType": "address",
          "name": "_beneficiary",
          "type": "address"
        },
        {
          "internalType": "address",
          "name": "_asset",
          "type": "address"
        },
        {
          "internalType": "uint256",
          "name": "_amount",
          "type": "uint256"
        }
      ],
      "name": "withdraw",
      "outputs": [],
      "stateMutability": "nonpayable",
      "type": "function"
    },
    {
      "inputs": [],
      "name": "withdrawAll",
      "outputs": [],
      "stateMutability": "nonpayable",
      "type": "function"
    },
    {
      "inputs": [],
      "name": "wmaticToken",
      "outputs": [
        {
          "internalType": "contract IERC20",
          "name": "",
          "type": "address"
        }
      ],
      "stateMutability": "view",
      "type": "function"
    }
  ],
  "transactionHash": "0x7344442c5404f5627074dc4dbc5fa5266068d24cf210e59295dbfc721b6d798e",
  "args": [],
  "solcInputHash": "5c59d1940f5b316b29c3b177eb2fc83f",
  "bytecode": "0x60806040523480156200001157600080fd5b506200002a3360008051602062004a5c83398151915255565b60008051602062004a5c833981519152546040516001600160a01b03909116906000907fc7c0c772add429241571afb3805861fb3cfa2af374534088b76cdb4325a87e9a908290a36149da80620000826000396000f3fe608060405234801561001057600080fd5b506004361061023d5760003560e01c8063853828b61161013b578063c71daccb116100b8578063dbe55e561161007c578063dbe55e56146104b2578063de5f6268146104c5578063f6ca71b0146104cd578063f78e4d81146104e2578063f817bc63146104f557600080fd5b8063c71daccb14610469578063c7af335214610471578063d2f2489314610479578063d38bfff41461048c578063d9caed121461049f57600080fd5b8063a98ad46c116100ff578063a98ad46c1461040d578063aa388af614610420578063abf4be0114610443578063ad1728cb146102b7578063c2e1e3f41461045657600080fd5b8063853828b6146103b95780639136616a146103c15780639688d2fc146103d457806396d538bb146103e7578063a7a61d05146103fa57600080fd5b80632e655201116101c957806364153fe91161018d57806364153fe91461035a57806367c7066c1461036d57806375123ff9146103805780637b2d9b2c146103935780638400150a146103a657600080fd5b80632e65520114610311578063430bf08a1461032457806347e7ef24146103375780635a063f631461034a5780635d36b1901461035257600080fd5b80630ed57b3a116102105780630ed57b3a146102a45780630f5754a8146102b95780630fc3b4c4146102c25780631072cbea146102eb578063154e4f58146102fe57600080fd5b8063063bde241461024257806307ab0a7e146102685780630c340a24146102935780630d9fe3fd1461029b575b600080fd5b6102556b033b2e3c9fd0803ce800000081565b6040519081526020015b60405180910390f35b60d85461027b906001600160a01b031681565b6040516001600160a01b03909116815260200161025f565b61027b6104fe565b61025560db5481565b6102b76102b23660046140dd565b61051b565b005b61025560da5481565b61027b6102d03660046140c2565b6035602052600090815260409020546001600160a01b031681565b6102b76102f936600461436c565b610556565b60d75461027b906001600160a01b031681565b60375461027b906001600160a01b031681565b60345461027b906001600160a01b031681565b6102b761034536600461436c565b610596565b6102b7610609565b6102b7610a2b565b6102b76103683660046142ee565b610ad1565b60395461027b906001600160a01b031681565b60d35461027b906001600160a01b031681565b61027b6103a136600461441b565b610c7a565b60d95461027b906001600160a01b031681565b6102b7610ca4565b6102b76103cf36600461441b565b61104b565b6102b76103e2366004614110565b611216565b6102b76103f5366004614396565b61131f565b60d55461027b906001600160a01b031681565b60d25461027b906001600160a01b031681565b61043361042e3660046140c2565b611445565b604051901515815260200161025f565b60d45461027b906001600160a01b031681565b6102b76104643660046140c2565b611495565b610255611514565b610433611777565b60d65461027b906001600160a01b031681565b6102b761049a3660046140c2565b6117a8565b6102b76104ad366004614330565b61184c565b60335461027b906001600160a01b031681565b6102b7611d48565b6104d5611e2c565b60405161025f9190614559565b6102b76104f03660046141cb565b611e8e565b61025560385481565b60006105166000805160206149858339815191525490565b905090565b610523611777565b6105485760405162461bcd60e51b815260040161053f906146c6565b60405180910390fd5b6105528282612201565b5050565b61055e611777565b61057a5760405162461bcd60e51b815260040161053f906146c6565b6105526105856104fe565b6001600160a01b0384169083612360565b6034546001600160a01b031633146105c05760405162461bcd60e51b815260040161053f9061468f565b600080516020614965833981519152805460028114156105f25760405162461bcd60e51b815260040161053f9061474b565b6002825561060084846123b2565b50600190555050565b6039546001600160a01b031633146106635760405162461bcd60e51b815260206004820152601b60248201527f43616c6c6572206973206e6f7420746865204861727665737465720000000000604482015260640161053f565b600080516020614965833981519152805460028114156106955760405162461bcd60e51b815260040161053f9061474b565b6002825560d9546040516370a0823160e01b81523060048201526000916001600160a01b0316906370a082319060240160206040518083038186803b1580156106dd57600080fd5b505afa1580156106f1573d6000803e3d6000fd5b505050506040513d601f19601f820116820180604052508101906107159190614434565b9050806107225750610a24565b60d960009054906101000a90046001600160a01b03166001600160a01b0316630b83a7276040518163ffffffff1660e01b8152600401600060405180830381600087803b15801561077257600080fd5b505af1158015610786573d6000803e3d6000fd5b505060d3546040516370a0823160e01b8152306004820152600093508392506001600160a01b03909116906370a082319060240160206040518083038186803b1580156107d257600080fd5b505afa1580156107e6573d6000803e3d6000fd5b505050506040513d601f19601f8201168201806040525081019061080a9190614434565b9050801561087f5760d85460d35460d25460009261083c926001600160a01b03918216929082169116856001866127ab565b9050600081156108705760da5460d25460d65461086d92916000916001600160a01b03918216911630808885612a88565b90505b61087a8185614851565b935050505b60d4546040516370a0823160e01b81523060048201526000916001600160a01b0316906370a082319060240160206040518083038186803b1580156108c357600080fd5b505afa1580156108d7573d6000803e3d6000fd5b505050506040513d601f19601f820116820180604052508101906108fb9190614434565b9050801561093d5760db5460d45460d65460009261092d92909184916001600160a01b03908116911630808885612a88565b90506109398185614851565b9350505b8215610a1f5760395460d654604080516001600160a01b03938416815292909116602083015281018490527ff6c07a063ed4e63808eb8da7112d46dbcd38de2b40a73dbcc9353c5a94c723539060600160405180910390a160d65460395460405163a9059cbb60e01b81526001600160a01b0391821660048201526024810186905291169063a9059cbb90604401602060405180830381600087803b1580156109e557600080fd5b505af11580156109f9573d6000803e3d6000fd5b505050506040513d601f19601f82011682018060405250810190610a1d91906143d8565b505b505050505b5060019055565b7f7eaf9a7750884803435dfabc67aa617a7d8fefb23d8d84b3c9722bd69e48c4bc546001600160a01b0316336001600160a01b031614610ac65760405162461bcd60e51b815260206004820152603060248201527f4f6e6c79207468652070656e64696e6720476f7665726e6f722063616e20636f60448201526f6d706c6574652074686520636c61696d60801b606482015260840161053f565b610acf33612de9565b565b610ad9611777565b610af55760405162461bcd60e51b815260040161053f906146c6565b6001600160a01b038416610b465760405162461bcd60e51b815260206004820152601860248201527716995c9bc81859191c995cdcc81b9bdd08185b1b1bddd95960421b604482015260640161053f565b6001600160a01b038316610b975760405162461bcd60e51b815260206004820152601860248201527716995c9bc81859191c995cdcc81b9bdd08185b1b1bddd95960421b604482015260640161053f565b81610be05760405162461bcd60e51b8152602060048201526019602482015278115b5c1d1e481c1bdbdb081a59081b9bdd08185b1b1bddd959603a1b604482015260640161053f565b80610c295760405162461bcd60e51b8152602060048201526019602482015278115b5c1d1e481c1bdbdb081a59081b9bdd08185b1b1bddd959603a1b604482015260640161053f565b60d680546001600160a01b0386166001600160a01b0319909116179055610c6d83609d80546001600160a01b039092166001600160a01b0319909216919091179055565b60da9190915560db555050565b603a8181548110610c8a57600080fd5b6000918252602090912001546001600160a01b0316905081565b6034546001600160a01b0316331480610cd55750610cc06104fe565b6001600160a01b0316336001600160a01b0316145b610d2d5760405162461bcd60e51b815260206004820152602360248201527f43616c6c6572206973206e6f7420746865205661756c74206f7220476f7665726044820152623737b960e91b606482015260840161053f565b60008051602061496583398151915280546002811415610d5f5760405162461bcd60e51b815260040161053f9061474b565b6002825560d9546040516370a0823160e01b81523060048201526000916001600160a01b0316906370a082319060240160206040518083038186803b158015610da757600080fd5b505afa158015610dbb573d6000803e3d6000fd5b505050506040513d601f19601f82011682018060405250810190610ddf9190614434565b905080610dec5750610a24565b60d954604051632e1a7d4d60e01b8152600481018390526001600160a01b0390911690632e1a7d4d90602401600060405180830381600087803b158015610e3257600080fd5b505af1158015610e46573d6000803e3d6000fd5b5050505060d760009054906101000a90046001600160a01b03166001600160a01b031663d47eaa376040518163ffffffff1660e01b8152600401602060405180830381600087803b158015610e9a57600080fd5b505af1158015610eae573d6000803e3d6000fd5b505050506040513d601f19601f82011682018060405250810190610ed29190614434565b5060d6546040516370a0823160e01b81523060048201526000916001600160a01b0316906370a082319060240160206040518083038186803b158015610f1757600080fd5b505afa158015610f2b573d6000803e3d6000fd5b505050506040513d601f19601f82011682018060405250810190610f4f9190614434565b90507ff0f0cce21a2c16fc3714f3a884bca7193a057e8544baa837916e9420d890bf8a6036600081548110610f8657610f8661494e565b600091825260209182902001546040805160608082526026908201527f5769746864726177696e672020657665727468696e672066726f6d207468652060808201526502227a2279d160d51b60a08201526001600160a01b039092169282019290925290810183905260c00160405180910390a180156110425760345460368054611042926001600160a01b03169184916000906110265761102661494e565b6000918252602090912001546001600160a01b03169190612360565b50505060019055565b611053611777565b61106f5760405162461bcd60e51b815260040161053f906146c6565b60365481106110b05760405162461bcd60e51b815260206004820152600d60248201526c092dcecc2d8d2c840d2dcc8caf609b1b604482015260640161053f565b6000603682815481106110c5576110c561494e565b60009182526020808320909101546001600160a01b03908116808452603590925260409092205460365491935090911690611102906001906148aa565b8310156111845760368054611119906001906148aa565b815481106111295761112961494e565b600091825260209091200154603680546001600160a01b0390921691859081106111555761115561494e565b9060005260206000200160006101000a8154816001600160a01b0302191690836001600160a01b031602179055505b603680548061119557611195614938565b60008281526020808220600019908401810180546001600160a01b031990811690915593019093556001600160a01b038581168083526035855260409283902080549094169093559051908416815290917f16b7600acff27e39a8a96056b3d533045298de927507f5c1d97e4accde60488c910160405180910390a2505050565b61121e611777565b61123a5760405162461bcd60e51b815260040161053f906146c6565b600054610100900460ff1680611253575060005460ff16155b61126f5760405162461bcd60e51b815260040161053f906146fd565b600054610100900460ff16158015611291576000805461ffff19166101011790555b6113028989898989898080602002602001604051908101604052809392919081815260200183836020028082843760009201919091525050604080516020808d0282810182019093528c82529093508c92508b918291850190849080828437600092019190915250612ead92505050565b8015611314576000805461ff00191690555b505050505050505050565b611327611777565b6113435760405162461bcd60e51b815260040161053f906146c6565b60005b818110156113f75760008383838181106113625761136261494e565b905060200201602081019061137791906140c2565b6001600160a01b031614156113e55760405162461bcd60e51b815260206004820152602e60248201527f43616e206e6f742073657420616e20656d70747920616464726573732061732060448201526d30903932bbb0b932103a37b5b2b760911b606482015260840161053f565b806113ef816148f1565b915050611346565b507f04c0b9649497d316554306e53678d5f5f5dbc3a06f97dec13ff4cfe98b986bbc603a838360405161142c9392919061456c565b60405180910390a1611440603a8383613fe2565b505050565b60d6546000906001600160a01b03838116911614801561148f575060366000815481106114745761147461494e565b6000918252602090912001546001600160a01b038381169116145b92915050565b61149d611777565b6114b95760405162461bcd60e51b815260040161053f906146c6565b603980546001600160a01b0319166001600160a01b0383169081179091556040805182815260208101929092527fe48386b84419f4d36e0f96c10cc3510b6fb1a33795620c5098b22472bbe90796910160405180910390a150565b60d6546040516370a0823160e01b815230600482015260009182916001600160a01b03909116906370a082319060240160206040518083038186803b15801561155c57600080fd5b505afa158015611570573d6000803e3d6000fd5b505050506040513d601f19601f820116820180604052508101906115949190614434565b60d9546040516370a0823160e01b81523060048201529192506000916001600160a01b03909116906370a082319060240160206040518083038186803b1580156115dd57600080fd5b505afa1580156115f1573d6000803e3d6000fd5b505050506040513d601f19601f820116820180604052508101906116159190614434565b905080156117715760d554604080516318160ddd60e01b815290516000926001600160a01b0316916318160ddd916004808301926020929190829003018186803b15801561166257600080fd5b505afa158015611676573d6000803e3d6000fd5b505050506040513d601f19601f8201168201806040525081019061169a9190614434565b9050600060d760009054906101000a90046001600160a01b03166001600160a01b031663ffa642256040518163ffffffff1660e01b8152600401604080518083038186803b1580156116eb57600080fd5b505afa1580156116ff573d6000803e3d6000fd5b505050506040513d601f19601f82011682018060405250810190611723919061444d565b509050600082611733858461488b565b61173d9190614869565b905061271061174d82600661488b565b6117579190614869565b61176190826148aa565b61176b9086614851565b94505050505b50919050565b600061178f6000805160206149858339815191525490565b6001600160a01b0316336001600160a01b031614905090565b6117b0611777565b6117cc5760405162461bcd60e51b815260040161053f906146c6565b6117f4817f7eaf9a7750884803435dfabc67aa617a7d8fefb23d8d84b3c9722bd69e48c4bc55565b806001600160a01b03166118146000805160206149858339815191525490565b6001600160a01b03167fa39cc5eb22d0f34d8beaefee8a3f17cc229c1a1d1ef87a5ad47313487b1c4f0d60405160405180910390a350565b6034546001600160a01b031633146118765760405162461bcd60e51b815260040161053f9061468f565b600080516020614965833981519152805460028114156118a85760405162461bcd60e51b815260040161053f9061474b565b6002825560d6546001600160a01b0385811691161480156118f3575060366000815481106118d8576118d861494e565b6000918252602090912001546001600160a01b038581169116145b6119365760405162461bcd60e51b81526020600482015260146024820152732a37b5b2b7103737ba1039bab83837b93a32b21760611b604482015260640161053f565b60d7546000906119509085906001600160a01b0316612f8c565b9050600060d560009054906101000a90046001600160a01b03166001600160a01b03166318160ddd6040518163ffffffff1660e01b815260040160206040518083038186803b1580156119a257600080fd5b505afa1580156119b6573d6000803e3d6000fd5b505050506040513d601f19601f820116820180604052508101906119da9190614434565b9050600060d760009054906101000a90046001600160a01b03166001600160a01b031663ffa642256040518163ffffffff1660e01b8152600401604080518083038186803b158015611a2b57600080fd5b505afa158015611a3f573d6000803e3d6000fd5b505050506040513d601f19601f82011682018060405250810190611a63919061444d565b509050600081611a73848661488b565b611a7d9190614869565b60d9546040516370a0823160e01b81523060048201529192506000916001600160a01b03909116906370a082319060240160206040518083038186803b158015611ac657600080fd5b505afa158015611ada573d6000803e3d6000fd5b505050506040513d601f19601f82011682018060405250810190611afe9190614434565b905080821115611b0c578091505b60d954604051632e1a7d4d60e01b8152600481018490526001600160a01b0390911690632e1a7d4d90602401600060405180830381600087803b158015611b5257600080fd5b505af1158015611b66573d6000803e3d6000fd5b5050505060d760009054906101000a90046001600160a01b03166001600160a01b031663d47eaa376040518163ffffffff1660e01b8152600401602060405180830381600087803b158015611bba57600080fd5b505af1158015611bce573d6000803e3d6000fd5b505050506040513d601f19601f82011682018060405250810190611bf29190614434565b5060d6546040516370a0823160e01b81523060048201526000916001600160a01b0316906370a082319060240160206040518083038186803b158015611c3757600080fd5b505afa158015611c4b573d6000803e3d6000fd5b505050506040513d601f19601f82011682018060405250810190611c6f9190614434565b90508015611d37577ff0f0cce21a2c16fc3714f3a884bca7193a057e8544baa837916e9420d890bf8a6036600081548110611cac57611cac61494e565b60009182526020918290200154604080516060808252601b908201527f5769746864726177696e672066726f6d2074686520444f444f3a20000000000060808201526001600160a01b039092169282019290925290810183905260a00160405180910390a160345460368054611d37926001600160a01b03169184916000906110265761102661494e565b505050505050600182555050505050565b6034546001600160a01b03163314611d725760405162461bcd60e51b815260040161053f9061468f565b60008051602061496583398151915280546002811415611da45760405162461bcd60e51b815260040161053f9061474b565b6002825560d6546040516370a0823160e01b8152306004820152610a24916001600160a01b03169081906370a082319060240160206040518083038186803b158015611def57600080fd5b505afa158015611e03573d6000803e3d6000fd5b505050506040513d601f19601f82011682018060405250810190611e279190614434565b6123b2565b6060603a805480602002602001604051908101604052809291908181526020018280548015611e8457602002820191906000526020600020905b81546001600160a01b03168152600190910190602001808311611e66575b5050505050905090565b611e96611777565b611eb25760405162461bcd60e51b815260040161053f906146c6565b600054610100900460ff1680611ecb575060005460ff16155b611ee75760405162461bcd60e51b815260040161053f906146fd565b600054610100900460ff16158015611f09576000805461ffff19166101011790555b86866000818110611f1c57611f1c61494e565b9050602002016020810190611f3191906140c2565b60d560006101000a8154816001600160a01b0302191690836001600160a01b031602179055508460d260006101000a8154816001600160a01b0302191690836001600160a01b031602179055508360d460006101000a8154816001600160a01b0302191690836001600160a01b031602179055508c60d360006101000a8154816001600160a01b0302191690836001600160a01b0316021790555082826000818110611fdf57611fdf61494e565b9050602002016020810190611ff491906140c2565b60d780546001600160a01b0319166001600160a01b0392909216919091179055828260018181106120275761202761494e565b905060200201602081019061203c91906140c2565b60d880546001600160a01b0319166001600160a01b03929092169190911790558282600281811061206f5761206f61494e565b905060200201602081019061208491906140c2565b60d980546001600160a01b0319166001600160a01b039290921691909117905561215e838360038181106120ba576120ba61494e565b90506020020160208101906120cf91906140c2565b848460048181106120e2576120e261494e565b90506020020160208101906120f791906140c2565b8585600581811061210a5761210a61494e565b905060200201602081019061211f91906140c2565b60cf80546001600160a01b039485166001600160a01b03199182161790915560d080549385169382169390931790925560d18054919093169116179055565b6121e08d8d8d8d8d8d80806020026020016040519081016040528093929190818152602001838360200280828437600081840152601f19601f820116905080830192505050505050508c8c80806020026020016040519081016040528093929190818152602001838360200280828437600092019190915250612ead92505050565b80156121f2576000805461ff00191690555b50505050505050505050505050565b6001600160a01b03828116600090815260356020526040902054161561225e5760405162461bcd60e51b81526020600482015260126024820152711c151bdad95b88185b1c9958591e481cd95d60721b604482015260640161053f565b6001600160a01b0382161580159061227e57506001600160a01b03811615155b6122be5760405162461bcd60e51b8152602060048201526011602482015270496e76616c69642061646472657373657360781b604482015260640161053f565b6001600160a01b03828116600081815260356020908152604080832080549587166001600160a01b031996871681179091556036805460018101825594527f4a11f94e20a93c79f6ec743a1954ec4fc2c08429ae2122118bf234b2185c81b890930180549095168417909455925190815290917fef6485b84315f9b1483beffa32aae9a0596890395e3d7521f1c5fbb51790e765910160405180910390a25050565b604080516001600160a01b038416602482015260448082018490528251808303909101815260649091019091526020810180516001600160e01b031663a9059cbb60e01b179052611440908490613401565b60d6546001600160a01b0383811691161480156123f9575060366000815481106123de576123de61494e565b6000918252602090912001546001600160a01b038381169116145b61243c5760405162461bcd60e51b81526020600482015260146024820152732a37b5b2b7103737ba1039bab83837b93a32b21760611b604482015260640161053f565b60d6546040516370a0823160e01b81523060048201526000916001600160a01b0316906370a082319060240160206040518083038186803b15801561248057600080fd5b505afa158015612494573d6000803e3d6000fd5b505050506040513d601f19601f820116820180604052508101906124b89190614434565b6040805160608082526017908201527f4465706f736974696e6720696e746f20444f444f203a2000000000000000000060808201526001600160a01b03861660208201529081018290529091507ff0f0cce21a2c16fc3714f3a884bca7193a057e8544baa837916e9420d890bf8a9060a00160405180910390a160d65460d75460405163095ea7b360e01b81526001600160a01b0391821660048201526024810184905291169063095ea7b390604401602060405180830381600087803b15801561258257600080fd5b505af1158015612596573d6000803e3d6000fd5b505050506040513d601f19601f820116820180604052508101906125ba91906143d8565b5060d75460405163aa06ce9b60e01b8152306004820152602481018390526001600160a01b039091169063aa06ce9b90604401602060405180830381600087803b15801561260757600080fd5b505af115801561261b573d6000803e3d6000fd5b505050506040513d601f19601f8201168201806040525081019061263f9190614434565b5060d5546040516370a0823160e01b81523060048201526000916001600160a01b0316906370a082319060240160206040518083038186803b15801561268457600080fd5b505afa158015612698573d6000803e3d6000fd5b505050506040513d601f19601f820116820180604052508101906126bc9190614434565b60d55460d95460405163095ea7b360e01b81526001600160a01b03918216600482015260248101849052929350169063095ea7b390604401602060405180830381600087803b15801561270e57600080fd5b505af1158015612722573d6000803e3d6000fd5b505050506040513d601f19601f8201168201806040525081019061274691906143d8565b5060d95460405163b6b55f2560e01b8152600481018390526001600160a01b039091169063b6b55f2590602401600060405180830381600087803b15801561278d57600080fd5b505af11580156127a1573d6000803e3d6000fd5b5050505050505050565b6000808261285e57604051633cd0243b60e11b8152306004820152602481018690526000906001600160a01b038a16906379a0487690604401604080518083038186803b1580156127fb57600080fd5b505afa15801561280f573d6000803e3d6000fd5b505050506040513d601f19601f82011682018060405250810190612833919061444d565b509050606461284286826148aa565b61284c908361488b565b6128569190614869565b915050612905565b6040516366410a2160e01b8152306004820152602481018690526000906001600160a01b038a16906366410a2190604401604080518083038186803b1580156128a657600080fd5b505afa1580156128ba573d6000803e3d6000fd5b505050506040513d601f19601f820116820180604052508101906128de919061444d565b50905060646128ed86826148aa565b6128f7908361488b565b6129019190614869565b9150505b80612914576000915050612a7e565b60408051600180825281830190925260009160208083019080368337019050509050888160008151811061294a5761294a61494e565b6001600160a01b03928316602091820292909201015260d15460405163095ea7b360e01b81529082166004820152602481018890529089169063095ea7b390604401602060405180830381600087803b1580156129a657600080fd5b505af11580156129ba573d6000803e3d6000fd5b505050506040513d601f19601f820116820180604052508101906129de91906143d8565b5060d0546001600160a01b031663f87dc1b789898986868a6000612a0442610258614851565b6040518963ffffffff1660e01b8152600401612a279897969594939291906144fd565b602060405180830381600087803b158015612a4157600080fd5b505af1158015612a55573d6000803e3d6000fd5b505050506040513d601f19601f82011682018060405250810190612a799190614434565b925050505b9695505050505050565b60408051808201909152601981527842616c616e6365725661756c743a207377617070696e67203160381b6020820152609d54600091612ad0916001600160a01b03166134d3565b604080518082018252601981527842616c616e6365725661756c743a207377617070696e67203160381b602082015290516370a0823160e01b8152306004820152612b81919089906001600160a01b038216906370a082319060240160206040518083038186803b158015612b4457600080fd5b505afa158015612b58573d6000803e3d6000fd5b505050506040513d601f19601f82011682018060405250810190612b7c9190614434565b613518565b609d546040516370a0823160e01b81523060048201526001600160a01b038981169263095ea7b39291169083906370a082319060240160206040518083038186803b158015612bcf57600080fd5b505afa158015612be3573d6000803e3d6000fd5b505050506040513d601f19601f82011682018060405250810190612c079190614434565b6040516001600160e01b031960e085901b1681526001600160a01b0390921660048301526024820152604401602060405180830381600087803b158015612c4d57600080fd5b505af1158015612c61573d6000803e3d6000fd5b505050506040513d601f19601f82011682018060405250810190612c8591906143d8565b50612cd26040805160c0810190915260008082526020820190815260200160006001600160a01b0316815260200160006001600160a01b0316815260200160008152602001606081525090565b89815260208101896001811115612ceb57612ceb614922565b90816001811115612cfe57612cfe614922565b9052506001600160a01b0388811660408381019190915288821660608085019190915260808085018890528251908101835260006020820181905291810191909152888316815287831691810191909152609d549091166352bbbe29838387612d6942610258614851565b6040518563ffffffff1660e01b8152600401612d889493929190614773565b602060405180830381600087803b158015612da257600080fd5b505af1158015612db6573d6000803e3d6000fd5b505050506040513d601f19601f82011682018060405250810190612dda9190614434565b9b9a5050505050505050505050565b6001600160a01b038116612e3f5760405162461bcd60e51b815260206004820152601a60248201527f4e657720476f7665726e6f722069732061646472657373283029000000000000604482015260640161053f565b806001600160a01b0316612e5f6000805160206149858339815191525490565b6001600160a01b03167fc7c0c772add429241571afb3805861fb3cfa2af374534088b76cdb4325a87e9a60405160405180910390a3612eaa8160008051602061498583398151915255565b50565b603380546001600160a01b038089166001600160a01b0319928316179092556034805492881692909116919091179055612ee9603a8585613fe2565b50815181518114612f335760405162461bcd60e51b8152602060048201526014602482015273496e76616c696420696e7075742061727261797360601b604482015260640161053f565b60005b818110156127a157612f7a848281518110612f5357612f5361494e565b6020026020010151848381518110612f6d57612f6d61494e565b6020026020010151612201565b80612f84816148f1565b915050612f36565b60006001826001600160a01b03166317be952e6040518163ffffffff1660e01b815260040160206040518083038186803b158015612fc957600080fd5b505afa158015612fdd573d6000803e3d6000fd5b505050506040513d601f19601f8201168201806040525081019061300191906143fa565b600281111561301257613012614922565b1461301e57508161148f565b613092604051806101a0016040528060006001600160a01b031681526020016000815260200160008152602001600081526020016000815260200160008152602001600081526020016000815260200160008152602001600081526020016000815260200160008152602001600081525090565b6001600160a01b0383168152602081018490526130ae8161355f565b60408083019182528051808201909152600b81526a3330b4b920b6b7bab73a1d60a91b602082015290516130e291906136df565b6130eb81613724565b6060820190815260408051808201909152600b81526a3a30b933b2ba2130b9b29d60a91b6020820152905161312091906136df565b613129816138a1565b608082015261313781613925565b60a08201526131458161394a565b60c082015261315381613a24565b60e082015261316181613a46565b61010082015261317081613adc565b610120820152604080518082019091526007815266031ba3c17309d160cd1b602082015260a08201516131a391906136df565b6131d060405180604001604052806007815260200166031ba3c17311d160cd1b8152508260c001516136df565b6131fd60405180604001604052806007815260200166031ba3c17319d160cd1b8152508260e001516136df565b61322b60405180604001604052806007815260200166031ba3c17321d160cd1b8152508261010001516136df565b61325960405180604001604052806007815260200166031ba3c17329d160cd1b8152508261012001516136df565b61326281613aee565b61014082015261327181613b13565b61016082015261328081613ba0565b610180820152604080518082019091526007815266031ba3c17339d160cd1b60208201526101408201516132b491906136df565b6132e260405180604001604052806007815260200166031ba3c17341d160cd1b8152508261016001516136df565b61331060405180604001604052806007815260200166031ba3c17349d160cd1b8152508261018001516136df565b61333e60405180604001604052806008815260200167031ba3c1732321d160c51b81525082608001516136df565b60006133818260c0015161337b8461012001516133758661010001516133758860e001518960a00151613bfa90919063ffffffff16565b90613bfa565b90613c4c565b9050600061338e82613c94565b905060006133aa82856101400151613bfa90919063ffffffff16565b905060006133d88561018001516133d2670de0b6b3a764000085613ce690919063ffffffff16565b90613d47565b905060006133f482876101600151613c4c90919063ffffffff16565b9998505050505050505050565b6000613456826040518060400160405280602081526020017f5361666545524332303a206c6f772d6c6576656c2063616c6c206661696c6564815250856001600160a01b0316613d939092919063ffffffff16565b805190915015611440578080602001905181019061347491906143d8565b6114405760405162461bcd60e51b815260206004820152602a60248201527f5361666545524332303a204552433230206f7065726174696f6e20646964206e6044820152691bdd081cdd58d8d9595960b21b606482015260840161053f565b61055282826040516024016134e9929190614615565b60408051601f198184030181529190526020810180516001600160e01b031663319af33360e01b179052613daa565b6114408383836040516024016135309392919061463f565b60408051601f198184030181529190526020810180516001600160e01b03166307c8121760e01b179052613daa565b60008061364f83600001516001600160a01b031663245c96856040518163ffffffff1660e01b815260040160206040518083038186803b1580156135a257600080fd5b505afa1580156135b6573d6000803e3d6000fd5b505050506040513d601f19601f820116820180604052508101906135da9190614434565b84600001516001600160a01b0316637c9b8e896040518163ffffffff1660e01b815260040160206040518083038186803b15801561361757600080fd5b505afa15801561362b573d6000803e3d6000fd5b505050506040513d601f19601f8201168201806040525081019061337b9190614434565b9050600083600001516001600160a01b031663796da7af6040518163ffffffff1660e01b815260040160206040518083038186803b15801561369057600080fd5b505afa1580156136a4573d6000803e3d6000fd5b505050506040513d601f19601f820116820180604052508101906136c89190614434565b905060006136d68383613dcb565b95945050505050565b61055282826040516024016136f592919061466d565b60408051601f198184030181529190526020810180516001600160e01b03166309710a9d60e41b179052613daa565b60008082600001516001600160a01b031663eab5d20e6040518163ffffffff1660e01b815260040160206040518083038186803b15801561376457600080fd5b505afa158015613778573d6000803e3d6000fd5b505050506040513d601f19601f8201168201806040525081019061379c9190614434565b9050600083600001516001600160a01b031663ec2fd46d6040518163ffffffff1660e01b815260040160206040518083038186803b1580156137dd57600080fd5b505afa1580156137f1573d6000803e3d6000fd5b505050506040513d601f19601f820116820180604052508101906138159190614434565b9050600061383b613835600461382f858960400151613de3565b90613ce6565b84613e01565b905061385b613856670de0b6b3a764000061382f8482613bfa565b613c94565b9050600061388461387483670de0b6b3a7640000613c4c565b61387f856002613ce6565b613e01565b9050612a7e8461389c670de0b6b3a764000084613bfa565b613e19565b600061148f826020015161337b600285600001516001600160a01b031663eab5d20e6040518163ffffffff1660e01b815260040160206040518083038186803b1580156138ed57600080fd5b505afa158015613901573d6000803e3d6000fd5b505050506040513d601f19601f8201168201806040525081019061382f9190614434565b606081015160009061148f9061393b9080613ce6565b60408401516133759080613ce6565b6000806139e1670de0b6b3a76400006133d2600261382f87600001516001600160a01b031663ec2fd46d6040518163ffffffff1660e01b815260040160206040518083038186803b15801561399e57600080fd5b505afa1580156139b2573d6000803e3d6000fd5b505050506040513d601f19601f820116820180604052508101906139d69190614434565b604089015190613ce6565b90506000613a048261337586604001518760800151613bfa90919063ffffffff16565b905060006136d6600261382f876060015185613ce690919063ffffffff16565b600061148f600261382f84604001518560800151613ce690919063ffffffff16565b600061148f670de0b6b3a76400006133d2600261382f86600001516001600160a01b031663ec2fd46d6040518163ffffffff1660e01b815260040160206040518083038186803b158015613a9957600080fd5b505afa158015613aad573d6000803e3d6000fd5b505050506040513d601f19601f82011682018060405250810190613ad19190614434565b60e088015190613ce6565b608081015160009061148f9080613ce6565b600061148f826080015161337b84604001518560600151613bfa90919063ffffffff16565b600061148f826080015161337b84600001516001600160a01b031663eab5d20e6040518163ffffffff1660e01b815260040160206040518083038186803b158015613b5d57600080fd5b505afa158015613b71573d6000803e3d6000fd5b505050506040513d601f19601f82011682018060405250810190613b959190614434565b606086015190613bfa565b600061148f613bb86002670de0b6b3a7640000613ce6565b613375600285600001516001600160a01b031663ec2fd46d6040518163ffffffff1660e01b815260040160206040518083038186803b1580156138ed57600080fd5b600080613c078385614851565b905083811015613c455760405162461bcd60e51b815260206004820152600960248201526820a2222fa2a92927a960b91b604482015260640161053f565b9392505050565b600082821115613c8a5760405162461bcd60e51b815260206004820152600960248201526829aaa12fa2a92927a960b91b604482015260640161053f565b613c4582846148aa565b600080613ca2600284614869565b613cad906001614851565b90508291505b8181101561177157905080600281613ccb8186614869565b613cd59190614851565b613cdf9190614869565b9050613cb3565b600082613cf55750600061148f565b6000613d01838561488b565b905082613d0e8583614869565b14613c455760405162461bcd60e51b815260206004820152600960248201526826aaa62fa2a92927a960b91b604482015260640161053f565b6000808211613d895760405162461bcd60e51b815260206004820152600e60248201526d2224ab24a224a723afa2a92927a960911b604482015260640161053f565b613c458284614869565b6060613da28484600085613e38565b949350505050565b80516a636f6e736f6c652e6c6f67602083016000808483855afa5050505050565b6000613c45826133d285670de0b6b3a7640000613ce6565b6000613c45670de0b6b3a7640000613dfb8585613ce6565b90613f60565b6000613c4582613dfb85670de0b6b3a7640000613ce6565b6000670de0b6b3a7640000613e2e8484613ce6565b613c459190614869565b606082471015613e995760405162461bcd60e51b815260206004820152602660248201527f416464726573733a20696e73756666696369656e742062616c616e636520666f6044820152651c8818d85b1b60d21b606482015260840161053f565b843b613ee75760405162461bcd60e51b815260206004820152601d60248201527f416464726573733a2063616c6c20746f206e6f6e2d636f6e7472616374000000604482015260640161053f565b600080866001600160a01b03168587604051613f0391906144e1565b60006040518083038185875af1925050503d8060008114613f40576040519150601f19603f3d011682016040523d82523d6000602084013e613f45565b606091505b5091509150613f55828286613fa9565b979650505050505050565b600080613f6d8484613d47565b90506000613f7b848361488b565b613f8590866148aa565b90508015613fa157613f98826001614851565b9250505061148f565b50905061148f565b60608315613fb8575081613c45565b825115613fc85782518084602001fd5b8160405162461bcd60e51b815260040161053f9190614602565b828054828255906000526020600020908101928215614035579160200282015b828111156140355781546001600160a01b0319166001600160a01b03843516178255602090920191600190910190614002565b50614041929150614045565b5090565b5b808211156140415760008155600101614046565b80356001600160a01b038116811461407157600080fd5b919050565b60008083601f84011261408857600080fd5b50813567ffffffffffffffff8111156140a057600080fd5b6020830191508360208260051b85010111156140bb57600080fd5b9250929050565b6000602082840312156140d457600080fd5b613c458261405a565b600080604083850312156140f057600080fd5b6140f98361405a565b91506141076020840161405a565b90509250929050565b60008060008060008060008060a0898b03121561412c57600080fd5b6141358961405a565b975061414360208a0161405a565b9650604089013567ffffffffffffffff8082111561416057600080fd5b61416c8c838d01614076565b909850965060608b013591508082111561418557600080fd5b6141918c838d01614076565b909650945060808b01359150808211156141aa57600080fd5b506141b78b828c01614076565b999c989b5096995094979396929594505050565b6000806000806000806000806000806000806101008d8f0312156141ee57600080fd5b6141f78d61405a565b9b5061420560208e0161405a565b9a5067ffffffffffffffff60408e0135111561422057600080fd5b6142308e60408f01358f01614076565b909a50985067ffffffffffffffff60608e0135111561424e57600080fd5b61425e8e60608f01358f01614076565b909850965067ffffffffffffffff60808e0135111561427c57600080fd5b61428c8e60808f01358f01614076565b909650945061429d60a08e0161405a565b93506142ab60c08e0161405a565b925067ffffffffffffffff60e08e013511156142c657600080fd5b6142d68e60e08f01358f01614076565b81935080925050509295989b509295989b509295989b565b6000806000806080858703121561430457600080fd5b61430d8561405a565b935061431b6020860161405a565b93969395505050506040820135916060013590565b60008060006060848603121561434557600080fd5b61434e8461405a565b925061435c6020850161405a565b9150604084013590509250925092565b6000806040838503121561437f57600080fd5b6143888361405a565b946020939093013593505050565b600080602083850312156143a957600080fd5b823567ffffffffffffffff8111156143c057600080fd5b6143cc85828601614076565b90969095509350505050565b6000602082840312156143ea57600080fd5b81518015158114613c4557600080fd5b60006020828403121561440c57600080fd5b815160038110613c4557600080fd5b60006020828403121561442d57600080fd5b5035919050565b60006020828403121561444657600080fd5b5051919050565b6000806040838503121561446057600080fd5b505080516020909101519092909150565b600081518084526020808501945080840160005b838110156144aa5781516001600160a01b031687529582019590820190600101614485565b509495945050505050565b600081518084526144cd8160208601602086016148c1565b601f01601f19169290920160200192915050565b600082516144f38184602087016148c1565b9190910192915050565b6001600160a01b0389811682528816602082015260408101879052606081018690526101006080820181905260009061453883820188614471565b60a0840196909652505091151560c083015260e09091015295945050505050565b602081526000613c456020830184614471565b6000604082016040835280865480835260608501915087600052602092508260002060005b828110156145b65781546001600160a01b031684529284019260019182019101614591565b505050838103828501528481528590820160005b868110156145f6576001600160a01b036145e38461405a565b16825291830191908301906001016145ca565b50979650505050505050565b602081526000613c4560208301846144b5565b60408152600061462860408301856144b5565b905060018060a01b03831660208301529392505050565b60608152600061465260608301866144b5565b6001600160a01b039490941660208301525060400152919050565b60408152600061468060408301856144b5565b90508260208301529392505050565b60208082526017908201527f43616c6c6572206973206e6f7420746865205661756c74000000000000000000604082015260600190565b6020808252601a908201527f43616c6c6572206973206e6f742074686520476f7665726e6f72000000000000604082015260600190565b6020808252602e908201527f496e697469616c697a61626c653a20636f6e747261637420697320616c72656160408201526d191e481a5b9a5d1a585b1a5e995960921b606082015260800190565b6020808252600e908201526d1499595b9d1c985b9d0818d85b1b60921b604082015260600190565b60e08152845160e082015260006020860151600281106147a357634e487b7160e01b600052602160045260246000fd5b61010083015260408601516001600160a01b031661012083015260608601516147d86101408401826001600160a01b03169052565b50608086015161016083015260a086015160c06101808401526147ff6101a08401826144b5565b91505061483f602083018680516001600160a01b039081168352602080830151151590840152604080830151909116908301526060908101511515910152565b60a082019390935260c0015292915050565b600082198211156148645761486461490c565b500190565b60008261488657634e487b7160e01b600052601260045260246000fd5b500490565b60008160001904831182151516156148a5576148a561490c565b500290565b6000828210156148bc576148bc61490c565b500390565b60005b838110156148dc5781810151838201526020016148c4565b838111156148eb576000848401525b50505050565b60006000198214156149055761490561490c565b5060010190565b634e487b7160e01b600052601160045260246000fd5b634e487b7160e01b600052602160045260246000fd5b634e487b7160e01b600052603160045260246000fd5b634e487b7160e01b600052603260045260246000fdfe48a06827bfe8bfc0a59fe65d0fa78f553938265ed1f971326fc09947d19a593c83f34c88ec39d54d1e423bd8a181ebc59ede5dcc9996c2df334668b4f89fdd73a2646970667358221220da185d0f71787c1d96f3a0b0d7105d9ac2e538932b78fce143d494bfc861519564736f6c6343000806003383f34c88ec39d54d1e423bd8a181ebc59ede5dcc9996c2df334668b4f89fdd73",
  "devdoc": {
    "kind": "dev",
    "methods": {
      "checkBalance()": {
        "details": "Get the total primary stable value held in the platform.      This includes any interest that was generated since depositing.",
        "returns": {
          "balance": "   Total value of the asset in the platform"
        }
      },
      "claimGovernance()": {
        "details": "Claim Governance of the contract to a new account (`newGovernor`). Can only be called by the new Governor."
      },
      "collectRewardTokens()": {
        "details": "Collect accumulated reward token and send to Vault."
      },
      "deposit(address,uint256)": {
        "details": "Deposit an amount of asset into the platform",
        "params": {
          "_amount": "Units of asset to deposit",
          "_asset": "Address for the asset"
        }
      },
      "depositAll()": {
        "details": "Deposit balance of all supported assets into the platform"
      },
      "getRewardTokenAddresses()": {
        "details": "Get the reward token addresses.",
        "returns": {
          "_0": "address[] the reward token addresses."
        }
      },
      "governor()": {
        "details": "Returns the address of the current Governor."
      },
      "initialize(address,address,address[],address[],address[])": {
        "details": "Internal initialize function, to set up initial internal state",
        "params": {
          "_assets": "Addresses of initial supported assets",
          "_pTokens": "Platform Token corresponding addresses",
          "_platformAddress": "Generic platform address",
          "_rewardTokenAddresses": "Address of reward token for platform",
          "_vaultAddress": "Address of the Vault"
        }
      },
      "initialize(address,address,address[],address[],address[],address,address,address[])": {
        "params": {
          "_assets": "Addresses of supported assets. MUST be passed in the same                order as returned by coins on the pool contract, i.e.                USDC",
          "_pTokens": "Platform Token corresponding addresses",
          "_platformAddress": "Address of the nUSD",
          "_rewardTokenAddresses": "Address of USDC",
          "_vaultAddress": "Address of the vault"
        }
      },
      "isGovernor()": {
        "details": "Returns true if the caller is the current Governor."
      },
      "removePToken(uint256)": {
        "details": "Remove a supported asset by passing its index.      This method can only be called by the system Governor",
        "params": {
          "_assetIndex": "Index of the asset to be removed"
        }
      },
      "setHarvesterAddress(address)": {
        "details": "Set the reward token addresses.",
        "params": {
          "_harvesterAddress": "Address of the harvester"
        }
      },
      "setPTokenAddress(address,address)": {
        "details": "Provide support for asset by passing its pToken address.      This method can only be called by the system Governor",
        "params": {
          "_asset": "Address for the asset",
          "_pToken": "Address for the corresponding platform token"
        }
      },
      "setRewardTokenAddresses(address[])": {
        "details": "Set the reward token addresses.",
        "params": {
          "_rewardTokenAddresses": "Address array of the reward token"
        }
      },
      "supportsAsset(address)": {
        "details": "Check if an asset is supported.",
        "params": {
          "_asset": "Address of the asset"
        },
        "returns": {
          "_0": "bool     Whether asset is supported"
        }
      },
      "transferGovernance(address)": {
        "details": "Transfers Governance of the contract to a new account (`newGovernor`). Can only be called by the current Governor. Must be claimed for this to complete",
        "params": {
          "_newGovernor": "Address of the new Governor"
        }
      },
      "transferToken(address,uint256)": {
        "details": "Transfer token to governor. Intended for recovering tokens stuck in      strategy contracts, i.e. mistaken sends.",
        "params": {
          "_amount": "Amount of the asset to transfer",
          "_asset": "Address for the asset"
        }
      },
      "withdrawAll()": {
        "details": "Remove all assets from platform and send them to Vault contract."
      }
    },
    "version": 1
  },
  "userdoc": {
    "kind": "user",
    "methods": {
      "initialize(address,address,address[],address[],address[],address,address,address[])": {
        "notice": "Initializer for setting up strategy internal state. This overrides the InitializableAbstractStrategy initializer as Dodo strategies don't fit well within that abstraction."
      }
    },
    "version": 1
  },
  "storageLayout": {
    "storage": [
      {
        "astId": 29944,
        "contract": "contracts/strategies/DodoStrategy.sol:DodoStrategy",
        "label": "initialized",
        "offset": 0,
        "slot": "0",
        "type": "t_bool"
      },
      {
        "astId": 29947,
        "contract": "contracts/strategies/DodoStrategy.sol:DodoStrategy",
        "label": "initializing",
        "offset": 1,
        "slot": "0",
        "type": "t_bool"
      },
      {
        "astId": 29987,
        "contract": "contracts/strategies/DodoStrategy.sol:DodoStrategy",
        "label": "______gap",
        "offset": 0,
        "slot": "1",
        "type": "t_array(t_uint256)50_storage"
      },
      {
        "astId": 30071,
        "contract": "contracts/strategies/DodoStrategy.sol:DodoStrategy",
        "label": "platformAddress",
        "offset": 0,
        "slot": "51",
        "type": "t_address"
      },
      {
        "astId": 30073,
        "contract": "contracts/strategies/DodoStrategy.sol:DodoStrategy",
        "label": "vaultAddress",
        "offset": 0,
        "slot": "52",
        "type": "t_address"
      },
      {
        "astId": 30077,
        "contract": "contracts/strategies/DodoStrategy.sol:DodoStrategy",
        "label": "assetToPToken",
        "offset": 0,
        "slot": "53",
        "type": "t_mapping(t_address,t_address)"
      },
      {
        "astId": 30080,
        "contract": "contracts/strategies/DodoStrategy.sol:DodoStrategy",
        "label": "assetsMapped",
        "offset": 0,
        "slot": "54",
        "type": "t_array(t_address)dyn_storage"
      },
      {
        "astId": 30082,
        "contract": "contracts/strategies/DodoStrategy.sol:DodoStrategy",
        "label": "_deprecated_rewardTokenAddress",
        "offset": 0,
        "slot": "55",
        "type": "t_address"
      },
      {
        "astId": 30084,
        "contract": "contracts/strategies/DodoStrategy.sol:DodoStrategy",
        "label": "_deprecated_rewardLiquidationThreshold",
        "offset": 0,
        "slot": "56",
        "type": "t_uint256"
      },
      {
        "astId": 30086,
        "contract": "contracts/strategies/DodoStrategy.sol:DodoStrategy",
        "label": "harvesterAddress",
        "offset": 0,
        "slot": "57",
        "type": "t_address"
      },
      {
        "astId": 30089,
        "contract": "contracts/strategies/DodoStrategy.sol:DodoStrategy",
        "label": "rewardTokenAddresses",
        "offset": 0,
        "slot": "58",
        "type": "t_array(t_address)dyn_storage"
      },
      {
        "astId": 30093,
        "contract": "contracts/strategies/DodoStrategy.sol:DodoStrategy",
        "label": "_reserved",
        "offset": 0,
        "slot": "59",
        "type": "t_array(t_int256)98_storage"
      },
      {
        "astId": 6121,
        "contract": "contracts/strategies/DodoStrategy.sol:DodoStrategy",
        "label": "balancerVault",
        "offset": 0,
        "slot": "157",
        "type": "t_contract(IVault)11711"
      },
      {
        "astId": 7164,
        "contract": "contracts/strategies/DodoStrategy.sol:DodoStrategy",
        "label": "__gap",
        "offset": 0,
        "slot": "158",
        "type": "t_array(t_uint256)49_storage"
      },
      {
        "astId": 7174,
        "contract": "contracts/strategies/DodoStrategy.sol:DodoStrategy",
        "label": "dodoV1Helper",
        "offset": 0,
        "slot": "207",
        "type": "t_contract(IDODOV1Helper)4611"
      },
      {
        "astId": 7177,
        "contract": "contracts/strategies/DodoStrategy.sol:DodoStrategy",
        "label": "dodoProxy",
        "offset": 0,
        "slot": "208",
        "type": "t_contract(IDODOProxy)4411"
      },
      {
        "astId": 7179,
        "contract": "contracts/strategies/DodoStrategy.sol:DodoStrategy",
        "label": "dodoApprove",
        "offset": 0,
        "slot": "209",
        "type": "t_address"
      },
      {
        "astId": 19803,
        "contract": "contracts/strategies/DodoStrategy.sol:DodoStrategy",
        "label": "usdtToken",
        "offset": 0,
        "slot": "210",
        "type": "t_contract(IERC20)623"
      },
      {
        "astId": 19806,
        "contract": "contracts/strategies/DodoStrategy.sol:DodoStrategy",
        "label": "dodoToken",
        "offset": 0,
        "slot": "211",
        "type": "t_contract(IERC20)623"
      },
      {
        "astId": 19809,
        "contract": "contracts/strategies/DodoStrategy.sol:DodoStrategy",
        "label": "wmaticToken",
        "offset": 0,
        "slot": "212",
        "type": "t_contract(IERC20)623"
      },
      {
        "astId": 19812,
        "contract": "contracts/strategies/DodoStrategy.sol:DodoStrategy",
        "label": "usdcLPToken",
        "offset": 0,
        "slot": "213",
        "type": "t_contract(IERC20)623"
      },
      {
        "astId": 19815,
        "contract": "contracts/strategies/DodoStrategy.sol:DodoStrategy",
        "label": "primaryStable",
        "offset": 0,
        "slot": "214",
        "type": "t_contract(IERC20)623"
      },
      {
        "astId": 19818,
        "contract": "contracts/strategies/DodoStrategy.sol:DodoStrategy",
        "label": "dodoV1UsdcUsdtPool",
        "offset": 0,
        "slot": "215",
        "type": "t_contract(IDODOV1)4590"
      },
      {
        "astId": 19821,
        "contract": "contracts/strategies/DodoStrategy.sol:DodoStrategy",
        "label": "dodoV2DodoUsdtPool",
        "offset": 0,
        "slot": "216",
        "type": "t_contract(IDODOV2)4636"
      },
      {
        "astId": 19824,
        "contract": "contracts/strategies/DodoStrategy.sol:DodoStrategy",
        "label": "dodoMine",
        "offset": 0,
        "slot": "217",
        "type": "t_contract(IDODOMine)4364"
      },
      {
        "astId": 19826,
        "contract": "contracts/strategies/DodoStrategy.sol:DodoStrategy",
        "label": "balancerPoolIdUsdcTusdDaiUsdt",
        "offset": 0,
        "slot": "218",
        "type": "t_bytes32"
      },
      {
        "astId": 19828,
        "contract": "contracts/strategies/DodoStrategy.sol:DodoStrategy",
        "label": "balancerPoolIdWmaticUsdcWethBal",
        "offset": 0,
        "slot": "219",
        "type": "t_bytes32"
      }
    ],
    "types": {
      "t_address": {
        "encoding": "inplace",
        "label": "address",
        "numberOfBytes": "20"
      },
      "t_array(t_address)dyn_storage": {
        "base": "t_address",
        "encoding": "dynamic_array",
        "label": "address[]",
        "numberOfBytes": "32"
      },
      "t_array(t_int256)98_storage": {
        "base": "t_int256",
        "encoding": "inplace",
        "label": "int256[98]",
        "numberOfBytes": "3136"
      },
      "t_array(t_uint256)49_storage": {
        "base": "t_uint256",
        "encoding": "inplace",
        "label": "uint256[49]",
        "numberOfBytes": "1568"
      },
      "t_array(t_uint256)50_storage": {
        "base": "t_uint256",
        "encoding": "inplace",
        "label": "uint256[50]",
        "numberOfBytes": "1600"
      },
      "t_bool": {
        "encoding": "inplace",
        "label": "bool",
        "numberOfBytes": "1"
      },
      "t_bytes32": {
        "encoding": "inplace",
        "label": "bytes32",
        "numberOfBytes": "32"
      },
      "t_contract(IDODOMine)4364": {
        "encoding": "inplace",
        "label": "contract IDODOMine",
        "numberOfBytes": "20"
      },
      "t_contract(IDODOProxy)4411": {
        "encoding": "inplace",
        "label": "contract IDODOProxy",
        "numberOfBytes": "20"
      },
      "t_contract(IDODOV1)4590": {
        "encoding": "inplace",
        "label": "contract IDODOV1",
        "numberOfBytes": "20"
      },
      "t_contract(IDODOV1Helper)4611": {
        "encoding": "inplace",
        "label": "contract IDODOV1Helper",
        "numberOfBytes": "20"
      },
      "t_contract(IDODOV2)4636": {
        "encoding": "inplace",
        "label": "contract IDODOV2",
        "numberOfBytes": "20"
      },
      "t_contract(IERC20)623": {
        "encoding": "inplace",
        "label": "contract IERC20",
        "numberOfBytes": "20"
      },
      "t_contract(IVault)11711": {
        "encoding": "inplace",
        "label": "contract IVault",
        "numberOfBytes": "20"
      },
      "t_int256": {
        "encoding": "inplace",
        "label": "int256",
        "numberOfBytes": "32"
      },
      "t_mapping(t_address,t_address)": {
        "encoding": "mapping",
        "key": "t_address",
        "label": "mapping(address => address)",
        "numberOfBytes": "32",
        "value": "t_address"
      },
      "t_uint256": {
        "encoding": "inplace",
        "label": "uint256",
        "numberOfBytes": "32"
      }
    }
  }
}