{
  "address": "0x52ab30E15c68a018628661305e68f01aF5Ed49e4",
  "abi": [
    {
      "anonymous": false,
      "inputs": [
        {
          "indexed": true,
          "internalType": "address",
          "name": "_asset",
          "type": "address"
        },
        {
          "indexed": false,
          "internalType": "address",
          "name": "_pToken",
          "type": "address"
        },
        {
          "indexed": false,
          "internalType": "uint256",
          "name": "_amount",
          "type": "uint256"
        }
      ],
      "name": "Deposit",
      "type": "event"
    },
    {
      "anonymous": false,
      "inputs": [
        {
          "indexed": true,
          "internalType": "address",
          "name": "previousGovernor",
          "type": "address"
        },
        {
          "indexed": true,
          "internalType": "address",
          "name": "newGovernor",
          "type": "address"
        }
      ],
      "name": "GovernorshipTransferred",
      "type": "event"
    },
    {
      "anonymous": false,
      "inputs": [
        {
          "indexed": false,
          "internalType": "address",
          "name": "_oldHarvesterAddress",
          "type": "address"
        },
        {
          "indexed": false,
          "internalType": "address",
          "name": "_newHarvesterAddress",
          "type": "address"
        }
      ],
      "name": "HarvesterAddressesUpdated",
      "type": "event"
    },
    {
      "anonymous": false,
      "inputs": [
        {
          "indexed": true,
          "internalType": "address",
          "name": "_asset",
          "type": "address"
        },
        {
          "indexed": false,
          "internalType": "address",
          "name": "_pToken",
          "type": "address"
        }
      ],
      "name": "PTokenAdded",
      "type": "event"
    },
    {
      "anonymous": false,
      "inputs": [
        {
          "indexed": true,
          "internalType": "address",
          "name": "_asset",
          "type": "address"
        },
        {
          "indexed": false,
          "internalType": "address",
          "name": "_pToken",
          "type": "address"
        }
      ],
      "name": "PTokenRemoved",
      "type": "event"
    },
    {
      "anonymous": false,
      "inputs": [
        {
          "indexed": true,
          "internalType": "address",
          "name": "previousGovernor",
          "type": "address"
        },
        {
          "indexed": true,
          "internalType": "address",
          "name": "newGovernor",
          "type": "address"
        }
      ],
      "name": "PendingGovernorshipTransfer",
      "type": "event"
    },
    {
      "anonymous": false,
      "inputs": [
        {
          "indexed": false,
          "internalType": "address[]",
          "name": "_oldAddresses",
          "type": "address[]"
        },
        {
          "indexed": false,
          "internalType": "address[]",
          "name": "_newAddresses",
          "type": "address[]"
        }
      ],
      "name": "RewardTokenAddressesUpdated",
      "type": "event"
    },
    {
      "anonymous": false,
      "inputs": [
        {
          "indexed": false,
          "internalType": "address",
          "name": "recipient",
          "type": "address"
        },
        {
          "indexed": false,
          "internalType": "address",
          "name": "rewardToken",
          "type": "address"
        },
        {
          "indexed": false,
          "internalType": "uint256",
          "name": "amount",
          "type": "uint256"
        }
      ],
      "name": "RewardTokenCollected",
      "type": "event"
    },
    {
      "anonymous": false,
      "inputs": [
        {
          "indexed": false,
          "internalType": "string",
          "name": "_message",
          "type": "string"
        },
        {
          "indexed": false,
          "internalType": "address",
          "name": "_asset",
          "type": "address"
        },
        {
          "indexed": false,
          "internalType": "uint256",
          "name": "_number",
          "type": "uint256"
        }
      ],
      "name": "TransferLog",
      "type": "event"
    },
    {
      "anonymous": false,
      "inputs": [
        {
          "indexed": true,
          "internalType": "address",
          "name": "_asset",
          "type": "address"
        },
        {
          "indexed": false,
          "internalType": "address",
          "name": "_pToken",
          "type": "address"
        },
        {
          "indexed": false,
          "internalType": "uint256",
          "name": "_amount",
          "type": "uint256"
        }
      ],
      "name": "Withdrawal",
      "type": "event"
    },
    {
      "inputs": [],
      "name": "BASIS_POINTS_FOR_SLIPPAGE",
      "outputs": [
        {
          "internalType": "uint256",
          "name": "",
          "type": "uint256"
        }
      ],
      "stateMutability": "view",
      "type": "function"
    },
    {
      "inputs": [],
      "name": "MAX_VALUE",
      "outputs": [
        {
          "internalType": "int256",
          "name": "",
          "type": "int256"
        }
      ],
      "stateMutability": "view",
      "type": "function"
    },
    {
      "inputs": [],
      "name": "_deprecated_rewardLiquidationThreshold",
      "outputs": [
        {
          "internalType": "uint256",
          "name": "",
          "type": "uint256"
        }
      ],
      "stateMutability": "view",
      "type": "function"
    },
    {
      "inputs": [],
      "name": "_deprecated_rewardTokenAddress",
      "outputs": [
        {
          "internalType": "address",
          "name": "",
          "type": "address"
        }
      ],
      "stateMutability": "view",
      "type": "function"
    },
    {
      "inputs": [
        {
          "internalType": "address",
          "name": "",
          "type": "address"
        }
      ],
      "name": "assetToDenominator",
      "outputs": [
        {
          "internalType": "uint256",
          "name": "",
          "type": "uint256"
        }
      ],
      "stateMutability": "view",
      "type": "function"
    },
    {
      "inputs": [
        {
          "internalType": "address",
          "name": "",
          "type": "address"
        }
      ],
      "name": "assetToPToken",
      "outputs": [
        {
          "internalType": "address",
          "name": "",
          "type": "address"
        }
      ],
      "stateMutability": "view",
      "type": "function"
    },
    {
      "inputs": [],
      "name": "checkBalance",
      "outputs": [
        {
          "internalType": "uint256",
          "name": "balance",
          "type": "uint256"
        }
      ],
      "stateMutability": "view",
      "type": "function"
    },
    {
      "inputs": [],
      "name": "claimGovernance",
      "outputs": [],
      "stateMutability": "nonpayable",
      "type": "function"
    },
    {
      "inputs": [],
      "name": "collectRewardTokens",
      "outputs": [],
      "stateMutability": "nonpayable",
      "type": "function"
    },
    {
      "inputs": [
        {
          "internalType": "address",
          "name": "_asset",
          "type": "address"
        },
        {
          "internalType": "uint256",
          "name": "_amount",
          "type": "uint256"
        }
      ],
      "name": "deposit",
      "outputs": [],
      "stateMutability": "nonpayable",
      "type": "function"
    },
    {
      "inputs": [],
      "name": "depositAll",
      "outputs": [],
      "stateMutability": "nonpayable",
      "type": "function"
    },
    {
      "inputs": [],
      "name": "dystPair",
      "outputs": [
        {
          "internalType": "contract IDystopiaLP",
          "name": "",
          "type": "address"
        }
      ],
      "stateMutability": "view",
      "type": "function"
    },
    {
      "inputs": [],
      "name": "dystRouter",
      "outputs": [
        {
          "internalType": "address",
          "name": "",
          "type": "address"
        }
      ],
      "stateMutability": "view",
      "type": "function"
    },
    {
      "inputs": [],
      "name": "dystToken",
      "outputs": [
        {
          "internalType": "contract IERC20",
          "name": "",
          "type": "address"
        }
      ],
      "stateMutability": "view",
      "type": "function"
    },
    {
      "inputs": [],
      "name": "gauge",
      "outputs": [
        {
          "internalType": "contract IDystopiaLP",
          "name": "",
          "type": "address"
        }
      ],
      "stateMutability": "view",
      "type": "function"
    },
    {
      "inputs": [],
      "name": "getRewardTokenAddresses",
      "outputs": [
        {
          "internalType": "address[]",
          "name": "",
          "type": "address[]"
        }
      ],
      "stateMutability": "view",
      "type": "function"
    },
    {
      "inputs": [],
      "name": "governor",
      "outputs": [
        {
          "internalType": "address",
          "name": "",
          "type": "address"
        }
      ],
      "stateMutability": "view",
      "type": "function"
    },
    {
      "inputs": [],
      "name": "harvesterAddress",
      "outputs": [
        {
          "internalType": "address",
          "name": "",
          "type": "address"
        }
      ],
      "stateMutability": "view",
      "type": "function"
    },
    {
      "inputs": [
        {
          "internalType": "address",
          "name": "_platformAddress",
          "type": "address"
        },
        {
          "internalType": "address",
          "name": "_vaultAddress",
          "type": "address"
        },
        {
          "internalType": "address[]",
          "name": "_rewardTokenAddresses",
          "type": "address[]"
        },
        {
          "internalType": "address[]",
          "name": "_assets",
          "type": "address[]"
        },
        {
          "internalType": "address[]",
          "name": "_pTokens",
          "type": "address[]"
        },
        {
          "internalType": "address",
          "name": "_primaryStable",
          "type": "address"
        },
        {
          "internalType": "address",
          "name": "_intermediatory_token",
          "type": "address"
        }
      ],
      "name": "initialize",
      "outputs": [],
      "stateMutability": "nonpayable",
      "type": "function"
    },
    {
      "inputs": [
        {
          "internalType": "address",
          "name": "_platformAddress",
          "type": "address"
        },
        {
          "internalType": "address",
          "name": "_vaultAddress",
          "type": "address"
        },
        {
          "internalType": "address[]",
          "name": "_rewardTokenAddresses",
          "type": "address[]"
        },
        {
          "internalType": "address[]",
          "name": "_assets",
          "type": "address[]"
        },
        {
          "internalType": "address[]",
          "name": "_pTokens",
          "type": "address[]"
        }
      ],
      "name": "initialize",
      "outputs": [],
      "stateMutability": "nonpayable",
      "type": "function"
    },
    {
      "inputs": [],
      "name": "isGovernor",
      "outputs": [
        {
          "internalType": "bool",
          "name": "",
          "type": "bool"
        }
      ],
      "stateMutability": "view",
      "type": "function"
    },
    {
      "inputs": [],
      "name": "middleToken",
      "outputs": [
        {
          "internalType": "contract IERC20",
          "name": "",
          "type": "address"
        }
      ],
      "stateMutability": "view",
      "type": "function"
    },
    {
      "inputs": [],
      "name": "penLens",
      "outputs": [
        {
          "internalType": "contract IPenLens",
          "name": "",
          "type": "address"
        }
      ],
      "stateMutability": "view",
      "type": "function"
    },
    {
      "inputs": [],
      "name": "penToken",
      "outputs": [
        {
          "internalType": "contract IERC20",
          "name": "",
          "type": "address"
        }
      ],
      "stateMutability": "view",
      "type": "function"
    },
    {
      "inputs": [],
      "name": "platformAddress",
      "outputs": [
        {
          "internalType": "address",
          "name": "",
          "type": "address"
        }
      ],
      "stateMutability": "view",
      "type": "function"
    },
    {
      "inputs": [],
      "name": "poolId",
      "outputs": [
        {
          "internalType": "bytes32",
          "name": "",
          "type": "bytes32"
        }
      ],
      "stateMutability": "view",
      "type": "function"
    },
    {
      "inputs": [],
      "name": "primaryStable",
      "outputs": [
        {
          "internalType": "contract IERC20",
          "name": "",
          "type": "address"
        }
      ],
      "stateMutability": "view",
      "type": "function"
    },
    {
      "inputs": [
        {
          "internalType": "uint256",
          "name": "_assetIndex",
          "type": "uint256"
        }
      ],
      "name": "removePToken",
      "outputs": [],
      "stateMutability": "nonpayable",
      "type": "function"
    },
    {
      "inputs": [
        {
          "internalType": "uint256",
          "name": "",
          "type": "uint256"
        }
      ],
      "name": "rewardTokenAddresses",
      "outputs": [
        {
          "internalType": "address",
          "name": "",
          "type": "address"
        }
      ],
      "stateMutability": "view",
      "type": "function"
    },
    {
      "inputs": [],
      "name": "safeApproveAllTokens",
      "outputs": [],
      "stateMutability": "nonpayable",
      "type": "function"
    },
    {
      "inputs": [
        {
          "internalType": "address",
          "name": "_harvesterAddress",
          "type": "address"
        }
      ],
      "name": "setHarvesterAddress",
      "outputs": [],
      "stateMutability": "nonpayable",
      "type": "function"
    },
    {
      "inputs": [
        {
          "internalType": "address",
          "name": "_asset",
          "type": "address"
        },
        {
          "internalType": "address",
          "name": "_pToken",
          "type": "address"
        }
      ],
      "name": "setPTokenAddress",
      "outputs": [],
      "stateMutability": "nonpayable",
      "type": "function"
    },
    {
      "inputs": [
        {
          "internalType": "address",
          "name": "_gauge",
          "type": "address"
        },
        {
          "internalType": "address",
          "name": "_dystPair",
          "type": "address"
        },
        {
          "internalType": "address",
          "name": "_dystRouter",
          "type": "address"
        },
        {
          "internalType": "address",
          "name": "_balancerVault",
          "type": "address"
        },
        {
          "internalType": "bytes32",
          "name": "_poolId",
          "type": "bytes32"
        },
        {
          "internalType": "address",
          "name": "_userProxy",
          "type": "address"
        },
        {
          "internalType": "address",
          "name": "_penLens",
          "type": "address"
        },
        {
          "internalType": "address",
          "name": "_penToken",
          "type": "address"
        }
      ],
      "name": "setParams",
      "outputs": [],
      "stateMutability": "nonpayable",
      "type": "function"
    },
    {
      "inputs": [
        {
          "internalType": "address[]",
          "name": "_rewardTokenAddresses",
          "type": "address[]"
        }
      ],
      "name": "setRewardTokenAddresses",
      "outputs": [],
      "stateMutability": "nonpayable",
      "type": "function"
    },
    {
      "inputs": [
        {
          "internalType": "address",
          "name": "_asset",
          "type": "address"
        }
      ],
      "name": "supportsAsset",
      "outputs": [
        {
          "internalType": "bool",
          "name": "",
          "type": "bool"
        }
      ],
      "stateMutability": "view",
      "type": "function"
    },
    {
      "inputs": [],
      "name": "token0",
      "outputs": [
        {
          "internalType": "contract IERC20",
          "name": "",
          "type": "address"
        }
      ],
      "stateMutability": "view",
      "type": "function"
    },
    {
      "inputs": [],
      "name": "token1",
      "outputs": [
        {
          "internalType": "contract IERC20",
          "name": "",
          "type": "address"
        }
      ],
      "stateMutability": "view",
      "type": "function"
    },
    {
      "inputs": [
        {
          "internalType": "address",
          "name": "_newGovernor",
          "type": "address"
        }
      ],
      "name": "transferGovernance",
      "outputs": [],
      "stateMutability": "nonpayable",
      "type": "function"
    },
    {
      "inputs": [
        {
          "internalType": "address",
          "name": "_asset",
          "type": "address"
        },
        {
          "internalType": "uint256",
          "name": "_amount",
          "type": "uint256"
        }
      ],
      "name": "transferToken",
      "outputs": [],
      "stateMutability": "nonpayable",
      "type": "function"
    },
    {
      "inputs": [],
      "name": "userProxy",
      "outputs": [
        {
          "internalType": "contract IUserProxy",
          "name": "",
          "type": "address"
        }
      ],
      "stateMutability": "view",
      "type": "function"
    },
    {
      "inputs": [],
      "name": "vaultAddress",
      "outputs": [
        {
          "internalType": "address",
          "name": "",
          "type": "address"
        }
      ],
      "stateMutability": "view",
      "type": "function"
    },
    {
      "inputs": [
        {
          "internalType": "address",
          "name": "_beneficiary",
          "type": "address"
        },
        {
          "internalType": "address",
          "name": "_asset",
          "type": "address"
        },
        {
          "internalType": "uint256",
          "name": "_amount",
          "type": "uint256"
        }
      ],
      "name": "withdraw",
      "outputs": [],
      "stateMutability": "nonpayable",
      "type": "function"
    },
    {
      "inputs": [],
      "name": "withdrawAll",
      "outputs": [],
      "stateMutability": "nonpayable",
      "type": "function"
    }
  ],
  "transactionHash": "0x5038bc8a7ef2c771125db24f121de939ec6cedff5caf426e660b94c8118d99ed",
  "args": [],
  "solcInputHash": "5c59d1940f5b316b29c3b177eb2fc83f",
  "bytecode": "0x60806040523480156200001157600080fd5b506200002a3360008051602062005f7383398151915255565b60008051602062005f73833981519152546040516001600160a01b03909116906000907fc7c0c772add429241571afb3805861fb3cfa2af374534088b76cdb4325a87e9a908290a3615ef180620000826000396000f3fe608060405234801561001057600080fd5b50600436106102695760003560e01c80638b2ddd1411610151578063c7af3352116100c3578063dbe55e5611610087578063dbe55e561461054a578063de5f62681461055d578063e54bef7514610565578063f664b3d914610579578063f6ca71b014610581578063f817bc631461059657600080fd5b8063c7af3352146104f4578063d21220a7146104fc578063d2f2489314610510578063d38bfff414610524578063d9caed121461053757600080fd5b8063aa388af611610115578063aa388af61461047f578063ad1728cb146102fc578063b0492aa5146104b2578063b3bba24d146104c6578063c2e1e3f4146104d9578063c71daccb146104ec57600080fd5b80638b2ddd141461041e5780639136616a146104325780639688d2fc1461044557806396d538bb14610458578063a6f19c841461046b57600080fd5b8063430bf08a116101ea5780635d85786d116101ae5780635d85786d146103b55780635f8cddfe146103c957806367c7066c146103dd5780637b2d9b2c146103f05780637e2d3a1514610403578063853828b61461041657600080fd5b8063430bf08a1461036b57806345fb50071461037e57806347e7ef24146103925780635a063f63146103a55780635d36b190146103ad57600080fd5b80630fc3b4c4116102315780630fc3b4c4146102fe5780631072cbea146103275780632e6552011461033a5780633e0dc34e1461034d5780633ec632161461035757600080fd5b8063063bde241461026e5780630b7132cf146102945780630c340a24146102b55780630dfe1681146102d55780630ed57b3a146102e9575b600080fd5b6102816b033b2e3c9fd0803ce800000081565b6040519081526020015b60405180910390f35b6102816102a2366004614fc4565b6101016020526000908152604090205481565b6102bd61059f565b6040516001600160a01b03909116815260200161028b565b610108546102bd906001600160a01b031681565b6102fc6102f7366004614ffe565b6105bc565b005b6102bd61030c366004614fc4565b6035602052600090815260409020546001600160a01b031681565b6102fc6103353660046152ea565b6105f7565b6037546102bd906001600160a01b031681565b6102816101055481565b61010c546102bd906001600160a01b031681565b6034546102bd906001600160a01b031681565b610107546102bd906001600160a01b031681565b6102fc6103a03660046152ea565b610637565b6102fc6106d8565b6102fc610777565b610104546102bd906001600160a01b031681565b610103546102bd906001600160a01b031681565b6039546102bd906001600160a01b031681565b6102bd6103fe3660046154dc565b61081d565b6102fc610411366004615196565b610847565b6102fc610b6d565b61010d546102bd906001600160a01b031681565b6102fc6104403660046154dc565b61107b565b6102fc6104533660046150d7565b611246565b6102fc610466366004615316565b61134f565b610102546102bd906001600160a01b031681565b6104a261048d366004614fc4565b610106546001600160a01b0391821691161490565b604051901515815260200161028b565b61010a546102bd906001600160a01b031681565b6102fc6104d4366004615037565b611475565b6102fc6104e7366004614fc4565b611540565b6102816115bf565b6104a2611b11565b610109546102bd906001600160a01b031681565b610106546102bd906001600160a01b031681565b6102fc610532366004614fc4565b611b42565b6102fc610545366004615276565b611be6565b6033546102bd906001600160a01b031681565b6102fc61210b565b61010b546102bd906001600160a01b031681565b610281600481565b6105896121f0565b60405161028b9190615777565b61028160385481565b60006105b7600080516020615e6f8339815191525490565b905090565b6105c4611b11565b6105e95760405162461bcd60e51b81526004016105e090615919565b60405180910390fd5b6105f38282612252565b5050565b6105ff611b11565b61061b5760405162461bcd60e51b81526004016105e090615919565b6105f361062661059f565b6001600160a01b03841690836123b1565b6034546001600160a01b031633146106615760405162461bcd60e51b81526004016105e0906158e2565b600080516020615e4f833981519152805460028114156106935760405162461bcd60e51b81526004016105e0906159cc565b60028255610106546001600160a01b038581169116146106c55760405162461bcd60e51b81526004016105e09061599e565b6106cf8484612407565b50600190555050565b6039546001600160a01b031633146107325760405162461bcd60e51b815260206004820152601b60248201527f43616c6c6572206973206e6f742074686520486172766573746572000000000060448201526064016105e0565b600080516020615e4f833981519152805460028114156107645760405162461bcd60e51b81526004016105e0906159cc565b600282556107706127b5565b5060019055565b7f7eaf9a7750884803435dfabc67aa617a7d8fefb23d8d84b3c9722bd69e48c4bc546001600160a01b0316336001600160a01b0316146108125760405162461bcd60e51b815260206004820152603060248201527f4f6e6c79207468652070656e64696e6720476f7665726e6f722063616e20636f60448201526f6d706c6574652074686520636c61696d60801b60648201526084016105e0565b61081b33612c8a565b565b603a818154811061082d57600080fd5b6000918252602090912001546001600160a01b0316905081565b61084f611b11565b61086b5760405162461bcd60e51b81526004016105e090615919565b600054610100900460ff1680610884575060005460ff16155b6108a05760405162461bcd60e51b81526004016105e090615950565b600054610100900460ff161580156108c2576000805461ffff19166101011790555b868660008181106108d5576108d5615e0d565b90506020020160208101906108ea9190614fc4565b61010880546001600160a01b0319166001600160a01b03929092169190911790558686600181811061091e5761091e615e0d565b90506020020160208101906109339190614fc4565b61010980546001600160a01b03199081166001600160a01b0393841617909155610106805482168684161790556101078054821685841617905561010a8054909116918d16919091179055858481146109c55760405162461bcd60e51b8152602060048201526014602482015273496e76616c696420696e7075742061727261797360601b60448201526064016105e0565b60005b81811015610aca578888828181106109e2576109e2615e0d565b90506020020160208101906109f79190614fc4565b6001600160a01b031663313ce5676040518163ffffffff1660e01b815260040160206040518083038186803b158015610a2f57600080fd5b505afa158015610a43573d6000803e3d6000fd5b505050506040513d601f19601f82011682018060405250810190610a679190615560565b610a7290600a615c5c565b61010160008b8b85818110610a8957610a89615e0d565b9050602002016020810190610a9e9190614fc4565b6001600160a01b0316815260208101919091526040016000205580610ac281615d90565b9150506109c8565b50610b4d8c8c8c8c8c8c80806020026020016040519081016040528093929190818152602001838360200280828437600081840152601f19601f820116905080830192505050505050508b8b80806020026020016040519081016040528093929190818152602001838360200280828437600092019190915250612d4e92505050565b508015610b60576000805461ff00191690555b5050505050505050505050565b6034546001600160a01b0316331480610b9e5750610b8961059f565b6001600160a01b0316336001600160a01b0316145b610bf65760405162461bcd60e51b815260206004820152602360248201527f43616c6c6572206973206e6f7420746865205661756c74206f7220476f7665726044820152623737b960e91b60648201526084016105e0565b600080516020615e4f83398151915280546002811415610c285760405162461bcd60e51b81526004016105e0906159cc565b60028255600080610c37612e37565b91509150610c43613060565b61010d54604051636f4ba70b60e11b81523060048201526000916001600160a01b03169063de974e169060240160206040518083038186803b158015610c8857600080fd5b505afa158015610c9c573d6000803e3d6000fd5b505050506040513d601f19601f82011682018060405250810190610cc09190614fe1565b61010d546101035460405163478a0c7960e11b81526001600160a01b039182166004820152929350600092911690638f1418f29060240160206040518083038186803b158015610d0f57600080fd5b505afa158015610d23573d6000803e3d6000fd5b505050506040513d601f19601f82011682018060405250810190610d479190614fe1565b6040516370a0823160e01b81526001600160a01b0384811660048301529192506000918316906370a082319060240160206040518083038186803b158015610d8e57600080fd5b505afa158015610da2573d6000803e3d6000fd5b505050506040513d601f19601f82011682018060405250810190610dc691906154f5565b905080610dd7575050505050610770565b61010c546101035460405163fce07e8960e01b81526001600160a01b039283169263fce07e8992610e0f92911690859060040161575e565b600060405180830381600087803b158015610e2957600080fd5b505af1158015610e3d573d6000803e3d6000fd5b5050610103546040516370a0823160e01b8152306004820152600093506001600160a01b0390911691506370a082319060240160206040518083038186803b158015610e8857600080fd5b505afa158015610e9c573d6000803e3d6000fd5b505050506040513d601f19601f82011682018060405250810190610ec091906154f5565b90508015610fbf5761010354604080516318160ddd60e01b815290516000926001600160a01b0316916318160ddd916004808301926020929190829003018186803b158015610f0e57600080fd5b505afa158015610f22573d6000803e3d6000fd5b505050506040513d601f19601f82011682018060405250810190610f4691906154f5565b9050600081610f55848a615d07565b610f5f9190615bf7565b9050600082610f6e858a615d07565b610f789190615bf7565b610108546101095461010354929350610fb9926001600160a01b0392831692918216911687610fa887600461337e565b610fb387600461337e565b306133aa565b50505050505b610fc7613519565b610106546040516370a0823160e01b81523060048201526000916001600160a01b0316906370a082319060240160206040518083038186803b15801561100c57600080fd5b505afa158015611020573d6000803e3d6000fd5b505050506040513d601f19601f8201168201806040525081019061104491906154f5565b60345461010654919250611065916001600160a01b039081169116836123b1565b61106d6127b5565b505050505050505060019055565b611083611b11565b61109f5760405162461bcd60e51b81526004016105e090615919565b60365481106110e05760405162461bcd60e51b815260206004820152600d60248201526c092dcecc2d8d2c840d2dcc8caf609b1b60448201526064016105e0565b6000603682815481106110f5576110f5615e0d565b60009182526020808320909101546001600160a01b0390811680845260359092526040909220546036549193509091169061113290600190615d26565b8310156111b4576036805461114990600190615d26565b8154811061115957611159615e0d565b600091825260209091200154603680546001600160a01b03909216918590811061118557611185615e0d565b9060005260206000200160006101000a8154816001600160a01b0302191690836001600160a01b031602179055505b60368054806111c5576111c5615df7565b60008281526020808220600019908401810180546001600160a01b031990811690915593019093556001600160a01b038581168083526035855260409283902080549094169093559051908416815290917f16b7600acff27e39a8a96056b3d533045298de927507f5c1d97e4accde60488c910160405180910390a2505050565b61124e611b11565b61126a5760405162461bcd60e51b81526004016105e090615919565b600054610100900460ff1680611283575060005460ff16155b61129f5760405162461bcd60e51b81526004016105e090615950565b600054610100900460ff161580156112c1576000805461ffff19166101011790555b6113328989898989898080602002602001604051908101604052809392919081815260200183836020028082843760009201919091525050604080516020808d0282810182019093528c82529093508c92508b918291850190849080828437600092019190915250612d4e92505050565b8015611344576000805461ff00191690555b505050505050505050565b611357611b11565b6113735760405162461bcd60e51b81526004016105e090615919565b60005b8181101561142757600083838381811061139257611392615e0d565b90506020020160208101906113a79190614fc4565b6001600160a01b031614156114155760405162461bcd60e51b815260206004820152602e60248201527f43616e206e6f742073657420616e20656d70747920616464726573732061732060448201526d30903932bbb0b932103a37b5b2b760911b60648201526084016105e0565b8061141f81615d90565b915050611376565b507f04c0b9649497d316554306e53678d5f5f5dbc3a06f97dec13ff4cfe98b986bbc603a838360405161145c9392919061578a565b60405180910390a1611470603a8383614e67565b505050565b61147d611b11565b6114995760405162461bcd60e51b81526004016105e090615919565b60cf80546001600160a01b0319166001600160a01b03871617905561010584905561010280546001600160a01b038a81166001600160a01b03199283161790925561010380548a8416908316179055609d80549289169290911691909117905561010c80546001600160a01b039485166001600160a01b03199182161790915561010d80549385169382169390931790925561010b80549190931691161790555050505050565b611548611b11565b6115645760405162461bcd60e51b81526004016105e090615919565b603980546001600160a01b0319166001600160a01b0383169081179091556040805182815260208101929092527fe48386b84419f4d36e0f96c10cc3510b6fb1a33795620c5098b22472bbe90796910160405180910390a150565b610106546040516370a0823160e01b815230600482015260009182916001600160a01b03909116906370a082319060240160206040518083038186803b15801561160857600080fd5b505afa15801561161c573d6000803e3d6000fd5b505050506040513d601f19601f8201168201806040525081019061164091906154f5565b610108546040516370a0823160e01b81523060048201529192506000916001600160a01b03909116906370a082319060240160206040518083038186803b15801561168a57600080fd5b505afa15801561169e573d6000803e3d6000fd5b505050506040513d601f19601f820116820180604052508101906116c291906154f5565b610109546040516370a0823160e01b81523060048201529192506000916001600160a01b03909116906370a082319060240160206040518083038186803b15801561170c57600080fd5b505afa158015611720573d6000803e3d6000fd5b505050506040513d601f19601f8201168201806040525081019061174491906154f5565b61010d54604051636f4ba70b60e11b81523060048201529192506000916001600160a01b039091169063de974e169060240160206040518083038186803b15801561178e57600080fd5b505afa1580156117a2573d6000803e3d6000fd5b505050506040513d601f19601f820116820180604052508101906117c69190614fe1565b61010d546101035460405163478a0c7960e11b81526001600160a01b039182166004820152929350600092911690638f1418f29060240160206040518083038186803b15801561181557600080fd5b505afa158015611829573d6000803e3d6000fd5b505050506040513d601f19601f8201168201806040525081019061184d9190614fe1565b6040516370a0823160e01b81526001600160a01b0384811660048301529192506000918316906370a082319060240160206040518083038186803b15801561189457600080fd5b505afa1580156118a8573d6000803e3d6000fd5b505050506040513d601f19601f820116820180604052508101906118cc91906154f5565b610102546040516370a0823160e01b81523060048201529192506001600160a01b0316906370a082319060240160206040518083038186803b15801561191157600080fd5b505afa158015611925573d6000803e3d6000fd5b505050506040513d601f19601f8201168201806040525081019061194991906154f5565b6119539082615bdf565b90508015611a315761010354604080516318160ddd60e01b815290516000926001600160a01b0316916318160ddd916004808301926020929190829003018186803b1580156119a157600080fd5b505afa1580156119b5573d6000803e3d6000fd5b505050506040513d601f19601f820116820180604052508101906119d991906154f5565b90506000806119e6612e37565b9092509050826119f68584615d07565b611a009190615bf7565b611a0a9089615bdf565b975082611a178583615d07565b611a219190615bf7565b611a2b9088615bdf565b96505050505b61010654610108546000916001600160a01b03918216911614611a83578515611a7e57610105546101085461010654611a7b92916000916001600160a01b0391821691168a613748565b90505b611a90565b611a8d8682615bdf565b90505b61010654610109546000916001600160a01b03918216911614611ae2578515611add57610105546101095461010654611ada92916000916001600160a01b0391821691168a613748565b90505b611aef565b611aec8682615bdf565b90505b87611afa8284615bdf565b611b049190615bdf565b9850505050505050505090565b6000611b29600080516020615e6f8339815191525490565b6001600160a01b0316336001600160a01b031614905090565b611b4a611b11565b611b665760405162461bcd60e51b81526004016105e090615919565b611b8e817f7eaf9a7750884803435dfabc67aa617a7d8fefb23d8d84b3c9722bd69e48c4bc55565b806001600160a01b0316611bae600080516020615e6f8339815191525490565b6001600160a01b03167fa39cc5eb22d0f34d8beaefee8a3f17cc229c1a1d1ef87a5ad47313487b1c4f0d60405160405180910390a350565b6034546001600160a01b03163314611c105760405162461bcd60e51b81526004016105e0906158e2565b600080516020615e4f83398151915280546002811415611c425760405162461bcd60e51b81526004016105e0906159cc565b60028255610106546001600160a01b03858116911614611c745760405162461bcd60e51b81526004016105e09061599e565b600080611c7f612e37565b61010d54604051636f4ba70b60e11b81523060048201529294509092506000916001600160a01b039091169063de974e169060240160206040518083038186803b158015611ccc57600080fd5b505afa158015611ce0573d6000803e3d6000fd5b505050506040513d601f19601f82011682018060405250810190611d049190614fe1565b61010d546101035460405163478a0c7960e11b81526001600160a01b039182166004820152929350600092911690638f1418f29060240160206040518083038186803b158015611d5357600080fd5b505afa158015611d67573d6000803e3d6000fd5b505050506040513d601f19601f82011682018060405250810190611d8b9190614fe1565b6040516370a0823160e01b81526001600160a01b0384811660048301529192506000918316906370a082319060240160206040518083038186803b158015611dd257600080fd5b505afa158015611de6573d6000803e3d6000fd5b505050506040513d601f19601f82011682018060405250810190611e0a91906154f5565b9050801561205a5761010354604080516318160ddd60e01b815290516000926001600160a01b0316916318160ddd916004808301926020929190829003018186803b158015611e5857600080fd5b505afa158015611e6c573d6000803e3d6000fd5b505050506040513d601f19601f82011682018060405250810190611e9091906154f5565b90506000611ee2611ea28b6004613c2c565b610108546001600160a01b03908116600081815261010160205260408082205461010954909416808352912054610105548d948d948a9491939291613c3b565b905082811115611eef5750815b61010c546101035460405163fce07e8960e01b81526001600160a01b039283169263fce07e8992611f2792911690859060040161575e565b600060405180830381600087803b158015611f4157600080fd5b505af1158015611f55573d6000803e3d6000fd5b5050610103546040516370a0823160e01b8152306004820152600093506001600160a01b0390911691506370a082319060240160206040518083038186803b158015611fa057600080fd5b505afa158015611fb4573d6000803e3d6000fd5b505050506040513d601f19601f82011682018060405250810190611fd891906154f5565b905061205461010860009054906101000a90046001600160a01b031661010960009054906101000a90046001600160a01b031661010360009054906101000a90046001600160a01b03168461204488878f6120339190615d07565b61203d9190615bf7565b600461337e565b610fb389888f6120339190615d07565b50505050505b612062613519565b610106546040516370a0823160e01b81523060048201526000916001600160a01b0316906370a082319060240160206040518083038186803b1580156120a757600080fd5b505afa1580156120bb573d6000803e3d6000fd5b505050506040513d601f19601f820116820180604052508101906120df91906154f5565b610106549091506120fa906001600160a01b03168c836123b1565b505050505050600182555050505050565b6034546001600160a01b031633146121355760405162461bcd60e51b81526004016105e0906158e2565b600080516020615e4f833981519152805460028114156121675760405162461bcd60e51b81526004016105e0906159cc565b60028255610106546040516370a0823160e01b8152306004820152610770916001600160a01b03169081906370a082319060240160206040518083038186803b1580156121b357600080fd5b505afa1580156121c7573d6000803e3d6000fd5b505050506040513d601f19601f820116820180604052508101906121eb91906154f5565b612407565b6060603a80548060200260200160405190810160405280929190818152602001828054801561224857602002820191906000526020600020905b81546001600160a01b0316815260019091019060200180831161222a575b5050505050905090565b6001600160a01b0382811660009081526035602052604090205416156122af5760405162461bcd60e51b81526020600482015260126024820152711c151bdad95b88185b1c9958591e481cd95d60721b60448201526064016105e0565b6001600160a01b038216158015906122cf57506001600160a01b03811615155b61230f5760405162461bcd60e51b8152602060048201526011602482015270496e76616c69642061646472657373657360781b60448201526064016105e0565b6001600160a01b03828116600081815260356020908152604080832080549587166001600160a01b031996871681179091556036805460018101825594527f4a11f94e20a93c79f6ec743a1954ec4fc2c08429ae2122118bf234b2185c81b890930180549095168417909455925190815290917fef6485b84315f9b1483beffa32aae9a0596890395e3d7521f1c5fbb51790e765910160405180910390a25050565b6114708363a9059cbb60e01b84846040516024016123d092919061575e565b60408051601f198184030181529190526020810180516001600160e01b03166001600160e01b031990931692909217909152613d19565b610106546001600160a01b038381169116146124355760405162461bcd60e51b81526004016105e09061599e565b600080612440612e37565b9150915061244c613deb565b610109546040516370a0823160e01b81523060048201526000916001600160a01b0316906370a082319060240160206040518083038186803b15801561249157600080fd5b505afa1580156124a5573d6000803e3d6000fd5b505050506040513d601f19601f820116820180604052508101906124c991906154f5565b9050600081156124fd576101055461010954610108546124fa92916000916001600160a01b03918216911686613748565b90505b610108546040516370a0823160e01b81523060048201526000916001600160a01b0316906370a082319060240160206040518083038186803b15801561254257600080fd5b505afa158015612556573d6000803e3d6000fd5b505050506040513d601f19601f8201168201806040525081019061257a91906154f5565b610108546001600160a01b03908116600081815261010160205260408082205461010954909416808352908220546101055495965091946125c89487948c948c949293909260019290613eaf565b6101055461010854610109549293506125f4926000916001600160a01b03908116911630808785613fa7565b50610108546040516370a0823160e01b81523060048201526001600160a01b03909116906370a082319060240160206040518083038186803b15801561263957600080fd5b505afa15801561264d573d6000803e3d6000fd5b505050506040513d601f19601f8201168201806040525081019061267191906154f5565b610109546040516370a0823160e01b81523060048201529193506001600160a01b0316906370a082319060240160206040518083038186803b1580156126b657600080fd5b505afa1580156126ca573d6000803e3d6000fd5b505050506040513d601f19601f820116820180604052508101906126ee91906154f5565b6101085461010954919550612728916001600160a01b039182169116848761271782600461337e565b6127228a600461337e565b306142f9565b5050610103546040516370a0823160e01b8152306004820152600092506001600160a01b03909116906370a082319060240160206040518083038186803b15801561277257600080fd5b505afa158015612786573d6000803e3d6000fd5b505050506040513d601f19601f820116820180604052508101906127aa91906154f5565b9050611344816144fa565b6127f36040518060400160405280601e81526020017f5374617274696e6720636f6c6c656374696f6e206f662072657761726473000081525061466e565b6127fb613060565b61281c6040518060600160405280602d8152602001615e8f602d913961466e565b61010c60009054906101000a90046001600160a01b03166001600160a01b0316636b69e05b6040518163ffffffff1660e01b8152600401600060405180830381600087803b15801561286d57600080fd5b505af1158015612881573d6000803e3d6000fd5b505050506128c36040518060400160405280601a81526020017f636c61696d5374616b696e67526577617264732063616c6c656400000000000081525061466e565b61010a546040516370a0823160e01b815230600482015260009182916001600160a01b03909116906370a082319060240160206040518083038186803b15801561290c57600080fd5b505afa158015612920573d6000803e3d6000fd5b505050506040513d601f19601f8201168201806040525081019061294491906154f5565b90506129756040518060400160405280600d81526020016c0323cb9ba2130b630b731b29d1609d1b815250826146b1565b80156129b85761010a5461010754610108546000926129a8926001600160a01b03918216929082169116848087306146f6565b90506129b48184615bdf565b9250505b6129e46040518060400160405280600a815260200169746f74616c557364633d60b01b815250836146b1565b61010b546040516370a0823160e01b81523060048201526000916001600160a01b0316906370a082319060240160206040518083038186803b158015612a2957600080fd5b505afa158015612a3d573d6000803e3d6000fd5b505050506040513d601f19601f82011682018060405250810190612a6191906154f5565b9050612a916040518060400160405280600c81526020016b03832b72130b630b731b29d160a51b815250826146b1565b8015612afd5761010b546101075461010654600092612ac4926001600160a01b03918216929082169116848087306146f6565b9050612aef6040518060400160405280600781526020016670656e5573646360c81b815250826146b1565b612af98185615bdf565b9350505b610106546040516370a0823160e01b81523060048201526000916001600160a01b0316906370a082319060240160206040518083038186803b158015612b4257600080fd5b505afa158015612b56573d6000803e3d6000fd5b505050506040513d601f19601f82011682018060405250810190612b7a91906154f5565b9050612ba76040518060400160405280600981526020016803130b630b731b29d160bd1b815250826146b1565b60395461010654604080516001600160a01b03938416815292909116602083015281018290527ff6c07a063ed4e63808eb8da7112d46dbcd38de2b40a73dbcc9353c5a94c723539060600160405180910390a16101065460395460405163a9059cbb60e01b81526001600160a01b039283169263a9059cbb92612c3192911690859060040161575e565b602060405180830381600087803b158015612c4b57600080fd5b505af1158015612c5f573d6000803e3d6000fd5b505050506040513d601f19601f82011682018060405250810190612c83919061546a565b5050505050565b6001600160a01b038116612ce05760405162461bcd60e51b815260206004820152601a60248201527f4e657720476f7665726e6f72206973206164647265737328302900000000000060448201526064016105e0565b806001600160a01b0316612d00600080516020615e6f8339815191525490565b6001600160a01b03167fc7c0c772add429241571afb3805861fb3cfa2af374534088b76cdb4325a87e9a60405160405180910390a3612d4b81600080516020615e6f83398151915255565b50565b603380546001600160a01b038089166001600160a01b0319928316179092556034805492881692909116919091179055612d8a603a8585614e67565b50815181518114612dd45760405162461bcd60e51b8152602060048201526014602482015273496e76616c696420696e7075742061727261797360601b60448201526064016105e0565b60005b81811015612e2d57612e1b848281518110612df457612df4615e0d565b6020026020010151848381518110612e0e57612e0e615e0d565b6020026020010151612252565b80612e2581615d90565b915050612dd7565b5050505050505050565b60008060008061010360009054906101000a90046001600160a01b03166001600160a01b0316630902f1ac6040518163ffffffff1660e01b815260040160606040518083038186803b158015612e8c57600080fd5b505afa158015612ea0573d6000803e3d6000fd5b505050506040513d601f19601f82011682018060405250810190612ec4919061548c565b506001600160701b031691506001600160701b03169150600361010860009054906101000a90046001600160a01b03166001600160a01b031663313ce5676040518163ffffffff1660e01b815260040160206040518083038186803b158015612f2c57600080fd5b505afa158015612f40573d6000803e3d6000fd5b505050506040513d601f19601f82011682018060405250810190612f649190615560565b612f6e9190615d3d565b612f7990600a615c5c565b821180156130185750610109546040805163313ce56760e01b815290516003926001600160a01b03169163313ce567916004808301926020929190829003018186803b158015612fc857600080fd5b505afa158015612fdc573d6000803e3d6000fd5b505050506040513d601f19601f820116820180604052508101906130009190615560565b61300a9190615d3d565b61301590600a615c5c565b81115b6130575760405162461bcd60e51b815260206004820152601060248201526f526573657276657320746f6f206c6f7760801b60448201526064016105e0565b90939092509050565b610102546040516370a0823160e01b81523060048201526000916001600160a01b0316906370a082319060240160206040518083038186803b1580156130a557600080fd5b505afa1580156130b9573d6000803e3d6000fd5b505050506040513d601f19601f820116820180604052508101906130dd91906154f5565b90508015612d4b5760408051600180825281830190925260009160208083019080368337505061010a5482519293506001600160a01b03169183915060009061312857613128615e0d565b6001600160a01b039283166020918202929092010152610102546040516331279d3d60e01b81529116906331279d3d90613168903090859060040161573a565b600060405180830381600087803b15801561318257600080fd5b505af1158015613196573d6000803e3d6000fd5b5050505061010260009054906101000a90046001600160a01b03166001600160a01b031663853828b66040518163ffffffff1660e01b8152600401600060405180830381600087803b1580156131eb57600080fd5b505af11580156131ff573d6000803e3d6000fd5b5050610103546040516370a0823160e01b8152306004820152600093506001600160a01b0390911691506370a082319060240160206040518083038186803b15801561324a57600080fd5b505afa15801561325e573d6000803e3d6000fd5b505050506040513d601f19601f8201168201806040525081019061328291906154f5565b6101035461010c5460405163095ea7b360e01b81529293506001600160a01b039182169263095ea7b3926132bc921690859060040161575e565b602060405180830381600087803b1580156132d657600080fd5b505af11580156132ea573d6000803e3d6000fd5b505050506040513d601f19601f8201168201806040525081019061330e919061546a565b5061010c54610103546040516351b3839960e11b81526001600160a01b039283169263a36707329261334792911690859060040161575e565b600060405180830381600087803b15801561336157600080fd5b505af1158015613375573d6000803e3d6000fd5b50505050505050565b600061271061338d8382615d26565b6133979085615d07565b6133a19190615bf7565b90505b92915050565b609d5460405163095ea7b360e01b815260009182916001600160a01b038981169263095ea7b3926133e392909116908a9060040161575e565b602060405180830381600087803b1580156133fd57600080fd5b505af1158015613411573d6000803e3d6000fd5b505050506040513d601f19601f82011682018060405250810190613435919061546a565b50609d546001600160a01b0316630dede6c48a8a60018a8a8a8a61345b42610258615bdf565b60405160e08a901b6001600160e01b03191681526001600160a01b039889166004820152968816602488015294151560448701526064860193909352608485019190915260a484015290921660c482015260e4810191909152610104016040805180830381600087803b1580156134d157600080fd5b505af11580156134e5573d6000803e3d6000fd5b505050506040513d601f19601f82011682018060405250810190613509919061550e565b9150915097509795505050505050565b61010654610108546001600160a01b039081169116148015906135b65750610108546040516370a0823160e01b81523060048201526000916001600160a01b0316906370a082319060240160206040518083038186803b15801561357c57600080fd5b505afa158015613590573d6000803e3d6000fd5b505050506040513d601f19601f820116820180604052508101906135b491906154f5565b115b1561365b576101055461010854610106546040516370a0823160e01b8152306004820181905261365994936000936001600160a01b039182169391169190819084906370a08231906024015b60206040518083038186803b15801561361a57600080fd5b505afa15801561362e573d6000803e3d6000fd5b505050506040513d601f19601f8201168201806040525081019061365291906154f5565b6000613fa7565b505b61010654610109546001600160a01b039081169116148015906136f85750610109546040516370a0823160e01b81523060048201526000916001600160a01b0316906370a082319060240160206040518083038186803b1580156136be57600080fd5b505afa1580156136d2573d6000803e3d6000fd5b505050506040513d601f19601f820116820180604052508101906136f691906154f5565b115b1561081b576101055461010954610106546040516370a0823160e01b81523060048201819052612d4b94936000936001600160a01b039182169391169190819084906370a0823190602401613602565b604080516101208101825260008082526020820181905291810182905260608082018390526080820183905260a0820183905260c0820183905260e08201839052610100820152808660018111156137a2576137a2615de1565b908160018111156137b5576137b5615de1565b9052506001600160a01b0385811660208301528481166040808401919091526060830185905260cf549051631f29a8cd60e31b8152600481018a90526000928392839291169063f94d46689060240160006040518083038186803b15801561381c57600080fd5b505afa158015613830573d6000803e3d6000fd5b505050506040513d6000823e601f3d908101601f191682016040526138589190810190615358565b60cf5460405163f6c0092760e01b8152600481018f9052939650919450925060009182916001600160a01b03169063f6c0092790602401604080518083038186803b1580156138a657600080fd5b505afa1580156138ba573d6000803e3d6000fd5b505050506040513d601f19601f820116820180604052508101906138de91906152b7565b909250905060008160028111156138f7576138f7615de1565b1415613a305760008060005b87518160ff16101561399f578c6001600160a01b0316888260ff168151811061392e5761392e615e0d565b60200260200101516001600160a01b03161415613950578060ff16925061398d565b8b6001600160a01b0316888260ff168151811061396f5761396f615e0d565b60200260200101516001600160a01b0316141561398d578060ff1691505b8061399781615dab565b915050613903565b5060405162f64aa560e11b81526001600160a01b038516906301ec954a906139d1908b908a9087908790600401615aaf565b60206040518083038186803b1580156139e957600080fd5b505afa1580156139fd573d6000803e3d6000fd5b505050506040513d601f19601f82011682018060405250810190613a2191906154f5565b98505050505050505050613c23565b6001816002811115613a4457613a44615de1565b1415613b4f5760008060005b87518160ff161015613b1e578c6001600160a01b0316888260ff1681518110613a7b57613a7b615e0d565b60200260200101516001600160a01b03161415613ab657868160ff1681518110613aa757613aa7615e0d565b60200260200101519250613b0c565b8b6001600160a01b0316888260ff1681518110613ad557613ad5615e0d565b60200260200101516001600160a01b03161415613b0c57868160ff1681518110613b0157613b01615e0d565b602002602001015191505b80613b1681615dab565b915050613a50565b5060405163274b044360e21b81526001600160a01b03851690639d2c110c906139d1908b9086908690600401615b10565b60008060005b87518160ff161015613b1e578c6001600160a01b0316888260ff1681518110613b8057613b80615e0d565b60200260200101516001600160a01b03161415613bbb57868160ff1681518110613bac57613bac615e0d565b60200260200101519250613c11565b8b6001600160a01b0316888260ff1681518110613bda57613bda615e0d565b60200260200101516001600160a01b03161415613c1157868160ff1681518110613c0657613c06615e0d565b602002602001015191505b80613c1b81615dab565b915050613b55565b95945050505050565b600061271061338d8382615bdf565b600080613c48878a615d07565b613c52878c615d07565b613c5c9190615bdf565b86613c678d8b615d07565b613c719190615d07565b613c7b9190615bf7565b905060005b6001811015613d0a57600089613c96848d615d07565b613ca09190615bf7565b90506000613cb2886000888a86613748565b9050613cbe818d615d07565b613cc8838f615d07565b613cd29190615bdf565b828f8d613cdf9190615d07565b613ce99190615d07565b613cf39190615bf7565b935050508080613d0290615d90565b915050613c80565b509a9950505050505050505050565b6000613d6e826040518060400160405280602081526020017f5361666545524332303a206c6f772d6c6576656c2063616c6c206661696c6564815250856001600160a01b03166149e09092919063ffffffff16565b8051909150156114705780806020019051810190613d8c919061546a565b6114705760405162461bcd60e51b815260206004820152602a60248201527f5361666545524332303a204552433230206f7065726174696f6e20646964206e6044820152691bdd081cdd58d8d9595960b21b60648201526084016105e0565b610106546040516370a0823160e01b81523060048201526000916001600160a01b0316906370a082319060240160206040518083038186803b158015613e3057600080fd5b505afa158015613e44573d6000803e3d6000fd5b505050506040513d601f19601f82011682018060405250810190613e6891906154f5565b61010854610106549192506001600160a01b03918216911614612d4b576101055461010654610108546105f392916000916001600160a01b03918216911630808785613fa7565b6000808888613ebe898d615d07565b613ec89190615bf7565b613ed29190615bdf565b613edc8a8d615d07565b613ee69190615bf7565b9050613f176040518060400160405280600d81526020016c0616d6f756e7430546f5377617609c1b815250826146b1565b60005b86811015613d0a57613f4b6040518060400160405280600681526020016506f6e537761760d41b81525086866149f9565b6000613f5b876000888887613748565b90508a83613f69838f615d07565b613f739190615bf7565b613f7d9190615bdf565b613f878c8f615d07565b613f919190615bf7565b9250508080613f9f90615d90565b915050613f1a565b60408051808201909152601981527842616c616e6365725661756c743a207377617070696e67203160381b602082015260cf54600091613fef916001600160a01b0316614a40565b604080518082018252601981527842616c616e6365725661756c743a207377617070696e67203160381b602082015290516370a0823160e01b81523060048201526140a0919089906001600160a01b038216906370a082319060240160206040518083038186803b15801561406357600080fd5b505afa158015614077573d6000803e3d6000fd5b505050506040513d601f19601f8201168201806040525081019061409b91906154f5565b614a85565b60cf546040516370a0823160e01b81523060048201526001600160a01b038981169263095ea7b39291169083906370a082319060240160206040518083038186803b1580156140ee57600080fd5b505afa158015614102573d6000803e3d6000fd5b505050506040513d601f19601f8201168201806040525081019061412691906154f5565b6040518363ffffffff1660e01b815260040161414392919061575e565b602060405180830381600087803b15801561415d57600080fd5b505af1158015614171573d6000803e3d6000fd5b505050506040513d601f19601f82011682018060405250810190614195919061546a565b506141e26040805160c0810190915260008082526020820190815260200160006001600160a01b0316815260200160006001600160a01b0316815260200160008152602001606081525090565b898152602081018960018111156141fb576141fb615de1565b9081600181111561420e5761420e615de1565b9052506001600160a01b038881166040838101919091528882166060808501919091526080808501889052825190810183526000602082018190529181019190915288831681528783169181019190915260cf549091166352bbbe2983838761427942610258615bdf565b6040518563ffffffff1660e01b815260040161429894939291906159f4565b602060405180830381600087803b1580156142b257600080fd5b505af11580156142c6573d6000803e3d6000fd5b505050506040513d601f19601f820116820180604052508101906142ea91906154f5565b9b9a5050505050505050505050565b609d5460405163095ea7b360e01b8152600091829182916001600160a01b03808d169263095ea7b3926143329216908c9060040161575e565b602060405180830381600087803b15801561434c57600080fd5b505af1158015614360573d6000803e3d6000fd5b505050506040513d601f19601f82011682018060405250810190614384919061546a565b50609d5460405163095ea7b360e01b81526001600160a01b038b81169263095ea7b3926143b992909116908b9060040161575e565b602060405180830381600087803b1580156143d357600080fd5b505af11580156143e7573d6000803e3d6000fd5b505050506040513d601f19601f8201168201806040525081019061440b919061546a565b50609d546001600160a01b0316635a47ddc38b8b60018c8c8c8c8c61443242610258615bdf565b60405160e08b901b6001600160e01b03191681526001600160a01b03998a166004820152978916602489015295151560448801526064870194909452608486019290925260a485015260c484015290921660e482015261010481019190915261012401606060405180830381600087803b1580156144af57600080fd5b505af11580156144c3573d6000803e3d6000fd5b505050506040513d601f19601f820116820180604052508101906144e79190615532565b9250925092509750975097945050505050565b6101035461010c5460405163095ea7b360e01b81526001600160a01b039283169263095ea7b39261453292911690859060040161575e565b602060405180830381600087803b15801561454c57600080fd5b505af1158015614560573d6000803e3d6000fd5b505050506040513d601f19601f82011682018060405250810190614584919061546a565b5061010c54610103546040516351b3839960e11b81526001600160a01b039283169263a3670732926145bd92911690859060040161575e565b600060405180830381600087803b1580156145d757600080fd5b505af11580156145eb573d6000803e3d6000fd5b505061010b546040516370a0823160e01b8152306004820152600093506001600160a01b0390911691506370a082319060240160206040518083038186803b15801561463657600080fd5b505afa15801561464a573d6000803e3d6000fd5b505050506040513d601f19601f8201168201806040525081019061147091906154f5565b612d4b816040516024016146829190615822565b60408051601f198184030181529190526020810180516001600160e01b031663104c13eb60e21b179052614ac8565b6105f382826040516024016146c79291906158c0565b60408051601f198184030181529190526020810180516001600160e01b03166309710a9d60e41b179052614ac8565b609d5460405163095ea7b360e01b81526000916001600160a01b03808b169263095ea7b39261472b921690879060040161575e565b602060405180830381600087803b15801561474557600080fd5b505af1158015614759573d6000803e3d6000fd5b505050506040513d601f19601f8201168201806040525081019061477d919061546a565b50600061478e898989898989614ae9565b90508061479f5760009150506149d5565b60408051600280825260608201909252600091816020015b60408051606081018252600080825260208083018290529282015282526000199092019101816147b757905050905089816000815181106147fa576147fa615e0d565b6020026020010151600001906001600160a01b031690816001600160a01b031681525050888160008151811061483257614832615e0d565b6020026020010151602001906001600160a01b031690816001600160a01b031681525050868160008151811061486a5761486a615e0d565b60200260200101516040019015159081151581525050888160018151811061489457614894615e0d565b6020026020010151600001906001600160a01b031690816001600160a01b03168152505087816001815181106148cc576148cc615e0d565b6020026020010151602001906001600160a01b031690816001600160a01b031681525050858160018151811061490457614904615e0d565b6020908102919091010151901515604090910152609d546000906001600160a01b031663f41766d88783858961493c42610258615bdf565b6040518663ffffffff1660e01b815260040161495c959493929190615b4e565b600060405180830381600087803b15801561497657600080fd5b505af115801561498a573d6000803e3d6000fd5b505050506040513d6000823e601f3d908101601f191682016040526149b2919081019061542d565b9050806002815181106149c7576149c7615e0d565b602002602001015193505050505b979650505050505050565b60606149ef8484600085614d16565b90505b9392505050565b611470838383604051602401614a119392919061585f565b60408051601f198184030181529190526020810180516001600160e01b03166307e763af60e51b179052614ac8565b6105f38282604051602401614a56929190615835565b60408051601f198184030181529190526020810180516001600160e01b031663319af33360e01b179052614ac8565b611470838383604051602401614a9d93929190615892565b60408051601f198184030181529190526020810180516001600160e01b03166307c8121760e01b1790525b80516a636f6e736f6c652e6c6f67602083016000808483855afa5050505050565b60408051600280825260608201909252600091829190816020015b6040805160608101825260008082526020808301829052928201528252600019909201910181614b045790505090508781600081518110614b4757614b47615e0d565b6020026020010151600001906001600160a01b031690816001600160a01b0316815250508681600081518110614b7f57614b7f615e0d565b6020026020010151602001906001600160a01b031690816001600160a01b0316815250508481600081518110614bb757614bb7615e0d565b602002602001015160400190151590811515815250508681600181518110614be157614be1615e0d565b6020026020010151600001906001600160a01b031690816001600160a01b0316815250508581600181518110614c1957614c19615e0d565b6020026020010151602001906001600160a01b031690816001600160a01b0316815250508381600181518110614c5157614c51615e0d565b6020908102919091010151901515604091820152609d5490516326207f2d60e21b81526000916001600160a01b031690639881fcb490614c979087908690600401615b35565b60006040518083038186803b158015614caf57600080fd5b505afa158015614cc3573d6000803e3d6000fd5b505050506040513d6000823e601f3d908101601f19168201604052614ceb919081019061542d565b905080600281518110614d0057614d00615e0d565b6020026020010151925050509695505050505050565b606082471015614d775760405162461bcd60e51b815260206004820152602660248201527f416464726573733a20696e73756666696369656e742062616c616e636520666f6044820152651c8818d85b1b60d21b60648201526084016105e0565b843b614dc55760405162461bcd60e51b815260206004820152601d60248201527f416464726573733a2063616c6c20746f206e6f6e2d636f6e747261637400000060448201526064016105e0565b600080866001600160a01b03168587604051614de1919061571e565b60006040518083038185875af1925050503d8060008114614e1e576040519150601f19603f3d011682016040523d82523d6000602084013e614e23565b606091505b50915091506149d582828660608315614e3d5750816149f2565b825115614e4d5782518084602001fd5b8160405162461bcd60e51b81526004016105e09190615822565b828054828255906000526020600020908101928215614eba579160200282015b82811115614eba5781546001600160a01b0319166001600160a01b03843516178255602090920191600190910190614e87565b50614ec6929150614eca565b5090565b5b80821115614ec65760008155600101614ecb565b8035614eea81615e39565b919050565b60008083601f840112614f0157600080fd5b50813567ffffffffffffffff811115614f1957600080fd5b6020830191508360208260051b8501011115614f3457600080fd5b9250929050565b600082601f830112614f4c57600080fd5b81516020614f61614f5c83615bbb565b615b8a565b80838252828201915082860187848660051b8901011115614f8157600080fd5b60005b85811015614fa057815184529284019290840190600101614f84565b5090979650505050505050565b80516001600160701b0381168114614eea57600080fd5b600060208284031215614fd657600080fd5b81356149f281615e39565b600060208284031215614ff357600080fd5b81516149f281615e39565b6000806040838503121561501157600080fd5b823561501c81615e39565b9150602083013561502c81615e39565b809150509250929050565b600080600080600080600080610100898b03121561505457600080fd5b883561505f81615e39565b9750602089013561506f81615e39565b9650604089013561507f81615e39565b9550606089013561508f81615e39565b94506080890135935060a08901356150a681615e39565b925060c08901356150b681615e39565b915060e08901356150c681615e39565b809150509295985092959890939650565b60008060008060008060008060a0898b0312156150f357600080fd5b88356150fe81615e39565b9750602089013561510e81615e39565b9650604089013567ffffffffffffffff8082111561512b57600080fd5b6151378c838d01614eef565b909850965060608b013591508082111561515057600080fd5b61515c8c838d01614eef565b909650945060808b013591508082111561517557600080fd5b506151828b828c01614eef565b999c989b5096995094979396929594505050565b60008060008060008060008060008060e08b8d0312156151b557600080fd5b8a356151c081615e39565b995060208b01356151d081615e39565b985060408b013567ffffffffffffffff808211156151ed57600080fd5b6151f98e838f01614eef565b909a50985060608d013591508082111561521257600080fd5b61521e8e838f01614eef565b909850965060808d013591508082111561523757600080fd5b506152448d828e01614eef565b9095509350615257905060a08c01614edf565b915061526560c08c01614edf565b90509295989b9194979a5092959850565b60008060006060848603121561528b57600080fd5b833561529681615e39565b925060208401356152a681615e39565b929592945050506040919091013590565b600080604083850312156152ca57600080fd5b82516152d581615e39565b60208401519092506003811061502c57600080fd5b600080604083850312156152fd57600080fd5b823561530881615e39565b946020939093013593505050565b6000806020838503121561532957600080fd5b823567ffffffffffffffff81111561534057600080fd5b61534c85828601614eef565b90969095509350505050565b60008060006060848603121561536d57600080fd5b835167ffffffffffffffff8082111561538557600080fd5b818601915086601f83011261539957600080fd5b815160206153a9614f5c83615bbb565b8083825282820191508286018b848660051b89010111156153c957600080fd5b600096505b848710156153f55780516153e181615e39565b8352600196909601959183019183016153ce565b509189015191975090935050508082111561540f57600080fd5b5061541c86828701614f3b565b925050604084015190509250925092565b60006020828403121561543f57600080fd5b815167ffffffffffffffff81111561545657600080fd5b61546284828501614f3b565b949350505050565b60006020828403121561547c57600080fd5b815180151581146149f257600080fd5b6000806000606084860312156154a157600080fd5b6154aa84614fad565b92506154b860208501614fad565b9150604084015163ffffffff811681146154d157600080fd5b809150509250925092565b6000602082840312156154ee57600080fd5b5035919050565b60006020828403121561550757600080fd5b5051919050565b6000806040838503121561552157600080fd5b505080516020909101519092909150565b60008060006060848603121561554757600080fd5b8351925060208401519150604084015190509250925092565b60006020828403121561557257600080fd5b815160ff811681146149f257600080fd5b600081518084526020808501945080840160005b838110156155bc5781516001600160a01b031687529582019590820190600101615597565b509495945050505050565b600081518084526020808501945080840160005b838110156155bc57815180516001600160a01b039081168952848201511684890152604090810151151590880152606090960195908201906001016155db565b60008151808452615633816020860160208601615d60565b601f01601f19169290920160200192915050565b6002811061566557634e487b7160e01b600052602160045260246000fd5b9052565b6000610120615679848451615647565b6020838101516001600160a01b031690850152604080840151906156a7908601826001600160a01b03169052565b50606083015160608501526080830151608085015260a083015160a085015260c08301516156e060c08601826001600160a01b03169052565b5060e08301516156fb60e08601826001600160a01b03169052565b506101008084015182828701526157148387018261561b565b9695505050505050565b60008251615730818460208701615d60565b9190910192915050565b6001600160a01b03831681526040602082018190526000906149ef90830184615583565b6001600160a01b03929092168252602082015260400190565b6020815260006133a16020830184615583565b6000604082016040835280865480835260608501915087600052602092508260002060005b828110156157d45781546001600160a01b0316845292840192600191820191016157af565b505050838103828501528481528590820160005b868110156158165782356157fb81615e39565b6001600160a01b0316825291830191908301906001016157e8565b50979650505050505050565b6020815260006133a1602083018461561b565b604081526000615848604083018561561b565b905060018060a01b03831660208301529392505050565b606081526000615872606083018661561b565b6001600160a01b0394851660208401529290931660409091015292915050565b6060815260006158a5606083018661561b565b6001600160a01b039490941660208301525060400152919050565b6040815260006158d3604083018561561b565b90508260208301529392505050565b60208082526017908201527f43616c6c6572206973206e6f7420746865205661756c74000000000000000000604082015260600190565b6020808252601a908201527f43616c6c6572206973206e6f742074686520476f7665726e6f72000000000000604082015260600190565b6020808252602e908201527f496e697469616c697a61626c653a20636f6e747261637420697320616c72656160408201526d191e481a5b9a5d1a585b1a5e995960921b606082015260800190565b6020808252601490820152732a37b5b2b7103737ba1039bab83837b93a32b21760611b604082015260600190565b6020808252600e908201526d1499595b9d1c985b9d0818d85b1b60921b604082015260600190565b60e08152845160e082015260006020860151615a14610100840182615647565b5060408601516001600160a01b03908116610120840152606087015116610140830152608086015161016083015260a086015160c0610180840152615a5d6101a084018261561b565b915050615a9d602083018680516001600160a01b039081168352602080830151151590840152604080830151909116908301526060908101511515910152565b60a082019390935260c0015292915050565b608081526000615ac26080830187615669565b82810360208481019190915286518083528782019282019060005b81811015615af957845183529383019391830191600101615add565b505060408501969096525050506060015292915050565b606081526000615b236060830186615669565b60208301949094525060400152919050565b8281526040602082015260006149ef60408301846155c7565b85815284602082015260a060408201526000615b6d60a08301866155c7565b6001600160a01b0394909416606083015250608001529392505050565b604051601f8201601f1916810167ffffffffffffffff81118282101715615bb357615bb3615e23565b604052919050565b600067ffffffffffffffff821115615bd557615bd5615e23565b5060051b60200190565b60008219821115615bf257615bf2615dcb565b500190565b600082615c1457634e487b7160e01b600052601260045260246000fd5b500490565b600181815b80851115615c54578160001904821115615c3a57615c3a615dcb565b80851615615c4757918102915b93841c9390800290615c1e565b509250929050565b60006133a160ff841683600082615c75575060016133a4565b81615c82575060006133a4565b8160018114615c985760028114615ca257615cbe565b60019150506133a4565b60ff841115615cb357615cb3615dcb565b50506001821b6133a4565b5060208310610133831016604e8410600b8410161715615ce1575081810a6133a4565b615ceb8383615c19565b8060001904821115615cff57615cff615dcb565b029392505050565b6000816000190483118215151615615d2157615d21615dcb565b500290565b600082821015615d3857615d38615dcb565b500390565b600060ff821660ff841680821015615d5757615d57615dcb565b90039392505050565b60005b83811015615d7b578181015183820152602001615d63565b83811115615d8a576000848401525b50505050565b6000600019821415615da457615da4615dcb565b5060010190565b600060ff821660ff811415615dc257615dc2615dcb565b60010192915050565b634e487b7160e01b600052601160045260246000fd5b634e487b7160e01b600052602160045260246000fd5b634e487b7160e01b600052603160045260246000fd5b634e487b7160e01b600052603260045260246000fd5b634e487b7160e01b600052604160045260246000fd5b6001600160a01b0381168114612d4b57600080fdfe48a06827bfe8bfc0a59fe65d0fa78f553938265ed1f971326fc09947d19a593c83f34c88ec39d54d1e423bd8a181ebc59ede5dcc9996c2df334668b4f89fdd735f776974686472617746726f6d447973746f706961416e645374616b65546f50656e726f73652063616c6c6564a2646970667358221220df7d816dc26b8c5ef959c6ead754d085e7c8356016ee356d9fdc1c2bbd9c4d7664736f6c6343000806003383f34c88ec39d54d1e423bd8a181ebc59ede5dcc9996c2df334668b4f89fdd73",
  "devdoc": {
    "kind": "dev",
    "methods": {
      "checkBalance()": {
        "details": "Get the total primary stable value held in the platform.      This includes any interest that was generated since depositing.",
        "returns": {
          "balance": "   Total value of the asset in the platform"
        }
      },
      "claimGovernance()": {
        "details": "Claim Governance of the contract to a new account (`newGovernor`). Can only be called by the new Governor."
      },
      "collectRewardTokens()": {
        "details": "Collect accumulated reward token and send to Vault."
      },
      "deposit(address,uint256)": {
        "details": "Deposit an amount of asset into the platform",
        "params": {
          "_amount": "Units of asset to deposit",
          "_asset": "Address for the asset"
        }
      },
      "depositAll()": {
        "details": "Deposit balance of all supported assets into the platform"
      },
      "getRewardTokenAddresses()": {
        "details": "Get the reward token addresses.",
        "returns": {
          "_0": "address[] the reward token addresses."
        }
      },
      "governor()": {
        "details": "Returns the address of the current Governor."
      },
      "initialize(address,address,address[],address[],address[])": {
        "details": "Internal initialize function, to set up initial internal state",
        "params": {
          "_assets": "Addresses of initial supported assets",
          "_pTokens": "Platform Token corresponding addresses",
          "_platformAddress": "Generic platform address",
          "_rewardTokenAddresses": "Address of reward token for platform",
          "_vaultAddress": "Address of the Vault"
        }
      },
      "isGovernor()": {
        "details": "Returns true if the caller is the current Governor."
      },
      "removePToken(uint256)": {
        "details": "Remove a supported asset by passing its index.      This method can only be called by the system Governor",
        "params": {
          "_assetIndex": "Index of the asset to be removed"
        }
      },
      "safeApproveAllTokens()": {
        "details": "Approve the spending of all assets by their corresponding cToken,      if for some reason is it necessary."
      },
      "setHarvesterAddress(address)": {
        "details": "Set the reward token addresses.",
        "params": {
          "_harvesterAddress": "Address of the harvester"
        }
      },
      "setPTokenAddress(address,address)": {
        "details": "Provide support for asset by passing its pToken address.      This method can only be called by the system Governor",
        "params": {
          "_asset": "Address for the asset",
          "_pToken": "Address for the corresponding platform token"
        }
      },
      "setRewardTokenAddresses(address[])": {
        "details": "Set the reward token addresses.",
        "params": {
          "_rewardTokenAddresses": "Address array of the reward token"
        }
      },
      "supportsAsset(address)": {
        "details": "Retuns bool indicating whether asset is supported by strategy",
        "params": {
          "_asset": "Address of the asset"
        }
      },
      "transferGovernance(address)": {
        "details": "Transfers Governance of the contract to a new account (`newGovernor`). Can only be called by the current Governor. Must be claimed for this to complete",
        "params": {
          "_newGovernor": "Address of the new Governor"
        }
      },
      "transferToken(address,uint256)": {
        "details": "Transfer token to governor. Intended for recovering tokens stuck in      strategy contracts, i.e. mistaken sends.",
        "params": {
          "_amount": "Amount of the asset to transfer",
          "_asset": "Address for the asset"
        }
      },
      "withdrawAll()": {
        "details": "Withdraw all assets from strategy sending assets to Vault."
      }
    },
    "version": 1
  },
  "userdoc": {
    "kind": "user",
    "methods": {
      "initialize(address,address,address[],address[],address[],address,address)": {
        "notice": "Initializer for setting up strategy internal state. This overrides the InitializableAbstractStrategy initializer as Dystopia strategies don't fit well within that abstraction."
      }
    },
    "version": 1
  },
  "storageLayout": {
    "storage": [
      {
        "astId": 29944,
        "contract": "contracts/strategies/DystopiaStrategy.sol:DystopiaStrategy",
        "label": "initialized",
        "offset": 0,
        "slot": "0",
        "type": "t_bool"
      },
      {
        "astId": 29947,
        "contract": "contracts/strategies/DystopiaStrategy.sol:DystopiaStrategy",
        "label": "initializing",
        "offset": 1,
        "slot": "0",
        "type": "t_bool"
      },
      {
        "astId": 29987,
        "contract": "contracts/strategies/DystopiaStrategy.sol:DystopiaStrategy",
        "label": "______gap",
        "offset": 0,
        "slot": "1",
        "type": "t_array(t_uint256)50_storage"
      },
      {
        "astId": 30071,
        "contract": "contracts/strategies/DystopiaStrategy.sol:DystopiaStrategy",
        "label": "platformAddress",
        "offset": 0,
        "slot": "51",
        "type": "t_address"
      },
      {
        "astId": 30073,
        "contract": "contracts/strategies/DystopiaStrategy.sol:DystopiaStrategy",
        "label": "vaultAddress",
        "offset": 0,
        "slot": "52",
        "type": "t_address"
      },
      {
        "astId": 30077,
        "contract": "contracts/strategies/DystopiaStrategy.sol:DystopiaStrategy",
        "label": "assetToPToken",
        "offset": 0,
        "slot": "53",
        "type": "t_mapping(t_address,t_address)"
      },
      {
        "astId": 30080,
        "contract": "contracts/strategies/DystopiaStrategy.sol:DystopiaStrategy",
        "label": "assetsMapped",
        "offset": 0,
        "slot": "54",
        "type": "t_array(t_address)dyn_storage"
      },
      {
        "astId": 30082,
        "contract": "contracts/strategies/DystopiaStrategy.sol:DystopiaStrategy",
        "label": "_deprecated_rewardTokenAddress",
        "offset": 0,
        "slot": "55",
        "type": "t_address"
      },
      {
        "astId": 30084,
        "contract": "contracts/strategies/DystopiaStrategy.sol:DystopiaStrategy",
        "label": "_deprecated_rewardLiquidationThreshold",
        "offset": 0,
        "slot": "56",
        "type": "t_uint256"
      },
      {
        "astId": 30086,
        "contract": "contracts/strategies/DystopiaStrategy.sol:DystopiaStrategy",
        "label": "harvesterAddress",
        "offset": 0,
        "slot": "57",
        "type": "t_address"
      },
      {
        "astId": 30089,
        "contract": "contracts/strategies/DystopiaStrategy.sol:DystopiaStrategy",
        "label": "rewardTokenAddresses",
        "offset": 0,
        "slot": "58",
        "type": "t_array(t_address)dyn_storage"
      },
      {
        "astId": 30093,
        "contract": "contracts/strategies/DystopiaStrategy.sol:DystopiaStrategy",
        "label": "_reserved",
        "offset": 0,
        "slot": "59",
        "type": "t_array(t_int256)98_storage"
      },
      {
        "astId": 20619,
        "contract": "contracts/strategies/DystopiaStrategy.sol:DystopiaStrategy",
        "label": "dystRouter",
        "offset": 0,
        "slot": "157",
        "type": "t_contract(IDystopiaRouter)9490"
      },
      {
        "astId": 20967,
        "contract": "contracts/strategies/DystopiaStrategy.sol:DystopiaStrategy",
        "label": "__gap",
        "offset": 0,
        "slot": "158",
        "type": "t_array(t_uint256)49_storage"
      },
      {
        "astId": 6121,
        "contract": "contracts/strategies/DystopiaStrategy.sol:DystopiaStrategy",
        "label": "balancerVault",
        "offset": 0,
        "slot": "207",
        "type": "t_contract(IVault)11711"
      },
      {
        "astId": 7164,
        "contract": "contracts/strategies/DystopiaStrategy.sol:DystopiaStrategy",
        "label": "__gap",
        "offset": 0,
        "slot": "208",
        "type": "t_array(t_uint256)49_storage"
      },
      {
        "astId": 21018,
        "contract": "contracts/strategies/DystopiaStrategy.sol:DystopiaStrategy",
        "label": "assetToDenominator",
        "offset": 0,
        "slot": "257",
        "type": "t_mapping(t_address,t_uint256)"
      },
      {
        "astId": 21021,
        "contract": "contracts/strategies/DystopiaStrategy.sol:DystopiaStrategy",
        "label": "gauge",
        "offset": 0,
        "slot": "258",
        "type": "t_contract(IDystopiaLP)9374"
      },
      {
        "astId": 21024,
        "contract": "contracts/strategies/DystopiaStrategy.sol:DystopiaStrategy",
        "label": "dystPair",
        "offset": 0,
        "slot": "259",
        "type": "t_contract(IDystopiaLP)9374"
      },
      {
        "astId": 21026,
        "contract": "contracts/strategies/DystopiaStrategy.sol:DystopiaStrategy",
        "label": "dystRouter",
        "offset": 0,
        "slot": "260",
        "type": "t_address"
      },
      {
        "astId": 21028,
        "contract": "contracts/strategies/DystopiaStrategy.sol:DystopiaStrategy",
        "label": "poolId",
        "offset": 0,
        "slot": "261",
        "type": "t_bytes32"
      },
      {
        "astId": 21031,
        "contract": "contracts/strategies/DystopiaStrategy.sol:DystopiaStrategy",
        "label": "primaryStable",
        "offset": 0,
        "slot": "262",
        "type": "t_contract(IERC20)623"
      },
      {
        "astId": 21034,
        "contract": "contracts/strategies/DystopiaStrategy.sol:DystopiaStrategy",
        "label": "middleToken",
        "offset": 0,
        "slot": "263",
        "type": "t_contract(IERC20)623"
      },
      {
        "astId": 21037,
        "contract": "contracts/strategies/DystopiaStrategy.sol:DystopiaStrategy",
        "label": "token0",
        "offset": 0,
        "slot": "264",
        "type": "t_contract(IERC20)623"
      },
      {
        "astId": 21040,
        "contract": "contracts/strategies/DystopiaStrategy.sol:DystopiaStrategy",
        "label": "token1",
        "offset": 0,
        "slot": "265",
        "type": "t_contract(IERC20)623"
      },
      {
        "astId": 21043,
        "contract": "contracts/strategies/DystopiaStrategy.sol:DystopiaStrategy",
        "label": "dystToken",
        "offset": 0,
        "slot": "266",
        "type": "t_contract(IERC20)623"
      },
      {
        "astId": 21046,
        "contract": "contracts/strategies/DystopiaStrategy.sol:DystopiaStrategy",
        "label": "penToken",
        "offset": 0,
        "slot": "267",
        "type": "t_contract(IERC20)623"
      },
      {
        "astId": 21049,
        "contract": "contracts/strategies/DystopiaStrategy.sol:DystopiaStrategy",
        "label": "userProxy",
        "offset": 0,
        "slot": "268",
        "type": "t_contract(IUserProxy)2138"
      },
      {
        "astId": 21052,
        "contract": "contracts/strategies/DystopiaStrategy.sol:DystopiaStrategy",
        "label": "penLens",
        "offset": 0,
        "slot": "269",
        "type": "t_contract(IPenLens)1837"
      }
    ],
    "types": {
      "t_address": {
        "encoding": "inplace",
        "label": "address",
        "numberOfBytes": "20"
      },
      "t_array(t_address)dyn_storage": {
        "base": "t_address",
        "encoding": "dynamic_array",
        "label": "address[]",
        "numberOfBytes": "32"
      },
      "t_array(t_int256)98_storage": {
        "base": "t_int256",
        "encoding": "inplace",
        "label": "int256[98]",
        "numberOfBytes": "3136"
      },
      "t_array(t_uint256)49_storage": {
        "base": "t_uint256",
        "encoding": "inplace",
        "label": "uint256[49]",
        "numberOfBytes": "1568"
      },
      "t_array(t_uint256)50_storage": {
        "base": "t_uint256",
        "encoding": "inplace",
        "label": "uint256[50]",
        "numberOfBytes": "1600"
      },
      "t_bool": {
        "encoding": "inplace",
        "label": "bool",
        "numberOfBytes": "1"
      },
      "t_bytes32": {
        "encoding": "inplace",
        "label": "bytes32",
        "numberOfBytes": "32"
      },
      "t_contract(IDystopiaLP)9374": {
        "encoding": "inplace",
        "label": "contract IDystopiaLP",
        "numberOfBytes": "20"
      },
      "t_contract(IDystopiaRouter)9490": {
        "encoding": "inplace",
        "label": "contract IDystopiaRouter",
        "numberOfBytes": "20"
      },
      "t_contract(IERC20)623": {
        "encoding": "inplace",
        "label": "contract IERC20",
        "numberOfBytes": "20"
      },
      "t_contract(IPenLens)1837": {
        "encoding": "inplace",
        "label": "contract IPenLens",
        "numberOfBytes": "20"
      },
      "t_contract(IUserProxy)2138": {
        "encoding": "inplace",
        "label": "contract IUserProxy",
        "numberOfBytes": "20"
      },
      "t_contract(IVault)11711": {
        "encoding": "inplace",
        "label": "contract IVault",
        "numberOfBytes": "20"
      },
      "t_int256": {
        "encoding": "inplace",
        "label": "int256",
        "numberOfBytes": "32"
      },
      "t_mapping(t_address,t_address)": {
        "encoding": "mapping",
        "key": "t_address",
        "label": "mapping(address => address)",
        "numberOfBytes": "32",
        "value": "t_address"
      },
      "t_mapping(t_address,t_uint256)": {
        "encoding": "mapping",
        "key": "t_address",
        "label": "mapping(address => uint256)",
        "numberOfBytes": "32",
        "value": "t_uint256"
      },
      "t_uint256": {
        "encoding": "inplace",
        "label": "uint256",
        "numberOfBytes": "32"
      }
    }
  }
}