{
  "address": "0x09AA5E5C70deC438c4a33eCAD27239fe53DEF21C",
  "abi": [
    {
      "inputs": [
        {
          "internalType": "address",
          "name": "_vaultAddress",
          "type": "address"
        },
        {
          "internalType": "address",
          "name": "_primaryStableAddress",
          "type": "address"
        }
      ],
      "stateMutability": "nonpayable",
      "type": "constructor"
    },
    {
      "anonymous": false,
      "inputs": [
        {
          "indexed": true,
          "internalType": "address",
          "name": "previousGovernor",
          "type": "address"
        },
        {
          "indexed": true,
          "internalType": "address",
          "name": "newGovernor",
          "type": "address"
        }
      ],
      "name": "GovernorshipTransferred",
      "type": "event"
    },
    {
      "anonymous": false,
      "inputs": [
        {
          "indexed": true,
          "internalType": "address",
          "name": "previousGovernor",
          "type": "address"
        },
        {
          "indexed": true,
          "internalType": "address",
          "name": "newGovernor",
          "type": "address"
        }
      ],
      "name": "PendingGovernorshipTransfer",
      "type": "event"
    },
    {
      "anonymous": false,
      "inputs": [
        {
          "indexed": false,
          "internalType": "address",
          "name": "_address",
          "type": "address"
        },
        {
          "indexed": false,
          "internalType": "bool",
          "name": "_isSupported",
          "type": "bool"
        }
      ],
      "name": "SupportedStrategyUpdate",
      "type": "event"
    },
    {
      "anonymous": false,
      "inputs": [
        {
          "indexed": false,
          "internalType": "address",
          "name": "_address",
          "type": "address"
        }
      ],
      "name": "UniswapUpdated",
      "type": "event"
    },
    {
      "inputs": [],
      "name": "claimGovernance",
      "outputs": [],
      "stateMutability": "nonpayable",
      "type": "function"
    },
    {
      "inputs": [],
      "name": "distributeFees",
      "outputs": [],
      "stateMutability": "nonpayable",
      "type": "function"
    },
    {
      "inputs": [],
      "name": "distributeProceeds",
      "outputs": [],
      "stateMutability": "nonpayable",
      "type": "function"
    },
    {
      "inputs": [],
      "name": "getLabs",
      "outputs": [
        {
          "internalType": "address",
          "name": "",
          "type": "address"
        },
        {
          "internalType": "uint256",
          "name": "",
          "type": "uint256"
        }
      ],
      "stateMutability": "view",
      "type": "function"
    },
    {
      "inputs": [],
      "name": "getTeam",
      "outputs": [
        {
          "internalType": "address",
          "name": "",
          "type": "address"
        },
        {
          "internalType": "uint256",
          "name": "",
          "type": "uint256"
        }
      ],
      "stateMutability": "view",
      "type": "function"
    },
    {
      "inputs": [],
      "name": "governor",
      "outputs": [
        {
          "internalType": "address",
          "name": "",
          "type": "address"
        }
      ],
      "stateMutability": "view",
      "type": "function"
    },
    {
      "inputs": [
        {
          "internalType": "address",
          "name": "_strategyAddr",
          "type": "address"
        }
      ],
      "name": "harvest",
      "outputs": [],
      "stateMutability": "nonpayable",
      "type": "function"
    },
    {
      "inputs": [],
      "name": "harvest",
      "outputs": [],
      "stateMutability": "nonpayable",
      "type": "function"
    },
    {
      "inputs": [
        {
          "internalType": "address",
          "name": "_strategy",
          "type": "address"
        }
      ],
      "name": "harvestAndDistribute",
      "outputs": [],
      "stateMutability": "nonpayable",
      "type": "function"
    },
    {
      "inputs": [],
      "name": "harvestAndDistribute",
      "outputs": [],
      "stateMutability": "nonpayable",
      "type": "function"
    },
    {
      "inputs": [],
      "name": "isGovernor",
      "outputs": [
        {
          "internalType": "bool",
          "name": "",
          "type": "bool"
        }
      ],
      "stateMutability": "view",
      "type": "function"
    },
    {
      "inputs": [],
      "name": "labsAddress",
      "outputs": [
        {
          "internalType": "address",
          "name": "",
          "type": "address"
        }
      ],
      "stateMutability": "view",
      "type": "function"
    },
    {
      "inputs": [],
      "name": "labsFeeBps",
      "outputs": [
        {
          "internalType": "uint256",
          "name": "",
          "type": "uint256"
        }
      ],
      "stateMutability": "view",
      "type": "function"
    },
    {
      "inputs": [],
      "name": "primaryStableAddress",
      "outputs": [
        {
          "internalType": "address",
          "name": "",
          "type": "address"
        }
      ],
      "stateMutability": "view",
      "type": "function"
    },
    {
      "inputs": [],
      "name": "rewardProceedsAddress",
      "outputs": [
        {
          "internalType": "address",
          "name": "",
          "type": "address"
        }
      ],
      "stateMutability": "view",
      "type": "function"
    },
    {
      "inputs": [
        {
          "internalType": "address",
          "name": "_labs",
          "type": "address"
        },
        {
          "internalType": "uint256",
          "name": "_feeBps",
          "type": "uint256"
        }
      ],
      "name": "setLabs",
      "outputs": [],
      "stateMutability": "nonpayable",
      "type": "function"
    },
    {
      "inputs": [
        {
          "internalType": "address",
          "name": "_rewardProceedsAddress",
          "type": "address"
        }
      ],
      "name": "setRewardsProceedsAddress",
      "outputs": [],
      "stateMutability": "nonpayable",
      "type": "function"
    },
    {
      "inputs": [
        {
          "internalType": "address",
          "name": "_strategyAddress",
          "type": "address"
        },
        {
          "internalType": "bool",
          "name": "_isSupported",
          "type": "bool"
        }
      ],
      "name": "setSupportedStrategy",
      "outputs": [],
      "stateMutability": "nonpayable",
      "type": "function"
    },
    {
      "inputs": [
        {
          "internalType": "address",
          "name": "_team",
          "type": "address"
        },
        {
          "internalType": "uint256",
          "name": "_feeBps",
          "type": "uint256"
        }
      ],
      "name": "setTeam",
      "outputs": [],
      "stateMutability": "nonpayable",
      "type": "function"
    },
    {
      "inputs": [
        {
          "internalType": "address",
          "name": "",
          "type": "address"
        }
      ],
      "name": "supportedStrategies",
      "outputs": [
        {
          "internalType": "bool",
          "name": "",
          "type": "bool"
        }
      ],
      "stateMutability": "view",
      "type": "function"
    },
    {
      "inputs": [],
      "name": "teamAddress",
      "outputs": [
        {
          "internalType": "address",
          "name": "",
          "type": "address"
        }
      ],
      "stateMutability": "view",
      "type": "function"
    },
    {
      "inputs": [],
      "name": "teamFeeBps",
      "outputs": [
        {
          "internalType": "uint256",
          "name": "",
          "type": "uint256"
        }
      ],
      "stateMutability": "view",
      "type": "function"
    },
    {
      "inputs": [
        {
          "internalType": "address",
          "name": "_newGovernor",
          "type": "address"
        }
      ],
      "name": "transferGovernance",
      "outputs": [],
      "stateMutability": "nonpayable",
      "type": "function"
    },
    {
      "inputs": [
        {
          "internalType": "address",
          "name": "_asset",
          "type": "address"
        },
        {
          "internalType": "uint256",
          "name": "_amount",
          "type": "uint256"
        }
      ],
      "name": "transferToken",
      "outputs": [],
      "stateMutability": "nonpayable",
      "type": "function"
    },
    {
      "inputs": [],
      "name": "vaultAddress",
      "outputs": [
        {
          "internalType": "address",
          "name": "",
          "type": "address"
        }
      ],
      "stateMutability": "view",
      "type": "function"
    }
  ],
  "transactionHash": "0xe3fa22e9b770d004e28ce3297aba1d585c7ab0900cf4665a3a63d4b036239728",
  "args": [
    "0x1f04e34C5968fE6c1b1154712f6D8Eb2eCdf4CEf",
    "0x2791Bca1f2de4661ED88A30C99A7a9449Aa84174"
  ],
  "solcInputHash": "09ca3c533480d3a48316bc2176e310d3",
  "bytecode": "0x60c06040523480156200001157600080fd5b5060405162001c6e38038062001c6e8339810160408190526200003491620000f8565b6200004c3360008051602062001c4e83398151915255565b60008051602062001c4e833981519152546040516001600160a01b03909116906000907fc7c0c772add429241571afb3805861fb3cfa2af374534088b76cdb4325a87e9a908290a36001600160a01b038216620000a857600080fd5b6001600160a01b038116620000bc57600080fd5b6001600160601b0319606092831b8116608052911b1660a05262000130565b80516001600160a01b0381168114620000f357600080fd5b919050565b600080604083850312156200010c57600080fd5b6200011783620000db565b91506200012760208401620000db565b90509250929050565b60805160601c60a05160601c611aa5620001a960003960008181610270015281816105c50152818161084f01528181610dc901528181610e6a01528181610f290152818161126e015261131901526000818161024101528181610766015281816108e201528181610af70152610fab0152611aa56000f3fe608060405234801561001057600080fd5b50600436106101735760003560e01c80635d36b190116100de578063bb57ad2011610097578063d38bfff411610071578063d38bfff41461033d578063d5ceffa014610350578063e4d8732014610363578063ee3be5f51461036b57600080fd5b8063bb57ad201461030a578063bc14edcf14610312578063c7af33521461032557600080fd5b80635d36b190146102a557806365f6fa94146102ad57806384018942146102c05780638bce6edd146102d75780638ffa4618146102ee578063b76e83af146102f757600080fd5b806321663dd51161013057806321663dd51461022157806329f94dd614610234578063430bf08a1461023c5780634641257d146102635780634f2d7d6f1461026b578063543fe4421461029257600080fd5b806305a6e6071461017857806305f566e5146101b35780630c340a24146101c85780630e5c011e146101e85780631072cbea146101fb5780631c75f0851461020e575b600080fd5b61018f6002546003546001600160a01b0390911691565b604080516001600160a01b0390931683526020830191909152015b60405180910390f35b6101c66101c136600461165d565b61038e565b005b6101d0610451565b6040516001600160a01b0390911681526020016101aa565b6101c66101f636600461165d565b61046e565b6101c66102093660046116b3565b6104d9565b6004546101d0906001600160a01b031681565b6101c661022f36600461165d565b61051d565b6101c6610588565b6101d07f000000000000000000000000000000000000000000000000000000000000000081565b6101c661064e565b6101d07f000000000000000000000000000000000000000000000000000000000000000081565b6002546101d0906001600160a01b031681565b6101c66106b7565b6101c66102bb36600461167a565b61075b565b6102c960055481565b6040519081526020016101aa565b61018f6004546005546001600160a01b0390911691565b6102c960035481565b6001546101d0906001600160a01b031681565b6101c6610812565b6101c66103203660046116b3565b6108d7565b61032d610a17565b60405190151581526020016101aa565b6101c661034b36600461165d565b610a48565b6101c661035e3660046116b3565b610aec565b6101c6610c2c565b61032d61037936600461165d565b60006020819052908152604090205460ff1681565b610396610a17565b6103bb5760405162461bcd60e51b81526004016103b2906118a1565b60405180910390fd5b6001600160a01b03811661042f5760405162461bcd60e51b815260206004820152603560248201527f526577617264732070726f636565647320616464726573732073686f756c642060448201527462652061206e6f6e207a65726f206164647265737360581b60648201526084016103b2565b600180546001600160a01b0319166001600160a01b0392909216919091179055565b6000610469600080516020611a508339815191525490565b905090565b610476610a17565b6104925760405162461bcd60e51b81526004016103b2906118a1565b600080516020611a30833981519152805460028114156104c45760405162461bcd60e51b81526004016103b29061191a565b600282556104d183610c96565b506001905550565b6104e1610a17565b6104fd5760405162461bcd60e51b81526004016103b2906118a1565b610519610508610451565b6001600160a01b0384169083610d5a565b5050565b610525610a17565b6105415760405162461bcd60e51b81526004016103b2906118a1565b600080516020611a30833981519152805460028114156105735760405162461bcd60e51b81526004016103b29061191a565b6002825561058083610c96565b6104d1610db1565b610590610a17565b6105ac5760405162461bcd60e51b81526004016103b2906118a1565b6040516370a0823160e01b815230600482015261064c907f00000000000000000000000000000000000000000000000000000000000000006001600160a01b0316906370a082319060240160206040518083038186803b15801561060f57600080fd5b505afa158015610623573d6000803e3d6000fd5b505050506040513d601f19601f8201168201806040525081019061064791906117c8565b610ea1565b565b610656610a17565b6106725760405162461bcd60e51b81526004016103b2906118a1565b600080516020611a30833981519152805460028114156106a45760405162461bcd60e51b81526004016103b29061191a565b600282556106b0610fa7565b5060019055565b7f7eaf9a7750884803435dfabc67aa617a7d8fefb23d8d84b3c9722bd69e48c4bc546001600160a01b0316336001600160a01b0316146107525760405162461bcd60e51b815260206004820152603060248201527f4f6e6c79207468652070656e64696e6720476f7665726e6f722063616e20636f60448201526f6d706c6574652074686520636c61696d60801b60648201526084016103b2565b61064c33611080565b336001600160a01b037f00000000000000000000000000000000000000000000000000000000000000001614806107955750610795610a17565b6107b15760405162461bcd60e51b81526004016103b29061185e565b6001600160a01b03821660008181526020818152604091829020805460ff19168515159081179091558251938452908301527f013ed61add17cbfcbbd95bf8543da67c89658c5477d3f3199a1a2d58ecf1913f910160405180910390a15050565b61081a610a17565b6108365760405162461bcd60e51b81526004016103b2906118a1565b6040516370a0823160e01b815230600482015261064c907f00000000000000000000000000000000000000000000000000000000000000006001600160a01b0316906370a08231906024015b60206040518083038186803b15801561089a57600080fd5b505afa1580156108ae573d6000803e3d6000fd5b505050506040513d601f19601f820116820180604052508101906108d291906117c8565b611144565b336001600160a01b037f00000000000000000000000000000000000000000000000000000000000000001614806109115750610911610a17565b61092d5760405162461bcd60e51b81526004016103b29061185e565b6001600160a01b0382166109955760405162461bcd60e51b815260206004820152602960248201527f5465616d20616464726573732073686f756c642062652061206e6f6e207a65726044820152686f206164647265737360b81b60648201526084016103b2565b600081116109f15760405162461bcd60e51b8152602060048201526024808201527f5465616d206665652073686f756c642062652067726561746572207468616e206044820152637a65726f60e01b60648201526084016103b2565b600480546001600160a01b0319166001600160a01b039390931692909217909155600555565b6000610a2f600080516020611a508339815191525490565b6001600160a01b0316336001600160a01b031614905090565b610a50610a17565b610a6c5760405162461bcd60e51b81526004016103b2906118a1565b610a94817f7eaf9a7750884803435dfabc67aa617a7d8fefb23d8d84b3c9722bd69e48c4bc55565b806001600160a01b0316610ab4600080516020611a508339815191525490565b6001600160a01b03167fa39cc5eb22d0f34d8beaefee8a3f17cc229c1a1d1ef87a5ad47313487b1c4f0d60405160405180910390a350565b336001600160a01b037f0000000000000000000000000000000000000000000000000000000000000000161480610b265750610b26610a17565b610b425760405162461bcd60e51b81526004016103b29061185e565b6001600160a01b038216610baa5760405162461bcd60e51b815260206004820152602960248201527f4c61627320616464726573732073686f756c642062652061206e6f6e207a65726044820152686f206164647265737360b81b60648201526084016103b2565b60008111610c065760405162461bcd60e51b8152602060048201526024808201527f4c616273206665652073686f756c642062652067726561746572207468616e206044820152637a65726f60e01b60648201526084016103b2565b600280546001600160a01b0319166001600160a01b039390931692909217909155600355565b610c34610a17565b610c505760405162461bcd60e51b81526004016103b2906118a1565b600080516020611a3083398151915280546002811415610c825760405162461bcd60e51b81526004016103b29061191a565b60028255610c8e610fa7565b6106b0610db1565b6001600160a01b03811660009081526020819052604090205460ff16610cfe5760405162461bcd60e51b815260206004820152601c60248201527f4e6f7420612076616c696420737472617465677920616464726573730000000060448201526064016103b2565b6000819050806001600160a01b0316635a063f636040518163ffffffff1660e01b8152600401600060405180830381600087803b158015610d3e57600080fd5b505af1158015610d52573d6000803e3d6000fd5b505050505050565b604080516001600160a01b038416602482015260448082018490528251808303909101815260649091019091526020810180516001600160e01b031663a9059cbb60e01b179052610dac90849061139b565b505050565b6040516370a0823160e01b8152306004820152600a907f00000000000000000000000000000000000000000000000000000000000000006001600160a01b0316906370a082319060240160206040518083038186803b158015610e1357600080fd5b505afa158015610e27573d6000803e3d6000fd5b505050506040513d601f19601f82011682018060405250810190610e4b91906117c8565b111561064c576040516370a0823160e01b81523060048201526105ac907f00000000000000000000000000000000000000000000000000000000000000006001600160a01b0316906370a0823190602401610882565b60008111610ec15760405162461bcd60e51b81526004016103b2906118d8565b610f006040518060400160405280601781526020017f446973747269627574696e672070726f63656564733a200000000000000000008152508261146d565b60015460405163a9059cbb60e01b81526001600160a01b039182166004820152602481018390527f00000000000000000000000000000000000000000000000000000000000000009091169063a9059cbb90604401602060405180830381600087803b158015610f6f57600080fd5b505af1158015610f83573d6000803e3d6000fd5b505050506040513d601f19601f8201168201806040525081019061051991906117ab565b60007f00000000000000000000000000000000000000000000000000000000000000006001600160a01b031663c3b288646040518163ffffffff1660e01b815260040160006040518083038186803b15801561100257600080fd5b505afa158015611016573d6000803e3d6000fd5b505050506040513d6000823e601f3d908101601f1916820160405261103e91908101906116df565b905060005b81518110156105195761106e828281518110611061576110616119e0565b6020026020010151610c96565b80611078816119af565b915050611043565b6001600160a01b0381166110d65760405162461bcd60e51b815260206004820152601a60248201527f4e657720476f7665726e6f72206973206164647265737328302900000000000060448201526064016103b2565b806001600160a01b03166110f6600080516020611a508339815191525490565b6001600160a01b03167fc7c0c772add429241571afb3805861fb3cfa2af374534088b76cdb4325a87e9a60405160405180910390a361114181600080516020611a5083398151915255565b50565b600081116111645760405162461bcd60e51b81526004016103b2906118d8565b6111996040518060400160405280601381526020017202234b9ba3934b13aba34b733903332b2b99d1606d1b8152508261146d565b6000606480600354846111ac9190611964565b6111b69190611942565b6111c09190611942565b90506111ef6040518060400160405280600b81526020016a02630b139903332b2b99d160ad1b8152508261146d565b6000606480600554856112029190611964565b61120c9190611942565b6112169190611942565b90506112456040518060400160405280600b81526020016a02a32b0b6903332b2b99d160ad1b8152508261146d565b60025460405163a9059cbb60e01b81526001600160a01b039182166004820152602481018490527f00000000000000000000000000000000000000000000000000000000000000009091169063a9059cbb90604401602060405180830381600087803b1580156112b457600080fd5b505af11580156112c8573d6000803e3d6000fd5b505050506040513d601f19601f820116820180604052508101906112ec91906117ab565b506004805460405163a9059cbb60e01b81526001600160a01b0391821692810192909252602482018390527f0000000000000000000000000000000000000000000000000000000000000000169063a9059cbb90604401602060405180830381600087803b15801561135d57600080fd5b505af1158015611371573d6000803e3d6000fd5b505050506040513d601f19601f8201168201806040525081019061139591906117ab565b50505050565b60006113f0826040518060400160405280602081526020017f5361666545524332303a206c6f772d6c6576656c2063616c6c206661696c6564815250856001600160a01b03166114b29092919063ffffffff16565b805190915015610dac578080602001905181019061140e91906117ab565b610dac5760405162461bcd60e51b815260206004820152602a60248201527f5361666545524332303a204552433230206f7065726174696f6e20646964206e6044820152691bdd081cdd58d8d9595960b21b60648201526084016103b2565b610519828260405160240161148392919061183c565b60408051601f198184030181529190526020810180516001600160e01b03166309710a9d60e41b1790526114cb565b60606114c184846000856114ec565b90505b9392505050565b80516a636f6e736f6c652e6c6f67602083016000808483855afa5050505050565b60608247101561154d5760405162461bcd60e51b815260206004820152602660248201527f416464726573733a20696e73756666696369656e742062616c616e636520666f6044820152651c8818d85b1b60d21b60648201526084016103b2565b843b61159b5760405162461bcd60e51b815260206004820152601d60248201527f416464726573733a2063616c6c20746f206e6f6e2d636f6e747261637400000060448201526064016103b2565b600080866001600160a01b031685876040516115b7919061180d565b60006040518083038185875af1925050503d80600081146115f4576040519150601f19603f3d011682016040523d82523d6000602084013e6115f9565b606091505b5091509150611609828286611614565b979650505050505050565b606083156116235750816114c4565b8251156116335782518084602001fd5b8160405162461bcd60e51b81526004016103b29190611829565b805161165881611a0c565b919050565b60006020828403121561166f57600080fd5b81356114c481611a0c565b6000806040838503121561168d57600080fd5b823561169881611a0c565b915060208301356116a881611a21565b809150509250929050565b600080604083850312156116c657600080fd5b82356116d181611a0c565b946020939093013593505050565b600060208083850312156116f257600080fd5b825167ffffffffffffffff8082111561170a57600080fd5b818501915085601f83011261171e57600080fd5b815181811115611730576117306119f6565b8060051b604051601f19603f83011681018181108582111715611755576117556119f6565b604052828152858101935084860182860187018a101561177457600080fd5b600095505b8386101561179e5761178a8161164d565b855260019590950194938601938601611779565b5098975050505050505050565b6000602082840312156117bd57600080fd5b81516114c481611a21565b6000602082840312156117da57600080fd5b5051919050565b600081518084526117f9816020860160208601611983565b601f01601f19169290920160200192915050565b6000825161181f818460208701611983565b9190910192915050565b6020815260006114c460208301846117e1565b60408152600061184f60408301856117e1565b90508260208301529392505050565b60208082526023908201527f43616c6c6572206973206e6f7420746865205661756c74206f7220476f7665726040820152623737b960e91b606082015260800190565b6020808252601a908201527f43616c6c6572206973206e6f742074686520476f7665726e6f72000000000000604082015260600190565b60208082526022908201527f416d6f756e742073686f756c642062652067726561746572207468616e207a65604082015261726f60f01b606082015260800190565b6020808252600e908201526d1499595b9d1c985b9d0818d85b1b60921b604082015260600190565b60008261195f57634e487b7160e01b600052601260045260246000fd5b500490565b600081600019048311821515161561197e5761197e6119ca565b500290565b60005b8381101561199e578181015183820152602001611986565b838111156113955750506000910152565b60006000198214156119c3576119c36119ca565b5060010190565b634e487b7160e01b600052601160045260246000fd5b634e487b7160e01b600052603260045260246000fd5b634e487b7160e01b600052604160045260246000fd5b6001600160a01b038116811461114157600080fd5b801515811461114157600080fdfe48a06827bfe8bfc0a59fe65d0fa78f553938265ed1f971326fc09947d19a593c83f34c88ec39d54d1e423bd8a181ebc59ede5dcc9996c2df334668b4f89fdd73a2646970667358221220c481b97b7884f3ac62fb39399c7eccd6363a68d58e291a465e49d997812dd50764736f6c6343000806003383f34c88ec39d54d1e423bd8a181ebc59ede5dcc9996c2df334668b4f89fdd73",
  "devdoc": {
    "kind": "dev",
    "methods": {
      "claimGovernance()": {
        "details": "Claim Governance of the contract to a new account (`newGovernor`). Can only be called by the new Governor."
      },
      "constructor": {
        "details": "Constructor to set up initial internal state",
        "params": {
          "_primaryStableAddress": "Address of primaryStable",
          "_vaultAddress": "Address of the Vault"
        }
      },
      "governor()": {
        "details": "Returns the address of the current Governor."
      },
      "harvest()": {
        "details": "Collect reward tokens from all strategies"
      },
      "harvest(address)": {
        "details": "Collect reward tokens for a specific strategy.",
        "params": {
          "_strategyAddr": "Address of the strategy to collect rewards from"
        }
      },
      "isGovernor()": {
        "details": "Returns true if the caller is the current Governor."
      },
      "setRewardsProceedsAddress(address)": {
        "params": {
          "_rewardProceedsAddress": "Address of the reward token"
        }
      },
      "setSupportedStrategy(address,bool)": {
        "details": "Flags a strategy as supported or not supported one",
        "params": {
          "_isSupported": "Bool marking strategy as supported or not supported",
          "_strategyAddress": "Address of the strategy"
        }
      },
      "transferGovernance(address)": {
        "details": "Transfers Governance of the contract to a new account (`newGovernor`). Can only be called by the current Governor. Must be claimed for this to complete",
        "params": {
          "_newGovernor": "Address of the new Governor"
        }
      },
      "transferToken(address,uint256)": {
        "details": "Transfer token to governor. Intended for recovering tokens stuck in      contract, i.e. mistaken sends.",
        "params": {
          "_amount": "Amount of the asset to transfer",
          "_asset": "Address for the asset"
        }
      }
    },
    "version": 1
  },
  "userdoc": {
    "kind": "user",
    "methods": {
      "rewardProceedsAddress()": {
        "notice": "Address receiving rewards proceeds. Initially the Vault contract later will possibly be replaced by another contract that eases out rewards distribution."
      },
      "setRewardsProceedsAddress(address)": {
        "notice": "Set the Address receiving rewards proceeds."
      }
    },
    "version": 1
  },
  "storageLayout": {
    "storage": [
      {
        "astId": 8751,
        "contract": "contracts/harvest/Harvester.sol:Harvester",
        "label": "supportedStrategies",
        "offset": 0,
        "slot": "0",
        "type": "t_mapping(t_address,t_bool)"
      },
      {
        "astId": 8758,
        "contract": "contracts/harvest/Harvester.sol:Harvester",
        "label": "rewardProceedsAddress",
        "offset": 0,
        "slot": "1",
        "type": "t_address"
      },
      {
        "astId": 8760,
        "contract": "contracts/harvest/Harvester.sol:Harvester",
        "label": "labsAddress",
        "offset": 0,
        "slot": "2",
        "type": "t_address"
      },
      {
        "astId": 8762,
        "contract": "contracts/harvest/Harvester.sol:Harvester",
        "label": "labsFeeBps",
        "offset": 0,
        "slot": "3",
        "type": "t_uint256"
      },
      {
        "astId": 8764,
        "contract": "contracts/harvest/Harvester.sol:Harvester",
        "label": "teamAddress",
        "offset": 0,
        "slot": "4",
        "type": "t_address"
      },
      {
        "astId": 8766,
        "contract": "contracts/harvest/Harvester.sol:Harvester",
        "label": "teamFeeBps",
        "offset": 0,
        "slot": "5",
        "type": "t_uint256"
      }
    ],
    "types": {
      "t_address": {
        "encoding": "inplace",
        "label": "address",
        "numberOfBytes": "20"
      },
      "t_bool": {
        "encoding": "inplace",
        "label": "bool",
        "numberOfBytes": "1"
      },
      "t_mapping(t_address,t_bool)": {
        "encoding": "mapping",
        "key": "t_address",
        "label": "mapping(address => bool)",
        "numberOfBytes": "32",
        "value": "t_bool"
      },
      "t_uint256": {
        "encoding": "inplace",
        "label": "uint256",
        "numberOfBytes": "32"
      }
    }
  }
}