{
  "address": "0x0b9C2B0f6358e85231182913357AA6c73Feb8681",
  "abi": [
    {
      "anonymous": false,
      "inputs": [
        {
          "indexed": true,
          "internalType": "address",
          "name": "_asset",
          "type": "address"
        },
        {
          "indexed": false,
          "internalType": "address",
          "name": "_pToken",
          "type": "address"
        },
        {
          "indexed": false,
          "internalType": "uint256",
          "name": "_amount",
          "type": "uint256"
        }
      ],
      "name": "Deposit",
      "type": "event"
    },
    {
      "anonymous": false,
      "inputs": [
        {
          "indexed": true,
          "internalType": "address",
          "name": "previousGovernor",
          "type": "address"
        },
        {
          "indexed": true,
          "internalType": "address",
          "name": "newGovernor",
          "type": "address"
        }
      ],
      "name": "GovernorshipTransferred",
      "type": "event"
    },
    {
      "anonymous": false,
      "inputs": [
        {
          "indexed": false,
          "internalType": "address",
          "name": "_oldHarvesterAddress",
          "type": "address"
        },
        {
          "indexed": false,
          "internalType": "address",
          "name": "_newHarvesterAddress",
          "type": "address"
        }
      ],
      "name": "HarvesterAddressesUpdated",
      "type": "event"
    },
    {
      "anonymous": false,
      "inputs": [
        {
          "indexed": true,
          "internalType": "address",
          "name": "_asset",
          "type": "address"
        },
        {
          "indexed": false,
          "internalType": "address",
          "name": "_pToken",
          "type": "address"
        }
      ],
      "name": "PTokenAdded",
      "type": "event"
    },
    {
      "anonymous": false,
      "inputs": [
        {
          "indexed": true,
          "internalType": "address",
          "name": "_asset",
          "type": "address"
        },
        {
          "indexed": false,
          "internalType": "address",
          "name": "_pToken",
          "type": "address"
        }
      ],
      "name": "PTokenRemoved",
      "type": "event"
    },
    {
      "anonymous": false,
      "inputs": [
        {
          "indexed": true,
          "internalType": "address",
          "name": "previousGovernor",
          "type": "address"
        },
        {
          "indexed": true,
          "internalType": "address",
          "name": "newGovernor",
          "type": "address"
        }
      ],
      "name": "PendingGovernorshipTransfer",
      "type": "event"
    },
    {
      "anonymous": false,
      "inputs": [
        {
          "indexed": false,
          "internalType": "address[]",
          "name": "_oldAddresses",
          "type": "address[]"
        },
        {
          "indexed": false,
          "internalType": "address[]",
          "name": "_newAddresses",
          "type": "address[]"
        }
      ],
      "name": "RewardTokenAddressesUpdated",
      "type": "event"
    },
    {
      "anonymous": false,
      "inputs": [
        {
          "indexed": false,
          "internalType": "address",
          "name": "recipient",
          "type": "address"
        },
        {
          "indexed": false,
          "internalType": "address",
          "name": "rewardToken",
          "type": "address"
        },
        {
          "indexed": false,
          "internalType": "uint256",
          "name": "amount",
          "type": "uint256"
        }
      ],
      "name": "RewardTokenCollected",
      "type": "event"
    },
    {
      "anonymous": false,
      "inputs": [
        {
          "indexed": false,
          "internalType": "string",
          "name": "_message",
          "type": "string"
        },
        {
          "indexed": false,
          "internalType": "address",
          "name": "_asset",
          "type": "address"
        },
        {
          "indexed": false,
          "internalType": "uint256",
          "name": "_number",
          "type": "uint256"
        }
      ],
      "name": "TransferLog",
      "type": "event"
    },
    {
      "anonymous": false,
      "inputs": [
        {
          "indexed": true,
          "internalType": "address",
          "name": "_asset",
          "type": "address"
        },
        {
          "indexed": false,
          "internalType": "address",
          "name": "_pToken",
          "type": "address"
        },
        {
          "indexed": false,
          "internalType": "uint256",
          "name": "_amount",
          "type": "uint256"
        }
      ],
      "name": "Withdrawal",
      "type": "event"
    },
    {
      "inputs": [],
      "name": "BASIS_POINTS_FOR_SLIPPAGE",
      "outputs": [
        {
          "internalType": "uint256",
          "name": "",
          "type": "uint256"
        }
      ],
      "stateMutability": "view",
      "type": "function"
    },
    {
      "inputs": [],
      "name": "MAX_VALUE",
      "outputs": [
        {
          "internalType": "int256",
          "name": "",
          "type": "int256"
        }
      ],
      "stateMutability": "view",
      "type": "function"
    },
    {
      "inputs": [],
      "name": "_deprecated_rewardLiquidationThreshold",
      "outputs": [
        {
          "internalType": "uint256",
          "name": "",
          "type": "uint256"
        }
      ],
      "stateMutability": "view",
      "type": "function"
    },
    {
      "inputs": [],
      "name": "_deprecated_rewardTokenAddress",
      "outputs": [
        {
          "internalType": "address",
          "name": "",
          "type": "address"
        }
      ],
      "stateMutability": "view",
      "type": "function"
    },
    {
      "inputs": [
        {
          "internalType": "address",
          "name": "",
          "type": "address"
        }
      ],
      "name": "assetToPToken",
      "outputs": [
        {
          "internalType": "address",
          "name": "",
          "type": "address"
        }
      ],
      "stateMutability": "view",
      "type": "function"
    },
    {
      "inputs": [],
      "name": "checkBalance",
      "outputs": [
        {
          "internalType": "uint256",
          "name": "",
          "type": "uint256"
        }
      ],
      "stateMutability": "view",
      "type": "function"
    },
    {
      "inputs": [],
      "name": "claimGovernance",
      "outputs": [],
      "stateMutability": "nonpayable",
      "type": "function"
    },
    {
      "inputs": [],
      "name": "collectRewardTokens",
      "outputs": [],
      "stateMutability": "nonpayable",
      "type": "function"
    },
    {
      "inputs": [
        {
          "internalType": "address",
          "name": "_asset",
          "type": "address"
        },
        {
          "internalType": "uint256",
          "name": "_amount",
          "type": "uint256"
        }
      ],
      "name": "deposit",
      "outputs": [],
      "stateMutability": "nonpayable",
      "type": "function"
    },
    {
      "inputs": [],
      "name": "depositAll",
      "outputs": [],
      "stateMutability": "nonpayable",
      "type": "function"
    },
    {
      "inputs": [],
      "name": "getRewardTokenAddresses",
      "outputs": [
        {
          "internalType": "address[]",
          "name": "",
          "type": "address[]"
        }
      ],
      "stateMutability": "view",
      "type": "function"
    },
    {
      "inputs": [],
      "name": "governor",
      "outputs": [
        {
          "internalType": "address",
          "name": "",
          "type": "address"
        }
      ],
      "stateMutability": "view",
      "type": "function"
    },
    {
      "inputs": [],
      "name": "harvesterAddress",
      "outputs": [
        {
          "internalType": "address",
          "name": "",
          "type": "address"
        }
      ],
      "stateMutability": "view",
      "type": "function"
    },
    {
      "inputs": [
        {
          "internalType": "address",
          "name": "_platformAddress",
          "type": "address"
        },
        {
          "internalType": "address",
          "name": "_vaultAddress",
          "type": "address"
        },
        {
          "internalType": "address[]",
          "name": "_rewardTokenAddresses",
          "type": "address[]"
        },
        {
          "internalType": "address[]",
          "name": "_assets",
          "type": "address[]"
        },
        {
          "internalType": "address[]",
          "name": "_pTokens",
          "type": "address[]"
        },
        {
          "internalType": "address",
          "name": "_router",
          "type": "address"
        },
        {
          "internalType": "address",
          "name": "_primaryStable",
          "type": "address"
        }
      ],
      "name": "initialize",
      "outputs": [],
      "stateMutability": "nonpayable",
      "type": "function"
    },
    {
      "inputs": [
        {
          "internalType": "address",
          "name": "_platformAddress",
          "type": "address"
        },
        {
          "internalType": "address",
          "name": "_vaultAddress",
          "type": "address"
        },
        {
          "internalType": "address[]",
          "name": "_rewardTokenAddresses",
          "type": "address[]"
        },
        {
          "internalType": "address[]",
          "name": "_assets",
          "type": "address[]"
        },
        {
          "internalType": "address[]",
          "name": "_pTokens",
          "type": "address[]"
        }
      ],
      "name": "initialize",
      "outputs": [],
      "stateMutability": "nonpayable",
      "type": "function"
    },
    {
      "inputs": [],
      "name": "isGovernor",
      "outputs": [
        {
          "internalType": "bool",
          "name": "",
          "type": "bool"
        }
      ],
      "stateMutability": "view",
      "type": "function"
    },
    {
      "inputs": [],
      "name": "meshSwapToken0",
      "outputs": [
        {
          "internalType": "contract IMeshSwapLP",
          "name": "",
          "type": "address"
        }
      ],
      "stateMutability": "view",
      "type": "function"
    },
    {
      "inputs": [],
      "name": "meshToken",
      "outputs": [
        {
          "internalType": "contract IERC20",
          "name": "",
          "type": "address"
        }
      ],
      "stateMutability": "view",
      "type": "function"
    },
    {
      "inputs": [],
      "name": "platformAddress",
      "outputs": [
        {
          "internalType": "address",
          "name": "",
          "type": "address"
        }
      ],
      "stateMutability": "view",
      "type": "function"
    },
    {
      "inputs": [],
      "name": "primaryStable",
      "outputs": [
        {
          "internalType": "contract IERC20",
          "name": "",
          "type": "address"
        }
      ],
      "stateMutability": "view",
      "type": "function"
    },
    {
      "inputs": [
        {
          "internalType": "uint256",
          "name": "_assetIndex",
          "type": "uint256"
        }
      ],
      "name": "removePToken",
      "outputs": [],
      "stateMutability": "nonpayable",
      "type": "function"
    },
    {
      "inputs": [
        {
          "internalType": "uint256",
          "name": "",
          "type": "uint256"
        }
      ],
      "name": "rewardTokenAddresses",
      "outputs": [
        {
          "internalType": "address",
          "name": "",
          "type": "address"
        }
      ],
      "stateMutability": "view",
      "type": "function"
    },
    {
      "inputs": [],
      "name": "safeApproveAllTokens",
      "outputs": [],
      "stateMutability": "nonpayable",
      "type": "function"
    },
    {
      "inputs": [
        {
          "internalType": "address",
          "name": "_balancerVault",
          "type": "address"
        },
        {
          "internalType": "bytes32",
          "name": "_balancerPoolIdUsdcTusdDaiUsdt",
          "type": "bytes32"
        }
      ],
      "name": "setBalancer",
      "outputs": [],
      "stateMutability": "nonpayable",
      "type": "function"
    },
    {
      "inputs": [
        {
          "internalType": "address",
          "name": "_harvesterAddress",
          "type": "address"
        }
      ],
      "name": "setHarvesterAddress",
      "outputs": [],
      "stateMutability": "nonpayable",
      "type": "function"
    },
    {
      "inputs": [
        {
          "internalType": "address",
          "name": "_asset",
          "type": "address"
        },
        {
          "internalType": "address",
          "name": "_pToken",
          "type": "address"
        }
      ],
      "name": "setPTokenAddress",
      "outputs": [],
      "stateMutability": "nonpayable",
      "type": "function"
    },
    {
      "inputs": [
        {
          "internalType": "address[]",
          "name": "_rewardTokenAddresses",
          "type": "address[]"
        }
      ],
      "name": "setRewardTokenAddresses",
      "outputs": [],
      "stateMutability": "nonpayable",
      "type": "function"
    },
    {
      "inputs": [
        {
          "internalType": "address",
          "name": "_asset",
          "type": "address"
        }
      ],
      "name": "supportsAsset",
      "outputs": [
        {
          "internalType": "bool",
          "name": "",
          "type": "bool"
        }
      ],
      "stateMutability": "view",
      "type": "function"
    },
    {
      "inputs": [],
      "name": "token0",
      "outputs": [
        {
          "internalType": "contract IERC20",
          "name": "",
          "type": "address"
        }
      ],
      "stateMutability": "view",
      "type": "function"
    },
    {
      "inputs": [
        {
          "internalType": "address",
          "name": "_newGovernor",
          "type": "address"
        }
      ],
      "name": "transferGovernance",
      "outputs": [],
      "stateMutability": "nonpayable",
      "type": "function"
    },
    {
      "inputs": [
        {
          "internalType": "address",
          "name": "_asset",
          "type": "address"
        },
        {
          "internalType": "uint256",
          "name": "_amount",
          "type": "uint256"
        }
      ],
      "name": "transferToken",
      "outputs": [],
      "stateMutability": "nonpayable",
      "type": "function"
    },
    {
      "inputs": [],
      "name": "vaultAddress",
      "outputs": [
        {
          "internalType": "address",
          "name": "",
          "type": "address"
        }
      ],
      "stateMutability": "view",
      "type": "function"
    },
    {
      "inputs": [
        {
          "internalType": "address",
          "name": "_beneficiary",
          "type": "address"
        },
        {
          "internalType": "address",
          "name": "_asset",
          "type": "address"
        },
        {
          "internalType": "uint256",
          "name": "_amount",
          "type": "uint256"
        }
      ],
      "name": "withdraw",
      "outputs": [],
      "stateMutability": "nonpayable",
      "type": "function"
    },
    {
      "inputs": [],
      "name": "withdrawAll",
      "outputs": [],
      "stateMutability": "nonpayable",
      "type": "function"
    }
  ],
  "transactionHash": "0xc58038d150d5aa15304072cec3fe1053ad78623f6da6375c3ad271db7ba65c38",
  "args": [],
  "solcInputHash": "09ca3c533480d3a48316bc2176e310d3",
  "bytecode": "0x60806040523480156200001157600080fd5b506200002a336000805160206200447f83398151915255565b6000805160206200447f833981519152546040516001600160a01b03909116906000907fc7c0c772add429241571afb3805861fb3cfa2af374534088b76cdb4325a87e9a908290a36143fd80620000826000396000f3fe608060405234801561001057600080fd5b50600436106102065760003560e01c806396d538bb1161011a578063d38bfff4116100ad578063dbe55e561161007c578063dbe55e5614610444578063de5f626814610457578063f664b3d91461045f578063f6ca71b014610467578063f817bc631461047c57600080fd5b8063d38bfff4146103f6578063d8d3df7214610409578063d95ace5b1461041d578063d9caed121461043157600080fd5b8063c2e1e3f4116100e9578063c2e1e3f4146103bf578063c71daccb146103d2578063c7af3352146103da578063d2f24893146103e257600080fd5b806396d538bb14610366578063997781d614610379578063aa388af61461038c578063ad1728cb1461027857600080fd5b806347e7ef241161019d5780637b2d9b2c1161016c5780637b2d9b2c146103125780637e2d3a1514610325578063853828b6146103385780639136616a146103405780639688d2fc1461035357600080fd5b806347e7ef24146102dc5780635a063f63146102ef5780635d36b190146102f757806367c7066c146102ff57600080fd5b80630fc3b4c4116101d95780630fc3b4c41461027a5780631072cbea146102a35780632e655201146102b6578063430bf08a146102c957600080fd5b8063063bde241461020b5780630c340a24146102315780630dfe1681146102515780630ed57b3a14610265575b600080fd5b61021e6b033b2e3c9fd0803ce800000081565b6040519081526020015b60405180910390f35b610239610485565b6040516001600160a01b039091168152602001610228565b61010154610239906001600160a01b031681565b6102786102733660046136b1565b6104a2565b005b610239610288366004613694565b6035602052600090815260409020546001600160a01b031681565b6102786102b13660046138ca565b6104dd565b603754610239906001600160a01b031681565b603454610239906001600160a01b031681565b6102786102ea3660046138ca565b61051d565b6102786105be565b61027861065d565b603954610239906001600160a01b031681565b610239610320366004613a97565b610703565b6102786103333660046137a9565b61072d565b610278610a55565b61027861034e366004613a97565b610c9e565b6102786103613660046136ea565b610e69565b610278610374366004613929565b610f72565b6102786103873660046138ca565b611098565b6103af61039a366004613694565b610102546001600160a01b0391821691161490565b6040519015158152602001610228565b6102786103cd366004613694565b611151565b61021e6111d0565b6103af6116ac565b61010254610239906001600160a01b031681565b610278610404366004613694565b6116dd565b61010454610239906001600160a01b031681565b61010354610239906001600160a01b031681565b61027861043f366004613889565b611781565b603354610239906001600160a01b031681565b6102786119d7565b61021e600481565b61046f611abc565b6040516102289190613c4f565b61021e60385481565b600061049d60008051602061437b8339815191525490565b905090565b6104aa6116ac565b6104cf5760405162461bcd60e51b81526004016104c690613dbe565b60405180910390fd5b6104d98282611b1e565b5050565b6104e56116ac565b6105015760405162461bcd60e51b81526004016104c690613dbe565b6104d961050c610485565b6001600160a01b0384169083611c7d565b6034546001600160a01b031633146105475760405162461bcd60e51b81526004016104c690613d87565b60008051602061435b833981519152805460028114156105795760405162461bcd60e51b81526004016104c690613e72565b60028255610102546001600160a01b038581169116146105ab5760405162461bcd60e51b81526004016104c690613df5565b6105b58484611ccf565b50600190555050565b6039546001600160a01b031633146106185760405162461bcd60e51b815260206004820152601b60248201527f43616c6c6572206973206e6f742074686520486172766573746572000000000060448201526064016104c6565b60008051602061435b8339815191528054600281141561064a5760405162461bcd60e51b81526004016104c690613e72565b60028255610656611eea565b5060019055565b7f7eaf9a7750884803435dfabc67aa617a7d8fefb23d8d84b3c9722bd69e48c4bc546001600160a01b0316336001600160a01b0316146106f85760405162461bcd60e51b815260206004820152603060248201527f4f6e6c79207468652070656e64696e6720476f7665726e6f722063616e20636f60448201526f6d706c6574652074686520636c61696d60801b60648201526084016104c6565b6107013361217e565b565b603a818154811061071357600080fd5b6000918252602090912001546001600160a01b0316905081565b6107356116ac565b6107515760405162461bcd60e51b81526004016104c690613dbe565b600054610100900460ff168061076a575060005460ff16155b6107865760405162461bcd60e51b81526004016104c690613e24565b600054610100900460ff161580156107a8576000805461ffff19166101011790555b6000898982816107ba576107ba6142f3565b90506020020160208101906107cf9190613694565b6001600160a01b031614156107f65760405162461bcd60e51b81526004016104c690613e9a565b600085858281610808576108086142f3565b905060200201602081019061081d9190613694565b6001600160a01b031614156108445760405162461bcd60e51b81526004016104c690613e9a565b6001600160a01b038b1661086a5760405162461bcd60e51b81526004016104c690613e9a565b6001600160a01b0383166108905760405162461bcd60e51b81526004016104c690613e9a565b6001600160a01b0382166108b65760405162461bcd60e51b81526004016104c690613e9a565b868660008181106108c9576108c96142f3565b90506020020160208101906108de9190613694565b61010180546001600160a01b03199081166001600160a01b0393841617909155610102805482168584161790556101038054909116918d16919091179055848460008161092d5761092d6142f3565b90506020020160208101906109429190613694565b61010480546001600160a01b03199081166001600160a01b0393841617909155609d80549091169185169190911790556109c587876000818110610988576109886142f3565b905060200201602081019061099d9190613694565b868660008181106109b0576109b06142f3565b90506020020160208101906104d99190613694565b610a368b8b8b8b8b8b8080602002602001604051908101604052809392919081815260200183836020028082843760009201919091525050604080516020808f0282810182019093528e82529093508e92508d91829185019084908082843760009201919091525061224292505050565b8015610a48576000805461ff00191690555b5050505050505050505050565b6034546001600160a01b0316331480610a865750610a71610485565b6001600160a01b0316336001600160a01b0316145b610ade5760405162461bcd60e51b815260206004820152602360248201527f43616c6c6572206973206e6f7420746865205661756c74206f7220476f7665726044820152623737b960e91b60648201526084016104c6565b60008051602061435b83398151915280546002811415610b105760405162461bcd60e51b81526004016104c690613e72565b60028255610104546040516370a0823160e01b81523060048201526001600160a01b039091169063dd5241149082906370a082319060240160206040518083038186803b158015610b6057600080fd5b505afa158015610b74573d6000803e3d6000fd5b505050506040513d601f19601f82011682018060405250810190610b989190613ab0565b6040518263ffffffff1660e01b8152600401610bb691815260200190565b600060405180830381600087803b158015610bd057600080fd5b505af1158015610be4573d6000803e3d6000fd5b50505050610bf061232b565b610102546040516370a0823160e01b81523060048201526000916001600160a01b0316906370a082319060240160206040518083038186803b158015610c3557600080fd5b505afa158015610c49573d6000803e3d6000fd5b505050506040513d601f19601f82011682018060405250810190610c6d9190613ab0565b60345461010254919250610c8e916001600160a01b03908116911683611c7d565b610c96611eea565b505060019055565b610ca66116ac565b610cc25760405162461bcd60e51b81526004016104c690613dbe565b6036548110610d035760405162461bcd60e51b815260206004820152600d60248201526c092dcecc2d8d2c840d2dcc8caf609b1b60448201526064016104c6565b600060368281548110610d1857610d186142f3565b60009182526020808320909101546001600160a01b03908116808452603590925260409092205460365491935090911690610d5590600190614210565b831015610dd75760368054610d6c90600190614210565b81548110610d7c57610d7c6142f3565b600091825260209091200154603680546001600160a01b039092169185908110610da857610da86142f3565b9060005260206000200160006101000a8154816001600160a01b0302191690836001600160a01b031602179055505b6036805480610de857610de86142dd565b60008281526020808220600019908401810180546001600160a01b031990811690915593019093556001600160a01b038581168083526035855260409283902080549094169093559051908416815290917f16b7600acff27e39a8a96056b3d533045298de927507f5c1d97e4accde60488c910160405180910390a2505050565b610e716116ac565b610e8d5760405162461bcd60e51b81526004016104c690613dbe565b600054610100900460ff1680610ea6575060005460ff16155b610ec25760405162461bcd60e51b81526004016104c690613e24565b600054610100900460ff16158015610ee4576000805461ffff19166101011790555b610f558989898989898080602002602001604051908101604052809392919081815260200183836020028082843760009201919091525050604080516020808d0282810182019093528c82529093508c92508b91829185019084908082843760009201919091525061224292505050565b8015610f67576000805461ff00191690555b505050505050505050565b610f7a6116ac565b610f965760405162461bcd60e51b81526004016104c690613dbe565b60005b8181101561104a576000838383818110610fb557610fb56142f3565b9050602002016020810190610fca9190613694565b6001600160a01b031614156110385760405162461bcd60e51b815260206004820152602e60248201527f43616e206e6f742073657420616e20656d70747920616464726573732061732060448201526d30903932bbb0b932103a37b5b2b760911b60648201526084016104c6565b8061104281614276565b915050610f99565b507f04c0b9649497d316554306e53678d5f5f5dbc3a06f97dec13ff4cfe98b986bbc603a838360405161107f93929190613c62565b60405180910390a1611093603a838361354e565b505050565b6110a06116ac565b6110bc5760405162461bcd60e51b81526004016104c690613dbe565b6001600160a01b0382166110e25760405162461bcd60e51b81526004016104c690613e9a565b8061112f5760405162461bcd60e51b815260206004820152601960248201527f456d70747920706f6f6c206964206e6f7420616c6c6f7765640000000000000060448201526064016104c6565b60cf80546001600160a01b0319166001600160a01b0384161790556101055550565b6111596116ac565b6111755760405162461bcd60e51b81526004016104c690613dbe565b603980546001600160a01b0319166001600160a01b0383169081179091556040805182815260208101929092527fe48386b84419f4d36e0f96c10cc3510b6fb1a33795620c5098b22472bbe90796910160405180910390a150565b610102546040516370a0823160e01b815230600482015260009182916001600160a01b03909116906370a082319060240160206040518083038186803b15801561121957600080fd5b505afa15801561122d573d6000803e3d6000fd5b505050506040513d601f19601f820116820180604052508101906112519190613ab0565b610104546040516370a0823160e01b815230600482015291925060009182916001600160a01b0316906370a082319060240160206040518083038186803b15801561129b57600080fd5b505afa1580156112af573d6000803e3d6000fd5b505050506040513d601f19601f820116820180604052508101906112d39190613ab0565b905061010260009054906101000a90046001600160a01b03166001600160a01b031663313ce5676040518163ffffffff1660e01b815260040160206040518083038186803b15801561132457600080fd5b505afa158015611338573d6000803e3d6000fd5b505050506040513d601f19601f8201168201806040525081019061135c9190613ac9565b60ff1661010160009054906101000a90046001600160a01b03166001600160a01b031663313ce5676040518163ffffffff1660e01b815260040160206040518083038186803b1580156113ae57600080fd5b505afa1580156113c2573d6000803e3d6000fd5b505050506040513d601f19601f820116820180604052508101906113e69190613ac9565b60ff161461151357610102546040805163313ce56760e01b81529051611510926001600160a01b03169163313ce567916004808301926020929190829003018186803b15801561143557600080fd5b505afa158015611449573d6000803e3d6000fd5b505050506040513d601f19601f8201168201806040525081019061146d9190613ac9565b61010160009054906101000a90046001600160a01b03166001600160a01b031663313ce5676040518163ffffffff1660e01b815260040160206040518083038186803b1580156114bc57600080fd5b505afa1580156114d0573d6000803e3d6000fd5b505050506040513d601f19601f820116820180604052508101906114f49190613ac9565b6114fe9190614227565b61150990600a614145565b829061254f565b90505b80156115b957610104546040805163182df0f560e01b815290516000926001600160a01b03169163182df0f5916004808301926020929190829003018186803b15801561155f57600080fd5b505afa158015611573573d6000803e3d6000fd5b505050506040513d601f19601f820116820180604052508101906115979190613ab0565b90506115b5670de0b6b3a76400006115af8385612564565b9061254f565b9250505b61010254610101546000916001600160a01b0391821691161461168c578215611687576101055461010154610102546040805163313ce56760e01b8152905161168494936000936001600160a01b039182169391169161167f91849163313ce56791600480820192602092909190829003018186803b15801561163b57600080fd5b505afa15801561164f573d6000803e3d6000fd5b505050506040513d601f19601f820116820180604052508101906116739190613ac9565b899060ff166006612570565b6125d4565b90505b611699565b61169683826140bc565b90505b6116a384826140bc565b94505050505090565b60006116c460008051602061437b8339815191525490565b6001600160a01b0316336001600160a01b031614905090565b6116e56116ac565b6117015760405162461bcd60e51b81526004016104c690613dbe565b611729817f7eaf9a7750884803435dfabc67aa617a7d8fefb23d8d84b3c9722bd69e48c4bc55565b806001600160a01b031661174960008051602061437b8339815191525490565b6001600160a01b03167fa39cc5eb22d0f34d8beaefee8a3f17cc229c1a1d1ef87a5ad47313487b1c4f0d60405160405180910390a350565b6034546001600160a01b031633146117ab5760405162461bcd60e51b81526004016104c690613d87565b60008051602061435b833981519152805460028114156117dd5760405162461bcd60e51b81526004016104c690613e72565b60028255610102546001600160a01b0385811691161461180f5760405162461bcd60e51b81526004016104c690613df5565b6101045460405163285d531160e11b8152600481018590526001600160a01b03909116906350baa62290602401600060405180830381600087803b15801561185657600080fd5b505af115801561186a573d6000803e3d6000fd5b5050505061190b60405180606001604052806026815260200161433560269139610101546040516370a0823160e01b81523060048201526001600160a01b03909116906370a082319060240160206040518083038186803b1580156118ce57600080fd5b505afa1580156118e2573d6000803e3d6000fd5b505050506040513d601f19601f820116820180604052508101906119069190613ab0565b612ab8565b61191361232b565b610102546040516370a0823160e01b81523060048201526000916001600160a01b0316906370a082319060240160206040518083038186803b15801561195857600080fd5b505afa15801561196c573d6000803e3d6000fd5b505050506040513d601f19601f820116820180604052508101906119909190613ab0565b90506119b46040518060600160405280602d815260200161439b602d913982612ab8565b610102546119cc906001600160a01b03168783611c7d565b505060019055505050565b6034546001600160a01b03163314611a015760405162461bcd60e51b81526004016104c690613d87565b60008051602061435b83398151915280546002811415611a335760405162461bcd60e51b81526004016104c690613e72565b60028255610101546040516370a0823160e01b8152306004820152610656916001600160a01b03169081906370a082319060240160206040518083038186803b158015611a7f57600080fd5b505afa158015611a93573d6000803e3d6000fd5b505050506040513d601f19601f82011682018060405250810190611ab79190613ab0565b611ccf565b6060603a805480602002602001604051908101604052809291908181526020018280548015611b1457602002820191906000526020600020905b81546001600160a01b03168152600190910190602001808311611af6575b5050505050905090565b6001600160a01b038281166000908152603560205260409020541615611b7b5760405162461bcd60e51b81526020600482015260126024820152711c151bdad95b88185b1c9958591e481cd95d60721b60448201526064016104c6565b6001600160a01b03821615801590611b9b57506001600160a01b03811615155b611bdb5760405162461bcd60e51b8152602060048201526011602482015270496e76616c69642061646472657373657360781b60448201526064016104c6565b6001600160a01b03828116600081815260356020908152604080832080549587166001600160a01b031996871681179091556036805460018101825594527f4a11f94e20a93c79f6ec743a1954ec4fc2c08429ae2122118bf234b2185c81b890930180549095168417909455925190815290917fef6485b84315f9b1483beffa32aae9a0596890395e3d7521f1c5fbb51790e765910160405180910390a25050565b604080516001600160a01b038416602482015260448082018490528251808303909101815260649091019091526020810180516001600160e01b031663a9059cbb60e01b179052611093908490612afd565b610102546001600160a01b03838116911614611cfd5760405162461bcd60e51b81526004016104c690613df5565b611d05612bcf565b61010154610104546040516370a0823160e01b81523060048201526001600160a01b039283169263095ea7b392169083906370a082319060240160206040518083038186803b158015611d5757600080fd5b505afa158015611d6b573d6000803e3d6000fd5b505050506040513d601f19601f82011682018060405250810190611d8f9190613ab0565b6040516001600160e01b031960e085901b1681526001600160a01b0390921660048301526024820152604401602060405180830381600087803b158015611dd557600080fd5b505af1158015611de9573d6000803e3d6000fd5b505050506040513d601f19601f82011682018060405250810190611e0d9190613a75565b5061010454610101546040516370a0823160e01b81523060048201526001600160a01b0392831692636215be779216906370a082319060240160206040518083038186803b158015611e5e57600080fd5b505afa158015611e72573d6000803e3d6000fd5b505050506040513d601f19601f82011682018060405250810190611e969190613ab0565b6040518263ffffffff1660e01b8152600401611eb491815260200190565b600060405180830381600087803b158015611ece57600080fd5b505af1158015611ee2573d6000803e3d6000fd5b505050505050565b61010460009054906101000a90046001600160a01b03166001600160a01b031663b88a802f6040518163ffffffff1660e01b8152600401600060405180830381600087803b158015611f3b57600080fd5b505af1158015611f4f573d6000803e3d6000fd5b5050610103546040516370a0823160e01b8152306004820152600093508392506001600160a01b03909116906370a082319060240160206040518083038186803b158015611f9c57600080fd5b505afa158015611fb0573d6000803e3d6000fd5b505050506040513d601f19601f82011682018060405250810190611fd49190613ab0565b90506509184e72a000811115612017576101035461010254600091612007916001600160a01b0391821691168430612c93565b905061201381846140bc565b9250505b610102546040516370a0823160e01b81523060048201526000916001600160a01b0316906370a082319060240160206040518083038186803b15801561205c57600080fd5b505afa158015612070573d6000803e3d6000fd5b505050506040513d601f19601f820116820180604052508101906120949190613ab0565b905080156110935760395461010254604080516001600160a01b03938416815292909116602083015281018290527ff6c07a063ed4e63808eb8da7112d46dbcd38de2b40a73dbcc9353c5a94c723539060600160405180910390a16101025460395460405163a9059cbb60e01b81526001600160a01b0391821660048201526024810184905291169063a9059cbb90604401602060405180830381600087803b15801561214057600080fd5b505af1158015612154573d6000803e3d6000fd5b505050506040513d601f19601f820116820180604052508101906121789190613a75565b50505050565b6001600160a01b0381166121d45760405162461bcd60e51b815260206004820152601a60248201527f4e657720476f7665726e6f72206973206164647265737328302900000000000060448201526064016104c6565b806001600160a01b03166121f460008051602061437b8339815191525490565b6001600160a01b03167fc7c0c772add429241571afb3805861fb3cfa2af374534088b76cdb4325a87e9a60405160405180910390a361223f8160008051602061437b83398151915255565b50565b603380546001600160a01b038089166001600160a01b031992831617909255603480549288169290911691909117905561227e603a858561354e565b508151815181146122c85760405162461bcd60e51b8152602060048201526014602482015273496e76616c696420696e7075742061727261797360601b60448201526064016104c6565b60005b818110156123215761230f8482815181106122e8576122e86142f3565b6020026020010151848381518110612302576123026142f3565b6020026020010151611b1e565b8061231981614276565b9150506122cb565b5050505050505050565b61010254610101546001600160a01b039081169116148015906123c85750610101546040516370a0823160e01b81523060048201526000916001600160a01b0316906370a082319060240160206040518083038186803b15801561238e57600080fd5b505afa1580156123a2573d6000803e3d6000fd5b505050506040513d601f19601f820116820180604052508101906123c69190613ab0565b115b15610701576101055461010154610102546040516370a0823160e01b8152306004820181905261246a94936000936001600160a01b039182169391169190819084906370a082319060240160206040518083038186803b15801561242b57600080fd5b505afa15801561243f573d6000803e3d6000fd5b505050506040513d601f19601f820116820180604052508101906124639190613ab0565b6000612e80565b50610101546040516370a0823160e01b81523060048201526000916001600160a01b0316906370a082319060240160206040518083038186803b1580156124b057600080fd5b505afa1580156124c4573d6000803e3d6000fd5b505050506040513d601f19601f820116820180604052508101906124e89190613ab0565b11156107015760405162461bcd60e51b815260206004820152603060248201527f4d65736853776170205374726174656779202d20546f6b656e3020746f20507260448201526f1a5b585c9e54ddd85c0819985a5b195960821b60648201526084016104c6565b600061255b82846140d4565b90505b92915050565b600061255b82846141f1565b6000818311156125a0576125996125878385614210565b61259290600a614139565b8590612564565b93506125ca565b818310156125ca576125c76125b58484614210565b6125c090600a614139565b859061254f565b93505b50825b9392505050565b604080516101208101825260008082526020820181905291810182905260608082018390526080820183905260a0820183905260c0820183905260e082018390526101008201528086600181111561262e5761262e6142c7565b90816001811115612641576126416142c7565b9052506001600160a01b0385811660208301528481166040808401919091526060830185905260cf549051631f29a8cd60e31b8152600481018a90526000928392839291169063f94d46689060240160006040518083038186803b1580156126a857600080fd5b505afa1580156126bc573d6000803e3d6000fd5b505050506040513d6000823e601f3d908101601f191682016040526126e4919081019061396b565b60cf5460405163f6c0092760e01b8152600481018f9052939650919450925060009182916001600160a01b03169063f6c0092790602401604080518083038186803b15801561273257600080fd5b505afa158015612746573d6000803e3d6000fd5b505050506040513d601f19601f8201168201806040525081019061276a91906138f6565b90925090506000816002811115612783576127836142c7565b14156128bc5760008060005b87518160ff16101561282b578c6001600160a01b0316888260ff16815181106127ba576127ba6142f3565b60200260200101516001600160a01b031614156127dc578060ff169250612819565b8b6001600160a01b0316888260ff16815181106127fb576127fb6142f3565b60200260200101516001600160a01b03161415612819578060ff1691505b8061282381614291565b91505061278f565b5060405162f64aa560e11b81526001600160a01b038516906301ec954a9061285d908b908a9087908790600401613f8c565b60206040518083038186803b15801561287557600080fd5b505afa158015612889573d6000803e3d6000fd5b505050506040513d601f19601f820116820180604052508101906128ad9190613ab0565b98505050505050505050612aaf565b60018160028111156128d0576128d06142c7565b14156129db5760008060005b87518160ff1610156129aa578c6001600160a01b0316888260ff1681518110612907576129076142f3565b60200260200101516001600160a01b0316141561294257868160ff1681518110612933576129336142f3565b60200260200101519250612998565b8b6001600160a01b0316888260ff1681518110612961576129616142f3565b60200260200101516001600160a01b0316141561299857868160ff168151811061298d5761298d6142f3565b602002602001015191505b806129a281614291565b9150506128dc565b5060405163274b044360e21b81526001600160a01b03851690639d2c110c9061285d908b9086908690600401613fed565b60008060005b87518160ff1610156129aa578c6001600160a01b0316888260ff1681518110612a0c57612a0c6142f3565b60200260200101516001600160a01b03161415612a4757868160ff1681518110612a3857612a386142f3565b60200260200101519250612a9d565b8b6001600160a01b0316888260ff1681518110612a6657612a666142f3565b60200260200101516001600160a01b03161415612a9d57868160ff1681518110612a9257612a926142f3565b602002602001015191505b80612aa781614291565b9150506129e1565b95945050505050565b6104d98282604051602401612ace929190613d65565b60408051601f198184030181529190526020810180516001600160e01b03166309710a9d60e41b1790526131e1565b6000612b52826040518060400160405280602081526020017f5361666545524332303a206c6f772d6c6576656c2063616c6c206661696c6564815250856001600160a01b03166132029092919063ffffffff16565b8051909150156110935780806020019051810190612b709190613a75565b6110935760405162461bcd60e51b815260206004820152602a60248201527f5361666545524332303a204552433230206f7065726174696f6e20646964206e6044820152691bdd081cdd58d8d9595960b21b60648201526084016104c6565b610102546040516370a0823160e01b81523060048201526000916001600160a01b0316906370a082319060240160206040518083038186803b158015612c1457600080fd5b505afa158015612c28573d6000803e3d6000fd5b505050506040513d601f19601f82011682018060405250810190612c4c9190613ab0565b61010154610102549192506001600160a01b0391821691161461223f576101055461010254610101546104d992916000916001600160a01b03918216911630808785612e80565b609d5460405163095ea7b360e01b81526001600160a01b0391821660048201526024810184905260009186169063095ea7b390604401602060405180830381600087803b158015612ce357600080fd5b505af1158015612cf7573d6000803e3d6000fd5b505050506040513d601f19601f82011682018060405250810190612d1b9190613a75565b506000612d29868686613211565b905080612d3a576000915050612e78565b6040805160028082526060820183526000926020830190803683370190505090508681600081518110612d6f57612d6f6142f3565b60200260200101906001600160a01b031690816001600160a01b0316815250508581600181518110612da357612da36142f3565b6001600160a01b039283166020918202929092010152609d54600091166338ed173987612dd186600461333e565b8589612ddf426102586140bc565b6040518663ffffffff1660e01b8152600401612dff95949392919061402b565b600060405180830381600087803b158015612e1957600080fd5b505af1158015612e2d573d6000803e3d6000fd5b505050506040513d6000823e601f3d908101601f19168201604052612e559190810190613a40565b905080600181518110612e6a57612e6a6142f3565b602002602001015193505050505b949350505050565b60408051808201909152601981527842616c616e6365725661756c743a207377617070696e67203160381b602082015260cf54600091612ec8916001600160a01b0316613361565b604080518082018252601981527842616c616e6365725661756c743a207377617070696e67203160381b602082015290516370a0823160e01b8152306004820152612f79919089906001600160a01b038216906370a082319060240160206040518083038186803b158015612f3c57600080fd5b505afa158015612f50573d6000803e3d6000fd5b505050506040513d601f19601f82011682018060405250810190612f749190613ab0565b6133a6565b60cf546040516370a0823160e01b81523060048201526001600160a01b038981169263095ea7b39291169083906370a082319060240160206040518083038186803b158015612fc757600080fd5b505afa158015612fdb573d6000803e3d6000fd5b505050506040513d601f19601f82011682018060405250810190612fff9190613ab0565b6040516001600160e01b031960e085901b1681526001600160a01b0390921660048301526024820152604401602060405180830381600087803b15801561304557600080fd5b505af1158015613059573d6000803e3d6000fd5b505050506040513d601f19601f8201168201806040525081019061307d9190613a75565b506130ca6040805160c0810190915260008082526020820190815260200160006001600160a01b0316815260200160006001600160a01b0316815260200160008152602001606081525090565b898152602081018960018111156130e3576130e36142c7565b908160018111156130f6576130f66142c7565b9052506001600160a01b038881166040838101919091528882166060808501919091526080808501889052825190810183526000602082018190529181019190915288831681528783169181019190915260cf549091166352bbbe29838387613161426102586140bc565b6040518563ffffffff1660e01b81526004016131809493929190613ed1565b602060405180830381600087803b15801561319a57600080fd5b505af11580156131ae573d6000803e3d6000fd5b505050506040513d601f19601f820116820180604052508101906131d29190613ab0565b9b9a5050505050505050505050565b80516a636f6e736f6c652e6c6f67602083016000808483855afa5050505050565b6060612e7884846000856133ed565b60408051600280825260608201835260009283929190602083019080368337019050509050848160008151811061324a5761324a6142f3565b60200260200101906001600160a01b031690816001600160a01b031681525050838160018151811061327e5761327e6142f3565b6001600160a01b039283166020918202929092010152609d5460405163d06ca61f60e01b8152600092919091169063d06ca61f906132c29087908690600401614012565b60006040518083038186803b1580156132da57600080fd5b505afa1580156132ee573d6000803e3d6000fd5b505050506040513d6000823e601f3d908101601f191682016040526133169190810190613a40565b90508060018151811061332b5761332b6142f3565b6020026020010151925050509392505050565b600061271061334d8382614210565b61335790856141f1565b61255b91906140d4565b6104d98282604051602401613377929190613d0d565b60408051601f198184030181529190526020810180516001600160e01b031663319af33360e01b1790526131e1565b6110938383836040516024016133be93929190613d37565b60408051601f198184030181529190526020810180516001600160e01b03166307c8121760e01b1790526131e1565b60608247101561344e5760405162461bcd60e51b815260206004820152602660248201527f416464726573733a20696e73756666696369656e742062616c616e636520666f6044820152651c8818d85b1b60d21b60648201526084016104c6565b843b61349c5760405162461bcd60e51b815260206004820152601d60248201527f416464726573733a2063616c6c20746f206e6f6e2d636f6e747261637400000060448201526064016104c6565b600080866001600160a01b031685876040516134b89190613c33565b60006040518083038185875af1925050503d80600081146134f5576040519150601f19603f3d011682016040523d82523d6000602084013e6134fa565b606091505b509150915061350a828286613515565b979650505050505050565b606083156135245750816125cd565b8251156135345782518084602001fd5b8160405162461bcd60e51b81526004016104c69190613cfa565b8280548282559060005260206000209081019282156135a1579160200282015b828111156135a15781546001600160a01b0319166001600160a01b0384351617825560209092019160019091019061356e565b506135ad9291506135b1565b5090565b5b808211156135ad57600081556001016135b2565b80356135d18161431f565b919050565b60008083601f8401126135e857600080fd5b50813567ffffffffffffffff81111561360057600080fd5b6020830191508360208260051b850101111561361b57600080fd5b9250929050565b600082601f83011261363357600080fd5b8151602061364861364383614098565b614067565b80838252828201915082860187848660051b890101111561366857600080fd5b60005b858110156136875781518452928401929084019060010161366b565b5090979650505050505050565b6000602082840312156136a657600080fd5b81356125cd8161431f565b600080604083850312156136c457600080fd5b82356136cf8161431f565b915060208301356136df8161431f565b809150509250929050565b60008060008060008060008060a0898b03121561370657600080fd5b88356137118161431f565b975060208901356137218161431f565b9650604089013567ffffffffffffffff8082111561373e57600080fd5b61374a8c838d016135d6565b909850965060608b013591508082111561376357600080fd5b61376f8c838d016135d6565b909650945060808b013591508082111561378857600080fd5b506137958b828c016135d6565b999c989b5096995094979396929594505050565b60008060008060008060008060008060e08b8d0312156137c857600080fd5b8a356137d38161431f565b995060208b01356137e38161431f565b985060408b013567ffffffffffffffff8082111561380057600080fd5b61380c8e838f016135d6565b909a50985060608d013591508082111561382557600080fd5b6138318e838f016135d6565b909850965060808d013591508082111561384a57600080fd5b506138578d828e016135d6565b909550935061386a905060a08c016135c6565b915061387860c08c016135c6565b90509295989b9194979a5092959850565b60008060006060848603121561389e57600080fd5b83356138a98161431f565b925060208401356138b98161431f565b929592945050506040919091013590565b600080604083850312156138dd57600080fd5b82356138e88161431f565b946020939093013593505050565b6000806040838503121561390957600080fd5b82516139148161431f565b6020840151909250600381106136df57600080fd5b6000806020838503121561393c57600080fd5b823567ffffffffffffffff81111561395357600080fd5b61395f858286016135d6565b90969095509350505050565b60008060006060848603121561398057600080fd5b835167ffffffffffffffff8082111561399857600080fd5b818601915086601f8301126139ac57600080fd5b815160206139bc61364383614098565b8083825282820191508286018b848660051b89010111156139dc57600080fd5b600096505b84871015613a085780516139f48161431f565b8352600196909601959183019183016139e1565b5091890151919750909350505080821115613a2257600080fd5b50613a2f86828701613622565b925050604084015190509250925092565b600060208284031215613a5257600080fd5b815167ffffffffffffffff811115613a6957600080fd5b612e7884828501613622565b600060208284031215613a8757600080fd5b815180151581146125cd57600080fd5b600060208284031215613aa957600080fd5b5035919050565b600060208284031215613ac257600080fd5b5051919050565b600060208284031215613adb57600080fd5b815160ff811681146125cd57600080fd5b600081518084526020808501945080840160005b83811015613b255781516001600160a01b031687529582019590820190600101613b00565b509495945050505050565b60008151808452613b4881602086016020860161424a565b601f01601f19169290920160200192915050565b60028110613b7a57634e487b7160e01b600052602160045260246000fd5b9052565b6000610120613b8e848451613b5c565b6020838101516001600160a01b03169085015260408084015190613bbc908601826001600160a01b03169052565b50606083015160608501526080830151608085015260a083015160a085015260c0830151613bf560c08601826001600160a01b03169052565b5060e0830151613c1060e08601826001600160a01b03169052565b50610100808401518282870152613c2983870182613b30565b9695505050505050565b60008251613c4581846020870161424a565b9190910192915050565b60208152600061255b6020830184613aec565b6000604082016040835280865480835260608501915087600052602092508260002060005b82811015613cac5781546001600160a01b031684529284019260019182019101613c87565b505050838103828501528481528590820160005b86811015613cee578235613cd38161431f565b6001600160a01b031682529183019190830190600101613cc0565b50979650505050505050565b60208152600061255b6020830184613b30565b604081526000613d206040830185613b30565b905060018060a01b03831660208301529392505050565b606081526000613d4a6060830186613b30565b6001600160a01b039490941660208301525060400152919050565b604081526000613d786040830185613b30565b90508260208301529392505050565b60208082526017908201527f43616c6c6572206973206e6f7420746865205661756c74000000000000000000604082015260600190565b6020808252601a908201527f43616c6c6572206973206e6f742074686520476f7665726e6f72000000000000604082015260600190565b6020808252601590820152742a37b5b2b7103737ba1031b7b6b830ba34b136329760591b604082015260600190565b6020808252602e908201527f496e697469616c697a61626c653a20636f6e747261637420697320616c72656160408201526d191e481a5b9a5d1a585b1a5e995960921b606082015260800190565b6020808252600e908201526d1499595b9d1c985b9d0818d85b1b60921b604082015260600190565b60208082526018908201527f5a65726f2061646472657373206e6f7420616c6c6f7765640000000000000000604082015260600190565b60e08152845160e082015260006020860151613ef1610100840182613b5c565b5060408601516001600160a01b03908116610120840152606087015116610140830152608086015161016083015260a086015160c0610180840152613f3a6101a0840182613b30565b915050613f7a602083018680516001600160a01b039081168352602080830151151590840152604080830151909116908301526060908101511515910152565b60a082019390935260c0015292915050565b608081526000613f9f6080830187613b7e565b82810360208481019190915286518083528782019282019060005b81811015613fd657845183529383019391830191600101613fba565b505060408501969096525050506060015292915050565b6060815260006140006060830186613b7e565b60208301949094525060400152919050565b828152604060208201526000612e786040830184613aec565b85815284602082015260a06040820152600061404a60a0830186613aec565b6001600160a01b0394909416606083015250608001529392505050565b604051601f8201601f1916810167ffffffffffffffff8111828210171561409057614090614309565b604052919050565b600067ffffffffffffffff8211156140b2576140b2614309565b5060051b60200190565b600082198211156140cf576140cf6142b1565b500190565b6000826140f157634e487b7160e01b600052601260045260246000fd5b500490565b600181815b80851115614131578160001904821115614117576141176142b1565b8085161561412457918102915b93841c93908002906140fb565b509250929050565b600061255b8383614150565b600061255b60ff8416835b60008261415f5750600161255e565b8161416c5750600061255e565b8160018114614182576002811461418c576141a8565b600191505061255e565b60ff84111561419d5761419d6142b1565b50506001821b61255e565b5060208310610133831016604e8410600b84101617156141cb575081810a61255e565b6141d583836140f6565b80600019048211156141e9576141e96142b1565b029392505050565b600081600019048311821515161561420b5761420b6142b1565b500290565b600082821015614222576142226142b1565b500390565b600060ff821660ff841680821015614241576142416142b1565b90039392505050565b60005b8381101561426557818101518382015260200161424d565b838111156121785750506000910152565b600060001982141561428a5761428a6142b1565b5060010190565b600060ff821660ff8114156142a8576142a86142b1565b60010192915050565b634e487b7160e01b600052601160045260246000fd5b634e487b7160e01b600052602160045260246000fd5b634e487b7160e01b600052603160045260246000fd5b634e487b7160e01b600052603260045260246000fd5b634e487b7160e01b600052604160045260246000fd5b6001600160a01b038116811461223f57600080fdfe4d657368537761705374726174656779202d207769746864726177202d20746f6b656e303a2048a06827bfe8bfc0a59fe65d0fa78f553938265ed1f971326fc09947d19a593c83f34c88ec39d54d1e423bd8a181ebc59ede5dcc9996c2df334668b4f89fdd734d657368537761705374726174656779202d207769746864726177202d205072696d617279537461626c653a20a2646970667358221220605e5802913cc3db00ec43aab0be3eab96d791c2523506fac26f6f64975a0a1664736f6c6343000806003383f34c88ec39d54d1e423bd8a181ebc59ede5dcc9996c2df334668b4f89fdd73",
  "devdoc": {
    "kind": "dev",
    "methods": {
      "checkBalance()": {
        "details": "Get the total primary stable value held in the platform.      This includes any interest that was generated since depositing.",
        "returns": {
          "_0": "   Total value of the asset in the platform"
        }
      },
      "claimGovernance()": {
        "details": "Claim Governance of the contract to a new account (`newGovernor`). Can only be called by the new Governor."
      },
      "collectRewardTokens()": {
        "details": "Collect accumulated reward token and send to Vault."
      },
      "deposit(address,uint256)": {
        "details": "Deposit an amount of asset into the platform",
        "params": {
          "_amount": "Units of asset to deposit",
          "_asset": "Address for the asset"
        }
      },
      "depositAll()": {
        "details": "Deposit balance of all supported assets into the platform"
      },
      "getRewardTokenAddresses()": {
        "details": "Get the reward token addresses.",
        "returns": {
          "_0": "address[] the reward token addresses."
        }
      },
      "governor()": {
        "details": "Returns the address of the current Governor."
      },
      "initialize(address,address,address[],address[],address[])": {
        "details": "Internal initialize function, to set up initial internal state",
        "params": {
          "_assets": "Addresses of initial supported assets",
          "_pTokens": "Platform Token corresponding addresses",
          "_platformAddress": "Generic platform address",
          "_rewardTokenAddresses": "Address of reward token for platform",
          "_vaultAddress": "Address of the Vault"
        }
      },
      "isGovernor()": {
        "details": "Returns true if the caller is the current Governor."
      },
      "removePToken(uint256)": {
        "details": "Remove a supported asset by passing its index.      This method can only be called by the system Governor",
        "params": {
          "_assetIndex": "Index of the asset to be removed"
        }
      },
      "safeApproveAllTokens()": {
        "details": "Approve the spending of all assets by their corresponding cToken,      if for some reason is it necessary."
      },
      "setHarvesterAddress(address)": {
        "details": "Set the reward token addresses.",
        "params": {
          "_harvesterAddress": "Address of the harvester"
        }
      },
      "setPTokenAddress(address,address)": {
        "details": "Provide support for asset by passing its pToken address.      This method can only be called by the system Governor",
        "params": {
          "_asset": "Address for the asset",
          "_pToken": "Address for the corresponding platform token"
        }
      },
      "setRewardTokenAddresses(address[])": {
        "details": "Set the reward token addresses.",
        "params": {
          "_rewardTokenAddresses": "Address array of the reward token"
        }
      },
      "supportsAsset(address)": {
        "details": "Retuns bool indicating whether asset is supported by strategy",
        "params": {
          "_asset": "Address of the asset"
        }
      },
      "transferGovernance(address)": {
        "details": "Transfers Governance of the contract to a new account (`newGovernor`). Can only be called by the current Governor. Must be claimed for this to complete",
        "params": {
          "_newGovernor": "Address of the new Governor"
        }
      },
      "transferToken(address,uint256)": {
        "details": "Transfer token to governor. Intended for recovering tokens stuck in      strategy contracts, i.e. mistaken sends.",
        "params": {
          "_amount": "Amount of the asset to transfer",
          "_asset": "Address for the asset"
        }
      },
      "withdrawAll()": {
        "details": "Withdraw all assets from strategy sending assets to Vault."
      }
    },
    "version": 1
  },
  "userdoc": {
    "kind": "user",
    "methods": {
      "initialize(address,address,address[],address[],address[],address,address)": {
        "notice": "Initializer for setting up strategy internal state. This overrides the InitializableAbstractStrategy initializer as MeshSwap strategies don't fit well within that abstraction."
      }
    },
    "version": 1
  },
  "storageLayout": {
    "storage": [
      {
        "astId": 29936,
        "contract": "contracts/strategies/MeshSwapStrategy.sol:MeshSwapStrategy",
        "label": "initialized",
        "offset": 0,
        "slot": "0",
        "type": "t_bool"
      },
      {
        "astId": 29939,
        "contract": "contracts/strategies/MeshSwapStrategy.sol:MeshSwapStrategy",
        "label": "initializing",
        "offset": 1,
        "slot": "0",
        "type": "t_bool"
      },
      {
        "astId": 29979,
        "contract": "contracts/strategies/MeshSwapStrategy.sol:MeshSwapStrategy",
        "label": "______gap",
        "offset": 0,
        "slot": "1",
        "type": "t_array(t_uint256)50_storage"
      },
      {
        "astId": 30063,
        "contract": "contracts/strategies/MeshSwapStrategy.sol:MeshSwapStrategy",
        "label": "platformAddress",
        "offset": 0,
        "slot": "51",
        "type": "t_address"
      },
      {
        "astId": 30065,
        "contract": "contracts/strategies/MeshSwapStrategy.sol:MeshSwapStrategy",
        "label": "vaultAddress",
        "offset": 0,
        "slot": "52",
        "type": "t_address"
      },
      {
        "astId": 30069,
        "contract": "contracts/strategies/MeshSwapStrategy.sol:MeshSwapStrategy",
        "label": "assetToPToken",
        "offset": 0,
        "slot": "53",
        "type": "t_mapping(t_address,t_address)"
      },
      {
        "astId": 30072,
        "contract": "contracts/strategies/MeshSwapStrategy.sol:MeshSwapStrategy",
        "label": "assetsMapped",
        "offset": 0,
        "slot": "54",
        "type": "t_array(t_address)dyn_storage"
      },
      {
        "astId": 30074,
        "contract": "contracts/strategies/MeshSwapStrategy.sol:MeshSwapStrategy",
        "label": "_deprecated_rewardTokenAddress",
        "offset": 0,
        "slot": "55",
        "type": "t_address"
      },
      {
        "astId": 30076,
        "contract": "contracts/strategies/MeshSwapStrategy.sol:MeshSwapStrategy",
        "label": "_deprecated_rewardLiquidationThreshold",
        "offset": 0,
        "slot": "56",
        "type": "t_uint256"
      },
      {
        "astId": 30078,
        "contract": "contracts/strategies/MeshSwapStrategy.sol:MeshSwapStrategy",
        "label": "harvesterAddress",
        "offset": 0,
        "slot": "57",
        "type": "t_address"
      },
      {
        "astId": 30081,
        "contract": "contracts/strategies/MeshSwapStrategy.sol:MeshSwapStrategy",
        "label": "rewardTokenAddresses",
        "offset": 0,
        "slot": "58",
        "type": "t_array(t_address)dyn_storage"
      },
      {
        "astId": 30085,
        "contract": "contracts/strategies/MeshSwapStrategy.sol:MeshSwapStrategy",
        "label": "_reserved",
        "offset": 0,
        "slot": "59",
        "type": "t_array(t_int256)98_storage"
      },
      {
        "astId": 7451,
        "contract": "contracts/strategies/MeshSwapStrategy.sol:MeshSwapStrategy",
        "label": "uniswapRouter",
        "offset": 0,
        "slot": "157",
        "type": "t_contract(IUniswapV2Router02)5584"
      },
      {
        "astId": 7713,
        "contract": "contracts/strategies/MeshSwapStrategy.sol:MeshSwapStrategy",
        "label": "__gap",
        "offset": 0,
        "slot": "158",
        "type": "t_array(t_uint256)49_storage"
      },
      {
        "astId": 6121,
        "contract": "contracts/strategies/MeshSwapStrategy.sol:MeshSwapStrategy",
        "label": "balancerVault",
        "offset": 0,
        "slot": "207",
        "type": "t_contract(IVault)11696"
      },
      {
        "astId": 7164,
        "contract": "contracts/strategies/MeshSwapStrategy.sol:MeshSwapStrategy",
        "label": "__gap",
        "offset": 0,
        "slot": "208",
        "type": "t_array(t_uint256)49_storage"
      },
      {
        "astId": 22907,
        "contract": "contracts/strategies/MeshSwapStrategy.sol:MeshSwapStrategy",
        "label": "token0",
        "offset": 0,
        "slot": "257",
        "type": "t_contract(IERC20)623"
      },
      {
        "astId": 22910,
        "contract": "contracts/strategies/MeshSwapStrategy.sol:MeshSwapStrategy",
        "label": "primaryStable",
        "offset": 0,
        "slot": "258",
        "type": "t_contract(IERC20)623"
      },
      {
        "astId": 22913,
        "contract": "contracts/strategies/MeshSwapStrategy.sol:MeshSwapStrategy",
        "label": "meshToken",
        "offset": 0,
        "slot": "259",
        "type": "t_contract(IERC20)623"
      },
      {
        "astId": 22916,
        "contract": "contracts/strategies/MeshSwapStrategy.sol:MeshSwapStrategy",
        "label": "meshSwapToken0",
        "offset": 0,
        "slot": "260",
        "type": "t_contract(IMeshSwapLP)9679"
      },
      {
        "astId": 22918,
        "contract": "contracts/strategies/MeshSwapStrategy.sol:MeshSwapStrategy",
        "label": "poolId",
        "offset": 0,
        "slot": "261",
        "type": "t_bytes32"
      }
    ],
    "types": {
      "t_address": {
        "encoding": "inplace",
        "label": "address",
        "numberOfBytes": "20"
      },
      "t_array(t_address)dyn_storage": {
        "base": "t_address",
        "encoding": "dynamic_array",
        "label": "address[]",
        "numberOfBytes": "32"
      },
      "t_array(t_int256)98_storage": {
        "base": "t_int256",
        "encoding": "inplace",
        "label": "int256[98]",
        "numberOfBytes": "3136"
      },
      "t_array(t_uint256)49_storage": {
        "base": "t_uint256",
        "encoding": "inplace",
        "label": "uint256[49]",
        "numberOfBytes": "1568"
      },
      "t_array(t_uint256)50_storage": {
        "base": "t_uint256",
        "encoding": "inplace",
        "label": "uint256[50]",
        "numberOfBytes": "1600"
      },
      "t_bool": {
        "encoding": "inplace",
        "label": "bool",
        "numberOfBytes": "1"
      },
      "t_bytes32": {
        "encoding": "inplace",
        "label": "bytes32",
        "numberOfBytes": "32"
      },
      "t_contract(IERC20)623": {
        "encoding": "inplace",
        "label": "contract IERC20",
        "numberOfBytes": "20"
      },
      "t_contract(IMeshSwapLP)9679": {
        "encoding": "inplace",
        "label": "contract IMeshSwapLP",
        "numberOfBytes": "20"
      },
      "t_contract(IUniswapV2Router02)5584": {
        "encoding": "inplace",
        "label": "contract IUniswapV2Router02",
        "numberOfBytes": "20"
      },
      "t_contract(IVault)11696": {
        "encoding": "inplace",
        "label": "contract IVault",
        "numberOfBytes": "20"
      },
      "t_int256": {
        "encoding": "inplace",
        "label": "int256",
        "numberOfBytes": "32"
      },
      "t_mapping(t_address,t_address)": {
        "encoding": "mapping",
        "key": "t_address",
        "label": "mapping(address => address)",
        "numberOfBytes": "32",
        "value": "t_address"
      },
      "t_uint256": {
        "encoding": "inplace",
        "label": "uint256",
        "numberOfBytes": "32"
      }
    }
  }
}