{
  "address": "0x6492ff10bC7EB5cb60f05bC20740A6ba0762787d",
  "abi": [
    {
      "anonymous": false,
      "inputs": [
        {
          "indexed": true,
          "internalType": "address",
          "name": "_asset",
          "type": "address"
        },
        {
          "indexed": false,
          "internalType": "address",
          "name": "_pToken",
          "type": "address"
        },
        {
          "indexed": false,
          "internalType": "uint256",
          "name": "_amount",
          "type": "uint256"
        }
      ],
      "name": "Deposit",
      "type": "event"
    },
    {
      "anonymous": false,
      "inputs": [
        {
          "indexed": true,
          "internalType": "address",
          "name": "previousGovernor",
          "type": "address"
        },
        {
          "indexed": true,
          "internalType": "address",
          "name": "newGovernor",
          "type": "address"
        }
      ],
      "name": "GovernorshipTransferred",
      "type": "event"
    },
    {
      "anonymous": false,
      "inputs": [
        {
          "indexed": false,
          "internalType": "address",
          "name": "_oldHarvesterAddress",
          "type": "address"
        },
        {
          "indexed": false,
          "internalType": "address",
          "name": "_newHarvesterAddress",
          "type": "address"
        }
      ],
      "name": "HarvesterAddressesUpdated",
      "type": "event"
    },
    {
      "anonymous": false,
      "inputs": [
        {
          "indexed": true,
          "internalType": "address",
          "name": "_asset",
          "type": "address"
        },
        {
          "indexed": false,
          "internalType": "address",
          "name": "_pToken",
          "type": "address"
        }
      ],
      "name": "PTokenAdded",
      "type": "event"
    },
    {
      "anonymous": false,
      "inputs": [
        {
          "indexed": true,
          "internalType": "address",
          "name": "_asset",
          "type": "address"
        },
        {
          "indexed": false,
          "internalType": "address",
          "name": "_pToken",
          "type": "address"
        }
      ],
      "name": "PTokenRemoved",
      "type": "event"
    },
    {
      "anonymous": false,
      "inputs": [
        {
          "indexed": true,
          "internalType": "address",
          "name": "previousGovernor",
          "type": "address"
        },
        {
          "indexed": true,
          "internalType": "address",
          "name": "newGovernor",
          "type": "address"
        }
      ],
      "name": "PendingGovernorshipTransfer",
      "type": "event"
    },
    {
      "anonymous": false,
      "inputs": [
        {
          "indexed": false,
          "internalType": "address[]",
          "name": "_oldAddresses",
          "type": "address[]"
        },
        {
          "indexed": false,
          "internalType": "address[]",
          "name": "_newAddresses",
          "type": "address[]"
        }
      ],
      "name": "RewardTokenAddressesUpdated",
      "type": "event"
    },
    {
      "anonymous": false,
      "inputs": [
        {
          "indexed": false,
          "internalType": "address",
          "name": "recipient",
          "type": "address"
        },
        {
          "indexed": false,
          "internalType": "address",
          "name": "rewardToken",
          "type": "address"
        },
        {
          "indexed": false,
          "internalType": "uint256",
          "name": "amount",
          "type": "uint256"
        }
      ],
      "name": "RewardTokenCollected",
      "type": "event"
    },
    {
      "anonymous": false,
      "inputs": [
        {
          "indexed": false,
          "internalType": "string",
          "name": "_message",
          "type": "string"
        },
        {
          "indexed": false,
          "internalType": "address",
          "name": "_asset",
          "type": "address"
        },
        {
          "indexed": false,
          "internalType": "uint256",
          "name": "_number",
          "type": "uint256"
        }
      ],
      "name": "TransferLog",
      "type": "event"
    },
    {
      "anonymous": false,
      "inputs": [
        {
          "indexed": true,
          "internalType": "address",
          "name": "_asset",
          "type": "address"
        },
        {
          "indexed": false,
          "internalType": "address",
          "name": "_pToken",
          "type": "address"
        },
        {
          "indexed": false,
          "internalType": "uint256",
          "name": "_amount",
          "type": "uint256"
        }
      ],
      "name": "Withdrawal",
      "type": "event"
    },
    {
      "inputs": [],
      "name": "BASIS_POINTS_FOR_SLIPPAGE",
      "outputs": [
        {
          "internalType": "uint256",
          "name": "",
          "type": "uint256"
        }
      ],
      "stateMutability": "view",
      "type": "function"
    },
    {
      "inputs": [],
      "name": "MAX_VALUE",
      "outputs": [
        {
          "internalType": "int256",
          "name": "",
          "type": "int256"
        }
      ],
      "stateMutability": "view",
      "type": "function"
    },
    {
      "inputs": [],
      "name": "_deprecated_rewardLiquidationThreshold",
      "outputs": [
        {
          "internalType": "uint256",
          "name": "",
          "type": "uint256"
        }
      ],
      "stateMutability": "view",
      "type": "function"
    },
    {
      "inputs": [],
      "name": "_deprecated_rewardTokenAddress",
      "outputs": [
        {
          "internalType": "address",
          "name": "",
          "type": "address"
        }
      ],
      "stateMutability": "view",
      "type": "function"
    },
    {
      "inputs": [
        {
          "internalType": "address",
          "name": "",
          "type": "address"
        }
      ],
      "name": "assetToChainlink",
      "outputs": [
        {
          "internalType": "address",
          "name": "",
          "type": "address"
        }
      ],
      "stateMutability": "view",
      "type": "function"
    },
    {
      "inputs": [
        {
          "internalType": "address",
          "name": "",
          "type": "address"
        }
      ],
      "name": "assetToDenominator",
      "outputs": [
        {
          "internalType": "uint256",
          "name": "",
          "type": "uint256"
        }
      ],
      "stateMutability": "view",
      "type": "function"
    },
    {
      "inputs": [
        {
          "internalType": "address",
          "name": "",
          "type": "address"
        }
      ],
      "name": "assetToPToken",
      "outputs": [
        {
          "internalType": "address",
          "name": "",
          "type": "address"
        }
      ],
      "stateMutability": "view",
      "type": "function"
    },
    {
      "inputs": [],
      "name": "checkBalance",
      "outputs": [
        {
          "internalType": "uint256",
          "name": "",
          "type": "uint256"
        }
      ],
      "stateMutability": "view",
      "type": "function"
    },
    {
      "inputs": [],
      "name": "claimGovernance",
      "outputs": [],
      "stateMutability": "nonpayable",
      "type": "function"
    },
    {
      "inputs": [],
      "name": "collectRewardTokens",
      "outputs": [],
      "stateMutability": "nonpayable",
      "type": "function"
    },
    {
      "inputs": [
        {
          "internalType": "address",
          "name": "_asset",
          "type": "address"
        },
        {
          "internalType": "uint256",
          "name": "_amount",
          "type": "uint256"
        }
      ],
      "name": "deposit",
      "outputs": [],
      "stateMutability": "nonpayable",
      "type": "function"
    },
    {
      "inputs": [],
      "name": "depositAll",
      "outputs": [],
      "stateMutability": "nonpayable",
      "type": "function"
    },
    {
      "inputs": [],
      "name": "getRewardTokenAddresses",
      "outputs": [
        {
          "internalType": "address[]",
          "name": "",
          "type": "address[]"
        }
      ],
      "stateMutability": "view",
      "type": "function"
    },
    {
      "inputs": [],
      "name": "governor",
      "outputs": [
        {
          "internalType": "address",
          "name": "",
          "type": "address"
        }
      ],
      "stateMutability": "view",
      "type": "function"
    },
    {
      "inputs": [],
      "name": "harvesterAddress",
      "outputs": [
        {
          "internalType": "address",
          "name": "",
          "type": "address"
        }
      ],
      "stateMutability": "view",
      "type": "function"
    },
    {
      "inputs": [
        {
          "internalType": "address",
          "name": "_platformAddress",
          "type": "address"
        },
        {
          "internalType": "address",
          "name": "_vaultAddress",
          "type": "address"
        },
        {
          "internalType": "address[]",
          "name": "_rewardTokenAddresses",
          "type": "address[]"
        },
        {
          "internalType": "address[]",
          "name": "_assets",
          "type": "address[]"
        },
        {
          "internalType": "address[]",
          "name": "_pTokens",
          "type": "address[]"
        }
      ],
      "name": "initialize",
      "outputs": [],
      "stateMutability": "nonpayable",
      "type": "function"
    },
    {
      "inputs": [
        {
          "internalType": "address",
          "name": "_platformAddress",
          "type": "address"
        },
        {
          "internalType": "address",
          "name": "_vaultAddress",
          "type": "address"
        },
        {
          "internalType": "address[]",
          "name": "_rewardTokenAddresses",
          "type": "address[]"
        },
        {
          "internalType": "address[]",
          "name": "_assets",
          "type": "address[]"
        },
        {
          "internalType": "address[]",
          "name": "_pTokens",
          "type": "address[]"
        },
        {
          "internalType": "address",
          "name": "_router",
          "type": "address"
        },
        {
          "internalType": "address",
          "name": "_primaryStable",
          "type": "address"
        },
        {
          "internalType": "address[]",
          "name": "_chainLinks",
          "type": "address[]"
        }
      ],
      "name": "initialize",
      "outputs": [],
      "stateMutability": "nonpayable",
      "type": "function"
    },
    {
      "inputs": [],
      "name": "isGovernor",
      "outputs": [
        {
          "internalType": "bool",
          "name": "",
          "type": "bool"
        }
      ],
      "stateMutability": "view",
      "type": "function"
    },
    {
      "inputs": [],
      "name": "meshSwapPair",
      "outputs": [
        {
          "internalType": "contract IMeshSwapLP",
          "name": "",
          "type": "address"
        }
      ],
      "stateMutability": "view",
      "type": "function"
    },
    {
      "inputs": [],
      "name": "meshToken",
      "outputs": [
        {
          "internalType": "contract IERC20",
          "name": "",
          "type": "address"
        }
      ],
      "stateMutability": "view",
      "type": "function"
    },
    {
      "inputs": [],
      "name": "netAssetValue",
      "outputs": [
        {
          "internalType": "uint256",
          "name": "",
          "type": "uint256"
        }
      ],
      "stateMutability": "view",
      "type": "function"
    },
    {
      "inputs": [],
      "name": "platformAddress",
      "outputs": [
        {
          "internalType": "address",
          "name": "",
          "type": "address"
        }
      ],
      "stateMutability": "view",
      "type": "function"
    },
    {
      "inputs": [],
      "name": "poolId",
      "outputs": [
        {
          "internalType": "bytes32",
          "name": "",
          "type": "bytes32"
        }
      ],
      "stateMutability": "view",
      "type": "function"
    },
    {
      "inputs": [],
      "name": "primaryStable",
      "outputs": [
        {
          "internalType": "contract IERC20",
          "name": "",
          "type": "address"
        }
      ],
      "stateMutability": "view",
      "type": "function"
    },
    {
      "inputs": [
        {
          "internalType": "uint256",
          "name": "_assetIndex",
          "type": "uint256"
        }
      ],
      "name": "removePToken",
      "outputs": [],
      "stateMutability": "nonpayable",
      "type": "function"
    },
    {
      "inputs": [
        {
          "internalType": "uint256",
          "name": "",
          "type": "uint256"
        }
      ],
      "name": "rewardTokenAddresses",
      "outputs": [
        {
          "internalType": "address",
          "name": "",
          "type": "address"
        }
      ],
      "stateMutability": "view",
      "type": "function"
    },
    {
      "inputs": [],
      "name": "safeApproveAllTokens",
      "outputs": [],
      "stateMutability": "nonpayable",
      "type": "function"
    },
    {
      "inputs": [
        {
          "internalType": "address",
          "name": "_balancerVault",
          "type": "address"
        },
        {
          "internalType": "bytes32",
          "name": "_balancerPoolIdUsdcTusdDaiUsdt",
          "type": "bytes32"
        }
      ],
      "name": "setBalancer",
      "outputs": [],
      "stateMutability": "nonpayable",
      "type": "function"
    },
    {
      "inputs": [
        {
          "internalType": "address",
          "name": "_harvesterAddress",
          "type": "address"
        }
      ],
      "name": "setHarvesterAddress",
      "outputs": [],
      "stateMutability": "nonpayable",
      "type": "function"
    },
    {
      "inputs": [
        {
          "internalType": "address",
          "name": "_asset",
          "type": "address"
        },
        {
          "internalType": "address",
          "name": "_pToken",
          "type": "address"
        }
      ],
      "name": "setPTokenAddress",
      "outputs": [],
      "stateMutability": "nonpayable",
      "type": "function"
    },
    {
      "inputs": [
        {
          "internalType": "address[]",
          "name": "_rewardTokenAddresses",
          "type": "address[]"
        }
      ],
      "name": "setRewardTokenAddresses",
      "outputs": [],
      "stateMutability": "nonpayable",
      "type": "function"
    },
    {
      "inputs": [
        {
          "internalType": "address",
          "name": "_asset",
          "type": "address"
        }
      ],
      "name": "supportsAsset",
      "outputs": [
        {
          "internalType": "bool",
          "name": "",
          "type": "bool"
        }
      ],
      "stateMutability": "view",
      "type": "function"
    },
    {
      "inputs": [],
      "name": "token0",
      "outputs": [
        {
          "internalType": "contract IERC20",
          "name": "",
          "type": "address"
        }
      ],
      "stateMutability": "view",
      "type": "function"
    },
    {
      "inputs": [],
      "name": "token1",
      "outputs": [
        {
          "internalType": "contract IERC20",
          "name": "",
          "type": "address"
        }
      ],
      "stateMutability": "view",
      "type": "function"
    },
    {
      "inputs": [
        {
          "internalType": "address",
          "name": "_newGovernor",
          "type": "address"
        }
      ],
      "name": "transferGovernance",
      "outputs": [],
      "stateMutability": "nonpayable",
      "type": "function"
    },
    {
      "inputs": [
        {
          "internalType": "address",
          "name": "_asset",
          "type": "address"
        },
        {
          "internalType": "uint256",
          "name": "_amount",
          "type": "uint256"
        }
      ],
      "name": "transferToken",
      "outputs": [],
      "stateMutability": "nonpayable",
      "type": "function"
    },
    {
      "inputs": [],
      "name": "vaultAddress",
      "outputs": [
        {
          "internalType": "address",
          "name": "",
          "type": "address"
        }
      ],
      "stateMutability": "view",
      "type": "function"
    },
    {
      "inputs": [
        {
          "internalType": "address",
          "name": "_beneficiary",
          "type": "address"
        },
        {
          "internalType": "address",
          "name": "_asset",
          "type": "address"
        },
        {
          "internalType": "uint256",
          "name": "_amount",
          "type": "uint256"
        }
      ],
      "name": "withdraw",
      "outputs": [],
      "stateMutability": "nonpayable",
      "type": "function"
    },
    {
      "inputs": [],
      "name": "withdrawAll",
      "outputs": [],
      "stateMutability": "nonpayable",
      "type": "function"
    }
  ],
  "transactionHash": "0xa7b9954a02b357b21b4d870de34ef6a7f60038d81cc5901dcc5abd1a964038a3",
  "args": [],
  "solcInputHash": "5c59d1940f5b316b29c3b177eb2fc83f",
  "bytecode": "0x60806040523480156200001157600080fd5b506200002a336000805160206200571683398151915255565b60008051602062005716833981519152546040516001600160a01b03909116906000907fc7c0c772add429241571afb3805861fb3cfa2af374534088b76cdb4325a87e9a908290a361569480620000826000396000f3fe608060405234801561001057600080fd5b506004361061023d5760003560e01c80639688d2fc1161013b578063d2f24893116100b8578063de5f62681161007c578063de5f6268146104ec578063f664b3d9146104f4578063f6ca71b0146104fc578063f78e4d8114610511578063f817bc631461052457600080fd5b8063d2f248931461048b578063d38bfff41461049f578063d95ace5b146104b2578063d9caed12146104c6578063dbe55e56146104d957600080fd5b8063ad1728cb116100ff578063ad1728cb146102d0578063c2e1e3f414610454578063c71daccb14610467578063c7af33521461046f578063d21220a71461047757600080fd5b80639688d2fc146103e057806396d538bb146103f3578063997781d614610406578063a3673b3814610419578063aa388af61461042157600080fd5b80633e0dc34e116101c957806367c7066c1161018d57806367c7066c1461038b57806374a923f11461039e5780637b2d9b2c146103b2578063853828b6146103c55780639136616a146103cd57600080fd5b80633e0dc34e1461034b578063430bf08a1461035557806347e7ef24146103685780635a063f631461037b5780635d36b1901461038357600080fd5b80630ed57b3a116102105780630ed57b3a146102bd5780630fc3b4c4146102d25780631072cbea146102fb5780632e6552011461030e578063365e1f1b1461032157600080fd5b8063063bde24146102425780630b7132cf146102685780630c340a24146102895780630dfe1681146102a9575b600080fd5b6102556b033b2e3c9fd0803ce800000081565b6040519081526020015b60405180910390f35b6102556102763660046148ab565b6101086020526000908152604090205481565b61029161052d565b6040516001600160a01b03909116815260200161025f565b61010154610291906001600160a01b031681565b6102d06102cb3660046148c8565b61054a565b005b6102916102e03660046148ab565b6035602052600090815260409020546001600160a01b031681565b6102d0610309366004614b24565b610585565b603754610291906001600160a01b031681565b61029161032f3660046148ab565b610107602052600090815260409020546001600160a01b031681565b6102556101065481565b603454610291906001600160a01b031681565b6102d0610376366004614b24565b6105c5565b6102d0610666565b6102d0610705565b603954610291906001600160a01b031681565b61010554610291906001600160a01b031681565b6102916103c0366004614d5a565b6107ab565b6102d06107d5565b6102d06103db366004614d5a565b610b68565b6102d06103ee366004614901565b610d33565b6102d0610401366004614b83565b610e3c565b6102d0610414366004614b24565b610f62565b61025561104b565b61044461042f3660046148ab565b610103546001600160a01b0391821691161490565b604051901515815260200161025f565b6102d06104623660046148ab565b611057565b6102556110d6565b6104446110e2565b61010254610291906001600160a01b031681565b61010354610291906001600160a01b031681565b6102d06104ad3660046148ab565b611113565b61010454610291906001600160a01b031681565b6102d06104d4366004614ae3565b6111b7565b603354610291906001600160a01b031681565b6102d061155b565b610255600481565b610504611640565b60405161025f9190614f4b565b6102d061051f3660046149c0565b6116a2565b61025560385481565b600061054560008051602061563f8339815191525490565b905090565b6105526110e2565b6105775760405162461bcd60e51b815260040161056e906150ed565b60405180910390fd5b6105818282611c1a565b5050565b61058d6110e2565b6105a95760405162461bcd60e51b815260040161056e906150ed565b6105816105b461052d565b6001600160a01b0384169083611d79565b6034546001600160a01b031633146105ef5760405162461bcd60e51b815260040161056e906150b6565b60008051602061561f833981519152805460028114156106215760405162461bcd60e51b815260040161056e906151a0565b60028255610103546001600160a01b038581169116146106535760405162461bcd60e51b815260040161056e90615172565b61065d8484611dcb565b50600190555050565b6039546001600160a01b031633146106c05760405162461bcd60e51b815260206004820152601b60248201527f43616c6c6572206973206e6f7420746865204861727665737465720000000000604482015260640161056e565b60008051602061561f833981519152805460028114156106f25760405162461bcd60e51b815260040161056e906151a0565b600282556106fe61218e565b5060019055565b7f7eaf9a7750884803435dfabc67aa617a7d8fefb23d8d84b3c9722bd69e48c4bc546001600160a01b0316336001600160a01b0316146107a05760405162461bcd60e51b815260206004820152603060248201527f4f6e6c79207468652070656e64696e6720476f7665726e6f722063616e20636f60448201526f6d706c6574652074686520636c61696d60801b606482015260840161056e565b6107a933612422565b565b603a81815481106107bb57600080fd5b6000918252602090912001546001600160a01b0316905081565b6034546001600160a01b031633148061080657506107f161052d565b6001600160a01b0316336001600160a01b0316145b61085e5760405162461bcd60e51b815260206004820152602360248201527f43616c6c6572206973206e6f7420746865205661756c74206f7220476f7665726044820152623737b960e91b606482015260840161056e565b60008051602061561f833981519152805460028114156108905760405162461bcd60e51b815260040161056e906151a0565b6002825560008061010560009054906101000a90046001600160a01b03166001600160a01b0316630902f1ac6040518163ffffffff1660e01b815260040160606040518083038186803b1580156108e657600080fd5b505afa1580156108fa573d6000803e3d6000fd5b505050506040513d601f19601f8201168201806040525081019061091e9190614d0a565b50610105546040516370a0823160e01b81523060048201526001600160701b0393841695509190921692506000916001600160a01b0316906370a082319060240160206040518083038186803b15801561097757600080fd5b505afa15801561098b573d6000803e3d6000fd5b505050506040513d601f19601f820116820180604052508101906109af9190614cf1565b90508015610aae5761010554604080516318160ddd60e01b815290516000926001600160a01b0316916318160ddd916004808301926020929190829003018186803b1580156109fd57600080fd5b505afa158015610a11573d6000803e3d6000fd5b505050506040513d601f19601f82011682018060405250810190610a359190614cf1565b9050600081610a4484876154db565b610a4e91906153cb565b9050600082610a5d85876154db565b610a6791906153cb565b610101546101025461010554929350610aa8926001600160a01b0392831692918216911687610a978760046124e6565b610aa28760046124e6565b30612512565b50505050505b610ab6612676565b610103546040516370a0823160e01b81523060048201526000916001600160a01b0316906370a082319060240160206040518083038186803b158015610afb57600080fd5b505afa158015610b0f573d6000803e3d6000fd5b505050506040513d601f19601f82011682018060405250810190610b339190614cf1565b60345461010354919250610b54916001600160a01b03908116911683611d79565b610b5c61218e565b50505050600182555050565b610b706110e2565b610b8c5760405162461bcd60e51b815260040161056e906150ed565b6036548110610bcd5760405162461bcd60e51b815260206004820152600d60248201526c092dcecc2d8d2c840d2dcc8caf609b1b604482015260640161056e565b600060368281548110610be257610be26155dd565b60009182526020808320909101546001600160a01b03908116808452603590925260409092205460365491935090911690610c1f906001906154fa565b831015610ca15760368054610c36906001906154fa565b81548110610c4657610c466155dd565b600091825260209091200154603680546001600160a01b039092169185908110610c7257610c726155dd565b9060005260206000200160006101000a8154816001600160a01b0302191690836001600160a01b031602179055505b6036805480610cb257610cb26155c7565b60008281526020808220600019908401810180546001600160a01b031990811690915593019093556001600160a01b038581168083526035855260409283902080549094169093559051908416815290917f16b7600acff27e39a8a96056b3d533045298de927507f5c1d97e4accde60488c910160405180910390a2505050565b610d3b6110e2565b610d575760405162461bcd60e51b815260040161056e906150ed565b600054610100900460ff1680610d70575060005460ff16155b610d8c5760405162461bcd60e51b815260040161056e90615124565b600054610100900460ff16158015610dae576000805461ffff19166101011790555b610e1f8989898989898080602002602001604051908101604052809392919081815260200183836020028082843760009201919091525050604080516020808d0282810182019093528c82529093508c92508b9182918501908490808284376000920191909152506128a592505050565b8015610e31576000805461ff00191690555b505050505050505050565b610e446110e2565b610e605760405162461bcd60e51b815260040161056e906150ed565b60005b81811015610f14576000838383818110610e7f57610e7f6155dd565b9050602002016020810190610e9491906148ab565b6001600160a01b03161415610f025760405162461bcd60e51b815260206004820152602e60248201527f43616e206e6f742073657420616e20656d70747920616464726573732061732060448201526d30903932bbb0b932103a37b5b2b760911b606482015260840161056e565b80610f0c81615560565b915050610e63565b507f04c0b9649497d316554306e53678d5f5f5dbc3a06f97dec13ff4cfe98b986bbc603a8383604051610f4993929190614f5e565b60405180910390a1610f5d603a838361474e565b505050565b610f6a6110e2565b610f865760405162461bcd60e51b815260040161056e906150ed565b6001600160a01b038216610fdc5760405162461bcd60e51b815260206004820152601860248201527f5a65726f2061646472657373206e6f7420616c6c6f7765640000000000000000604482015260640161056e565b806110295760405162461bcd60e51b815260206004820152601960248201527f456d70747920706f6f6c206964206e6f7420616c6c6f77656400000000000000604482015260640161056e565b60cf80546001600160a01b0319166001600160a01b0384161790556101065550565b6000610545600161298e565b61105f6110e2565b61107b5760405162461bcd60e51b815260040161056e906150ed565b603980546001600160a01b0319166001600160a01b0383169081179091556040805182815260208101929092527fe48386b84419f4d36e0f96c10cc3510b6fb1a33795620c5098b22472bbe90796910160405180910390a150565b6000610545600061298e565b60006110fa60008051602061563f8339815191525490565b6001600160a01b0316336001600160a01b031614905090565b61111b6110e2565b6111375760405162461bcd60e51b815260040161056e906150ed565b61115f817f7eaf9a7750884803435dfabc67aa617a7d8fefb23d8d84b3c9722bd69e48c4bc55565b806001600160a01b031661117f60008051602061563f8339815191525490565b6001600160a01b03167fa39cc5eb22d0f34d8beaefee8a3f17cc229c1a1d1ef87a5ad47313487b1c4f0d60405160405180910390a350565b6034546001600160a01b031633146111e15760405162461bcd60e51b815260040161056e906150b6565b60008051602061561f833981519152805460028114156112135760405162461bcd60e51b815260040161056e906151a0565b60028255610103546001600160a01b038581169116146112455760405162461bcd60e51b815260040161056e90615172565b60008061010560009054906101000a90046001600160a01b03166001600160a01b0316630902f1ac6040518163ffffffff1660e01b815260040160606040518083038186803b15801561129757600080fd5b505afa1580156112ab573d6000803e3d6000fd5b505050506040513d601f19601f820116820180604052508101906112cf9190614d0a565b50610105546040516370a0823160e01b81523060048201526001600160701b0393841695509190921692506000916001600160a01b0316906370a082319060240160206040518083038186803b15801561132857600080fd5b505afa15801561133c573d6000803e3d6000fd5b505050506040513d601f19601f820116820180604052508101906113609190614cf1565b905080156114ac5761010554604080516318160ddd60e01b815290516000926001600160a01b0316916318160ddd916004808301926020929190829003018186803b1580156113ae57600080fd5b505afa1580156113c2573d6000803e3d6000fd5b505050506040513d601f19601f820116820180604052508101906113e69190614cf1565b905060006114386113f889600461310f565b610101546001600160a01b03908116600081815261010860205260408082205461010254909416808352912054610106548b948b948a949193929161311e565b9050828111156114455750815b60008261145283886154db565b61145c91906153cb565b905060008361146b84886154db565b61147591906153cb565b6101015461010254610105549293506114a5926001600160a01b0392831692918216911686610a978760046124e6565b5050505050505b6114b4612676565b610103546040516370a0823160e01b81523060048201526000916001600160a01b0316906370a082319060240160206040518083038186803b1580156114f957600080fd5b505afa15801561150d573d6000803e3d6000fd5b505050506040513d601f19601f820116820180604052508101906115319190614cf1565b6101035490915061154c906001600160a01b03168a83611d79565b50505050600182555050505050565b6034546001600160a01b031633146115855760405162461bcd60e51b815260040161056e906150b6565b60008051602061561f833981519152805460028114156115b75760405162461bcd60e51b815260040161056e906151a0565b60028255610103546040516370a0823160e01b81523060048201526106fe916001600160a01b03169081906370a082319060240160206040518083038186803b15801561160357600080fd5b505afa158015611617573d6000803e3d6000fd5b505050506040513d601f19601f8201168201806040525081019061163b9190614cf1565b611dcb565b6060603a80548060200260200160405190810160405280929190818152602001828054801561169857602002820191906000526020600020905b81546001600160a01b0316815260019091019060200180831161167a575b5050505050905090565b6116aa6110e2565b6116c65760405162461bcd60e51b815260040161056e906150ed565b600054610100900460ff16806116df575060005460ff16155b6116fb5760405162461bcd60e51b815260040161056e90615124565b600054610100900460ff1615801561171d576000805461ffff19166101011790555b88886000818110611730576117306155dd565b905060200201602081019061174591906148ab565b61010180546001600160a01b0319166001600160a01b039290921691909117905588886001818110611779576117796155dd565b905060200201602081019061178e91906148ab565b61010260006101000a8154816001600160a01b0302191690836001600160a01b031602179055508361010360006101000a8154816001600160a01b0302191690836001600160a01b031602179055508c61010460006101000a8154816001600160a01b0302191690836001600160a01b03160217905550600089899050905083836000818110611820576118206155dd565b905060200201602081019061183591906148ab565b6001600160a01b038681166000818152610107602090815260409182902080546001600160a01b0319169590941694909417909255815163313ce56760e01b81529151909263313ce5679260048082019391829003018186803b15801561189b57600080fd5b505afa1580156118af573d6000803e3d6000fd5b505050506040513d601f19601f820116820180604052508101906118d39190614dc5565b6118de90600a615430565b6001600160a01b038616600090815261010860205260408120919091555b81811015611a8c5784846119118360016153b3565b818110611920576119206155dd565b905060200201602081019061193591906148ab565b61010760008d8d8581811061194c5761194c6155dd565b905060200201602081019061196191906148ab565b6001600160a01b039081168252602082019290925260400160002080546001600160a01b031916929091169190911790558a8a828181106119a4576119a46155dd565b90506020020160208101906119b991906148ab565b6001600160a01b031663313ce5676040518163ffffffff1660e01b815260040160206040518083038186803b1580156119f157600080fd5b505afa158015611a05573d6000803e3d6000fd5b505050506040513d601f19601f82011682018060405250810190611a299190614dc5565b611a3490600a615430565b61010860008d8d85818110611a4b57611a4b6155dd565b9050602002016020810190611a6091906148ab565b6001600160a01b0316815260208101919091526040016000205580611a8481615560565b9150506118fc565b5087876000818110611aa057611aa06155dd565b9050602002016020810190611ab591906148ab565b61010580546001600160a01b03199081166001600160a01b0393841617909155609d8054909116918816919091179055611b388a8a6000818110611afb57611afb6155dd565b9050602002016020810190611b1091906148ab565b89896000818110611b2357611b236155dd565b905060200201602081019061058191906148ab565b611b768a8a6001818110611b4e57611b4e6155dd565b9050602002016020810190611b6391906148ab565b89896001818110611b2357611b236155dd565b611bf88e8e8e8e8e8e80806020026020016040519081016040528093929190818152602001838360200280828437600081840152601f19601f820116905080830192505050505050508d8d808060200260200160405190810160405280939291908181526020018383602002808284376000920191909152506128a592505050565b508015611c0b576000805461ff00191690555b50505050505050505050505050565b6001600160a01b038281166000908152603560205260409020541615611c775760405162461bcd60e51b81526020600482015260126024820152711c151bdad95b88185b1c9958591e481cd95d60721b604482015260640161056e565b6001600160a01b03821615801590611c9757506001600160a01b03811615155b611cd75760405162461bcd60e51b8152602060048201526011602482015270496e76616c69642061646472657373657360781b604482015260640161056e565b6001600160a01b03828116600081815260356020908152604080832080549587166001600160a01b031996871681179091556036805460018101825594527f4a11f94e20a93c79f6ec743a1954ec4fc2c08429ae2122118bf234b2185c81b890930180549095168417909455925190815290917fef6485b84315f9b1483beffa32aae9a0596890395e3d7521f1c5fbb51790e765910160405180910390a25050565b604080516001600160a01b038416602482015260448082018490528251808303909101815260649091019091526020810180516001600160e01b031663a9059cbb60e01b179052610f5d9084906131fc565b610103546001600160a01b03838116911614611df95760405162461bcd60e51b815260040161056e90615172565b6000806000611e066132ce565b925092509250611e14613586565b610102546040516370a0823160e01b81523060048201526000916001600160a01b0316906370a082319060240160206040518083038186803b158015611e5957600080fd5b505afa158015611e6d573d6000803e3d6000fd5b505050506040513d601f19601f82011682018060405250810190611e919190614cf1565b905060008115611ec557610106546101025461010154611ec292916000916001600160a01b0391821691168661364a565b90505b610101546040516370a0823160e01b81523060048201526000916001600160a01b0316906370a082319060240160206040518083038186803b158015611f0a57600080fd5b505afa158015611f1e573d6000803e3d6000fd5b505050506040513d601f19601f82011682018060405250810190611f429190614cf1565b90506000611f9f611f546002856153cb565b611f5e90846154fa565b610101546001600160a01b03908116600081815261010860205260408082205461010254909416808352912054610106548d948d9490936001929190613b2e565b610106546101015461010254929350611fcb926000916001600160a01b03908116911630808785613c26565b50610101546040516370a0823160e01b81523060048201526001600160a01b03909116906370a082319060240160206040518083038186803b15801561201057600080fd5b505afa158015612024573d6000803e3d6000fd5b505050506040513d601f19601f820116820180604052508101906120489190614cf1565b610102546040516370a0823160e01b81523060048201529193506001600160a01b0316906370a082319060240160206040518083038186803b15801561208d57600080fd5b505afa1580156120a1573d6000803e3d6000fd5b505050506040513d601f19601f820116820180604052508101906120c59190614cf1565b61010154610102549195506120ff916001600160a01b03918216911684876120ee8260046124e6565b6120f98a60046124e6565b30613f87565b5050610105546040516370a0823160e01b8152306004820152600092506001600160a01b03909116906370a082319060240160206040518083038186803b15801561214957600080fd5b505afa15801561215d573d6000803e3d6000fd5b505050506040513d601f19601f820116820180604052508101906121819190614cf1565b5050505050505050505050565b61010560009054906101000a90046001600160a01b03166001600160a01b031663b88a802f6040518163ffffffff1660e01b8152600401600060405180830381600087803b1580156121df57600080fd5b505af11580156121f3573d6000803e3d6000fd5b5050610104546040516370a0823160e01b8152306004820152600093508392506001600160a01b03909116906370a082319060240160206040518083038186803b15801561224057600080fd5b505afa158015612254573d6000803e3d6000fd5b505050506040513d601f19601f820116820180604052508101906122789190614cf1565b90506509184e72a0008111156122bb5761010454610103546000916122ab916001600160a01b0391821691168430614181565b90506122b781846153b3565b9250505b610103546040516370a0823160e01b81523060048201526000916001600160a01b0316906370a082319060240160206040518083038186803b15801561230057600080fd5b505afa158015612314573d6000803e3d6000fd5b505050506040513d601f19601f820116820180604052508101906123389190614cf1565b90508015610f5d5760395461010354604080516001600160a01b03938416815292909116602083015281018290527ff6c07a063ed4e63808eb8da7112d46dbcd38de2b40a73dbcc9353c5a94c723539060600160405180910390a16101035460395460405163a9059cbb60e01b81526001600160a01b0391821660048201526024810184905291169063a9059cbb90604401602060405180830381600087803b1580156123e457600080fd5b505af11580156123f8573d6000803e3d6000fd5b505050506040513d601f19601f8201168201806040525081019061241c9190614ccf565b50505050565b6001600160a01b0381166124785760405162461bcd60e51b815260206004820152601a60248201527f4e657720476f7665726e6f722069732061646472657373283029000000000000604482015260640161056e565b806001600160a01b031661249860008051602061563f8339815191525490565b6001600160a01b03167fc7c0c772add429241571afb3805861fb3cfa2af374534088b76cdb4325a87e9a60405160405180910390a36124e38160008051602061563f83398151915255565b50565b60006127106124f583826154fa565b6124ff90856154db565b61250991906153cb565b90505b92915050565b609d5460405163095ea7b360e01b81526001600160a01b0391821660048201526024810186905260009182919088169063095ea7b390604401602060405180830381600087803b15801561256557600080fd5b505af1158015612579573d6000803e3d6000fd5b505050506040513d601f19601f8201168201806040525081019061259d9190614ccf565b50609d546001600160a01b031663baa2abde8a8a898989896125c1426102586153b3565b60405160e089901b6001600160e01b03191681526001600160a01b039788166004820152958716602487015260448601949094526064850192909252608484015290921660a482015260c481019190915260e4016040805180830381600087803b15801561262e57600080fd5b505af1158015612642573d6000803e3d6000fd5b505050506040513d601f19601f820116820180604052508101906126669190614d73565b9150915097509795505050505050565b61010354610101546001600160a01b039081169116148015906127135750610101546040516370a0823160e01b81523060048201526000916001600160a01b0316906370a082319060240160206040518083038186803b1580156126d957600080fd5b505afa1580156126ed573d6000803e3d6000fd5b505050506040513d601f19601f820116820180604052508101906127119190614cf1565b115b156127b8576101065461010154610103546040516370a0823160e01b815230600482018190526127b694936000936001600160a01b039182169391169190819084906370a08231906024015b60206040518083038186803b15801561277757600080fd5b505afa15801561278b573d6000803e3d6000fd5b505050506040513d601f19601f820116820180604052508101906127af9190614cf1565b6000613c26565b505b61010354610102546001600160a01b039081169116148015906128555750610102546040516370a0823160e01b81523060048201526000916001600160a01b0316906370a082319060240160206040518083038186803b15801561281b57600080fd5b505afa15801561282f573d6000803e3d6000fd5b505050506040513d601f19601f820116820180604052508101906128539190614cf1565b115b156107a9576101065461010254610103546040516370a0823160e01b815230600482018190526124e394936000936001600160a01b039182169391169190819084906370a082319060240161275f565b603380546001600160a01b038089166001600160a01b03199283161790925560348054928816929091169190911790556128e1603a858561474e565b5081518151811461292b5760405162461bcd60e51b8152602060048201526014602482015273496e76616c696420696e7075742061727261797360601b604482015260640161056e565b60005b818110156129845761297284828151811061294b5761294b6155dd565b6020026020010151848381518110612965576129656155dd565b6020026020010151611c1a565b8061297c81615560565b91505061292e565b5050505050505050565b610103546040516370a0823160e01b815230600482015260009182916001600160a01b03909116906370a082319060240160206040518083038186803b1580156129d757600080fd5b505afa1580156129eb573d6000803e3d6000fd5b505050506040513d601f19601f82011682018060405250810190612a0f9190614cf1565b610101546040516370a0823160e01b81523060048201529192506000916001600160a01b03909116906370a082319060240160206040518083038186803b158015612a5957600080fd5b505afa158015612a6d573d6000803e3d6000fd5b505050506040513d601f19601f82011682018060405250810190612a919190614cf1565b610102546040516370a0823160e01b81523060048201529192506000916001600160a01b03909116906370a082319060240160206040518083038186803b158015612adb57600080fd5b505afa158015612aef573d6000803e3d6000fd5b505050506040513d601f19601f82011682018060405250810190612b139190614cf1565b610105546040516370a0823160e01b81523060048201529192506000916001600160a01b03909116906370a082319060240160206040518083038186803b158015612b5d57600080fd5b505afa158015612b71573d6000803e3d6000fd5b505050506040513d601f19601f82011682018060405250810190612b959190614cf1565b90508015612cfe5761010554604080516318160ddd60e01b815290516000926001600160a01b0316916318160ddd916004808301926020929190829003018186803b158015612be357600080fd5b505afa158015612bf7573d6000803e3d6000fd5b505050506040513d601f19601f82011682018060405250810190612c1b9190614cf1565b905060008061010560009054906101000a90046001600160a01b03166001600160a01b0316630902f1ac6040518163ffffffff1660e01b815260040160606040518083038186803b158015612c6f57600080fd5b505afa158015612c83573d6000803e3d6000fd5b505050506040513d601f19601f82011682018060405250810190612ca79190614d0a565b506001600160701b03918216935016905082612cc385846154db565b612ccd91906153cb565b612cd790876153b3565b955082612ce485836154db565b612cee91906153cb565b612cf890866153b3565b94505050505b61010354610101546000916001600160a01b03918216911614612ee9578315612ee4578615612eba57610103546001600160a01b039081166000908152610107602090815260408083205481516350d25bcd60e01b81529151939416926350d25bcd92600480840193919291829003018186803b158015612d7e57600080fd5b505afa158015612d92573d6000803e3d6000fd5b505050506040513d601f19601f82011682018060405250810190612db69190614cf1565b610101546001600160a01b039081166000908152610107602090815260408083205481516350d25bcd60e01b81529151959650929492909316926350d25bcd9260048083019392829003018186803b158015612e1157600080fd5b505afa158015612e25573d6000803e3d6000fd5b505050506040513d601f19601f82011682018060405250810190612e499190614cf1565b610101546001600160a01b031660009081526101086020526040902054909150612e749083906154db565b610103546001600160a01b0316600090815261010860205260409020548290612e9d90896154db565b612ea791906154db565b612eb191906153cb565b92505050612ef6565b610106546101015461010354612ee192916000916001600160a01b0391821691168861364a565b90505b612ef6565b612ef384826153b3565b90505b61010354610102546000916001600160a01b039182169116146130e15783156130dc5787156130b257610103546001600160a01b039081166000908152610107602090815260408083205481516350d25bcd60e01b81529151939416926350d25bcd92600480840193919291829003018186803b158015612f7657600080fd5b505afa158015612f8a573d6000803e3d6000fd5b505050506040513d601f19601f82011682018060405250810190612fae9190614cf1565b610102546001600160a01b039081166000908152610107602090815260408083205481516350d25bcd60e01b81529151959650929492909316926350d25bcd9260048083019392829003018186803b15801561300957600080fd5b505afa15801561301d573d6000803e3d6000fd5b505050506040513d601f19601f820116820180604052508101906130419190614cf1565b610102546001600160a01b03166000908152610108602052604090205490915061306c9083906154db565b610103546001600160a01b031660009081526101086020526040902054829061309590896154db565b61309f91906154db565b6130a991906153cb565b925050506130ee565b6101065461010254610103546130d992916000916001600160a01b0391821691168861364a565b90505b6130ee565b6130eb84826153b3565b90505b856130f982846153b3565b61310391906153b3565b98975050505050505050565b60006127106124f583826153b3565b60008061312b878a6154db565b613135878c6154db565b61313f91906153b3565b8661314a8d8b6154db565b61315491906154db565b61315e91906153cb565b905060005b60018110156131ed57600089613179848d6154db565b61318391906153cb565b90506000613195886000888a8661364a565b90506131a1818d6154db565b6131ab838f6154db565b6131b591906153b3565b828f8d6131c291906154db565b6131cc91906154db565b6131d691906153cb565b9350505080806131e590615560565b915050613163565b509a9950505050505050505050565b6000613251826040518060400160405280602081526020017f5361666545524332303a206c6f772d6c6576656c2063616c6c206661696c6564815250856001600160a01b031661436e9092919063ffffffff16565b805190915015610f5d578080602001905181019061326f9190614ccf565b610f5d5760405162461bcd60e51b815260206004820152602a60248201527f5361666545524332303a204552433230206f7065726174696f6e20646964206e6044820152691bdd081cdd58d8d9595960b21b606482015260840161056e565b600080600080600061010560009054906101000a90046001600160a01b03166001600160a01b0316630902f1ac6040518163ffffffff1660e01b815260040160606040518083038186803b15801561332557600080fd5b505afa158015613339573d6000803e3d6000fd5b505050506040513d601f19601f8201168201806040525081019061335d9190614d0a565b506001600160701b031691506001600160701b03169150600361010160009054906101000a90046001600160a01b03166001600160a01b031663313ce5676040518163ffffffff1660e01b815260040160206040518083038186803b1580156133c557600080fd5b505afa1580156133d9573d6000803e3d6000fd5b505050506040513d601f19601f820116820180604052508101906133fd9190614dc5565b6134079190615511565b61341290600a615430565b821180156134b15750610102546040805163313ce56760e01b815290516003926001600160a01b03169163313ce567916004808301926020929190829003018186803b15801561346157600080fd5b505afa158015613475573d6000803e3d6000fd5b505050506040513d601f19601f820116820180604052508101906134999190614dc5565b6134a39190615511565b6134ae90600a615430565b81115b6134f05760405162461bcd60e51b815260206004820152601060248201526f526573657276657320746f6f206c6f7760801b604482015260640161056e565b818161010560009054906101000a90046001600160a01b03166001600160a01b03166318160ddd6040518163ffffffff1660e01b815260040160206040518083038186803b15801561354157600080fd5b505afa158015613555573d6000803e3d6000fd5b505050506040513d601f19601f820116820180604052508101906135799190614cf1565b9450945094505050909192565b610103546040516370a0823160e01b81523060048201526000916001600160a01b0316906370a082319060240160206040518083038186803b1580156135cb57600080fd5b505afa1580156135df573d6000803e3d6000fd5b505050506040513d601f19601f820116820180604052508101906136039190614cf1565b61010154610103549192506001600160a01b039182169116146124e35761010654610103546101015461058192916000916001600160a01b03918216911630808785613c26565b604080516101208101825260008082526020820181905291810182905260608082018390526080820183905260a0820183905260c0820183905260e08201839052610100820152808660018111156136a4576136a46155b1565b908160018111156136b7576136b76155b1565b9052506001600160a01b0385811660208301528481166040808401919091526060830185905260cf549051631f29a8cd60e31b8152600481018a90526000928392839291169063f94d46689060240160006040518083038186803b15801561371e57600080fd5b505afa158015613732573d6000803e3d6000fd5b505050506040513d6000823e601f3d908101601f1916820160405261375a9190810190614bc5565b60cf5460405163f6c0092760e01b8152600481018f9052939650919450925060009182916001600160a01b03169063f6c0092790602401604080518083038186803b1580156137a857600080fd5b505afa1580156137bc573d6000803e3d6000fd5b505050506040513d601f19601f820116820180604052508101906137e09190614b50565b909250905060008160028111156137f9576137f96155b1565b14156139325760008060005b87518160ff1610156138a1578c6001600160a01b0316888260ff1681518110613830576138306155dd565b60200260200101516001600160a01b03161415613852578060ff16925061388f565b8b6001600160a01b0316888260ff1681518110613871576138716155dd565b60200260200101516001600160a01b0316141561388f578060ff1691505b806138998161557b565b915050613805565b5060405162f64aa560e11b81526001600160a01b038516906301ec954a906138d3908b908a9087908790600401615283565b60206040518083038186803b1580156138eb57600080fd5b505afa1580156138ff573d6000803e3d6000fd5b505050506040513d601f19601f820116820180604052508101906139239190614cf1565b98505050505050505050613b25565b6001816002811115613946576139466155b1565b1415613a515760008060005b87518160ff161015613a20578c6001600160a01b0316888260ff168151811061397d5761397d6155dd565b60200260200101516001600160a01b031614156139b857868160ff16815181106139a9576139a96155dd565b60200260200101519250613a0e565b8b6001600160a01b0316888260ff16815181106139d7576139d76155dd565b60200260200101516001600160a01b03161415613a0e57868160ff1681518110613a0357613a036155dd565b602002602001015191505b80613a188161557b565b915050613952565b5060405163274b044360e21b81526001600160a01b03851690639d2c110c906138d3908b90869086906004016152e4565b60008060005b87518160ff161015613a20578c6001600160a01b0316888260ff1681518110613a8257613a826155dd565b60200260200101516001600160a01b03161415613abd57868160ff1681518110613aae57613aae6155dd565b60200260200101519250613b13565b8b6001600160a01b0316888260ff1681518110613adc57613adc6155dd565b60200260200101516001600160a01b03161415613b1357868160ff1681518110613b0857613b086155dd565b602002602001015191505b80613b1d8161557b565b915050613a57565b95945050505050565b6000808888613b3d898d6154db565b613b4791906153cb565b613b5191906153b3565b613b5b8a8d6154db565b613b6591906153cb565b9050613b966040518060400160405280600d81526020016c0616d6f756e7430546f5377617609c1b81525082614387565b60005b868110156131ed57613bca6040518060400160405280600681526020016506f6e537761760d41b81525086866143cc565b6000613bda87600088888761364a565b90508a83613be8838f6154db565b613bf291906153cb565b613bfc91906153b3565b613c068c8f6154db565b613c1091906153cb565b9250508080613c1e90615560565b915050613b99565b60408051808201909152601981527842616c616e6365725661756c743a207377617070696e67203160381b602082015260cf54600091613c6e916001600160a01b0316614413565b604080518082018252601981527842616c616e6365725661756c743a207377617070696e67203160381b602082015290516370a0823160e01b8152306004820152613d1f919089906001600160a01b038216906370a082319060240160206040518083038186803b158015613ce257600080fd5b505afa158015613cf6573d6000803e3d6000fd5b505050506040513d601f19601f82011682018060405250810190613d1a9190614cf1565b614458565b60cf546040516370a0823160e01b81523060048201526001600160a01b038981169263095ea7b39291169083906370a082319060240160206040518083038186803b158015613d6d57600080fd5b505afa158015613d81573d6000803e3d6000fd5b505050506040513d601f19601f82011682018060405250810190613da59190614cf1565b6040516001600160e01b031960e085901b1681526001600160a01b0390921660048301526024820152604401602060405180830381600087803b158015613deb57600080fd5b505af1158015613dff573d6000803e3d6000fd5b505050506040513d601f19601f82011682018060405250810190613e239190614ccf565b50613e706040805160c0810190915260008082526020820190815260200160006001600160a01b0316815260200160006001600160a01b0316815260200160008152602001606081525090565b89815260208101896001811115613e8957613e896155b1565b90816001811115613e9c57613e9c6155b1565b9052506001600160a01b038881166040838101919091528882166060808501919091526080808501889052825190810183526000602082018190529181019190915288831681528783169181019190915260cf549091166352bbbe29838387613f07426102586153b3565b6040518563ffffffff1660e01b8152600401613f2694939291906151c8565b602060405180830381600087803b158015613f4057600080fd5b505af1158015613f54573d6000803e3d6000fd5b505050506040513d601f19601f82011682018060405250810190613f789190614cf1565b9b9a5050505050505050505050565b609d5460405163095ea7b360e01b81526001600160a01b03918216600482015260248101879052600091829182918b169063095ea7b390604401602060405180830381600087803b158015613fdb57600080fd5b505af1158015613fef573d6000803e3d6000fd5b505050506040513d601f19601f820116820180604052508101906140139190614ccf565b50609d5460405163095ea7b360e01b81526001600160a01b03918216600482015260248101899052908a169063095ea7b390604401602060405180830381600087803b15801561406257600080fd5b505af1158015614076573d6000803e3d6000fd5b505050506040513d601f19601f8201168201806040525081019061409a9190614ccf565b50609d546001600160a01b031663e8e337008b8b8b8b8b8b8b6140bf426102586153b3565b60405160e08a901b6001600160e01b03191681526001600160a01b039889166004820152968816602488015260448701959095526064860193909352608485019190915260a484015290921660c482015260e481019190915261010401606060405180830381600087803b15801561413657600080fd5b505af115801561414a573d6000803e3d6000fd5b505050506040513d601f19601f8201168201806040525081019061416e9190614d97565b9250925092509750975097945050505050565b609d5460405163095ea7b360e01b81526001600160a01b0391821660048201526024810184905260009186169063095ea7b390604401602060405180830381600087803b1580156141d157600080fd5b505af11580156141e5573d6000803e3d6000fd5b505050506040513d601f19601f820116820180604052508101906142099190614ccf565b50600061421786868661449f565b905080614228576000915050614366565b604080516002808252606082018352600092602083019080368337019050509050868160008151811061425d5761425d6155dd565b60200260200101906001600160a01b031690816001600160a01b0316815250508581600181518110614291576142916155dd565b6001600160a01b039283166020918202929092010152609d54600091166338ed1739876142bf8660046124e6565b85896142cd426102586153b3565b6040518663ffffffff1660e01b81526004016142ed959493929190615322565b600060405180830381600087803b15801561430757600080fd5b505af115801561431b573d6000803e3d6000fd5b505050506040513d6000823e601f3d908101601f191682016040526143439190810190614c9a565b905080600181518110614358576143586155dd565b602002602001015193505050505b949350505050565b606061437d84846000856145cc565b90505b9392505050565b610581828260405160240161439d929190615094565b60408051601f198184030181529190526020810180516001600160e01b03166309710a9d60e41b1790526146f4565b610f5d8383836040516024016143e493929190615033565b60408051601f198184030181529190526020810180516001600160e01b03166307e763af60e51b1790526146f4565b6105818282604051602401614429929190615009565b60408051601f198184030181529190526020810180516001600160e01b031663319af33360e01b1790526146f4565b610f5d83838360405160240161447093929190615066565b60408051601f198184030181529190526020810180516001600160e01b03166307c8121760e01b1790526146f4565b6040805160028082526060820183526000928392919060208301908036833701905050905084816000815181106144d8576144d86155dd565b60200260200101906001600160a01b031690816001600160a01b031681525050838160018151811061450c5761450c6155dd565b6001600160a01b039283166020918202929092010152609d5460405163d06ca61f60e01b8152600092919091169063d06ca61f906145509087908690600401615309565b60006040518083038186803b15801561456857600080fd5b505afa15801561457c573d6000803e3d6000fd5b505050506040513d6000823e601f3d908101601f191682016040526145a49190810190614c9a565b9050806001815181106145b9576145b96155dd565b6020026020010151925050509392505050565b60608247101561462d5760405162461bcd60e51b815260206004820152602660248201527f416464726573733a20696e73756666696369656e742062616c616e636520666f6044820152651c8818d85b1b60d21b606482015260840161056e565b843b61467b5760405162461bcd60e51b815260206004820152601d60248201527f416464726573733a2063616c6c20746f206e6f6e2d636f6e7472616374000000604482015260640161056e565b600080866001600160a01b031685876040516146979190614f2f565b60006040518083038185875af1925050503d80600081146146d4576040519150601f19603f3d011682016040523d82523d6000602084013e6146d9565b606091505b50915091506146e9828286614715565b979650505050505050565b80516a636f6e736f6c652e6c6f67602083016000808483855afa5050505050565b60608315614724575081614380565b8251156147345782518084602001fd5b8160405162461bcd60e51b815260040161056e9190614ff6565b8280548282559060005260206000209081019282156147a1579160200282015b828111156147a15781546001600160a01b0319166001600160a01b0384351617825560209092019160019091019061476e565b506147ad9291506147b1565b5090565b5b808211156147ad57600081556001016147b2565b80356147d181615609565b919050565b60008083601f8401126147e857600080fd5b50813567ffffffffffffffff81111561480057600080fd5b6020830191508360208260051b850101111561481b57600080fd5b9250929050565b600082601f83011261483357600080fd5b815160206148486148438361538f565b61535e565b80838252828201915082860187848660051b890101111561486857600080fd5b60005b858110156148875781518452928401929084019060010161486b565b5090979650505050505050565b80516001600160701b03811681146147d157600080fd5b6000602082840312156148bd57600080fd5b813561438081615609565b600080604083850312156148db57600080fd5b82356148e681615609565b915060208301356148f681615609565b809150509250929050565b60008060008060008060008060a0898b03121561491d57600080fd5b883561492881615609565b9750602089013561493881615609565b9650604089013567ffffffffffffffff8082111561495557600080fd5b6149618c838d016147d6565b909850965060608b013591508082111561497a57600080fd5b6149868c838d016147d6565b909650945060808b013591508082111561499f57600080fd5b506149ac8b828c016147d6565b999c989b5096995094979396929594505050565b6000806000806000806000806000806000806101008d8f0312156149e357600080fd5b6149ec8d6147c6565b9b506149fa60208e016147c6565b9a5067ffffffffffffffff60408e01351115614a1557600080fd5b614a258e60408f01358f016147d6565b909a50985067ffffffffffffffff60608e01351115614a4357600080fd5b614a538e60608f01358f016147d6565b909850965067ffffffffffffffff60808e01351115614a7157600080fd5b614a818e60808f01358f016147d6565b9096509450614a9260a08e016147c6565b9350614aa060c08e016147c6565b925067ffffffffffffffff60e08e01351115614abb57600080fd5b614acb8e60e08f01358f016147d6565b81935080925050509295989b509295989b509295989b565b600080600060608486031215614af857600080fd5b8335614b0381615609565b92506020840135614b1381615609565b929592945050506040919091013590565b60008060408385031215614b3757600080fd5b8235614b4281615609565b946020939093013593505050565b60008060408385031215614b6357600080fd5b8251614b6e81615609565b6020840151909250600381106148f657600080fd5b60008060208385031215614b9657600080fd5b823567ffffffffffffffff811115614bad57600080fd5b614bb9858286016147d6565b90969095509350505050565b600080600060608486031215614bda57600080fd5b835167ffffffffffffffff80821115614bf257600080fd5b818601915086601f830112614c0657600080fd5b81516020614c166148438361538f565b8083825282820191508286018b848660051b8901011115614c3657600080fd5b600096505b84871015614c62578051614c4e81615609565b835260019690960195918301918301614c3b565b5091890151919750909350505080821115614c7c57600080fd5b50614c8986828701614822565b925050604084015190509250925092565b600060208284031215614cac57600080fd5b815167ffffffffffffffff811115614cc357600080fd5b61436684828501614822565b600060208284031215614ce157600080fd5b8151801515811461438057600080fd5b600060208284031215614d0357600080fd5b5051919050565b600080600060608486031215614d1f57600080fd5b614d2884614894565b9250614d3660208501614894565b9150604084015163ffffffff81168114614d4f57600080fd5b809150509250925092565b600060208284031215614d6c57600080fd5b5035919050565b60008060408385031215614d8657600080fd5b505080516020909101519092909150565b600080600060608486031215614dac57600080fd5b8351925060208401519150604084015190509250925092565b600060208284031215614dd757600080fd5b815160ff8116811461438057600080fd5b600081518084526020808501945080840160005b83811015614e215781516001600160a01b031687529582019590820190600101614dfc565b509495945050505050565b60008151808452614e44816020860160208601615534565b601f01601f19169290920160200192915050565b60028110614e7657634e487b7160e01b600052602160045260246000fd5b9052565b6000610120614e8a848451614e58565b6020838101516001600160a01b03169085015260408084015190614eb8908601826001600160a01b03169052565b50606083015160608501526080830151608085015260a083015160a085015260c0830151614ef160c08601826001600160a01b03169052565b5060e0830151614f0c60e08601826001600160a01b03169052565b50610100808401518282870152614f2583870182614e2c565b9695505050505050565b60008251614f41818460208701615534565b9190910192915050565b6020815260006125096020830184614de8565b6000604082016040835280865480835260608501915087600052602092508260002060005b82811015614fa85781546001600160a01b031684529284019260019182019101614f83565b505050838103828501528481528590820160005b86811015614fea578235614fcf81615609565b6001600160a01b031682529183019190830190600101614fbc565b50979650505050505050565b6020815260006125096020830184614e2c565b60408152600061501c6040830185614e2c565b905060018060a01b03831660208301529392505050565b6060815260006150466060830186614e2c565b6001600160a01b0394851660208401529290931660409091015292915050565b6060815260006150796060830186614e2c565b6001600160a01b039490941660208301525060400152919050565b6040815260006150a76040830185614e2c565b90508260208301529392505050565b60208082526017908201527f43616c6c6572206973206e6f7420746865205661756c74000000000000000000604082015260600190565b6020808252601a908201527f43616c6c6572206973206e6f742074686520476f7665726e6f72000000000000604082015260600190565b6020808252602e908201527f496e697469616c697a61626c653a20636f6e747261637420697320616c72656160408201526d191e481a5b9a5d1a585b1a5e995960921b606082015260800190565b6020808252601490820152732a37b5b2b7103737ba1039bab83837b93a32b21760611b604082015260600190565b6020808252600e908201526d1499595b9d1c985b9d0818d85b1b60921b604082015260600190565b60e08152845160e0820152600060208601516151e8610100840182614e58565b5060408601516001600160a01b03908116610120840152606087015116610140830152608086015161016083015260a086015160c06101808401526152316101a0840182614e2c565b915050615271602083018680516001600160a01b039081168352602080830151151590840152604080830151909116908301526060908101511515910152565b60a082019390935260c0015292915050565b6080815260006152966080830187614e7a565b82810360208481019190915286518083528782019282019060005b818110156152cd578451835293830193918301916001016152b1565b505060408501969096525050506060015292915050565b6060815260006152f76060830186614e7a565b60208301949094525060400152919050565b82815260406020820152600061437d6040830184614de8565b85815284602082015260a06040820152600061534160a0830186614de8565b6001600160a01b0394909416606083015250608001529392505050565b604051601f8201601f1916810167ffffffffffffffff81118282101715615387576153876155f3565b604052919050565b600067ffffffffffffffff8211156153a9576153a96155f3565b5060051b60200190565b600082198211156153c6576153c661559b565b500190565b6000826153e857634e487b7160e01b600052601260045260246000fd5b500490565b600181815b8085111561542857816000190482111561540e5761540e61559b565b8085161561541b57918102915b93841c93908002906153f2565b509250929050565b600061250960ff8416836000826154495750600161250c565b816154565750600061250c565b816001811461546c576002811461547657615492565b600191505061250c565b60ff8411156154875761548761559b565b50506001821b61250c565b5060208310610133831016604e8410600b84101617156154b5575081810a61250c565b6154bf83836153ed565b80600019048211156154d3576154d361559b565b029392505050565b60008160001904831182151516156154f5576154f561559b565b500290565b60008282101561550c5761550c61559b565b500390565b600060ff821660ff84168082101561552b5761552b61559b565b90039392505050565b60005b8381101561554f578181015183820152602001615537565b8381111561241c5750506000910152565b60006000198214156155745761557461559b565b5060010190565b600060ff821660ff8114156155925761559261559b565b60010192915050565b634e487b7160e01b600052601160045260246000fd5b634e487b7160e01b600052602160045260246000fd5b634e487b7160e01b600052603160045260246000fd5b634e487b7160e01b600052603260045260246000fd5b634e487b7160e01b600052604160045260246000fd5b6001600160a01b03811681146124e357600080fdfe48a06827bfe8bfc0a59fe65d0fa78f553938265ed1f971326fc09947d19a593c83f34c88ec39d54d1e423bd8a181ebc59ede5dcc9996c2df334668b4f89fdd73a26469706673582212203064c9497b4fb4befd935ee11574dba4ecf2c1d4af240dee92d64652ac36780364736f6c6343000806003383f34c88ec39d54d1e423bd8a181ebc59ede5dcc9996c2df334668b4f89fdd73",
  "devdoc": {
    "kind": "dev",
    "methods": {
      "checkBalance()": {
        "details": "Get the total primary stable value held in the platform.      This includes any interest that was generated since depositing.",
        "returns": {
          "_0": "   Total value of the asset in the platform"
        }
      },
      "claimGovernance()": {
        "details": "Claim Governance of the contract to a new account (`newGovernor`). Can only be called by the new Governor."
      },
      "collectRewardTokens()": {
        "details": "Collect accumulated reward token and send to Vault."
      },
      "deposit(address,uint256)": {
        "details": "Deposit an amount of asset into the platform",
        "params": {
          "_amount": "Units of asset to deposit",
          "_asset": "Address for the asset"
        }
      },
      "depositAll()": {
        "details": "Deposit balance of all supported assets into the platform"
      },
      "getRewardTokenAddresses()": {
        "details": "Get the reward token addresses.",
        "returns": {
          "_0": "address[] the reward token addresses."
        }
      },
      "governor()": {
        "details": "Returns the address of the current Governor."
      },
      "initialize(address,address,address[],address[],address[])": {
        "details": "Internal initialize function, to set up initial internal state",
        "params": {
          "_assets": "Addresses of initial supported assets",
          "_pTokens": "Platform Token corresponding addresses",
          "_platformAddress": "Generic platform address",
          "_rewardTokenAddresses": "Address of reward token for platform",
          "_vaultAddress": "Address of the Vault"
        }
      },
      "isGovernor()": {
        "details": "Returns true if the caller is the current Governor."
      },
      "removePToken(uint256)": {
        "details": "Remove a supported asset by passing its index.      This method can only be called by the system Governor",
        "params": {
          "_assetIndex": "Index of the asset to be removed"
        }
      },
      "setHarvesterAddress(address)": {
        "details": "Set the reward token addresses.",
        "params": {
          "_harvesterAddress": "Address of the harvester"
        }
      },
      "setPTokenAddress(address,address)": {
        "details": "Provide support for asset by passing its pToken address.      This method can only be called by the system Governor",
        "params": {
          "_asset": "Address for the asset",
          "_pToken": "Address for the corresponding platform token"
        }
      },
      "setRewardTokenAddresses(address[])": {
        "details": "Set the reward token addresses.",
        "params": {
          "_rewardTokenAddresses": "Address array of the reward token"
        }
      },
      "supportsAsset(address)": {
        "details": "Check if an asset is supported.",
        "params": {
          "_asset": "Address of the asset"
        },
        "returns": {
          "_0": "bool     Whether asset is supported"
        }
      },
      "transferGovernance(address)": {
        "details": "Transfers Governance of the contract to a new account (`newGovernor`). Can only be called by the current Governor. Must be claimed for this to complete",
        "params": {
          "_newGovernor": "Address of the new Governor"
        }
      },
      "transferToken(address,uint256)": {
        "details": "Transfer token to governor. Intended for recovering tokens stuck in      strategy contracts, i.e. mistaken sends.",
        "params": {
          "_amount": "Amount of the asset to transfer",
          "_asset": "Address for the asset"
        }
      },
      "withdrawAll()": {
        "details": "Withdraw all assets from strategy sending assets to Vault."
      }
    },
    "version": 1
  },
  "userdoc": {
    "kind": "user",
    "methods": {
      "initialize(address,address,address[],address[],address[],address,address,address[])": {
        "notice": "Initializer for setting up strategy internal state. This overrides the InitializableAbstractStrategy initializer as MeshSwap strategies don't fit well within that abstraction."
      }
    },
    "version": 1
  },
  "storageLayout": {
    "storage": [
      {
        "astId": 29944,
        "contract": "contracts/strategies/MeshSwapStrategyDual.sol:MeshSwapStrategyDual",
        "label": "initialized",
        "offset": 0,
        "slot": "0",
        "type": "t_bool"
      },
      {
        "astId": 29947,
        "contract": "contracts/strategies/MeshSwapStrategyDual.sol:MeshSwapStrategyDual",
        "label": "initializing",
        "offset": 1,
        "slot": "0",
        "type": "t_bool"
      },
      {
        "astId": 29987,
        "contract": "contracts/strategies/MeshSwapStrategyDual.sol:MeshSwapStrategyDual",
        "label": "______gap",
        "offset": 0,
        "slot": "1",
        "type": "t_array(t_uint256)50_storage"
      },
      {
        "astId": 30071,
        "contract": "contracts/strategies/MeshSwapStrategyDual.sol:MeshSwapStrategyDual",
        "label": "platformAddress",
        "offset": 0,
        "slot": "51",
        "type": "t_address"
      },
      {
        "astId": 30073,
        "contract": "contracts/strategies/MeshSwapStrategyDual.sol:MeshSwapStrategyDual",
        "label": "vaultAddress",
        "offset": 0,
        "slot": "52",
        "type": "t_address"
      },
      {
        "astId": 30077,
        "contract": "contracts/strategies/MeshSwapStrategyDual.sol:MeshSwapStrategyDual",
        "label": "assetToPToken",
        "offset": 0,
        "slot": "53",
        "type": "t_mapping(t_address,t_address)"
      },
      {
        "astId": 30080,
        "contract": "contracts/strategies/MeshSwapStrategyDual.sol:MeshSwapStrategyDual",
        "label": "assetsMapped",
        "offset": 0,
        "slot": "54",
        "type": "t_array(t_address)dyn_storage"
      },
      {
        "astId": 30082,
        "contract": "contracts/strategies/MeshSwapStrategyDual.sol:MeshSwapStrategyDual",
        "label": "_deprecated_rewardTokenAddress",
        "offset": 0,
        "slot": "55",
        "type": "t_address"
      },
      {
        "astId": 30084,
        "contract": "contracts/strategies/MeshSwapStrategyDual.sol:MeshSwapStrategyDual",
        "label": "_deprecated_rewardLiquidationThreshold",
        "offset": 0,
        "slot": "56",
        "type": "t_uint256"
      },
      {
        "astId": 30086,
        "contract": "contracts/strategies/MeshSwapStrategyDual.sol:MeshSwapStrategyDual",
        "label": "harvesterAddress",
        "offset": 0,
        "slot": "57",
        "type": "t_address"
      },
      {
        "astId": 30089,
        "contract": "contracts/strategies/MeshSwapStrategyDual.sol:MeshSwapStrategyDual",
        "label": "rewardTokenAddresses",
        "offset": 0,
        "slot": "58",
        "type": "t_array(t_address)dyn_storage"
      },
      {
        "astId": 30093,
        "contract": "contracts/strategies/MeshSwapStrategyDual.sol:MeshSwapStrategyDual",
        "label": "_reserved",
        "offset": 0,
        "slot": "59",
        "type": "t_array(t_int256)98_storage"
      },
      {
        "astId": 7451,
        "contract": "contracts/strategies/MeshSwapStrategyDual.sol:MeshSwapStrategyDual",
        "label": "uniswapRouter",
        "offset": 0,
        "slot": "157",
        "type": "t_contract(IUniswapV2Router02)5584"
      },
      {
        "astId": 7713,
        "contract": "contracts/strategies/MeshSwapStrategyDual.sol:MeshSwapStrategyDual",
        "label": "__gap",
        "offset": 0,
        "slot": "158",
        "type": "t_array(t_uint256)49_storage"
      },
      {
        "astId": 6121,
        "contract": "contracts/strategies/MeshSwapStrategyDual.sol:MeshSwapStrategyDual",
        "label": "balancerVault",
        "offset": 0,
        "slot": "207",
        "type": "t_contract(IVault)11711"
      },
      {
        "astId": 7164,
        "contract": "contracts/strategies/MeshSwapStrategyDual.sol:MeshSwapStrategyDual",
        "label": "__gap",
        "offset": 0,
        "slot": "208",
        "type": "t_array(t_uint256)49_storage"
      },
      {
        "astId": 23759,
        "contract": "contracts/strategies/MeshSwapStrategyDual.sol:MeshSwapStrategyDual",
        "label": "token0",
        "offset": 0,
        "slot": "257",
        "type": "t_contract(IERC20)623"
      },
      {
        "astId": 23762,
        "contract": "contracts/strategies/MeshSwapStrategyDual.sol:MeshSwapStrategyDual",
        "label": "token1",
        "offset": 0,
        "slot": "258",
        "type": "t_contract(IERC20)623"
      },
      {
        "astId": 23765,
        "contract": "contracts/strategies/MeshSwapStrategyDual.sol:MeshSwapStrategyDual",
        "label": "primaryStable",
        "offset": 0,
        "slot": "259",
        "type": "t_contract(IERC20)623"
      },
      {
        "astId": 23768,
        "contract": "contracts/strategies/MeshSwapStrategyDual.sol:MeshSwapStrategyDual",
        "label": "meshToken",
        "offset": 0,
        "slot": "260",
        "type": "t_contract(IERC20)623"
      },
      {
        "astId": 23771,
        "contract": "contracts/strategies/MeshSwapStrategyDual.sol:MeshSwapStrategyDual",
        "label": "meshSwapPair",
        "offset": 0,
        "slot": "261",
        "type": "t_contract(IMeshSwapLP)9676"
      },
      {
        "astId": 23773,
        "contract": "contracts/strategies/MeshSwapStrategyDual.sol:MeshSwapStrategyDual",
        "label": "poolId",
        "offset": 0,
        "slot": "262",
        "type": "t_bytes32"
      },
      {
        "astId": 23777,
        "contract": "contracts/strategies/MeshSwapStrategyDual.sol:MeshSwapStrategyDual",
        "label": "assetToChainlink",
        "offset": 0,
        "slot": "263",
        "type": "t_mapping(t_address,t_address)"
      },
      {
        "astId": 23781,
        "contract": "contracts/strategies/MeshSwapStrategyDual.sol:MeshSwapStrategyDual",
        "label": "assetToDenominator",
        "offset": 0,
        "slot": "264",
        "type": "t_mapping(t_address,t_uint256)"
      }
    ],
    "types": {
      "t_address": {
        "encoding": "inplace",
        "label": "address",
        "numberOfBytes": "20"
      },
      "t_array(t_address)dyn_storage": {
        "base": "t_address",
        "encoding": "dynamic_array",
        "label": "address[]",
        "numberOfBytes": "32"
      },
      "t_array(t_int256)98_storage": {
        "base": "t_int256",
        "encoding": "inplace",
        "label": "int256[98]",
        "numberOfBytes": "3136"
      },
      "t_array(t_uint256)49_storage": {
        "base": "t_uint256",
        "encoding": "inplace",
        "label": "uint256[49]",
        "numberOfBytes": "1568"
      },
      "t_array(t_uint256)50_storage": {
        "base": "t_uint256",
        "encoding": "inplace",
        "label": "uint256[50]",
        "numberOfBytes": "1600"
      },
      "t_bool": {
        "encoding": "inplace",
        "label": "bool",
        "numberOfBytes": "1"
      },
      "t_bytes32": {
        "encoding": "inplace",
        "label": "bytes32",
        "numberOfBytes": "32"
      },
      "t_contract(IERC20)623": {
        "encoding": "inplace",
        "label": "contract IERC20",
        "numberOfBytes": "20"
      },
      "t_contract(IMeshSwapLP)9676": {
        "encoding": "inplace",
        "label": "contract IMeshSwapLP",
        "numberOfBytes": "20"
      },
      "t_contract(IUniswapV2Router02)5584": {
        "encoding": "inplace",
        "label": "contract IUniswapV2Router02",
        "numberOfBytes": "20"
      },
      "t_contract(IVault)11711": {
        "encoding": "inplace",
        "label": "contract IVault",
        "numberOfBytes": "20"
      },
      "t_int256": {
        "encoding": "inplace",
        "label": "int256",
        "numberOfBytes": "32"
      },
      "t_mapping(t_address,t_address)": {
        "encoding": "mapping",
        "key": "t_address",
        "label": "mapping(address => address)",
        "numberOfBytes": "32",
        "value": "t_address"
      },
      "t_mapping(t_address,t_uint256)": {
        "encoding": "mapping",
        "key": "t_address",
        "label": "mapping(address => uint256)",
        "numberOfBytes": "32",
        "value": "t_uint256"
      },
      "t_uint256": {
        "encoding": "inplace",
        "label": "uint256",
        "numberOfBytes": "32"
      }
    }
  }
}