{
  "address": "0x8c89cfC1eF24747BADAB156C1950f8680aF7F181",
  "abi": [
    {
      "anonymous": false,
      "inputs": [
        {
          "indexed": true,
          "internalType": "address",
          "name": "_asset",
          "type": "address"
        },
        {
          "indexed": false,
          "internalType": "address",
          "name": "_pToken",
          "type": "address"
        },
        {
          "indexed": false,
          "internalType": "uint256",
          "name": "_amount",
          "type": "uint256"
        }
      ],
      "name": "Deposit",
      "type": "event"
    },
    {
      "anonymous": false,
      "inputs": [
        {
          "indexed": true,
          "internalType": "address",
          "name": "previousGovernor",
          "type": "address"
        },
        {
          "indexed": true,
          "internalType": "address",
          "name": "newGovernor",
          "type": "address"
        }
      ],
      "name": "GovernorshipTransferred",
      "type": "event"
    },
    {
      "anonymous": false,
      "inputs": [
        {
          "indexed": false,
          "internalType": "address",
          "name": "_oldHarvesterAddress",
          "type": "address"
        },
        {
          "indexed": false,
          "internalType": "address",
          "name": "_newHarvesterAddress",
          "type": "address"
        }
      ],
      "name": "HarvesterAddressesUpdated",
      "type": "event"
    },
    {
      "anonymous": false,
      "inputs": [
        {
          "indexed": true,
          "internalType": "address",
          "name": "_asset",
          "type": "address"
        },
        {
          "indexed": false,
          "internalType": "address",
          "name": "_pToken",
          "type": "address"
        }
      ],
      "name": "PTokenAdded",
      "type": "event"
    },
    {
      "anonymous": false,
      "inputs": [
        {
          "indexed": true,
          "internalType": "address",
          "name": "_asset",
          "type": "address"
        },
        {
          "indexed": false,
          "internalType": "address",
          "name": "_pToken",
          "type": "address"
        }
      ],
      "name": "PTokenRemoved",
      "type": "event"
    },
    {
      "anonymous": false,
      "inputs": [
        {
          "indexed": true,
          "internalType": "address",
          "name": "previousGovernor",
          "type": "address"
        },
        {
          "indexed": true,
          "internalType": "address",
          "name": "newGovernor",
          "type": "address"
        }
      ],
      "name": "PendingGovernorshipTransfer",
      "type": "event"
    },
    {
      "anonymous": false,
      "inputs": [
        {
          "indexed": false,
          "internalType": "address[]",
          "name": "_oldAddresses",
          "type": "address[]"
        },
        {
          "indexed": false,
          "internalType": "address[]",
          "name": "_newAddresses",
          "type": "address[]"
        }
      ],
      "name": "RewardTokenAddressesUpdated",
      "type": "event"
    },
    {
      "anonymous": false,
      "inputs": [
        {
          "indexed": false,
          "internalType": "address",
          "name": "recipient",
          "type": "address"
        },
        {
          "indexed": false,
          "internalType": "address",
          "name": "rewardToken",
          "type": "address"
        },
        {
          "indexed": false,
          "internalType": "uint256",
          "name": "amount",
          "type": "uint256"
        }
      ],
      "name": "RewardTokenCollected",
      "type": "event"
    },
    {
      "anonymous": false,
      "inputs": [
        {
          "indexed": false,
          "internalType": "string",
          "name": "_message",
          "type": "string"
        },
        {
          "indexed": false,
          "internalType": "address",
          "name": "_asset",
          "type": "address"
        },
        {
          "indexed": false,
          "internalType": "uint256",
          "name": "_number",
          "type": "uint256"
        }
      ],
      "name": "TransferLog",
      "type": "event"
    },
    {
      "anonymous": false,
      "inputs": [
        {
          "indexed": true,
          "internalType": "address",
          "name": "_asset",
          "type": "address"
        },
        {
          "indexed": false,
          "internalType": "address",
          "name": "_pToken",
          "type": "address"
        },
        {
          "indexed": false,
          "internalType": "uint256",
          "name": "_amount",
          "type": "uint256"
        }
      ],
      "name": "Withdrawal",
      "type": "event"
    },
    {
      "inputs": [],
      "name": "BASIS_POINTS_FOR_SLIPPAGE",
      "outputs": [
        {
          "internalType": "uint256",
          "name": "",
          "type": "uint256"
        }
      ],
      "stateMutability": "view",
      "type": "function"
    },
    {
      "inputs": [],
      "name": "MAX_VALUE",
      "outputs": [
        {
          "internalType": "int256",
          "name": "",
          "type": "int256"
        }
      ],
      "stateMutability": "view",
      "type": "function"
    },
    {
      "inputs": [],
      "name": "_deprecated_rewardLiquidationThreshold",
      "outputs": [
        {
          "internalType": "uint256",
          "name": "",
          "type": "uint256"
        }
      ],
      "stateMutability": "view",
      "type": "function"
    },
    {
      "inputs": [],
      "name": "_deprecated_rewardTokenAddress",
      "outputs": [
        {
          "internalType": "address",
          "name": "",
          "type": "address"
        }
      ],
      "stateMutability": "view",
      "type": "function"
    },
    {
      "inputs": [
        {
          "internalType": "address",
          "name": "",
          "type": "address"
        }
      ],
      "name": "assetToDenominator",
      "outputs": [
        {
          "internalType": "uint256",
          "name": "",
          "type": "uint256"
        }
      ],
      "stateMutability": "view",
      "type": "function"
    },
    {
      "inputs": [
        {
          "internalType": "address",
          "name": "",
          "type": "address"
        }
      ],
      "name": "assetToPToken",
      "outputs": [
        {
          "internalType": "address",
          "name": "",
          "type": "address"
        }
      ],
      "stateMutability": "view",
      "type": "function"
    },
    {
      "inputs": [],
      "name": "checkBalance",
      "outputs": [
        {
          "internalType": "uint256",
          "name": "",
          "type": "uint256"
        }
      ],
      "stateMutability": "view",
      "type": "function"
    },
    {
      "inputs": [],
      "name": "claimGovernance",
      "outputs": [],
      "stateMutability": "nonpayable",
      "type": "function"
    },
    {
      "inputs": [],
      "name": "collectRewardTokens",
      "outputs": [],
      "stateMutability": "nonpayable",
      "type": "function"
    },
    {
      "inputs": [
        {
          "internalType": "address",
          "name": "_asset",
          "type": "address"
        },
        {
          "internalType": "uint256",
          "name": "_amount",
          "type": "uint256"
        }
      ],
      "name": "deposit",
      "outputs": [],
      "stateMutability": "nonpayable",
      "type": "function"
    },
    {
      "inputs": [],
      "name": "depositAll",
      "outputs": [],
      "stateMutability": "nonpayable",
      "type": "function"
    },
    {
      "inputs": [],
      "name": "getRewardTokenAddresses",
      "outputs": [
        {
          "internalType": "address[]",
          "name": "",
          "type": "address[]"
        }
      ],
      "stateMutability": "view",
      "type": "function"
    },
    {
      "inputs": [],
      "name": "governor",
      "outputs": [
        {
          "internalType": "address",
          "name": "",
          "type": "address"
        }
      ],
      "stateMutability": "view",
      "type": "function"
    },
    {
      "inputs": [],
      "name": "harvesterAddress",
      "outputs": [
        {
          "internalType": "address",
          "name": "",
          "type": "address"
        }
      ],
      "stateMutability": "view",
      "type": "function"
    },
    {
      "inputs": [
        {
          "internalType": "address",
          "name": "_platformAddress",
          "type": "address"
        },
        {
          "internalType": "address",
          "name": "_vaultAddress",
          "type": "address"
        },
        {
          "internalType": "address[]",
          "name": "_rewardTokenAddresses",
          "type": "address[]"
        },
        {
          "internalType": "address[]",
          "name": "_assets",
          "type": "address[]"
        },
        {
          "internalType": "address[]",
          "name": "_pTokens",
          "type": "address[]"
        },
        {
          "internalType": "address",
          "name": "_primaryStable",
          "type": "address"
        },
        {
          "internalType": "address",
          "name": "_router",
          "type": "address"
        },
        {
          "internalType": "address",
          "name": "_staker",
          "type": "address"
        },
        {
          "internalType": "address",
          "name": "_rewardToken",
          "type": "address"
        }
      ],
      "name": "initialize",
      "outputs": [],
      "stateMutability": "nonpayable",
      "type": "function"
    },
    {
      "inputs": [
        {
          "internalType": "address",
          "name": "_platformAddress",
          "type": "address"
        },
        {
          "internalType": "address",
          "name": "_vaultAddress",
          "type": "address"
        },
        {
          "internalType": "address[]",
          "name": "_rewardTokenAddresses",
          "type": "address[]"
        },
        {
          "internalType": "address[]",
          "name": "_assets",
          "type": "address[]"
        },
        {
          "internalType": "address[]",
          "name": "_pTokens",
          "type": "address[]"
        }
      ],
      "name": "initialize",
      "outputs": [],
      "stateMutability": "nonpayable",
      "type": "function"
    },
    {
      "inputs": [],
      "name": "isGovernor",
      "outputs": [
        {
          "internalType": "bool",
          "name": "",
          "type": "bool"
        }
      ],
      "stateMutability": "view",
      "type": "function"
    },
    {
      "inputs": [],
      "name": "platformAddress",
      "outputs": [
        {
          "internalType": "address",
          "name": "",
          "type": "address"
        }
      ],
      "stateMutability": "view",
      "type": "function"
    },
    {
      "inputs": [],
      "name": "poolId",
      "outputs": [
        {
          "internalType": "bytes32",
          "name": "",
          "type": "bytes32"
        }
      ],
      "stateMutability": "view",
      "type": "function"
    },
    {
      "inputs": [],
      "name": "primaryStable",
      "outputs": [
        {
          "internalType": "contract IERC20",
          "name": "",
          "type": "address"
        }
      ],
      "stateMutability": "view",
      "type": "function"
    },
    {
      "inputs": [],
      "name": "quickDragon",
      "outputs": [
        {
          "internalType": "contract IERC20",
          "name": "",
          "type": "address"
        }
      ],
      "stateMutability": "view",
      "type": "function"
    },
    {
      "inputs": [],
      "name": "quickSwapPair",
      "outputs": [
        {
          "internalType": "contract IUniswapV2Pair",
          "name": "",
          "type": "address"
        }
      ],
      "stateMutability": "view",
      "type": "function"
    },
    {
      "inputs": [],
      "name": "quickSwapPairStaker",
      "outputs": [
        {
          "internalType": "contract IStakingRewards",
          "name": "",
          "type": "address"
        }
      ],
      "stateMutability": "view",
      "type": "function"
    },
    {
      "inputs": [],
      "name": "quickTokenNew",
      "outputs": [
        {
          "internalType": "contract IERC20",
          "name": "",
          "type": "address"
        }
      ],
      "stateMutability": "view",
      "type": "function"
    },
    {
      "inputs": [
        {
          "internalType": "uint256",
          "name": "_assetIndex",
          "type": "uint256"
        }
      ],
      "name": "removePToken",
      "outputs": [],
      "stateMutability": "nonpayable",
      "type": "function"
    },
    {
      "inputs": [
        {
          "internalType": "uint256",
          "name": "",
          "type": "uint256"
        }
      ],
      "name": "rewardTokenAddresses",
      "outputs": [
        {
          "internalType": "address",
          "name": "",
          "type": "address"
        }
      ],
      "stateMutability": "view",
      "type": "function"
    },
    {
      "inputs": [],
      "name": "safeApproveAllTokens",
      "outputs": [],
      "stateMutability": "nonpayable",
      "type": "function"
    },
    {
      "inputs": [
        {
          "internalType": "address",
          "name": "_balancerVault",
          "type": "address"
        },
        {
          "internalType": "bytes32",
          "name": "_balancerPoolId",
          "type": "bytes32"
        }
      ],
      "name": "setBalancer",
      "outputs": [],
      "stateMutability": "nonpayable",
      "type": "function"
    },
    {
      "inputs": [
        {
          "internalType": "address",
          "name": "_harvesterAddress",
          "type": "address"
        }
      ],
      "name": "setHarvesterAddress",
      "outputs": [],
      "stateMutability": "nonpayable",
      "type": "function"
    },
    {
      "inputs": [
        {
          "internalType": "address",
          "name": "_asset",
          "type": "address"
        },
        {
          "internalType": "address",
          "name": "_pToken",
          "type": "address"
        }
      ],
      "name": "setPTokenAddress",
      "outputs": [],
      "stateMutability": "nonpayable",
      "type": "function"
    },
    {
      "inputs": [
        {
          "internalType": "address[]",
          "name": "_rewardTokenAddresses",
          "type": "address[]"
        }
      ],
      "name": "setRewardTokenAddresses",
      "outputs": [],
      "stateMutability": "nonpayable",
      "type": "function"
    },
    {
      "inputs": [
        {
          "internalType": "address",
          "name": "_asset",
          "type": "address"
        }
      ],
      "name": "supportsAsset",
      "outputs": [
        {
          "internalType": "bool",
          "name": "",
          "type": "bool"
        }
      ],
      "stateMutability": "view",
      "type": "function"
    },
    {
      "inputs": [],
      "name": "token0",
      "outputs": [
        {
          "internalType": "contract IERC20",
          "name": "",
          "type": "address"
        }
      ],
      "stateMutability": "view",
      "type": "function"
    },
    {
      "inputs": [],
      "name": "token1",
      "outputs": [
        {
          "internalType": "contract IERC20",
          "name": "",
          "type": "address"
        }
      ],
      "stateMutability": "view",
      "type": "function"
    },
    {
      "inputs": [
        {
          "internalType": "address",
          "name": "_newGovernor",
          "type": "address"
        }
      ],
      "name": "transferGovernance",
      "outputs": [],
      "stateMutability": "nonpayable",
      "type": "function"
    },
    {
      "inputs": [
        {
          "internalType": "address",
          "name": "_asset",
          "type": "address"
        },
        {
          "internalType": "uint256",
          "name": "_amount",
          "type": "uint256"
        }
      ],
      "name": "transferToken",
      "outputs": [],
      "stateMutability": "nonpayable",
      "type": "function"
    },
    {
      "inputs": [],
      "name": "vaultAddress",
      "outputs": [
        {
          "internalType": "address",
          "name": "",
          "type": "address"
        }
      ],
      "stateMutability": "view",
      "type": "function"
    },
    {
      "inputs": [
        {
          "internalType": "address",
          "name": "_beneficiary",
          "type": "address"
        },
        {
          "internalType": "address",
          "name": "_asset",
          "type": "address"
        },
        {
          "internalType": "uint256",
          "name": "_amount",
          "type": "uint256"
        }
      ],
      "name": "withdraw",
      "outputs": [],
      "stateMutability": "nonpayable",
      "type": "function"
    },
    {
      "inputs": [],
      "name": "withdrawAll",
      "outputs": [],
      "stateMutability": "nonpayable",
      "type": "function"
    }
  ],
  "transactionHash": "0xf549876d53d88b48e4076aacca6132fd036b669799eb8edba7eee1308491291e",
  "args": [],
  "solcInputHash": "5c59d1940f5b316b29c3b177eb2fc83f",
  "bytecode": "0x60806040523480156200001157600080fd5b506200002a336000805160206200551b83398151915255565b6000805160206200551b833981519152546040516001600160a01b03909116906000907fc7c0c772add429241571afb3805861fb3cfa2af374534088b76cdb4325a87e9a908290a361549980620000826000396000f3fe608060405234801561001057600080fd5b506004361061023d5760003560e01c80638eac22231161013b578063c7af3352116100b8578063dbe55e561161007c578063dbe55e56146104e2578063de5f6268146104f5578063f664b3d9146104fd578063f6ca71b014610505578063f817bc631461051a57600080fd5b8063c7af33521461048c578063d21220a714610494578063d2f24893146104a8578063d38bfff4146104bc578063d9caed12146104cf57600080fd5b8063a95329f4116100ff578063a95329f41461042a578063aa388af61461043e578063ad1728cb146102d0578063c2e1e3f414610471578063c71daccb1461048457600080fd5b80638eac2223146103cb5780639136616a146103de5780639688d2fc146103f157806396d538bb14610404578063997781d61461041757600080fd5b80632e655201116101c95780635bdd18d61161018d5780635bdd18d6146103815780635d36b1901461039557806367c7066c1461039d5780637b2d9b2c146103b0578063853828b6146103c357600080fd5b80632e655201146103365780633e0dc34e14610349578063430bf08a1461035357806347e7ef24146103665780635a063f631461037957600080fd5b80630ed57b3a116102105780630ed57b3a146102bd5780630fc3b4c4146102d25780631072cbea146102fb5780631380e1d61461030e5780632a4d90a41461032257600080fd5b8063063bde24146102425780630b7132cf146102685780630c340a24146102895780630dfe1681146102a9575b600080fd5b6102556b033b2e3c9fd0803ce800000081565b6040519081526020015b60405180910390f35b61025561027636600461468d565b6101086020526000908152604090205481565b610291610523565b6040516001600160a01b03909116815260200161025f565b61010154610291906001600160a01b031681565b6102d06102cb3660046146aa565b610540565b005b6102916102e036600461468d565b6035602052600090815260409020546001600160a01b031681565b6102d06103093660046148f2565b61057b565b61010554610291906001600160a01b031681565b61010954610291906001600160a01b031681565b603754610291906001600160a01b031681565b6102556101075481565b603454610291906001600160a01b031681565b6102d06103743660046148f2565b6105bb565b6102d061065c565b61010654610291906001600160a01b031681565b6102d06106fb565b603954610291906001600160a01b031681565b6102916103be366004614b0f565b6107a1565b6102d06107cb565b6102d06103d93660046147a2565b610bf5565b6102d06103ec366004614b0f565b61115c565b6102d06103ff3660046146e3565b611327565b6102d0610412366004614951565b611430565b6102d06104253660046148f2565b611556565b61010454610291906001600160a01b031681565b61046161044c36600461468d565b610103546001600160a01b0391821691161490565b604051901515815260200161025f565b6102d061047f36600461468d565b61160f565b61025561168e565b610461611ad1565b61010254610291906001600160a01b031681565b61010354610291906001600160a01b031681565b6102d06104ca36600461468d565b611b02565b6102d06104dd3660046148b1565b611ba6565b603354610291906001600160a01b031681565b6102d0611f51565b610255600481565b61050d612036565b60405161025f9190614d19565b61025560385481565b600061053b6000805160206154448339815191525490565b905090565b610548611ad1565b61056d5760405162461bcd60e51b815260040161056490614ebb565b60405180910390fd5b6105778282612098565b5050565b610583611ad1565b61059f5760405162461bcd60e51b815260040161056490614ebb565b6105776105aa610523565b6001600160a01b03841690836121f7565b6034546001600160a01b031633146105e55760405162461bcd60e51b815260040161056490614e84565b600080516020615424833981519152805460028114156106175760405162461bcd60e51b815260040161056490614f6e565b60028255610103546001600160a01b038581169116146106495760405162461bcd60e51b815260040161056490614f40565b6106538484612249565b50600190555050565b6039546001600160a01b031633146106b65760405162461bcd60e51b815260206004820152601b60248201527f43616c6c6572206973206e6f74207468652048617276657374657200000000006044820152606401610564565b600080516020615424833981519152805460028114156106e85760405162461bcd60e51b815260040161056490614f6e565b600282556106f461258e565b5060019055565b7f7eaf9a7750884803435dfabc67aa617a7d8fefb23d8d84b3c9722bd69e48c4bc546001600160a01b0316336001600160a01b0316146107965760405162461bcd60e51b815260206004820152603060248201527f4f6e6c79207468652070656e64696e6720476f7665726e6f722063616e20636f60448201526f6d706c6574652074686520636c61696d60801b6064820152608401610564565b61079f3361281a565b565b603a81815481106107b157600080fd5b6000918252602090912001546001600160a01b0316905081565b6034546001600160a01b03163314806107fc57506107e7610523565b6001600160a01b0316336001600160a01b0316145b6108545760405162461bcd60e51b815260206004820152602360248201527f43616c6c6572206973206e6f7420746865205661756c74206f7220476f7665726044820152623737b960e91b6064820152608401610564565b600080516020615424833981519152805460028114156108865760405162461bcd60e51b815260040161056490614f6e565b6002825560008061010660009054906101000a90046001600160a01b03166001600160a01b0316630902f1ac6040518163ffffffff1660e01b815260040160606040518083038186803b1580156108dc57600080fd5b505afa1580156108f0573d6000803e3d6000fd5b505050506040513d601f19601f820116820180604052508101906109149190614abf565b506001600160701b031691506001600160701b031691506109336128de565b610106546040516370a0823160e01b81523060048201526000916001600160a01b0316906370a082319060240160206040518083038186803b15801561097857600080fd5b505afa15801561098c573d6000803e3d6000fd5b505050506040513d601f19601f820116820180604052508101906109b09190614b28565b90508015610aaf5761010654604080516318160ddd60e01b815290516000926001600160a01b0316916318160ddd916004808301926020929190829003018186803b1580156109fe57600080fd5b505afa158015610a12573d6000803e3d6000fd5b505050506040513d601f19601f82011682018060405250810190610a369190614b28565b9050600081610a4584876152e0565b610a4f91906151d0565b9050600082610a5e85876152e0565b610a6891906151d0565b610101546101025461010654929350610aa9926001600160a01b0392831692918216911687610a98876004612943565b610aa3876004612943565b3061296f565b50505050505b610ab7612ad3565b610106546040516370a0823160e01b81523060048201526001600160a01b03909116906370a082319060240160206040518083038186803b158015610afb57600080fd5b505afa158015610b0f573d6000803e3d6000fd5b505050506040513d601f19601f82011682018060405250810190610b339190614b28565b90508015610b4357610b43612d02565b610103546040516370a0823160e01b81523060048201526000916001600160a01b0316906370a082319060240160206040518083038186803b158015610b8857600080fd5b505afa158015610b9c573d6000803e3d6000fd5b505050506040513d601f19601f82011682018060405250810190610bc09190614b28565b60345461010354919250610be1916001600160a01b039081169116836121f7565b610be961258e565b50505050600182555050565b610bfd611ad1565b610c195760405162461bcd60e51b815260040161056490614ebb565b600054610100900460ff1680610c32575060005460ff16155b610c4e5760405162461bcd60e51b815260040161056490614ef2565b600054610100900460ff16158015610c70576000805461ffff19166101011790555b60008b8b8281610c8257610c826153e2565b9050602002016020810190610c97919061468d565b6001600160a01b03161415610cbe5760405162461bcd60e51b815260040161056490614f96565b600087878281610cd057610cd06153e2565b9050602002016020810190610ce5919061468d565b6001600160a01b03161415610d0c5760405162461bcd60e51b815260040161056490614f96565b6001600160a01b038d16610d325760405162461bcd60e51b815260040161056490614f96565b6001600160a01b038416610d585760405162461bcd60e51b815260040161056490614f96565b6001600160a01b038316610d7e5760405162461bcd60e51b815260040161056490614f96565b6001600160a01b038216610da45760405162461bcd60e51b815260040161056490614f96565b88886000818110610db757610db76153e2565b9050602002016020810190610dcc919061468d565b61010180546001600160a01b0319166001600160a01b039290921691909117905588886001818110610e0057610e006153e2565b9050602002016020810190610e15919061468d565b61010260006101000a8154816001600160a01b0302191690836001600160a01b031602179055508461010360006101000a8154816001600160a01b0302191690836001600160a01b031602179055508c61010460006101000a8154816001600160a01b0302191690836001600160a01b031602179055508161010560006101000a8154816001600160a01b0302191690836001600160a01b03160217905550600089899050905060005b81811015610fc1578a8a82818110610ed957610ed96153e2565b9050602002016020810190610eee919061468d565b6001600160a01b031663313ce5676040518163ffffffff1660e01b815260040160206040518083038186803b158015610f2657600080fd5b505afa158015610f3a573d6000803e3d6000fd5b505050506040513d601f19601f82011682018060405250810190610f5e9190614b93565b610f6990600a615235565b61010860008d8d85818110610f8057610f806153e2565b9050602002016020810190610f95919061468d565b6001600160a01b0316815260208101919091526040016000205580610fb981615365565b915050610ebf565b5087876000818110610fd557610fd56153e2565b9050602002016020810190610fea919061468d565b61010680546001600160a01b03199081166001600160a01b039384161790915561010980548216878416179055609d80549091169187169190911790556110a98e8e8e8e8e8e80806020026020016040519081016040528093929190818152602001838360200280828437600081840152601f19601f820116905080830192505050505050508d8d80806020026020016040519081016040528093929190818152602001838360200280828437600092019190915250612e6f92505050565b6110fc8a8a60008181106110bf576110bf6153e2565b90506020020160208101906110d4919061468d565b898960008181106110e7576110e76153e2565b9050602002016020810190610577919061468d565b61113a8a8a6001818110611112576111126153e2565b9050602002016020810190611127919061468d565b898960018181106110e7576110e76153e2565b50801561114d576000805461ff00191690555b50505050505050505050505050565b611164611ad1565b6111805760405162461bcd60e51b815260040161056490614ebb565b60365481106111c15760405162461bcd60e51b815260206004820152600d60248201526c092dcecc2d8d2c840d2dcc8caf609b1b6044820152606401610564565b6000603682815481106111d6576111d66153e2565b60009182526020808320909101546001600160a01b03908116808452603590925260409092205460365491935090911690611213906001906152ff565b831015611295576036805461122a906001906152ff565b8154811061123a5761123a6153e2565b600091825260209091200154603680546001600160a01b039092169185908110611266576112666153e2565b9060005260206000200160006101000a8154816001600160a01b0302191690836001600160a01b031602179055505b60368054806112a6576112a66153cc565b60008281526020808220600019908401810180546001600160a01b031990811690915593019093556001600160a01b038581168083526035855260409283902080549094169093559051908416815290917f16b7600acff27e39a8a96056b3d533045298de927507f5c1d97e4accde60488c910160405180910390a2505050565b61132f611ad1565b61134b5760405162461bcd60e51b815260040161056490614ebb565b600054610100900460ff1680611364575060005460ff16155b6113805760405162461bcd60e51b815260040161056490614ef2565b600054610100900460ff161580156113a2576000805461ffff19166101011790555b6114138989898989898080602002602001604051908101604052809392919081815260200183836020028082843760009201919091525050604080516020808d0282810182019093528c82529093508c92508b918291850190849080828437600092019190915250612e6f92505050565b8015611425576000805461ff00191690555b505050505050505050565b611438611ad1565b6114545760405162461bcd60e51b815260040161056490614ebb565b60005b81811015611508576000838383818110611473576114736153e2565b9050602002016020810190611488919061468d565b6001600160a01b031614156114f65760405162461bcd60e51b815260206004820152602e60248201527f43616e206e6f742073657420616e20656d70747920616464726573732061732060448201526d30903932bbb0b932103a37b5b2b760911b6064820152608401610564565b8061150081615365565b915050611457565b507f04c0b9649497d316554306e53678d5f5f5dbc3a06f97dec13ff4cfe98b986bbc603a838360405161153d93929190614d2c565b60405180910390a1611551603a8383614530565b505050565b61155e611ad1565b61157a5760405162461bcd60e51b815260040161056490614ebb565b6001600160a01b0382166115a05760405162461bcd60e51b815260040161056490614f96565b806115ed5760405162461bcd60e51b815260206004820152601960248201527f456d70747920706f6f6c206964206e6f7420616c6c6f776564000000000000006044820152606401610564565b60cf80546001600160a01b0319166001600160a01b0384161790556101075550565b611617611ad1565b6116335760405162461bcd60e51b815260040161056490614ebb565b603980546001600160a01b0319166001600160a01b0383169081179091556040805182815260208101929092527fe48386b84419f4d36e0f96c10cc3510b6fb1a33795620c5098b22472bbe90796910160405180910390a150565b610103546040516370a0823160e01b815230600482015260009182916001600160a01b03909116906370a082319060240160206040518083038186803b1580156116d757600080fd5b505afa1580156116eb573d6000803e3d6000fd5b505050506040513d601f19601f8201168201806040525081019061170f9190614b28565b610101546040516370a0823160e01b81523060048201529192506000916001600160a01b03909116906370a082319060240160206040518083038186803b15801561175957600080fd5b505afa15801561176d573d6000803e3d6000fd5b505050506040513d601f19601f820116820180604052508101906117919190614b28565b610102546040516370a0823160e01b81523060048201529192506000916001600160a01b03909116906370a082319060240160206040518083038186803b1580156117db57600080fd5b505afa1580156117ef573d6000803e3d6000fd5b505050506040513d601f19601f820116820180604052508101906118139190614b28565b610109546040516370a0823160e01b81523060048201529192506000916001600160a01b03909116906370a082319060240160206040518083038186803b15801561185d57600080fd5b505afa158015611871573d6000803e3d6000fd5b505050506040513d601f19601f820116820180604052508101906118959190614b28565b905080156119fe5761010654604080516318160ddd60e01b815290516000926001600160a01b0316916318160ddd916004808301926020929190829003018186803b1580156118e357600080fd5b505afa1580156118f7573d6000803e3d6000fd5b505050506040513d601f19601f8201168201806040525081019061191b9190614b28565b905060008061010660009054906101000a90046001600160a01b03166001600160a01b0316630902f1ac6040518163ffffffff1660e01b815260040160606040518083038186803b15801561196f57600080fd5b505afa158015611983573d6000803e3d6000fd5b505050506040513d601f19601f820116820180604052508101906119a79190614abf565b506001600160701b039182169350169050826119c385846152e0565b6119cd91906151d0565b6119d790876151b8565b9550826119e485836152e0565b6119ee91906151d0565b6119f890866151b8565b94505050505b61010354610101546000916001600160a01b03918216911614611a50578315611a4b57610107546101015461010354611a4892916000916001600160a01b03918216911688612f4e565b90505b611a5d565b611a5a84826151b8565b90505b61010354610102546000916001600160a01b03918216911614611aaf578315611aaa57610107546101025461010354611aa792916000916001600160a01b03918216911688612f4e565b90505b611abc565b611ab984826151b8565b90505b611ac681836151b8565b965050505050505090565b6000611ae96000805160206154448339815191525490565b6001600160a01b0316336001600160a01b031614905090565b611b0a611ad1565b611b265760405162461bcd60e51b815260040161056490614ebb565b611b4e817f7eaf9a7750884803435dfabc67aa617a7d8fefb23d8d84b3c9722bd69e48c4bc55565b806001600160a01b0316611b6e6000805160206154448339815191525490565b6001600160a01b03167fa39cc5eb22d0f34d8beaefee8a3f17cc229c1a1d1ef87a5ad47313487b1c4f0d60405160405180910390a350565b6034546001600160a01b03163314611bd05760405162461bcd60e51b815260040161056490614e84565b60008051602061542483398151915280546002811415611c025760405162461bcd60e51b815260040161056490614f6e565b60028255610103546001600160a01b03858116911614611c345760405162461bcd60e51b815260040161056490614f40565b60008061010660009054906101000a90046001600160a01b03166001600160a01b0316630902f1ac6040518163ffffffff1660e01b815260040160606040518083038186803b158015611c8657600080fd5b505afa158015611c9a573d6000803e3d6000fd5b505050506040513d601f19601f82011682018060405250810190611cbe9190614abf565b50610109546040516370a0823160e01b81523060048201526001600160701b0393841695509190921692506000916001600160a01b0316906370a082319060240160206040518083038186803b158015611d1757600080fd5b505afa158015611d2b573d6000803e3d6000fd5b505050506040513d601f19601f82011682018060405250810190611d4f9190614b28565b90508015611ea25761010654604080516318160ddd60e01b815290516000926001600160a01b0316916318160ddd916004808301926020929190829003018186803b158015611d9d57600080fd5b505afa158015611db1573d6000803e3d6000fd5b505050506040513d601f19601f82011682018060405250810190611dd59190614b28565b90506000611e27611de7896004613432565b610101546001600160a01b03908116600081815261010860205260408082205461010254909416808352912054610107548b948b948a9491939291613441565b905082811115611e345750815b600082611e4183886152e0565b611e4b91906151d0565b9050600083611e5a84886152e0565b611e6491906151d0565b9050611e6f8361351f565b610101546101025461010654611e9b926001600160a01b03908116928116911686610a98876004612943565b5050505050505b611eaa612ad3565b610103546040516370a0823160e01b81523060048201526000916001600160a01b0316906370a082319060240160206040518083038186803b158015611eef57600080fd5b505afa158015611f03573d6000803e3d6000fd5b505050506040513d601f19601f82011682018060405250810190611f279190614b28565b61010354909150611f42906001600160a01b03168a836121f7565b50505050600182555050505050565b6034546001600160a01b03163314611f7b5760405162461bcd60e51b815260040161056490614e84565b60008051602061542483398151915280546002811415611fad5760405162461bcd60e51b815260040161056490614f6e565b60028255610103546040516370a0823160e01b81523060048201526106f4916001600160a01b03169081906370a082319060240160206040518083038186803b158015611ff957600080fd5b505afa15801561200d573d6000803e3d6000fd5b505050506040513d601f19601f820116820180604052508101906120319190614b28565b612249565b6060603a80548060200260200160405190810160405280929190818152602001828054801561208e57602002820191906000526020600020905b81546001600160a01b03168152600190910190602001808311612070575b5050505050905090565b6001600160a01b0382811660009081526035602052604090205416156120f55760405162461bcd60e51b81526020600482015260126024820152711c151bdad95b88185b1c9958591e481cd95d60721b6044820152606401610564565b6001600160a01b0382161580159061211557506001600160a01b03811615155b6121555760405162461bcd60e51b8152602060048201526011602482015270496e76616c69642061646472657373657360781b6044820152606401610564565b6001600160a01b03828116600081815260356020908152604080832080549587166001600160a01b031996871681179091556036805460018101825594527f4a11f94e20a93c79f6ec743a1954ec4fc2c08429ae2122118bf234b2185c81b890930180549095168417909455925190815290917fef6485b84315f9b1483beffa32aae9a0596890395e3d7521f1c5fbb51790e765910160405180910390a25050565b604080516001600160a01b038416602482015260448082018490528251808303909101815260649091019091526020810180516001600160e01b031663a9059cbb60e01b179052611551908490613551565b610103546001600160a01b038381169116146122775760405162461bcd60e51b815260040161056490614f40565b600080612282613623565b9150915061228e61384c565b610102546040516370a0823160e01b81523060048201526000916001600160a01b0316906370a082319060240160206040518083038186803b1580156122d357600080fd5b505afa1580156122e7573d6000803e3d6000fd5b505050506040513d601f19601f8201168201806040525081019061230b9190614b28565b90506000811561233f5761010754610102546101015461233c92916000916001600160a01b03918216911686612f4e565b90505b610101546040516370a0823160e01b81523060048201526000916001600160a01b0316906370a082319060240160206040518083038186803b15801561238457600080fd5b505afa158015612398573d6000803e3d6000fd5b505050506040513d601f19601f820116820180604052508101906123bc9190614b28565b905060006124196123ce6002856151d0565b6123d890846152ff565b610101546001600160a01b03908116600081815261010860205260408082205461010254909416808352912054610107548c948c9490936001929190613910565b610107546101015461010254929350612445926000916001600160a01b03908116911630808785613a08565b50610101546040516370a0823160e01b81523060048201526001600160a01b03909116906370a082319060240160206040518083038186803b15801561248a57600080fd5b505afa15801561249e573d6000803e3d6000fd5b505050506040513d601f19601f820116820180604052508101906124c29190614b28565b610102546040516370a0823160e01b81523060048201529193506001600160a01b0316906370a082319060240160206040518083038186803b15801561250757600080fd5b505afa15801561251b573d6000803e3d6000fd5b505050506040513d601f19601f8201168201806040525081019061253f9190614b28565b6101015461010254919550612579916001600160a01b0391821691168487612568826004612943565b6125738a6004612943565b30613d69565b505050612584612d02565b5050505050505050565b61010960009054906101000a90046001600160a01b03166001600160a01b0316633d18b9126040518163ffffffff1660e01b8152600401600060405180830381600087803b1580156125df57600080fd5b505af11580156125f3573d6000803e3d6000fd5b5050610105546040516370a0823160e01b8152306004820152600093508392506001600160a01b03909116906370a082319060240160206040518083038186803b15801561264057600080fd5b505afa158015612654573d6000803e3d6000fd5b505050506040513d601f19601f820116820180604052508101906126789190614b28565b905080156126b35761010554610103546000916126a3916001600160a01b0391821691168430613f63565b90506126af81846151b8565b9250505b610103546040516370a0823160e01b81523060048201526000916001600160a01b0316906370a082319060240160206040518083038186803b1580156126f857600080fd5b505afa15801561270c573d6000803e3d6000fd5b505050506040513d601f19601f820116820180604052508101906127309190614b28565b905080156115515760395461010354604080516001600160a01b03938416815292909116602083015281018290527ff6c07a063ed4e63808eb8da7112d46dbcd38de2b40a73dbcc9353c5a94c723539060600160405180910390a16101035460395460405163a9059cbb60e01b81526001600160a01b0391821660048201526024810184905291169063a9059cbb90604401602060405180830381600087803b1580156127dc57600080fd5b505af11580156127f0573d6000803e3d6000fd5b505050506040513d601f19601f820116820180604052508101906128149190614a9d565b50505050565b6001600160a01b0381166128705760405162461bcd60e51b815260206004820152601a60248201527f4e657720476f7665726e6f7220697320616464726573732830290000000000006044820152606401610564565b806001600160a01b03166128906000805160206154448339815191525490565b6001600160a01b03167fc7c0c772add429241571afb3805861fb3cfa2af374534088b76cdb4325a87e9a60405160405180910390a36128db8160008051602061544483398151915255565b50565b61010960009054906101000a90046001600160a01b03166001600160a01b031663e9fad8ee6040518163ffffffff1660e01b8152600401600060405180830381600087803b15801561292f57600080fd5b505af1158015612814573d6000803e3d6000fd5b600061271061295283826152ff565b61295c90856152e0565b61296691906151d0565b90505b92915050565b609d5460405163095ea7b360e01b81526001600160a01b0391821660048201526024810186905260009182919088169063095ea7b390604401602060405180830381600087803b1580156129c257600080fd5b505af11580156129d6573d6000803e3d6000fd5b505050506040513d601f19601f820116820180604052508101906129fa9190614a9d565b50609d546001600160a01b031663baa2abde8a8a89898989612a1e426102586151b8565b60405160e089901b6001600160e01b03191681526001600160a01b039788166004820152958716602487015260448601949094526064850192909252608484015290921660a482015260c481019190915260e4016040805180830381600087803b158015612a8b57600080fd5b505af1158015612a9f573d6000803e3d6000fd5b505050506040513d601f19601f82011682018060405250810190612ac39190614b41565b9150915097509795505050505050565b61010354610101546001600160a01b03908116911614801590612b705750610101546040516370a0823160e01b81523060048201526000916001600160a01b0316906370a082319060240160206040518083038186803b158015612b3657600080fd5b505afa158015612b4a573d6000803e3d6000fd5b505050506040513d601f19601f82011682018060405250810190612b6e9190614b28565b115b15612c15576101075461010154610103546040516370a0823160e01b81523060048201819052612c1394936000936001600160a01b039182169391169190819084906370a08231906024015b60206040518083038186803b158015612bd457600080fd5b505afa158015612be8573d6000803e3d6000fd5b505050506040513d601f19601f82011682018060405250810190612c0c9190614b28565b6000613a08565b505b61010354610102546001600160a01b03908116911614801590612cb25750610102546040516370a0823160e01b81523060048201526000916001600160a01b0316906370a082319060240160206040518083038186803b158015612c7857600080fd5b505afa158015612c8c573d6000803e3d6000fd5b505050506040513d601f19601f82011682018060405250810190612cb09190614b28565b115b1561079f576101075461010254610103546040516370a0823160e01b815230600482018190526128db94936000936001600160a01b039182169391169190819084906370a0823190602401612bbc565b610106546040516370a0823160e01b81523060048201526000916001600160a01b0316906370a082319060240160206040518083038186803b158015612d4757600080fd5b505afa158015612d5b573d6000803e3d6000fd5b505050506040513d601f19601f82011682018060405250810190612d7f9190614b28565b610106546101095460405163095ea7b360e01b81526001600160a01b03918216600482015260248101849052929350169063095ea7b390604401602060405180830381600087803b158015612dd357600080fd5b505af1158015612de7573d6000803e3d6000fd5b505050506040513d601f19601f82011682018060405250810190612e0b9190614a9d565b506101095460405163534a7e1d60e11b8152600481018390526001600160a01b039091169063a694fc3a906024015b600060405180830381600087803b158015612e5457600080fd5b505af1158015612e68573d6000803e3d6000fd5b5050505050565b603380546001600160a01b038089166001600160a01b0319928316179092556034805492881692909116919091179055612eab603a8585614530565b50815181518114612ef55760405162461bcd60e51b8152602060048201526014602482015273496e76616c696420696e7075742061727261797360601b6044820152606401610564565b60005b8181101561258457612f3c848281518110612f1557612f156153e2565b6020026020010151848381518110612f2f57612f2f6153e2565b6020026020010151612098565b80612f4681615365565b915050612ef8565b604080516101208101825260008082526020820181905291810182905260608082018390526080820183905260a0820183905260c0820183905260e0820183905261010082015280866001811115612fa857612fa86153b6565b90816001811115612fbb57612fbb6153b6565b9052506001600160a01b0385811660208301528481166040808401919091526060830185905260cf549051631f29a8cd60e31b8152600481018a90526000928392839291169063f94d46689060240160006040518083038186803b15801561302257600080fd5b505afa158015613036573d6000803e3d6000fd5b505050506040513d6000823e601f3d908101601f1916820160405261305e9190810190614993565b60cf5460405163f6c0092760e01b8152600481018f9052939650919450925060009182916001600160a01b03169063f6c0092790602401604080518083038186803b1580156130ac57600080fd5b505afa1580156130c0573d6000803e3d6000fd5b505050506040513d601f19601f820116820180604052508101906130e4919061491e565b909250905060008160028111156130fd576130fd6153b6565b14156132365760008060005b87518160ff1610156131a5578c6001600160a01b0316888260ff1681518110613134576131346153e2565b60200260200101516001600160a01b03161415613156578060ff169250613193565b8b6001600160a01b0316888260ff1681518110613175576131756153e2565b60200260200101516001600160a01b03161415613193578060ff1691505b8061319d81615380565b915050613109565b5060405162f64aa560e11b81526001600160a01b038516906301ec954a906131d7908b908a9087908790600401615088565b60206040518083038186803b1580156131ef57600080fd5b505afa158015613203573d6000803e3d6000fd5b505050506040513d601f19601f820116820180604052508101906132279190614b28565b98505050505050505050613429565b600181600281111561324a5761324a6153b6565b14156133555760008060005b87518160ff161015613324578c6001600160a01b0316888260ff1681518110613281576132816153e2565b60200260200101516001600160a01b031614156132bc57868160ff16815181106132ad576132ad6153e2565b60200260200101519250613312565b8b6001600160a01b0316888260ff16815181106132db576132db6153e2565b60200260200101516001600160a01b0316141561331257868160ff1681518110613307576133076153e2565b602002602001015191505b8061331c81615380565b915050613256565b5060405163274b044360e21b81526001600160a01b03851690639d2c110c906131d7908b90869086906004016150e9565b60008060005b87518160ff161015613324578c6001600160a01b0316888260ff1681518110613386576133866153e2565b60200260200101516001600160a01b031614156133c157868160ff16815181106133b2576133b26153e2565b60200260200101519250613417565b8b6001600160a01b0316888260ff16815181106133e0576133e06153e2565b60200260200101516001600160a01b0316141561341757868160ff168151811061340c5761340c6153e2565b602002602001015191505b8061342181615380565b91505061335b565b95945050505050565b600061271061295283826151b8565b60008061344e878a6152e0565b613458878c6152e0565b61346291906151b8565b8661346d8d8b6152e0565b61347791906152e0565b61348191906151d0565b905060005b60018110156135105760008961349c848d6152e0565b6134a691906151d0565b905060006134b8886000888a86612f4e565b90506134c4818d6152e0565b6134ce838f6152e0565b6134d891906151b8565b828f8d6134e591906152e0565b6134ef91906152e0565b6134f991906151d0565b93505050808061350890615365565b915050613486565b509a9950505050505050505050565b61010954604051632e1a7d4d60e01b8152600481018390526001600160a01b0390911690632e1a7d4d90602401612e3a565b60006135a6826040518060400160405280602081526020017f5361666545524332303a206c6f772d6c6576656c2063616c6c206661696c6564815250856001600160a01b03166141509092919063ffffffff16565b80519091501561155157808060200190518101906135c49190614a9d565b6115515760405162461bcd60e51b815260206004820152602a60248201527f5361666545524332303a204552433230206f7065726174696f6e20646964206e6044820152691bdd081cdd58d8d9595960b21b6064820152608401610564565b60008060008061010660009054906101000a90046001600160a01b03166001600160a01b0316630902f1ac6040518163ffffffff1660e01b815260040160606040518083038186803b15801561367857600080fd5b505afa15801561368c573d6000803e3d6000fd5b505050506040513d601f19601f820116820180604052508101906136b09190614abf565b506001600160701b031691506001600160701b03169150600361010160009054906101000a90046001600160a01b03166001600160a01b031663313ce5676040518163ffffffff1660e01b815260040160206040518083038186803b15801561371857600080fd5b505afa15801561372c573d6000803e3d6000fd5b505050506040513d601f19601f820116820180604052508101906137509190614b93565b61375a9190615316565b61376590600a615235565b821180156138045750610102546040805163313ce56760e01b815290516003926001600160a01b03169163313ce567916004808301926020929190829003018186803b1580156137b457600080fd5b505afa1580156137c8573d6000803e3d6000fd5b505050506040513d601f19601f820116820180604052508101906137ec9190614b93565b6137f69190615316565b61380190600a615235565b81115b6138435760405162461bcd60e51b815260206004820152601060248201526f526573657276657320746f6f206c6f7760801b6044820152606401610564565b90939092509050565b610103546040516370a0823160e01b81523060048201526000916001600160a01b0316906370a082319060240160206040518083038186803b15801561389157600080fd5b505afa1580156138a5573d6000803e3d6000fd5b505050506040513d601f19601f820116820180604052508101906138c99190614b28565b61010154610103549192506001600160a01b039182169116146128db5761010754610103546101015461057792916000916001600160a01b03918216911630808785613a08565b600080888861391f898d6152e0565b61392991906151d0565b61393391906151b8565b61393d8a8d6152e0565b61394791906151d0565b90506139786040518060400160405280600d81526020016c0616d6f756e7430546f5377617609c1b81525082614169565b60005b86811015613510576139ac6040518060400160405280600681526020016506f6e537761760d41b81525086866141ae565b60006139bc876000888887612f4e565b90508a836139ca838f6152e0565b6139d491906151d0565b6139de91906151b8565b6139e88c8f6152e0565b6139f291906151d0565b9250508080613a0090615365565b91505061397b565b60408051808201909152601981527842616c616e6365725661756c743a207377617070696e67203160381b602082015260cf54600091613a50916001600160a01b03166141f5565b604080518082018252601981527842616c616e6365725661756c743a207377617070696e67203160381b602082015290516370a0823160e01b8152306004820152613b01919089906001600160a01b038216906370a082319060240160206040518083038186803b158015613ac457600080fd5b505afa158015613ad8573d6000803e3d6000fd5b505050506040513d601f19601f82011682018060405250810190613afc9190614b28565b61423a565b60cf546040516370a0823160e01b81523060048201526001600160a01b038981169263095ea7b39291169083906370a082319060240160206040518083038186803b158015613b4f57600080fd5b505afa158015613b63573d6000803e3d6000fd5b505050506040513d601f19601f82011682018060405250810190613b879190614b28565b6040516001600160e01b031960e085901b1681526001600160a01b0390921660048301526024820152604401602060405180830381600087803b158015613bcd57600080fd5b505af1158015613be1573d6000803e3d6000fd5b505050506040513d601f19601f82011682018060405250810190613c059190614a9d565b50613c526040805160c0810190915260008082526020820190815260200160006001600160a01b0316815260200160006001600160a01b0316815260200160008152602001606081525090565b89815260208101896001811115613c6b57613c6b6153b6565b90816001811115613c7e57613c7e6153b6565b9052506001600160a01b038881166040838101919091528882166060808501919091526080808501889052825190810183526000602082018190529181019190915288831681528783169181019190915260cf549091166352bbbe29838387613ce9426102586151b8565b6040518563ffffffff1660e01b8152600401613d089493929190614fcd565b602060405180830381600087803b158015613d2257600080fd5b505af1158015613d36573d6000803e3d6000fd5b505050506040513d601f19601f82011682018060405250810190613d5a9190614b28565b9b9a5050505050505050505050565b609d5460405163095ea7b360e01b81526001600160a01b03918216600482015260248101879052600091829182918b169063095ea7b390604401602060405180830381600087803b158015613dbd57600080fd5b505af1158015613dd1573d6000803e3d6000fd5b505050506040513d601f19601f82011682018060405250810190613df59190614a9d565b50609d5460405163095ea7b360e01b81526001600160a01b03918216600482015260248101899052908a169063095ea7b390604401602060405180830381600087803b158015613e4457600080fd5b505af1158015613e58573d6000803e3d6000fd5b505050506040513d601f19601f82011682018060405250810190613e7c9190614a9d565b50609d546001600160a01b031663e8e337008b8b8b8b8b8b8b613ea1426102586151b8565b60405160e08a901b6001600160e01b03191681526001600160a01b039889166004820152968816602488015260448701959095526064860193909352608485019190915260a484015290921660c482015260e481019190915261010401606060405180830381600087803b158015613f1857600080fd5b505af1158015613f2c573d6000803e3d6000fd5b505050506040513d601f19601f82011682018060405250810190613f509190614b65565b9250925092509750975097945050505050565b609d5460405163095ea7b360e01b81526001600160a01b0391821660048201526024810184905260009186169063095ea7b390604401602060405180830381600087803b158015613fb357600080fd5b505af1158015613fc7573d6000803e3d6000fd5b505050506040513d601f19601f82011682018060405250810190613feb9190614a9d565b506000613ff9868686614281565b90508061400a576000915050614148565b604080516002808252606082018352600092602083019080368337019050509050868160008151811061403f5761403f6153e2565b60200260200101906001600160a01b031690816001600160a01b0316815250508581600181518110614073576140736153e2565b6001600160a01b039283166020918202929092010152609d54600091166338ed1739876140a1866004612943565b85896140af426102586151b8565b6040518663ffffffff1660e01b81526004016140cf959493929190615127565b600060405180830381600087803b1580156140e957600080fd5b505af11580156140fd573d6000803e3d6000fd5b505050506040513d6000823e601f3d908101601f191682016040526141259190810190614a68565b90508060018151811061413a5761413a6153e2565b602002602001015193505050505b949350505050565b606061415f84846000856143ae565b90505b9392505050565b610577828260405160240161417f929190614e62565b60408051601f198184030181529190526020810180516001600160e01b03166309710a9d60e41b1790526144d6565b6115518383836040516024016141c693929190614e01565b60408051601f198184030181529190526020810180516001600160e01b03166307e763af60e51b1790526144d6565b610577828260405160240161420b929190614dd7565b60408051601f198184030181529190526020810180516001600160e01b031663319af33360e01b1790526144d6565b61155183838360405160240161425293929190614e34565b60408051601f198184030181529190526020810180516001600160e01b03166307c8121760e01b1790526144d6565b6040805160028082526060820183526000928392919060208301908036833701905050905084816000815181106142ba576142ba6153e2565b60200260200101906001600160a01b031690816001600160a01b03168152505083816001815181106142ee576142ee6153e2565b6001600160a01b039283166020918202929092010152609d5460405163d06ca61f60e01b8152600092919091169063d06ca61f90614332908790869060040161510e565b60006040518083038186803b15801561434a57600080fd5b505afa15801561435e573d6000803e3d6000fd5b505050506040513d6000823e601f3d908101601f191682016040526143869190810190614a68565b90508060018151811061439b5761439b6153e2565b6020026020010151925050509392505050565b60608247101561440f5760405162461bcd60e51b815260206004820152602660248201527f416464726573733a20696e73756666696369656e742062616c616e636520666f6044820152651c8818d85b1b60d21b6064820152608401610564565b843b61445d5760405162461bcd60e51b815260206004820152601d60248201527f416464726573733a2063616c6c20746f206e6f6e2d636f6e74726163740000006044820152606401610564565b600080866001600160a01b031685876040516144799190614cfd565b60006040518083038185875af1925050503d80600081146144b6576040519150601f19603f3d011682016040523d82523d6000602084013e6144bb565b606091505b50915091506144cb8282866144f7565b979650505050505050565b80516a636f6e736f6c652e6c6f67602083016000808483855afa5050505050565b60608315614506575081614162565b8251156145165782518084602001fd5b8160405162461bcd60e51b81526004016105649190614dc4565b828054828255906000526020600020908101928215614583579160200282015b828111156145835781546001600160a01b0319166001600160a01b03843516178255602090920191600190910190614550565b5061458f929150614593565b5090565b5b8082111561458f5760008155600101614594565b80356145b38161540e565b919050565b60008083601f8401126145ca57600080fd5b50813567ffffffffffffffff8111156145e257600080fd5b6020830191508360208260051b85010111156145fd57600080fd5b9250929050565b600082601f83011261461557600080fd5b8151602061462a61462583615194565b615163565b80838252828201915082860187848660051b890101111561464a57600080fd5b60005b858110156146695781518452928401929084019060010161464d565b5090979650505050505050565b80516001600160701b03811681146145b357600080fd5b60006020828403121561469f57600080fd5b81356141628161540e565b600080604083850312156146bd57600080fd5b82356146c88161540e565b915060208301356146d88161540e565b809150509250929050565b60008060008060008060008060a0898b0312156146ff57600080fd5b883561470a8161540e565b9750602089013561471a8161540e565b9650604089013567ffffffffffffffff8082111561473757600080fd5b6147438c838d016145b8565b909850965060608b013591508082111561475c57600080fd5b6147688c838d016145b8565b909650945060808b013591508082111561478157600080fd5b5061478e8b828c016145b8565b999c989b5096995094979396929594505050565b6000806000806000806000806000806000806101208d8f0312156147c557600080fd5b6147ce8d6145a8565b9b506147dc60208e016145a8565b9a5067ffffffffffffffff60408e013511156147f757600080fd5b6148078e60408f01358f016145b8565b909a50985067ffffffffffffffff60608e0135111561482557600080fd5b6148358e60608f01358f016145b8565b909850965067ffffffffffffffff60808e0135111561485357600080fd5b6148638e60808f01358f016145b8565b909650945061487460a08e016145a8565b935061488260c08e016145a8565b925061489060e08e016145a8565b915061489f6101008e016145a8565b90509295989b509295989b509295989b565b6000806000606084860312156148c657600080fd5b83356148d18161540e565b925060208401356148e18161540e565b929592945050506040919091013590565b6000806040838503121561490557600080fd5b82356149108161540e565b946020939093013593505050565b6000806040838503121561493157600080fd5b825161493c8161540e565b6020840151909250600381106146d857600080fd5b6000806020838503121561496457600080fd5b823567ffffffffffffffff81111561497b57600080fd5b614987858286016145b8565b90969095509350505050565b6000806000606084860312156149a857600080fd5b835167ffffffffffffffff808211156149c057600080fd5b818601915086601f8301126149d457600080fd5b815160206149e461462583615194565b8083825282820191508286018b848660051b8901011115614a0457600080fd5b600096505b84871015614a30578051614a1c8161540e565b835260019690960195918301918301614a09565b5091890151919750909350505080821115614a4a57600080fd5b50614a5786828701614604565b925050604084015190509250925092565b600060208284031215614a7a57600080fd5b815167ffffffffffffffff811115614a9157600080fd5b61414884828501614604565b600060208284031215614aaf57600080fd5b8151801515811461416257600080fd5b600080600060608486031215614ad457600080fd5b614add84614676565b9250614aeb60208501614676565b9150604084015163ffffffff81168114614b0457600080fd5b809150509250925092565b600060208284031215614b2157600080fd5b5035919050565b600060208284031215614b3a57600080fd5b5051919050565b60008060408385031215614b5457600080fd5b505080516020909101519092909150565b600080600060608486031215614b7a57600080fd5b8351925060208401519150604084015190509250925092565b600060208284031215614ba557600080fd5b815160ff8116811461416257600080fd5b600081518084526020808501945080840160005b83811015614bef5781516001600160a01b031687529582019590820190600101614bca565b509495945050505050565b60008151808452614c12816020860160208601615339565b601f01601f19169290920160200192915050565b60028110614c4457634e487b7160e01b600052602160045260246000fd5b9052565b6000610120614c58848451614c26565b6020838101516001600160a01b03169085015260408084015190614c86908601826001600160a01b03169052565b50606083015160608501526080830151608085015260a083015160a085015260c0830151614cbf60c08601826001600160a01b03169052565b5060e0830151614cda60e08601826001600160a01b03169052565b50610100808401518282870152614cf383870182614bfa565b9695505050505050565b60008251614d0f818460208701615339565b9190910192915050565b6020815260006129666020830184614bb6565b6000604082016040835280865480835260608501915087600052602092508260002060005b82811015614d765781546001600160a01b031684529284019260019182019101614d51565b505050838103828501528481528590820160005b86811015614db8578235614d9d8161540e565b6001600160a01b031682529183019190830190600101614d8a565b50979650505050505050565b6020815260006129666020830184614bfa565b604081526000614dea6040830185614bfa565b905060018060a01b03831660208301529392505050565b606081526000614e146060830186614bfa565b6001600160a01b0394851660208401529290931660409091015292915050565b606081526000614e476060830186614bfa565b6001600160a01b039490941660208301525060400152919050565b604081526000614e756040830185614bfa565b90508260208301529392505050565b60208082526017908201527f43616c6c6572206973206e6f7420746865205661756c74000000000000000000604082015260600190565b6020808252601a908201527f43616c6c6572206973206e6f742074686520476f7665726e6f72000000000000604082015260600190565b6020808252602e908201527f496e697469616c697a61626c653a20636f6e747261637420697320616c72656160408201526d191e481a5b9a5d1a585b1a5e995960921b606082015260800190565b6020808252601490820152732a37b5b2b7103737ba1039bab83837b93a32b21760611b604082015260600190565b6020808252600e908201526d1499595b9d1c985b9d0818d85b1b60921b604082015260600190565b60208082526018908201527f5a65726f2061646472657373206e6f7420616c6c6f7765640000000000000000604082015260600190565b60e08152845160e082015260006020860151614fed610100840182614c26565b5060408601516001600160a01b03908116610120840152606087015116610140830152608086015161016083015260a086015160c06101808401526150366101a0840182614bfa565b915050615076602083018680516001600160a01b039081168352602080830151151590840152604080830151909116908301526060908101511515910152565b60a082019390935260c0015292915050565b60808152600061509b6080830187614c48565b82810360208481019190915286518083528782019282019060005b818110156150d2578451835293830193918301916001016150b6565b505060408501969096525050506060015292915050565b6060815260006150fc6060830186614c48565b60208301949094525060400152919050565b82815260406020820152600061415f6040830184614bb6565b85815284602082015260a06040820152600061514660a0830186614bb6565b6001600160a01b0394909416606083015250608001529392505050565b604051601f8201601f1916810167ffffffffffffffff8111828210171561518c5761518c6153f8565b604052919050565b600067ffffffffffffffff8211156151ae576151ae6153f8565b5060051b60200190565b600082198211156151cb576151cb6153a0565b500190565b6000826151ed57634e487b7160e01b600052601260045260246000fd5b500490565b600181815b8085111561522d578160001904821115615213576152136153a0565b8085161561522057918102915b93841c93908002906151f7565b509250929050565b600061296660ff84168360008261524e57506001612969565b8161525b57506000612969565b8160018114615271576002811461527b57615297565b6001915050612969565b60ff84111561528c5761528c6153a0565b50506001821b612969565b5060208310610133831016604e8410600b84101617156152ba575081810a612969565b6152c483836151f2565b80600019048211156152d8576152d86153a0565b029392505050565b60008160001904831182151516156152fa576152fa6153a0565b500290565b600082821015615311576153116153a0565b500390565b600060ff821660ff841680821015615330576153306153a0565b90039392505050565b60005b8381101561535457818101518382015260200161533c565b838111156128145750506000910152565b6000600019821415615379576153796153a0565b5060010190565b600060ff821660ff811415615397576153976153a0565b60010192915050565b634e487b7160e01b600052601160045260246000fd5b634e487b7160e01b600052602160045260246000fd5b634e487b7160e01b600052603160045260246000fd5b634e487b7160e01b600052603260045260246000fd5b634e487b7160e01b600052604160045260246000fd5b6001600160a01b03811681146128db57600080fdfe48a06827bfe8bfc0a59fe65d0fa78f553938265ed1f971326fc09947d19a593c83f34c88ec39d54d1e423bd8a181ebc59ede5dcc9996c2df334668b4f89fdd73a264697066735822122076c5aa128ed3a6c9e9d242dc04e5a950bbc5db45b9118a3a85c20af014dad5b464736f6c6343000806003383f34c88ec39d54d1e423bd8a181ebc59ede5dcc9996c2df334668b4f89fdd73",
  "devdoc": {
    "kind": "dev",
    "methods": {
      "checkBalance()": {
        "details": "Get the total primary stable value held in the platform.      This includes any interest that was generated since depositing.",
        "returns": {
          "_0": "   Total value of the asset in the platform"
        }
      },
      "claimGovernance()": {
        "details": "Claim Governance of the contract to a new account (`newGovernor`). Can only be called by the new Governor."
      },
      "collectRewardTokens()": {
        "details": "Collect accumulated reward token and send to Vault."
      },
      "deposit(address,uint256)": {
        "details": "Deposit an amount of asset into the platform",
        "params": {
          "_amount": "Units of asset to deposit",
          "_asset": "Address for the asset"
        }
      },
      "depositAll()": {
        "details": "Deposit balance of all supported assets into the platform"
      },
      "getRewardTokenAddresses()": {
        "details": "Get the reward token addresses.",
        "returns": {
          "_0": "address[] the reward token addresses."
        }
      },
      "governor()": {
        "details": "Returns the address of the current Governor."
      },
      "initialize(address,address,address[],address[],address[])": {
        "details": "Internal initialize function, to set up initial internal state",
        "params": {
          "_assets": "Addresses of initial supported assets",
          "_pTokens": "Platform Token corresponding addresses",
          "_platformAddress": "Generic platform address",
          "_rewardTokenAddresses": "Address of reward token for platform",
          "_vaultAddress": "Address of the Vault"
        }
      },
      "isGovernor()": {
        "details": "Returns true if the caller is the current Governor."
      },
      "removePToken(uint256)": {
        "details": "Remove a supported asset by passing its index.      This method can only be called by the system Governor",
        "params": {
          "_assetIndex": "Index of the asset to be removed"
        }
      },
      "safeApproveAllTokens()": {
        "details": "Approve the spending of all assets by their corresponding cToken,      if for some reason is it necessary."
      },
      "setHarvesterAddress(address)": {
        "details": "Set the reward token addresses.",
        "params": {
          "_harvesterAddress": "Address of the harvester"
        }
      },
      "setPTokenAddress(address,address)": {
        "details": "Provide support for asset by passing its pToken address.      This method can only be called by the system Governor",
        "params": {
          "_asset": "Address for the asset",
          "_pToken": "Address for the corresponding platform token"
        }
      },
      "setRewardTokenAddresses(address[])": {
        "details": "Set the reward token addresses.",
        "params": {
          "_rewardTokenAddresses": "Address array of the reward token"
        }
      },
      "supportsAsset(address)": {
        "details": "Retuns bool indicating whether asset is supported by strategy",
        "params": {
          "_asset": "Address of the asset"
        }
      },
      "transferGovernance(address)": {
        "details": "Transfers Governance of the contract to a new account (`newGovernor`). Can only be called by the current Governor. Must be claimed for this to complete",
        "params": {
          "_newGovernor": "Address of the new Governor"
        }
      },
      "transferToken(address,uint256)": {
        "details": "Transfer token to governor. Intended for recovering tokens stuck in      strategy contracts, i.e. mistaken sends.",
        "params": {
          "_amount": "Amount of the asset to transfer",
          "_asset": "Address for the asset"
        }
      },
      "withdrawAll()": {
        "details": "Withdraw all assets from strategy sending assets to Vault."
      }
    },
    "version": 1
  },
  "userdoc": {
    "kind": "user",
    "methods": {
      "initialize(address,address,address[],address[],address[],address,address,address,address)": {
        "notice": "Initializer for setting up strategy internal state. This overrides the InitializableAbstractStrategy initializer as QuickSwap strategies don't fit well within that abstraction."
      }
    },
    "version": 1
  },
  "storageLayout": {
    "storage": [
      {
        "astId": 29944,
        "contract": "contracts/strategies/QuickSwapStrategy.sol:QuickSwapStrategy",
        "label": "initialized",
        "offset": 0,
        "slot": "0",
        "type": "t_bool"
      },
      {
        "astId": 29947,
        "contract": "contracts/strategies/QuickSwapStrategy.sol:QuickSwapStrategy",
        "label": "initializing",
        "offset": 1,
        "slot": "0",
        "type": "t_bool"
      },
      {
        "astId": 29987,
        "contract": "contracts/strategies/QuickSwapStrategy.sol:QuickSwapStrategy",
        "label": "______gap",
        "offset": 0,
        "slot": "1",
        "type": "t_array(t_uint256)50_storage"
      },
      {
        "astId": 30071,
        "contract": "contracts/strategies/QuickSwapStrategy.sol:QuickSwapStrategy",
        "label": "platformAddress",
        "offset": 0,
        "slot": "51",
        "type": "t_address"
      },
      {
        "astId": 30073,
        "contract": "contracts/strategies/QuickSwapStrategy.sol:QuickSwapStrategy",
        "label": "vaultAddress",
        "offset": 0,
        "slot": "52",
        "type": "t_address"
      },
      {
        "astId": 30077,
        "contract": "contracts/strategies/QuickSwapStrategy.sol:QuickSwapStrategy",
        "label": "assetToPToken",
        "offset": 0,
        "slot": "53",
        "type": "t_mapping(t_address,t_address)"
      },
      {
        "astId": 30080,
        "contract": "contracts/strategies/QuickSwapStrategy.sol:QuickSwapStrategy",
        "label": "assetsMapped",
        "offset": 0,
        "slot": "54",
        "type": "t_array(t_address)dyn_storage"
      },
      {
        "astId": 30082,
        "contract": "contracts/strategies/QuickSwapStrategy.sol:QuickSwapStrategy",
        "label": "_deprecated_rewardTokenAddress",
        "offset": 0,
        "slot": "55",
        "type": "t_address"
      },
      {
        "astId": 30084,
        "contract": "contracts/strategies/QuickSwapStrategy.sol:QuickSwapStrategy",
        "label": "_deprecated_rewardLiquidationThreshold",
        "offset": 0,
        "slot": "56",
        "type": "t_uint256"
      },
      {
        "astId": 30086,
        "contract": "contracts/strategies/QuickSwapStrategy.sol:QuickSwapStrategy",
        "label": "harvesterAddress",
        "offset": 0,
        "slot": "57",
        "type": "t_address"
      },
      {
        "astId": 30089,
        "contract": "contracts/strategies/QuickSwapStrategy.sol:QuickSwapStrategy",
        "label": "rewardTokenAddresses",
        "offset": 0,
        "slot": "58",
        "type": "t_array(t_address)dyn_storage"
      },
      {
        "astId": 30093,
        "contract": "contracts/strategies/QuickSwapStrategy.sol:QuickSwapStrategy",
        "label": "_reserved",
        "offset": 0,
        "slot": "59",
        "type": "t_array(t_int256)98_storage"
      },
      {
        "astId": 7451,
        "contract": "contracts/strategies/QuickSwapStrategy.sol:QuickSwapStrategy",
        "label": "uniswapRouter",
        "offset": 0,
        "slot": "157",
        "type": "t_contract(IUniswapV2Router02)5584"
      },
      {
        "astId": 7713,
        "contract": "contracts/strategies/QuickSwapStrategy.sol:QuickSwapStrategy",
        "label": "__gap",
        "offset": 0,
        "slot": "158",
        "type": "t_array(t_uint256)49_storage"
      },
      {
        "astId": 6121,
        "contract": "contracts/strategies/QuickSwapStrategy.sol:QuickSwapStrategy",
        "label": "balancerVault",
        "offset": 0,
        "slot": "207",
        "type": "t_contract(IVault)11711"
      },
      {
        "astId": 7164,
        "contract": "contracts/strategies/QuickSwapStrategy.sol:QuickSwapStrategy",
        "label": "__gap",
        "offset": 0,
        "slot": "208",
        "type": "t_array(t_uint256)49_storage"
      },
      {
        "astId": 25177,
        "contract": "contracts/strategies/QuickSwapStrategy.sol:QuickSwapStrategy",
        "label": "token0",
        "offset": 0,
        "slot": "257",
        "type": "t_contract(IERC20)623"
      },
      {
        "astId": 25180,
        "contract": "contracts/strategies/QuickSwapStrategy.sol:QuickSwapStrategy",
        "label": "token1",
        "offset": 0,
        "slot": "258",
        "type": "t_contract(IERC20)623"
      },
      {
        "astId": 25183,
        "contract": "contracts/strategies/QuickSwapStrategy.sol:QuickSwapStrategy",
        "label": "primaryStable",
        "offset": 0,
        "slot": "259",
        "type": "t_contract(IERC20)623"
      },
      {
        "astId": 25186,
        "contract": "contracts/strategies/QuickSwapStrategy.sol:QuickSwapStrategy",
        "label": "quickTokenNew",
        "offset": 0,
        "slot": "260",
        "type": "t_contract(IERC20)623"
      },
      {
        "astId": 25189,
        "contract": "contracts/strategies/QuickSwapStrategy.sol:QuickSwapStrategy",
        "label": "quickDragon",
        "offset": 0,
        "slot": "261",
        "type": "t_contract(IERC20)623"
      },
      {
        "astId": 25192,
        "contract": "contracts/strategies/QuickSwapStrategy.sol:QuickSwapStrategy",
        "label": "quickSwapPair",
        "offset": 0,
        "slot": "262",
        "type": "t_contract(IUniswapV2Pair)5175"
      },
      {
        "astId": 25194,
        "contract": "contracts/strategies/QuickSwapStrategy.sol:QuickSwapStrategy",
        "label": "poolId",
        "offset": 0,
        "slot": "263",
        "type": "t_bytes32"
      },
      {
        "astId": 25198,
        "contract": "contracts/strategies/QuickSwapStrategy.sol:QuickSwapStrategy",
        "label": "assetToDenominator",
        "offset": 0,
        "slot": "264",
        "type": "t_mapping(t_address,t_uint256)"
      },
      {
        "astId": 25201,
        "contract": "contracts/strategies/QuickSwapStrategy.sol:QuickSwapStrategy",
        "label": "quickSwapPairStaker",
        "offset": 0,
        "slot": "265",
        "type": "t_contract(IStakingRewards)4684"
      }
    ],
    "types": {
      "t_address": {
        "encoding": "inplace",
        "label": "address",
        "numberOfBytes": "20"
      },
      "t_array(t_address)dyn_storage": {
        "base": "t_address",
        "encoding": "dynamic_array",
        "label": "address[]",
        "numberOfBytes": "32"
      },
      "t_array(t_int256)98_storage": {
        "base": "t_int256",
        "encoding": "inplace",
        "label": "int256[98]",
        "numberOfBytes": "3136"
      },
      "t_array(t_uint256)49_storage": {
        "base": "t_uint256",
        "encoding": "inplace",
        "label": "uint256[49]",
        "numberOfBytes": "1568"
      },
      "t_array(t_uint256)50_storage": {
        "base": "t_uint256",
        "encoding": "inplace",
        "label": "uint256[50]",
        "numberOfBytes": "1600"
      },
      "t_bool": {
        "encoding": "inplace",
        "label": "bool",
        "numberOfBytes": "1"
      },
      "t_bytes32": {
        "encoding": "inplace",
        "label": "bytes32",
        "numberOfBytes": "32"
      },
      "t_contract(IERC20)623": {
        "encoding": "inplace",
        "label": "contract IERC20",
        "numberOfBytes": "20"
      },
      "t_contract(IStakingRewards)4684": {
        "encoding": "inplace",
        "label": "contract IStakingRewards",
        "numberOfBytes": "20"
      },
      "t_contract(IUniswapV2Pair)5175": {
        "encoding": "inplace",
        "label": "contract IUniswapV2Pair",
        "numberOfBytes": "20"
      },
      "t_contract(IUniswapV2Router02)5584": {
        "encoding": "inplace",
        "label": "contract IUniswapV2Router02",
        "numberOfBytes": "20"
      },
      "t_contract(IVault)11711": {
        "encoding": "inplace",
        "label": "contract IVault",
        "numberOfBytes": "20"
      },
      "t_int256": {
        "encoding": "inplace",
        "label": "int256",
        "numberOfBytes": "32"
      },
      "t_mapping(t_address,t_address)": {
        "encoding": "mapping",
        "key": "t_address",
        "label": "mapping(address => address)",
        "numberOfBytes": "32",
        "value": "t_address"
      },
      "t_mapping(t_address,t_uint256)": {
        "encoding": "mapping",
        "key": "t_address",
        "label": "mapping(address => uint256)",
        "numberOfBytes": "32",
        "value": "t_uint256"
      },
      "t_uint256": {
        "encoding": "inplace",
        "label": "uint256",
        "numberOfBytes": "32"
      }
    }
  }
}