{
  "address": "0xB66CA9ac14Bd51E5Fb6Fb68Bbe8Ae1209e5fc91b",
  "abi": [
    {
      "anonymous": false,
      "inputs": [
        {
          "indexed": false,
          "internalType": "uint256",
          "name": "_threshold",
          "type": "uint256"
        }
      ],
      "name": "AllocateThresholdUpdated",
      "type": "event"
    },
    {
      "anonymous": false,
      "inputs": [
        {
          "indexed": false,
          "internalType": "address",
          "name": "_asset",
          "type": "address"
        },
        {
          "indexed": false,
          "internalType": "address",
          "name": "_strategy",
          "type": "address"
        },
        {
          "indexed": false,
          "internalType": "uint256",
          "name": "_amount",
          "type": "uint256"
        }
      ],
      "name": "AssetAllocated",
      "type": "event"
    },
    {
      "anonymous": false,
      "inputs": [
        {
          "indexed": false,
          "internalType": "address",
          "name": "_asset",
          "type": "address"
        },
        {
          "indexed": false,
          "internalType": "address",
          "name": "_strategy",
          "type": "address"
        }
      ],
      "name": "AssetDefaultStrategyUpdated",
      "type": "event"
    },
    {
      "anonymous": false,
      "inputs": [
        {
          "indexed": false,
          "internalType": "address",
          "name": "_asset",
          "type": "address"
        }
      ],
      "name": "AssetSupported",
      "type": "event"
    },
    {
      "anonymous": false,
      "inputs": [],
      "name": "CapitalPaused",
      "type": "event"
    },
    {
      "anonymous": false,
      "inputs": [],
      "name": "CapitalUnpaused",
      "type": "event"
    },
    {
      "anonymous": false,
      "inputs": [
        {
          "indexed": true,
          "internalType": "address",
          "name": "previousGovernor",
          "type": "address"
        },
        {
          "indexed": true,
          "internalType": "address",
          "name": "newGovernor",
          "type": "address"
        }
      ],
      "name": "GovernorshipTransferred",
      "type": "event"
    },
    {
      "anonymous": false,
      "inputs": [
        {
          "indexed": false,
          "internalType": "uint256",
          "name": "maxSupplyDiff",
          "type": "uint256"
        }
      ],
      "name": "MaxSupplyDiffChanged",
      "type": "event"
    },
    {
      "anonymous": false,
      "inputs": [
        {
          "indexed": false,
          "internalType": "address",
          "name": "_addr",
          "type": "address"
        },
        {
          "indexed": false,
          "internalType": "uint256",
          "name": "_value",
          "type": "uint256"
        }
      ],
      "name": "Mint",
      "type": "event"
    },
    {
      "anonymous": false,
      "inputs": [
        {
          "indexed": true,
          "internalType": "address",
          "name": "previousGovernor",
          "type": "address"
        },
        {
          "indexed": true,
          "internalType": "address",
          "name": "newGovernor",
          "type": "address"
        }
      ],
      "name": "PendingGovernorshipTransfer",
      "type": "event"
    },
    {
      "anonymous": false,
      "inputs": [
        {
          "indexed": false,
          "internalType": "address",
          "name": "_priceProvider",
          "type": "address"
        }
      ],
      "name": "PriceProviderUpdated",
      "type": "event"
    },
    {
      "anonymous": false,
      "inputs": [],
      "name": "RebasePaused",
      "type": "event"
    },
    {
      "anonymous": false,
      "inputs": [
        {
          "indexed": false,
          "internalType": "uint256",
          "name": "_threshold",
          "type": "uint256"
        }
      ],
      "name": "RebaseThresholdUpdated",
      "type": "event"
    },
    {
      "anonymous": false,
      "inputs": [],
      "name": "RebaseUnpaused",
      "type": "event"
    },
    {
      "anonymous": false,
      "inputs": [
        {
          "indexed": false,
          "internalType": "address",
          "name": "_addr",
          "type": "address"
        },
        {
          "indexed": false,
          "internalType": "uint256",
          "name": "_value",
          "type": "uint256"
        }
      ],
      "name": "Redeem",
      "type": "event"
    },
    {
      "anonymous": false,
      "inputs": [
        {
          "indexed": false,
          "internalType": "uint256",
          "name": "_redeemFeeBps",
          "type": "uint256"
        }
      ],
      "name": "RedeemFeeUpdated",
      "type": "event"
    },
    {
      "anonymous": false,
      "inputs": [
        {
          "indexed": false,
          "internalType": "address",
          "name": "_address",
          "type": "address"
        }
      ],
      "name": "StrategistUpdated",
      "type": "event"
    },
    {
      "anonymous": false,
      "inputs": [
        {
          "indexed": false,
          "internalType": "address",
          "name": "_addr",
          "type": "address"
        }
      ],
      "name": "StrategyApproved",
      "type": "event"
    },
    {
      "anonymous": false,
      "inputs": [
        {
          "indexed": false,
          "internalType": "address",
          "name": "_addr",
          "type": "address"
        }
      ],
      "name": "StrategyRemoved",
      "type": "event"
    },
    {
      "anonymous": false,
      "inputs": [
        {
          "indexed": false,
          "internalType": "address",
          "name": "_address",
          "type": "address"
        }
      ],
      "name": "TrusteeAddressChanged",
      "type": "event"
    },
    {
      "anonymous": false,
      "inputs": [
        {
          "indexed": false,
          "internalType": "uint256",
          "name": "_basis",
          "type": "uint256"
        }
      ],
      "name": "TrusteeFeeBpsChanged",
      "type": "event"
    },
    {
      "anonymous": false,
      "inputs": [
        {
          "indexed": false,
          "internalType": "uint256",
          "name": "_vaultBuffer",
          "type": "uint256"
        }
      ],
      "name": "VaultBufferUpdated",
      "type": "event"
    },
    {
      "anonymous": false,
      "inputs": [
        {
          "indexed": false,
          "internalType": "address",
          "name": "_to",
          "type": "address"
        },
        {
          "indexed": false,
          "internalType": "uint256",
          "name": "_yield",
          "type": "uint256"
        },
        {
          "indexed": false,
          "internalType": "uint256",
          "name": "_fee",
          "type": "uint256"
        }
      ],
      "name": "YieldDistribution",
      "type": "event"
    },
    {
      "stateMutability": "payable",
      "type": "fallback"
    },
    {
      "inputs": [],
      "name": "MAX_VALUE",
      "outputs": [
        {
          "internalType": "int256",
          "name": "",
          "type": "int256"
        }
      ],
      "stateMutability": "view",
      "type": "function"
    },
    {
      "inputs": [],
      "name": "TOTAL_WEIGHT",
      "outputs": [
        {
          "internalType": "uint256",
          "name": "",
          "type": "uint256"
        }
      ],
      "stateMutability": "view",
      "type": "function"
    },
    {
      "inputs": [],
      "name": "allocate",
      "outputs": [],
      "stateMutability": "nonpayable",
      "type": "function"
    },
    {
      "inputs": [
        {
          "internalType": "address",
          "name": "",
          "type": "address"
        }
      ],
      "name": "assetDefaultStrategies",
      "outputs": [
        {
          "internalType": "address",
          "name": "",
          "type": "address"
        }
      ],
      "stateMutability": "view",
      "type": "function"
    },
    {
      "inputs": [],
      "name": "autoAllocateThreshold",
      "outputs": [
        {
          "internalType": "uint256",
          "name": "",
          "type": "uint256"
        }
      ],
      "stateMutability": "view",
      "type": "function"
    },
    {
      "inputs": [],
      "name": "balancerPoolId",
      "outputs": [
        {
          "internalType": "bytes32",
          "name": "",
          "type": "bytes32"
        }
      ],
      "stateMutability": "view",
      "type": "function"
    },
    {
      "inputs": [],
      "name": "balancerVault",
      "outputs": [
        {
          "internalType": "address",
          "name": "",
          "type": "address"
        }
      ],
      "stateMutability": "view",
      "type": "function"
    },
    {
      "inputs": [
        {
          "internalType": "uint256",
          "name": "_amount",
          "type": "uint256"
        }
      ],
      "name": "calculateRedeemOutput",
      "outputs": [
        {
          "internalType": "uint256",
          "name": "",
          "type": "uint256"
        }
      ],
      "stateMutability": "view",
      "type": "function"
    },
    {
      "inputs": [],
      "name": "capitalPaused",
      "outputs": [
        {
          "internalType": "bool",
          "name": "",
          "type": "bool"
        }
      ],
      "stateMutability": "view",
      "type": "function"
    },
    {
      "inputs": [],
      "name": "checkBalance",
      "outputs": [
        {
          "internalType": "uint256",
          "name": "",
          "type": "uint256"
        }
      ],
      "stateMutability": "view",
      "type": "function"
    },
    {
      "inputs": [],
      "name": "claimGovernance",
      "outputs": [],
      "stateMutability": "nonpayable",
      "type": "function"
    },
    {
      "inputs": [],
      "name": "dripperAddress",
      "outputs": [
        {
          "internalType": "address",
          "name": "",
          "type": "address"
        }
      ],
      "stateMutability": "view",
      "type": "function"
    },
    {
      "inputs": [],
      "name": "getAllAssets",
      "outputs": [
        {
          "internalType": "address[]",
          "name": "",
          "type": "address[]"
        }
      ],
      "stateMutability": "view",
      "type": "function"
    },
    {
      "inputs": [],
      "name": "getAllStrategies",
      "outputs": [
        {
          "internalType": "address[]",
          "name": "",
          "type": "address[]"
        }
      ],
      "stateMutability": "view",
      "type": "function"
    },
    {
      "inputs": [],
      "name": "getAssetCount",
      "outputs": [
        {
          "internalType": "uint256",
          "name": "",
          "type": "uint256"
        }
      ],
      "stateMutability": "view",
      "type": "function"
    },
    {
      "inputs": [],
      "name": "getStrategyCount",
      "outputs": [
        {
          "internalType": "uint256",
          "name": "",
          "type": "uint256"
        }
      ],
      "stateMutability": "view",
      "type": "function"
    },
    {
      "inputs": [],
      "name": "governor",
      "outputs": [
        {
          "internalType": "address",
          "name": "",
          "type": "address"
        }
      ],
      "stateMutability": "view",
      "type": "function"
    },
    {
      "inputs": [],
      "name": "harvesterAddress",
      "outputs": [
        {
          "internalType": "address",
          "name": "",
          "type": "address"
        }
      ],
      "stateMutability": "view",
      "type": "function"
    },
    {
      "inputs": [],
      "name": "isGovernor",
      "outputs": [
        {
          "internalType": "bool",
          "name": "",
          "type": "bool"
        }
      ],
      "stateMutability": "view",
      "type": "function"
    },
    {
      "inputs": [
        {
          "internalType": "address",
          "name": "_asset",
          "type": "address"
        }
      ],
      "name": "isSupportedAsset",
      "outputs": [
        {
          "internalType": "bool",
          "name": "",
          "type": "bool"
        }
      ],
      "stateMutability": "view",
      "type": "function"
    },
    {
      "inputs": [
        {
          "internalType": "address",
          "name": "_asset",
          "type": "address"
        },
        {
          "internalType": "uint256",
          "name": "_amount",
          "type": "uint256"
        },
        {
          "internalType": "uint256",
          "name": "_minimumCASHAmount",
          "type": "uint256"
        }
      ],
      "name": "justMint",
      "outputs": [],
      "stateMutability": "nonpayable",
      "type": "function"
    },
    {
      "inputs": [],
      "name": "labsAddress",
      "outputs": [
        {
          "internalType": "address",
          "name": "",
          "type": "address"
        }
      ],
      "stateMutability": "view",
      "type": "function"
    },
    {
      "inputs": [],
      "name": "labsFeeBps",
      "outputs": [
        {
          "internalType": "uint256",
          "name": "",
          "type": "uint256"
        }
      ],
      "stateMutability": "view",
      "type": "function"
    },
    {
      "inputs": [],
      "name": "maxSupplyDiff",
      "outputs": [
        {
          "internalType": "uint256",
          "name": "",
          "type": "uint256"
        }
      ],
      "stateMutability": "view",
      "type": "function"
    },
    {
      "inputs": [
        {
          "internalType": "address",
          "name": "_asset",
          "type": "address"
        },
        {
          "internalType": "uint256",
          "name": "_amount",
          "type": "uint256"
        },
        {
          "internalType": "uint256",
          "name": "_minimumCASHAmount",
          "type": "uint256"
        }
      ],
      "name": "mint",
      "outputs": [],
      "stateMutability": "nonpayable",
      "type": "function"
    },
    {
      "inputs": [],
      "name": "priceProvider",
      "outputs": [
        {
          "internalType": "address",
          "name": "",
          "type": "address"
        }
      ],
      "stateMutability": "view",
      "type": "function"
    },
    {
      "inputs": [],
      "name": "primaryStableAddress",
      "outputs": [
        {
          "internalType": "address",
          "name": "",
          "type": "address"
        }
      ],
      "stateMutability": "view",
      "type": "function"
    },
    {
      "inputs": [],
      "name": "quickAllocate",
      "outputs": [],
      "stateMutability": "nonpayable",
      "type": "function"
    },
    {
      "inputs": [
        {
          "internalType": "uint256",
          "name": "",
          "type": "uint256"
        }
      ],
      "name": "quickDepositStrategies",
      "outputs": [
        {
          "internalType": "address",
          "name": "",
          "type": "address"
        }
      ],
      "stateMutability": "view",
      "type": "function"
    },
    {
      "inputs": [],
      "name": "rebase",
      "outputs": [],
      "stateMutability": "nonpayable",
      "type": "function"
    },
    {
      "inputs": [],
      "name": "rebasePaused",
      "outputs": [
        {
          "internalType": "bool",
          "name": "",
          "type": "bool"
        }
      ],
      "stateMutability": "view",
      "type": "function"
    },
    {
      "inputs": [],
      "name": "rebaseThreshold",
      "outputs": [
        {
          "internalType": "uint256",
          "name": "",
          "type": "uint256"
        }
      ],
      "stateMutability": "view",
      "type": "function"
    },
    {
      "inputs": [
        {
          "internalType": "uint256",
          "name": "_amount",
          "type": "uint256"
        },
        {
          "internalType": "uint256",
          "name": "_minimumUnitAmount",
          "type": "uint256"
        }
      ],
      "name": "redeem",
      "outputs": [],
      "stateMutability": "nonpayable",
      "type": "function"
    },
    {
      "inputs": [
        {
          "internalType": "uint256",
          "name": "_minimumUnitAmount",
          "type": "uint256"
        }
      ],
      "name": "redeemAll",
      "outputs": [],
      "stateMutability": "nonpayable",
      "type": "function"
    },
    {
      "inputs": [],
      "name": "redeemFeeBps",
      "outputs": [
        {
          "internalType": "uint256",
          "name": "",
          "type": "uint256"
        }
      ],
      "stateMutability": "view",
      "type": "function"
    },
    {
      "inputs": [
        {
          "internalType": "address",
          "name": "newImpl",
          "type": "address"
        }
      ],
      "name": "setAdminImpl",
      "outputs": [],
      "stateMutability": "nonpayable",
      "type": "function"
    },
    {
      "inputs": [],
      "name": "strategistAddr",
      "outputs": [
        {
          "internalType": "address",
          "name": "",
          "type": "address"
        }
      ],
      "stateMutability": "view",
      "type": "function"
    },
    {
      "inputs": [
        {
          "internalType": "address",
          "name": "",
          "type": "address"
        }
      ],
      "name": "strategyWithWeightPositions",
      "outputs": [
        {
          "internalType": "uint256",
          "name": "",
          "type": "uint256"
        }
      ],
      "stateMutability": "view",
      "type": "function"
    },
    {
      "inputs": [
        {
          "internalType": "uint256",
          "name": "",
          "type": "uint256"
        }
      ],
      "name": "strategyWithWeights",
      "outputs": [
        {
          "internalType": "address",
          "name": "strategy",
          "type": "address"
        },
        {
          "internalType": "uint256",
          "name": "minWeight",
          "type": "uint256"
        },
        {
          "internalType": "uint256",
          "name": "targetWeight",
          "type": "uint256"
        },
        {
          "internalType": "uint256",
          "name": "maxWeight",
          "type": "uint256"
        },
        {
          "internalType": "bool",
          "name": "enabled",
          "type": "bool"
        },
        {
          "internalType": "bool",
          "name": "enabledReward",
          "type": "bool"
        }
      ],
      "stateMutability": "view",
      "type": "function"
    },
    {
      "inputs": [],
      "name": "teamAddress",
      "outputs": [
        {
          "internalType": "address",
          "name": "",
          "type": "address"
        }
      ],
      "stateMutability": "view",
      "type": "function"
    },
    {
      "inputs": [],
      "name": "teamFeeBps",
      "outputs": [
        {
          "internalType": "uint256",
          "name": "",
          "type": "uint256"
        }
      ],
      "stateMutability": "view",
      "type": "function"
    },
    {
      "inputs": [],
      "name": "totalValue",
      "outputs": [
        {
          "internalType": "uint256",
          "name": "value",
          "type": "uint256"
        }
      ],
      "stateMutability": "view",
      "type": "function"
    },
    {
      "inputs": [
        {
          "internalType": "address",
          "name": "_newGovernor",
          "type": "address"
        }
      ],
      "name": "transferGovernance",
      "outputs": [],
      "stateMutability": "nonpayable",
      "type": "function"
    },
    {
      "inputs": [],
      "name": "trusteeAddress",
      "outputs": [
        {
          "internalType": "address",
          "name": "",
          "type": "address"
        }
      ],
      "stateMutability": "view",
      "type": "function"
    },
    {
      "inputs": [],
      "name": "trusteeFeeBps",
      "outputs": [
        {
          "internalType": "uint256",
          "name": "",
          "type": "uint256"
        }
      ],
      "stateMutability": "view",
      "type": "function"
    },
    {
      "inputs": [],
      "name": "vaultBuffer",
      "outputs": [
        {
          "internalType": "uint256",
          "name": "",
          "type": "uint256"
        }
      ],
      "stateMutability": "view",
      "type": "function"
    }
  ],
  "transactionHash": "0x534a813d7c4522d9afc16d24f600681035d3d30606986c44c76af069da8b9b4c",
  "args": [],
  "solcInputHash": "94837f36ef435fef0a98cc2772486be6",
  "bytecode": "0x60806040526037805461ffff60a01b1916600160a81b179055604180546001600160a01b031990811690915560428054821690556043805490911690553480156200004957600080fd5b506200006233600080516020620044f083398151915255565b600080516020620044f0833981519152546040516001600160a01b03909116906000907fc7c0c772add429241571afb3805861fb3cfa2af374534088b76cdb4325a87e9a908290a361443680620000ba6000396000f3fe60806040526004361061027d5760003560e01c8063840189421161014f578063c3b28864116100c1578063d4c3eea01161007a578063d4c3eea0146107bc578063dbbb64b9146107d1578063e0de8939146107e7578063e6cc543214610807578063ed2a2f9d14610828578063fc0cfeee1461083f5761027d565b8063c3b28864146106d5578063c46b3dc4146106ea578063c71daccb14610717578063c7af33521461072c578063cc18f12d14610741578063d38bfff41461079c5761027d565b80639fa1826e116101135780639fa1826e1461062a578063a0aead4d14610640578063a403e4d514610655578063abaa99161461068b578063af14052c146106a0578063b888879e146106b55761027d565b8063840189421461059a5780638e510b52146105b05780638ffa4618146105c65780639be918e6146105dc5780639dc5a414146106155761027d565b806331e19cfa116101f3578063545ad78c116101ac578063545ad78c146104e5578063570d8e1d146105055780635d36b1901461052557806367c7066c1461053a5780637136a7a61461055a5780637cbc23731461057a5761027d565b806331e19cfa1461042957806349c1d54d1461043e5780634f2d7d6f1461045e57806352d38e5d1461047e57806353ca9f2414610494578063543fe442146104c55761027d565b8063156e29f611610245578063156e29f61461037b578063158274a51461039b5780631c75f085146103bb5780631edfe3da146103db578063207134b0146103f15780632acada4d146104075761027d565b8063063bde24146102c357806309f6442c146102f65780630bf413611461030c5780630c340a241461034457806310d9571c14610359575b7f10e4e34101c81b29558fe5b91534ae1af03c346313e21b0f6446695a8e18e243366000803760008036600084545af43d6000803e8080156102be573d6000f35b3d6000fd5b3480156102cf57600080fd5b506102e36b033b2e3c9fd0803ce800000081565b6040519081526020015b60405180910390f35b34801561030257600080fd5b506102e360385481565b34801561031857600080fd5b5061032c610327366004613d38565b61085f565b6040516001600160a01b0390911681526020016102ed565b34801561035057600080fd5b5061032c610889565b34801561036557600080fd5b50610379610374366004613ce3565b6108a6565b005b34801561038757600080fd5b50610379610396366004613ce3565b610924565b3480156103a757600080fd5b50604b5461032c906001600160a01b031681565b3480156103c757600080fd5b50603b5461032c906001600160a01b031681565b3480156103e757600080fd5b506102e3603d5481565b3480156103fd57600080fd5b506102e360475481565b34801561041357600080fd5b5061041c6109ae565b6040516102ed9190613e68565b34801561043557600080fd5b506036546102e3565b34801561044a57600080fd5b5060465461032c906001600160a01b031681565b34801561046a57600080fd5b5060495461032c906001600160a01b031681565b34801561048a57600080fd5b506102e3603f5481565b3480156104a057600080fd5b506037546104b590600160a01b900460ff1681565b60405190151581526020016102ed565b3480156104d157600080fd5b5060395461032c906001600160a01b031681565b3480156104f157600080fd5b50604e5461032c906001600160a01b031681565b34801561051157600080fd5b5060435461032c906001600160a01b031681565b34801561053157600080fd5b50610379610a10565b34801561054657600080fd5b50604d5461032c906001600160a01b031681565b34801561056657600080fd5b50610379610575366004613d38565b610ab6565b34801561058657600080fd5b50610379610595366004613d6a565b610ba1565b3480156105a657600080fd5b506102e3603c5481565b3480156105bc57600080fd5b506102e360455481565b3480156105d257600080fd5b506102e3603a5481565b3480156105e857600080fd5b506104b56105f7366004613cc8565b6001600160a01b031660009081526033602052604090205460ff1690565b34801561062157600080fd5b50610379610c14565b34801561063657600080fd5b506102e3603e5481565b34801561064c57600080fd5b506034546102e3565b34801561066157600080fd5b5061032c610670366004613cc8565b6044602052600090815260409020546001600160a01b031681565b34801561069757600080fd5b50610379610c83565b3480156106ac57600080fd5b50610379610ceb565b3480156106c157600080fd5b5060375461032c906001600160a01b031681565b3480156106e157600080fd5b5061041c610d29565b3480156106f657600080fd5b506102e3610705366004613cc8565b604f6020526000908152604090205481565b34801561072357600080fd5b506102e3610d89565b34801561073857600080fd5b506104b5610d93565b34801561074d57600080fd5b5061076161075c366004613d38565b610dc4565b604080516001600160a01b039097168752602087019590955293850192909252606084015215156080830152151560a082015260c0016102ed565b3480156107a857600080fd5b506103796107b7366004613cc8565b610e1b565b3480156107c857600080fd5b506102e3610eef565b3480156107dd57600080fd5b506102e3604c5481565b3480156107f357600080fd5b506102e3610802366004613d38565b610ef9565b34801561081357600080fd5b506037546104b590600160a81b900460ff1681565b34801561083457600080fd5b506102e3620186a081565b34801561084b57600080fd5b5061037961085a366004613cc8565b610f0f565b604a818154811061086f57600080fd5b6000918252602090912001546001600160a01b0316905081565b60006108a160008051602061436c8339815191525490565b905090565b603754600160a81b900460ff16156108d95760405162461bcd60e51b81526004016108d090613fba565b60405180910390fd5b60008051602061434c8339815191528054600281141561090b5760405162461bcd60e51b81526004016108d090613fe2565b6002825561091a858585610fe1565b5060019055505050565b603754600160a81b900460ff161561094e5760405162461bcd60e51b81526004016108d090613fba565b60008051602061434c833981519152805460028114156109805760405162461bcd60e51b81526004016108d090613fe2565b6002825561098f858585610fe1565b6049546109a69086906001600160a01b03166112f3565b61091a61147a565b60606034805480602002602001604051908101604052809291908181526020018280548015610a0657602002820191906000526020600020905b81546001600160a01b031681526001909101906020018083116109e8575b5050505050905090565b7f7eaf9a7750884803435dfabc67aa617a7d8fefb23d8d84b3c9722bd69e48c4bc546001600160a01b0316336001600160a01b031614610aab5760405162461bcd60e51b815260206004820152603060248201527f4f6e6c79207468652070656e64696e6720476f7665726e6f722063616e20636f60448201526f6d706c6574652074686520636c61696d60801b60648201526084016108d0565b610ab433611708565b565b603754600160a81b900460ff1615610ae05760405162461bcd60e51b81526004016108d090613fba565b60008051602061434c83398151915280546002811415610b125760405162461bcd60e51b81526004016108d090613fe2565b600282556040805490516370a0823160e01b8152336004820152610b99916001600160a01b0316906370a082319060240160206040518083038186803b158015610b5b57600080fd5b505afa158015610b6f573d6000803e3d6000fd5b505050506040513d601f19601f82011682018060405250810190610b939190613d51565b846117cc565b506001905550565b603754600160a81b900460ff1615610bcb5760405162461bcd60e51b81526004016108d090613fba565b60008051602061434c83398151915280546002811415610bfd5760405162461bcd60e51b81526004016108d090613fe2565b60028255610c0b84846117cc565b50600190555050565b603754600160a81b900460ff1615610c3e5760405162461bcd60e51b81526004016108d090613fba565b60008051602061434c83398151915280546002811415610c705760405162461bcd60e51b81526004016108d090613fe2565b60028255610c7c61147a565b5060019055565b603754600160a81b900460ff1615610cad5760405162461bcd60e51b81526004016108d090613fba565b60008051602061434c83398151915280546002811415610cdf5760405162461bcd60e51b81526004016108d090613fe2565b60028255610c7c6122ff565b60008051602061434c83398151915280546002811415610d1d5760405162461bcd60e51b81526004016108d090613fe2565b60028255610c7c61268e565b60606036805480602002602001604051908101604052809291908181526020018280548015610a06576020028201919060005260206000209081546001600160a01b031681526001909101906020018083116109e8575050505050905090565b60006108a1612b62565b6000610dab60008051602061436c8339815191525490565b6001600160a01b0316336001600160a01b031614905090565b60508181548110610dd457600080fd5b6000918252602090912060059091020180546001820154600283015460038401546004909401546001600160a01b0390931694509092909160ff8082169161010090041686565b610e23610d93565b610e6f5760405162461bcd60e51b815260206004820152601a60248201527f43616c6c6572206973206e6f742074686520476f7665726e6f7200000000000060448201526064016108d0565b610e97817f7eaf9a7750884803435dfabc67aa617a7d8fefb23d8d84b3c9722bd69e48c4bc55565b806001600160a01b0316610eb760008051602061436c8339815191525490565b6001600160a01b03167fa39cc5eb22d0f34d8beaefee8a3f17cc229c1a1d1ef87a5ad47313487b1c4f0d60405160405180910390a350565b60006108a1612cba565b600080610f0583612cd5565b5090949350505050565b610f17610d93565b610f635760405162461bcd60e51b815260206004820152601a60248201527f43616c6c6572206973206e6f742074686520476f7665726e6f7200000000000060448201526064016108d0565b803b610fbd5760405162461bcd60e51b8152602060048201526024808201527f6e657720696d706c656d656e746174696f6e206973206e6f74206120636f6e746044820152631c9858dd60e21b60648201526084016108d0565b7f10e4e34101c81b29558fe5b91534ae1af03c346313e21b0f6446695a8e18e24355565b6001600160a01b03831660009081526033602052604090205460ff166110425760405162461bcd60e51b8152602060048201526016602482015275105cdcd95d081a5cc81b9bdd081cdd5c1c1bdc9d195960521b60448201526064016108d0565b600082116110925760405162461bcd60e51b815260206004820152601d60248201527f416d6f756e74206d7573742062652067726561746572207468616e203000000060448201526064016108d0565b6037546040516315d5220f60e31b81526001600160a01b038581166004830152600092169063aea910789060240160206040518083038186803b1580156110d857600080fd5b505afa1580156110ec573d6000803e3d6000fd5b505050506040513d601f19601f820116820180604052508101906111109190613d51565b90506305f5e10081111561112557506305f5e1005b6305f2d3c08110156111715760405162461bcd60e51b815260206004820152601560248201527441737365742070726963652062656c6f772070656760581b60448201526064016108d0565b600061117c85612e82565b9050600061118c85601284612f71565b905060006111b36111a08560126008612f71565b6111ab85600a614157565b889190612fd5565b9050841561120b578481101561120b5760405162461bcd60e51b815260206004820152601e60248201527f4d696e7420616d6f756e74206c6f776572207468616e206d696e696d756d000060448201526064016108d0565b7f0f6798a560793a54c3bcfe86a93cde1e73087d944c0ea20544137d4121396885338260405161123c929190613e4f565b60405180910390a1603f5482101580156112605750603754600160a01b900460ff16155b1561126d5761126d61268e565b6040805490516340c10f1960e01b81526001600160a01b03909116906340c10f199061129f9033908590600401613e4f565b600060405180830381600087803b1580156112b957600080fd5b505af11580156112cd573d6000803e3d6000fd5b508992506112e99150506001600160a01b03821633308a612ff7565b5050505050505050565b604b54605180546001600160a01b0319166001600160a01b039283161790558181169083161480159061139d57506040516370a0823160e01b81523060048201526000906001600160a01b038416906370a082319060240160206040518083038186803b15801561136357600080fd5b505afa158015611377573d6000803e3d6000fd5b505050506040513d601f19601f8201168201806040525081019061139b9190613d51565b115b15611476576113e26040518060400160405280601981526020017f5661756c74436f72653a205377617070696e672066726f6d2000000000000000815250838361304f565b604c546040516370a0823160e01b815230600482018190526114749291600091869186919081906001600160a01b038516906370a082319060240160206040518083038186803b15801561143557600080fd5b505afa158015611449573d6000803e3d6000fd5b505050506040513d601f19601f8201168201806040525081019061146d9190613d51565b6000613096565b505b5050565b61151660405180606001604052806027815260200161438c602791396049546040516370a0823160e01b81523060048201526001600160a01b03909116906370a082319060240160206040518083038186803b1580156114d957600080fd5b505afa1580156114ed573d6000803e3d6000fd5b505050506040513d601f19601f820116820180604052508101906115119190613d51565b6133e8565b604a54600090611526904361429c565b90506000604a828154811061153d5761153d6142f2565b60009182526020822001546049546040516370a0823160e01b81523060048201526001600160a01b0392831694509116906370a082319060240160206040518083038186803b15801561158f57600080fd5b505afa1580156115a3573d6000803e3d6000fd5b505050506040513d601f19601f820116820180604052508101906115c79190613d51565b90506001600160a01b038216158015906115e15750600081115b1561147457600082905061163c60405180604001604052806011815260200170028bab4b1b5902232b837b9b4ba34b7339607d1b81525083604051806040016040528060048152602001630103a37960e51b8152508661342d565b604954611653906001600160a01b03168284613476565b6049546040516311f9fbc960e21b81526001600160a01b03838116926347e7ef249261168792909116908690600401613e4f565b600060405180830381600087803b1580156116a157600080fd5b505af11580156116b5573d6000803e3d6000fd5b50506049546040517f41b99659f6ba0803f444aff29e5bf6e26dd86a3219aff92119d69710a956ba8d93506116fa92506001600160a01b039091169086908690613df7565b60405180910390a150505050565b6001600160a01b03811661175e5760405162461bcd60e51b815260206004820152601a60248201527f4e657720476f7665726e6f72206973206164647265737328302900000000000060448201526064016108d0565b806001600160a01b031661177e60008051602061436c8339815191525490565b6001600160a01b03167fc7c0c772add429241571afb3805861fb3cfa2af374534088b76cdb4325a87e9a60405160405180910390a36117c98160008051602061436c83398151915255565b50565b6000821161181c5760405162461bcd60e51b815260206004820152601d60248201527f416d6f756e74206d7573742062652067726561746572207468616e203000000060448201526064016108d0565b600080600061182a85612cd5565b9250925092506118606040518060400160405280600e81526020016d2932b232b2b69037baba383aba1d60911b815250846133e8565b6118906040518060400160405280600e81526020016d2130b1b5b4b733903b30b63ab29d60911b815250836133e8565b6118bd6040518060400160405280600b81526020016a2932b232b2b6902332b29d60a91b815250826133e8565b6049546000906118d5906001600160a01b0316612e82565b90506000604060009054906101000a90046001600160a01b03166001600160a01b03166318160ddd6040518163ffffffff1660e01b815260040160206040518083038186803b15801561192757600080fd5b505afa15801561193b573d6000803e3d6000fd5b505050506040513d601f19601f8201168201806040525081019061195f9190613d51565b60455490915015611a035760006119768286613495565b9050604554670de0b6b3a764000082116119a15761199c670de0b6b3a7640000836134be565b6119b3565b6119b382670de0b6b3a76400006134be565b1115611a015760405162461bcd60e51b815260206004820152601e60248201527f4261636b696e6720737570706c79206c6971756964697479206572726f72000060448201526064016108d0565b505b8515611a6b576000611a1786601285612f71565b905086811015611a695760405162461bcd60e51b815260206004820181905260248201527f52656465656d20616d6f756e74206c6f776572207468616e206d696e696d756d60448201526064016108d0565b505b7f222838db2794d11532d940e8dec38ae307ed0b63cd97c233322e221f998767a63388604051611a9c929190613e4f565b60405180910390a160008511611ae85760405162461bcd60e51b81526020600482015260116024820152704e6f7468696e6720746f2072656465656d60781b60448201526064016108d0565b6049546050546001600160a01b039091169060009067ffffffffffffffff811115611b1557611b15614308565b604051908082528060200260200182016040528015611b3e578160200160208202803683370190505b5060505490915060009067ffffffffffffffff811115611b6057611b60614308565b604051908082528060200260200182016040528015611b89578160200160208202803683370190505b506040516370a0823160e01b81523060048201529091506000906001600160a01b038516906370a082319060240160206040518083038186803b158015611bcf57600080fd5b505afa158015611be3573d6000803e3d6000fd5b505050506040513d601f19601f82011682018060405250810190611c079190613d51565b90506000805b611c17898c6140e8565b8311158015611c2a575060505460ff8316105b15611f5f57600060508360ff1681548110611c4757611c476142f2565b6000918252602091829020600590910201546040805163c71daccb60e01b815290516001600160a01b039092169263c71daccb92600480840193829003018186803b158015611c9557600080fd5b505afa158015611ca9573d6000803e3d6000fd5b505050506040513d601f19601f82011682018060405250810190611ccd9190613d51565b9050611d3e6040518060400160405280601981526020017f43757272656e742073747261746567792062616c616e63653a0000000000000081525060508560ff1681548110611d1e57611d1e6142f2565b60009182526020909120600590910201546001600160a01b0316836134ca565b8015611ee757611d4e8a8d6140e8565b611d5885836140e8565b1115611e415760508360ff1681548110611d7457611d746142f2565b600091825260209091206005909102015486516001600160a01b0390911690879060ff8516908110611da857611da86142f2565b6001600160a01b0390921660209283029190910190910152611dca8a8d6140e8565b611dd485836140e8565b611dde919061421e565b611de8908261421e565b858360ff1681518110611dfd57611dfd6142f2565b6020908102919091010152611e128a8d6140e8565b611e1c85836140e8565b611e26919061421e565b611e30908261421e565b611e3a90856140e8565b9350611ed9565b60508360ff1681548110611e5757611e576142f2565b600091825260209091206005909102015486516001600160a01b0390911690879060ff8516908110611e8b57611e8b6142f2565b60200260200101906001600160a01b031690816001600160a01b03168152505080858360ff1681518110611ec157611ec16142f2565b6020908102919091010152611ed681856140e8565b93505b81611ee38161427c565b9250505b611f4c604051806040016040528060138152602001722a37ba30b61030b6b7bab73a1030b33a32b91d60691b81525060508560ff1681548110611f2c57611f2c6142f2565b60009182526020909120600590910201546001600160a01b0316866134ca565b82611f568161427c565b93505050611c0d565b611f8e6040518060400160405280600d81526020016c2a37ba30b61030b6b7bab73a1d60991b815250846133e8565b611f98898c6140e8565b831015611ff35760405162461bcd60e51b8152602060048201526024808201527f4e6f7420656e6f7567682066756e647320616e79776865726520746f2072656460448201526332b2b69760e11b60648201526084016108d0565b60005b60505460ff8216101561215c5760006001600160a01b0316868260ff1681518110612023576120236142f2565b60200260200101516001600160a01b0316141561203f5761215c565b61209a6040518060600160405280602d815260200161431f602d9139878360ff1681518110612070576120706142f2565b6020026020010151878460ff168151811061208d5761208d6142f2565b60200260200101516134ca565b858160ff16815181106120af576120af6142f2565b60200260200101516001600160a01b031663d9caed1230604960009054906101000a90046001600160a01b0316888560ff16815181106120f1576120f16142f2565b60200260200101516040518463ffffffff1660e01b815260040161211793929190613df7565b600060405180830381600087803b15801561213157600080fd5b505af1158015612145573d6000803e3d6000fd5b5050505080806121549061427c565b915050611ff6565b50612167898c6140e8565b6040516370a0823160e01b81523060048201526001600160a01b038816906370a082319060240160206040518083038186803b1580156121a657600080fd5b505afa1580156121ba573d6000803e3d6000fd5b505050506040513d601f19601f820116820180604052508101906121de9190613d51565b10156122365760405162461bcd60e51b815260206004820152602160248201527f4e6f7420656e6f7567682066756e64732061667465722077697468647261776c6044820152601760f91b60648201526084016108d0565b61224a6001600160a01b038716338d613476565b61225389613511565b604060009054906101000a90046001600160a01b03166001600160a01b0316639dc29fac338f6040518363ffffffff1660e01b8152600401612296929190613e4f565b600060405180830381600087803b1580156122b057600080fd5b505af11580156122c4573d6000803e3d6000fd5b50505050603f548d1180156122e35750603754600160a01b900460ff16155b156122f0576122f061268e565b50505050505050505050505050565b60006123096137b5565b9050806123135750565b600061231d6138da565b9050600061232b838361392f565b905060008261235157603d5461234a90670de0b6b3a7640000906134be565b905061239a565b6123708461236a84603d5461393b90919063ffffffff16565b90613947565b905080670de0b6b3a764000011156123945761234a670de0b6b3a7640000826134be565b50505050565b806123a55750505050565b60005b60345481101561260b576000603482815481106123c7576123c76142f2565b60009182526020822001546040516370a0823160e01b81523060048201526001600160a01b03909116925082906370a082319060240160206040518083038186803b15801561241557600080fd5b505afa158015612429573d6000803e3d6000fd5b505050506040513d601f19601f8201168201806040525081019061244d9190613d51565b90506124b060348481548110612465576124656142f2565b9060005260206000200160009054906101000a90046001600160a01b03166040518060400160405280600e81526020016d030b9b9b2ba2130b630b731b29d160951b81525083613953565b806124bc5750506125f9565b60006124c8828661399a565b6001600160a01b038085166000908152604460205260409020549192501680158015906124f55750600082115b156125f45761254260405180604001604052806008815260200167029b2b73234b733960c51b81525083604051806040016040528060048152602001630103a37960e51b8152508461342d565b806125576001600160a01b0386168285613476565b6040516311f9fbc960e21b81526001600160a01b038216906347e7ef24906125859088908790600401613e4f565b600060405180830381600087803b15801561259f57600080fd5b505af11580156125b3573d6000803e3d6000fd5b505050507f41b99659f6ba0803f444aff29e5bf6e26dd86a3219aff92119d69710a956ba8d8583856040516125ea93929190613df7565b60405180910390a1505b505050505b8061260381614261565b9150506123a8565b506046546001600160a01b0316801561268757604660009054906101000a90046001600160a01b03166001600160a01b0316638119c0656040518163ffffffff1660e01b8152600401600060405180830381600087803b15801561266e57600080fd5b505af1158015612682573d6000803e3d6000fd5b505050505b5050505050565b603754600160a01b900460ff16156126da5760405162461bcd60e51b815260206004820152600f60248201526e149958985cda5b99c81c185d5cd959608a1b60448201526064016108d0565b6000604060009054906101000a90046001600160a01b03166001600160a01b03166318160ddd6040518163ffffffff1660e01b815260040160206040518083038186803b15801561272a57600080fd5b505afa15801561273e573d6000803e3d6000fd5b505050506040513d601f19601f820116820180604052508101906127629190613d51565b90506127996040518060400160405280601381526020017202a37ba30b61021a0a9a41029bab838363c9d1606d1b815250826133e8565b806127a15750565b60006127ab612cba565b90506127e26040518060400160405280601381526020017202a37ba30b6102b30bab63a102b30b63ab29d1606d1b815250826133e8565b60465460408051808201909152601181527002a393ab9ba32b29020b2323932b9b99d1607d1b60208201526001600160a01b039091169061282390826139af565b6001600160a01b0381161580159061283a57508282115b15612a5857612874604051806040016040528060148152602001732cb4b2b632103332b29031b7b63632b1ba34b7b760611b8152506139f4565b600061288083856134be565b90506128ab6040518060400160405280600781526020016602cb4b2b6321d160cd1b815250826133e8565b60006128c861271061236a6047548561393b90919063ffffffff16565b90506128f16040518060400160405280600581526020016402332b29d160dd1b815250826133e8565b80821161294b5760405162461bcd60e51b815260206004820152602260248201527f466565206d757374206e6f742062652067726561746572207468616e207969656044820152611b1960f21b60648201526084016108d0565b8015612a0b576129a660405180604001604052806015815260200174026b4b73a34b7339021a0a9a4103337b9103332b29605d1b81525082604051806040016040528060048152602001630103a37960e51b8152508661342d565b6040805490516340c10f1960e01b81526001600160a01b03909116906340c10f19906129d89086908590600401613e4f565b600060405180830381600087803b1580156129f257600080fd5b505af1158015612a06573d6000803e3d6000fd5b505050505b604080516001600160a01b0385168152602081018490529081018290527f09516ecf4a8a86e59780a9befc6dee948bc9e60a36e3be68d31ea817ee8d2c809060600160405180910390a150505b6040805481516318160ddd60e01b815291516001600160a01b03909116916318160ddd916004808301926020929190829003018186803b158015612a9b57600080fd5b505afa158015612aaf573d6000803e3d6000fd5b505050506040513d601f19601f82011682018060405250810190612ad39190613d51565b92508282111561147457612aff6040518060800160405280604e81526020016143b3604e9139836133e8565b6040805490516339a7919f60e01b8152600481018490526001600160a01b03909116906339a7919f90602401600060405180830381600087803b158015612b4557600080fd5b505af1158015612b59573d6000803e3d6000fd5b50505050505050565b6049546040516370a0823160e01b81523060048201526000916001600160a01b03169081906370a082319060240160206040518083038186803b158015612ba857600080fd5b505afa158015612bbc573d6000803e3d6000fd5b505050506040513d601f19601f82011682018060405250810190612be09190613d51565b915060005b603654811015612cb557600060368281548110612c0457612c046142f2565b9060005260206000200160009054906101000a90046001600160a01b03169050612c9f816001600160a01b031663c71daccb6040518163ffffffff1660e01b815260040160206040518083038186803b158015612c6057600080fd5b505afa158015612c74573d6000803e3d6000fd5b505050506040513d601f19601f82011682018060405250810190612c989190613d51565b859061392f565b9350508080612cad90614261565b915050612be5565b505090565b60006108a1612cc76138da565b612ccf6137b5565b9061392f565b6037546049546040516315d5220f60e31b81526001600160a01b039182166004820152600092839283929116908290612d7090601290600890859063aea910789060240160206040518083038186803b158015612d3157600080fd5b505afa158015612d45573d6000803e3d6000fd5b505050506040513d601f19601f82011682018060405250810190612d699190613d51565b9190612f71565b90506000612d7c612b62565b604954909150600090612d97906001600160a01b0316612e82565b90506000806000603a541180612daf57506000603c54115b15612dde57612dcf61271061236a6038548d61393b90919063ffffffff16565b9050612ddb8a826134be565b99505b612df4612ded85601286612f71565b839061392f565b9150670de0b6b3a7640000851015612e1257670de0b6b3a764000094505b6000612e2e8361236a88612e288960128a612f71565b9061393b565b90506000612e3c8c83613495565b9050612e4c8461236a888461393b565b84612e6d612e5b88601261421e565b612e6690600a614157565b8690613947565b9a509a509a5050505050505050509193909250565b600080826001600160a01b031663313ce5676040518163ffffffff1660e01b815260040160206040518083038186803b158015612ebe57600080fd5b505afa158015612ed2573d6000803e3d6000fd5b505050506040513d601f19601f82011682018060405250810190612ef69190613d8c565b60ff16905060048110158015612f0d575060128111155b612f6b5760405162461bcd60e51b815260206004820152602960248201527f546f6b656e206d75737420686176652073756666696369656e7420646563696d604482015268616c20706c6163657360b81b60648201526084016108d0565b92915050565b600081831115612fa157612f9a612f88838561421e565b612f9390600a614157565b859061393b565b9350612fcb565b81831015612fcb57612fc8612fb6848461421e565b612fc190600a614157565b8590613947565b93505b50825b9392505050565b600080612fe2858561393b565b9050612fee8184613947565b95945050505050565b612394846323b872dd60e01b85858560405160240161301893929190613df7565b60408051601f198184030181529190526020810180516001600160e01b03166001600160e01b031990931692909217909152613a37565b61147483838360405160240161306793929190613ef2565b60408051601f198184030181529190526020810180516001600160e01b03166307e763af60e51b179052613b09565b60408051808201909152601981527842616c616e6365725661756c743a207377617070696e67203160381b60208201526051546000916130de916001600160a01b03166139af565b604080518082018252601981527842616c616e6365725661756c743a207377617070696e67203160381b602082015290516370a0823160e01b815230600482015261318f919089906001600160a01b038216906370a082319060240160206040518083038186803b15801561315257600080fd5b505afa158015613166573d6000803e3d6000fd5b505050506040513d601f19601f8201168201806040525081019061318a9190613d51565b6134ca565b6051546040516370a0823160e01b81523060048201526001600160a01b038981169263095ea7b39291169083906370a082319060240160206040518083038186803b1580156131dd57600080fd5b505afa1580156131f1573d6000803e3d6000fd5b505050506040513d601f19601f820116820180604052508101906132159190613d51565b6040518363ffffffff1660e01b8152600401613232929190613e4f565b602060405180830381600087803b15801561324c57600080fd5b505af1158015613260573d6000803e3d6000fd5b505050506040513d601f19601f820116820180604052508101906132849190613d16565b506132d16040805160c0810190915260008082526020820190815260200160006001600160a01b0316815260200160006001600160a01b0316815260200160008152602001606081525090565b898152602081018960018111156132ea576132ea6142dc565b908160018111156132fd576132fd6142dc565b9052506001600160a01b03888116604083810191909152888216606080850191909152608080850188905282519081018352600060208201819052918101919091528883168152878316918101919091526051549091166352bbbe29838387613368426102586140e8565b6040518563ffffffff1660e01b8152600401613387949392919061400a565b602060405180830381600087803b1580156133a157600080fd5b505af11580156133b5573d6000803e3d6000fd5b505050506040513d601f19601f820116820180604052508101906133d99190613d51565b9b9a5050505050505050505050565b61147682826040516024016133fe929190613f53565b60408051601f198184030181529190526020810180516001600160e01b03166309710a9d60e41b179052613b09565b612394848484846040516024016134479493929190613f75565b60408051601f198184030181529190526020810180516001600160e01b031663bb7235e960e01b179052613b09565b6114748363a9059cbb60e01b8484604051602401613018929190613e4f565b6000806134aa84670de0b6b3a764000061393b565b90506134b68184613947565b949350505050565b6000612fce828461421e565b6114748383836040516024016134e293929190613f25565b60408051601f198184030181529190526020810180516001600160e01b03166307c8121760e01b179052613b09565b6000811161356c5760405162461bcd60e51b815260206004820152602260248201527f416d6f756e742073686f756c642062652067726561746572207468616e207a65604482015261726f60f01b60648201526084016108d0565b61359f604051806040016040528060118152602001702234b9ba3934b13aba34b733903332b29d60791b815250826133e8565b60006135b961271061236a603a54600a612f9391906141ff565b90506135ea6040518060400160405280600b81526020016a3630b139a332b2a138399d60a91b815250603a546133e8565b61361e6040518060400160405280601281526020017129b2b73234b733903630b139903332b2b99d60711b815250826133e8565b600061363f61271061236a603c54600a61363891906141ff565b869061393b565b90506136706040518060400160405280600b81526020016a3a32b0b6a332b2a138399d60a91b815250603c546133e8565b6136a46040518060400160405280601281526020017129b2b73234b733903a32b0b6903332b2b99d60711b815250826133e8565b60495460395460405163a9059cbb60e01b81526001600160a01b039283169263a9059cbb926136da929116908690600401613e4f565b602060405180830381600087803b1580156136f457600080fd5b505af1158015613708573d6000803e3d6000fd5b505050506040513d601f19601f8201168201806040525081019061372c9190613d16565b50604954603b5460405163a9059cbb60e01b81526001600160a01b039283169263a9059cbb92613763929116908590600401613e4f565b602060405180830381600087803b15801561377d57600080fd5b505af1158015613791573d6000803e3d6000fd5b505050506040513d601f19601f820116820180604052508101906123949190613d16565b6000805b6034548110156138d6576000603482815481106137d8576137d86142f2565b6000918252602082200154603480546001600160a01b0390921693506138229185908110613808576138086142f2565b6000918252602090912001546001600160a01b0316612e82565b6040516370a0823160e01b81523060048201529091506000906001600160a01b038416906370a082319060240160206040518083038186803b15801561386757600080fd5b505afa15801561387b573d6000803e3d6000fd5b505050506040513d601f19601f8201168201806040525081019061389f9190613d51565b905080156138c0576138bd6138b682601285612f71565b869061392f565b94505b50505080806138ce90614261565b9150506137b9565b5090565b6000805b6036548110156138d65761391b612ded60368381548110613901576139016142f2565b6000918252602090912001546001600160a01b0316613b2a565b91508061392781614261565b9150506138de565b6000612fce82846140e8565b6000612fce82846141ff565b6000612fce8284614100565b61147483838360405160240161396b93929190613e1b565b60408051601f198184030181529190526020810180516001600160e01b0316630e6d794560e11b179052613b09565b6000612fce8383670de0b6b3a7640000612fd5565b61147682826040516024016139c5929190613ec8565b60408051601f198184030181529190526020810180516001600160e01b031663319af33360e01b179052613b09565b6117c981604051602401613a089190613eb5565b60408051601f198184030181529190526020810180516001600160e01b031663104c13eb60e21b179052613b09565b6000613a8c826040518060400160405280602081526020017f5361666545524332303a206c6f772d6c6576656c2063616c6c206661696c6564815250856001600160a01b0316613ba19092919063ffffffff16565b8051909150156114745780806020019051810190613aaa9190613d16565b6114745760405162461bcd60e51b815260206004820152602a60248201527f5361666545524332303a204552433230206f7065726174696f6e20646964206e6044820152691bdd081cdd58d8d9595960b21b60648201526084016108d0565b80516a636f6e736f6c652e6c6f67602083016000808483855afa5050505050565b600080829050806001600160a01b031663c71daccb6040518163ffffffff1660e01b815260040160206040518083038186803b158015613b6957600080fd5b505afa158015613b7d573d6000803e3d6000fd5b505050506040513d601f19601f82011682018060405250810190612fce9190613d51565b60606134b6848460008585843b613bfa5760405162461bcd60e51b815260206004820152601d60248201527f416464726573733a2063616c6c20746f206e6f6e2d636f6e747261637400000060448201526064016108d0565b600080866001600160a01b03168587604051613c169190613ddb565b60006040518083038185875af1925050503d8060008114613c53576040519150601f19603f3d011682016040523d82523d6000602084013e613c58565b606091505b5091509150613c68828286613c73565b979650505050505050565b60608315613c82575081612fce565b825115613c925782518084602001fd5b8160405162461bcd60e51b81526004016108d09190613eb5565b80356001600160a01b0381168114613cc357600080fd5b919050565b600060208284031215613cda57600080fd5b612fce82613cac565b600080600060608486031215613cf857600080fd5b613d0184613cac565b95602085013595506040909401359392505050565b600060208284031215613d2857600080fd5b81518015158114612fce57600080fd5b600060208284031215613d4a57600080fd5b5035919050565b600060208284031215613d6357600080fd5b5051919050565b60008060408385031215613d7d57600080fd5b50508035926020909101359150565b600060208284031215613d9e57600080fd5b815160ff81168114612fce57600080fd5b60008151808452613dc7816020860160208601614235565b601f01601f19169290920160200192915050565b60008251613ded818460208701614235565b9190910192915050565b6001600160a01b039384168152919092166020820152604081019190915260600190565b6001600160a01b0384168152606060208201819052600090613e3f90830185613daf565b9050826040830152949350505050565b6001600160a01b03929092168252602082015260400190565b6020808252825182820181905260009190848201906040850190845b81811015613ea95783516001600160a01b031683529284019291840191600101613e84565b50909695505050505050565b602081526000612fce6020830184613daf565b604081526000613edb6040830185613daf565b905060018060a01b03831660208301529392505050565b606081526000613f056060830186613daf565b6001600160a01b0394851660208401529290931660409091015292915050565b606081526000613f386060830186613daf565b6001600160a01b039490941660208301525060400152919050565b604081526000613f666040830185613daf565b90508260208301529392505050565b608081526000613f886080830187613daf565b8560208401528281036040840152613fa08186613daf565b91505060018060a01b038316606083015295945050505050565b6020808252600e908201526d10d85c1a5d185b081c185d5cd95960921b604082015260600190565b6020808252600e908201526d1499595b9d1c985b9d0818d85b1b60921b604082015260600190565b60e08152845160e0820152600060208601516002811061403a57634e487b7160e01b600052602160045260246000fd5b61010083015260408601516001600160a01b0316610120830152606086015161406f6101408401826001600160a01b03169052565b50608086015161016083015260a086015160c06101808401526140966101a0840182613daf565b9150506140d6602083018680516001600160a01b039081168352602080830151151590840152604080830151909116908301526060908101511515910152565b60a082019390935260c0015292915050565b600082198211156140fb576140fb6142b0565b500190565b60008261410f5761410f6142c6565b500490565b600181815b8085111561414f578160001904821115614135576141356142b0565b8085161561414257918102915b93841c9390800290614119565b509250929050565b6000612fce838360008261416d57506001612f6b565b8161417a57506000612f6b565b8160018114614190576002811461419a576141b6565b6001915050612f6b565b60ff8411156141ab576141ab6142b0565b50506001821b612f6b565b5060208310610133831016604e8410600b84101617156141d9575081810a612f6b565b6141e38383614114565b80600019048211156141f7576141f76142b0565b029392505050565b6000816000190483118215151615614219576142196142b0565b500290565b600082821015614230576142306142b0565b500390565b60005b83811015614250578181015183820152602001614238565b838111156123945750506000910152565b6000600019821415614275576142756142b0565b5060010190565b600060ff821660ff811415614293576142936142b0565b60010192915050565b6000826142ab576142ab6142c6565b500690565b634e487b7160e01b600052601160045260246000fd5b634e487b7160e01b600052601260045260246000fd5b634e487b7160e01b600052602160045260246000fd5b634e487b7160e01b600052603260045260246000fd5b634e487b7160e01b600052604160045260246000fdfe5661756c74436f7265202d2052656465656d202d2057697468647261772066726f6d2073747261746567793a2048a06827bfe8bfc0a59fe65d0fa78f553938265ed1f971326fc09947d19a593c83f34c88ec39d54d1e423bd8a181ebc59ede5dcc9996c2df334668b4f89fdd73717569636b416c6c6f63617465202d20207072696d617279537461626c6542616c616e63653a205374696c6c207661756c742076616c75652067726561746572207468616e20737570706c792c206368616e67696e6720737570706c79206f66204341534820666f72207661756c7456616c756520a26469706673582212204fd3bc3ec983ec8ccf72066cdd9c71b2d48a5d7b6c67907e24decf2d63fca30a64736f6c6343000806003383f34c88ec39d54d1e423bd8a181ebc59ede5dcc9996c2df334668b4f89fdd73",
  "devdoc": {
    "kind": "dev",
    "methods": {
      "allocate()": {
        "details": "Allocate unallocated funds on Vault to strategies.*"
      },
      "checkBalance()": {
        "returns": {
          "_0": "uint256 Balance of asset in decimals of asset"
        }
      },
      "claimGovernance()": {
        "details": "Claim Governance of the contract to a new account (`newGovernor`). Can only be called by the new Governor."
      },
      "getAllAssets()": {
        "details": "Return all asset addresses in order"
      },
      "getAllStrategies()": {
        "details": "Return the array of all strategies"
      },
      "getAssetCount()": {
        "details": "Return the number of assets supported by the Vault."
      },
      "getStrategyCount()": {
        "details": "Return the number of strategies active on the Vault."
      },
      "governor()": {
        "details": "Returns the address of the current Governor."
      },
      "isGovernor()": {
        "details": "Returns true if the caller is the current Governor."
      },
      "mint(address,uint256,uint256)": {
        "details": "Deposit a supported asset and mint CASH.",
        "params": {
          "_amount": "Amount of the asset being deposited",
          "_asset": "Address of the asset being deposited",
          "_minimumCASHAmount": "Minimum CASH to mint"
        }
      },
      "quickAllocate()": {
        "details": "Allocate unallocated funds on Vault to quick deposit strategies.*"
      },
      "rebase()": {
        "details": "Calculate the total value of assets held by the Vault and all      strategies and update the supply of CASH."
      },
      "redeem(uint256,uint256)": {
        "details": "Withdraw a supported asset and burn CASH.",
        "params": {
          "_amount": "Amount of CASH to burn",
          "_minimumUnitAmount": "Minimum stablecoin units to receive in return"
        }
      },
      "redeemAll(uint256)": {
        "params": {
          "_minimumUnitAmount": "Minimum stablecoin units to receive in return"
        }
      },
      "setAdminImpl(address)": {
        "details": "set the implementation for the admin, this needs to be in a base class else we cannot set it",
        "params": {
          "newImpl": "address of the implementation"
        }
      },
      "totalValue()": {
        "details": "Determine the total value of assets held by the vault and its         strategies.",
        "returns": {
          "value": "Total value in USD (1e18)"
        }
      },
      "transferGovernance(address)": {
        "details": "Transfers Governance of the contract to a new account (`newGovernor`). Can only be called by the current Governor. Must be claimed for this to complete",
        "params": {
          "_newGovernor": "Address of the new Governor"
        }
      }
    },
    "version": 1
  },
  "userdoc": {
    "kind": "user",
    "methods": {
      "allocate()": {
        "notice": "Allocate unallocated funds on Vault to strategies."
      },
      "calculateRedeemOutput(uint256)": {
        "notice": "Calculate the output for a redeem function"
      },
      "checkBalance()": {
        "notice": "Get the balance of an asset held in Vault and all strategies."
      },
      "quickAllocate()": {
        "notice": "Allocate unallocated funds on Vault to quick deposit strategies."
      },
      "redeemAll(uint256)": {
        "notice": "Withdraw a supported asset and burn all CASH."
      }
    },
    "version": 1
  },
  "storageLayout": {
    "storage": [
      {
        "astId": 29936,
        "contract": "contracts/vault/VaultCore.sol:VaultCore",
        "label": "initialized",
        "offset": 0,
        "slot": "0",
        "type": "t_bool"
      },
      {
        "astId": 29939,
        "contract": "contracts/vault/VaultCore.sol:VaultCore",
        "label": "initializing",
        "offset": 1,
        "slot": "0",
        "type": "t_bool"
      },
      {
        "astId": 29979,
        "contract": "contracts/vault/VaultCore.sol:VaultCore",
        "label": "______gap",
        "offset": 0,
        "slot": "1",
        "type": "t_array(t_uint256)50_storage"
      },
      {
        "astId": 35717,
        "contract": "contracts/vault/VaultCore.sol:VaultCore",
        "label": "assets",
        "offset": 0,
        "slot": "51",
        "type": "t_mapping(t_address,t_struct(Asset)35712_storage)"
      },
      {
        "astId": 35720,
        "contract": "contracts/vault/VaultCore.sol:VaultCore",
        "label": "allAssets",
        "offset": 0,
        "slot": "52",
        "type": "t_array(t_address)dyn_storage"
      },
      {
        "astId": 35730,
        "contract": "contracts/vault/VaultCore.sol:VaultCore",
        "label": "strategies",
        "offset": 0,
        "slot": "53",
        "type": "t_mapping(t_address,t_struct(Strategy)35725_storage)"
      },
      {
        "astId": 35733,
        "contract": "contracts/vault/VaultCore.sol:VaultCore",
        "label": "allStrategies",
        "offset": 0,
        "slot": "54",
        "type": "t_array(t_address)dyn_storage"
      },
      {
        "astId": 35735,
        "contract": "contracts/vault/VaultCore.sol:VaultCore",
        "label": "priceProvider",
        "offset": 0,
        "slot": "55",
        "type": "t_address"
      },
      {
        "astId": 35738,
        "contract": "contracts/vault/VaultCore.sol:VaultCore",
        "label": "rebasePaused",
        "offset": 20,
        "slot": "55",
        "type": "t_bool"
      },
      {
        "astId": 35741,
        "contract": "contracts/vault/VaultCore.sol:VaultCore",
        "label": "capitalPaused",
        "offset": 21,
        "slot": "55",
        "type": "t_bool"
      },
      {
        "astId": 35743,
        "contract": "contracts/vault/VaultCore.sol:VaultCore",
        "label": "redeemFeeBps",
        "offset": 0,
        "slot": "56",
        "type": "t_uint256"
      },
      {
        "astId": 35745,
        "contract": "contracts/vault/VaultCore.sol:VaultCore",
        "label": "labsAddress",
        "offset": 0,
        "slot": "57",
        "type": "t_address"
      },
      {
        "astId": 35747,
        "contract": "contracts/vault/VaultCore.sol:VaultCore",
        "label": "labsFeeBps",
        "offset": 0,
        "slot": "58",
        "type": "t_uint256"
      },
      {
        "astId": 35749,
        "contract": "contracts/vault/VaultCore.sol:VaultCore",
        "label": "teamAddress",
        "offset": 0,
        "slot": "59",
        "type": "t_address"
      },
      {
        "astId": 35751,
        "contract": "contracts/vault/VaultCore.sol:VaultCore",
        "label": "teamFeeBps",
        "offset": 0,
        "slot": "60",
        "type": "t_uint256"
      },
      {
        "astId": 35753,
        "contract": "contracts/vault/VaultCore.sol:VaultCore",
        "label": "vaultBuffer",
        "offset": 0,
        "slot": "61",
        "type": "t_uint256"
      },
      {
        "astId": 35755,
        "contract": "contracts/vault/VaultCore.sol:VaultCore",
        "label": "autoAllocateThreshold",
        "offset": 0,
        "slot": "62",
        "type": "t_uint256"
      },
      {
        "astId": 35757,
        "contract": "contracts/vault/VaultCore.sol:VaultCore",
        "label": "rebaseThreshold",
        "offset": 0,
        "slot": "63",
        "type": "t_uint256"
      },
      {
        "astId": 35760,
        "contract": "contracts/vault/VaultCore.sol:VaultCore",
        "label": "cash",
        "offset": 0,
        "slot": "64",
        "type": "t_contract(CASH)29225"
      },
      {
        "astId": 35769,
        "contract": "contracts/vault/VaultCore.sol:VaultCore",
        "label": "_deprecated_rebaseHooksAddr",
        "offset": 0,
        "slot": "65",
        "type": "t_address"
      },
      {
        "astId": 35775,
        "contract": "contracts/vault/VaultCore.sol:VaultCore",
        "label": "_deprecated_uniswapAddr",
        "offset": 0,
        "slot": "66",
        "type": "t_address"
      },
      {
        "astId": 35781,
        "contract": "contracts/vault/VaultCore.sol:VaultCore",
        "label": "strategistAddr",
        "offset": 0,
        "slot": "67",
        "type": "t_address"
      },
      {
        "astId": 35785,
        "contract": "contracts/vault/VaultCore.sol:VaultCore",
        "label": "assetDefaultStrategies",
        "offset": 0,
        "slot": "68",
        "type": "t_mapping(t_address,t_address)"
      },
      {
        "astId": 35787,
        "contract": "contracts/vault/VaultCore.sol:VaultCore",
        "label": "maxSupplyDiff",
        "offset": 0,
        "slot": "69",
        "type": "t_uint256"
      },
      {
        "astId": 35789,
        "contract": "contracts/vault/VaultCore.sol:VaultCore",
        "label": "trusteeAddress",
        "offset": 0,
        "slot": "70",
        "type": "t_address"
      },
      {
        "astId": 35791,
        "contract": "contracts/vault/VaultCore.sol:VaultCore",
        "label": "trusteeFeeBps",
        "offset": 0,
        "slot": "71",
        "type": "t_uint256"
      },
      {
        "astId": 35794,
        "contract": "contracts/vault/VaultCore.sol:VaultCore",
        "label": "_deprecated_swapTokens",
        "offset": 0,
        "slot": "72",
        "type": "t_array(t_address)dyn_storage"
      },
      {
        "astId": 35799,
        "contract": "contracts/vault/VaultCore.sol:VaultCore",
        "label": "primaryStableAddress",
        "offset": 0,
        "slot": "73",
        "type": "t_address"
      },
      {
        "astId": 35802,
        "contract": "contracts/vault/VaultCore.sol:VaultCore",
        "label": "quickDepositStrategies",
        "offset": 0,
        "slot": "74",
        "type": "t_array(t_address)dyn_storage"
      },
      {
        "astId": 35804,
        "contract": "contracts/vault/VaultCore.sol:VaultCore",
        "label": "balancerVault",
        "offset": 0,
        "slot": "75",
        "type": "t_address"
      },
      {
        "astId": 35806,
        "contract": "contracts/vault/VaultCore.sol:VaultCore",
        "label": "balancerPoolId",
        "offset": 0,
        "slot": "76",
        "type": "t_bytes32"
      },
      {
        "astId": 35808,
        "contract": "contracts/vault/VaultCore.sol:VaultCore",
        "label": "harvesterAddress",
        "offset": 0,
        "slot": "77",
        "type": "t_address"
      },
      {
        "astId": 35810,
        "contract": "contracts/vault/VaultCore.sol:VaultCore",
        "label": "dripperAddress",
        "offset": 0,
        "slot": "78",
        "type": "t_address"
      },
      {
        "astId": 35827,
        "contract": "contracts/vault/VaultCore.sol:VaultCore",
        "label": "strategyWithWeightPositions",
        "offset": 0,
        "slot": "79",
        "type": "t_mapping(t_address,t_uint256)"
      },
      {
        "astId": 35831,
        "contract": "contracts/vault/VaultCore.sol:VaultCore",
        "label": "strategyWithWeights",
        "offset": 0,
        "slot": "80",
        "type": "t_array(t_struct(StrategyWithWeight)35823_storage)dyn_storage"
      },
      {
        "astId": 6121,
        "contract": "contracts/vault/VaultCore.sol:VaultCore",
        "label": "balancerVault",
        "offset": 0,
        "slot": "81",
        "type": "t_contract(IVault)11696"
      },
      {
        "astId": 7164,
        "contract": "contracts/vault/VaultCore.sol:VaultCore",
        "label": "__gap",
        "offset": 0,
        "slot": "82",
        "type": "t_array(t_uint256)49_storage"
      }
    ],
    "types": {
      "t_address": {
        "encoding": "inplace",
        "label": "address",
        "numberOfBytes": "20"
      },
      "t_array(t_address)dyn_storage": {
        "base": "t_address",
        "encoding": "dynamic_array",
        "label": "address[]",
        "numberOfBytes": "32"
      },
      "t_array(t_struct(StrategyWithWeight)35823_storage)dyn_storage": {
        "base": "t_struct(StrategyWithWeight)35823_storage",
        "encoding": "dynamic_array",
        "label": "struct VaultStorage.StrategyWithWeight[]",
        "numberOfBytes": "32"
      },
      "t_array(t_uint256)49_storage": {
        "base": "t_uint256",
        "encoding": "inplace",
        "label": "uint256[49]",
        "numberOfBytes": "1568"
      },
      "t_array(t_uint256)50_storage": {
        "base": "t_uint256",
        "encoding": "inplace",
        "label": "uint256[50]",
        "numberOfBytes": "1600"
      },
      "t_bool": {
        "encoding": "inplace",
        "label": "bool",
        "numberOfBytes": "1"
      },
      "t_bytes32": {
        "encoding": "inplace",
        "label": "bytes32",
        "numberOfBytes": "32"
      },
      "t_contract(CASH)29225": {
        "encoding": "inplace",
        "label": "contract CASH",
        "numberOfBytes": "20"
      },
      "t_contract(IVault)11696": {
        "encoding": "inplace",
        "label": "contract IVault",
        "numberOfBytes": "20"
      },
      "t_mapping(t_address,t_address)": {
        "encoding": "mapping",
        "key": "t_address",
        "label": "mapping(address => address)",
        "numberOfBytes": "32",
        "value": "t_address"
      },
      "t_mapping(t_address,t_struct(Asset)35712_storage)": {
        "encoding": "mapping",
        "key": "t_address",
        "label": "mapping(address => struct VaultStorage.Asset)",
        "numberOfBytes": "32",
        "value": "t_struct(Asset)35712_storage"
      },
      "t_mapping(t_address,t_struct(Strategy)35725_storage)": {
        "encoding": "mapping",
        "key": "t_address",
        "label": "mapping(address => struct VaultStorage.Strategy)",
        "numberOfBytes": "32",
        "value": "t_struct(Strategy)35725_storage"
      },
      "t_mapping(t_address,t_uint256)": {
        "encoding": "mapping",
        "key": "t_address",
        "label": "mapping(address => uint256)",
        "numberOfBytes": "32",
        "value": "t_uint256"
      },
      "t_struct(Asset)35712_storage": {
        "encoding": "inplace",
        "label": "struct VaultStorage.Asset",
        "members": [
          {
            "astId": 35711,
            "contract": "contracts/vault/VaultCore.sol:VaultCore",
            "label": "isSupported",
            "offset": 0,
            "slot": "0",
            "type": "t_bool"
          }
        ],
        "numberOfBytes": "32"
      },
      "t_struct(Strategy)35725_storage": {
        "encoding": "inplace",
        "label": "struct VaultStorage.Strategy",
        "members": [
          {
            "astId": 35722,
            "contract": "contracts/vault/VaultCore.sol:VaultCore",
            "label": "isSupported",
            "offset": 0,
            "slot": "0",
            "type": "t_bool"
          },
          {
            "astId": 35724,
            "contract": "contracts/vault/VaultCore.sol:VaultCore",
            "label": "_deprecated",
            "offset": 0,
            "slot": "1",
            "type": "t_uint256"
          }
        ],
        "numberOfBytes": "64"
      },
      "t_struct(StrategyWithWeight)35823_storage": {
        "encoding": "inplace",
        "label": "struct VaultStorage.StrategyWithWeight",
        "members": [
          {
            "astId": 35812,
            "contract": "contracts/vault/VaultCore.sol:VaultCore",
            "label": "strategy",
            "offset": 0,
            "slot": "0",
            "type": "t_address"
          },
          {
            "astId": 35814,
            "contract": "contracts/vault/VaultCore.sol:VaultCore",
            "label": "minWeight",
            "offset": 0,
            "slot": "1",
            "type": "t_uint256"
          },
          {
            "astId": 35816,
            "contract": "contracts/vault/VaultCore.sol:VaultCore",
            "label": "targetWeight",
            "offset": 0,
            "slot": "2",
            "type": "t_uint256"
          },
          {
            "astId": 35818,
            "contract": "contracts/vault/VaultCore.sol:VaultCore",
            "label": "maxWeight",
            "offset": 0,
            "slot": "3",
            "type": "t_uint256"
          },
          {
            "astId": 35820,
            "contract": "contracts/vault/VaultCore.sol:VaultCore",
            "label": "enabled",
            "offset": 0,
            "slot": "4",
            "type": "t_bool"
          },
          {
            "astId": 35822,
            "contract": "contracts/vault/VaultCore.sol:VaultCore",
            "label": "enabledReward",
            "offset": 1,
            "slot": "4",
            "type": "t_bool"
          }
        ],
        "numberOfBytes": "160"
      },
      "t_uint256": {
        "encoding": "inplace",
        "label": "uint256",
        "numberOfBytes": "32"
      }
    }
  }
}