{
  "address": "0xBA31f64F1DFC81771023bDB1D4b4f613De5c8Db5",
  "abi": [
    {
      "anonymous": false,
      "inputs": [
        {
          "indexed": false,
          "internalType": "uint256",
          "name": "_threshold",
          "type": "uint256"
        }
      ],
      "name": "AllocateThresholdUpdated",
      "type": "event"
    },
    {
      "anonymous": false,
      "inputs": [
        {
          "indexed": false,
          "internalType": "address",
          "name": "_asset",
          "type": "address"
        },
        {
          "indexed": false,
          "internalType": "address",
          "name": "_strategy",
          "type": "address"
        },
        {
          "indexed": false,
          "internalType": "uint256",
          "name": "_amount",
          "type": "uint256"
        }
      ],
      "name": "AssetAllocated",
      "type": "event"
    },
    {
      "anonymous": false,
      "inputs": [
        {
          "indexed": false,
          "internalType": "address",
          "name": "_asset",
          "type": "address"
        },
        {
          "indexed": false,
          "internalType": "address",
          "name": "_strategy",
          "type": "address"
        }
      ],
      "name": "AssetDefaultStrategyUpdated",
      "type": "event"
    },
    {
      "anonymous": false,
      "inputs": [
        {
          "indexed": false,
          "internalType": "address",
          "name": "_asset",
          "type": "address"
        }
      ],
      "name": "AssetSupported",
      "type": "event"
    },
    {
      "anonymous": false,
      "inputs": [],
      "name": "CapitalPaused",
      "type": "event"
    },
    {
      "anonymous": false,
      "inputs": [],
      "name": "CapitalUnpaused",
      "type": "event"
    },
    {
      "anonymous": false,
      "inputs": [
        {
          "indexed": true,
          "internalType": "address",
          "name": "previousGovernor",
          "type": "address"
        },
        {
          "indexed": true,
          "internalType": "address",
          "name": "newGovernor",
          "type": "address"
        }
      ],
      "name": "GovernorshipTransferred",
      "type": "event"
    },
    {
      "anonymous": false,
      "inputs": [
        {
          "indexed": false,
          "internalType": "uint256",
          "name": "maxSupplyDiff",
          "type": "uint256"
        }
      ],
      "name": "MaxSupplyDiffChanged",
      "type": "event"
    },
    {
      "anonymous": false,
      "inputs": [
        {
          "indexed": false,
          "internalType": "address",
          "name": "_addr",
          "type": "address"
        },
        {
          "indexed": false,
          "internalType": "uint256",
          "name": "_value",
          "type": "uint256"
        }
      ],
      "name": "Mint",
      "type": "event"
    },
    {
      "anonymous": false,
      "inputs": [
        {
          "indexed": true,
          "internalType": "address",
          "name": "previousGovernor",
          "type": "address"
        },
        {
          "indexed": true,
          "internalType": "address",
          "name": "newGovernor",
          "type": "address"
        }
      ],
      "name": "PendingGovernorshipTransfer",
      "type": "event"
    },
    {
      "anonymous": false,
      "inputs": [
        {
          "indexed": false,
          "internalType": "address",
          "name": "_priceProvider",
          "type": "address"
        }
      ],
      "name": "PriceProviderUpdated",
      "type": "event"
    },
    {
      "anonymous": false,
      "inputs": [],
      "name": "RebasePaused",
      "type": "event"
    },
    {
      "anonymous": false,
      "inputs": [
        {
          "indexed": false,
          "internalType": "uint256",
          "name": "_threshold",
          "type": "uint256"
        }
      ],
      "name": "RebaseThresholdUpdated",
      "type": "event"
    },
    {
      "anonymous": false,
      "inputs": [],
      "name": "RebaseUnpaused",
      "type": "event"
    },
    {
      "anonymous": false,
      "inputs": [
        {
          "indexed": false,
          "internalType": "address",
          "name": "_addr",
          "type": "address"
        },
        {
          "indexed": false,
          "internalType": "uint256",
          "name": "_value",
          "type": "uint256"
        }
      ],
      "name": "Redeem",
      "type": "event"
    },
    {
      "anonymous": false,
      "inputs": [
        {
          "indexed": false,
          "internalType": "uint256",
          "name": "_redeemFeeBps",
          "type": "uint256"
        }
      ],
      "name": "RedeemFeeUpdated",
      "type": "event"
    },
    {
      "anonymous": false,
      "inputs": [
        {
          "indexed": false,
          "internalType": "address",
          "name": "_address",
          "type": "address"
        }
      ],
      "name": "StrategistUpdated",
      "type": "event"
    },
    {
      "anonymous": false,
      "inputs": [
        {
          "indexed": false,
          "internalType": "address",
          "name": "_addr",
          "type": "address"
        }
      ],
      "name": "StrategyApproved",
      "type": "event"
    },
    {
      "anonymous": false,
      "inputs": [
        {
          "indexed": false,
          "internalType": "address",
          "name": "_addr",
          "type": "address"
        }
      ],
      "name": "StrategyRemoved",
      "type": "event"
    },
    {
      "anonymous": false,
      "inputs": [
        {
          "indexed": false,
          "internalType": "address",
          "name": "_address",
          "type": "address"
        }
      ],
      "name": "TrusteeAddressChanged",
      "type": "event"
    },
    {
      "anonymous": false,
      "inputs": [
        {
          "indexed": false,
          "internalType": "uint256",
          "name": "_basis",
          "type": "uint256"
        }
      ],
      "name": "TrusteeFeeBpsChanged",
      "type": "event"
    },
    {
      "anonymous": false,
      "inputs": [
        {
          "indexed": false,
          "internalType": "uint256",
          "name": "_vaultBuffer",
          "type": "uint256"
        }
      ],
      "name": "VaultBufferUpdated",
      "type": "event"
    },
    {
      "anonymous": false,
      "inputs": [
        {
          "indexed": false,
          "internalType": "address",
          "name": "_to",
          "type": "address"
        },
        {
          "indexed": false,
          "internalType": "uint256",
          "name": "_yield",
          "type": "uint256"
        },
        {
          "indexed": false,
          "internalType": "uint256",
          "name": "_fee",
          "type": "uint256"
        }
      ],
      "name": "YieldDistribution",
      "type": "event"
    },
    {
      "inputs": [],
      "name": "TOTAL_WEIGHT",
      "outputs": [
        {
          "internalType": "uint256",
          "name": "",
          "type": "uint256"
        }
      ],
      "stateMutability": "view",
      "type": "function"
    },
    {
      "inputs": [
        {
          "internalType": "address",
          "name": "_addr",
          "type": "address"
        }
      ],
      "name": "approveStrategy",
      "outputs": [],
      "stateMutability": "nonpayable",
      "type": "function"
    },
    {
      "inputs": [
        {
          "internalType": "address",
          "name": "",
          "type": "address"
        }
      ],
      "name": "assetDefaultStrategies",
      "outputs": [
        {
          "internalType": "address",
          "name": "",
          "type": "address"
        }
      ],
      "stateMutability": "view",
      "type": "function"
    },
    {
      "inputs": [],
      "name": "autoAllocateThreshold",
      "outputs": [
        {
          "internalType": "uint256",
          "name": "",
          "type": "uint256"
        }
      ],
      "stateMutability": "view",
      "type": "function"
    },
    {
      "inputs": [],
      "name": "balance",
      "outputs": [],
      "stateMutability": "nonpayable",
      "type": "function"
    },
    {
      "inputs": [],
      "name": "balancerPoolId",
      "outputs": [
        {
          "internalType": "bytes32",
          "name": "",
          "type": "bytes32"
        }
      ],
      "stateMutability": "view",
      "type": "function"
    },
    {
      "inputs": [],
      "name": "balancerVault",
      "outputs": [
        {
          "internalType": "address",
          "name": "",
          "type": "address"
        }
      ],
      "stateMutability": "view",
      "type": "function"
    },
    {
      "inputs": [],
      "name": "capitalPaused",
      "outputs": [
        {
          "internalType": "bool",
          "name": "",
          "type": "bool"
        }
      ],
      "stateMutability": "view",
      "type": "function"
    },
    {
      "inputs": [],
      "name": "claimGovernance",
      "outputs": [],
      "stateMutability": "nonpayable",
      "type": "function"
    },
    {
      "inputs": [],
      "name": "dripperAddress",
      "outputs": [
        {
          "internalType": "address",
          "name": "",
          "type": "address"
        }
      ],
      "stateMutability": "view",
      "type": "function"
    },
    {
      "inputs": [],
      "name": "getAllStrategyWithWeights",
      "outputs": [
        {
          "components": [
            {
              "internalType": "address",
              "name": "strategy",
              "type": "address"
            },
            {
              "internalType": "uint256",
              "name": "minWeight",
              "type": "uint256"
            },
            {
              "internalType": "uint256",
              "name": "targetWeight",
              "type": "uint256"
            },
            {
              "internalType": "uint256",
              "name": "maxWeight",
              "type": "uint256"
            },
            {
              "internalType": "bool",
              "name": "enabled",
              "type": "bool"
            },
            {
              "internalType": "bool",
              "name": "enabledReward",
              "type": "bool"
            }
          ],
          "internalType": "struct VaultStorage.StrategyWithWeight[]",
          "name": "",
          "type": "tuple[]"
        }
      ],
      "stateMutability": "view",
      "type": "function"
    },
    {
      "inputs": [],
      "name": "getFeeParams",
      "outputs": [
        {
          "internalType": "address",
          "name": "",
          "type": "address"
        },
        {
          "internalType": "uint256",
          "name": "",
          "type": "uint256"
        },
        {
          "internalType": "address",
          "name": "",
          "type": "address"
        },
        {
          "internalType": "uint256",
          "name": "",
          "type": "uint256"
        }
      ],
      "stateMutability": "view",
      "type": "function"
    },
    {
      "inputs": [
        {
          "internalType": "address",
          "name": "strategy",
          "type": "address"
        }
      ],
      "name": "getStrategyWithWeight",
      "outputs": [
        {
          "components": [
            {
              "internalType": "address",
              "name": "strategy",
              "type": "address"
            },
            {
              "internalType": "uint256",
              "name": "minWeight",
              "type": "uint256"
            },
            {
              "internalType": "uint256",
              "name": "targetWeight",
              "type": "uint256"
            },
            {
              "internalType": "uint256",
              "name": "maxWeight",
              "type": "uint256"
            },
            {
              "internalType": "bool",
              "name": "enabled",
              "type": "bool"
            },
            {
              "internalType": "bool",
              "name": "enabledReward",
              "type": "bool"
            }
          ],
          "internalType": "struct VaultStorage.StrategyWithWeight",
          "name": "",
          "type": "tuple"
        }
      ],
      "stateMutability": "view",
      "type": "function"
    },
    {
      "inputs": [],
      "name": "governor",
      "outputs": [
        {
          "internalType": "address",
          "name": "",
          "type": "address"
        }
      ],
      "stateMutability": "view",
      "type": "function"
    },
    {
      "inputs": [],
      "name": "harvesterAddress",
      "outputs": [
        {
          "internalType": "address",
          "name": "",
          "type": "address"
        }
      ],
      "stateMutability": "view",
      "type": "function"
    },
    {
      "inputs": [],
      "name": "isGovernor",
      "outputs": [
        {
          "internalType": "bool",
          "name": "",
          "type": "bool"
        }
      ],
      "stateMutability": "view",
      "type": "function"
    },
    {
      "inputs": [],
      "name": "labsAddress",
      "outputs": [
        {
          "internalType": "address",
          "name": "",
          "type": "address"
        }
      ],
      "stateMutability": "view",
      "type": "function"
    },
    {
      "inputs": [],
      "name": "labsFeeBps",
      "outputs": [
        {
          "internalType": "uint256",
          "name": "",
          "type": "uint256"
        }
      ],
      "stateMutability": "view",
      "type": "function"
    },
    {
      "inputs": [],
      "name": "maxSupplyDiff",
      "outputs": [
        {
          "internalType": "uint256",
          "name": "",
          "type": "uint256"
        }
      ],
      "stateMutability": "view",
      "type": "function"
    },
    {
      "inputs": [],
      "name": "pauseCapital",
      "outputs": [],
      "stateMutability": "nonpayable",
      "type": "function"
    },
    {
      "inputs": [],
      "name": "pauseRebase",
      "outputs": [],
      "stateMutability": "nonpayable",
      "type": "function"
    },
    {
      "inputs": [],
      "name": "payout",
      "outputs": [],
      "stateMutability": "nonpayable",
      "type": "function"
    },
    {
      "inputs": [],
      "name": "priceProvider",
      "outputs": [
        {
          "internalType": "address",
          "name": "",
          "type": "address"
        }
      ],
      "stateMutability": "view",
      "type": "function"
    },
    {
      "inputs": [
        {
          "internalType": "address",
          "name": "asset",
          "type": "address"
        }
      ],
      "name": "priceUSDMint",
      "outputs": [
        {
          "internalType": "uint256",
          "name": "",
          "type": "uint256"
        }
      ],
      "stateMutability": "view",
      "type": "function"
    },
    {
      "inputs": [
        {
          "internalType": "address",
          "name": "asset",
          "type": "address"
        }
      ],
      "name": "priceUSDRedeem",
      "outputs": [
        {
          "internalType": "uint256",
          "name": "",
          "type": "uint256"
        }
      ],
      "stateMutability": "view",
      "type": "function"
    },
    {
      "inputs": [],
      "name": "primaryStableAddress",
      "outputs": [
        {
          "internalType": "address",
          "name": "",
          "type": "address"
        }
      ],
      "stateMutability": "view",
      "type": "function"
    },
    {
      "inputs": [
        {
          "internalType": "uint256",
          "name": "",
          "type": "uint256"
        }
      ],
      "name": "quickDepositStrategies",
      "outputs": [
        {
          "internalType": "address",
          "name": "",
          "type": "address"
        }
      ],
      "stateMutability": "view",
      "type": "function"
    },
    {
      "inputs": [
        {
          "internalType": "address",
          "name": "_strategyFromAddress",
          "type": "address"
        },
        {
          "internalType": "address",
          "name": "_strategyToAddress",
          "type": "address"
        },
        {
          "internalType": "address[]",
          "name": "_assets",
          "type": "address[]"
        },
        {
          "internalType": "uint256[]",
          "name": "_amounts",
          "type": "uint256[]"
        }
      ],
      "name": "reallocate",
      "outputs": [],
      "stateMutability": "nonpayable",
      "type": "function"
    },
    {
      "inputs": [],
      "name": "rebasePaused",
      "outputs": [
        {
          "internalType": "bool",
          "name": "",
          "type": "bool"
        }
      ],
      "stateMutability": "view",
      "type": "function"
    },
    {
      "inputs": [],
      "name": "rebaseThreshold",
      "outputs": [
        {
          "internalType": "uint256",
          "name": "",
          "type": "uint256"
        }
      ],
      "stateMutability": "view",
      "type": "function"
    },
    {
      "inputs": [],
      "name": "redeemFeeBps",
      "outputs": [
        {
          "internalType": "uint256",
          "name": "",
          "type": "uint256"
        }
      ],
      "stateMutability": "view",
      "type": "function"
    },
    {
      "inputs": [
        {
          "internalType": "address",
          "name": "_addr",
          "type": "address"
        }
      ],
      "name": "removeStrategy",
      "outputs": [],
      "stateMutability": "nonpayable",
      "type": "function"
    },
    {
      "inputs": [
        {
          "internalType": "address",
          "name": "newImpl",
          "type": "address"
        }
      ],
      "name": "setAdminImpl",
      "outputs": [],
      "stateMutability": "nonpayable",
      "type": "function"
    },
    {
      "inputs": [
        {
          "internalType": "address",
          "name": "_asset",
          "type": "address"
        },
        {
          "internalType": "address",
          "name": "_strategy",
          "type": "address"
        }
      ],
      "name": "setAssetDefaultStrategy",
      "outputs": [],
      "stateMutability": "nonpayable",
      "type": "function"
    },
    {
      "inputs": [
        {
          "internalType": "uint256",
          "name": "_threshold",
          "type": "uint256"
        }
      ],
      "name": "setAutoAllocateThreshold",
      "outputs": [],
      "stateMutability": "nonpayable",
      "type": "function"
    },
    {
      "inputs": [
        {
          "internalType": "address",
          "name": "_dripper",
          "type": "address"
        }
      ],
      "name": "setDripper",
      "outputs": [],
      "stateMutability": "nonpayable",
      "type": "function"
    },
    {
      "inputs": [
        {
          "internalType": "address",
          "name": "_labsAddress",
          "type": "address"
        },
        {
          "internalType": "uint256",
          "name": "_labsFeeBps",
          "type": "uint256"
        },
        {
          "internalType": "address",
          "name": "_teamAddress",
          "type": "address"
        },
        {
          "internalType": "uint256",
          "name": "_teamFeeBps",
          "type": "uint256"
        }
      ],
      "name": "setFeeParams",
      "outputs": [],
      "stateMutability": "nonpayable",
      "type": "function"
    },
    {
      "inputs": [
        {
          "internalType": "address",
          "name": "_harvester",
          "type": "address"
        }
      ],
      "name": "setHarvester",
      "outputs": [],
      "stateMutability": "nonpayable",
      "type": "function"
    },
    {
      "inputs": [
        {
          "internalType": "uint256",
          "name": "_maxSupplyDiff",
          "type": "uint256"
        }
      ],
      "name": "setMaxSupplyDiff",
      "outputs": [],
      "stateMutability": "nonpayable",
      "type": "function"
    },
    {
      "inputs": [
        {
          "internalType": "address",
          "name": "_priceProvider",
          "type": "address"
        }
      ],
      "name": "setPriceProvider",
      "outputs": [],
      "stateMutability": "nonpayable",
      "type": "function"
    },
    {
      "inputs": [
        {
          "internalType": "address",
          "name": "_primaryStable",
          "type": "address"
        }
      ],
      "name": "setPrimaryStable",
      "outputs": [],
      "stateMutability": "nonpayable",
      "type": "function"
    },
    {
      "inputs": [
        {
          "internalType": "address[]",
          "name": "_quickDepositStrategies",
          "type": "address[]"
        }
      ],
      "name": "setQuickDepositStrategies",
      "outputs": [],
      "stateMutability": "nonpayable",
      "type": "function"
    },
    {
      "inputs": [
        {
          "internalType": "uint256",
          "name": "_threshold",
          "type": "uint256"
        }
      ],
      "name": "setRebaseThreshold",
      "outputs": [],
      "stateMutability": "nonpayable",
      "type": "function"
    },
    {
      "inputs": [
        {
          "internalType": "uint256",
          "name": "_redeemFeeBps",
          "type": "uint256"
        }
      ],
      "name": "setRedeemFeeBps",
      "outputs": [],
      "stateMutability": "nonpayable",
      "type": "function"
    },
    {
      "inputs": [
        {
          "internalType": "address",
          "name": "_address",
          "type": "address"
        }
      ],
      "name": "setStrategistAddr",
      "outputs": [],
      "stateMutability": "nonpayable",
      "type": "function"
    },
    {
      "inputs": [
        {
          "components": [
            {
              "internalType": "address",
              "name": "strategy",
              "type": "address"
            },
            {
              "internalType": "uint256",
              "name": "minWeight",
              "type": "uint256"
            },
            {
              "internalType": "uint256",
              "name": "targetWeight",
              "type": "uint256"
            },
            {
              "internalType": "uint256",
              "name": "maxWeight",
              "type": "uint256"
            },
            {
              "internalType": "bool",
              "name": "enabled",
              "type": "bool"
            },
            {
              "internalType": "bool",
              "name": "enabledReward",
              "type": "bool"
            }
          ],
          "internalType": "struct VaultStorage.StrategyWithWeight[]",
          "name": "_strategyWithWeights",
          "type": "tuple[]"
        }
      ],
      "name": "setStrategyWithWeights",
      "outputs": [],
      "stateMutability": "nonpayable",
      "type": "function"
    },
    {
      "inputs": [
        {
          "internalType": "address",
          "name": "_balancerVault",
          "type": "address"
        },
        {
          "internalType": "bytes32",
          "name": "_balancerPoolId",
          "type": "bytes32"
        }
      ],
      "name": "setSwapper",
      "outputs": [],
      "stateMutability": "nonpayable",
      "type": "function"
    },
    {
      "inputs": [
        {
          "internalType": "address",
          "name": "_address",
          "type": "address"
        }
      ],
      "name": "setTrusteeAddress",
      "outputs": [],
      "stateMutability": "nonpayable",
      "type": "function"
    },
    {
      "inputs": [
        {
          "internalType": "uint256",
          "name": "_basis",
          "type": "uint256"
        }
      ],
      "name": "setTrusteeFeeBps",
      "outputs": [],
      "stateMutability": "nonpayable",
      "type": "function"
    },
    {
      "inputs": [
        {
          "internalType": "uint256",
          "name": "_vaultBuffer",
          "type": "uint256"
        }
      ],
      "name": "setVaultBuffer",
      "outputs": [],
      "stateMutability": "nonpayable",
      "type": "function"
    },
    {
      "inputs": [],
      "name": "strategistAddr",
      "outputs": [
        {
          "internalType": "address",
          "name": "",
          "type": "address"
        }
      ],
      "stateMutability": "view",
      "type": "function"
    },
    {
      "inputs": [
        {
          "internalType": "address",
          "name": "",
          "type": "address"
        }
      ],
      "name": "strategyWithWeightPositions",
      "outputs": [
        {
          "internalType": "uint256",
          "name": "",
          "type": "uint256"
        }
      ],
      "stateMutability": "view",
      "type": "function"
    },
    {
      "inputs": [
        {
          "internalType": "uint256",
          "name": "",
          "type": "uint256"
        }
      ],
      "name": "strategyWithWeights",
      "outputs": [
        {
          "internalType": "address",
          "name": "strategy",
          "type": "address"
        },
        {
          "internalType": "uint256",
          "name": "minWeight",
          "type": "uint256"
        },
        {
          "internalType": "uint256",
          "name": "targetWeight",
          "type": "uint256"
        },
        {
          "internalType": "uint256",
          "name": "maxWeight",
          "type": "uint256"
        },
        {
          "internalType": "bool",
          "name": "enabled",
          "type": "bool"
        },
        {
          "internalType": "bool",
          "name": "enabledReward",
          "type": "bool"
        }
      ],
      "stateMutability": "view",
      "type": "function"
    },
    {
      "inputs": [
        {
          "internalType": "address",
          "name": "_asset",
          "type": "address"
        }
      ],
      "name": "supportAsset",
      "outputs": [],
      "stateMutability": "nonpayable",
      "type": "function"
    },
    {
      "inputs": [],
      "name": "teamAddress",
      "outputs": [
        {
          "internalType": "address",
          "name": "",
          "type": "address"
        }
      ],
      "stateMutability": "view",
      "type": "function"
    },
    {
      "inputs": [],
      "name": "teamFeeBps",
      "outputs": [
        {
          "internalType": "uint256",
          "name": "",
          "type": "uint256"
        }
      ],
      "stateMutability": "view",
      "type": "function"
    },
    {
      "inputs": [
        {
          "internalType": "address",
          "name": "_newGovernor",
          "type": "address"
        }
      ],
      "name": "transferGovernance",
      "outputs": [],
      "stateMutability": "nonpayable",
      "type": "function"
    },
    {
      "inputs": [
        {
          "internalType": "address",
          "name": "_asset",
          "type": "address"
        },
        {
          "internalType": "uint256",
          "name": "_amount",
          "type": "uint256"
        }
      ],
      "name": "transferToken",
      "outputs": [],
      "stateMutability": "nonpayable",
      "type": "function"
    },
    {
      "inputs": [],
      "name": "trusteeAddress",
      "outputs": [
        {
          "internalType": "address",
          "name": "",
          "type": "address"
        }
      ],
      "stateMutability": "view",
      "type": "function"
    },
    {
      "inputs": [],
      "name": "trusteeFeeBps",
      "outputs": [
        {
          "internalType": "uint256",
          "name": "",
          "type": "uint256"
        }
      ],
      "stateMutability": "view",
      "type": "function"
    },
    {
      "inputs": [],
      "name": "unpauseCapital",
      "outputs": [],
      "stateMutability": "nonpayable",
      "type": "function"
    },
    {
      "inputs": [],
      "name": "unpauseRebase",
      "outputs": [],
      "stateMutability": "nonpayable",
      "type": "function"
    },
    {
      "inputs": [],
      "name": "vaultBuffer",
      "outputs": [
        {
          "internalType": "uint256",
          "name": "",
          "type": "uint256"
        }
      ],
      "stateMutability": "view",
      "type": "function"
    },
    {
      "inputs": [],
      "name": "withdrawAllFromStrategies",
      "outputs": [],
      "stateMutability": "nonpayable",
      "type": "function"
    },
    {
      "inputs": [
        {
          "internalType": "address",
          "name": "_strategyAddr",
          "type": "address"
        }
      ],
      "name": "withdrawAllFromStrategy",
      "outputs": [],
      "stateMutability": "nonpayable",
      "type": "function"
    }
  ],
  "transactionHash": "0x062f28dd91c198efe7d0c3c275c9e7acba31ad2836aa32572516a325f82684ba",
  "args": [],
  "solcInputHash": "21e539b6454284b2052086356451bf82",
  "bytecode": "0x60806040526037805461ffff60a01b1916600160a81b179055604180546001600160a01b031990811690915560428054821690556043805490911690553480156200004957600080fd5b506200006233600080516020620049d183398151915255565b600080516020620049d1833981519152546040516001600160a01b03909116906000907fc7c0c772add429241571afb3805861fb3cfa2af374534088b76cdb4325a87e9a908290a361491780620000ba6000396000f3fe608060405234801561001057600080fd5b50600436106103db5760003560e01c8063607f226d1161020a578063b69ef8a811610125578063c9919112116100b8578063dbbb64b911610087578063dbbb64b91461086e578063e6cc543214610877578063eb03654b1461088b578063ed2a2f9d1461089e578063fc0cfeee146108a857600080fd5b8063c9919112146107f0578063cc18f12d146107f8578063cc51656b14610846578063d38bfff41461085b57600080fd5b8063be6fc181116100f4578063be6fc18114610780578063c46b3dc4146107c0578063c5f00841146107e0578063c7af3352146107e857600080fd5b8063b69ef8a81461073f578063b888879e14610747578063b890ebf61461075a578063bc90106b1461076d57600080fd5b80638e510b521161019d5780639fa1826e1161016c5780639fa1826e146106e7578063a403e4d5146106f0578063a5d52e5a14610719578063b2c9336d1461072c57600080fd5b80638e510b52146106ba5780638ec489a2146106c35780638ffa4618146106d657806394828ffd146106df57600080fd5b8063773540b3116101d9578063773540b3146106785780637fe2d3931461068b578063840189421461069e5780638c5cbb89146106a757600080fd5b8063607f226d1461062a57806363bd1d4a1461064a578063663e64ce1461065257806367c7066c1461066557600080fd5b80632d1082c8116102fa5780634f2d7d6f1161028d578063545ad78c1161025c578063545ad78c146105e9578063570d8e1d146105fc578063597c89101461060f5780635d36b1901461062257600080fd5b80634f2d7d6f1461059657806352d38e5d146105a957806353ca9f24146105b2578063543fe442146105d657600080fd5b80633b8ae397116102c95780633b8ae397146105555780633dbc911f1461056857806349c1d54d146105705780634cd55c2d1461058357600080fd5b80632d1082c8146105095780632da845a81461051c5780632e9958ab1461052f578063372aa2241461054257600080fd5b806315de1daa116103725780631c75f085116103415780631c75f085146104d15780631edfe3da146104e4578063207134b0146104ed5780632a47852f146104f657600080fd5b806315de1daa146104855780631648059b14610498578063175188e8146104ab57806318802403146104be57600080fd5b80630c340a24116103ae5780630c340a24146104445780631072cbea1461044c57806310d3fdac1461045f578063158274a51461047257600080fd5b806309f49bf5146103e057806309f6442c146103ea5780630acbda75146104065780630bf4136114610419575b600080fd5b6103e86108bb565b005b6103f360385481565b6040519081526020015b60405180910390f35b6103e8610414366004614329565b610920565b61042c610427366004614329565b6109d2565b6040516001600160a01b0390911681526020016103fd565b61042c6109fc565b6103e861045a36600461414f565b610a19565b6103f361046d366004614070565b610ac6565b604b5461042c906001600160a01b031681565b6103e8610493366004614070565b610bbc565b6103e86104a636600461414f565b610c16565b6103e86104b9366004614070565b610c74565b6103e86104cc366004614179565b610f7b565b603b5461042c906001600160a01b031681565b6103f3603d5481565b6103f360475481565b6103e86105043660046141ff565b6110a7565b6103e86105173660046141bd565b61151d565b6103e861052a366004614070565b611566565b6103e861053d366004614070565b6115d8565b6103e8610550366004614070565b611632565b6103e8610563366004614070565b6116a4565b6103e86117e1565b60465461042c906001600160a01b031681565b6103e8610591366004614070565b611857565b60495461042c906001600160a01b031681565b6103f3603f5481565b6037546105c690600160a01b900460ff1681565b60405190151581526020016103fd565b60395461042c906001600160a01b031681565b604e5461042c906001600160a01b031681565b60435461042c906001600160a01b031681565b6103e861061d366004614070565b611a42565b6103e8611b3e565b61063d610638366004614070565b611be4565b6040516103fd9190614574565b6103e8611c89565b6103e8610660366004614329565b611c91565b604d5461042c906001600160a01b031681565b6103e8610686366004614070565b611cea565b6103e86106993660046140be565b611d5c565b6103f3603c5481565b6103f36106b5366004614070565b6120c4565b6103f360455481565b6103e86106d1366004614329565b612166565b6103f3603a5481565b6103e861221b565b6103f3603e5481565b61042c6106fe366004614070565b6044602052600090815260409020546001600160a01b031681565b6103e8610727366004614070565b61228b565b6103e861073a366004614329565b6122e5565b6103e861233e565b60375461042c906001600160a01b031681565b6103e8610768366004614329565b61237e565b6103e861077b36600461408b565b6123d7565b603954603a54603b54603c54604080516001600160a01b0395861681526020810194909452939091169282019290925260608101919091526080016103fd565b6103f36107ce366004614070565b604f6020526000908152604090205481565b6103e8612619565b6105c661268f565b6103e86126c0565b61080b610806366004614329565b612794565b604080516001600160a01b039097168752602087019590955293850192909252606084015215156080830152151560a082015260c0016103fd565b61084e6127eb565b6040516103fd91906143e7565b6103e8610869366004614070565b612894565b6103f3604c5481565b6037546105c690600160a81b900460ff1681565b6103e8610899366004614329565b612938565b6103f3620186a081565b6103e86108b6366004614070565b6129ed565b6108c361268f565b6108e85760405162461bcd60e51b81526004016108df906144f5565b60405180910390fd5b6037805460ff60a01b191690556040517fbc044409505c95b6b851433df96e1beae715c909d8e7c1d6d7ab783300d4e3b990600090a1565b61092861268f565b6109445760405162461bcd60e51b81526004016108df906144f5565b6113888111156109965760405162461bcd60e51b815260206004820152601760248201527f62617369732063616e6e6f74206578636565642035302500000000000000000060448201526064016108df565b60478190556040518181527f56287a45051933ea374811b3d5d165033047be5572cac676f7c28b8be4f746c7906020015b60405180910390a150565b604a81815481106109e257600080fd5b6000918252602090912001546001600160a01b0316905081565b6000610a146000805160206148988339815191525490565b905090565b610a2161268f565b610a3d5760405162461bcd60e51b81526004016108df906144f5565b6001600160a01b03821660009081526033602052604090205460ff1615610aa65760405162461bcd60e51b815260206004820152601760248201527f4f6e6c7920756e737570706f727465642061737365747300000000000000000060448201526064016108df565b610ac2610ab16109fc565b6001600160a01b0384169083612a8f565b5050565b6037546040516315d5220f60e31b81526001600160a01b038381166004830152600092839291169063aea910789060240160206040518083038186803b158015610b0f57600080fd5b505afa158015610b23573d6000803e3d6000fd5b505050506040513d601f19601f82011682018060405250810190610b479190614342565b90506305f2d3c0811015610b955760405162461bcd60e51b815260206004820152601560248201527441737365742070726963652062656c6f772070656760581b60448201526064016108df565b6305f5e100811115610ba857506305f5e1005b610bb58160126008612ae1565b9392505050565b6043546001600160a01b0316331480610bd85750610bd861268f565b610bf45760405162461bcd60e51b81526004016108df9061452c565b604d80546001600160a01b0319166001600160a01b0392909216919091179055565b6043546001600160a01b0316331480610c325750610c3261268f565b610c4e5760405162461bcd60e51b81526004016108df9061452c565b604b80546001600160a01b0319166001600160a01b039390931692909217909155604c55565b610c7c61268f565b610c985760405162461bcd60e51b81526004016108df906144f5565b6001600160a01b03811660009081526035602052604090205460ff16610cf85760405162461bcd60e51b815260206004820152601560248201527414dd1c985d1959de481b9bdd08185c1c1c9bdd9959605a1b60448201526064016108df565b60005b603454811015610db157816001600160a01b03166044600060348481548110610d2657610d2661485d565b60009182526020808320909101546001600160a01b039081168452908301939093526040909101902054161415610d9f5760405162461bcd60e51b815260206004820181905260248201527f53747261746567792069732064656661756c7420666f7220616e20617373657460448201526064016108df565b80610da9816147e7565b915050610cfb565b5060365460005b603654811015610e1457826001600160a01b031660368281548110610ddf57610ddf61485d565b6000918252602090912001546001600160a01b03161415610e0257809150610e14565b80610e0c816147e7565b915050610db8565b50603654811015610ac25760368054610e2f90600190614766565b81548110610e3f57610e3f61485d565b600091825260209091200154603680546001600160a01b039092169183908110610e6b57610e6b61485d565b9060005260206000200160006101000a8154816001600160a01b0302191690836001600160a01b031602179055506036805480610eaa57610eaa614847565b60008281526020808220830160001990810180546001600160a01b03191690559092019092556001600160a01b03841680835260359091526040808320805460ff19169055805163429c145b60e11b81529051859363853828b6926004808201939182900301818387803b158015610f2157600080fd5b505af1158015610f35573d6000803e3d6000fd5b50506040516001600160a01b03861681527f09a1db4b80c32706328728508c941a6b954f31eb5affd32f236c1fd405f8fea49250602001905060405180910390a1505050565b610f8361268f565b610f9f5760405162461bcd60e51b81526004016108df906144f5565b603980546001600160a01b038681166001600160a01b03199283168117909355603a869055603b8054868316931692909217909155603c839055604d546040516306ae77fd60e51b8152600481019390935260248301869052169063d5ceffa090604401600060405180830381600087803b15801561101d57600080fd5b505af1158015611031573d6000803e3d6000fd5b5050604d54603b54603c5460405163bc14edcf60e01b81526001600160a01b03928316600482015260248101919091529116925063bc14edcf9150604401600060405180830381600087803b15801561108957600080fd5b505af115801561109d573d6000803e3d6000fd5b5050505050505050565b6043546001600160a01b03163314806110c357506110c361268f565b6110df5760405162461bcd60e51b81526004016108df9061452c565b6000805b60ff811683111561127457600084848360ff168181106111055761110561485d565b905060c0020180360381019061111b9190614291565b80519091506001600160a01b03166111755760405162461bcd60e51b815260206004820152601760248201527f77656967687420776974686f757420737472617465677900000000000000000060448201526064016108df565b8060400151816020015111156111e25760405162461bcd60e51b815260206004820152602c60248201527f6d696e5765696768742073686f756c646e277420686967686572207468616e2060448201526b1d185c99d95d15d95a59da1d60a21b60648201526084016108df565b80606001518160400151111561124f5760405162461bcd60e51b815260206004820152602c60248201527f7461726765745765696768742073686f756c646e27742068696768657220746860448201526b185b881b585e15d95a59da1d60a21b60648201526084016108df565b604081015161125e90846145c3565b925050808061126c906147fb565b9150506110e3565b50620186a081146112d95760405162461bcd60e51b815260206004820152602960248201527f546f74616c207461726765742073686f756c6420657175616c20746f20544f54604482015268105317d5d15251d21560ba1b60648201526084016108df565b60006113368484808060200260200160405190810160405280939291908181526020016000905b8282101561132c5761131d60c08302860136819003810190614291565b81526020019060010190611300565b5050505050612b43565b905060005b81518160ff1610156113ca57611370828260ff168151811061135f5761135f61485d565b60200260200101518260ff16612d56565b8060ff16604f600060508460ff168154811061138e5761138e61485d565b600091825260208083206005909202909101546001600160a01b03168352820192909252604001902055806113c2816147fb565b91505061133b565b50805160505411156114645780516050546000916113e791614766565b905060005b818160ff16101561146157605080548061140857611408614847565b60008281526020812060056000199093019283020180546001600160a01b031916815560018101829055600281018290556003810191909155600401805461ffff19169055905580611459816147fb565b9150506113ec565b50505b60005b60505460ff8216101561151657600060508260ff168154811061148c5761148c61485d565b60009182526020918290206040805160c081018252600590930290910180546001600160a01b03168084526001820154948401949094526002810154918301829052600381015460608401526004015460ff8082161515608085015261010090910416151560a08301529092506115039190612e55565b508061150e816147fb565b915050611467565b5050505050565b6043546001600160a01b0316331480611539575061153961268f565b6115555760405162461bcd60e51b81526004016108df9061452c565b611561604a8383613f42565b505050565b61156e61268f565b61158a5760405162461bcd60e51b81526004016108df906144f5565b604680546001600160a01b0319166001600160a01b0383169081179091556040519081527f1e4af5ac389e8cde1bdaa6830881b6c987c62a45cfb3b33d27d805cde3b57750906020016109c7565b6043546001600160a01b03163314806115f457506115f461268f565b6116105760405162461bcd60e51b81526004016108df9061452c565b604e80546001600160a01b0319166001600160a01b0392909216919091179055565b61163a61268f565b6116565760405162461bcd60e51b81526004016108df906144f5565b603780546001600160a01b0319166001600160a01b0383169081179091556040519081527fb266add5f3044b17d27db796af992cecbe413921b4e8aaaee03c719e16b9806a906020016109c7565b6116ac61268f565b6116c85760405162461bcd60e51b81526004016108df906144f5565b6001600160a01b03811660009081526035602052604090205460ff16156117315760405162461bcd60e51b815260206004820152601960248201527f537472617465677920616c726561647920617070726f7665640000000000000060448201526064016108df565b6040805180820182526001808252600060208084018281526001600160a01b038716808452603583528684209551865460ff19169015151786559051948401949094556036805493840181559091527f4a11f94e20a93c79f6ec743a1954ec4fc2c08429ae2122118bf234b2185c81b890910180546001600160a01b0319168317905591519081527f960dd94cbb79169f09a4e445d58b895df2d9bffa5b31055d0932d801724a20d191016109c7565b6043546001600160a01b03163314806117fd57506117fd61268f565b6118195760405162461bcd60e51b81526004016108df9061452c565b6037805460ff60a81b1916600160a81b1790556040517f71f0e5b62f846a22e0b4d159e516e62fa9c2b8eb570be15f83e67d98a2ee51e090600090a1565b61185f61268f565b61187b5760405162461bcd60e51b81526004016108df906144f5565b6001600160a01b03811660009081526033602052604090205460ff16156118e45760405162461bcd60e51b815260206004820152601760248201527f417373657420616c726561647920737570706f7274656400000000000000000060448201526064016108df565b604080516020808201835260018083526001600160a01b038581166000818152603385528681209551865460ff1916901515179095556034805493840181559094527f46bddb1178e94d7f2892ff5f366840eb658911794f2c3a44c450aa2c505186c190910180546001600160a01b0319169093179092558251808401909352600d83526c383934b1b2a83937bb34b232b960991b9083015260375461198b929116612ea4565b6037546040516315d5220f60e31b81526001600160a01b0383811660048301529091169063aea910789060240160206040518083038186803b1580156119d057600080fd5b505afa1580156119e4573d6000803e3d6000fd5b505050506040513d601f19601f82011682018060405250810190611a089190614342565b506040516001600160a01b03821681527f4f1ac48525e50059cc1cc6e0e1940ece0dd653a4db4841538d6aef036be2fb7b906020016109c7565b6043546001600160a01b0316331480611a5e5750611a5e61268f565b611a7a5760405162461bcd60e51b81526004016108df9061452c565b6001600160a01b03811660009081526035602052604090205460ff16611ae25760405162461bcd60e51b815260206004820152601960248201527f5374726174656779206973206e6f7420737570706f727465640000000000000060448201526064016108df565b6000819050806001600160a01b031663853828b66040518163ffffffff1660e01b8152600401600060405180830381600087803b158015611b2257600080fd5b505af1158015611b36573d6000803e3d6000fd5b505050505050565b7f7eaf9a7750884803435dfabc67aa617a7d8fefb23d8d84b3c9722bd69e48c4bc546001600160a01b0316336001600160a01b031614611bd95760405162461bcd60e51b815260206004820152603060248201527f4f6e6c79207468652070656e64696e6720476f7665726e6f722063616e20636f60448201526f6d706c6574652074686520636c61696d60801b60648201526084016108df565b611be233612ee9565b565b611bec613fa5565b6001600160a01b0382166000908152604f6020526040902054605080549091908110611c1a57611c1a61485d565b60009182526020918290206040805160c081018252600590930290910180546001600160a01b031683526001810154938301939093526002830154908201526003820154606082015260049091015460ff8082161515608084015261010090910416151560a082015292915050565b611be2612faa565b611c9961268f565b611cb55760405162461bcd60e51b81526004016108df906144f5565b60458190556040518181527f95201f9c21f26877223b1ff4073936a6484c35495649e60e55730497aeb60d93906020016109c7565b611cf261268f565b611d0e5760405162461bcd60e51b81526004016108df906144f5565b604380546001600160a01b0319166001600160a01b0383169081179091556040519081527f869e0abd13cc3a975de7b93be3df1cb2255c802b1cead85963cc79d99f131bee906020016109c7565b6043546001600160a01b0316331480611d785750611d7861268f565b611d945760405162461bcd60e51b81526004016108df9061452c565b6001600160a01b03861660009081526035602052604090205460ff16611df45760405162461bcd60e51b8152602060048201526015602482015274496e76616c69642066726f6d20537472617465677960581b60448201526064016108df565b6001600160a01b03851660009081526035602052604090205460ff16611e525760405162461bcd60e51b8152602060048201526013602482015272496e76616c696420746f20537472617465677960681b60448201526064016108df565b828114611ea15760405162461bcd60e51b815260206004820152601960248201527f506172616d65746572206c656e677468206d69736d617463680000000000000060448201526064016108df565b858560005b8581101561206657816001600160a01b031663aa388af6888884818110611ecf57611ecf61485d565b9050602002016020810190611ee49190614070565b6040516001600160e01b031960e084901b1681526001600160a01b03909116600482015260240160206040518083038186803b158015611f2357600080fd5b505afa158015611f37573d6000803e3d6000fd5b505050506040513d601f19601f82011682018060405250810190611f5b9190614274565b611f9b5760405162461bcd60e51b8152602060048201526011602482015270105cdcd95d081d5b9cdd5c1c1bdc9d1959607a1b60448201526064016108df565b826001600160a01b031663d9caed1283898985818110611fbd57611fbd61485d565b9050602002016020810190611fd29190614070565b888886818110611fe457611fe461485d565b6040516001600160e01b031960e088901b1681526001600160a01b03958616600482015294909316602485015250602090910201356044820152606401600060405180830381600087803b15801561203b57600080fd5b505af115801561204f573d6000803e3d6000fd5b50505050808061205e906147e7565b915050611ea6565b50806001600160a01b031663de5f62686040518163ffffffff1660e01b8152600401600060405180830381600087803b1580156120a257600080fd5b505af11580156120b6573d6000803e3d6000fd5b505050505050505050505050565b6037546040516315d5220f60e31b81526001600160a01b038381166004830152600092839291169063aea910789060240160206040518083038186803b15801561210d57600080fd5b505afa158015612121573d6000803e3d6000fd5b505050506040513d601f19601f820116820180604052508101906121459190614342565b90506305f5e100811015610ba857506305f5e100610bb58160126008612ae1565b6043546001600160a01b0316331480612182575061218261268f565b61219e5760405162461bcd60e51b81526004016108df9061452c565b670de0b6b3a76400008111156121e65760405162461bcd60e51b815260206004820152600d60248201526c496e76616c69642076616c756560981b60448201526064016108df565b603d8190556040518181527f41ecb23a0e7865b25f38c268b7c3012220d822929e9edff07326e89d5bb822b5906020016109c7565b6043546001600160a01b0316331480612237575061223761268f565b6122535760405162461bcd60e51b81526004016108df9061452c565b6037805460ff60a81b191690556040517f891ebab18da80ebeeea06b1b1cede098329c4c008906a98370c2ac7a80b571cb90600090a1565b6043546001600160a01b03163314806122a757506122a761268f565b6122c35760405162461bcd60e51b81526004016108df9061452c565b604980546001600160a01b0319166001600160a01b0392909216919091179055565b6122ed61268f565b6123095760405162461bcd60e51b81526004016108df906144f5565b603e8190556040518181527f2ec5fb5a3d2703edc461252d92ccd2799c3c74f01d97212b20388207fa17ae45906020016109c7565b6043546001600160a01b031633148061235a575061235a61268f565b6123765760405162461bcd60e51b81526004016108df9061452c565b611be261307e565b61238661268f565b6123a25760405162461bcd60e51b81526004016108df906144f5565b603f8190556040518181527f39367850377ac04920a9a670f2180e7a94d83b15ad302e59875ec58fd10bd37d906020016109c7565b6043546001600160a01b03163314806123f357506123f361268f565b61240f5760405162461bcd60e51b81526004016108df9061452c565b604080516001600160a01b038085168252831660208201527fba58ce12801c949fa65f41c46ed108671c219baf945fa48d21026cea99ff252a910160405180910390a16001600160a01b038116156125eb576001600160a01b03811660009081526035602052604090205460ff166124c15760405162461bcd60e51b815260206004820152601560248201527414dd1c985d1959de481b9bdd08185c1c1c9bdd9959605a1b60448201526064016108df565b6001600160a01b038216600090815260336020526040902054819060ff166125245760405162461bcd60e51b8152602060048201526016602482015275105cdcd95d081a5cc81b9bdd081cdd5c1c1bdc9d195960521b60448201526064016108df565b60405163551c457b60e11b81526001600160a01b03848116600483015282169063aa388af69060240160206040518083038186803b15801561256557600080fd5b505afa158015612579573d6000803e3d6000fd5b505050506040513d601f19601f8201168201806040525081019061259d9190614274565b6125e95760405162461bcd60e51b815260206004820152601f60248201527f4173736574206e6f7420737570706f727465642062792053747261746567790060448201526064016108df565b505b6001600160a01b03918216600090815260446020526040902080546001600160a01b03191691909216179055565b6043546001600160a01b0316331480612635575061263561268f565b6126515760405162461bcd60e51b81526004016108df9061452c565b6037805460ff60a01b1916600160a01b1790556040517f8cff26a5985614b3d30629cc4ab83824bf115aec971b718d8f2f99562032e97290600090a1565b60006126a76000805160206148988339815191525490565b6001600160a01b0316336001600160a01b031614905090565b6043546001600160a01b03163314806126dc57506126dc61268f565b6126f85760405162461bcd60e51b81526004016108df9061452c565b60005b6036548110156127915760006036828154811061271a5761271a61485d565b60009182526020822001546040805163429c145b60e11b815290516001600160a01b039092169350839263853828b69260048084019382900301818387803b15801561276557600080fd5b505af1158015612779573d6000803e3d6000fd5b50505050508080612789906147e7565b9150506126fb565b50565b605081815481106127a457600080fd5b6000918252602090912060059091020180546001820154600283015460038401546004909401546001600160a01b0390931694509092909160ff8082169161010090041686565b60606050805480602002602001604051908101604052809291908181526020016000905b8282101561288b5760008481526020908190206040805160c0810182526005860290920180546001600160a01b0316835260018082015484860152600282015492840192909252600381015460608401526004015460ff8082161515608085015261010090910416151560a0830152908352909201910161280f565b50505050905090565b61289c61268f565b6128b85760405162461bcd60e51b81526004016108df906144f5565b6128e0817f7eaf9a7750884803435dfabc67aa617a7d8fefb23d8d84b3c9722bd69e48c4bc55565b806001600160a01b03166129006000805160206148988339815191525490565b6001600160a01b03167fa39cc5eb22d0f34d8beaefee8a3f17cc229c1a1d1ef87a5ad47313487b1c4f0d60405160405180910390a350565b61294061268f565b61295c5760405162461bcd60e51b81526004016108df906144f5565b6103e88111156129b85760405162461bcd60e51b815260206004820152602160248201527f52656465656d206665652073686f756c64206e6f74206265206f7665722031306044820152602560f81b60648201526084016108df565b60388190556040518181527fd6c7508d6658ccee36b7b7d7fd72e5cbaeefb40c64eff24e9ae7470e846304ee906020016109c7565b6129f561268f565b612a115760405162461bcd60e51b81526004016108df906144f5565b803b612a6b5760405162461bcd60e51b8152602060048201526024808201527f6e657720696d706c656d656e746174696f6e206973206e6f74206120636f6e746044820152631c9858dd60e21b60648201526084016108df565b7f10e4e34101c81b29558fe5b91534ae1af03c346313e21b0f6446695a8e18e24355565b604080516001600160a01b038416602482015260448082018490528251808303909101815260649091019091526020810180516001600160e01b031663a9059cbb60e01b1790526115619084906139ee565b600081831115612b1157612b0a612af88385614766565b612b0390600a614660565b8590613ac0565b9350612b3b565b81831015612b3b57612b38612b268484614766565b612b3190600a614660565b8590613ad5565b93505b509192915050565b60606000825167ffffffffffffffff811115612b6157612b61614873565b604051908082528060200260200182016040528015612b8a578160200160208202803683370190505b50905060005b8351811015612be657838181518110612bab57612bab61485d565b602002602001015160400151828281518110612bc957612bc961485d565b602090810291909101015280612bde816147e7565b915050612b90565b506000815167ffffffffffffffff811115612c0357612c03614873565b604051908082528060200260200182016040528015612c2c578160200160208202803683370190505b50905060005b8151811015612c6b5780828281518110612c4e57612c4e61485d565b602090810291909101015280612c63816147e7565b915050612c32565b50612c8682600060018551612c809190614766565b84613ae1565b6000825167ffffffffffffffff811115612ca257612ca2614873565b604051908082528060200260200182016040528015612cdb57816020015b612cc8613fa5565b815260200190600190039081612cc05790505b50905060005b8251811015612d4d5785838281518110612cfd57612cfd61485d565b602002602001015181518110612d1557612d1561485d565b6020026020010151828281518110612d2f57612d2f61485d565b60200260200101819052508080612d45906147e7565b915050612ce1565b50949350505050565b605054801580612d6f575081612d6d600183614766565b105b15612dbc576000612d808284614766565b612d8b9060016145c3565b905060005b818160ff161015612db95760508054600101815560005280612db1816147fb565b915050612d90565b50505b8260508381548110612dd057612dd061485d565b6000918252602091829020835160059092020180546001600160a01b039092166001600160a01b0319909216919091178155908201516001820155604082015160028201556060820151600382015560808201516004909101805460a09093015115156101000261ff00199215159290921661ffff1990931692909217179055505050565b6040516001600160a01b038316602482015260448101829052610ac29060640160408051601f198184030181529190526020810180516001600160e01b0316632243cfa360e01b179052613cd6565b610ac28282604051602401612eba929190614448565b60408051601f198184030181529190526020810180516001600160e01b031663319af33360e01b179052613cd6565b6001600160a01b038116612f3f5760405162461bcd60e51b815260206004820152601a60248201527f4e657720476f7665726e6f72206973206164647265737328302900000000000060448201526064016108df565b806001600160a01b0316612f5f6000805160206148988339815191525490565b6001600160a01b03167fc7c0c772add429241571afb3805861fb3cfa2af374534088b76cdb4325a87e9a60405160405180910390a36127918160008051602061489883398151915255565b604d60009054906101000a90046001600160a01b03166001600160a01b031663e4d873206040518163ffffffff1660e01b8152600401600060405180830381600087803b158015612ffa57600080fd5b505af115801561300e573d6000803e3d6000fd5b50505050604e60009054906101000a90046001600160a01b03166001600160a01b031663737962976040518163ffffffff1660e01b8152600401600060405180830381600087803b15801561306257600080fd5b505af1158015613076573d6000803e3d6000fd5b50505050611be25b6049546001600160a01b031660006130946127eb565b905060008060005b83518160ff16101561331857838160ff16815181106130bd576130bd61485d565b6020026020010151608001516130d257613306565b838160ff16815181106130e7576130e761485d565b6020026020010151604001516000141561317357838160ff16815181106131105761311061485d565b6020026020010151600001516001600160a01b031663853828b66040518163ffffffff1660e01b8152600401600060405180830381600087803b15801561315657600080fd5b505af115801561316a573d6000803e3d6000fd5b50505050613306565b61323a6040518060400160405280601581526020017402130b630b731b29034b71039ba30b93a32b3bc9d1605d1b815250858360ff16815181106131b9576131b961485d565b6020026020010151600001516001600160a01b031663c71daccb6040518163ffffffff1660e01b815260040160206040518083038186803b1580156131fd57600080fd5b505afa158015613211573d6000803e3d6000fd5b505050506040513d601f19601f820116820180604052508101906132359190614342565b613cf7565b838160ff168151811061324f5761324f61485d565b6020026020010151600001516001600160a01b031663c71daccb6040518163ffffffff1660e01b815260040160206040518083038186803b15801561329357600080fd5b505afa1580156132a7573d6000803e3d6000fd5b505050506040513d601f19601f820116820180604052508101906132cb9190614342565b6132d590846145c3565b9250838160ff16815181106132ec576132ec61485d565b6020026020010151604001518261330391906145c3565b91505b80613310816147fb565b91505061309c565b506040516370a0823160e01b81523060048201526000906001600160a01b038616906370a082319060240160206040518083038186803b15801561335b57600080fd5b505afa15801561336f573d6000803e3d6000fd5b505050506040513d601f19601f820116820180604052508101906133939190614342565b61339d90846145c3565b90506133ce6040518060400160405280600d81526020016c02a37ba30b61030b9b9b2ba1d1609d1b81525082613cf7565b6000845167ffffffffffffffff8111156133ea576133ea614873565b60405190808252806020026020018201604052801561343557816020015b60408051606081018252600080825260208083018290529282015282526000199092019101816134085790505b5090506000805b86518160ff16101561377457868160ff168151811061345d5761345d61485d565b60200260200101516080015161347257613762565b6000878260ff16815181106134895761348961485d565b602002602001015160400151600014156134a5575060006134df565b85888360ff16815181106134bb576134bb61485d565b602002602001015160400151866134d29190614708565b6134dc9190614609565b90505b6000888360ff16815181106134f6576134f661485d565b6020026020010151600001516001600160a01b031663c71daccb6040518163ffffffff1660e01b815260040160206040518083038186803b15801561353a57600080fd5b505afa15801561354e573d6000803e3d6000fd5b505050506040513d601f19601f820116820180604052508101906135729190614342565b905080821415613583575050613762565b8082101561369c5760408051808201909152601881527f5769746864726177206e6f7720616d6f756e742066726f6d000000000000000060208201526135f3906135cd8484614766565b8b8660ff16815181106135e2576135e261485d565b602002602001015160000151613d3c565b888360ff16815181106136085761360861485d565b6020026020010151600001516001600160a01b031663d9caed12308c85856136309190614766565b6040516001600160e01b031960e086901b1681526001600160a01b0393841660048201529290911660248301526044820152606401600060405180830381600087803b15801561367f57600080fd5b505af1158015613693573d6000803e3d6000fd5b5050505061375f565b60408051808201909152601981527f4465706f736974206c6174657220616d6f756e742066726f6d0000000000000060208201526136de906135cd8385614766565b60405180606001604052806001151581526020018a8560ff16815181106137075761370761485d565b6020026020010151600001516001600160a01b03168152602001828461372d9190614766565b815250858560ff16815181106137455761374561485d565b6020026020010181905250838061375b906147fb565b9450505b50505b8061376c816147fb565b91505061343c565b506137d06040518060600160405280602a81526020016148b8602a91396040516370a0823160e01b81523060048201526001600160a01b038a16906370a082319060240160206040518083038186803b1580156131fd57600080fd5b60005b8160ff168160ff16101561109d576000838260ff16815181106137f8576137f861485d565b60200260200101516020015190506000848360ff168151811061381d5761381d61485d565b602002602001015160400151905061386b6040518060400160405280601981526020017f50726f63657373696e67207374616b65206f72646572206f66000000000000008152508383613d83565b6040516370a0823160e01b81523060048201526000906001600160a01b038c16906370a082319060240160206040518083038186803b1580156138ad57600080fd5b505afa1580156138c1573d6000803e3d6000fd5b505050506040513d601f19601f820116820180604052508101906138e59190614342565b9050818110156138f3578091505b60405163a9059cbb60e01b81526001600160a01b038481166004830152602482018490528c169063a9059cbb90604401602060405180830381600087803b15801561393d57600080fd5b505af1158015613951573d6000803e3d6000fd5b505050506040513d601f19601f820116820180604052508101906139759190614274565b506040516311f9fbc960e21b81526001600160a01b038c81166004830152602482018490528416906347e7ef2490604401600060405180830381600087803b1580156139c057600080fd5b505af11580156139d4573d6000803e3d6000fd5b5050505050505080806139e6906147fb565b9150506137d3565b6000613a43826040518060400160405280602081526020017f5361666545524332303a206c6f772d6c6576656c2063616c6c206661696c6564815250856001600160a01b0316613dca9092919063ffffffff16565b8051909150156115615780806020019051810190613a619190614274565b6115615760405162461bcd60e51b815260206004820152602a60248201527f5361666545524332303a204552433230206f7065726174696f6e20646964206e6044820152691bdd081cdd58d8d9595960b21b60648201526084016108df565b6000613acc8284614708565b90505b92915050565b6000613acc8284614609565b828280821415613af2575050613cd0565b6000866002613b018888614727565b613b0b91906145db565b613b159088614582565b81518110613b2557613b2561485d565b602002602001015190505b818313613ca4575b80878481518110613b4b57613b4b61485d565b60200260200101511115613b6b5782613b63816147c7565b935050613b38565b868281518110613b7d57613b7d61485d565b6020026020010151811115613b9e5781613b96816147a9565b925050613b6b565b818313613c9f57868281518110613bb757613bb761485d565b6020026020010151878481518110613bd157613bd161485d565b6020026020010151888581518110613beb57613beb61485d565b60200260200101898581518110613c0457613c0461485d565b6020026020010182815250828152505050838281518110613c2757613c2761485d565b6020026020010151848481518110613c4157613c4161485d565b6020026020010151858581518110613c5b57613c5b61485d565b60200260200101868581518110613c7457613c7461485d565b60209081029190910101919091525282613c8d816147c7565b9350508180613c9b906147a9565b9250505b613b30565b81861215613cb857613cb887878487613ae1565b84831215613ccc57613ccc87848787613ae1565b5050505b50505050565b80516a636f6e736f6c652e6c6f67602083016000808483855afa5050505050565b610ac28282604051602401613d0d9291906144a0565b60408051601f198184030181529190526020810180516001600160e01b03166309710a9d60e41b179052613cd6565b611561838383604051602401613d54939291906144c2565b60408051601f198184030181529190526020810180516001600160e01b031663e3849f7960e01b179052613cd6565b611561838383604051602401613d9b93929190614472565b60408051601f198184030181529190526020810180516001600160e01b03166307c8121760e01b179052613cd6565b6060613dd98484600085613de1565b949350505050565b606082471015613e425760405162461bcd60e51b815260206004820152602660248201527f416464726573733a20696e73756666696369656e742062616c616e636520666f6044820152651c8818d85b1b60d21b60648201526084016108df565b843b613e905760405162461bcd60e51b815260206004820152601d60248201527f416464726573733a2063616c6c20746f206e6f6e2d636f6e747261637400000060448201526064016108df565b600080866001600160a01b03168587604051613eac91906143cb565b60006040518083038185875af1925050503d8060008114613ee9576040519150601f19603f3d011682016040523d82523d6000602084013e613eee565b606091505b5091509150613efe828286613f09565b979650505050505050565b60608315613f18575081610bb5565b825115613f285782518084602001fd5b8160405162461bcd60e51b81526004016108df9190614435565b828054828255906000526020600020908101928215613f95579160200282015b82811115613f955781546001600160a01b0319166001600160a01b03843516178255602090920191600190910190613f62565b50613fa1929150613fe8565b5090565b6040518060c0016040528060006001600160a01b031681526020016000815260200160008152602001600081526020016000151581526020016000151581525090565b5b80821115613fa15760008155600101613fe9565b80356001600160a01b038116811461401457600080fd5b919050565b60008083601f84011261402b57600080fd5b50813567ffffffffffffffff81111561404357600080fd5b6020830191508360208260051b850101111561405e57600080fd5b9250929050565b803561401481614889565b60006020828403121561408257600080fd5b613acc82613ffd565b6000806040838503121561409e57600080fd5b6140a783613ffd565b91506140b560208401613ffd565b90509250929050565b600080600080600080608087890312156140d757600080fd5b6140e087613ffd565b95506140ee60208801613ffd565b9450604087013567ffffffffffffffff8082111561410b57600080fd5b6141178a838b01614019565b9096509450606089013591508082111561413057600080fd5b5061413d89828a01614019565b979a9699509497509295939492505050565b6000806040838503121561416257600080fd5b61416b83613ffd565b946020939093013593505050565b6000806000806080858703121561418f57600080fd5b61419885613ffd565b9350602085013592506141ad60408601613ffd565b9396929550929360600135925050565b600080602083850312156141d057600080fd5b823567ffffffffffffffff8111156141e757600080fd5b6141f385828601614019565b90969095509350505050565b6000806020838503121561421257600080fd5b823567ffffffffffffffff8082111561422a57600080fd5b818501915085601f83011261423e57600080fd5b81358181111561424d57600080fd5b86602060c08302850101111561426257600080fd5b60209290920196919550909350505050565b60006020828403121561428657600080fd5b8151610bb581614889565b600060c082840312156142a357600080fd5b60405160c0810181811067ffffffffffffffff821117156142d457634e487b7160e01b600052604160045260246000fd5b6040526142e083613ffd565b815260208301356020820152604083013560408201526060830135606082015261430c60808401614065565b608082015261431d60a08401614065565b60a08201529392505050565b60006020828403121561433b57600080fd5b5035919050565b60006020828403121561435457600080fd5b5051919050565b6000815180845261437381602086016020860161477d565b601f01601f19169290920160200192915050565b80516001600160a01b0316825260208082015190830152604080820151908301526060808201519083015260808082015115159083015260a0908101511515910152565b600082516143dd81846020870161477d565b9190910192915050565b6020808252825182820181905260009190848201906040850190845b8181101561442957614416838551614387565b9284019260c09290920191600101614403565b50909695505050505050565b602081526000613acc602083018461435b565b60408152600061445b604083018561435b565b905060018060a01b03831660208301529392505050565b606081526000614485606083018661435b565b6001600160a01b039490941660208301525060400152919050565b6040815260006144b3604083018561435b565b90508260208301529392505050565b6060815260006144d5606083018661435b565b6020830194909452506001600160a01b0391909116604090910152919050565b6020808252601a908201527f43616c6c6572206973206e6f742074686520476f7665726e6f72000000000000604082015260600190565b60208082526028908201527f43616c6c6572206973206e6f74207468652053747261746567697374206f722060408201526723b7bb32b93737b960c11b606082015260800190565b60c08101613acf8284614387565b600080821280156001600160ff1b03849003851316156145a4576145a461481b565b600160ff1b83900384128116156145bd576145bd61481b565b50500190565b600082198211156145d6576145d661481b565b500190565b6000826145ea576145ea614831565b600160ff1b8214600019841416156146045761460461481b565b500590565b60008261461857614618614831565b500490565b600181815b8085111561465857816000190482111561463e5761463e61481b565b8085161561464b57918102915b93841c9390800290614622565b509250929050565b6000613acc838360008261467657506001613acf565b8161468357506000613acf565b816001811461469957600281146146a3576146bf565b6001915050613acf565b60ff8411156146b4576146b461481b565b50506001821b613acf565b5060208310610133831016604e8410600b84101617156146e2575081810a613acf565b6146ec838361461d565b80600019048211156147005761470061481b565b029392505050565b60008160001904831182151516156147225761472261481b565b500290565b60008083128015600160ff1b8501841216156147455761474561481b565b6001600160ff1b03840183138116156147605761476061481b565b50500390565b6000828210156147785761477861481b565b500390565b60005b83811015614798578181015183820152602001614780565b83811115613cd05750506000910152565b6000600160ff1b8214156147bf576147bf61481b565b506000190190565b60006001600160ff1b038214156147e0576147e061481b565b5060010190565b60006000198214156147e0576147e061481b565b600060ff821660ff8114156148125761481261481b565b60010192915050565b634e487b7160e01b600052601160045260246000fd5b634e487b7160e01b600052601260045260246000fd5b634e487b7160e01b600052603160045260246000fd5b634e487b7160e01b600052603260045260246000fd5b634e487b7160e01b600052604160045260246000fd5b801515811461279157600080fdfe83f34c88ec39d54d1e423bd8a181ebc59ede5dcc9996c2df334668b4f89fdd735f61737365742042616c616e636520617661696c61626c65206166746572207769746864726177696e67a26469706673582212209f30d0791bf5e98368627fabbada3e56cecb674401d7cbad5250b075cd2d9d1664736f6c6343000806003383f34c88ec39d54d1e423bd8a181ebc59ede5dcc9996c2df334668b4f89fdd73",
  "devdoc": {
    "kind": "dev",
    "methods": {
      "approveStrategy(address)": {
        "details": "Add a strategy to the Vault.",
        "params": {
          "_addr": "Address of the strategy to add"
        }
      },
      "claimGovernance()": {
        "details": "Claim Governance of the contract to a new account (`newGovernor`). Can only be called by the new Governor."
      },
      "governor()": {
        "details": "Returns the address of the current Governor."
      },
      "isGovernor()": {
        "details": "Returns true if the caller is the current Governor."
      },
      "pauseCapital()": {
        "details": "Set the deposit paused flag to true to prevent capital movement."
      },
      "pauseRebase()": {
        "details": "Set the deposit paused flag to true to prevent rebasing."
      },
      "priceUSDMint(address)": {
        "details": "Returns the total price in 18 digit USD for a given asset.      Never goes above 1, since that is how we price mints",
        "params": {
          "asset": "address of the asset"
        },
        "returns": {
          "_0": "uint256 USD price of 1 of the asset, in 18 decimal fixed"
        }
      },
      "priceUSDRedeem(address)": {
        "details": "Returns the total price in 18 digit USD for a given asset.      Never goes below 1, since that is how we price redeems",
        "params": {
          "asset": "Address of the asset"
        },
        "returns": {
          "_0": "uint256 USD price of 1 of the asset, in 18 decimal fixed"
        }
      },
      "reallocate(address,address,address[],uint256[])": {
        "params": {
          "_amounts": "Array of amounts of each corresponding asset to move.",
          "_assets": "Array of asset address that will be moved",
          "_strategyFromAddress": "Address of Strategy to move assets from.",
          "_strategyToAddress": "Address of Strategy to move assets to."
        }
      },
      "removeStrategy(address)": {
        "details": "Remove a strategy from the Vault.",
        "params": {
          "_addr": "Address of the strategy to remove"
        }
      },
      "setAdminImpl(address)": {
        "details": "set the implementation for the admin, this needs to be in a base class else we cannot set it",
        "params": {
          "newImpl": "address of the implementation"
        }
      },
      "setAssetDefaultStrategy(address,address)": {
        "details": "Set the default Strategy for an asset, i.e. the one which the asset will be automatically allocated to and withdrawn from",
        "params": {
          "_asset": "Address of the asset",
          "_strategy": "Address of the Strategy"
        }
      },
      "setAutoAllocateThreshold(uint256)": {
        "details": "Sets the minimum amount of CASH in a mint to trigger an automatic allocation of funds afterwords.",
        "params": {
          "_threshold": "CASH amount with 18 fixed decimals."
        }
      },
      "setMaxSupplyDiff(uint256)": {
        "details": "Sets the maximum allowable difference between total supply and backing assets' value."
      },
      "setPriceProvider(address)": {
        "details": "Set address of price provider.",
        "params": {
          "_priceProvider": "Address of price provider"
        }
      },
      "setRebaseThreshold(uint256)": {
        "details": "Set a minimum amount of CASH in a mint or redeem that triggers a rebase",
        "params": {
          "_threshold": "CASH amount with 18 fixed decimals."
        }
      },
      "setRedeemFeeBps(uint256)": {
        "details": "Set a fee in basis points to be charged for a redeem.",
        "params": {
          "_redeemFeeBps": "Basis point fee to be charged"
        }
      },
      "setStrategistAddr(address)": {
        "details": "Set address of Strategist",
        "params": {
          "_address": "Address of Strategist"
        }
      },
      "setTrusteeAddress(address)": {
        "details": "Sets the trusteeAddress that can receive a portion of yield.      Setting to the zero address disables this feature."
      },
      "setTrusteeFeeBps(uint256)": {
        "details": "Sets the TrusteeFeeBps to the percentage of yield that should be      received in basis points."
      },
      "setVaultBuffer(uint256)": {
        "details": "Set a buffer of assets to keep in the Vault to handle most redemptions without needing to spend gas unwinding assets from a Strategy.",
        "params": {
          "_vaultBuffer": "Percentage using 18 decimals. 100% = 1e18."
        }
      },
      "supportAsset(address)": {
        "details": "Add a supported asset to the contract, i.e. one that can be         to mint CASH.",
        "params": {
          "_asset": "Address of asset"
        }
      },
      "transferGovernance(address)": {
        "details": "Transfers Governance of the contract to a new account (`newGovernor`). Can only be called by the current Governor. Must be claimed for this to complete",
        "params": {
          "_newGovernor": "Address of the new Governor"
        }
      },
      "transferToken(address,uint256)": {
        "details": "Transfer token to governor. Intended for recovering tokens stuck in      contract, i.e. mistaken sends.",
        "params": {
          "_amount": "Amount of the asset to transfer",
          "_asset": "Address for the asset"
        }
      },
      "unpauseCapital()": {
        "details": "Set the deposit paused flag to false to enable capital movement."
      },
      "unpauseRebase()": {
        "details": "Set the deposit paused flag to true to allow rebasing."
      },
      "withdrawAllFromStrategies()": {
        "details": "Withdraws all assets from all the strategies and sends assets to the Vault."
      },
      "withdrawAllFromStrategy(address)": {
        "details": "Withdraws all assets from the strategy and sends assets to the Vault.",
        "params": {
          "_strategyAddr": "Strategy address."
        }
      }
    },
    "version": 1
  },
  "userdoc": {
    "kind": "user",
    "methods": {
      "reallocate(address,address,address[],uint256[])": {
        "notice": "Move assets from one Strategy to another"
      }
    },
    "version": 1
  },
  "storageLayout": {
    "storage": [
      {
        "astId": 29936,
        "contract": "contracts/vault/VaultAdmin.sol:VaultAdmin",
        "label": "initialized",
        "offset": 0,
        "slot": "0",
        "type": "t_bool"
      },
      {
        "astId": 29939,
        "contract": "contracts/vault/VaultAdmin.sol:VaultAdmin",
        "label": "initializing",
        "offset": 1,
        "slot": "0",
        "type": "t_bool"
      },
      {
        "astId": 29979,
        "contract": "contracts/vault/VaultAdmin.sol:VaultAdmin",
        "label": "______gap",
        "offset": 0,
        "slot": "1",
        "type": "t_array(t_uint256)50_storage"
      },
      {
        "astId": 35714,
        "contract": "contracts/vault/VaultAdmin.sol:VaultAdmin",
        "label": "assets",
        "offset": 0,
        "slot": "51",
        "type": "t_mapping(t_address,t_struct(Asset)35709_storage)"
      },
      {
        "astId": 35717,
        "contract": "contracts/vault/VaultAdmin.sol:VaultAdmin",
        "label": "allAssets",
        "offset": 0,
        "slot": "52",
        "type": "t_array(t_address)dyn_storage"
      },
      {
        "astId": 35727,
        "contract": "contracts/vault/VaultAdmin.sol:VaultAdmin",
        "label": "strategies",
        "offset": 0,
        "slot": "53",
        "type": "t_mapping(t_address,t_struct(Strategy)35722_storage)"
      },
      {
        "astId": 35730,
        "contract": "contracts/vault/VaultAdmin.sol:VaultAdmin",
        "label": "allStrategies",
        "offset": 0,
        "slot": "54",
        "type": "t_array(t_address)dyn_storage"
      },
      {
        "astId": 35732,
        "contract": "contracts/vault/VaultAdmin.sol:VaultAdmin",
        "label": "priceProvider",
        "offset": 0,
        "slot": "55",
        "type": "t_address"
      },
      {
        "astId": 35735,
        "contract": "contracts/vault/VaultAdmin.sol:VaultAdmin",
        "label": "rebasePaused",
        "offset": 20,
        "slot": "55",
        "type": "t_bool"
      },
      {
        "astId": 35738,
        "contract": "contracts/vault/VaultAdmin.sol:VaultAdmin",
        "label": "capitalPaused",
        "offset": 21,
        "slot": "55",
        "type": "t_bool"
      },
      {
        "astId": 35740,
        "contract": "contracts/vault/VaultAdmin.sol:VaultAdmin",
        "label": "redeemFeeBps",
        "offset": 0,
        "slot": "56",
        "type": "t_uint256"
      },
      {
        "astId": 35742,
        "contract": "contracts/vault/VaultAdmin.sol:VaultAdmin",
        "label": "labsAddress",
        "offset": 0,
        "slot": "57",
        "type": "t_address"
      },
      {
        "astId": 35744,
        "contract": "contracts/vault/VaultAdmin.sol:VaultAdmin",
        "label": "labsFeeBps",
        "offset": 0,
        "slot": "58",
        "type": "t_uint256"
      },
      {
        "astId": 35746,
        "contract": "contracts/vault/VaultAdmin.sol:VaultAdmin",
        "label": "teamAddress",
        "offset": 0,
        "slot": "59",
        "type": "t_address"
      },
      {
        "astId": 35748,
        "contract": "contracts/vault/VaultAdmin.sol:VaultAdmin",
        "label": "teamFeeBps",
        "offset": 0,
        "slot": "60",
        "type": "t_uint256"
      },
      {
        "astId": 35750,
        "contract": "contracts/vault/VaultAdmin.sol:VaultAdmin",
        "label": "vaultBuffer",
        "offset": 0,
        "slot": "61",
        "type": "t_uint256"
      },
      {
        "astId": 35752,
        "contract": "contracts/vault/VaultAdmin.sol:VaultAdmin",
        "label": "autoAllocateThreshold",
        "offset": 0,
        "slot": "62",
        "type": "t_uint256"
      },
      {
        "astId": 35754,
        "contract": "contracts/vault/VaultAdmin.sol:VaultAdmin",
        "label": "rebaseThreshold",
        "offset": 0,
        "slot": "63",
        "type": "t_uint256"
      },
      {
        "astId": 35757,
        "contract": "contracts/vault/VaultAdmin.sol:VaultAdmin",
        "label": "cash",
        "offset": 0,
        "slot": "64",
        "type": "t_contract(CASH)29225"
      },
      {
        "astId": 35766,
        "contract": "contracts/vault/VaultAdmin.sol:VaultAdmin",
        "label": "_deprecated_rebaseHooksAddr",
        "offset": 0,
        "slot": "65",
        "type": "t_address"
      },
      {
        "astId": 35772,
        "contract": "contracts/vault/VaultAdmin.sol:VaultAdmin",
        "label": "_deprecated_uniswapAddr",
        "offset": 0,
        "slot": "66",
        "type": "t_address"
      },
      {
        "astId": 35778,
        "contract": "contracts/vault/VaultAdmin.sol:VaultAdmin",
        "label": "strategistAddr",
        "offset": 0,
        "slot": "67",
        "type": "t_address"
      },
      {
        "astId": 35782,
        "contract": "contracts/vault/VaultAdmin.sol:VaultAdmin",
        "label": "assetDefaultStrategies",
        "offset": 0,
        "slot": "68",
        "type": "t_mapping(t_address,t_address)"
      },
      {
        "astId": 35784,
        "contract": "contracts/vault/VaultAdmin.sol:VaultAdmin",
        "label": "maxSupplyDiff",
        "offset": 0,
        "slot": "69",
        "type": "t_uint256"
      },
      {
        "astId": 35786,
        "contract": "contracts/vault/VaultAdmin.sol:VaultAdmin",
        "label": "trusteeAddress",
        "offset": 0,
        "slot": "70",
        "type": "t_address"
      },
      {
        "astId": 35788,
        "contract": "contracts/vault/VaultAdmin.sol:VaultAdmin",
        "label": "trusteeFeeBps",
        "offset": 0,
        "slot": "71",
        "type": "t_uint256"
      },
      {
        "astId": 35791,
        "contract": "contracts/vault/VaultAdmin.sol:VaultAdmin",
        "label": "_deprecated_swapTokens",
        "offset": 0,
        "slot": "72",
        "type": "t_array(t_address)dyn_storage"
      },
      {
        "astId": 35796,
        "contract": "contracts/vault/VaultAdmin.sol:VaultAdmin",
        "label": "primaryStableAddress",
        "offset": 0,
        "slot": "73",
        "type": "t_address"
      },
      {
        "astId": 35799,
        "contract": "contracts/vault/VaultAdmin.sol:VaultAdmin",
        "label": "quickDepositStrategies",
        "offset": 0,
        "slot": "74",
        "type": "t_array(t_address)dyn_storage"
      },
      {
        "astId": 35801,
        "contract": "contracts/vault/VaultAdmin.sol:VaultAdmin",
        "label": "balancerVault",
        "offset": 0,
        "slot": "75",
        "type": "t_address"
      },
      {
        "astId": 35803,
        "contract": "contracts/vault/VaultAdmin.sol:VaultAdmin",
        "label": "balancerPoolId",
        "offset": 0,
        "slot": "76",
        "type": "t_bytes32"
      },
      {
        "astId": 35805,
        "contract": "contracts/vault/VaultAdmin.sol:VaultAdmin",
        "label": "harvesterAddress",
        "offset": 0,
        "slot": "77",
        "type": "t_address"
      },
      {
        "astId": 35807,
        "contract": "contracts/vault/VaultAdmin.sol:VaultAdmin",
        "label": "dripperAddress",
        "offset": 0,
        "slot": "78",
        "type": "t_address"
      },
      {
        "astId": 35824,
        "contract": "contracts/vault/VaultAdmin.sol:VaultAdmin",
        "label": "strategyWithWeightPositions",
        "offset": 0,
        "slot": "79",
        "type": "t_mapping(t_address,t_uint256)"
      },
      {
        "astId": 35828,
        "contract": "contracts/vault/VaultAdmin.sol:VaultAdmin",
        "label": "strategyWithWeights",
        "offset": 0,
        "slot": "80",
        "type": "t_array(t_struct(StrategyWithWeight)35820_storage)dyn_storage"
      }
    ],
    "types": {
      "t_address": {
        "encoding": "inplace",
        "label": "address",
        "numberOfBytes": "20"
      },
      "t_array(t_address)dyn_storage": {
        "base": "t_address",
        "encoding": "dynamic_array",
        "label": "address[]",
        "numberOfBytes": "32"
      },
      "t_array(t_struct(StrategyWithWeight)35820_storage)dyn_storage": {
        "base": "t_struct(StrategyWithWeight)35820_storage",
        "encoding": "dynamic_array",
        "label": "struct VaultStorage.StrategyWithWeight[]",
        "numberOfBytes": "32"
      },
      "t_array(t_uint256)50_storage": {
        "base": "t_uint256",
        "encoding": "inplace",
        "label": "uint256[50]",
        "numberOfBytes": "1600"
      },
      "t_bool": {
        "encoding": "inplace",
        "label": "bool",
        "numberOfBytes": "1"
      },
      "t_bytes32": {
        "encoding": "inplace",
        "label": "bytes32",
        "numberOfBytes": "32"
      },
      "t_contract(CASH)29225": {
        "encoding": "inplace",
        "label": "contract CASH",
        "numberOfBytes": "20"
      },
      "t_mapping(t_address,t_address)": {
        "encoding": "mapping",
        "key": "t_address",
        "label": "mapping(address => address)",
        "numberOfBytes": "32",
        "value": "t_address"
      },
      "t_mapping(t_address,t_struct(Asset)35709_storage)": {
        "encoding": "mapping",
        "key": "t_address",
        "label": "mapping(address => struct VaultStorage.Asset)",
        "numberOfBytes": "32",
        "value": "t_struct(Asset)35709_storage"
      },
      "t_mapping(t_address,t_struct(Strategy)35722_storage)": {
        "encoding": "mapping",
        "key": "t_address",
        "label": "mapping(address => struct VaultStorage.Strategy)",
        "numberOfBytes": "32",
        "value": "t_struct(Strategy)35722_storage"
      },
      "t_mapping(t_address,t_uint256)": {
        "encoding": "mapping",
        "key": "t_address",
        "label": "mapping(address => uint256)",
        "numberOfBytes": "32",
        "value": "t_uint256"
      },
      "t_struct(Asset)35709_storage": {
        "encoding": "inplace",
        "label": "struct VaultStorage.Asset",
        "members": [
          {
            "astId": 35708,
            "contract": "contracts/vault/VaultAdmin.sol:VaultAdmin",
            "label": "isSupported",
            "offset": 0,
            "slot": "0",
            "type": "t_bool"
          }
        ],
        "numberOfBytes": "32"
      },
      "t_struct(Strategy)35722_storage": {
        "encoding": "inplace",
        "label": "struct VaultStorage.Strategy",
        "members": [
          {
            "astId": 35719,
            "contract": "contracts/vault/VaultAdmin.sol:VaultAdmin",
            "label": "isSupported",
            "offset": 0,
            "slot": "0",
            "type": "t_bool"
          },
          {
            "astId": 35721,
            "contract": "contracts/vault/VaultAdmin.sol:VaultAdmin",
            "label": "_deprecated",
            "offset": 0,
            "slot": "1",
            "type": "t_uint256"
          }
        ],
        "numberOfBytes": "64"
      },
      "t_struct(StrategyWithWeight)35820_storage": {
        "encoding": "inplace",
        "label": "struct VaultStorage.StrategyWithWeight",
        "members": [
          {
            "astId": 35809,
            "contract": "contracts/vault/VaultAdmin.sol:VaultAdmin",
            "label": "strategy",
            "offset": 0,
            "slot": "0",
            "type": "t_address"
          },
          {
            "astId": 35811,
            "contract": "contracts/vault/VaultAdmin.sol:VaultAdmin",
            "label": "minWeight",
            "offset": 0,
            "slot": "1",
            "type": "t_uint256"
          },
          {
            "astId": 35813,
            "contract": "contracts/vault/VaultAdmin.sol:VaultAdmin",
            "label": "targetWeight",
            "offset": 0,
            "slot": "2",
            "type": "t_uint256"
          },
          {
            "astId": 35815,
            "contract": "contracts/vault/VaultAdmin.sol:VaultAdmin",
            "label": "maxWeight",
            "offset": 0,
            "slot": "3",
            "type": "t_uint256"
          },
          {
            "astId": 35817,
            "contract": "contracts/vault/VaultAdmin.sol:VaultAdmin",
            "label": "enabled",
            "offset": 0,
            "slot": "4",
            "type": "t_bool"
          },
          {
            "astId": 35819,
            "contract": "contracts/vault/VaultAdmin.sol:VaultAdmin",
            "label": "enabledReward",
            "offset": 1,
            "slot": "4",
            "type": "t_bool"
          }
        ],
        "numberOfBytes": "160"
      },
      "t_uint256": {
        "encoding": "inplace",
        "label": "uint256",
        "numberOfBytes": "32"
      }
    }
  }
}