{
  "address": "0x7A6246fFb23228d960D978CF624327F005781D79",
  "abi": [
    {
      "anonymous": false,
      "inputs": [
        {
          "indexed": false,
          "internalType": "uint256",
          "name": "_threshold",
          "type": "uint256"
        }
      ],
      "name": "AllocateThresholdUpdated",
      "type": "event"
    },
    {
      "anonymous": false,
      "inputs": [
        {
          "indexed": false,
          "internalType": "address",
          "name": "_asset",
          "type": "address"
        },
        {
          "indexed": false,
          "internalType": "address",
          "name": "_strategy",
          "type": "address"
        },
        {
          "indexed": false,
          "internalType": "uint256",
          "name": "_amount",
          "type": "uint256"
        }
      ],
      "name": "AssetAllocated",
      "type": "event"
    },
    {
      "anonymous": false,
      "inputs": [
        {
          "indexed": false,
          "internalType": "address",
          "name": "_asset",
          "type": "address"
        },
        {
          "indexed": false,
          "internalType": "address",
          "name": "_strategy",
          "type": "address"
        }
      ],
      "name": "AssetDefaultStrategyUpdated",
      "type": "event"
    },
    {
      "anonymous": false,
      "inputs": [
        {
          "indexed": false,
          "internalType": "address",
          "name": "_asset",
          "type": "address"
        }
      ],
      "name": "AssetSupported",
      "type": "event"
    },
    {
      "anonymous": false,
      "inputs": [],
      "name": "CapitalPaused",
      "type": "event"
    },
    {
      "anonymous": false,
      "inputs": [],
      "name": "CapitalUnpaused",
      "type": "event"
    },
    {
      "anonymous": false,
      "inputs": [
        {
          "indexed": true,
          "internalType": "address",
          "name": "previousGovernor",
          "type": "address"
        },
        {
          "indexed": true,
          "internalType": "address",
          "name": "newGovernor",
          "type": "address"
        }
      ],
      "name": "GovernorshipTransferred",
      "type": "event"
    },
    {
      "anonymous": false,
      "inputs": [
        {
          "indexed": false,
          "internalType": "uint256",
          "name": "maxSupplyDiff",
          "type": "uint256"
        }
      ],
      "name": "MaxSupplyDiffChanged",
      "type": "event"
    },
    {
      "anonymous": false,
      "inputs": [
        {
          "indexed": false,
          "internalType": "address",
          "name": "_addr",
          "type": "address"
        },
        {
          "indexed": false,
          "internalType": "uint256",
          "name": "_value",
          "type": "uint256"
        }
      ],
      "name": "Mint",
      "type": "event"
    },
    {
      "anonymous": false,
      "inputs": [
        {
          "indexed": true,
          "internalType": "address",
          "name": "previousGovernor",
          "type": "address"
        },
        {
          "indexed": true,
          "internalType": "address",
          "name": "newGovernor",
          "type": "address"
        }
      ],
      "name": "PendingGovernorshipTransfer",
      "type": "event"
    },
    {
      "anonymous": false,
      "inputs": [
        {
          "indexed": false,
          "internalType": "address",
          "name": "_priceProvider",
          "type": "address"
        }
      ],
      "name": "PriceProviderUpdated",
      "type": "event"
    },
    {
      "anonymous": false,
      "inputs": [],
      "name": "RebasePaused",
      "type": "event"
    },
    {
      "anonymous": false,
      "inputs": [
        {
          "indexed": false,
          "internalType": "uint256",
          "name": "_threshold",
          "type": "uint256"
        }
      ],
      "name": "RebaseThresholdUpdated",
      "type": "event"
    },
    {
      "anonymous": false,
      "inputs": [],
      "name": "RebaseUnpaused",
      "type": "event"
    },
    {
      "anonymous": false,
      "inputs": [
        {
          "indexed": false,
          "internalType": "address",
          "name": "_addr",
          "type": "address"
        },
        {
          "indexed": false,
          "internalType": "uint256",
          "name": "_value",
          "type": "uint256"
        }
      ],
      "name": "Redeem",
      "type": "event"
    },
    {
      "anonymous": false,
      "inputs": [
        {
          "indexed": false,
          "internalType": "uint256",
          "name": "_redeemFeeBps",
          "type": "uint256"
        }
      ],
      "name": "RedeemFeeUpdated",
      "type": "event"
    },
    {
      "anonymous": false,
      "inputs": [
        {
          "indexed": false,
          "internalType": "address",
          "name": "_address",
          "type": "address"
        }
      ],
      "name": "StrategistUpdated",
      "type": "event"
    },
    {
      "anonymous": false,
      "inputs": [
        {
          "indexed": false,
          "internalType": "address",
          "name": "_addr",
          "type": "address"
        }
      ],
      "name": "StrategyApproved",
      "type": "event"
    },
    {
      "anonymous": false,
      "inputs": [
        {
          "indexed": false,
          "internalType": "address",
          "name": "_addr",
          "type": "address"
        }
      ],
      "name": "StrategyRemoved",
      "type": "event"
    },
    {
      "anonymous": false,
      "inputs": [
        {
          "indexed": false,
          "internalType": "address",
          "name": "_address",
          "type": "address"
        }
      ],
      "name": "TrusteeAddressChanged",
      "type": "event"
    },
    {
      "anonymous": false,
      "inputs": [
        {
          "indexed": false,
          "internalType": "uint256",
          "name": "_basis",
          "type": "uint256"
        }
      ],
      "name": "TrusteeFeeBpsChanged",
      "type": "event"
    },
    {
      "anonymous": false,
      "inputs": [
        {
          "indexed": false,
          "internalType": "uint256",
          "name": "_vaultBuffer",
          "type": "uint256"
        }
      ],
      "name": "VaultBufferUpdated",
      "type": "event"
    },
    {
      "anonymous": false,
      "inputs": [
        {
          "indexed": false,
          "internalType": "address",
          "name": "_to",
          "type": "address"
        },
        {
          "indexed": false,
          "internalType": "uint256",
          "name": "_yield",
          "type": "uint256"
        },
        {
          "indexed": false,
          "internalType": "uint256",
          "name": "_fee",
          "type": "uint256"
        }
      ],
      "name": "YieldDistribution",
      "type": "event"
    },
    {
      "inputs": [],
      "name": "TOTAL_WEIGHT",
      "outputs": [
        {
          "internalType": "uint256",
          "name": "",
          "type": "uint256"
        }
      ],
      "stateMutability": "view",
      "type": "function"
    },
    {
      "inputs": [
        {
          "internalType": "address",
          "name": "_addr",
          "type": "address"
        }
      ],
      "name": "approveStrategy",
      "outputs": [],
      "stateMutability": "nonpayable",
      "type": "function"
    },
    {
      "inputs": [
        {
          "internalType": "address",
          "name": "",
          "type": "address"
        }
      ],
      "name": "assetDefaultStrategies",
      "outputs": [
        {
          "internalType": "address",
          "name": "",
          "type": "address"
        }
      ],
      "stateMutability": "view",
      "type": "function"
    },
    {
      "inputs": [],
      "name": "autoAllocateThreshold",
      "outputs": [
        {
          "internalType": "uint256",
          "name": "",
          "type": "uint256"
        }
      ],
      "stateMutability": "view",
      "type": "function"
    },
    {
      "inputs": [],
      "name": "balance",
      "outputs": [],
      "stateMutability": "nonpayable",
      "type": "function"
    },
    {
      "inputs": [],
      "name": "balancerPoolId",
      "outputs": [
        {
          "internalType": "bytes32",
          "name": "",
          "type": "bytes32"
        }
      ],
      "stateMutability": "view",
      "type": "function"
    },
    {
      "inputs": [],
      "name": "balancerVault",
      "outputs": [
        {
          "internalType": "address",
          "name": "",
          "type": "address"
        }
      ],
      "stateMutability": "view",
      "type": "function"
    },
    {
      "inputs": [],
      "name": "capitalPaused",
      "outputs": [
        {
          "internalType": "bool",
          "name": "",
          "type": "bool"
        }
      ],
      "stateMutability": "view",
      "type": "function"
    },
    {
      "inputs": [],
      "name": "claimGovernance",
      "outputs": [],
      "stateMutability": "nonpayable",
      "type": "function"
    },
    {
      "inputs": [],
      "name": "dripperAddress",
      "outputs": [
        {
          "internalType": "address",
          "name": "",
          "type": "address"
        }
      ],
      "stateMutability": "view",
      "type": "function"
    },
    {
      "inputs": [],
      "name": "getAllStrategyWithWeights",
      "outputs": [
        {
          "components": [
            {
              "internalType": "address",
              "name": "strategy",
              "type": "address"
            },
            {
              "internalType": "uint256",
              "name": "minWeight",
              "type": "uint256"
            },
            {
              "internalType": "uint256",
              "name": "targetWeight",
              "type": "uint256"
            },
            {
              "internalType": "uint256",
              "name": "maxWeight",
              "type": "uint256"
            },
            {
              "internalType": "bool",
              "name": "enabled",
              "type": "bool"
            },
            {
              "internalType": "bool",
              "name": "enabledReward",
              "type": "bool"
            }
          ],
          "internalType": "struct VaultStorage.StrategyWithWeight[]",
          "name": "",
          "type": "tuple[]"
        }
      ],
      "stateMutability": "view",
      "type": "function"
    },
    {
      "inputs": [],
      "name": "getFeeParams",
      "outputs": [
        {
          "internalType": "address",
          "name": "",
          "type": "address"
        },
        {
          "internalType": "uint256",
          "name": "",
          "type": "uint256"
        },
        {
          "internalType": "address",
          "name": "",
          "type": "address"
        },
        {
          "internalType": "uint256",
          "name": "",
          "type": "uint256"
        }
      ],
      "stateMutability": "view",
      "type": "function"
    },
    {
      "inputs": [
        {
          "internalType": "address",
          "name": "strategy",
          "type": "address"
        }
      ],
      "name": "getStrategyWithWeight",
      "outputs": [
        {
          "components": [
            {
              "internalType": "address",
              "name": "strategy",
              "type": "address"
            },
            {
              "internalType": "uint256",
              "name": "minWeight",
              "type": "uint256"
            },
            {
              "internalType": "uint256",
              "name": "targetWeight",
              "type": "uint256"
            },
            {
              "internalType": "uint256",
              "name": "maxWeight",
              "type": "uint256"
            },
            {
              "internalType": "bool",
              "name": "enabled",
              "type": "bool"
            },
            {
              "internalType": "bool",
              "name": "enabledReward",
              "type": "bool"
            }
          ],
          "internalType": "struct VaultStorage.StrategyWithWeight",
          "name": "",
          "type": "tuple"
        }
      ],
      "stateMutability": "view",
      "type": "function"
    },
    {
      "inputs": [],
      "name": "governor",
      "outputs": [
        {
          "internalType": "address",
          "name": "",
          "type": "address"
        }
      ],
      "stateMutability": "view",
      "type": "function"
    },
    {
      "inputs": [],
      "name": "harvesterAddress",
      "outputs": [
        {
          "internalType": "address",
          "name": "",
          "type": "address"
        }
      ],
      "stateMutability": "view",
      "type": "function"
    },
    {
      "inputs": [
        {
          "internalType": "address",
          "name": "_priceProvider",
          "type": "address"
        },
        {
          "internalType": "address",
          "name": "_cash",
          "type": "address"
        }
      ],
      "name": "initialize",
      "outputs": [],
      "stateMutability": "nonpayable",
      "type": "function"
    },
    {
      "inputs": [],
      "name": "isGovernor",
      "outputs": [
        {
          "internalType": "bool",
          "name": "",
          "type": "bool"
        }
      ],
      "stateMutability": "view",
      "type": "function"
    },
    {
      "inputs": [],
      "name": "labsAddress",
      "outputs": [
        {
          "internalType": "address",
          "name": "",
          "type": "address"
        }
      ],
      "stateMutability": "view",
      "type": "function"
    },
    {
      "inputs": [],
      "name": "labsFeeBps",
      "outputs": [
        {
          "internalType": "uint256",
          "name": "",
          "type": "uint256"
        }
      ],
      "stateMutability": "view",
      "type": "function"
    },
    {
      "inputs": [],
      "name": "maxSupplyDiff",
      "outputs": [
        {
          "internalType": "uint256",
          "name": "",
          "type": "uint256"
        }
      ],
      "stateMutability": "view",
      "type": "function"
    },
    {
      "inputs": [],
      "name": "pauseCapital",
      "outputs": [],
      "stateMutability": "nonpayable",
      "type": "function"
    },
    {
      "inputs": [],
      "name": "pauseRebase",
      "outputs": [],
      "stateMutability": "nonpayable",
      "type": "function"
    },
    {
      "inputs": [],
      "name": "payout",
      "outputs": [],
      "stateMutability": "nonpayable",
      "type": "function"
    },
    {
      "inputs": [],
      "name": "priceProvider",
      "outputs": [
        {
          "internalType": "address",
          "name": "",
          "type": "address"
        }
      ],
      "stateMutability": "view",
      "type": "function"
    },
    {
      "inputs": [
        {
          "internalType": "address",
          "name": "asset",
          "type": "address"
        }
      ],
      "name": "priceUSDMint",
      "outputs": [
        {
          "internalType": "uint256",
          "name": "",
          "type": "uint256"
        }
      ],
      "stateMutability": "view",
      "type": "function"
    },
    {
      "inputs": [
        {
          "internalType": "address",
          "name": "asset",
          "type": "address"
        }
      ],
      "name": "priceUSDRedeem",
      "outputs": [
        {
          "internalType": "uint256",
          "name": "",
          "type": "uint256"
        }
      ],
      "stateMutability": "view",
      "type": "function"
    },
    {
      "inputs": [],
      "name": "primaryStableAddress",
      "outputs": [
        {
          "internalType": "address",
          "name": "",
          "type": "address"
        }
      ],
      "stateMutability": "view",
      "type": "function"
    },
    {
      "inputs": [
        {
          "internalType": "uint256",
          "name": "",
          "type": "uint256"
        }
      ],
      "name": "quickDepositStrategies",
      "outputs": [
        {
          "internalType": "address",
          "name": "",
          "type": "address"
        }
      ],
      "stateMutability": "view",
      "type": "function"
    },
    {
      "inputs": [
        {
          "internalType": "address",
          "name": "_strategyFromAddress",
          "type": "address"
        },
        {
          "internalType": "address",
          "name": "_strategyToAddress",
          "type": "address"
        },
        {
          "internalType": "address[]",
          "name": "_assets",
          "type": "address[]"
        },
        {
          "internalType": "uint256[]",
          "name": "_amounts",
          "type": "uint256[]"
        }
      ],
      "name": "reallocate",
      "outputs": [],
      "stateMutability": "nonpayable",
      "type": "function"
    },
    {
      "inputs": [],
      "name": "rebasePaused",
      "outputs": [
        {
          "internalType": "bool",
          "name": "",
          "type": "bool"
        }
      ],
      "stateMutability": "view",
      "type": "function"
    },
    {
      "inputs": [],
      "name": "rebaseThreshold",
      "outputs": [
        {
          "internalType": "uint256",
          "name": "",
          "type": "uint256"
        }
      ],
      "stateMutability": "view",
      "type": "function"
    },
    {
      "inputs": [],
      "name": "redeemFeeBps",
      "outputs": [
        {
          "internalType": "uint256",
          "name": "",
          "type": "uint256"
        }
      ],
      "stateMutability": "view",
      "type": "function"
    },
    {
      "inputs": [
        {
          "internalType": "address",
          "name": "_addr",
          "type": "address"
        }
      ],
      "name": "removeStrategy",
      "outputs": [],
      "stateMutability": "nonpayable",
      "type": "function"
    },
    {
      "inputs": [
        {
          "internalType": "address",
          "name": "newImpl",
          "type": "address"
        }
      ],
      "name": "setAdminImpl",
      "outputs": [],
      "stateMutability": "nonpayable",
      "type": "function"
    },
    {
      "inputs": [
        {
          "internalType": "address",
          "name": "_asset",
          "type": "address"
        },
        {
          "internalType": "address",
          "name": "_strategy",
          "type": "address"
        }
      ],
      "name": "setAssetDefaultStrategy",
      "outputs": [],
      "stateMutability": "nonpayable",
      "type": "function"
    },
    {
      "inputs": [
        {
          "internalType": "uint256",
          "name": "_threshold",
          "type": "uint256"
        }
      ],
      "name": "setAutoAllocateThreshold",
      "outputs": [],
      "stateMutability": "nonpayable",
      "type": "function"
    },
    {
      "inputs": [
        {
          "internalType": "address",
          "name": "_dripper",
          "type": "address"
        }
      ],
      "name": "setDripper",
      "outputs": [],
      "stateMutability": "nonpayable",
      "type": "function"
    },
    {
      "inputs": [
        {
          "internalType": "address",
          "name": "_labsAddress",
          "type": "address"
        },
        {
          "internalType": "uint256",
          "name": "_labsFeeBps",
          "type": "uint256"
        },
        {
          "internalType": "address",
          "name": "_teamAddress",
          "type": "address"
        },
        {
          "internalType": "uint256",
          "name": "_teamFeeBps",
          "type": "uint256"
        }
      ],
      "name": "setFeeParams",
      "outputs": [],
      "stateMutability": "nonpayable",
      "type": "function"
    },
    {
      "inputs": [
        {
          "internalType": "address",
          "name": "_harvester",
          "type": "address"
        }
      ],
      "name": "setHarvester",
      "outputs": [],
      "stateMutability": "nonpayable",
      "type": "function"
    },
    {
      "inputs": [
        {
          "internalType": "uint256",
          "name": "_maxSupplyDiff",
          "type": "uint256"
        }
      ],
      "name": "setMaxSupplyDiff",
      "outputs": [],
      "stateMutability": "nonpayable",
      "type": "function"
    },
    {
      "inputs": [
        {
          "internalType": "address",
          "name": "_priceProvider",
          "type": "address"
        }
      ],
      "name": "setPriceProvider",
      "outputs": [],
      "stateMutability": "nonpayable",
      "type": "function"
    },
    {
      "inputs": [
        {
          "internalType": "address",
          "name": "_primaryStable",
          "type": "address"
        }
      ],
      "name": "setPrimaryStable",
      "outputs": [],
      "stateMutability": "nonpayable",
      "type": "function"
    },
    {
      "inputs": [
        {
          "internalType": "address[]",
          "name": "_quickDepositStrategies",
          "type": "address[]"
        }
      ],
      "name": "setQuickDepositStrategies",
      "outputs": [],
      "stateMutability": "nonpayable",
      "type": "function"
    },
    {
      "inputs": [
        {
          "internalType": "uint256",
          "name": "_threshold",
          "type": "uint256"
        }
      ],
      "name": "setRebaseThreshold",
      "outputs": [],
      "stateMutability": "nonpayable",
      "type": "function"
    },
    {
      "inputs": [
        {
          "internalType": "uint256",
          "name": "_redeemFeeBps",
          "type": "uint256"
        }
      ],
      "name": "setRedeemFeeBps",
      "outputs": [],
      "stateMutability": "nonpayable",
      "type": "function"
    },
    {
      "inputs": [
        {
          "internalType": "address",
          "name": "_address",
          "type": "address"
        }
      ],
      "name": "setStrategistAddr",
      "outputs": [],
      "stateMutability": "nonpayable",
      "type": "function"
    },
    {
      "inputs": [
        {
          "components": [
            {
              "internalType": "address",
              "name": "strategy",
              "type": "address"
            },
            {
              "internalType": "uint256",
              "name": "minWeight",
              "type": "uint256"
            },
            {
              "internalType": "uint256",
              "name": "targetWeight",
              "type": "uint256"
            },
            {
              "internalType": "uint256",
              "name": "maxWeight",
              "type": "uint256"
            },
            {
              "internalType": "bool",
              "name": "enabled",
              "type": "bool"
            },
            {
              "internalType": "bool",
              "name": "enabledReward",
              "type": "bool"
            }
          ],
          "internalType": "struct VaultStorage.StrategyWithWeight[]",
          "name": "_strategyWithWeights",
          "type": "tuple[]"
        }
      ],
      "name": "setStrategyWithWeights",
      "outputs": [],
      "stateMutability": "nonpayable",
      "type": "function"
    },
    {
      "inputs": [
        {
          "internalType": "address",
          "name": "_balancerVault",
          "type": "address"
        },
        {
          "internalType": "bytes32",
          "name": "_balancerPoolId",
          "type": "bytes32"
        }
      ],
      "name": "setSwapper",
      "outputs": [],
      "stateMutability": "nonpayable",
      "type": "function"
    },
    {
      "inputs": [
        {
          "internalType": "address",
          "name": "_address",
          "type": "address"
        }
      ],
      "name": "setTrusteeAddress",
      "outputs": [],
      "stateMutability": "nonpayable",
      "type": "function"
    },
    {
      "inputs": [
        {
          "internalType": "uint256",
          "name": "_basis",
          "type": "uint256"
        }
      ],
      "name": "setTrusteeFeeBps",
      "outputs": [],
      "stateMutability": "nonpayable",
      "type": "function"
    },
    {
      "inputs": [
        {
          "internalType": "uint256",
          "name": "_vaultBuffer",
          "type": "uint256"
        }
      ],
      "name": "setVaultBuffer",
      "outputs": [],
      "stateMutability": "nonpayable",
      "type": "function"
    },
    {
      "inputs": [],
      "name": "strategistAddr",
      "outputs": [
        {
          "internalType": "address",
          "name": "",
          "type": "address"
        }
      ],
      "stateMutability": "view",
      "type": "function"
    },
    {
      "inputs": [
        {
          "internalType": "address",
          "name": "",
          "type": "address"
        }
      ],
      "name": "strategyWithWeightPositions",
      "outputs": [
        {
          "internalType": "uint256",
          "name": "",
          "type": "uint256"
        }
      ],
      "stateMutability": "view",
      "type": "function"
    },
    {
      "inputs": [
        {
          "internalType": "uint256",
          "name": "",
          "type": "uint256"
        }
      ],
      "name": "strategyWithWeights",
      "outputs": [
        {
          "internalType": "address",
          "name": "strategy",
          "type": "address"
        },
        {
          "internalType": "uint256",
          "name": "minWeight",
          "type": "uint256"
        },
        {
          "internalType": "uint256",
          "name": "targetWeight",
          "type": "uint256"
        },
        {
          "internalType": "uint256",
          "name": "maxWeight",
          "type": "uint256"
        },
        {
          "internalType": "bool",
          "name": "enabled",
          "type": "bool"
        },
        {
          "internalType": "bool",
          "name": "enabledReward",
          "type": "bool"
        }
      ],
      "stateMutability": "view",
      "type": "function"
    },
    {
      "inputs": [
        {
          "internalType": "address",
          "name": "_asset",
          "type": "address"
        }
      ],
      "name": "supportAsset",
      "outputs": [],
      "stateMutability": "nonpayable",
      "type": "function"
    },
    {
      "inputs": [],
      "name": "teamAddress",
      "outputs": [
        {
          "internalType": "address",
          "name": "",
          "type": "address"
        }
      ],
      "stateMutability": "view",
      "type": "function"
    },
    {
      "inputs": [],
      "name": "teamFeeBps",
      "outputs": [
        {
          "internalType": "uint256",
          "name": "",
          "type": "uint256"
        }
      ],
      "stateMutability": "view",
      "type": "function"
    },
    {
      "inputs": [
        {
          "internalType": "address",
          "name": "_newGovernor",
          "type": "address"
        }
      ],
      "name": "transferGovernance",
      "outputs": [],
      "stateMutability": "nonpayable",
      "type": "function"
    },
    {
      "inputs": [
        {
          "internalType": "address",
          "name": "_asset",
          "type": "address"
        },
        {
          "internalType": "uint256",
          "name": "_amount",
          "type": "uint256"
        }
      ],
      "name": "transferToken",
      "outputs": [],
      "stateMutability": "nonpayable",
      "type": "function"
    },
    {
      "inputs": [],
      "name": "trusteeAddress",
      "outputs": [
        {
          "internalType": "address",
          "name": "",
          "type": "address"
        }
      ],
      "stateMutability": "view",
      "type": "function"
    },
    {
      "inputs": [],
      "name": "trusteeFeeBps",
      "outputs": [
        {
          "internalType": "uint256",
          "name": "",
          "type": "uint256"
        }
      ],
      "stateMutability": "view",
      "type": "function"
    },
    {
      "inputs": [],
      "name": "unpauseCapital",
      "outputs": [],
      "stateMutability": "nonpayable",
      "type": "function"
    },
    {
      "inputs": [],
      "name": "unpauseRebase",
      "outputs": [],
      "stateMutability": "nonpayable",
      "type": "function"
    },
    {
      "inputs": [],
      "name": "vaultBuffer",
      "outputs": [
        {
          "internalType": "uint256",
          "name": "",
          "type": "uint256"
        }
      ],
      "stateMutability": "view",
      "type": "function"
    },
    {
      "inputs": [],
      "name": "withdrawAllFromStrategies",
      "outputs": [],
      "stateMutability": "nonpayable",
      "type": "function"
    },
    {
      "inputs": [
        {
          "internalType": "address",
          "name": "_strategyAddr",
          "type": "address"
        }
      ],
      "name": "withdrawAllFromStrategy",
      "outputs": [],
      "stateMutability": "nonpayable",
      "type": "function"
    }
  ],
  "transactionHash": "0x59ed1eb8ca503fc1f197717f1b1e4d728a1608caf91956b3907a506f1a9ec3b6",
  "args": [],
  "solcInputHash": "21e539b6454284b2052086356451bf82",
  "bytecode": "0x60806040526037805461ffff60a01b1916600160a81b179055604180546001600160a01b031990811690915560428054821690556043805490911690553480156200004957600080fd5b50620000623360008051602062004c6783398151915255565b60008051602062004c67833981519152546040516001600160a01b03909116906000907fc7c0c772add429241571afb3805861fb3cfa2af374534088b76cdb4325a87e9a908290a3614bad80620000ba6000396000f3fe608060405234801561001057600080fd5b50600436106103e65760003560e01c8063607f226d1161020a578063b69ef8a811610125578063c9919112116100b8578063dbbb64b911610087578063dbbb64b91461088c578063e6cc543214610895578063eb03654b146108a9578063ed2a2f9d146108bc578063fc0cfeee146108c657600080fd5b8063c99191121461080e578063cc18f12d14610816578063cc51656b14610864578063d38bfff41461087957600080fd5b8063be6fc181116100f4578063be6fc1811461079e578063c46b3dc4146107de578063c5f00841146107fe578063c7af33521461080657600080fd5b8063b69ef8a81461075d578063b888879e14610765578063b890ebf614610778578063bc90106b1461078b57600080fd5b80638e510b521161019d5780639fa1826e1161016c5780639fa1826e14610705578063a403e4d51461070e578063a5d52e5a14610737578063b2c9336d1461074a57600080fd5b80638e510b52146106d85780638ec489a2146106e15780638ffa4618146106f457806394828ffd146106fd57600080fd5b8063773540b3116101d9578063773540b3146106965780637fe2d393146106a957806384018942146106bc5780638c5cbb89146106c557600080fd5b8063607f226d1461064857806363bd1d4a14610668578063663e64ce1461067057806367c7066c1461068357600080fd5b80632d1082c8116103055780634cd55c2d11610298578063543fe44211610267578063543fe442146105f4578063545ad78c14610607578063570d8e1d1461061a578063597c89101461062d5780635d36b1901461064057600080fd5b80634cd55c2d146105a15780634f2d7d6f146105b457806352d38e5d146105c757806353ca9f24146105d057600080fd5b80633b8ae397116102d45780633b8ae397146105605780633dbc911f14610573578063485cc9551461057b57806349c1d54d1461058e57600080fd5b80632d1082c8146105145780632da845a8146105275780632e9958ab1461053a578063372aa2241461054d57600080fd5b806315de1daa1161037d5780631c75f0851161034c5780631c75f085146104dc5780631edfe3da146104ef578063207134b0146104f85780632a47852f1461050157600080fd5b806315de1daa146104905780631648059b146104a3578063175188e8146104b657806318802403146104c957600080fd5b80630c340a24116103b95780630c340a241461044f5780631072cbea1461045757806310d3fdac1461046a578063158274a51461047d57600080fd5b806309f49bf5146103eb57806309f6442c146103f55780630acbda75146104115780630bf4136114610424575b600080fd5b6103f36108d9565b005b6103fe60385481565b6040519081526020015b60405180910390f35b6103f361041f3660046145bf565b61093e565b6104376104323660046145bf565b6109f0565b6040516001600160a01b039091168152602001610408565b610437610a1a565b6103f36104653660046143e5565b610a37565b6103fe610478366004614306565b610ae4565b604b54610437906001600160a01b031681565b6103f361049e366004614306565b610bda565b6103f36104b13660046143e5565b610c34565b6103f36104c4366004614306565b610c92565b6103f36104d736600461440f565b610f99565b603b54610437906001600160a01b031681565b6103fe603d5481565b6103fe60475481565b6103f361050f366004614495565b6110c5565b6103f3610522366004614453565b61153b565b6103f3610535366004614306565b611584565b6103f3610548366004614306565b6115f6565b6103f361055b366004614306565b611650565b6103f361056e366004614306565b6116c2565b6103f36117ff565b6103f3610589366004614321565b611875565b604654610437906001600160a01b031681565b6103f36105af366004614306565b611a98565b604954610437906001600160a01b031681565b6103fe603f5481565b6037546105e490600160a01b900460ff1681565b6040519015158152602001610408565b603954610437906001600160a01b031681565b604e54610437906001600160a01b031681565b604354610437906001600160a01b031681565b6103f361063b366004614306565b611c83565b6103f3611d7f565b61065b610656366004614306565b611e25565b604051610408919061480a565b6103f3611eca565b6103f361067e3660046145bf565b611ed2565b604d54610437906001600160a01b031681565b6103f36106a4366004614306565b611f2b565b6103f36106b7366004614354565b611f9d565b6103fe603c5481565b6103fe6106d3366004614306565b612305565b6103fe60455481565b6103f36106ef3660046145bf565b6123a7565b6103fe603a5481565b6103f361245c565b6103fe603e5481565b61043761071c366004614306565b6044602052600090815260409020546001600160a01b031681565b6103f3610745366004614306565b6124cc565b6103f36107583660046145bf565b612526565b6103f361257f565b603754610437906001600160a01b031681565b6103f36107863660046145bf565b6125bf565b6103f3610799366004614321565b612618565b603954603a54603b54603c54604080516001600160a01b039586168152602081019490945293909116928201929092526060810191909152608001610408565b6103fe6107ec366004614306565b604f6020526000908152604090205481565b6103f361285a565b6105e46128d0565b6103f3612901565b6108296108243660046145bf565b6129d5565b604080516001600160a01b039097168752602087019590955293850192909252606084015215156080830152151560a082015260c001610408565b61086c612a2c565b604051610408919061467d565b6103f3610887366004614306565b612ad5565b6103fe604c5481565b6037546105e490600160a81b900460ff1681565b6103f36108b73660046145bf565b612b79565b6103fe620186a081565b6103f36108d4366004614306565b612c2e565b6108e16128d0565b6109065760405162461bcd60e51b81526004016108fd9061478b565b60405180910390fd5b6037805460ff60a01b191690556040517fbc044409505c95b6b851433df96e1beae715c909d8e7c1d6d7ab783300d4e3b990600090a1565b6109466128d0565b6109625760405162461bcd60e51b81526004016108fd9061478b565b6113888111156109b45760405162461bcd60e51b815260206004820152601760248201527f62617369732063616e6e6f74206578636565642035302500000000000000000060448201526064016108fd565b60478190556040518181527f56287a45051933ea374811b3d5d165033047be5572cac676f7c28b8be4f746c7906020015b60405180910390a150565b604a8181548110610a0057600080fd5b6000918252602090912001546001600160a01b0316905081565b6000610a32600080516020614b2e8339815191525490565b905090565b610a3f6128d0565b610a5b5760405162461bcd60e51b81526004016108fd9061478b565b6001600160a01b03821660009081526033602052604090205460ff1615610ac45760405162461bcd60e51b815260206004820152601760248201527f4f6e6c7920756e737570706f727465642061737365747300000000000000000060448201526064016108fd565b610ae0610acf610a1a565b6001600160a01b0384169083612cd0565b5050565b6037546040516315d5220f60e31b81526001600160a01b038381166004830152600092839291169063aea910789060240160206040518083038186803b158015610b2d57600080fd5b505afa158015610b41573d6000803e3d6000fd5b505050506040513d601f19601f82011682018060405250810190610b6591906145d8565b90506305f2d3c0811015610bb35760405162461bcd60e51b815260206004820152601560248201527441737365742070726963652062656c6f772070656760581b60448201526064016108fd565b6305f5e100811115610bc657506305f5e1005b610bd38160126008612d22565b9392505050565b6043546001600160a01b0316331480610bf65750610bf66128d0565b610c125760405162461bcd60e51b81526004016108fd906147c2565b604d80546001600160a01b0319166001600160a01b0392909216919091179055565b6043546001600160a01b0316331480610c505750610c506128d0565b610c6c5760405162461bcd60e51b81526004016108fd906147c2565b604b80546001600160a01b0319166001600160a01b039390931692909217909155604c55565b610c9a6128d0565b610cb65760405162461bcd60e51b81526004016108fd9061478b565b6001600160a01b03811660009081526035602052604090205460ff16610d165760405162461bcd60e51b815260206004820152601560248201527414dd1c985d1959de481b9bdd08185c1c1c9bdd9959605a1b60448201526064016108fd565b60005b603454811015610dcf57816001600160a01b03166044600060348481548110610d4457610d44614af3565b60009182526020808320909101546001600160a01b039081168452908301939093526040909101902054161415610dbd5760405162461bcd60e51b815260206004820181905260248201527f53747261746567792069732064656661756c7420666f7220616e20617373657460448201526064016108fd565b80610dc781614a7d565b915050610d19565b5060365460005b603654811015610e3257826001600160a01b031660368281548110610dfd57610dfd614af3565b6000918252602090912001546001600160a01b03161415610e2057809150610e32565b80610e2a81614a7d565b915050610dd6565b50603654811015610ae05760368054610e4d906001906149fc565b81548110610e5d57610e5d614af3565b600091825260209091200154603680546001600160a01b039092169183908110610e8957610e89614af3565b9060005260206000200160006101000a8154816001600160a01b0302191690836001600160a01b031602179055506036805480610ec857610ec8614add565b60008281526020808220830160001990810180546001600160a01b03191690559092019092556001600160a01b03841680835260359091526040808320805460ff19169055805163429c145b60e11b81529051859363853828b6926004808201939182900301818387803b158015610f3f57600080fd5b505af1158015610f53573d6000803e3d6000fd5b50506040516001600160a01b03861681527f09a1db4b80c32706328728508c941a6b954f31eb5affd32f236c1fd405f8fea49250602001905060405180910390a1505050565b610fa16128d0565b610fbd5760405162461bcd60e51b81526004016108fd9061478b565b603980546001600160a01b038681166001600160a01b03199283168117909355603a869055603b8054868316931692909217909155603c839055604d546040516306ae77fd60e51b8152600481019390935260248301869052169063d5ceffa090604401600060405180830381600087803b15801561103b57600080fd5b505af115801561104f573d6000803e3d6000fd5b5050604d54603b54603c5460405163bc14edcf60e01b81526001600160a01b03928316600482015260248101919091529116925063bc14edcf9150604401600060405180830381600087803b1580156110a757600080fd5b505af11580156110bb573d6000803e3d6000fd5b5050505050505050565b6043546001600160a01b03163314806110e157506110e16128d0565b6110fd5760405162461bcd60e51b81526004016108fd906147c2565b6000805b60ff811683111561129257600084848360ff1681811061112357611123614af3565b905060c002018036038101906111399190614527565b80519091506001600160a01b03166111935760405162461bcd60e51b815260206004820152601760248201527f77656967687420776974686f757420737472617465677900000000000000000060448201526064016108fd565b8060400151816020015111156112005760405162461bcd60e51b815260206004820152602c60248201527f6d696e5765696768742073686f756c646e277420686967686572207468616e2060448201526b1d185c99d95d15d95a59da1d60a21b60648201526084016108fd565b80606001518160400151111561126d5760405162461bcd60e51b815260206004820152602c60248201527f7461726765745765696768742073686f756c646e27742068696768657220746860448201526b185b881b585e15d95a59da1d60a21b60648201526084016108fd565b604081015161127c9084614859565b925050808061128a90614a91565b915050611101565b50620186a081146112f75760405162461bcd60e51b815260206004820152602960248201527f546f74616c207461726765742073686f756c6420657175616c20746f20544f54604482015268105317d5d15251d21560ba1b60648201526084016108fd565b60006113548484808060200260200160405190810160405280939291908181526020016000905b8282101561134a5761133b60c08302860136819003810190614527565b8152602001906001019061131e565b5050505050612d84565b905060005b81518160ff1610156113e85761138e828260ff168151811061137d5761137d614af3565b60200260200101518260ff16612f97565b8060ff16604f600060508460ff16815481106113ac576113ac614af3565b600091825260208083206005909202909101546001600160a01b03168352820192909252604001902055806113e081614a91565b915050611359565b5080516050541115611482578051605054600091611405916149fc565b905060005b818160ff16101561147f57605080548061142657611426614add565b60008281526020812060056000199093019283020180546001600160a01b031916815560018101829055600281018290556003810191909155600401805461ffff1916905590558061147781614a91565b91505061140a565b50505b60005b60505460ff8216101561153457600060508260ff16815481106114aa576114aa614af3565b60009182526020918290206040805160c081018252600590930290910180546001600160a01b03168084526001820154948401949094526002810154918301829052600381015460608401526004015460ff8082161515608085015261010090910416151560a08301529092506115219190613096565b508061152c81614a91565b915050611485565b5050505050565b6043546001600160a01b031633148061155757506115576128d0565b6115735760405162461bcd60e51b81526004016108fd906147c2565b61157f604a8383614183565b505050565b61158c6128d0565b6115a85760405162461bcd60e51b81526004016108fd9061478b565b604680546001600160a01b0319166001600160a01b0383169081179091556040519081527f1e4af5ac389e8cde1bdaa6830881b6c987c62a45cfb3b33d27d805cde3b57750906020016109e5565b6043546001600160a01b031633148061161257506116126128d0565b61162e5760405162461bcd60e51b81526004016108fd906147c2565b604e80546001600160a01b0319166001600160a01b0392909216919091179055565b6116586128d0565b6116745760405162461bcd60e51b81526004016108fd9061478b565b603780546001600160a01b0319166001600160a01b0383169081179091556040519081527fb266add5f3044b17d27db796af992cecbe413921b4e8aaaee03c719e16b9806a906020016109e5565b6116ca6128d0565b6116e65760405162461bcd60e51b81526004016108fd9061478b565b6001600160a01b03811660009081526035602052604090205460ff161561174f5760405162461bcd60e51b815260206004820152601960248201527f537472617465677920616c726561647920617070726f7665640000000000000060448201526064016108fd565b6040805180820182526001808252600060208084018281526001600160a01b038716808452603583528684209551865460ff19169015151786559051948401949094556036805493840181559091527f4a11f94e20a93c79f6ec743a1954ec4fc2c08429ae2122118bf234b2185c81b890910180546001600160a01b0319168317905591519081527f960dd94cbb79169f09a4e445d58b895df2d9bffa5b31055d0932d801724a20d191016109e5565b6043546001600160a01b031633148061181b575061181b6128d0565b6118375760405162461bcd60e51b81526004016108fd906147c2565b6037805460ff60a81b1916600160a81b1790556040517f71f0e5b62f846a22e0b4d159e516e62fa9c2b8eb570be15f83e67d98a2ee51e090600090a1565b61187d6128d0565b6118995760405162461bcd60e51b81526004016108fd9061478b565b600054610100900460ff16806118b2575060005460ff16155b6119155760405162461bcd60e51b815260206004820152602e60248201527f496e697469616c697a61626c653a20636f6e747261637420697320616c72656160448201526d191e481a5b9a5d1a585b1a5e995960921b60648201526084016108fd565b600054610100900460ff16158015611937576000805461ffff19166101011790555b6001600160a01b03831661198d5760405162461bcd60e51b815260206004820152601d60248201527f507269636550726f76696465722061646472657373206973207a65726f00000060448201526064016108fd565b6001600160a01b0382166119da5760405162461bcd60e51b8152602060048201526014602482015273636173682061646472657373206973207a65726f60601b60448201526064016108fd565b604080546001600160a01b038481166001600160a01b0319909216919091178255603780546001600160b01b03191691861691909117600160a81b17905560006038819055603c819055603a819055603d81905569054b40b1f852bda00000603e55683635c9adc5dea00000603f558151908152602081019182905251611a63916036916141e6565b506040805160008152602081019182905251611a8191604a916141e6565b50801561157f576000805461ff0019169055505050565b611aa06128d0565b611abc5760405162461bcd60e51b81526004016108fd9061478b565b6001600160a01b03811660009081526033602052604090205460ff1615611b255760405162461bcd60e51b815260206004820152601760248201527f417373657420616c726561647920737570706f7274656400000000000000000060448201526064016108fd565b604080516020808201835260018083526001600160a01b038581166000818152603385528681209551865460ff1916901515179095556034805493840181559094527f46bddb1178e94d7f2892ff5f366840eb658911794f2c3a44c450aa2c505186c190910180546001600160a01b0319169093179092558251808401909352600d83526c383934b1b2a83937bb34b232b960991b90830152603754611bcc9291166130e5565b6037546040516315d5220f60e31b81526001600160a01b0383811660048301529091169063aea910789060240160206040518083038186803b158015611c1157600080fd5b505afa158015611c25573d6000803e3d6000fd5b505050506040513d601f19601f82011682018060405250810190611c4991906145d8565b506040516001600160a01b03821681527f4f1ac48525e50059cc1cc6e0e1940ece0dd653a4db4841538d6aef036be2fb7b906020016109e5565b6043546001600160a01b0316331480611c9f5750611c9f6128d0565b611cbb5760405162461bcd60e51b81526004016108fd906147c2565b6001600160a01b03811660009081526035602052604090205460ff16611d235760405162461bcd60e51b815260206004820152601960248201527f5374726174656779206973206e6f7420737570706f727465640000000000000060448201526064016108fd565b6000819050806001600160a01b031663853828b66040518163ffffffff1660e01b8152600401600060405180830381600087803b158015611d6357600080fd5b505af1158015611d77573d6000803e3d6000fd5b505050505050565b7f7eaf9a7750884803435dfabc67aa617a7d8fefb23d8d84b3c9722bd69e48c4bc546001600160a01b0316336001600160a01b031614611e1a5760405162461bcd60e51b815260206004820152603060248201527f4f6e6c79207468652070656e64696e6720476f7665726e6f722063616e20636f60448201526f6d706c6574652074686520636c61696d60801b60648201526084016108fd565b611e233361312a565b565b611e2d61423b565b6001600160a01b0382166000908152604f6020526040902054605080549091908110611e5b57611e5b614af3565b60009182526020918290206040805160c081018252600590930290910180546001600160a01b031683526001810154938301939093526002830154908201526003820154606082015260049091015460ff8082161515608084015261010090910416151560a082015292915050565b611e236131eb565b611eda6128d0565b611ef65760405162461bcd60e51b81526004016108fd9061478b565b60458190556040518181527f95201f9c21f26877223b1ff4073936a6484c35495649e60e55730497aeb60d93906020016109e5565b611f336128d0565b611f4f5760405162461bcd60e51b81526004016108fd9061478b565b604380546001600160a01b0319166001600160a01b0383169081179091556040519081527f869e0abd13cc3a975de7b93be3df1cb2255c802b1cead85963cc79d99f131bee906020016109e5565b6043546001600160a01b0316331480611fb95750611fb96128d0565b611fd55760405162461bcd60e51b81526004016108fd906147c2565b6001600160a01b03861660009081526035602052604090205460ff166120355760405162461bcd60e51b8152602060048201526015602482015274496e76616c69642066726f6d20537472617465677960581b60448201526064016108fd565b6001600160a01b03851660009081526035602052604090205460ff166120935760405162461bcd60e51b8152602060048201526013602482015272496e76616c696420746f20537472617465677960681b60448201526064016108fd565b8281146120e25760405162461bcd60e51b815260206004820152601960248201527f506172616d65746572206c656e677468206d69736d617463680000000000000060448201526064016108fd565b858560005b858110156122a757816001600160a01b031663aa388af688888481811061211057612110614af3565b90506020020160208101906121259190614306565b6040516001600160e01b031960e084901b1681526001600160a01b03909116600482015260240160206040518083038186803b15801561216457600080fd5b505afa158015612178573d6000803e3d6000fd5b505050506040513d601f19601f8201168201806040525081019061219c919061450a565b6121dc5760405162461bcd60e51b8152602060048201526011602482015270105cdcd95d081d5b9cdd5c1c1bdc9d1959607a1b60448201526064016108fd565b826001600160a01b031663d9caed12838989858181106121fe576121fe614af3565b90506020020160208101906122139190614306565b88888681811061222557612225614af3565b6040516001600160e01b031960e088901b1681526001600160a01b03958616600482015294909316602485015250602090910201356044820152606401600060405180830381600087803b15801561227c57600080fd5b505af1158015612290573d6000803e3d6000fd5b50505050808061229f90614a7d565b9150506120e7565b50806001600160a01b031663de5f62686040518163ffffffff1660e01b8152600401600060405180830381600087803b1580156122e357600080fd5b505af11580156122f7573d6000803e3d6000fd5b505050505050505050505050565b6037546040516315d5220f60e31b81526001600160a01b038381166004830152600092839291169063aea910789060240160206040518083038186803b15801561234e57600080fd5b505afa158015612362573d6000803e3d6000fd5b505050506040513d601f19601f8201168201806040525081019061238691906145d8565b90506305f5e100811015610bc657506305f5e100610bd38160126008612d22565b6043546001600160a01b03163314806123c357506123c36128d0565b6123df5760405162461bcd60e51b81526004016108fd906147c2565b670de0b6b3a76400008111156124275760405162461bcd60e51b815260206004820152600d60248201526c496e76616c69642076616c756560981b60448201526064016108fd565b603d8190556040518181527f41ecb23a0e7865b25f38c268b7c3012220d822929e9edff07326e89d5bb822b5906020016109e5565b6043546001600160a01b031633148061247857506124786128d0565b6124945760405162461bcd60e51b81526004016108fd906147c2565b6037805460ff60a81b191690556040517f891ebab18da80ebeeea06b1b1cede098329c4c008906a98370c2ac7a80b571cb90600090a1565b6043546001600160a01b03163314806124e857506124e86128d0565b6125045760405162461bcd60e51b81526004016108fd906147c2565b604980546001600160a01b0319166001600160a01b0392909216919091179055565b61252e6128d0565b61254a5760405162461bcd60e51b81526004016108fd9061478b565b603e8190556040518181527f2ec5fb5a3d2703edc461252d92ccd2799c3c74f01d97212b20388207fa17ae45906020016109e5565b6043546001600160a01b031633148061259b575061259b6128d0565b6125b75760405162461bcd60e51b81526004016108fd906147c2565b611e236132bf565b6125c76128d0565b6125e35760405162461bcd60e51b81526004016108fd9061478b565b603f8190556040518181527f39367850377ac04920a9a670f2180e7a94d83b15ad302e59875ec58fd10bd37d906020016109e5565b6043546001600160a01b031633148061263457506126346128d0565b6126505760405162461bcd60e51b81526004016108fd906147c2565b604080516001600160a01b038085168252831660208201527fba58ce12801c949fa65f41c46ed108671c219baf945fa48d21026cea99ff252a910160405180910390a16001600160a01b0381161561282c576001600160a01b03811660009081526035602052604090205460ff166127025760405162461bcd60e51b815260206004820152601560248201527414dd1c985d1959de481b9bdd08185c1c1c9bdd9959605a1b60448201526064016108fd565b6001600160a01b038216600090815260336020526040902054819060ff166127655760405162461bcd60e51b8152602060048201526016602482015275105cdcd95d081a5cc81b9bdd081cdd5c1c1bdc9d195960521b60448201526064016108fd565b60405163551c457b60e11b81526001600160a01b03848116600483015282169063aa388af69060240160206040518083038186803b1580156127a657600080fd5b505afa1580156127ba573d6000803e3d6000fd5b505050506040513d601f19601f820116820180604052508101906127de919061450a565b61282a5760405162461bcd60e51b815260206004820152601f60248201527f4173736574206e6f7420737570706f727465642062792053747261746567790060448201526064016108fd565b505b6001600160a01b03918216600090815260446020526040902080546001600160a01b03191691909216179055565b6043546001600160a01b031633148061287657506128766128d0565b6128925760405162461bcd60e51b81526004016108fd906147c2565b6037805460ff60a01b1916600160a01b1790556040517f8cff26a5985614b3d30629cc4ab83824bf115aec971b718d8f2f99562032e97290600090a1565b60006128e8600080516020614b2e8339815191525490565b6001600160a01b0316336001600160a01b031614905090565b6043546001600160a01b031633148061291d575061291d6128d0565b6129395760405162461bcd60e51b81526004016108fd906147c2565b60005b6036548110156129d25760006036828154811061295b5761295b614af3565b60009182526020822001546040805163429c145b60e11b815290516001600160a01b039092169350839263853828b69260048084019382900301818387803b1580156129a657600080fd5b505af11580156129ba573d6000803e3d6000fd5b505050505080806129ca90614a7d565b91505061293c565b50565b605081815481106129e557600080fd5b6000918252602090912060059091020180546001820154600283015460038401546004909401546001600160a01b0390931694509092909160ff8082169161010090041686565b60606050805480602002602001604051908101604052809291908181526020016000905b82821015612acc5760008481526020908190206040805160c0810182526005860290920180546001600160a01b0316835260018082015484860152600282015492840192909252600381015460608401526004015460ff8082161515608085015261010090910416151560a08301529083529092019101612a50565b50505050905090565b612add6128d0565b612af95760405162461bcd60e51b81526004016108fd9061478b565b612b21817f7eaf9a7750884803435dfabc67aa617a7d8fefb23d8d84b3c9722bd69e48c4bc55565b806001600160a01b0316612b41600080516020614b2e8339815191525490565b6001600160a01b03167fa39cc5eb22d0f34d8beaefee8a3f17cc229c1a1d1ef87a5ad47313487b1c4f0d60405160405180910390a350565b612b816128d0565b612b9d5760405162461bcd60e51b81526004016108fd9061478b565b6103e8811115612bf95760405162461bcd60e51b815260206004820152602160248201527f52656465656d206665652073686f756c64206e6f74206265206f7665722031306044820152602560f81b60648201526084016108fd565b60388190556040518181527fd6c7508d6658ccee36b7b7d7fd72e5cbaeefb40c64eff24e9ae7470e846304ee906020016109e5565b612c366128d0565b612c525760405162461bcd60e51b81526004016108fd9061478b565b803b612cac5760405162461bcd60e51b8152602060048201526024808201527f6e657720696d706c656d656e746174696f6e206973206e6f74206120636f6e746044820152631c9858dd60e21b60648201526084016108fd565b7f10e4e34101c81b29558fe5b91534ae1af03c346313e21b0f6446695a8e18e24355565b604080516001600160a01b038416602482015260448082018490528251808303909101815260649091019091526020810180516001600160e01b031663a9059cbb60e01b17905261157f908490613c2f565b600081831115612d5257612d4b612d3983856149fc565b612d4490600a6148f6565b8590613d01565b9350612d7c565b81831015612d7c57612d79612d6784846149fc565b612d7290600a6148f6565b8590613d16565b93505b509192915050565b60606000825167ffffffffffffffff811115612da257612da2614b09565b604051908082528060200260200182016040528015612dcb578160200160208202803683370190505b50905060005b8351811015612e2757838181518110612dec57612dec614af3565b602002602001015160400151828281518110612e0a57612e0a614af3565b602090810291909101015280612e1f81614a7d565b915050612dd1565b506000815167ffffffffffffffff811115612e4457612e44614b09565b604051908082528060200260200182016040528015612e6d578160200160208202803683370190505b50905060005b8151811015612eac5780828281518110612e8f57612e8f614af3565b602090810291909101015280612ea481614a7d565b915050612e73565b50612ec782600060018551612ec191906149fc565b84613d22565b6000825167ffffffffffffffff811115612ee357612ee3614b09565b604051908082528060200260200182016040528015612f1c57816020015b612f0961423b565b815260200190600190039081612f015790505b50905060005b8251811015612f8e5785838281518110612f3e57612f3e614af3565b602002602001015181518110612f5657612f56614af3565b6020026020010151828281518110612f7057612f70614af3565b60200260200101819052508080612f8690614a7d565b915050612f22565b50949350505050565b605054801580612fb0575081612fae6001836149fc565b105b15612ffd576000612fc182846149fc565b612fcc906001614859565b905060005b818160ff161015612ffa5760508054600101815560005280612ff281614a91565b915050612fd1565b50505b826050838154811061301157613011614af3565b6000918252602091829020835160059092020180546001600160a01b039092166001600160a01b0319909216919091178155908201516001820155604082015160028201556060820151600382015560808201516004909101805460a09093015115156101000261ff00199215159290921661ffff1990931692909217179055505050565b6040516001600160a01b038316602482015260448101829052610ae09060640160408051601f198184030181529190526020810180516001600160e01b0316632243cfa360e01b179052613f17565b610ae082826040516024016130fb9291906146de565b60408051601f198184030181529190526020810180516001600160e01b031663319af33360e01b179052613f17565b6001600160a01b0381166131805760405162461bcd60e51b815260206004820152601a60248201527f4e657720476f7665726e6f72206973206164647265737328302900000000000060448201526064016108fd565b806001600160a01b03166131a0600080516020614b2e8339815191525490565b6001600160a01b03167fc7c0c772add429241571afb3805861fb3cfa2af374534088b76cdb4325a87e9a60405160405180910390a36129d281600080516020614b2e83398151915255565b604d60009054906101000a90046001600160a01b03166001600160a01b031663e4d873206040518163ffffffff1660e01b8152600401600060405180830381600087803b15801561323b57600080fd5b505af115801561324f573d6000803e3d6000fd5b50505050604e60009054906101000a90046001600160a01b03166001600160a01b031663737962976040518163ffffffff1660e01b8152600401600060405180830381600087803b1580156132a357600080fd5b505af11580156132b7573d6000803e3d6000fd5b50505050611e235b6049546001600160a01b031660006132d5612a2c565b905060008060005b83518160ff16101561355957838160ff16815181106132fe576132fe614af3565b60200260200101516080015161331357613547565b838160ff168151811061332857613328614af3565b602002602001015160400151600014156133b457838160ff168151811061335157613351614af3565b6020026020010151600001516001600160a01b031663853828b66040518163ffffffff1660e01b8152600401600060405180830381600087803b15801561339757600080fd5b505af11580156133ab573d6000803e3d6000fd5b50505050613547565b61347b6040518060400160405280601581526020017402130b630b731b29034b71039ba30b93a32b3bc9d1605d1b815250858360ff16815181106133fa576133fa614af3565b6020026020010151600001516001600160a01b031663c71daccb6040518163ffffffff1660e01b815260040160206040518083038186803b15801561343e57600080fd5b505afa158015613452573d6000803e3d6000fd5b505050506040513d601f19601f8201168201806040525081019061347691906145d8565b613f38565b838160ff168151811061349057613490614af3565b6020026020010151600001516001600160a01b031663c71daccb6040518163ffffffff1660e01b815260040160206040518083038186803b1580156134d457600080fd5b505afa1580156134e8573d6000803e3d6000fd5b505050506040513d601f19601f8201168201806040525081019061350c91906145d8565b6135169084614859565b9250838160ff168151811061352d5761352d614af3565b602002602001015160400151826135449190614859565b91505b8061355181614a91565b9150506132dd565b506040516370a0823160e01b81523060048201526000906001600160a01b038616906370a082319060240160206040518083038186803b15801561359c57600080fd5b505afa1580156135b0573d6000803e3d6000fd5b505050506040513d601f19601f820116820180604052508101906135d491906145d8565b6135de9084614859565b905061360f6040518060400160405280600d81526020016c02a37ba30b61030b9b9b2ba1d1609d1b81525082613f38565b6000845167ffffffffffffffff81111561362b5761362b614b09565b60405190808252806020026020018201604052801561367657816020015b60408051606081018252600080825260208083018290529282015282526000199092019101816136495790505b5090506000805b86518160ff1610156139b557868160ff168151811061369e5761369e614af3565b6020026020010151608001516136b3576139a3565b6000878260ff16815181106136ca576136ca614af3565b602002602001015160400151600014156136e657506000613720565b85888360ff16815181106136fc576136fc614af3565b60200260200101516040015186613713919061499e565b61371d919061489f565b90505b6000888360ff168151811061373757613737614af3565b6020026020010151600001516001600160a01b031663c71daccb6040518163ffffffff1660e01b815260040160206040518083038186803b15801561377b57600080fd5b505afa15801561378f573d6000803e3d6000fd5b505050506040513d601f19601f820116820180604052508101906137b391906145d8565b9050808214156137c45750506139a3565b808210156138dd5760408051808201909152601881527f5769746864726177206e6f7720616d6f756e742066726f6d000000000000000060208201526138349061380e84846149fc565b8b8660ff168151811061382357613823614af3565b602002602001015160000151613f7d565b888360ff168151811061384957613849614af3565b6020026020010151600001516001600160a01b031663d9caed12308c858561387191906149fc565b6040516001600160e01b031960e086901b1681526001600160a01b0393841660048201529290911660248301526044820152606401600060405180830381600087803b1580156138c057600080fd5b505af11580156138d4573d6000803e3d6000fd5b505050506139a0565b60408051808201909152601981527f4465706f736974206c6174657220616d6f756e742066726f6d00000000000000602082015261391f9061380e83856149fc565b60405180606001604052806001151581526020018a8560ff168151811061394857613948614af3565b6020026020010151600001516001600160a01b03168152602001828461396e91906149fc565b815250858560ff168151811061398657613986614af3565b6020026020010181905250838061399c90614a91565b9450505b50505b806139ad81614a91565b91505061367d565b50613a116040518060600160405280602a8152602001614b4e602a91396040516370a0823160e01b81523060048201526001600160a01b038a16906370a082319060240160206040518083038186803b15801561343e57600080fd5b60005b8160ff168160ff1610156110bb576000838260ff1681518110613a3957613a39614af3565b60200260200101516020015190506000848360ff1681518110613a5e57613a5e614af3565b6020026020010151604001519050613aac6040518060400160405280601981526020017f50726f63657373696e67207374616b65206f72646572206f66000000000000008152508383613fc4565b6040516370a0823160e01b81523060048201526000906001600160a01b038c16906370a082319060240160206040518083038186803b158015613aee57600080fd5b505afa158015613b02573d6000803e3d6000fd5b505050506040513d601f19601f82011682018060405250810190613b2691906145d8565b905081811015613b34578091505b60405163a9059cbb60e01b81526001600160a01b038481166004830152602482018490528c169063a9059cbb90604401602060405180830381600087803b158015613b7e57600080fd5b505af1158015613b92573d6000803e3d6000fd5b505050506040513d601f19601f82011682018060405250810190613bb6919061450a565b506040516311f9fbc960e21b81526001600160a01b038c81166004830152602482018490528416906347e7ef2490604401600060405180830381600087803b158015613c0157600080fd5b505af1158015613c15573d6000803e3d6000fd5b505050505050508080613c2790614a91565b915050613a14565b6000613c84826040518060400160405280602081526020017f5361666545524332303a206c6f772d6c6576656c2063616c6c206661696c6564815250856001600160a01b031661400b9092919063ffffffff16565b80519091501561157f5780806020019051810190613ca2919061450a565b61157f5760405162461bcd60e51b815260206004820152602a60248201527f5361666545524332303a204552433230206f7065726174696f6e20646964206e6044820152691bdd081cdd58d8d9595960b21b60648201526084016108fd565b6000613d0d828461499e565b90505b92915050565b6000613d0d828461489f565b828280821415613d33575050613f11565b6000866002613d4288886149bd565b613d4c9190614871565b613d569088614818565b81518110613d6657613d66614af3565b602002602001015190505b818313613ee5575b80878481518110613d8c57613d8c614af3565b60200260200101511115613dac5782613da481614a5d565b935050613d79565b868281518110613dbe57613dbe614af3565b6020026020010151811115613ddf5781613dd781614a3f565b925050613dac565b818313613ee057868281518110613df857613df8614af3565b6020026020010151878481518110613e1257613e12614af3565b6020026020010151888581518110613e2c57613e2c614af3565b60200260200101898581518110613e4557613e45614af3565b6020026020010182815250828152505050838281518110613e6857613e68614af3565b6020026020010151848481518110613e8257613e82614af3565b6020026020010151858581518110613e9c57613e9c614af3565b60200260200101868581518110613eb557613eb5614af3565b60209081029190910101919091525282613ece81614a5d565b9350508180613edc90614a3f565b9250505b613d71565b81861215613ef957613ef987878487613d22565b84831215613f0d57613f0d87848787613d22565b5050505b50505050565b80516a636f6e736f6c652e6c6f67602083016000808483855afa5050505050565b610ae08282604051602401613f4e929190614736565b60408051601f198184030181529190526020810180516001600160e01b03166309710a9d60e41b179052613f17565b61157f838383604051602401613f9593929190614758565b60408051601f198184030181529190526020810180516001600160e01b031663e3849f7960e01b179052613f17565b61157f838383604051602401613fdc93929190614708565b60408051601f198184030181529190526020810180516001600160e01b03166307c8121760e01b179052613f17565b606061401a8484600085614022565b949350505050565b6060824710156140835760405162461bcd60e51b815260206004820152602660248201527f416464726573733a20696e73756666696369656e742062616c616e636520666f6044820152651c8818d85b1b60d21b60648201526084016108fd565b843b6140d15760405162461bcd60e51b815260206004820152601d60248201527f416464726573733a2063616c6c20746f206e6f6e2d636f6e747261637400000060448201526064016108fd565b600080866001600160a01b031685876040516140ed9190614661565b60006040518083038185875af1925050503d806000811461412a576040519150601f19603f3d011682016040523d82523d6000602084013e61412f565b606091505b509150915061413f82828661414a565b979650505050505050565b60608315614159575081610bd3565b8251156141695782518084602001fd5b8160405162461bcd60e51b81526004016108fd91906146cb565b8280548282559060005260206000209081019282156141d6579160200282015b828111156141d65781546001600160a01b0319166001600160a01b038435161782556020909201916001909101906141a3565b506141e292915061427e565b5090565b8280548282559060005260206000209081019282156141d6579160200282015b828111156141d657825182546001600160a01b0319166001600160a01b03909116178255602090920191600190910190614206565b6040518060c0016040528060006001600160a01b031681526020016000815260200160008152602001600081526020016000151581526020016000151581525090565b5b808211156141e2576000815560010161427f565b80356001600160a01b03811681146142aa57600080fd5b919050565b60008083601f8401126142c157600080fd5b50813567ffffffffffffffff8111156142d957600080fd5b6020830191508360208260051b85010111156142f457600080fd5b9250929050565b80356142aa81614b1f565b60006020828403121561431857600080fd5b613d0d82614293565b6000806040838503121561433457600080fd5b61433d83614293565b915061434b60208401614293565b90509250929050565b6000806000806000806080878903121561436d57600080fd5b61437687614293565b955061438460208801614293565b9450604087013567ffffffffffffffff808211156143a157600080fd5b6143ad8a838b016142af565b909650945060608901359150808211156143c657600080fd5b506143d389828a016142af565b979a9699509497509295939492505050565b600080604083850312156143f857600080fd5b61440183614293565b946020939093013593505050565b6000806000806080858703121561442557600080fd5b61442e85614293565b93506020850135925061444360408601614293565b9396929550929360600135925050565b6000806020838503121561446657600080fd5b823567ffffffffffffffff81111561447d57600080fd5b614489858286016142af565b90969095509350505050565b600080602083850312156144a857600080fd5b823567ffffffffffffffff808211156144c057600080fd5b818501915085601f8301126144d457600080fd5b8135818111156144e357600080fd5b86602060c0830285010111156144f857600080fd5b60209290920196919550909350505050565b60006020828403121561451c57600080fd5b8151610bd381614b1f565b600060c0828403121561453957600080fd5b60405160c0810181811067ffffffffffffffff8211171561456a57634e487b7160e01b600052604160045260246000fd5b60405261457683614293565b81526020830135602082015260408301356040820152606083013560608201526145a2608084016142fb565b60808201526145b360a084016142fb565b60a08201529392505050565b6000602082840312156145d157600080fd5b5035919050565b6000602082840312156145ea57600080fd5b5051919050565b60008151808452614609816020860160208601614a13565b601f01601f19169290920160200192915050565b80516001600160a01b0316825260208082015190830152604080820151908301526060808201519083015260808082015115159083015260a0908101511515910152565b60008251614673818460208701614a13565b9190910192915050565b6020808252825182820181905260009190848201906040850190845b818110156146bf576146ac83855161461d565b9284019260c09290920191600101614699565b50909695505050505050565b602081526000613d0d60208301846145f1565b6040815260006146f160408301856145f1565b905060018060a01b03831660208301529392505050565b60608152600061471b60608301866145f1565b6001600160a01b039490941660208301525060400152919050565b60408152600061474960408301856145f1565b90508260208301529392505050565b60608152600061476b60608301866145f1565b6020830194909452506001600160a01b0391909116604090910152919050565b6020808252601a908201527f43616c6c6572206973206e6f742074686520476f7665726e6f72000000000000604082015260600190565b60208082526028908201527f43616c6c6572206973206e6f74207468652053747261746567697374206f722060408201526723b7bb32b93737b960c11b606082015260800190565b60c08101613d10828461461d565b600080821280156001600160ff1b038490038513161561483a5761483a614ab1565b600160ff1b839003841281161561485357614853614ab1565b50500190565b6000821982111561486c5761486c614ab1565b500190565b60008261488057614880614ac7565b600160ff1b82146000198414161561489a5761489a614ab1565b500590565b6000826148ae576148ae614ac7565b500490565b600181815b808511156148ee5781600019048211156148d4576148d4614ab1565b808516156148e157918102915b93841c93908002906148b8565b509250929050565b6000613d0d838360008261490c57506001613d10565b8161491957506000613d10565b816001811461492f576002811461493957614955565b6001915050613d10565b60ff84111561494a5761494a614ab1565b50506001821b613d10565b5060208310610133831016604e8410600b8410161715614978575081810a613d10565b61498283836148b3565b806000190482111561499657614996614ab1565b029392505050565b60008160001904831182151516156149b8576149b8614ab1565b500290565b60008083128015600160ff1b8501841216156149db576149db614ab1565b6001600160ff1b03840183138116156149f6576149f6614ab1565b50500390565b600082821015614a0e57614a0e614ab1565b500390565b60005b83811015614a2e578181015183820152602001614a16565b83811115613f115750506000910152565b6000600160ff1b821415614a5557614a55614ab1565b506000190190565b60006001600160ff1b03821415614a7657614a76614ab1565b5060010190565b6000600019821415614a7657614a76614ab1565b600060ff821660ff811415614aa857614aa8614ab1565b60010192915050565b634e487b7160e01b600052601160045260246000fd5b634e487b7160e01b600052601260045260246000fd5b634e487b7160e01b600052603160045260246000fd5b634e487b7160e01b600052603260045260246000fd5b634e487b7160e01b600052604160045260246000fd5b80151581146129d257600080fdfe83f34c88ec39d54d1e423bd8a181ebc59ede5dcc9996c2df334668b4f89fdd735f61737365742042616c616e636520617661696c61626c65206166746572207769746864726177696e67a26469706673582212200066df81f62733a451fdf6b27b390d88184d10c426d3459c3f3335fb6fc6b93c64736f6c6343000806003383f34c88ec39d54d1e423bd8a181ebc59ede5dcc9996c2df334668b4f89fdd73",
  "devdoc": {
    "kind": "dev",
    "methods": {
      "approveStrategy(address)": {
        "details": "Add a strategy to the Vault.",
        "params": {
          "_addr": "Address of the strategy to add"
        }
      },
      "claimGovernance()": {
        "details": "Claim Governance of the contract to a new account (`newGovernor`). Can only be called by the new Governor."
      },
      "governor()": {
        "details": "Returns the address of the current Governor."
      },
      "isGovernor()": {
        "details": "Returns true if the caller is the current Governor."
      },
      "pauseCapital()": {
        "details": "Set the deposit paused flag to true to prevent capital movement."
      },
      "pauseRebase()": {
        "details": "Set the deposit paused flag to true to prevent rebasing."
      },
      "priceUSDMint(address)": {
        "details": "Returns the total price in 18 digit USD for a given asset.      Never goes above 1, since that is how we price mints",
        "params": {
          "asset": "address of the asset"
        },
        "returns": {
          "_0": "uint256 USD price of 1 of the asset, in 18 decimal fixed"
        }
      },
      "priceUSDRedeem(address)": {
        "details": "Returns the total price in 18 digit USD for a given asset.      Never goes below 1, since that is how we price redeems",
        "params": {
          "asset": "Address of the asset"
        },
        "returns": {
          "_0": "uint256 USD price of 1 of the asset, in 18 decimal fixed"
        }
      },
      "reallocate(address,address,address[],uint256[])": {
        "params": {
          "_amounts": "Array of amounts of each corresponding asset to move.",
          "_assets": "Array of asset address that will be moved",
          "_strategyFromAddress": "Address of Strategy to move assets from.",
          "_strategyToAddress": "Address of Strategy to move assets to."
        }
      },
      "removeStrategy(address)": {
        "details": "Remove a strategy from the Vault.",
        "params": {
          "_addr": "Address of the strategy to remove"
        }
      },
      "setAdminImpl(address)": {
        "details": "set the implementation for the admin, this needs to be in a base class else we cannot set it",
        "params": {
          "newImpl": "address of the implementation"
        }
      },
      "setAssetDefaultStrategy(address,address)": {
        "details": "Set the default Strategy for an asset, i.e. the one which the asset will be automatically allocated to and withdrawn from",
        "params": {
          "_asset": "Address of the asset",
          "_strategy": "Address of the Strategy"
        }
      },
      "setAutoAllocateThreshold(uint256)": {
        "details": "Sets the minimum amount of CASH in a mint to trigger an automatic allocation of funds afterwords.",
        "params": {
          "_threshold": "CASH amount with 18 fixed decimals."
        }
      },
      "setMaxSupplyDiff(uint256)": {
        "details": "Sets the maximum allowable difference between total supply and backing assets' value."
      },
      "setPriceProvider(address)": {
        "details": "Set address of price provider.",
        "params": {
          "_priceProvider": "Address of price provider"
        }
      },
      "setRebaseThreshold(uint256)": {
        "details": "Set a minimum amount of CASH in a mint or redeem that triggers a rebase",
        "params": {
          "_threshold": "CASH amount with 18 fixed decimals."
        }
      },
      "setRedeemFeeBps(uint256)": {
        "details": "Set a fee in basis points to be charged for a redeem.",
        "params": {
          "_redeemFeeBps": "Basis point fee to be charged"
        }
      },
      "setStrategistAddr(address)": {
        "details": "Set address of Strategist",
        "params": {
          "_address": "Address of Strategist"
        }
      },
      "setTrusteeAddress(address)": {
        "details": "Sets the trusteeAddress that can receive a portion of yield.      Setting to the zero address disables this feature."
      },
      "setTrusteeFeeBps(uint256)": {
        "details": "Sets the TrusteeFeeBps to the percentage of yield that should be      received in basis points."
      },
      "setVaultBuffer(uint256)": {
        "details": "Set a buffer of assets to keep in the Vault to handle most redemptions without needing to spend gas unwinding assets from a Strategy.",
        "params": {
          "_vaultBuffer": "Percentage using 18 decimals. 100% = 1e18."
        }
      },
      "supportAsset(address)": {
        "details": "Add a supported asset to the contract, i.e. one that can be         to mint CASH.",
        "params": {
          "_asset": "Address of asset"
        }
      },
      "transferGovernance(address)": {
        "details": "Transfers Governance of the contract to a new account (`newGovernor`). Can only be called by the current Governor. Must be claimed for this to complete",
        "params": {
          "_newGovernor": "Address of the new Governor"
        }
      },
      "transferToken(address,uint256)": {
        "details": "Transfer token to governor. Intended for recovering tokens stuck in      contract, i.e. mistaken sends.",
        "params": {
          "_amount": "Amount of the asset to transfer",
          "_asset": "Address for the asset"
        }
      },
      "unpauseCapital()": {
        "details": "Set the deposit paused flag to false to enable capital movement."
      },
      "unpauseRebase()": {
        "details": "Set the deposit paused flag to true to allow rebasing."
      },
      "withdrawAllFromStrategies()": {
        "details": "Withdraws all assets from all the strategies and sends assets to the Vault."
      },
      "withdrawAllFromStrategy(address)": {
        "details": "Withdraws all assets from the strategy and sends assets to the Vault.",
        "params": {
          "_strategyAddr": "Strategy address."
        }
      }
    },
    "version": 1
  },
  "userdoc": {
    "kind": "user",
    "methods": {
      "reallocate(address,address,address[],uint256[])": {
        "notice": "Move assets from one Strategy to another"
      }
    },
    "version": 1
  },
  "storageLayout": {
    "storage": [
      {
        "astId": 29936,
        "contract": "contracts/vault/Vault.sol:Vault",
        "label": "initialized",
        "offset": 0,
        "slot": "0",
        "type": "t_bool"
      },
      {
        "astId": 29939,
        "contract": "contracts/vault/Vault.sol:Vault",
        "label": "initializing",
        "offset": 1,
        "slot": "0",
        "type": "t_bool"
      },
      {
        "astId": 29979,
        "contract": "contracts/vault/Vault.sol:Vault",
        "label": "______gap",
        "offset": 0,
        "slot": "1",
        "type": "t_array(t_uint256)50_storage"
      },
      {
        "astId": 35714,
        "contract": "contracts/vault/Vault.sol:Vault",
        "label": "assets",
        "offset": 0,
        "slot": "51",
        "type": "t_mapping(t_address,t_struct(Asset)35709_storage)"
      },
      {
        "astId": 35717,
        "contract": "contracts/vault/Vault.sol:Vault",
        "label": "allAssets",
        "offset": 0,
        "slot": "52",
        "type": "t_array(t_address)dyn_storage"
      },
      {
        "astId": 35727,
        "contract": "contracts/vault/Vault.sol:Vault",
        "label": "strategies",
        "offset": 0,
        "slot": "53",
        "type": "t_mapping(t_address,t_struct(Strategy)35722_storage)"
      },
      {
        "astId": 35730,
        "contract": "contracts/vault/Vault.sol:Vault",
        "label": "allStrategies",
        "offset": 0,
        "slot": "54",
        "type": "t_array(t_address)dyn_storage"
      },
      {
        "astId": 35732,
        "contract": "contracts/vault/Vault.sol:Vault",
        "label": "priceProvider",
        "offset": 0,
        "slot": "55",
        "type": "t_address"
      },
      {
        "astId": 35735,
        "contract": "contracts/vault/Vault.sol:Vault",
        "label": "rebasePaused",
        "offset": 20,
        "slot": "55",
        "type": "t_bool"
      },
      {
        "astId": 35738,
        "contract": "contracts/vault/Vault.sol:Vault",
        "label": "capitalPaused",
        "offset": 21,
        "slot": "55",
        "type": "t_bool"
      },
      {
        "astId": 35740,
        "contract": "contracts/vault/Vault.sol:Vault",
        "label": "redeemFeeBps",
        "offset": 0,
        "slot": "56",
        "type": "t_uint256"
      },
      {
        "astId": 35742,
        "contract": "contracts/vault/Vault.sol:Vault",
        "label": "labsAddress",
        "offset": 0,
        "slot": "57",
        "type": "t_address"
      },
      {
        "astId": 35744,
        "contract": "contracts/vault/Vault.sol:Vault",
        "label": "labsFeeBps",
        "offset": 0,
        "slot": "58",
        "type": "t_uint256"
      },
      {
        "astId": 35746,
        "contract": "contracts/vault/Vault.sol:Vault",
        "label": "teamAddress",
        "offset": 0,
        "slot": "59",
        "type": "t_address"
      },
      {
        "astId": 35748,
        "contract": "contracts/vault/Vault.sol:Vault",
        "label": "teamFeeBps",
        "offset": 0,
        "slot": "60",
        "type": "t_uint256"
      },
      {
        "astId": 35750,
        "contract": "contracts/vault/Vault.sol:Vault",
        "label": "vaultBuffer",
        "offset": 0,
        "slot": "61",
        "type": "t_uint256"
      },
      {
        "astId": 35752,
        "contract": "contracts/vault/Vault.sol:Vault",
        "label": "autoAllocateThreshold",
        "offset": 0,
        "slot": "62",
        "type": "t_uint256"
      },
      {
        "astId": 35754,
        "contract": "contracts/vault/Vault.sol:Vault",
        "label": "rebaseThreshold",
        "offset": 0,
        "slot": "63",
        "type": "t_uint256"
      },
      {
        "astId": 35757,
        "contract": "contracts/vault/Vault.sol:Vault",
        "label": "cash",
        "offset": 0,
        "slot": "64",
        "type": "t_contract(CASH)29225"
      },
      {
        "astId": 35766,
        "contract": "contracts/vault/Vault.sol:Vault",
        "label": "_deprecated_rebaseHooksAddr",
        "offset": 0,
        "slot": "65",
        "type": "t_address"
      },
      {
        "astId": 35772,
        "contract": "contracts/vault/Vault.sol:Vault",
        "label": "_deprecated_uniswapAddr",
        "offset": 0,
        "slot": "66",
        "type": "t_address"
      },
      {
        "astId": 35778,
        "contract": "contracts/vault/Vault.sol:Vault",
        "label": "strategistAddr",
        "offset": 0,
        "slot": "67",
        "type": "t_address"
      },
      {
        "astId": 35782,
        "contract": "contracts/vault/Vault.sol:Vault",
        "label": "assetDefaultStrategies",
        "offset": 0,
        "slot": "68",
        "type": "t_mapping(t_address,t_address)"
      },
      {
        "astId": 35784,
        "contract": "contracts/vault/Vault.sol:Vault",
        "label": "maxSupplyDiff",
        "offset": 0,
        "slot": "69",
        "type": "t_uint256"
      },
      {
        "astId": 35786,
        "contract": "contracts/vault/Vault.sol:Vault",
        "label": "trusteeAddress",
        "offset": 0,
        "slot": "70",
        "type": "t_address"
      },
      {
        "astId": 35788,
        "contract": "contracts/vault/Vault.sol:Vault",
        "label": "trusteeFeeBps",
        "offset": 0,
        "slot": "71",
        "type": "t_uint256"
      },
      {
        "astId": 35791,
        "contract": "contracts/vault/Vault.sol:Vault",
        "label": "_deprecated_swapTokens",
        "offset": 0,
        "slot": "72",
        "type": "t_array(t_address)dyn_storage"
      },
      {
        "astId": 35796,
        "contract": "contracts/vault/Vault.sol:Vault",
        "label": "primaryStableAddress",
        "offset": 0,
        "slot": "73",
        "type": "t_address"
      },
      {
        "astId": 35799,
        "contract": "contracts/vault/Vault.sol:Vault",
        "label": "quickDepositStrategies",
        "offset": 0,
        "slot": "74",
        "type": "t_array(t_address)dyn_storage"
      },
      {
        "astId": 35801,
        "contract": "contracts/vault/Vault.sol:Vault",
        "label": "balancerVault",
        "offset": 0,
        "slot": "75",
        "type": "t_address"
      },
      {
        "astId": 35803,
        "contract": "contracts/vault/Vault.sol:Vault",
        "label": "balancerPoolId",
        "offset": 0,
        "slot": "76",
        "type": "t_bytes32"
      },
      {
        "astId": 35805,
        "contract": "contracts/vault/Vault.sol:Vault",
        "label": "harvesterAddress",
        "offset": 0,
        "slot": "77",
        "type": "t_address"
      },
      {
        "astId": 35807,
        "contract": "contracts/vault/Vault.sol:Vault",
        "label": "dripperAddress",
        "offset": 0,
        "slot": "78",
        "type": "t_address"
      },
      {
        "astId": 35824,
        "contract": "contracts/vault/Vault.sol:Vault",
        "label": "strategyWithWeightPositions",
        "offset": 0,
        "slot": "79",
        "type": "t_mapping(t_address,t_uint256)"
      },
      {
        "astId": 35828,
        "contract": "contracts/vault/Vault.sol:Vault",
        "label": "strategyWithWeights",
        "offset": 0,
        "slot": "80",
        "type": "t_array(t_struct(StrategyWithWeight)35820_storage)dyn_storage"
      }
    ],
    "types": {
      "t_address": {
        "encoding": "inplace",
        "label": "address",
        "numberOfBytes": "20"
      },
      "t_array(t_address)dyn_storage": {
        "base": "t_address",
        "encoding": "dynamic_array",
        "label": "address[]",
        "numberOfBytes": "32"
      },
      "t_array(t_struct(StrategyWithWeight)35820_storage)dyn_storage": {
        "base": "t_struct(StrategyWithWeight)35820_storage",
        "encoding": "dynamic_array",
        "label": "struct VaultStorage.StrategyWithWeight[]",
        "numberOfBytes": "32"
      },
      "t_array(t_uint256)50_storage": {
        "base": "t_uint256",
        "encoding": "inplace",
        "label": "uint256[50]",
        "numberOfBytes": "1600"
      },
      "t_bool": {
        "encoding": "inplace",
        "label": "bool",
        "numberOfBytes": "1"
      },
      "t_bytes32": {
        "encoding": "inplace",
        "label": "bytes32",
        "numberOfBytes": "32"
      },
      "t_contract(CASH)29225": {
        "encoding": "inplace",
        "label": "contract CASH",
        "numberOfBytes": "20"
      },
      "t_mapping(t_address,t_address)": {
        "encoding": "mapping",
        "key": "t_address",
        "label": "mapping(address => address)",
        "numberOfBytes": "32",
        "value": "t_address"
      },
      "t_mapping(t_address,t_struct(Asset)35709_storage)": {
        "encoding": "mapping",
        "key": "t_address",
        "label": "mapping(address => struct VaultStorage.Asset)",
        "numberOfBytes": "32",
        "value": "t_struct(Asset)35709_storage"
      },
      "t_mapping(t_address,t_struct(Strategy)35722_storage)": {
        "encoding": "mapping",
        "key": "t_address",
        "label": "mapping(address => struct VaultStorage.Strategy)",
        "numberOfBytes": "32",
        "value": "t_struct(Strategy)35722_storage"
      },
      "t_mapping(t_address,t_uint256)": {
        "encoding": "mapping",
        "key": "t_address",
        "label": "mapping(address => uint256)",
        "numberOfBytes": "32",
        "value": "t_uint256"
      },
      "t_struct(Asset)35709_storage": {
        "encoding": "inplace",
        "label": "struct VaultStorage.Asset",
        "members": [
          {
            "astId": 35708,
            "contract": "contracts/vault/Vault.sol:Vault",
            "label": "isSupported",
            "offset": 0,
            "slot": "0",
            "type": "t_bool"
          }
        ],
        "numberOfBytes": "32"
      },
      "t_struct(Strategy)35722_storage": {
        "encoding": "inplace",
        "label": "struct VaultStorage.Strategy",
        "members": [
          {
            "astId": 35719,
            "contract": "contracts/vault/Vault.sol:Vault",
            "label": "isSupported",
            "offset": 0,
            "slot": "0",
            "type": "t_bool"
          },
          {
            "astId": 35721,
            "contract": "contracts/vault/Vault.sol:Vault",
            "label": "_deprecated",
            "offset": 0,
            "slot": "1",
            "type": "t_uint256"
          }
        ],
        "numberOfBytes": "64"
      },
      "t_struct(StrategyWithWeight)35820_storage": {
        "encoding": "inplace",
        "label": "struct VaultStorage.StrategyWithWeight",
        "members": [
          {
            "astId": 35809,
            "contract": "contracts/vault/Vault.sol:Vault",
            "label": "strategy",
            "offset": 0,
            "slot": "0",
            "type": "t_address"
          },
          {
            "astId": 35811,
            "contract": "contracts/vault/Vault.sol:Vault",
            "label": "minWeight",
            "offset": 0,
            "slot": "1",
            "type": "t_uint256"
          },
          {
            "astId": 35813,
            "contract": "contracts/vault/Vault.sol:Vault",
            "label": "targetWeight",
            "offset": 0,
            "slot": "2",
            "type": "t_uint256"
          },
          {
            "astId": 35815,
            "contract": "contracts/vault/Vault.sol:Vault",
            "label": "maxWeight",
            "offset": 0,
            "slot": "3",
            "type": "t_uint256"
          },
          {
            "astId": 35817,
            "contract": "contracts/vault/Vault.sol:Vault",
            "label": "enabled",
            "offset": 0,
            "slot": "4",
            "type": "t_bool"
          },
          {
            "astId": 35819,
            "contract": "contracts/vault/Vault.sol:Vault",
            "label": "enabledReward",
            "offset": 1,
            "slot": "4",
            "type": "t_bool"
          }
        ],
        "numberOfBytes": "160"
      },
      "t_uint256": {
        "encoding": "inplace",
        "label": "uint256",
        "numberOfBytes": "32"
      }
    }
  }
}