{
  "address": "0xC8F5042f1D35fE09aF34624883B3dC967D440cF7",
  "abi": [
    {
      "anonymous": false,
      "inputs": [
        {
          "indexed": true,
          "internalType": "address",
          "name": "_asset",
          "type": "address"
        },
        {
          "indexed": false,
          "internalType": "address",
          "name": "_pToken",
          "type": "address"
        },
        {
          "indexed": false,
          "internalType": "uint256",
          "name": "_amount",
          "type": "uint256"
        }
      ],
      "name": "Deposit",
      "type": "event"
    },
    {
      "anonymous": false,
      "inputs": [
        {
          "indexed": true,
          "internalType": "address",
          "name": "previousGovernor",
          "type": "address"
        },
        {
          "indexed": true,
          "internalType": "address",
          "name": "newGovernor",
          "type": "address"
        }
      ],
      "name": "GovernorshipTransferred",
      "type": "event"
    },
    {
      "anonymous": false,
      "inputs": [
        {
          "indexed": false,
          "internalType": "address",
          "name": "_oldHarvesterAddress",
          "type": "address"
        },
        {
          "indexed": false,
          "internalType": "address",
          "name": "_newHarvesterAddress",
          "type": "address"
        }
      ],
      "name": "HarvesterAddressesUpdated",
      "type": "event"
    },
    {
      "anonymous": false,
      "inputs": [
        {
          "indexed": true,
          "internalType": "address",
          "name": "_asset",
          "type": "address"
        },
        {
          "indexed": false,
          "internalType": "address",
          "name": "_pToken",
          "type": "address"
        }
      ],
      "name": "PTokenAdded",
      "type": "event"
    },
    {
      "anonymous": false,
      "inputs": [
        {
          "indexed": true,
          "internalType": "address",
          "name": "_asset",
          "type": "address"
        },
        {
          "indexed": false,
          "internalType": "address",
          "name": "_pToken",
          "type": "address"
        }
      ],
      "name": "PTokenRemoved",
      "type": "event"
    },
    {
      "anonymous": false,
      "inputs": [
        {
          "indexed": true,
          "internalType": "address",
          "name": "previousGovernor",
          "type": "address"
        },
        {
          "indexed": true,
          "internalType": "address",
          "name": "newGovernor",
          "type": "address"
        }
      ],
      "name": "PendingGovernorshipTransfer",
      "type": "event"
    },
    {
      "anonymous": false,
      "inputs": [
        {
          "indexed": false,
          "internalType": "address[]",
          "name": "_oldAddresses",
          "type": "address[]"
        },
        {
          "indexed": false,
          "internalType": "address[]",
          "name": "_newAddresses",
          "type": "address[]"
        }
      ],
      "name": "RewardTokenAddressesUpdated",
      "type": "event"
    },
    {
      "anonymous": false,
      "inputs": [
        {
          "indexed": false,
          "internalType": "address",
          "name": "recipient",
          "type": "address"
        },
        {
          "indexed": false,
          "internalType": "address",
          "name": "rewardToken",
          "type": "address"
        },
        {
          "indexed": false,
          "internalType": "uint256",
          "name": "amount",
          "type": "uint256"
        }
      ],
      "name": "RewardTokenCollected",
      "type": "event"
    },
    {
      "anonymous": false,
      "inputs": [
        {
          "indexed": false,
          "internalType": "string",
          "name": "_message",
          "type": "string"
        },
        {
          "indexed": false,
          "internalType": "address",
          "name": "_asset",
          "type": "address"
        },
        {
          "indexed": false,
          "internalType": "uint256",
          "name": "_number",
          "type": "uint256"
        }
      ],
      "name": "TransferLog",
      "type": "event"
    },
    {
      "anonymous": false,
      "inputs": [
        {
          "indexed": true,
          "internalType": "address",
          "name": "_asset",
          "type": "address"
        },
        {
          "indexed": false,
          "internalType": "address",
          "name": "_pToken",
          "type": "address"
        },
        {
          "indexed": false,
          "internalType": "uint256",
          "name": "_amount",
          "type": "uint256"
        }
      ],
      "name": "Withdrawal",
      "type": "event"
    },
    {
      "inputs": [],
      "name": "BASIS_POINTS_FOR_SLIPPAGE",
      "outputs": [
        {
          "internalType": "uint256",
          "name": "",
          "type": "uint256"
        }
      ],
      "stateMutability": "view",
      "type": "function"
    },
    {
      "inputs": [],
      "name": "Superb",
      "outputs": [
        {
          "internalType": "contract IERC20",
          "name": "",
          "type": "address"
        }
      ],
      "stateMutability": "view",
      "type": "function"
    },
    {
      "inputs": [],
      "name": "_deprecated_rewardLiquidationThreshold",
      "outputs": [
        {
          "internalType": "uint256",
          "name": "",
          "type": "uint256"
        }
      ],
      "stateMutability": "view",
      "type": "function"
    },
    {
      "inputs": [],
      "name": "_deprecated_rewardTokenAddress",
      "outputs": [
        {
          "internalType": "address",
          "name": "",
          "type": "address"
        }
      ],
      "stateMutability": "view",
      "type": "function"
    },
    {
      "inputs": [
        {
          "internalType": "address[]",
          "name": "_amAssets",
          "type": "address[]"
        }
      ],
      "name": "_setAmAssets",
      "outputs": [],
      "stateMutability": "nonpayable",
      "type": "function"
    },
    {
      "inputs": [
        {
          "internalType": "address",
          "name": "_router",
          "type": "address"
        }
      ],
      "name": "_setRouter",
      "outputs": [],
      "stateMutability": "nonpayable",
      "type": "function"
    },
    {
      "inputs": [
        {
          "internalType": "address",
          "name": "",
          "type": "address"
        }
      ],
      "name": "amStableToAmDebt",
      "outputs": [
        {
          "internalType": "address",
          "name": "",
          "type": "address"
        }
      ],
      "stateMutability": "view",
      "type": "function"
    },
    {
      "inputs": [
        {
          "internalType": "address",
          "name": "",
          "type": "address"
        }
      ],
      "name": "assetToPToken",
      "outputs": [
        {
          "internalType": "address",
          "name": "",
          "type": "address"
        }
      ],
      "stateMutability": "view",
      "type": "function"
    },
    {
      "inputs": [],
      "name": "checkBalance",
      "outputs": [
        {
          "internalType": "uint256",
          "name": "",
          "type": "uint256"
        }
      ],
      "stateMutability": "view",
      "type": "function"
    },
    {
      "inputs": [],
      "name": "claimGovernance",
      "outputs": [],
      "stateMutability": "nonpayable",
      "type": "function"
    },
    {
      "inputs": [],
      "name": "collectRewardTokens",
      "outputs": [],
      "stateMutability": "nonpayable",
      "type": "function"
    },
    {
      "inputs": [],
      "name": "crvToken",
      "outputs": [
        {
          "internalType": "contract IERC20",
          "name": "",
          "type": "address"
        }
      ],
      "stateMutability": "view",
      "type": "function"
    },
    {
      "inputs": [
        {
          "internalType": "address",
          "name": "_asset",
          "type": "address"
        },
        {
          "internalType": "uint256",
          "name": "_amount",
          "type": "uint256"
        }
      ],
      "name": "deposit",
      "outputs": [],
      "stateMutability": "nonpayable",
      "type": "function"
    },
    {
      "inputs": [],
      "name": "depositAll",
      "outputs": [],
      "stateMutability": "nonpayable",
      "type": "function"
    },
    {
      "inputs": [],
      "name": "getRewardTokenAddresses",
      "outputs": [
        {
          "internalType": "address[]",
          "name": "",
          "type": "address[]"
        }
      ],
      "stateMutability": "view",
      "type": "function"
    },
    {
      "inputs": [],
      "name": "governor",
      "outputs": [
        {
          "internalType": "address",
          "name": "",
          "type": "address"
        }
      ],
      "stateMutability": "view",
      "type": "function"
    },
    {
      "inputs": [],
      "name": "harvesterAddress",
      "outputs": [
        {
          "internalType": "address",
          "name": "",
          "type": "address"
        }
      ],
      "stateMutability": "view",
      "type": "function"
    },
    {
      "inputs": [
        {
          "internalType": "address",
          "name": "_platformAddress",
          "type": "address"
        },
        {
          "internalType": "address",
          "name": "_vaultAddress",
          "type": "address"
        },
        {
          "internalType": "address[]",
          "name": "_rewardTokenAddresses",
          "type": "address[]"
        },
        {
          "internalType": "address[]",
          "name": "_assets",
          "type": "address[]"
        },
        {
          "internalType": "address[]",
          "name": "_pTokens",
          "type": "address[]"
        },
        {
          "internalType": "address",
          "name": "_primaryStable",
          "type": "address"
        },
        {
          "internalType": "address",
          "name": "_crvToken",
          "type": "address"
        },
        {
          "internalType": "address",
          "name": "_crvGauge",
          "type": "address"
        },
        {
          "internalType": "address",
          "name": "_crvMinter",
          "type": "address"
        }
      ],
      "name": "initialize",
      "outputs": [],
      "stateMutability": "nonpayable",
      "type": "function"
    },
    {
      "inputs": [
        {
          "internalType": "address",
          "name": "_platformAddress",
          "type": "address"
        },
        {
          "internalType": "address",
          "name": "_vaultAddress",
          "type": "address"
        },
        {
          "internalType": "address[]",
          "name": "_rewardTokenAddresses",
          "type": "address[]"
        },
        {
          "internalType": "address[]",
          "name": "_assets",
          "type": "address[]"
        },
        {
          "internalType": "address[]",
          "name": "_pTokens",
          "type": "address[]"
        }
      ],
      "name": "initialize",
      "outputs": [],
      "stateMutability": "nonpayable",
      "type": "function"
    },
    {
      "inputs": [],
      "name": "isGovernor",
      "outputs": [
        {
          "internalType": "bool",
          "name": "",
          "type": "bool"
        }
      ],
      "stateMutability": "view",
      "type": "function"
    },
    {
      "inputs": [],
      "name": "platformAddress",
      "outputs": [
        {
          "internalType": "address",
          "name": "",
          "type": "address"
        }
      ],
      "stateMutability": "view",
      "type": "function"
    },
    {
      "inputs": [],
      "name": "primaryStable",
      "outputs": [
        {
          "internalType": "contract IERC20",
          "name": "",
          "type": "address"
        }
      ],
      "stateMutability": "view",
      "type": "function"
    },
    {
      "inputs": [
        {
          "internalType": "uint256",
          "name": "_assetIndex",
          "type": "uint256"
        }
      ],
      "name": "removePToken",
      "outputs": [],
      "stateMutability": "nonpayable",
      "type": "function"
    },
    {
      "inputs": [
        {
          "internalType": "uint256",
          "name": "",
          "type": "uint256"
        }
      ],
      "name": "rewardTokenAddresses",
      "outputs": [
        {
          "internalType": "address",
          "name": "",
          "type": "address"
        }
      ],
      "stateMutability": "view",
      "type": "function"
    },
    {
      "inputs": [],
      "name": "safeApproveAllTokens",
      "outputs": [],
      "stateMutability": "nonpayable",
      "type": "function"
    },
    {
      "inputs": [
        {
          "internalType": "address",
          "name": "_harvesterAddress",
          "type": "address"
        }
      ],
      "name": "setHarvesterAddress",
      "outputs": [],
      "stateMutability": "nonpayable",
      "type": "function"
    },
    {
      "inputs": [
        {
          "internalType": "address",
          "name": "_asset",
          "type": "address"
        },
        {
          "internalType": "address",
          "name": "_pToken",
          "type": "address"
        }
      ],
      "name": "setPTokenAddress",
      "outputs": [],
      "stateMutability": "nonpayable",
      "type": "function"
    },
    {
      "inputs": [
        {
          "internalType": "address[]",
          "name": "_rewardTokenAddresses",
          "type": "address[]"
        }
      ],
      "name": "setRewardTokenAddresses",
      "outputs": [],
      "stateMutability": "nonpayable",
      "type": "function"
    },
    {
      "inputs": [
        {
          "internalType": "address",
          "name": "",
          "type": "address"
        }
      ],
      "name": "stableToAmStable",
      "outputs": [
        {
          "internalType": "address",
          "name": "",
          "type": "address"
        }
      ],
      "stateMutability": "view",
      "type": "function"
    },
    {
      "inputs": [
        {
          "internalType": "address",
          "name": "_asset",
          "type": "address"
        }
      ],
      "name": "supportsAsset",
      "outputs": [
        {
          "internalType": "bool",
          "name": "",
          "type": "bool"
        }
      ],
      "stateMutability": "view",
      "type": "function"
    },
    {
      "inputs": [
        {
          "internalType": "address",
          "name": "_newGovernor",
          "type": "address"
        }
      ],
      "name": "transferGovernance",
      "outputs": [],
      "stateMutability": "nonpayable",
      "type": "function"
    },
    {
      "inputs": [
        {
          "internalType": "address",
          "name": "_asset",
          "type": "address"
        },
        {
          "internalType": "uint256",
          "name": "_amount",
          "type": "uint256"
        }
      ],
      "name": "transferToken",
      "outputs": [],
      "stateMutability": "nonpayable",
      "type": "function"
    },
    {
      "inputs": [],
      "name": "vaultAddress",
      "outputs": [
        {
          "internalType": "address",
          "name": "",
          "type": "address"
        }
      ],
      "stateMutability": "view",
      "type": "function"
    },
    {
      "inputs": [
        {
          "internalType": "address",
          "name": "_recipient",
          "type": "address"
        },
        {
          "internalType": "address",
          "name": "_asset",
          "type": "address"
        },
        {
          "internalType": "uint256",
          "name": "_amount",
          "type": "uint256"
        }
      ],
      "name": "withdraw",
      "outputs": [],
      "stateMutability": "nonpayable",
      "type": "function"
    },
    {
      "inputs": [],
      "name": "withdrawAll",
      "outputs": [],
      "stateMutability": "nonpayable",
      "type": "function"
    }
  ],
  "transactionHash": "0xc239098cb6bcf6974c7c97395289939ab0cac36dfabc155f63d4bb621e236c3e",
  "args": [],
  "solcInputHash": "687ed9fa5cffd3a4c7a6373a1d9ad1d9",
  "bytecode": "0x60806040523480156200001157600080fd5b506200002a3360008051602062003d7483398151915255565b60008051602062003d74833981519152546040516001600160a01b03909116906000907fc7c0c772add429241571afb3805861fb3cfa2af374534088b76cdb4325a87e9a908290a3613cf280620000826000396000f3fe608060405234801561001057600080fd5b50600436106102115760003560e01c80639136616a11610125578063d1431ffd116100ad578063dbe55e561161007c578063dbe55e561461049d578063de5f6268146104b0578063f664b3d9146104b8578063f6ca71b0146104c0578063f817bc63146104d557600080fd5b8063d1431ffd14610451578063d2f2489314610464578063d38bfff414610477578063d9caed121461048a57600080fd5b8063ad1728cb116100f4578063ad1728cb146103ef578063b59c3e79146103f7578063c2e1e3f414610420578063c71daccb14610433578063c7af33521461044957600080fd5b80639136616a146103785780639688d2fc1461038b57806396d538bb1461039e578063aa388af6146103b157600080fd5b8063430bf08a116101a857806367c7066c1161017757806367c7066c1461032457806368727617146103375780637b2d9b2c1461034a578063853828b61461035d5780638eac22231461036557600080fd5b8063430bf08a146102ee57806347e7ef24146103015780635a063f63146103145780635d36b1901461031c57600080fd5b806315d4573a116101e457806315d4573a1461028c5780632e655201146102b55780632f0fbd59146102c857806332d7d66d146102db57600080fd5b80630c340a24146102165780630ed57b3a1461023b5780630fc3b4c4146102505780631072cbea14610279575b600080fd5b61021e6104de565b6040516001600160a01b0390911681526020015b60405180910390f35b61024e61024936600461339a565b6104fb565b005b61021e61025e36600461337f565b6035602052600090815260409020546001600160a01b031681565b61024e6102873660046135d3565b610536565b61021e61029a36600461337f565b60d3602052600090815260409020546001600160a01b031681565b60375461021e906001600160a01b031681565b61024e6102d63660046135fd565b610576565b60d15461021e906001600160a01b031681565b60345461021e906001600160a01b031681565b61024e61030f3660046135d3565b61063e565b61024e610a4a565b61024e610ae9565b60395461021e906001600160a01b031681565b60d65461021e906001600160a01b031681565b61021e610358366004613726565b610b8f565b61024e610bb9565b61024e610373366004613488565b610f17565b61024e610386366004613726565b61111f565b61024e6103993660046133cd565b6112ea565b61024e6103ac3660046135fd565b6113f3565b6103df6103bf36600461337f565b6001600160a01b0390811660009081526035602052604090205416151590565b6040519015158152602001610232565b61024e611519565b61021e61040536600461337f565b60d2602052600090815260409020546001600160a01b031681565b61024e61042e36600461337f565b6115ca565b61043b611649565b604051908152602001610232565b6103df61179c565b61024e61045f36600461337f565b6117cd565b60d05461021e906001600160a01b031681565b61024e61048536600461337f565b611868565b61024e610498366004613597565b61190c565b60335461021e906001600160a01b031681565b61024e611cc9565b61043b600481565b6104c8612041565b604051610232919061382a565b61043b60385481565b60006104f6600080516020613c9d8339815191525490565b905090565b61050361179c565b6105285760405162461bcd60e51b815260040161051f90613980565b60405180910390fd5b61053282826120a3565b5050565b61053e61179c565b61055a5760405162461bcd60e51b815260040161051f90613980565b6105326105656104de565b6001600160a01b0384169083612208565b61057e61179c565b61059a5760405162461bcd60e51b815260040161051f90613980565b60365460005b81811015610638578383828181106105ba576105ba613c50565b90506020020160208101906105cf919061337f565b60d26000603684815481106105e6576105e6613c50565b6000918252602080832091909101546001600160a01b039081168452908301939093526040909101902080546001600160a01b031916929091169190911790558061063081613c09565b9150506105a0565b50505050565b6034546001600160a01b031633146106685760405162461bcd60e51b815260040161051f90613949565b600080516020613c7d8339815191528054600281141561069a5760405162461bcd60e51b815260040161051f90613a05565b6002825560d0546001600160a01b038581169116146106f25760405162461bcd60e51b81526020600482015260146024820152732a37b5b2b7103737ba1039bab83837b93a32b21760611b604482015260640161051f565b60d0546040516370a0823160e01b81523060048201526001600160a01b03909116906370a082319060240160206040518083038186803b15801561073557600080fd5b505afa158015610749573d6000803e3d6000fd5b505050506040513d601f19601f8201168201806040525081019061076d919061373f565b8310156107b05760405162461bcd60e51b81526020600482015260116024820152704e6f7420656e6f7567682061737365747360781b604482015260640161051f565b600083116107f95760405162461bcd60e51b81526020600482015260166024820152754d757374206465706f73697420736f6d657468696e6760501b604482015260640161051f565b603354604080516001600160a01b03928316815260208101869052918616917f5548c837ab068cf56a2c2479df0882a4922fd203edb7517321831d95078c5f62910160405180910390a261084b613281565b60006108568661226b565b90508482826003811061086b5761086b613c50565b602090810291909101919091526033546001600160a01b03888116600090815260d2909352604083205491811692916108a49116612307565b9050600061092e836001600160a01b031663bb7b8b806040518163ffffffff1660e01b815260040160206040518083038186803b1580156108e457600080fd5b505afa1580156108f8573d6000803e3d6000fd5b505050506040513d601f19601f8201168201806040525081019061091c919061373f565b6109288a6012866123f6565b9061245a565b9050600061095561094e662386f26fc10000670de0b6b3a7640000613bc6565b8390612483565b6040516315b74c9d60e11b81529091506001600160a01b03851690632b6e993a9061098990899085906001906004016138f0565b600060405180830381600087803b1580156109a357600080fd5b505af11580156109b7573d6000803e3d6000fd5b505050506109c3612498565b6040805160608082526018908201527f4465706f736974696e6720746f20416d3343757276653a20000000000000000060808201526001600160a01b038c1660208201529081018a90527ff0f0cce21a2c16fc3714f3a884bca7193a057e8544baa837916e9420d890bf8a9060a00160405180910390a15050505050506001825550505050565b6039546001600160a01b03163314610aa45760405162461bcd60e51b815260206004820152601b60248201527f43616c6c6572206973206e6f7420746865204861727665737465720000000000604482015260640161051f565b600080516020613c7d83398151915280546002811415610ad65760405162461bcd60e51b815260040161051f90613a05565b60028255610ae26125a8565b5060019055565b7f7eaf9a7750884803435dfabc67aa617a7d8fefb23d8d84b3c9722bd69e48c4bc546001600160a01b0316336001600160a01b031614610b845760405162461bcd60e51b815260206004820152603060248201527f4f6e6c79207468652070656e64696e6720476f7665726e6f722063616e20636f60448201526f6d706c6574652074686520636c61696d60801b606482015260840161051f565b610b8d33612808565b565b603a8181548110610b9f57600080fd5b6000918252602090912001546001600160a01b0316905081565b6034546001600160a01b0316331480610bea5750610bd56104de565b6001600160a01b0316336001600160a01b0316145b610c425760405162461bcd60e51b815260206004820152602360248201527f43616c6c6572206973206e6f7420746865205661756c74206f7220476f7665726044820152623737b960e91b606482015260840161051f565b600080516020613c7d83398151915280546002811415610c745760405162461bcd60e51b815260040161051f90613a05565b60028255600080610c836128c9565b9250925050610c91826129d8565b603354609d546040516370a0823160e01b81523060048201526001600160a01b039283169260009216906370a082319060240160206040518083038186803b158015610cdc57600080fd5b505afa158015610cf0573d6000803e3d6000fd5b505050506040513d601f19601f82011682018060405250810190610d14919061373f565b60d0549091506000906001600160a01b038085169163cc2b27d7918591610d3b911661226b565b6040516001600160e01b031960e085901b1681526004810192909252600f0b602482015260440160206040518083038186803b158015610d7a57600080fd5b505afa158015610d8e573d6000803e3d6000fd5b505050506040513d601f19601f82011682018060405250810190610db2919061373f565b90506000610dd261094e662386f26fc10000670de0b6b3a7640000613bc6565b60d0549091506001600160a01b038086169163517a55a3918891610df6911661226b565b6040516001600160e01b031960e085901b1681526004810192909252600f0b60248201526044810184905260016064820152608401600060405180830381600087803b158015610e4557600080fd5b505af1158015610e59573d6000803e3d6000fd5b505060d0546040516370a0823160e01b8152306004820152600093506001600160a01b0390911691506370a082319060240160206040518083038186803b158015610ea357600080fd5b505afa158015610eb7573d6000803e3d6000fd5b505050506040513d601f19601f82011682018060405250810190610edb919061373f565b90508015610f005760345460d054610f00916001600160a01b03918216911683612208565b610f086125a8565b50505050505050600182555050565b610f1f61179c565b610f3b5760405162461bcd60e51b815260040161051f90613980565b600054610100900460ff1680610f54575060005460ff16155b610f705760405162461bcd60e51b815260040161051f906139b7565b600054610100900460ff16158015610f92576000805461ffff19166101011790555b86866000818110610fa557610fa5613c50565b9050602002016020810190610fba919061337f565b609d60006101000a8154816001600160a01b0302191690836001600160a01b031602179055508460d060006101000a8154816001600160a01b0302191690836001600160a01b031602179055508360d160006101000a8154816001600160a01b0302191690836001600160a01b031602179055508260d460006101000a8154816001600160a01b0302191690836001600160a01b031602179055508160d560006101000a8154816001600160a01b0302191690836001600160a01b031602179055506110fe8d8d8d8d8d8d80806020026020016040519081016040528093929190818152602001838360200280828437600081840152601f19601f820116905080830192505050505050508c8c80806020026020016040519081016040528093929190818152602001838360200280828437600092019190915250612a1492505050565b8015611110576000805461ff00191690555b50505050505050505050505050565b61112761179c565b6111435760405162461bcd60e51b815260040161051f90613980565b60365481106111845760405162461bcd60e51b815260206004820152600d60248201526c092dcecc2d8d2c840d2dcc8caf609b1b604482015260640161051f565b60006036828154811061119957611199613c50565b60009182526020808320909101546001600160a01b039081168084526035909252604090922054603654919350909116906111d690600190613bc6565b83101561125857603680546111ed90600190613bc6565b815481106111fd576111fd613c50565b600091825260209091200154603680546001600160a01b03909216918590811061122957611229613c50565b9060005260206000200160006101000a8154816001600160a01b0302191690836001600160a01b031602179055505b603680548061126957611269613c3a565b60008281526020808220600019908401810180546001600160a01b031990811690915593019093556001600160a01b038581168083526035855260409283902080549094169093559051908416815290917f16b7600acff27e39a8a96056b3d533045298de927507f5c1d97e4accde60488c910160405180910390a2505050565b6112f261179c565b61130e5760405162461bcd60e51b815260040161051f90613980565b600054610100900460ff1680611327575060005460ff16155b6113435760405162461bcd60e51b815260040161051f906139b7565b600054610100900460ff16158015611365576000805461ffff19166101011790555b6113d68989898989898080602002602001604051908101604052809392919081815260200183836020028082843760009201919091525050604080516020808d0282810182019093528c82529093508c92508b918291850190849080828437600092019190915250612a1492505050565b80156113e8576000805461ff00191690555b505050505050505050565b6113fb61179c565b6114175760405162461bcd60e51b815260040161051f90613980565b60005b818110156114cb57600083838381811061143657611436613c50565b905060200201602081019061144b919061337f565b6001600160a01b031614156114b95760405162461bcd60e51b815260206004820152602e60248201527f43616e206e6f742073657420616e20656d70747920616464726573732061732060448201526d30903932bbb0b932103a37b5b2b760911b606482015260840161051f565b806114c381613c09565b91505061141a565b507f04c0b9649497d316554306e53678d5f5f5dbc3a06f97dec13ff4cfe98b986bbc603a83836040516115009392919061383d565b60405180910390a1611514603a838361329f565b505050565b61152161179c565b61153d5760405162461bcd60e51b815260040161051f90613980565b600080516020613c7d8339815191528054600281141561156f5760405162461bcd60e51b815260040161051f90613a05565b6002825560005b6036548110156115c2576115b06036828154811061159657611596613c50565b6000918252602090912001546001600160a01b0316612afd565b806115ba81613c09565b915050611576565b505060019055565b6115d261179c565b6115ee5760405162461bcd60e51b815260040161051f90613980565b603980546001600160a01b0319166001600160a01b0383169081179091556040805182815260208101929092527fe48386b84419f4d36e0f96c10cc3510b6fb1a33795620c5098b22472bbe90796910160405180910390a150565b60d0546040516370a0823160e01b815230600482015260009182916001600160a01b03909116906370a082319060240160206040518083038186803b15801561169157600080fd5b505afa1580156116a5573d6000803e3d6000fd5b505050506040513d601f19601f820116820180604052508101906116c9919061373f565b90506000806116d66128c9565b6033549093506001600160a01b031691505081156117895760d0546001600160a01b038083169163cc2b27d791859161170f911661226b565b6040516001600160e01b031960e085901b1681526004810192909252600f0b602482015260440160206040518083038186803b15801561174e57600080fd5b505afa158015611762573d6000803e3d6000fd5b505050506040513d601f19601f82011682018060405250810190611786919061373f565b92505b6117938385613a82565b94505050505090565b60006117b4600080516020613c9d8339815191525490565b6001600160a01b0316336001600160a01b031614905090565b6117d561179c565b6117f15760405162461bcd60e51b815260040161051f90613980565b6001600160a01b0381166118475760405162461bcd60e51b815260206004820152601860248201527f5a65726f2061646472657373206e6f7420616c6c6f7765640000000000000000604482015260640161051f565b609e80546001600160a01b0319166001600160a01b03831617905550565b50565b61187061179c565b61188c5760405162461bcd60e51b815260040161051f90613980565b6118b4817f7eaf9a7750884803435dfabc67aa617a7d8fefb23d8d84b3c9722bd69e48c4bc55565b806001600160a01b03166118d4600080516020613c9d8339815191525490565b6001600160a01b03167fa39cc5eb22d0f34d8beaefee8a3f17cc229c1a1d1ef87a5ad47313487b1c4f0d60405160405180910390a350565b6034546001600160a01b031633146119365760405162461bcd60e51b815260040161051f90613949565b600080516020613c7d833981519152805460028114156119685760405162461bcd60e51b815260040161051f90613a05565b6002825560d0546001600160a01b038581169116146119c05760405162461bcd60e51b81526020600482015260146024820152732a37b5b2b7103737ba1039bab83837b93a32b21760611b604482015260640161051f565b60006119ca6128c9565b509150506119d7816129d8565b6033546001600160a01b03166119eb613281565b60006119f68861226b565b905086828260038110611a0b57611a0b613c50565b6020020152604051633883e11960e01b81526000906001600160a01b03851690633883e11990611a4190869085906004016138d3565b602060405180830381600087803b158015611a5b57600080fd5b505af1158015611a6f573d6000803e3d6000fd5b505050506040513d601f19601f82011682018060405250810190611a93919061373f565b9050611ad46040518060400160405280601981526020017f616d33437276546f6b656e546f576974686472617746726f6d0000000000000081525082612b36565b60d0546000906001600160a01b038087169163cc2b27d7918591611af8911661226b565b6040516001600160e01b031960e085901b1681526004810192909252600f0b602482015260440160206040518083038186803b158015611b3757600080fd5b505afa158015611b4b573d6000803e3d6000fd5b505050506040513d601f19601f82011682018060405250810190611b6f919061373f565b90506000611b8f61094e662386f26fc10000670de0b6b3a7640000613bc6565b9050856001600160a01b031663517a55a384611baa8e61226b565b6040516001600160e01b031960e085901b1681526004810192909252600f0b60248201526044810184905260016064820152608401600060405180830381600087803b158015611bf957600080fd5b505af1158015611c0d573d6000803e3d6000fd5b505060d0546040516370a0823160e01b8152306004820152600093506001600160a01b0390911691506370a082319060240160206040518083038186803b158015611c5757600080fd5b505afa158015611c6b573d6000803e3d6000fd5b505050506040513d601f19601f82011682018060405250810190611c8f919061373f565b90508015611cae5760d054611cae906001600160a01b03168e83612208565b611cb6612498565b5050505050505050600182555050505050565b6034546001600160a01b03163314611cf35760405162461bcd60e51b815260040161051f90613949565b600080516020613c7d83398151915280546002811415611d255760405162461bcd60e51b815260040161051f90613a05565b6002825560408051606081018252600080825260208083018290528284018290526033548451630176f71760e71b81529451939492936001600160a01b03909116928492849263bb7b8b80926004808201939291829003018186803b158015611d8d57600080fd5b505afa158015611da1573d6000803e3d6000fd5b505050506040513d601f19601f82011682018060405250810190611dc5919061373f565b905060005b603654811015611fa057600060368281548110611de957611de9613c50565b60009182526020822001546040516370a0823160e01b81523060048201526001600160a01b03909116925082906370a082319060240160206040518083038186803b158015611e3757600080fd5b505afa158015611e4b573d6000803e3d6000fd5b505050506040513d601f19601f82011682018060405250810190611e6f919061373f565b604080516060808252601c908201527f4465706f736974696e6720416c6c20746f20416d3343757276653a200000000060808201526001600160a01b03851660208201529081018290529091507ff0f0cce21a2c16fc3714f3a884bca7193a057e8544baa837916e9420d890bf8a9060a00160405180910390a18015611f8b576000611efa8361226b565b905081888260038110611f0f57611f0f613c50565b60200201526000611f1f84612307565b9050611f3186610928856012856123f6565b611f3b9089613a82565b603354604080516001600160a01b03928316815260208101879052929a50908616917f5548c837ab068cf56a2c2479df0882a4922fd203edb7517321831d95078c5f62910160405180910390a250505b50508080611f9890613c09565b915050611dca565b506000611fc6611fbf662386f26fc10000670de0b6b3a7640000613bc6565b8590612483565b6040516315b74c9d60e11b81529091506001600160a01b03841690632b6e993a90611ffa90889085906001906004016138f0565b600060405180830381600087803b15801561201457600080fd5b505af1158015612028573d6000803e3d6000fd5b50505050612034612498565b5050505050600182555050565b6060603a80548060200260200160405190810160405280929190818152602001828054801561209957602002820191906000526020600020905b81546001600160a01b0316815260019091019060200180831161207b575b5050505050905090565b6001600160a01b0382811660009081526035602052604090205416156121005760405162461bcd60e51b81526020600482015260126024820152711c151bdad95b88185b1c9958591e481cd95d60721b604482015260640161051f565b6001600160a01b0382161580159061212057506001600160a01b03811615155b6121605760405162461bcd60e51b8152602060048201526011602482015270496e76616c69642061646472657373657360781b604482015260640161051f565b6001600160a01b03828116600081815260356020908152604080832080549587166001600160a01b031996871681179091556036805460018101825594527f4a11f94e20a93c79f6ec743a1954ec4fc2c08429ae2122118bf234b2185c81b890930180549095168417909455925190815290917fef6485b84315f9b1483beffa32aae9a0596890395e3d7521f1c5fbb51790e765910160405180910390a26105328282612b7b565b6040516001600160a01b03831660248201526044810182905261151490849063a9059cbb60e01b906064015b60408051601f198184030181529190526020810180516001600160e01b03166001600160e01b031990931692909217909152612b84565b6000805b60038110156122c857826001600160a01b03166036828154811061229557612295613c50565b6000918252602090912001546001600160a01b031614156122b65792915050565b806122c081613c09565b91505061226f565b5060405162461bcd60e51b8152602060048201526013602482015272125b9d985b1a59080cdc1bdbdb08185cdcd95d606a1b604482015260640161051f565b600080826001600160a01b031663313ce5676040518163ffffffff1660e01b815260040160206040518083038186803b15801561234357600080fd5b505afa158015612357573d6000803e3d6000fd5b505050506040513d601f19601f8201168201806040525081019061237b9190613758565b60ff16905060048110158015612392575060128111155b6123f05760405162461bcd60e51b815260206004820152602960248201527f546f6b656e206d75737420686176652073756666696369656e7420646563696d604482015268616c20706c6163657360b81b606482015260840161051f565b92915050565b6000818311156124265761241f61240d8385613bc6565b61241890600a613aff565b8590612c56565b9350612450565b818310156124505761244d61243b8484613bc6565b61244690600a613aff565b8590612c62565b93505b50825b9392505050565b60008061246f84670de0b6b3a7640000612c56565b905061247b8184612c62565b949350505050565b60006124538383670de0b6b3a7640000612c6e565b609d546040516370a0823160e01b81523060048201526000916001600160a01b0316906370a082319060240160206040518083038186803b1580156124dc57600080fd5b505afa1580156124f0573d6000803e3d6000fd5b505050506040513d601f19601f82011682018060405250810190612514919061373f565b905080156118655760d454609d54612539916001600160a01b03918216911683612c90565b60d4546040516383df674760e01b815260048101839052306024820152600060448201526001600160a01b03909116906383df6747906064015b600060405180830381600087803b15801561258d57600080fd5b505af11580156125a1573d6000803e3d6000fd5b5050505050565b60d55460d4546040516335313c2160e11b81526001600160a01b039182166004820152911690636a62784290602401600060405180830381600087803b1580156125f157600080fd5b505af1158015612605573d6000803e3d6000fd5b505060d1546040516370a0823160e01b8152306004820152600093506001600160a01b0390911691506370a082319060240160206040518083038186803b15801561264f57600080fd5b505afa158015612663573d6000803e3d6000fd5b505050506040513d601f19601f82011682018060405250810190612687919061373f565b905080156126af5760d15460d0546126ad916001600160a01b0390811691168330612db4565b505b60d0546040516370a0823160e01b81523060048201526000916001600160a01b0316906370a082319060240160206040518083038186803b1580156126f357600080fd5b505afa158015612707573d6000803e3d6000fd5b505050506040513d601f19601f8201168201806040525081019061272b919061373f565b60395460d054604080516001600160a01b03938416815292909116602083015281018290529091507ff6c07a063ed4e63808eb8da7112d46dbcd38de2b40a73dbcc9353c5a94c723539060600160405180910390a160d05460395460405163a9059cbb60e01b81526001600160a01b0391821660048201526024810184905291169063a9059cbb90604401602060405180830381600087803b1580156127d057600080fd5b505af11580156127e4573d6000803e3d6000fd5b505050506040513d601f19601f820116820180604052508101906115149190613704565b6001600160a01b03811661285e5760405162461bcd60e51b815260206004820152601a60248201527f4e657720476f7665726e6f722069732061646472657373283029000000000000604482015260640161051f565b806001600160a01b031661287e600080516020613c9d8339815191525490565b6001600160a01b03167fc7c0c772add429241571afb3805861fb3cfa2af374534088b76cdb4325a87e9a60405160405180910390a361186581600080516020613c9d83398151915255565b609d546040516370a0823160e01b8152306004820152600091829182916001600160a01b0316906370a082319060240160206040518083038186803b15801561291157600080fd5b505afa158015612925573d6000803e3d6000fd5b505050506040513d601f19601f82011682018060405250810190612949919061373f565b60d4546040516370a0823160e01b81523060048201529194506001600160a01b0316906370a082319060240160206040518083038186803b15801561298d57600080fd5b505afa1580156129a1573d6000803e3d6000fd5b505050506040513d601f19601f820116820180604052508101906129c5919061373f565b91506129d18284613a82565b9050909192565b60d45460405162ebf5dd60e01b815260048101839052306024820152600160448201526001600160a01b039091169062ebf5dd90606401612573565b603380546001600160a01b038089166001600160a01b0319928316179092556034805492881692909116919091179055612a50603a858561329f565b50815181518114612a9a5760405162461bcd60e51b8152602060048201526014602482015273496e76616c696420696e7075742061727261797360601b604482015260640161051f565b60005b81811015612af357612ae1848281518110612aba57612aba613c50565b6020026020010151848381518110612ad457612ad4613c50565b60200260200101516120a3565b80612aeb81613c09565b915050612a9d565b5050505050505050565b6033548190612b1a906001600160a01b0380841691166000612c90565b603354610532906001600160a01b038381169116600019612c90565b6105328282604051602401612b4c929190613927565b60408051601f198184030181529190526020810180516001600160e01b03166309710a9d60e41b179052612fa0565b61053282612afd565b6000612bd9826040518060400160405280602081526020017f5361666545524332303a206c6f772d6c6576656c2063616c6c206661696c6564815250856001600160a01b0316612fc19092919063ffffffff16565b8051909150156115145780806020019051810190612bf79190613704565b6115145760405162461bcd60e51b815260206004820152602a60248201527f5361666545524332303a204552433230206f7065726174696f6e20646964206e6044820152691bdd081cdd58d8d9595960b21b606482015260840161051f565b60006124538284613ba7565b60006124538284613a9a565b600080612c7b8585612c56565b9050612c878184612c62565b95945050505050565b801580612d195750604051636eb1769f60e11b81523060048201526001600160a01b03838116602483015284169063dd62ed3e9060440160206040518083038186803b158015612cdf57600080fd5b505afa158015612cf3573d6000803e3d6000fd5b505050506040513d601f19601f82011682018060405250810190612d17919061373f565b155b612d845760405162461bcd60e51b815260206004820152603660248201527f5361666545524332303a20617070726f76652066726f6d206e6f6e2d7a65726f60448201527520746f206e6f6e2d7a65726f20616c6c6f77616e636560501b606482015260840161051f565b6040516001600160a01b03831660248201526044810182905261151490849063095ea7b360e01b90606401612234565b609e5460405163095ea7b360e01b81526001600160a01b0391821660048201526024810184905260009186169063095ea7b390604401602060405180830381600087803b158015612e0457600080fd5b505af1158015612e18573d6000803e3d6000fd5b505050506040513d601f19601f82011682018060405250810190612e3c9190613704565b506000612e4a868686612fd0565b905080612e5b57600091505061247b565b6040805160028082526060820183526000926020830190803683370190505090508681600081518110612e9057612e90613c50565b60200260200101906001600160a01b031690816001600160a01b0316815250508581600181518110612ec457612ec4613c50565b6001600160a01b039283166020918202929092010152609e54600091166338ed173987612ef28660046130fd565b8589612f0042610258613a82565b6040518663ffffffff1660e01b8152600401612f20959493929190613a46565b600060405180830381600087803b158015612f3a57600080fd5b505af1158015612f4e573d6000803e3d6000fd5b505050506040513d6000823e601f3d908101601f19168201604052612f76919081019061363f565b905080600181518110612f8b57612f8b613c50565b60200260200101519350505050949350505050565b80516a636f6e736f6c652e6c6f67602083016000808483855afa5050505050565b606061247b8484600085613120565b60408051600280825260608201835260009283929190602083019080368337019050509050848160008151811061300957613009613c50565b60200260200101906001600160a01b031690816001600160a01b031681525050838160018151811061303d5761303d613c50565b6001600160a01b039283166020918202929092010152609e5460405163d06ca61f60e01b8152600092919091169063d06ca61f906130819087908690600401613a2d565b60006040518083038186803b15801561309957600080fd5b505afa1580156130ad573d6000803e3d6000fd5b505050506040513d6000823e601f3d908101601f191682016040526130d5919081019061363f565b9050806001815181106130ea576130ea613c50565b6020026020010151925050509392505050565b600061271061310c8382613bc6565b6131169085613ba7565b6124539190613a9a565b6060824710156131815760405162461bcd60e51b815260206004820152602660248201527f416464726573733a20696e73756666696369656e742062616c616e636520666f6044820152651c8818d85b1b60d21b606482015260840161051f565b843b6131cf5760405162461bcd60e51b815260206004820152601d60248201527f416464726573733a2063616c6c20746f206e6f6e2d636f6e7472616374000000604482015260640161051f565b600080866001600160a01b031685876040516131eb919061380e565b60006040518083038185875af1925050503d8060008114613228576040519150601f19603f3d011682016040523d82523d6000602084013e61322d565b606091505b509150915061323d828286613248565b979650505050505050565b60608315613257575081612453565b8251156132675782518084602001fd5b8160405162461bcd60e51b815260040161051f9190613914565b60405180606001604052806003906020820280368337509192915050565b8280548282559060005260206000209081019282156132f2579160200282015b828111156132f25781546001600160a01b0319166001600160a01b038435161782556020909201916001909101906132bf565b506132fe929150613302565b5090565b5b808211156132fe5760008155600101613303565b80356001600160a01b038116811461332e57600080fd5b919050565b60008083601f84011261334557600080fd5b50813567ffffffffffffffff81111561335d57600080fd5b6020830191508360208260051b850101111561337857600080fd5b9250929050565b60006020828403121561339157600080fd5b61245382613317565b600080604083850312156133ad57600080fd5b6133b683613317565b91506133c460208401613317565b90509250929050565b60008060008060008060008060a0898b0312156133e957600080fd5b6133f289613317565b975061340060208a01613317565b9650604089013567ffffffffffffffff8082111561341d57600080fd5b6134298c838d01613333565b909850965060608b013591508082111561344257600080fd5b61344e8c838d01613333565b909650945060808b013591508082111561346757600080fd5b506134748b828c01613333565b999c989b5096995094979396929594505050565b6000806000806000806000806000806000806101208d8f0312156134ab57600080fd5b6134b48d613317565b9b506134c260208e01613317565b9a5067ffffffffffffffff60408e013511156134dd57600080fd5b6134ed8e60408f01358f01613333565b909a50985067ffffffffffffffff60608e0135111561350b57600080fd5b61351b8e60608f01358f01613333565b909850965067ffffffffffffffff60808e0135111561353957600080fd5b6135498e60808f01358f01613333565b909650945061355a60a08e01613317565b935061356860c08e01613317565b925061357660e08e01613317565b91506135856101008e01613317565b90509295989b509295989b509295989b565b6000806000606084860312156135ac57600080fd5b6135b584613317565b92506135c360208501613317565b9150604084013590509250925092565b600080604083850312156135e657600080fd5b6135ef83613317565b946020939093013593505050565b6000806020838503121561361057600080fd5b823567ffffffffffffffff81111561362757600080fd5b61363385828601613333565b90969095509350505050565b6000602080838503121561365257600080fd5b825167ffffffffffffffff8082111561366a57600080fd5b818501915085601f83011261367e57600080fd5b81518181111561369057613690613c66565b8060051b604051601f19603f830116810181811085821117156136b5576136b5613c66565b604052828152858101935084860182860187018a10156136d457600080fd5b600095505b838610156136f75780518552600195909501949386019386016136d9565b5098975050505050505050565b60006020828403121561371657600080fd5b8151801515811461245357600080fd5b60006020828403121561373857600080fd5b5035919050565b60006020828403121561375157600080fd5b5051919050565b60006020828403121561376a57600080fd5b815160ff8116811461245357600080fd5b600081518084526020808501945080840160005b838110156137b45781516001600160a01b03168752958201959082019060010161378f565b509495945050505050565b8060005b60038110156106385781518452602093840193909101906001016137c3565b600081518084526137fa816020860160208601613bdd565b601f01601f19169290920160200192915050565b60008251613820818460208701613bdd565b9190910192915050565b602081526000612453602083018461377b565b6000604082016040835280865480835260608501915087600052602092508260002060005b828110156138875781546001600160a01b031684529284019260019182019101613862565b505050838103828501528481528590820160005b868110156138c7576001600160a01b036138b484613317565b168252918301919083019060010161389b565b50979650505050505050565b608081016138e182856137bf565b82151560608301529392505050565b60a081016138fe82866137bf565b8360608301528215156080830152949350505050565b60208152600061245360208301846137e2565b60408152600061393a60408301856137e2565b90508260208301529392505050565b60208082526017908201527f43616c6c6572206973206e6f7420746865205661756c74000000000000000000604082015260600190565b6020808252601a908201527f43616c6c6572206973206e6f742074686520476f7665726e6f72000000000000604082015260600190565b6020808252602e908201527f496e697469616c697a61626c653a20636f6e747261637420697320616c72656160408201526d191e481a5b9a5d1a585b1a5e995960921b606082015260800190565b6020808252600e908201526d1499595b9d1c985b9d0818d85b1b60921b604082015260600190565b82815260406020820152600061247b604083018461377b565b85815284602082015260a060408201526000613a6560a083018661377b565b6001600160a01b0394909416606083015250608001529392505050565b60008219821115613a9557613a95613c24565b500190565b600082613ab757634e487b7160e01b600052601260045260246000fd5b500490565b600181815b80851115613af7578160001904821115613add57613add613c24565b80851615613aea57918102915b93841c9390800290613ac1565b509250929050565b60006124538383600082613b15575060016123f0565b81613b22575060006123f0565b8160018114613b385760028114613b4257613b5e565b60019150506123f0565b60ff841115613b5357613b53613c24565b50506001821b6123f0565b5060208310610133831016604e8410600b8410161715613b81575081810a6123f0565b613b8b8383613abc565b8060001904821115613b9f57613b9f613c24565b029392505050565b6000816000190483118215151615613bc157613bc1613c24565b500290565b600082821015613bd857613bd8613c24565b500390565b60005b83811015613bf8578181015183820152602001613be0565b838111156106385750506000910152565b6000600019821415613c1d57613c1d613c24565b5060010190565b634e487b7160e01b600052601160045260246000fd5b634e487b7160e01b600052603160045260246000fd5b634e487b7160e01b600052603260045260246000fd5b634e487b7160e01b600052604160045260246000fdfe48a06827bfe8bfc0a59fe65d0fa78f553938265ed1f971326fc09947d19a593c83f34c88ec39d54d1e423bd8a181ebc59ede5dcc9996c2df334668b4f89fdd73a2646970667358221220b464850c0492479bf63b6f3fdb559301590eca7a95e707232e66d0e50a3dd3f664736f6c6343000806003383f34c88ec39d54d1e423bd8a181ebc59ede5dcc9996c2df334668b4f89fdd73",
  "devdoc": {
    "kind": "dev",
    "methods": {
      "checkBalance()": {
        "details": "Get the total asset value held in the platform",
        "returns": {
          "_0": "   Total value of the asset in the platform"
        }
      },
      "claimGovernance()": {
        "details": "Claim Governance of the contract to a new account (`newGovernor`). Can only be called by the new Governor."
      },
      "collectRewardTokens()": {
        "details": "Collect accumulated reward token and send to Vault."
      },
      "deposit(address,uint256)": {
        "details": "Deposit asset into the Curve 3Pool",
        "params": {
          "_amount": "Amount of asset to deposit",
          "_asset": "Address of asset to deposit"
        }
      },
      "depositAll()": {
        "details": "Deposit the entire balance of any supported asset into the Curve 3pool"
      },
      "getRewardTokenAddresses()": {
        "details": "Get the reward token addresses.",
        "returns": {
          "_0": "address[] the reward token addresses."
        }
      },
      "governor()": {
        "details": "Returns the address of the current Governor."
      },
      "initialize(address,address,address[],address[],address[])": {
        "details": "Internal initialize function, to set up initial internal state",
        "params": {
          "_assets": "Addresses of initial supported assets",
          "_pTokens": "Platform Token corresponding addresses",
          "_platformAddress": "Generic platform address",
          "_rewardTokenAddresses": "Address of reward token for platform",
          "_vaultAddress": "Address of the Vault"
        }
      },
      "initialize(address,address,address[],address[],address[],address,address,address,address)": {
        "params": {
          "_assets": "Addresses of supported assets. MUST be passed in the same                order as returned by coins on the pool contract, i.e.                USDC",
          "_pTokens": "Platform Token corresponding addresses",
          "_platformAddress": "Address of the am3Crv",
          "_rewardTokenAddresses": "Address of CRV",
          "_vaultAddress": "Address of the vault"
        }
      },
      "isGovernor()": {
        "details": "Returns true if the caller is the current Governor."
      },
      "removePToken(uint256)": {
        "details": "Remove a supported asset by passing its index.      This method can only be called by the system Governor",
        "params": {
          "_assetIndex": "Index of the asset to be removed"
        }
      },
      "safeApproveAllTokens()": {
        "details": "Approve the spending of all assets by their corresponding pool tokens,      if for some reason is it necessary."
      },
      "setHarvesterAddress(address)": {
        "details": "Set the reward token addresses.",
        "params": {
          "_harvesterAddress": "Address of the harvester"
        }
      },
      "setPTokenAddress(address,address)": {
        "details": "Provide support for asset by passing its pToken address.      This method can only be called by the system Governor",
        "params": {
          "_asset": "Address for the asset",
          "_pToken": "Address for the corresponding platform token"
        }
      },
      "setRewardTokenAddresses(address[])": {
        "details": "Set the reward token addresses.",
        "params": {
          "_rewardTokenAddresses": "Address array of the reward token"
        }
      },
      "supportsAsset(address)": {
        "details": "Retuns bool indicating whether asset is supported by strategy",
        "params": {
          "_asset": "Address of the asset"
        }
      },
      "transferGovernance(address)": {
        "details": "Transfers Governance of the contract to a new account (`newGovernor`). Can only be called by the current Governor. Must be claimed for this to complete",
        "params": {
          "_newGovernor": "Address of the new Governor"
        }
      },
      "transferToken(address,uint256)": {
        "details": "Transfer token to governor. Intended for recovering tokens stuck in      strategy contracts, i.e. mistaken sends.",
        "params": {
          "_amount": "Amount of the asset to transfer",
          "_asset": "Address for the asset"
        }
      },
      "withdraw(address,address,uint256)": {
        "details": "Withdraw asset from Curve 3Pool",
        "params": {
          "_amount": "Amount of asset to withdraw",
          "_asset": "Address of asset to withdraw",
          "_recipient": "Address to receive withdrawn asset"
        }
      },
      "withdrawAll()": {
        "details": "Remove all assets from platform and send them to Vault contract."
      }
    },
    "version": 1
  },
  "userdoc": {
    "kind": "user",
    "methods": {
      "initialize(address,address,address[],address[],address[],address,address,address,address)": {
        "notice": "Initializer for setting up strategy internal state. This overrides the InitializableAbstractStrategy initializer as Curve strategies don't fit well within that abstraction."
      }
    },
    "version": 1
  },
  "storageLayout": {
    "storage": [
      {
        "astId": 30623,
        "contract": "contracts/strategies/Am3CurveStrategy.sol:Am3CurveStrategy",
        "label": "initialized",
        "offset": 0,
        "slot": "0",
        "type": "t_bool"
      },
      {
        "astId": 30626,
        "contract": "contracts/strategies/Am3CurveStrategy.sol:Am3CurveStrategy",
        "label": "initializing",
        "offset": 1,
        "slot": "0",
        "type": "t_bool"
      },
      {
        "astId": 30666,
        "contract": "contracts/strategies/Am3CurveStrategy.sol:Am3CurveStrategy",
        "label": "______gap",
        "offset": 0,
        "slot": "1",
        "type": "t_array(t_uint256)50_storage"
      },
      {
        "astId": 30750,
        "contract": "contracts/strategies/Am3CurveStrategy.sol:Am3CurveStrategy",
        "label": "platformAddress",
        "offset": 0,
        "slot": "51",
        "type": "t_address"
      },
      {
        "astId": 30752,
        "contract": "contracts/strategies/Am3CurveStrategy.sol:Am3CurveStrategy",
        "label": "vaultAddress",
        "offset": 0,
        "slot": "52",
        "type": "t_address"
      },
      {
        "astId": 30756,
        "contract": "contracts/strategies/Am3CurveStrategy.sol:Am3CurveStrategy",
        "label": "assetToPToken",
        "offset": 0,
        "slot": "53",
        "type": "t_mapping(t_address,t_address)"
      },
      {
        "astId": 30759,
        "contract": "contracts/strategies/Am3CurveStrategy.sol:Am3CurveStrategy",
        "label": "assetsMapped",
        "offset": 0,
        "slot": "54",
        "type": "t_array(t_address)dyn_storage"
      },
      {
        "astId": 30761,
        "contract": "contracts/strategies/Am3CurveStrategy.sol:Am3CurveStrategy",
        "label": "_deprecated_rewardTokenAddress",
        "offset": 0,
        "slot": "55",
        "type": "t_address"
      },
      {
        "astId": 30763,
        "contract": "contracts/strategies/Am3CurveStrategy.sol:Am3CurveStrategy",
        "label": "_deprecated_rewardLiquidationThreshold",
        "offset": 0,
        "slot": "56",
        "type": "t_uint256"
      },
      {
        "astId": 30765,
        "contract": "contracts/strategies/Am3CurveStrategy.sol:Am3CurveStrategy",
        "label": "harvesterAddress",
        "offset": 0,
        "slot": "57",
        "type": "t_address"
      },
      {
        "astId": 30768,
        "contract": "contracts/strategies/Am3CurveStrategy.sol:Am3CurveStrategy",
        "label": "rewardTokenAddresses",
        "offset": 0,
        "slot": "58",
        "type": "t_array(t_address)dyn_storage"
      },
      {
        "astId": 30772,
        "contract": "contracts/strategies/Am3CurveStrategy.sol:Am3CurveStrategy",
        "label": "_reserved",
        "offset": 0,
        "slot": "59",
        "type": "t_array(t_int256)98_storage"
      },
      {
        "astId": 19788,
        "contract": "contracts/strategies/Am3CurveStrategy.sol:Am3CurveStrategy",
        "label": "pTokenAddress",
        "offset": 0,
        "slot": "157",
        "type": "t_address"
      },
      {
        "astId": 7950,
        "contract": "contracts/strategies/Am3CurveStrategy.sol:Am3CurveStrategy",
        "label": "uniswapRouter",
        "offset": 0,
        "slot": "158",
        "type": "t_contract(IUniswapV2Router02)5552"
      },
      {
        "astId": 8212,
        "contract": "contracts/strategies/Am3CurveStrategy.sol:Am3CurveStrategy",
        "label": "__gap",
        "offset": 0,
        "slot": "159",
        "type": "t_array(t_uint256)49_storage"
      },
      {
        "astId": 18817,
        "contract": "contracts/strategies/Am3CurveStrategy.sol:Am3CurveStrategy",
        "label": "primaryStable",
        "offset": 0,
        "slot": "208",
        "type": "t_contract(IERC20)623"
      },
      {
        "astId": 18820,
        "contract": "contracts/strategies/Am3CurveStrategy.sol:Am3CurveStrategy",
        "label": "crvToken",
        "offset": 0,
        "slot": "209",
        "type": "t_contract(IERC20)623"
      },
      {
        "astId": 18824,
        "contract": "contracts/strategies/Am3CurveStrategy.sol:Am3CurveStrategy",
        "label": "stableToAmStable",
        "offset": 0,
        "slot": "210",
        "type": "t_mapping(t_address,t_address)"
      },
      {
        "astId": 18828,
        "contract": "contracts/strategies/Am3CurveStrategy.sol:Am3CurveStrategy",
        "label": "amStableToAmDebt",
        "offset": 0,
        "slot": "211",
        "type": "t_mapping(t_address,t_address)"
      },
      {
        "astId": 18831,
        "contract": "contracts/strategies/Am3CurveStrategy.sol:Am3CurveStrategy",
        "label": "crvGauge",
        "offset": 0,
        "slot": "212",
        "type": "t_contract(ICurveGauge)23367"
      },
      {
        "astId": 18834,
        "contract": "contracts/strategies/Am3CurveStrategy.sol:Am3CurveStrategy",
        "label": "crvMinter",
        "offset": 0,
        "slot": "213",
        "type": "t_contract(ICRVMinter)23284"
      },
      {
        "astId": 18837,
        "contract": "contracts/strategies/Am3CurveStrategy.sol:Am3CurveStrategy",
        "label": "Superb",
        "offset": 0,
        "slot": "214",
        "type": "t_contract(IERC20)623"
      }
    ],
    "types": {
      "t_address": {
        "encoding": "inplace",
        "label": "address",
        "numberOfBytes": "20"
      },
      "t_array(t_address)dyn_storage": {
        "base": "t_address",
        "encoding": "dynamic_array",
        "label": "address[]",
        "numberOfBytes": "32"
      },
      "t_array(t_int256)98_storage": {
        "base": "t_int256",
        "encoding": "inplace",
        "label": "int256[98]",
        "numberOfBytes": "3136"
      },
      "t_array(t_uint256)49_storage": {
        "base": "t_uint256",
        "encoding": "inplace",
        "label": "uint256[49]",
        "numberOfBytes": "1568"
      },
      "t_array(t_uint256)50_storage": {
        "base": "t_uint256",
        "encoding": "inplace",
        "label": "uint256[50]",
        "numberOfBytes": "1600"
      },
      "t_bool": {
        "encoding": "inplace",
        "label": "bool",
        "numberOfBytes": "1"
      },
      "t_contract(ICRVMinter)23284": {
        "encoding": "inplace",
        "label": "contract ICRVMinter",
        "numberOfBytes": "20"
      },
      "t_contract(ICurveGauge)23367": {
        "encoding": "inplace",
        "label": "contract ICurveGauge",
        "numberOfBytes": "20"
      },
      "t_contract(IERC20)623": {
        "encoding": "inplace",
        "label": "contract IERC20",
        "numberOfBytes": "20"
      },
      "t_contract(IUniswapV2Router02)5552": {
        "encoding": "inplace",
        "label": "contract IUniswapV2Router02",
        "numberOfBytes": "20"
      },
      "t_int256": {
        "encoding": "inplace",
        "label": "int256",
        "numberOfBytes": "32"
      },
      "t_mapping(t_address,t_address)": {
        "encoding": "mapping",
        "key": "t_address",
        "label": "mapping(address => address)",
        "numberOfBytes": "32",
        "value": "t_address"
      },
      "t_uint256": {
        "encoding": "inplace",
        "label": "uint256",
        "numberOfBytes": "32"
      }
    }
  }
}