{
  "address": "0x07921a3581699eE4c0876D443093DfcD4ccb806C",
  "abi": [
    {
      "anonymous": false,
      "inputs": [
        {
          "indexed": true,
          "internalType": "address",
          "name": "_asset",
          "type": "address"
        },
        {
          "indexed": false,
          "internalType": "address",
          "name": "_pToken",
          "type": "address"
        },
        {
          "indexed": false,
          "internalType": "uint256",
          "name": "_amount",
          "type": "uint256"
        }
      ],
      "name": "Deposit",
      "type": "event"
    },
    {
      "anonymous": false,
      "inputs": [
        {
          "indexed": true,
          "internalType": "address",
          "name": "previousGovernor",
          "type": "address"
        },
        {
          "indexed": true,
          "internalType": "address",
          "name": "newGovernor",
          "type": "address"
        }
      ],
      "name": "GovernorshipTransferred",
      "type": "event"
    },
    {
      "anonymous": false,
      "inputs": [
        {
          "indexed": false,
          "internalType": "address",
          "name": "_oldHarvesterAddress",
          "type": "address"
        },
        {
          "indexed": false,
          "internalType": "address",
          "name": "_newHarvesterAddress",
          "type": "address"
        }
      ],
      "name": "HarvesterAddressesUpdated",
      "type": "event"
    },
    {
      "anonymous": false,
      "inputs": [
        {
          "indexed": true,
          "internalType": "address",
          "name": "_asset",
          "type": "address"
        },
        {
          "indexed": false,
          "internalType": "address",
          "name": "_pToken",
          "type": "address"
        }
      ],
      "name": "PTokenAdded",
      "type": "event"
    },
    {
      "anonymous": false,
      "inputs": [
        {
          "indexed": true,
          "internalType": "address",
          "name": "_asset",
          "type": "address"
        },
        {
          "indexed": false,
          "internalType": "address",
          "name": "_pToken",
          "type": "address"
        }
      ],
      "name": "PTokenRemoved",
      "type": "event"
    },
    {
      "anonymous": false,
      "inputs": [
        {
          "indexed": true,
          "internalType": "address",
          "name": "previousGovernor",
          "type": "address"
        },
        {
          "indexed": true,
          "internalType": "address",
          "name": "newGovernor",
          "type": "address"
        }
      ],
      "name": "PendingGovernorshipTransfer",
      "type": "event"
    },
    {
      "anonymous": false,
      "inputs": [
        {
          "indexed": false,
          "internalType": "address[]",
          "name": "_oldAddresses",
          "type": "address[]"
        },
        {
          "indexed": false,
          "internalType": "address[]",
          "name": "_newAddresses",
          "type": "address[]"
        }
      ],
      "name": "RewardTokenAddressesUpdated",
      "type": "event"
    },
    {
      "anonymous": false,
      "inputs": [
        {
          "indexed": false,
          "internalType": "address",
          "name": "recipient",
          "type": "address"
        },
        {
          "indexed": false,
          "internalType": "address",
          "name": "rewardToken",
          "type": "address"
        },
        {
          "indexed": false,
          "internalType": "uint256",
          "name": "amount",
          "type": "uint256"
        }
      ],
      "name": "RewardTokenCollected",
      "type": "event"
    },
    {
      "anonymous": false,
      "inputs": [
        {
          "indexed": false,
          "internalType": "string",
          "name": "_message",
          "type": "string"
        },
        {
          "indexed": false,
          "internalType": "address",
          "name": "_asset",
          "type": "address"
        },
        {
          "indexed": false,
          "internalType": "uint256",
          "name": "_number",
          "type": "uint256"
        }
      ],
      "name": "TransferLog",
      "type": "event"
    },
    {
      "anonymous": false,
      "inputs": [
        {
          "indexed": true,
          "internalType": "address",
          "name": "_asset",
          "type": "address"
        },
        {
          "indexed": false,
          "internalType": "address",
          "name": "_pToken",
          "type": "address"
        },
        {
          "indexed": false,
          "internalType": "uint256",
          "name": "_amount",
          "type": "uint256"
        }
      ],
      "name": "Withdrawal",
      "type": "event"
    },
    {
      "inputs": [],
      "name": "MAX_SLIPPAGE",
      "outputs": [
        {
          "internalType": "uint256",
          "name": "",
          "type": "uint256"
        }
      ],
      "stateMutability": "view",
      "type": "function"
    },
    {
      "inputs": [],
      "name": "MAX_VALUE",
      "outputs": [
        {
          "internalType": "int256",
          "name": "",
          "type": "int256"
        }
      ],
      "stateMutability": "view",
      "type": "function"
    },
    {
      "inputs": [],
      "name": "_deprecated_rewardLiquidationThreshold",
      "outputs": [
        {
          "internalType": "uint256",
          "name": "",
          "type": "uint256"
        }
      ],
      "stateMutability": "view",
      "type": "function"
    },
    {
      "inputs": [],
      "name": "_deprecated_rewardTokenAddress",
      "outputs": [
        {
          "internalType": "address",
          "name": "",
          "type": "address"
        }
      ],
      "stateMutability": "view",
      "type": "function"
    },
    {
      "inputs": [
        {
          "internalType": "address",
          "name": "",
          "type": "address"
        }
      ],
      "name": "assetToPToken",
      "outputs": [
        {
          "internalType": "address",
          "name": "",
          "type": "address"
        }
      ],
      "stateMutability": "view",
      "type": "function"
    },
    {
      "inputs": [],
      "name": "balancerPoolIdUsdcTusdDaiUsdt",
      "outputs": [
        {
          "internalType": "bytes32",
          "name": "",
          "type": "bytes32"
        }
      ],
      "stateMutability": "view",
      "type": "function"
    },
    {
      "inputs": [],
      "name": "balancerPoolIdWmaticUsdcWethBal",
      "outputs": [
        {
          "internalType": "bytes32",
          "name": "",
          "type": "bytes32"
        }
      ],
      "stateMutability": "view",
      "type": "function"
    },
    {
      "inputs": [],
      "name": "balancerVault",
      "outputs": [
        {
          "internalType": "address",
          "name": "",
          "type": "address"
        }
      ],
      "stateMutability": "view",
      "type": "function"
    },
    {
      "inputs": [],
      "name": "checkBalance",
      "outputs": [
        {
          "internalType": "uint256",
          "name": "balance",
          "type": "uint256"
        }
      ],
      "stateMutability": "view",
      "type": "function"
    },
    {
      "inputs": [],
      "name": "claimGovernance",
      "outputs": [],
      "stateMutability": "nonpayable",
      "type": "function"
    },
    {
      "inputs": [],
      "name": "collectRewardTokens",
      "outputs": [],
      "stateMutability": "nonpayable",
      "type": "function"
    },
    {
      "inputs": [
        {
          "internalType": "address",
          "name": "_asset",
          "type": "address"
        },
        {
          "internalType": "uint256",
          "name": "_amount",
          "type": "uint256"
        }
      ],
      "name": "deposit",
      "outputs": [],
      "stateMutability": "nonpayable",
      "type": "function"
    },
    {
      "inputs": [],
      "name": "depositAll",
      "outputs": [],
      "stateMutability": "nonpayable",
      "type": "function"
    },
    {
      "inputs": [],
      "name": "dodoMine",
      "outputs": [
        {
          "internalType": "contract IDODOMine",
          "name": "",
          "type": "address"
        }
      ],
      "stateMutability": "view",
      "type": "function"
    },
    {
      "inputs": [],
      "name": "dodoToken",
      "outputs": [
        {
          "internalType": "contract IERC20",
          "name": "",
          "type": "address"
        }
      ],
      "stateMutability": "view",
      "type": "function"
    },
    {
      "inputs": [],
      "name": "dodoV1UsdcUsdtPool",
      "outputs": [
        {
          "internalType": "contract IDODOV1",
          "name": "",
          "type": "address"
        }
      ],
      "stateMutability": "view",
      "type": "function"
    },
    {
      "inputs": [],
      "name": "dodoV2DodoUsdtPool",
      "outputs": [
        {
          "internalType": "contract IDODOV2",
          "name": "",
          "type": "address"
        }
      ],
      "stateMutability": "view",
      "type": "function"
    },
    {
      "inputs": [],
      "name": "getRewardTokenAddresses",
      "outputs": [
        {
          "internalType": "address[]",
          "name": "",
          "type": "address[]"
        }
      ],
      "stateMutability": "view",
      "type": "function"
    },
    {
      "inputs": [],
      "name": "governor",
      "outputs": [
        {
          "internalType": "address",
          "name": "",
          "type": "address"
        }
      ],
      "stateMutability": "view",
      "type": "function"
    },
    {
      "inputs": [],
      "name": "harvesterAddress",
      "outputs": [
        {
          "internalType": "address",
          "name": "",
          "type": "address"
        }
      ],
      "stateMutability": "view",
      "type": "function"
    },
    {
      "inputs": [
        {
          "internalType": "address",
          "name": "_platformAddress",
          "type": "address"
        },
        {
          "internalType": "address",
          "name": "_vaultAddress",
          "type": "address"
        },
        {
          "internalType": "address[]",
          "name": "_rewardTokenAddresses",
          "type": "address[]"
        },
        {
          "internalType": "address[]",
          "name": "_assets",
          "type": "address[]"
        },
        {
          "internalType": "address[]",
          "name": "_pTokens",
          "type": "address[]"
        }
      ],
      "name": "initialize",
      "outputs": [],
      "stateMutability": "nonpayable",
      "type": "function"
    },
    {
      "inputs": [
        {
          "internalType": "address",
          "name": "_platformAddress",
          "type": "address"
        },
        {
          "internalType": "address",
          "name": "_vaultAddress",
          "type": "address"
        },
        {
          "internalType": "address[]",
          "name": "_rewardTokenAddresses",
          "type": "address[]"
        },
        {
          "internalType": "address[]",
          "name": "_assets",
          "type": "address[]"
        },
        {
          "internalType": "address[]",
          "name": "_pTokens",
          "type": "address[]"
        },
        {
          "internalType": "address",
          "name": "_usdtToken",
          "type": "address"
        },
        {
          "internalType": "address",
          "name": "_wMaticToken",
          "type": "address"
        },
        {
          "internalType": "address[]",
          "name": "dodoAddresses",
          "type": "address[]"
        }
      ],
      "name": "initialize",
      "outputs": [],
      "stateMutability": "nonpayable",
      "type": "function"
    },
    {
      "inputs": [],
      "name": "isGovernor",
      "outputs": [
        {
          "internalType": "bool",
          "name": "",
          "type": "bool"
        }
      ],
      "stateMutability": "view",
      "type": "function"
    },
    {
      "inputs": [],
      "name": "platformAddress",
      "outputs": [
        {
          "internalType": "address",
          "name": "",
          "type": "address"
        }
      ],
      "stateMutability": "view",
      "type": "function"
    },
    {
      "inputs": [],
      "name": "primaryStable",
      "outputs": [
        {
          "internalType": "contract IERC20",
          "name": "",
          "type": "address"
        }
      ],
      "stateMutability": "view",
      "type": "function"
    },
    {
      "inputs": [
        {
          "internalType": "uint256",
          "name": "_assetIndex",
          "type": "uint256"
        }
      ],
      "name": "removePToken",
      "outputs": [],
      "stateMutability": "nonpayable",
      "type": "function"
    },
    {
      "inputs": [
        {
          "internalType": "uint256",
          "name": "",
          "type": "uint256"
        }
      ],
      "name": "rewardTokenAddresses",
      "outputs": [
        {
          "internalType": "address",
          "name": "",
          "type": "address"
        }
      ],
      "stateMutability": "view",
      "type": "function"
    },
    {
      "inputs": [],
      "name": "safeApproveAllTokens",
      "outputs": [],
      "stateMutability": "nonpayable",
      "type": "function"
    },
    {
      "inputs": [
        {
          "internalType": "address",
          "name": "_primaryStable",
          "type": "address"
        },
        {
          "internalType": "address",
          "name": "_balancerVault",
          "type": "address"
        },
        {
          "internalType": "bytes32",
          "name": "_balancerPoolIdUsdcTusdDaiUsdt",
          "type": "bytes32"
        },
        {
          "internalType": "bytes32",
          "name": "_balancerPoolIdWmaticUsdcWethBal",
          "type": "bytes32"
        }
      ],
      "name": "setBalancerAndPrimaryStable",
      "outputs": [],
      "stateMutability": "nonpayable",
      "type": "function"
    },
    {
      "inputs": [
        {
          "internalType": "address",
          "name": "_harvesterAddress",
          "type": "address"
        }
      ],
      "name": "setHarvesterAddress",
      "outputs": [],
      "stateMutability": "nonpayable",
      "type": "function"
    },
    {
      "inputs": [
        {
          "internalType": "address",
          "name": "_asset",
          "type": "address"
        },
        {
          "internalType": "address",
          "name": "_pToken",
          "type": "address"
        }
      ],
      "name": "setPTokenAddress",
      "outputs": [],
      "stateMutability": "nonpayable",
      "type": "function"
    },
    {
      "inputs": [
        {
          "internalType": "address[]",
          "name": "_rewardTokenAddresses",
          "type": "address[]"
        }
      ],
      "name": "setRewardTokenAddresses",
      "outputs": [],
      "stateMutability": "nonpayable",
      "type": "function"
    },
    {
      "inputs": [
        {
          "internalType": "address",
          "name": "_asset",
          "type": "address"
        }
      ],
      "name": "supportsAsset",
      "outputs": [
        {
          "internalType": "bool",
          "name": "",
          "type": "bool"
        }
      ],
      "stateMutability": "view",
      "type": "function"
    },
    {
      "inputs": [
        {
          "internalType": "address",
          "name": "_newGovernor",
          "type": "address"
        }
      ],
      "name": "transferGovernance",
      "outputs": [],
      "stateMutability": "nonpayable",
      "type": "function"
    },
    {
      "inputs": [
        {
          "internalType": "address",
          "name": "_asset",
          "type": "address"
        },
        {
          "internalType": "uint256",
          "name": "_amount",
          "type": "uint256"
        }
      ],
      "name": "transferToken",
      "outputs": [],
      "stateMutability": "nonpayable",
      "type": "function"
    },
    {
      "inputs": [],
      "name": "usdcLPToken",
      "outputs": [
        {
          "internalType": "contract IERC20",
          "name": "",
          "type": "address"
        }
      ],
      "stateMutability": "view",
      "type": "function"
    },
    {
      "inputs": [],
      "name": "usdtToken",
      "outputs": [
        {
          "internalType": "contract IERC20",
          "name": "",
          "type": "address"
        }
      ],
      "stateMutability": "view",
      "type": "function"
    },
    {
      "inputs": [],
      "name": "vaultAddress",
      "outputs": [
        {
          "internalType": "address",
          "name": "",
          "type": "address"
        }
      ],
      "stateMutability": "view",
      "type": "function"
    },
    {
      "inputs": [
        {
          "internalType": "address",
          "name": "_beneficiary",
          "type": "address"
        },
        {
          "internalType": "address",
          "name": "_asset",
          "type": "address"
        },
        {
          "internalType": "uint256",
          "name": "_amount",
          "type": "uint256"
        }
      ],
      "name": "withdraw",
      "outputs": [],
      "stateMutability": "nonpayable",
      "type": "function"
    },
    {
      "inputs": [],
      "name": "withdrawAll",
      "outputs": [],
      "stateMutability": "nonpayable",
      "type": "function"
    },
    {
      "inputs": [],
      "name": "wmaticToken",
      "outputs": [
        {
          "internalType": "contract IERC20",
          "name": "",
          "type": "address"
        }
      ],
      "stateMutability": "view",
      "type": "function"
    }
  ],
  "transactionHash": "0xd9ac4f9748dd52475cd86f1eaace27cad74e7ae1940340cadc9779840baef32e",
  "args": [],
  "solcInputHash": "687ed9fa5cffd3a4c7a6373a1d9ad1d9",
  "bytecode": "0x60806040523480156200001157600080fd5b506200002a336000805160206200532583398151915255565b60008051602062005325833981519152546040516001600160a01b03909116906000907fc7c0c772add429241571afb3805861fb3cfa2af374534088b76cdb4325a87e9a908290a36152a380620000826000396000f3fe608060405234801561001057600080fd5b50600436106102535760003560e01c8063853828b611610146578063c71daccb116100c3578063dbe55e5611610087578063dbe55e56146104db578063de5f6268146104ee578063f6ca71b0146104f6578063f78e4d811461050b578063f817bc631461051e578063f97595181461052757600080fd5b8063c71daccb14610492578063c7af33521461049a578063d2f24893146104a2578063d38bfff4146104b5578063d9caed12146104c857600080fd5b8063a98ad46c1161010a578063a98ad46c14610436578063aa388af614610449578063abf4be011461046c578063ad1728cb146102cd578063c2e1e3f41461047f57600080fd5b8063853828b6146103e25780639136616a146103ea5780639688d2fc146103fd57806396d538bb14610410578063a7a61d051461042357600080fd5b80632e655201116101d457806364153fe91161019857806364153fe91461038357806367c7066c1461039657806375123ff9146103a95780637b2d9b2c146103bc5780638400150a146103cf57600080fd5b80632e6552011461033a578063430bf08a1461034d57806347e7ef24146103605780635a063f63146103735780635d36b1901461037b57600080fd5b80630f5754a81161021b5780630f5754a8146102cf5780630fc3b4c4146102d85780631072cbea14610301578063154e4f5814610314578063158274a51461032757600080fd5b8063063bde241461025857806307ab0a7e1461027e5780630c340a24146102a95780630d9fe3fd146102b15780630ed57b3a146102ba575b600080fd5b61026b6b033b2e3c9fd0803ce800000081565b6040519081526020015b60405180910390f35b60d754610291906001600160a01b031681565b6040516001600160a01b039091168152602001610275565b610291610535565b61026b60da5481565b6102cd6102c83660046146b2565b610552565b005b61026b60d95481565b6102916102e6366004614695565b6035602052600090815260409020546001600160a01b031681565b6102cd61030f366004614983565b61058d565b60d654610291906001600160a01b031681565b60db54610291906001600160a01b031681565b603754610291906001600160a01b031681565b603454610291906001600160a01b031681565b6102cd61036e366004614983565b6105cd565b6102cd610640565b6102cd610a70565b6102cd6103913660046148cd565b610b16565b603954610291906001600160a01b031681565b60d254610291906001600160a01b031681565b6102916103ca366004614b05565b610ca9565b60d854610291906001600160a01b031681565b6102cd610cd3565b6102cd6103f8366004614b05565b61107a565b6102cd61040b3660046146eb565b611245565b6102cd61041e3660046149af565b61134e565b60d454610291906001600160a01b031681565b60d154610291906001600160a01b031681565b61045c610457366004614695565b611474565b6040519015158152602001610275565b60d354610291906001600160a01b031681565b6102cd61048d366004614695565b6114c4565b61026b611543565b61045c6117a6565b60d554610291906001600160a01b031681565b6102cd6104c3366004614695565b6117d7565b6102cd6104d6366004614913565b61187b565b603354610291906001600160a01b031681565b6102cd611d6a565b6104fe611e4e565b6040516102759190614d10565b6102cd6105193660046147aa565b611eb0565b61026b60385481565b61026b662386f26fc1000081565b600061054d60008051602061524e8339815191525490565b905090565b61055a6117a6565b61057f5760405162461bcd60e51b815260040161057690614e7f565b60405180910390fd5b6105898282612223565b5050565b6105956117a6565b6105b15760405162461bcd60e51b815260040161057690614e7f565b6105896105bc610535565b6001600160a01b0384169083612382565b6034546001600160a01b031633146105f75760405162461bcd60e51b815260040161057690614e48565b60008051602061522e833981519152805460028114156106295760405162461bcd60e51b815260040161057690614f04565b6002825561063784846123d4565b50600190555050565b6039546001600160a01b0316331461069a5760405162461bcd60e51b815260206004820152601b60248201527f43616c6c6572206973206e6f74207468652048617276657374657200000000006044820152606401610576565b60008051602061522e833981519152805460028114156106cc5760405162461bcd60e51b815260040161057690614f04565b6002825560d8546040516370a0823160e01b81523060048201526000916001600160a01b0316906370a082319060240160206040518083038186803b15801561071457600080fd5b505afa158015610728573d6000803e3d6000fd5b505050506040513d601f19601f8201168201806040525081019061074c9190614b1e565b9050806107595750610a69565b60d860009054906101000a90046001600160a01b03166001600160a01b0316630b83a7276040518163ffffffff1660e01b8152600401600060405180830381600087803b1580156107a957600080fd5b505af11580156107bd573d6000803e3d6000fd5b505060d2546040516370a0823160e01b8152306004820152600093508392506001600160a01b03909116906370a082319060240160206040518083038186803b15801561080957600080fd5b505afa15801561081d573d6000803e3d6000fd5b505050506040513d601f19601f820116820180604052508101906108419190614b1e565b905080156108bd5760d75460d25460d154600092610873926001600160a01b03918216929082169116856001866127cd565b9050600081156108ae5760db5460d95460d15460d5546108ab936001600160a01b039081169392600092908216911630808985612aaa565b90505b6108b881856150c2565b935050505b60d3546040516370a0823160e01b81523060048201526000916001600160a01b0316906370a082319060240160206040518083038186803b15801561090157600080fd5b505afa158015610915573d6000803e3d6000fd5b505050506040513d601f19601f820116820180604052508101906109399190614b1e565b905080156109825760db5460da5460d35460d554600093610972936001600160a01b039182169390928692918216911630808985612aaa565b905061097e81856150c2565b9350505b8215610a645760395460d554604080516001600160a01b03938416815292909116602083015281018490527ff6c07a063ed4e63808eb8da7112d46dbcd38de2b40a73dbcc9353c5a94c723539060600160405180910390a160d55460395460405163a9059cbb60e01b81526001600160a01b0391821660048201526024810186905291169063a9059cbb90604401602060405180830381600087803b158015610a2a57600080fd5b505af1158015610a3e573d6000803e3d6000fd5b505050506040513d601f19601f82011682018060405250810190610a629190614ac6565b505b505050505b5060019055565b7f7eaf9a7750884803435dfabc67aa617a7d8fefb23d8d84b3c9722bd69e48c4bc546001600160a01b0316336001600160a01b031614610b0b5760405162461bcd60e51b815260206004820152603060248201527f4f6e6c79207468652070656e64696e6720476f7665726e6f722063616e20636f60448201526f6d706c6574652074686520636c61696d60801b6064820152608401610576565b610b1433612e39565b565b610b1e6117a6565b610b3a5760405162461bcd60e51b815260040161057690614e7f565b6001600160a01b038416610b8b5760405162461bcd60e51b815260206004820152601860248201527716995c9bc81859191c995cdcc81b9bdd08185b1b1bddd95960421b6044820152606401610576565b6001600160a01b038316610bdc5760405162461bcd60e51b815260206004820152601860248201527716995c9bc81859191c995cdcc81b9bdd08185b1b1bddd95960421b6044820152606401610576565b81610c255760405162461bcd60e51b8152602060048201526019602482015278115b5c1d1e481c1bdbdb081a59081b9bdd08185b1b1bddd959603a1b6044820152606401610576565b80610c6e5760405162461bcd60e51b8152602060048201526019602482015278115b5c1d1e481c1bdbdb081a59081b9bdd08185b1b1bddd959603a1b6044820152606401610576565b60d580546001600160a01b039586166001600160a01b03199182161790915560db80549490951693169290921790925560d99190915560da55565b603a8181548110610cb957600080fd5b6000918252602090912001546001600160a01b0316905081565b6034546001600160a01b0316331480610d045750610cef610535565b6001600160a01b0316336001600160a01b0316145b610d5c5760405162461bcd60e51b815260206004820152602360248201527f43616c6c6572206973206e6f7420746865205661756c74206f7220476f7665726044820152623737b960e91b6064820152608401610576565b60008051602061522e83398151915280546002811415610d8e5760405162461bcd60e51b815260040161057690614f04565b6002825560d8546040516370a0823160e01b81523060048201526000916001600160a01b0316906370a082319060240160206040518083038186803b158015610dd657600080fd5b505afa158015610dea573d6000803e3d6000fd5b505050506040513d601f19601f82011682018060405250810190610e0e9190614b1e565b905080610e1b5750610a69565b60d854604051632e1a7d4d60e01b8152600481018390526001600160a01b0390911690632e1a7d4d90602401600060405180830381600087803b158015610e6157600080fd5b505af1158015610e75573d6000803e3d6000fd5b5050505060d660009054906101000a90046001600160a01b03166001600160a01b031663d47eaa376040518163ffffffff1660e01b8152600401602060405180830381600087803b158015610ec957600080fd5b505af1158015610edd573d6000803e3d6000fd5b505050506040513d601f19601f82011682018060405250810190610f019190614b1e565b5060d5546040516370a0823160e01b81523060048201526000916001600160a01b0316906370a082319060240160206040518083038186803b158015610f4657600080fd5b505afa158015610f5a573d6000803e3d6000fd5b505050506040513d601f19601f82011682018060405250810190610f7e9190614b1e565b90507ff0f0cce21a2c16fc3714f3a884bca7193a057e8544baa837916e9420d890bf8a6036600081548110610fb557610fb56151df565b600091825260209182902001546040805160608082526026908201527f5769746864726177696e672020657665727468696e672066726f6d207468652060808201526502227a2279d160d51b60a08201526001600160a01b039092169282019290925290810183905260c00160405180910390a180156110715760345460368054611071926001600160a01b0316918491600090611055576110556151df565b6000918252602090912001546001600160a01b03169190612382565b50505060019055565b6110826117a6565b61109e5760405162461bcd60e51b815260040161057690614e7f565b60365481106110df5760405162461bcd60e51b815260206004820152600d60248201526c092dcecc2d8d2c840d2dcc8caf609b1b6044820152606401610576565b6000603682815481106110f4576110f46151df565b60009182526020808320909101546001600160a01b039081168084526035909252604090922054603654919350909116906111319060019061511b565b8310156111b357603680546111489060019061511b565b81548110611158576111586151df565b600091825260209091200154603680546001600160a01b039092169185908110611184576111846151df565b9060005260206000200160006101000a8154816001600160a01b0302191690836001600160a01b031602179055505b60368054806111c4576111c46151c9565b60008281526020808220600019908401810180546001600160a01b031990811690915593019093556001600160a01b038581168083526035855260409283902080549094169093559051908416815290917f16b7600acff27e39a8a96056b3d533045298de927507f5c1d97e4accde60488c910160405180910390a2505050565b61124d6117a6565b6112695760405162461bcd60e51b815260040161057690614e7f565b600054610100900460ff1680611282575060005460ff16155b61129e5760405162461bcd60e51b815260040161057690614eb6565b600054610100900460ff161580156112c0576000805461ffff19166101011790555b6113318989898989898080602002602001604051908101604052809392919081815260200183836020028082843760009201919091525050604080516020808d0282810182019093528c82529093508c92508b918291850190849080828437600092019190915250612efd92505050565b8015611343576000805461ff00191690555b505050505050505050565b6113566117a6565b6113725760405162461bcd60e51b815260040161057690614e7f565b60005b81811015611426576000838383818110611391576113916151df565b90506020020160208101906113a69190614695565b6001600160a01b031614156114145760405162461bcd60e51b815260206004820152602e60248201527f43616e206e6f742073657420616e20656d70747920616464726573732061732060448201526d30903932bbb0b932103a37b5b2b760911b6064820152608401610576565b8061141e81615162565b915050611375565b507f04c0b9649497d316554306e53678d5f5f5dbc3a06f97dec13ff4cfe98b986bbc603a838360405161145b93929190614d23565b60405180910390a161146f603a838361454f565b505050565b60d5546000906001600160a01b0383811691161480156114be575060366000815481106114a3576114a36151df565b6000918252602090912001546001600160a01b038381169116145b92915050565b6114cc6117a6565b6114e85760405162461bcd60e51b815260040161057690614e7f565b603980546001600160a01b0319166001600160a01b0383169081179091556040805182815260208101929092527fe48386b84419f4d36e0f96c10cc3510b6fb1a33795620c5098b22472bbe90796910160405180910390a150565b60d5546040516370a0823160e01b815230600482015260009182916001600160a01b03909116906370a082319060240160206040518083038186803b15801561158b57600080fd5b505afa15801561159f573d6000803e3d6000fd5b505050506040513d601f19601f820116820180604052508101906115c39190614b1e565b60d8546040516370a0823160e01b81523060048201529192506000916001600160a01b03909116906370a082319060240160206040518083038186803b15801561160c57600080fd5b505afa158015611620573d6000803e3d6000fd5b505050506040513d601f19601f820116820180604052508101906116449190614b1e565b905080156117a05760d454604080516318160ddd60e01b815290516000926001600160a01b0316916318160ddd916004808301926020929190829003018186803b15801561169157600080fd5b505afa1580156116a5573d6000803e3d6000fd5b505050506040513d601f19601f820116820180604052508101906116c99190614b1e565b9050600060d660009054906101000a90046001600160a01b03166001600160a01b031663ffa642256040518163ffffffff1660e01b8152600401604080518083038186803b15801561171a57600080fd5b505afa15801561172e573d6000803e3d6000fd5b505050506040513d601f19601f820116820180604052508101906117529190614b37565b50905060008261176285846150fc565b61176c91906150da565b905061271061177c8260066150fc565b61178691906150da565b611790908261511b565b61179a90866150c2565b94505050505b50919050565b60006117be60008051602061524e8339815191525490565b6001600160a01b0316336001600160a01b031614905090565b6117df6117a6565b6117fb5760405162461bcd60e51b815260040161057690614e7f565b611823817f7eaf9a7750884803435dfabc67aa617a7d8fefb23d8d84b3c9722bd69e48c4bc55565b806001600160a01b031661184360008051602061524e8339815191525490565b6001600160a01b03167fa39cc5eb22d0f34d8beaefee8a3f17cc229c1a1d1ef87a5ad47313487b1c4f0d60405160405180910390a350565b6034546001600160a01b031633146118a55760405162461bcd60e51b815260040161057690614e48565b60008051602061522e833981519152805460028114156118d75760405162461bcd60e51b815260040161057690614f04565b6002825560d5546001600160a01b03858116911614801561192257506036600081548110611907576119076151df565b6000918252602090912001546001600160a01b038581169116145b6119655760405162461bcd60e51b81526020600482015260146024820152732a37b5b2b7103737ba1039bab83837b93a32b21760611b6044820152606401610576565b60d65460009061197f9085906001600160a01b0316612fdc565b9050600060d460009054906101000a90046001600160a01b03166001600160a01b03166318160ddd6040518163ffffffff1660e01b815260040160206040518083038186803b1580156119d157600080fd5b505afa1580156119e5573d6000803e3d6000fd5b505050506040513d601f19601f82011682018060405250810190611a099190614b1e565b9050600060d660009054906101000a90046001600160a01b03166001600160a01b031663ffa642256040518163ffffffff1660e01b8152600401604080518083038186803b158015611a5a57600080fd5b505afa158015611a6e573d6000803e3d6000fd5b505050506040513d601f19601f82011682018060405250810190611a929190614b37565b509050600081611aa284866150fc565b611aac91906150da565b60d8546040516370a0823160e01b81523060048201529192506000916001600160a01b03909116906370a082319060240160206040518083038186803b158015611af557600080fd5b505afa158015611b09573d6000803e3d6000fd5b505050506040513d601f19601f82011682018060405250810190611b2d9190614b1e565b905080821115611b3b578091505b60d854604051632e1a7d4d60e01b8152600481018490526001600160a01b0390911690632e1a7d4d90602401600060405180830381600087803b158015611b8157600080fd5b505af1158015611b95573d6000803e3d6000fd5b5050505060d660009054906101000a90046001600160a01b03166001600160a01b031663d47eaa376040518163ffffffff1660e01b8152600401602060405180830381600087803b158015611be957600080fd5b505af1158015611bfd573d6000803e3d6000fd5b505050506040513d601f19601f82011682018060405250810190611c219190614b1e565b5060d5546040516370a0823160e01b81523060048201526000916001600160a01b0316906370a082319060240160206040518083038186803b158015611c6657600080fd5b505afa158015611c7a573d6000803e3d6000fd5b505050506040513d601f19601f82011682018060405250810190611c9e9190614b1e565b90508015611d59577ff0f0cce21a2c16fc3714f3a884bca7193a057e8544baa837916e9420d890bf8a6036600081548110611cdb57611cdb6151df565b60009182526020918290200154604080516060808252601b908201527f5769746864726177696e672066726f6d2074686520444f444f3a20000000000060808201526001600160a01b039092169282019290925290810183905260a00160405180910390a1611d598b826036600081548110611055576110556151df565b505050505050600182555050505050565b6034546001600160a01b03163314611d945760405162461bcd60e51b815260040161057690614e48565b60008051602061522e83398151915280546002811415611dc65760405162461bcd60e51b815260040161057690614f04565b6002825560d5546040516370a0823160e01b8152306004820152610a69916001600160a01b03169081906370a082319060240160206040518083038186803b158015611e1157600080fd5b505afa158015611e25573d6000803e3d6000fd5b505050506040513d601f19601f82011682018060405250810190611e499190614b1e565b6123d4565b6060603a805480602002602001604051908101604052809291908181526020018280548015611ea657602002820191906000526020600020905b81546001600160a01b03168152600190910190602001808311611e88575b5050505050905090565b611eb86117a6565b611ed45760405162461bcd60e51b815260040161057690614e7f565b600054610100900460ff1680611eed575060005460ff16155b611f095760405162461bcd60e51b815260040161057690614eb6565b600054610100900460ff16158015611f2b576000805461ffff19166101011790555b86866000818110611f3e57611f3e6151df565b9050602002016020810190611f539190614695565b60d460006101000a8154816001600160a01b0302191690836001600160a01b031602179055508460d160006101000a8154816001600160a01b0302191690836001600160a01b031602179055508360d360006101000a8154816001600160a01b0302191690836001600160a01b031602179055508c60d260006101000a8154816001600160a01b0302191690836001600160a01b0316021790555082826000818110612001576120016151df565b90506020020160208101906120169190614695565b60d680546001600160a01b0319166001600160a01b039290921691909117905582826001818110612049576120496151df565b905060200201602081019061205e9190614695565b60d780546001600160a01b0319166001600160a01b039290921691909117905582826002818110612091576120916151df565b90506020020160208101906120a69190614695565b60d880546001600160a01b0319166001600160a01b0392909216919091179055612180838360038181106120dc576120dc6151df565b90506020020160208101906120f19190614695565b84846004818110612104576121046151df565b90506020020160208101906121199190614695565b8585600581811061212c5761212c6151df565b90506020020160208101906121419190614695565b60ce80546001600160a01b039485166001600160a01b03199182161790915560cf80549385169382169390931790925560d08054919093169116179055565b6122028d8d8d8d8d8d80806020026020016040519081016040528093929190818152602001838360200280828437600081840152601f19601f820116905080830192505050505050508c8c80806020026020016040519081016040528093929190818152602001838360200280828437600092019190915250612efd92505050565b8015612214576000805461ff00191690555b50505050505050505050505050565b6001600160a01b0382811660009081526035602052604090205416156122805760405162461bcd60e51b81526020600482015260126024820152711c151bdad95b88185b1c9958591e481cd95d60721b6044820152606401610576565b6001600160a01b038216158015906122a057506001600160a01b03811615155b6122e05760405162461bcd60e51b8152602060048201526011602482015270496e76616c69642061646472657373657360781b6044820152606401610576565b6001600160a01b03828116600081815260356020908152604080832080549587166001600160a01b031996871681179091556036805460018101825594527f4a11f94e20a93c79f6ec743a1954ec4fc2c08429ae2122118bf234b2185c81b890930180549095168417909455925190815290917fef6485b84315f9b1483beffa32aae9a0596890395e3d7521f1c5fbb51790e765910160405180910390a25050565b604080516001600160a01b038416602482015260448082018490528251808303909101815260649091019091526020810180516001600160e01b031663a9059cbb60e01b17905261146f908490613451565b60d5546001600160a01b03838116911614801561241b57506036600081548110612400576124006151df565b6000918252602090912001546001600160a01b038381169116145b61245e5760405162461bcd60e51b81526020600482015260146024820152732a37b5b2b7103737ba1039bab83837b93a32b21760611b6044820152606401610576565b60d5546040516370a0823160e01b81523060048201526000916001600160a01b0316906370a082319060240160206040518083038186803b1580156124a257600080fd5b505afa1580156124b6573d6000803e3d6000fd5b505050506040513d601f19601f820116820180604052508101906124da9190614b1e565b6040805160608082526017908201527f4465706f736974696e6720696e746f20444f444f203a2000000000000000000060808201526001600160a01b03861660208201529081018290529091507ff0f0cce21a2c16fc3714f3a884bca7193a057e8544baa837916e9420d890bf8a9060a00160405180910390a160d55460d65460405163095ea7b360e01b81526001600160a01b0391821660048201526024810184905291169063095ea7b390604401602060405180830381600087803b1580156125a457600080fd5b505af11580156125b8573d6000803e3d6000fd5b505050506040513d601f19601f820116820180604052508101906125dc9190614ac6565b5060d65460405163aa06ce9b60e01b8152306004820152602481018390526001600160a01b039091169063aa06ce9b90604401602060405180830381600087803b15801561262957600080fd5b505af115801561263d573d6000803e3d6000fd5b505050506040513d601f19601f820116820180604052508101906126619190614b1e565b5060d4546040516370a0823160e01b81523060048201526000916001600160a01b0316906370a082319060240160206040518083038186803b1580156126a657600080fd5b505afa1580156126ba573d6000803e3d6000fd5b505050506040513d601f19601f820116820180604052508101906126de9190614b1e565b60d45460d85460405163095ea7b360e01b81526001600160a01b03918216600482015260248101849052929350169063095ea7b390604401602060405180830381600087803b15801561273057600080fd5b505af1158015612744573d6000803e3d6000fd5b505050506040513d601f19601f820116820180604052508101906127689190614ac6565b5060d85460405163b6b55f2560e01b8152600481018390526001600160a01b039091169063b6b55f2590602401600060405180830381600087803b1580156127af57600080fd5b505af11580156127c3573d6000803e3d6000fd5b5050505050505050565b6000808261288057604051633cd0243b60e11b8152306004820152602481018690526000906001600160a01b038a16906379a0487690604401604080518083038186803b15801561281d57600080fd5b505afa158015612831573d6000803e3d6000fd5b505050506040513d601f19601f820116820180604052508101906128559190614b37565b5090506064612864868261511b565b61286e90836150fc565b61287891906150da565b915050612927565b6040516366410a2160e01b8152306004820152602481018690526000906001600160a01b038a16906366410a2190604401604080518083038186803b1580156128c857600080fd5b505afa1580156128dc573d6000803e3d6000fd5b505050506040513d601f19601f820116820180604052508101906129009190614b37565b509050606461290f868261511b565b61291990836150fc565b61292391906150da565b9150505b80612936576000915050612aa0565b60408051600180825281830190925260009160208083019080368337019050509050888160008151811061296c5761296c6151df565b6001600160a01b03928316602091820292909201015260d05460405163095ea7b360e01b81529082166004820152602481018890529089169063095ea7b390604401602060405180830381600087803b1580156129c857600080fd5b505af11580156129dc573d6000803e3d6000fd5b505050506040513d601f19601f82011682018060405250810190612a009190614ac6565b5060cf546001600160a01b031663f87dc1b789898986868a6000612a26426102586150c2565b6040518963ffffffff1660e01b8152600401612a49989796959493929190614cb4565b602060405180830381600087803b158015612a6357600080fd5b505af1158015612a77573d6000803e3d6000fd5b505050506040513d601f19601f82011682018060405250810190612a9b9190614b1e565b925050505b9695505050505050565b6000808a9050612aeb6040518060400160405280601981526020017842616c616e6365725661756c743a207377617070696e67203160381b81525082613523565b604080518082018252601981527842616c616e6365725661756c743a207377617070696e67203160381b602082015290516370a0823160e01b8152306004820152612b9c91908a906001600160a01b038216906370a082319060240160206040518083038186803b158015612b5f57600080fd5b505afa158015612b73573d6000803e3d6000fd5b505050506040513d601f19601f82011682018060405250810190612b979190614b1e565b613568565b6040516370a0823160e01b81523060048201526001600160a01b0389169063095ea7b390839083906370a082319060240160206040518083038186803b158015612be557600080fd5b505afa158015612bf9573d6000803e3d6000fd5b505050506040513d601f19601f82011682018060405250810190612c1d9190614b1e565b6040516001600160e01b031960e085901b1681526001600160a01b0390921660048301526024820152604401602060405180830381600087803b158015612c6357600080fd5b505af1158015612c77573d6000803e3d6000fd5b505050506040513d601f19601f82011682018060405250810190612c9b9190614ac6565b5082612cd757612caf8b8b8b8b8b896135af565b9250612cd4612ccd662386f26fc10000670de0b6b3a764000061511b565b8490613a86565b92505b612d236040805160c0810190915260008082526020820190815260200160006001600160a01b0316815260200160006001600160a01b0316815260200160008152602001606081525090565b8a8152602081018a6001811115612d3c57612d3c6151b3565b90816001811115612d4f57612d4f6151b3565b9052506001600160a01b03898116604083810191909152898216606080850191909152608080850189905282519081018352600060208201819052918101919091528983168152888316918101919091529083166352bbbe29838388612db7426102586150c2565b6040518563ffffffff1660e01b8152600401612dd69493929190614f2c565b602060405180830381600087803b158015612df057600080fd5b505af1158015612e04573d6000803e3d6000fd5b505050506040513d601f19601f82011682018060405250810190612e289190614b1e565b9d9c50505050505050505050505050565b6001600160a01b038116612e8f5760405162461bcd60e51b815260206004820152601a60248201527f4e657720476f7665726e6f7220697320616464726573732830290000000000006044820152606401610576565b806001600160a01b0316612eaf60008051602061524e8339815191525490565b6001600160a01b03167fc7c0c772add429241571afb3805861fb3cfa2af374534088b76cdb4325a87e9a60405160405180910390a3612efa8160008051602061524e83398151915255565b50565b603380546001600160a01b038089166001600160a01b0319928316179092556034805492881692909116919091179055612f39603a858561454f565b50815181518114612f835760405162461bcd60e51b8152602060048201526014602482015273496e76616c696420696e7075742061727261797360601b6044820152606401610576565b60005b818110156127c357612fca848281518110612fa357612fa36151df565b6020026020010151848381518110612fbd57612fbd6151df565b6020026020010151612223565b80612fd481615162565b915050612f86565b60006001826001600160a01b03166317be952e6040518163ffffffff1660e01b815260040160206040518083038186803b15801561301957600080fd5b505afa15801561302d573d6000803e3d6000fd5b505050506040513d601f19601f820116820180604052508101906130519190614ae8565b6002811115613062576130626151b3565b1461306e5750816114be565b6130e2604051806101a0016040528060006001600160a01b031681526020016000815260200160008152602001600081526020016000815260200160008152602001600081526020016000815260200160008152602001600081526020016000815260200160008152602001600081525090565b6001600160a01b0383168152602081018490526130fe81613aa2565b60408083019182528051808201909152600b81526a3330b4b920b6b7bab73a1d60a91b602082015290516131329190613c22565b61313b81613c67565b6060820190815260408051808201909152600b81526a3a30b933b2ba2130b9b29d60a91b602082015290516131709190613c22565b61317981613de4565b608082015261318781613e68565b60a082015261319581613e8d565b60c08201526131a381613f67565b60e08201526131b181613f89565b6101008201526131c08161401f565b610120820152604080518082019091526007815266031ba3c17309d160cd1b602082015260a08201516131f39190613c22565b61322060405180604001604052806007815260200166031ba3c17311d160cd1b8152508260c00151613c22565b61324d60405180604001604052806007815260200166031ba3c17319d160cd1b8152508260e00151613c22565b61327b60405180604001604052806007815260200166031ba3c17321d160cd1b815250826101000151613c22565b6132a960405180604001604052806007815260200166031ba3c17329d160cd1b815250826101200151613c22565b6132b281614031565b6101408201526132c181614056565b6101608201526132d0816140e3565b610180820152604080518082019091526007815266031ba3c17339d160cd1b60208201526101408201516133049190613c22565b61333260405180604001604052806007815260200166031ba3c17341d160cd1b815250826101600151613c22565b61336060405180604001604052806007815260200166031ba3c17349d160cd1b815250826101800151613c22565b61338e60405180604001604052806008815260200167031ba3c1732321d160c51b8152508260800151613c22565b60006133d18260c001516133cb8461012001516133c58661010001516133c58860e001518960a0015161413d90919063ffffffff16565b9061413d565b90614188565b905060006133de826141d0565b905060006133fa8285610140015161413d90919063ffffffff16565b90506000613428856101800151613422670de0b6b3a76400008561422290919063ffffffff16565b90614283565b905060006134448287610160015161418890919063ffffffff16565b9998505050505050505050565b60006134a6826040518060400160405280602081526020017f5361666545524332303a206c6f772d6c6576656c2063616c6c206661696c6564815250856001600160a01b03166142cf9092919063ffffffff16565b80519091501561146f57808060200190518101906134c49190614ac6565b61146f5760405162461bcd60e51b815260206004820152602a60248201527f5361666545524332303a204552433230206f7065726174696f6e20646964206e6044820152691bdd081cdd58d8d9595960b21b6064820152608401610576565b6105898282604051602401613539929190614dce565b60408051601f198184030181529190526020810180516001600160e01b031663319af33360e01b1790526142e6565b61146f83838360405160240161358093929190614df8565b60408051601f198184030181529190526020810180516001600160e01b03166307c8121760e01b1790526142e6565b604080516101208101825260008082526020820181905291810182905260608082018390526080820183905260a0820183905260c0820183905260e0820183905261010082015287908087600181111561360b5761360b6151b3565b9081600181111561361e5761361e6151b3565b9052506001600160a01b0386811660208301528581166040808401919091526060830186905251631f29a8cd60e31b8152600481018a905260009182919085169063f94d46689060240160006040518083038186803b15801561368057600080fd5b505afa158015613694573d6000803e3d6000fd5b505050506040513d6000823e601f3d908101601f191682016040526136bc91908101906149f1565b5091509150600080856001600160a01b031663f6c009278d6040518263ffffffff1660e01b81526004016136f291815260200190565b604080518083038186803b15801561370957600080fd5b505afa15801561371d573d6000803e3d6000fd5b505050506040513d601f19601f820116820180604052508101906137419190614954565b9092509050600081600281111561375a5761375a6151b3565b14156138935760008060005b86518160ff161015613802578c6001600160a01b0316878260ff1681518110613791576137916151df565b60200260200101516001600160a01b031614156137b3578060ff1692506137f0565b8b6001600160a01b0316878260ff16815181106137d2576137d26151df565b60200260200101516001600160a01b031614156137f0578060ff1691505b806137fa8161517d565b915050613766565b5060405162f64aa560e11b81526001600160a01b038516906301ec954a90613834908a90899087908790600401614fe7565b60206040518083038186803b15801561384c57600080fd5b505afa158015613860573d6000803e3d6000fd5b505050506040513d601f19601f820116820180604052508101906138849190614b1e565b98505050505050505050612aa0565b60018160028111156138a7576138a76151b3565b14156139b25760008060005b86518160ff161015613981578c6001600160a01b0316878260ff16815181106138de576138de6151df565b60200260200101516001600160a01b0316141561391957858160ff168151811061390a5761390a6151df565b6020026020010151925061396f565b8b6001600160a01b0316878260ff1681518110613938576139386151df565b60200260200101516001600160a01b0316141561396f57858160ff1681518110613964576139646151df565b602002602001015191505b806139798161517d565b9150506138b3565b5060405163274b044360e21b81526001600160a01b03851690639d2c110c90613834908a9086908690600401615048565b60008060005b86518160ff161015613981578c6001600160a01b0316878260ff16815181106139e3576139e36151df565b60200260200101516001600160a01b03161415613a1e57858160ff1681518110613a0f57613a0f6151df565b60200260200101519250613a74565b8b6001600160a01b0316878260ff1681518110613a3d57613a3d6151df565b60200260200101516001600160a01b03161415613a7457858160ff1681518110613a6957613a696151df565b602002602001015191505b80613a7e8161517d565b9150506139b8565b6000613a9b8383670de0b6b3a7640000614307565b9392505050565b600080613b9283600001516001600160a01b031663245c96856040518163ffffffff1660e01b815260040160206040518083038186803b158015613ae557600080fd5b505afa158015613af9573d6000803e3d6000fd5b505050506040513d601f19601f82011682018060405250810190613b1d9190614b1e565b84600001516001600160a01b0316637c9b8e896040518163ffffffff1660e01b815260040160206040518083038186803b158015613b5a57600080fd5b505afa158015613b6e573d6000803e3d6000fd5b505050506040513d601f19601f820116820180604052508101906133cb9190614b1e565b9050600083600001516001600160a01b031663796da7af6040518163ffffffff1660e01b815260040160206040518083038186803b158015613bd357600080fd5b505afa158015613be7573d6000803e3d6000fd5b505050506040513d601f19601f82011682018060405250810190613c0b9190614b1e565b90506000613c198383614320565b95945050505050565b6105898282604051602401613c38929190614e26565b60408051601f198184030181529190526020810180516001600160e01b03166309710a9d60e41b1790526142e6565b60008082600001516001600160a01b031663eab5d20e6040518163ffffffff1660e01b815260040160206040518083038186803b158015613ca757600080fd5b505afa158015613cbb573d6000803e3d6000fd5b505050506040513d601f19601f82011682018060405250810190613cdf9190614b1e565b9050600083600001516001600160a01b031663ec2fd46d6040518163ffffffff1660e01b815260040160206040518083038186803b158015613d2057600080fd5b505afa158015613d34573d6000803e3d6000fd5b505050506040513d601f19601f82011682018060405250810190613d589190614b1e565b90506000613d7e613d786004613d72858960400151614338565b90614222565b84614356565b9050613d9e613d99670de0b6b3a7640000613d72848261413d565b6141d0565b90506000613dc7613db783670de0b6b3a7640000614188565b613dc2856002614222565b614356565b9050612aa084613ddf670de0b6b3a76400008461413d565b61436e565b60006114be82602001516133cb600285600001516001600160a01b031663eab5d20e6040518163ffffffff1660e01b815260040160206040518083038186803b158015613e3057600080fd5b505afa158015613e44573d6000803e3d6000fd5b505050506040513d601f19601f82011682018060405250810190613d729190614b1e565b60608101516000906114be90613e7e9080614222565b60408401516133c59080614222565b600080613f24670de0b6b3a76400006134226002613d7287600001516001600160a01b031663ec2fd46d6040518163ffffffff1660e01b815260040160206040518083038186803b158015613ee157600080fd5b505afa158015613ef5573d6000803e3d6000fd5b505050506040513d601f19601f82011682018060405250810190613f199190614b1e565b604089015190614222565b90506000613f47826133c58660400151876080015161413d90919063ffffffff16565b90506000613c196002613d7287606001518561422290919063ffffffff16565b60006114be6002613d728460400151856080015161422290919063ffffffff16565b60006114be670de0b6b3a76400006134226002613d7286600001516001600160a01b031663ec2fd46d6040518163ffffffff1660e01b815260040160206040518083038186803b158015613fdc57600080fd5b505afa158015613ff0573d6000803e3d6000fd5b505050506040513d601f19601f820116820180604052508101906140149190614b1e565b60e088015190614222565b60808101516000906114be9080614222565b60006114be82608001516133cb8460400151856060015161413d90919063ffffffff16565b60006114be82608001516133cb84600001516001600160a01b031663eab5d20e6040518163ffffffff1660e01b815260040160206040518083038186803b1580156140a057600080fd5b505afa1580156140b4573d6000803e3d6000fd5b505050506040513d601f19601f820116820180604052508101906140d89190614b1e565b60608601519061413d565b60006114be6140fb6002670de0b6b3a7640000614222565b6133c5600285600001516001600160a01b031663ec2fd46d6040518163ffffffff1660e01b815260040160206040518083038186803b158015613e3057600080fd5b60008061414a83856150c2565b905083811015613a9b5760405162461bcd60e51b815260206004820152600960248201526820a2222fa2a92927a960b91b6044820152606401610576565b6000828211156141c65760405162461bcd60e51b815260206004820152600960248201526829aaa12fa2a92927a960b91b6044820152606401610576565b613a9b828461511b565b6000806141de6002846150da565b6141e99060016150c2565b90508291505b818110156117a05790508060028161420781866150da565b61421191906150c2565b61421b91906150da565b90506141ef565b600082614231575060006114be565b600061423d83856150fc565b90508261424a85836150da565b14613a9b5760405162461bcd60e51b815260206004820152600960248201526826aaa62fa2a92927a960b91b6044820152606401610576565b60008082116142c55760405162461bcd60e51b815260206004820152600e60248201526d2224ab24a224a723afa2a92927a960911b6044820152606401610576565b613a9b82846150da565b60606142de848460008561438d565b949350505050565b80516a636f6e736f6c652e6c6f67602083016000808483855afa5050505050565b60008061431485856144b5565b9050613c1981846144c1565b6000613a9b8261342285670de0b6b3a7640000614222565b6000613a9b670de0b6b3a76400006143508585614222565b906144cd565b6000613a9b8261435085670de0b6b3a7640000614222565b6000670de0b6b3a76400006143838484614222565b613a9b91906150da565b6060824710156143ee5760405162461bcd60e51b815260206004820152602660248201527f416464726573733a20696e73756666696369656e742062616c616e636520666f6044820152651c8818d85b1b60d21b6064820152608401610576565b843b61443c5760405162461bcd60e51b815260206004820152601d60248201527f416464726573733a2063616c6c20746f206e6f6e2d636f6e74726163740000006044820152606401610576565b600080866001600160a01b031685876040516144589190614c98565b60006040518083038185875af1925050503d8060008114614495576040519150601f19603f3d011682016040523d82523d6000602084013e61449a565b606091505b50915091506144aa828286614516565b979650505050505050565b6000613a9b82846150fc565b6000613a9b82846150da565b6000806144da8484614283565b905060006144e884836150fc565b6144f2908661511b565b9050801561450e576145058260016150c2565b925050506114be565b5090506114be565b60608315614525575081613a9b565b8251156145355782518084602001fd5b8160405162461bcd60e51b81526004016105769190614dbb565b8280548282559060005260206000209081019282156145a2579160200282015b828111156145a25781546001600160a01b0319166001600160a01b0384351617825560209092019160019091019061456f565b506145ae9291506145b2565b5090565b5b808211156145ae57600081556001016145b3565b80356145d28161520b565b919050565b60008083601f8401126145e957600080fd5b50813567ffffffffffffffff81111561460157600080fd5b6020830191508360208260051b850101111561461c57600080fd5b9250929050565b600082601f83011261463457600080fd5b815160206146496146448361509e565b61506d565b80838252828201915082860187848660051b890101111561466957600080fd5b60005b858110156146885781518452928401929084019060010161466c565b5090979650505050505050565b6000602082840312156146a757600080fd5b8135613a9b8161520b565b600080604083850312156146c557600080fd5b82356146d08161520b565b915060208301356146e08161520b565b809150509250929050565b60008060008060008060008060a0898b03121561470757600080fd5b88356147128161520b565b975060208901356147228161520b565b9650604089013567ffffffffffffffff8082111561473f57600080fd5b61474b8c838d016145d7565b909850965060608b013591508082111561476457600080fd5b6147708c838d016145d7565b909650945060808b013591508082111561478957600080fd5b506147968b828c016145d7565b999c989b5096995094979396929594505050565b6000806000806000806000806000806000806101008d8f0312156147cd57600080fd5b6147d68d6145c7565b9b506147e460208e016145c7565b9a5067ffffffffffffffff60408e013511156147ff57600080fd5b61480f8e60408f01358f016145d7565b909a50985067ffffffffffffffff60608e0135111561482d57600080fd5b61483d8e60608f01358f016145d7565b909850965067ffffffffffffffff60808e0135111561485b57600080fd5b61486b8e60808f01358f016145d7565b909650945061487c60a08e016145c7565b935061488a60c08e016145c7565b925067ffffffffffffffff60e08e013511156148a557600080fd5b6148b58e60e08f01358f016145d7565b81935080925050509295989b509295989b509295989b565b600080600080608085870312156148e357600080fd5b84356148ee8161520b565b935060208501356148fe8161520b565b93969395505050506040820135916060013590565b60008060006060848603121561492857600080fd5b83356149338161520b565b925060208401356149438161520b565b929592945050506040919091013590565b6000806040838503121561496757600080fd5b82516149728161520b565b60208401519092506146e081615220565b6000806040838503121561499657600080fd5b82356149a18161520b565b946020939093013593505050565b600080602083850312156149c257600080fd5b823567ffffffffffffffff8111156149d957600080fd5b6149e5858286016145d7565b90969095509350505050565b600080600060608486031215614a0657600080fd5b835167ffffffffffffffff80821115614a1e57600080fd5b818601915086601f830112614a3257600080fd5b81516020614a426146448361509e565b8083825282820191508286018b848660051b8901011115614a6257600080fd5b600096505b84871015614a8e578051614a7a8161520b565b835260019690960195918301918301614a67565b5091890151919750909350505080821115614aa857600080fd5b50614ab586828701614623565b925050604084015190509250925092565b600060208284031215614ad857600080fd5b81518015158114613a9b57600080fd5b600060208284031215614afa57600080fd5b8151613a9b81615220565b600060208284031215614b1757600080fd5b5035919050565b600060208284031215614b3057600080fd5b5051919050565b60008060408385031215614b4a57600080fd5b505080516020909101519092909150565b600081518084526020808501945080840160005b83811015614b945781516001600160a01b031687529582019590820190600101614b6f565b509495945050505050565b60008151808452614bb7816020860160208601615132565b601f01601f19169290920160200192915050565b60028110614be957634e487b7160e01b600052602160045260246000fd5b9052565b6000610120614bfd848451614bcb565b6020838101516001600160a01b03169085015260408084015190614c2b908601826001600160a01b03169052565b50606083015160608501526080830151608085015260a083015160a085015260c0830151614c6460c08601826001600160a01b03169052565b5060e0830151614c7f60e08601826001600160a01b03169052565b50610100808401518282870152612aa083870182614b9f565b60008251614caa818460208701615132565b9190910192915050565b6001600160a01b03898116825288166020820152604081018790526060810186905261010060808201819052600090614cef83820188614b5b565b60a0840196909652505091151560c083015260e09091015295945050505050565b602081526000613a9b6020830184614b5b565b6000604082016040835280865480835260608501915087600052602092508260002060005b82811015614d6d5781546001600160a01b031684529284019260019182019101614d48565b505050838103828501528481528590820160005b86811015614daf578235614d948161520b565b6001600160a01b031682529183019190830190600101614d81565b50979650505050505050565b602081526000613a9b6020830184614b9f565b604081526000614de16040830185614b9f565b905060018060a01b03831660208301529392505050565b606081526000614e0b6060830186614b9f565b6001600160a01b039490941660208301525060400152919050565b604081526000614e396040830185614b9f565b90508260208301529392505050565b60208082526017908201527f43616c6c6572206973206e6f7420746865205661756c74000000000000000000604082015260600190565b6020808252601a908201527f43616c6c6572206973206e6f742074686520476f7665726e6f72000000000000604082015260600190565b6020808252602e908201527f496e697469616c697a61626c653a20636f6e747261637420697320616c72656160408201526d191e481a5b9a5d1a585b1a5e995960921b606082015260800190565b6020808252600e908201526d1499595b9d1c985b9d0818d85b1b60921b604082015260600190565b60e08152845160e082015260006020860151614f4c610100840182614bcb565b5060408601516001600160a01b03908116610120840152606087015116610140830152608086015161016083015260a086015160c0610180840152614f956101a0840182614b9f565b915050614fd5602083018680516001600160a01b039081168352602080830151151590840152604080830151909116908301526060908101511515910152565b60a082019390935260c0015292915050565b608081526000614ffa6080830187614bed565b82810360208481019190915286518083528782019282019060005b8181101561503157845183529383019391830191600101615015565b505060408501969096525050506060015292915050565b60608152600061505b6060830186614bed565b60208301949094525060400152919050565b604051601f8201601f1916810167ffffffffffffffff81118282101715615096576150966151f5565b604052919050565b600067ffffffffffffffff8211156150b8576150b86151f5565b5060051b60200190565b600082198211156150d5576150d561519d565b500190565b6000826150f757634e487b7160e01b600052601260045260246000fd5b500490565b60008160001904831182151516156151165761511661519d565b500290565b60008282101561512d5761512d61519d565b500390565b60005b8381101561514d578181015183820152602001615135565b8381111561515c576000848401525b50505050565b60006000198214156151765761517661519d565b5060010190565b600060ff821660ff8114156151945761519461519d565b60010192915050565b634e487b7160e01b600052601160045260246000fd5b634e487b7160e01b600052602160045260246000fd5b634e487b7160e01b600052603160045260246000fd5b634e487b7160e01b600052603260045260246000fd5b634e487b7160e01b600052604160045260246000fd5b6001600160a01b0381168114612efa57600080fd5b60038110612efa57600080fdfe48a06827bfe8bfc0a59fe65d0fa78f553938265ed1f971326fc09947d19a593c83f34c88ec39d54d1e423bd8a181ebc59ede5dcc9996c2df334668b4f89fdd73a2646970667358221220e2a4255d08fef2a3ca22e223a31c313827483947af9312395b4dda13945590c264736f6c6343000806003383f34c88ec39d54d1e423bd8a181ebc59ede5dcc9996c2df334668b4f89fdd73",
  "devdoc": {
    "kind": "dev",
    "methods": {
      "checkBalance()": {
        "details": "Get the total primary stable value held in the platform.      This includes any interest that was generated since depositing.",
        "returns": {
          "balance": "   Total value of the asset in the platform"
        }
      },
      "claimGovernance()": {
        "details": "Claim Governance of the contract to a new account (`newGovernor`). Can only be called by the new Governor."
      },
      "collectRewardTokens()": {
        "details": "Collect accumulated reward token and send to Vault."
      },
      "deposit(address,uint256)": {
        "details": "Deposit an amount of asset into the platform",
        "params": {
          "_amount": "Units of asset to deposit",
          "_asset": "Address for the asset"
        }
      },
      "depositAll()": {
        "details": "Deposit balance of all supported assets into the platform"
      },
      "getRewardTokenAddresses()": {
        "details": "Get the reward token addresses.",
        "returns": {
          "_0": "address[] the reward token addresses."
        }
      },
      "governor()": {
        "details": "Returns the address of the current Governor."
      },
      "initialize(address,address,address[],address[],address[])": {
        "details": "Internal initialize function, to set up initial internal state",
        "params": {
          "_assets": "Addresses of initial supported assets",
          "_pTokens": "Platform Token corresponding addresses",
          "_platformAddress": "Generic platform address",
          "_rewardTokenAddresses": "Address of reward token for platform",
          "_vaultAddress": "Address of the Vault"
        }
      },
      "initialize(address,address,address[],address[],address[],address,address,address[])": {
        "params": {
          "_assets": "Addresses of supported assets. MUST be passed in the same                order as returned by coins on the pool contract, i.e.                USDC",
          "_pTokens": "Platform Token corresponding addresses",
          "_platformAddress": "Address of the nUSD",
          "_rewardTokenAddresses": "Address of USDC",
          "_vaultAddress": "Address of the vault"
        }
      },
      "isGovernor()": {
        "details": "Returns true if the caller is the current Governor."
      },
      "removePToken(uint256)": {
        "details": "Remove a supported asset by passing its index.      This method can only be called by the system Governor",
        "params": {
          "_assetIndex": "Index of the asset to be removed"
        }
      },
      "setHarvesterAddress(address)": {
        "details": "Set the reward token addresses.",
        "params": {
          "_harvesterAddress": "Address of the harvester"
        }
      },
      "setPTokenAddress(address,address)": {
        "details": "Provide support for asset by passing its pToken address.      This method can only be called by the system Governor",
        "params": {
          "_asset": "Address for the asset",
          "_pToken": "Address for the corresponding platform token"
        }
      },
      "setRewardTokenAddresses(address[])": {
        "details": "Set the reward token addresses.",
        "params": {
          "_rewardTokenAddresses": "Address array of the reward token"
        }
      },
      "supportsAsset(address)": {
        "details": "Check if an asset is supported.",
        "params": {
          "_asset": "Address of the asset"
        },
        "returns": {
          "_0": "bool     Whether asset is supported"
        }
      },
      "transferGovernance(address)": {
        "details": "Transfers Governance of the contract to a new account (`newGovernor`). Can only be called by the current Governor. Must be claimed for this to complete",
        "params": {
          "_newGovernor": "Address of the new Governor"
        }
      },
      "transferToken(address,uint256)": {
        "details": "Transfer token to governor. Intended for recovering tokens stuck in      strategy contracts, i.e. mistaken sends.",
        "params": {
          "_amount": "Amount of the asset to transfer",
          "_asset": "Address for the asset"
        }
      },
      "withdrawAll()": {
        "details": "Remove all assets from platform and send them to Vault contract."
      }
    },
    "version": 1
  },
  "userdoc": {
    "kind": "user",
    "methods": {
      "initialize(address,address,address[],address[],address[],address,address,address[])": {
        "notice": "Initializer for setting up strategy internal state. This overrides the InitializableAbstractStrategy initializer as Dodo strategies don't fit well within that abstraction."
      }
    },
    "version": 1
  },
  "storageLayout": {
    "storage": [
      {
        "astId": 30623,
        "contract": "contracts/strategies/DodoStrategy.sol:DodoStrategy",
        "label": "initialized",
        "offset": 0,
        "slot": "0",
        "type": "t_bool"
      },
      {
        "astId": 30626,
        "contract": "contracts/strategies/DodoStrategy.sol:DodoStrategy",
        "label": "initializing",
        "offset": 1,
        "slot": "0",
        "type": "t_bool"
      },
      {
        "astId": 30666,
        "contract": "contracts/strategies/DodoStrategy.sol:DodoStrategy",
        "label": "______gap",
        "offset": 0,
        "slot": "1",
        "type": "t_array(t_uint256)50_storage"
      },
      {
        "astId": 30750,
        "contract": "contracts/strategies/DodoStrategy.sol:DodoStrategy",
        "label": "platformAddress",
        "offset": 0,
        "slot": "51",
        "type": "t_address"
      },
      {
        "astId": 30752,
        "contract": "contracts/strategies/DodoStrategy.sol:DodoStrategy",
        "label": "vaultAddress",
        "offset": 0,
        "slot": "52",
        "type": "t_address"
      },
      {
        "astId": 30756,
        "contract": "contracts/strategies/DodoStrategy.sol:DodoStrategy",
        "label": "assetToPToken",
        "offset": 0,
        "slot": "53",
        "type": "t_mapping(t_address,t_address)"
      },
      {
        "astId": 30759,
        "contract": "contracts/strategies/DodoStrategy.sol:DodoStrategy",
        "label": "assetsMapped",
        "offset": 0,
        "slot": "54",
        "type": "t_array(t_address)dyn_storage"
      },
      {
        "astId": 30761,
        "contract": "contracts/strategies/DodoStrategy.sol:DodoStrategy",
        "label": "_deprecated_rewardTokenAddress",
        "offset": 0,
        "slot": "55",
        "type": "t_address"
      },
      {
        "astId": 30763,
        "contract": "contracts/strategies/DodoStrategy.sol:DodoStrategy",
        "label": "_deprecated_rewardLiquidationThreshold",
        "offset": 0,
        "slot": "56",
        "type": "t_uint256"
      },
      {
        "astId": 30765,
        "contract": "contracts/strategies/DodoStrategy.sol:DodoStrategy",
        "label": "harvesterAddress",
        "offset": 0,
        "slot": "57",
        "type": "t_address"
      },
      {
        "astId": 30768,
        "contract": "contracts/strategies/DodoStrategy.sol:DodoStrategy",
        "label": "rewardTokenAddresses",
        "offset": 0,
        "slot": "58",
        "type": "t_array(t_address)dyn_storage"
      },
      {
        "astId": 30772,
        "contract": "contracts/strategies/DodoStrategy.sol:DodoStrategy",
        "label": "_reserved",
        "offset": 0,
        "slot": "59",
        "type": "t_array(t_int256)98_storage"
      },
      {
        "astId": 7210,
        "contract": "contracts/strategies/DodoStrategy.sol:DodoStrategy",
        "label": "__gap",
        "offset": 0,
        "slot": "157",
        "type": "t_array(t_uint256)49_storage"
      },
      {
        "astId": 7220,
        "contract": "contracts/strategies/DodoStrategy.sol:DodoStrategy",
        "label": "dodoV1Helper",
        "offset": 0,
        "slot": "206",
        "type": "t_contract(IDODOV1Helper)4579"
      },
      {
        "astId": 7223,
        "contract": "contracts/strategies/DodoStrategy.sol:DodoStrategy",
        "label": "dodoProxy",
        "offset": 0,
        "slot": "207",
        "type": "t_contract(IDODOProxy)4379"
      },
      {
        "astId": 7225,
        "contract": "contracts/strategies/DodoStrategy.sol:DodoStrategy",
        "label": "dodoApprove",
        "offset": 0,
        "slot": "208",
        "type": "t_address"
      },
      {
        "astId": 20473,
        "contract": "contracts/strategies/DodoStrategy.sol:DodoStrategy",
        "label": "usdtToken",
        "offset": 0,
        "slot": "209",
        "type": "t_contract(IERC20)623"
      },
      {
        "astId": 20476,
        "contract": "contracts/strategies/DodoStrategy.sol:DodoStrategy",
        "label": "dodoToken",
        "offset": 0,
        "slot": "210",
        "type": "t_contract(IERC20)623"
      },
      {
        "astId": 20479,
        "contract": "contracts/strategies/DodoStrategy.sol:DodoStrategy",
        "label": "wmaticToken",
        "offset": 0,
        "slot": "211",
        "type": "t_contract(IERC20)623"
      },
      {
        "astId": 20482,
        "contract": "contracts/strategies/DodoStrategy.sol:DodoStrategy",
        "label": "usdcLPToken",
        "offset": 0,
        "slot": "212",
        "type": "t_contract(IERC20)623"
      },
      {
        "astId": 20485,
        "contract": "contracts/strategies/DodoStrategy.sol:DodoStrategy",
        "label": "primaryStable",
        "offset": 0,
        "slot": "213",
        "type": "t_contract(IERC20)623"
      },
      {
        "astId": 20488,
        "contract": "contracts/strategies/DodoStrategy.sol:DodoStrategy",
        "label": "dodoV1UsdcUsdtPool",
        "offset": 0,
        "slot": "214",
        "type": "t_contract(IDODOV1)4558"
      },
      {
        "astId": 20491,
        "contract": "contracts/strategies/DodoStrategy.sol:DodoStrategy",
        "label": "dodoV2DodoUsdtPool",
        "offset": 0,
        "slot": "215",
        "type": "t_contract(IDODOV2)4604"
      },
      {
        "astId": 20494,
        "contract": "contracts/strategies/DodoStrategy.sol:DodoStrategy",
        "label": "dodoMine",
        "offset": 0,
        "slot": "216",
        "type": "t_contract(IDODOMine)4332"
      },
      {
        "astId": 20496,
        "contract": "contracts/strategies/DodoStrategy.sol:DodoStrategy",
        "label": "balancerPoolIdUsdcTusdDaiUsdt",
        "offset": 0,
        "slot": "217",
        "type": "t_bytes32"
      },
      {
        "astId": 20498,
        "contract": "contracts/strategies/DodoStrategy.sol:DodoStrategy",
        "label": "balancerPoolIdWmaticUsdcWethBal",
        "offset": 0,
        "slot": "218",
        "type": "t_bytes32"
      },
      {
        "astId": 20500,
        "contract": "contracts/strategies/DodoStrategy.sol:DodoStrategy",
        "label": "balancerVault",
        "offset": 0,
        "slot": "219",
        "type": "t_address"
      }
    ],
    "types": {
      "t_address": {
        "encoding": "inplace",
        "label": "address",
        "numberOfBytes": "20"
      },
      "t_array(t_address)dyn_storage": {
        "base": "t_address",
        "encoding": "dynamic_array",
        "label": "address[]",
        "numberOfBytes": "32"
      },
      "t_array(t_int256)98_storage": {
        "base": "t_int256",
        "encoding": "inplace",
        "label": "int256[98]",
        "numberOfBytes": "3136"
      },
      "t_array(t_uint256)49_storage": {
        "base": "t_uint256",
        "encoding": "inplace",
        "label": "uint256[49]",
        "numberOfBytes": "1568"
      },
      "t_array(t_uint256)50_storage": {
        "base": "t_uint256",
        "encoding": "inplace",
        "label": "uint256[50]",
        "numberOfBytes": "1600"
      },
      "t_bool": {
        "encoding": "inplace",
        "label": "bool",
        "numberOfBytes": "1"
      },
      "t_bytes32": {
        "encoding": "inplace",
        "label": "bytes32",
        "numberOfBytes": "32"
      },
      "t_contract(IDODOMine)4332": {
        "encoding": "inplace",
        "label": "contract IDODOMine",
        "numberOfBytes": "20"
      },
      "t_contract(IDODOProxy)4379": {
        "encoding": "inplace",
        "label": "contract IDODOProxy",
        "numberOfBytes": "20"
      },
      "t_contract(IDODOV1)4558": {
        "encoding": "inplace",
        "label": "contract IDODOV1",
        "numberOfBytes": "20"
      },
      "t_contract(IDODOV1Helper)4579": {
        "encoding": "inplace",
        "label": "contract IDODOV1Helper",
        "numberOfBytes": "20"
      },
      "t_contract(IDODOV2)4604": {
        "encoding": "inplace",
        "label": "contract IDODOV2",
        "numberOfBytes": "20"
      },
      "t_contract(IERC20)623": {
        "encoding": "inplace",
        "label": "contract IERC20",
        "numberOfBytes": "20"
      },
      "t_int256": {
        "encoding": "inplace",
        "label": "int256",
        "numberOfBytes": "32"
      },
      "t_mapping(t_address,t_address)": {
        "encoding": "mapping",
        "key": "t_address",
        "label": "mapping(address => address)",
        "numberOfBytes": "32",
        "value": "t_address"
      },
      "t_uint256": {
        "encoding": "inplace",
        "label": "uint256",
        "numberOfBytes": "32"
      }
    }
  }
}