{
  "address": "0x08712b9533538E15D443DA23c526C66E3a012393",
  "abi": [
    {
      "anonymous": false,
      "inputs": [
        {
          "indexed": true,
          "internalType": "address",
          "name": "_asset",
          "type": "address"
        },
        {
          "indexed": false,
          "internalType": "address",
          "name": "_pToken",
          "type": "address"
        },
        {
          "indexed": false,
          "internalType": "uint256",
          "name": "_amount",
          "type": "uint256"
        }
      ],
      "name": "Deposit",
      "type": "event"
    },
    {
      "anonymous": false,
      "inputs": [
        {
          "indexed": true,
          "internalType": "address",
          "name": "previousGovernor",
          "type": "address"
        },
        {
          "indexed": true,
          "internalType": "address",
          "name": "newGovernor",
          "type": "address"
        }
      ],
      "name": "GovernorshipTransferred",
      "type": "event"
    },
    {
      "anonymous": false,
      "inputs": [
        {
          "indexed": false,
          "internalType": "address",
          "name": "_oldHarvesterAddress",
          "type": "address"
        },
        {
          "indexed": false,
          "internalType": "address",
          "name": "_newHarvesterAddress",
          "type": "address"
        }
      ],
      "name": "HarvesterAddressesUpdated",
      "type": "event"
    },
    {
      "anonymous": false,
      "inputs": [
        {
          "indexed": true,
          "internalType": "address",
          "name": "_asset",
          "type": "address"
        },
        {
          "indexed": false,
          "internalType": "address",
          "name": "_pToken",
          "type": "address"
        }
      ],
      "name": "PTokenAdded",
      "type": "event"
    },
    {
      "anonymous": false,
      "inputs": [
        {
          "indexed": true,
          "internalType": "address",
          "name": "_asset",
          "type": "address"
        },
        {
          "indexed": false,
          "internalType": "address",
          "name": "_pToken",
          "type": "address"
        }
      ],
      "name": "PTokenRemoved",
      "type": "event"
    },
    {
      "anonymous": false,
      "inputs": [
        {
          "indexed": true,
          "internalType": "address",
          "name": "previousGovernor",
          "type": "address"
        },
        {
          "indexed": true,
          "internalType": "address",
          "name": "newGovernor",
          "type": "address"
        }
      ],
      "name": "PendingGovernorshipTransfer",
      "type": "event"
    },
    {
      "anonymous": false,
      "inputs": [
        {
          "indexed": false,
          "internalType": "address[]",
          "name": "_oldAddresses",
          "type": "address[]"
        },
        {
          "indexed": false,
          "internalType": "address[]",
          "name": "_newAddresses",
          "type": "address[]"
        }
      ],
      "name": "RewardTokenAddressesUpdated",
      "type": "event"
    },
    {
      "anonymous": false,
      "inputs": [
        {
          "indexed": false,
          "internalType": "address",
          "name": "recipient",
          "type": "address"
        },
        {
          "indexed": false,
          "internalType": "address",
          "name": "rewardToken",
          "type": "address"
        },
        {
          "indexed": false,
          "internalType": "uint256",
          "name": "amount",
          "type": "uint256"
        }
      ],
      "name": "RewardTokenCollected",
      "type": "event"
    },
    {
      "anonymous": false,
      "inputs": [
        {
          "indexed": false,
          "internalType": "string",
          "name": "_message",
          "type": "string"
        },
        {
          "indexed": false,
          "internalType": "address",
          "name": "_asset",
          "type": "address"
        },
        {
          "indexed": false,
          "internalType": "uint256",
          "name": "_number",
          "type": "uint256"
        }
      ],
      "name": "TransferLog",
      "type": "event"
    },
    {
      "anonymous": false,
      "inputs": [
        {
          "indexed": true,
          "internalType": "address",
          "name": "_asset",
          "type": "address"
        },
        {
          "indexed": false,
          "internalType": "address",
          "name": "_pToken",
          "type": "address"
        },
        {
          "indexed": false,
          "internalType": "uint256",
          "name": "_amount",
          "type": "uint256"
        }
      ],
      "name": "Withdrawal",
      "type": "event"
    },
    {
      "inputs": [],
      "name": "BASIS_POINTS_FOR_SLIPPAGE",
      "outputs": [
        {
          "internalType": "uint256",
          "name": "",
          "type": "uint256"
        }
      ],
      "stateMutability": "view",
      "type": "function"
    },
    {
      "inputs": [],
      "name": "MAX_SLIPPAGE",
      "outputs": [
        {
          "internalType": "uint256",
          "name": "",
          "type": "uint256"
        }
      ],
      "stateMutability": "view",
      "type": "function"
    },
    {
      "inputs": [],
      "name": "MAX_VALUE",
      "outputs": [
        {
          "internalType": "int256",
          "name": "",
          "type": "int256"
        }
      ],
      "stateMutability": "view",
      "type": "function"
    },
    {
      "inputs": [],
      "name": "_deprecated_rewardLiquidationThreshold",
      "outputs": [
        {
          "internalType": "uint256",
          "name": "",
          "type": "uint256"
        }
      ],
      "stateMutability": "view",
      "type": "function"
    },
    {
      "inputs": [],
      "name": "_deprecated_rewardTokenAddress",
      "outputs": [
        {
          "internalType": "address",
          "name": "",
          "type": "address"
        }
      ],
      "stateMutability": "view",
      "type": "function"
    },
    {
      "inputs": [
        {
          "internalType": "address",
          "name": "",
          "type": "address"
        }
      ],
      "name": "assetToDenominator",
      "outputs": [
        {
          "internalType": "uint256",
          "name": "",
          "type": "uint256"
        }
      ],
      "stateMutability": "view",
      "type": "function"
    },
    {
      "inputs": [
        {
          "internalType": "address",
          "name": "",
          "type": "address"
        }
      ],
      "name": "assetToPToken",
      "outputs": [
        {
          "internalType": "address",
          "name": "",
          "type": "address"
        }
      ],
      "stateMutability": "view",
      "type": "function"
    },
    {
      "inputs": [],
      "name": "balancerVault",
      "outputs": [
        {
          "internalType": "address",
          "name": "",
          "type": "address"
        }
      ],
      "stateMutability": "view",
      "type": "function"
    },
    {
      "inputs": [],
      "name": "checkBalance",
      "outputs": [
        {
          "internalType": "uint256",
          "name": "balance",
          "type": "uint256"
        }
      ],
      "stateMutability": "view",
      "type": "function"
    },
    {
      "inputs": [],
      "name": "claimGovernance",
      "outputs": [],
      "stateMutability": "nonpayable",
      "type": "function"
    },
    {
      "inputs": [],
      "name": "collectRewardTokens",
      "outputs": [],
      "stateMutability": "nonpayable",
      "type": "function"
    },
    {
      "inputs": [
        {
          "internalType": "address",
          "name": "_asset",
          "type": "address"
        },
        {
          "internalType": "uint256",
          "name": "_amount",
          "type": "uint256"
        }
      ],
      "name": "deposit",
      "outputs": [],
      "stateMutability": "nonpayable",
      "type": "function"
    },
    {
      "inputs": [],
      "name": "depositAll",
      "outputs": [],
      "stateMutability": "nonpayable",
      "type": "function"
    },
    {
      "inputs": [],
      "name": "dystPair",
      "outputs": [
        {
          "internalType": "contract IDystopiaLP",
          "name": "",
          "type": "address"
        }
      ],
      "stateMutability": "view",
      "type": "function"
    },
    {
      "inputs": [],
      "name": "dystRouter",
      "outputs": [
        {
          "internalType": "address",
          "name": "",
          "type": "address"
        }
      ],
      "stateMutability": "view",
      "type": "function"
    },
    {
      "inputs": [],
      "name": "dystToken",
      "outputs": [
        {
          "internalType": "contract IERC20",
          "name": "",
          "type": "address"
        }
      ],
      "stateMutability": "view",
      "type": "function"
    },
    {
      "inputs": [],
      "name": "gauge",
      "outputs": [
        {
          "internalType": "contract IDystopiaLP",
          "name": "",
          "type": "address"
        }
      ],
      "stateMutability": "view",
      "type": "function"
    },
    {
      "inputs": [],
      "name": "getRewardTokenAddresses",
      "outputs": [
        {
          "internalType": "address[]",
          "name": "",
          "type": "address[]"
        }
      ],
      "stateMutability": "view",
      "type": "function"
    },
    {
      "inputs": [],
      "name": "governor",
      "outputs": [
        {
          "internalType": "address",
          "name": "",
          "type": "address"
        }
      ],
      "stateMutability": "view",
      "type": "function"
    },
    {
      "inputs": [],
      "name": "harvesterAddress",
      "outputs": [
        {
          "internalType": "address",
          "name": "",
          "type": "address"
        }
      ],
      "stateMutability": "view",
      "type": "function"
    },
    {
      "inputs": [
        {
          "internalType": "address",
          "name": "_platformAddress",
          "type": "address"
        },
        {
          "internalType": "address",
          "name": "_vaultAddress",
          "type": "address"
        },
        {
          "internalType": "address[]",
          "name": "_rewardTokenAddresses",
          "type": "address[]"
        },
        {
          "internalType": "address[]",
          "name": "_assets",
          "type": "address[]"
        },
        {
          "internalType": "address[]",
          "name": "_pTokens",
          "type": "address[]"
        },
        {
          "internalType": "address",
          "name": "_primaryStable",
          "type": "address"
        },
        {
          "internalType": "address",
          "name": "_intermediatory_token",
          "type": "address"
        }
      ],
      "name": "initialize",
      "outputs": [],
      "stateMutability": "nonpayable",
      "type": "function"
    },
    {
      "inputs": [
        {
          "internalType": "address",
          "name": "_platformAddress",
          "type": "address"
        },
        {
          "internalType": "address",
          "name": "_vaultAddress",
          "type": "address"
        },
        {
          "internalType": "address[]",
          "name": "_rewardTokenAddresses",
          "type": "address[]"
        },
        {
          "internalType": "address[]",
          "name": "_assets",
          "type": "address[]"
        },
        {
          "internalType": "address[]",
          "name": "_pTokens",
          "type": "address[]"
        }
      ],
      "name": "initialize",
      "outputs": [],
      "stateMutability": "nonpayable",
      "type": "function"
    },
    {
      "inputs": [],
      "name": "isGovernor",
      "outputs": [
        {
          "internalType": "bool",
          "name": "",
          "type": "bool"
        }
      ],
      "stateMutability": "view",
      "type": "function"
    },
    {
      "inputs": [],
      "name": "middleToken",
      "outputs": [
        {
          "internalType": "contract IERC20",
          "name": "",
          "type": "address"
        }
      ],
      "stateMutability": "view",
      "type": "function"
    },
    {
      "inputs": [],
      "name": "penLens",
      "outputs": [
        {
          "internalType": "contract IPenLens",
          "name": "",
          "type": "address"
        }
      ],
      "stateMutability": "view",
      "type": "function"
    },
    {
      "inputs": [],
      "name": "penToken",
      "outputs": [
        {
          "internalType": "contract IERC20",
          "name": "",
          "type": "address"
        }
      ],
      "stateMutability": "view",
      "type": "function"
    },
    {
      "inputs": [],
      "name": "platformAddress",
      "outputs": [
        {
          "internalType": "address",
          "name": "",
          "type": "address"
        }
      ],
      "stateMutability": "view",
      "type": "function"
    },
    {
      "inputs": [],
      "name": "poolId",
      "outputs": [
        {
          "internalType": "bytes32",
          "name": "",
          "type": "bytes32"
        }
      ],
      "stateMutability": "view",
      "type": "function"
    },
    {
      "inputs": [],
      "name": "primaryStable",
      "outputs": [
        {
          "internalType": "contract IERC20",
          "name": "",
          "type": "address"
        }
      ],
      "stateMutability": "view",
      "type": "function"
    },
    {
      "inputs": [
        {
          "internalType": "uint256",
          "name": "_assetIndex",
          "type": "uint256"
        }
      ],
      "name": "removePToken",
      "outputs": [],
      "stateMutability": "nonpayable",
      "type": "function"
    },
    {
      "inputs": [
        {
          "internalType": "uint256",
          "name": "",
          "type": "uint256"
        }
      ],
      "name": "rewardTokenAddresses",
      "outputs": [
        {
          "internalType": "address",
          "name": "",
          "type": "address"
        }
      ],
      "stateMutability": "view",
      "type": "function"
    },
    {
      "inputs": [],
      "name": "safeApproveAllTokens",
      "outputs": [],
      "stateMutability": "nonpayable",
      "type": "function"
    },
    {
      "inputs": [
        {
          "internalType": "address",
          "name": "_harvesterAddress",
          "type": "address"
        }
      ],
      "name": "setHarvesterAddress",
      "outputs": [],
      "stateMutability": "nonpayable",
      "type": "function"
    },
    {
      "inputs": [
        {
          "internalType": "address",
          "name": "_asset",
          "type": "address"
        },
        {
          "internalType": "address",
          "name": "_pToken",
          "type": "address"
        }
      ],
      "name": "setPTokenAddress",
      "outputs": [],
      "stateMutability": "nonpayable",
      "type": "function"
    },
    {
      "inputs": [
        {
          "internalType": "address",
          "name": "_gauge",
          "type": "address"
        },
        {
          "internalType": "address",
          "name": "_dystPair",
          "type": "address"
        },
        {
          "internalType": "address",
          "name": "_dystRouter",
          "type": "address"
        },
        {
          "internalType": "address",
          "name": "_balancerVault",
          "type": "address"
        },
        {
          "internalType": "bytes32",
          "name": "_poolId",
          "type": "bytes32"
        },
        {
          "internalType": "address",
          "name": "_userProxy",
          "type": "address"
        },
        {
          "internalType": "address",
          "name": "_penLens",
          "type": "address"
        },
        {
          "internalType": "address",
          "name": "_penToken",
          "type": "address"
        }
      ],
      "name": "setParams",
      "outputs": [],
      "stateMutability": "nonpayable",
      "type": "function"
    },
    {
      "inputs": [
        {
          "internalType": "address[]",
          "name": "_rewardTokenAddresses",
          "type": "address[]"
        }
      ],
      "name": "setRewardTokenAddresses",
      "outputs": [],
      "stateMutability": "nonpayable",
      "type": "function"
    },
    {
      "inputs": [
        {
          "internalType": "address",
          "name": "_asset",
          "type": "address"
        }
      ],
      "name": "supportsAsset",
      "outputs": [
        {
          "internalType": "bool",
          "name": "",
          "type": "bool"
        }
      ],
      "stateMutability": "view",
      "type": "function"
    },
    {
      "inputs": [],
      "name": "token0",
      "outputs": [
        {
          "internalType": "contract IERC20",
          "name": "",
          "type": "address"
        }
      ],
      "stateMutability": "view",
      "type": "function"
    },
    {
      "inputs": [],
      "name": "token1",
      "outputs": [
        {
          "internalType": "contract IERC20",
          "name": "",
          "type": "address"
        }
      ],
      "stateMutability": "view",
      "type": "function"
    },
    {
      "inputs": [
        {
          "internalType": "address",
          "name": "_newGovernor",
          "type": "address"
        }
      ],
      "name": "transferGovernance",
      "outputs": [],
      "stateMutability": "nonpayable",
      "type": "function"
    },
    {
      "inputs": [
        {
          "internalType": "address",
          "name": "_asset",
          "type": "address"
        },
        {
          "internalType": "uint256",
          "name": "_amount",
          "type": "uint256"
        }
      ],
      "name": "transferToken",
      "outputs": [],
      "stateMutability": "nonpayable",
      "type": "function"
    },
    {
      "inputs": [],
      "name": "userProxy",
      "outputs": [
        {
          "internalType": "contract IUserProxy",
          "name": "",
          "type": "address"
        }
      ],
      "stateMutability": "view",
      "type": "function"
    },
    {
      "inputs": [],
      "name": "vaultAddress",
      "outputs": [
        {
          "internalType": "address",
          "name": "",
          "type": "address"
        }
      ],
      "stateMutability": "view",
      "type": "function"
    },
    {
      "inputs": [
        {
          "internalType": "address",
          "name": "_beneficiary",
          "type": "address"
        },
        {
          "internalType": "address",
          "name": "_asset",
          "type": "address"
        },
        {
          "internalType": "uint256",
          "name": "_amount",
          "type": "uint256"
        }
      ],
      "name": "withdraw",
      "outputs": [],
      "stateMutability": "nonpayable",
      "type": "function"
    },
    {
      "inputs": [],
      "name": "withdrawAll",
      "outputs": [],
      "stateMutability": "nonpayable",
      "type": "function"
    }
  ],
  "transactionHash": "0x816972dd2953ca143c9a0858d00fd7a79d2b7fe4fd988a5771febd1cac0f7b7c",
  "args": [],
  "solcInputHash": "687ed9fa5cffd3a4c7a6373a1d9ad1d9",
  "bytecode": "0x60806040523480156200001157600080fd5b506200002a3360008051602062005ff783398151915255565b60008051602062005ff7833981519152546040516001600160a01b03909116906000907fc7c0c772add429241571afb3805861fb3cfa2af374534088b76cdb4325a87e9a908290a3615f7580620000826000396000f3fe608060405234801561001057600080fd5b506004361061027f5760003560e01c80638b2ddd141161015c578063c7af3352116100ce578063de5f626811610087578063de5f626814610587578063e54bef751461058f578063f664b3d9146105a3578063f6ca71b0146105ab578063f817bc63146105c0578063f9759518146105c957600080fd5b8063c7af33521461051e578063d21220a714610526578063d2f248931461053a578063d38bfff41461054e578063d9caed1214610561578063dbe55e561461057457600080fd5b8063aa388af611610120578063aa388af6146104a9578063ad1728cb14610312578063b0492aa5146104dc578063b3bba24d146104f0578063c2e1e3f414610503578063c71daccb1461051657600080fd5b80638b2ddd14146104485780639136616a1461045c5780639688d2fc1461046f57806396d538bb14610482578063a6f19c841461049557600080fd5b8063430bf08a116101f55780635d85786d116101b95780635d85786d146103df5780635f8cddfe146103f357806367c7066c146104075780637b2d9b2c1461041a5780637e2d3a151461042d578063853828b61461044057600080fd5b8063430bf08a1461039557806345fb5007146103a857806347e7ef24146103bc5780635a063f63146103cf5780635d36b190146103d757600080fd5b80630fc3b4c4116102475780630fc3b4c4146103145780631072cbea1461033d578063158274a5146103505780632e655201146103645780633e0dc34e146103775780633ec632161461038157600080fd5b8063063bde24146102845780630b7132cf146102aa5780630c340a24146102cb5780630dfe1681146102eb5780630ed57b3a146102ff575b600080fd5b6102976b033b2e3c9fd0803ce800000081565b6040519081526020015b60405180910390f35b6102976102b8366004615052565b6101006020526000908152604090205481565b6102d36105d7565b6040516001600160a01b0390911681526020016102a1565b610107546102d3906001600160a01b031681565b61031261030d36600461508c565b6105f4565b005b6102d3610322366004615052565b6035602052600090815260409020546001600160a01b031681565b61031261034b366004615378565b61062f565b61010d546102d3906001600160a01b031681565b6037546102d3906001600160a01b031681565b6102976101045481565b61010b546102d3906001600160a01b031681565b6034546102d3906001600160a01b031681565b610106546102d3906001600160a01b031681565b6103126103ca366004615378565b61066f565b610312610710565b6103126107af565b610103546102d3906001600160a01b031681565b610102546102d3906001600160a01b031681565b6039546102d3906001600160a01b031681565b6102d361042836600461556a565b610855565b61031261043b366004615224565b61087f565b610312610ba5565b61010c546102d3906001600160a01b031681565b61031261046a36600461556a565b6110b3565b61031261047d366004615165565b61127e565b6103126104903660046153a4565b611387565b610101546102d3906001600160a01b031681565b6104cc6104b7366004615052565b610105546001600160a01b0391821691161490565b60405190151581526020016102a1565b610109546102d3906001600160a01b031681565b6103126104fe3660046150c5565b6114ad565b610312610511366004615052565b61156b565b6102976115ea565b6104cc611b4c565b610108546102d3906001600160a01b031681565b610105546102d3906001600160a01b031681565b61031261055c366004615052565b611b7d565b61031261056f366004615304565b611c21565b6033546102d3906001600160a01b031681565b610312612156565b61010a546102d3906001600160a01b031681565b610297600481565b6105b361223b565b6040516102a191906157fb565b61029760385481565b610297662386f26fc1000081565b60006105ef600080516020615ef38339815191525490565b905090565b6105fc611b4c565b6106215760405162461bcd60e51b81526004016106189061599d565b60405180910390fd5b61062b828261229d565b5050565b610637611b4c565b6106535760405162461bcd60e51b81526004016106189061599d565b61062b61065e6105d7565b6001600160a01b03841690836123fc565b6034546001600160a01b031633146106995760405162461bcd60e51b815260040161061890615966565b600080516020615ed3833981519152805460028114156106cb5760405162461bcd60e51b815260040161061890615a50565b60028255610105546001600160a01b038581169116146106fd5760405162461bcd60e51b815260040161061890615a22565b6107078484612452565b50600190555050565b6039546001600160a01b0316331461076a5760405162461bcd60e51b815260206004820152601b60248201527f43616c6c6572206973206e6f74207468652048617276657374657200000000006044820152606401610618565b600080516020615ed38339815191528054600281141561079c5760405162461bcd60e51b815260040161061890615a50565b600282556107a8612816565b5060019055565b7f7eaf9a7750884803435dfabc67aa617a7d8fefb23d8d84b3c9722bd69e48c4bc546001600160a01b0316336001600160a01b03161461084a5760405162461bcd60e51b815260206004820152603060248201527f4f6e6c79207468652070656e64696e6720476f7665726e6f722063616e20636f60448201526f6d706c6574652074686520636c61696d60801b6064820152608401610618565b61085333612ceb565b565b603a818154811061086557600080fd5b6000918252602090912001546001600160a01b0316905081565b610887611b4c565b6108a35760405162461bcd60e51b81526004016106189061599d565b600054610100900460ff16806108bc575060005460ff16155b6108d85760405162461bcd60e51b8152600401610618906159d4565b600054610100900460ff161580156108fa576000805461ffff19166101011790555b8686600081811061090d5761090d615e91565b90506020020160208101906109229190615052565b61010780546001600160a01b0319166001600160a01b03929092169190911790558686600181811061095657610956615e91565b905060200201602081019061096b9190615052565b61010880546001600160a01b03199081166001600160a01b039384161790915561010580548216868416179055610106805482168584161790556101098054909116918d16919091179055858481146109fd5760405162461bcd60e51b8152602060048201526014602482015273496e76616c696420696e7075742061727261797360601b6044820152606401610618565b60005b81811015610b0257888882818110610a1a57610a1a615e91565b9050602002016020810190610a2f9190615052565b6001600160a01b031663313ce5676040518163ffffffff1660e01b815260040160206040518083038186803b158015610a6757600080fd5b505afa158015610a7b573d6000803e3d6000fd5b505050506040513d601f19601f82011682018060405250810190610a9f91906155ee565b610aaa90600a615ce0565b61010060008b8b85818110610ac157610ac1615e91565b9050602002016020810190610ad69190615052565b6001600160a01b0316815260208101919091526040016000205580610afa81615e14565b915050610a00565b50610b858c8c8c8c8c8c80806020026020016040519081016040528093929190818152602001838360200280828437600081840152601f19601f820116905080830192505050505050508b8b80806020026020016040519081016040528093929190818152602001838360200280828437600092019190915250612daf92505050565b508015610b98576000805461ff00191690555b5050505050505050505050565b6034546001600160a01b0316331480610bd65750610bc16105d7565b6001600160a01b0316336001600160a01b0316145b610c2e5760405162461bcd60e51b815260206004820152602360248201527f43616c6c6572206973206e6f7420746865205661756c74206f7220476f7665726044820152623737b960e91b6064820152608401610618565b600080516020615ed383398151915280546002811415610c605760405162461bcd60e51b815260040161061890615a50565b60028255600080610c6f612e98565b91509150610c7b6130c1565b61010c54604051636f4ba70b60e11b81523060048201526000916001600160a01b03169063de974e169060240160206040518083038186803b158015610cc057600080fd5b505afa158015610cd4573d6000803e3d6000fd5b505050506040513d601f19601f82011682018060405250810190610cf8919061506f565b61010c546101025460405163478a0c7960e11b81526001600160a01b039182166004820152929350600092911690638f1418f29060240160206040518083038186803b158015610d4757600080fd5b505afa158015610d5b573d6000803e3d6000fd5b505050506040513d601f19601f82011682018060405250810190610d7f919061506f565b6040516370a0823160e01b81526001600160a01b0384811660048301529192506000918316906370a082319060240160206040518083038186803b158015610dc657600080fd5b505afa158015610dda573d6000803e3d6000fd5b505050506040513d601f19601f82011682018060405250810190610dfe9190615583565b905080610e0f5750505050506107a8565b61010b546101025460405163fce07e8960e01b81526001600160a01b039283169263fce07e8992610e479291169085906004016157e2565b600060405180830381600087803b158015610e6157600080fd5b505af1158015610e75573d6000803e3d6000fd5b5050610102546040516370a0823160e01b8152306004820152600093506001600160a01b0390911691506370a082319060240160206040518083038186803b158015610ec057600080fd5b505afa158015610ed4573d6000803e3d6000fd5b505050506040513d601f19601f82011682018060405250810190610ef89190615583565b90508015610ff75761010254604080516318160ddd60e01b815290516000926001600160a01b0316916318160ddd916004808301926020929190829003018186803b158015610f4657600080fd5b505afa158015610f5a573d6000803e3d6000fd5b505050506040513d601f19601f82011682018060405250810190610f7e9190615583565b9050600081610f8d848a615d8b565b610f979190615c7b565b9050600082610fa6858a615d8b565b610fb09190615c7b565b610107546101085461010254929350610ff1926001600160a01b0392831692918216911687610fe08760046133db565b610feb8760046133db565b30613407565b50505050505b610fff613576565b610105546040516370a0823160e01b81523060048201526000916001600160a01b0316906370a082319060240160206040518083038186803b15801561104457600080fd5b505afa158015611058573d6000803e3d6000fd5b505050506040513d601f19601f8201168201806040525081019061107c9190615583565b6034546101055491925061109d916001600160a01b039081169116836123fc565b6110a5612816565b505050505050505060019055565b6110bb611b4c565b6110d75760405162461bcd60e51b81526004016106189061599d565b60365481106111185760405162461bcd60e51b815260206004820152600d60248201526c092dcecc2d8d2c840d2dcc8caf609b1b6044820152606401610618565b60006036828154811061112d5761112d615e91565b60009182526020808320909101546001600160a01b0390811680845260359092526040909220546036549193509091169061116a90600190615daa565b8310156111ec576036805461118190600190615daa565b8154811061119157611191615e91565b600091825260209091200154603680546001600160a01b0390921691859081106111bd576111bd615e91565b9060005260206000200160006101000a8154816001600160a01b0302191690836001600160a01b031602179055505b60368054806111fd576111fd615e7b565b60008281526020808220600019908401810180546001600160a01b031990811690915593019093556001600160a01b038581168083526035855260409283902080549094169093559051908416815290917f16b7600acff27e39a8a96056b3d533045298de927507f5c1d97e4accde60488c910160405180910390a2505050565b611286611b4c565b6112a25760405162461bcd60e51b81526004016106189061599d565b600054610100900460ff16806112bb575060005460ff16155b6112d75760405162461bcd60e51b8152600401610618906159d4565b600054610100900460ff161580156112f9576000805461ffff19166101011790555b61136a8989898989898080602002602001604051908101604052809392919081815260200183836020028082843760009201919091525050604080516020808d0282810182019093528c82529093508c92508b918291850190849080828437600092019190915250612daf92505050565b801561137c576000805461ff00191690555b505050505050505050565b61138f611b4c565b6113ab5760405162461bcd60e51b81526004016106189061599d565b60005b8181101561145f5760008383838181106113ca576113ca615e91565b90506020020160208101906113df9190615052565b6001600160a01b0316141561144d5760405162461bcd60e51b815260206004820152602e60248201527f43616e206e6f742073657420616e20656d70747920616464726573732061732060448201526d30903932bbb0b932103a37b5b2b760911b6064820152608401610618565b8061145781615e14565b9150506113ae565b507f04c0b9649497d316554306e53678d5f5f5dbc3a06f97dec13ff4cfe98b986bbc603a83836040516114949392919061580e565b60405180910390a16114a8603a8383614ef5565b505050565b6114b5611b4c565b6114d15760405162461bcd60e51b81526004016106189061599d565b61010d80546001600160a01b03199081166001600160a01b0388811691909117909255610104869055610101805482168b8416179055610102805482168a8416179055609d805490911691881691909117905561010b80546001600160a01b039485166001600160a01b03199182161790915561010c80549385169382169390931790925561010a80549190931691161790555050505050565b611573611b4c565b61158f5760405162461bcd60e51b81526004016106189061599d565b603980546001600160a01b0319166001600160a01b0383169081179091556040805182815260208101929092527fe48386b84419f4d36e0f96c10cc3510b6fb1a33795620c5098b22472bbe90796910160405180910390a150565b610105546040516370a0823160e01b815230600482015260009182916001600160a01b03909116906370a082319060240160206040518083038186803b15801561163357600080fd5b505afa158015611647573d6000803e3d6000fd5b505050506040513d601f19601f8201168201806040525081019061166b9190615583565b610107546040516370a0823160e01b81523060048201529192506000916001600160a01b03909116906370a082319060240160206040518083038186803b1580156116b557600080fd5b505afa1580156116c9573d6000803e3d6000fd5b505050506040513d601f19601f820116820180604052508101906116ed9190615583565b610108546040516370a0823160e01b81523060048201529192506000916001600160a01b03909116906370a082319060240160206040518083038186803b15801561173757600080fd5b505afa15801561174b573d6000803e3d6000fd5b505050506040513d601f19601f8201168201806040525081019061176f9190615583565b61010c54604051636f4ba70b60e11b81523060048201529192506000916001600160a01b039091169063de974e169060240160206040518083038186803b1580156117b957600080fd5b505afa1580156117cd573d6000803e3d6000fd5b505050506040513d601f19601f820116820180604052508101906117f1919061506f565b61010c546101025460405163478a0c7960e11b81526001600160a01b039182166004820152929350600092911690638f1418f29060240160206040518083038186803b15801561184057600080fd5b505afa158015611854573d6000803e3d6000fd5b505050506040513d601f19601f82011682018060405250810190611878919061506f565b6040516370a0823160e01b81526001600160a01b0384811660048301529192506000918316906370a082319060240160206040518083038186803b1580156118bf57600080fd5b505afa1580156118d3573d6000803e3d6000fd5b505050506040513d601f19601f820116820180604052508101906118f79190615583565b610101546040516370a0823160e01b81523060048201529192506001600160a01b0316906370a082319060240160206040518083038186803b15801561193c57600080fd5b505afa158015611950573d6000803e3d6000fd5b505050506040513d601f19601f820116820180604052508101906119749190615583565b61197e9082615c63565b90508015611a5c5761010254604080516318160ddd60e01b815290516000926001600160a01b0316916318160ddd916004808301926020929190829003018186803b1580156119cc57600080fd5b505afa1580156119e0573d6000803e3d6000fd5b505050506040513d601f19601f82011682018060405250810190611a049190615583565b9050600080611a11612e98565b909250905082611a218584615d8b565b611a2b9190615c7b565b611a359089615c63565b975082611a428583615d8b565b611a4c9190615c7b565b611a569088615c63565b96505050505b61010554610107546000916001600160a01b03918216911614611ab6578515611ab15761010d54610104546101075461010554611aae936001600160a01b03908116939260009290821691168b6137b5565b90505b611ac3565b611ac08682615c63565b90505b61010554610108546000916001600160a01b03918216911614611b1d578515611b185761010d54610104546101085461010554611b15936001600160a01b03908116939260009290821691168b6137b5565b90505b611b2a565b611b278682615c63565b90505b87611b358284615c63565b611b3f9190615c63565b9850505050505050505090565b6000611b64600080516020615ef38339815191525490565b6001600160a01b0316336001600160a01b031614905090565b611b85611b4c565b611ba15760405162461bcd60e51b81526004016106189061599d565b611bc9817f7eaf9a7750884803435dfabc67aa617a7d8fefb23d8d84b3c9722bd69e48c4bc55565b806001600160a01b0316611be9600080516020615ef38339815191525490565b6001600160a01b03167fa39cc5eb22d0f34d8beaefee8a3f17cc229c1a1d1ef87a5ad47313487b1c4f0d60405160405180910390a350565b6034546001600160a01b03163314611c4b5760405162461bcd60e51b815260040161061890615966565b600080516020615ed383398151915280546002811415611c7d5760405162461bcd60e51b815260040161061890615a50565b60028255610105546001600160a01b03858116911614611caf5760405162461bcd60e51b815260040161061890615a22565b600080611cba612e98565b61010c54604051636f4ba70b60e11b81523060048201529294509092506000916001600160a01b039091169063de974e169060240160206040518083038186803b158015611d0757600080fd5b505afa158015611d1b573d6000803e3d6000fd5b505050506040513d601f19601f82011682018060405250810190611d3f919061506f565b61010c546101025460405163478a0c7960e11b81526001600160a01b039182166004820152929350600092911690638f1418f29060240160206040518083038186803b158015611d8e57600080fd5b505afa158015611da2573d6000803e3d6000fd5b505050506040513d601f19601f82011682018060405250810190611dc6919061506f565b6040516370a0823160e01b81526001600160a01b0384811660048301529192506000918316906370a082319060240160206040518083038186803b158015611e0d57600080fd5b505afa158015611e21573d6000803e3d6000fd5b505050506040513d601f19601f82011682018060405250810190611e459190615583565b905080156120a55761010254604080516318160ddd60e01b815290516000926001600160a01b0316916318160ddd916004808301926020929190829003018186803b158015611e9357600080fd5b505afa158015611ea7573d6000803e3d6000fd5b505050506040513d601f19601f82011682018060405250810190611ecb9190615583565b61010d54909150600090611f2d906001600160a01b0316611eed8c6004613c96565b610107546001600160a01b03908116600081815261010060205260408082205461010854909416808352912054610104548e948e948b9491939291613ca5565b905082811115611f3a5750815b61010b546101025460405163fce07e8960e01b81526001600160a01b039283169263fce07e8992611f729291169085906004016157e2565b600060405180830381600087803b158015611f8c57600080fd5b505af1158015611fa0573d6000803e3d6000fd5b5050610102546040516370a0823160e01b8152306004820152600093506001600160a01b0390911691506370a082319060240160206040518083038186803b158015611feb57600080fd5b505afa158015611fff573d6000803e3d6000fd5b505050506040513d601f19601f820116820180604052508101906120239190615583565b905061209f61010760009054906101000a90046001600160a01b031661010860009054906101000a90046001600160a01b031661010260009054906101000a90046001600160a01b03168461208f88878f61207e9190615d8b565b6120889190615c7b565b60046133db565b610feb89888f61207e9190615d8b565b50505050505b6120ad613576565b610105546040516370a0823160e01b81523060048201526000916001600160a01b0316906370a082319060240160206040518083038186803b1580156120f257600080fd5b505afa158015612106573d6000803e3d6000fd5b505050506040513d601f19601f8201168201806040525081019061212a9190615583565b61010554909150612145906001600160a01b03168c836123fc565b505050505050600182555050505050565b6034546001600160a01b031633146121805760405162461bcd60e51b815260040161061890615966565b600080516020615ed3833981519152805460028114156121b25760405162461bcd60e51b815260040161061890615a50565b60028255610105546040516370a0823160e01b81523060048201526107a8916001600160a01b03169081906370a082319060240160206040518083038186803b1580156121fe57600080fd5b505afa158015612212573d6000803e3d6000fd5b505050506040513d601f19601f820116820180604052508101906122369190615583565b612452565b6060603a80548060200260200160405190810160405280929190818152602001828054801561229357602002820191906000526020600020905b81546001600160a01b03168152600190910190602001808311612275575b5050505050905090565b6001600160a01b0382811660009081526035602052604090205416156122fa5760405162461bcd60e51b81526020600482015260126024820152711c151bdad95b88185b1c9958591e481cd95d60721b6044820152606401610618565b6001600160a01b0382161580159061231a57506001600160a01b03811615155b61235a5760405162461bcd60e51b8152602060048201526011602482015270496e76616c69642061646472657373657360781b6044820152606401610618565b6001600160a01b03828116600081815260356020908152604080832080549587166001600160a01b031996871681179091556036805460018101825594527f4a11f94e20a93c79f6ec743a1954ec4fc2c08429ae2122118bf234b2185c81b890930180549095168417909455925190815290917fef6485b84315f9b1483beffa32aae9a0596890395e3d7521f1c5fbb51790e765910160405180910390a25050565b6114a88363a9059cbb60e01b848460405160240161241b9291906157e2565b60408051601f198184030181529190526020810180516001600160e01b03166001600160e01b031990931692909217909152613d85565b610105546001600160a01b038381169116146124805760405162461bcd60e51b815260040161061890615a22565b60008061248b612e98565b91509150612497613e57565b610108546040516370a0823160e01b81523060048201526000916001600160a01b0316906370a082319060240160206040518083038186803b1580156124dc57600080fd5b505afa1580156124f0573d6000803e3d6000fd5b505050506040513d601f19601f820116820180604052508101906125149190615583565b9050600081156125505761010d5461010454610108546101075461254d936001600160a01b0390811693926000929082169116876137b5565b90505b610107546040516370a0823160e01b81523060048201526000916001600160a01b0316906370a082319060240160206040518083038186803b15801561259557600080fd5b505afa1580156125a9573d6000803e3d6000fd5b505050506040513d601f19601f820116820180604052508101906125cd9190615583565b61010d54610107546001600160a01b0390811660008181526101006020526040808220546101085485168084529183205461010454979850929661262296959095169488948d948d9490926001929091613f23565b61010d54610104546101075461010854939450612655936001600160a01b03938416936000928116911630808885614032565b50610107546040516370a0823160e01b81523060048201526001600160a01b03909116906370a082319060240160206040518083038186803b15801561269a57600080fd5b505afa1580156126ae573d6000803e3d6000fd5b505050506040513d601f19601f820116820180604052508101906126d29190615583565b610108546040516370a0823160e01b81523060048201529193506001600160a01b0316906370a082319060240160206040518083038186803b15801561271757600080fd5b505afa15801561272b573d6000803e3d6000fd5b505050506040513d601f19601f8201168201806040525081019061274f9190615583565b6101075461010854919550612789916001600160a01b03918216911684876127788260046133db565b6127838a60046133db565b306143b2565b5050610102546040516370a0823160e01b8152306004820152600092506001600160a01b03909116906370a082319060240160206040518083038186803b1580156127d357600080fd5b505afa1580156127e7573d6000803e3d6000fd5b505050506040513d601f19601f8201168201806040525081019061280b9190615583565b905061137c816145b3565b6128546040518060400160405280601e81526020017f5374617274696e6720636f6c6c656374696f6e206f66207265776172647300008152506146a4565b61285c6130c1565b61287d6040518060600160405280602d8152602001615f13602d91396146a4565b61010b60009054906101000a90046001600160a01b03166001600160a01b0316636b69e05b6040518163ffffffff1660e01b8152600401600060405180830381600087803b1580156128ce57600080fd5b505af11580156128e2573d6000803e3d6000fd5b505050506129246040518060400160405280601a81526020017f636c61696d5374616b696e67526577617264732063616c6c65640000000000008152506146a4565b610109546040516370a0823160e01b815230600482015260009182916001600160a01b03909116906370a082319060240160206040518083038186803b15801561296d57600080fd5b505afa158015612981573d6000803e3d6000fd5b505050506040513d601f19601f820116820180604052508101906129a59190615583565b90506129d66040518060400160405280600d81526020016c0323cb9ba2130b630b731b29d1609d1b815250826146e7565b8015612a1957610109546101065461010754600092612a09926001600160a01b039182169290821691168480873061472c565b9050612a158184615c63565b9250505b612a456040518060400160405280600a815260200169746f74616c557364633d60b01b815250836146e7565b61010a546040516370a0823160e01b81523060048201526000916001600160a01b0316906370a082319060240160206040518083038186803b158015612a8a57600080fd5b505afa158015612a9e573d6000803e3d6000fd5b505050506040513d601f19601f82011682018060405250810190612ac29190615583565b9050612af26040518060400160405280600c81526020016b03832b72130b630b731b29d160a51b815250826146e7565b8015612b5e5761010a546101065461010554600092612b25926001600160a01b039182169290821691168480873061472c565b9050612b506040518060400160405280600781526020016670656e5573646360c81b815250826146e7565b612b5a8185615c63565b9350505b610105546040516370a0823160e01b81523060048201526000916001600160a01b0316906370a082319060240160206040518083038186803b158015612ba357600080fd5b505afa158015612bb7573d6000803e3d6000fd5b505050506040513d601f19601f82011682018060405250810190612bdb9190615583565b9050612c086040518060400160405280600981526020016803130b630b731b29d160bd1b815250826146e7565b60395461010554604080516001600160a01b03938416815292909116602083015281018290527ff6c07a063ed4e63808eb8da7112d46dbcd38de2b40a73dbcc9353c5a94c723539060600160405180910390a16101055460395460405163a9059cbb60e01b81526001600160a01b039283169263a9059cbb92612c929291169085906004016157e2565b602060405180830381600087803b158015612cac57600080fd5b505af1158015612cc0573d6000803e3d6000fd5b505050506040513d601f19601f82011682018060405250810190612ce491906154f8565b5050505050565b6001600160a01b038116612d415760405162461bcd60e51b815260206004820152601a60248201527f4e657720476f7665726e6f7220697320616464726573732830290000000000006044820152606401610618565b806001600160a01b0316612d61600080516020615ef38339815191525490565b6001600160a01b03167fc7c0c772add429241571afb3805861fb3cfa2af374534088b76cdb4325a87e9a60405160405180910390a3612dac81600080516020615ef383398151915255565b50565b603380546001600160a01b038089166001600160a01b0319928316179092556034805492881692909116919091179055612deb603a8585614ef5565b50815181518114612e355760405162461bcd60e51b8152602060048201526014602482015273496e76616c696420696e7075742061727261797360601b6044820152606401610618565b60005b81811015612e8e57612e7c848281518110612e5557612e55615e91565b6020026020010151848381518110612e6f57612e6f615e91565b602002602001015161229d565b80612e8681615e14565b915050612e38565b5050505050505050565b60008060008061010260009054906101000a90046001600160a01b03166001600160a01b0316630902f1ac6040518163ffffffff1660e01b815260040160606040518083038186803b158015612eed57600080fd5b505afa158015612f01573d6000803e3d6000fd5b505050506040513d601f19601f82011682018060405250810190612f25919061551a565b506001600160701b031691506001600160701b03169150600361010760009054906101000a90046001600160a01b03166001600160a01b031663313ce5676040518163ffffffff1660e01b815260040160206040518083038186803b158015612f8d57600080fd5b505afa158015612fa1573d6000803e3d6000fd5b505050506040513d601f19601f82011682018060405250810190612fc591906155ee565b612fcf9190615dc1565b612fda90600a615ce0565b821180156130795750610108546040805163313ce56760e01b815290516003926001600160a01b03169163313ce567916004808301926020929190829003018186803b15801561302957600080fd5b505afa15801561303d573d6000803e3d6000fd5b505050506040513d601f19601f8201168201806040525081019061306191906155ee565b61306b9190615dc1565b61307690600a615ce0565b81115b6130b85760405162461bcd60e51b815260206004820152601060248201526f526573657276657320746f6f206c6f7760801b6044820152606401610618565b90939092509050565b610101546040516370a0823160e01b81523060048201526000916001600160a01b0316906370a082319060240160206040518083038186803b15801561310657600080fd5b505afa15801561311a573d6000803e3d6000fd5b505050506040513d601f19601f8201168201806040525081019061313e9190615583565b90508015612dac576040805160018082528183019092526000916020808301908036833750506101095482519293506001600160a01b03169183915060009061318957613189615e91565b6001600160a01b039283166020918202929092010152610101546040516331279d3d60e01b81529116906331279d3d906131c990309085906004016157be565b600060405180830381600087803b1580156131e357600080fd5b505af11580156131f7573d6000803e3d6000fd5b5050505061010160009054906101000a90046001600160a01b03166001600160a01b031663853828b66040518163ffffffff1660e01b8152600401600060405180830381600087803b15801561324c57600080fd5b505af1158015613260573d6000803e3d6000fd5b5050610102546040516370a0823160e01b81523060048201526001600160a01b0390911692506370a08231915060240160206040518083038186803b1580156132a857600080fd5b505afa1580156132bc573d6000803e3d6000fd5b505050506040513d601f19601f820116820180604052508101906132e09190615583565b6101025461010b5460405163095ea7b360e01b81529294506001600160a01b039182169263095ea7b39261331a92169086906004016157e2565b602060405180830381600087803b15801561333457600080fd5b505af1158015613348573d6000803e3d6000fd5b505050506040513d601f19601f8201168201806040525081019061336c91906154f8565b5061010b54610102546040516351b3839960e11b81526001600160a01b039283169263a3670732926133a59291169086906004016157e2565b600060405180830381600087803b1580156133bf57600080fd5b505af11580156133d3573d6000803e3d6000fd5b505050505050565b60006127106133ea8382615daa565b6133f49085615d8b565b6133fe9190615c7b565b90505b92915050565b609d5460405163095ea7b360e01b815260009182916001600160a01b038981169263095ea7b39261344092909116908a906004016157e2565b602060405180830381600087803b15801561345a57600080fd5b505af115801561346e573d6000803e3d6000fd5b505050506040513d601f19601f8201168201806040525081019061349291906154f8565b50609d546001600160a01b0316630dede6c48a8a60018a8a8a8a6134b842610258615c63565b60405160e08a901b6001600160e01b03191681526001600160a01b039889166004820152968816602488015294151560448701526064860193909352608485019190915260a484015290921660c482015260e4810191909152610104016040805180830381600087803b15801561352e57600080fd5b505af1158015613542573d6000803e3d6000fd5b505050506040513d601f19601f82011682018060405250810190613566919061559c565b9150915097509795505050505050565b61010554610107546001600160a01b039081169116148015906136135750610107546040516370a0823160e01b81523060048201526000916001600160a01b0316906370a082319060240160206040518083038186803b1580156135d957600080fd5b505afa1580156135ed573d6000803e3d6000fd5b505050506040513d601f19601f820116820180604052508101906136119190615583565b115b156136c05761010d546101045461010754610105546040516370a0823160e01b815230600482018190526136be956001600160a01b0390811695946000949082169391169190819084906370a08231906024015b60206040518083038186803b15801561367f57600080fd5b505afa158015613693573d6000803e3d6000fd5b505050506040513d601f19601f820116820180604052508101906136b79190615583565b6000614032565b505b61010554610108546001600160a01b0390811691161480159061375d5750610108546040516370a0823160e01b81523060048201526000916001600160a01b0316906370a082319060240160206040518083038186803b15801561372357600080fd5b505afa158015613737573d6000803e3d6000fd5b505050506040513d601f19601f8201168201806040525081019061375b9190615583565b115b156108535761010d546101045461010854610105546040516370a0823160e01b81523060048201819052612dac956001600160a01b0390811695946000949082169391169190819084906370a0823190602401613667565b604080516101208101825260008082526020820181905291810182905260608082018390526080820183905260a0820183905260c0820183905260e0820183905261010082015287908087600181111561381157613811615e65565b9081600181111561382457613824615e65565b9052506001600160a01b0386811660208301528581166040808401919091526060830186905251631f29a8cd60e31b8152600481018a905260009182919085169063f94d46689060240160006040518083038186803b15801561388657600080fd5b505afa15801561389a573d6000803e3d6000fd5b505050506040513d6000823e601f3d908101601f191682016040526138c291908101906153e6565b5091509150600080856001600160a01b031663f6c009278d6040518263ffffffff1660e01b81526004016138f891815260200190565b604080518083038186803b15801561390f57600080fd5b505afa158015613923573d6000803e3d6000fd5b505050506040513d601f19601f820116820180604052508101906139479190615345565b9092509050600081600281111561396057613960615e65565b1415613a995760008060005b86518160ff161015613a08578c6001600160a01b0316878260ff168151811061399757613997615e91565b60200260200101516001600160a01b031614156139b9578060ff1692506139f6565b8b6001600160a01b0316878260ff16815181106139d8576139d8615e91565b60200260200101516001600160a01b031614156139f6578060ff1691505b80613a0081615e2f565b91505061396c565b5060405162f64aa560e11b81526001600160a01b038516906301ec954a90613a3a908a90899087908790600401615b33565b60206040518083038186803b158015613a5257600080fd5b505afa158015613a66573d6000803e3d6000fd5b505050506040513d601f19601f82011682018060405250810190613a8a9190615583565b98505050505050505050613c8c565b6001816002811115613aad57613aad615e65565b1415613bb85760008060005b86518160ff161015613b87578c6001600160a01b0316878260ff1681518110613ae457613ae4615e91565b60200260200101516001600160a01b03161415613b1f57858160ff1681518110613b1057613b10615e91565b60200260200101519250613b75565b8b6001600160a01b0316878260ff1681518110613b3e57613b3e615e91565b60200260200101516001600160a01b03161415613b7557858160ff1681518110613b6a57613b6a615e91565b602002602001015191505b80613b7f81615e2f565b915050613ab9565b5060405163274b044360e21b81526001600160a01b03851690639d2c110c90613a3a908a9086908690600401615b94565b60008060005b86518160ff161015613b87578c6001600160a01b0316878260ff1681518110613be957613be9615e91565b60200260200101516001600160a01b03161415613c2457858160ff1681518110613c1557613c15615e91565b60200260200101519250613c7a565b8b6001600160a01b0316878260ff1681518110613c4357613c43615e91565b60200260200101516001600160a01b03161415613c7a57858160ff1681518110613c6f57613c6f615e91565b602002602001015191505b80613c8481615e2f565b915050613bbe565b9695505050505050565b60006127106133ea8382615c63565b600080613cb2878a615d8b565b613cbc878c615d8b565b613cc69190615c63565b86613cd18d8b615d8b565b613cdb9190615d8b565b613ce59190615c7b565b905060005b6001811015613d7557600089613d00848d615d8b565b613d0a9190615c7b565b90506000613d1d8f896000898b876137b5565b9050613d29818d615d8b565b613d33838f615d8b565b613d3d9190615c63565b828f8d613d4a9190615d8b565b613d549190615d8b565b613d5e9190615c7b565b935050508080613d6d90615e14565b915050613cea565b509b9a5050505050505050505050565b6000613dda826040518060400160405280602081526020017f5361666545524332303a206c6f772d6c6576656c2063616c6c206661696c6564815250856001600160a01b0316614a169092919063ffffffff16565b8051909150156114a85780806020019051810190613df891906154f8565b6114a85760405162461bcd60e51b815260206004820152602a60248201527f5361666545524332303a204552433230206f7065726174696f6e20646964206e6044820152691bdd081cdd58d8d9595960b21b6064820152608401610618565b610105546040516370a0823160e01b81523060048201526000916001600160a01b0316906370a082319060240160206040518083038186803b158015613e9c57600080fd5b505afa158015613eb0573d6000803e3d6000fd5b505050506040513d601f19601f82011682018060405250810190613ed49190615583565b61010754610105549192506001600160a01b03918216911614612dac5761010d5461010454610105546101075461062b936001600160a01b039081169392600092908216911630808885614032565b60008a818989613f338a8e615d8b565b613f3d9190615c7b565b613f479190615c63565b613f518b8e615d8b565b613f5b9190615c7b565b9050613f8c6040518060400160405280600d81526020016c0616d6f756e7430546f5377617609c1b815250826146e7565b60005b8781101561402157613fc06040518060400160405280600681526020016506f6e537761760d41b8152508787614a2f565b6000613fd18f8960008a8a886137b5565b90508b83828f613fe19190615d8b565b613feb9190615c7b565b613ff59190615c63565b8c8f6140019190615d8b565b61400b9190615c7b565b925050808061401990615e14565b915050613f8f565b509c9b505050505050505050505050565b6000808a90506140736040518060400160405280601981526020017842616c616e6365725661756c743a207377617070696e67203160381b81525082614a76565b604080518082018252601981527842616c616e6365725661756c743a207377617070696e67203160381b602082015290516370a0823160e01b815230600482015261412491908a906001600160a01b038216906370a082319060240160206040518083038186803b1580156140e757600080fd5b505afa1580156140fb573d6000803e3d6000fd5b505050506040513d601f19601f8201168201806040525081019061411f9190615583565b614abb565b6040516370a0823160e01b81523060048201526001600160a01b0389169063095ea7b390839083906370a082319060240160206040518083038186803b15801561416d57600080fd5b505afa158015614181573d6000803e3d6000fd5b505050506040513d601f19601f820116820180604052508101906141a59190615583565b6040518363ffffffff1660e01b81526004016141c29291906157e2565b602060405180830381600087803b1580156141dc57600080fd5b505af11580156141f0573d6000803e3d6000fd5b505050506040513d601f19601f8201168201806040525081019061421491906154f8565b5082614250576142288b8b8b8b8b896137b5565b925061424d614246662386f26fc10000670de0b6b3a7640000615daa565b8490614b02565b92505b61429c6040805160c0810190915260008082526020820190815260200160006001600160a01b0316815260200160006001600160a01b0316815260200160008152602001606081525090565b8a8152602081018a60018111156142b5576142b5615e65565b908160018111156142c8576142c8615e65565b9052506001600160a01b03898116604083810191909152898216606080850191909152608080850189905282519081018352600060208201819052918101919091528983168152888316918101919091529083166352bbbe2983838861433042610258615c63565b6040518563ffffffff1660e01b815260040161434f9493929190615a78565b602060405180830381600087803b15801561436957600080fd5b505af115801561437d573d6000803e3d6000fd5b505050506040513d601f19601f820116820180604052508101906143a19190615583565b9d9c50505050505050505050505050565b609d5460405163095ea7b360e01b8152600091829182916001600160a01b03808d169263095ea7b3926143eb9216908c906004016157e2565b602060405180830381600087803b15801561440557600080fd5b505af1158015614419573d6000803e3d6000fd5b505050506040513d601f19601f8201168201806040525081019061443d91906154f8565b50609d5460405163095ea7b360e01b81526001600160a01b038b81169263095ea7b39261447292909116908b906004016157e2565b602060405180830381600087803b15801561448c57600080fd5b505af11580156144a0573d6000803e3d6000fd5b505050506040513d601f19601f820116820180604052508101906144c491906154f8565b50609d546001600160a01b0316635a47ddc38b8b60018c8c8c8c8c6144eb42610258615c63565b60405160e08b901b6001600160e01b03191681526001600160a01b03998a166004820152978916602489015295151560448801526064870194909452608486019290925260a485015260c484015290921660e482015261010481019190915261012401606060405180830381600087803b15801561456857600080fd5b505af115801561457c573d6000803e3d6000fd5b505050506040513d601f19601f820116820180604052508101906145a091906155c0565b9250925092509750975097945050505050565b6101025461010b5460405163095ea7b360e01b81526001600160a01b039283169263095ea7b3926145eb9291169085906004016157e2565b602060405180830381600087803b15801561460557600080fd5b505af1158015614619573d6000803e3d6000fd5b505050506040513d601f19601f8201168201806040525081019061463d91906154f8565b5061010b54610102546040516351b3839960e11b81526001600160a01b039283169263a3670732926146769291169085906004016157e2565b600060405180830381600087803b15801561469057600080fd5b505af1158015612ce4573d6000803e3d6000fd5b612dac816040516024016146b891906158a6565b60408051601f198184030181529190526020810180516001600160e01b031663104c13eb60e21b179052614b17565b61062b82826040516024016146fd929190615944565b60408051601f198184030181529190526020810180516001600160e01b03166309710a9d60e41b179052614b17565b609d5460405163095ea7b360e01b81526000916001600160a01b03808b169263095ea7b39261476192169087906004016157e2565b602060405180830381600087803b15801561477b57600080fd5b505af115801561478f573d6000803e3d6000fd5b505050506040513d601f19601f820116820180604052508101906147b391906154f8565b5060006147c4898989898989614b38565b9050806147d5576000915050614a0b565b60408051600280825260608201909252600091816020015b60408051606081018252600080825260208083018290529282015282526000199092019101816147ed579050509050898160008151811061483057614830615e91565b6020026020010151600001906001600160a01b031690816001600160a01b031681525050888160008151811061486857614868615e91565b6020026020010151602001906001600160a01b031690816001600160a01b03168152505086816000815181106148a0576148a0615e91565b6020026020010151604001901515908115158152505088816001815181106148ca576148ca615e91565b6020026020010151600001906001600160a01b031690816001600160a01b031681525050878160018151811061490257614902615e91565b6020026020010151602001906001600160a01b031690816001600160a01b031681525050858160018151811061493a5761493a615e91565b6020908102919091010151901515604090910152609d546000906001600160a01b031663f41766d88783858961497242610258615c63565b6040518663ffffffff1660e01b8152600401614992959493929190615bd2565b600060405180830381600087803b1580156149ac57600080fd5b505af11580156149c0573d6000803e3d6000fd5b505050506040513d6000823e601f3d908101601f191682016040526149e891908101906154bb565b9050806002815181106149fd576149fd615e91565b602002602001015193505050505b979650505050505050565b6060614a258484600085614d65565b90505b9392505050565b6114a8838383604051602401614a47939291906158e3565b60408051601f198184030181529190526020810180516001600160e01b03166307e763af60e51b179052614b17565b61062b8282604051602401614a8c9291906158b9565b60408051601f198184030181529190526020810180516001600160e01b031663319af33360e01b179052614b17565b6114a8838383604051602401614ad393929190615916565b60408051601f198184030181529190526020810180516001600160e01b03166307c8121760e01b179052614b17565b60006133fe8383670de0b6b3a7640000614e82565b80516a636f6e736f6c652e6c6f67602083016000808483855afa5050505050565b60408051600280825260608201909252600091829190816020015b6040805160608101825260008082526020808301829052928201528252600019909201910181614b535790505090508781600081518110614b9657614b96615e91565b6020026020010151600001906001600160a01b031690816001600160a01b0316815250508681600081518110614bce57614bce615e91565b6020026020010151602001906001600160a01b031690816001600160a01b0316815250508481600081518110614c0657614c06615e91565b602002602001015160400190151590811515815250508681600181518110614c3057614c30615e91565b6020026020010151600001906001600160a01b031690816001600160a01b0316815250508581600181518110614c6857614c68615e91565b6020026020010151602001906001600160a01b031690816001600160a01b0316815250508381600181518110614ca057614ca0615e91565b6020908102919091010151901515604091820152609d5490516326207f2d60e21b81526000916001600160a01b031690639881fcb490614ce69087908690600401615bb9565b60006040518083038186803b158015614cfe57600080fd5b505afa158015614d12573d6000803e3d6000fd5b505050506040513d6000823e601f3d908101601f19168201604052614d3a91908101906154bb565b905080600281518110614d4f57614d4f615e91565b6020026020010151925050509695505050505050565b606082471015614dc65760405162461bcd60e51b815260206004820152602660248201527f416464726573733a20696e73756666696369656e742062616c616e636520666f6044820152651c8818d85b1b60d21b6064820152608401610618565b843b614e145760405162461bcd60e51b815260206004820152601d60248201527f416464726573733a2063616c6c20746f206e6f6e2d636f6e74726163740000006044820152606401610618565b600080866001600160a01b03168587604051614e3091906157a2565b60006040518083038185875af1925050503d8060008114614e6d576040519150601f19603f3d011682016040523d82523d6000602084013e614e72565b606091505b5091509150614a0b828286614ea4565b600080614e8f8585614edd565b9050614e9b8184614ee9565b95945050505050565b60608315614eb3575081614a28565b825115614ec35782518084602001fd5b8160405162461bcd60e51b815260040161061891906158a6565b60006133fe8284615d8b565b60006133fe8284615c7b565b828054828255906000526020600020908101928215614f48579160200282015b82811115614f485781546001600160a01b0319166001600160a01b03843516178255602090920191600190910190614f15565b50614f54929150614f58565b5090565b5b80821115614f545760008155600101614f59565b8035614f7881615ebd565b919050565b60008083601f840112614f8f57600080fd5b50813567ffffffffffffffff811115614fa757600080fd5b6020830191508360208260051b8501011115614fc257600080fd5b9250929050565b600082601f830112614fda57600080fd5b81516020614fef614fea83615c3f565b615c0e565b80838252828201915082860187848660051b890101111561500f57600080fd5b60005b8581101561502e57815184529284019290840190600101615012565b5090979650505050505050565b80516001600160701b0381168114614f7857600080fd5b60006020828403121561506457600080fd5b8135614a2881615ebd565b60006020828403121561508157600080fd5b8151614a2881615ebd565b6000806040838503121561509f57600080fd5b82356150aa81615ebd565b915060208301356150ba81615ebd565b809150509250929050565b600080600080600080600080610100898b0312156150e257600080fd5b88356150ed81615ebd565b975060208901356150fd81615ebd565b9650604089013561510d81615ebd565b9550606089013561511d81615ebd565b94506080890135935060a089013561513481615ebd565b925060c089013561514481615ebd565b915060e089013561515481615ebd565b809150509295985092959890939650565b60008060008060008060008060a0898b03121561518157600080fd5b883561518c81615ebd565b9750602089013561519c81615ebd565b9650604089013567ffffffffffffffff808211156151b957600080fd5b6151c58c838d01614f7d565b909850965060608b01359150808211156151de57600080fd5b6151ea8c838d01614f7d565b909650945060808b013591508082111561520357600080fd5b506152108b828c01614f7d565b999c989b5096995094979396929594505050565b60008060008060008060008060008060e08b8d03121561524357600080fd5b8a3561524e81615ebd565b995060208b013561525e81615ebd565b985060408b013567ffffffffffffffff8082111561527b57600080fd5b6152878e838f01614f7d565b909a50985060608d01359150808211156152a057600080fd5b6152ac8e838f01614f7d565b909850965060808d01359150808211156152c557600080fd5b506152d28d828e01614f7d565b90955093506152e5905060a08c01614f6d565b91506152f360c08c01614f6d565b90509295989b9194979a5092959850565b60008060006060848603121561531957600080fd5b833561532481615ebd565b9250602084013561533481615ebd565b929592945050506040919091013590565b6000806040838503121561535857600080fd5b825161536381615ebd565b6020840151909250600381106150ba57600080fd5b6000806040838503121561538b57600080fd5b823561539681615ebd565b946020939093013593505050565b600080602083850312156153b757600080fd5b823567ffffffffffffffff8111156153ce57600080fd5b6153da85828601614f7d565b90969095509350505050565b6000806000606084860312156153fb57600080fd5b835167ffffffffffffffff8082111561541357600080fd5b818601915086601f83011261542757600080fd5b81516020615437614fea83615c3f565b8083825282820191508286018b848660051b890101111561545757600080fd5b600096505b8487101561548357805161546f81615ebd565b83526001969096019591830191830161545c565b509189015191975090935050508082111561549d57600080fd5b506154aa86828701614fc9565b925050604084015190509250925092565b6000602082840312156154cd57600080fd5b815167ffffffffffffffff8111156154e457600080fd5b6154f084828501614fc9565b949350505050565b60006020828403121561550a57600080fd5b81518015158114614a2857600080fd5b60008060006060848603121561552f57600080fd5b6155388461503b565b92506155466020850161503b565b9150604084015163ffffffff8116811461555f57600080fd5b809150509250925092565b60006020828403121561557c57600080fd5b5035919050565b60006020828403121561559557600080fd5b5051919050565b600080604083850312156155af57600080fd5b505080516020909101519092909150565b6000806000606084860312156155d557600080fd5b8351925060208401519150604084015190509250925092565b60006020828403121561560057600080fd5b815160ff81168114614a2857600080fd5b600081518084526020808501945080840160005b8381101561564a5781516001600160a01b031687529582019590820190600101615625565b509495945050505050565b600081518084526020808501945080840160005b8381101561564a57815180516001600160a01b03908116895284820151168489015260409081015115159088015260609096019590820190600101615669565b600081518084526156c1816020860160208601615de4565b601f01601f19169290920160200192915050565b600281106156f357634e487b7160e01b600052602160045260246000fd5b9052565b60006101206157078484516156d5565b6020838101516001600160a01b03169085015260408084015190615735908601826001600160a01b03169052565b50606083015160608501526080830151608085015260a083015160a085015260c083015161576e60c08601826001600160a01b03169052565b5060e083015161578960e08601826001600160a01b03169052565b50610100808401518282870152613c8c838701826156a9565b600082516157b4818460208701615de4565b9190910192915050565b6001600160a01b0383168152604060208201819052600090614a2590830184615611565b6001600160a01b03929092168252602082015260400190565b6020815260006133fe6020830184615611565b6000604082016040835280865480835260608501915087600052602092508260002060005b828110156158585781546001600160a01b031684529284019260019182019101615833565b505050838103828501528481528590820160005b8681101561589a57823561587f81615ebd565b6001600160a01b03168252918301919083019060010161586c565b50979650505050505050565b6020815260006133fe60208301846156a9565b6040815260006158cc60408301856156a9565b905060018060a01b03831660208301529392505050565b6060815260006158f660608301866156a9565b6001600160a01b0394851660208401529290931660409091015292915050565b60608152600061592960608301866156a9565b6001600160a01b039490941660208301525060400152919050565b60408152600061595760408301856156a9565b90508260208301529392505050565b60208082526017908201527f43616c6c6572206973206e6f7420746865205661756c74000000000000000000604082015260600190565b6020808252601a908201527f43616c6c6572206973206e6f742074686520476f7665726e6f72000000000000604082015260600190565b6020808252602e908201527f496e697469616c697a61626c653a20636f6e747261637420697320616c72656160408201526d191e481a5b9a5d1a585b1a5e995960921b606082015260800190565b6020808252601490820152732a37b5b2b7103737ba1039bab83837b93a32b21760611b604082015260600190565b6020808252600e908201526d1499595b9d1c985b9d0818d85b1b60921b604082015260600190565b60e08152845160e082015260006020860151615a986101008401826156d5565b5060408601516001600160a01b03908116610120840152606087015116610140830152608086015161016083015260a086015160c0610180840152615ae16101a08401826156a9565b915050615b21602083018680516001600160a01b039081168352602080830151151590840152604080830151909116908301526060908101511515910152565b60a082019390935260c0015292915050565b608081526000615b4660808301876156f7565b82810360208481019190915286518083528782019282019060005b81811015615b7d57845183529383019391830191600101615b61565b505060408501969096525050506060015292915050565b606081526000615ba760608301866156f7565b60208301949094525060400152919050565b828152604060208201526000614a256040830184615655565b85815284602082015260a060408201526000615bf160a0830186615655565b6001600160a01b0394909416606083015250608001529392505050565b604051601f8201601f1916810167ffffffffffffffff81118282101715615c3757615c37615ea7565b604052919050565b600067ffffffffffffffff821115615c5957615c59615ea7565b5060051b60200190565b60008219821115615c7657615c76615e4f565b500190565b600082615c9857634e487b7160e01b600052601260045260246000fd5b500490565b600181815b80851115615cd8578160001904821115615cbe57615cbe615e4f565b80851615615ccb57918102915b93841c9390800290615ca2565b509250929050565b60006133fe60ff841683600082615cf957506001613401565b81615d0657506000613401565b8160018114615d1c5760028114615d2657615d42565b6001915050613401565b60ff841115615d3757615d37615e4f565b50506001821b613401565b5060208310610133831016604e8410600b8410161715615d65575081810a613401565b615d6f8383615c9d565b8060001904821115615d8357615d83615e4f565b029392505050565b6000816000190483118215151615615da557615da5615e4f565b500290565b600082821015615dbc57615dbc615e4f565b500390565b600060ff821660ff841680821015615ddb57615ddb615e4f565b90039392505050565b60005b83811015615dff578181015183820152602001615de7565b83811115615e0e576000848401525b50505050565b6000600019821415615e2857615e28615e4f565b5060010190565b600060ff821660ff811415615e4657615e46615e4f565b60010192915050565b634e487b7160e01b600052601160045260246000fd5b634e487b7160e01b600052602160045260246000fd5b634e487b7160e01b600052603160045260246000fd5b634e487b7160e01b600052603260045260246000fd5b634e487b7160e01b600052604160045260246000fd5b6001600160a01b0381168114612dac57600080fdfe48a06827bfe8bfc0a59fe65d0fa78f553938265ed1f971326fc09947d19a593c83f34c88ec39d54d1e423bd8a181ebc59ede5dcc9996c2df334668b4f89fdd735f776974686472617746726f6d447973746f706961416e645374616b65546f50656e726f73652063616c6c6564a26469706673582212200cf1f020c6034a963eb765e4383c9711e11c4c46992f7dcb0e7436d4c2e504c064736f6c6343000806003383f34c88ec39d54d1e423bd8a181ebc59ede5dcc9996c2df334668b4f89fdd73",
  "devdoc": {
    "kind": "dev",
    "methods": {
      "checkBalance()": {
        "details": "Get the total primary stable value held in the platform.      This includes any interest that was generated since depositing.",
        "returns": {
          "balance": "   Total value of the asset in the platform"
        }
      },
      "claimGovernance()": {
        "details": "Claim Governance of the contract to a new account (`newGovernor`). Can only be called by the new Governor."
      },
      "collectRewardTokens()": {
        "details": "Collect accumulated reward token and send to Vault."
      },
      "deposit(address,uint256)": {
        "details": "Deposit an amount of asset into the platform",
        "params": {
          "_amount": "Units of asset to deposit",
          "_asset": "Address for the asset"
        }
      },
      "depositAll()": {
        "details": "Deposit balance of all supported assets into the platform"
      },
      "getRewardTokenAddresses()": {
        "details": "Get the reward token addresses.",
        "returns": {
          "_0": "address[] the reward token addresses."
        }
      },
      "governor()": {
        "details": "Returns the address of the current Governor."
      },
      "initialize(address,address,address[],address[],address[])": {
        "details": "Internal initialize function, to set up initial internal state",
        "params": {
          "_assets": "Addresses of initial supported assets",
          "_pTokens": "Platform Token corresponding addresses",
          "_platformAddress": "Generic platform address",
          "_rewardTokenAddresses": "Address of reward token for platform",
          "_vaultAddress": "Address of the Vault"
        }
      },
      "isGovernor()": {
        "details": "Returns true if the caller is the current Governor."
      },
      "removePToken(uint256)": {
        "details": "Remove a supported asset by passing its index.      This method can only be called by the system Governor",
        "params": {
          "_assetIndex": "Index of the asset to be removed"
        }
      },
      "safeApproveAllTokens()": {
        "details": "Approve the spending of all assets by their corresponding cToken,      if for some reason is it necessary."
      },
      "setHarvesterAddress(address)": {
        "details": "Set the reward token addresses.",
        "params": {
          "_harvesterAddress": "Address of the harvester"
        }
      },
      "setPTokenAddress(address,address)": {
        "details": "Provide support for asset by passing its pToken address.      This method can only be called by the system Governor",
        "params": {
          "_asset": "Address for the asset",
          "_pToken": "Address for the corresponding platform token"
        }
      },
      "setRewardTokenAddresses(address[])": {
        "details": "Set the reward token addresses.",
        "params": {
          "_rewardTokenAddresses": "Address array of the reward token"
        }
      },
      "supportsAsset(address)": {
        "details": "Retuns bool indicating whether asset is supported by strategy",
        "params": {
          "_asset": "Address of the asset"
        }
      },
      "transferGovernance(address)": {
        "details": "Transfers Governance of the contract to a new account (`newGovernor`). Can only be called by the current Governor. Must be claimed for this to complete",
        "params": {
          "_newGovernor": "Address of the new Governor"
        }
      },
      "transferToken(address,uint256)": {
        "details": "Transfer token to governor. Intended for recovering tokens stuck in      strategy contracts, i.e. mistaken sends.",
        "params": {
          "_amount": "Amount of the asset to transfer",
          "_asset": "Address for the asset"
        }
      },
      "withdrawAll()": {
        "details": "Withdraw all assets from strategy sending assets to Vault."
      }
    },
    "version": 1
  },
  "userdoc": {
    "kind": "user",
    "methods": {
      "initialize(address,address,address[],address[],address[],address,address)": {
        "notice": "Initializer for setting up strategy internal state. This overrides the InitializableAbstractStrategy initializer as Dystopia strategies don't fit well within that abstraction."
      }
    },
    "version": 1
  },
  "storageLayout": {
    "storage": [
      {
        "astId": 30623,
        "contract": "contracts/strategies/DystopiaStrategy.sol:DystopiaStrategy",
        "label": "initialized",
        "offset": 0,
        "slot": "0",
        "type": "t_bool"
      },
      {
        "astId": 30626,
        "contract": "contracts/strategies/DystopiaStrategy.sol:DystopiaStrategy",
        "label": "initializing",
        "offset": 1,
        "slot": "0",
        "type": "t_bool"
      },
      {
        "astId": 30666,
        "contract": "contracts/strategies/DystopiaStrategy.sol:DystopiaStrategy",
        "label": "______gap",
        "offset": 0,
        "slot": "1",
        "type": "t_array(t_uint256)50_storage"
      },
      {
        "astId": 30750,
        "contract": "contracts/strategies/DystopiaStrategy.sol:DystopiaStrategy",
        "label": "platformAddress",
        "offset": 0,
        "slot": "51",
        "type": "t_address"
      },
      {
        "astId": 30752,
        "contract": "contracts/strategies/DystopiaStrategy.sol:DystopiaStrategy",
        "label": "vaultAddress",
        "offset": 0,
        "slot": "52",
        "type": "t_address"
      },
      {
        "astId": 30756,
        "contract": "contracts/strategies/DystopiaStrategy.sol:DystopiaStrategy",
        "label": "assetToPToken",
        "offset": 0,
        "slot": "53",
        "type": "t_mapping(t_address,t_address)"
      },
      {
        "astId": 30759,
        "contract": "contracts/strategies/DystopiaStrategy.sol:DystopiaStrategy",
        "label": "assetsMapped",
        "offset": 0,
        "slot": "54",
        "type": "t_array(t_address)dyn_storage"
      },
      {
        "astId": 30761,
        "contract": "contracts/strategies/DystopiaStrategy.sol:DystopiaStrategy",
        "label": "_deprecated_rewardTokenAddress",
        "offset": 0,
        "slot": "55",
        "type": "t_address"
      },
      {
        "astId": 30763,
        "contract": "contracts/strategies/DystopiaStrategy.sol:DystopiaStrategy",
        "label": "_deprecated_rewardLiquidationThreshold",
        "offset": 0,
        "slot": "56",
        "type": "t_uint256"
      },
      {
        "astId": 30765,
        "contract": "contracts/strategies/DystopiaStrategy.sol:DystopiaStrategy",
        "label": "harvesterAddress",
        "offset": 0,
        "slot": "57",
        "type": "t_address"
      },
      {
        "astId": 30768,
        "contract": "contracts/strategies/DystopiaStrategy.sol:DystopiaStrategy",
        "label": "rewardTokenAddresses",
        "offset": 0,
        "slot": "58",
        "type": "t_array(t_address)dyn_storage"
      },
      {
        "astId": 30772,
        "contract": "contracts/strategies/DystopiaStrategy.sol:DystopiaStrategy",
        "label": "_reserved",
        "offset": 0,
        "slot": "59",
        "type": "t_array(t_int256)98_storage"
      },
      {
        "astId": 21293,
        "contract": "contracts/strategies/DystopiaStrategy.sol:DystopiaStrategy",
        "label": "dystRouter",
        "offset": 0,
        "slot": "157",
        "type": "t_contract(IDystopiaRouter)10053"
      },
      {
        "astId": 21641,
        "contract": "contracts/strategies/DystopiaStrategy.sol:DystopiaStrategy",
        "label": "__gap",
        "offset": 0,
        "slot": "158",
        "type": "t_array(t_uint256)49_storage"
      },
      {
        "astId": 7210,
        "contract": "contracts/strategies/DystopiaStrategy.sol:DystopiaStrategy",
        "label": "__gap",
        "offset": 0,
        "slot": "207",
        "type": "t_array(t_uint256)49_storage"
      },
      {
        "astId": 21689,
        "contract": "contracts/strategies/DystopiaStrategy.sol:DystopiaStrategy",
        "label": "assetToDenominator",
        "offset": 0,
        "slot": "256",
        "type": "t_mapping(t_address,t_uint256)"
      },
      {
        "astId": 21692,
        "contract": "contracts/strategies/DystopiaStrategy.sol:DystopiaStrategy",
        "label": "gauge",
        "offset": 0,
        "slot": "257",
        "type": "t_contract(IDystopiaLP)9937"
      },
      {
        "astId": 21695,
        "contract": "contracts/strategies/DystopiaStrategy.sol:DystopiaStrategy",
        "label": "dystPair",
        "offset": 0,
        "slot": "258",
        "type": "t_contract(IDystopiaLP)9937"
      },
      {
        "astId": 21697,
        "contract": "contracts/strategies/DystopiaStrategy.sol:DystopiaStrategy",
        "label": "dystRouter",
        "offset": 0,
        "slot": "259",
        "type": "t_address"
      },
      {
        "astId": 21699,
        "contract": "contracts/strategies/DystopiaStrategy.sol:DystopiaStrategy",
        "label": "poolId",
        "offset": 0,
        "slot": "260",
        "type": "t_bytes32"
      },
      {
        "astId": 21702,
        "contract": "contracts/strategies/DystopiaStrategy.sol:DystopiaStrategy",
        "label": "primaryStable",
        "offset": 0,
        "slot": "261",
        "type": "t_contract(IERC20)623"
      },
      {
        "astId": 21705,
        "contract": "contracts/strategies/DystopiaStrategy.sol:DystopiaStrategy",
        "label": "middleToken",
        "offset": 0,
        "slot": "262",
        "type": "t_contract(IERC20)623"
      },
      {
        "astId": 21708,
        "contract": "contracts/strategies/DystopiaStrategy.sol:DystopiaStrategy",
        "label": "token0",
        "offset": 0,
        "slot": "263",
        "type": "t_contract(IERC20)623"
      },
      {
        "astId": 21711,
        "contract": "contracts/strategies/DystopiaStrategy.sol:DystopiaStrategy",
        "label": "token1",
        "offset": 0,
        "slot": "264",
        "type": "t_contract(IERC20)623"
      },
      {
        "astId": 21714,
        "contract": "contracts/strategies/DystopiaStrategy.sol:DystopiaStrategy",
        "label": "dystToken",
        "offset": 0,
        "slot": "265",
        "type": "t_contract(IERC20)623"
      },
      {
        "astId": 21717,
        "contract": "contracts/strategies/DystopiaStrategy.sol:DystopiaStrategy",
        "label": "penToken",
        "offset": 0,
        "slot": "266",
        "type": "t_contract(IERC20)623"
      },
      {
        "astId": 21720,
        "contract": "contracts/strategies/DystopiaStrategy.sol:DystopiaStrategy",
        "label": "userProxy",
        "offset": 0,
        "slot": "267",
        "type": "t_contract(IUserProxy)2106"
      },
      {
        "astId": 21723,
        "contract": "contracts/strategies/DystopiaStrategy.sol:DystopiaStrategy",
        "label": "penLens",
        "offset": 0,
        "slot": "268",
        "type": "t_contract(IPenLens)1805"
      },
      {
        "astId": 21725,
        "contract": "contracts/strategies/DystopiaStrategy.sol:DystopiaStrategy",
        "label": "balancerVault",
        "offset": 0,
        "slot": "269",
        "type": "t_address"
      }
    ],
    "types": {
      "t_address": {
        "encoding": "inplace",
        "label": "address",
        "numberOfBytes": "20"
      },
      "t_array(t_address)dyn_storage": {
        "base": "t_address",
        "encoding": "dynamic_array",
        "label": "address[]",
        "numberOfBytes": "32"
      },
      "t_array(t_int256)98_storage": {
        "base": "t_int256",
        "encoding": "inplace",
        "label": "int256[98]",
        "numberOfBytes": "3136"
      },
      "t_array(t_uint256)49_storage": {
        "base": "t_uint256",
        "encoding": "inplace",
        "label": "uint256[49]",
        "numberOfBytes": "1568"
      },
      "t_array(t_uint256)50_storage": {
        "base": "t_uint256",
        "encoding": "inplace",
        "label": "uint256[50]",
        "numberOfBytes": "1600"
      },
      "t_bool": {
        "encoding": "inplace",
        "label": "bool",
        "numberOfBytes": "1"
      },
      "t_bytes32": {
        "encoding": "inplace",
        "label": "bytes32",
        "numberOfBytes": "32"
      },
      "t_contract(IDystopiaLP)9937": {
        "encoding": "inplace",
        "label": "contract IDystopiaLP",
        "numberOfBytes": "20"
      },
      "t_contract(IDystopiaRouter)10053": {
        "encoding": "inplace",
        "label": "contract IDystopiaRouter",
        "numberOfBytes": "20"
      },
      "t_contract(IERC20)623": {
        "encoding": "inplace",
        "label": "contract IERC20",
        "numberOfBytes": "20"
      },
      "t_contract(IPenLens)1805": {
        "encoding": "inplace",
        "label": "contract IPenLens",
        "numberOfBytes": "20"
      },
      "t_contract(IUserProxy)2106": {
        "encoding": "inplace",
        "label": "contract IUserProxy",
        "numberOfBytes": "20"
      },
      "t_int256": {
        "encoding": "inplace",
        "label": "int256",
        "numberOfBytes": "32"
      },
      "t_mapping(t_address,t_address)": {
        "encoding": "mapping",
        "key": "t_address",
        "label": "mapping(address => address)",
        "numberOfBytes": "32",
        "value": "t_address"
      },
      "t_mapping(t_address,t_uint256)": {
        "encoding": "mapping",
        "key": "t_address",
        "label": "mapping(address => uint256)",
        "numberOfBytes": "32",
        "value": "t_uint256"
      },
      "t_uint256": {
        "encoding": "inplace",
        "label": "uint256",
        "numberOfBytes": "32"
      }
    }
  }
}