{
  "address": "0x9e8B3eC9DB96D9CD2de0fAF395a983E8b23fd17F",
  "abi": [
    {
      "anonymous": false,
      "inputs": [
        {
          "indexed": true,
          "internalType": "address",
          "name": "_asset",
          "type": "address"
        },
        {
          "indexed": false,
          "internalType": "address",
          "name": "_pToken",
          "type": "address"
        },
        {
          "indexed": false,
          "internalType": "uint256",
          "name": "_amount",
          "type": "uint256"
        }
      ],
      "name": "Deposit",
      "type": "event"
    },
    {
      "anonymous": false,
      "inputs": [
        {
          "indexed": true,
          "internalType": "address",
          "name": "previousGovernor",
          "type": "address"
        },
        {
          "indexed": true,
          "internalType": "address",
          "name": "newGovernor",
          "type": "address"
        }
      ],
      "name": "GovernorshipTransferred",
      "type": "event"
    },
    {
      "anonymous": false,
      "inputs": [
        {
          "indexed": false,
          "internalType": "address",
          "name": "_oldHarvesterAddress",
          "type": "address"
        },
        {
          "indexed": false,
          "internalType": "address",
          "name": "_newHarvesterAddress",
          "type": "address"
        }
      ],
      "name": "HarvesterAddressesUpdated",
      "type": "event"
    },
    {
      "anonymous": false,
      "inputs": [
        {
          "indexed": true,
          "internalType": "address",
          "name": "_asset",
          "type": "address"
        },
        {
          "indexed": false,
          "internalType": "address",
          "name": "_pToken",
          "type": "address"
        }
      ],
      "name": "PTokenAdded",
      "type": "event"
    },
    {
      "anonymous": false,
      "inputs": [
        {
          "indexed": true,
          "internalType": "address",
          "name": "_asset",
          "type": "address"
        },
        {
          "indexed": false,
          "internalType": "address",
          "name": "_pToken",
          "type": "address"
        }
      ],
      "name": "PTokenRemoved",
      "type": "event"
    },
    {
      "anonymous": false,
      "inputs": [
        {
          "indexed": true,
          "internalType": "address",
          "name": "previousGovernor",
          "type": "address"
        },
        {
          "indexed": true,
          "internalType": "address",
          "name": "newGovernor",
          "type": "address"
        }
      ],
      "name": "PendingGovernorshipTransfer",
      "type": "event"
    },
    {
      "anonymous": false,
      "inputs": [
        {
          "indexed": false,
          "internalType": "address[]",
          "name": "_oldAddresses",
          "type": "address[]"
        },
        {
          "indexed": false,
          "internalType": "address[]",
          "name": "_newAddresses",
          "type": "address[]"
        }
      ],
      "name": "RewardTokenAddressesUpdated",
      "type": "event"
    },
    {
      "anonymous": false,
      "inputs": [
        {
          "indexed": false,
          "internalType": "address",
          "name": "recipient",
          "type": "address"
        },
        {
          "indexed": false,
          "internalType": "address",
          "name": "rewardToken",
          "type": "address"
        },
        {
          "indexed": false,
          "internalType": "uint256",
          "name": "amount",
          "type": "uint256"
        }
      ],
      "name": "RewardTokenCollected",
      "type": "event"
    },
    {
      "anonymous": false,
      "inputs": [
        {
          "indexed": false,
          "internalType": "string",
          "name": "_message",
          "type": "string"
        },
        {
          "indexed": false,
          "internalType": "address",
          "name": "_asset",
          "type": "address"
        },
        {
          "indexed": false,
          "internalType": "uint256",
          "name": "_number",
          "type": "uint256"
        }
      ],
      "name": "TransferLog",
      "type": "event"
    },
    {
      "anonymous": false,
      "inputs": [
        {
          "indexed": true,
          "internalType": "address",
          "name": "_asset",
          "type": "address"
        },
        {
          "indexed": false,
          "internalType": "address",
          "name": "_pToken",
          "type": "address"
        },
        {
          "indexed": false,
          "internalType": "uint256",
          "name": "_amount",
          "type": "uint256"
        }
      ],
      "name": "Withdrawal",
      "type": "event"
    },
    {
      "inputs": [],
      "name": "BASIS_POINTS_FOR_SLIPPAGE",
      "outputs": [
        {
          "internalType": "uint256",
          "name": "",
          "type": "uint256"
        }
      ],
      "stateMutability": "view",
      "type": "function"
    },
    {
      "inputs": [],
      "name": "MAX_SLIPPAGE",
      "outputs": [
        {
          "internalType": "uint256",
          "name": "",
          "type": "uint256"
        }
      ],
      "stateMutability": "view",
      "type": "function"
    },
    {
      "inputs": [],
      "name": "MAX_VALUE",
      "outputs": [
        {
          "internalType": "int256",
          "name": "",
          "type": "int256"
        }
      ],
      "stateMutability": "view",
      "type": "function"
    },
    {
      "inputs": [],
      "name": "_deprecated_rewardLiquidationThreshold",
      "outputs": [
        {
          "internalType": "uint256",
          "name": "",
          "type": "uint256"
        }
      ],
      "stateMutability": "view",
      "type": "function"
    },
    {
      "inputs": [],
      "name": "_deprecated_rewardTokenAddress",
      "outputs": [
        {
          "internalType": "address",
          "name": "",
          "type": "address"
        }
      ],
      "stateMutability": "view",
      "type": "function"
    },
    {
      "inputs": [
        {
          "internalType": "address",
          "name": "",
          "type": "address"
        }
      ],
      "name": "assetToChainlink",
      "outputs": [
        {
          "internalType": "address",
          "name": "",
          "type": "address"
        }
      ],
      "stateMutability": "view",
      "type": "function"
    },
    {
      "inputs": [
        {
          "internalType": "address",
          "name": "",
          "type": "address"
        }
      ],
      "name": "assetToDenominator",
      "outputs": [
        {
          "internalType": "uint256",
          "name": "",
          "type": "uint256"
        }
      ],
      "stateMutability": "view",
      "type": "function"
    },
    {
      "inputs": [
        {
          "internalType": "address",
          "name": "",
          "type": "address"
        }
      ],
      "name": "assetToPToken",
      "outputs": [
        {
          "internalType": "address",
          "name": "",
          "type": "address"
        }
      ],
      "stateMutability": "view",
      "type": "function"
    },
    {
      "inputs": [],
      "name": "balancerVault",
      "outputs": [
        {
          "internalType": "address",
          "name": "",
          "type": "address"
        }
      ],
      "stateMutability": "view",
      "type": "function"
    },
    {
      "inputs": [],
      "name": "checkBalance",
      "outputs": [
        {
          "internalType": "uint256",
          "name": "",
          "type": "uint256"
        }
      ],
      "stateMutability": "view",
      "type": "function"
    },
    {
      "inputs": [],
      "name": "claimGovernance",
      "outputs": [],
      "stateMutability": "nonpayable",
      "type": "function"
    },
    {
      "inputs": [],
      "name": "collectRewardTokens",
      "outputs": [],
      "stateMutability": "nonpayable",
      "type": "function"
    },
    {
      "inputs": [
        {
          "internalType": "address",
          "name": "_asset",
          "type": "address"
        },
        {
          "internalType": "uint256",
          "name": "_amount",
          "type": "uint256"
        }
      ],
      "name": "deposit",
      "outputs": [],
      "stateMutability": "nonpayable",
      "type": "function"
    },
    {
      "inputs": [],
      "name": "depositAll",
      "outputs": [],
      "stateMutability": "nonpayable",
      "type": "function"
    },
    {
      "inputs": [],
      "name": "getRewardTokenAddresses",
      "outputs": [
        {
          "internalType": "address[]",
          "name": "",
          "type": "address[]"
        }
      ],
      "stateMutability": "view",
      "type": "function"
    },
    {
      "inputs": [],
      "name": "governor",
      "outputs": [
        {
          "internalType": "address",
          "name": "",
          "type": "address"
        }
      ],
      "stateMutability": "view",
      "type": "function"
    },
    {
      "inputs": [],
      "name": "harvesterAddress",
      "outputs": [
        {
          "internalType": "address",
          "name": "",
          "type": "address"
        }
      ],
      "stateMutability": "view",
      "type": "function"
    },
    {
      "inputs": [
        {
          "internalType": "address",
          "name": "_platformAddress",
          "type": "address"
        },
        {
          "internalType": "address",
          "name": "_vaultAddress",
          "type": "address"
        },
        {
          "internalType": "address[]",
          "name": "_rewardTokenAddresses",
          "type": "address[]"
        },
        {
          "internalType": "address[]",
          "name": "_assets",
          "type": "address[]"
        },
        {
          "internalType": "address[]",
          "name": "_pTokens",
          "type": "address[]"
        }
      ],
      "name": "initialize",
      "outputs": [],
      "stateMutability": "nonpayable",
      "type": "function"
    },
    {
      "inputs": [
        {
          "internalType": "address",
          "name": "_platformAddress",
          "type": "address"
        },
        {
          "internalType": "address",
          "name": "_vaultAddress",
          "type": "address"
        },
        {
          "internalType": "address[]",
          "name": "_rewardTokenAddresses",
          "type": "address[]"
        },
        {
          "internalType": "address[]",
          "name": "_assets",
          "type": "address[]"
        },
        {
          "internalType": "address[]",
          "name": "_pTokens",
          "type": "address[]"
        },
        {
          "internalType": "address",
          "name": "_router",
          "type": "address"
        },
        {
          "internalType": "address",
          "name": "_primaryStable",
          "type": "address"
        },
        {
          "internalType": "address[]",
          "name": "_chainLinks",
          "type": "address[]"
        }
      ],
      "name": "initialize",
      "outputs": [],
      "stateMutability": "nonpayable",
      "type": "function"
    },
    {
      "inputs": [],
      "name": "isGovernor",
      "outputs": [
        {
          "internalType": "bool",
          "name": "",
          "type": "bool"
        }
      ],
      "stateMutability": "view",
      "type": "function"
    },
    {
      "inputs": [],
      "name": "meshSwapPair",
      "outputs": [
        {
          "internalType": "contract IMeshSwapLP",
          "name": "",
          "type": "address"
        }
      ],
      "stateMutability": "view",
      "type": "function"
    },
    {
      "inputs": [],
      "name": "meshToken",
      "outputs": [
        {
          "internalType": "contract IERC20",
          "name": "",
          "type": "address"
        }
      ],
      "stateMutability": "view",
      "type": "function"
    },
    {
      "inputs": [],
      "name": "netAssetValue",
      "outputs": [
        {
          "internalType": "uint256",
          "name": "",
          "type": "uint256"
        }
      ],
      "stateMutability": "view",
      "type": "function"
    },
    {
      "inputs": [],
      "name": "platformAddress",
      "outputs": [
        {
          "internalType": "address",
          "name": "",
          "type": "address"
        }
      ],
      "stateMutability": "view",
      "type": "function"
    },
    {
      "inputs": [],
      "name": "poolId",
      "outputs": [
        {
          "internalType": "bytes32",
          "name": "",
          "type": "bytes32"
        }
      ],
      "stateMutability": "view",
      "type": "function"
    },
    {
      "inputs": [],
      "name": "primaryStable",
      "outputs": [
        {
          "internalType": "contract IERC20",
          "name": "",
          "type": "address"
        }
      ],
      "stateMutability": "view",
      "type": "function"
    },
    {
      "inputs": [
        {
          "internalType": "uint256",
          "name": "_assetIndex",
          "type": "uint256"
        }
      ],
      "name": "removePToken",
      "outputs": [],
      "stateMutability": "nonpayable",
      "type": "function"
    },
    {
      "inputs": [
        {
          "internalType": "uint256",
          "name": "",
          "type": "uint256"
        }
      ],
      "name": "rewardTokenAddresses",
      "outputs": [
        {
          "internalType": "address",
          "name": "",
          "type": "address"
        }
      ],
      "stateMutability": "view",
      "type": "function"
    },
    {
      "inputs": [],
      "name": "safeApproveAllTokens",
      "outputs": [],
      "stateMutability": "nonpayable",
      "type": "function"
    },
    {
      "inputs": [
        {
          "internalType": "address",
          "name": "_balancerVault",
          "type": "address"
        },
        {
          "internalType": "bytes32",
          "name": "_balancerPoolIdUsdcTusdDaiUsdt",
          "type": "bytes32"
        }
      ],
      "name": "setBalancer",
      "outputs": [],
      "stateMutability": "nonpayable",
      "type": "function"
    },
    {
      "inputs": [
        {
          "internalType": "address",
          "name": "_harvesterAddress",
          "type": "address"
        }
      ],
      "name": "setHarvesterAddress",
      "outputs": [],
      "stateMutability": "nonpayable",
      "type": "function"
    },
    {
      "inputs": [
        {
          "internalType": "address",
          "name": "_asset",
          "type": "address"
        },
        {
          "internalType": "address",
          "name": "_pToken",
          "type": "address"
        }
      ],
      "name": "setPTokenAddress",
      "outputs": [],
      "stateMutability": "nonpayable",
      "type": "function"
    },
    {
      "inputs": [
        {
          "internalType": "address[]",
          "name": "_rewardTokenAddresses",
          "type": "address[]"
        }
      ],
      "name": "setRewardTokenAddresses",
      "outputs": [],
      "stateMutability": "nonpayable",
      "type": "function"
    },
    {
      "inputs": [
        {
          "internalType": "address",
          "name": "_asset",
          "type": "address"
        }
      ],
      "name": "supportsAsset",
      "outputs": [
        {
          "internalType": "bool",
          "name": "",
          "type": "bool"
        }
      ],
      "stateMutability": "view",
      "type": "function"
    },
    {
      "inputs": [],
      "name": "token0",
      "outputs": [
        {
          "internalType": "contract IERC20",
          "name": "",
          "type": "address"
        }
      ],
      "stateMutability": "view",
      "type": "function"
    },
    {
      "inputs": [],
      "name": "token1",
      "outputs": [
        {
          "internalType": "contract IERC20",
          "name": "",
          "type": "address"
        }
      ],
      "stateMutability": "view",
      "type": "function"
    },
    {
      "inputs": [
        {
          "internalType": "address",
          "name": "_newGovernor",
          "type": "address"
        }
      ],
      "name": "transferGovernance",
      "outputs": [],
      "stateMutability": "nonpayable",
      "type": "function"
    },
    {
      "inputs": [
        {
          "internalType": "address",
          "name": "_asset",
          "type": "address"
        },
        {
          "internalType": "uint256",
          "name": "_amount",
          "type": "uint256"
        }
      ],
      "name": "transferToken",
      "outputs": [],
      "stateMutability": "nonpayable",
      "type": "function"
    },
    {
      "inputs": [],
      "name": "vaultAddress",
      "outputs": [
        {
          "internalType": "address",
          "name": "",
          "type": "address"
        }
      ],
      "stateMutability": "view",
      "type": "function"
    },
    {
      "inputs": [
        {
          "internalType": "address",
          "name": "_beneficiary",
          "type": "address"
        },
        {
          "internalType": "address",
          "name": "_asset",
          "type": "address"
        },
        {
          "internalType": "uint256",
          "name": "_amount",
          "type": "uint256"
        }
      ],
      "name": "withdraw",
      "outputs": [],
      "stateMutability": "nonpayable",
      "type": "function"
    },
    {
      "inputs": [],
      "name": "withdrawAll",
      "outputs": [],
      "stateMutability": "nonpayable",
      "type": "function"
    }
  ],
  "transactionHash": "0x8f546bd781d91e889c0bf91b39edd6a8eef23ff7a81398dc7ec07ac14a17be14",
  "args": [],
  "solcInputHash": "687ed9fa5cffd3a4c7a6373a1d9ad1d9",
  "bytecode": "0x60806040523480156200001157600080fd5b506200002a33600080516020620057af83398151915255565b600080516020620057af833981519152546040516001600160a01b03909116906000907fc7c0c772add429241571afb3805861fb3cfa2af374534088b76cdb4325a87e9a908290a361572d80620000826000396000f3fe608060405234801561001057600080fd5b50600436106102535760003560e01c80639688d2fc11610146578063d2f24893116100c3578063de5f626811610087578063de5f626814610516578063f664b3d91461051e578063f6ca71b014610526578063f78e4d811461053b578063f817bc631461054e578063f97595181461055757600080fd5b8063d2f24893146104b5578063d38bfff4146104c9578063d95ace5b146104dc578063d9caed12146104f0578063dbe55e561461050357600080fd5b8063ad1728cb1161010a578063ad1728cb146102e6578063c2e1e3f41461047e578063c71daccb14610491578063c7af335214610499578063d21220a7146104a157600080fd5b80639688d2fc1461040a57806396d538bb1461041d578063997781d614610430578063a3673b3814610443578063aa388af61461044b57600080fd5b80633e0dc34e116101d457806367c7066c1161019857806367c7066c146103b557806374a923f1146103c85780637b2d9b2c146103dc578063853828b6146103ef5780639136616a146103f757600080fd5b80633e0dc34e14610375578063430bf08a1461037f57806347e7ef24146103925780635a063f63146103a55780635d36b190146103ad57600080fd5b80630fc3b4c41161021b5780630fc3b4c4146102e85780631072cbea14610311578063158274a5146103245780632e65520114610338578063365e1f1b1461034b57600080fd5b8063063bde24146102585780630b7132cf1461027e5780630c340a241461029f5780630dfe1681146102bf5780630ed57b3a146102d3575b600080fd5b61026b6b033b2e3c9fd0803ce800000081565b6040519081526020015b60405180910390f35b61026b61028c36600461494e565b6101076020526000908152604090205481565b6102a7610565565b6040516001600160a01b039091168152602001610275565b610100546102a7906001600160a01b031681565b6102e66102e136600461496b565b610582565b005b6102a76102f636600461494e565b6035602052600090815260409020546001600160a01b031681565b6102e661031f366004614bc7565b6105bd565b610108546102a7906001600160a01b031681565b6037546102a7906001600160a01b031681565b6102a761035936600461494e565b610106602052600090815260409020546001600160a01b031681565b61026b6101055481565b6034546102a7906001600160a01b031681565b6102e66103a0366004614bc7565b6105fd565b6102e661069e565b6102e661073d565b6039546102a7906001600160a01b031681565b610104546102a7906001600160a01b031681565b6102a76103ea366004614dfd565b6107e3565b6102e661080d565b6102e6610405366004614dfd565b610ba0565b6102e66104183660046149a4565b610d6b565b6102e661042b366004614c26565b610e74565b6102e661043e366004614bc7565b610f9a565b61026b611089565b61046e61045936600461494e565b610102546001600160a01b0391821691161490565b6040519015158152602001610275565b6102e661048c36600461494e565b611095565b61026b611114565b61046e611120565b610101546102a7906001600160a01b031681565b610102546102a7906001600160a01b031681565b6102e66104d736600461494e565b611151565b610103546102a7906001600160a01b031681565b6102e66104fe366004614b86565b6111f5565b6033546102a7906001600160a01b031681565b6102e66115a9565b61026b600481565b61052e61168e565b6040516102759190614fe4565b6102e6610549366004614a63565b6116f0565b61026b60385481565b61026b662386f26fc1000081565b600061057d6000805160206156d88339815191525490565b905090565b61058a611120565b6105af5760405162461bcd60e51b81526004016105a690615186565b60405180910390fd5b6105b98282611c68565b5050565b6105c5611120565b6105e15760405162461bcd60e51b81526004016105a690615186565b6105b96105ec610565565b6001600160a01b0384169083611dc7565b6034546001600160a01b031633146106275760405162461bcd60e51b81526004016105a69061514f565b6000805160206156b8833981519152805460028114156106595760405162461bcd60e51b81526004016105a690615239565b60028255610102546001600160a01b0385811691161461068b5760405162461bcd60e51b81526004016105a69061520b565b6106958484611e19565b50600190555050565b6039546001600160a01b031633146106f85760405162461bcd60e51b815260206004820152601b60248201527f43616c6c6572206973206e6f742074686520486172766573746572000000000060448201526064016105a6565b6000805160206156b88339815191528054600281141561072a5760405162461bcd60e51b81526004016105a690615239565b60028255610736612176565b5060019055565b7f7eaf9a7750884803435dfabc67aa617a7d8fefb23d8d84b3c9722bd69e48c4bc546001600160a01b0316336001600160a01b0316146107d85760405162461bcd60e51b815260206004820152603060248201527f4f6e6c79207468652070656e64696e6720476f7665726e6f722063616e20636f60448201526f6d706c6574652074686520636c61696d60801b60648201526084016105a6565b6107e13361240a565b565b603a81815481106107f357600080fd5b6000918252602090912001546001600160a01b0316905081565b6034546001600160a01b031633148061083e5750610829610565565b6001600160a01b0316336001600160a01b0316145b6108965760405162461bcd60e51b815260206004820152602360248201527f43616c6c6572206973206e6f7420746865205661756c74206f7220476f7665726044820152623737b960e91b60648201526084016105a6565b6000805160206156b8833981519152805460028114156108c85760405162461bcd60e51b81526004016105a690615239565b6002825560008061010460009054906101000a90046001600160a01b03166001600160a01b0316630902f1ac6040518163ffffffff1660e01b815260040160606040518083038186803b15801561091e57600080fd5b505afa158015610932573d6000803e3d6000fd5b505050506040513d601f19601f820116820180604052508101906109569190614dad565b50610104546040516370a0823160e01b81523060048201526001600160701b0393841695509190921692506000916001600160a01b0316906370a082319060240160206040518083038186803b1580156109af57600080fd5b505afa1580156109c3573d6000803e3d6000fd5b505050506040513d601f19601f820116820180604052508101906109e79190614d94565b90508015610ae65761010454604080516318160ddd60e01b815290516000926001600160a01b0316916318160ddd916004808301926020929190829003018186803b158015610a3557600080fd5b505afa158015610a49573d6000803e3d6000fd5b505050506040513d601f19601f82011682018060405250810190610a6d9190614d94565b9050600081610a7c8487615574565b610a869190615464565b9050600082610a958587615574565b610a9f9190615464565b610100546101015461010454929350610ae0926001600160a01b0392831692918216911687610acf8760046124ce565b610ada8760046124ce565b306124fa565b50505050505b610aee61265e565b610102546040516370a0823160e01b81523060048201526000916001600160a01b0316906370a082319060240160206040518083038186803b158015610b3357600080fd5b505afa158015610b47573d6000803e3d6000fd5b505050506040513d601f19601f82011682018060405250810190610b6b9190614d94565b60345461010254919250610b8c916001600160a01b03908116911683611dc7565b610b94612176565b50505050600182555050565b610ba8611120565b610bc45760405162461bcd60e51b81526004016105a690615186565b6036548110610c055760405162461bcd60e51b815260206004820152600d60248201526c092dcecc2d8d2c840d2dcc8caf609b1b60448201526064016105a6565b600060368281548110610c1a57610c1a615676565b60009182526020808320909101546001600160a01b03908116808452603590925260409092205460365491935090911690610c5790600190615593565b831015610cd95760368054610c6e90600190615593565b81548110610c7e57610c7e615676565b600091825260209091200154603680546001600160a01b039092169185908110610caa57610caa615676565b9060005260206000200160006101000a8154816001600160a01b0302191690836001600160a01b031602179055505b6036805480610cea57610cea615660565b60008281526020808220600019908401810180546001600160a01b031990811690915593019093556001600160a01b038581168083526035855260409283902080549094169093559051908416815290917f16b7600acff27e39a8a96056b3d533045298de927507f5c1d97e4accde60488c910160405180910390a2505050565b610d73611120565b610d8f5760405162461bcd60e51b81526004016105a690615186565b600054610100900460ff1680610da8575060005460ff16155b610dc45760405162461bcd60e51b81526004016105a6906151bd565b600054610100900460ff16158015610de6576000805461ffff19166101011790555b610e578989898989898080602002602001604051908101604052809392919081815260200183836020028082843760009201919091525050604080516020808d0282810182019093528c82529093508c92508b91829185019084908082843760009201919091525061289d92505050565b8015610e69576000805461ff00191690555b505050505050505050565b610e7c611120565b610e985760405162461bcd60e51b81526004016105a690615186565b60005b81811015610f4c576000838383818110610eb757610eb7615676565b9050602002016020810190610ecc919061494e565b6001600160a01b03161415610f3a5760405162461bcd60e51b815260206004820152602e60248201527f43616e206e6f742073657420616e20656d70747920616464726573732061732060448201526d30903932bbb0b932103a37b5b2b760911b60648201526084016105a6565b80610f44816155f9565b915050610e9b565b507f04c0b9649497d316554306e53678d5f5f5dbc3a06f97dec13ff4cfe98b986bbc603a8383604051610f8193929190614ff7565b60405180910390a1610f95603a83836147f1565b505050565b610fa2611120565b610fbe5760405162461bcd60e51b81526004016105a690615186565b6001600160a01b0382166110145760405162461bcd60e51b815260206004820152601860248201527f5a65726f2061646472657373206e6f7420616c6c6f776564000000000000000060448201526064016105a6565b806110615760405162461bcd60e51b815260206004820152601960248201527f456d70747920706f6f6c206964206e6f7420616c6c6f7765640000000000000060448201526064016105a6565b61010880546001600160a01b0319166001600160a01b03939093169290921790915561010555565b600061057d6001612986565b61109d611120565b6110b95760405162461bcd60e51b81526004016105a690615186565b603980546001600160a01b0319166001600160a01b0383169081179091556040805182815260208101929092527fe48386b84419f4d36e0f96c10cc3510b6fb1a33795620c5098b22472bbe90796910160405180910390a150565b600061057d6000612986565b60006111386000805160206156d88339815191525490565b6001600160a01b0316336001600160a01b031614905090565b611159611120565b6111755760405162461bcd60e51b81526004016105a690615186565b61119d817f7eaf9a7750884803435dfabc67aa617a7d8fefb23d8d84b3c9722bd69e48c4bc55565b806001600160a01b03166111bd6000805160206156d88339815191525490565b6001600160a01b03167fa39cc5eb22d0f34d8beaefee8a3f17cc229c1a1d1ef87a5ad47313487b1c4f0d60405160405180910390a350565b6034546001600160a01b0316331461121f5760405162461bcd60e51b81526004016105a69061514f565b6000805160206156b8833981519152805460028114156112515760405162461bcd60e51b81526004016105a690615239565b60028255610102546001600160a01b038581169116146112835760405162461bcd60e51b81526004016105a69061520b565b60008061010460009054906101000a90046001600160a01b03166001600160a01b0316630902f1ac6040518163ffffffff1660e01b815260040160606040518083038186803b1580156112d557600080fd5b505afa1580156112e9573d6000803e3d6000fd5b505050506040513d601f19601f8201168201806040525081019061130d9190614dad565b50610104546040516370a0823160e01b81523060048201526001600160701b0393841695509190921692506000916001600160a01b0316906370a082319060240160206040518083038186803b15801561136657600080fd5b505afa15801561137a573d6000803e3d6000fd5b505050506040513d601f19601f8201168201806040525081019061139e9190614d94565b905080156114fa5761010454604080516318160ddd60e01b815290516000926001600160a01b0316916318160ddd916004808301926020929190829003018186803b1580156113ec57600080fd5b505afa158015611400573d6000803e3d6000fd5b505050506040513d601f19601f820116820180604052508101906114249190614d94565b61010854909150600090611486906001600160a01b03166114468a6004613117565b610100546001600160a01b03908116600081815261010760205260408082205461010154909416808352912054610105548c948c948b9491939291613126565b9050828111156114935750815b6000826114a08388615574565b6114aa9190615464565b90506000836114b98488615574565b6114c39190615464565b6101005461010154610104549293506114f3926001600160a01b0392831692918216911686610acf8760046124ce565b5050505050505b61150261265e565b610102546040516370a0823160e01b81523060048201526000916001600160a01b0316906370a082319060240160206040518083038186803b15801561154757600080fd5b505afa15801561155b573d6000803e3d6000fd5b505050506040513d601f19601f8201168201806040525081019061157f9190614d94565b6101025490915061159a906001600160a01b03168a83611dc7565b50505050600182555050505050565b6034546001600160a01b031633146115d35760405162461bcd60e51b81526004016105a69061514f565b6000805160206156b8833981519152805460028114156116055760405162461bcd60e51b81526004016105a690615239565b60028255610102546040516370a0823160e01b8152306004820152610736916001600160a01b03169081906370a082319060240160206040518083038186803b15801561165157600080fd5b505afa158015611665573d6000803e3d6000fd5b505050506040513d601f19601f820116820180604052508101906116899190614d94565b611e19565b6060603a8054806020026020016040519081016040528092919081815260200182805480156116e657602002820191906000526020600020905b81546001600160a01b031681526001909101906020018083116116c8575b5050505050905090565b6116f8611120565b6117145760405162461bcd60e51b81526004016105a690615186565b600054610100900460ff168061172d575060005460ff16155b6117495760405162461bcd60e51b81526004016105a6906151bd565b600054610100900460ff1615801561176b576000805461ffff19166101011790555b8888600081811061177e5761177e615676565b9050602002016020810190611793919061494e565b61010080546001600160a01b0319166001600160a01b0392909216919091179055888860018181106117c7576117c7615676565b90506020020160208101906117dc919061494e565b61010160006101000a8154816001600160a01b0302191690836001600160a01b031602179055508361010260006101000a8154816001600160a01b0302191690836001600160a01b031602179055508c61010360006101000a8154816001600160a01b0302191690836001600160a01b0316021790555060008989905090508383600081811061186e5761186e615676565b9050602002016020810190611883919061494e565b6001600160a01b038681166000818152610106602090815260409182902080546001600160a01b0319169590941694909417909255815163313ce56760e01b81529151909263313ce5679260048082019391829003018186803b1580156118e957600080fd5b505afa1580156118fd573d6000803e3d6000fd5b505050506040513d601f19601f820116820180604052508101906119219190614e68565b61192c90600a6154c9565b6001600160a01b038616600090815261010760205260408120919091555b81811015611ada57848461195f83600161544c565b81811061196e5761196e615676565b9050602002016020810190611983919061494e565b61010660008d8d8581811061199a5761199a615676565b90506020020160208101906119af919061494e565b6001600160a01b039081168252602082019290925260400160002080546001600160a01b031916929091169190911790558a8a828181106119f2576119f2615676565b9050602002016020810190611a07919061494e565b6001600160a01b031663313ce5676040518163ffffffff1660e01b815260040160206040518083038186803b158015611a3f57600080fd5b505afa158015611a53573d6000803e3d6000fd5b505050506040513d601f19601f82011682018060405250810190611a779190614e68565b611a8290600a6154c9565b61010760008d8d85818110611a9957611a99615676565b9050602002016020810190611aae919061494e565b6001600160a01b0316815260208101919091526040016000205580611ad2816155f9565b91505061194a565b5087876000818110611aee57611aee615676565b9050602002016020810190611b03919061494e565b61010480546001600160a01b03199081166001600160a01b0393841617909155609d8054909116918816919091179055611b868a8a6000818110611b4957611b49615676565b9050602002016020810190611b5e919061494e565b89896000818110611b7157611b71615676565b90506020020160208101906105b9919061494e565b611bc48a8a6001818110611b9c57611b9c615676565b9050602002016020810190611bb1919061494e565b89896001818110611b7157611b71615676565b611c468e8e8e8e8e8e80806020026020016040519081016040528093929190818152602001838360200280828437600081840152601f19601f820116905080830192505050505050508d8d8080602002602001604051908101604052809392919081815260200183836020028082843760009201919091525061289d92505050565b508015611c59576000805461ff00191690555b50505050505050505050505050565b6001600160a01b038281166000908152603560205260409020541615611cc55760405162461bcd60e51b81526020600482015260126024820152711c151bdad95b88185b1c9958591e481cd95d60721b60448201526064016105a6565b6001600160a01b03821615801590611ce557506001600160a01b03811615155b611d255760405162461bcd60e51b8152602060048201526011602482015270496e76616c69642061646472657373657360781b60448201526064016105a6565b6001600160a01b03828116600081815260356020908152604080832080549587166001600160a01b031996871681179091556036805460018101825594527f4a11f94e20a93c79f6ec743a1954ec4fc2c08429ae2122118bf234b2185c81b890930180549095168417909455925190815290917fef6485b84315f9b1483beffa32aae9a0596890395e3d7521f1c5fbb51790e765910160405180910390a25050565b604080516001600160a01b038416602482015260448082018490528251808303909101815260649091019091526020810180516001600160e01b031663a9059cbb60e01b179052610f95908490613206565b610102546001600160a01b03838116911614611e475760405162461bcd60e51b81526004016105a69061520b565b600080611e526132d8565b5091509150611e5f613590565b610101546040516370a0823160e01b81523060048201526000916001600160a01b0316906370a082319060240160206040518083038186803b158015611ea457600080fd5b505afa158015611eb8573d6000803e3d6000fd5b505050506040513d601f19601f82011682018060405250810190611edc9190614d94565b905060008115611f185761010854610105546101015461010054611f15936001600160a01b03908116939260009290821691168761365c565b90505b610100546040516370a0823160e01b81523060048201526000916001600160a01b0316906370a082319060240160206040518083038186803b158015611f5d57600080fd5b505afa158015611f71573d6000803e3d6000fd5b505050506040513d601f19601f82011682018060405250810190611f959190614d94565b61010854909150600090612002906001600160a01b0316611fb7600286615464565b611fc19085615593565b610100546001600160a01b03908116600081815261010760205260408082205461010154909416808352912054610105548d948d9490936001929190613b3d565b61010854610105546101005461010154939450612035936001600160a01b03938416936000928116911630808885613c4c565b50610100546040516370a0823160e01b81523060048201526001600160a01b03909116906370a082319060240160206040518083038186803b15801561207a57600080fd5b505afa15801561208e573d6000803e3d6000fd5b505050506040513d601f19601f820116820180604052508101906120b29190614d94565b610101546040516370a0823160e01b81523060048201529193506001600160a01b0316906370a082319060240160206040518083038186803b1580156120f757600080fd5b505afa15801561210b573d6000803e3d6000fd5b505050506040513d601f19601f8201168201806040525081019061212f9190614d94565b6101005461010154919550612169916001600160a01b03918216911684876121588260046124ce565b6121638a60046124ce565b30613fdb565b5050505050505050505050565b61010460009054906101000a90046001600160a01b03166001600160a01b031663b88a802f6040518163ffffffff1660e01b8152600401600060405180830381600087803b1580156121c757600080fd5b505af11580156121db573d6000803e3d6000fd5b5050610103546040516370a0823160e01b8152306004820152600093508392506001600160a01b03909116906370a082319060240160206040518083038186803b15801561222857600080fd5b505afa15801561223c573d6000803e3d6000fd5b505050506040513d601f19601f820116820180604052508101906122609190614d94565b90506509184e72a0008111156122a3576101035461010254600091612293916001600160a01b03918216911684306141d5565b905061229f818461544c565b9250505b610102546040516370a0823160e01b81523060048201526000916001600160a01b0316906370a082319060240160206040518083038186803b1580156122e857600080fd5b505afa1580156122fc573d6000803e3d6000fd5b505050506040513d601f19601f820116820180604052508101906123209190614d94565b90508015610f955760395461010254604080516001600160a01b03938416815292909116602083015281018290527ff6c07a063ed4e63808eb8da7112d46dbcd38de2b40a73dbcc9353c5a94c723539060600160405180910390a16101025460395460405163a9059cbb60e01b81526001600160a01b0391821660048201526024810184905291169063a9059cbb90604401602060405180830381600087803b1580156123cc57600080fd5b505af11580156123e0573d6000803e3d6000fd5b505050506040513d601f19601f820116820180604052508101906124049190614d72565b50505050565b6001600160a01b0381166124605760405162461bcd60e51b815260206004820152601a60248201527f4e657720476f7665726e6f72206973206164647265737328302900000000000060448201526064016105a6565b806001600160a01b03166124806000805160206156d88339815191525490565b6001600160a01b03167fc7c0c772add429241571afb3805861fb3cfa2af374534088b76cdb4325a87e9a60405160405180910390a36124cb816000805160206156d883398151915255565b50565b60006127106124dd8382615593565b6124e79085615574565b6124f19190615464565b90505b92915050565b609d5460405163095ea7b360e01b81526001600160a01b0391821660048201526024810186905260009182919088169063095ea7b390604401602060405180830381600087803b15801561254d57600080fd5b505af1158015612561573d6000803e3d6000fd5b505050506040513d601f19601f820116820180604052508101906125859190614d72565b50609d546001600160a01b031663baa2abde8a8a898989896125a94261025861544c565b60405160e089901b6001600160e01b03191681526001600160a01b039788166004820152958716602487015260448601949094526064850192909252608484015290921660a482015260c481019190915260e4016040805180830381600087803b15801561261657600080fd5b505af115801561262a573d6000803e3d6000fd5b505050506040513d601f19601f8201168201806040525081019061264e9190614e16565b9150915097509795505050505050565b61010254610100546001600160a01b039081169116148015906126fb5750610100546040516370a0823160e01b81523060048201526000916001600160a01b0316906370a082319060240160206040518083038186803b1580156126c157600080fd5b505afa1580156126d5573d6000803e3d6000fd5b505050506040513d601f19601f820116820180604052508101906126f99190614d94565b115b156127a857610108546101055461010054610102546040516370a0823160e01b815230600482018190526127a6956001600160a01b0390811695946000949082169391169190819084906370a08231906024015b60206040518083038186803b15801561276757600080fd5b505afa15801561277b573d6000803e3d6000fd5b505050506040513d601f19601f8201168201806040525081019061279f9190614d94565b6000613c4c565b505b61010254610101546001600160a01b039081169116148015906128455750610101546040516370a0823160e01b81523060048201526000916001600160a01b0316906370a082319060240160206040518083038186803b15801561280b57600080fd5b505afa15801561281f573d6000803e3d6000fd5b505050506040513d601f19601f820116820180604052508101906128439190614d94565b115b156107e157610108546101055461010154610102546040516370a0823160e01b815230600482018190526124cb956001600160a01b0390811695946000949082169391169190819084906370a082319060240161274f565b603380546001600160a01b038089166001600160a01b03199283161790925560348054928816929091169190911790556128d9603a85856147f1565b508151815181146129235760405162461bcd60e51b8152602060048201526014602482015273496e76616c696420696e7075742061727261797360601b60448201526064016105a6565b60005b8181101561297c5761296a84828151811061294357612943615676565b602002602001015184838151811061295d5761295d615676565b6020026020010151611c68565b80612974816155f9565b915050612926565b5050505050505050565b610102546040516370a0823160e01b815230600482015260009182916001600160a01b03909116906370a082319060240160206040518083038186803b1580156129cf57600080fd5b505afa1580156129e3573d6000803e3d6000fd5b505050506040513d601f19601f82011682018060405250810190612a079190614d94565b610100546040516370a0823160e01b81523060048201529192506000916001600160a01b03909116906370a082319060240160206040518083038186803b158015612a5157600080fd5b505afa158015612a65573d6000803e3d6000fd5b505050506040513d601f19601f82011682018060405250810190612a899190614d94565b610101546040516370a0823160e01b81523060048201529192506000916001600160a01b03909116906370a082319060240160206040518083038186803b158015612ad357600080fd5b505afa158015612ae7573d6000803e3d6000fd5b505050506040513d601f19601f82011682018060405250810190612b0b9190614d94565b610104546040516370a0823160e01b81523060048201529192506000916001600160a01b03909116906370a082319060240160206040518083038186803b158015612b5557600080fd5b505afa158015612b69573d6000803e3d6000fd5b505050506040513d601f19601f82011682018060405250810190612b8d9190614d94565b90508015612cf65761010454604080516318160ddd60e01b815290516000926001600160a01b0316916318160ddd916004808301926020929190829003018186803b158015612bdb57600080fd5b505afa158015612bef573d6000803e3d6000fd5b505050506040513d601f19601f82011682018060405250810190612c139190614d94565b905060008061010460009054906101000a90046001600160a01b03166001600160a01b0316630902f1ac6040518163ffffffff1660e01b815260040160606040518083038186803b158015612c6757600080fd5b505afa158015612c7b573d6000803e3d6000fd5b505050506040513d601f19601f82011682018060405250810190612c9f9190614dad565b506001600160701b03918216935016905082612cbb8584615574565b612cc59190615464565b612ccf908761544c565b955082612cdc8583615574565b612ce69190615464565b612cf0908661544c565b94505050505b61010254610100546000916001600160a01b03918216911614612ee9578315612ee4578615612eb257610102546001600160a01b039081166000908152610106602090815260408083205481516350d25bcd60e01b81529151939416926350d25bcd92600480840193919291829003018186803b158015612d7657600080fd5b505afa158015612d8a573d6000803e3d6000fd5b505050506040513d601f19601f82011682018060405250810190612dae9190614d94565b610100546001600160a01b039081166000908152610106602090815260408083205481516350d25bcd60e01b81529151959650929492909316926350d25bcd9260048083019392829003018186803b158015612e0957600080fd5b505afa158015612e1d573d6000803e3d6000fd5b505050506040513d601f19601f82011682018060405250810190612e419190614d94565b610100546001600160a01b031660009081526101076020526040902054909150612e6c908390615574565b610102546001600160a01b0316600090815261010760205260409020548290612e959089615574565b612e9f9190615574565b612ea99190615464565b92505050612ef6565b61010854610105546101005461010254612ee1936001600160a01b03908116939260009290821691168961365c565b90505b612ef6565b612ef3848261544c565b90505b61010254610101546000916001600160a01b039182169116146130e95783156130e45787156130b257610102546001600160a01b039081166000908152610106602090815260408083205481516350d25bcd60e01b81529151939416926350d25bcd92600480840193919291829003018186803b158015612f7657600080fd5b505afa158015612f8a573d6000803e3d6000fd5b505050506040513d601f19601f82011682018060405250810190612fae9190614d94565b610101546001600160a01b039081166000908152610106602090815260408083205481516350d25bcd60e01b81529151959650929492909316926350d25bcd9260048083019392829003018186803b15801561300957600080fd5b505afa15801561301d573d6000803e3d6000fd5b505050506040513d601f19601f820116820180604052508101906130419190614d94565b610101546001600160a01b03166000908152610107602052604090205490915061306c908390615574565b610102546001600160a01b03166000908152610107602052604090205482906130959089615574565b61309f9190615574565b6130a99190615464565b925050506130f6565b610108546101055461010154610102546130e1936001600160a01b03908116939260009290821691168961365c565b90505b6130f6565b6130f3848261544c565b90505b85613101828461544c565b61310b919061544c565b98975050505050505050565b60006127106124dd838261544c565b600080613133878a615574565b61313d878c615574565b613147919061544c565b866131528d8b615574565b61315c9190615574565b6131669190615464565b905060005b60018110156131f657600089613181848d615574565b61318b9190615464565b9050600061319e8f896000898b8761365c565b90506131aa818d615574565b6131b4838f615574565b6131be919061544c565b828f8d6131cb9190615574565b6131d59190615574565b6131df9190615464565b9350505080806131ee906155f9565b91505061316b565b509b9a5050505050505050505050565b600061325b826040518060400160405280602081526020017f5361666545524332303a206c6f772d6c6576656c2063616c6c206661696c6564815250856001600160a01b03166143c29092919063ffffffff16565b805190915015610f9557808060200190518101906132799190614d72565b610f955760405162461bcd60e51b815260206004820152602a60248201527f5361666545524332303a204552433230206f7065726174696f6e20646964206e6044820152691bdd081cdd58d8d9595960b21b60648201526084016105a6565b600080600080600061010460009054906101000a90046001600160a01b03166001600160a01b0316630902f1ac6040518163ffffffff1660e01b815260040160606040518083038186803b15801561332f57600080fd5b505afa158015613343573d6000803e3d6000fd5b505050506040513d601f19601f820116820180604052508101906133679190614dad565b506001600160701b031691506001600160701b03169150600361010060009054906101000a90046001600160a01b03166001600160a01b031663313ce5676040518163ffffffff1660e01b815260040160206040518083038186803b1580156133cf57600080fd5b505afa1580156133e3573d6000803e3d6000fd5b505050506040513d601f19601f820116820180604052508101906134079190614e68565b61341191906155aa565b61341c90600a6154c9565b821180156134bb5750610101546040805163313ce56760e01b815290516003926001600160a01b03169163313ce567916004808301926020929190829003018186803b15801561346b57600080fd5b505afa15801561347f573d6000803e3d6000fd5b505050506040513d601f19601f820116820180604052508101906134a39190614e68565b6134ad91906155aa565b6134b890600a6154c9565b81115b6134fa5760405162461bcd60e51b815260206004820152601060248201526f526573657276657320746f6f206c6f7760801b60448201526064016105a6565b818161010460009054906101000a90046001600160a01b03166001600160a01b03166318160ddd6040518163ffffffff1660e01b815260040160206040518083038186803b15801561354b57600080fd5b505afa15801561355f573d6000803e3d6000fd5b505050506040513d601f19601f820116820180604052508101906135839190614d94565b9450945094505050909192565b610102546040516370a0823160e01b81523060048201526000916001600160a01b0316906370a082319060240160206040518083038186803b1580156135d557600080fd5b505afa1580156135e9573d6000803e3d6000fd5b505050506040513d601f19601f8201168201806040525081019061360d9190614d94565b61010054610102549192506001600160a01b039182169116146124cb57610108546101055461010254610100546105b9936001600160a01b039081169392600092908216911630808885613c4c565b604080516101208101825260008082526020820181905291810182905260608082018390526080820183905260a0820183905260c0820183905260e082018390526101008201528790808760018111156136b8576136b861564a565b908160018111156136cb576136cb61564a565b9052506001600160a01b0386811660208301528581166040808401919091526060830186905251631f29a8cd60e31b8152600481018a905260009182919085169063f94d46689060240160006040518083038186803b15801561372d57600080fd5b505afa158015613741573d6000803e3d6000fd5b505050506040513d6000823e601f3d908101601f191682016040526137699190810190614c68565b5091509150600080856001600160a01b031663f6c009278d6040518263ffffffff1660e01b815260040161379f91815260200190565b604080518083038186803b1580156137b657600080fd5b505afa1580156137ca573d6000803e3d6000fd5b505050506040513d601f19601f820116820180604052508101906137ee9190614bf3565b909250905060008160028111156138075761380761564a565b14156139405760008060005b86518160ff1610156138af578c6001600160a01b0316878260ff168151811061383e5761383e615676565b60200260200101516001600160a01b03161415613860578060ff16925061389d565b8b6001600160a01b0316878260ff168151811061387f5761387f615676565b60200260200101516001600160a01b0316141561389d578060ff1691505b806138a781615614565b915050613813565b5060405162f64aa560e11b81526001600160a01b038516906301ec954a906138e1908a9089908790879060040161531c565b60206040518083038186803b1580156138f957600080fd5b505afa15801561390d573d6000803e3d6000fd5b505050506040513d601f19601f820116820180604052508101906139319190614d94565b98505050505050505050613b33565b60018160028111156139545761395461564a565b1415613a5f5760008060005b86518160ff161015613a2e578c6001600160a01b0316878260ff168151811061398b5761398b615676565b60200260200101516001600160a01b031614156139c657858160ff16815181106139b7576139b7615676565b60200260200101519250613a1c565b8b6001600160a01b0316878260ff16815181106139e5576139e5615676565b60200260200101516001600160a01b03161415613a1c57858160ff1681518110613a1157613a11615676565b602002602001015191505b80613a2681615614565b915050613960565b5060405163274b044360e21b81526001600160a01b03851690639d2c110c906138e1908a908690869060040161537d565b60008060005b86518160ff161015613a2e578c6001600160a01b0316878260ff1681518110613a9057613a90615676565b60200260200101516001600160a01b03161415613acb57858160ff1681518110613abc57613abc615676565b60200260200101519250613b21565b8b6001600160a01b0316878260ff1681518110613aea57613aea615676565b60200260200101516001600160a01b03161415613b2157858160ff1681518110613b1657613b16615676565b602002602001015191505b80613b2b81615614565b915050613a65565b9695505050505050565b60008a818989613b4d8a8e615574565b613b579190615464565b613b61919061544c565b613b6b8b8e615574565b613b759190615464565b9050613ba66040518060400160405280600d81526020016c0616d6f756e7430546f5377617609c1b815250826143db565b60005b87811015613c3b57613bda6040518060400160405280600681526020016506f6e537761760d41b8152508787614420565b6000613beb8f8960008a8a8861365c565b90508b83828f613bfb9190615574565b613c059190615464565b613c0f919061544c565b8c8f613c1b9190615574565b613c259190615464565b9250508080613c33906155f9565b915050613ba9565b509c9b505050505050505050505050565b6000808a9050613c8d6040518060400160405280601981526020017842616c616e6365725661756c743a207377617070696e67203160381b81525082614467565b604080518082018252601981527842616c616e6365725661756c743a207377617070696e67203160381b602082015290516370a0823160e01b8152306004820152613d3e91908a906001600160a01b038216906370a082319060240160206040518083038186803b158015613d0157600080fd5b505afa158015613d15573d6000803e3d6000fd5b505050506040513d601f19601f82011682018060405250810190613d399190614d94565b6144ac565b6040516370a0823160e01b81523060048201526001600160a01b0389169063095ea7b390839083906370a082319060240160206040518083038186803b158015613d8757600080fd5b505afa158015613d9b573d6000803e3d6000fd5b505050506040513d601f19601f82011682018060405250810190613dbf9190614d94565b6040516001600160e01b031960e085901b1681526001600160a01b0390921660048301526024820152604401602060405180830381600087803b158015613e0557600080fd5b505af1158015613e19573d6000803e3d6000fd5b505050506040513d601f19601f82011682018060405250810190613e3d9190614d72565b5082613e7957613e518b8b8b8b8b8961365c565b9250613e76613e6f662386f26fc10000670de0b6b3a7640000615593565b84906144f3565b92505b613ec56040805160c0810190915260008082526020820190815260200160006001600160a01b0316815260200160006001600160a01b0316815260200160008152602001606081525090565b8a8152602081018a6001811115613ede57613ede61564a565b90816001811115613ef157613ef161564a565b9052506001600160a01b03898116604083810191909152898216606080850191909152608080850189905282519081018352600060208201819052918101919091528983168152888316918101919091529083166352bbbe29838388613f594261025861544c565b6040518563ffffffff1660e01b8152600401613f789493929190615261565b602060405180830381600087803b158015613f9257600080fd5b505af1158015613fa6573d6000803e3d6000fd5b505050506040513d601f19601f82011682018060405250810190613fca9190614d94565b9d9c50505050505050505050505050565b609d5460405163095ea7b360e01b81526001600160a01b03918216600482015260248101879052600091829182918b169063095ea7b390604401602060405180830381600087803b15801561402f57600080fd5b505af1158015614043573d6000803e3d6000fd5b505050506040513d601f19601f820116820180604052508101906140679190614d72565b50609d5460405163095ea7b360e01b81526001600160a01b03918216600482015260248101899052908a169063095ea7b390604401602060405180830381600087803b1580156140b657600080fd5b505af11580156140ca573d6000803e3d6000fd5b505050506040513d601f19601f820116820180604052508101906140ee9190614d72565b50609d546001600160a01b031663e8e337008b8b8b8b8b8b8b6141134261025861544c565b60405160e08a901b6001600160e01b03191681526001600160a01b039889166004820152968816602488015260448701959095526064860193909352608485019190915260a484015290921660c482015260e481019190915261010401606060405180830381600087803b15801561418a57600080fd5b505af115801561419e573d6000803e3d6000fd5b505050506040513d601f19601f820116820180604052508101906141c29190614e3a565b9250925092509750975097945050505050565b609d5460405163095ea7b360e01b81526001600160a01b0391821660048201526024810184905260009186169063095ea7b390604401602060405180830381600087803b15801561422557600080fd5b505af1158015614239573d6000803e3d6000fd5b505050506040513d601f19601f8201168201806040525081019061425d9190614d72565b50600061426b868686614508565b90508061427c5760009150506143ba565b60408051600280825260608201835260009260208301908036833701905050905086816000815181106142b1576142b1615676565b60200260200101906001600160a01b031690816001600160a01b03168152505085816001815181106142e5576142e5615676565b6001600160a01b039283166020918202929092010152609d54600091166338ed1739876143138660046124ce565b85896143214261025861544c565b6040518663ffffffff1660e01b81526004016143419594939291906153bb565b600060405180830381600087803b15801561435b57600080fd5b505af115801561436f573d6000803e3d6000fd5b505050506040513d6000823e601f3d908101601f191682016040526143979190810190614d3d565b9050806001815181106143ac576143ac615676565b602002602001015193505050505b949350505050565b60606143d18484600085614635565b90505b9392505050565b6105b982826040516024016143f192919061512d565b60408051601f198184030181529190526020810180516001600160e01b03166309710a9d60e41b17905261475d565b610f95838383604051602401614438939291906150cc565b60408051601f198184030181529190526020810180516001600160e01b03166307e763af60e51b17905261475d565b6105b9828260405160240161447d9291906150a2565b60408051601f198184030181529190526020810180516001600160e01b031663319af33360e01b17905261475d565b610f958383836040516024016144c4939291906150ff565b60408051601f198184030181529190526020810180516001600160e01b03166307c8121760e01b17905261475d565b60006124f18383670de0b6b3a764000061477e565b60408051600280825260608201835260009283929190602083019080368337019050509050848160008151811061454157614541615676565b60200260200101906001600160a01b031690816001600160a01b031681525050838160018151811061457557614575615676565b6001600160a01b039283166020918202929092010152609d5460405163d06ca61f60e01b8152600092919091169063d06ca61f906145b990879086906004016153a2565b60006040518083038186803b1580156145d157600080fd5b505afa1580156145e5573d6000803e3d6000fd5b505050506040513d6000823e601f3d908101601f1916820160405261460d9190810190614d3d565b90508060018151811061462257614622615676565b6020026020010151925050509392505050565b6060824710156146965760405162461bcd60e51b815260206004820152602660248201527f416464726573733a20696e73756666696369656e742062616c616e636520666f6044820152651c8818d85b1b60d21b60648201526084016105a6565b843b6146e45760405162461bcd60e51b815260206004820152601d60248201527f416464726573733a2063616c6c20746f206e6f6e2d636f6e747261637400000060448201526064016105a6565b600080866001600160a01b031685876040516147009190614fc8565b60006040518083038185875af1925050503d806000811461473d576040519150601f19603f3d011682016040523d82523d6000602084013e614742565b606091505b50915091506147528282866147a0565b979650505050505050565b80516a636f6e736f6c652e6c6f67602083016000808483855afa5050505050565b60008061478b85856147d9565b905061479781846147e5565b95945050505050565b606083156147af5750816143d4565b8251156147bf5782518084602001fd5b8160405162461bcd60e51b81526004016105a6919061508f565b60006124f18284615574565b60006124f18284615464565b828054828255906000526020600020908101928215614844579160200282015b828111156148445781546001600160a01b0319166001600160a01b03843516178255602090920191600190910190614811565b50614850929150614854565b5090565b5b808211156148505760008155600101614855565b8035614874816156a2565b919050565b60008083601f84011261488b57600080fd5b50813567ffffffffffffffff8111156148a357600080fd5b6020830191508360208260051b85010111156148be57600080fd5b9250929050565b600082601f8301126148d657600080fd5b815160206148eb6148e683615428565b6153f7565b80838252828201915082860187848660051b890101111561490b57600080fd5b60005b8581101561492a5781518452928401929084019060010161490e565b5090979650505050505050565b80516001600160701b038116811461487457600080fd5b60006020828403121561496057600080fd5b81356143d4816156a2565b6000806040838503121561497e57600080fd5b8235614989816156a2565b91506020830135614999816156a2565b809150509250929050565b60008060008060008060008060a0898b0312156149c057600080fd5b88356149cb816156a2565b975060208901356149db816156a2565b9650604089013567ffffffffffffffff808211156149f857600080fd5b614a048c838d01614879565b909850965060608b0135915080821115614a1d57600080fd5b614a298c838d01614879565b909650945060808b0135915080821115614a4257600080fd5b50614a4f8b828c01614879565b999c989b5096995094979396929594505050565b6000806000806000806000806000806000806101008d8f031215614a8657600080fd5b614a8f8d614869565b9b50614a9d60208e01614869565b9a5067ffffffffffffffff60408e01351115614ab857600080fd5b614ac88e60408f01358f01614879565b909a50985067ffffffffffffffff60608e01351115614ae657600080fd5b614af68e60608f01358f01614879565b909850965067ffffffffffffffff60808e01351115614b1457600080fd5b614b248e60808f01358f01614879565b9096509450614b3560a08e01614869565b9350614b4360c08e01614869565b925067ffffffffffffffff60e08e01351115614b5e57600080fd5b614b6e8e60e08f01358f01614879565b81935080925050509295989b509295989b509295989b565b600080600060608486031215614b9b57600080fd5b8335614ba6816156a2565b92506020840135614bb6816156a2565b929592945050506040919091013590565b60008060408385031215614bda57600080fd5b8235614be5816156a2565b946020939093013593505050565b60008060408385031215614c0657600080fd5b8251614c11816156a2565b60208401519092506003811061499957600080fd5b60008060208385031215614c3957600080fd5b823567ffffffffffffffff811115614c5057600080fd5b614c5c85828601614879565b90969095509350505050565b600080600060608486031215614c7d57600080fd5b835167ffffffffffffffff80821115614c9557600080fd5b818601915086601f830112614ca957600080fd5b81516020614cb96148e683615428565b8083825282820191508286018b848660051b8901011115614cd957600080fd5b600096505b84871015614d05578051614cf1816156a2565b835260019690960195918301918301614cde565b5091890151919750909350505080821115614d1f57600080fd5b50614d2c868287016148c5565b925050604084015190509250925092565b600060208284031215614d4f57600080fd5b815167ffffffffffffffff811115614d6657600080fd5b6143ba848285016148c5565b600060208284031215614d8457600080fd5b815180151581146143d457600080fd5b600060208284031215614da657600080fd5b5051919050565b600080600060608486031215614dc257600080fd5b614dcb84614937565b9250614dd960208501614937565b9150604084015163ffffffff81168114614df257600080fd5b809150509250925092565b600060208284031215614e0f57600080fd5b5035919050565b60008060408385031215614e2957600080fd5b505080516020909101519092909150565b600080600060608486031215614e4f57600080fd5b8351925060208401519150604084015190509250925092565b600060208284031215614e7a57600080fd5b815160ff811681146143d457600080fd5b600081518084526020808501945080840160005b83811015614ec45781516001600160a01b031687529582019590820190600101614e9f565b509495945050505050565b60008151808452614ee78160208601602086016155cd565b601f01601f19169290920160200192915050565b60028110614f1957634e487b7160e01b600052602160045260246000fd5b9052565b6000610120614f2d848451614efb565b6020838101516001600160a01b03169085015260408084015190614f5b908601826001600160a01b03169052565b50606083015160608501526080830151608085015260a083015160a085015260c0830151614f9460c08601826001600160a01b03169052565b5060e0830151614faf60e08601826001600160a01b03169052565b50610100808401518282870152613b3383870182614ecf565b60008251614fda8184602087016155cd565b9190910192915050565b6020815260006124f16020830184614e8b565b6000604082016040835280865480835260608501915087600052602092508260002060005b828110156150415781546001600160a01b03168452928401926001918201910161501c565b505050838103828501528481528590820160005b86811015615083578235615068816156a2565b6001600160a01b031682529183019190830190600101615055565b50979650505050505050565b6020815260006124f16020830184614ecf565b6040815260006150b56040830185614ecf565b905060018060a01b03831660208301529392505050565b6060815260006150df6060830186614ecf565b6001600160a01b0394851660208401529290931660409091015292915050565b6060815260006151126060830186614ecf565b6001600160a01b039490941660208301525060400152919050565b6040815260006151406040830185614ecf565b90508260208301529392505050565b60208082526017908201527f43616c6c6572206973206e6f7420746865205661756c74000000000000000000604082015260600190565b6020808252601a908201527f43616c6c6572206973206e6f742074686520476f7665726e6f72000000000000604082015260600190565b6020808252602e908201527f496e697469616c697a61626c653a20636f6e747261637420697320616c72656160408201526d191e481a5b9a5d1a585b1a5e995960921b606082015260800190565b6020808252601490820152732a37b5b2b7103737ba1039bab83837b93a32b21760611b604082015260600190565b6020808252600e908201526d1499595b9d1c985b9d0818d85b1b60921b604082015260600190565b60e08152845160e082015260006020860151615281610100840182614efb565b5060408601516001600160a01b03908116610120840152606087015116610140830152608086015161016083015260a086015160c06101808401526152ca6101a0840182614ecf565b91505061530a602083018680516001600160a01b039081168352602080830151151590840152604080830151909116908301526060908101511515910152565b60a082019390935260c0015292915050565b60808152600061532f6080830187614f1d565b82810360208481019190915286518083528782019282019060005b818110156153665784518352938301939183019160010161534a565b505060408501969096525050506060015292915050565b6060815260006153906060830186614f1d565b60208301949094525060400152919050565b8281526040602082015260006143d16040830184614e8b565b85815284602082015260a0604082015260006153da60a0830186614e8b565b6001600160a01b0394909416606083015250608001529392505050565b604051601f8201601f1916810167ffffffffffffffff811182821017156154205761542061568c565b604052919050565b600067ffffffffffffffff8211156154425761544261568c565b5060051b60200190565b6000821982111561545f5761545f615634565b500190565b60008261548157634e487b7160e01b600052601260045260246000fd5b500490565b600181815b808511156154c15781600019048211156154a7576154a7615634565b808516156154b457918102915b93841c939080029061548b565b509250929050565b60006124f160ff8416836000826154e2575060016124f4565b816154ef575060006124f4565b8160018114615505576002811461550f5761552b565b60019150506124f4565b60ff84111561552057615520615634565b50506001821b6124f4565b5060208310610133831016604e8410600b841016171561554e575081810a6124f4565b6155588383615486565b806000190482111561556c5761556c615634565b029392505050565b600081600019048311821515161561558e5761558e615634565b500290565b6000828210156155a5576155a5615634565b500390565b600060ff821660ff8416808210156155c4576155c4615634565b90039392505050565b60005b838110156155e85781810151838201526020016155d0565b838111156124045750506000910152565b600060001982141561560d5761560d615634565b5060010190565b600060ff821660ff81141561562b5761562b615634565b60010192915050565b634e487b7160e01b600052601160045260246000fd5b634e487b7160e01b600052602160045260246000fd5b634e487b7160e01b600052603160045260246000fd5b634e487b7160e01b600052603260045260246000fd5b634e487b7160e01b600052604160045260246000fd5b6001600160a01b03811681146124cb57600080fdfe48a06827bfe8bfc0a59fe65d0fa78f553938265ed1f971326fc09947d19a593c83f34c88ec39d54d1e423bd8a181ebc59ede5dcc9996c2df334668b4f89fdd73a26469706673582212205998f7a699a9f7d54af346e17cf3778bdb8afd5acb0235cc31e60d8e63fe604864736f6c6343000806003383f34c88ec39d54d1e423bd8a181ebc59ede5dcc9996c2df334668b4f89fdd73",
  "devdoc": {
    "kind": "dev",
    "methods": {
      "checkBalance()": {
        "details": "Get the total primary stable value held in the platform.      This includes any interest that was generated since depositing.",
        "returns": {
          "_0": "   Total value of the asset in the platform"
        }
      },
      "claimGovernance()": {
        "details": "Claim Governance of the contract to a new account (`newGovernor`). Can only be called by the new Governor."
      },
      "collectRewardTokens()": {
        "details": "Collect accumulated reward token and send to Vault."
      },
      "deposit(address,uint256)": {
        "details": "Deposit an amount of asset into the platform",
        "params": {
          "_amount": "Units of asset to deposit",
          "_asset": "Address for the asset"
        }
      },
      "depositAll()": {
        "details": "Deposit balance of all supported assets into the platform"
      },
      "getRewardTokenAddresses()": {
        "details": "Get the reward token addresses.",
        "returns": {
          "_0": "address[] the reward token addresses."
        }
      },
      "governor()": {
        "details": "Returns the address of the current Governor."
      },
      "initialize(address,address,address[],address[],address[])": {
        "details": "Internal initialize function, to set up initial internal state",
        "params": {
          "_assets": "Addresses of initial supported assets",
          "_pTokens": "Platform Token corresponding addresses",
          "_platformAddress": "Generic platform address",
          "_rewardTokenAddresses": "Address of reward token for platform",
          "_vaultAddress": "Address of the Vault"
        }
      },
      "isGovernor()": {
        "details": "Returns true if the caller is the current Governor."
      },
      "removePToken(uint256)": {
        "details": "Remove a supported asset by passing its index.      This method can only be called by the system Governor",
        "params": {
          "_assetIndex": "Index of the asset to be removed"
        }
      },
      "setHarvesterAddress(address)": {
        "details": "Set the reward token addresses.",
        "params": {
          "_harvesterAddress": "Address of the harvester"
        }
      },
      "setPTokenAddress(address,address)": {
        "details": "Provide support for asset by passing its pToken address.      This method can only be called by the system Governor",
        "params": {
          "_asset": "Address for the asset",
          "_pToken": "Address for the corresponding platform token"
        }
      },
      "setRewardTokenAddresses(address[])": {
        "details": "Set the reward token addresses.",
        "params": {
          "_rewardTokenAddresses": "Address array of the reward token"
        }
      },
      "supportsAsset(address)": {
        "details": "Check if an asset is supported.",
        "params": {
          "_asset": "Address of the asset"
        },
        "returns": {
          "_0": "bool     Whether asset is supported"
        }
      },
      "transferGovernance(address)": {
        "details": "Transfers Governance of the contract to a new account (`newGovernor`). Can only be called by the current Governor. Must be claimed for this to complete",
        "params": {
          "_newGovernor": "Address of the new Governor"
        }
      },
      "transferToken(address,uint256)": {
        "details": "Transfer token to governor. Intended for recovering tokens stuck in      strategy contracts, i.e. mistaken sends.",
        "params": {
          "_amount": "Amount of the asset to transfer",
          "_asset": "Address for the asset"
        }
      },
      "withdrawAll()": {
        "details": "Withdraw all assets from strategy sending assets to Vault."
      }
    },
    "version": 1
  },
  "userdoc": {
    "kind": "user",
    "methods": {
      "initialize(address,address,address[],address[],address[],address,address,address[])": {
        "notice": "Initializer for setting up strategy internal state. This overrides the InitializableAbstractStrategy initializer as MeshSwap strategies don't fit well within that abstraction."
      }
    },
    "version": 1
  },
  "storageLayout": {
    "storage": [
      {
        "astId": 30623,
        "contract": "contracts/strategies/MeshSwapStrategyDual.sol:MeshSwapStrategyDual",
        "label": "initialized",
        "offset": 0,
        "slot": "0",
        "type": "t_bool"
      },
      {
        "astId": 30626,
        "contract": "contracts/strategies/MeshSwapStrategyDual.sol:MeshSwapStrategyDual",
        "label": "initializing",
        "offset": 1,
        "slot": "0",
        "type": "t_bool"
      },
      {
        "astId": 30666,
        "contract": "contracts/strategies/MeshSwapStrategyDual.sol:MeshSwapStrategyDual",
        "label": "______gap",
        "offset": 0,
        "slot": "1",
        "type": "t_array(t_uint256)50_storage"
      },
      {
        "astId": 30750,
        "contract": "contracts/strategies/MeshSwapStrategyDual.sol:MeshSwapStrategyDual",
        "label": "platformAddress",
        "offset": 0,
        "slot": "51",
        "type": "t_address"
      },
      {
        "astId": 30752,
        "contract": "contracts/strategies/MeshSwapStrategyDual.sol:MeshSwapStrategyDual",
        "label": "vaultAddress",
        "offset": 0,
        "slot": "52",
        "type": "t_address"
      },
      {
        "astId": 30756,
        "contract": "contracts/strategies/MeshSwapStrategyDual.sol:MeshSwapStrategyDual",
        "label": "assetToPToken",
        "offset": 0,
        "slot": "53",
        "type": "t_mapping(t_address,t_address)"
      },
      {
        "astId": 30759,
        "contract": "contracts/strategies/MeshSwapStrategyDual.sol:MeshSwapStrategyDual",
        "label": "assetsMapped",
        "offset": 0,
        "slot": "54",
        "type": "t_array(t_address)dyn_storage"
      },
      {
        "astId": 30761,
        "contract": "contracts/strategies/MeshSwapStrategyDual.sol:MeshSwapStrategyDual",
        "label": "_deprecated_rewardTokenAddress",
        "offset": 0,
        "slot": "55",
        "type": "t_address"
      },
      {
        "astId": 30763,
        "contract": "contracts/strategies/MeshSwapStrategyDual.sol:MeshSwapStrategyDual",
        "label": "_deprecated_rewardLiquidationThreshold",
        "offset": 0,
        "slot": "56",
        "type": "t_uint256"
      },
      {
        "astId": 30765,
        "contract": "contracts/strategies/MeshSwapStrategyDual.sol:MeshSwapStrategyDual",
        "label": "harvesterAddress",
        "offset": 0,
        "slot": "57",
        "type": "t_address"
      },
      {
        "astId": 30768,
        "contract": "contracts/strategies/MeshSwapStrategyDual.sol:MeshSwapStrategyDual",
        "label": "rewardTokenAddresses",
        "offset": 0,
        "slot": "58",
        "type": "t_array(t_address)dyn_storage"
      },
      {
        "astId": 30772,
        "contract": "contracts/strategies/MeshSwapStrategyDual.sol:MeshSwapStrategyDual",
        "label": "_reserved",
        "offset": 0,
        "slot": "59",
        "type": "t_array(t_int256)98_storage"
      },
      {
        "astId": 7950,
        "contract": "contracts/strategies/MeshSwapStrategyDual.sol:MeshSwapStrategyDual",
        "label": "uniswapRouter",
        "offset": 0,
        "slot": "157",
        "type": "t_contract(IUniswapV2Router02)5552"
      },
      {
        "astId": 8212,
        "contract": "contracts/strategies/MeshSwapStrategyDual.sol:MeshSwapStrategyDual",
        "label": "__gap",
        "offset": 0,
        "slot": "158",
        "type": "t_array(t_uint256)49_storage"
      },
      {
        "astId": 7210,
        "contract": "contracts/strategies/MeshSwapStrategyDual.sol:MeshSwapStrategyDual",
        "label": "__gap",
        "offset": 0,
        "slot": "207",
        "type": "t_array(t_uint256)49_storage"
      },
      {
        "astId": 24436,
        "contract": "contracts/strategies/MeshSwapStrategyDual.sol:MeshSwapStrategyDual",
        "label": "token0",
        "offset": 0,
        "slot": "256",
        "type": "t_contract(IERC20)623"
      },
      {
        "astId": 24439,
        "contract": "contracts/strategies/MeshSwapStrategyDual.sol:MeshSwapStrategyDual",
        "label": "token1",
        "offset": 0,
        "slot": "257",
        "type": "t_contract(IERC20)623"
      },
      {
        "astId": 24442,
        "contract": "contracts/strategies/MeshSwapStrategyDual.sol:MeshSwapStrategyDual",
        "label": "primaryStable",
        "offset": 0,
        "slot": "258",
        "type": "t_contract(IERC20)623"
      },
      {
        "astId": 24445,
        "contract": "contracts/strategies/MeshSwapStrategyDual.sol:MeshSwapStrategyDual",
        "label": "meshToken",
        "offset": 0,
        "slot": "259",
        "type": "t_contract(IERC20)623"
      },
      {
        "astId": 24448,
        "contract": "contracts/strategies/MeshSwapStrategyDual.sol:MeshSwapStrategyDual",
        "label": "meshSwapPair",
        "offset": 0,
        "slot": "260",
        "type": "t_contract(IMeshSwapLP)10239"
      },
      {
        "astId": 24450,
        "contract": "contracts/strategies/MeshSwapStrategyDual.sol:MeshSwapStrategyDual",
        "label": "poolId",
        "offset": 0,
        "slot": "261",
        "type": "t_bytes32"
      },
      {
        "astId": 24454,
        "contract": "contracts/strategies/MeshSwapStrategyDual.sol:MeshSwapStrategyDual",
        "label": "assetToChainlink",
        "offset": 0,
        "slot": "262",
        "type": "t_mapping(t_address,t_address)"
      },
      {
        "astId": 24458,
        "contract": "contracts/strategies/MeshSwapStrategyDual.sol:MeshSwapStrategyDual",
        "label": "assetToDenominator",
        "offset": 0,
        "slot": "263",
        "type": "t_mapping(t_address,t_uint256)"
      },
      {
        "astId": 24460,
        "contract": "contracts/strategies/MeshSwapStrategyDual.sol:MeshSwapStrategyDual",
        "label": "balancerVault",
        "offset": 0,
        "slot": "264",
        "type": "t_address"
      }
    ],
    "types": {
      "t_address": {
        "encoding": "inplace",
        "label": "address",
        "numberOfBytes": "20"
      },
      "t_array(t_address)dyn_storage": {
        "base": "t_address",
        "encoding": "dynamic_array",
        "label": "address[]",
        "numberOfBytes": "32"
      },
      "t_array(t_int256)98_storage": {
        "base": "t_int256",
        "encoding": "inplace",
        "label": "int256[98]",
        "numberOfBytes": "3136"
      },
      "t_array(t_uint256)49_storage": {
        "base": "t_uint256",
        "encoding": "inplace",
        "label": "uint256[49]",
        "numberOfBytes": "1568"
      },
      "t_array(t_uint256)50_storage": {
        "base": "t_uint256",
        "encoding": "inplace",
        "label": "uint256[50]",
        "numberOfBytes": "1600"
      },
      "t_bool": {
        "encoding": "inplace",
        "label": "bool",
        "numberOfBytes": "1"
      },
      "t_bytes32": {
        "encoding": "inplace",
        "label": "bytes32",
        "numberOfBytes": "32"
      },
      "t_contract(IERC20)623": {
        "encoding": "inplace",
        "label": "contract IERC20",
        "numberOfBytes": "20"
      },
      "t_contract(IMeshSwapLP)10239": {
        "encoding": "inplace",
        "label": "contract IMeshSwapLP",
        "numberOfBytes": "20"
      },
      "t_contract(IUniswapV2Router02)5552": {
        "encoding": "inplace",
        "label": "contract IUniswapV2Router02",
        "numberOfBytes": "20"
      },
      "t_int256": {
        "encoding": "inplace",
        "label": "int256",
        "numberOfBytes": "32"
      },
      "t_mapping(t_address,t_address)": {
        "encoding": "mapping",
        "key": "t_address",
        "label": "mapping(address => address)",
        "numberOfBytes": "32",
        "value": "t_address"
      },
      "t_mapping(t_address,t_uint256)": {
        "encoding": "mapping",
        "key": "t_address",
        "label": "mapping(address => uint256)",
        "numberOfBytes": "32",
        "value": "t_uint256"
      },
      "t_uint256": {
        "encoding": "inplace",
        "label": "uint256",
        "numberOfBytes": "32"
      }
    }
  }
}