{
  "address": "0xBB9db7A6e1018c76b3118d2dfE6f8F5c9eb21542",
  "abi": [
    {
      "anonymous": false,
      "inputs": [
        {
          "indexed": true,
          "internalType": "address",
          "name": "_asset",
          "type": "address"
        },
        {
          "indexed": false,
          "internalType": "address",
          "name": "_pToken",
          "type": "address"
        },
        {
          "indexed": false,
          "internalType": "uint256",
          "name": "_amount",
          "type": "uint256"
        }
      ],
      "name": "Deposit",
      "type": "event"
    },
    {
      "anonymous": false,
      "inputs": [
        {
          "indexed": true,
          "internalType": "address",
          "name": "previousGovernor",
          "type": "address"
        },
        {
          "indexed": true,
          "internalType": "address",
          "name": "newGovernor",
          "type": "address"
        }
      ],
      "name": "GovernorshipTransferred",
      "type": "event"
    },
    {
      "anonymous": false,
      "inputs": [
        {
          "indexed": false,
          "internalType": "address",
          "name": "_oldHarvesterAddress",
          "type": "address"
        },
        {
          "indexed": false,
          "internalType": "address",
          "name": "_newHarvesterAddress",
          "type": "address"
        }
      ],
      "name": "HarvesterAddressesUpdated",
      "type": "event"
    },
    {
      "anonymous": false,
      "inputs": [
        {
          "indexed": true,
          "internalType": "address",
          "name": "_asset",
          "type": "address"
        },
        {
          "indexed": false,
          "internalType": "address",
          "name": "_pToken",
          "type": "address"
        }
      ],
      "name": "PTokenAdded",
      "type": "event"
    },
    {
      "anonymous": false,
      "inputs": [
        {
          "indexed": true,
          "internalType": "address",
          "name": "_asset",
          "type": "address"
        },
        {
          "indexed": false,
          "internalType": "address",
          "name": "_pToken",
          "type": "address"
        }
      ],
      "name": "PTokenRemoved",
      "type": "event"
    },
    {
      "anonymous": false,
      "inputs": [
        {
          "indexed": true,
          "internalType": "address",
          "name": "previousGovernor",
          "type": "address"
        },
        {
          "indexed": true,
          "internalType": "address",
          "name": "newGovernor",
          "type": "address"
        }
      ],
      "name": "PendingGovernorshipTransfer",
      "type": "event"
    },
    {
      "anonymous": false,
      "inputs": [
        {
          "indexed": false,
          "internalType": "address[]",
          "name": "_oldAddresses",
          "type": "address[]"
        },
        {
          "indexed": false,
          "internalType": "address[]",
          "name": "_newAddresses",
          "type": "address[]"
        }
      ],
      "name": "RewardTokenAddressesUpdated",
      "type": "event"
    },
    {
      "anonymous": false,
      "inputs": [
        {
          "indexed": false,
          "internalType": "address",
          "name": "recipient",
          "type": "address"
        },
        {
          "indexed": false,
          "internalType": "address",
          "name": "rewardToken",
          "type": "address"
        },
        {
          "indexed": false,
          "internalType": "uint256",
          "name": "amount",
          "type": "uint256"
        }
      ],
      "name": "RewardTokenCollected",
      "type": "event"
    },
    {
      "anonymous": false,
      "inputs": [
        {
          "indexed": false,
          "internalType": "string",
          "name": "_message",
          "type": "string"
        },
        {
          "indexed": false,
          "internalType": "address",
          "name": "_asset",
          "type": "address"
        },
        {
          "indexed": false,
          "internalType": "uint256",
          "name": "_number",
          "type": "uint256"
        }
      ],
      "name": "TransferLog",
      "type": "event"
    },
    {
      "anonymous": false,
      "inputs": [
        {
          "indexed": true,
          "internalType": "address",
          "name": "_asset",
          "type": "address"
        },
        {
          "indexed": false,
          "internalType": "address",
          "name": "_pToken",
          "type": "address"
        },
        {
          "indexed": false,
          "internalType": "uint256",
          "name": "_amount",
          "type": "uint256"
        }
      ],
      "name": "Withdrawal",
      "type": "event"
    },
    {
      "inputs": [],
      "name": "BASIS_POINTS_FOR_SLIPPAGE",
      "outputs": [
        {
          "internalType": "uint256",
          "name": "",
          "type": "uint256"
        }
      ],
      "stateMutability": "view",
      "type": "function"
    },
    {
      "inputs": [],
      "name": "MAX_SLIPPAGE",
      "outputs": [
        {
          "internalType": "uint256",
          "name": "",
          "type": "uint256"
        }
      ],
      "stateMutability": "view",
      "type": "function"
    },
    {
      "inputs": [],
      "name": "MAX_VALUE",
      "outputs": [
        {
          "internalType": "int256",
          "name": "",
          "type": "int256"
        }
      ],
      "stateMutability": "view",
      "type": "function"
    },
    {
      "inputs": [],
      "name": "_deprecated_rewardLiquidationThreshold",
      "outputs": [
        {
          "internalType": "uint256",
          "name": "",
          "type": "uint256"
        }
      ],
      "stateMutability": "view",
      "type": "function"
    },
    {
      "inputs": [],
      "name": "_deprecated_rewardTokenAddress",
      "outputs": [
        {
          "internalType": "address",
          "name": "",
          "type": "address"
        }
      ],
      "stateMutability": "view",
      "type": "function"
    },
    {
      "inputs": [
        {
          "internalType": "address",
          "name": "",
          "type": "address"
        }
      ],
      "name": "assetToDenominator",
      "outputs": [
        {
          "internalType": "uint256",
          "name": "",
          "type": "uint256"
        }
      ],
      "stateMutability": "view",
      "type": "function"
    },
    {
      "inputs": [
        {
          "internalType": "address",
          "name": "",
          "type": "address"
        }
      ],
      "name": "assetToPToken",
      "outputs": [
        {
          "internalType": "address",
          "name": "",
          "type": "address"
        }
      ],
      "stateMutability": "view",
      "type": "function"
    },
    {
      "inputs": [],
      "name": "balancerVault",
      "outputs": [
        {
          "internalType": "address",
          "name": "",
          "type": "address"
        }
      ],
      "stateMutability": "view",
      "type": "function"
    },
    {
      "inputs": [],
      "name": "checkBalance",
      "outputs": [
        {
          "internalType": "uint256",
          "name": "",
          "type": "uint256"
        }
      ],
      "stateMutability": "view",
      "type": "function"
    },
    {
      "inputs": [],
      "name": "claimGovernance",
      "outputs": [],
      "stateMutability": "nonpayable",
      "type": "function"
    },
    {
      "inputs": [],
      "name": "collectRewardTokens",
      "outputs": [],
      "stateMutability": "nonpayable",
      "type": "function"
    },
    {
      "inputs": [
        {
          "internalType": "address",
          "name": "_asset",
          "type": "address"
        },
        {
          "internalType": "uint256",
          "name": "_amount",
          "type": "uint256"
        }
      ],
      "name": "deposit",
      "outputs": [],
      "stateMutability": "nonpayable",
      "type": "function"
    },
    {
      "inputs": [],
      "name": "depositAll",
      "outputs": [],
      "stateMutability": "nonpayable",
      "type": "function"
    },
    {
      "inputs": [],
      "name": "getRewardTokenAddresses",
      "outputs": [
        {
          "internalType": "address[]",
          "name": "",
          "type": "address[]"
        }
      ],
      "stateMutability": "view",
      "type": "function"
    },
    {
      "inputs": [],
      "name": "governor",
      "outputs": [
        {
          "internalType": "address",
          "name": "",
          "type": "address"
        }
      ],
      "stateMutability": "view",
      "type": "function"
    },
    {
      "inputs": [],
      "name": "harvesterAddress",
      "outputs": [
        {
          "internalType": "address",
          "name": "",
          "type": "address"
        }
      ],
      "stateMutability": "view",
      "type": "function"
    },
    {
      "inputs": [
        {
          "internalType": "address",
          "name": "_platformAddress",
          "type": "address"
        },
        {
          "internalType": "address",
          "name": "_vaultAddress",
          "type": "address"
        },
        {
          "internalType": "address[]",
          "name": "_rewardTokenAddresses",
          "type": "address[]"
        },
        {
          "internalType": "address[]",
          "name": "_assets",
          "type": "address[]"
        },
        {
          "internalType": "address[]",
          "name": "_pTokens",
          "type": "address[]"
        },
        {
          "internalType": "address",
          "name": "_primaryStable",
          "type": "address"
        },
        {
          "internalType": "address",
          "name": "_router",
          "type": "address"
        },
        {
          "internalType": "address",
          "name": "_staker",
          "type": "address"
        },
        {
          "internalType": "address",
          "name": "_rewardToken",
          "type": "address"
        }
      ],
      "name": "initialize",
      "outputs": [],
      "stateMutability": "nonpayable",
      "type": "function"
    },
    {
      "inputs": [
        {
          "internalType": "address",
          "name": "_platformAddress",
          "type": "address"
        },
        {
          "internalType": "address",
          "name": "_vaultAddress",
          "type": "address"
        },
        {
          "internalType": "address[]",
          "name": "_rewardTokenAddresses",
          "type": "address[]"
        },
        {
          "internalType": "address[]",
          "name": "_assets",
          "type": "address[]"
        },
        {
          "internalType": "address[]",
          "name": "_pTokens",
          "type": "address[]"
        }
      ],
      "name": "initialize",
      "outputs": [],
      "stateMutability": "nonpayable",
      "type": "function"
    },
    {
      "inputs": [],
      "name": "isGovernor",
      "outputs": [
        {
          "internalType": "bool",
          "name": "",
          "type": "bool"
        }
      ],
      "stateMutability": "view",
      "type": "function"
    },
    {
      "inputs": [],
      "name": "platformAddress",
      "outputs": [
        {
          "internalType": "address",
          "name": "",
          "type": "address"
        }
      ],
      "stateMutability": "view",
      "type": "function"
    },
    {
      "inputs": [],
      "name": "poolId",
      "outputs": [
        {
          "internalType": "bytes32",
          "name": "",
          "type": "bytes32"
        }
      ],
      "stateMutability": "view",
      "type": "function"
    },
    {
      "inputs": [],
      "name": "primaryStable",
      "outputs": [
        {
          "internalType": "contract IERC20",
          "name": "",
          "type": "address"
        }
      ],
      "stateMutability": "view",
      "type": "function"
    },
    {
      "inputs": [],
      "name": "quickDragon",
      "outputs": [
        {
          "internalType": "contract IERC20",
          "name": "",
          "type": "address"
        }
      ],
      "stateMutability": "view",
      "type": "function"
    },
    {
      "inputs": [],
      "name": "quickSwapPair",
      "outputs": [
        {
          "internalType": "contract IUniswapV2Pair",
          "name": "",
          "type": "address"
        }
      ],
      "stateMutability": "view",
      "type": "function"
    },
    {
      "inputs": [],
      "name": "quickSwapPairStaker",
      "outputs": [
        {
          "internalType": "contract IStakingRewards",
          "name": "",
          "type": "address"
        }
      ],
      "stateMutability": "view",
      "type": "function"
    },
    {
      "inputs": [],
      "name": "quickTokenNew",
      "outputs": [
        {
          "internalType": "contract IERC20",
          "name": "",
          "type": "address"
        }
      ],
      "stateMutability": "view",
      "type": "function"
    },
    {
      "inputs": [
        {
          "internalType": "uint256",
          "name": "_assetIndex",
          "type": "uint256"
        }
      ],
      "name": "removePToken",
      "outputs": [],
      "stateMutability": "nonpayable",
      "type": "function"
    },
    {
      "inputs": [
        {
          "internalType": "uint256",
          "name": "",
          "type": "uint256"
        }
      ],
      "name": "rewardTokenAddresses",
      "outputs": [
        {
          "internalType": "address",
          "name": "",
          "type": "address"
        }
      ],
      "stateMutability": "view",
      "type": "function"
    },
    {
      "inputs": [],
      "name": "safeApproveAllTokens",
      "outputs": [],
      "stateMutability": "nonpayable",
      "type": "function"
    },
    {
      "inputs": [
        {
          "internalType": "address",
          "name": "_balancerVault",
          "type": "address"
        },
        {
          "internalType": "bytes32",
          "name": "_balancerPoolId",
          "type": "bytes32"
        }
      ],
      "name": "setBalancer",
      "outputs": [],
      "stateMutability": "nonpayable",
      "type": "function"
    },
    {
      "inputs": [
        {
          "internalType": "address",
          "name": "_harvesterAddress",
          "type": "address"
        }
      ],
      "name": "setHarvesterAddress",
      "outputs": [],
      "stateMutability": "nonpayable",
      "type": "function"
    },
    {
      "inputs": [
        {
          "internalType": "address",
          "name": "_asset",
          "type": "address"
        },
        {
          "internalType": "address",
          "name": "_pToken",
          "type": "address"
        }
      ],
      "name": "setPTokenAddress",
      "outputs": [],
      "stateMutability": "nonpayable",
      "type": "function"
    },
    {
      "inputs": [
        {
          "internalType": "address[]",
          "name": "_rewardTokenAddresses",
          "type": "address[]"
        }
      ],
      "name": "setRewardTokenAddresses",
      "outputs": [],
      "stateMutability": "nonpayable",
      "type": "function"
    },
    {
      "inputs": [
        {
          "internalType": "address",
          "name": "_asset",
          "type": "address"
        }
      ],
      "name": "supportsAsset",
      "outputs": [
        {
          "internalType": "bool",
          "name": "",
          "type": "bool"
        }
      ],
      "stateMutability": "view",
      "type": "function"
    },
    {
      "inputs": [],
      "name": "token0",
      "outputs": [
        {
          "internalType": "contract IERC20",
          "name": "",
          "type": "address"
        }
      ],
      "stateMutability": "view",
      "type": "function"
    },
    {
      "inputs": [],
      "name": "token1",
      "outputs": [
        {
          "internalType": "contract IERC20",
          "name": "",
          "type": "address"
        }
      ],
      "stateMutability": "view",
      "type": "function"
    },
    {
      "inputs": [
        {
          "internalType": "address",
          "name": "_newGovernor",
          "type": "address"
        }
      ],
      "name": "transferGovernance",
      "outputs": [],
      "stateMutability": "nonpayable",
      "type": "function"
    },
    {
      "inputs": [
        {
          "internalType": "address",
          "name": "_asset",
          "type": "address"
        },
        {
          "internalType": "uint256",
          "name": "_amount",
          "type": "uint256"
        }
      ],
      "name": "transferToken",
      "outputs": [],
      "stateMutability": "nonpayable",
      "type": "function"
    },
    {
      "inputs": [],
      "name": "vaultAddress",
      "outputs": [
        {
          "internalType": "address",
          "name": "",
          "type": "address"
        }
      ],
      "stateMutability": "view",
      "type": "function"
    },
    {
      "inputs": [
        {
          "internalType": "address",
          "name": "_beneficiary",
          "type": "address"
        },
        {
          "internalType": "address",
          "name": "_asset",
          "type": "address"
        },
        {
          "internalType": "uint256",
          "name": "_amount",
          "type": "uint256"
        }
      ],
      "name": "withdraw",
      "outputs": [],
      "stateMutability": "nonpayable",
      "type": "function"
    },
    {
      "inputs": [],
      "name": "withdrawAll",
      "outputs": [],
      "stateMutability": "nonpayable",
      "type": "function"
    }
  ],
  "transactionHash": "0xfbae2d8546d46d6be20befdd15cbade6174d759aa0111c0e762634a91df26f46",
  "args": [],
  "solcInputHash": "687ed9fa5cffd3a4c7a6373a1d9ad1d9",
  "bytecode": "0x60806040523480156200001157600080fd5b506200002a33600080516020620055b683398151915255565b600080516020620055b6833981519152546040516001600160a01b03909116906000907fc7c0c772add429241571afb3805861fb3cfa2af374534088b76cdb4325a87e9a908290a361553480620000826000396000f3fe608060405234801561001057600080fd5b50600436106102535760003560e01c80638eac222311610146578063c7af3352116100c3578063dbe55e5611610087578063dbe55e561461050c578063de5f62681461051f578063f664b3d914610527578063f6ca71b01461052f578063f817bc6314610544578063f97595181461054d57600080fd5b8063c7af3352146104b6578063d21220a7146104be578063d2f24893146104d2578063d38bfff4146104e6578063d9caed12146104f957600080fd5b8063a95329f41161010a578063a95329f414610454578063aa388af614610468578063ad1728cb146102e6578063c2e1e3f41461049b578063c71daccb146104ae57600080fd5b80638eac2223146103f55780639136616a146104085780639688d2fc1461041b57806396d538bb1461042e578063997781d61461044157600080fd5b80632e655201116101d45780635bdd18d6116101985780635bdd18d6146103ab5780635d36b190146103bf57806367c7066c146103c75780637b2d9b2c146103da578063853828b6146103ed57600080fd5b80632e655201146103605780633e0dc34e14610373578063430bf08a1461037d57806347e7ef24146103905780635a063f63146103a357600080fd5b80630fc3b4c41161021b5780630fc3b4c4146102e85780631072cbea146103115780631380e1d614610324578063158274a5146103385780632a4d90a41461034c57600080fd5b8063063bde24146102585780630b7132cf1461027e5780630c340a241461029f5780630dfe1681146102bf5780630ed57b3a146102d3575b600080fd5b61026b6b033b2e3c9fd0803ce800000081565b6040519081526020015b60405180910390f35b61026b61028c366004614732565b6101076020526000908152604090205481565b6102a761055b565b6040516001600160a01b039091168152602001610275565b610100546102a7906001600160a01b031681565b6102e66102e136600461474f565b610578565b005b6102a76102f6366004614732565b6035602052600090815260409020546001600160a01b031681565b6102e661031f366004614997565b6105b3565b610104546102a7906001600160a01b031681565b610109546102a7906001600160a01b031681565b610108546102a7906001600160a01b031681565b6037546102a7906001600160a01b031681565b61026b6101065481565b6034546102a7906001600160a01b031681565b6102e661039e366004614997565b6105f3565b6102e6610694565b610105546102a7906001600160a01b031681565b6102e6610733565b6039546102a7906001600160a01b031681565b6102a76103e8366004614bb4565b6107d9565b6102e6610803565b6102e6610403366004614847565b610c2d565b6102e6610416366004614bb4565b611194565b6102e6610429366004614788565b61135f565b6102e661043c3660046149f6565b611468565b6102e661044f366004614997565b61158e565b610103546102a7906001600160a01b031681565b61048b610476366004614732565b610102546001600160a01b0391821691161490565b6040519015158152602001610275565b6102e66104a9366004614732565b61164d565b61026b6116cc565b61048b611a9c565b610101546102a7906001600160a01b031681565b610102546102a7906001600160a01b031681565b6102e66104f4366004614732565b611acd565b6102e6610507366004614956565b611b71565b6033546102a7906001600160a01b031681565b6102e6611f2c565b61026b600481565b610537612011565b6040516102759190614db4565b61026b60385481565b61026b662386f26fc1000081565b60006105736000805160206154df8339815191525490565b905090565b610580611a9c565b6105a55760405162461bcd60e51b815260040161059c90614f56565b60405180910390fd5b6105af8282612073565b5050565b6105bb611a9c565b6105d75760405162461bcd60e51b815260040161059c90614f56565b6105af6105e261055b565b6001600160a01b03841690836121d2565b6034546001600160a01b0316331461061d5760405162461bcd60e51b815260040161059c90614f1f565b6000805160206154bf8339815191528054600281141561064f5760405162461bcd60e51b815260040161059c90615009565b60028255610102546001600160a01b038581169116146106815760405162461bcd60e51b815260040161059c90614fdb565b61068b8484612224565b50600190555050565b6039546001600160a01b031633146106ee5760405162461bcd60e51b815260206004820152601b60248201527f43616c6c6572206973206e6f7420746865204861727665737465720000000000604482015260640161059c565b6000805160206154bf833981519152805460028114156107205760405162461bcd60e51b815260040161059c90615009565b6002825561072c612588565b5060019055565b7f7eaf9a7750884803435dfabc67aa617a7d8fefb23d8d84b3c9722bd69e48c4bc546001600160a01b0316336001600160a01b0316146107ce5760405162461bcd60e51b815260206004820152603060248201527f4f6e6c79207468652070656e64696e6720476f7665726e6f722063616e20636f60448201526f6d706c6574652074686520636c61696d60801b606482015260840161059c565b6107d733612814565b565b603a81815481106107e957600080fd5b6000918252602090912001546001600160a01b0316905081565b6034546001600160a01b0316331480610834575061081f61055b565b6001600160a01b0316336001600160a01b0316145b61088c5760405162461bcd60e51b815260206004820152602360248201527f43616c6c6572206973206e6f7420746865205661756c74206f7220476f7665726044820152623737b960e91b606482015260840161059c565b6000805160206154bf833981519152805460028114156108be5760405162461bcd60e51b815260040161059c90615009565b6002825560008061010560009054906101000a90046001600160a01b03166001600160a01b0316630902f1ac6040518163ffffffff1660e01b815260040160606040518083038186803b15801561091457600080fd5b505afa158015610928573d6000803e3d6000fd5b505050506040513d601f19601f8201168201806040525081019061094c9190614b64565b506001600160701b031691506001600160701b0316915061096b6128d8565b610105546040516370a0823160e01b81523060048201526000916001600160a01b0316906370a082319060240160206040518083038186803b1580156109b057600080fd5b505afa1580156109c4573d6000803e3d6000fd5b505050506040513d601f19601f820116820180604052508101906109e89190614bcd565b90508015610ae75761010554604080516318160ddd60e01b815290516000926001600160a01b0316916318160ddd916004808301926020929190829003018186803b158015610a3657600080fd5b505afa158015610a4a573d6000803e3d6000fd5b505050506040513d601f19601f82011682018060405250810190610a6e9190614bcd565b9050600081610a7d848761537b565b610a87919061526b565b9050600082610a96858761537b565b610aa0919061526b565b610100546101015461010554929350610ae1926001600160a01b0392831692918216911687610ad087600461293d565b610adb87600461293d565b30612969565b50505050505b610aef612acd565b610105546040516370a0823160e01b81523060048201526001600160a01b03909116906370a082319060240160206040518083038186803b158015610b3357600080fd5b505afa158015610b47573d6000803e3d6000fd5b505050506040513d601f19601f82011682018060405250810190610b6b9190614bcd565b90508015610b7b57610b7b612d0c565b610102546040516370a0823160e01b81523060048201526000916001600160a01b0316906370a082319060240160206040518083038186803b158015610bc057600080fd5b505afa158015610bd4573d6000803e3d6000fd5b505050506040513d601f19601f82011682018060405250810190610bf89190614bcd565b60345461010254919250610c19916001600160a01b039081169116836121d2565b610c21612588565b50505050600182555050565b610c35611a9c565b610c515760405162461bcd60e51b815260040161059c90614f56565b600054610100900460ff1680610c6a575060005460ff16155b610c865760405162461bcd60e51b815260040161059c90614f8d565b600054610100900460ff16158015610ca8576000805461ffff19166101011790555b60008b8b8281610cba57610cba61547d565b9050602002016020810190610ccf9190614732565b6001600160a01b03161415610cf65760405162461bcd60e51b815260040161059c90615031565b600087878281610d0857610d0861547d565b9050602002016020810190610d1d9190614732565b6001600160a01b03161415610d445760405162461bcd60e51b815260040161059c90615031565b6001600160a01b038d16610d6a5760405162461bcd60e51b815260040161059c90615031565b6001600160a01b038416610d905760405162461bcd60e51b815260040161059c90615031565b6001600160a01b038316610db65760405162461bcd60e51b815260040161059c90615031565b6001600160a01b038216610ddc5760405162461bcd60e51b815260040161059c90615031565b88886000818110610def57610def61547d565b9050602002016020810190610e049190614732565b61010080546001600160a01b0319166001600160a01b039290921691909117905588886001818110610e3857610e3861547d565b9050602002016020810190610e4d9190614732565b61010160006101000a8154816001600160a01b0302191690836001600160a01b031602179055508461010260006101000a8154816001600160a01b0302191690836001600160a01b031602179055508c61010360006101000a8154816001600160a01b0302191690836001600160a01b031602179055508161010460006101000a8154816001600160a01b0302191690836001600160a01b03160217905550600089899050905060005b81811015610ff9578a8a82818110610f1157610f1161547d565b9050602002016020810190610f269190614732565b6001600160a01b031663313ce5676040518163ffffffff1660e01b815260040160206040518083038186803b158015610f5e57600080fd5b505afa158015610f72573d6000803e3d6000fd5b505050506040513d601f19601f82011682018060405250810190610f969190614c38565b610fa190600a6152d0565b61010760008d8d85818110610fb857610fb861547d565b9050602002016020810190610fcd9190614732565b6001600160a01b0316815260208101919091526040016000205580610ff181615400565b915050610ef7565b508787600081811061100d5761100d61547d565b90506020020160208101906110229190614732565b61010580546001600160a01b03199081166001600160a01b039384161790915561010880548216878416179055609d80549091169187169190911790556110e18e8e8e8e8e8e80806020026020016040519081016040528093929190818152602001838360200280828437600081840152601f19601f820116905080830192505050505050508d8d80806020026020016040519081016040528093929190818152602001838360200280828437600092019190915250612e7992505050565b6111348a8a60008181106110f7576110f761547d565b905060200201602081019061110c9190614732565b8989600081811061111f5761111f61547d565b90506020020160208101906105af9190614732565b6111728a8a600181811061114a5761114a61547d565b905060200201602081019061115f9190614732565b8989600181811061111f5761111f61547d565b508015611185576000805461ff00191690555b50505050505050505050505050565b61119c611a9c565b6111b85760405162461bcd60e51b815260040161059c90614f56565b60365481106111f95760405162461bcd60e51b815260206004820152600d60248201526c092dcecc2d8d2c840d2dcc8caf609b1b604482015260640161059c565b60006036828154811061120e5761120e61547d565b60009182526020808320909101546001600160a01b0390811680845260359092526040909220546036549193509091169061124b9060019061539a565b8310156112cd57603680546112629060019061539a565b815481106112725761127261547d565b600091825260209091200154603680546001600160a01b03909216918590811061129e5761129e61547d565b9060005260206000200160006101000a8154816001600160a01b0302191690836001600160a01b031602179055505b60368054806112de576112de615467565b60008281526020808220600019908401810180546001600160a01b031990811690915593019093556001600160a01b038581168083526035855260409283902080549094169093559051908416815290917f16b7600acff27e39a8a96056b3d533045298de927507f5c1d97e4accde60488c910160405180910390a2505050565b611367611a9c565b6113835760405162461bcd60e51b815260040161059c90614f56565b600054610100900460ff168061139c575060005460ff16155b6113b85760405162461bcd60e51b815260040161059c90614f8d565b600054610100900460ff161580156113da576000805461ffff19166101011790555b61144b8989898989898080602002602001604051908101604052809392919081815260200183836020028082843760009201919091525050604080516020808d0282810182019093528c82529093508c92508b918291850190849080828437600092019190915250612e7992505050565b801561145d576000805461ff00191690555b505050505050505050565b611470611a9c565b61148c5760405162461bcd60e51b815260040161059c90614f56565b60005b818110156115405760008383838181106114ab576114ab61547d565b90506020020160208101906114c09190614732565b6001600160a01b0316141561152e5760405162461bcd60e51b815260206004820152602e60248201527f43616e206e6f742073657420616e20656d70747920616464726573732061732060448201526d30903932bbb0b932103a37b5b2b760911b606482015260840161059c565b8061153881615400565b91505061148f565b507f04c0b9649497d316554306e53678d5f5f5dbc3a06f97dec13ff4cfe98b986bbc603a838360405161157593929190614dc7565b60405180910390a1611589603a83836145d5565b505050565b611596611a9c565b6115b25760405162461bcd60e51b815260040161059c90614f56565b6001600160a01b0382166115d85760405162461bcd60e51b815260040161059c90615031565b806116255760405162461bcd60e51b815260206004820152601960248201527f456d70747920706f6f6c206964206e6f7420616c6c6f77656400000000000000604482015260640161059c565b61010980546001600160a01b0319166001600160a01b03939093169290921790915561010655565b611655611a9c565b6116715760405162461bcd60e51b815260040161059c90614f56565b603980546001600160a01b0319166001600160a01b0383169081179091556040805182815260208101929092527fe48386b84419f4d36e0f96c10cc3510b6fb1a33795620c5098b22472bbe90796910160405180910390a150565b610100546040516370a0823160e01b815230600482015260009182916001600160a01b03909116906370a082319060240160206040518083038186803b15801561171557600080fd5b505afa158015611729573d6000803e3d6000fd5b505050506040513d601f19601f8201168201806040525081019061174d9190614bcd565b610101546040516370a0823160e01b81523060048201529192506000916001600160a01b03909116906370a082319060240160206040518083038186803b15801561179757600080fd5b505afa1580156117ab573d6000803e3d6000fd5b505050506040513d601f19601f820116820180604052508101906117cf9190614bcd565b610108546040516370a0823160e01b81523060048201529192506000916001600160a01b03909116906370a082319060240160206040518083038186803b15801561181957600080fd5b505afa15801561182d573d6000803e3d6000fd5b505050506040513d601f19601f820116820180604052508101906118519190614bcd565b905080156119ba5761010554604080516318160ddd60e01b815290516000926001600160a01b0316916318160ddd916004808301926020929190829003018186803b15801561189f57600080fd5b505afa1580156118b3573d6000803e3d6000fd5b505050506040513d601f19601f820116820180604052508101906118d79190614bcd565b905060008061010560009054906101000a90046001600160a01b03166001600160a01b0316630902f1ac6040518163ffffffff1660e01b815260040160606040518083038186803b15801561192b57600080fd5b505afa15801561193f573d6000803e3d6000fd5b505050506040513d601f19601f820116820180604052508101906119639190614b64565b506001600160701b0391821693501690508261197f858461537b565b611989919061526b565b6119939087615253565b9550826119a0858361537b565b6119aa919061526b565b6119b49086615253565b94505050505b61010254610100546000916001600160a01b03918216911614611a14578315611a0f5761010954610106546101005461010254611a0c936001600160a01b039081169392600092908216911689612f58565b90505b611a21565b611a1e8482615253565b90505b61010254610101546000916001600160a01b03918216911614611a7b578315611a765761010954610106546101015461010254611a73936001600160a01b039081169392600092908216911689612f58565b90505b611a88565b611a858482615253565b90505b611a928183615253565b9550505050505090565b6000611ab46000805160206154df8339815191525490565b6001600160a01b0316336001600160a01b031614905090565b611ad5611a9c565b611af15760405162461bcd60e51b815260040161059c90614f56565b611b19817f7eaf9a7750884803435dfabc67aa617a7d8fefb23d8d84b3c9722bd69e48c4bc55565b806001600160a01b0316611b396000805160206154df8339815191525490565b6001600160a01b03167fa39cc5eb22d0f34d8beaefee8a3f17cc229c1a1d1ef87a5ad47313487b1c4f0d60405160405180910390a350565b6034546001600160a01b03163314611b9b5760405162461bcd60e51b815260040161059c90614f1f565b6000805160206154bf83398151915280546002811415611bcd5760405162461bcd60e51b815260040161059c90615009565b60028255610102546001600160a01b03858116911614611bff5760405162461bcd60e51b815260040161059c90614fdb565b60008061010560009054906101000a90046001600160a01b03166001600160a01b0316630902f1ac6040518163ffffffff1660e01b815260040160606040518083038186803b158015611c5157600080fd5b505afa158015611c65573d6000803e3d6000fd5b505050506040513d601f19601f82011682018060405250810190611c899190614b64565b50610108546040516370a0823160e01b81523060048201526001600160701b0393841695509190921692506000916001600160a01b0316906370a082319060240160206040518083038186803b158015611ce257600080fd5b505afa158015611cf6573d6000803e3d6000fd5b505050506040513d601f19601f82011682018060405250810190611d1a9190614bcd565b90508015611e7d5761010554604080516318160ddd60e01b815290516000926001600160a01b0316916318160ddd916004808301926020929190829003018186803b158015611d6857600080fd5b505afa158015611d7c573d6000803e3d6000fd5b505050506040513d601f19601f82011682018060405250810190611da09190614bcd565b61010954909150600090611e02906001600160a01b0316611dc28a6004613439565b610100546001600160a01b03908116600081815261010760205260408082205461010154909416808352912054610106548c948c948b9491939291613448565b905082811115611e0f5750815b600082611e1c838861537b565b611e26919061526b565b9050600083611e35848861537b565b611e3f919061526b565b9050611e4a83613528565b610100546101015461010554611e76926001600160a01b03908116928116911686610ad087600461293d565b5050505050505b611e85612acd565b610102546040516370a0823160e01b81523060048201526000916001600160a01b0316906370a082319060240160206040518083038186803b158015611eca57600080fd5b505afa158015611ede573d6000803e3d6000fd5b505050506040513d601f19601f82011682018060405250810190611f029190614bcd565b61010254909150611f1d906001600160a01b03168a836121d2565b50505050600182555050505050565b6034546001600160a01b03163314611f565760405162461bcd60e51b815260040161059c90614f1f565b6000805160206154bf83398151915280546002811415611f885760405162461bcd60e51b815260040161059c90615009565b60028255610102546040516370a0823160e01b815230600482015261072c916001600160a01b03169081906370a082319060240160206040518083038186803b158015611fd457600080fd5b505afa158015611fe8573d6000803e3d6000fd5b505050506040513d601f19601f8201168201806040525081019061200c9190614bcd565b612224565b6060603a80548060200260200160405190810160405280929190818152602001828054801561206957602002820191906000526020600020905b81546001600160a01b0316815260019091019060200180831161204b575b5050505050905090565b6001600160a01b0382811660009081526035602052604090205416156120d05760405162461bcd60e51b81526020600482015260126024820152711c151bdad95b88185b1c9958591e481cd95d60721b604482015260640161059c565b6001600160a01b038216158015906120f057506001600160a01b03811615155b6121305760405162461bcd60e51b8152602060048201526011602482015270496e76616c69642061646472657373657360781b604482015260640161059c565b6001600160a01b03828116600081815260356020908152604080832080549587166001600160a01b031996871681179091556036805460018101825594527f4a11f94e20a93c79f6ec743a1954ec4fc2c08429ae2122118bf234b2185c81b890930180549095168417909455925190815290917fef6485b84315f9b1483beffa32aae9a0596890395e3d7521f1c5fbb51790e765910160405180910390a25050565b604080516001600160a01b038416602482015260448082018490528251808303909101815260649091019091526020810180516001600160e01b031663a9059cbb60e01b17905261158990849061355a565b610102546001600160a01b038381169116146122525760405162461bcd60e51b815260040161059c90614fdb565b60008061225d61362c565b91509150612269613855565b610101546040516370a0823160e01b81523060048201526000916001600160a01b0316906370a082319060240160206040518083038186803b1580156122ae57600080fd5b505afa1580156122c2573d6000803e3d6000fd5b505050506040513d601f19601f820116820180604052508101906122e69190614bcd565b905060008115612322576101095461010654610101546101005461231f936001600160a01b039081169392600092908216911687612f58565b90505b610100546040516370a0823160e01b81523060048201526000916001600160a01b0316906370a082319060240160206040518083038186803b15801561236757600080fd5b505afa15801561237b573d6000803e3d6000fd5b505050506040513d601f19601f8201168201806040525081019061239f9190614bcd565b6101095490915060009061240c906001600160a01b03166123c160028661526b565b6123cb908561539a565b610100546001600160a01b03908116600081815261010760205260408082205461010154909416808352912054610106548d948d9490936001929190613921565b6101095461010654610100546101015493945061243f936001600160a01b03938416936000928116911630808885613a30565b50610100546040516370a0823160e01b81523060048201526001600160a01b03909116906370a082319060240160206040518083038186803b15801561248457600080fd5b505afa158015612498573d6000803e3d6000fd5b505050506040513d601f19601f820116820180604052508101906124bc9190614bcd565b610101546040516370a0823160e01b81523060048201529193506001600160a01b0316906370a082319060240160206040518083038186803b15801561250157600080fd5b505afa158015612515573d6000803e3d6000fd5b505050506040513d601f19601f820116820180604052508101906125399190614bcd565b6101005461010154919550612573916001600160a01b039182169116848761256282600461293d565b61256d8a600461293d565b30613dbf565b50505061257e612d0c565b5050505050505050565b61010860009054906101000a90046001600160a01b03166001600160a01b0316633d18b9126040518163ffffffff1660e01b8152600401600060405180830381600087803b1580156125d957600080fd5b505af11580156125ed573d6000803e3d6000fd5b5050610104546040516370a0823160e01b8152306004820152600093508392506001600160a01b03909116906370a082319060240160206040518083038186803b15801561263a57600080fd5b505afa15801561264e573d6000803e3d6000fd5b505050506040513d601f19601f820116820180604052508101906126729190614bcd565b905080156126ad57610104546101025460009161269d916001600160a01b0391821691168430613fb9565b90506126a98184615253565b9250505b610102546040516370a0823160e01b81523060048201526000916001600160a01b0316906370a082319060240160206040518083038186803b1580156126f257600080fd5b505afa158015612706573d6000803e3d6000fd5b505050506040513d601f19601f8201168201806040525081019061272a9190614bcd565b905080156115895760395461010254604080516001600160a01b03938416815292909116602083015281018290527ff6c07a063ed4e63808eb8da7112d46dbcd38de2b40a73dbcc9353c5a94c723539060600160405180910390a16101025460395460405163a9059cbb60e01b81526001600160a01b0391821660048201526024810184905291169063a9059cbb90604401602060405180830381600087803b1580156127d657600080fd5b505af11580156127ea573d6000803e3d6000fd5b505050506040513d601f19601f8201168201806040525081019061280e9190614b42565b50505050565b6001600160a01b03811661286a5760405162461bcd60e51b815260206004820152601a60248201527f4e657720476f7665726e6f722069732061646472657373283029000000000000604482015260640161059c565b806001600160a01b031661288a6000805160206154df8339815191525490565b6001600160a01b03167fc7c0c772add429241571afb3805861fb3cfa2af374534088b76cdb4325a87e9a60405160405180910390a36128d5816000805160206154df83398151915255565b50565b61010860009054906101000a90046001600160a01b03166001600160a01b031663e9fad8ee6040518163ffffffff1660e01b8152600401600060405180830381600087803b15801561292957600080fd5b505af115801561280e573d6000803e3d6000fd5b600061271061294c838261539a565b612956908561537b565b612960919061526b565b90505b92915050565b609d5460405163095ea7b360e01b81526001600160a01b0391821660048201526024810186905260009182919088169063095ea7b390604401602060405180830381600087803b1580156129bc57600080fd5b505af11580156129d0573d6000803e3d6000fd5b505050506040513d601f19601f820116820180604052508101906129f49190614b42565b50609d546001600160a01b031663baa2abde8a8a89898989612a1842610258615253565b60405160e089901b6001600160e01b03191681526001600160a01b039788166004820152958716602487015260448601949094526064850192909252608484015290921660a482015260c481019190915260e4016040805180830381600087803b158015612a8557600080fd5b505af1158015612a99573d6000803e3d6000fd5b505050506040513d601f19601f82011682018060405250810190612abd9190614be6565b9150915097509795505050505050565b61010254610100546001600160a01b03908116911614801590612b6a5750610100546040516370a0823160e01b81523060048201526000916001600160a01b0316906370a082319060240160206040518083038186803b158015612b3057600080fd5b505afa158015612b44573d6000803e3d6000fd5b505050506040513d601f19601f82011682018060405250810190612b689190614bcd565b115b15612c1757610109546101065461010054610102546040516370a0823160e01b81523060048201819052612c15956001600160a01b0390811695946000949082169391169190819084906370a08231906024015b60206040518083038186803b158015612bd657600080fd5b505afa158015612bea573d6000803e3d6000fd5b505050506040513d601f19601f82011682018060405250810190612c0e9190614bcd565b6000613a30565b505b61010254610101546001600160a01b03908116911614801590612cb45750610101546040516370a0823160e01b81523060048201526000916001600160a01b0316906370a082319060240160206040518083038186803b158015612c7a57600080fd5b505afa158015612c8e573d6000803e3d6000fd5b505050506040513d601f19601f82011682018060405250810190612cb29190614bcd565b115b156107d757610109546101065461010154610102546040516370a0823160e01b815230600482018190526128d5956001600160a01b0390811695946000949082169391169190819084906370a0823190602401612bbe565b610105546040516370a0823160e01b81523060048201526000916001600160a01b0316906370a082319060240160206040518083038186803b158015612d5157600080fd5b505afa158015612d65573d6000803e3d6000fd5b505050506040513d601f19601f82011682018060405250810190612d899190614bcd565b610105546101085460405163095ea7b360e01b81526001600160a01b03918216600482015260248101849052929350169063095ea7b390604401602060405180830381600087803b158015612ddd57600080fd5b505af1158015612df1573d6000803e3d6000fd5b505050506040513d601f19601f82011682018060405250810190612e159190614b42565b506101085460405163534a7e1d60e11b8152600481018390526001600160a01b039091169063a694fc3a906024015b600060405180830381600087803b158015612e5e57600080fd5b505af1158015612e72573d6000803e3d6000fd5b5050505050565b603380546001600160a01b038089166001600160a01b0319928316179092556034805492881692909116919091179055612eb5603a85856145d5565b50815181518114612eff5760405162461bcd60e51b8152602060048201526014602482015273496e76616c696420696e7075742061727261797360601b604482015260640161059c565b60005b8181101561257e57612f46848281518110612f1f57612f1f61547d565b6020026020010151848381518110612f3957612f3961547d565b6020026020010151612073565b80612f5081615400565b915050612f02565b604080516101208101825260008082526020820181905291810182905260608082018390526080820183905260a0820183905260c0820183905260e08201839052610100820152879080876001811115612fb457612fb4615451565b90816001811115612fc757612fc7615451565b9052506001600160a01b0386811660208301528581166040808401919091526060830186905251631f29a8cd60e31b8152600481018a905260009182919085169063f94d46689060240160006040518083038186803b15801561302957600080fd5b505afa15801561303d573d6000803e3d6000fd5b505050506040513d6000823e601f3d908101601f191682016040526130659190810190614a38565b5091509150600080856001600160a01b031663f6c009278d6040518263ffffffff1660e01b815260040161309b91815260200190565b604080518083038186803b1580156130b257600080fd5b505afa1580156130c6573d6000803e3d6000fd5b505050506040513d601f19601f820116820180604052508101906130ea91906149c3565b9092509050600081600281111561310357613103615451565b141561323c5760008060005b86518160ff1610156131ab578c6001600160a01b0316878260ff168151811061313a5761313a61547d565b60200260200101516001600160a01b0316141561315c578060ff169250613199565b8b6001600160a01b0316878260ff168151811061317b5761317b61547d565b60200260200101516001600160a01b03161415613199578060ff1691505b806131a38161541b565b91505061310f565b5060405162f64aa560e11b81526001600160a01b038516906301ec954a906131dd908a90899087908790600401615123565b60206040518083038186803b1580156131f557600080fd5b505afa158015613209573d6000803e3d6000fd5b505050506040513d601f19601f8201168201806040525081019061322d9190614bcd565b9850505050505050505061342f565b600181600281111561325057613250615451565b141561335b5760008060005b86518160ff16101561332a578c6001600160a01b0316878260ff16815181106132875761328761547d565b60200260200101516001600160a01b031614156132c257858160ff16815181106132b3576132b361547d565b60200260200101519250613318565b8b6001600160a01b0316878260ff16815181106132e1576132e161547d565b60200260200101516001600160a01b0316141561331857858160ff168151811061330d5761330d61547d565b602002602001015191505b806133228161541b565b91505061325c565b5060405163274b044360e21b81526001600160a01b03851690639d2c110c906131dd908a9086908690600401615184565b60008060005b86518160ff16101561332a578c6001600160a01b0316878260ff168151811061338c5761338c61547d565b60200260200101516001600160a01b031614156133c757858160ff16815181106133b8576133b861547d565b6020026020010151925061341d565b8b6001600160a01b0316878260ff16815181106133e6576133e661547d565b60200260200101516001600160a01b0316141561341d57858160ff16815181106134125761341261547d565b602002602001015191505b806134278161541b565b915050613361565b9695505050505050565b600061271061294c8382615253565b600080613455878a61537b565b61345f878c61537b565b6134699190615253565b866134748d8b61537b565b61347e919061537b565b613488919061526b565b905060005b6001811015613518576000896134a3848d61537b565b6134ad919061526b565b905060006134c08f896000898b87612f58565b90506134cc818d61537b565b6134d6838f61537b565b6134e09190615253565b828f8d6134ed919061537b565b6134f7919061537b565b613501919061526b565b93505050808061351090615400565b91505061348d565b509b9a5050505050505050505050565b61010854604051632e1a7d4d60e01b8152600481018390526001600160a01b0390911690632e1a7d4d90602401612e44565b60006135af826040518060400160405280602081526020017f5361666545524332303a206c6f772d6c6576656c2063616c6c206661696c6564815250856001600160a01b03166141a69092919063ffffffff16565b80519091501561158957808060200190518101906135cd9190614b42565b6115895760405162461bcd60e51b815260206004820152602a60248201527f5361666545524332303a204552433230206f7065726174696f6e20646964206e6044820152691bdd081cdd58d8d9595960b21b606482015260840161059c565b60008060008061010560009054906101000a90046001600160a01b03166001600160a01b0316630902f1ac6040518163ffffffff1660e01b815260040160606040518083038186803b15801561368157600080fd5b505afa158015613695573d6000803e3d6000fd5b505050506040513d601f19601f820116820180604052508101906136b99190614b64565b506001600160701b031691506001600160701b03169150600361010060009054906101000a90046001600160a01b03166001600160a01b031663313ce5676040518163ffffffff1660e01b815260040160206040518083038186803b15801561372157600080fd5b505afa158015613735573d6000803e3d6000fd5b505050506040513d601f19601f820116820180604052508101906137599190614c38565b61376391906153b1565b61376e90600a6152d0565b8211801561380d5750610101546040805163313ce56760e01b815290516003926001600160a01b03169163313ce567916004808301926020929190829003018186803b1580156137bd57600080fd5b505afa1580156137d1573d6000803e3d6000fd5b505050506040513d601f19601f820116820180604052508101906137f59190614c38565b6137ff91906153b1565b61380a90600a6152d0565b81115b61384c5760405162461bcd60e51b815260206004820152601060248201526f526573657276657320746f6f206c6f7760801b604482015260640161059c565b90939092509050565b610102546040516370a0823160e01b81523060048201526000916001600160a01b0316906370a082319060240160206040518083038186803b15801561389a57600080fd5b505afa1580156138ae573d6000803e3d6000fd5b505050506040513d601f19601f820116820180604052508101906138d29190614bcd565b61010054610102549192506001600160a01b039182169116146128d557610109546101065461010254610100546105af936001600160a01b039081169392600092908216911630808885613a30565b60008a8189896139318a8e61537b565b61393b919061526b565b6139459190615253565b61394f8b8e61537b565b613959919061526b565b905061398a6040518060400160405280600d81526020016c0616d6f756e7430546f5377617609c1b815250826141bf565b60005b87811015613a1f576139be6040518060400160405280600681526020016506f6e537761760d41b8152508787614204565b60006139cf8f8960008a8a88612f58565b90508b83828f6139df919061537b565b6139e9919061526b565b6139f39190615253565b8c8f6139ff919061537b565b613a09919061526b565b9250508080613a1790615400565b91505061398d565b509c9b505050505050505050505050565b6000808a9050613a716040518060400160405280601981526020017842616c616e6365725661756c743a207377617070696e67203160381b8152508261424b565b604080518082018252601981527842616c616e6365725661756c743a207377617070696e67203160381b602082015290516370a0823160e01b8152306004820152613b2291908a906001600160a01b038216906370a082319060240160206040518083038186803b158015613ae557600080fd5b505afa158015613af9573d6000803e3d6000fd5b505050506040513d601f19601f82011682018060405250810190613b1d9190614bcd565b614290565b6040516370a0823160e01b81523060048201526001600160a01b0389169063095ea7b390839083906370a082319060240160206040518083038186803b158015613b6b57600080fd5b505afa158015613b7f573d6000803e3d6000fd5b505050506040513d601f19601f82011682018060405250810190613ba39190614bcd565b6040516001600160e01b031960e085901b1681526001600160a01b0390921660048301526024820152604401602060405180830381600087803b158015613be957600080fd5b505af1158015613bfd573d6000803e3d6000fd5b505050506040513d601f19601f82011682018060405250810190613c219190614b42565b5082613c5d57613c358b8b8b8b8b89612f58565b9250613c5a613c53662386f26fc10000670de0b6b3a764000061539a565b84906142d7565b92505b613ca96040805160c0810190915260008082526020820190815260200160006001600160a01b0316815260200160006001600160a01b0316815260200160008152602001606081525090565b8a8152602081018a6001811115613cc257613cc2615451565b90816001811115613cd557613cd5615451565b9052506001600160a01b03898116604083810191909152898216606080850191909152608080850189905282519081018352600060208201819052918101919091528983168152888316918101919091529083166352bbbe29838388613d3d42610258615253565b6040518563ffffffff1660e01b8152600401613d5c9493929190615068565b602060405180830381600087803b158015613d7657600080fd5b505af1158015613d8a573d6000803e3d6000fd5b505050506040513d601f19601f82011682018060405250810190613dae9190614bcd565b9d9c50505050505050505050505050565b609d5460405163095ea7b360e01b81526001600160a01b03918216600482015260248101879052600091829182918b169063095ea7b390604401602060405180830381600087803b158015613e1357600080fd5b505af1158015613e27573d6000803e3d6000fd5b505050506040513d601f19601f82011682018060405250810190613e4b9190614b42565b50609d5460405163095ea7b360e01b81526001600160a01b03918216600482015260248101899052908a169063095ea7b390604401602060405180830381600087803b158015613e9a57600080fd5b505af1158015613eae573d6000803e3d6000fd5b505050506040513d601f19601f82011682018060405250810190613ed29190614b42565b50609d546001600160a01b031663e8e337008b8b8b8b8b8b8b613ef742610258615253565b60405160e08a901b6001600160e01b03191681526001600160a01b039889166004820152968816602488015260448701959095526064860193909352608485019190915260a484015290921660c482015260e481019190915261010401606060405180830381600087803b158015613f6e57600080fd5b505af1158015613f82573d6000803e3d6000fd5b505050506040513d601f19601f82011682018060405250810190613fa69190614c0a565b9250925092509750975097945050505050565b609d5460405163095ea7b360e01b81526001600160a01b0391821660048201526024810184905260009186169063095ea7b390604401602060405180830381600087803b15801561400957600080fd5b505af115801561401d573d6000803e3d6000fd5b505050506040513d601f19601f820116820180604052508101906140419190614b42565b50600061404f8686866142ec565b90508061406057600091505061419e565b60408051600280825260608201835260009260208301908036833701905050905086816000815181106140955761409561547d565b60200260200101906001600160a01b031690816001600160a01b03168152505085816001815181106140c9576140c961547d565b6001600160a01b039283166020918202929092010152609d54600091166338ed1739876140f786600461293d565b858961410542610258615253565b6040518663ffffffff1660e01b81526004016141259594939291906151c2565b600060405180830381600087803b15801561413f57600080fd5b505af1158015614153573d6000803e3d6000fd5b505050506040513d6000823e601f3d908101601f1916820160405261417b9190810190614b0d565b9050806001815181106141905761419061547d565b602002602001015193505050505b949350505050565b60606141b58484600085614419565b90505b9392505050565b6105af82826040516024016141d5929190614efd565b60408051601f198184030181529190526020810180516001600160e01b03166309710a9d60e41b179052614541565b61158983838360405160240161421c93929190614e9c565b60408051601f198184030181529190526020810180516001600160e01b03166307e763af60e51b179052614541565b6105af8282604051602401614261929190614e72565b60408051601f198184030181529190526020810180516001600160e01b031663319af33360e01b179052614541565b6115898383836040516024016142a893929190614ecf565b60408051601f198184030181529190526020810180516001600160e01b03166307c8121760e01b179052614541565b60006129608383670de0b6b3a7640000614562565b6040805160028082526060820183526000928392919060208301908036833701905050905084816000815181106143255761432561547d565b60200260200101906001600160a01b031690816001600160a01b03168152505083816001815181106143595761435961547d565b6001600160a01b039283166020918202929092010152609d5460405163d06ca61f60e01b8152600092919091169063d06ca61f9061439d90879086906004016151a9565b60006040518083038186803b1580156143b557600080fd5b505afa1580156143c9573d6000803e3d6000fd5b505050506040513d6000823e601f3d908101601f191682016040526143f19190810190614b0d565b9050806001815181106144065761440661547d565b6020026020010151925050509392505050565b60608247101561447a5760405162461bcd60e51b815260206004820152602660248201527f416464726573733a20696e73756666696369656e742062616c616e636520666f6044820152651c8818d85b1b60d21b606482015260840161059c565b843b6144c85760405162461bcd60e51b815260206004820152601d60248201527f416464726573733a2063616c6c20746f206e6f6e2d636f6e7472616374000000604482015260640161059c565b600080866001600160a01b031685876040516144e49190614d98565b60006040518083038185875af1925050503d8060008114614521576040519150601f19603f3d011682016040523d82523d6000602084013e614526565b606091505b5091509150614536828286614584565b979650505050505050565b80516a636f6e736f6c652e6c6f67602083016000808483855afa5050505050565b60008061456f85856145bd565b905061457b81846145c9565b95945050505050565b606083156145935750816141b8565b8251156145a35782518084602001fd5b8160405162461bcd60e51b815260040161059c9190614e5f565b6000612960828461537b565b6000612960828461526b565b828054828255906000526020600020908101928215614628579160200282015b828111156146285781546001600160a01b0319166001600160a01b038435161782556020909201916001909101906145f5565b50614634929150614638565b5090565b5b808211156146345760008155600101614639565b8035614658816154a9565b919050565b60008083601f84011261466f57600080fd5b50813567ffffffffffffffff81111561468757600080fd5b6020830191508360208260051b85010111156146a257600080fd5b9250929050565b600082601f8301126146ba57600080fd5b815160206146cf6146ca8361522f565b6151fe565b80838252828201915082860187848660051b89010111156146ef57600080fd5b60005b8581101561470e578151845292840192908401906001016146f2565b5090979650505050505050565b80516001600160701b038116811461465857600080fd5b60006020828403121561474457600080fd5b81356141b8816154a9565b6000806040838503121561476257600080fd5b823561476d816154a9565b9150602083013561477d816154a9565b809150509250929050565b60008060008060008060008060a0898b0312156147a457600080fd5b88356147af816154a9565b975060208901356147bf816154a9565b9650604089013567ffffffffffffffff808211156147dc57600080fd5b6147e88c838d0161465d565b909850965060608b013591508082111561480157600080fd5b61480d8c838d0161465d565b909650945060808b013591508082111561482657600080fd5b506148338b828c0161465d565b999c989b5096995094979396929594505050565b6000806000806000806000806000806000806101208d8f03121561486a57600080fd5b6148738d61464d565b9b5061488160208e0161464d565b9a5067ffffffffffffffff60408e0135111561489c57600080fd5b6148ac8e60408f01358f0161465d565b909a50985067ffffffffffffffff60608e013511156148ca57600080fd5b6148da8e60608f01358f0161465d565b909850965067ffffffffffffffff60808e013511156148f857600080fd5b6149088e60808f01358f0161465d565b909650945061491960a08e0161464d565b935061492760c08e0161464d565b925061493560e08e0161464d565b91506149446101008e0161464d565b90509295989b509295989b509295989b565b60008060006060848603121561496b57600080fd5b8335614976816154a9565b92506020840135614986816154a9565b929592945050506040919091013590565b600080604083850312156149aa57600080fd5b82356149b5816154a9565b946020939093013593505050565b600080604083850312156149d657600080fd5b82516149e1816154a9565b60208401519092506003811061477d57600080fd5b60008060208385031215614a0957600080fd5b823567ffffffffffffffff811115614a2057600080fd5b614a2c8582860161465d565b90969095509350505050565b600080600060608486031215614a4d57600080fd5b835167ffffffffffffffff80821115614a6557600080fd5b818601915086601f830112614a7957600080fd5b81516020614a896146ca8361522f565b8083825282820191508286018b848660051b8901011115614aa957600080fd5b600096505b84871015614ad5578051614ac1816154a9565b835260019690960195918301918301614aae565b5091890151919750909350505080821115614aef57600080fd5b50614afc868287016146a9565b925050604084015190509250925092565b600060208284031215614b1f57600080fd5b815167ffffffffffffffff811115614b3657600080fd5b61419e848285016146a9565b600060208284031215614b5457600080fd5b815180151581146141b857600080fd5b600080600060608486031215614b7957600080fd5b614b828461471b565b9250614b906020850161471b565b9150604084015163ffffffff81168114614ba957600080fd5b809150509250925092565b600060208284031215614bc657600080fd5b5035919050565b600060208284031215614bdf57600080fd5b5051919050565b60008060408385031215614bf957600080fd5b505080516020909101519092909150565b600080600060608486031215614c1f57600080fd5b8351925060208401519150604084015190509250925092565b600060208284031215614c4a57600080fd5b815160ff811681146141b857600080fd5b600081518084526020808501945080840160005b83811015614c945781516001600160a01b031687529582019590820190600101614c6f565b509495945050505050565b60008151808452614cb78160208601602086016153d4565b601f01601f19169290920160200192915050565b60028110614ce957634e487b7160e01b600052602160045260246000fd5b9052565b6000610120614cfd848451614ccb565b6020838101516001600160a01b03169085015260408084015190614d2b908601826001600160a01b03169052565b50606083015160608501526080830151608085015260a083015160a085015260c0830151614d6460c08601826001600160a01b03169052565b5060e0830151614d7f60e08601826001600160a01b03169052565b5061010080840151828287015261342f83870182614c9f565b60008251614daa8184602087016153d4565b9190910192915050565b6020815260006129606020830184614c5b565b6000604082016040835280865480835260608501915087600052602092508260002060005b82811015614e115781546001600160a01b031684529284019260019182019101614dec565b505050838103828501528481528590820160005b86811015614e53578235614e38816154a9565b6001600160a01b031682529183019190830190600101614e25565b50979650505050505050565b6020815260006129606020830184614c9f565b604081526000614e856040830185614c9f565b905060018060a01b03831660208301529392505050565b606081526000614eaf6060830186614c9f565b6001600160a01b0394851660208401529290931660409091015292915050565b606081526000614ee26060830186614c9f565b6001600160a01b039490941660208301525060400152919050565b604081526000614f106040830185614c9f565b90508260208301529392505050565b60208082526017908201527f43616c6c6572206973206e6f7420746865205661756c74000000000000000000604082015260600190565b6020808252601a908201527f43616c6c6572206973206e6f742074686520476f7665726e6f72000000000000604082015260600190565b6020808252602e908201527f496e697469616c697a61626c653a20636f6e747261637420697320616c72656160408201526d191e481a5b9a5d1a585b1a5e995960921b606082015260800190565b6020808252601490820152732a37b5b2b7103737ba1039bab83837b93a32b21760611b604082015260600190565b6020808252600e908201526d1499595b9d1c985b9d0818d85b1b60921b604082015260600190565b60208082526018908201527f5a65726f2061646472657373206e6f7420616c6c6f7765640000000000000000604082015260600190565b60e08152845160e082015260006020860151615088610100840182614ccb565b5060408601516001600160a01b03908116610120840152606087015116610140830152608086015161016083015260a086015160c06101808401526150d16101a0840182614c9f565b915050615111602083018680516001600160a01b039081168352602080830151151590840152604080830151909116908301526060908101511515910152565b60a082019390935260c0015292915050565b6080815260006151366080830187614ced565b82810360208481019190915286518083528782019282019060005b8181101561516d57845183529383019391830191600101615151565b505060408501969096525050506060015292915050565b6060815260006151976060830186614ced565b60208301949094525060400152919050565b8281526040602082015260006141b56040830184614c5b565b85815284602082015260a0604082015260006151e160a0830186614c5b565b6001600160a01b0394909416606083015250608001529392505050565b604051601f8201601f1916810167ffffffffffffffff8111828210171561522757615227615493565b604052919050565b600067ffffffffffffffff82111561524957615249615493565b5060051b60200190565b600082198211156152665761526661543b565b500190565b60008261528857634e487b7160e01b600052601260045260246000fd5b500490565b600181815b808511156152c85781600019048211156152ae576152ae61543b565b808516156152bb57918102915b93841c9390800290615292565b509250929050565b600061296060ff8416836000826152e957506001612963565b816152f657506000612963565b816001811461530c576002811461531657615332565b6001915050612963565b60ff8411156153275761532761543b565b50506001821b612963565b5060208310610133831016604e8410600b8410161715615355575081810a612963565b61535f838361528d565b80600019048211156153735761537361543b565b029392505050565b60008160001904831182151516156153955761539561543b565b500290565b6000828210156153ac576153ac61543b565b500390565b600060ff821660ff8416808210156153cb576153cb61543b565b90039392505050565b60005b838110156153ef5781810151838201526020016153d7565b8381111561280e5750506000910152565b60006000198214156154145761541461543b565b5060010190565b600060ff821660ff8114156154325761543261543b565b60010192915050565b634e487b7160e01b600052601160045260246000fd5b634e487b7160e01b600052602160045260246000fd5b634e487b7160e01b600052603160045260246000fd5b634e487b7160e01b600052603260045260246000fd5b634e487b7160e01b600052604160045260246000fd5b6001600160a01b03811681146128d557600080fdfe48a06827bfe8bfc0a59fe65d0fa78f553938265ed1f971326fc09947d19a593c83f34c88ec39d54d1e423bd8a181ebc59ede5dcc9996c2df334668b4f89fdd73a2646970667358221220547a8658b6f8c4d2940bced1093e924a107d9026d74ba3a1b691c51bb111a0b464736f6c6343000806003383f34c88ec39d54d1e423bd8a181ebc59ede5dcc9996c2df334668b4f89fdd73",
  "devdoc": {
    "kind": "dev",
    "methods": {
      "checkBalance()": {
        "details": "Get the total primary stable value held in the platform.      This includes any interest that was generated since depositing.",
        "returns": {
          "_0": "   Total value of the asset in the platform"
        }
      },
      "claimGovernance()": {
        "details": "Claim Governance of the contract to a new account (`newGovernor`). Can only be called by the new Governor."
      },
      "collectRewardTokens()": {
        "details": "Collect accumulated reward token and send to Vault."
      },
      "deposit(address,uint256)": {
        "details": "Deposit an amount of asset into the platform",
        "params": {
          "_amount": "Units of asset to deposit",
          "_asset": "Address for the asset"
        }
      },
      "depositAll()": {
        "details": "Deposit balance of all supported assets into the platform"
      },
      "getRewardTokenAddresses()": {
        "details": "Get the reward token addresses.",
        "returns": {
          "_0": "address[] the reward token addresses."
        }
      },
      "governor()": {
        "details": "Returns the address of the current Governor."
      },
      "initialize(address,address,address[],address[],address[])": {
        "details": "Internal initialize function, to set up initial internal state",
        "params": {
          "_assets": "Addresses of initial supported assets",
          "_pTokens": "Platform Token corresponding addresses",
          "_platformAddress": "Generic platform address",
          "_rewardTokenAddresses": "Address of reward token for platform",
          "_vaultAddress": "Address of the Vault"
        }
      },
      "isGovernor()": {
        "details": "Returns true if the caller is the current Governor."
      },
      "removePToken(uint256)": {
        "details": "Remove a supported asset by passing its index.      This method can only be called by the system Governor",
        "params": {
          "_assetIndex": "Index of the asset to be removed"
        }
      },
      "safeApproveAllTokens()": {
        "details": "Approve the spending of all assets by their corresponding cToken,      if for some reason is it necessary."
      },
      "setHarvesterAddress(address)": {
        "details": "Set the reward token addresses.",
        "params": {
          "_harvesterAddress": "Address of the harvester"
        }
      },
      "setPTokenAddress(address,address)": {
        "details": "Provide support for asset by passing its pToken address.      This method can only be called by the system Governor",
        "params": {
          "_asset": "Address for the asset",
          "_pToken": "Address for the corresponding platform token"
        }
      },
      "setRewardTokenAddresses(address[])": {
        "details": "Set the reward token addresses.",
        "params": {
          "_rewardTokenAddresses": "Address array of the reward token"
        }
      },
      "supportsAsset(address)": {
        "details": "Retuns bool indicating whether asset is supported by strategy",
        "params": {
          "_asset": "Address of the asset"
        }
      },
      "transferGovernance(address)": {
        "details": "Transfers Governance of the contract to a new account (`newGovernor`). Can only be called by the current Governor. Must be claimed for this to complete",
        "params": {
          "_newGovernor": "Address of the new Governor"
        }
      },
      "transferToken(address,uint256)": {
        "details": "Transfer token to governor. Intended for recovering tokens stuck in      strategy contracts, i.e. mistaken sends.",
        "params": {
          "_amount": "Amount of the asset to transfer",
          "_asset": "Address for the asset"
        }
      },
      "withdrawAll()": {
        "details": "Withdraw all assets from strategy sending assets to Vault."
      }
    },
    "version": 1
  },
  "userdoc": {
    "kind": "user",
    "methods": {
      "initialize(address,address,address[],address[],address[],address,address,address,address)": {
        "notice": "Initializer for setting up strategy internal state. This overrides the InitializableAbstractStrategy initializer as QuickSwap strategies don't fit well within that abstraction."
      }
    },
    "version": 1
  },
  "storageLayout": {
    "storage": [
      {
        "astId": 30623,
        "contract": "contracts/strategies/QuickSwapStrategy.sol:QuickSwapStrategy",
        "label": "initialized",
        "offset": 0,
        "slot": "0",
        "type": "t_bool"
      },
      {
        "astId": 30626,
        "contract": "contracts/strategies/QuickSwapStrategy.sol:QuickSwapStrategy",
        "label": "initializing",
        "offset": 1,
        "slot": "0",
        "type": "t_bool"
      },
      {
        "astId": 30666,
        "contract": "contracts/strategies/QuickSwapStrategy.sol:QuickSwapStrategy",
        "label": "______gap",
        "offset": 0,
        "slot": "1",
        "type": "t_array(t_uint256)50_storage"
      },
      {
        "astId": 30750,
        "contract": "contracts/strategies/QuickSwapStrategy.sol:QuickSwapStrategy",
        "label": "platformAddress",
        "offset": 0,
        "slot": "51",
        "type": "t_address"
      },
      {
        "astId": 30752,
        "contract": "contracts/strategies/QuickSwapStrategy.sol:QuickSwapStrategy",
        "label": "vaultAddress",
        "offset": 0,
        "slot": "52",
        "type": "t_address"
      },
      {
        "astId": 30756,
        "contract": "contracts/strategies/QuickSwapStrategy.sol:QuickSwapStrategy",
        "label": "assetToPToken",
        "offset": 0,
        "slot": "53",
        "type": "t_mapping(t_address,t_address)"
      },
      {
        "astId": 30759,
        "contract": "contracts/strategies/QuickSwapStrategy.sol:QuickSwapStrategy",
        "label": "assetsMapped",
        "offset": 0,
        "slot": "54",
        "type": "t_array(t_address)dyn_storage"
      },
      {
        "astId": 30761,
        "contract": "contracts/strategies/QuickSwapStrategy.sol:QuickSwapStrategy",
        "label": "_deprecated_rewardTokenAddress",
        "offset": 0,
        "slot": "55",
        "type": "t_address"
      },
      {
        "astId": 30763,
        "contract": "contracts/strategies/QuickSwapStrategy.sol:QuickSwapStrategy",
        "label": "_deprecated_rewardLiquidationThreshold",
        "offset": 0,
        "slot": "56",
        "type": "t_uint256"
      },
      {
        "astId": 30765,
        "contract": "contracts/strategies/QuickSwapStrategy.sol:QuickSwapStrategy",
        "label": "harvesterAddress",
        "offset": 0,
        "slot": "57",
        "type": "t_address"
      },
      {
        "astId": 30768,
        "contract": "contracts/strategies/QuickSwapStrategy.sol:QuickSwapStrategy",
        "label": "rewardTokenAddresses",
        "offset": 0,
        "slot": "58",
        "type": "t_array(t_address)dyn_storage"
      },
      {
        "astId": 30772,
        "contract": "contracts/strategies/QuickSwapStrategy.sol:QuickSwapStrategy",
        "label": "_reserved",
        "offset": 0,
        "slot": "59",
        "type": "t_array(t_int256)98_storage"
      },
      {
        "astId": 7950,
        "contract": "contracts/strategies/QuickSwapStrategy.sol:QuickSwapStrategy",
        "label": "uniswapRouter",
        "offset": 0,
        "slot": "157",
        "type": "t_contract(IUniswapV2Router02)5552"
      },
      {
        "astId": 8212,
        "contract": "contracts/strategies/QuickSwapStrategy.sol:QuickSwapStrategy",
        "label": "__gap",
        "offset": 0,
        "slot": "158",
        "type": "t_array(t_uint256)49_storage"
      },
      {
        "astId": 7210,
        "contract": "contracts/strategies/QuickSwapStrategy.sol:QuickSwapStrategy",
        "label": "__gap",
        "offset": 0,
        "slot": "207",
        "type": "t_array(t_uint256)49_storage"
      },
      {
        "astId": 25853,
        "contract": "contracts/strategies/QuickSwapStrategy.sol:QuickSwapStrategy",
        "label": "token0",
        "offset": 0,
        "slot": "256",
        "type": "t_contract(IERC20)623"
      },
      {
        "astId": 25856,
        "contract": "contracts/strategies/QuickSwapStrategy.sol:QuickSwapStrategy",
        "label": "token1",
        "offset": 0,
        "slot": "257",
        "type": "t_contract(IERC20)623"
      },
      {
        "astId": 25859,
        "contract": "contracts/strategies/QuickSwapStrategy.sol:QuickSwapStrategy",
        "label": "primaryStable",
        "offset": 0,
        "slot": "258",
        "type": "t_contract(IERC20)623"
      },
      {
        "astId": 25862,
        "contract": "contracts/strategies/QuickSwapStrategy.sol:QuickSwapStrategy",
        "label": "quickTokenNew",
        "offset": 0,
        "slot": "259",
        "type": "t_contract(IERC20)623"
      },
      {
        "astId": 25865,
        "contract": "contracts/strategies/QuickSwapStrategy.sol:QuickSwapStrategy",
        "label": "quickDragon",
        "offset": 0,
        "slot": "260",
        "type": "t_contract(IERC20)623"
      },
      {
        "astId": 25868,
        "contract": "contracts/strategies/QuickSwapStrategy.sol:QuickSwapStrategy",
        "label": "quickSwapPair",
        "offset": 0,
        "slot": "261",
        "type": "t_contract(IUniswapV2Pair)5143"
      },
      {
        "astId": 25870,
        "contract": "contracts/strategies/QuickSwapStrategy.sol:QuickSwapStrategy",
        "label": "poolId",
        "offset": 0,
        "slot": "262",
        "type": "t_bytes32"
      },
      {
        "astId": 25874,
        "contract": "contracts/strategies/QuickSwapStrategy.sol:QuickSwapStrategy",
        "label": "assetToDenominator",
        "offset": 0,
        "slot": "263",
        "type": "t_mapping(t_address,t_uint256)"
      },
      {
        "astId": 25877,
        "contract": "contracts/strategies/QuickSwapStrategy.sol:QuickSwapStrategy",
        "label": "quickSwapPairStaker",
        "offset": 0,
        "slot": "264",
        "type": "t_contract(IStakingRewards)4652"
      },
      {
        "astId": 25879,
        "contract": "contracts/strategies/QuickSwapStrategy.sol:QuickSwapStrategy",
        "label": "balancerVault",
        "offset": 0,
        "slot": "265",
        "type": "t_address"
      }
    ],
    "types": {
      "t_address": {
        "encoding": "inplace",
        "label": "address",
        "numberOfBytes": "20"
      },
      "t_array(t_address)dyn_storage": {
        "base": "t_address",
        "encoding": "dynamic_array",
        "label": "address[]",
        "numberOfBytes": "32"
      },
      "t_array(t_int256)98_storage": {
        "base": "t_int256",
        "encoding": "inplace",
        "label": "int256[98]",
        "numberOfBytes": "3136"
      },
      "t_array(t_uint256)49_storage": {
        "base": "t_uint256",
        "encoding": "inplace",
        "label": "uint256[49]",
        "numberOfBytes": "1568"
      },
      "t_array(t_uint256)50_storage": {
        "base": "t_uint256",
        "encoding": "inplace",
        "label": "uint256[50]",
        "numberOfBytes": "1600"
      },
      "t_bool": {
        "encoding": "inplace",
        "label": "bool",
        "numberOfBytes": "1"
      },
      "t_bytes32": {
        "encoding": "inplace",
        "label": "bytes32",
        "numberOfBytes": "32"
      },
      "t_contract(IERC20)623": {
        "encoding": "inplace",
        "label": "contract IERC20",
        "numberOfBytes": "20"
      },
      "t_contract(IStakingRewards)4652": {
        "encoding": "inplace",
        "label": "contract IStakingRewards",
        "numberOfBytes": "20"
      },
      "t_contract(IUniswapV2Pair)5143": {
        "encoding": "inplace",
        "label": "contract IUniswapV2Pair",
        "numberOfBytes": "20"
      },
      "t_contract(IUniswapV2Router02)5552": {
        "encoding": "inplace",
        "label": "contract IUniswapV2Router02",
        "numberOfBytes": "20"
      },
      "t_int256": {
        "encoding": "inplace",
        "label": "int256",
        "numberOfBytes": "32"
      },
      "t_mapping(t_address,t_address)": {
        "encoding": "mapping",
        "key": "t_address",
        "label": "mapping(address => address)",
        "numberOfBytes": "32",
        "value": "t_address"
      },
      "t_mapping(t_address,t_uint256)": {
        "encoding": "mapping",
        "key": "t_address",
        "label": "mapping(address => uint256)",
        "numberOfBytes": "32",
        "value": "t_uint256"
      },
      "t_uint256": {
        "encoding": "inplace",
        "label": "uint256",
        "numberOfBytes": "32"
      }
    }
  }
}