{
  "address": "0x10ab85Ceef0EBe2B7b966952407b714eeC47E019",
  "abi": [
    {
      "anonymous": false,
      "inputs": [
        {
          "indexed": false,
          "internalType": "uint256",
          "name": "_threshold",
          "type": "uint256"
        }
      ],
      "name": "AllocateThresholdUpdated",
      "type": "event"
    },
    {
      "anonymous": false,
      "inputs": [
        {
          "indexed": false,
          "internalType": "address",
          "name": "_asset",
          "type": "address"
        },
        {
          "indexed": false,
          "internalType": "address",
          "name": "_strategy",
          "type": "address"
        },
        {
          "indexed": false,
          "internalType": "uint256",
          "name": "_amount",
          "type": "uint256"
        }
      ],
      "name": "AssetAllocated",
      "type": "event"
    },
    {
      "anonymous": false,
      "inputs": [
        {
          "indexed": false,
          "internalType": "address",
          "name": "_asset",
          "type": "address"
        },
        {
          "indexed": false,
          "internalType": "address",
          "name": "_strategy",
          "type": "address"
        }
      ],
      "name": "AssetDefaultStrategyUpdated",
      "type": "event"
    },
    {
      "anonymous": false,
      "inputs": [
        {
          "indexed": false,
          "internalType": "address",
          "name": "_asset",
          "type": "address"
        }
      ],
      "name": "AssetSupported",
      "type": "event"
    },
    {
      "anonymous": false,
      "inputs": [],
      "name": "CapitalPaused",
      "type": "event"
    },
    {
      "anonymous": false,
      "inputs": [],
      "name": "CapitalUnpaused",
      "type": "event"
    },
    {
      "anonymous": false,
      "inputs": [
        {
          "indexed": true,
          "internalType": "address",
          "name": "previousGovernor",
          "type": "address"
        },
        {
          "indexed": true,
          "internalType": "address",
          "name": "newGovernor",
          "type": "address"
        }
      ],
      "name": "GovernorshipTransferred",
      "type": "event"
    },
    {
      "anonymous": false,
      "inputs": [
        {
          "indexed": false,
          "internalType": "uint256",
          "name": "maxSupplyDiff",
          "type": "uint256"
        }
      ],
      "name": "MaxSupplyDiffChanged",
      "type": "event"
    },
    {
      "anonymous": false,
      "inputs": [
        {
          "indexed": false,
          "internalType": "address",
          "name": "_addr",
          "type": "address"
        },
        {
          "indexed": false,
          "internalType": "uint256",
          "name": "_value",
          "type": "uint256"
        }
      ],
      "name": "Mint",
      "type": "event"
    },
    {
      "anonymous": false,
      "inputs": [
        {
          "indexed": true,
          "internalType": "address",
          "name": "previousGovernor",
          "type": "address"
        },
        {
          "indexed": true,
          "internalType": "address",
          "name": "newGovernor",
          "type": "address"
        }
      ],
      "name": "PendingGovernorshipTransfer",
      "type": "event"
    },
    {
      "anonymous": false,
      "inputs": [
        {
          "indexed": false,
          "internalType": "address",
          "name": "_priceProvider",
          "type": "address"
        }
      ],
      "name": "PriceProviderUpdated",
      "type": "event"
    },
    {
      "anonymous": false,
      "inputs": [],
      "name": "RebasePaused",
      "type": "event"
    },
    {
      "anonymous": false,
      "inputs": [
        {
          "indexed": false,
          "internalType": "uint256",
          "name": "_threshold",
          "type": "uint256"
        }
      ],
      "name": "RebaseThresholdUpdated",
      "type": "event"
    },
    {
      "anonymous": false,
      "inputs": [],
      "name": "RebaseUnpaused",
      "type": "event"
    },
    {
      "anonymous": false,
      "inputs": [
        {
          "indexed": false,
          "internalType": "address",
          "name": "_addr",
          "type": "address"
        },
        {
          "indexed": false,
          "internalType": "uint256",
          "name": "_value",
          "type": "uint256"
        }
      ],
      "name": "Redeem",
      "type": "event"
    },
    {
      "anonymous": false,
      "inputs": [
        {
          "indexed": false,
          "internalType": "uint256",
          "name": "_redeemFeeBps",
          "type": "uint256"
        }
      ],
      "name": "RedeemFeeUpdated",
      "type": "event"
    },
    {
      "anonymous": false,
      "inputs": [
        {
          "indexed": false,
          "internalType": "address",
          "name": "_address",
          "type": "address"
        }
      ],
      "name": "StrategistUpdated",
      "type": "event"
    },
    {
      "anonymous": false,
      "inputs": [
        {
          "indexed": false,
          "internalType": "address",
          "name": "_addr",
          "type": "address"
        }
      ],
      "name": "StrategyApproved",
      "type": "event"
    },
    {
      "anonymous": false,
      "inputs": [
        {
          "indexed": false,
          "internalType": "address",
          "name": "_addr",
          "type": "address"
        }
      ],
      "name": "StrategyRemoved",
      "type": "event"
    },
    {
      "anonymous": false,
      "inputs": [
        {
          "indexed": false,
          "internalType": "address",
          "name": "_address",
          "type": "address"
        }
      ],
      "name": "TrusteeAddressChanged",
      "type": "event"
    },
    {
      "anonymous": false,
      "inputs": [
        {
          "indexed": false,
          "internalType": "uint256",
          "name": "_basis",
          "type": "uint256"
        }
      ],
      "name": "TrusteeFeeBpsChanged",
      "type": "event"
    },
    {
      "anonymous": false,
      "inputs": [
        {
          "indexed": false,
          "internalType": "uint256",
          "name": "_vaultBuffer",
          "type": "uint256"
        }
      ],
      "name": "VaultBufferUpdated",
      "type": "event"
    },
    {
      "anonymous": false,
      "inputs": [
        {
          "indexed": false,
          "internalType": "address",
          "name": "_to",
          "type": "address"
        },
        {
          "indexed": false,
          "internalType": "uint256",
          "name": "_yield",
          "type": "uint256"
        },
        {
          "indexed": false,
          "internalType": "uint256",
          "name": "_fee",
          "type": "uint256"
        }
      ],
      "name": "YieldDistribution",
      "type": "event"
    },
    {
      "inputs": [],
      "name": "TOTAL_WEIGHT",
      "outputs": [
        {
          "internalType": "uint256",
          "name": "",
          "type": "uint256"
        }
      ],
      "stateMutability": "view",
      "type": "function"
    },
    {
      "inputs": [
        {
          "internalType": "address",
          "name": "_rebaseManager",
          "type": "address"
        }
      ],
      "name": "addRebaseManager",
      "outputs": [],
      "stateMutability": "nonpayable",
      "type": "function"
    },
    {
      "inputs": [
        {
          "internalType": "address",
          "name": "_addr",
          "type": "address"
        }
      ],
      "name": "approveStrategy",
      "outputs": [],
      "stateMutability": "nonpayable",
      "type": "function"
    },
    {
      "inputs": [
        {
          "internalType": "address",
          "name": "",
          "type": "address"
        }
      ],
      "name": "assetDefaultStrategies",
      "outputs": [
        {
          "internalType": "address",
          "name": "",
          "type": "address"
        }
      ],
      "stateMutability": "view",
      "type": "function"
    },
    {
      "inputs": [],
      "name": "autoAllocateThreshold",
      "outputs": [
        {
          "internalType": "uint256",
          "name": "",
          "type": "uint256"
        }
      ],
      "stateMutability": "view",
      "type": "function"
    },
    {
      "inputs": [],
      "name": "balance",
      "outputs": [],
      "stateMutability": "nonpayable",
      "type": "function"
    },
    {
      "inputs": [],
      "name": "balancerPoolId",
      "outputs": [
        {
          "internalType": "bytes32",
          "name": "",
          "type": "bytes32"
        }
      ],
      "stateMutability": "view",
      "type": "function"
    },
    {
      "inputs": [],
      "name": "balancerVault",
      "outputs": [
        {
          "internalType": "address",
          "name": "",
          "type": "address"
        }
      ],
      "stateMutability": "view",
      "type": "function"
    },
    {
      "inputs": [],
      "name": "capitalPaused",
      "outputs": [
        {
          "internalType": "bool",
          "name": "",
          "type": "bool"
        }
      ],
      "stateMutability": "view",
      "type": "function"
    },
    {
      "inputs": [],
      "name": "claimGovernance",
      "outputs": [],
      "stateMutability": "nonpayable",
      "type": "function"
    },
    {
      "inputs": [],
      "name": "dripperAddress",
      "outputs": [
        {
          "internalType": "address",
          "name": "",
          "type": "address"
        }
      ],
      "stateMutability": "view",
      "type": "function"
    },
    {
      "inputs": [],
      "name": "getAllStrategyWithWeights",
      "outputs": [
        {
          "components": [
            {
              "internalType": "address",
              "name": "strategy",
              "type": "address"
            },
            {
              "internalType": "uint256",
              "name": "minWeight",
              "type": "uint256"
            },
            {
              "internalType": "uint256",
              "name": "targetWeight",
              "type": "uint256"
            },
            {
              "internalType": "uint256",
              "name": "maxWeight",
              "type": "uint256"
            },
            {
              "internalType": "bool",
              "name": "enabled",
              "type": "bool"
            },
            {
              "internalType": "bool",
              "name": "enabledReward",
              "type": "bool"
            }
          ],
          "internalType": "struct VaultStorage.StrategyWithWeight[]",
          "name": "",
          "type": "tuple[]"
        }
      ],
      "stateMutability": "view",
      "type": "function"
    },
    {
      "inputs": [],
      "name": "getFeeParams",
      "outputs": [
        {
          "internalType": "address",
          "name": "",
          "type": "address"
        },
        {
          "internalType": "uint256",
          "name": "",
          "type": "uint256"
        },
        {
          "internalType": "address",
          "name": "",
          "type": "address"
        },
        {
          "internalType": "uint256",
          "name": "",
          "type": "uint256"
        }
      ],
      "stateMutability": "view",
      "type": "function"
    },
    {
      "inputs": [],
      "name": "getQuickDepositStrategies",
      "outputs": [
        {
          "internalType": "address[]",
          "name": "",
          "type": "address[]"
        }
      ],
      "stateMutability": "view",
      "type": "function"
    },
    {
      "inputs": [
        {
          "internalType": "address",
          "name": "strategy",
          "type": "address"
        }
      ],
      "name": "getStrategyWithWeight",
      "outputs": [
        {
          "components": [
            {
              "internalType": "address",
              "name": "strategy",
              "type": "address"
            },
            {
              "internalType": "uint256",
              "name": "minWeight",
              "type": "uint256"
            },
            {
              "internalType": "uint256",
              "name": "targetWeight",
              "type": "uint256"
            },
            {
              "internalType": "uint256",
              "name": "maxWeight",
              "type": "uint256"
            },
            {
              "internalType": "bool",
              "name": "enabled",
              "type": "bool"
            },
            {
              "internalType": "bool",
              "name": "enabledReward",
              "type": "bool"
            }
          ],
          "internalType": "struct VaultStorage.StrategyWithWeight",
          "name": "",
          "type": "tuple"
        }
      ],
      "stateMutability": "view",
      "type": "function"
    },
    {
      "inputs": [],
      "name": "governor",
      "outputs": [
        {
          "internalType": "address",
          "name": "",
          "type": "address"
        }
      ],
      "stateMutability": "view",
      "type": "function"
    },
    {
      "inputs": [],
      "name": "harvesterAddress",
      "outputs": [
        {
          "internalType": "address",
          "name": "",
          "type": "address"
        }
      ],
      "stateMutability": "view",
      "type": "function"
    },
    {
      "inputs": [],
      "name": "isGovernor",
      "outputs": [
        {
          "internalType": "bool",
          "name": "",
          "type": "bool"
        }
      ],
      "stateMutability": "view",
      "type": "function"
    },
    {
      "inputs": [
        {
          "internalType": "address",
          "name": "_sender",
          "type": "address"
        }
      ],
      "name": "isRebaseManager",
      "outputs": [
        {
          "internalType": "bool",
          "name": "",
          "type": "bool"
        }
      ],
      "stateMutability": "nonpayable",
      "type": "function"
    },
    {
      "inputs": [],
      "name": "labsAddress",
      "outputs": [
        {
          "internalType": "address",
          "name": "",
          "type": "address"
        }
      ],
      "stateMutability": "view",
      "type": "function"
    },
    {
      "inputs": [],
      "name": "labsFeeBps",
      "outputs": [
        {
          "internalType": "uint256",
          "name": "",
          "type": "uint256"
        }
      ],
      "stateMutability": "view",
      "type": "function"
    },
    {
      "inputs": [],
      "name": "maxSupplyDiff",
      "outputs": [
        {
          "internalType": "uint256",
          "name": "",
          "type": "uint256"
        }
      ],
      "stateMutability": "view",
      "type": "function"
    },
    {
      "inputs": [],
      "name": "nextPayoutTime",
      "outputs": [
        {
          "internalType": "uint256",
          "name": "",
          "type": "uint256"
        }
      ],
      "stateMutability": "view",
      "type": "function"
    },
    {
      "inputs": [],
      "name": "pauseCapital",
      "outputs": [],
      "stateMutability": "nonpayable",
      "type": "function"
    },
    {
      "inputs": [],
      "name": "pauseRebase",
      "outputs": [],
      "stateMutability": "nonpayable",
      "type": "function"
    },
    {
      "inputs": [],
      "name": "payout",
      "outputs": [],
      "stateMutability": "nonpayable",
      "type": "function"
    },
    {
      "inputs": [],
      "name": "payoutPeriod",
      "outputs": [
        {
          "internalType": "uint256",
          "name": "",
          "type": "uint256"
        }
      ],
      "stateMutability": "view",
      "type": "function"
    },
    {
      "inputs": [],
      "name": "payoutTimeRange",
      "outputs": [
        {
          "internalType": "uint256",
          "name": "",
          "type": "uint256"
        }
      ],
      "stateMutability": "view",
      "type": "function"
    },
    {
      "inputs": [],
      "name": "priceProvider",
      "outputs": [
        {
          "internalType": "address",
          "name": "",
          "type": "address"
        }
      ],
      "stateMutability": "view",
      "type": "function"
    },
    {
      "inputs": [
        {
          "internalType": "address",
          "name": "asset",
          "type": "address"
        }
      ],
      "name": "priceUSDMint",
      "outputs": [
        {
          "internalType": "uint256",
          "name": "",
          "type": "uint256"
        }
      ],
      "stateMutability": "view",
      "type": "function"
    },
    {
      "inputs": [
        {
          "internalType": "address",
          "name": "asset",
          "type": "address"
        }
      ],
      "name": "priceUSDRedeem",
      "outputs": [
        {
          "internalType": "uint256",
          "name": "",
          "type": "uint256"
        }
      ],
      "stateMutability": "view",
      "type": "function"
    },
    {
      "inputs": [],
      "name": "primaryStableAddress",
      "outputs": [
        {
          "internalType": "address",
          "name": "",
          "type": "address"
        }
      ],
      "stateMutability": "view",
      "type": "function"
    },
    {
      "inputs": [
        {
          "internalType": "uint256",
          "name": "",
          "type": "uint256"
        }
      ],
      "name": "quickDepositStrategies",
      "outputs": [
        {
          "internalType": "address",
          "name": "",
          "type": "address"
        }
      ],
      "stateMutability": "view",
      "type": "function"
    },
    {
      "inputs": [
        {
          "internalType": "address",
          "name": "_strategyFromAddress",
          "type": "address"
        },
        {
          "internalType": "address",
          "name": "_strategyToAddress",
          "type": "address"
        },
        {
          "internalType": "address[]",
          "name": "_assets",
          "type": "address[]"
        },
        {
          "internalType": "uint256[]",
          "name": "_amounts",
          "type": "uint256[]"
        }
      ],
      "name": "reallocate",
      "outputs": [],
      "stateMutability": "nonpayable",
      "type": "function"
    },
    {
      "inputs": [
        {
          "internalType": "address",
          "name": "",
          "type": "address"
        }
      ],
      "name": "rebaseManagers",
      "outputs": [
        {
          "internalType": "bool",
          "name": "",
          "type": "bool"
        }
      ],
      "stateMutability": "view",
      "type": "function"
    },
    {
      "inputs": [],
      "name": "rebasePaused",
      "outputs": [
        {
          "internalType": "bool",
          "name": "",
          "type": "bool"
        }
      ],
      "stateMutability": "view",
      "type": "function"
    },
    {
      "inputs": [],
      "name": "rebaseThreshold",
      "outputs": [
        {
          "internalType": "uint256",
          "name": "",
          "type": "uint256"
        }
      ],
      "stateMutability": "view",
      "type": "function"
    },
    {
      "inputs": [],
      "name": "redeemFeeBps",
      "outputs": [
        {
          "internalType": "uint256",
          "name": "",
          "type": "uint256"
        }
      ],
      "stateMutability": "view",
      "type": "function"
    },
    {
      "inputs": [
        {
          "internalType": "address",
          "name": "_addr",
          "type": "address"
        }
      ],
      "name": "removeStrategy",
      "outputs": [],
      "stateMutability": "nonpayable",
      "type": "function"
    },
    {
      "inputs": [
        {
          "internalType": "address",
          "name": "newImpl",
          "type": "address"
        }
      ],
      "name": "setAdminImpl",
      "outputs": [],
      "stateMutability": "nonpayable",
      "type": "function"
    },
    {
      "inputs": [
        {
          "internalType": "address",
          "name": "_asset",
          "type": "address"
        },
        {
          "internalType": "address",
          "name": "_strategy",
          "type": "address"
        }
      ],
      "name": "setAssetDefaultStrategy",
      "outputs": [],
      "stateMutability": "nonpayable",
      "type": "function"
    },
    {
      "inputs": [
        {
          "internalType": "uint256",
          "name": "_threshold",
          "type": "uint256"
        }
      ],
      "name": "setAutoAllocateThreshold",
      "outputs": [],
      "stateMutability": "nonpayable",
      "type": "function"
    },
    {
      "inputs": [
        {
          "internalType": "address",
          "name": "_dripper",
          "type": "address"
        }
      ],
      "name": "setDripper",
      "outputs": [],
      "stateMutability": "nonpayable",
      "type": "function"
    },
    {
      "inputs": [
        {
          "internalType": "address",
          "name": "_labsAddress",
          "type": "address"
        },
        {
          "internalType": "uint256",
          "name": "_labsFeeBps",
          "type": "uint256"
        },
        {
          "internalType": "address",
          "name": "_teamAddress",
          "type": "address"
        },
        {
          "internalType": "uint256",
          "name": "_teamFeeBps",
          "type": "uint256"
        }
      ],
      "name": "setFeeParams",
      "outputs": [],
      "stateMutability": "nonpayable",
      "type": "function"
    },
    {
      "inputs": [
        {
          "internalType": "address",
          "name": "_harvester",
          "type": "address"
        }
      ],
      "name": "setHarvester",
      "outputs": [],
      "stateMutability": "nonpayable",
      "type": "function"
    },
    {
      "inputs": [
        {
          "internalType": "uint256",
          "name": "_maxSupplyDiff",
          "type": "uint256"
        }
      ],
      "name": "setMaxSupplyDiff",
      "outputs": [],
      "stateMutability": "nonpayable",
      "type": "function"
    },
    {
      "inputs": [
        {
          "internalType": "uint256",
          "name": "_nextPayoutTime",
          "type": "uint256"
        }
      ],
      "name": "setNextPayoutTime",
      "outputs": [],
      "stateMutability": "nonpayable",
      "type": "function"
    },
    {
      "inputs": [
        {
          "internalType": "uint256",
          "name": "_payoutPeriod",
          "type": "uint256"
        },
        {
          "internalType": "uint256",
          "name": "_payoutTimeRange",
          "type": "uint256"
        }
      ],
      "name": "setPayoutIntervals",
      "outputs": [],
      "stateMutability": "nonpayable",
      "type": "function"
    },
    {
      "inputs": [
        {
          "internalType": "address",
          "name": "_priceProvider",
          "type": "address"
        }
      ],
      "name": "setPriceProvider",
      "outputs": [],
      "stateMutability": "nonpayable",
      "type": "function"
    },
    {
      "inputs": [
        {
          "internalType": "address",
          "name": "_primaryStable",
          "type": "address"
        }
      ],
      "name": "setPrimaryStable",
      "outputs": [],
      "stateMutability": "nonpayable",
      "type": "function"
    },
    {
      "inputs": [
        {
          "internalType": "address[]",
          "name": "_quickDepositStrategies",
          "type": "address[]"
        }
      ],
      "name": "setQuickDepositStrategies",
      "outputs": [],
      "stateMutability": "nonpayable",
      "type": "function"
    },
    {
      "inputs": [
        {
          "internalType": "uint256",
          "name": "_threshold",
          "type": "uint256"
        }
      ],
      "name": "setRebaseThreshold",
      "outputs": [],
      "stateMutability": "nonpayable",
      "type": "function"
    },
    {
      "inputs": [
        {
          "internalType": "uint256",
          "name": "_redeemFeeBps",
          "type": "uint256"
        }
      ],
      "name": "setRedeemFeeBps",
      "outputs": [],
      "stateMutability": "nonpayable",
      "type": "function"
    },
    {
      "inputs": [
        {
          "internalType": "address",
          "name": "_address",
          "type": "address"
        }
      ],
      "name": "setStrategistAddr",
      "outputs": [],
      "stateMutability": "nonpayable",
      "type": "function"
    },
    {
      "inputs": [
        {
          "components": [
            {
              "internalType": "address",
              "name": "strategy",
              "type": "address"
            },
            {
              "internalType": "uint256",
              "name": "minWeight",
              "type": "uint256"
            },
            {
              "internalType": "uint256",
              "name": "targetWeight",
              "type": "uint256"
            },
            {
              "internalType": "uint256",
              "name": "maxWeight",
              "type": "uint256"
            },
            {
              "internalType": "bool",
              "name": "enabled",
              "type": "bool"
            },
            {
              "internalType": "bool",
              "name": "enabledReward",
              "type": "bool"
            }
          ],
          "internalType": "struct VaultStorage.StrategyWithWeight[]",
          "name": "_strategyWithWeights",
          "type": "tuple[]"
        }
      ],
      "name": "setStrategyWithWeights",
      "outputs": [],
      "stateMutability": "nonpayable",
      "type": "function"
    },
    {
      "inputs": [
        {
          "internalType": "address",
          "name": "_balancerVault",
          "type": "address"
        },
        {
          "internalType": "bytes32",
          "name": "_balancerPoolId",
          "type": "bytes32"
        }
      ],
      "name": "setSwapper",
      "outputs": [],
      "stateMutability": "nonpayable",
      "type": "function"
    },
    {
      "inputs": [
        {
          "internalType": "uint256",
          "name": "_vaultBuffer",
          "type": "uint256"
        }
      ],
      "name": "setVaultBuffer",
      "outputs": [],
      "stateMutability": "nonpayable",
      "type": "function"
    },
    {
      "inputs": [],
      "name": "strategistAddr",
      "outputs": [
        {
          "internalType": "address",
          "name": "",
          "type": "address"
        }
      ],
      "stateMutability": "view",
      "type": "function"
    },
    {
      "inputs": [
        {
          "internalType": "address",
          "name": "",
          "type": "address"
        }
      ],
      "name": "strategyWithWeightPositions",
      "outputs": [
        {
          "internalType": "uint256",
          "name": "",
          "type": "uint256"
        }
      ],
      "stateMutability": "view",
      "type": "function"
    },
    {
      "inputs": [
        {
          "internalType": "uint256",
          "name": "",
          "type": "uint256"
        }
      ],
      "name": "strategyWithWeights",
      "outputs": [
        {
          "internalType": "address",
          "name": "strategy",
          "type": "address"
        },
        {
          "internalType": "uint256",
          "name": "minWeight",
          "type": "uint256"
        },
        {
          "internalType": "uint256",
          "name": "targetWeight",
          "type": "uint256"
        },
        {
          "internalType": "uint256",
          "name": "maxWeight",
          "type": "uint256"
        },
        {
          "internalType": "bool",
          "name": "enabled",
          "type": "bool"
        },
        {
          "internalType": "bool",
          "name": "enabledReward",
          "type": "bool"
        }
      ],
      "stateMutability": "view",
      "type": "function"
    },
    {
      "inputs": [
        {
          "internalType": "address",
          "name": "_asset",
          "type": "address"
        }
      ],
      "name": "supportAsset",
      "outputs": [],
      "stateMutability": "nonpayable",
      "type": "function"
    },
    {
      "inputs": [],
      "name": "teamAddress",
      "outputs": [
        {
          "internalType": "address",
          "name": "",
          "type": "address"
        }
      ],
      "stateMutability": "view",
      "type": "function"
    },
    {
      "inputs": [],
      "name": "teamFeeBps",
      "outputs": [
        {
          "internalType": "uint256",
          "name": "",
          "type": "uint256"
        }
      ],
      "stateMutability": "view",
      "type": "function"
    },
    {
      "inputs": [
        {
          "internalType": "address",
          "name": "_newGovernor",
          "type": "address"
        }
      ],
      "name": "transferGovernance",
      "outputs": [],
      "stateMutability": "nonpayable",
      "type": "function"
    },
    {
      "inputs": [
        {
          "internalType": "address",
          "name": "_asset",
          "type": "address"
        },
        {
          "internalType": "uint256",
          "name": "_amount",
          "type": "uint256"
        }
      ],
      "name": "transferToken",
      "outputs": [],
      "stateMutability": "nonpayable",
      "type": "function"
    },
    {
      "inputs": [],
      "name": "trusteeAddress",
      "outputs": [
        {
          "internalType": "address",
          "name": "",
          "type": "address"
        }
      ],
      "stateMutability": "view",
      "type": "function"
    },
    {
      "inputs": [],
      "name": "trusteeFeeBps",
      "outputs": [
        {
          "internalType": "uint256",
          "name": "",
          "type": "uint256"
        }
      ],
      "stateMutability": "view",
      "type": "function"
    },
    {
      "inputs": [],
      "name": "unpauseCapital",
      "outputs": [],
      "stateMutability": "nonpayable",
      "type": "function"
    },
    {
      "inputs": [],
      "name": "unpauseRebase",
      "outputs": [],
      "stateMutability": "nonpayable",
      "type": "function"
    },
    {
      "inputs": [],
      "name": "vaultBuffer",
      "outputs": [
        {
          "internalType": "uint256",
          "name": "",
          "type": "uint256"
        }
      ],
      "stateMutability": "view",
      "type": "function"
    },
    {
      "inputs": [],
      "name": "withdrawAllFromStrategies",
      "outputs": [],
      "stateMutability": "nonpayable",
      "type": "function"
    },
    {
      "inputs": [
        {
          "internalType": "address",
          "name": "_strategyAddr",
          "type": "address"
        }
      ],
      "name": "withdrawAllFromStrategy",
      "outputs": [],
      "stateMutability": "nonpayable",
      "type": "function"
    }
  ],
  "transactionHash": "0x894a2737baf83a0008534889ec48cfc76e3c17b02381a60cd6b0f23d4001efee",
  "args": [],
  "solcInputHash": "687ed9fa5cffd3a4c7a6373a1d9ad1d9",
  "bytecode": "0x60806040526037805461ffff60a01b1916600160a81b179055604180546001600160a01b031990811690915560428054821690556043805490911690553480156200004957600080fd5b506200006233600080516020620054df83398151915255565b600080516020620054df833981519152546040516001600160a01b03909116906000907fc7c0c772add429241571afb3805861fb3cfa2af374534088b76cdb4325a87e9a908290a361542580620000ba6000396000f3fe608060405234801561001057600080fd5b50600436106104285760003560e01c8063773540b31161022b578063b890ebf611610130578063ce1aa76b116100b8578063e6cc543211610087578063e6cc543214610943578063eb03654b14610957578063ed2a2f9d1461096a578063fc0cfeee14610974578063fc5aeaa51461098757600080fd5b8063ce1aa76b14610915578063cecbbc071461091e578063d38bfff414610927578063dbbb64b91461093a57600080fd5b8063c5f00841116100ff578063c5f008411461089a578063c7af3352146108a2578063c9919112146108aa578063cc18f12d146108b2578063cc51656b1461090057600080fd5b8063b890ebf614610814578063bc90106b14610827578063be6fc1811461083a578063c46b3dc41461087a57600080fd5b806394828ffd116101b3578063a5d52e5a11610182578063a5d52e5a146107c0578063b2c9336d146107d3578063b542daf3146107e6578063b69ef8a8146107f9578063b888879e1461080157600080fd5b806394828ffd146107715780639fa1826e14610779578063a403e4d514610782578063a566e9d3146107ab57600080fd5b80638b0057b1116101fa5780638b0057b11461070d5780638c5cbb89146107395780638e510b521461074c5780638ec489a2146107555780638ffa46181461076857600080fd5b8063773540b3146106cb5780637fe2d393146106de578063837cb8ea146106f1578063840189421461070457600080fd5b8063372aa22411610331578063545ad78c116102b9578063607f226d11610288578063607f226d1461067457806363bd1d4a14610694578063663e64ce1461069c57806367c7066c146106af5780636d8ebaa8146106c257600080fd5b8063545ad78c14610633578063570d8e1d14610646578063597c8910146106595780635d36b1901461066c57600080fd5b80634cd55c2d116103005780634cd55c2d146105dd5780634f2d7d6f146105f057806352d38e5d1461060357806353ca9f241461060c578063543fe4421461062057600080fd5b8063372aa2241461059c5780633b8ae397146105af5780633dbc911f146105c257806349c1d54d146105ca57600080fd5b8063175188e8116103b4578063207134b011610383578063207134b0146105275780632585cd5c146105305780632a47852f146105635780632d1082c8146105765780632e9958ab1461058957600080fd5b8063175188e8146104e557806318802403146104f85780631c75f0851461050b5780631edfe3da1461051e57600080fd5b80631072cbea116103fb5780631072cbea1461048657806310d3fdac14610499578063158274a5146104ac57806315de1daa146104bf5780631648059b146104d257600080fd5b806309f49bf51461042d57806309f6442c146104375780630bf41361146104535780630c340a241461047e575b600080fd5b61043561099a565b005b61044060385481565b6040519081526020015b60405180910390f35b610466610461366004614d44565b6109ff565b6040516001600160a01b03909116815260200161044a565b610466610a29565b610435610494366004614b6a565b610a46565b6104406104a7366004614a8b565b610af3565b604b54610466906001600160a01b031681565b6104356104cd366004614a8b565b610be9565b6104356104e0366004614b6a565b610c85565b6104356104f3366004614a8b565b610d6a565b610435610506366004614b94565b611450565b603b54610466906001600160a01b031681565b610440603d5481565b61044060475481565b61055361053e366004614a8b565b60546020526000908152604090205460ff1681565b604051901515815260200161044a565b610435610571366004614c1a565b61157c565b610435610584366004614bd8565b6115aa565b610435610597366004614a8b565b611667565b6104356105aa366004614a8b565b6116fb565b6104356105bd366004614a8b565b611774565b6104356118b1565b604654610466906001600160a01b031681565b6104356105eb366004614a8b565b611927565b604954610466906001600160a01b031681565b610440603f5481565b60375461055390600160a01b900460ff1681565b603954610466906001600160a01b031681565b604e54610466906001600160a01b031681565b604354610466906001600160a01b031681565b610435610667366004614a8b565b611b12565b610435611c0e565b610687610682366004614a8b565b611cb4565b60405161044a919061503b565b610435611d59565b6104356106aa366004614d44565b611de4565b604d54610466906001600160a01b031681565b61044060515481565b6104356106d9366004614a8b565b611e3d565b6104356106ec366004614ad9565b611eaf565b6104356106ff366004614a8b565b612217565b610440603c5481565b61055361071b366004614a8b565b6001600160a01b031660009081526054602052604090205460ff1690565b610440610747366004614a8b565b612329565b61044060455481565b610435610763366004614d44565b6123cb565b610440603a5481565b610435612480565b610440603e5481565b610466610790366004614a8b565b6044602052600090815260409020546001600160a01b031681565b6107b36124f0565b60405161044a9190614e24565b6104356107ce366004614a8b565b612576565b6104356107e1366004614d44565b612669565b6104356107f4366004614d76565b6126c2565b610435612740565b603754610466906001600160a01b031681565b610435610822366004614d44565b612780565b610435610835366004614aa6565b6127d9565b603954603a54603b54603c54604080516001600160a01b03958616815260208101949094529390911692820192909252606081019190915260800161044a565b610440610888366004614a8b565b604f6020526000908152604090205481565b610435612a1b565b610553612a91565b610435612ac2565b6108c56108c0366004614d44565b612b93565b604080516001600160a01b039097168752602087019590955293850192909252606084015215156080830152151560a082015260c00161044a565b610908612bea565b60405161044a9190614e71565b61044060525481565b61044060535481565b610435610935366004614a8b565b612c93565b610440604c5481565b60375461055390600160a81b900460ff1681565b610435610965366004614d44565b612d37565b610440620186a081565b610435610982366004614a8b565b612dec565b610435610995366004614d44565b612e8e565b6109a2612a91565b6109c75760405162461bcd60e51b81526004016109be90614f73565b60405180910390fd5b6037805460ff60a01b191690556040517fbc044409505c95b6b851433df96e1beae715c909d8e7c1d6d7ab783300d4e3b990600090a1565b604a8181548110610a0f57600080fd5b6000918252602090912001546001600160a01b0316905081565b6000610a4160008051602061535f8339815191525490565b905090565b610a4e612a91565b610a6a5760405162461bcd60e51b81526004016109be90614f73565b6001600160a01b03821660009081526033602052604090205460ff1615610ad35760405162461bcd60e51b815260206004820152601760248201527f4f6e6c7920756e737570706f727465642061737365747300000000000000000060448201526064016109be565b610aef610ade610a29565b6001600160a01b0384169083612efa565b5050565b6037546040516315d5220f60e31b81526001600160a01b038381166004830152600092839291169063aea910789060240160206040518083038186803b158015610b3c57600080fd5b505afa158015610b50573d6000803e3d6000fd5b505050506040513d601f19601f82011682018060405250810190610b749190614d5d565b90506305f2d3c0811015610bc25760405162461bcd60e51b815260206004820152601560248201527441737365742070726963652062656c6f772070656760581b60448201526064016109be565b6305f5e100811115610bd557506305f5e1005b610be28160126008612f4c565b9392505050565b610bf1612a91565b610c0d5760405162461bcd60e51b81526004016109be90614f73565b6001600160a01b038116610c635760405162461bcd60e51b815260206004820152601760248201527f456d70747920486172766573746572204164647265737300000000000000000060448201526064016109be565b604d80546001600160a01b0319166001600160a01b0392909216919091179055565b610c8d612a91565b610ca95760405162461bcd60e51b81526004016109be90614f73565b6001600160a01b038216610cf75760405162461bcd60e51b8152602060048201526015602482015274456d7074792053776170706572204164647265737360581b60448201526064016109be565b80610d445760405162461bcd60e51b815260206004820152601960248201527f456d70747920706f6f6c206964206e6f7420616c6c6f7765640000000000000060448201526064016109be565b604b80546001600160a01b0319166001600160a01b039390931692909217909155604c55565b610d72612a91565b610d8e5760405162461bcd60e51b81526004016109be90614f73565b6001600160a01b03811660009081526035602052604090205460ff16610dee5760405162461bcd60e51b815260206004820152601560248201527414dd1c985d1959de481b9bdd08185c1c1c9bdd9959605a1b60448201526064016109be565b60005b603454811015610ea757816001600160a01b03166044600060348481548110610e1c57610e1c615324565b60009182526020808320909101546001600160a01b039081168452908301939093526040909101902054161415610e955760405162461bcd60e51b815260206004820181905260248201527f53747261746567792069732064656661756c7420666f7220616e20617373657460448201526064016109be565b80610e9f816152ae565b915050610df1565b5060365460005b603654811015610f0a57826001600160a01b031660368281548110610ed557610ed5615324565b6000918252602090912001546001600160a01b03161415610ef857809150610f0a565b80610f02816152ae565b915050610eae565b5060365481101561106e5760368054610f259060019061522d565b81548110610f3557610f35615324565b600091825260209091200154603680546001600160a01b039092169183908110610f6157610f61615324565b9060005260206000200160006101000a8154816001600160a01b0302191690836001600160a01b031602179055506036805480610fa057610fa061530e565b60008281526020808220830160001990810180546001600160a01b03191690559092019092556001600160a01b03841680835260359091526040808320805460ff19169055805163429c145b60e11b81529051859363853828b6926004808201939182900301818387803b15801561101757600080fd5b505af115801561102b573d6000803e3d6000fd5b50506040516001600160a01b03861681527f09a1db4b80c32706328728508c941a6b954f31eb5affd32f236c1fd405f8fea49250602001905060405180910390a1505b61108f6040518060600160405280602381526020016153a960239139612fae565b50604a5460005b604a548110156110f257826001600160a01b0316604a82815481106110bd576110bd615324565b6000918252602090912001546001600160a01b031614156110e0578091506110f2565b806110ea816152ae565b915050611096565b50604a548110156111ea57604a805461110d9060019061522d565b8154811061111d5761111d615324565b600091825260209091200154604a80546001600160a01b03909216918390811061114957611149615324565b9060005260206000200160006101000a8154816001600160a01b0302191690836001600160a01b03160217905550604a8054806111885761118861530e565b6000828152602090819020600019908301810180546001600160a01b03191690559091019091556040516001600160a01b03841681527f09a1db4b80c32706328728508c941a6b954f31eb5affd32f236c1fd405f8fea4910160405180910390a15b6112286040518060400160405280601e81526020017f52656d6f76696e672073747261746567792066726f6d20776569676874730000815250612fae565b5060505460005b60505481101561129057826001600160a01b03166050828154811061125657611256615324565b60009182526020909120600590910201546001600160a01b0316141561127e57809150611290565b80611288816152ae565b91505061122f565b50605054811015610aef57605080546112ab9060019061522d565b815481106112bb576112bb615324565b9060005260206000209060050201605082815481106112dc576112dc615324565b60009182526020909120825460059092020180546001600160a01b0319166001600160a01b039092169190911781556001808301549082015560028083015490820155600380830154908201556004918201805492909101805460ff938416151560ff19821681178355925461010090819004909416151590930261ff001990921661ffff1990931692909217179055605080548061137d5761137d61530e565b6000828152602080822060056000199094019384020180546001600160a01b0319168155600181018390556002810183905560038101929092556004909101805461ffff19169055915560408051808201909152601681527544656c6574696e67204d617070696e6720656e74727960501b918101919091526113ff90612fae565b6001600160a01b0382166000908152604f60209081526040808320929092558151808301909252601582527413585c1c1a5b99c8195b9d1c9e4811195b195d1959605a1b90820152610aef90612fae565b611458612a91565b6114745760405162461bcd60e51b81526004016109be90614f73565b603980546001600160a01b038681166001600160a01b03199283168117909355603a869055603b8054868316931692909217909155603c839055604d546040516306ae77fd60e51b8152600481019390935260248301869052169063d5ceffa090604401600060405180830381600087803b1580156114f257600080fd5b505af1158015611506573d6000803e3d6000fd5b5050604d54603b54603c5460405163bc14edcf60e01b81526001600160a01b03928316600482015260248101919091529116925063bc14edcf9150604401600060405180830381600087803b15801561155e57600080fd5b505af1158015611572573d6000803e3d6000fd5b5050505050505050565b611584612a91565b6115a05760405162461bcd60e51b81526004016109be90614f73565b610aef8282612ff1565b6115b2612a91565b6115ce5760405162461bcd60e51b81526004016109be90614f73565b60005b60ff8116821115611655576035600084848460ff168181106115f5576115f5615324565b905060200201602081019061160a9190614a8b565b6001600160a01b0316815260208101919091526040016000205460ff166116435760405162461bcd60e51b81526004016109be90614faa565b8061164d816152c2565b9150506115d1565b50611662604a838361495d565b505050565b61166f612a91565b61168b5760405162461bcd60e51b81526004016109be90614f73565b6001600160a01b0381166116d95760405162461bcd60e51b8152602060048201526015602482015274456d7074792044726970706572204164647265737360581b60448201526064016109be565b604e80546001600160a01b0319166001600160a01b0392909216919091179055565b611703612a91565b61171f5760405162461bcd60e51b81526004016109be90614f73565b603780546001600160a01b0319166001600160a01b0383169081179091556040519081527fb266add5f3044b17d27db796af992cecbe413921b4e8aaaee03c719e16b9806a906020015b60405180910390a150565b61177c612a91565b6117985760405162461bcd60e51b81526004016109be90614f73565b6001600160a01b03811660009081526035602052604090205460ff16156118015760405162461bcd60e51b815260206004820152601960248201527f537472617465677920616c726561647920617070726f7665640000000000000060448201526064016109be565b6040805180820182526001808252600060208084018281526001600160a01b038716808452603583528684209551865460ff19169015151786559051948401949094556036805493840181559091527f4a11f94e20a93c79f6ec743a1954ec4fc2c08429ae2122118bf234b2185c81b890910180546001600160a01b0319168317905591519081527f960dd94cbb79169f09a4e445d58b895df2d9bffa5b31055d0932d801724a20d19101611769565b6043546001600160a01b03163314806118cd57506118cd612a91565b6118e95760405162461bcd60e51b81526004016109be90614ff3565b6037805460ff60a81b1916600160a81b1790556040517f71f0e5b62f846a22e0b4d159e516e62fa9c2b8eb570be15f83e67d98a2ee51e090600090a1565b61192f612a91565b61194b5760405162461bcd60e51b81526004016109be90614f73565b6001600160a01b03811660009081526033602052604090205460ff16156119b45760405162461bcd60e51b815260206004820152601760248201527f417373657420616c726561647920737570706f7274656400000000000000000060448201526064016109be565b604080516020808201835260018083526001600160a01b038581166000818152603385528681209551865460ff1916901515179095556034805493840181559094527f46bddb1178e94d7f2892ff5f366840eb658911794f2c3a44c450aa2c505186c190910180546001600160a01b0319169093179092558251808401909352600d83526c383934b1b2a83937bb34b232b960991b90830152603754611a5b92911661348c565b6037546040516315d5220f60e31b81526001600160a01b0383811660048301529091169063aea910789060240160206040518083038186803b158015611aa057600080fd5b505afa158015611ab4573d6000803e3d6000fd5b505050506040513d601f19601f82011682018060405250810190611ad89190614d5d565b506040516001600160a01b03821681527f4f1ac48525e50059cc1cc6e0e1940ece0dd653a4db4841538d6aef036be2fb7b90602001611769565b6043546001600160a01b0316331480611b2e5750611b2e612a91565b611b4a5760405162461bcd60e51b81526004016109be90614ff3565b6001600160a01b03811660009081526035602052604090205460ff16611bb25760405162461bcd60e51b815260206004820152601960248201527f5374726174656779206973206e6f7420737570706f727465640000000000000060448201526064016109be565b6000819050806001600160a01b031663853828b66040518163ffffffff1660e01b8152600401600060405180830381600087803b158015611bf257600080fd5b505af1158015611c06573d6000803e3d6000fd5b505050505050565b7f7eaf9a7750884803435dfabc67aa617a7d8fefb23d8d84b3c9722bd69e48c4bc546001600160a01b0316336001600160a01b031614611ca95760405162461bcd60e51b815260206004820152603060248201527f4f6e6c79207468652070656e64696e6720476f7665726e6f722063616e20636f60448201526f6d706c6574652074686520636c61696d60801b60648201526084016109be565b611cb2336134d1565b565b611cbc6149c0565b6001600160a01b0382166000908152604f6020526040902054605080549091908110611cea57611cea615324565b60009182526020918290206040805160c081018252600590930290910180546001600160a01b031683526001810154938301939093526002830154908201526003820154606082015260049091015460ff8082161515608084015261010090910416151560a082015292915050565b611d61612a91565b80611d7b57503360009081526054602052604090205460ff165b611ddc5760405162461bcd60e51b815260206004820152602c60248201527f43616c6c6572206973206e6f742074686520476f7665726e6f72206f7220526560448201526b3130b9b29026b0b730b3b2b960a11b60648201526084016109be565b611cb2613592565b611dec612a91565b611e085760405162461bcd60e51b81526004016109be90614f73565b60458190556040518181527f95201f9c21f26877223b1ff4073936a6484c35495649e60e55730497aeb60d9390602001611769565b611e45612a91565b611e615760405162461bcd60e51b81526004016109be90614f73565b604380546001600160a01b0319166001600160a01b0383169081179091556040519081527f869e0abd13cc3a975de7b93be3df1cb2255c802b1cead85963cc79d99f131bee90602001611769565b6043546001600160a01b0316331480611ecb5750611ecb612a91565b611ee75760405162461bcd60e51b81526004016109be90614ff3565b6001600160a01b03861660009081526035602052604090205460ff16611f475760405162461bcd60e51b8152602060048201526015602482015274496e76616c69642066726f6d20537472617465677960581b60448201526064016109be565b6001600160a01b03851660009081526035602052604090205460ff16611fa55760405162461bcd60e51b8152602060048201526013602482015272496e76616c696420746f20537472617465677960681b60448201526064016109be565b828114611ff45760405162461bcd60e51b815260206004820152601960248201527f506172616d65746572206c656e677468206d69736d617463680000000000000060448201526064016109be565b858560005b858110156121b957816001600160a01b031663aa388af688888481811061202257612022615324565b90506020020160208101906120379190614a8b565b6040516001600160e01b031960e084901b1681526001600160a01b03909116600482015260240160206040518083038186803b15801561207657600080fd5b505afa15801561208a573d6000803e3d6000fd5b505050506040513d601f19601f820116820180604052508101906120ae9190614c8f565b6120ee5760405162461bcd60e51b8152602060048201526011602482015270105cdcd95d081d5b9cdd5c1c1bdc9d1959607a1b60448201526064016109be565b826001600160a01b031663d9caed128389898581811061211057612110615324565b90506020020160208101906121259190614a8b565b88888681811061213757612137615324565b6040516001600160e01b031960e088901b1681526001600160a01b03958616600482015294909316602485015250602090910201356044820152606401600060405180830381600087803b15801561218e57600080fd5b505af11580156121a2573d6000803e3d6000fd5b5050505080806121b1906152ae565b915050611ff9565b50806001600160a01b031663de5f62686040518163ffffffff1660e01b8152600401600060405180830381600087803b1580156121f557600080fd5b505af1158015612209573d6000803e3d6000fd5b505050505050505050505050565b61221f612a91565b61223b5760405162461bcd60e51b81526004016109be90614f73565b6001600160a01b0381166122915760405162461bcd60e51b815260206004820152601a60248201527f4e6f20526562617365204d616e616765722050726f766964656400000000000060448201526064016109be565b6001600160a01b03811660009081526054602052604090205460ff16156123055760405162461bcd60e51b815260206004820152602260248201527f526562617365204d616e6167657220616c72656164792077686974656c697374604482015261195960f21b60648201526084016109be565b6001600160a01b03166000908152605460205260409020805460ff19166001179055565b6037546040516315d5220f60e31b81526001600160a01b038381166004830152600092839291169063aea910789060240160206040518083038186803b15801561237257600080fd5b505afa158015612386573d6000803e3d6000fd5b505050506040513d601f19601f820116820180604052508101906123aa9190614d5d565b90506305f5e100811015610bd557506305f5e100610be28160126008612f4c565b6043546001600160a01b03163314806123e757506123e7612a91565b6124035760405162461bcd60e51b81526004016109be90614ff3565b670de0b6b3a764000081111561244b5760405162461bcd60e51b815260206004820152600d60248201526c496e76616c69642076616c756560981b60448201526064016109be565b603d8190556040518181527f41ecb23a0e7865b25f38c268b7c3012220d822929e9edff07326e89d5bb822b590602001611769565b6043546001600160a01b031633148061249c575061249c612a91565b6124b85760405162461bcd60e51b81526004016109be90614ff3565b6037805460ff60a81b191690556040517f891ebab18da80ebeeea06b1b1cede098329c4c008906a98370c2ac7a80b571cb90600090a1565b60606124fa612a91565b6125165760405162461bcd60e51b81526004016109be90614f73565b604a80548060200260200160405190810160405280929190818152602001828054801561256c57602002820191906000526020600020905b81546001600160a01b0316815260019091019060200180831161254e575b5050505050905090565b61257e612a91565b61259a5760405162461bcd60e51b81526004016109be90614f73565b6001600160a01b0381166125fb5760405162461bcd60e51b815260206004820152602260248201527f5072696d617279537461626c652073686f756c64206e6f7420626520656d70746044820152613c9760f11b60648201526084016109be565b61261d6040518060600160405280602481526020016153cc602491398261348c565b604980546001600160a01b0319166001600160a01b0383161790556040805160608101909152602480825261266691906153cc60208301396049546001600160a01b031661348c565b50565b612671612a91565b61268d5760405162461bcd60e51b81526004016109be90614f73565b603e8190556040518181527f2ec5fb5a3d2703edc461252d92ccd2799c3c74f01d97212b20388207fa17ae4590602001611769565b6126ca612a91565b6126e65760405162461bcd60e51b81526004016109be90614f73565b6000821180156126f65750600081115b6127355760405162461bcd60e51b815260206004820152601060248201526f054696d652063616e6e6f7420626520360841b60448201526064016109be565b605291909155605355565b6043546001600160a01b031633148061275c575061275c612a91565b6127785760405162461bcd60e51b81526004016109be90614ff3565b611cb26136b0565b612788612a91565b6127a45760405162461bcd60e51b81526004016109be90614f73565b603f8190556040518181527f39367850377ac04920a9a670f2180e7a94d83b15ad302e59875ec58fd10bd37d90602001611769565b6043546001600160a01b03163314806127f557506127f5612a91565b6128115760405162461bcd60e51b81526004016109be90614ff3565b604080516001600160a01b038085168252831660208201527fba58ce12801c949fa65f41c46ed108671c219baf945fa48d21026cea99ff252a910160405180910390a16001600160a01b038116156129ed576001600160a01b03811660009081526035602052604090205460ff166128c35760405162461bcd60e51b815260206004820152601560248201527414dd1c985d1959de481b9bdd08185c1c1c9bdd9959605a1b60448201526064016109be565b6001600160a01b038216600090815260336020526040902054819060ff166129265760405162461bcd60e51b8152602060048201526016602482015275105cdcd95d081a5cc81b9bdd081cdd5c1c1bdc9d195960521b60448201526064016109be565b60405163551c457b60e11b81526001600160a01b03848116600483015282169063aa388af69060240160206040518083038186803b15801561296757600080fd5b505afa15801561297b573d6000803e3d6000fd5b505050506040513d601f19601f8201168201806040525081019061299f9190614c8f565b6129eb5760405162461bcd60e51b815260206004820152601f60248201527f4173736574206e6f7420737570706f727465642062792053747261746567790060448201526064016109be565b505b6001600160a01b03918216600090815260446020526040902080546001600160a01b03191691909216179055565b6043546001600160a01b0316331480612a375750612a37612a91565b612a535760405162461bcd60e51b81526004016109be90614ff3565b6037805460ff60a01b1916600160a01b1790556040517f8cff26a5985614b3d30629cc4ab83824bf115aec971b718d8f2f99562032e97290600090a1565b6000612aa960008051602061535f8339815191525490565b6001600160a01b0316336001600160a01b031614905090565b6043546001600160a01b0316331480612ade5750612ade612a91565b612afa5760405162461bcd60e51b81526004016109be90614ff3565b60005b60365481101561266657600060368281548110612b1c57612b1c615324565b60009182526020822001546040805163429c145b60e11b815290516001600160a01b039092169350839263853828b69260048084019382900301818387803b158015612b6757600080fd5b505af1158015612b7b573d6000803e3d6000fd5b50505050508080612b8b906152ae565b915050612afd565b60508181548110612ba357600080fd5b6000918252602090912060059091020180546001820154600283015460038401546004909401546001600160a01b0390931694509092909160ff8082169161010090041686565b60606050805480602002602001604051908101604052809291908181526020016000905b82821015612c8a5760008481526020908190206040805160c0810182526005860290920180546001600160a01b0316835260018082015484860152600282015492840192909252600381015460608401526004015460ff8082161515608085015261010090910416151560a08301529083529092019101612c0e565b50505050905090565b612c9b612a91565b612cb75760405162461bcd60e51b81526004016109be90614f73565b612cdf817f7eaf9a7750884803435dfabc67aa617a7d8fefb23d8d84b3c9722bd69e48c4bc55565b806001600160a01b0316612cff60008051602061535f8339815191525490565b6001600160a01b03167fa39cc5eb22d0f34d8beaefee8a3f17cc229c1a1d1ef87a5ad47313487b1c4f0d60405160405180910390a350565b612d3f612a91565b612d5b5760405162461bcd60e51b81526004016109be90614f73565b6103e8811115612db75760405162461bcd60e51b815260206004820152602160248201527f52656465656d206665652073686f756c64206e6f74206265206f7665722031306044820152602560f81b60648201526084016109be565b60388190556040518181527fd6c7508d6658ccee36b7b7d7fd72e5cbaeefb40c64eff24e9ae7470e846304ee90602001611769565b612df4612a91565b612e105760405162461bcd60e51b81526004016109be90614f73565b803b612e6a5760405162461bcd60e51b8152602060048201526024808201527f6e657720696d706c656d656e746174696f6e206973206e6f74206120636f6e746044820152631c9858dd60e21b60648201526084016109be565b7f10e4e34101c81b29558fe5b91534ae1af03c346313e21b0f6446695a8e18e24355565b612e96612a91565b612eb25760405162461bcd60e51b81526004016109be90614f73565b60008111612ef55760405162461bcd60e51b815260206004820152601060248201526f054696d652063616e6e6f7420626520360841b60448201526064016109be565b605155565b604080516001600160a01b038416602482015260448082018490528251808303909101815260649091019091526020810180516001600160e01b031663a9059cbb60e01b1790526116629084906140a8565b600081831115612f7c57612f75612f63838561522d565b612f6e90600a615127565b859061417a565b9350612fa6565b81831015612fa657612fa3612f91848461522d565b612f9c90600a615127565b859061418f565b93505b509192915050565b61266681604051602401612fc29190614eb3565b60408051601f198184030181529190526020810180516001600160e01b031663104c13eb60e21b17905261419b565b612ff9612a91565b6130155760405162461bcd60e51b81526004016109be90614f73565b6000805b60ff81168311156131e357600084848360ff1681811061303b5761303b615324565b905060c002018036038101906130519190614cac565b80516001600160a01b031660009081526035602052604090205490915060ff1661308d5760405162461bcd60e51b81526004016109be90614faa565b80516001600160a01b03166130e45760405162461bcd60e51b815260206004820152601760248201527f57656967687420776974686f757420737472617465677900000000000000000060448201526064016109be565b8060400151816020015111156131515760405162461bcd60e51b815260206004820152602c60248201527f6d696e5765696768742073686f756c646e277420686967686572207468616e2060448201526b1d185c99d95d15d95a59da1d60a21b60648201526084016109be565b8060600151816040015111156131be5760405162461bcd60e51b815260206004820152602c60248201527f7461726765745765696768742073686f756c646e27742068696768657220746860448201526b185b881b585e15d95a59da1d60a21b60648201526084016109be565b60408101516131cd908461508a565b92505080806131db906152c2565b915050613019565b50620186a081146132485760405162461bcd60e51b815260206004820152602960248201527f546f74616c207461726765742073686f756c6420657175616c20746f20544f54604482015268105317d5d15251d21560ba1b60648201526084016109be565b60006132a58484808060200260200160405190810160405280939291908181526020016000905b8282101561329b5761328c60c08302860136819003810190614cac565b8152602001906001019061326f565b50505050506141bc565b905060005b81518160ff161015613339576132df828260ff16815181106132ce576132ce615324565b60200260200101518260ff166143cf565b8060ff16604f600060508460ff16815481106132fd576132fd615324565b600091825260208083206005909202909101546001600160a01b0316835282019290925260400190205580613331816152c2565b9150506132aa565b50805160505411156133d35780516050546000916133569161522d565b905060005b818160ff1610156133d05760508054806133775761337761530e565b60008281526020812060056000199093019283020180546001600160a01b031916815560018101829055600281018290556003810191909155600401805461ffff191690559055806133c8816152c2565b91505061335b565b50505b60005b60505460ff8216101561348557600060508260ff16815481106133fb576133fb615324565b60009182526020918290206040805160c081018252600590930290910180546001600160a01b03168084526001820154948401949094526002810154918301829052600381015460608401526004015460ff8082161515608085015261010090910416151560a083015290925061347291906144ce565b508061347d816152c2565b9150506133d6565b5050505050565b610aef82826040516024016134a2929190614ec6565b60408051601f198184030181529190526020810180516001600160e01b031663319af33360e01b17905261419b565b6001600160a01b0381166135275760405162461bcd60e51b815260206004820152601a60248201527f4e657720476f7665726e6f72206973206164647265737328302900000000000060448201526064016109be565b806001600160a01b031661354760008051602061535f8339815191525490565b6001600160a01b03167fc7c0c772add429241571afb3805861fb3cfa2af374534088b76cdb4325a87e9a60405160405180910390a36126668160008051602061535f83398151915255565b6051546053546135a2904261508a565b10156135aa57565b604d60009054906101000a90046001600160a01b03166001600160a01b031663e4d873206040518163ffffffff1660e01b8152600401600060405180830381600087803b1580156135fa57600080fd5b505af115801561360e573d6000803e3d6000fd5b50505050604e60009054906101000a90046001600160a01b03166001600160a01b031663737962976040518163ffffffff1660e01b8152600401600060405180830381600087803b15801561366257600080fd5b505af1158015613676573d6000803e3d6000fd5b505050506136826136b0565b605354605154613692919061522d565b4210611cb2576052546051546136a8919061508a565b605155613682565b6049546001600160a01b031660006136c6612bea565b9050600081511161370b5760405162461bcd60e51b815260206004820152600f60248201526e15d95a59da1d1cc81b9bdd081cd95d608a1b60448201526064016109be565b6049546001600160a01b03166137505760405162461bcd60e51b815260206004820152600a6024820152691414c81b9bdd081cd95d60b21b60448201526064016109be565b60008060005b83518160ff1610156139d257838160ff168151811061377757613777615324565b60200260200101516080015161378c576139c0565b838160ff16815181106137a1576137a1615324565b6020026020010151604001516000141561382d57838160ff16815181106137ca576137ca615324565b6020026020010151600001516001600160a01b031663853828b66040518163ffffffff1660e01b8152600401600060405180830381600087803b15801561381057600080fd5b505af1158015613824573d6000803e3d6000fd5b505050506139c0565b6138f46040518060400160405280601581526020017402130b630b731b29034b71039ba30b93a32b3bc9d1605d1b815250858360ff168151811061387357613873615324565b6020026020010151600001516001600160a01b031663c71daccb6040518163ffffffff1660e01b815260040160206040518083038186803b1580156138b757600080fd5b505afa1580156138cb573d6000803e3d6000fd5b505050506040513d601f19601f820116820180604052508101906138ef9190614d5d565b61451d565b838160ff168151811061390957613909615324565b6020026020010151600001516001600160a01b031663c71daccb6040518163ffffffff1660e01b815260040160206040518083038186803b15801561394d57600080fd5b505afa158015613961573d6000803e3d6000fd5b505050506040513d601f19601f820116820180604052508101906139859190614d5d565b61398f908461508a565b9250838160ff16815181106139a6576139a6615324565b602002602001015160400151826139bd919061508a565b91505b806139ca816152c2565b915050613756565b506040516370a0823160e01b81523060048201526000906001600160a01b038616906370a082319060240160206040518083038186803b158015613a1557600080fd5b505afa158015613a29573d6000803e3d6000fd5b505050506040513d601f19601f82011682018060405250810190613a4d9190614d5d565b613a57908461508a565b9050613a886040518060400160405280600d81526020016c02a37ba30b61030b9b9b2ba1d1609d1b8152508261451d565b6000845167ffffffffffffffff811115613aa457613aa461533a565b604051908082528060200260200182016040528015613aef57816020015b6040805160608101825260008082526020808301829052928201528252600019909201910181613ac25790505b5090506000805b86518160ff161015613e2e57868160ff1681518110613b1757613b17615324565b602002602001015160800151613b2c57613e1c565b6000878260ff1681518110613b4357613b43615324565b60200260200101516040015160001415613b5f57506000613b99565b85888360ff1681518110613b7557613b75615324565b60200260200101516040015186613b8c91906151cf565b613b9691906150d0565b90505b6000888360ff1681518110613bb057613bb0615324565b6020026020010151600001516001600160a01b031663c71daccb6040518163ffffffff1660e01b815260040160206040518083038186803b158015613bf457600080fd5b505afa158015613c08573d6000803e3d6000fd5b505050506040513d601f19601f82011682018060405250810190613c2c9190614d5d565b905080821415613c3d575050613e1c565b80821015613d565760408051808201909152601881527f5769746864726177206e6f7720616d6f756e742066726f6d00000000000000006020820152613cad90613c87848461522d565b8b8660ff1681518110613c9c57613c9c615324565b602002602001015160000151614562565b888360ff1681518110613cc257613cc2615324565b6020026020010151600001516001600160a01b031663d9caed12308c8585613cea919061522d565b6040516001600160e01b031960e086901b1681526001600160a01b0393841660048201529290911660248301526044820152606401600060405180830381600087803b158015613d3957600080fd5b505af1158015613d4d573d6000803e3d6000fd5b50505050613e19565b60408051808201909152601981527f4465706f736974206c6174657220616d6f756e742066726f6d000000000000006020820152613d9890613c87838561522d565b60405180606001604052806001151581526020018a8560ff1681518110613dc157613dc1615324565b6020026020010151600001516001600160a01b031681526020018284613de7919061522d565b815250858560ff1681518110613dff57613dff615324565b60200260200101819052508380613e15906152c2565b9450505b50505b80613e26816152c2565b915050613af6565b50613e8a6040518060600160405280602a815260200161537f602a91396040516370a0823160e01b81523060048201526001600160a01b038a16906370a082319060240160206040518083038186803b1580156138b757600080fd5b60005b8160ff168160ff161015611572576000838260ff1681518110613eb257613eb2615324565b60200260200101516020015190506000848360ff1681518110613ed757613ed7615324565b6020026020010151604001519050613f256040518060400160405280601981526020017f50726f63657373696e67207374616b65206f72646572206f660000000000000081525083836145a9565b6040516370a0823160e01b81523060048201526000906001600160a01b038c16906370a082319060240160206040518083038186803b158015613f6757600080fd5b505afa158015613f7b573d6000803e3d6000fd5b505050506040513d601f19601f82011682018060405250810190613f9f9190614d5d565b905081811015613fad578091505b60405163a9059cbb60e01b81526001600160a01b038481166004830152602482018490528c169063a9059cbb90604401602060405180830381600087803b158015613ff757600080fd5b505af115801561400b573d6000803e3d6000fd5b505050506040513d601f19601f8201168201806040525081019061402f9190614c8f565b506040516311f9fbc960e21b81526001600160a01b038c81166004830152602482018490528416906347e7ef2490604401600060405180830381600087803b15801561407a57600080fd5b505af115801561408e573d6000803e3d6000fd5b5050505050505080806140a0906152c2565b915050613e8d565b60006140fd826040518060400160405280602081526020017f5361666545524332303a206c6f772d6c6576656c2063616c6c206661696c6564815250856001600160a01b03166145f09092919063ffffffff16565b805190915015611662578080602001905181019061411b9190614c8f565b6116625760405162461bcd60e51b815260206004820152602a60248201527f5361666545524332303a204552433230206f7065726174696f6e20646964206e6044820152691bdd081cdd58d8d9595960b21b60648201526084016109be565b600061418682846151cf565b90505b92915050565b600061418682846150d0565b80516a636f6e736f6c652e6c6f67602083016000808483855afa5050505050565b60606000825167ffffffffffffffff8111156141da576141da61533a565b604051908082528060200260200182016040528015614203578160200160208202803683370190505b50905060005b835181101561425f5783818151811061422457614224615324565b60200260200101516040015182828151811061424257614242615324565b602090810291909101015280614257816152ae565b915050614209565b506000815167ffffffffffffffff81111561427c5761427c61533a565b6040519080825280602002602001820160405280156142a5578160200160208202803683370190505b50905060005b81518110156142e457808282815181106142c7576142c7615324565b6020908102919091010152806142dc816152ae565b9150506142ab565b506142ff826000600185516142f9919061522d565b84614607565b6000825167ffffffffffffffff81111561431b5761431b61533a565b60405190808252806020026020018201604052801561435457816020015b6143416149c0565b8152602001906001900390816143395790505b50905060005b82518110156143c6578583828151811061437657614376615324565b60200260200101518151811061438e5761438e615324565b60200260200101518282815181106143a8576143a8615324565b602002602001018190525080806143be906152ae565b91505061435a565b50949350505050565b6050548015806143e85750816143e660018361522d565b105b156144355760006143f9828461522d565b61440490600161508a565b905060005b818160ff161015614432576050805460010181556000528061442a816152c2565b915050614409565b50505b826050838154811061444957614449615324565b6000918252602091829020835160059092020180546001600160a01b039092166001600160a01b0319909216919091178155908201516001820155604082015160028201556060820151600382015560808201516004909101805460a09093015115156101000261ff00199215159290921661ffff1990931692909217179055505050565b6040516001600160a01b038316602482015260448101829052610aef9060640160408051601f198184030181529190526020810180516001600160e01b0316632243cfa360e01b17905261419b565b610aef8282604051602401614533929190614f1e565b60408051601f198184030181529190526020810180516001600160e01b03166309710a9d60e41b17905261419b565b61166283838360405160240161457a93929190614f40565b60408051601f198184030181529190526020810180516001600160e01b031663e3849f7960e01b17905261419b565b6116628383836040516024016145c193929190614ef0565b60408051601f198184030181529190526020810180516001600160e01b03166307c8121760e01b17905261419b565b60606145ff84846000856147fc565b949350505050565b8282808214156146185750506147f6565b600086600261462788886151ee565b61463191906150a2565b61463b9088615049565b8151811061464b5761464b615324565b602002602001015190505b8183136147ca575b8087848151811061467157614671615324565b6020026020010151111561469157826146898161528e565b93505061465e565b8682815181106146a3576146a3615324565b60200260200101518111156146c457816146bc81615270565b925050614691565b8183136147c5578682815181106146dd576146dd615324565b60200260200101518784815181106146f7576146f7615324565b602002602001015188858151811061471157614711615324565b6020026020010189858151811061472a5761472a615324565b602002602001018281525082815250505083828151811061474d5761474d615324565b602002602001015184848151811061476757614767615324565b602002602001015185858151811061478157614781615324565b6020026020010186858151811061479a5761479a615324565b602090810291909101019190915252826147b38161528e565b93505081806147c190615270565b9250505b614656565b818612156147de576147de87878487614607565b848312156147f2576147f287848787614607565b5050505b50505050565b60608247101561485d5760405162461bcd60e51b815260206004820152602660248201527f416464726573733a20696e73756666696369656e742062616c616e636520666f6044820152651c8818d85b1b60d21b60648201526084016109be565b843b6148ab5760405162461bcd60e51b815260206004820152601d60248201527f416464726573733a2063616c6c20746f206e6f6e2d636f6e747261637400000060448201526064016109be565b600080866001600160a01b031685876040516148c79190614e08565b60006040518083038185875af1925050503d8060008114614904576040519150601f19603f3d011682016040523d82523d6000602084013e614909565b606091505b5091509150614919828286614924565b979650505050505050565b60608315614933575081610be2565b8251156149435782518084602001fd5b8160405162461bcd60e51b81526004016109be9190614eb3565b8280548282559060005260206000209081019282156149b0579160200282015b828111156149b05781546001600160a01b0319166001600160a01b0384351617825560209092019160019091019061497d565b506149bc929150614a03565b5090565b6040518060c0016040528060006001600160a01b031681526020016000815260200160008152602001600081526020016000151581526020016000151581525090565b5b808211156149bc5760008155600101614a04565b80356001600160a01b0381168114614a2f57600080fd5b919050565b60008083601f840112614a4657600080fd5b50813567ffffffffffffffff811115614a5e57600080fd5b6020830191508360208260051b8501011115614a7957600080fd5b9250929050565b8035614a2f81615350565b600060208284031215614a9d57600080fd5b61418682614a18565b60008060408385031215614ab957600080fd5b614ac283614a18565b9150614ad060208401614a18565b90509250929050565b60008060008060008060808789031215614af257600080fd5b614afb87614a18565b9550614b0960208801614a18565b9450604087013567ffffffffffffffff80821115614b2657600080fd5b614b328a838b01614a34565b90965094506060890135915080821115614b4b57600080fd5b50614b5889828a01614a34565b979a9699509497509295939492505050565b60008060408385031215614b7d57600080fd5b614b8683614a18565b946020939093013593505050565b60008060008060808587031215614baa57600080fd5b614bb385614a18565b935060208501359250614bc860408601614a18565b9396929550929360600135925050565b60008060208385031215614beb57600080fd5b823567ffffffffffffffff811115614c0257600080fd5b614c0e85828601614a34565b90969095509350505050565b60008060208385031215614c2d57600080fd5b823567ffffffffffffffff80821115614c4557600080fd5b818501915085601f830112614c5957600080fd5b813581811115614c6857600080fd5b86602060c083028501011115614c7d57600080fd5b60209290920196919550909350505050565b600060208284031215614ca157600080fd5b8151610be281615350565b600060c08284031215614cbe57600080fd5b60405160c0810181811067ffffffffffffffff82111715614cef57634e487b7160e01b600052604160045260246000fd5b604052614cfb83614a18565b8152602083013560208201526040830135604082015260608301356060820152614d2760808401614a80565b6080820152614d3860a08401614a80565b60a08201529392505050565b600060208284031215614d5657600080fd5b5035919050565b600060208284031215614d6f57600080fd5b5051919050565b60008060408385031215614d8957600080fd5b50508035926020909101359150565b60008151808452614db0816020860160208601615244565b601f01601f19169290920160200192915050565b80516001600160a01b0316825260208082015190830152604080820151908301526060808201519083015260808082015115159083015260a0908101511515910152565b60008251614e1a818460208701615244565b9190910192915050565b6020808252825182820181905260009190848201906040850190845b81811015614e655783516001600160a01b031683529284019291840191600101614e40565b50909695505050505050565b6020808252825182820181905260009190848201906040850190845b81811015614e6557614ea0838551614dc4565b9284019260c09290920191600101614e8d565b6020815260006141866020830184614d98565b604081526000614ed96040830185614d98565b905060018060a01b03831660208301529392505050565b606081526000614f036060830186614d98565b6001600160a01b039490941660208301525060400152919050565b604081526000614f316040830185614d98565b90508260208301529392505050565b606081526000614f536060830186614d98565b6020830194909452506001600160a01b0391909116604090910152919050565b6020808252601a908201527f43616c6c6572206973206e6f742074686520476f7665726e6f72000000000000604082015260600190565b60208082526029908201527f53747261746567792073686f756c6420626520737570706f72746564206279206040820152681d1a194815985d5b1d60ba1b606082015260800190565b60208082526028908201527f43616c6c6572206973206e6f74207468652053747261746567697374206f722060408201526723b7bb32b93737b960c11b606082015260800190565b60c081016141898284614dc4565b600080821280156001600160ff1b038490038513161561506b5761506b6152e2565b600160ff1b8390038412811615615084576150846152e2565b50500190565b6000821982111561509d5761509d6152e2565b500190565b6000826150b1576150b16152f8565b600160ff1b8214600019841416156150cb576150cb6152e2565b500590565b6000826150df576150df6152f8565b500490565b600181815b8085111561511f578160001904821115615105576151056152e2565b8085161561511257918102915b93841c93908002906150e9565b509250929050565b6000614186838360008261513d57506001614189565b8161514a57506000614189565b8160018114615160576002811461516a57615186565b6001915050614189565b60ff84111561517b5761517b6152e2565b50506001821b614189565b5060208310610133831016604e8410600b84101617156151a9575081810a614189565b6151b383836150e4565b80600019048211156151c7576151c76152e2565b029392505050565b60008160001904831182151516156151e9576151e96152e2565b500290565b60008083128015600160ff1b85018412161561520c5761520c6152e2565b6001600160ff1b0384018313811615615227576152276152e2565b50500390565b60008282101561523f5761523f6152e2565b500390565b60005b8381101561525f578181015183820152602001615247565b838111156147f65750506000910152565b6000600160ff1b821415615286576152866152e2565b506000190190565b60006001600160ff1b038214156152a7576152a76152e2565b5060010190565b60006000198214156152a7576152a76152e2565b600060ff821660ff8114156152d9576152d96152e2565b60010192915050565b634e487b7160e01b600052601160045260246000fd5b634e487b7160e01b600052601260045260246000fd5b634e487b7160e01b600052603160045260246000fd5b634e487b7160e01b600052603260045260246000fd5b634e487b7160e01b600052604160045260246000fd5b801515811461266657600080fdfe83f34c88ec39d54d1e423bd8a181ebc59ede5dcc9996c2df334668b4f89fdd735f61737365742042616c616e636520617661696c61626c65206166746572207769746864726177696e6752656d6f76696e672073747261746567792066726f6d20717569636b4465706f7369745661756c7441646d696e3a2053657474696e67205072696d61727920537461626c653a20a2646970667358221220e890edf3e2cd01d3cb3a5306ec74b0a87de8b1623d3b8cde0ed935c0495a7fdd64736f6c6343000806003383f34c88ec39d54d1e423bd8a181ebc59ede5dcc9996c2df334668b4f89fdd73",
  "devdoc": {
    "kind": "dev",
    "methods": {
      "addRebaseManager(address)": {
        "details": "Set rebase managers to allow rebasing to specific external users",
        "params": {
          "_rebaseManager": "Candidate for Rebase Manager"
        }
      },
      "approveStrategy(address)": {
        "details": "Add a strategy to the Vault.",
        "params": {
          "_addr": "Address of the strategy to add"
        }
      },
      "balance()": {
        "details": "Balance the Vault with predefined weights"
      },
      "claimGovernance()": {
        "details": "Claim Governance of the contract to a new account (`newGovernor`). Can only be called by the new Governor."
      },
      "getAllStrategyWithWeights()": {
        "details": "Accessor function for strategyWithWeights",
        "returns": {
          "_0": "strategyWithWeights StrategyWithWeight[] object"
        }
      },
      "getFeeParams()": {
        "details": "Get Fee parameters for Labs and Team",
        "returns": {
          "_0": "Tuple containing the Lab address, Lab % in Bps, Team address, Team % in Bps"
        }
      },
      "getQuickDepositStrategies()": {
        "details": "Get the quick deposit strategies for quickAllocation of funds.",
        "returns": {
          "_0": "QuickDepositStrategies Array of pre-appproved startegy addresses"
        }
      },
      "getStrategyWithWeight(address)": {
        "details": "Utility function to return the StrategyWithWeight object by strategy address",
        "params": {
          "strategy": "address of the strategy"
        },
        "returns": {
          "_0": "StrategyWithWeight object against the address"
        }
      },
      "governor()": {
        "details": "Returns the address of the current Governor."
      },
      "isGovernor()": {
        "details": "Returns true if the caller is the current Governor."
      },
      "isRebaseManager(address)": {
        "details": "Check if the an address is actually a Rebase Manager",
        "params": {
          "_sender": "address to check if it is among Rebase Managers"
        }
      },
      "pauseCapital()": {
        "details": "Set the deposit paused flag to true to prevent capital movement."
      },
      "pauseRebase()": {
        "details": "Set the deposit paused flag to true to prevent rebasing."
      },
      "payout()": {
        "details": "Function to collect rewards from Strategies and Balance the Vault"
      },
      "priceUSDMint(address)": {
        "details": "Returns the total price in 18 digit USD for a given asset.      Never goes above 1, since that is how we price mints",
        "params": {
          "asset": "address of the asset"
        },
        "returns": {
          "_0": "uint256 USD price of 1 of the asset, in 18 decimal fixed"
        }
      },
      "priceUSDRedeem(address)": {
        "details": "Returns the total price in 18 digit USD for a given asset.      Never goes below 1, since that is how we price redeems",
        "params": {
          "asset": "Address of the asset"
        },
        "returns": {
          "_0": "uint256 USD price of 1 of the asset, in 18 decimal fixed"
        }
      },
      "reallocate(address,address,address[],uint256[])": {
        "params": {
          "_amounts": "Array of amounts of each corresponding asset to move.",
          "_assets": "Array of asset address that will be moved",
          "_strategyFromAddress": "Address of Strategy to move assets from.",
          "_strategyToAddress": "Address of Strategy to move assets to."
        }
      },
      "removeStrategy(address)": {
        "details": "Remove a strategy from the Vault.",
        "params": {
          "_addr": "Address of the strategy to remove"
        }
      },
      "setAdminImpl(address)": {
        "details": "set the implementation for the admin, this needs to be in a base class else we cannot set it",
        "params": {
          "newImpl": "address of the implementation"
        }
      },
      "setAssetDefaultStrategy(address,address)": {
        "details": "Set the default Strategy for an asset, i.e. the one which the asset will be automatically allocated to and withdrawn from",
        "params": {
          "_asset": "Address of the asset",
          "_strategy": "Address of the Strategy"
        }
      },
      "setAutoAllocateThreshold(uint256)": {
        "details": "Sets the minimum amount of CASH in a mint to trigger an automatic allocation of funds afterwords.",
        "params": {
          "_threshold": "CASH amount with 18 fixed decimals."
        }
      },
      "setDripper(address)": {
        "details": "Set the Dripper address in the Value",
        "params": {
          "_dripper": "Address of the Dripper"
        }
      },
      "setFeeParams(address,uint256,address,uint256)": {
        "details": "Set the Fee Distribution Parameters for Vault (currently not used, but may be infuture) and for Harvester",
        "params": {
          "_labsAddress": "address of the Labs account",
          "_labsFeeBps": "% in bps which Labs would recieve",
          "_teamAddress": "address of the Team account",
          "_teamFeeBps": "% in bps which Team would recieve"
        }
      },
      "setHarvester(address)": {
        "details": "Set the Harvester address in the Vault",
        "params": {
          "_harvester": "Address of Harvester"
        }
      },
      "setMaxSupplyDiff(uint256)": {
        "details": "Sets the maximum allowable difference between total supply and backing assets' value."
      },
      "setNextPayoutTime(uint256)": {
        "details": "Set nextPayoutTime timestamp. Should be called once at the time initialization Can be arbitary as it will auto set by payout()",
        "params": {
          "_nextPayoutTime": "timestamp of next Payout"
        }
      },
      "setPayoutIntervals(uint256,uint256)": {
        "details": "Set _payoutPeriod and _payoutPeriod duration.",
        "params": {
          "_payoutPeriod": "Period for the payout. Ex: 24 * 60 * 60;",
          "_payoutTimeRange": "duration to honor payout time. Ex: 15 * 60;"
        }
      },
      "setPriceProvider(address)": {
        "details": "Set address of price provider.",
        "params": {
          "_priceProvider": "Address of price provider"
        }
      },
      "setPrimaryStable(address)": {
        "details": "Set the Primary Stable address",
        "params": {
          "_primaryStable": "Address of the Primary Stable"
        }
      },
      "setQuickDepositStrategies(address[])": {
        "details": "Set the quick deposit strategies for quickAllocation of funds.",
        "params": {
          "_quickDepositStrategies": "Array of pre-appproved startegy addresses"
        }
      },
      "setRebaseThreshold(uint256)": {
        "details": "Set a minimum amount of CASH in a mint or redeem that triggers a rebase",
        "params": {
          "_threshold": "CASH amount with 18 fixed decimals."
        }
      },
      "setRedeemFeeBps(uint256)": {
        "details": "Set a fee in basis points to be charged for a redeem.",
        "params": {
          "_redeemFeeBps": "Basis point fee to be charged"
        }
      },
      "setStrategistAddr(address)": {
        "details": "Set address of Strategist",
        "params": {
          "_address": "Address of Strategist"
        }
      },
      "setStrategyWithWeights((address,uint256,uint256,uint256,bool,bool)[])": {
        "details": "Set the Weight against each strategy",
        "params": {
          "_strategyWithWeights": "Array of StrategyWithWeight structs to set"
        }
      },
      "setSwapper(address,bytes32)": {
        "details": "Set the Balancer Vault as primary swapper for the Vault",
        "params": {
          "_balancerPoolId": "Id of the Balancer Pool to use for swapping",
          "_balancerVault": "Address of Balancer Vault"
        }
      },
      "setVaultBuffer(uint256)": {
        "details": "Set a buffer of assets to keep in the Vault to handle most redemptions without needing to spend gas unwinding assets from a Strategy.",
        "params": {
          "_vaultBuffer": "Percentage using 18 decimals. 100% = 1e18."
        }
      },
      "supportAsset(address)": {
        "details": "Add a supported asset to the contract, i.e. one that can be         to mint CASH.",
        "params": {
          "_asset": "Address of asset"
        }
      },
      "transferGovernance(address)": {
        "details": "Transfers Governance of the contract to a new account (`newGovernor`). Can only be called by the current Governor. Must be claimed for this to complete",
        "params": {
          "_newGovernor": "Address of the new Governor"
        }
      },
      "transferToken(address,uint256)": {
        "details": "Transfer token to governor. Intended for recovering tokens stuck in      contract, i.e. mistaken sends.",
        "params": {
          "_amount": "Amount of the asset to transfer",
          "_asset": "Address for the asset"
        }
      },
      "unpauseCapital()": {
        "details": "Set the deposit paused flag to false to enable capital movement."
      },
      "unpauseRebase()": {
        "details": "Set the deposit paused flag to true to allow rebasing."
      },
      "withdrawAllFromStrategies()": {
        "details": "Withdraws all assets from all the strategies and sends assets to the Vault."
      },
      "withdrawAllFromStrategy(address)": {
        "details": "Withdraws all assets from the strategy and sends assets to the Vault.",
        "params": {
          "_strategyAddr": "Strategy address."
        }
      }
    },
    "version": 1
  },
  "userdoc": {
    "kind": "user",
    "methods": {
      "reallocate(address,address,address[],uint256[])": {
        "notice": "Move assets from one Strategy to another"
      }
    },
    "version": 1
  },
  "storageLayout": {
    "storage": [
      {
        "astId": 30623,
        "contract": "contracts/vault/VaultAdmin.sol:VaultAdmin",
        "label": "initialized",
        "offset": 0,
        "slot": "0",
        "type": "t_bool"
      },
      {
        "astId": 30626,
        "contract": "contracts/vault/VaultAdmin.sol:VaultAdmin",
        "label": "initializing",
        "offset": 1,
        "slot": "0",
        "type": "t_bool"
      },
      {
        "astId": 30666,
        "contract": "contracts/vault/VaultAdmin.sol:VaultAdmin",
        "label": "______gap",
        "offset": 0,
        "slot": "1",
        "type": "t_array(t_uint256)50_storage"
      },
      {
        "astId": 36268,
        "contract": "contracts/vault/VaultAdmin.sol:VaultAdmin",
        "label": "assets",
        "offset": 0,
        "slot": "51",
        "type": "t_mapping(t_address,t_struct(Asset)36263_storage)"
      },
      {
        "astId": 36271,
        "contract": "contracts/vault/VaultAdmin.sol:VaultAdmin",
        "label": "allAssets",
        "offset": 0,
        "slot": "52",
        "type": "t_array(t_address)dyn_storage"
      },
      {
        "astId": 36281,
        "contract": "contracts/vault/VaultAdmin.sol:VaultAdmin",
        "label": "strategies",
        "offset": 0,
        "slot": "53",
        "type": "t_mapping(t_address,t_struct(Strategy)36276_storage)"
      },
      {
        "astId": 36284,
        "contract": "contracts/vault/VaultAdmin.sol:VaultAdmin",
        "label": "allStrategies",
        "offset": 0,
        "slot": "54",
        "type": "t_array(t_address)dyn_storage"
      },
      {
        "astId": 36286,
        "contract": "contracts/vault/VaultAdmin.sol:VaultAdmin",
        "label": "priceProvider",
        "offset": 0,
        "slot": "55",
        "type": "t_address"
      },
      {
        "astId": 36289,
        "contract": "contracts/vault/VaultAdmin.sol:VaultAdmin",
        "label": "rebasePaused",
        "offset": 20,
        "slot": "55",
        "type": "t_bool"
      },
      {
        "astId": 36292,
        "contract": "contracts/vault/VaultAdmin.sol:VaultAdmin",
        "label": "capitalPaused",
        "offset": 21,
        "slot": "55",
        "type": "t_bool"
      },
      {
        "astId": 36294,
        "contract": "contracts/vault/VaultAdmin.sol:VaultAdmin",
        "label": "redeemFeeBps",
        "offset": 0,
        "slot": "56",
        "type": "t_uint256"
      },
      {
        "astId": 36296,
        "contract": "contracts/vault/VaultAdmin.sol:VaultAdmin",
        "label": "labsAddress",
        "offset": 0,
        "slot": "57",
        "type": "t_address"
      },
      {
        "astId": 36298,
        "contract": "contracts/vault/VaultAdmin.sol:VaultAdmin",
        "label": "labsFeeBps",
        "offset": 0,
        "slot": "58",
        "type": "t_uint256"
      },
      {
        "astId": 36300,
        "contract": "contracts/vault/VaultAdmin.sol:VaultAdmin",
        "label": "teamAddress",
        "offset": 0,
        "slot": "59",
        "type": "t_address"
      },
      {
        "astId": 36302,
        "contract": "contracts/vault/VaultAdmin.sol:VaultAdmin",
        "label": "teamFeeBps",
        "offset": 0,
        "slot": "60",
        "type": "t_uint256"
      },
      {
        "astId": 36304,
        "contract": "contracts/vault/VaultAdmin.sol:VaultAdmin",
        "label": "vaultBuffer",
        "offset": 0,
        "slot": "61",
        "type": "t_uint256"
      },
      {
        "astId": 36306,
        "contract": "contracts/vault/VaultAdmin.sol:VaultAdmin",
        "label": "autoAllocateThreshold",
        "offset": 0,
        "slot": "62",
        "type": "t_uint256"
      },
      {
        "astId": 36308,
        "contract": "contracts/vault/VaultAdmin.sol:VaultAdmin",
        "label": "rebaseThreshold",
        "offset": 0,
        "slot": "63",
        "type": "t_uint256"
      },
      {
        "astId": 36311,
        "contract": "contracts/vault/VaultAdmin.sol:VaultAdmin",
        "label": "cash",
        "offset": 0,
        "slot": "64",
        "type": "t_contract(CASH)29912"
      },
      {
        "astId": 36320,
        "contract": "contracts/vault/VaultAdmin.sol:VaultAdmin",
        "label": "_deprecated_rebaseHooksAddr",
        "offset": 0,
        "slot": "65",
        "type": "t_address"
      },
      {
        "astId": 36326,
        "contract": "contracts/vault/VaultAdmin.sol:VaultAdmin",
        "label": "_deprecated_uniswapAddr",
        "offset": 0,
        "slot": "66",
        "type": "t_address"
      },
      {
        "astId": 36332,
        "contract": "contracts/vault/VaultAdmin.sol:VaultAdmin",
        "label": "strategistAddr",
        "offset": 0,
        "slot": "67",
        "type": "t_address"
      },
      {
        "astId": 36336,
        "contract": "contracts/vault/VaultAdmin.sol:VaultAdmin",
        "label": "assetDefaultStrategies",
        "offset": 0,
        "slot": "68",
        "type": "t_mapping(t_address,t_address)"
      },
      {
        "astId": 36338,
        "contract": "contracts/vault/VaultAdmin.sol:VaultAdmin",
        "label": "maxSupplyDiff",
        "offset": 0,
        "slot": "69",
        "type": "t_uint256"
      },
      {
        "astId": 36340,
        "contract": "contracts/vault/VaultAdmin.sol:VaultAdmin",
        "label": "trusteeAddress",
        "offset": 0,
        "slot": "70",
        "type": "t_address"
      },
      {
        "astId": 36342,
        "contract": "contracts/vault/VaultAdmin.sol:VaultAdmin",
        "label": "trusteeFeeBps",
        "offset": 0,
        "slot": "71",
        "type": "t_uint256"
      },
      {
        "astId": 36345,
        "contract": "contracts/vault/VaultAdmin.sol:VaultAdmin",
        "label": "_deprecated_swapTokens",
        "offset": 0,
        "slot": "72",
        "type": "t_array(t_address)dyn_storage"
      },
      {
        "astId": 36350,
        "contract": "contracts/vault/VaultAdmin.sol:VaultAdmin",
        "label": "primaryStableAddress",
        "offset": 0,
        "slot": "73",
        "type": "t_address"
      },
      {
        "astId": 36353,
        "contract": "contracts/vault/VaultAdmin.sol:VaultAdmin",
        "label": "quickDepositStrategies",
        "offset": 0,
        "slot": "74",
        "type": "t_array(t_address)dyn_storage"
      },
      {
        "astId": 36355,
        "contract": "contracts/vault/VaultAdmin.sol:VaultAdmin",
        "label": "balancerVault",
        "offset": 0,
        "slot": "75",
        "type": "t_address"
      },
      {
        "astId": 36357,
        "contract": "contracts/vault/VaultAdmin.sol:VaultAdmin",
        "label": "balancerPoolId",
        "offset": 0,
        "slot": "76",
        "type": "t_bytes32"
      },
      {
        "astId": 36359,
        "contract": "contracts/vault/VaultAdmin.sol:VaultAdmin",
        "label": "harvesterAddress",
        "offset": 0,
        "slot": "77",
        "type": "t_address"
      },
      {
        "astId": 36361,
        "contract": "contracts/vault/VaultAdmin.sol:VaultAdmin",
        "label": "dripperAddress",
        "offset": 0,
        "slot": "78",
        "type": "t_address"
      },
      {
        "astId": 36378,
        "contract": "contracts/vault/VaultAdmin.sol:VaultAdmin",
        "label": "strategyWithWeightPositions",
        "offset": 0,
        "slot": "79",
        "type": "t_mapping(t_address,t_uint256)"
      },
      {
        "astId": 36382,
        "contract": "contracts/vault/VaultAdmin.sol:VaultAdmin",
        "label": "strategyWithWeights",
        "offset": 0,
        "slot": "80",
        "type": "t_array(t_struct(StrategyWithWeight)36374_storage)dyn_storage"
      },
      {
        "astId": 36387,
        "contract": "contracts/vault/VaultAdmin.sol:VaultAdmin",
        "label": "nextPayoutTime",
        "offset": 0,
        "slot": "81",
        "type": "t_uint256"
      },
      {
        "astId": 36389,
        "contract": "contracts/vault/VaultAdmin.sol:VaultAdmin",
        "label": "payoutPeriod",
        "offset": 0,
        "slot": "82",
        "type": "t_uint256"
      },
      {
        "astId": 36391,
        "contract": "contracts/vault/VaultAdmin.sol:VaultAdmin",
        "label": "payoutTimeRange",
        "offset": 0,
        "slot": "83",
        "type": "t_uint256"
      },
      {
        "astId": 36395,
        "contract": "contracts/vault/VaultAdmin.sol:VaultAdmin",
        "label": "rebaseManagers",
        "offset": 0,
        "slot": "84",
        "type": "t_mapping(t_address,t_bool)"
      }
    ],
    "types": {
      "t_address": {
        "encoding": "inplace",
        "label": "address",
        "numberOfBytes": "20"
      },
      "t_array(t_address)dyn_storage": {
        "base": "t_address",
        "encoding": "dynamic_array",
        "label": "address[]",
        "numberOfBytes": "32"
      },
      "t_array(t_struct(StrategyWithWeight)36374_storage)dyn_storage": {
        "base": "t_struct(StrategyWithWeight)36374_storage",
        "encoding": "dynamic_array",
        "label": "struct VaultStorage.StrategyWithWeight[]",
        "numberOfBytes": "32"
      },
      "t_array(t_uint256)50_storage": {
        "base": "t_uint256",
        "encoding": "inplace",
        "label": "uint256[50]",
        "numberOfBytes": "1600"
      },
      "t_bool": {
        "encoding": "inplace",
        "label": "bool",
        "numberOfBytes": "1"
      },
      "t_bytes32": {
        "encoding": "inplace",
        "label": "bytes32",
        "numberOfBytes": "32"
      },
      "t_contract(CASH)29912": {
        "encoding": "inplace",
        "label": "contract CASH",
        "numberOfBytes": "20"
      },
      "t_mapping(t_address,t_address)": {
        "encoding": "mapping",
        "key": "t_address",
        "label": "mapping(address => address)",
        "numberOfBytes": "32",
        "value": "t_address"
      },
      "t_mapping(t_address,t_bool)": {
        "encoding": "mapping",
        "key": "t_address",
        "label": "mapping(address => bool)",
        "numberOfBytes": "32",
        "value": "t_bool"
      },
      "t_mapping(t_address,t_struct(Asset)36263_storage)": {
        "encoding": "mapping",
        "key": "t_address",
        "label": "mapping(address => struct VaultStorage.Asset)",
        "numberOfBytes": "32",
        "value": "t_struct(Asset)36263_storage"
      },
      "t_mapping(t_address,t_struct(Strategy)36276_storage)": {
        "encoding": "mapping",
        "key": "t_address",
        "label": "mapping(address => struct VaultStorage.Strategy)",
        "numberOfBytes": "32",
        "value": "t_struct(Strategy)36276_storage"
      },
      "t_mapping(t_address,t_uint256)": {
        "encoding": "mapping",
        "key": "t_address",
        "label": "mapping(address => uint256)",
        "numberOfBytes": "32",
        "value": "t_uint256"
      },
      "t_struct(Asset)36263_storage": {
        "encoding": "inplace",
        "label": "struct VaultStorage.Asset",
        "members": [
          {
            "astId": 36262,
            "contract": "contracts/vault/VaultAdmin.sol:VaultAdmin",
            "label": "isSupported",
            "offset": 0,
            "slot": "0",
            "type": "t_bool"
          }
        ],
        "numberOfBytes": "32"
      },
      "t_struct(Strategy)36276_storage": {
        "encoding": "inplace",
        "label": "struct VaultStorage.Strategy",
        "members": [
          {
            "astId": 36273,
            "contract": "contracts/vault/VaultAdmin.sol:VaultAdmin",
            "label": "isSupported",
            "offset": 0,
            "slot": "0",
            "type": "t_bool"
          },
          {
            "astId": 36275,
            "contract": "contracts/vault/VaultAdmin.sol:VaultAdmin",
            "label": "_deprecated",
            "offset": 0,
            "slot": "1",
            "type": "t_uint256"
          }
        ],
        "numberOfBytes": "64"
      },
      "t_struct(StrategyWithWeight)36374_storage": {
        "encoding": "inplace",
        "label": "struct VaultStorage.StrategyWithWeight",
        "members": [
          {
            "astId": 36363,
            "contract": "contracts/vault/VaultAdmin.sol:VaultAdmin",
            "label": "strategy",
            "offset": 0,
            "slot": "0",
            "type": "t_address"
          },
          {
            "astId": 36365,
            "contract": "contracts/vault/VaultAdmin.sol:VaultAdmin",
            "label": "minWeight",
            "offset": 0,
            "slot": "1",
            "type": "t_uint256"
          },
          {
            "astId": 36367,
            "contract": "contracts/vault/VaultAdmin.sol:VaultAdmin",
            "label": "targetWeight",
            "offset": 0,
            "slot": "2",
            "type": "t_uint256"
          },
          {
            "astId": 36369,
            "contract": "contracts/vault/VaultAdmin.sol:VaultAdmin",
            "label": "maxWeight",
            "offset": 0,
            "slot": "3",
            "type": "t_uint256"
          },
          {
            "astId": 36371,
            "contract": "contracts/vault/VaultAdmin.sol:VaultAdmin",
            "label": "enabled",
            "offset": 0,
            "slot": "4",
            "type": "t_bool"
          },
          {
            "astId": 36373,
            "contract": "contracts/vault/VaultAdmin.sol:VaultAdmin",
            "label": "enabledReward",
            "offset": 1,
            "slot": "4",
            "type": "t_bool"
          }
        ],
        "numberOfBytes": "160"
      },
      "t_uint256": {
        "encoding": "inplace",
        "label": "uint256",
        "numberOfBytes": "32"
      }
    }
  }
}